{
  "_format": "hh-sol-artifact-1",
  "contractName": "CommonChainContract",
  "sourceName": "contracts/serverless-v2/CommonChainContract.sol",
  "abi": [
    {
      "inputs": [
        {
          "internalType": "contract IAttestationVerifier",
          "name": "attestationVerifier",
          "type": "address"
        },
        {
          "internalType": "uint256",
          "name": "maxAge",
          "type": "uint256"
        }
      ],
      "stateMutability": "nonpayable",
      "type": "constructor"
    },
    {
      "anonymous": false,
      "inputs": [
        {
          "indexed": false,
          "internalType": "address",
          "name": "previousAdmin",
          "type": "address"
        },
        {
          "indexed": false,
          "internalType": "address",
          "name": "newAdmin",
          "type": "address"
        }
      ],
      "name": "AdminChanged",
      "type": "event"
    },
    {
      "anonymous": false,
      "inputs": [
        {
          "indexed": true,
          "internalType": "address",
          "name": "beacon",
          "type": "address"
        }
      ],
      "name": "BeaconUpgraded",
      "type": "event"
    },
    {
      "anonymous": false,
      "inputs": [
        {
          "indexed": false,
          "internalType": "bytes",
          "name": "enclavePubKey",
          "type": "bytes"
        },
        {
          "indexed": false,
          "internalType": "uint256",
          "name": "chainId",
          "type": "uint256"
        }
      ],
      "name": "ChainAdded",
      "type": "event"
    },
    {
      "anonymous": false,
      "inputs": [
        {
          "indexed": false,
          "internalType": "uint256",
          "name": "chainId",
          "type": "uint256"
        },
        {
          "indexed": false,
          "internalType": "address",
          "name": "contractAddress",
          "type": "address"
        },
        {
          "indexed": false,
          "internalType": "string",
          "name": "rpcUrl",
          "type": "string"
        }
      ],
      "name": "ChainAddedGlobal",
      "type": "event"
    },
    {
      "anonymous": false,
      "inputs": [
        {
          "indexed": false,
          "internalType": "bytes",
          "name": "enclavePubKey",
          "type": "bytes"
        },
        {
          "indexed": false,
          "internalType": "uint256",
          "name": "chainId",
          "type": "uint256"
        }
      ],
      "name": "ChainRemoved",
      "type": "event"
    },
    {
      "anonymous": false,
      "inputs": [
        {
          "indexed": false,
          "internalType": "uint256",
          "name": "chainId",
          "type": "uint256"
        }
      ],
      "name": "ChainRemovedGlobal",
      "type": "event"
    },
    {
      "anonymous": false,
      "inputs": [
        {
          "indexed": true,
          "internalType": "bytes32",
          "name": "imageId",
          "type": "bytes32"
        }
      ],
      "name": "EnclaveImageRevoked",
      "type": "event"
    },
    {
      "anonymous": false,
      "inputs": [
        {
          "indexed": true,
          "internalType": "bytes32",
          "name": "imageId",
          "type": "bytes32"
        },
        {
          "indexed": false,
          "internalType": "bytes",
          "name": "PCR0",
          "type": "bytes"
        },
        {
          "indexed": false,
          "internalType": "bytes",
          "name": "PCR1",
          "type": "bytes"
        },
        {
          "indexed": false,
          "internalType": "bytes",
          "name": "PCR2",
          "type": "bytes"
        }
      ],
      "name": "EnclaveImageWhitelisted",
      "type": "event"
    },
    {
      "anonymous": false,
      "inputs": [
        {
          "indexed": true,
          "internalType": "bytes",
          "name": "enclavePubKey",
          "type": "bytes"
        }
      ],
      "name": "EnclaveKeyRevoked",
      "type": "event"
    },
    {
      "anonymous": false,
      "inputs": [
        {
          "indexed": true,
          "internalType": "bytes",
          "name": "enclavePubKey",
          "type": "bytes"
        },
        {
          "indexed": true,
          "internalType": "bytes32",
          "name": "imageId",
          "type": "bytes32"
        }
      ],
      "name": "EnclaveKeyVerified",
      "type": "event"
    },
    {
      "anonymous": false,
      "inputs": [
        {
          "indexed": true,
          "internalType": "bytes",
          "name": "enclavePubKey",
          "type": "bytes"
        },
        {
          "indexed": true,
          "internalType": "bytes32",
          "name": "imageId",
          "type": "bytes32"
        }
      ],
      "name": "EnclaveKeyWhitelisted",
      "type": "event"
    },
    {
      "anonymous": false,
      "inputs": [
        {
          "indexed": false,
          "internalType": "bytes",
          "name": "enclavePubKey",
          "type": "bytes"
        }
      ],
      "name": "ExecutorDeregistered",
      "type": "event"
    },
    {
      "anonymous": false,
      "inputs": [
        {
          "indexed": false,
          "internalType": "bytes",
          "name": "enclavePubKey",
          "type": "bytes"
        },
        {
          "indexed": true,
          "internalType": "address",
          "name": "enclaveAddress",
          "type": "address"
        },
        {
          "indexed": true,
          "internalType": "address",
          "name": "operator",
          "type": "address"
        }
      ],
      "name": "ExecutorRegistered",
      "type": "event"
    },
    {
      "anonymous": false,
      "inputs": [
        {
          "indexed": false,
          "internalType": "bytes",
          "name": "enclavePubKey",
          "type": "bytes"
        },
        {
          "indexed": false,
          "internalType": "uint256",
          "name": "addedAmount",
          "type": "uint256"
        },
        {
          "indexed": false,
          "internalType": "uint256",
          "name": "totalAmount",
          "type": "uint256"
        }
      ],
      "name": "ExecutorStakeAdded",
      "type": "event"
    },
    {
      "anonymous": false,
      "inputs": [
        {
          "indexed": false,
          "internalType": "bytes",
          "name": "enclavePubKey",
          "type": "bytes"
        },
        {
          "indexed": false,
          "internalType": "uint256",
          "name": "removedAmount",
          "type": "uint256"
        },
        {
          "indexed": false,
          "internalType": "uint256",
          "name": "totalAmount",
          "type": "uint256"
        }
      ],
      "name": "ExecutorStakeRemoved",
      "type": "event"
    },
    {
      "anonymous": false,
      "inputs": [
        {
          "indexed": false,
          "internalType": "bytes",
          "name": "enclavePubKey",
          "type": "bytes"
        }
      ],
      "name": "GatewayDeregistered",
      "type": "event"
    },
    {
      "anonymous": false,
      "inputs": [
        {
          "indexed": false,
          "internalType": "uint256",
          "name": "jobId",
          "type": "uint256"
        },
        {
          "indexed": true,
          "internalType": "address",
          "name": "prevGatewayOperator",
          "type": "address"
        },
        {
          "indexed": true,
          "internalType": "address",
          "name": "newGatewayOperator",
          "type": "address"
        }
      ],
      "name": "GatewayReassigned",
      "type": "event"
    },
    {
      "anonymous": false,
      "inputs": [
        {
          "indexed": false,
          "internalType": "bytes",
          "name": "enclavePubKey",
          "type": "bytes"
        },
        {
          "indexed": true,
          "internalType": "address",
          "name": "enclaveAddress",
          "type": "address"
        },
        {
          "indexed": true,
          "internalType": "address",
          "name": "operator",
          "type": "address"
        }
      ],
      "name": "GatewayRegistered",
      "type": "event"
    },
    {
      "anonymous": false,
      "inputs": [
        {
          "indexed": false,
          "internalType": "bytes",
          "name": "enclavePubKey",
          "type": "bytes"
        },
        {
          "indexed": false,
          "internalType": "uint256",
          "name": "addedAmount",
          "type": "uint256"
        },
        {
          "indexed": false,
          "internalType": "uint256",
          "name": "totalAmount",
          "type": "uint256"
        }
      ],
      "name": "GatewayStakeAdded",
      "type": "event"
    },
    {
      "anonymous": false,
      "inputs": [
        {
          "indexed": false,
          "internalType": "bytes",
          "name": "enclavePubKey",
          "type": "bytes"
        },
        {
          "indexed": false,
          "internalType": "uint256",
          "name": "removedAmount",
          "type": "uint256"
        },
        {
          "indexed": false,
          "internalType": "uint256",
          "name": "totalAmount",
          "type": "uint256"
        }
      ],
      "name": "GatewayStakeRemoved",
      "type": "event"
    },
    {
      "anonymous": false,
      "inputs": [
        {
          "indexed": false,
          "internalType": "uint8",
          "name": "version",
          "type": "uint8"
        }
      ],
      "name": "Initialized",
      "type": "event"
    },
    {
      "anonymous": false,
      "inputs": [
        {
          "indexed": true,
          "internalType": "uint256",
          "name": "jobId",
          "type": "uint256"
        },
        {
          "indexed": false,
          "internalType": "uint256",
          "name": "reqChainId",
          "type": "uint256"
        },
        {
          "indexed": false,
          "internalType": "bytes32",
          "name": "codehash",
          "type": "bytes32"
        },
        {
          "indexed": false,
          "internalType": "bytes",
          "name": "codeInputs",
          "type": "bytes"
        },
        {
          "indexed": false,
          "internalType": "uint256",
          "name": "deadline",
          "type": "uint256"
        },
        {
          "indexed": false,
          "internalType": "address",
          "name": "jobOwner",
          "type": "address"
        },
        {
          "indexed": false,
          "internalType": "address",
          "name": "gatewayOperator",
          "type": "address"
        }
      ],
      "name": "JobRelayed",
      "type": "event"
    },
    {
      "anonymous": false,
      "inputs": [
        {
          "indexed": true,
          "internalType": "uint256",
          "name": "jobId",
          "type": "uint256"
        },
        {
          "indexed": false,
          "internalType": "bytes",
          "name": "output",
          "type": "bytes"
        },
        {
          "indexed": false,
          "internalType": "uint256",
          "name": "totalTime",
          "type": "uint256"
        },
        {
          "indexed": false,
          "internalType": "uint256",
          "name": "errorCode",
          "type": "uint256"
        },
        {
          "indexed": false,
          "internalType": "uint8",
          "name": "outputCount",
          "type": "uint8"
        }
      ],
      "name": "JobResponded",
      "type": "event"
    },
    {
      "anonymous": false,
      "inputs": [
        {
          "indexed": true,
          "internalType": "bytes32",
          "name": "role",
          "type": "bytes32"
        },
        {
          "indexed": true,
          "internalType": "bytes32",
          "name": "previousAdminRole",
          "type": "bytes32"
        },
        {
          "indexed": true,
          "internalType": "bytes32",
          "name": "newAdminRole",
          "type": "bytes32"
        }
      ],
      "name": "RoleAdminChanged",
      "type": "event"
    },
    {
      "anonymous": false,
      "inputs": [
        {
          "indexed": true,
          "internalType": "bytes32",
          "name": "role",
          "type": "bytes32"
        },
        {
          "indexed": true,
          "internalType": "address",
          "name": "account",
          "type": "address"
        },
        {
          "indexed": true,
          "internalType": "address",
          "name": "sender",
          "type": "address"
        }
      ],
      "name": "RoleGranted",
      "type": "event"
    },
    {
      "anonymous": false,
      "inputs": [
        {
          "indexed": true,
          "internalType": "bytes32",
          "name": "role",
          "type": "bytes32"
        },
        {
          "indexed": true,
          "internalType": "address",
          "name": "account",
          "type": "address"
        },
        {
          "indexed": true,
          "internalType": "address",
          "name": "sender",
          "type": "address"
        }
      ],
      "name": "RoleRevoked",
      "type": "event"
    },
    {
      "anonymous": false,
      "inputs": [
        {
          "indexed": false,
          "internalType": "uint256",
          "name": "jobId",
          "type": "uint256"
        },
        {
          "indexed": false,
          "internalType": "address[]",
          "name": "executors",
          "type": "address[]"
        }
      ],
      "name": "SlashedOnExecutionTimeout",
      "type": "event"
    },
    {
      "anonymous": false,
      "inputs": [
        {
          "indexed": true,
          "internalType": "address",
          "name": "implementation",
          "type": "address"
        }
      ],
      "name": "Upgraded",
      "type": "event"
    },
    {
      "inputs": [],
      "name": "ATTESTATION_MAX_AGE",
      "outputs": [
        {
          "internalType": "uint256",
          "name": "",
          "type": "uint256"
        }
      ],
      "stateMutability": "view",
      "type": "function"
    },
    {
      "inputs": [],
      "name": "ATTESTATION_VERIFIER",
      "outputs": [
        {
          "internalType": "contract IAttestationVerifier",
          "name": "",
          "type": "address"
        }
      ],
      "stateMutability": "view",
      "type": "function"
    },
    {
      "inputs": [],
      "name": "DEFAULT_ADMIN_ROLE",
      "outputs": [
        {
          "internalType": "bytes32",
          "name": "",
          "type": "bytes32"
        }
      ],
      "stateMutability": "view",
      "type": "function"
    },
    {
      "inputs": [
        {
          "internalType": "address",
          "name": "_admin",
          "type": "address"
        },
        {
          "components": [
            {
              "internalType": "bytes",
              "name": "PCR0",
              "type": "bytes"
            },
            {
              "internalType": "bytes",
              "name": "PCR1",
              "type": "bytes"
            },
            {
              "internalType": "bytes",
              "name": "PCR2",
              "type": "bytes"
            }
          ],
          "internalType": "struct AttestationAutherUpgradeable.EnclaveImage[]",
          "name": "_images",
          "type": "tuple[]"
        },
        {
          "internalType": "contract IERC20",
          "name": "_token",
          "type": "address"
        },
        {
          "internalType": "uint256",
          "name": "_executionBufferTime",
          "type": "uint256"
        },
        {
          "internalType": "uint256",
          "name": "_noOfNodesToSelect",
          "type": "uint256"
        }
      ],
      "name": "__CommonChainContract_init",
      "outputs": [],
      "stateMutability": "nonpayable",
      "type": "function"
    },
    {
      "inputs": [
        {
          "internalType": "bytes",
          "name": "_enclavePubKey",
          "type": "bytes"
        },
        {
          "internalType": "uint256",
          "name": "_chainId",
          "type": "uint256"
        }
      ],
      "name": "addChain",
      "outputs": [],
      "stateMutability": "nonpayable",
      "type": "function"
    },
    {
      "inputs": [
        {
          "internalType": "uint256[]",
          "name": "_chainIds",
          "type": "uint256[]"
        },
        {
          "components": [
            {
              "internalType": "address",
              "name": "contractAddress",
              "type": "address"
            },
            {
              "internalType": "string",
              "name": "rpcUrl",
              "type": "string"
            }
          ],
          "internalType": "struct CommonChainContract.RequestChain[]",
          "name": "_requestChains",
          "type": "tuple[]"
        }
      ],
      "name": "addChainGlobal",
      "outputs": [],
      "stateMutability": "nonpayable",
      "type": "function"
    },
    {
      "inputs": [
        {
          "internalType": "bytes",
          "name": "_enclavePubKey",
          "type": "bytes"
        },
        {
          "internalType": "uint256[]",
          "name": "_chainIds",
          "type": "uint256[]"
        }
      ],
      "name": "addChains",
      "outputs": [],
      "stateMutability": "nonpayable",
      "type": "function"
    },
    {
      "inputs": [
        {
          "internalType": "bytes",
          "name": "_enclavePubKey",
          "type": "bytes"
        },
        {
          "internalType": "uint256",
          "name": "_amount",
          "type": "uint256"
        }
      ],
      "name": "addExecutorStake",
      "outputs": [],
      "stateMutability": "nonpayable",
      "type": "function"
    },
    {
      "inputs": [
        {
          "internalType": "bytes",
          "name": "_enclavePubKey",
          "type": "bytes"
        },
        {
          "internalType": "uint256",
          "name": "_amount",
          "type": "uint256"
        }
      ],
      "name": "addGatewayStake",
      "outputs": [],
      "stateMutability": "nonpayable",
      "type": "function"
    },
    {
      "inputs": [
        {
          "internalType": "address",
          "name": "",
          "type": "address"
        }
      ],
      "name": "addressToIndexMap",
      "outputs": [
        {
          "internalType": "uint256",
          "name": "",
          "type": "uint256"
        }
      ],
      "stateMutability": "view",
      "type": "function"
    },
    {
      "inputs": [
        {
          "internalType": "bytes",
          "name": "_enclavePubKey",
          "type": "bytes"
        }
      ],
      "name": "deregisterExecutor",
      "outputs": [],
      "stateMutability": "nonpayable",
      "type": "function"
    },
    {
      "inputs": [
        {
          "internalType": "bytes",
          "name": "_enclavePubKey",
          "type": "bytes"
        }
      ],
      "name": "deregisterGateway",
      "outputs": [],
      "stateMutability": "nonpayable",
      "type": "function"
    },
    {
      "inputs": [],
      "name": "executionBufferTime",
      "outputs": [
        {
          "internalType": "uint256",
          "name": "",
          "type": "uint256"
        }
      ],
      "stateMutability": "view",
      "type": "function"
    },
    {
      "inputs": [
        {
          "internalType": "address",
          "name": "",
          "type": "address"
        }
      ],
      "name": "executors",
      "outputs": [
        {
          "internalType": "address",
          "name": "operator",
          "type": "address"
        },
        {
          "internalType": "uint256",
          "name": "jobCapacity",
          "type": "uint256"
        },
        {
          "internalType": "uint256",
          "name": "activeJobs",
          "type": "uint256"
        },
        {
          "internalType": "uint256",
          "name": "stakeAmount",
          "type": "uint256"
        },
        {
          "internalType": "bool",
          "name": "status",
          "type": "bool"
        }
      ],
      "stateMutability": "view",
      "type": "function"
    },
    {
      "inputs": [
        {
          "internalType": "address",
          "name": "",
          "type": "address"
        }
      ],
      "name": "gateways",
      "outputs": [
        {
          "internalType": "address",
          "name": "operator",
          "type": "address"
        },
        {
          "internalType": "uint256",
          "name": "stakeAmount",
          "type": "uint256"
        },
        {
          "internalType": "bool",
          "name": "status",
          "type": "bool"
        }
      ],
      "stateMutability": "view",
      "type": "function"
    },
    {
      "inputs": [
        {
          "internalType": "bytes32",
          "name": "role",
          "type": "bytes32"
        }
      ],
      "name": "getRoleAdmin",
      "outputs": [
        {
          "internalType": "bytes32",
          "name": "",
          "type": "bytes32"
        }
      ],
      "stateMutability": "view",
      "type": "function"
    },
    {
      "inputs": [
        {
          "internalType": "bytes32",
          "name": "role",
          "type": "bytes32"
        },
        {
          "internalType": "uint256",
          "name": "index",
          "type": "uint256"
        }
      ],
      "name": "getRoleMember",
      "outputs": [
        {
          "internalType": "address",
          "name": "",
          "type": "address"
        }
      ],
      "stateMutability": "view",
      "type": "function"
    },
    {
      "inputs": [
        {
          "internalType": "bytes32",
          "name": "role",
          "type": "bytes32"
        }
      ],
      "name": "getRoleMemberCount",
      "outputs": [
        {
          "internalType": "uint256",
          "name": "",
          "type": "uint256"
        }
      ],
      "stateMutability": "view",
      "type": "function"
    },
    {
      "inputs": [
        {
          "internalType": "address",
          "name": "_key",
          "type": "address"
        }
      ],
      "name": "getVerifiedKey",
      "outputs": [
        {
          "internalType": "bytes32",
          "name": "",
          "type": "bytes32"
        }
      ],
      "stateMutability": "view",
      "type": "function"
    },
    {
      "inputs": [
        {
          "internalType": "bytes32",
          "name": "_imageId",
          "type": "bytes32"
        }
      ],
      "name": "getWhitelistedImage",
      "outputs": [
        {
          "components": [
            {
              "internalType": "bytes",
              "name": "PCR0",
              "type": "bytes"
            },
            {
              "internalType": "bytes",
              "name": "PCR1",
              "type": "bytes"
            },
            {
              "internalType": "bytes",
              "name": "PCR2",
              "type": "bytes"
            }
          ],
          "internalType": "struct AttestationAutherUpgradeable.EnclaveImage",
          "name": "",
          "type": "tuple"
        }
      ],
      "stateMutability": "view",
      "type": "function"
    },
    {
      "inputs": [
        {
          "internalType": "bytes32",
          "name": "role",
          "type": "bytes32"
        },
        {
          "internalType": "address",
          "name": "account",
          "type": "address"
        }
      ],
      "name": "grantRole",
      "outputs": [],
      "stateMutability": "nonpayable",
      "type": "function"
    },
    {
      "inputs": [
        {
          "internalType": "bytes32",
          "name": "role",
          "type": "bytes32"
        },
        {
          "internalType": "address",
          "name": "account",
          "type": "address"
        }
      ],
      "name": "hasRole",
      "outputs": [
        {
          "internalType": "bool",
          "name": "",
          "type": "bool"
        }
      ],
      "stateMutability": "view",
      "type": "function"
    },
    {
      "inputs": [
        {
          "internalType": "uint256",
          "name": "",
          "type": "uint256"
        }
      ],
      "name": "indexToAddressMap",
      "outputs": [
        {
          "internalType": "address",
          "name": "",
          "type": "address"
        }
      ],
      "stateMutability": "view",
      "type": "function"
    },
    {
      "inputs": [
        {
          "internalType": "uint256",
          "name": "_jobId",
          "type": "uint256"
        },
        {
          "internalType": "address",
          "name": "_executor",
          "type": "address"
        }
      ],
      "name": "isJobExecutor",
      "outputs": [
        {
          "internalType": "bool",
          "name": "",
          "type": "bool"
        }
      ],
      "stateMutability": "view",
      "type": "function"
    },
    {
      "inputs": [
        {
          "internalType": "uint256",
          "name": "",
          "type": "uint256"
        }
      ],
      "name": "jobs",
      "outputs": [
        {
          "internalType": "uint256",
          "name": "reqChainId",
          "type": "uint256"
        },
        {
          "internalType": "bytes32",
          "name": "codehash",
          "type": "bytes32"
        },
        {
          "internalType": "bytes",
          "name": "codeInputs",
          "type": "bytes"
        },
        {
          "internalType": "uint256",
          "name": "deadline",
          "type": "uint256"
        },
        {
          "internalType": "uint256",
          "name": "execStartTime",
          "type": "uint256"
        },
        {
          "internalType": "address",
          "name": "jobOwner",
          "type": "address"
        },
        {
          "internalType": "address",
          "name": "gatewayOperator",
          "type": "address"
        },
        {
          "internalType": "uint8",
          "name": "outputCount",
          "type": "uint8"
        }
      ],
      "stateMutability": "view",
      "type": "function"
    },
    {
      "inputs": [],
      "name": "noOfNodesToSelect",
      "outputs": [
        {
          "internalType": "uint256",
          "name": "",
          "type": "uint256"
        }
      ],
      "stateMutability": "view",
      "type": "function"
    },
    {
      "inputs": [
        {
          "internalType": "uint256",
          "name": "",
          "type": "uint256"
        }
      ],
      "name": "nodes",
      "outputs": [
        {
          "internalType": "uint64",
          "name": "value",
          "type": "uint64"
        },
        {
          "internalType": "uint64",
          "name": "leftSum",
          "type": "uint64"
        },
        {
          "internalType": "uint64",
          "name": "rightSum",
          "type": "uint64"
        }
      ],
      "stateMutability": "view",
      "type": "function"
    },
    {
      "inputs": [],
      "name": "nodesInTree",
      "outputs": [
        {
          "internalType": "uint256",
          "name": "",
          "type": "uint256"
        }
      ],
      "stateMutability": "view",
      "type": "function"
    },
    {
      "inputs": [],
      "name": "proxiableUUID",
      "outputs": [
        {
          "internalType": "bytes32",
          "name": "",
          "type": "bytes32"
        }
      ],
      "stateMutability": "view",
      "type": "function"
    },
    {
      "inputs": [
        {
          "internalType": "address",
          "name": "_gatewayOperatorOld",
          "type": "address"
        },
        {
          "internalType": "uint256",
          "name": "_jobId",
          "type": "uint256"
        },
        {
          "internalType": "bytes",
          "name": "_signature",
          "type": "bytes"
        }
      ],
      "name": "reassignGatewayRelay",
      "outputs": [],
      "stateMutability": "nonpayable",
      "type": "function"
    },
    {
      "inputs": [
        {
          "internalType": "bytes",
          "name": "_attestation",
          "type": "bytes"
        },
        {
          "internalType": "bytes",
          "name": "_enclavePubKey",
          "type": "bytes"
        },
        {
          "internalType": "bytes",
          "name": "_PCR0",
          "type": "bytes"
        },
        {
          "internalType": "bytes",
          "name": "_PCR1",
          "type": "bytes"
        },
        {
          "internalType": "bytes",
          "name": "_PCR2",
          "type": "bytes"
        },
        {
          "internalType": "uint256",
          "name": "_enclaveCPUs",
          "type": "uint256"
        },
        {
          "internalType": "uint256",
          "name": "_enclaveMemory",
          "type": "uint256"
        },
        {
          "internalType": "uint256",
          "name": "_timestampInMilliseconds",
          "type": "uint256"
        },
        {
          "internalType": "uint256",
          "name": "_jobCapacity",
          "type": "uint256"
        },
        {
          "internalType": "bytes",
          "name": "_signature",
          "type": "bytes"
        },
        {
          "internalType": "uint256",
          "name": "_stakeAmount",
          "type": "uint256"
        }
      ],
      "name": "registerExecutor",
      "outputs": [],
      "stateMutability": "nonpayable",
      "type": "function"
    },
    {
      "inputs": [
        {
          "internalType": "bytes",
          "name": "_attestation",
          "type": "bytes"
        },
        {
          "internalType": "bytes",
          "name": "_enclavePubKey",
          "type": "bytes"
        },
        {
          "internalType": "bytes",
          "name": "_PCR0",
          "type": "bytes"
        },
        {
          "internalType": "bytes",
          "name": "_PCR1",
          "type": "bytes"
        },
        {
          "internalType": "bytes",
          "name": "_PCR2",
          "type": "bytes"
        },
        {
          "internalType": "uint256",
          "name": "_enclaveCPUs",
          "type": "uint256"
        },
        {
          "internalType": "uint256",
          "name": "_enclaveMemory",
          "type": "uint256"
        },
        {
          "internalType": "uint256",
          "name": "_timestampInMilliseconds",
          "type": "uint256"
        },
        {
          "internalType": "uint256[]",
          "name": "_chainIds",
          "type": "uint256[]"
        },
        {
          "internalType": "bytes",
          "name": "_signature",
          "type": "bytes"
        },
        {
          "internalType": "uint256",
          "name": "_stakeAmount",
          "type": "uint256"
        }
      ],
      "name": "registerGateway",
      "outputs": [],
      "stateMutability": "nonpayable",
      "type": "function"
    },
    {
      "inputs": [
        {
          "internalType": "bytes",
          "name": "_signature",
          "type": "bytes"
        },
        {
          "internalType": "uint256",
          "name": "_jobId",
          "type": "uint256"
        },
        {
          "internalType": "uint256",
          "name": "_reqChainId",
          "type": "uint256"
        },
        {
          "internalType": "bytes32",
          "name": "_codehash",
          "type": "bytes32"
        },
        {
          "internalType": "bytes",
          "name": "_codeInputs",
          "type": "bytes"
        },
        {
          "internalType": "uint256",
          "name": "_deadline",
          "type": "uint256"
        },
        {
          "internalType": "address",
          "name": "_jobOwner",
          "type": "address"
        }
      ],
      "name": "relayJob",
      "outputs": [],
      "stateMutability": "nonpayable",
      "type": "function"
    },
    {
      "inputs": [
        {
          "internalType": "bytes",
          "name": "_enclavePubKey",
          "type": "bytes"
        },
        {
          "internalType": "uint256",
          "name": "_chainId",
          "type": "uint256"
        }
      ],
      "name": "removeChain",
      "outputs": [],
      "stateMutability": "nonpayable",
      "type": "function"
    },
    {
      "inputs": [
        {
          "internalType": "uint256[]",
          "name": "_chainIds",
          "type": "uint256[]"
        }
      ],
      "name": "removeChainGlobal",
      "outputs": [],
      "stateMutability": "nonpayable",
      "type": "function"
    },
    {
      "inputs": [
        {
          "internalType": "bytes",
          "name": "_enclavePubKey",
          "type": "bytes"
        },
        {
          "internalType": "uint256[]",
          "name": "_chainIds",
          "type": "uint256[]"
        }
      ],
      "name": "removeChains",
      "outputs": [],
      "stateMutability": "nonpayable",
      "type": "function"
    },
    {
      "inputs": [
        {
          "internalType": "bytes",
          "name": "_enclavePubKey",
          "type": "bytes"
        },
        {
          "internalType": "uint256",
          "name": "_amount",
          "type": "uint256"
        }
      ],
      "name": "removeExecutorStake",
      "outputs": [],
      "stateMutability": "nonpayable",
      "type": "function"
    },
    {
      "inputs": [
        {
          "internalType": "bytes",
          "name": "_enclavePubKey",
          "type": "bytes"
        },
        {
          "internalType": "uint256",
          "name": "_amount",
          "type": "uint256"
        }
      ],
      "name": "removeGatewayStake",
      "outputs": [],
      "stateMutability": "nonpayable",
      "type": "function"
    },
    {
      "inputs": [
        {
          "internalType": "bytes32",
          "name": "role",
          "type": "bytes32"
        },
        {
          "internalType": "address",
          "name": "account",
          "type": "address"
        }
      ],
      "name": "renounceRole",
      "outputs": [],
      "stateMutability": "nonpayable",
      "type": "function"
    },
    {
      "inputs": [
        {
          "internalType": "uint256",
          "name": "",
          "type": "uint256"
        }
      ],
      "name": "requestChains",
      "outputs": [
        {
          "internalType": "address",
          "name": "contractAddress",
          "type": "address"
        },
        {
          "internalType": "string",
          "name": "rpcUrl",
          "type": "string"
        }
      ],
      "stateMutability": "view",
      "type": "function"
    },
    {
      "inputs": [
        {
          "internalType": "bytes32",
          "name": "role",
          "type": "bytes32"
        },
        {
          "internalType": "address",
          "name": "account",
          "type": "address"
        }
      ],
      "name": "revokeRole",
      "outputs": [],
      "stateMutability": "nonpayable",
      "type": "function"
    },
    {
      "inputs": [
        {
          "internalType": "uint256",
          "name": "",
          "type": "uint256"
        },
        {
          "internalType": "uint256",
          "name": "",
          "type": "uint256"
        }
      ],
      "name": "selectedExecutors",
      "outputs": [
        {
          "internalType": "address",
          "name": "",
          "type": "address"
        }
      ],
      "stateMutability": "view",
      "type": "function"
    },
    {
      "inputs": [
        {
          "internalType": "uint256",
          "name": "_jobId",
          "type": "uint256"
        }
      ],
      "name": "slashOnExecutionTimeout",
      "outputs": [],
      "stateMutability": "nonpayable",
      "type": "function"
    },
    {
      "inputs": [
        {
          "internalType": "bytes",
          "name": "_signature",
          "type": "bytes"
        },
        {
          "internalType": "uint256",
          "name": "_jobId",
          "type": "uint256"
        },
        {
          "internalType": "bytes",
          "name": "_output",
          "type": "bytes"
        },
        {
          "internalType": "uint256",
          "name": "_totalTime",
          "type": "uint256"
        },
        {
          "internalType": "uint8",
          "name": "_errorCode",
          "type": "uint8"
        }
      ],
      "name": "submitOutput",
      "outputs": [],
      "stateMutability": "nonpayable",
      "type": "function"
    },
    {
      "inputs": [
        {
          "internalType": "bytes4",
          "name": "interfaceId",
          "type": "bytes4"
        }
      ],
      "name": "supportsInterface",
      "outputs": [
        {
          "internalType": "bool",
          "name": "",
          "type": "bool"
        }
      ],
      "stateMutability": "view",
      "type": "function"
    },
    {
      "inputs": [],
      "name": "token",
      "outputs": [
        {
          "internalType": "contract IERC20",
          "name": "",
          "type": "address"
        }
      ],
      "stateMutability": "view",
      "type": "function"
    },
    {
      "inputs": [
        {
          "internalType": "address",
          "name": "newImplementation",
          "type": "address"
        }
      ],
      "name": "upgradeTo",
      "outputs": [],
      "stateMutability": "nonpayable",
      "type": "function"
    },
    {
      "inputs": [
        {
          "internalType": "address",
          "name": "newImplementation",
          "type": "address"
        },
        {
          "internalType": "bytes",
          "name": "data",
          "type": "bytes"
        }
      ],
      "name": "upgradeToAndCall",
      "outputs": [],
      "stateMutability": "payable",
      "type": "function"
    },
    {
      "inputs": [
        {
          "internalType": "bytes",
          "name": "signature",
          "type": "bytes"
        },
        {
          "internalType": "bytes",
          "name": "enclavePubKey",
          "type": "bytes"
        },
        {
          "internalType": "bytes32",
          "name": "imageId",
          "type": "bytes32"
        },
        {
          "internalType": "uint256",
          "name": "enclaveCPUs",
          "type": "uint256"
        },
        {
          "internalType": "uint256",
          "name": "enclaveMemory",
          "type": "uint256"
        },
        {
          "internalType": "uint256",
          "name": "timestampInMilliseconds",
          "type": "uint256"
        }
      ],
      "name": "verifyKey",
      "outputs": [],
      "stateMutability": "nonpayable",
      "type": "function"
    }
  ],
  "bytecode": "0x60e06040523060c0523480156200001557600080fd5b50604051620075fc380380620075fc833981016040819052620000389162000186565b6001600160a01b03821660805260a0819052600054610100900460ff16158080156200006b5750600054600160ff909116105b806200009b575062000088306200017760201b620035a21760201c565b1580156200009b575060005460ff166001145b620001035760405162461bcd60e51b815260206004820152602e60248201527f496e697469616c697a61626c653a20636f6e747261637420697320616c72656160448201526d191e481a5b9a5d1a585b1a5e995960921b606482015260840160405180910390fd5b6000805460ff19166001179055801562000127576000805461ff0019166101001790555b80156200016e576000805461ff0019169055604051600181527f7f26b83ff96e1f2b6a682f133852f6798a09c465da95921460cefb38474024989060200160405180910390a15b505050620001c2565b6001600160a01b03163b151590565b600080604083850312156200019a57600080fd5b82516001600160a01b0381168114620001b257600080fd5b6020939093015192949293505050565b60805160a05160c0516173e06200021c6000396000818161108e01528181611124015281816116b60152818161174c01526118430152600081816108690152613acf0152600081816109690152613d1e01526173e06000f3fe60806040526004361061031e5760003560e01c80639022c19c116101a5578063cc101e00116100ec578063e79e524a11610095578063eff3be091161006f578063eff3be0914610a6e578063f6c3873914610a8e578063fb94db2b14610aae578063fc0c546a14610ace57600080fd5b8063e79e524a14610a00578063ec6aef2914610a20578063edc1c0df14610a4057600080fd5b8063d77114a5116100c6578063d77114a5146109ab578063e0aba60a146109c0578063e201aee1146109e057600080fd5b8063cc101e0014610937578063cd79f90614610957578063d547741f1461098b57600080fd5b80639c01de411161014e578063a898693011610128578063a8986930146108e0578063ca0a13b6146108f7578063ca15c8731461091757600080fd5b80639c01de411461088b578063a217fddf146108ab578063a728ab76146108c057600080fd5b8063974d2a061161017f578063974d2a06146107ab5780639ac2a011146107cb5780639aec990e1461085757600080fd5b80639022c19c146106d457806391d148541461074557806395e11ef71461078b57600080fd5b80633659cfe6116102695780636361df6b1161021257806377cba036116101ec57806377cba0361461067457806380bc9233146106945780639010d07c146106b457600080fd5b80636361df6b1461061d5780636d5cc39f1461063d578063728d21b01461065d57600080fd5b80634c712ba3116102435780634c712ba3146105d55780634f1ef286146105f557806352d1902d1461060857600080fd5b80633659cfe6146105755780634abc64c2146105955780634b104c85146105b557600080fd5b80632410f6ba116102cb57806332dc9a96116102a557806332dc9a96146104e75780633651cf281461053557806336568abe1461055557600080fd5b80632410f6ba1461046a578063248a9ca3146104975780632f2ff15d146104c757600080fd5b8063180aedf3116102fc578063180aedf3146103be5780631a2c9de7146103f25780631c53c2801461041f57600080fd5b80630167847b1461032357806301d58fa31461034557806301ffc9a71461038e575b600080fd5b34801561032f57600080fd5b5061034361033e3660046160ed565b610aef565b005b34801561035157600080fd5b5061037b610360366004616137565b6001600160a01b0316600090815260ca602052604090205490565b6040519081526020015b60405180910390f35b34801561039a57600080fd5b506103ae6103a9366004616154565b610c4f565b6040519015158152602001610385565b3480156103ca57600080fd5b506103de6103d9366004616196565b610c60565b6040516103859897969594939291906161ff565b3480156103fe57600080fd5b5061037b61040d366004616137565b60fb6020526000908152604090205481565b34801561042b57600080fd5b5061043f61043a366004616196565b610d4f565b6040805167ffffffffffffffff94851681529284166020840152921691810191909152606001610385565b34801561047657600080fd5b5061048a610485366004616196565b610da0565b6040516103859190616258565b3480156104a357600080fd5b5061037b6104b2366004616196565b60009081526065602052604090206001015490565b3480156104d357600080fd5b506103436104e23660046162b9565b610f99565b3480156104f357600080fd5b5061051d610502366004616196565b60fc602052600090815260409020546001600160a01b031681565b6040516001600160a01b039091168152602001610385565b34801561054157600080fd5b5061051d6105503660046162e9565b610fc3565b34801561056157600080fd5b506103436105703660046162b9565b610ffc565b34801561058157600080fd5b50610343610590366004616137565b611084565b3480156105a157600080fd5b506103436105b0366004616383565b611221565b3480156105c157600080fd5b506103436105d03660046163e7565b611333565b3480156105e157600080fd5b506103436105f036600461642c565b611498565b610343610603366004616578565b6116ac565b34801561061457600080fd5b5061037b611836565b34801561062957600080fd5b506103436106383660046165be565b6118fb565b34801561064957600080fd5b50610343610658366004616650565b611abc565b34801561066957600080fd5b5061037b6101925481565b34801561068057600080fd5b506103ae61068f3660046162b9565b611e17565b3480156106a057600080fd5b506103436106af3660046163e7565b611ef3565b3480156106c057600080fd5b5061051d6106cf3660046162e9565b612143565b3480156106e057600080fd5b5061071e6106ef366004616137565b610195602052600090815260409020805460028201546003909201546001600160a01b03909116919060ff1683565b604080516001600160a01b0390941684526020840192909252151590820152606001610385565b34801561075157600080fd5b506103ae6107603660046162b9565b60009182526065602090815260408084206001600160a01b0393909316845291905290205460ff1690565b34801561079757600080fd5b506103436107a6366004616196565b612162565b3480156107b757600080fd5b506103436107c63660046163e7565b6123a7565b3480156107d757600080fd5b506108236107e6366004616137565b61019660205260009081526040902080546001820154600283015460038401546004909401546001600160a01b0390931693919290919060ff1685565b604080516001600160a01b03909616865260208601949094529284019190915260608301521515608082015260a001610385565b34801561086357600080fd5b5061037b7f000000000000000000000000000000000000000000000000000000000000000081565b34801561089757600080fd5b506103436108a63660046163e7565b612699565b3480156108b757600080fd5b5061037b600081565b3480156108cc57600080fd5b506103436108db3660046163e7565b6127bd565b3480156108ec57600080fd5b5061037b6101935481565b34801561090357600080fd5b506103436109123660046166ef565b612903565b34801561092357600080fd5b5061037b610932366004616196565b612a5d565b34801561094357600080fd5b506103436109523660046163e7565b612a74565b34801561096357600080fd5b5061051d7f000000000000000000000000000000000000000000000000000000000000000081565b34801561099757600080fd5b506103436109a63660046162b9565b612b87565b3480156109b757600080fd5b5061037b612bac565b3480156109cc57600080fd5b506103436109db3660046167f2565b612bc3565b3480156109ec57600080fd5b506103436109fb366004616827565b612d4d565b348015610a0c57600080fd5b50610343610a1b366004616890565b612e87565b348015610a2c57600080fd5b50610343610a3b366004616383565b61304b565b348015610a4c57600080fd5b50610a60610a5b366004616196565b613156565b604051610385929190616a06565b348015610a7a57600080fd5b50610343610a89366004616a28565b613206565b348015610a9a57600080fd5b50610343610aa93660046167f2565b6133ae565b348015610aba57600080fd5b50610343610ac9366004616b5a565b613594565b348015610ada57600080fd5b506101915461051d906001600160a01b031681565b610afa600033610760565b610b4b5760405162461bcd60e51b815260206004820152600a60248201527f6f6e6c792061646d696e0000000000000000000000000000000000000000000060448201526064015b60405180910390fd5b6000815111610b9c5760405162461bcd60e51b815260206004820152600e60248201527f494e56414c49445f4c454e4754480000000000000000000000000000000000006044820152606401610b42565b60005b8151811015610c4b576000828281518110610bbc57610bbc616be1565b602090810291909101810151600081815261019490925260408220805473ffffffffffffffffffffffffffffffffffffffff1916815590925090610c036001830182615e98565b50506040518181527f5b9dc40648bfe840de770df10081e79f179534343348da4087dea77ba584d1819060200160405180910390a15080610c4381616c3f565b915050610b9f565b5050565b6000610c5a826135b1565b92915050565b6101976020526000908152604090208054600182015460028301805492939192610c8990616c77565b80601f0160208091040260200160405190810160405280929190818152602001828054610cb590616c77565b8015610d025780601f10610cd757610100808354040283529160200191610d02565b820191906000526020600020905b815481529060010190602001808311610ce557829003601f168201915b50505050600383015460048401546005850154600690950154939491939092506001600160a01b039182169181169074010000000000000000000000000000000000000000900460ff1688565b60fd8181548110610d5f57600080fd5b60009182526020909120015467ffffffffffffffff808216925068010000000000000000820481169170010000000000000000000000000000000090041683565b610dc460405180606001604052806060815260200160608152602001606081525090565b600082815260c9602052604090819020815160608101909252805482908290610dec90616c77565b80601f0160208091040260200160405190810160405280929190818152602001828054610e1890616c77565b8015610e655780601f10610e3a57610100808354040283529160200191610e65565b820191906000526020600020905b815481529060010190602001808311610e4857829003601f168201915b50505050508152602001600182018054610e7e90616c77565b80601f0160208091040260200160405190810160405280929190818152602001828054610eaa90616c77565b8015610ef75780601f10610ecc57610100808354040283529160200191610ef7565b820191906000526020600020905b815481529060010190602001808311610eda57829003601f168201915b50505050508152602001600282018054610f1090616c77565b80601f0160208091040260200160405190810160405280929190818152602001828054610f3c90616c77565b8015610f895780601f10610f5e57610100808354040283529160200191610f89565b820191906000526020600020905b815481529060010190602001808311610f6c57829003601f168201915b5050505050815250509050919050565b600082815260656020526040902060010154610fb481613607565b610fbe8383613611565b505050565b6101986020528160005260406000208181548110610fe057600080fd5b6000918252602090912001546001600160a01b03169150829050565b6001600160a01b038116331461107a5760405162461bcd60e51b815260206004820152602f60248201527f416363657373436f6e74726f6c3a2063616e206f6e6c792072656e6f756e636560448201527f20726f6c657320666f722073656c6600000000000000000000000000000000006064820152608401610b42565b610c4b828261361b565b6001600160a01b037f00000000000000000000000000000000000000000000000000000000000000001630036111225760405162461bcd60e51b815260206004820152602c60248201527f46756e6374696f6e206d7573742062652063616c6c6564207468726f7567682060448201527f64656c656761746563616c6c00000000000000000000000000000000000000006064820152608401610b42565b7f00000000000000000000000000000000000000000000000000000000000000006001600160a01b031661117d7f360894a13ba1a3210667c828492db98dca3e2076cc3735a920a3ca505d382bbc546001600160a01b031690565b6001600160a01b0316146111f95760405162461bcd60e51b815260206004820152602c60248201527f46756e6374696f6e206d7573742062652063616c6c6564207468726f7567682060448201527f6163746976652070726f787900000000000000000000000000000000000000006064820152608401610b42565b6112028161367e565b6040805160008082526020820190925261121e918391906136d5565b50565b81600061122d82613875565b6001600160a01b038082166000908152610195602052604090205491925016331461129a5760405162461bcd60e51b815260206004820152601560248201527f4f4e4c595f474154455741595f4f50455241544f5200000000000000000000006044820152606401610b42565b60008351116112eb5760405162461bcd60e51b815260206004820152601060248201527f454d5054595f5245515f434841494e53000000000000000000000000000000006044820152606401610b42565b60005b835181101561132c5761131a8585838151811061130d5761130d616be1565b6020026020010151611ef3565b8061132481616c3f565b9150506112ee565b5050505050565b81600061133f82613875565b6001600160a01b03808216600090815261019660205260409020549192501633146113ac5760405162461bcd60e51b815260206004820152601660248201527f4f4e4c595f4558454355544f525f4f50455241544f52000000000000000000006044820152606401610b42565b6113c5335b610191546001600160a01b031690856138d4565b60006113d085613875565b6001600160a01b03811660009081526101966020526040812060030180549293508692909190611401908490616cca565b90915550506001600160a01b03811660009081526101966020526040902060018101546002909101541461143957611439818561397d565b6001600160a01b03811660009081526101966020526040908190206003015490517fa7903817e9c60899f1796f02344546fbe45af803ac7a26968e800564687172f9916114899188918891616cdd565b60405180910390a15050505050565b60008989896040516020016114af93929190616d02565b6040516020818303038152906040528051906020012090506114d58c8c838a8a8a6139a0565b6000846040516020016114e89190616d45565b60408051601f1981840301815291905280516020909101209050600061150e8286613e17565b905061151981613e3b565b611533335b610191546001600160a01b0316903087613f57565b600061153e8e613875565b905060005b87518110156115f15760006001600160a01b031661019460008a848151811061156e5761156e616be1565b6020908102919091018101518252810191909152604001600020546001600160a01b0316036115df5760405162461bcd60e51b815260206004820152601160248201527f554e535550504f525445445f434841494e0000000000000000000000000000006044820152606401610b42565b806115e981616c3f565b915050611543565b5060405180608001604052806116043390565b6001600160a01b03908116825260208083018b905260408084018a90526001606090940184905285831660009081526101958352208451815473ffffffffffffffffffffffffffffffffffffffff19169316929092178255838101518051929361167693908501929190910190615ed2565b50604082015160028201556060909101516003909101805460ff1916911515919091179055505050505050505050505050505050565b6001600160a01b037f000000000000000000000000000000000000000000000000000000000000000016300361174a5760405162461bcd60e51b815260206004820152602c60248201527f46756e6374696f6e206d7573742062652063616c6c6564207468726f7567682060448201527f64656c656761746563616c6c00000000000000000000000000000000000000006064820152608401610b42565b7f00000000000000000000000000000000000000000000000000000000000000006001600160a01b03166117a57f360894a13ba1a3210667c828492db98dca3e2076cc3735a920a3ca505d382bbc546001600160a01b031690565b6001600160a01b0316146118215760405162461bcd60e51b815260206004820152602c60248201527f46756e6374696f6e206d7573742062652063616c6c6564207468726f7567682060448201527f6163746976652070726f787900000000000000000000000000000000000000006064820152608401610b42565b61182a8261367e565b610c4b828260016136d5565b6000306001600160a01b037f000000000000000000000000000000000000000000000000000000000000000016146118d65760405162461bcd60e51b815260206004820152603860248201527f555550535570677261646561626c653a206d757374206e6f742062652063616c60448201527f6c6564207468726f7567682064656c656761746563616c6c00000000000000006064820152608401610b42565b507f360894a13ba1a3210667c828492db98dca3e2076cc3735a920a3ca505d382bbc90565b6000848484846040516020016119149493929190616d89565b60408051601f1981840301815291905280516020909101209050600061193a8288613e17565b905061194581613e3b565b61194f8682611e17565b61199b5760405162461bcd60e51b815260206004820152601560248201527f4e4f545f53454c45435445445f4558454355544f5200000000000000000000006044820152606401610b42565b6001600160a01b0381166000908152610196602052604090206001810154600290910154036119ec576001600160a01b038116600090815261019660205260409020600301546119ec908290613fae565b6001600160a01b038116600090815261019660205260408120600201805460019290611a19908490616cca565b9091555050600086815261019760205260409020600601805487917f8fc6b8b59d0ff3436773bd2fa42b72163ff74598764f7e02bbcfc75afb4251609188918891889190601490611a849074010000000000000000000000000000000000000000900460ff16616dbc565b91906101000a81548160ff021916908360ff1602179055604051611aab9493929190616ddb565b60405180910390a250505050505050565b600085815261019460205260409020546001600160a01b0316611b215760405162461bcd60e51b815260206004820152601160248201527f554e535550504f525445445f434841494e0000000000000000000000000000006044820152606401610b42565b6000868686868686604051602001611b3e96959493929190616e0e565b60408051601f19818403018152919052805160209091012090506000611b64828a613e17565b9050611b6f81613e3b565b6000611b7a896140d5565b905060005b8151811015611ca15760016101966000848481518110611ba157611ba1616be1565b60200260200101516001600160a01b03166001600160a01b031681526020019081526020016000206002016000828254611bdb9190616e55565b925050819055506101966000838381518110611bf957611bf9616be1565b60200260200101516001600160a01b03166001600160a01b03168152602001908152602001600020600101546101966000848481518110611c3c57611c3c616be1565b60200260200101516001600160a01b03166001600160a01b031681526020019081526020016000206002015403611c8f57611c8f828281518110611c8257611c82616be1565b6020026020010151614199565b80611c9981616c3f565b915050611b7f565b50604051806101000160405280898152602001888152602001878152602001868152602001428152602001856001600160a01b03168152602001611ce23390565b6001600160a01b03168152600060209182018190528b81526101978252604090819020835181559183015160018301558201516002820190611d249082616eae565b50606082015160038201556080820151600482015560a082015160058201805473ffffffffffffffffffffffffffffffffffffffff19166001600160a01b0392831617905560c08301516006909201805460e090940151929091167fffffffffffffffffffffff000000000000000000000000000000000000000000909316929092177401000000000000000000000000000000000000000060ff90921691909102179055887fbf1af60e0a2cc5cbc5ef57ad1fe278be6c3e6923245f407b1127d24471847677898989898933604051611e0396959493929190616faa565b60405180910390a250505050505050505050565b60008281526101986020908152604080832080548251818502810185019093528083528493830182828015611e7557602002820191906000526020600020905b81546001600160a01b03168152600190910190602001808311611e57575b505050600087815261019860205260408120549394509150505b81811015611ee757846001600160a01b0316838281518110611eb357611eb3616be1565b60200260200101516001600160a01b031603611ed55760019350505050610c5a565b80611edf81616c3f565b915050611e8f565b50600095945050505050565b816000611eff82613875565b6001600160a01b0380821660009081526101956020526040902054919250163314611f6c5760405162461bcd60e51b815260206004820152601560248201527f4f4e4c595f474154455741595f4f50455241544f5200000000000000000000006044820152606401610b42565b600083815261019460205260409020546001600160a01b0316611fd15760405162461bcd60e51b815260206004820152601160248201527f554e535550504f525445445f434841494e0000000000000000000000000000006044820152606401610b42565b6000611fdc85613875565b6001600160a01b0381166000908152610195602090815260408083206001018054825181850281018501909352808352949550929390929183018282801561204357602002820191906000526020600020905b81548152602001906001019080831161202f575b5050505050905060005b81518110156120d0578582828151811061206957612069616be1565b6020026020010151036120be5760405162461bcd60e51b815260206004820152601460248201527f434841494e5f414c52454144595f4558495354530000000000000000000000006044820152606401610b42565b806120c881616c3f565b91505061204d565b506001600160a01b03821660009081526101956020908152604080832060019081018054918201815584529190922001869055517f88cce4122801bcc715f3f1b2e894f26b07049a0d4c2d204c0c4ad87157f4e18c906121339088908890616ff1565b60405180910390a1505050505050565b600082815260976020526040812061215b90836141c8565b9392505050565b61019254600082815261019760205260409020600381015460049091015461218a9190616e55565b6121949190616e55565b42116121e25760405162461bcd60e51b815260206004820152601160248201527f444541444c494e455f4e4f545f4f5645520000000000000000000000000000006044820152606401610b42565b60008181526101976020526040812081815560018101829055906122096002830182615e98565b506000600382018190556004820181905560058201805473ffffffffffffffffffffffffffffffffffffffff19169055600690910180547fffffffffffffffffffffff0000000000000000000000000000000000000000001690558181526101986020526040812054905b818110156123455760008381526101986020526040812080548390811061229d5761229d616be1565b60009182526020808320909101546001600160a01b03168083526101969091526040909120600181015460029091015491925090036122fe576001600160a01b038116600090815261019660205260409020600301546122fe908290613fae565b6001600160a01b03811660009081526101966020526040812060020180546001929061232b908490616cca565b9091555082915061233d905081616c3f565b915050612274565b50600082815261019860205260409081902090517f028662a7b04c153b66537cb788297aa2b4f14412cc5830ff5c5748231924f9c69161238791859190617013565b60405180910390a1600082815261019860205260408120610c4b91615f1d565b8160006123b382613875565b6001600160a01b03808216600090815261019560205260409020549192501633146124205760405162461bcd60e51b815260206004820152601560248201527f4f4e4c595f474154455741595f4f50455241544f5200000000000000000000006044820152606401610b42565b600061242b85613875565b6001600160a01b0381166000908152610195602090815260408083206001018054825181850281018501909352808352949550929390929183018282801561249257602002820191906000526020600020905b81548152602001906001019080831161247e575b50508351939450505081151590506124ec5760405162461bcd60e51b815260206004820152600f60248201527f454d5054595f434841494e4c49535400000000000000000000000000000000006044820152606401610b42565b60005b8181101561252a578683828151811061250a5761250a616be1565b6020026020010151031561252a578061252281616c3f565b9150506124ef565b8181146125795760405162461bcd60e51b815260206004820152600f60248201527f434841494e5f4e4f545f464f554e4400000000000000000000000000000000006044820152606401610b42565b612584600183616cca565b8114612615576001600160a01b0384166000908152610195602052604090206001908101906125b39084616cca565b815481106125c3576125c3616be1565b90600052602060002001546101956000866001600160a01b03166001600160a01b03168152602001908152602001600020600101828154811061260857612608616be1565b6000918252602090912001555b6001600160a01b0384166000908152610195602052604090206001018054806126405761264061706f565b600190038181906000526020600020016000905590557f23e9f2f63bc310edd7f3f83bb1e8fe39cd606aabe6a2530271f8037383aaf98c8888604051612687929190616ff1565b60405180910390a15050505050505050565b8160006126a582613875565b6001600160a01b03808216600090815261019560205260409020549192501633146127125760405162461bcd60e51b815260206004820152601560248201527f4f4e4c595f474154455741595f4f50455241544f5200000000000000000000006044820152606401610b42565b61272c335b610191546001600160a01b0316903086613f57565b600061273785613875565b6001600160a01b03811660009081526101956020526040812060020180549293508692909190612768908490616e55565b90915550506001600160a01b03811660009081526101956020526040908190206002015490517f9a719891db0e8e647d47fb1a5f64fea9a2c0d206db0b610c23f2cf1df5217823916114899188918891616cdd565b8160006127c982613875565b6001600160a01b03808216600090815261019660205260409020549192501633146128365760405162461bcd60e51b815260206004820152601660248201527f4f4e4c595f4558454355544f525f4f50455241544f52000000000000000000006044820152606401610b42565b61283f33612717565b600061284a85613875565b6001600160a01b0381166000908152610196602052604081206003018054929350869290919061287b908490616e55565b90915550506001600160a01b0381166000908152610196602052604090206001810154600290910154146128b3576128b3818561397d565b6001600160a01b03811660009081526101966020526040908190206003015490517f1f95f2be015b951fd700619ce83a83c8d4aaa34d2ffbd70307a2623f6299c4d4916114899188918891616cdd565b600089898960405160200161291a93929190616d02565b6040516020818303038152906040528051906020012090506129408c8c838a8a8a6139a0565b60008460405160200161295591815260200190565b60408051601f1981840301815291905280516020909101209050600061297b8286613e17565b905061298681613e3b565b61298f3361151e565b600061299a8e613875565b90506040518060a001604052806129ae3390565b6001600160a01b03908116825260208083018b90526000604080850182905260608086018c90526001608096870181905288861684526101968552928290208751815473ffffffffffffffffffffffffffffffffffffffff191696169590951785559286015191840191909155840151600283015583015160038201559101516004909101805460ff1916911515919091179055612a4c8186613fae565b505050505050505050505050505050565b6000818152609760205260408120610c5a906141d4565b816000612a8082613875565b6001600160a01b0380821660009081526101956020526040902054919250163314612aed5760405162461bcd60e51b815260206004820152601560248201527f4f4e4c595f474154455741595f4f50455241544f5200000000000000000000006044820152606401610b42565b612af6336113b1565b6000612b0185613875565b6001600160a01b03811660009081526101956020526040812060020180549293508692909190612b32908490616cca565b90915550506001600160a01b03811660009081526101956020526040908190206002015490517f162e2d134a088692c1bd7ca2e473a83d6ad3dcc4d7289b5cee9d342f4004d1b8916114899188918891616cdd565b600082815260656020526040902060010154612ba281613607565b610fbe838361361b565b60fd54600090612bbe90600190616cca565b905090565b806000612bcf82613875565b6001600160a01b0380821660009081526101956020526040902054919250163314612c3c5760405162461bcd60e51b815260206004820152601560248201527f4f4e4c595f474154455741595f4f50455241544f5200000000000000000000006044820152606401610b42565b6000612c4784613875565b6001600160a01b038082166000908152610195602052604090205491925016612cb25760405162461bcd60e51b815260206004820152601360248201527f494e56414c49445f454e434c4156455f4b4559000000000000000000000000006044820152606401610b42565b6001600160a01b038116600090815261019560205260408120805473ffffffffffffffffffffffffffffffffffffffff1916815590612cf46001830182615f1d565b5060006002820155600301805460ff19169055612d10846141de565b7fcfdd9fda8828d739bda25c6f221393246d149dd1b7f6784acdb8ba0132722f2784604051612d3f919061709e565b60405180910390a150505050565b600082815261019760205260409020600601546001600160a01b03163303612db75760405162461bcd60e51b815260206004820152600c60248201527f53414d455f4741544557415900000000000000000000000000000000000000006044820152606401610b42565b60008284604051602001612dde9291909182526001600160a01b0316602082015260400190565b60408051601f19818403018152919052805160209091012090506000612e048284613e17565b9050612e0f81613e3b565b60008481526101976020908152604091829020600601805473ffffffffffffffffffffffffffffffffffffffff19163390811790915591518681526001600160a01b038816917f8b7c31ce9ded31107fcb4bfabbf28198eb7426f50084e26df70e22525d9b6b0e910160405180910390a35050505050565b600054610100900460ff1615808015612ea75750600054600160ff909116105b80612ec15750303b158015612ec1575060005460ff166001145b612f335760405162461bcd60e51b815260206004820152602e60248201527f496e697469616c697a61626c653a20636f6e747261637420697320616c72656160448201527f647920696e697469616c697a65640000000000000000000000000000000000006064820152608401610b42565b6000805460ff191660011790558015612f7357600080547fffffffffffffffffffffffffffffffffffffffffffffffffffffffffffff00ff166101001790555b612f7b6142ae565b612f836142ae565b612f8b6142ae565b612f948561432d565b612f9c6143eb565b612fa46142ae565b612faf600087613611565b610191805473ffffffffffffffffffffffffffffffffffffffff19166001600160a01b038616179055610192839055610193829055801561304357600080547fffffffffffffffffffffffffffffffffffffffffffffffffffffffffffff00ff169055604051600181527f7f26b83ff96e1f2b6a682f133852f6798a09c465da95921460cefb384740249890602001612133565b505050505050565b81600061305782613875565b6001600160a01b03808216600090815261019560205260409020549192501633146130c45760405162461bcd60e51b815260206004820152601560248201527f4f4e4c595f474154455741595f4f50455241544f5200000000000000000000006044820152606401610b42565b60008351116131155760405162461bcd60e51b815260206004820152601060248201527f454d5054595f5245515f434841494e53000000000000000000000000000000006044820152606401610b42565b60005b835181101561132c576131448585838151811061313757613137616be1565b60200260200101516123a7565b8061314e81616c3f565b915050613118565b61019460205260009081526040902080546001820180546001600160a01b03909216929161318390616c77565b80601f01602080910402602001604051908101604052809291908181526020018280546131af90616c77565b80156131fc5780601f106131d1576101008083540402835291602001916131fc565b820191906000526020600020905b8154815290600101906020018083116131df57829003601f168201915b5050505050905082565b613211600033610760565b61325d5760405162461bcd60e51b815260206004820152600a60248201527f6f6e6c792061646d696e000000000000000000000000000000000000000000006044820152606401610b42565b6000825111801561326f575080518251145b6132bb5760405162461bcd60e51b815260206004820152600e60248201527f494e56414c49445f4c454e4754480000000000000000000000000000000000006044820152606401610b42565b60005b8151811015610fbe5760008282815181106132db576132db616be1565b6020026020010151905060008483815181106132f9576132f9616be1565b60209081029190910181015160008181526101948352604090208451815473ffffffffffffffffffffffffffffffffffffffff19166001600160a01b039091161781559184015190925083919060018201906133559082616eae565b5050825160208401516040517f67dd8b8576f1455907cc1b4aa4623860ed1036d8ead856785f3d51bef810fa63935061339192859290916170b1565b60405180910390a1505080806133a690616c3f565b9150506132be565b8060006133ba82613875565b6001600160a01b03808216600090815261019660205260409020549192501633146134275760405162461bcd60e51b815260206004820152601660248201527f4f4e4c595f4558454355544f525f4f50455241544f52000000000000000000006044820152606401610b42565b600061343284613875565b6001600160a01b03808216600090815261019660205260409020549192501661349d5760405162461bcd60e51b815260206004820152601360248201527f494e56414c49445f454e434c4156455f4b4559000000000000000000000000006044820152606401610b42565b6001600160a01b03811660009081526101966020526040902060020154156135075760405162461bcd60e51b815260206004820152601360248201527f4143544956455f4a4f42535f50454e44494e47000000000000000000000000006044820152606401610b42565b6001600160a01b038116600090815261019660205260408120805473ffffffffffffffffffffffffffffffffffffffff1916815560018101829055600281018290556003810191909155600401805460ff1916905561356581614199565b7fcd3eb6b4f0e55ead3175ceaac8651559bdea002353da50a25dbc57e9d6bce8ce84604051612d3f919061709e565b6130438686868686866139a0565b6001600160a01b03163b151590565b60007fffffffff0000000000000000000000000000000000000000000000000000000082167f5a05180f000000000000000000000000000000000000000000000000000000001480610c5a5750610c5a82614470565b61121e8133614507565b610c4b828261457c565b613625828261459e565b61362f6000612a5d565b600003610c4b5760405162461bcd60e51b815260206004820181905260248201527f41563a52522d416c6c2061646d696e732063616e742062652072656d6f7665646044820152606401610b42565b613689600033610760565b61121e5760405162461bcd60e51b815260206004820152600a60248201527f6f6e6c792061646d696e000000000000000000000000000000000000000000006044820152606401610b42565b7f4910fdfa16fed3260ed0e7147f7cc6da11a60208b5b9406d12a635614ffd91435460ff161561370857610fbe836145c0565b826001600160a01b03166352d1902d6040518163ffffffff1660e01b8152600401602060405180830381865afa925050508015613762575060408051601f3d908101601f1916820190925261375f918101906170d9565b60015b6137d45760405162461bcd60e51b815260206004820152602e60248201527f45524331393637557067726164653a206e657720696d706c656d656e7461746960448201527f6f6e206973206e6f7420555550530000000000000000000000000000000000006064820152608401610b42565b7f360894a13ba1a3210667c828492db98dca3e2076cc3735a920a3ca505d382bbc81146138695760405162461bcd60e51b815260206004820152602960248201527f45524331393637557067726164653a20756e737570706f727465642070726f7860448201527f6961626c655555494400000000000000000000000000000000000000000000006064820152608401610b42565b50610fbe83838361468b565b600081516040146138c85760405162461bcd60e51b815260206004820152601960248201527f496e76616c6964207075626c6963206b6579206c656e677468000000000000006044820152606401610b42565b50805160209091012090565b6040516001600160a01b038316602482015260448101829052610fbe9084907fa9059cbb00000000000000000000000000000000000000000000000000000000906064015b60408051601f198184030181529190526020810180517bffffffffffffffffffffffffffffffffffffffffffffffffffffffff167fffffffff00000000000000000000000000000000000000000000000000000000909316929092179091526146b0565b6001600160a01b038216600090815260fb6020526040902054610c4b9082614798565b600084815260c96020526040902080546139b990616c77565b9050600003613a305760405162461bcd60e51b815260206004820152602d60248201527f41413a564b2d456e636c61766520696d61676520746f20766572696679206e6f60448201527f742077686974656c6973746564000000000000000000000000000000000000006064820152608401610b42565b6000613a3b86613875565b6001600160a01b038116600090815260ca602052604090205490915015613aca5760405162461bcd60e51b815260206004820152602260248201527f41413a564b2d456e636c617665206b657920616c72656164792076657269666960448201527f65640000000000000000000000000000000000000000000000000000000000006064820152608401610b42565b613af47f000000000000000000000000000000000000000000000000000000000000000042616cca565b613b006103e884617121565b11613b4d5760405162461bcd60e51b815260206004820152601960248201527f41413a564b2d4174746573746174696f6e20746f6f206f6c64000000000000006044820152606401610b42565b600085815260c96020526040808220815160608101909252805482908290613b7490616c77565b80601f0160208091040260200160405190810160405280929190818152602001828054613ba090616c77565b8015613bed5780601f10613bc257610100808354040283529160200191613bed565b820191906000526020600020905b815481529060010190602001808311613bd057829003601f168201915b50505050508152602001600182018054613c0690616c77565b80601f0160208091040260200160405190810160405280929190818152602001828054613c3290616c77565b8015613c7f5780601f10613c5457610100808354040283529160200191613c7f565b820191906000526020600020905b815481529060010190602001808311613c6257829003601f168201915b50505050508152602001600282018054613c9890616c77565b80601f0160208091040260200160405190810160405280929190818152602001828054613cc490616c77565b8015613d115780601f10613ce657610100808354040283529160200191613d11565b820191906000526020600020905b815481529060010190602001808311613cf457829003601f168201915b50505050508152505090507f00000000000000000000000000000000000000000000000000000000000000006001600160a01b031663ac0f0bd589898460000151856020015186604001518b8b8b6040518963ffffffff1660e01b8152600401613d82989796959493929190617135565b60006040518083038186803b158015613d9a57600080fd5b505afa158015613dae573d6000803e3d6000fd5b5050506001600160a01b038316600090815260ca60205260409081902088905551879150613ddd9089906171ba565b604051908190038120907ff4837f1a66a1e5fbde2c40d0f6eff75183139e79b0fc1eaab280a3a0be38e7b190600090a35050505050505050565b6000806000613e2685856147f5565b91509150613e338161483a565b509392505050565b6001600160a01b038116600090815260ca602052604090205480613ec75760405162461bcd60e51b815260206004820152602360248201527f41413a414f562d456e636c617665206b6579206d75737420626520766572696660448201527f69656400000000000000000000000000000000000000000000000000000000006064820152608401610b42565b600081815260c9602052604090208054613ee090616c77565b9050600003610c4b5760405162461bcd60e51b815260206004820152602760248201527f41413a414f562d536f7572636520696d616765206d757374206265207768697460448201527f656c6973746564000000000000000000000000000000000000000000000000006064820152608401610b42565b6040516001600160a01b0380851660248301528316604482015260648101829052613fa89085907f23b872dd0000000000000000000000000000000000000000000000000000000090608401613919565b50505050565b60fd8054604080516060810182526000808252602080830182815283850183815260018701885596835292517f9346ac6dd7de6b96975fec380d4d994c4c12e6a8897544f22915316cc6cca280860180549451975167ffffffffffffffff908116700100000000000000000000000000000000027fffffffffffffffff0000000000000000ffffffffffffffffffffffffffffffff99821668010000000000000000027fffffffffffffffffffffffffffffffff0000000000000000000000000000000090971693909116929092179490941796909616959095179091556001600160a01b03861680825260fb855282822084905583825260fc90945220805473ffffffffffffffffffffffffffffffffffffffff1916909217909155610fbe818361499f565b606060006140e4600143616cca565b604080519140602083015242908201526060016040516020818303038152906040528051906020012060001c905061411f8161019354614b0f565b915081516000036141725760405162461bcd60e51b815260206004820152601460248201527f4e4f5f4558454355544f525f53454c45435445440000000000000000000000006044820152606401610b42565b600083815261019860209081526040909120835161419292850190615f3b565b5050919050565b6001600160a01b038116600090815260fb6020526040812054908190036141be575050565b610c4b8282614d69565b600061215b8383614ed7565b6000610c5a825490565b60006141e982613875565b6001600160a01b038116600090815260ca60205260409020549091506142515760405162461bcd60e51b815260206004820152601e60248201527f41413a524b2d456e636c617665206b6579206e6f7420766572696669656400006044820152606401610b42565b6001600160a01b038116600090815260ca6020526040808220919091555161427a9083906171ba565b604051908190038120907ff910fd78b98e9574e8b6f0e42bc3a996a6aba3776ec20b9d85515bd74a6c8fe990600090a25050565b600054610100900460ff1661432b5760405162461bcd60e51b815260206004820152602b60248201527f496e697469616c697a61626c653a20636f6e7472616374206973206e6f74206960448201527f6e697469616c697a696e670000000000000000000000000000000000000000006064820152608401610b42565b565b600054610100900460ff166143aa5760405162461bcd60e51b815260206004820152602b60248201527f496e697469616c697a61626c653a20636f6e7472616374206973206e6f74206960448201527f6e697469616c697a696e670000000000000000000000000000000000000000006064820152608401610b42565b60005b8151811015610c4b576143d88282815181106143cb576143cb616be1565b6020026020010151614f01565b50806143e381616c3f565b9150506143ad565b600054610100900460ff166144685760405162461bcd60e51b815260206004820152602b60248201527f496e697469616c697a61626c653a20636f6e7472616374206973206e6f74206960448201527f6e697469616c697a696e670000000000000000000000000000000000000000006064820152608401610b42565b61432b6150fb565b60007fffffffff0000000000000000000000000000000000000000000000000000000082167f7965db0b000000000000000000000000000000000000000000000000000000001480610c5a57507f01ffc9a7000000000000000000000000000000000000000000000000000000007fffffffff00000000000000000000000000000000000000000000000000000000831614610c5a565b60008281526065602090815260408083206001600160a01b038516845290915290205460ff16610c4b5761453a8161522d565b61454583602061523f565b6040516020016145569291906171d6565b60408051601f198184030181529082905262461bcd60e51b8252610b429160040161709e565b6145868282615468565b6000828152609760205260409020610fbe908261550a565b6145a8828261551f565b6000828152609760205260409020610fbe90826155a2565b6001600160a01b0381163b61463d5760405162461bcd60e51b815260206004820152602d60248201527f455243313936373a206e657720696d706c656d656e746174696f6e206973206e60448201527f6f74206120636f6e7472616374000000000000000000000000000000000000006064820152608401610b42565b7f360894a13ba1a3210667c828492db98dca3e2076cc3735a920a3ca505d382bbc805473ffffffffffffffffffffffffffffffffffffffff19166001600160a01b0392909216919091179055565b614694836155b7565b6000825111806146a15750805b15610fbe57613fa883836155f7565b6000614705826040518060400160405280602081526020017f5361666545524332303a206c6f772d6c6576656c2063616c6c206661696c6564815250856001600160a01b031661561c9092919063ffffffff16565b90508051600014806147265750808060200190518101906147269190617257565b610fbe5760405162461bcd60e51b815260206004820152602a60248201527f5361666545524332303a204552433230206f7065726174696f6e20646964206e60448201527f6f742073756363656564000000000000000000000000000000000000000000006064820152608401610b42565b600060fd83815481106147ad576147ad616be1565b60009182526020909120015467ffffffffffffffff9081169150821681106147e257610fbe836147dd8484617279565b615633565b610fbe836147f08385617279565b61499f565b600080825160410361482b5760208301516040840151606085015160001a61481f878285856157a3565b94509450505050614833565b506000905060025b9250929050565b600081600481111561484e5761484e61729a565b036148565750565b600181600481111561486a5761486a61729a565b036148b75760405162461bcd60e51b815260206004820152601860248201527f45434453413a20696e76616c6964207369676e617475726500000000000000006044820152606401610b42565b60028160048111156148cb576148cb61729a565b036149185760405162461bcd60e51b815260206004820152601f60248201527f45434453413a20696e76616c6964207369676e6174757265206c656e677468006044820152606401610b42565b600381600481111561492c5761492c61729a565b0361121e5760405162461bcd60e51b815260206004820152602260248201527f45434453413a20696e76616c6964207369676e6174757265202773272076616c60448201527f75650000000000000000000000000000000000000000000000000000000000006064820152608401610b42565b8060fd83815481106149b3576149b3616be1565b6000918252602082200180549091906149d790849067ffffffffffffffff166172c9565b92506101000a81548167ffffffffffffffff021916908367ffffffffffffffff1602179055505b6001821115610c4b576000614a146002846172ea565b600193841c9390159150819003614a95578160fd8481548110614a3957614a39616be1565b60009182526020909120018054600890614a6a90849068010000000000000000900467ffffffffffffffff166172c9565b92506101000a81548167ffffffffffffffff021916908367ffffffffffffffff160217905550614b09565b8160fd8481548110614aa957614aa9616be1565b60009182526020909120018054601090614ae2908490700100000000000000000000000000000000900467ffffffffffffffff166172c9565b92506101000a81548167ffffffffffffffff021916908367ffffffffffffffff1602179055505b506149fe565b60fd54606090600090614b2490600190616cca565b905080831115614b32578092505b82600003614b50575050604080516000815260208101909152610c5a565b6060604051610a8081016040525060538152600060fd600181548110614b7857614b78616be1565b600091825260208083206040805160608082018352929094015467ffffffffffffffff80821686526801000000000000000082048116868601527001000000000000000000000000000000009091041684820152805160c08101825260018082529381018690529081018590529081018490526080810184905260a0810193909352845191935084918110614c0f57614c0f616be1565b60200260200101819052506000600190506000826000015167ffffffffffffffff169050826040015183602001510167ffffffffffffffff168101905060008767ffffffffffffffff811115614c6757614c67615fb2565b604051908082528060200260200182016040528015614c90578160200160208202803683370190505b50965060005b88811015614d5c5760408051602081018c905290810182905260600160408051601f19818403018152919052805160209091012099506000614cd88385616cca565b614ce2908c6172ea565b9050600080614cf66001848b60018b615867565b63ffffffff8316600090815260fc60205260409020548e51919a509294509092506001600160a01b03909116908c9086908110614d3557614d35616be1565b6001600160a01b039092166020928302919091019091015293909301925050600101614c96565b5050505050505092915050565b60fd54600090614d7b90600190616cca565b600081815260fc602052604081205460fd80549394506001600160a01b039091169284908110614dad57614dad616be1565b60009182526020909120015467ffffffffffffffff169050614dcf8382615633565b828414614e2757614de08482614798565b600084815260fc60209081526040808320805473ffffffffffffffffffffffffffffffffffffffff19166001600160a01b038716908117909155835260fb90915290208490555b600083815260fc60209081526040808320805473ffffffffffffffffffffffffffffffffffffffff191690556001600160a01b038816835260fb90915281205560fd805480614e7857614e7861706f565b60008281526020902081017fffffffffffffffffffffffffffffffffffffffffffffffffffffffffffffffff90810180547fffffffffffffffff0000000000000000000000000000000000000000000000001690550190555050505050565b6000826000018281548110614eee57614eee616be1565b9060005260206000200154905092915050565b8051516000906030148015614f1b57508160200151516030145b8015614f2c57508160400151516030145b614f9e5760405162461bcd60e51b815260206004820152602160248201527f41413a57492d5043522076616c756573206d757374206265203438206279746560448201527f73000000000000000000000000000000000000000000000000000000000000006064820152608401610b42565b6000826000015183602001518460400151604051602001614fc193929190616d02565b60408051601f198184030181529181528151602092830120600081815260c99093529120805491925090614ff490616c77565b1590506150435760405162461bcd60e51b815260206004820152601f60248201527f41413a57492d696d61676520616c72656164792077686974656c6973746564006044820152606401610b42565b6040805160608101825284518152602080860151818301528583015182840152600084815260c9909152919091208151819061507f9082616eae565b50602082015160018201906150949082616eae565b50604082015160028201906150a99082616eae565b50905050807f52b29bbdd97ab983419f50fa1590e5ab75e9942279e95e10a08607b06c23238b8460000151856020015186604001516040516150ed939291906172fe565b60405180910390a292915050565b60fd5460408051808201909152600181527f3500000000000000000000000000000000000000000000000000000000000000602082015290156151515760405162461bcd60e51b8152600401610b42919061709e565b506040805160608101825260008082526020820181815292820181815260fd8054600181018255925291517f9346ac6dd7de6b96975fec380d4d994c4c12e6a8897544f22915316cc6cca28090910180549351925167ffffffffffffffff908116700100000000000000000000000000000000027fffffffffffffffff0000000000000000ffffffffffffffffffffffffffffffff94821668010000000000000000027fffffffffffffffffffffffffffffffff0000000000000000000000000000000090961693909116929092179390931791909116179055565b6060610c5a6001600160a01b03831660145b6060600061524e836002617337565b615259906002616e55565b67ffffffffffffffff81111561527157615271615fb2565b6040519080825280601f01601f19166020018201604052801561529b576020820181803683370190505b5090507f3000000000000000000000000000000000000000000000000000000000000000816000815181106152d2576152d2616be1565b60200101907effffffffffffffffffffffffffffffffffffffffffffffffffffffffffffff1916908160001a9053507f78000000000000000000000000000000000000000000000000000000000000008160018151811061533557615335616be1565b60200101907effffffffffffffffffffffffffffffffffffffffffffffffffffffffffffff1916908160001a9053506000615371846002617337565b61537c906001616e55565b90505b6001811115615419577f303132333435363738396162636465660000000000000000000000000000000085600f16601081106153bd576153bd616be1565b1a60f81b8282815181106153d3576153d3616be1565b60200101907effffffffffffffffffffffffffffffffffffffffffffffffffffffffffffff1916908160001a90535060049490941c936154128161734e565b905061537f565b50831561215b5760405162461bcd60e51b815260206004820181905260248201527f537472696e67733a20686578206c656e67746820696e73756666696369656e746044820152606401610b42565b60008281526065602090815260408083206001600160a01b038516845290915290205460ff16610c4b5760008281526065602090815260408083206001600160a01b03851684529091529020805460ff191660011790556154c63390565b6001600160a01b0316816001600160a01b0316837f2f8788117e7eff1d82e926ec794901d17c78024a50270940304540a733656f0d60405160405180910390a45050565b600061215b836001600160a01b038416615a32565b60008281526065602090815260408083206001600160a01b038516845290915290205460ff1615610c4b5760008281526065602090815260408083206001600160a01b0385168085529252808320805460ff1916905551339285917ff6391f5c32d9c69d2a47ea670b442974b53935d1edc7fd64eb21e047a839171b9190a45050565b600061215b836001600160a01b038416615a81565b6155c0816145c0565b6040516001600160a01b038216907fbc7cd75a20ee27fd9adebab32041f755214dbc6bffa90cc0225b39da2e5c2d3b90600090a250565b606061215b838360405180606001604052806027815260200161738460279139615b7b565b606061562b8484600085615bf3565b949350505050565b8060fd838154811061564757615647616be1565b60009182526020822001805490919061566b90849067ffffffffffffffff16617279565b92506101000a81548167ffffffffffffffff021916908367ffffffffffffffff1602179055505b6001821115610c4b5760006156a86002846172ea565b600193841c9390159150819003615729578160fd84815481106156cd576156cd616be1565b600091825260209091200180546008906156fe90849068010000000000000000900467ffffffffffffffff16617279565b92506101000a81548167ffffffffffffffff021916908367ffffffffffffffff16021790555061579d565b8160fd848154811061573d5761573d616be1565b60009182526020909120018054601090615776908490700100000000000000000000000000000000900467ffffffffffffffff16617279565b92506101000a81548167ffffffffffffffff021916908367ffffffffffffffff1602179055505b50615692565b6000807f7fffffffffffffffffffffffffffffff5d576e7357a4501ddfe92f46681b20a08311156157da575060009050600361585e565b6040805160008082526020820180845289905260ff881692820192909252606081018690526080810185905260019060a0016020604051602081039080840390855afa15801561582e573d6000803e3d6000fd5b5050604051601f1901519150506001600160a01b0381166158575760006001925092505061585e565b9150600090505b94509492505050565b60008060008060fd898154811061588057615880616be1565b600091825260208083206040805160608082018352929094015467ffffffffffffffff80821686526801000000000000000082048116868601527001000000000000000000000000000000009091041684820152805160c081018252858152928301859052820184905281018390526080810183905260a081019290925291506020820151825167ffffffffffffffff9182169116810188156159565789898151811061592f5761592f616be1565b60200260200101519250826060015182039150826020015183606001510181039050615984565b8b8352895160019098019850889783908b908a90811061597857615978616be1565b60200260200101819052505b818b101580156159935750808b105b156159ea57836000015167ffffffffffffffff168a8a815181106159b9576159b9616be1565b60209081029190910181015101805190910190525050905189945067ffffffffffffffff169250849150615a279050565b818b1015615a1357615a048c8c8c86604001518d8d615ce5565b96509650965050505050615a27565b615a048c828d038c86608001518d8d615d6e565b955095509592505050565b6000818152600183016020526040812054615a7957508154600181810184556000848152602080822090930184905584548482528286019093526040902091909155610c5a565b506000610c5a565b60008181526001830160205260408120548015615b6a576000615aa5600183616cca565b8554909150600090615ab990600190616cca565b9050818114615b1e576000866000018281548110615ad957615ad9616be1565b9060005260206000200154905080876000018481548110615afc57615afc616be1565b6000918252602080832090910192909255918252600188019052604090208390555b8554869080615b2f57615b2f61706f565b600190038181906000526020600020016000905590558560010160008681526020019081526020016000206000905560019350505050610c5a565b6000915050610c5a565b5092915050565b6060600080856001600160a01b031685604051615b9891906171ba565b600060405180830381855af49150503d8060008114615bd3576040519150601f19603f3d011682016040523d82523d6000602084013e615bd8565b606091505b5091509150615be986838387615dfa565b9695505050505050565b606082471015615c6b5760405162461bcd60e51b815260206004820152602660248201527f416464726573733a20696e73756666696369656e742062616c616e636520666f60448201527f722063616c6c00000000000000000000000000000000000000000000000000006064820152608401610b42565b600080866001600160a01b03168587604051615c8791906171ba565b60006040518083038185875af1925050503d8060008114615cc4576040519150601f19603f3d011682016040523d82523d6000602084013e615cc9565b606091505b5091509150615cda87838387615dfa565b979650505050505050565b600080600080600080615cfe8c6002028c8c8c8b615867565b92509250925088600003615d3357866001018a8981518110615d2257615d22616be1565b602002602001015160400181815250505b818a8981518110615d4657615d46616be1565b6020908102919091010151606001805190910190529194509250905096509650969350505050565b600080600080600080615d8a8c6002026001018c8c8c8b615867565b92509250925088600003615dbf57866001018a8981518110615dae57615dae616be1565b602002602001015160800181815250505b818a8981518110615dd257615dd2616be1565b602090810291909101015160a001805190910190529194509250905096509650969350505050565b60608315615e69578251600003615e62576001600160a01b0385163b615e625760405162461bcd60e51b815260206004820152601d60248201527f416464726573733a2063616c6c20746f206e6f6e2d636f6e74726163740000006044820152606401610b42565b508161562b565b61562b8383815115615e7e5781518083602001fd5b8060405162461bcd60e51b8152600401610b42919061709e565b508054615ea490616c77565b6000825580601f10615eb4575050565b601f01602090049060005260206000209081019061121e9190615f9d565b828054828255906000526020600020908101928215615f0d579160200282015b82811115615f0d578251825591602001919060010190615ef2565b50615f19929150615f9d565b5090565b508054600082559060005260206000209081019061121e9190615f9d565b828054828255906000526020600020908101928215615f0d579160200282015b82811115615f0d578251825473ffffffffffffffffffffffffffffffffffffffff19166001600160a01b03909116178255602090920191600190910190615f5b565b5b80821115615f195760008155600101615f9e565b7f4e487b7100000000000000000000000000000000000000000000000000000000600052604160045260246000fd5b6040516060810167ffffffffffffffff8111828210171561600457616004615fb2565b60405290565b6040805190810167ffffffffffffffff8111828210171561600457616004615fb2565b604051601f8201601f1916810167ffffffffffffffff8111828210171561605657616056615fb2565b604052919050565b600067ffffffffffffffff82111561607857616078615fb2565b5060051b60200190565b600082601f83011261609357600080fd5b813560206160a86160a38361605e565b61602d565b82815260059290921b840181019181810190868411156160c757600080fd5b8286015b848110156160e257803583529183019183016160cb565b509695505050505050565b6000602082840312156160ff57600080fd5b813567ffffffffffffffff81111561611657600080fd5b61562b84828501616082565b6001600160a01b038116811461121e57600080fd5b60006020828403121561614957600080fd5b813561215b81616122565b60006020828403121561616657600080fd5b81357fffffffff000000000000000000000000000000000000000000000000000000008116811461215b57600080fd5b6000602082840312156161a857600080fd5b5035919050565b60005b838110156161ca5781810151838201526020016161b2565b50506000910152565b600081518084526161eb8160208601602086016161af565b601f01601f19169290920160200192915050565b60006101008a835289602084015280604084015261621f8184018a6161d3565b6060840198909852505060808101949094526001600160a01b0392831660a0850152911660c083015260ff1660e0909101529392505050565b60208152600082516060602084015261627460808401826161d3565b90506020840151601f198085840301604086015261629283836161d3565b92506040860151915080858403016060860152506162b082826161d3565b95945050505050565b600080604083850312156162cc57600080fd5b8235915060208301356162de81616122565b809150509250929050565b600080604083850312156162fc57600080fd5b50508035926020909101359150565b600067ffffffffffffffff83111561632557616325615fb2565b6163386020601f19601f8601160161602d565b905082815283838301111561634c57600080fd5b828260208301376000602084830101529392505050565b600082601f83011261637457600080fd5b61215b8383356020850161630b565b6000806040838503121561639657600080fd5b823567ffffffffffffffff808211156163ae57600080fd5b6163ba86838701616363565b935060208501359150808211156163d057600080fd5b506163dd85828601616082565b9150509250929050565b600080604083850312156163fa57600080fd5b823567ffffffffffffffff81111561641157600080fd5b61641d85828601616363565b95602094909401359450505050565b60008060008060008060008060008060006101608c8e03121561644e57600080fd5b67ffffffffffffffff808d35111561646557600080fd5b6164728e8e358f01616363565b9b508060208e0135111561648557600080fd5b6164958e60208f01358f01616363565b9a508060408e013511156164a857600080fd5b6164b88e60408f01358f01616363565b99508060608e013511156164cb57600080fd5b6164db8e60608f01358f01616363565b98508060808e013511156164ee57600080fd5b6164fe8e60808f01358f01616363565b975060a08d0135965060c08d0135955060e08d01359450806101008e0135111561652757600080fd5b6165388e6101008f01358f01616082565b9350806101208e0135111561654c57600080fd5b5061655e8d6101208e01358e01616363565b91506101408c013590509295989b509295989b9093969950565b6000806040838503121561658b57600080fd5b823561659681616122565b9150602083013567ffffffffffffffff8111156165b257600080fd5b6163dd85828601616363565b600080600080600060a086880312156165d657600080fd5b853567ffffffffffffffff808211156165ee57600080fd5b6165fa89838a01616363565b965060208801359550604088013591508082111561661757600080fd5b5061662488828901616363565b93505060608601359150608086013560ff8116811461664257600080fd5b809150509295509295909350565b600080600080600080600060e0888a03121561666b57600080fd5b873567ffffffffffffffff8082111561668357600080fd5b61668f8b838c01616363565b985060208a0135975060408a0135965060608a0135955060808a01359150808211156166ba57600080fd5b506166c78a828b01616363565b93505060a0880135915060c08801356166df81616122565b8091505092959891949750929550565b60008060008060008060008060008060006101608c8e03121561671157600080fd5b67ffffffffffffffff808d35111561672857600080fd5b6167358e8e358f01616363565b9b508060208e0135111561674857600080fd5b6167588e60208f01358f01616363565b9a508060408e0135111561676b57600080fd5b61677b8e60408f01358f01616363565b99508060608e0135111561678e57600080fd5b61679e8e60608f01358f01616363565b98508060808e013511156167b157600080fd5b6167c18e60808f01358f01616363565b975060a08d0135965060c08d0135955060e08d013594506101008d01359350806101208e0135111561654c57600080fd5b60006020828403121561680457600080fd5b813567ffffffffffffffff81111561681b57600080fd5b61562b84828501616363565b60008060006060848603121561683c57600080fd5b833561684781616122565b925060208401359150604084013567ffffffffffffffff81111561686a57600080fd5b61687686828701616363565b9150509250925092565b803561688b81616122565b919050565b600080600080600060a086880312156168a857600080fd5b6168b28635616122565b8535945067ffffffffffffffff80602088013511156168d057600080fd5b6020870135870188601f8201126168e657600080fd5b6168f36160a3823561605e565b81358082526020808301929160051b8401018b101561691157600080fd5b602083015b6020843560051b8501018110156169db57848135111561693557600080fd5b803584016060601f19828f0301121561694d57600080fd5b616955615fe1565b866020830135111561696657600080fd5b6169788e602080850135850101616363565b8152866040830135111561698b57600080fd5b61699e8e60206040850135850101616363565b602082015286606083013511156169b457600080fd5b6169c78e60206060850135850101616363565b604082015284525060209283019201616916565b5096506169ee9250505060408701616880565b94979396509394606081013594506080013592915050565b6001600160a01b038316815260406020820152600061562b60408301846161d3565b6000806040808486031215616a3c57600080fd5b833567ffffffffffffffff80821115616a5457600080fd5b616a6087838801616082565b9450602091508186013581811115616a7757600080fd5b8601601f81018813616a8857600080fd5b8035616a966160a38261605e565b81815260059190911b8201840190848101908a831115616ab557600080fd5b8584015b83811015616b4857803586811115616ad15760008081fd5b8501808d03601f1901891315616ae75760008081fd5b616aef61600a565b88820135616afc81616122565b8152818a013588811115616b105760008081fd5b8083019250508d603f830112616b265760008081fd5b616b368e8a8401358c850161630b565b818a0152845250918601918601616ab9565b50809750505050505050509250929050565b60008060008060008060c08789031215616b7357600080fd5b863567ffffffffffffffff80821115616b8b57600080fd5b616b978a838b01616363565b97506020890135915080821115616bad57600080fd5b50616bba89828a01616363565b96999698505050506040850135946060810135946080820135945060a09091013592509050565b7f4e487b7100000000000000000000000000000000000000000000000000000000600052603260045260246000fd5b7f4e487b7100000000000000000000000000000000000000000000000000000000600052601160045260246000fd5b60007fffffffffffffffffffffffffffffffffffffffffffffffffffffffffffffffff8203616c7057616c70616c10565b5060010190565b600181811c90821680616c8b57607f821691505b602082108103616cc4577f4e487b7100000000000000000000000000000000000000000000000000000000600052602260045260246000fd5b50919050565b81810381811115610c5a57610c5a616c10565b606081526000616cf060608301866161d3565b60208301949094525060400152919050565b60008451616d148184602089016161af565b845190830190616d288183602089016161af565b8451910190616d3b8183602088016161af565b0195945050505050565b6020808252825182820181905260009190848201906040850190845b81811015616d7d57835183529284019291840191600101616d61565b50909695505050505050565b848152608060208201526000616da260808301866161d3565b905083604083015260ff8316606083015295945050505050565b600060ff821660ff8103616dd257616dd2616c10565b60010192915050565b608081526000616dee60808301876161d3565b60208301959095525060ff92831660408201529116606090910152919050565b86815285602082015284604082015260c060608201526000616e3360c08301866161d3565b90508360808301526001600160a01b03831660a0830152979650505050505050565b80820180821115610c5a57610c5a616c10565b601f821115610fbe57600081815260208120601f850160051c81016020861015616e8f5750805b601f850160051c820191505b8181101561304357828155600101616e9b565b815167ffffffffffffffff811115616ec857616ec8615fb2565b616edc81616ed68454616c77565b84616e68565b602080601f831160018114616f2f5760008415616ef95750858301515b7fffffffffffffffffffffffffffffffffffffffffffffffffffffffffffffffff600386901b1c1916600185901b178555613043565b600085815260208120601f198616915b82811015616f5e57888601518255948401946001909101908401616f3f565b5085821015616f9a57878501517fffffffffffffffffffffffffffffffffffffffffffffffffffffffffffffffff600388901b60f8161c191681555b5050505050600190811b01905550565b86815285602082015260c060408201526000616fc960c08301876161d3565b6060830195909552506001600160a01b039283166080820152911660a0909101529392505050565b60408152600061700460408301856161d3565b90508260208301529392505050565b60006040820184835260206040818501528185548084526060860191508660005282600020935060005b818110156170625784546001600160a01b03168352600194850194928401920161703d565b5090979650505050505050565b7f4e487b7100000000000000000000000000000000000000000000000000000000600052603160045260246000fd5b60208152600061215b60208301846161d3565b8381526001600160a01b03831660208201526060604082015260006162b060608301846161d3565b6000602082840312156170eb57600080fd5b5051919050565b7f4e487b7100000000000000000000000000000000000000000000000000000000600052601260045260246000fd5b600082617130576171306170f2565b500490565b60006101008083526171498184018c6161d3565b9050828103602084015261715d818b6161d3565b90508281036040840152617171818a6161d3565b9050828103606084015261718581896161d3565b9050828103608084015261719981886161d3565b60a0840196909652505060c081019290925260e09091015295945050505050565b600082516171cc8184602087016161af565b9190910192915050565b7f416363657373436f6e74726f6c3a206163636f756e742000000000000000000081526000835161720e8160178501602088016161af565b7f206973206d697373696e6720726f6c6520000000000000000000000000000000601791840191820152835161724b8160288401602088016161af565b01602801949350505050565b60006020828403121561726957600080fd5b8151801515811461215b57600080fd5b67ffffffffffffffff828116828216039080821115615b7457615b74616c10565b7f4e487b7100000000000000000000000000000000000000000000000000000000600052602160045260246000fd5b67ffffffffffffffff818116838216019080821115615b7457615b74616c10565b6000826172f9576172f96170f2565b500690565b60608152600061731160608301866161d3565b828103602084015261732381866161d3565b90508281036040840152615be981856161d3565b8082028115828204841417610c5a57610c5a616c10565b60008161735d5761735d616c10565b507fffffffffffffffffffffffffffffffffffffffffffffffffffffffffffffffff019056fe416464726573733a206c6f772d6c6576656c2064656c65676174652063616c6c206661696c6564a26469706673582212204ac94963c522a1b5cc2a10cce61c12c4e3780da4f1ab814c9fd86d26cc47988064736f6c63430008110033",
  "linkReferences": {},
  "deployedLinkReferences": {}
}