{
  "_format": "hh-sol-artifact-1",
  "contractName": "CommonChainContract",
  "sourceName": "contracts/serverless-v2/CommonChainContract.sol",
  "abi": [
    {
      "inputs": [
        {
          "internalType": "contract IAttestationVerifier",
          "name": "attestationVerifier",
          "type": "address"
        },
        {
          "internalType": "uint256",
          "name": "maxAge",
          "type": "uint256"
        }
      ],
      "stateMutability": "nonpayable",
      "type": "constructor"
    },
    {
      "anonymous": false,
      "inputs": [
        {
          "indexed": false,
          "internalType": "address",
          "name": "previousAdmin",
          "type": "address"
        },
        {
          "indexed": false,
          "internalType": "address",
          "name": "newAdmin",
          "type": "address"
        }
      ],
      "name": "AdminChanged",
      "type": "event"
    },
    {
      "anonymous": false,
      "inputs": [
        {
          "indexed": true,
          "internalType": "address",
          "name": "beacon",
          "type": "address"
        }
      ],
      "name": "BeaconUpgraded",
      "type": "event"
    },
    {
      "anonymous": false,
      "inputs": [
        {
          "indexed": false,
          "internalType": "bytes",
          "name": "enclavePubKey",
          "type": "bytes"
        },
        {
          "indexed": false,
          "internalType": "uint256",
          "name": "chainId",
          "type": "uint256"
        }
      ],
      "name": "ChainAdded",
      "type": "event"
    },
    {
      "anonymous": false,
      "inputs": [
        {
          "indexed": false,
          "internalType": "uint256",
          "name": "chainId",
          "type": "uint256"
        },
        {
          "indexed": false,
          "internalType": "address",
          "name": "contractAddress",
          "type": "address"
        },
        {
          "indexed": false,
          "internalType": "string",
          "name": "rpcUrl",
          "type": "string"
        }
      ],
      "name": "ChainAddedGlobal",
      "type": "event"
    },
    {
      "anonymous": false,
      "inputs": [
        {
          "indexed": false,
          "internalType": "bytes",
          "name": "enclavePubKey",
          "type": "bytes"
        },
        {
          "indexed": false,
          "internalType": "uint256",
          "name": "chainId",
          "type": "uint256"
        }
      ],
      "name": "ChainRemoved",
      "type": "event"
    },
    {
      "anonymous": false,
      "inputs": [
        {
          "indexed": false,
          "internalType": "uint256",
          "name": "chainId",
          "type": "uint256"
        }
      ],
      "name": "ChainRemovedGlobal",
      "type": "event"
    },
    {
      "anonymous": false,
      "inputs": [
        {
          "indexed": true,
          "internalType": "bytes32",
          "name": "imageId",
          "type": "bytes32"
        }
      ],
      "name": "EnclaveImageRevoked",
      "type": "event"
    },
    {
      "anonymous": false,
      "inputs": [
        {
          "indexed": true,
          "internalType": "bytes32",
          "name": "imageId",
          "type": "bytes32"
        },
        {
          "indexed": false,
          "internalType": "bytes",
          "name": "PCR0",
          "type": "bytes"
        },
        {
          "indexed": false,
          "internalType": "bytes",
          "name": "PCR1",
          "type": "bytes"
        },
        {
          "indexed": false,
          "internalType": "bytes",
          "name": "PCR2",
          "type": "bytes"
        }
      ],
      "name": "EnclaveImageWhitelisted",
      "type": "event"
    },
    {
      "anonymous": false,
      "inputs": [
        {
          "indexed": true,
          "internalType": "bytes",
          "name": "enclavePubKey",
          "type": "bytes"
        }
      ],
      "name": "EnclaveKeyRevoked",
      "type": "event"
    },
    {
      "anonymous": false,
      "inputs": [
        {
          "indexed": true,
          "internalType": "bytes",
          "name": "enclavePubKey",
          "type": "bytes"
        },
        {
          "indexed": true,
          "internalType": "bytes32",
          "name": "imageId",
          "type": "bytes32"
        }
      ],
      "name": "EnclaveKeyVerified",
      "type": "event"
    },
    {
      "anonymous": false,
      "inputs": [
        {
          "indexed": true,
          "internalType": "bytes",
          "name": "enclavePubKey",
          "type": "bytes"
        },
        {
          "indexed": true,
          "internalType": "bytes32",
          "name": "imageId",
          "type": "bytes32"
        }
      ],
      "name": "EnclaveKeyWhitelisted",
      "type": "event"
    },
    {
      "anonymous": false,
      "inputs": [
        {
          "indexed": false,
          "internalType": "bytes",
          "name": "enclavePubKey",
          "type": "bytes"
        }
      ],
      "name": "ExecutorDeregistered",
      "type": "event"
    },
    {
      "anonymous": false,
      "inputs": [
        {
          "indexed": false,
          "internalType": "bytes",
          "name": "enclavePubKey",
          "type": "bytes"
        },
        {
          "indexed": true,
          "internalType": "address",
          "name": "enclaveAddress",
          "type": "address"
        },
        {
          "indexed": true,
          "internalType": "address",
          "name": "operator",
          "type": "address"
        }
      ],
      "name": "ExecutorRegistered",
      "type": "event"
    },
    {
      "anonymous": false,
      "inputs": [
        {
          "indexed": false,
          "internalType": "bytes",
          "name": "enclavePubKey",
          "type": "bytes"
        },
        {
          "indexed": false,
          "internalType": "uint256",
          "name": "addedAmount",
          "type": "uint256"
        },
        {
          "indexed": false,
          "internalType": "uint256",
          "name": "totalAmount",
          "type": "uint256"
        }
      ],
      "name": "ExecutorStakeAdded",
      "type": "event"
    },
    {
      "anonymous": false,
      "inputs": [
        {
          "indexed": false,
          "internalType": "bytes",
          "name": "enclavePubKey",
          "type": "bytes"
        },
        {
          "indexed": false,
          "internalType": "uint256",
          "name": "removedAmount",
          "type": "uint256"
        },
        {
          "indexed": false,
          "internalType": "uint256",
          "name": "totalAmount",
          "type": "uint256"
        }
      ],
      "name": "ExecutorStakeRemoved",
      "type": "event"
    },
    {
      "anonymous": false,
      "inputs": [
        {
          "indexed": false,
          "internalType": "bytes",
          "name": "enclavePubKey",
          "type": "bytes"
        }
      ],
      "name": "GatewayDeregistered",
      "type": "event"
    },
    {
      "anonymous": false,
      "inputs": [
        {
          "indexed": false,
          "internalType": "uint256",
          "name": "jobId",
          "type": "uint256"
        },
        {
          "indexed": true,
          "internalType": "address",
          "name": "prevGatewayOperator",
          "type": "address"
        },
        {
          "indexed": true,
          "internalType": "address",
          "name": "newGatewayOperator",
          "type": "address"
        }
      ],
      "name": "GatewayReassigned",
      "type": "event"
    },
    {
      "anonymous": false,
      "inputs": [
        {
          "indexed": false,
          "internalType": "bytes",
          "name": "enclavePubKey",
          "type": "bytes"
        },
        {
          "indexed": true,
          "internalType": "address",
          "name": "enclaveAddress",
          "type": "address"
        },
        {
          "indexed": true,
          "internalType": "address",
          "name": "operator",
          "type": "address"
        }
      ],
      "name": "GatewayRegistered",
      "type": "event"
    },
    {
      "anonymous": false,
      "inputs": [
        {
          "indexed": false,
          "internalType": "bytes",
          "name": "enclavePubKey",
          "type": "bytes"
        },
        {
          "indexed": false,
          "internalType": "uint256",
          "name": "addedAmount",
          "type": "uint256"
        },
        {
          "indexed": false,
          "internalType": "uint256",
          "name": "totalAmount",
          "type": "uint256"
        }
      ],
      "name": "GatewayStakeAdded",
      "type": "event"
    },
    {
      "anonymous": false,
      "inputs": [
        {
          "indexed": false,
          "internalType": "bytes",
          "name": "enclavePubKey",
          "type": "bytes"
        },
        {
          "indexed": false,
          "internalType": "uint256",
          "name": "removedAmount",
          "type": "uint256"
        },
        {
          "indexed": false,
          "internalType": "uint256",
          "name": "totalAmount",
          "type": "uint256"
        }
      ],
      "name": "GatewayStakeRemoved",
      "type": "event"
    },
    {
      "anonymous": false,
      "inputs": [
        {
          "indexed": false,
          "internalType": "uint8",
          "name": "version",
          "type": "uint8"
        }
      ],
      "name": "Initialized",
      "type": "event"
    },
    {
      "anonymous": false,
      "inputs": [
        {
          "indexed": true,
          "internalType": "uint256",
          "name": "jobId",
          "type": "uint256"
        },
        {
          "indexed": false,
          "internalType": "uint256",
          "name": "reqChainId",
          "type": "uint256"
        },
        {
          "indexed": false,
          "internalType": "bytes32",
          "name": "codehash",
          "type": "bytes32"
        },
        {
          "indexed": false,
          "internalType": "bytes",
          "name": "codeInputs",
          "type": "bytes"
        },
        {
          "indexed": false,
          "internalType": "uint256",
          "name": "deadline",
          "type": "uint256"
        },
        {
          "indexed": false,
          "internalType": "address",
          "name": "jobOwner",
          "type": "address"
        },
        {
          "indexed": false,
          "internalType": "address",
          "name": "gatewayOperator",
          "type": "address"
        },
        {
          "indexed": false,
          "internalType": "uint256",
          "name": "retryNumber",
          "type": "uint256"
        }
      ],
      "name": "JobRelayed",
      "type": "event"
    },
    {
      "anonymous": false,
      "inputs": [
        {
          "indexed": true,
          "internalType": "uint256",
          "name": "jobId",
          "type": "uint256"
        },
        {
          "indexed": false,
          "internalType": "bytes",
          "name": "output",
          "type": "bytes"
        },
        {
          "indexed": false,
          "internalType": "uint256",
          "name": "totalTime",
          "type": "uint256"
        },
        {
          "indexed": false,
          "internalType": "uint256",
          "name": "errorCode",
          "type": "uint256"
        },
        {
          "indexed": false,
          "internalType": "uint8",
          "name": "outputCount",
          "type": "uint8"
        }
      ],
      "name": "JobResponded",
      "type": "event"
    },
    {
      "anonymous": false,
      "inputs": [
        {
          "indexed": true,
          "internalType": "bytes32",
          "name": "role",
          "type": "bytes32"
        },
        {
          "indexed": true,
          "internalType": "bytes32",
          "name": "previousAdminRole",
          "type": "bytes32"
        },
        {
          "indexed": true,
          "internalType": "bytes32",
          "name": "newAdminRole",
          "type": "bytes32"
        }
      ],
      "name": "RoleAdminChanged",
      "type": "event"
    },
    {
      "anonymous": false,
      "inputs": [
        {
          "indexed": true,
          "internalType": "bytes32",
          "name": "role",
          "type": "bytes32"
        },
        {
          "indexed": true,
          "internalType": "address",
          "name": "account",
          "type": "address"
        },
        {
          "indexed": true,
          "internalType": "address",
          "name": "sender",
          "type": "address"
        }
      ],
      "name": "RoleGranted",
      "type": "event"
    },
    {
      "anonymous": false,
      "inputs": [
        {
          "indexed": true,
          "internalType": "bytes32",
          "name": "role",
          "type": "bytes32"
        },
        {
          "indexed": true,
          "internalType": "address",
          "name": "account",
          "type": "address"
        },
        {
          "indexed": true,
          "internalType": "address",
          "name": "sender",
          "type": "address"
        }
      ],
      "name": "RoleRevoked",
      "type": "event"
    },
    {
      "anonymous": false,
      "inputs": [
        {
          "indexed": false,
          "internalType": "uint256",
          "name": "jobId",
          "type": "uint256"
        },
        {
          "indexed": false,
          "internalType": "address[]",
          "name": "executors",
          "type": "address[]"
        }
      ],
      "name": "SlashedOnExecutionTimeout",
      "type": "event"
    },
    {
      "anonymous": false,
      "inputs": [
        {
          "indexed": true,
          "internalType": "address",
          "name": "implementation",
          "type": "address"
        }
      ],
      "name": "Upgraded",
      "type": "event"
    },
    {
      "inputs": [],
      "name": "ATTESTATION_MAX_AGE",
      "outputs": [
        {
          "internalType": "uint256",
          "name": "",
          "type": "uint256"
        }
      ],
      "stateMutability": "view",
      "type": "function"
    },
    {
      "inputs": [],
      "name": "ATTESTATION_VERIFIER",
      "outputs": [
        {
          "internalType": "contract IAttestationVerifier",
          "name": "",
          "type": "address"
        }
      ],
      "stateMutability": "view",
      "type": "function"
    },
    {
      "inputs": [],
      "name": "DEFAULT_ADMIN_ROLE",
      "outputs": [
        {
          "internalType": "bytes32",
          "name": "",
          "type": "bytes32"
        }
      ],
      "stateMutability": "view",
      "type": "function"
    },
    {
      "inputs": [
        {
          "internalType": "address",
          "name": "_admin",
          "type": "address"
        },
        {
          "components": [
            {
              "internalType": "bytes",
              "name": "PCR0",
              "type": "bytes"
            },
            {
              "internalType": "bytes",
              "name": "PCR1",
              "type": "bytes"
            },
            {
              "internalType": "bytes",
              "name": "PCR2",
              "type": "bytes"
            }
          ],
          "internalType": "struct AttestationAutherUpgradeable.EnclaveImage[]",
          "name": "_images",
          "type": "tuple[]"
        },
        {
          "internalType": "contract IERC20",
          "name": "_token",
          "type": "address"
        },
        {
          "internalType": "uint256",
          "name": "_executionBufferTime",
          "type": "uint256"
        },
        {
          "internalType": "uint256",
          "name": "_noOfNodesToSelect",
          "type": "uint256"
        }
      ],
      "name": "__CommonChainContract_init",
      "outputs": [],
      "stateMutability": "nonpayable",
      "type": "function"
    },
    {
      "inputs": [
        {
          "internalType": "bytes",
          "name": "_enclavePubKey",
          "type": "bytes"
        },
        {
          "internalType": "uint256",
          "name": "_chainId",
          "type": "uint256"
        }
      ],
      "name": "addChain",
      "outputs": [],
      "stateMutability": "nonpayable",
      "type": "function"
    },
    {
      "inputs": [
        {
          "internalType": "uint256[]",
          "name": "_chainIds",
          "type": "uint256[]"
        },
        {
          "components": [
            {
              "internalType": "address",
              "name": "contractAddress",
              "type": "address"
            },
            {
              "internalType": "string",
              "name": "rpcUrl",
              "type": "string"
            }
          ],
          "internalType": "struct CommonChainContract.RequestChain[]",
          "name": "_requestChains",
          "type": "tuple[]"
        }
      ],
      "name": "addChainGlobal",
      "outputs": [],
      "stateMutability": "nonpayable",
      "type": "function"
    },
    {
      "inputs": [
        {
          "internalType": "bytes",
          "name": "_enclavePubKey",
          "type": "bytes"
        },
        {
          "internalType": "uint256[]",
          "name": "_chainIds",
          "type": "uint256[]"
        }
      ],
      "name": "addChains",
      "outputs": [],
      "stateMutability": "nonpayable",
      "type": "function"
    },
    {
      "inputs": [
        {
          "internalType": "bytes",
          "name": "_enclavePubKey",
          "type": "bytes"
        },
        {
          "internalType": "uint256",
          "name": "_amount",
          "type": "uint256"
        }
      ],
      "name": "addExecutorStake",
      "outputs": [],
      "stateMutability": "nonpayable",
      "type": "function"
    },
    {
      "inputs": [
        {
          "internalType": "bytes",
          "name": "_enclavePubKey",
          "type": "bytes"
        },
        {
          "internalType": "uint256",
          "name": "_amount",
          "type": "uint256"
        }
      ],
      "name": "addGatewayStake",
      "outputs": [],
      "stateMutability": "nonpayable",
      "type": "function"
    },
    {
      "inputs": [
        {
          "internalType": "address",
          "name": "",
          "type": "address"
        }
      ],
      "name": "addressToIndexMap",
      "outputs": [
        {
          "internalType": "uint256",
          "name": "",
          "type": "uint256"
        }
      ],
      "stateMutability": "view",
      "type": "function"
    },
    {
      "inputs": [
        {
          "internalType": "bytes",
          "name": "_enclavePubKey",
          "type": "bytes"
        }
      ],
      "name": "deregisterExecutor",
      "outputs": [],
      "stateMutability": "nonpayable",
      "type": "function"
    },
    {
      "inputs": [
        {
          "internalType": "bytes",
          "name": "_enclavePubKey",
          "type": "bytes"
        }
      ],
      "name": "deregisterGateway",
      "outputs": [],
      "stateMutability": "nonpayable",
      "type": "function"
    },
    {
      "inputs": [],
      "name": "executionBufferTime",
      "outputs": [
        {
          "internalType": "uint256",
          "name": "",
          "type": "uint256"
        }
      ],
      "stateMutability": "view",
      "type": "function"
    },
    {
      "inputs": [
        {
          "internalType": "address",
          "name": "",
          "type": "address"
        }
      ],
      "name": "executors",
      "outputs": [
        {
          "internalType": "address",
          "name": "operator",
          "type": "address"
        },
        {
          "internalType": "uint256",
          "name": "jobCapacity",
          "type": "uint256"
        },
        {
          "internalType": "uint256",
          "name": "activeJobs",
          "type": "uint256"
        },
        {
          "internalType": "uint256",
          "name": "stakeAmount",
          "type": "uint256"
        },
        {
          "internalType": "bool",
          "name": "status",
          "type": "bool"
        }
      ],
      "stateMutability": "view",
      "type": "function"
    },
    {
      "inputs": [
        {
          "internalType": "address",
          "name": "",
          "type": "address"
        }
      ],
      "name": "gateways",
      "outputs": [
        {
          "internalType": "address",
          "name": "operator",
          "type": "address"
        },
        {
          "internalType": "uint256",
          "name": "stakeAmount",
          "type": "uint256"
        },
        {
          "internalType": "bool",
          "name": "status",
          "type": "bool"
        }
      ],
      "stateMutability": "view",
      "type": "function"
    },
    {
      "inputs": [
        {
          "internalType": "bytes32",
          "name": "role",
          "type": "bytes32"
        }
      ],
      "name": "getRoleAdmin",
      "outputs": [
        {
          "internalType": "bytes32",
          "name": "",
          "type": "bytes32"
        }
      ],
      "stateMutability": "view",
      "type": "function"
    },
    {
      "inputs": [
        {
          "internalType": "bytes32",
          "name": "role",
          "type": "bytes32"
        },
        {
          "internalType": "uint256",
          "name": "index",
          "type": "uint256"
        }
      ],
      "name": "getRoleMember",
      "outputs": [
        {
          "internalType": "address",
          "name": "",
          "type": "address"
        }
      ],
      "stateMutability": "view",
      "type": "function"
    },
    {
      "inputs": [
        {
          "internalType": "bytes32",
          "name": "role",
          "type": "bytes32"
        }
      ],
      "name": "getRoleMemberCount",
      "outputs": [
        {
          "internalType": "uint256",
          "name": "",
          "type": "uint256"
        }
      ],
      "stateMutability": "view",
      "type": "function"
    },
    {
      "inputs": [
        {
          "internalType": "address",
          "name": "_key",
          "type": "address"
        }
      ],
      "name": "getVerifiedKey",
      "outputs": [
        {
          "internalType": "bytes32",
          "name": "",
          "type": "bytes32"
        }
      ],
      "stateMutability": "view",
      "type": "function"
    },
    {
      "inputs": [
        {
          "internalType": "bytes32",
          "name": "_imageId",
          "type": "bytes32"
        }
      ],
      "name": "getWhitelistedImage",
      "outputs": [
        {
          "components": [
            {
              "internalType": "bytes",
              "name": "PCR0",
              "type": "bytes"
            },
            {
              "internalType": "bytes",
              "name": "PCR1",
              "type": "bytes"
            },
            {
              "internalType": "bytes",
              "name": "PCR2",
              "type": "bytes"
            }
          ],
          "internalType": "struct AttestationAutherUpgradeable.EnclaveImage",
          "name": "",
          "type": "tuple"
        }
      ],
      "stateMutability": "view",
      "type": "function"
    },
    {
      "inputs": [
        {
          "internalType": "bytes32",
          "name": "role",
          "type": "bytes32"
        },
        {
          "internalType": "address",
          "name": "account",
          "type": "address"
        }
      ],
      "name": "grantRole",
      "outputs": [],
      "stateMutability": "nonpayable",
      "type": "function"
    },
    {
      "inputs": [
        {
          "internalType": "bytes32",
          "name": "role",
          "type": "bytes32"
        },
        {
          "internalType": "address",
          "name": "account",
          "type": "address"
        }
      ],
      "name": "hasRole",
      "outputs": [
        {
          "internalType": "bool",
          "name": "",
          "type": "bool"
        }
      ],
      "stateMutability": "view",
      "type": "function"
    },
    {
      "inputs": [
        {
          "internalType": "uint256",
          "name": "",
          "type": "uint256"
        }
      ],
      "name": "indexToAddressMap",
      "outputs": [
        {
          "internalType": "address",
          "name": "",
          "type": "address"
        }
      ],
      "stateMutability": "view",
      "type": "function"
    },
    {
      "inputs": [
        {
          "internalType": "uint256",
          "name": "_jobId",
          "type": "uint256"
        },
        {
          "internalType": "address",
          "name": "_executor",
          "type": "address"
        }
      ],
      "name": "isJobExecutor",
      "outputs": [
        {
          "internalType": "bool",
          "name": "",
          "type": "bool"
        }
      ],
      "stateMutability": "view",
      "type": "function"
    },
    {
      "inputs": [
        {
          "internalType": "uint256",
          "name": "",
          "type": "uint256"
        }
      ],
      "name": "jobs",
      "outputs": [
        {
          "internalType": "uint256",
          "name": "reqChainId",
          "type": "uint256"
        },
        {
          "internalType": "bytes32",
          "name": "codehash",
          "type": "bytes32"
        },
        {
          "internalType": "bytes",
          "name": "codeInputs",
          "type": "bytes"
        },
        {
          "internalType": "uint256",
          "name": "deadline",
          "type": "uint256"
        },
        {
          "internalType": "uint256",
          "name": "execStartTime",
          "type": "uint256"
        },
        {
          "internalType": "address",
          "name": "jobOwner",
          "type": "address"
        },
        {
          "internalType": "address",
          "name": "gatewayOperator",
          "type": "address"
        },
        {
          "internalType": "uint8",
          "name": "outputCount",
          "type": "uint8"
        },
        {
          "internalType": "uint256",
          "name": "retryNumber",
          "type": "uint256"
        }
      ],
      "stateMutability": "view",
      "type": "function"
    },
    {
      "inputs": [],
      "name": "noOfNodesToSelect",
      "outputs": [
        {
          "internalType": "uint256",
          "name": "",
          "type": "uint256"
        }
      ],
      "stateMutability": "view",
      "type": "function"
    },
    {
      "inputs": [
        {
          "internalType": "uint256",
          "name": "",
          "type": "uint256"
        }
      ],
      "name": "nodes",
      "outputs": [
        {
          "internalType": "uint64",
          "name": "value",
          "type": "uint64"
        },
        {
          "internalType": "uint64",
          "name": "leftSum",
          "type": "uint64"
        },
        {
          "internalType": "uint64",
          "name": "rightSum",
          "type": "uint64"
        }
      ],
      "stateMutability": "view",
      "type": "function"
    },
    {
      "inputs": [],
      "name": "nodesInTree",
      "outputs": [
        {
          "internalType": "uint256",
          "name": "",
          "type": "uint256"
        }
      ],
      "stateMutability": "view",
      "type": "function"
    },
    {
      "inputs": [],
      "name": "proxiableUUID",
      "outputs": [
        {
          "internalType": "bytes32",
          "name": "",
          "type": "bytes32"
        }
      ],
      "stateMutability": "view",
      "type": "function"
    },
    {
      "inputs": [
        {
          "internalType": "address",
          "name": "_gatewayOperatorOld",
          "type": "address"
        },
        {
          "internalType": "uint256",
          "name": "_jobId",
          "type": "uint256"
        },
        {
          "internalType": "bytes",
          "name": "_signature",
          "type": "bytes"
        }
      ],
      "name": "reassignGatewayRelay",
      "outputs": [],
      "stateMutability": "nonpayable",
      "type": "function"
    },
    {
      "inputs": [
        {
          "internalType": "bytes",
          "name": "_attestation",
          "type": "bytes"
        },
        {
          "internalType": "bytes",
          "name": "_enclavePubKey",
          "type": "bytes"
        },
        {
          "internalType": "bytes",
          "name": "_PCR0",
          "type": "bytes"
        },
        {
          "internalType": "bytes",
          "name": "_PCR1",
          "type": "bytes"
        },
        {
          "internalType": "bytes",
          "name": "_PCR2",
          "type": "bytes"
        },
        {
          "internalType": "uint256",
          "name": "_enclaveCPUs",
          "type": "uint256"
        },
        {
          "internalType": "uint256",
          "name": "_enclaveMemory",
          "type": "uint256"
        },
        {
          "internalType": "uint256",
          "name": "_timestampInMilliseconds",
          "type": "uint256"
        },
        {
          "internalType": "uint256",
          "name": "_jobCapacity",
          "type": "uint256"
        },
        {
          "internalType": "bytes",
          "name": "_signature",
          "type": "bytes"
        },
        {
          "internalType": "uint256",
          "name": "_stakeAmount",
          "type": "uint256"
        }
      ],
      "name": "registerExecutor",
      "outputs": [],
      "stateMutability": "nonpayable",
      "type": "function"
    },
    {
      "inputs": [
        {
          "internalType": "bytes",
          "name": "_attestation",
          "type": "bytes"
        },
        {
          "internalType": "bytes",
          "name": "_enclavePubKey",
          "type": "bytes"
        },
        {
          "internalType": "bytes",
          "name": "_PCR0",
          "type": "bytes"
        },
        {
          "internalType": "bytes",
          "name": "_PCR1",
          "type": "bytes"
        },
        {
          "internalType": "bytes",
          "name": "_PCR2",
          "type": "bytes"
        },
        {
          "internalType": "uint256",
          "name": "_enclaveCPUs",
          "type": "uint256"
        },
        {
          "internalType": "uint256",
          "name": "_enclaveMemory",
          "type": "uint256"
        },
        {
          "internalType": "uint256",
          "name": "_timestampInMilliseconds",
          "type": "uint256"
        },
        {
          "internalType": "uint256[]",
          "name": "_chainIds",
          "type": "uint256[]"
        },
        {
          "internalType": "bytes",
          "name": "_signature",
          "type": "bytes"
        },
        {
          "internalType": "uint256",
          "name": "_stakeAmount",
          "type": "uint256"
        }
      ],
      "name": "registerGateway",
      "outputs": [],
      "stateMutability": "nonpayable",
      "type": "function"
    },
    {
      "inputs": [
        {
          "internalType": "bytes",
          "name": "_signature",
          "type": "bytes"
        },
        {
          "internalType": "uint256",
          "name": "_jobId",
          "type": "uint256"
        },
        {
          "internalType": "uint256",
          "name": "_reqChainId",
          "type": "uint256"
        },
        {
          "internalType": "bytes32",
          "name": "_codehash",
          "type": "bytes32"
        },
        {
          "internalType": "bytes",
          "name": "_codeInputs",
          "type": "bytes"
        },
        {
          "internalType": "uint256",
          "name": "_deadline",
          "type": "uint256"
        },
        {
          "internalType": "address",
          "name": "_jobOwner",
          "type": "address"
        },
        {
          "internalType": "uint256",
          "name": "_retryNumber",
          "type": "uint256"
        }
      ],
      "name": "relayJob",
      "outputs": [],
      "stateMutability": "nonpayable",
      "type": "function"
    },
    {
      "inputs": [
        {
          "internalType": "bytes",
          "name": "_enclavePubKey",
          "type": "bytes"
        },
        {
          "internalType": "uint256",
          "name": "_chainId",
          "type": "uint256"
        }
      ],
      "name": "removeChain",
      "outputs": [],
      "stateMutability": "nonpayable",
      "type": "function"
    },
    {
      "inputs": [
        {
          "internalType": "uint256[]",
          "name": "_chainIds",
          "type": "uint256[]"
        }
      ],
      "name": "removeChainGlobal",
      "outputs": [],
      "stateMutability": "nonpayable",
      "type": "function"
    },
    {
      "inputs": [
        {
          "internalType": "bytes",
          "name": "_enclavePubKey",
          "type": "bytes"
        },
        {
          "internalType": "uint256[]",
          "name": "_chainIds",
          "type": "uint256[]"
        }
      ],
      "name": "removeChains",
      "outputs": [],
      "stateMutability": "nonpayable",
      "type": "function"
    },
    {
      "inputs": [
        {
          "internalType": "bytes",
          "name": "_enclavePubKey",
          "type": "bytes"
        },
        {
          "internalType": "uint256",
          "name": "_amount",
          "type": "uint256"
        }
      ],
      "name": "removeExecutorStake",
      "outputs": [],
      "stateMutability": "nonpayable",
      "type": "function"
    },
    {
      "inputs": [
        {
          "internalType": "bytes",
          "name": "_enclavePubKey",
          "type": "bytes"
        },
        {
          "internalType": "uint256",
          "name": "_amount",
          "type": "uint256"
        }
      ],
      "name": "removeGatewayStake",
      "outputs": [],
      "stateMutability": "nonpayable",
      "type": "function"
    },
    {
      "inputs": [
        {
          "internalType": "bytes32",
          "name": "role",
          "type": "bytes32"
        },
        {
          "internalType": "address",
          "name": "account",
          "type": "address"
        }
      ],
      "name": "renounceRole",
      "outputs": [],
      "stateMutability": "nonpayable",
      "type": "function"
    },
    {
      "inputs": [
        {
          "internalType": "uint256",
          "name": "",
          "type": "uint256"
        }
      ],
      "name": "requestChains",
      "outputs": [
        {
          "internalType": "address",
          "name": "contractAddress",
          "type": "address"
        },
        {
          "internalType": "string",
          "name": "rpcUrl",
          "type": "string"
        }
      ],
      "stateMutability": "view",
      "type": "function"
    },
    {
      "inputs": [
        {
          "internalType": "bytes32",
          "name": "role",
          "type": "bytes32"
        },
        {
          "internalType": "address",
          "name": "account",
          "type": "address"
        }
      ],
      "name": "revokeRole",
      "outputs": [],
      "stateMutability": "nonpayable",
      "type": "function"
    },
    {
      "inputs": [
        {
          "internalType": "uint256",
          "name": "",
          "type": "uint256"
        },
        {
          "internalType": "uint256",
          "name": "",
          "type": "uint256"
        }
      ],
      "name": "selectedExecutors",
      "outputs": [
        {
          "internalType": "address",
          "name": "",
          "type": "address"
        }
      ],
      "stateMutability": "view",
      "type": "function"
    },
    {
      "inputs": [
        {
          "internalType": "uint256",
          "name": "_jobId",
          "type": "uint256"
        }
      ],
      "name": "slashOnExecutionTimeout",
      "outputs": [],
      "stateMutability": "nonpayable",
      "type": "function"
    },
    {
      "inputs": [
        {
          "internalType": "bytes",
          "name": "_signature",
          "type": "bytes"
        },
        {
          "internalType": "uint256",
          "name": "_jobId",
          "type": "uint256"
        },
        {
          "internalType": "bytes",
          "name": "_output",
          "type": "bytes"
        },
        {
          "internalType": "uint256",
          "name": "_totalTime",
          "type": "uint256"
        },
        {
          "internalType": "uint8",
          "name": "_errorCode",
          "type": "uint8"
        }
      ],
      "name": "submitOutput",
      "outputs": [],
      "stateMutability": "nonpayable",
      "type": "function"
    },
    {
      "inputs": [
        {
          "internalType": "bytes4",
          "name": "interfaceId",
          "type": "bytes4"
        }
      ],
      "name": "supportsInterface",
      "outputs": [
        {
          "internalType": "bool",
          "name": "",
          "type": "bool"
        }
      ],
      "stateMutability": "view",
      "type": "function"
    },
    {
      "inputs": [],
      "name": "token",
      "outputs": [
        {
          "internalType": "contract IERC20",
          "name": "",
          "type": "address"
        }
      ],
      "stateMutability": "view",
      "type": "function"
    },
    {
      "inputs": [
        {
          "internalType": "address",
          "name": "newImplementation",
          "type": "address"
        }
      ],
      "name": "upgradeTo",
      "outputs": [],
      "stateMutability": "nonpayable",
      "type": "function"
    },
    {
      "inputs": [
        {
          "internalType": "address",
          "name": "newImplementation",
          "type": "address"
        },
        {
          "internalType": "bytes",
          "name": "data",
          "type": "bytes"
        }
      ],
      "name": "upgradeToAndCall",
      "outputs": [],
      "stateMutability": "payable",
      "type": "function"
    },
    {
      "inputs": [
        {
          "internalType": "bytes",
          "name": "signature",
          "type": "bytes"
        },
        {
          "internalType": "bytes",
          "name": "enclavePubKey",
          "type": "bytes"
        },
        {
          "internalType": "bytes32",
          "name": "imageId",
          "type": "bytes32"
        },
        {
          "internalType": "uint256",
          "name": "enclaveCPUs",
          "type": "uint256"
        },
        {
          "internalType": "uint256",
          "name": "enclaveMemory",
          "type": "uint256"
        },
        {
          "internalType": "uint256",
          "name": "timestampInMilliseconds",
          "type": "uint256"
        }
      ],
      "name": "verifyKey",
      "outputs": [],
      "stateMutability": "nonpayable",
      "type": "function"
    }
  ],
  "bytecode": "0x60e06040523060c0523480156200001557600080fd5b506040516200763938038062007639833981016040819052620000389162000186565b6001600160a01b03821660805260a0819052600054610100900460ff16158080156200006b5750600054600160ff909116105b806200009b575062000088306200017760201b620035c61760201c565b1580156200009b575060005460ff166001145b620001035760405162461bcd60e51b815260206004820152602e60248201527f496e697469616c697a61626c653a20636f6e747261637420697320616c72656160448201526d191e481a5b9a5d1a585b1a5e995960921b606482015260840160405180910390fd5b6000805460ff19166001179055801562000127576000805461ff0019166101001790555b80156200016e576000805461ff0019169055604051600181527f7f26b83ff96e1f2b6a682f133852f6798a09c465da95921460cefb38474024989060200160405180910390a15b505050620001c2565b6001600160a01b03163b151590565b600080604083850312156200019a57600080fd5b82516001600160a01b0381168114620001b257600080fd5b6020939093015192949293505050565b60805160a05160c05161741d6200021c600039600081816110960152818161112c015281816116be01528181611754015261184b01526000818161084a0152613af301526000818161096a0152613d42015261741d6000f3fe60806040526004361061031e5760003560e01c806391d14854116101a5578063cc101e00116100ec578063e79e524a11610095578063eff3be091161006f578063eff3be0914610a6f578063f6c3873914610a8f578063fb94db2b14610aaf578063fc0c546a14610acf57600080fd5b8063e79e524a14610a01578063ec6aef2914610a21578063edc1c0df14610a4157600080fd5b8063d77114a5116100c6578063d77114a5146109ac578063e0aba60a146109c1578063e201aee1146109e157600080fd5b8063cc101e0014610938578063cd79f90614610958578063d547741f1461098c57600080fd5b8063a217fddf1161014e578063ca0a13b611610128578063ca0a13b6146108d8578063ca15c873146108f8578063cb3ac2ba1461091857600080fd5b8063a217fddf1461088c578063a728ab76146108a1578063a8986930146108c157600080fd5b80639ac2a0111161017f5780639ac2a011146107ac5780639aec990e146108385780639c01de411461086c57600080fd5b806391d148541461072657806395e11ef71461076c578063974d2a061461078c57600080fd5b80633659cfe6116102695780636361df6b1161021257806380bc9233116101ec57806380bc9233146106755780639010d07c146106955780639022c19c146106b557600080fd5b80636361df6b1461061e578063728d21b01461063e57806377cba0361461065557600080fd5b80634c712ba3116102435780634c712ba3146105d65780634f1ef286146105f657806352d1902d1461060957600080fd5b80633659cfe6146105765780634abc64c2146105965780634b104c85146105b657600080fd5b80632410f6ba116102cb57806332dc9a96116102a557806332dc9a96146104e85780633651cf281461053657806336568abe1461055657600080fd5b80632410f6ba1461046b578063248a9ca3146104985780632f2ff15d146104c857600080fd5b8063180aedf3116102fc578063180aedf3146103be5780631a2c9de7146103f35780631c53c2801461042057600080fd5b80630167847b1461032357806301d58fa31461034557806301ffc9a71461038e575b600080fd5b34801561032f57600080fd5b5061034361033e366004616111565b610af0565b005b34801561035157600080fd5b5061037b61036036600461615b565b6001600160a01b0316600090815260ca602052604090205490565b6040519081526020015b60405180910390f35b34801561039a57600080fd5b506103ae6103a9366004616178565b610c50565b6040519015158152602001610385565b3480156103ca57600080fd5b506103de6103d93660046161ba565b610c61565b60405161038599989796959493929190616223565b3480156103ff57600080fd5b5061037b61040e36600461615b565b60fb6020526000908152604090205481565b34801561042c57600080fd5b5061044061043b3660046161ba565b610d57565b6040805167ffffffffffffffff94851681529284166020840152921691810191909152606001610385565b34801561047757600080fd5b5061048b6104863660046161ba565b610da8565b6040516103859190616286565b3480156104a457600080fd5b5061037b6104b33660046161ba565b60009081526065602052604090206001015490565b3480156104d457600080fd5b506103436104e33660046162e7565b610fa1565b3480156104f457600080fd5b5061051e6105033660046161ba565b60fc602052600090815260409020546001600160a01b031681565b6040516001600160a01b039091168152602001610385565b34801561054257600080fd5b5061051e610551366004616317565b610fcb565b34801561056257600080fd5b506103436105713660046162e7565b611004565b34801561058257600080fd5b5061034361059136600461615b565b61108c565b3480156105a257600080fd5b506103436105b13660046163b1565b611229565b3480156105c257600080fd5b506103436105d1366004616415565b61133b565b3480156105e257600080fd5b506103436105f136600461645a565b6114a0565b6103436106043660046165a6565b6116b4565b34801561061557600080fd5b5061037b61183e565b34801561062a57600080fd5b506103436106393660046165ec565b611903565b34801561064a57600080fd5b5061037b6101925481565b34801561066157600080fd5b506103ae6106703660046162e7565b611ac4565b34801561068157600080fd5b50610343610690366004616415565b611ba0565b3480156106a157600080fd5b5061051e6106b0366004616317565b611df0565b3480156106c157600080fd5b506106ff6106d036600461615b565b610195602052600090815260409020805460028201546003909201546001600160a01b03909116919060ff1683565b604080516001600160a01b0390941684526020840192909252151590820152606001610385565b34801561073257600080fd5b506103ae6107413660046162e7565b60009182526065602090815260408084206001600160a01b0393909316845291905290205460ff1690565b34801561077857600080fd5b506103436107873660046161ba565b611e0f565b34801561079857600080fd5b506103436107a7366004616415565b61205b565b3480156107b857600080fd5b506108046107c736600461615b565b61019660205260009081526040902080546001820154600283015460038401546004909401546001600160a01b0390931693919290919060ff1685565b604080516001600160a01b03909616865260208601949094529284019190915260608301521515608082015260a001610385565b34801561084457600080fd5b5061037b7f000000000000000000000000000000000000000000000000000000000000000081565b34801561087857600080fd5b50610343610887366004616415565b61234d565b34801561089857600080fd5b5061037b600081565b3480156108ad57600080fd5b506103436108bc366004616415565b612471565b3480156108cd57600080fd5b5061037b6101935481565b3480156108e457600080fd5b506103436108f336600461667e565b6125b7565b34801561090457600080fd5b5061037b6109133660046161ba565b612711565b34801561092457600080fd5b50610343610933366004616781565b612728565b34801561094457600080fd5b50610343610953366004616415565b612a98565b34801561096457600080fd5b5061051e7f000000000000000000000000000000000000000000000000000000000000000081565b34801561099857600080fd5b506103436109a73660046162e7565b612bab565b3480156109b857600080fd5b5061037b612bd0565b3480156109cd57600080fd5b506103436109dc36600461682a565b612be7565b3480156109ed57600080fd5b506103436109fc36600461685f565b612d71565b348015610a0d57600080fd5b50610343610a1c3660046168c8565b612eab565b348015610a2d57600080fd5b50610343610a3c3660046163b1565b61306f565b348015610a4d57600080fd5b50610a61610a5c3660046161ba565b61317a565b604051610385929190616a3e565b348015610a7b57600080fd5b50610343610a8a366004616a60565b61322a565b348015610a9b57600080fd5b50610343610aaa36600461682a565b6133d2565b348015610abb57600080fd5b50610343610aca366004616b92565b6135b8565b348015610adb57600080fd5b506101915461051e906001600160a01b031681565b610afb600033610741565b610b4c5760405162461bcd60e51b815260206004820152600a60248201527f6f6e6c792061646d696e0000000000000000000000000000000000000000000060448201526064015b60405180910390fd5b6000815111610b9d5760405162461bcd60e51b815260206004820152600e60248201527f494e56414c49445f4c454e4754480000000000000000000000000000000000006044820152606401610b43565b60005b8151811015610c4c576000828281518110610bbd57610bbd616c19565b602090810291909101810151600081815261019490925260408220805473ffffffffffffffffffffffffffffffffffffffff1916815590925090610c046001830182615ebc565b50506040518181527f5b9dc40648bfe840de770df10081e79f179534343348da4087dea77ba584d1819060200160405180910390a15080610c4481616c77565b915050610ba0565b5050565b6000610c5b826135d5565b92915050565b6101976020526000908152604090208054600182015460028301805492939192610c8a90616caf565b80601f0160208091040260200160405190810160405280929190818152602001828054610cb690616caf565b8015610d035780601f10610cd857610100808354040283529160200191610d03565b820191906000526020600020905b815481529060010190602001808311610ce657829003601f168201915b5050506003840154600485015460058601546006870154600790970154959692959194506001600160a01b03908116935082169160ff74010000000000000000000000000000000000000000909104169089565b60fd8181548110610d6757600080fd5b60009182526020909120015467ffffffffffffffff808216925068010000000000000000820481169170010000000000000000000000000000000090041683565b610dcc60405180606001604052806060815260200160608152602001606081525090565b600082815260c9602052604090819020815160608101909252805482908290610df490616caf565b80601f0160208091040260200160405190810160405280929190818152602001828054610e2090616caf565b8015610e6d5780601f10610e4257610100808354040283529160200191610e6d565b820191906000526020600020905b815481529060010190602001808311610e5057829003601f168201915b50505050508152602001600182018054610e8690616caf565b80601f0160208091040260200160405190810160405280929190818152602001828054610eb290616caf565b8015610eff5780601f10610ed457610100808354040283529160200191610eff565b820191906000526020600020905b815481529060010190602001808311610ee257829003601f168201915b50505050508152602001600282018054610f1890616caf565b80601f0160208091040260200160405190810160405280929190818152602001828054610f4490616caf565b8015610f915780601f10610f6657610100808354040283529160200191610f91565b820191906000526020600020905b815481529060010190602001808311610f7457829003601f168201915b5050505050815250509050919050565b600082815260656020526040902060010154610fbc8161362b565b610fc68383613635565b505050565b6101986020528160005260406000208181548110610fe857600080fd5b6000918252602090912001546001600160a01b03169150829050565b6001600160a01b03811633146110825760405162461bcd60e51b815260206004820152602f60248201527f416363657373436f6e74726f6c3a2063616e206f6e6c792072656e6f756e636560448201527f20726f6c657320666f722073656c6600000000000000000000000000000000006064820152608401610b43565b610c4c828261363f565b6001600160a01b037f000000000000000000000000000000000000000000000000000000000000000016300361112a5760405162461bcd60e51b815260206004820152602c60248201527f46756e6374696f6e206d7573742062652063616c6c6564207468726f7567682060448201527f64656c656761746563616c6c00000000000000000000000000000000000000006064820152608401610b43565b7f00000000000000000000000000000000000000000000000000000000000000006001600160a01b03166111857f360894a13ba1a3210667c828492db98dca3e2076cc3735a920a3ca505d382bbc546001600160a01b031690565b6001600160a01b0316146112015760405162461bcd60e51b815260206004820152602c60248201527f46756e6374696f6e206d7573742062652063616c6c6564207468726f7567682060448201527f6163746976652070726f787900000000000000000000000000000000000000006064820152608401610b43565b61120a816136a2565b60408051600080825260208201909252611226918391906136f9565b50565b81600061123582613899565b6001600160a01b03808216600090815261019560205260409020549192501633146112a25760405162461bcd60e51b815260206004820152601560248201527f4f4e4c595f474154455741595f4f50455241544f5200000000000000000000006044820152606401610b43565b60008351116112f35760405162461bcd60e51b815260206004820152601060248201527f454d5054595f5245515f434841494e53000000000000000000000000000000006044820152606401610b43565b60005b8351811015611334576113228585838151811061131557611315616c19565b6020026020010151611ba0565b8061132c81616c77565b9150506112f6565b5050505050565b81600061134782613899565b6001600160a01b03808216600090815261019660205260409020549192501633146113b45760405162461bcd60e51b815260206004820152601660248201527f4f4e4c595f4558454355544f525f4f50455241544f52000000000000000000006044820152606401610b43565b6113cd335b610191546001600160a01b031690856138f8565b60006113d885613899565b6001600160a01b03811660009081526101966020526040812060030180549293508692909190611409908490616d02565b90915550506001600160a01b0381166000908152610196602052604090206001810154600290910154146114415761144181856139a1565b6001600160a01b03811660009081526101966020526040908190206003015490517fa7903817e9c60899f1796f02344546fbe45af803ac7a26968e800564687172f9916114919188918891616d15565b60405180910390a15050505050565b60008989896040516020016114b793929190616d3a565b6040516020818303038152906040528051906020012090506114dd8c8c838a8a8a6139c4565b6000846040516020016114f09190616d7d565b60408051601f198184030181529190528051602090910120905060006115168286613e3b565b905061152181613e5f565b61153b335b610191546001600160a01b0316903087613f7b565b60006115468e613899565b905060005b87518110156115f95760006001600160a01b031661019460008a848151811061157657611576616c19565b6020908102919091018101518252810191909152604001600020546001600160a01b0316036115e75760405162461bcd60e51b815260206004820152601160248201527f554e535550504f525445445f434841494e0000000000000000000000000000006044820152606401610b43565b806115f181616c77565b91505061154b565b50604051806080016040528061160c3390565b6001600160a01b03908116825260208083018b905260408084018a90526001606090940184905285831660009081526101958352208451815473ffffffffffffffffffffffffffffffffffffffff19169316929092178255838101518051929361167e93908501929190910190615ef6565b50604082015160028201556060909101516003909101805460ff1916911515919091179055505050505050505050505050505050565b6001600160a01b037f00000000000000000000000000000000000000000000000000000000000000001630036117525760405162461bcd60e51b815260206004820152602c60248201527f46756e6374696f6e206d7573742062652063616c6c6564207468726f7567682060448201527f64656c656761746563616c6c00000000000000000000000000000000000000006064820152608401610b43565b7f00000000000000000000000000000000000000000000000000000000000000006001600160a01b03166117ad7f360894a13ba1a3210667c828492db98dca3e2076cc3735a920a3ca505d382bbc546001600160a01b031690565b6001600160a01b0316146118295760405162461bcd60e51b815260206004820152602c60248201527f46756e6374696f6e206d7573742062652063616c6c6564207468726f7567682060448201527f6163746976652070726f787900000000000000000000000000000000000000006064820152608401610b43565b611832826136a2565b610c4c828260016136f9565b6000306001600160a01b037f000000000000000000000000000000000000000000000000000000000000000016146118de5760405162461bcd60e51b815260206004820152603860248201527f555550535570677261646561626c653a206d757374206e6f742062652063616c60448201527f6c6564207468726f7567682064656c656761746563616c6c00000000000000006064820152608401610b43565b507f360894a13ba1a3210667c828492db98dca3e2076cc3735a920a3ca505d382bbc90565b60008484848460405160200161191c9493929190616dc1565b60408051601f198184030181529190528051602090910120905060006119428288613e3b565b905061194d81613e5f565b6119578682611ac4565b6119a35760405162461bcd60e51b815260206004820152601560248201527f4e4f545f53454c45435445445f4558454355544f5200000000000000000000006044820152606401610b43565b6001600160a01b0381166000908152610196602052604090206001810154600290910154036119f4576001600160a01b038116600090815261019660205260409020600301546119f4908290613fd2565b6001600160a01b038116600090815261019660205260408120600201805460019290611a21908490616d02565b9091555050600086815261019760205260409020600601805487917f8fc6b8b59d0ff3436773bd2fa42b72163ff74598764f7e02bbcfc75afb4251609188918891889190601490611a8c9074010000000000000000000000000000000000000000900460ff16616df4565b91906101000a81548160ff021916908360ff1602179055604051611ab39493929190616e13565b60405180910390a250505050505050565b60008281526101986020908152604080832080548251818502810185019093528083528493830182828015611b2257602002820191906000526020600020905b81546001600160a01b03168152600190910190602001808311611b04575b505050600087815261019860205260408120549394509150505b81811015611b9457846001600160a01b0316838281518110611b6057611b60616c19565b60200260200101516001600160a01b031603611b825760019350505050610c5b565b80611b8c81616c77565b915050611b3c565b50600095945050505050565b816000611bac82613899565b6001600160a01b0380821660009081526101956020526040902054919250163314611c195760405162461bcd60e51b815260206004820152601560248201527f4f4e4c595f474154455741595f4f50455241544f5200000000000000000000006044820152606401610b43565b600083815261019460205260409020546001600160a01b0316611c7e5760405162461bcd60e51b815260206004820152601160248201527f554e535550504f525445445f434841494e0000000000000000000000000000006044820152606401610b43565b6000611c8985613899565b6001600160a01b03811660009081526101956020908152604080832060010180548251818502810185019093528083529495509293909291830182828015611cf057602002820191906000526020600020905b815481526020019060010190808311611cdc575b5050505050905060005b8151811015611d7d5785828281518110611d1657611d16616c19565b602002602001015103611d6b5760405162461bcd60e51b815260206004820152601460248201527f434841494e5f414c52454144595f4558495354530000000000000000000000006044820152606401610b43565b80611d7581616c77565b915050611cfa565b506001600160a01b03821660009081526101956020908152604080832060019081018054918201815584529190922001869055517f88cce4122801bcc715f3f1b2e894f26b07049a0d4c2d204c0c4ad87157f4e18c90611de09088908890616e46565b60405180910390a1505050505050565b6000828152609760205260408120611e0890836140f9565b9392505050565b610192546000828152610197602052604090206003810154600490910154611e379190616e68565b611e419190616e68565b4211611e8f5760405162461bcd60e51b815260206004820152601160248201527f444541444c494e455f4e4f545f4f5645520000000000000000000000000000006044820152606401610b43565b6000818152610197602052604081208181556001810182905590611eb66002830182615ebc565b506000600382018190556004820181905560058201805473ffffffffffffffffffffffffffffffffffffffff191690556006820180547fffffffffffffffffffffff00000000000000000000000000000000000000000016905560079091018190558181526101986020526040812054905b81811015611ff957600083815261019860205260408120805483908110611f5157611f51616c19565b60009182526020808320909101546001600160a01b0316808352610196909152604090912060018101546002909101549192509003611fb2576001600160a01b03811660009081526101966020526040902060030154611fb2908290613fd2565b6001600160a01b038116600090815261019660205260408120600201805460019290611fdf908490616d02565b90915550829150611ff1905081616c77565b915050611f28565b50600082815261019860205260409081902090517f028662a7b04c153b66537cb788297aa2b4f14412cc5830ff5c5748231924f9c69161203b91859190616e7b565b60405180910390a1600082815261019860205260408120610c4c91615f41565b81600061206782613899565b6001600160a01b03808216600090815261019560205260409020549192501633146120d45760405162461bcd60e51b815260206004820152601560248201527f4f4e4c595f474154455741595f4f50455241544f5200000000000000000000006044820152606401610b43565b60006120df85613899565b6001600160a01b0381166000908152610195602090815260408083206001018054825181850281018501909352808352949550929390929183018282801561214657602002820191906000526020600020905b815481526020019060010190808311612132575b50508351939450505081151590506121a05760405162461bcd60e51b815260206004820152600f60248201527f454d5054595f434841494e4c49535400000000000000000000000000000000006044820152606401610b43565b60005b818110156121de57868382815181106121be576121be616c19565b602002602001015103156121de57806121d681616c77565b9150506121a3565b81811461222d5760405162461bcd60e51b815260206004820152600f60248201527f434841494e5f4e4f545f464f554e4400000000000000000000000000000000006044820152606401610b43565b612238600183616d02565b81146122c9576001600160a01b0384166000908152610195602052604090206001908101906122679084616d02565b8154811061227757612277616c19565b90600052602060002001546101956000866001600160a01b03166001600160a01b0316815260200190815260200160002060010182815481106122bc576122bc616c19565b6000918252602090912001555b6001600160a01b0384166000908152610195602052604090206001018054806122f4576122f4616ed7565b600190038181906000526020600020016000905590557f23e9f2f63bc310edd7f3f83bb1e8fe39cd606aabe6a2530271f8037383aaf98c888860405161233b929190616e46565b60405180910390a15050505050505050565b81600061235982613899565b6001600160a01b03808216600090815261019560205260409020549192501633146123c65760405162461bcd60e51b815260206004820152601560248201527f4f4e4c595f474154455741595f4f50455241544f5200000000000000000000006044820152606401610b43565b6123e0335b610191546001600160a01b0316903086613f7b565b60006123eb85613899565b6001600160a01b0381166000908152610195602052604081206002018054929350869290919061241c908490616e68565b90915550506001600160a01b03811660009081526101956020526040908190206002015490517f9a719891db0e8e647d47fb1a5f64fea9a2c0d206db0b610c23f2cf1df5217823916114919188918891616d15565b81600061247d82613899565b6001600160a01b03808216600090815261019660205260409020549192501633146124ea5760405162461bcd60e51b815260206004820152601660248201527f4f4e4c595f4558454355544f525f4f50455241544f52000000000000000000006044820152606401610b43565b6124f3336123cb565b60006124fe85613899565b6001600160a01b0381166000908152610196602052604081206003018054929350869290919061252f908490616e68565b90915550506001600160a01b0381166000908152610196602052604090206001810154600290910154146125675761256781856139a1565b6001600160a01b03811660009081526101966020526040908190206003015490517f1f95f2be015b951fd700619ce83a83c8d4aaa34d2ffbd70307a2623f6299c4d4916114919188918891616d15565b60008989896040516020016125ce93929190616d3a565b6040516020818303038152906040528051906020012090506125f48c8c838a8a8a6139c4565b60008460405160200161260991815260200190565b60408051601f1981840301815291905280516020909101209050600061262f8286613e3b565b905061263a81613e5f565b61264333611526565b600061264e8e613899565b90506040518060a001604052806126623390565b6001600160a01b03908116825260208083018b90526000604080850182905260608086018c90526001608096870181905288861684526101968552928290208751815473ffffffffffffffffffffffffffffffffffffffff191696169590951785559286015191840191909155840151600283015583015160038201559101516004909101805460ff19169115159190911790556127008186613fd2565b505050505050505050505050505050565b6000818152609760205260408120610c5b90614105565b600086815261019460205260409020546001600160a01b031661278d5760405162461bcd60e51b815260206004820152601160248201527f554e535550504f525445445f434841494e0000000000000000000000000000006044820152606401610b43565b60008787878787876040516020016127aa96959493929190616f06565b60408051601f198184030181529190528051602090910120905060006127d0828b613e3b565b90506127db81613e5f565b60006127e68a61410f565b905060005b815181101561290d576001610196600084848151811061280d5761280d616c19565b60200260200101516001600160a01b03166001600160a01b0316815260200190815260200160002060020160008282546128479190616e68565b92505081905550610196600083838151811061286557612865616c19565b60200260200101516001600160a01b03166001600160a01b031681526020019081526020016000206001015461019660008484815181106128a8576128a8616c19565b60200260200101516001600160a01b03166001600160a01b0316815260200190815260200160002060020154036128fb576128fb8282815181106128ee576128ee616c19565b60200260200101516141d3565b8061290581616c77565b9150506127eb565b506040518061012001604052808a8152602001898152602001888152602001878152602001428152602001866001600160a01b0316815260200161294e3390565b6001600160a01b031681526000602080830182905260409283018890528d8252610197815290829020835181559083015160018201559082015160028201906129979082616f93565b50606082015160038201556080820151600482015560a082015160058201805473ffffffffffffffffffffffffffffffffffffffff19166001600160a01b0392831617905560c083015160068301805460e0860151929093167fffffffffffffffffffffff000000000000000000000000000000000000000000909316929092177401000000000000000000000000000000000000000060ff9092169190910217905561010090910151600790910155897f35d51fca0c560611a19ff4a6379a944bec6a4e45e940830296566a42eeafec248a8a8a8a8a338b604051612a83979695949392919061708f565b60405180910390a25050505050505050505050565b816000612aa482613899565b6001600160a01b0380821660009081526101956020526040902054919250163314612b115760405162461bcd60e51b815260206004820152601560248201527f4f4e4c595f474154455741595f4f50455241544f5200000000000000000000006044820152606401610b43565b612b1a336113b9565b6000612b2585613899565b6001600160a01b03811660009081526101956020526040812060020180549293508692909190612b56908490616d02565b90915550506001600160a01b03811660009081526101956020526040908190206002015490517f162e2d134a088692c1bd7ca2e473a83d6ad3dcc4d7289b5cee9d342f4004d1b8916114919188918891616d15565b600082815260656020526040902060010154612bc68161362b565b610fc6838361363f565b60fd54600090612be290600190616d02565b905090565b806000612bf382613899565b6001600160a01b0380821660009081526101956020526040902054919250163314612c605760405162461bcd60e51b815260206004820152601560248201527f4f4e4c595f474154455741595f4f50455241544f5200000000000000000000006044820152606401610b43565b6000612c6b84613899565b6001600160a01b038082166000908152610195602052604090205491925016612cd65760405162461bcd60e51b815260206004820152601360248201527f494e56414c49445f454e434c4156455f4b4559000000000000000000000000006044820152606401610b43565b6001600160a01b038116600090815261019560205260408120805473ffffffffffffffffffffffffffffffffffffffff1916815590612d186001830182615f41565b5060006002820155600301805460ff19169055612d3484614202565b7fcfdd9fda8828d739bda25c6f221393246d149dd1b7f6784acdb8ba0132722f2784604051612d6391906170db565b60405180910390a150505050565b600082815261019760205260409020600601546001600160a01b03163303612ddb5760405162461bcd60e51b815260206004820152600c60248201527f53414d455f4741544557415900000000000000000000000000000000000000006044820152606401610b43565b60008284604051602001612e029291909182526001600160a01b0316602082015260400190565b60408051601f19818403018152919052805160209091012090506000612e288284613e3b565b9050612e3381613e5f565b60008481526101976020908152604091829020600601805473ffffffffffffffffffffffffffffffffffffffff19163390811790915591518681526001600160a01b038816917f8b7c31ce9ded31107fcb4bfabbf28198eb7426f50084e26df70e22525d9b6b0e910160405180910390a35050505050565b600054610100900460ff1615808015612ecb5750600054600160ff909116105b80612ee55750303b158015612ee5575060005460ff166001145b612f575760405162461bcd60e51b815260206004820152602e60248201527f496e697469616c697a61626c653a20636f6e747261637420697320616c72656160448201527f647920696e697469616c697a65640000000000000000000000000000000000006064820152608401610b43565b6000805460ff191660011790558015612f9757600080547fffffffffffffffffffffffffffffffffffffffffffffffffffffffffffff00ff166101001790555b612f9f6142d2565b612fa76142d2565b612faf6142d2565b612fb885614351565b612fc061440f565b612fc86142d2565b612fd3600087613635565b610191805473ffffffffffffffffffffffffffffffffffffffff19166001600160a01b038616179055610192839055610193829055801561306757600080547fffffffffffffffffffffffffffffffffffffffffffffffffffffffffffff00ff169055604051600181527f7f26b83ff96e1f2b6a682f133852f6798a09c465da95921460cefb384740249890602001611de0565b505050505050565b81600061307b82613899565b6001600160a01b03808216600090815261019560205260409020549192501633146130e85760405162461bcd60e51b815260206004820152601560248201527f4f4e4c595f474154455741595f4f50455241544f5200000000000000000000006044820152606401610b43565b60008351116131395760405162461bcd60e51b815260206004820152601060248201527f454d5054595f5245515f434841494e53000000000000000000000000000000006044820152606401610b43565b60005b8351811015611334576131688585838151811061315b5761315b616c19565b602002602001015161205b565b8061317281616c77565b91505061313c565b61019460205260009081526040902080546001820180546001600160a01b0390921692916131a790616caf565b80601f01602080910402602001604051908101604052809291908181526020018280546131d390616caf565b80156132205780601f106131f557610100808354040283529160200191613220565b820191906000526020600020905b81548152906001019060200180831161320357829003601f168201915b5050505050905082565b613235600033610741565b6132815760405162461bcd60e51b815260206004820152600a60248201527f6f6e6c792061646d696e000000000000000000000000000000000000000000006044820152606401610b43565b60008251118015613293575080518251145b6132df5760405162461bcd60e51b815260206004820152600e60248201527f494e56414c49445f4c454e4754480000000000000000000000000000000000006044820152606401610b43565b60005b8151811015610fc65760008282815181106132ff576132ff616c19565b60200260200101519050600084838151811061331d5761331d616c19565b60209081029190910181015160008181526101948352604090208451815473ffffffffffffffffffffffffffffffffffffffff19166001600160a01b039091161781559184015190925083919060018201906133799082616f93565b5050825160208401516040517f67dd8b8576f1455907cc1b4aa4623860ed1036d8ead856785f3d51bef810fa6393506133b592859290916170ee565b60405180910390a1505080806133ca90616c77565b9150506132e2565b8060006133de82613899565b6001600160a01b038082166000908152610196602052604090205491925016331461344b5760405162461bcd60e51b815260206004820152601660248201527f4f4e4c595f4558454355544f525f4f50455241544f52000000000000000000006044820152606401610b43565b600061345684613899565b6001600160a01b0380821660009081526101966020526040902054919250166134c15760405162461bcd60e51b815260206004820152601360248201527f494e56414c49445f454e434c4156455f4b4559000000000000000000000000006044820152606401610b43565b6001600160a01b038116600090815261019660205260409020600201541561352b5760405162461bcd60e51b815260206004820152601360248201527f4143544956455f4a4f42535f50454e44494e47000000000000000000000000006044820152606401610b43565b6001600160a01b038116600090815261019660205260408120805473ffffffffffffffffffffffffffffffffffffffff1916815560018101829055600281018290556003810191909155600401805460ff19169055613589816141d3565b7fcd3eb6b4f0e55ead3175ceaac8651559bdea002353da50a25dbc57e9d6bce8ce84604051612d6391906170db565b6130678686868686866139c4565b6001600160a01b03163b151590565b60007fffffffff0000000000000000000000000000000000000000000000000000000082167f5a05180f000000000000000000000000000000000000000000000000000000001480610c5b5750610c5b82614494565b611226813361452b565b610c4c82826145a0565b61364982826145c2565b6136536000612711565b600003610c4c5760405162461bcd60e51b815260206004820181905260248201527f41563a52522d416c6c2061646d696e732063616e742062652072656d6f7665646044820152606401610b43565b6136ad600033610741565b6112265760405162461bcd60e51b815260206004820152600a60248201527f6f6e6c792061646d696e000000000000000000000000000000000000000000006044820152606401610b43565b7f4910fdfa16fed3260ed0e7147f7cc6da11a60208b5b9406d12a635614ffd91435460ff161561372c57610fc6836145e4565b826001600160a01b03166352d1902d6040518163ffffffff1660e01b8152600401602060405180830381865afa925050508015613786575060408051601f3d908101601f1916820190925261378391810190617116565b60015b6137f85760405162461bcd60e51b815260206004820152602e60248201527f45524331393637557067726164653a206e657720696d706c656d656e7461746960448201527f6f6e206973206e6f7420555550530000000000000000000000000000000000006064820152608401610b43565b7f360894a13ba1a3210667c828492db98dca3e2076cc3735a920a3ca505d382bbc811461388d5760405162461bcd60e51b815260206004820152602960248201527f45524331393637557067726164653a20756e737570706f727465642070726f7860448201527f6961626c655555494400000000000000000000000000000000000000000000006064820152608401610b43565b50610fc68383836146af565b600081516040146138ec5760405162461bcd60e51b815260206004820152601960248201527f496e76616c6964207075626c6963206b6579206c656e677468000000000000006044820152606401610b43565b50805160209091012090565b6040516001600160a01b038316602482015260448101829052610fc69084907fa9059cbb00000000000000000000000000000000000000000000000000000000906064015b60408051601f198184030181529190526020810180517bffffffffffffffffffffffffffffffffffffffffffffffffffffffff167fffffffff00000000000000000000000000000000000000000000000000000000909316929092179091526146d4565b6001600160a01b038216600090815260fb6020526040902054610c4c90826147bc565b600084815260c96020526040902080546139dd90616caf565b9050600003613a545760405162461bcd60e51b815260206004820152602d60248201527f41413a564b2d456e636c61766520696d61676520746f20766572696679206e6f60448201527f742077686974656c6973746564000000000000000000000000000000000000006064820152608401610b43565b6000613a5f86613899565b6001600160a01b038116600090815260ca602052604090205490915015613aee5760405162461bcd60e51b815260206004820152602260248201527f41413a564b2d456e636c617665206b657920616c72656164792076657269666960448201527f65640000000000000000000000000000000000000000000000000000000000006064820152608401610b43565b613b187f000000000000000000000000000000000000000000000000000000000000000042616d02565b613b246103e88461715e565b11613b715760405162461bcd60e51b815260206004820152601960248201527f41413a564b2d4174746573746174696f6e20746f6f206f6c64000000000000006044820152606401610b43565b600085815260c96020526040808220815160608101909252805482908290613b9890616caf565b80601f0160208091040260200160405190810160405280929190818152602001828054613bc490616caf565b8015613c115780601f10613be657610100808354040283529160200191613c11565b820191906000526020600020905b815481529060010190602001808311613bf457829003601f168201915b50505050508152602001600182018054613c2a90616caf565b80601f0160208091040260200160405190810160405280929190818152602001828054613c5690616caf565b8015613ca35780601f10613c7857610100808354040283529160200191613ca3565b820191906000526020600020905b815481529060010190602001808311613c8657829003601f168201915b50505050508152602001600282018054613cbc90616caf565b80601f0160208091040260200160405190810160405280929190818152602001828054613ce890616caf565b8015613d355780601f10613d0a57610100808354040283529160200191613d35565b820191906000526020600020905b815481529060010190602001808311613d1857829003601f168201915b50505050508152505090507f00000000000000000000000000000000000000000000000000000000000000006001600160a01b031663ac0f0bd589898460000151856020015186604001518b8b8b6040518963ffffffff1660e01b8152600401613da6989796959493929190617172565b60006040518083038186803b158015613dbe57600080fd5b505afa158015613dd2573d6000803e3d6000fd5b5050506001600160a01b038316600090815260ca60205260409081902088905551879150613e019089906171f7565b604051908190038120907ff4837f1a66a1e5fbde2c40d0f6eff75183139e79b0fc1eaab280a3a0be38e7b190600090a35050505050505050565b6000806000613e4a8585614819565b91509150613e578161485e565b509392505050565b6001600160a01b038116600090815260ca602052604090205480613eeb5760405162461bcd60e51b815260206004820152602360248201527f41413a414f562d456e636c617665206b6579206d75737420626520766572696660448201527f69656400000000000000000000000000000000000000000000000000000000006064820152608401610b43565b600081815260c9602052604090208054613f0490616caf565b9050600003610c4c5760405162461bcd60e51b815260206004820152602760248201527f41413a414f562d536f7572636520696d616765206d757374206265207768697460448201527f656c6973746564000000000000000000000000000000000000000000000000006064820152608401610b43565b6040516001600160a01b0380851660248301528316604482015260648101829052613fcc9085907f23b872dd000000000000000000000000000000000000000000000000000000009060840161393d565b50505050565b60fd8054604080516060810182526000808252602080830182815283850183815260018701885596835292517f9346ac6dd7de6b96975fec380d4d994c4c12e6a8897544f22915316cc6cca280860180549451975167ffffffffffffffff908116700100000000000000000000000000000000027fffffffffffffffff0000000000000000ffffffffffffffffffffffffffffffff99821668010000000000000000027fffffffffffffffffffffffffffffffff0000000000000000000000000000000090971693909116929092179490941796909616959095179091556001600160a01b03861680825260fb855282822084905583825260fc90945220805473ffffffffffffffffffffffffffffffffffffffff1916909217909155610fc681836149c3565b6000611e088383614b33565b6000610c5b825490565b6060600061411e600143616d02565b604080519140602083015242908201526060016040516020818303038152906040528051906020012060001c90506141598161019354614b5d565b915081516000036141ac5760405162461bcd60e51b815260206004820152601460248201527f4e4f5f4558454355544f525f53454c45435445440000000000000000000000006044820152606401610b43565b60008381526101986020908152604090912083516141cc92850190615f5f565b5050919050565b6001600160a01b038116600090815260fb6020526040812054908190036141f8575050565b610c4c8282614db7565b600061420d82613899565b6001600160a01b038116600090815260ca60205260409020549091506142755760405162461bcd60e51b815260206004820152601e60248201527f41413a524b2d456e636c617665206b6579206e6f7420766572696669656400006044820152606401610b43565b6001600160a01b038116600090815260ca6020526040808220919091555161429e9083906171f7565b604051908190038120907ff910fd78b98e9574e8b6f0e42bc3a996a6aba3776ec20b9d85515bd74a6c8fe990600090a25050565b600054610100900460ff1661434f5760405162461bcd60e51b815260206004820152602b60248201527f496e697469616c697a61626c653a20636f6e7472616374206973206e6f74206960448201527f6e697469616c697a696e670000000000000000000000000000000000000000006064820152608401610b43565b565b600054610100900460ff166143ce5760405162461bcd60e51b815260206004820152602b60248201527f496e697469616c697a61626c653a20636f6e7472616374206973206e6f74206960448201527f6e697469616c697a696e670000000000000000000000000000000000000000006064820152608401610b43565b60005b8151811015610c4c576143fc8282815181106143ef576143ef616c19565b6020026020010151614f25565b508061440781616c77565b9150506143d1565b600054610100900460ff1661448c5760405162461bcd60e51b815260206004820152602b60248201527f496e697469616c697a61626c653a20636f6e7472616374206973206e6f74206960448201527f6e697469616c697a696e670000000000000000000000000000000000000000006064820152608401610b43565b61434f61511f565b60007fffffffff0000000000000000000000000000000000000000000000000000000082167f7965db0b000000000000000000000000000000000000000000000000000000001480610c5b57507f01ffc9a7000000000000000000000000000000000000000000000000000000007fffffffff00000000000000000000000000000000000000000000000000000000831614610c5b565b60008281526065602090815260408083206001600160a01b038516845290915290205460ff16610c4c5761455e81615251565b614569836020615263565b60405160200161457a929190617213565b60408051601f198184030181529082905262461bcd60e51b8252610b43916004016170db565b6145aa828261548c565b6000828152609760205260409020610fc6908261552e565b6145cc8282615543565b6000828152609760205260409020610fc690826155c6565b6001600160a01b0381163b6146615760405162461bcd60e51b815260206004820152602d60248201527f455243313936373a206e657720696d706c656d656e746174696f6e206973206e60448201527f6f74206120636f6e7472616374000000000000000000000000000000000000006064820152608401610b43565b7f360894a13ba1a3210667c828492db98dca3e2076cc3735a920a3ca505d382bbc805473ffffffffffffffffffffffffffffffffffffffff19166001600160a01b0392909216919091179055565b6146b8836155db565b6000825111806146c55750805b15610fc657613fcc838361561b565b6000614729826040518060400160405280602081526020017f5361666545524332303a206c6f772d6c6576656c2063616c6c206661696c6564815250856001600160a01b03166156409092919063ffffffff16565b905080516000148061474a57508080602001905181019061474a9190617294565b610fc65760405162461bcd60e51b815260206004820152602a60248201527f5361666545524332303a204552433230206f7065726174696f6e20646964206e60448201527f6f742073756363656564000000000000000000000000000000000000000000006064820152608401610b43565b600060fd83815481106147d1576147d1616c19565b60009182526020909120015467ffffffffffffffff90811691508216811061480657610fc68361480184846172b6565b615657565b610fc68361481483856172b6565b6149c3565b600080825160410361484f5760208301516040840151606085015160001a614843878285856157c7565b94509450505050614857565b506000905060025b9250929050565b6000816004811115614872576148726172d7565b0361487a5750565b600181600481111561488e5761488e6172d7565b036148db5760405162461bcd60e51b815260206004820152601860248201527f45434453413a20696e76616c6964207369676e617475726500000000000000006044820152606401610b43565b60028160048111156148ef576148ef6172d7565b0361493c5760405162461bcd60e51b815260206004820152601f60248201527f45434453413a20696e76616c6964207369676e6174757265206c656e677468006044820152606401610b43565b6003816004811115614950576149506172d7565b036112265760405162461bcd60e51b815260206004820152602260248201527f45434453413a20696e76616c6964207369676e6174757265202773272076616c60448201527f75650000000000000000000000000000000000000000000000000000000000006064820152608401610b43565b8060fd83815481106149d7576149d7616c19565b6000918252602082200180549091906149fb90849067ffffffffffffffff16617306565b92506101000a81548167ffffffffffffffff021916908367ffffffffffffffff1602179055505b6001821115610c4c576000614a38600284617327565b600193841c9390159150819003614ab9578160fd8481548110614a5d57614a5d616c19565b60009182526020909120018054600890614a8e90849068010000000000000000900467ffffffffffffffff16617306565b92506101000a81548167ffffffffffffffff021916908367ffffffffffffffff160217905550614b2d565b8160fd8481548110614acd57614acd616c19565b60009182526020909120018054601090614b06908490700100000000000000000000000000000000900467ffffffffffffffff16617306565b92506101000a81548167ffffffffffffffff021916908367ffffffffffffffff1602179055505b50614a22565b6000826000018281548110614b4a57614b4a616c19565b9060005260206000200154905092915050565b60fd54606090600090614b7290600190616d02565b905080831115614b80578092505b82600003614b9e575050604080516000815260208101909152610c5b565b6060604051610a8081016040525060538152600060fd600181548110614bc657614bc6616c19565b600091825260208083206040805160608082018352929094015467ffffffffffffffff80821686526801000000000000000082048116868601527001000000000000000000000000000000009091041684820152805160c08101825260018082529381018690529081018590529081018490526080810184905260a0810193909352845191935084918110614c5d57614c5d616c19565b60200260200101819052506000600190506000826000015167ffffffffffffffff169050826040015183602001510167ffffffffffffffff168101905060008767ffffffffffffffff811115614cb557614cb5615fd6565b604051908082528060200260200182016040528015614cde578160200160208202803683370190505b50965060005b88811015614daa5760408051602081018c905290810182905260600160408051601f19818403018152919052805160209091012099506000614d268385616d02565b614d30908c617327565b9050600080614d446001848b60018b61588b565b63ffffffff8316600090815260fc60205260409020548e51919a509294509092506001600160a01b03909116908c9086908110614d8357614d83616c19565b6001600160a01b039092166020928302919091019091015293909301925050600101614ce4565b5050505050505092915050565b60fd54600090614dc990600190616d02565b600081815260fc602052604081205460fd80549394506001600160a01b039091169284908110614dfb57614dfb616c19565b60009182526020909120015467ffffffffffffffff169050614e1d8382615657565b828414614e7557614e2e84826147bc565b600084815260fc60209081526040808320805473ffffffffffffffffffffffffffffffffffffffff19166001600160a01b038716908117909155835260fb90915290208490555b600083815260fc60209081526040808320805473ffffffffffffffffffffffffffffffffffffffff191690556001600160a01b038816835260fb90915281205560fd805480614ec657614ec6616ed7565b60008281526020902081017fffffffffffffffffffffffffffffffffffffffffffffffffffffffffffffffff90810180547fffffffffffffffff0000000000000000000000000000000000000000000000001690550190555050505050565b8051516000906030148015614f3f57508160200151516030145b8015614f5057508160400151516030145b614fc25760405162461bcd60e51b815260206004820152602160248201527f41413a57492d5043522076616c756573206d757374206265203438206279746560448201527f73000000000000000000000000000000000000000000000000000000000000006064820152608401610b43565b6000826000015183602001518460400151604051602001614fe593929190616d3a565b60408051601f198184030181529181528151602092830120600081815260c9909352912080549192509061501890616caf565b1590506150675760405162461bcd60e51b815260206004820152601f60248201527f41413a57492d696d61676520616c72656164792077686974656c6973746564006044820152606401610b43565b6040805160608101825284518152602080860151818301528583015182840152600084815260c990915291909120815181906150a39082616f93565b50602082015160018201906150b89082616f93565b50604082015160028201906150cd9082616f93565b50905050807f52b29bbdd97ab983419f50fa1590e5ab75e9942279e95e10a08607b06c23238b8460000151856020015186604001516040516151119392919061733b565b60405180910390a292915050565b60fd5460408051808201909152600181527f3500000000000000000000000000000000000000000000000000000000000000602082015290156151755760405162461bcd60e51b8152600401610b4391906170db565b506040805160608101825260008082526020820181815292820181815260fd8054600181018255925291517f9346ac6dd7de6b96975fec380d4d994c4c12e6a8897544f22915316cc6cca28090910180549351925167ffffffffffffffff908116700100000000000000000000000000000000027fffffffffffffffff0000000000000000ffffffffffffffffffffffffffffffff94821668010000000000000000027fffffffffffffffffffffffffffffffff0000000000000000000000000000000090961693909116929092179390931791909116179055565b6060610c5b6001600160a01b03831660145b60606000615272836002617374565b61527d906002616e68565b67ffffffffffffffff81111561529557615295615fd6565b6040519080825280601f01601f1916602001820160405280156152bf576020820181803683370190505b5090507f3000000000000000000000000000000000000000000000000000000000000000816000815181106152f6576152f6616c19565b60200101907effffffffffffffffffffffffffffffffffffffffffffffffffffffffffffff1916908160001a9053507f78000000000000000000000000000000000000000000000000000000000000008160018151811061535957615359616c19565b60200101907effffffffffffffffffffffffffffffffffffffffffffffffffffffffffffff1916908160001a9053506000615395846002617374565b6153a0906001616e68565b90505b600181111561543d577f303132333435363738396162636465660000000000000000000000000000000085600f16601081106153e1576153e1616c19565b1a60f81b8282815181106153f7576153f7616c19565b60200101907effffffffffffffffffffffffffffffffffffffffffffffffffffffffffffff1916908160001a90535060049490941c936154368161738b565b90506153a3565b508315611e085760405162461bcd60e51b815260206004820181905260248201527f537472696e67733a20686578206c656e67746820696e73756666696369656e746044820152606401610b43565b60008281526065602090815260408083206001600160a01b038516845290915290205460ff16610c4c5760008281526065602090815260408083206001600160a01b03851684529091529020805460ff191660011790556154ea3390565b6001600160a01b0316816001600160a01b0316837f2f8788117e7eff1d82e926ec794901d17c78024a50270940304540a733656f0d60405160405180910390a45050565b6000611e08836001600160a01b038416615a56565b60008281526065602090815260408083206001600160a01b038516845290915290205460ff1615610c4c5760008281526065602090815260408083206001600160a01b0385168085529252808320805460ff1916905551339285917ff6391f5c32d9c69d2a47ea670b442974b53935d1edc7fd64eb21e047a839171b9190a45050565b6000611e08836001600160a01b038416615aa5565b6155e4816145e4565b6040516001600160a01b038216907fbc7cd75a20ee27fd9adebab32041f755214dbc6bffa90cc0225b39da2e5c2d3b90600090a250565b6060611e0883836040518060600160405280602781526020016173c160279139615b9f565b606061564f8484600085615c17565b949350505050565b8060fd838154811061566b5761566b616c19565b60009182526020822001805490919061568f90849067ffffffffffffffff166172b6565b92506101000a81548167ffffffffffffffff021916908367ffffffffffffffff1602179055505b6001821115610c4c5760006156cc600284617327565b600193841c939015915081900361574d578160fd84815481106156f1576156f1616c19565b6000918252602090912001805460089061572290849068010000000000000000900467ffffffffffffffff166172b6565b92506101000a81548167ffffffffffffffff021916908367ffffffffffffffff1602179055506157c1565b8160fd848154811061576157615761616c19565b6000918252602090912001805460109061579a908490700100000000000000000000000000000000900467ffffffffffffffff166172b6565b92506101000a81548167ffffffffffffffff021916908367ffffffffffffffff1602179055505b506156b6565b6000807f7fffffffffffffffffffffffffffffff5d576e7357a4501ddfe92f46681b20a08311156157fe5750600090506003615882565b6040805160008082526020820180845289905260ff881692820192909252606081018690526080810185905260019060a0016020604051602081039080840390855afa158015615852573d6000803e3d6000fd5b5050604051601f1901519150506001600160a01b03811661587b57600060019250925050615882565b9150600090505b94509492505050565b60008060008060fd89815481106158a4576158a4616c19565b600091825260208083206040805160608082018352929094015467ffffffffffffffff80821686526801000000000000000082048116868601527001000000000000000000000000000000009091041684820152805160c081018252858152928301859052820184905281018390526080810183905260a081019290925291506020820151825167ffffffffffffffff91821691168101881561597a5789898151811061595357615953616c19565b602002602001015192508260600151820391508260200151836060015101810390506159a8565b8b8352895160019098019850889783908b908a90811061599c5761599c616c19565b60200260200101819052505b818b101580156159b75750808b105b15615a0e57836000015167ffffffffffffffff168a8a815181106159dd576159dd616c19565b60209081029190910181015101805190910190525050905189945067ffffffffffffffff169250849150615a4b9050565b818b1015615a3757615a288c8c8c86604001518d8d615d09565b96509650965050505050615a4b565b615a288c828d038c86608001518d8d615d92565b955095509592505050565b6000818152600183016020526040812054615a9d57508154600181810184556000848152602080822090930184905584548482528286019093526040902091909155610c5b565b506000610c5b565b60008181526001830160205260408120548015615b8e576000615ac9600183616d02565b8554909150600090615add90600190616d02565b9050818114615b42576000866000018281548110615afd57615afd616c19565b9060005260206000200154905080876000018481548110615b2057615b20616c19565b6000918252602080832090910192909255918252600188019052604090208390555b8554869080615b5357615b53616ed7565b600190038181906000526020600020016000905590558560010160008681526020019081526020016000206000905560019350505050610c5b565b6000915050610c5b565b5092915050565b6060600080856001600160a01b031685604051615bbc91906171f7565b600060405180830381855af49150503d8060008114615bf7576040519150601f19603f3d011682016040523d82523d6000602084013e615bfc565b606091505b5091509150615c0d86838387615e1e565b9695505050505050565b606082471015615c8f5760405162461bcd60e51b815260206004820152602660248201527f416464726573733a20696e73756666696369656e742062616c616e636520666f60448201527f722063616c6c00000000000000000000000000000000000000000000000000006064820152608401610b43565b600080866001600160a01b03168587604051615cab91906171f7565b60006040518083038185875af1925050503d8060008114615ce8576040519150601f19603f3d011682016040523d82523d6000602084013e615ced565b606091505b5091509150615cfe87838387615e1e565b979650505050505050565b600080600080600080615d228c6002028c8c8c8b61588b565b92509250925088600003615d5757866001018a8981518110615d4657615d46616c19565b602002602001015160400181815250505b818a8981518110615d6a57615d6a616c19565b6020908102919091010151606001805190910190529194509250905096509650969350505050565b600080600080600080615dae8c6002026001018c8c8c8b61588b565b92509250925088600003615de357866001018a8981518110615dd257615dd2616c19565b602002602001015160800181815250505b818a8981518110615df657615df6616c19565b602090810291909101015160a001805190910190529194509250905096509650969350505050565b60608315615e8d578251600003615e86576001600160a01b0385163b615e865760405162461bcd60e51b815260206004820152601d60248201527f416464726573733a2063616c6c20746f206e6f6e2d636f6e74726163740000006044820152606401610b43565b508161564f565b61564f8383815115615ea25781518083602001fd5b8060405162461bcd60e51b8152600401610b4391906170db565b508054615ec890616caf565b6000825580601f10615ed8575050565b601f0160209004906000526020600020908101906112269190615fc1565b828054828255906000526020600020908101928215615f31579160200282015b82811115615f31578251825591602001919060010190615f16565b50615f3d929150615fc1565b5090565b50805460008255906000526020600020908101906112269190615fc1565b828054828255906000526020600020908101928215615f31579160200282015b82811115615f31578251825473ffffffffffffffffffffffffffffffffffffffff19166001600160a01b03909116178255602090920191600190910190615f7f565b5b80821115615f3d5760008155600101615fc2565b7f4e487b7100000000000000000000000000000000000000000000000000000000600052604160045260246000fd5b6040516060810167ffffffffffffffff8111828210171561602857616028615fd6565b60405290565b6040805190810167ffffffffffffffff8111828210171561602857616028615fd6565b604051601f8201601f1916810167ffffffffffffffff8111828210171561607a5761607a615fd6565b604052919050565b600067ffffffffffffffff82111561609c5761609c615fd6565b5060051b60200190565b600082601f8301126160b757600080fd5b813560206160cc6160c783616082565b616051565b82815260059290921b840181019181810190868411156160eb57600080fd5b8286015b8481101561610657803583529183019183016160ef565b509695505050505050565b60006020828403121561612357600080fd5b813567ffffffffffffffff81111561613a57600080fd5b61564f848285016160a6565b6001600160a01b038116811461122657600080fd5b60006020828403121561616d57600080fd5b8135611e0881616146565b60006020828403121561618a57600080fd5b81357fffffffff0000000000000000000000000000000000000000000000000000000081168114611e0857600080fd5b6000602082840312156161cc57600080fd5b5035919050565b60005b838110156161ee5781810151838201526020016161d6565b50506000910152565b6000815180845261620f8160208601602086016161d3565b601f01601f19169290920160200192915050565b60006101208b83528a60208401528060408401526162438184018b6161f7565b6060840199909952505060808101959095526001600160a01b0393841660a08601529190921660c084015260ff90911660e0830152610100909101529392505050565b6020815260008251606060208401526162a260808401826161f7565b90506020840151601f19808584030160408601526162c083836161f7565b92506040860151915080858403016060860152506162de82826161f7565b95945050505050565b600080604083850312156162fa57600080fd5b82359150602083013561630c81616146565b809150509250929050565b6000806040838503121561632a57600080fd5b50508035926020909101359150565b600067ffffffffffffffff83111561635357616353615fd6565b6163666020601f19601f86011601616051565b905082815283838301111561637a57600080fd5b828260208301376000602084830101529392505050565b600082601f8301126163a257600080fd5b611e0883833560208501616339565b600080604083850312156163c457600080fd5b823567ffffffffffffffff808211156163dc57600080fd5b6163e886838701616391565b935060208501359150808211156163fe57600080fd5b5061640b858286016160a6565b9150509250929050565b6000806040838503121561642857600080fd5b823567ffffffffffffffff81111561643f57600080fd5b61644b85828601616391565b95602094909401359450505050565b60008060008060008060008060008060006101608c8e03121561647c57600080fd5b67ffffffffffffffff808d35111561649357600080fd5b6164a08e8e358f01616391565b9b508060208e013511156164b357600080fd5b6164c38e60208f01358f01616391565b9a508060408e013511156164d657600080fd5b6164e68e60408f01358f01616391565b99508060608e013511156164f957600080fd5b6165098e60608f01358f01616391565b98508060808e0135111561651c57600080fd5b61652c8e60808f01358f01616391565b975060a08d0135965060c08d0135955060e08d01359450806101008e0135111561655557600080fd5b6165668e6101008f01358f016160a6565b9350806101208e0135111561657a57600080fd5b5061658c8d6101208e01358e01616391565b91506101408c013590509295989b509295989b9093969950565b600080604083850312156165b957600080fd5b82356165c481616146565b9150602083013567ffffffffffffffff8111156165e057600080fd5b61640b85828601616391565b600080600080600060a0868803121561660457600080fd5b853567ffffffffffffffff8082111561661c57600080fd5b61662889838a01616391565b965060208801359550604088013591508082111561664557600080fd5b5061665288828901616391565b93505060608601359150608086013560ff8116811461667057600080fd5b809150509295509295909350565b60008060008060008060008060008060006101608c8e0312156166a057600080fd5b67ffffffffffffffff808d3511156166b757600080fd5b6166c48e8e358f01616391565b9b508060208e013511156166d757600080fd5b6166e78e60208f01358f01616391565b9a508060408e013511156166fa57600080fd5b61670a8e60408f01358f01616391565b99508060608e0135111561671d57600080fd5b61672d8e60608f01358f01616391565b98508060808e0135111561674057600080fd5b6167508e60808f01358f01616391565b975060a08d0135965060c08d0135955060e08d013594506101008d01359350806101208e0135111561657a57600080fd5b600080600080600080600080610100898b03121561679e57600080fd5b883567ffffffffffffffff808211156167b657600080fd5b6167c28c838d01616391565b995060208b0135985060408b0135975060608b0135965060808b01359150808211156167ed57600080fd5b506167fa8b828c01616391565b94505060a0890135925060c089013561681281616146565b8092505060e089013590509295985092959890939650565b60006020828403121561683c57600080fd5b813567ffffffffffffffff81111561685357600080fd5b61564f84828501616391565b60008060006060848603121561687457600080fd5b833561687f81616146565b925060208401359150604084013567ffffffffffffffff8111156168a257600080fd5b6168ae86828701616391565b9150509250925092565b80356168c381616146565b919050565b600080600080600060a086880312156168e057600080fd5b6168ea8635616146565b8535945067ffffffffffffffff806020880135111561690857600080fd5b6020870135870188601f82011261691e57600080fd5b61692b6160c78235616082565b81358082526020808301929160051b8401018b101561694957600080fd5b602083015b6020843560051b850101811015616a1357848135111561696d57600080fd5b803584016060601f19828f0301121561698557600080fd5b61698d616005565b866020830135111561699e57600080fd5b6169b08e602080850135850101616391565b815286604083013511156169c357600080fd5b6169d68e60206040850135850101616391565b602082015286606083013511156169ec57600080fd5b6169ff8e60206060850135850101616391565b60408201528452506020928301920161694e565b509650616a2692505050604087016168b8565b94979396509394606081013594506080013592915050565b6001600160a01b038316815260406020820152600061564f60408301846161f7565b6000806040808486031215616a7457600080fd5b833567ffffffffffffffff80821115616a8c57600080fd5b616a98878388016160a6565b9450602091508186013581811115616aaf57600080fd5b8601601f81018813616ac057600080fd5b8035616ace6160c782616082565b81815260059190911b8201840190848101908a831115616aed57600080fd5b8584015b83811015616b8057803586811115616b095760008081fd5b8501808d03601f1901891315616b1f5760008081fd5b616b2761602e565b88820135616b3481616146565b8152818a013588811115616b485760008081fd5b8083019250508d603f830112616b5e5760008081fd5b616b6e8e8a8401358c8501616339565b818a0152845250918601918601616af1565b50809750505050505050509250929050565b60008060008060008060c08789031215616bab57600080fd5b863567ffffffffffffffff80821115616bc357600080fd5b616bcf8a838b01616391565b97506020890135915080821115616be557600080fd5b50616bf289828a01616391565b96999698505050506040850135946060810135946080820135945060a09091013592509050565b7f4e487b7100000000000000000000000000000000000000000000000000000000600052603260045260246000fd5b7f4e487b7100000000000000000000000000000000000000000000000000000000600052601160045260246000fd5b60007fffffffffffffffffffffffffffffffffffffffffffffffffffffffffffffffff8203616ca857616ca8616c48565b5060010190565b600181811c90821680616cc357607f821691505b602082108103616cfc577f4e487b7100000000000000000000000000000000000000000000000000000000600052602260045260246000fd5b50919050565b81810381811115610c5b57610c5b616c48565b606081526000616d2860608301866161f7565b60208301949094525060400152919050565b60008451616d4c8184602089016161d3565b845190830190616d608183602089016161d3565b8451910190616d738183602088016161d3565b0195945050505050565b6020808252825182820181905260009190848201906040850190845b81811015616db557835183529284019291840191600101616d99565b50909695505050505050565b848152608060208201526000616dda60808301866161f7565b905083604083015260ff8316606083015295945050505050565b600060ff821660ff8103616e0a57616e0a616c48565b60010192915050565b608081526000616e2660808301876161f7565b60208301959095525060ff92831660408201529116606090910152919050565b604081526000616e5960408301856161f7565b90508260208301529392505050565b80820180821115610c5b57610c5b616c48565b60006040820184835260206040818501528185548084526060860191508660005282600020935060005b81811015616eca5784546001600160a01b031683526001948501949284019201616ea5565b5090979650505050505050565b7f4e487b7100000000000000000000000000000000000000000000000000000000600052603160045260246000fd5b86815285602082015284604082015260c060608201526000616f2b60c08301866161f7565b90508360808301526001600160a01b03831660a0830152979650505050505050565b601f821115610fc657600081815260208120601f850160051c81016020861015616f745750805b601f850160051c820191505b8181101561306757828155600101616f80565b815167ffffffffffffffff811115616fad57616fad615fd6565b616fc181616fbb8454616caf565b84616f4d565b602080601f8311600181146170145760008415616fde5750858301515b7fffffffffffffffffffffffffffffffffffffffffffffffffffffffffffffffff600386901b1c1916600185901b178555613067565b600085815260208120601f198616915b8281101561704357888601518255948401946001909101908401617024565b508582101561707f57878501517fffffffffffffffffffffffffffffffffffffffffffffffffffffffffffffffff600388901b60f8161c191681555b5050505050600190811b01905550565b87815286602082015260e0604082015260006170ae60e08301886161f7565b6060830196909652506001600160a01b0393841660808201529190921660a082015260c001529392505050565b602081526000611e0860208301846161f7565b8381526001600160a01b03831660208201526060604082015260006162de60608301846161f7565b60006020828403121561712857600080fd5b5051919050565b7f4e487b7100000000000000000000000000000000000000000000000000000000600052601260045260246000fd5b60008261716d5761716d61712f565b500490565b60006101008083526171868184018c6161f7565b9050828103602084015261719a818b6161f7565b905082810360408401526171ae818a6161f7565b905082810360608401526171c281896161f7565b905082810360808401526171d681886161f7565b60a0840196909652505060c081019290925260e09091015295945050505050565b600082516172098184602087016161d3565b9190910192915050565b7f416363657373436f6e74726f6c3a206163636f756e742000000000000000000081526000835161724b8160178501602088016161d3565b7f206973206d697373696e6720726f6c652000000000000000000000000000000060179184019182015283516172888160288401602088016161d3565b01602801949350505050565b6000602082840312156172a657600080fd5b81518015158114611e0857600080fd5b67ffffffffffffffff828116828216039080821115615b9857615b98616c48565b7f4e487b7100000000000000000000000000000000000000000000000000000000600052602160045260246000fd5b67ffffffffffffffff818116838216019080821115615b9857615b98616c48565b6000826173365761733661712f565b500690565b60608152600061734e60608301866161f7565b828103602084015261736081866161f7565b90508281036040840152615c0d81856161f7565b8082028115828204841417610c5b57610c5b616c48565b60008161739a5761739a616c48565b507fffffffffffffffffffffffffffffffffffffffffffffffffffffffffffffffff019056fe416464726573733a206c6f772d6c6576656c2064656c65676174652063616c6c206661696c6564a2646970667358221220a63660a18bb223715506359fb4c873b22962ad55c9a4c08afedcddddaf7966e064736f6c63430008110033",
  "linkReferences": {},
  "deployedLinkReferences": {}
}