{
  "_format": "hh-sol-artifact-1",
  "contractName": "CommonChainContract",
  "sourceName": "contracts/serverless-v2/CommonChainContract.sol",
  "abi": [
    {
      "inputs": [
        {
          "internalType": "contract IAttestationVerifier",
          "name": "attestationVerifier",
          "type": "address"
        },
        {
          "internalType": "uint256",
          "name": "maxAge",
          "type": "uint256"
        }
      ],
      "stateMutability": "nonpayable",
      "type": "constructor"
    },
    {
      "anonymous": false,
      "inputs": [
        {
          "indexed": false,
          "internalType": "address",
          "name": "previousAdmin",
          "type": "address"
        },
        {
          "indexed": false,
          "internalType": "address",
          "name": "newAdmin",
          "type": "address"
        }
      ],
      "name": "AdminChanged",
      "type": "event"
    },
    {
      "anonymous": false,
      "inputs": [
        {
          "indexed": true,
          "internalType": "address",
          "name": "beacon",
          "type": "address"
        }
      ],
      "name": "BeaconUpgraded",
      "type": "event"
    },
    {
      "anonymous": false,
      "inputs": [
        {
          "indexed": false,
          "internalType": "bytes",
          "name": "enclavePubKey",
          "type": "bytes"
        },
        {
          "indexed": false,
          "internalType": "uint256",
          "name": "chainId",
          "type": "uint256"
        },
        {
          "indexed": false,
          "internalType": "address",
          "name": "contractAddress",
          "type": "address"
        },
        {
          "indexed": false,
          "internalType": "string",
          "name": "rpcUrl",
          "type": "string"
        }
      ],
      "name": "ChainAdded",
      "type": "event"
    },
    {
      "anonymous": false,
      "inputs": [
        {
          "indexed": false,
          "internalType": "bytes",
          "name": "enclavePubKey",
          "type": "bytes"
        },
        {
          "indexed": false,
          "internalType": "uint256",
          "name": "chainId",
          "type": "uint256"
        }
      ],
      "name": "ChainRemoved",
      "type": "event"
    },
    {
      "anonymous": false,
      "inputs": [
        {
          "indexed": true,
          "internalType": "bytes32",
          "name": "imageId",
          "type": "bytes32"
        }
      ],
      "name": "EnclaveImageRevoked",
      "type": "event"
    },
    {
      "anonymous": false,
      "inputs": [
        {
          "indexed": true,
          "internalType": "bytes32",
          "name": "imageId",
          "type": "bytes32"
        },
        {
          "indexed": false,
          "internalType": "bytes",
          "name": "PCR0",
          "type": "bytes"
        },
        {
          "indexed": false,
          "internalType": "bytes",
          "name": "PCR1",
          "type": "bytes"
        },
        {
          "indexed": false,
          "internalType": "bytes",
          "name": "PCR2",
          "type": "bytes"
        }
      ],
      "name": "EnclaveImageWhitelisted",
      "type": "event"
    },
    {
      "anonymous": false,
      "inputs": [
        {
          "indexed": true,
          "internalType": "bytes",
          "name": "enclavePubKey",
          "type": "bytes"
        }
      ],
      "name": "EnclaveKeyRevoked",
      "type": "event"
    },
    {
      "anonymous": false,
      "inputs": [
        {
          "indexed": true,
          "internalType": "bytes",
          "name": "enclavePubKey",
          "type": "bytes"
        },
        {
          "indexed": true,
          "internalType": "bytes32",
          "name": "imageId",
          "type": "bytes32"
        }
      ],
      "name": "EnclaveKeyVerified",
      "type": "event"
    },
    {
      "anonymous": false,
      "inputs": [
        {
          "indexed": true,
          "internalType": "bytes",
          "name": "enclavePubKey",
          "type": "bytes"
        },
        {
          "indexed": true,
          "internalType": "bytes32",
          "name": "imageId",
          "type": "bytes32"
        }
      ],
      "name": "EnclaveKeyWhitelisted",
      "type": "event"
    },
    {
      "anonymous": false,
      "inputs": [
        {
          "indexed": false,
          "internalType": "bytes",
          "name": "enclavePubKey",
          "type": "bytes"
        }
      ],
      "name": "ExecutorDeregistered",
      "type": "event"
    },
    {
      "anonymous": false,
      "inputs": [
        {
          "indexed": false,
          "internalType": "uint256",
          "name": "jobId",
          "type": "uint256"
        },
        {
          "indexed": false,
          "internalType": "bytes",
          "name": "executorPubKey",
          "type": "bytes"
        }
      ],
      "name": "ExecutorReassigned",
      "type": "event"
    },
    {
      "anonymous": false,
      "inputs": [
        {
          "indexed": false,
          "internalType": "bytes",
          "name": "enclavePubKey",
          "type": "bytes"
        },
        {
          "indexed": true,
          "internalType": "address",
          "name": "enclaveAddress",
          "type": "address"
        },
        {
          "indexed": true,
          "internalType": "address",
          "name": "operator",
          "type": "address"
        }
      ],
      "name": "ExecutorRegistered",
      "type": "event"
    },
    {
      "anonymous": false,
      "inputs": [
        {
          "indexed": false,
          "internalType": "bytes",
          "name": "enclavePubKey",
          "type": "bytes"
        },
        {
          "indexed": false,
          "internalType": "uint256",
          "name": "addedAmount",
          "type": "uint256"
        },
        {
          "indexed": false,
          "internalType": "uint256",
          "name": "totalAmount",
          "type": "uint256"
        }
      ],
      "name": "ExecutorStakeAdded",
      "type": "event"
    },
    {
      "anonymous": false,
      "inputs": [
        {
          "indexed": false,
          "internalType": "bytes",
          "name": "enclavePubKey",
          "type": "bytes"
        },
        {
          "indexed": false,
          "internalType": "uint256",
          "name": "removedAmount",
          "type": "uint256"
        },
        {
          "indexed": false,
          "internalType": "uint256",
          "name": "totalAmount",
          "type": "uint256"
        }
      ],
      "name": "ExecutorStakeRemoved",
      "type": "event"
    },
    {
      "anonymous": false,
      "inputs": [
        {
          "indexed": false,
          "internalType": "bytes",
          "name": "enclavePubKey",
          "type": "bytes"
        }
      ],
      "name": "GatewayDeregistered",
      "type": "event"
    },
    {
      "anonymous": false,
      "inputs": [
        {
          "indexed": false,
          "internalType": "uint256",
          "name": "jobId",
          "type": "uint256"
        },
        {
          "indexed": true,
          "internalType": "address",
          "name": "prevGatewayOperator",
          "type": "address"
        },
        {
          "indexed": true,
          "internalType": "address",
          "name": "newGatewayOperator",
          "type": "address"
        }
      ],
      "name": "GatewayReassigned",
      "type": "event"
    },
    {
      "anonymous": false,
      "inputs": [
        {
          "indexed": false,
          "internalType": "bytes",
          "name": "enclavePubKey",
          "type": "bytes"
        },
        {
          "indexed": true,
          "internalType": "address",
          "name": "enclaveAddress",
          "type": "address"
        },
        {
          "indexed": true,
          "internalType": "address",
          "name": "operator",
          "type": "address"
        }
      ],
      "name": "GatewayRegistered",
      "type": "event"
    },
    {
      "anonymous": false,
      "inputs": [
        {
          "indexed": false,
          "internalType": "bytes",
          "name": "enclavePubKey",
          "type": "bytes"
        },
        {
          "indexed": false,
          "internalType": "uint256",
          "name": "addedAmount",
          "type": "uint256"
        },
        {
          "indexed": false,
          "internalType": "uint256",
          "name": "totalAmount",
          "type": "uint256"
        }
      ],
      "name": "GatewayStakeAdded",
      "type": "event"
    },
    {
      "anonymous": false,
      "inputs": [
        {
          "indexed": false,
          "internalType": "bytes",
          "name": "enclavePubKey",
          "type": "bytes"
        },
        {
          "indexed": false,
          "internalType": "uint256",
          "name": "removedAmount",
          "type": "uint256"
        },
        {
          "indexed": false,
          "internalType": "uint256",
          "name": "totalAmount",
          "type": "uint256"
        }
      ],
      "name": "GatewayStakeRemoved",
      "type": "event"
    },
    {
      "anonymous": false,
      "inputs": [
        {
          "indexed": false,
          "internalType": "uint8",
          "name": "version",
          "type": "uint8"
        }
      ],
      "name": "Initialized",
      "type": "event"
    },
    {
      "anonymous": false,
      "inputs": [
        {
          "indexed": true,
          "internalType": "uint256",
          "name": "jobId",
          "type": "uint256"
        },
        {
          "indexed": false,
          "internalType": "uint256",
          "name": "reqChainId",
          "type": "uint256"
        },
        {
          "indexed": false,
          "internalType": "bytes32",
          "name": "codehash",
          "type": "bytes32"
        },
        {
          "indexed": false,
          "internalType": "bytes",
          "name": "codeInputs",
          "type": "bytes"
        },
        {
          "indexed": false,
          "internalType": "uint256",
          "name": "deadline",
          "type": "uint256"
        },
        {
          "indexed": false,
          "internalType": "address",
          "name": "jobOwner",
          "type": "address"
        },
        {
          "indexed": false,
          "internalType": "bytes",
          "name": "executorPubKey",
          "type": "bytes"
        },
        {
          "indexed": false,
          "internalType": "address",
          "name": "gatewayOperator",
          "type": "address"
        }
      ],
      "name": "JobRelayed",
      "type": "event"
    },
    {
      "anonymous": false,
      "inputs": [
        {
          "indexed": true,
          "internalType": "uint256",
          "name": "jobId",
          "type": "uint256"
        },
        {
          "indexed": false,
          "internalType": "bytes",
          "name": "output",
          "type": "bytes"
        },
        {
          "indexed": false,
          "internalType": "uint256",
          "name": "totalTime",
          "type": "uint256"
        },
        {
          "indexed": false,
          "internalType": "uint256",
          "name": "errorCode",
          "type": "uint256"
        }
      ],
      "name": "JobResponded",
      "type": "event"
    },
    {
      "anonymous": false,
      "inputs": [
        {
          "indexed": true,
          "internalType": "bytes32",
          "name": "role",
          "type": "bytes32"
        },
        {
          "indexed": true,
          "internalType": "bytes32",
          "name": "previousAdminRole",
          "type": "bytes32"
        },
        {
          "indexed": true,
          "internalType": "bytes32",
          "name": "newAdminRole",
          "type": "bytes32"
        }
      ],
      "name": "RoleAdminChanged",
      "type": "event"
    },
    {
      "anonymous": false,
      "inputs": [
        {
          "indexed": true,
          "internalType": "bytes32",
          "name": "role",
          "type": "bytes32"
        },
        {
          "indexed": true,
          "internalType": "address",
          "name": "account",
          "type": "address"
        },
        {
          "indexed": true,
          "internalType": "address",
          "name": "sender",
          "type": "address"
        }
      ],
      "name": "RoleGranted",
      "type": "event"
    },
    {
      "anonymous": false,
      "inputs": [
        {
          "indexed": true,
          "internalType": "bytes32",
          "name": "role",
          "type": "bytes32"
        },
        {
          "indexed": true,
          "internalType": "address",
          "name": "account",
          "type": "address"
        },
        {
          "indexed": true,
          "internalType": "address",
          "name": "sender",
          "type": "address"
        }
      ],
      "name": "RoleRevoked",
      "type": "event"
    },
    {
      "anonymous": false,
      "inputs": [
        {
          "indexed": true,
          "internalType": "address",
          "name": "implementation",
          "type": "address"
        }
      ],
      "name": "Upgraded",
      "type": "event"
    },
    {
      "inputs": [],
      "name": "ATTESTATION_MAX_AGE",
      "outputs": [
        {
          "internalType": "uint256",
          "name": "",
          "type": "uint256"
        }
      ],
      "stateMutability": "view",
      "type": "function"
    },
    {
      "inputs": [],
      "name": "ATTESTATION_VERIFIER",
      "outputs": [
        {
          "internalType": "contract IAttestationVerifier",
          "name": "",
          "type": "address"
        }
      ],
      "stateMutability": "view",
      "type": "function"
    },
    {
      "inputs": [],
      "name": "DEFAULT_ADMIN_ROLE",
      "outputs": [
        {
          "internalType": "bytes32",
          "name": "",
          "type": "bytes32"
        }
      ],
      "stateMutability": "view",
      "type": "function"
    },
    {
      "inputs": [
        {
          "internalType": "address",
          "name": "_admin",
          "type": "address"
        },
        {
          "components": [
            {
              "internalType": "bytes",
              "name": "PCR0",
              "type": "bytes"
            },
            {
              "internalType": "bytes",
              "name": "PCR1",
              "type": "bytes"
            },
            {
              "internalType": "bytes",
              "name": "PCR2",
              "type": "bytes"
            }
          ],
          "internalType": "struct AttestationAutherUpgradeable.EnclaveImage[]",
          "name": "_images",
          "type": "tuple[]"
        },
        {
          "internalType": "contract IERC20",
          "name": "_token",
          "type": "address"
        },
        {
          "internalType": "uint256",
          "name": "_executionBufferTime",
          "type": "uint256"
        }
      ],
      "name": "__CommonChainContract_init",
      "outputs": [],
      "stateMutability": "nonpayable",
      "type": "function"
    },
    {
      "inputs": [
        {
          "internalType": "bytes",
          "name": "_enclavePubKey",
          "type": "bytes"
        },
        {
          "internalType": "uint256",
          "name": "_chainId",
          "type": "uint256"
        },
        {
          "internalType": "address",
          "name": "_requestChainContract",
          "type": "address"
        },
        {
          "internalType": "string",
          "name": "_requestChainRpc",
          "type": "string"
        }
      ],
      "name": "addChain",
      "outputs": [],
      "stateMutability": "nonpayable",
      "type": "function"
    },
    {
      "inputs": [
        {
          "internalType": "bytes",
          "name": "_enclavePubKey",
          "type": "bytes"
        },
        {
          "components": [
            {
              "internalType": "uint256",
              "name": "chainId",
              "type": "uint256"
            },
            {
              "internalType": "address",
              "name": "contractAddress",
              "type": "address"
            },
            {
              "internalType": "string",
              "name": "rpcUrl",
              "type": "string"
            }
          ],
          "internalType": "struct CommonChainContract.RequestChain[]",
          "name": "_requestChains",
          "type": "tuple[]"
        }
      ],
      "name": "addChains",
      "outputs": [],
      "stateMutability": "nonpayable",
      "type": "function"
    },
    {
      "inputs": [
        {
          "internalType": "bytes",
          "name": "_enclavePubKey",
          "type": "bytes"
        },
        {
          "internalType": "uint256",
          "name": "_amount",
          "type": "uint256"
        }
      ],
      "name": "addExecutorStake",
      "outputs": [],
      "stateMutability": "nonpayable",
      "type": "function"
    },
    {
      "inputs": [
        {
          "internalType": "bytes",
          "name": "_enclavePubKey",
          "type": "bytes"
        },
        {
          "internalType": "uint256",
          "name": "_amount",
          "type": "uint256"
        }
      ],
      "name": "addGatewayStake",
      "outputs": [],
      "stateMutability": "nonpayable",
      "type": "function"
    },
    {
      "inputs": [
        {
          "internalType": "bytes",
          "name": "_enclavePubKey",
          "type": "bytes"
        }
      ],
      "name": "deregisterExecutor",
      "outputs": [],
      "stateMutability": "nonpayable",
      "type": "function"
    },
    {
      "inputs": [
        {
          "internalType": "bytes",
          "name": "_enclavePubKey",
          "type": "bytes"
        }
      ],
      "name": "deregisterGateway",
      "outputs": [],
      "stateMutability": "nonpayable",
      "type": "function"
    },
    {
      "inputs": [],
      "name": "executionBufferTime",
      "outputs": [
        {
          "internalType": "uint256",
          "name": "",
          "type": "uint256"
        }
      ],
      "stateMutability": "view",
      "type": "function"
    },
    {
      "inputs": [
        {
          "internalType": "address",
          "name": "",
          "type": "address"
        }
      ],
      "name": "executors",
      "outputs": [
        {
          "internalType": "address",
          "name": "operator",
          "type": "address"
        },
        {
          "internalType": "uint256",
          "name": "jobCapacity",
          "type": "uint256"
        },
        {
          "internalType": "uint256",
          "name": "activeJobs",
          "type": "uint256"
        },
        {
          "internalType": "uint256",
          "name": "stakeAmount",
          "type": "uint256"
        },
        {
          "internalType": "bool",
          "name": "status",
          "type": "bool"
        }
      ],
      "stateMutability": "view",
      "type": "function"
    },
    {
      "inputs": [
        {
          "internalType": "address",
          "name": "",
          "type": "address"
        }
      ],
      "name": "gateways",
      "outputs": [
        {
          "internalType": "address",
          "name": "operator",
          "type": "address"
        },
        {
          "name": "requestChains",
          "type": "tuple[]",
          "components": [
            {
              "name": "chainId",
              "type": "uint256"
            },
            {
              "name": "contractAddress",
              "type": "address"
            },
            {
              "name": "rpcUrl",
              "type": "string"
            }
          ]
        },
        {
          "internalType": "uint256",
          "name": "stakeAmount",
          "type": "uint256"
        },
        {
          "internalType": "bool",
          "name": "status",
          "type": "bool"
        }
      ],
      "stateMutability": "view",
      "type": "function"
    },
    {
      "inputs": [
        {
          "internalType": "bytes32",
          "name": "role",
          "type": "bytes32"
        }
      ],
      "name": "getRoleAdmin",
      "outputs": [
        {
          "internalType": "bytes32",
          "name": "",
          "type": "bytes32"
        }
      ],
      "stateMutability": "view",
      "type": "function"
    },
    {
      "inputs": [
        {
          "internalType": "bytes32",
          "name": "role",
          "type": "bytes32"
        },
        {
          "internalType": "uint256",
          "name": "index",
          "type": "uint256"
        }
      ],
      "name": "getRoleMember",
      "outputs": [
        {
          "internalType": "address",
          "name": "",
          "type": "address"
        }
      ],
      "stateMutability": "view",
      "type": "function"
    },
    {
      "inputs": [
        {
          "internalType": "bytes32",
          "name": "role",
          "type": "bytes32"
        }
      ],
      "name": "getRoleMemberCount",
      "outputs": [
        {
          "internalType": "uint256",
          "name": "",
          "type": "uint256"
        }
      ],
      "stateMutability": "view",
      "type": "function"
    },
    {
      "inputs": [
        {
          "internalType": "address",
          "name": "_key",
          "type": "address"
        }
      ],
      "name": "getVerifiedKey",
      "outputs": [
        {
          "internalType": "bytes32",
          "name": "",
          "type": "bytes32"
        }
      ],
      "stateMutability": "view",
      "type": "function"
    },
    {
      "inputs": [
        {
          "internalType": "bytes32",
          "name": "_imageId",
          "type": "bytes32"
        }
      ],
      "name": "getWhitelistedImage",
      "outputs": [
        {
          "components": [
            {
              "internalType": "bytes",
              "name": "PCR0",
              "type": "bytes"
            },
            {
              "internalType": "bytes",
              "name": "PCR1",
              "type": "bytes"
            },
            {
              "internalType": "bytes",
              "name": "PCR2",
              "type": "bytes"
            }
          ],
          "internalType": "struct AttestationAutherUpgradeable.EnclaveImage",
          "name": "",
          "type": "tuple"
        }
      ],
      "stateMutability": "view",
      "type": "function"
    },
    {
      "inputs": [
        {
          "internalType": "bytes32",
          "name": "role",
          "type": "bytes32"
        },
        {
          "internalType": "address",
          "name": "account",
          "type": "address"
        }
      ],
      "name": "grantRole",
      "outputs": [],
      "stateMutability": "nonpayable",
      "type": "function"
    },
    {
      "inputs": [
        {
          "internalType": "bytes32",
          "name": "role",
          "type": "bytes32"
        },
        {
          "internalType": "address",
          "name": "account",
          "type": "address"
        }
      ],
      "name": "hasRole",
      "outputs": [
        {
          "internalType": "bool",
          "name": "",
          "type": "bool"
        }
      ],
      "stateMutability": "view",
      "type": "function"
    },
    {
      "inputs": [
        {
          "internalType": "uint256",
          "name": "",
          "type": "uint256"
        }
      ],
      "name": "jobOutputs",
      "outputs": [
        {
          "internalType": "bytes",
          "name": "output",
          "type": "bytes"
        },
        {
          "internalType": "uint256",
          "name": "totalTime",
          "type": "uint256"
        },
        {
          "internalType": "uint8",
          "name": "errorCode",
          "type": "uint8"
        }
      ],
      "stateMutability": "view",
      "type": "function"
    },
    {
      "inputs": [
        {
          "internalType": "uint256",
          "name": "",
          "type": "uint256"
        }
      ],
      "name": "jobs",
      "outputs": [
        {
          "internalType": "uint256",
          "name": "reqChainId",
          "type": "uint256"
        },
        {
          "internalType": "bytes32",
          "name": "codehash",
          "type": "bytes32"
        },
        {
          "internalType": "bytes",
          "name": "codeInputs",
          "type": "bytes"
        },
        {
          "internalType": "uint256",
          "name": "deadline",
          "type": "uint256"
        },
        {
          "internalType": "uint256",
          "name": "execStartTime",
          "type": "uint256"
        },
        {
          "internalType": "address",
          "name": "jobOwner",
          "type": "address"
        },
        {
          "internalType": "bytes",
          "name": "executorId",
          "type": "bytes"
        },
        {
          "internalType": "address",
          "name": "gatewayOperator",
          "type": "address"
        }
      ],
      "stateMutability": "view",
      "type": "function"
    },
    {
      "inputs": [],
      "name": "proxiableUUID",
      "outputs": [
        {
          "internalType": "bytes32",
          "name": "",
          "type": "bytes32"
        }
      ],
      "stateMutability": "view",
      "type": "function"
    },
    {
      "inputs": [
        {
          "internalType": "uint256",
          "name": "_jobId",
          "type": "uint256"
        },
        {
          "internalType": "bytes",
          "name": "_executorPubKey",
          "type": "bytes"
        }
      ],
      "name": "reassignExecutionNode",
      "outputs": [],
      "stateMutability": "nonpayable",
      "type": "function"
    },
    {
      "inputs": [
        {
          "internalType": "address",
          "name": "_gatewayOperatorOld",
          "type": "address"
        },
        {
          "internalType": "uint256",
          "name": "_jobId",
          "type": "uint256"
        },
        {
          "internalType": "bytes",
          "name": "_signature",
          "type": "bytes"
        }
      ],
      "name": "reassignGatewayRelay",
      "outputs": [],
      "stateMutability": "nonpayable",
      "type": "function"
    },
    {
      "inputs": [
        {
          "internalType": "bytes",
          "name": "_attestation",
          "type": "bytes"
        },
        {
          "internalType": "bytes",
          "name": "_enclavePubKey",
          "type": "bytes"
        },
        {
          "internalType": "bytes",
          "name": "_PCR0",
          "type": "bytes"
        },
        {
          "internalType": "bytes",
          "name": "_PCR1",
          "type": "bytes"
        },
        {
          "internalType": "bytes",
          "name": "_PCR2",
          "type": "bytes"
        },
        {
          "internalType": "uint256",
          "name": "_enclaveCPUs",
          "type": "uint256"
        },
        {
          "internalType": "uint256",
          "name": "_enclaveMemory",
          "type": "uint256"
        },
        {
          "internalType": "uint256",
          "name": "_timestampInMilliseconds",
          "type": "uint256"
        },
        {
          "internalType": "uint256",
          "name": "_jobCapacity",
          "type": "uint256"
        },
        {
          "internalType": "bytes",
          "name": "_signature",
          "type": "bytes"
        },
        {
          "internalType": "uint256",
          "name": "_stakeAmount",
          "type": "uint256"
        }
      ],
      "name": "registerExecutor",
      "outputs": [],
      "stateMutability": "nonpayable",
      "type": "function"
    },
    {
      "inputs": [
        {
          "internalType": "bytes",
          "name": "_attestation",
          "type": "bytes"
        },
        {
          "internalType": "bytes",
          "name": "_enclavePubKey",
          "type": "bytes"
        },
        {
          "internalType": "bytes",
          "name": "_PCR0",
          "type": "bytes"
        },
        {
          "internalType": "bytes",
          "name": "_PCR1",
          "type": "bytes"
        },
        {
          "internalType": "bytes",
          "name": "_PCR2",
          "type": "bytes"
        },
        {
          "internalType": "uint256",
          "name": "_enclaveCPUs",
          "type": "uint256"
        },
        {
          "internalType": "uint256",
          "name": "_enclaveMemory",
          "type": "uint256"
        },
        {
          "internalType": "uint256",
          "name": "_timestampInMilliseconds",
          "type": "uint256"
        },
        {
          "components": [
            {
              "internalType": "uint256",
              "name": "chainId",
              "type": "uint256"
            },
            {
              "internalType": "address",
              "name": "contractAddress",
              "type": "address"
            },
            {
              "internalType": "string",
              "name": "rpcUrl",
              "type": "string"
            }
          ],
          "internalType": "struct CommonChainContract.RequestChain",
          "name": "_requestChain",
          "type": "tuple"
        },
        {
          "internalType": "bytes",
          "name": "_signature",
          "type": "bytes"
        },
        {
          "internalType": "uint256",
          "name": "_stakeAmount",
          "type": "uint256"
        }
      ],
      "name": "registerGateway",
      "outputs": [],
      "stateMutability": "nonpayable",
      "type": "function"
    },
    {
      "inputs": [
        {
          "internalType": "bytes",
          "name": "_signature",
          "type": "bytes"
        },
        {
          "internalType": "uint256",
          "name": "_jobId",
          "type": "uint256"
        },
        {
          "internalType": "uint256",
          "name": "_reqChainId",
          "type": "uint256"
        },
        {
          "internalType": "bytes32",
          "name": "_codehash",
          "type": "bytes32"
        },
        {
          "internalType": "bytes",
          "name": "_codeInputs",
          "type": "bytes"
        },
        {
          "internalType": "uint256",
          "name": "_deadline",
          "type": "uint256"
        },
        {
          "internalType": "address",
          "name": "_jobOwner",
          "type": "address"
        }
      ],
      "name": "relayJob",
      "outputs": [],
      "stateMutability": "nonpayable",
      "type": "function"
    },
    {
      "inputs": [
        {
          "internalType": "bytes",
          "name": "_enclavePubKey",
          "type": "bytes"
        },
        {
          "internalType": "uint256",
          "name": "_chainId",
          "type": "uint256"
        }
      ],
      "name": "removeChain",
      "outputs": [],
      "stateMutability": "nonpayable",
      "type": "function"
    },
    {
      "inputs": [
        {
          "internalType": "bytes",
          "name": "_enclavePubKey",
          "type": "bytes"
        },
        {
          "internalType": "uint256[]",
          "name": "_chainIds",
          "type": "uint256[]"
        }
      ],
      "name": "removeChains",
      "outputs": [],
      "stateMutability": "nonpayable",
      "type": "function"
    },
    {
      "inputs": [
        {
          "internalType": "bytes",
          "name": "_enclavePubKey",
          "type": "bytes"
        },
        {
          "internalType": "uint256",
          "name": "_amount",
          "type": "uint256"
        }
      ],
      "name": "removeExecutorStake",
      "outputs": [],
      "stateMutability": "nonpayable",
      "type": "function"
    },
    {
      "inputs": [
        {
          "internalType": "bytes",
          "name": "_enclavePubKey",
          "type": "bytes"
        },
        {
          "internalType": "uint256",
          "name": "_amount",
          "type": "uint256"
        }
      ],
      "name": "removeGatewayStake",
      "outputs": [],
      "stateMutability": "nonpayable",
      "type": "function"
    },
    {
      "inputs": [
        {
          "internalType": "bytes32",
          "name": "role",
          "type": "bytes32"
        },
        {
          "internalType": "address",
          "name": "account",
          "type": "address"
        }
      ],
      "name": "renounceRole",
      "outputs": [],
      "stateMutability": "nonpayable",
      "type": "function"
    },
    {
      "inputs": [
        {
          "internalType": "bytes32",
          "name": "role",
          "type": "bytes32"
        },
        {
          "internalType": "address",
          "name": "account",
          "type": "address"
        }
      ],
      "name": "revokeRole",
      "outputs": [],
      "stateMutability": "nonpayable",
      "type": "function"
    },
    {
      "inputs": [
        {
          "internalType": "bytes",
          "name": "_signature",
          "type": "bytes"
        },
        {
          "internalType": "uint256",
          "name": "_jobId",
          "type": "uint256"
        },
        {
          "internalType": "bytes",
          "name": "_output",
          "type": "bytes"
        },
        {
          "internalType": "uint256",
          "name": "_totalTime",
          "type": "uint256"
        },
        {
          "internalType": "uint8",
          "name": "_errorCode",
          "type": "uint8"
        }
      ],
      "name": "submitOutput",
      "outputs": [],
      "stateMutability": "nonpayable",
      "type": "function"
    },
    {
      "inputs": [
        {
          "internalType": "bytes4",
          "name": "interfaceId",
          "type": "bytes4"
        }
      ],
      "name": "supportsInterface",
      "outputs": [
        {
          "internalType": "bool",
          "name": "",
          "type": "bool"
        }
      ],
      "stateMutability": "view",
      "type": "function"
    },
    {
      "inputs": [],
      "name": "token",
      "outputs": [
        {
          "internalType": "contract IERC20",
          "name": "",
          "type": "address"
        }
      ],
      "stateMutability": "view",
      "type": "function"
    },
    {
      "inputs": [
        {
          "internalType": "address",
          "name": "newImplementation",
          "type": "address"
        }
      ],
      "name": "upgradeTo",
      "outputs": [],
      "stateMutability": "nonpayable",
      "type": "function"
    },
    {
      "inputs": [
        {
          "internalType": "address",
          "name": "newImplementation",
          "type": "address"
        },
        {
          "internalType": "bytes",
          "name": "data",
          "type": "bytes"
        }
      ],
      "name": "upgradeToAndCall",
      "outputs": [],
      "stateMutability": "payable",
      "type": "function"
    },
    {
      "inputs": [
        {
          "internalType": "bytes",
          "name": "signature",
          "type": "bytes"
        },
        {
          "internalType": "bytes",
          "name": "enclavePubKey",
          "type": "bytes"
        },
        {
          "internalType": "bytes32",
          "name": "imageId",
          "type": "bytes32"
        },
        {
          "internalType": "uint256",
          "name": "enclaveCPUs",
          "type": "uint256"
        },
        {
          "internalType": "uint256",
          "name": "enclaveMemory",
          "type": "uint256"
        },
        {
          "internalType": "uint256",
          "name": "timestampInMilliseconds",
          "type": "uint256"
        }
      ],
      "name": "verifyKey",
      "outputs": [],
      "stateMutability": "nonpayable",
      "type": "function"
    }
  ],
  "bytecode": "0x60e06040523060c0523480156200001557600080fd5b506040516200611838038062006118833981016040819052620000389162000186565b6001600160a01b03821660805260a0819052600054610100900460ff16158080156200006b5750600054600160ff909116105b806200009b575062000088306200017760201b62002f0c1760201c565b1580156200009b575060005460ff166001145b620001035760405162461bcd60e51b815260206004820152602e60248201527f496e697469616c697a61626c653a20636f6e747261637420697320616c72656160448201526d191e481a5b9a5d1a585b1a5e995960921b606482015260840160405180910390fd5b6000805460ff19166001179055801562000127576000805461ff0019166101001790555b80156200016e576000805461ff0019169055604051600181527f7f26b83ff96e1f2b6a682f133852f6798a09c465da95921460cefb38474024989060200160405180910390a15b505050620001c2565b6001600160a01b03163b151590565b600080604083850312156200019a57600080fd5b82516001600160a01b0381168114620001b257600080fd5b6020939093015192949293505050565b60805160a05160c051615efc6200021c60003960008181611035015281816110cb015281816113040152818161139a015261149101526000818161070701526130ff0152600081816107f0015261334e0152615efc6000f3fe6080604052600436106102bb5760003560e01c80639563b5af1161016e578063cd79f906116100cb578063e201aee11161007f578063f6c3873911610064578063f6c38739146108d2578063fb94db2b146108f2578063fc0c546a1461091257600080fd5b8063e201aee114610892578063ec6aef29146108b257600080fd5b8063d547741f116100b0578063d547741f14610832578063df424c9014610852578063e0aba60a1461087257600080fd5b8063cd79f906146107de578063cffc70661461081257600080fd5b8063a217fddf11610122578063ca0a13b611610107578063ca0a13b61461077e578063ca15c8731461079e578063cc101e00146107be57600080fd5b8063a217fddf14610749578063a728ab761461075e57600080fd5b80639ac2a011116101535780639ac2a011146106695780639aec990e146106f55780639c01de411461072957600080fd5b80639563b5af1461061a578063974d2a061461064957600080fd5b80634b104c851161021c5780636d5cc39f116101d05780639010d07c116101b55780639010d07c1461052b5780639022c19c1461056357806391d14854146105d457600080fd5b80636d5cc39f146104f4578063728d21b01461051457600080fd5b806352d1902d1161020157806352d1902d1461049f5780635f7e594f146104b45780636361df6b146104d457600080fd5b80634b104c851461046c5780634f1ef2861461048c57600080fd5b8063248a9ca3116102735780632f2ff15d116102585780632f2ff15d1461040c57806336568abe1461042c5780633659cfe61461044c57600080fd5b8063248a9ca3146103bc57806325a2df19146103ec57600080fd5b8063120465f4116102a4578063120465f414610339578063180aedf31461035b5780632410f6ba1461038f57600080fd5b806301d58fa3146102c057806301ffc9a714610309575b600080fd5b3480156102cc57600080fd5b506102f66102db366004614b03565b6001600160a01b0316600090815260ca602052604090205490565b6040519081526020015b60405180910390f35b34801561031557600080fd5b50610329610324366004614b20565b610933565b6040519015158152602001610300565b34801561034557600080fd5b50610359610354366004614ce4565b610944565b005b34801561036757600080fd5b5061037b610376366004614dbe565b610a9b565b604051610300989796959493929190614e27565b34801561039b57600080fd5b506103af6103aa366004614dbe565b610c05565b6040516103009190614e90565b3480156103c857600080fd5b506102f66103d7366004614dbe565b60009081526065602052604090206001015490565b3480156103f857600080fd5b50610359610407366004614ef1565b610dfe565b34801561041857600080fd5b5061035961042736600461503d565b610f75565b34801561043857600080fd5b5061035961044736600461503d565b610f9f565b34801561045857600080fd5b50610359610467366004614b03565b61102b565b34801561047857600080fd5b5061035961048736600461506d565b6111c8565b61035961049a3660046150b2565b6112fa565b3480156104ab57600080fd5b506102f6611484565b3480156104c057600080fd5b506103596104cf366004615102565b611549565b3480156104e057600080fd5b506103596104ef366004615184565b611866565b34801561050057600080fd5b5061035961050f366004615216565b61198d565b34801561052057600080fd5b506102f661015f5481565b34801561053757600080fd5b5061054b6105463660046152b5565b611c40565b6040516001600160a01b039091168152602001610300565b34801561056f57600080fd5b506105ad61057e366004614b03565b610161602052600090815260409020805460028201546003909201546001600160a01b03909116919060ff1683565b604080516001600160a01b0390941684526020840192909252151590820152606001610300565b3480156105e057600080fd5b506103296105ef36600461503d565b60009182526065602090815260408084206001600160a01b0393909316845291905290205460ff1690565b34801561062657600080fd5b5061063a610635366004614dbe565b611c5f565b604051610300939291906152d7565b34801561065557600080fd5b5061035961066436600461506d565b611d0e565b34801561067557600080fd5b506106c1610684366004614b03565b61016260205260009081526040902080546001820154600283015460038401546004909401546001600160a01b0390931693919290919060ff1685565b604080516001600160a01b03909616865260208601949094529284019190915260608301521515608082015260a001610300565b34801561070157600080fd5b506102f67f000000000000000000000000000000000000000000000000000000000000000081565b34801561073557600080fd5b5061035961074436600461506d565b612157565b34801561075557600080fd5b506102f6600081565b34801561076a57600080fd5b5061035961077936600461506d565b61227b565b34801561078a57600080fd5b50610359610799366004615303565b61238e565b3480156107aa57600080fd5b506102f66107b9366004614dbe565b6124ed565b3480156107ca57600080fd5b506103596107d936600461506d565b612504565b3480156107ea57600080fd5b5061054b7f000000000000000000000000000000000000000000000000000000000000000081565b34801561081e57600080fd5b5061035961082d366004615406565b612617565b34801561083e57600080fd5b5061035961084d36600461503d565b612749565b34801561085e57600080fd5b5061035961086d366004615447565b61276e565b34801561087e57600080fd5b5061035961088d3660046155a7565b612927565b34801561089e57600080fd5b506103596108ad3660046155dc565b612abc565b3480156108be57600080fd5b506103596108cd366004615635565b612c01565b3480156108de57600080fd5b506103596108ed3660046155a7565b612d0c565b3480156108fe57600080fd5b5061035961090d3660046156f0565b612ef6565b34801561091e57600080fd5b506101605461054b906001600160a01b031681565b600061093e82612f1b565b92915050565b81600061095082612f71565b6001600160a01b03808216600090815261016160205260409020549192501633146109c25760405162461bcd60e51b815260206004820152601560248201527f4f4e4c595f474154455741595f4f50455241544f52000000000000000000000060448201526064015b60405180910390fd5b6000835111610a135760405162461bcd60e51b815260206004820152601060248201527f454d5054595f5245515f434841494e530000000000000000000000000000000060448201526064016109b9565b60005b8351811015610a9457610a8285858381518110610a3557610a35615777565b602002602001015160000151868481518110610a5357610a53615777565b602002602001015160200151878581518110610a7157610a71615777565b602002602001015160400151611549565b80610a8c816157d5565b915050610a16565b5050505050565b6101636020526000908152604090208054600182015460028301805492939192610ac4906157ef565b80601f0160208091040260200160405190810160405280929190818152602001828054610af0906157ef565b8015610b3d5780601f10610b1257610100808354040283529160200191610b3d565b820191906000526020600020905b815481529060010190602001808311610b2057829003601f168201915b505050600384015460048501546005860154600687018054969793969295506001600160a01b03909116935090610b73906157ef565b80601f0160208091040260200160405190810160405280929190818152602001828054610b9f906157ef565b8015610bec5780601f10610bc157610100808354040283529160200191610bec565b820191906000526020600020905b815481529060010190602001808311610bcf57829003601f168201915b505050600790930154919250506001600160a01b031688565b610c2960405180606001604052806060815260200160608152602001606081525090565b600082815260c9602052604090819020815160608101909252805482908290610c51906157ef565b80601f0160208091040260200160405190810160405280929190818152602001828054610c7d906157ef565b8015610cca5780601f10610c9f57610100808354040283529160200191610cca565b820191906000526020600020905b815481529060010190602001808311610cad57829003601f168201915b50505050508152602001600182018054610ce3906157ef565b80601f0160208091040260200160405190810160405280929190818152602001828054610d0f906157ef565b8015610d5c5780601f10610d3157610100808354040283529160200191610d5c565b820191906000526020600020905b815481529060010190602001808311610d3f57829003601f168201915b50505050508152602001600282018054610d75906157ef565b80601f0160208091040260200160405190810160405280929190818152602001828054610da1906157ef565b8015610dee5780601f10610dc357610100808354040283529160200191610dee565b820191906000526020600020905b815481529060010190602001808311610dd157829003601f168201915b5050505050815250509050919050565b6000898989604051602001610e1593929190615842565b604051602081830303815290604052805190602001209050610e3b8c8c838a8a8a612fd0565b600084604051602001610e4e9190615885565b60408051601f19818403018152919052805160209091012090506000610e748286613447565b9050610e7f8161346b565b610e99335b610160546001600160a01b0316903087613587565b6000610ea48e612f71565b6001600160a01b0380821660009081526101616020908152604080832080547fffffffffffffffffffffffff000000000000000000000000000000000000000090811633178255600191820180548084018255908652948490208e51600390960201948555928d0151908401805490931694169390931790559089015191925088916002820190610f359082615903565b5050506001600160a01b03166000908152610161602052604090206002810194909455505050600301805460ff1916600117905550505050505050505050565b600082815260656020526040902060010154610f908161363e565b610f9a8383613648565b505050565b6001600160a01b038116331461101d5760405162461bcd60e51b815260206004820152602f60248201527f416363657373436f6e74726f6c3a2063616e206f6e6c792072656e6f756e636560448201527f20726f6c657320666f722073656c66000000000000000000000000000000000060648201526084016109b9565b6110278282613652565b5050565b6001600160a01b037f00000000000000000000000000000000000000000000000000000000000000001630036110c95760405162461bcd60e51b815260206004820152602c60248201527f46756e6374696f6e206d7573742062652063616c6c6564207468726f7567682060448201527f64656c656761746563616c6c000000000000000000000000000000000000000060648201526084016109b9565b7f00000000000000000000000000000000000000000000000000000000000000006001600160a01b03166111247f360894a13ba1a3210667c828492db98dca3e2076cc3735a920a3ca505d382bbc546001600160a01b031690565b6001600160a01b0316146111a05760405162461bcd60e51b815260206004820152602c60248201527f46756e6374696f6e206d7573742062652063616c6c6564207468726f7567682060448201527f6163746976652070726f7879000000000000000000000000000000000000000060648201526084016109b9565b6111a9816136b5565b604080516000808252602082019092526111c59183919061370c565b50565b8160006111d482612f71565b6001600160a01b03808216600090815261016260205260409020549192501633146112415760405162461bcd60e51b815260206004820152601660248201527f4f4e4c595f4558454355544f525f4f50455241544f520000000000000000000060448201526064016109b9565b61125a335b610160546001600160a01b031690856138ac565b600061126585612f71565b6001600160a01b038116600090815261016260205260408120600301805492935086929091906112969084906159c3565b90915550506001600160a01b03811660009081526101626020526040908190206003015490517fa7903817e9c60899f1796f02344546fbe45af803ac7a26968e800564687172f9916112eb91889188916159d6565b60405180910390a15050505050565b6001600160a01b037f00000000000000000000000000000000000000000000000000000000000000001630036113985760405162461bcd60e51b815260206004820152602c60248201527f46756e6374696f6e206d7573742062652063616c6c6564207468726f7567682060448201527f64656c656761746563616c6c000000000000000000000000000000000000000060648201526084016109b9565b7f00000000000000000000000000000000000000000000000000000000000000006001600160a01b03166113f37f360894a13ba1a3210667c828492db98dca3e2076cc3735a920a3ca505d382bbc546001600160a01b031690565b6001600160a01b03161461146f5760405162461bcd60e51b815260206004820152602c60248201527f46756e6374696f6e206d7573742062652063616c6c6564207468726f7567682060448201527f6163746976652070726f7879000000000000000000000000000000000000000060648201526084016109b9565b611478826136b5565b6110278282600161370c565b6000306001600160a01b037f000000000000000000000000000000000000000000000000000000000000000016146115245760405162461bcd60e51b815260206004820152603860248201527f555550535570677261646561626c653a206d757374206e6f742062652063616c60448201527f6c6564207468726f7567682064656c656761746563616c6c000000000000000060648201526084016109b9565b507f360894a13ba1a3210667c828492db98dca3e2076cc3735a920a3ca505d382bbc90565b83600061155582612f71565b6001600160a01b03808216600090815261016160205260409020549192501633146115c25760405162461bcd60e51b815260206004820152601560248201527f4f4e4c595f474154455741595f4f50455241544f52000000000000000000000060448201526064016109b9565b60006115cd87612f71565b6001600160a01b03811660009081526101616020908152604080832060010180548251818502810185019093528083529495509293909291849084015b828210156116ee57600084815260209081902060408051606081018252600386029092018054835260018101546001600160a01b0316938301939093526002830180549293929184019161165d906157ef565b80601f0160208091040260200160405190810160405280929190818152602001828054611689906157ef565b80156116d65780601f106116ab576101008083540402835291602001916116d6565b820191906000526020600020905b8154815290600101906020018083116116b957829003601f168201915b5050505050815250508152602001906001019061160a565b50505050905060005b815181101561177e578782828151811061171357611713615777565b6020026020010151600001510361176c5760405162461bcd60e51b815260206004820152601460248201527f434841494e5f414c52454144595f45584953545300000000000000000000000060448201526064016109b9565b80611776816157d5565b9150506116f7565b50604080516060810182528881526001600160a01b0388811660208084019182528385018a815287841660009081526101618352958620600190810180548083018255908852929096208551600390930201918255915194810180547fffffffffffffffffffffffff00000000000000000000000000000000000000001695909316949094179091555190918291600282019061181b9082615903565b5050507fe9ed2d8c72aa3ff628e00272328c56276d2a4aea0e35023079a3cb59a6fa3a5f8989898960405161185394939291906159fb565b60405180910390a1505050505050505050565b60008484848460405160200161187f9493929190615a35565b60408051601f198184030181529190528051602090910120905060006118a58288613447565b90506118b08161346b565b60408051606081018252868152602080820187905260ff861682840152600089815261016490915291909120815181906118ea9082615903565b506020828101516001838101919091556040938401516002938401805460ff191660ff9092169190911790556001600160a01b038516600090815261016290925292812090910180549091906119419084906159c3565b92505081905550857fa0f4363e838928d2a6f7986b0f7f872efbbbaec7a6e370153d3fb9f8537447ab86868660405161197c939291906152d7565b60405180910390a250505050505050565b60008686868686866040516020016119aa96959493929190615a68565b60408051601f198184030181529190528051602090910120905060006119d0828a613447565b90506119db8161346b565b60408051808201909152600581527f677565737300000000000000000000000000000000000000000000000000000060208201526000611a1a82612f71565b6001600160a01b038116600090815261016260205260409020600181015460029091015491925011611a8e5760405162461bcd60e51b815260206004820152601560248201527f4d41585f4a4f425f4c494d49545f52454143484544000000000000000000000060448201526064016109b9565b6001600160a01b038116600090815261016260205260408120600201805460019290611abb908490615aaf565b925050819055506040518061010001604052808a8152602001898152602001888152602001878152602001428152602001866001600160a01b03168152602001838152602001611b083390565b6001600160a01b0316905260008b8152610163602090815260409182902083518155908301516001820155908201516002820190611b469082615903565b50606082015160038201556080820151600482015560a08201516005820180547fffffffffffffffffffffffff0000000000000000000000000000000000000000166001600160a01b0390921691909117905560c08201516006820190611bad9082615903565b5060e09190910151600790910180547fffffffffffffffffffffffff0000000000000000000000000000000000000000166001600160a01b03909216919091179055897f32412747a7bfe0ef6a742097c0b732d0c41d4bc3cca983495304eb26cf1373508a8a8a8a8a8833604051611c2b9796959493929190615ac2565b60405180910390a25050505050505050505050565b6000828152609760205260408120611c5890836138f5565b9392505050565b61016460205260009081526040902080548190611c7b906157ef565b80601f0160208091040260200160405190810160405280929190818152602001828054611ca7906157ef565b8015611cf45780601f10611cc957610100808354040283529160200191611cf4565b820191906000526020600020905b815481529060010190602001808311611cd757829003601f168201915b50505050600183015460029093015491929160ff16905083565b816000611d1a82612f71565b6001600160a01b0380821660009081526101616020526040902054919250163314611d875760405162461bcd60e51b815260206004820152601560248201527f4f4e4c595f474154455741595f4f50455241544f52000000000000000000000060448201526064016109b9565b6000611d9285612f71565b6001600160a01b03811660009081526101616020908152604080832060010180548251818502810185019093528083529495509293909291849084015b82821015611eb357600084815260209081902060408051606081018252600386029092018054835260018101546001600160a01b03169383019390935260028301805492939291840191611e22906157ef565b80601f0160208091040260200160405190810160405280929190818152602001828054611e4e906157ef565b8015611e9b5780601f10611e7057610100808354040283529160200191611e9b565b820191906000526020600020905b815481529060010190602001808311611e7e57829003601f168201915b50505050508152505081526020019060010190611dcf565b50508251929350505080611f095760405162461bcd60e51b815260206004820152600f60248201527f454d5054595f434841494e4c495354000000000000000000000000000000000060448201526064016109b9565b60005b81811015611f4b5786838281518110611f2757611f27615777565b6020026020010151600001510315611f4b5780611f43816157d5565b915050611f0c565b818114611f9a5760405162461bcd60e51b815260206004820152600f60248201527f434841494e5f4e4f545f464f554e44000000000000000000000000000000000060448201526064016109b9565b611fa56001836159c3565b8114612095576001600160a01b038416600090815261016160205260409020600190810190611fd490846159c3565b81548110611fe457611fe4615777565b90600052602060002090600302016101616000866001600160a01b03166001600160a01b03168152602001908152602001600020600101828154811061202c5761202c615777565b60009182526020909120825460039092020190815560018083015490820180547fffffffffffffffffffffffff0000000000000000000000000000000000000000166001600160a01b0390921691909117905560028082019061209190840182615b21565b5050505b6001600160a01b0384166000908152610161602052604090206001018054806120c0576120c0615bf4565b6000828152602081206003600019909301928302018181556001810180547fffffffffffffffffffffffff0000000000000000000000000000000000000000169055906121106002830182614a2d565b505090557f23e9f2f63bc310edd7f3f83bb1e8fe39cd606aabe6a2530271f8037383aaf98c8888604051612145929190615c23565b60405180910390a15050505050505050565b81600061216382612f71565b6001600160a01b03808216600090815261016160205260409020549192501633146121d05760405162461bcd60e51b815260206004820152601560248201527f4f4e4c595f474154455741595f4f50455241544f52000000000000000000000060448201526064016109b9565b6121ea335b610160546001600160a01b0316903086613587565b60006121f585612f71565b6001600160a01b03811660009081526101616020526040812060020180549293508692909190612226908490615aaf565b90915550506001600160a01b03811660009081526101616020526040908190206002015490517f9a719891db0e8e647d47fb1a5f64fea9a2c0d206db0b610c23f2cf1df5217823916112eb91889188916159d6565b81600061228782612f71565b6001600160a01b03808216600090815261016260205260409020549192501633146122f45760405162461bcd60e51b815260206004820152601660248201527f4f4e4c595f4558454355544f525f4f50455241544f520000000000000000000060448201526064016109b9565b6122fd336121d5565b600061230885612f71565b6001600160a01b03811660009081526101626020526040812060030180549293508692909190612339908490615aaf565b90915550506001600160a01b03811660009081526101626020526040908190206003015490517f1f95f2be015b951fd700619ce83a83c8d4aaa34d2ffbd70307a2623f6299c4d4916112eb91889188916159d6565b60008989896040516020016123a593929190615842565b6040516020818303038152906040528051906020012090506123cb8c8c838a8a8a612fd0565b6000846040516020016123e091815260200190565b60408051601f19818403018152919052805160209091012090506000612406828f613447565b90506124118161346b565b61241a33610e84565b60006124258e612f71565b90506040518060a001604052806124393390565b6001600160a01b03908116825260208083019a909a526000604080840182905260608085019a909a526001608094850181905295831682526101628c5290819020845181547fffffffffffffffffffffffff0000000000000000000000000000000000000000169316929092178255998301519381019390935597810151600283015594850151600382015593909501516004909301805460ff191693151593909317909255505050505050505050505050565b600081815260976020526040812061093e90613901565b81600061251082612f71565b6001600160a01b038082166000908152610161602052604090205491925016331461257d5760405162461bcd60e51b815260206004820152601560248201527f4f4e4c595f474154455741595f4f50455241544f52000000000000000000000060448201526064016109b9565b61258633611246565b600061259185612f71565b6001600160a01b038116600090815261016160205260408120600201805492935086929091906125c29084906159c3565b90915550506001600160a01b03811660009081526101616020526040908190206002015490517f162e2d134a088692c1bd7ca2e473a83d6ad3dcc4d7289b5cee9d342f4004d1b8916112eb91889188916159d6565b61015f54600083815261016360205260409020600381015460049091015461263f9190615aaf565b6126499190615aaf565b42116126975760405162461bcd60e51b815260206004820152601160248201527f444541444c494e455f4e4f545f4f56455200000000000000000000000000000060448201526064016109b9565b6000828152610163602052604090206006016126b38282615903565b50600082815261016360205260408120426004909101556126d382612f71565b6001600160a01b03811660009081526101626020526040812060020180549293506001929091906127059084906159c3565b90915550506040517f609c29fb8a999f25e0a9b9254e2308a42f0a01bd4a077e3cb272cae2bfd5b4459061273c9085908590615c45565b60405180910390a1505050565b6000828152606560205260409020600101546127648161363e565b610f9a8383613652565b600054610100900460ff161580801561278e5750600054600160ff909116105b806127a85750303b1580156127a8575060005460ff166001145b61281a5760405162461bcd60e51b815260206004820152602e60248201527f496e697469616c697a61626c653a20636f6e747261637420697320616c72656160448201527f647920696e697469616c697a656400000000000000000000000000000000000060648201526084016109b9565b6000805460ff19166001179055801561285a57600080547fffffffffffffffffffffffffffffffffffffffffffffffffffffffffffff00ff166101001790555b61286261390b565b61286a61390b565b61287261390b565b61287b8461398a565b61288361390b565b61288e600086613648565b61016080547fffffffffffffffffffffffff0000000000000000000000000000000000000000166001600160a01b03851617905561015f8290558015610a9457600080547fffffffffffffffffffffffffffffffffffffffffffffffffffffffffffff00ff169055604051600181527f7f26b83ff96e1f2b6a682f133852f6798a09c465da95921460cefb3847402498906020016112eb565b80600061293382612f71565b6001600160a01b03808216600090815261016160205260409020549192501633146129a05760405162461bcd60e51b815260206004820152601560248201527f4f4e4c595f474154455741595f4f50455241544f52000000000000000000000060448201526064016109b9565b60006129ab84612f71565b6001600160a01b038082166000908152610161602052604090205491925016612a165760405162461bcd60e51b815260206004820152601360248201527f494e56414c49445f454e434c4156455f4b45590000000000000000000000000060448201526064016109b9565b6001600160a01b03811660009081526101616020526040812080547fffffffffffffffffffffffff000000000000000000000000000000000000000016815590612a636001830182614a67565b5060006002820155600301805460ff19169055612a7f84613a48565b7fcfdd9fda8828d739bda25c6f221393246d149dd1b7f6784acdb8ba0132722f2784604051612aae9190615c5e565b60405180910390a150505050565b600082815261016360205260409020600701546001600160a01b03163303612b265760405162461bcd60e51b815260206004820152600c60248201527f53414d455f47415445574159000000000000000000000000000000000000000060448201526064016109b9565b60008284604051602001612b4d9291909182526001600160a01b0316602082015260400190565b60408051601f19818403018152919052805160209091012090506000612b738284613447565b9050612b7e8161346b565b6000848152610163602090815260409182902060070180547fffffffffffffffffffffffff0000000000000000000000000000000000000000163390811790915591518681526001600160a01b038816917f8b7c31ce9ded31107fcb4bfabbf28198eb7426f50084e26df70e22525d9b6b0e910160405180910390a35050505050565b816000612c0d82612f71565b6001600160a01b0380821660009081526101616020526040902054919250163314612c7a5760405162461bcd60e51b815260206004820152601560248201527f4f4e4c595f474154455741595f4f50455241544f52000000000000000000000060448201526064016109b9565b6000835111612ccb5760405162461bcd60e51b815260206004820152601060248201527f454d5054595f5245515f434841494e530000000000000000000000000000000060448201526064016109b9565b60005b8351811015610a9457612cfa85858381518110612ced57612ced615777565b6020026020010151611d0e565b80612d04816157d5565b915050612cce565b806000612d1882612f71565b6001600160a01b0380821660009081526101626020526040902054919250163314612d855760405162461bcd60e51b815260206004820152601660248201527f4f4e4c595f4558454355544f525f4f50455241544f520000000000000000000060448201526064016109b9565b6000612d9084612f71565b6001600160a01b038082166000908152610162602052604090205491925016612dfb5760405162461bcd60e51b815260206004820152601360248201527f494e56414c49445f454e434c4156455f4b45590000000000000000000000000060448201526064016109b9565b6001600160a01b0381166000908152610162602052604090206002015415612e655760405162461bcd60e51b815260206004820152601360248201527f4143544956455f4a4f42535f50454e44494e470000000000000000000000000060448201526064016109b9565b6001600160a01b0381166000908152610162602052604080822080547fffffffffffffffffffffffff0000000000000000000000000000000000000000168155600181018390556002810183905560038101929092556004909101805460ff19169055517fcd3eb6b4f0e55ead3175ceaac8651559bdea002353da50a25dbc57e9d6bce8ce90612aae908690615c5e565b612f04868686868686612fd0565b505050505050565b6001600160a01b03163b151590565b60007fffffffff0000000000000000000000000000000000000000000000000000000082167f5a05180f00000000000000000000000000000000000000000000000000000000148061093e575061093e82613b18565b60008151604014612fc45760405162461bcd60e51b815260206004820152601960248201527f496e76616c6964207075626c6963206b6579206c656e6774680000000000000060448201526064016109b9565b50805160209091012090565b600084815260c9602052604090208054612fe9906157ef565b90506000036130605760405162461bcd60e51b815260206004820152602d60248201527f41413a564b2d456e636c61766520696d61676520746f20766572696679206e6f60448201527f742077686974656c69737465640000000000000000000000000000000000000060648201526084016109b9565b600061306b86612f71565b6001600160a01b038116600090815260ca6020526040902054909150156130fa5760405162461bcd60e51b815260206004820152602260248201527f41413a564b2d456e636c617665206b657920616c72656164792076657269666960448201527f656400000000000000000000000000000000000000000000000000000000000060648201526084016109b9565b6131247f0000000000000000000000000000000000000000000000000000000000000000426159c3565b6131306103e884615c71565b1161317d5760405162461bcd60e51b815260206004820152601960248201527f41413a564b2d4174746573746174696f6e20746f6f206f6c640000000000000060448201526064016109b9565b600085815260c960205260408082208151606081019092528054829082906131a4906157ef565b80601f01602080910402602001604051908101604052809291908181526020018280546131d0906157ef565b801561321d5780601f106131f25761010080835404028352916020019161321d565b820191906000526020600020905b81548152906001019060200180831161320057829003601f168201915b50505050508152602001600182018054613236906157ef565b80601f0160208091040260200160405190810160405280929190818152602001828054613262906157ef565b80156132af5780601f10613284576101008083540402835291602001916132af565b820191906000526020600020905b81548152906001019060200180831161329257829003601f168201915b505050505081526020016002820180546132c8906157ef565b80601f01602080910402602001604051908101604052809291908181526020018280546132f4906157ef565b80156133415780601f1061331657610100808354040283529160200191613341565b820191906000526020600020905b81548152906001019060200180831161332457829003601f168201915b50505050508152505090507f00000000000000000000000000000000000000000000000000000000000000006001600160a01b031663ac0f0bd589898460000151856020015186604001518b8b8b6040518963ffffffff1660e01b81526004016133b2989796959493929190615cac565b60006040518083038186803b1580156133ca57600080fd5b505afa1580156133de573d6000803e3d6000fd5b5050506001600160a01b038316600090815260ca6020526040908190208890555187915061340d908990615d31565b604051908190038120907ff4837f1a66a1e5fbde2c40d0f6eff75183139e79b0fc1eaab280a3a0be38e7b190600090a35050505050505050565b60008060006134568585613baf565b9150915061346381613bf4565b509392505050565b6001600160a01b038116600090815260ca6020526040902054806134f75760405162461bcd60e51b815260206004820152602360248201527f41413a414f562d456e636c617665206b6579206d75737420626520766572696660448201527f696564000000000000000000000000000000000000000000000000000000000060648201526084016109b9565b600081815260c9602052604090208054613510906157ef565b90506000036110275760405162461bcd60e51b815260206004820152602760248201527f41413a414f562d536f7572636520696d616765206d757374206265207768697460448201527f656c69737465640000000000000000000000000000000000000000000000000060648201526084016109b9565b6040516001600160a01b03808516602483015283166044820152606481018290526136389085907f23b872dd00000000000000000000000000000000000000000000000000000000906084015b60408051601f198184030181529190526020810180517bffffffffffffffffffffffffffffffffffffffffffffffffffffffff167fffffffff0000000000000000000000000000000000000000000000000000000090931692909217909152613d59565b50505050565b6111c58133613e41565b6110278282613eb6565b61365c8282613ed8565b61366660006124ed565b6000036110275760405162461bcd60e51b815260206004820181905260248201527f41563a52522d416c6c2061646d696e732063616e742062652072656d6f76656460448201526064016109b9565b6136c06000336105ef565b6111c55760405162461bcd60e51b815260206004820152600a60248201527f6f6e6c792061646d696e0000000000000000000000000000000000000000000060448201526064016109b9565b7f4910fdfa16fed3260ed0e7147f7cc6da11a60208b5b9406d12a635614ffd91435460ff161561373f57610f9a83613efa565b826001600160a01b03166352d1902d6040518163ffffffff1660e01b8152600401602060405180830381865afa925050508015613799575060408051601f3d908101601f1916820190925261379691810190615d4d565b60015b61380b5760405162461bcd60e51b815260206004820152602e60248201527f45524331393637557067726164653a206e657720696d706c656d656e7461746960448201527f6f6e206973206e6f74205555505300000000000000000000000000000000000060648201526084016109b9565b7f360894a13ba1a3210667c828492db98dca3e2076cc3735a920a3ca505d382bbc81146138a05760405162461bcd60e51b815260206004820152602960248201527f45524331393637557067726164653a20756e737570706f727465642070726f7860448201527f6961626c6555554944000000000000000000000000000000000000000000000060648201526084016109b9565b50610f9a838383613fd0565b6040516001600160a01b038316602482015260448101829052610f9a9084907fa9059cbb00000000000000000000000000000000000000000000000000000000906064016135d4565b6000611c588383613ff5565b600061093e825490565b600054610100900460ff166139885760405162461bcd60e51b815260206004820152602b60248201527f496e697469616c697a61626c653a20636f6e7472616374206973206e6f74206960448201527f6e697469616c697a696e6700000000000000000000000000000000000000000060648201526084016109b9565b565b600054610100900460ff16613a075760405162461bcd60e51b815260206004820152602b60248201527f496e697469616c697a61626c653a20636f6e7472616374206973206e6f74206960448201527f6e697469616c697a696e6700000000000000000000000000000000000000000060648201526084016109b9565b60005b815181101561102757613a35828281518110613a2857613a28615777565b602002602001015161401f565b5080613a40816157d5565b915050613a0a565b6000613a5382612f71565b6001600160a01b038116600090815260ca6020526040902054909150613abb5760405162461bcd60e51b815260206004820152601e60248201527f41413a524b2d456e636c617665206b6579206e6f74207665726966696564000060448201526064016109b9565b6001600160a01b038116600090815260ca60205260408082209190915551613ae4908390615d31565b604051908190038120907ff910fd78b98e9574e8b6f0e42bc3a996a6aba3776ec20b9d85515bd74a6c8fe990600090a25050565b60007fffffffff0000000000000000000000000000000000000000000000000000000082167f7965db0b00000000000000000000000000000000000000000000000000000000148061093e57507f01ffc9a7000000000000000000000000000000000000000000000000000000007fffffffff0000000000000000000000000000000000000000000000000000000083161461093e565b6000808251604103613be55760208301516040840151606085015160001a613bd987828585614219565b94509450505050613bed565b506000905060025b9250929050565b6000816004811115613c0857613c08615d66565b03613c105750565b6001816004811115613c2457613c24615d66565b03613c715760405162461bcd60e51b815260206004820152601860248201527f45434453413a20696e76616c6964207369676e6174757265000000000000000060448201526064016109b9565b6002816004811115613c8557613c85615d66565b03613cd25760405162461bcd60e51b815260206004820152601f60248201527f45434453413a20696e76616c6964207369676e6174757265206c656e6774680060448201526064016109b9565b6003816004811115613ce657613ce6615d66565b036111c55760405162461bcd60e51b815260206004820152602260248201527f45434453413a20696e76616c6964207369676e6174757265202773272076616c60448201527f756500000000000000000000000000000000000000000000000000000000000060648201526084016109b9565b6000613dae826040518060400160405280602081526020017f5361666545524332303a206c6f772d6c6576656c2063616c6c206661696c6564815250856001600160a01b03166142dd9092919063ffffffff16565b9050805160001480613dcf575080806020019051810190613dcf9190615d95565b610f9a5760405162461bcd60e51b815260206004820152602a60248201527f5361666545524332303a204552433230206f7065726174696f6e20646964206e60448201527f6f7420737563636565640000000000000000000000000000000000000000000060648201526084016109b9565b60008281526065602090815260408083206001600160a01b038516845290915290205460ff1661102757613e74816142f4565b613e7f836020614306565b604051602001613e90929190615db7565b60408051601f198184030181529082905262461bcd60e51b82526109b991600401615c5e565b613ec0828261452f565b6000828152609760205260409020610f9a90826145d1565b613ee282826145e6565b6000828152609760205260409020610f9a9082614669565b6001600160a01b0381163b613f775760405162461bcd60e51b815260206004820152602d60248201527f455243313936373a206e657720696d706c656d656e746174696f6e206973206e60448201527f6f74206120636f6e74726163740000000000000000000000000000000000000060648201526084016109b9565b7f360894a13ba1a3210667c828492db98dca3e2076cc3735a920a3ca505d382bbc80547fffffffffffffffffffffffff0000000000000000000000000000000000000000166001600160a01b0392909216919091179055565b613fd98361467e565b600082511180613fe65750805b15610f9a5761363883836146be565b600082600001828154811061400c5761400c615777565b9060005260206000200154905092915050565b805151600090603014801561403957508160200151516030145b801561404a57508160400151516030145b6140bc5760405162461bcd60e51b815260206004820152602160248201527f41413a57492d5043522076616c756573206d757374206265203438206279746560448201527f730000000000000000000000000000000000000000000000000000000000000060648201526084016109b9565b60008260000151836020015184604001516040516020016140df93929190615842565b60408051601f198184030181529181528151602092830120600081815260c99093529120805491925090614112906157ef565b1590506141615760405162461bcd60e51b815260206004820152601f60248201527f41413a57492d696d61676520616c72656164792077686974656c69737465640060448201526064016109b9565b6040805160608101825284518152602080860151818301528583015182840152600084815260c9909152919091208151819061419d9082615903565b50602082015160018201906141b29082615903565b50604082015160028201906141c79082615903565b50905050807f52b29bbdd97ab983419f50fa1590e5ab75e9942279e95e10a08607b06c23238b84600001518560200151866040015160405161420b93929190615e38565b60405180910390a292915050565b6000807f7fffffffffffffffffffffffffffffff5d576e7357a4501ddfe92f46681b20a083111561425057506000905060036142d4565b6040805160008082526020820180845289905260ff881692820192909252606081018690526080810185905260019060a0016020604051602081039080840390855afa1580156142a4573d6000803e3d6000fd5b5050604051601f1901519150506001600160a01b0381166142cd576000600192509250506142d4565b9150600090505b94509492505050565b60606142ec84846000856146e3565b949350505050565b606061093e6001600160a01b03831660145b60606000614315836002615e71565b614320906002615aaf565b67ffffffffffffffff81111561433857614338614b62565b6040519080825280601f01601f191660200182016040528015614362576020820181803683370190505b5090507f30000000000000000000000000000000000000000000000000000000000000008160008151811061439957614399615777565b60200101907effffffffffffffffffffffffffffffffffffffffffffffffffffffffffffff1916908160001a9053507f7800000000000000000000000000000000000000000000000000000000000000816001815181106143fc576143fc615777565b60200101907effffffffffffffffffffffffffffffffffffffffffffffffffffffffffffff1916908160001a9053506000614438846002615e71565b614443906001615aaf565b90505b60018111156144e0577f303132333435363738396162636465660000000000000000000000000000000085600f166010811061448457614484615777565b1a60f81b82828151811061449a5761449a615777565b60200101907effffffffffffffffffffffffffffffffffffffffffffffffffffffffffffff1916908160001a90535060049490941c936144d981615e88565b9050614446565b508315611c585760405162461bcd60e51b815260206004820181905260248201527f537472696e67733a20686578206c656e67746820696e73756666696369656e7460448201526064016109b9565b60008281526065602090815260408083206001600160a01b038516845290915290205460ff166110275760008281526065602090815260408083206001600160a01b03851684529091529020805460ff1916600117905561458d3390565b6001600160a01b0316816001600160a01b0316837f2f8788117e7eff1d82e926ec794901d17c78024a50270940304540a733656f0d60405160405180910390a45050565b6000611c58836001600160a01b0384166147d5565b60008281526065602090815260408083206001600160a01b038516845290915290205460ff16156110275760008281526065602090815260408083206001600160a01b0385168085529252808320805460ff1916905551339285917ff6391f5c32d9c69d2a47ea670b442974b53935d1edc7fd64eb21e047a839171b9190a45050565b6000611c58836001600160a01b038416614824565b61468781613efa565b6040516001600160a01b038216907fbc7cd75a20ee27fd9adebab32041f755214dbc6bffa90cc0225b39da2e5c2d3b90600090a250565b6060611c588383604051806060016040528060278152602001615ea060279139614917565b60608247101561475b5760405162461bcd60e51b815260206004820152602660248201527f416464726573733a20696e73756666696369656e742062616c616e636520666f60448201527f722063616c6c000000000000000000000000000000000000000000000000000060648201526084016109b9565b600080866001600160a01b031685876040516147779190615d31565b60006040518083038185875af1925050503d80600081146147b4576040519150601f19603f3d011682016040523d82523d6000602084013e6147b9565b606091505b50915091506147ca8783838761498f565b979650505050505050565b600081815260018301602052604081205461481c5750815460018181018455600084815260208082209093018490558454848252828601909352604090209190915561093e565b50600061093e565b6000818152600183016020526040812054801561490d5760006148486001836159c3565b855490915060009061485c906001906159c3565b90508181146148c157600086600001828154811061487c5761487c615777565b906000526020600020015490508087600001848154811061489f5761489f615777565b6000918252602080832090910192909255918252600188019052604090208390555b85548690806148d2576148d2615bf4565b60019003818190600052602060002001600090559055856001016000868152602001908152602001600020600090556001935050505061093e565b600091505061093e565b6060600080856001600160a01b0316856040516149349190615d31565b600060405180830381855af49150503d806000811461496f576040519150601f19603f3d011682016040523d82523d6000602084013e614974565b606091505b50915091506149858683838761498f565b9695505050505050565b606083156149fe5782516000036149f7576001600160a01b0385163b6149f75760405162461bcd60e51b815260206004820152601d60248201527f416464726573733a2063616c6c20746f206e6f6e2d636f6e747261637400000060448201526064016109b9565b50816142ec565b6142ec8383815115614a135781518083602001fd5b8060405162461bcd60e51b81526004016109b99190615c5e565b508054614a39906157ef565b6000825580601f10614a49575050565b601f0160209004906000526020600020908101906111c59190614a88565b50805460008255600302906000526020600020908101906111c59190614aa1565b5b80821115614a9d5760008155600101614a89565b5090565b80821115614a9d5760008082556001820180547fffffffffffffffffffffffff0000000000000000000000000000000000000000169055614ae56002830182614a2d565b50600301614aa1565b6001600160a01b03811681146111c557600080fd5b600060208284031215614b1557600080fd5b8135611c5881614aee565b600060208284031215614b3257600080fd5b81357fffffffff0000000000000000000000000000000000000000000000000000000081168114611c5857600080fd5b7f4e487b7100000000000000000000000000000000000000000000000000000000600052604160045260246000fd5b6040516060810167ffffffffffffffff81118282101715614bb457614bb4614b62565b60405290565b604051601f8201601f1916810167ffffffffffffffff81118282101715614be357614be3614b62565b604052919050565b600082601f830112614bfc57600080fd5b813567ffffffffffffffff811115614c1657614c16614b62565b614c296020601f19601f84011601614bba565b818152846020838601011115614c3e57600080fd5b816020850160208301376000918101602001919091529392505050565b600067ffffffffffffffff821115614c7557614c75614b62565b5060051b60200190565b600060608284031215614c9157600080fd5b614c99614b91565b9050813581526020820135614cad81614aee565b6020820152604082013567ffffffffffffffff811115614ccc57600080fd5b614cd884828501614beb565b60408301525092915050565b60008060408385031215614cf757600080fd5b823567ffffffffffffffff80821115614d0f57600080fd5b614d1b86838701614beb565b9350602091508185013581811115614d3257600080fd5b8501601f81018713614d4357600080fd5b8035614d56614d5182614c5b565b614bba565b81815260059190911b82018401908481019089831115614d7557600080fd5b8584015b83811015614dad57803586811115614d915760008081fd5b614d9f8c8983890101614c7f565b845250918601918601614d79565b508096505050505050509250929050565b600060208284031215614dd057600080fd5b5035919050565b60005b83811015614df2578181015183820152602001614dda565b50506000910152565b60008151808452614e13816020860160208601614dd7565b601f01601f19169290920160200192915050565b60006101008a8352896020840152806040840152614e478184018a614dfb565b90508760608401528660808401526001600160a01b0380871660a085015283820360c0850152614e778287614dfb565b925080851660e085015250509998505050505050505050565b602081526000825160606020840152614eac6080840182614dfb565b90506020840151601f1980858403016040860152614eca8383614dfb565b9250604086015191508085840301606086015250614ee88282614dfb565b95945050505050565b60008060008060008060008060008060006101608c8e031215614f1357600080fd5b67ffffffffffffffff808d351115614f2a57600080fd5b614f378e8e358f01614beb565b9b508060208e01351115614f4a57600080fd5b614f5a8e60208f01358f01614beb565b9a508060408e01351115614f6d57600080fd5b614f7d8e60408f01358f01614beb565b99508060608e01351115614f9057600080fd5b614fa08e60608f01358f01614beb565b98508060808e01351115614fb357600080fd5b614fc38e60808f01358f01614beb565b975060a08d0135965060c08d0135955060e08d01359450806101008e01351115614fec57600080fd5b614ffd8e6101008f01358f01614c7f565b9350806101208e0135111561501157600080fd5b506150238d6101208e01358e01614beb565b91506101408c013590509295989b509295989b9093969950565b6000806040838503121561505057600080fd5b82359150602083013561506281614aee565b809150509250929050565b6000806040838503121561508057600080fd5b823567ffffffffffffffff81111561509757600080fd5b6150a385828601614beb565b95602094909401359450505050565b600080604083850312156150c557600080fd5b82356150d081614aee565b9150602083013567ffffffffffffffff8111156150ec57600080fd5b6150f885828601614beb565b9150509250929050565b6000806000806080858703121561511857600080fd5b843567ffffffffffffffff8082111561513057600080fd5b61513c88838901614beb565b9550602087013594506040870135915061515582614aee565b9092506060860135908082111561516b57600080fd5b5061517887828801614beb565b91505092959194509250565b600080600080600060a0868803121561519c57600080fd5b853567ffffffffffffffff808211156151b457600080fd5b6151c089838a01614beb565b96506020880135955060408801359150808211156151dd57600080fd5b506151ea88828901614beb565b93505060608601359150608086013560ff8116811461520857600080fd5b809150509295509295909350565b600080600080600080600060e0888a03121561523157600080fd5b873567ffffffffffffffff8082111561524957600080fd5b6152558b838c01614beb565b985060208a0135975060408a0135965060608a0135955060808a013591508082111561528057600080fd5b5061528d8a828b01614beb565b93505060a0880135915060c08801356152a581614aee565b8091505092959891949750929550565b600080604083850312156152c857600080fd5b50508035926020909101359150565b6060815260006152ea6060830186614dfb565b905083602083015260ff83166040830152949350505050565b60008060008060008060008060008060006101608c8e03121561532557600080fd5b67ffffffffffffffff808d35111561533c57600080fd5b6153498e8e358f01614beb565b9b508060208e0135111561535c57600080fd5b61536c8e60208f01358f01614beb565b9a508060408e0135111561537f57600080fd5b61538f8e60408f01358f01614beb565b99508060608e013511156153a257600080fd5b6153b28e60608f01358f01614beb565b98508060808e013511156153c557600080fd5b6153d58e60808f01358f01614beb565b975060a08d0135965060c08d0135955060e08d013594506101008d01359350806101208e0135111561501157600080fd5b6000806040838503121561541957600080fd5b82359150602083013567ffffffffffffffff8111156150ec57600080fd5b803561544281614aee565b919050565b6000806000806080858703121561545d57600080fd5b6154678535614aee565b84359350602085013567ffffffffffffffff8082111561548657600080fd5b818701915087601f83011261549a57600080fd5b6154a7614d518335614c5b565b82358082526020808301929160051b8501018a8111156154c657600080fd5b602085015b818110156155825784813511156154e157600080fd5b803586016060601f19828f030112156154f957600080fd5b615501614b91565b60208201358781111561551357600080fd5b6155228f602083860101614beb565b82525060408201358781111561553757600080fd5b6155468f602083860101614beb565b60208301525060608201358781111561555e57600080fd5b61556d8f602083860101614beb565b604083015250855250602093840193016154cb565b50508096505050505061559760408601615437565b9396929550929360600135925050565b6000602082840312156155b957600080fd5b813567ffffffffffffffff8111156155d057600080fd5b6142ec84828501614beb565b6000806000606084860312156155f157600080fd5b83356155fc81614aee565b925060208401359150604084013567ffffffffffffffff81111561561f57600080fd5b61562b86828701614beb565b9150509250925092565b6000806040838503121561564857600080fd5b823567ffffffffffffffff8082111561566057600080fd5b61566c86838701614beb565b935060209150818501358181111561568357600080fd5b85019050601f8101861361569657600080fd5b80356156a4614d5182614c5b565b81815260059190911b820183019083810190888311156156c357600080fd5b928401925b828410156156e1578335825292840192908401906156c8565b80955050505050509250929050565b60008060008060008060c0878903121561570957600080fd5b863567ffffffffffffffff8082111561572157600080fd5b61572d8a838b01614beb565b9750602089013591508082111561574357600080fd5b5061575089828a01614beb565b96999698505050506040850135946060810135946080820135945060a09091013592509050565b7f4e487b7100000000000000000000000000000000000000000000000000000000600052603260045260246000fd5b7f4e487b7100000000000000000000000000000000000000000000000000000000600052601160045260246000fd5b600060001982036157e8576157e86157a6565b5060010190565b600181811c9082168061580357607f821691505b60208210810361583c577f4e487b7100000000000000000000000000000000000000000000000000000000600052602260045260246000fd5b50919050565b60008451615854818460208901614dd7565b845190830190615868818360208901614dd7565b845191019061587b818360208801614dd7565b0195945050505050565b60208152815160208201526001600160a01b036020830151166040820152600060408301516060808401526142ec6080840182614dfb565b601f821115610f9a57600081815260208120601f850160051c810160208610156158e45750805b601f850160051c820191505b81811015612f04578281556001016158f0565b815167ffffffffffffffff81111561591d5761591d614b62565b6159318161592b84546157ef565b846158bd565b602080601f831160018114615966576000841561594e5750858301515b600019600386901b1c1916600185901b178555612f04565b600085815260208120601f198616915b8281101561599557888601518255948401946001909101908401615976565b50858210156159b35787850151600019600388901b60f8161c191681555b5050505050600190811b01905550565b8181038181111561093e5761093e6157a6565b6060815260006159e96060830186614dfb565b60208301949094525060400152919050565b608081526000615a0e6080830187614dfb565b8560208401526001600160a01b038516604084015282810360608401526147ca8185614dfb565b848152608060208201526000615a4e6080830186614dfb565b905083604083015260ff8316606083015295945050505050565b86815285602082015284604082015260c060608201526000615a8d60c0830186614dfb565b90508360808301526001600160a01b03831660a0830152979650505050505050565b8082018082111561093e5761093e6157a6565b87815286602082015260e060408201526000615ae160e0830188614dfb565b8660608401526001600160a01b03808716608085015283820360a0850152615b098287614dfb565b925080851660c0850152505098975050505050505050565b818103615b2c575050565b615b3682546157ef565b67ffffffffffffffff811115615b4e57615b4e614b62565b615b5c8161592b84546157ef565b6000601f821160018114615b905760008315615b785750848201545b600019600385901b1c1916600184901b178455610a94565b600085815260209020601f19841690600086815260209020845b83811015615bca5782860154825560019586019590910190602001615baa565b50858310156159b35793015460001960f8600387901b161c19169092555050600190811b01905550565b7f4e487b7100000000000000000000000000000000000000000000000000000000600052603160045260246000fd5b604081526000615c366040830185614dfb565b90508260208301529392505050565b8281526040602082015260006142ec6040830184614dfb565b602081526000611c586020830184614dfb565b600082615ca7577f4e487b7100000000000000000000000000000000000000000000000000000000600052601260045260246000fd5b500490565b6000610100808352615cc08184018c614dfb565b90508281036020840152615cd4818b614dfb565b90508281036040840152615ce8818a614dfb565b90508281036060840152615cfc8189614dfb565b90508281036080840152615d108188614dfb565b60a0840196909652505060c081019290925260e09091015295945050505050565b60008251615d43818460208701614dd7565b9190910192915050565b600060208284031215615d5f57600080fd5b5051919050565b7f4e487b7100000000000000000000000000000000000000000000000000000000600052602160045260246000fd5b600060208284031215615da757600080fd5b81518015158114611c5857600080fd5b7f416363657373436f6e74726f6c3a206163636f756e7420000000000000000000815260008351615def816017850160208801614dd7565b7f206973206d697373696e6720726f6c65200000000000000000000000000000006017918401918201528351615e2c816028840160208801614dd7565b01602801949350505050565b606081526000615e4b6060830186614dfb565b8281036020840152615e5d8186614dfb565b905082810360408401526149858185614dfb565b808202811582820484141761093e5761093e6157a6565b600081615e9757615e976157a6565b50600019019056fe416464726573733a206c6f772d6c6576656c2064656c65676174652063616c6c206661696c6564a2646970667358221220b0f5b8c2afba6c32755669c6f694300f54f46a6cab5892ddb06f1c5b279f39bc64736f6c63430008110033",
  "linkReferences": {},
  "deployedLinkReferences": {}
}