{
  "_format": "hh-sol-artifact-1",
  "contractName": "CommonChainGateways",
  "sourceName": "contracts/serverless-v2/CommonChainGateways.sol",
  "abi": [
    {
      "inputs": [
        {
          "internalType": "contract IAttestationVerifier",
          "name": "attestationVerifier",
          "type": "address"
        },
        {
          "internalType": "uint256",
          "name": "maxAge",
          "type": "uint256"
        }
      ],
      "stateMutability": "nonpayable",
      "type": "constructor"
    },
    {
      "inputs": [],
      "name": "AccessControlBadConfirmation",
      "type": "error"
    },
    {
      "inputs": [
        {
          "internalType": "address",
          "name": "account",
          "type": "address"
        },
        {
          "internalType": "bytes32",
          "name": "neededRole",
          "type": "bytes32"
        }
      ],
      "name": "AccessControlUnauthorizedAccount",
      "type": "error"
    },
    {
      "inputs": [
        {
          "internalType": "address",
          "name": "target",
          "type": "address"
        }
      ],
      "name": "AddressEmptyCode",
      "type": "error"
    },
    {
      "inputs": [
        {
          "internalType": "address",
          "name": "account",
          "type": "address"
        }
      ],
      "name": "AddressInsufficientBalance",
      "type": "error"
    },
    {
      "inputs": [],
      "name": "AttestationAutherAttestationTooOld",
      "type": "error"
    },
    {
      "inputs": [],
      "name": "AttestationAutherImageNotInFamily",
      "type": "error"
    },
    {
      "inputs": [],
      "name": "AttestationAutherImageNotWhitelisted",
      "type": "error"
    },
    {
      "inputs": [],
      "name": "AttestationAutherKeyNotVerified",
      "type": "error"
    },
    {
      "inputs": [],
      "name": "AttestationAutherMismatchedLengths",
      "type": "error"
    },
    {
      "inputs": [],
      "name": "AttestationAutherPCRsInvalid",
      "type": "error"
    },
    {
      "inputs": [],
      "name": "AttestationAutherPubkeyLengthInvalid",
      "type": "error"
    },
    {
      "inputs": [
        {
          "internalType": "uint256",
          "name": "chainId",
          "type": "uint256"
        }
      ],
      "name": "ChainAlreadyExists",
      "type": "error"
    },
    {
      "inputs": [
        {
          "internalType": "uint256",
          "name": "chainId",
          "type": "uint256"
        }
      ],
      "name": "ChainNotFound",
      "type": "error"
    },
    {
      "inputs": [],
      "name": "ECDSAInvalidSignature",
      "type": "error"
    },
    {
      "inputs": [
        {
          "internalType": "uint256",
          "name": "length",
          "type": "uint256"
        }
      ],
      "name": "ECDSAInvalidSignatureLength",
      "type": "error"
    },
    {
      "inputs": [
        {
          "internalType": "bytes32",
          "name": "s",
          "type": "bytes32"
        }
      ],
      "name": "ECDSAInvalidSignatureS",
      "type": "error"
    },
    {
      "inputs": [
        {
          "internalType": "address",
          "name": "implementation",
          "type": "address"
        }
      ],
      "name": "ERC1967InvalidImplementation",
      "type": "error"
    },
    {
      "inputs": [],
      "name": "ERC1967NonPayable",
      "type": "error"
    },
    {
      "inputs": [],
      "name": "FailedInnerCall",
      "type": "error"
    },
    {
      "inputs": [],
      "name": "InvalidInitialization",
      "type": "error"
    },
    {
      "inputs": [],
      "name": "NotInitializing",
      "type": "error"
    },
    {
      "inputs": [
        {
          "internalType": "address",
          "name": "token",
          "type": "address"
        }
      ],
      "name": "SafeERC20FailedOperation",
      "type": "error"
    },
    {
      "inputs": [],
      "name": "UUPSUnauthorizedCallContext",
      "type": "error"
    },
    {
      "inputs": [
        {
          "internalType": "bytes32",
          "name": "slot",
          "type": "bytes32"
        }
      ],
      "name": "UUPSUnsupportedProxiableUUID",
      "type": "error"
    },
    {
      "anonymous": false,
      "inputs": [
        {
          "indexed": false,
          "internalType": "bytes",
          "name": "enclavePubKey",
          "type": "bytes"
        },
        {
          "indexed": false,
          "internalType": "uint256",
          "name": "chainId",
          "type": "uint256"
        }
      ],
      "name": "ChainAdded",
      "type": "event"
    },
    {
      "anonymous": false,
      "inputs": [
        {
          "indexed": false,
          "internalType": "uint256",
          "name": "chainId",
          "type": "uint256"
        },
        {
          "indexed": false,
          "internalType": "address",
          "name": "contractAddress",
          "type": "address"
        },
        {
          "indexed": false,
          "internalType": "string",
          "name": "rpcUrl",
          "type": "string"
        }
      ],
      "name": "ChainAddedGlobal",
      "type": "event"
    },
    {
      "anonymous": false,
      "inputs": [
        {
          "indexed": false,
          "internalType": "bytes",
          "name": "enclavePubKey",
          "type": "bytes"
        },
        {
          "indexed": false,
          "internalType": "uint256",
          "name": "chainId",
          "type": "uint256"
        }
      ],
      "name": "ChainRemoved",
      "type": "event"
    },
    {
      "anonymous": false,
      "inputs": [
        {
          "indexed": false,
          "internalType": "uint256",
          "name": "chainId",
          "type": "uint256"
        }
      ],
      "name": "ChainRemovedGlobal",
      "type": "event"
    },
    {
      "anonymous": false,
      "inputs": [
        {
          "indexed": true,
          "internalType": "bytes32",
          "name": "imageId",
          "type": "bytes32"
        },
        {
          "indexed": false,
          "internalType": "bytes32",
          "name": "family",
          "type": "bytes32"
        }
      ],
      "name": "EnclaveImageAddedToFamily",
      "type": "event"
    },
    {
      "anonymous": false,
      "inputs": [
        {
          "indexed": true,
          "internalType": "bytes32",
          "name": "imageId",
          "type": "bytes32"
        },
        {
          "indexed": false,
          "internalType": "bytes32",
          "name": "family",
          "type": "bytes32"
        }
      ],
      "name": "EnclaveImageRemovedFromFamily",
      "type": "event"
    },
    {
      "anonymous": false,
      "inputs": [
        {
          "indexed": true,
          "internalType": "bytes32",
          "name": "imageId",
          "type": "bytes32"
        }
      ],
      "name": "EnclaveImageRevoked",
      "type": "event"
    },
    {
      "anonymous": false,
      "inputs": [
        {
          "indexed": true,
          "internalType": "bytes32",
          "name": "imageId",
          "type": "bytes32"
        },
        {
          "indexed": false,
          "internalType": "bytes",
          "name": "PCR0",
          "type": "bytes"
        },
        {
          "indexed": false,
          "internalType": "bytes",
          "name": "PCR1",
          "type": "bytes"
        },
        {
          "indexed": false,
          "internalType": "bytes",
          "name": "PCR2",
          "type": "bytes"
        }
      ],
      "name": "EnclaveImageWhitelisted",
      "type": "event"
    },
    {
      "anonymous": false,
      "inputs": [
        {
          "indexed": true,
          "internalType": "bytes",
          "name": "enclavePubKey",
          "type": "bytes"
        }
      ],
      "name": "EnclaveKeyRevoked",
      "type": "event"
    },
    {
      "anonymous": false,
      "inputs": [
        {
          "indexed": true,
          "internalType": "address",
          "name": "enclaveKey",
          "type": "address"
        }
      ],
      "name": "EnclaveKeyRevoked2",
      "type": "event"
    },
    {
      "anonymous": false,
      "inputs": [
        {
          "indexed": true,
          "internalType": "bytes",
          "name": "enclavePubKey",
          "type": "bytes"
        },
        {
          "indexed": true,
          "internalType": "bytes32",
          "name": "imageId",
          "type": "bytes32"
        }
      ],
      "name": "EnclaveKeyVerified",
      "type": "event"
    },
    {
      "anonymous": false,
      "inputs": [
        {
          "indexed": true,
          "internalType": "bytes",
          "name": "enclavePubKey",
          "type": "bytes"
        },
        {
          "indexed": true,
          "internalType": "bytes32",
          "name": "imageId",
          "type": "bytes32"
        }
      ],
      "name": "EnclaveKeyWhitelisted",
      "type": "event"
    },
    {
      "anonymous": false,
      "inputs": [
        {
          "indexed": false,
          "internalType": "bytes",
          "name": "enclavePubKey",
          "type": "bytes"
        }
      ],
      "name": "GatewayDeregistered",
      "type": "event"
    },
    {
      "anonymous": false,
      "inputs": [
        {
          "indexed": false,
          "internalType": "bytes",
          "name": "enclavePubKey",
          "type": "bytes"
        },
        {
          "indexed": true,
          "internalType": "address",
          "name": "enclaveAddress",
          "type": "address"
        },
        {
          "indexed": true,
          "internalType": "address",
          "name": "operator",
          "type": "address"
        },
        {
          "indexed": false,
          "internalType": "uint256[]",
          "name": "chainIds",
          "type": "uint256[]"
        }
      ],
      "name": "GatewayRegistered",
      "type": "event"
    },
    {
      "anonymous": false,
      "inputs": [
        {
          "indexed": false,
          "internalType": "bytes",
          "name": "enclavePubKey",
          "type": "bytes"
        },
        {
          "indexed": false,
          "internalType": "uint256",
          "name": "addedAmount",
          "type": "uint256"
        },
        {
          "indexed": false,
          "internalType": "uint256",
          "name": "totalAmount",
          "type": "uint256"
        }
      ],
      "name": "GatewayStakeAdded",
      "type": "event"
    },
    {
      "anonymous": false,
      "inputs": [
        {
          "indexed": false,
          "internalType": "bytes",
          "name": "enclavePubKey",
          "type": "bytes"
        },
        {
          "indexed": false,
          "internalType": "uint256",
          "name": "removedAmount",
          "type": "uint256"
        },
        {
          "indexed": false,
          "internalType": "uint256",
          "name": "totalAmount",
          "type": "uint256"
        }
      ],
      "name": "GatewayStakeRemoved",
      "type": "event"
    },
    {
      "anonymous": false,
      "inputs": [
        {
          "indexed": false,
          "internalType": "uint64",
          "name": "version",
          "type": "uint64"
        }
      ],
      "name": "Initialized",
      "type": "event"
    },
    {
      "anonymous": false,
      "inputs": [
        {
          "indexed": true,
          "internalType": "bytes32",
          "name": "role",
          "type": "bytes32"
        },
        {
          "indexed": true,
          "internalType": "bytes32",
          "name": "previousAdminRole",
          "type": "bytes32"
        },
        {
          "indexed": true,
          "internalType": "bytes32",
          "name": "newAdminRole",
          "type": "bytes32"
        }
      ],
      "name": "RoleAdminChanged",
      "type": "event"
    },
    {
      "anonymous": false,
      "inputs": [
        {
          "indexed": true,
          "internalType": "bytes32",
          "name": "role",
          "type": "bytes32"
        },
        {
          "indexed": true,
          "internalType": "address",
          "name": "account",
          "type": "address"
        },
        {
          "indexed": true,
          "internalType": "address",
          "name": "sender",
          "type": "address"
        }
      ],
      "name": "RoleGranted",
      "type": "event"
    },
    {
      "anonymous": false,
      "inputs": [
        {
          "indexed": true,
          "internalType": "bytes32",
          "name": "role",
          "type": "bytes32"
        },
        {
          "indexed": true,
          "internalType": "address",
          "name": "account",
          "type": "address"
        },
        {
          "indexed": true,
          "internalType": "address",
          "name": "sender",
          "type": "address"
        }
      ],
      "name": "RoleRevoked",
      "type": "event"
    },
    {
      "anonymous": false,
      "inputs": [
        {
          "indexed": true,
          "internalType": "address",
          "name": "implementation",
          "type": "address"
        }
      ],
      "name": "Upgraded",
      "type": "event"
    },
    {
      "inputs": [],
      "name": "ATTESTATION_MAX_AGE",
      "outputs": [
        {
          "internalType": "uint256",
          "name": "",
          "type": "uint256"
        }
      ],
      "stateMutability": "view",
      "type": "function"
    },
    {
      "inputs": [],
      "name": "ATTESTATION_VERIFIER",
      "outputs": [
        {
          "internalType": "contract IAttestationVerifier",
          "name": "",
          "type": "address"
        }
      ],
      "stateMutability": "view",
      "type": "function"
    },
    {
      "inputs": [],
      "name": "DEFAULT_ADMIN_ROLE",
      "outputs": [
        {
          "internalType": "bytes32",
          "name": "",
          "type": "bytes32"
        }
      ],
      "stateMutability": "view",
      "type": "function"
    },
    {
      "inputs": [],
      "name": "UPGRADE_INTERFACE_VERSION",
      "outputs": [
        {
          "internalType": "string",
          "name": "",
          "type": "string"
        }
      ],
      "stateMutability": "view",
      "type": "function"
    },
    {
      "inputs": [
        {
          "internalType": "address",
          "name": "_admin",
          "type": "address"
        },
        {
          "components": [
            {
              "internalType": "bytes",
              "name": "PCR0",
              "type": "bytes"
            },
            {
              "internalType": "bytes",
              "name": "PCR1",
              "type": "bytes"
            },
            {
              "internalType": "bytes",
              "name": "PCR2",
              "type": "bytes"
            }
          ],
          "internalType": "struct AttestationAutherUpgradeable.EnclaveImage[]",
          "name": "_images",
          "type": "tuple[]"
        },
        {
          "internalType": "contract IERC20",
          "name": "_token",
          "type": "address"
        }
      ],
      "name": "__CommonChainGateways_init",
      "outputs": [],
      "stateMutability": "nonpayable",
      "type": "function"
    },
    {
      "inputs": [
        {
          "internalType": "uint256[]",
          "name": "_chainIds",
          "type": "uint256[]"
        },
        {
          "components": [
            {
              "internalType": "address",
              "name": "contractAddress",
              "type": "address"
            },
            {
              "internalType": "string",
              "name": "rpcUrl",
              "type": "string"
            }
          ],
          "internalType": "struct CommonChainGateways.RequestChain[]",
          "name": "_requestChains",
          "type": "tuple[]"
        }
      ],
      "name": "addChainGlobal",
      "outputs": [],
      "stateMutability": "nonpayable",
      "type": "function"
    },
    {
      "inputs": [
        {
          "internalType": "bytes",
          "name": "_enclavePubKey",
          "type": "bytes"
        },
        {
          "internalType": "uint256[]",
          "name": "_chainIds",
          "type": "uint256[]"
        }
      ],
      "name": "addChains",
      "outputs": [],
      "stateMutability": "nonpayable",
      "type": "function"
    },
    {
      "inputs": [
        {
          "internalType": "bytes",
          "name": "_enclavePubKey",
          "type": "bytes"
        },
        {
          "internalType": "uint256",
          "name": "_amount",
          "type": "uint256"
        }
      ],
      "name": "addGatewayStake",
      "outputs": [],
      "stateMutability": "nonpayable",
      "type": "function"
    },
    {
      "inputs": [
        {
          "internalType": "address",
          "name": "_key",
          "type": "address"
        }
      ],
      "name": "allowOnlyVerified",
      "outputs": [],
      "stateMutability": "view",
      "type": "function"
    },
    {
      "inputs": [
        {
          "internalType": "bytes",
          "name": "_enclavePubKey",
          "type": "bytes"
        }
      ],
      "name": "deregisterGateway",
      "outputs": [],
      "stateMutability": "nonpayable",
      "type": "function"
    },
    {
      "inputs": [
        {
          "internalType": "uint256",
          "name": "",
          "type": "uint256"
        }
      ],
      "name": "gatewayAddresses",
      "outputs": [
        {
          "internalType": "address",
          "name": "",
          "type": "address"
        }
      ],
      "stateMutability": "view",
      "type": "function"
    },
    {
      "inputs": [
        {
          "internalType": "address",
          "name": "",
          "type": "address"
        }
      ],
      "name": "gateways",
      "outputs": [
        {
          "internalType": "address",
          "name": "operator",
          "type": "address"
        },
        {
          "internalType": "uint256",
          "name": "stakeAmount",
          "type": "uint256"
        },
        {
          "internalType": "bool",
          "name": "status",
          "type": "bool"
        }
      ],
      "stateMutability": "view",
      "type": "function"
    },
    {
      "inputs": [
        {
          "internalType": "uint256",
          "name": "_chainId",
          "type": "uint256"
        }
      ],
      "name": "getActiveGatewaysForReqChain",
      "outputs": [
        {
          "components": [
            {
              "internalType": "address",
              "name": "operator",
              "type": "address"
            },
            {
              "internalType": "uint256[]",
              "name": "chainIds",
              "type": "uint256[]"
            },
            {
              "internalType": "uint256",
              "name": "stakeAmount",
              "type": "uint256"
            },
            {
              "internalType": "bool",
              "name": "status",
              "type": "bool"
            }
          ],
          "internalType": "struct CommonChainGateways.Gateway[]",
          "name": "",
          "type": "tuple[]"
        }
      ],
      "stateMutability": "view",
      "type": "function"
    },
    {
      "inputs": [
        {
          "internalType": "address",
          "name": "_address",
          "type": "address"
        }
      ],
      "name": "getGateway",
      "outputs": [
        {
          "internalType": "address",
          "name": "",
          "type": "address"
        },
        {
          "internalType": "uint256[]",
          "name": "",
          "type": "uint256[]"
        },
        {
          "internalType": "uint256",
          "name": "",
          "type": "uint256"
        },
        {
          "internalType": "bool",
          "name": "",
          "type": "bool"
        }
      ],
      "stateMutability": "view",
      "type": "function"
    },
    {
      "inputs": [
        {
          "internalType": "bytes32",
          "name": "role",
          "type": "bytes32"
        }
      ],
      "name": "getRoleAdmin",
      "outputs": [
        {
          "internalType": "bytes32",
          "name": "",
          "type": "bytes32"
        }
      ],
      "stateMutability": "view",
      "type": "function"
    },
    {
      "inputs": [
        {
          "internalType": "bytes32",
          "name": "role",
          "type": "bytes32"
        },
        {
          "internalType": "uint256",
          "name": "index",
          "type": "uint256"
        }
      ],
      "name": "getRoleMember",
      "outputs": [
        {
          "internalType": "address",
          "name": "",
          "type": "address"
        }
      ],
      "stateMutability": "view",
      "type": "function"
    },
    {
      "inputs": [
        {
          "internalType": "bytes32",
          "name": "role",
          "type": "bytes32"
        }
      ],
      "name": "getRoleMemberCount",
      "outputs": [
        {
          "internalType": "uint256",
          "name": "",
          "type": "uint256"
        }
      ],
      "stateMutability": "view",
      "type": "function"
    },
    {
      "inputs": [
        {
          "internalType": "address",
          "name": "_key",
          "type": "address"
        }
      ],
      "name": "getVerifiedKey",
      "outputs": [
        {
          "internalType": "bytes32",
          "name": "",
          "type": "bytes32"
        }
      ],
      "stateMutability": "view",
      "type": "function"
    },
    {
      "inputs": [
        {
          "internalType": "bytes32",
          "name": "_imageId",
          "type": "bytes32"
        }
      ],
      "name": "getWhitelistedImage",
      "outputs": [
        {
          "components": [
            {
              "internalType": "bytes",
              "name": "PCR0",
              "type": "bytes"
            },
            {
              "internalType": "bytes",
              "name": "PCR1",
              "type": "bytes"
            },
            {
              "internalType": "bytes",
              "name": "PCR2",
              "type": "bytes"
            }
          ],
          "internalType": "struct AttestationAutherUpgradeable.EnclaveImage",
          "name": "",
          "type": "tuple"
        }
      ],
      "stateMutability": "view",
      "type": "function"
    },
    {
      "inputs": [
        {
          "internalType": "bytes32",
          "name": "role",
          "type": "bytes32"
        },
        {
          "internalType": "address",
          "name": "account",
          "type": "address"
        }
      ],
      "name": "grantRole",
      "outputs": [],
      "stateMutability": "nonpayable",
      "type": "function"
    },
    {
      "inputs": [
        {
          "internalType": "bytes32",
          "name": "role",
          "type": "bytes32"
        },
        {
          "internalType": "address",
          "name": "account",
          "type": "address"
        }
      ],
      "name": "hasRole",
      "outputs": [
        {
          "internalType": "bool",
          "name": "",
          "type": "bool"
        }
      ],
      "stateMutability": "view",
      "type": "function"
    },
    {
      "inputs": [
        {
          "internalType": "uint256",
          "name": "_reqChainId",
          "type": "uint256"
        }
      ],
      "name": "isChainSupported",
      "outputs": [
        {
          "internalType": "bool",
          "name": "",
          "type": "bool"
        }
      ],
      "stateMutability": "view",
      "type": "function"
    },
    {
      "inputs": [
        {
          "internalType": "bytes32",
          "name": "imageId",
          "type": "bytes32"
        },
        {
          "internalType": "bytes32",
          "name": "family",
          "type": "bytes32"
        }
      ],
      "name": "isImageInFamily",
      "outputs": [
        {
          "internalType": "bool",
          "name": "",
          "type": "bool"
        }
      ],
      "stateMutability": "view",
      "type": "function"
    },
    {
      "inputs": [],
      "name": "proxiableUUID",
      "outputs": [
        {
          "internalType": "bytes32",
          "name": "",
          "type": "bytes32"
        }
      ],
      "stateMutability": "view",
      "type": "function"
    },
    {
      "inputs": [
        {
          "internalType": "bytes",
          "name": "_attestation",
          "type": "bytes"
        },
        {
          "internalType": "bytes",
          "name": "_enclavePubKey",
          "type": "bytes"
        },
        {
          "internalType": "bytes",
          "name": "_PCR0",
          "type": "bytes"
        },
        {
          "internalType": "bytes",
          "name": "_PCR1",
          "type": "bytes"
        },
        {
          "internalType": "bytes",
          "name": "_PCR2",
          "type": "bytes"
        },
        {
          "internalType": "uint256",
          "name": "_timestampInMilliseconds",
          "type": "uint256"
        },
        {
          "internalType": "uint256[]",
          "name": "_chainIds",
          "type": "uint256[]"
        },
        {
          "internalType": "bytes",
          "name": "_signature",
          "type": "bytes"
        },
        {
          "internalType": "uint256",
          "name": "_stakeAmount",
          "type": "uint256"
        }
      ],
      "name": "registerGateway",
      "outputs": [],
      "stateMutability": "nonpayable",
      "type": "function"
    },
    {
      "inputs": [
        {
          "internalType": "uint256[]",
          "name": "_chainIds",
          "type": "uint256[]"
        }
      ],
      "name": "removeChainGlobal",
      "outputs": [],
      "stateMutability": "nonpayable",
      "type": "function"
    },
    {
      "inputs": [
        {
          "internalType": "bytes",
          "name": "_enclavePubKey",
          "type": "bytes"
        },
        {
          "internalType": "uint256[]",
          "name": "_chainIds",
          "type": "uint256[]"
        }
      ],
      "name": "removeChains",
      "outputs": [],
      "stateMutability": "nonpayable",
      "type": "function"
    },
    {
      "inputs": [
        {
          "internalType": "bytes",
          "name": "_enclavePubKey",
          "type": "bytes"
        },
        {
          "internalType": "uint256",
          "name": "_amount",
          "type": "uint256"
        }
      ],
      "name": "removeGatewayStake",
      "outputs": [],
      "stateMutability": "nonpayable",
      "type": "function"
    },
    {
      "inputs": [
        {
          "internalType": "bytes32",
          "name": "role",
          "type": "bytes32"
        },
        {
          "internalType": "address",
          "name": "callerConfirmation",
          "type": "address"
        }
      ],
      "name": "renounceRole",
      "outputs": [],
      "stateMutability": "nonpayable",
      "type": "function"
    },
    {
      "inputs": [
        {
          "internalType": "uint256",
          "name": "",
          "type": "uint256"
        }
      ],
      "name": "requestChains",
      "outputs": [
        {
          "internalType": "address",
          "name": "contractAddress",
          "type": "address"
        },
        {
          "internalType": "string",
          "name": "rpcUrl",
          "type": "string"
        }
      ],
      "stateMutability": "view",
      "type": "function"
    },
    {
      "inputs": [
        {
          "internalType": "bytes32",
          "name": "role",
          "type": "bytes32"
        },
        {
          "internalType": "address",
          "name": "account",
          "type": "address"
        }
      ],
      "name": "revokeRole",
      "outputs": [],
      "stateMutability": "nonpayable",
      "type": "function"
    },
    {
      "inputs": [
        {
          "internalType": "contract IERC20",
          "name": "_token",
          "type": "address"
        }
      ],
      "name": "setTokenContract",
      "outputs": [],
      "stateMutability": "nonpayable",
      "type": "function"
    },
    {
      "inputs": [
        {
          "internalType": "bytes4",
          "name": "interfaceId",
          "type": "bytes4"
        }
      ],
      "name": "supportsInterface",
      "outputs": [
        {
          "internalType": "bool",
          "name": "",
          "type": "bool"
        }
      ],
      "stateMutability": "view",
      "type": "function"
    },
    {
      "inputs": [],
      "name": "token",
      "outputs": [
        {
          "internalType": "contract IERC20",
          "name": "",
          "type": "address"
        }
      ],
      "stateMutability": "view",
      "type": "function"
    },
    {
      "inputs": [
        {
          "internalType": "address",
          "name": "newImplementation",
          "type": "address"
        },
        {
          "internalType": "bytes",
          "name": "data",
          "type": "bytes"
        }
      ],
      "name": "upgradeToAndCall",
      "outputs": [],
      "stateMutability": "payable",
      "type": "function"
    },
    {
      "inputs": [
        {
          "internalType": "bytes",
          "name": "signature",
          "type": "bytes"
        },
        {
          "components": [
            {
              "internalType": "bytes",
              "name": "enclavePubKey",
              "type": "bytes"
            },
            {
              "internalType": "bytes",
              "name": "PCR0",
              "type": "bytes"
            },
            {
              "internalType": "bytes",
              "name": "PCR1",
              "type": "bytes"
            },
            {
              "internalType": "bytes",
              "name": "PCR2",
              "type": "bytes"
            },
            {
              "internalType": "uint256",
              "name": "timestampInMilliseconds",
              "type": "uint256"
            }
          ],
          "internalType": "struct IAttestationVerifier.Attestation",
          "name": "attestation",
          "type": "tuple"
        }
      ],
      "name": "verifyEnclaveKey",
      "outputs": [
        {
          "internalType": "bool",
          "name": "",
          "type": "bool"
        }
      ],
      "stateMutability": "nonpayable",
      "type": "function"
    }
  ],
  "bytecode": "0x60e06040523060c05234801561001457600080fd5b50604051614e1d380380614e1d83398101604081905261003391610157565b6001600160a01b03821660805260a08190527ff0c57e16840df040f15088dc2f81fe391c3923bec73e23a9662efc9c229c6a00805468010000000000000000810460ff1615906001600160401b031660008115801561008f5750825b90506000826001600160401b031660011480156100ab5750303b155b9050811580156100b9575080155b156100d75760405163f92ee8a960e01b815260040160405180910390fd5b84546001600160401b0319166001178555831561010557845460ff60401b1916680100000000000000001785555b831561014b57845460ff60401b19168555604051600181527fc7f505b2f371ae2175ee4913f4499e1f2633a7b5936321eed1cdaeb6115181d29060200160405180910390a15b50505050505050610191565b6000806040838503121561016a57600080fd5b82516001600160a01b038116811461018157600080fd5b6020939093015192949293505050565b60805160a05160c051614c416101dc600039600081816123dd01528181612406015261262e01526000818161065001526127400152600081816107bf01526127de0152614c416000f3fe60806040526004361061024f5760003560e01c806391d1485411610138578063cc101e00116100b0578063e0aba60a1161007f578063edc1c0df11610064578063edc1c0df14610861578063eff3be091461088f578063fc0c546a146108af57600080fd5b8063e0aba60a14610821578063ec6aef291461084157600080fd5b8063cc101e001461078d578063cd79f906146107ad578063d3b3f949146107e1578063d547741f1461080157600080fd5b8063a217fddf11610107578063bbcd5bbe116100ec578063bbcd5bbe1461071d578063bda009fe1461073d578063ca15c8731461076d57600080fd5b8063a217fddf146106b2578063ad3cb1cc146106c757600080fd5b806391d14854146105d95780639aec990e1461063e5780639c01de4114610672578063a0ac45d51461069257600080fd5b80634f1ef286116101cb5780635690e1cc1161019a57806375847b841161017f57806375847b84146105285780639010d07c146105485780639022c19c1461056857600080fd5b80635690e1cc146104af5780636b5b21a6146104cf57600080fd5b80634f1ef286146104175780635221c1f01461042a57806352d1902d146104625780635450c16b1461047757600080fd5b8063248a9ca3116102225780632f2ff15d116102075780632f2ff15d146103b757806336568abe146103d75780634abc64c2146103f757600080fd5b8063248a9ca31461033b5780632572647a1461038a57600080fd5b80630167847b1461025457806301d58fa31461027657806301ffc9a7146102de5780632410f6ba1461030e575b600080fd5b34801561026057600080fd5b5061027461026f366004613d96565b6108cf565b005b34801561028257600080fd5b506102cb610291366004613de0565b6001600160a01b031660009081527fc17b4b708b6f44255c20913a9d97a05300b670342c71fe5ae5b617bd4db55001602052604090205490565b6040519081526020015b60405180910390f35b3480156102ea57600080fd5b506102fe6102f9366004613dfd565b610a57565b60405190151581526020016102d5565b34801561031a57600080fd5b5061032e610329366004613e3f565b610a68565b6040516102d59190613ea8565b34801561034757600080fd5b506102cb610356366004613e3f565b60009081527f02dd7bc7dec4dceedda775e58dd541e08a116c6c53815c0bd028192f7b626800602052604090206001015490565b34801561039657600080fd5b506103aa6103a5366004613e3f565b610c86565b6040516102d59190613f3c565b3480156103c357600080fd5b506102746103d2366004613ff2565b610f1e565b3480156103e357600080fd5b506102746103f2366004613ff2565b610f68565b34801561040357600080fd5b5061027461041236600461409a565b610fb9565b6102746104253660046140fe565b6110c0565b34801561043657600080fd5b506102fe610445366004613e3f565b6000908152600160205260409020546001600160a01b0316151590565b34801561046e57600080fd5b506102cb6110db565b34801561048357600080fd5b50610497610492366004613e3f565b61110a565b6040516001600160a01b0390911681526020016102d5565b3480156104bb57600080fd5b506102746104ca366004614144565b611134565b3480156104db57600080fd5b506102fe6104ea366004614273565b60009081527fc17b4b708b6f44255c20913a9d97a05300b670342c71fe5ae5b617bd4db5500260209081526040808320938352929052205460ff1690565b34801561053457600080fd5b506102fe610543366004614295565b611390565b34801561055457600080fd5b50610497610563366004614273565b6113a3565b34801561057457600080fd5b506105b2610583366004613de0565b60026020819052600091825260409091208054918101546003909101546001600160a01b039092169160ff1683565b604080516001600160a01b03909416845260208401929092521515908201526060016102d5565b3480156105e557600080fd5b506102fe6105f4366004613ff2565b60009182527f02dd7bc7dec4dceedda775e58dd541e08a116c6c53815c0bd028192f7b626800602090815260408084206001600160a01b0393909316845291905290205460ff1690565b34801561064a57600080fd5b506102cb7f000000000000000000000000000000000000000000000000000000000000000081565b34801561067e57600080fd5b5061027461068d36600461439f565b6113e4565b34801561069e57600080fd5b506102746106ad366004613de0565b61151c565b3480156106be57600080fd5b506102cb600081565b3480156106d357600080fd5b506107106040518060400160405280600581526020017f352e302e3000000000000000000000000000000000000000000000000000000081525081565b6040516102d591906143e4565b34801561072957600080fd5b50610274610738366004613de0565b611528565b34801561074957600080fd5b5061075d610758366004613de0565b6115e0565b6040516102d59493929190614407565b34801561077957600080fd5b506102cb610788366004613e3f565b61167a565b34801561079957600080fd5b506102746107a836600461439f565b6116b2565b3480156107b957600080fd5b506104977f000000000000000000000000000000000000000000000000000000000000000081565b3480156107ed57600080fd5b506102746107fc366004614441565b6117da565b34801561080d57600080fd5b5061027461081c366004613ff2565b611a67565b34801561082d57600080fd5b5061027461083c366004614595565b611aab565b34801561084d57600080fd5b5061027461085c36600461409a565b611d81565b34801561086d57600080fd5b5061088161087c366004613e3f565b611e81565b6040516102d59291906145ca565b34801561089b57600080fd5b506102746108aa3660046145ec565b611f31565b3480156108bb57600080fd5b50600054610497906001600160a01b031681565b3360009081527fb7db2dd08fcb62d0c9e08c51941cae53c267786a0b75803fb7960902fc8ef97d602052604090205460ff166109525760405162461bcd60e51b815260206004820152600a60248201527f6f6e6c792061646d696e0000000000000000000000000000000000000000000060448201526064015b60405180910390fd5b60008151116109a35760405162461bcd60e51b815260206004820152600e60248201527f494e56414c49445f4c454e4754480000000000000000000000000000000000006044820152606401610949565b60005b8151811015610a535760008282815181106109c3576109c361471e565b60209081029190910181015160008181526001928390526040812080547fffffffffffffffffffffffff00000000000000000000000000000000000000001681559193509091610a1590830182613b80565b50506040518181527f5b9dc40648bfe840de770df10081e79f179534343348da4087dea77ba584d1819060200160405180910390a1506001016109a6565b5050565b6000610a6282612100565b92915050565b610a8c60405180606001604052806060815260200160608152602001606081525090565b60008281527fc17b4b708b6f44255c20913a9d97a05300b670342c71fe5ae5b617bd4db550006020819052604091829020825160608101909352805491929182908290610ad89061474d565b80601f0160208091040260200160405190810160405280929190818152602001828054610b049061474d565b8015610b515780601f10610b2657610100808354040283529160200191610b51565b820191906000526020600020905b815481529060010190602001808311610b3457829003601f168201915b50505050508152602001600182018054610b6a9061474d565b80601f0160208091040260200160405190810160405280929190818152602001828054610b969061474d565b8015610be35780601f10610bb857610100808354040283529160200191610be3565b820191906000526020600020905b815481529060010190602001808311610bc657829003601f168201915b50505050508152602001600282018054610bfc9061474d565b80601f0160208091040260200160405190810160405280929190818152602001828054610c289061474d565b8015610c755780601f10610c4a57610100808354040283529160200191610c75565b820191906000526020600020905b815481529060010190602001808311610c5857829003601f168201915b505050505081525050915050919050565b60035460609060009067ffffffffffffffff811115610ca757610ca7613c34565b604051908082528060200260200182016040528015610d0e57816020015b610cfb604051806080016040528060006001600160a01b0316815260200160608152602001600081526020016000151581525090565b815260200190600190039081610cc55790505b50905060005b600354811015610f17576002600060038381548110610d3557610d3561471e565b60009182526020808320909101546001600160a01b0316835282019290925260400190206003015460ff1615610f0f5760006002600060038481548110610d7e57610d7e61471e565b60009182526020808320909101546001600160a01b03168352828101939093526040918201902060010180548251818502810185019093528083529192909190830182828015610ded57602002820191906000526020600020905b815481526020019060010190808311610dd9575b5050505050905060005b8151811015610f0c5785828281518110610e1357610e1361471e565b602002602001015103610f04576002600060038581548110610e3757610e3761471e565b60009182526020808320909101546001600160a01b039081168452838201949094526040928301909120825160808101845281549094168452600181018054845181850281018501909552808552919385840193909290830182828015610ebd57602002820191906000526020600020905b815481526020019060010190808311610ea9575b50505091835250506002820154602082015260039091015460ff1615156040909101528451859085908110610ef457610ef461471e565b6020026020010181905250610f0c565b600101610df7565b50505b600101610d14565b5092915050565b60008281527f02dd7bc7dec4dceedda775e58dd541e08a116c6c53815c0bd028192f7b6268006020526040902060010154610f5881612156565b610f628383612160565b50505050565b6001600160a01b0381163314610faa576040517f6697b23200000000000000000000000000000000000000000000000000000000815260040160405180910390fd5b610fb4828261216c565b505050565b816000610fc5826121d4565b6001600160a01b038082166000908152600260205260409020549192501633146110315760405162461bcd60e51b815260206004820152601560248201527f4f4e4c595f474154455741595f4f50455241544f5200000000000000000000006044820152606401610949565b60008351116110825760405162461bcd60e51b815260206004820152601060248201527f454d5054595f5245515f434841494e53000000000000000000000000000000006044820152606401610949565b60005b83518110156110b9576110b1858583815181106110a4576110a461471e565b602002602001015161221d565b600101611085565b5050505050565b6110c86123d2565b6110d1826124a4565b610a538282612522565b60006110e5612623565b507f360894a13ba1a3210667c828492db98dca3e2076cc3735a920a3ca505d382bbc90565b6003818154811061111a57600080fd5b6000918252602090912001546001600160a01b0316905081565b611164896040518060a001604052808b81526020018a815260200189815260200188815260200187815250612685565b5061116f83836128ed565b611187336000546001600160a01b0316903084612931565b6000611192896121d4565b905060005b845181101561123a5760006001600160a01b0316600160008784815181106111c1576111c161471e565b6020908102919091018101518252810191909152604001600020546001600160a01b0316036112325760405162461bcd60e51b815260206004820152601160248201527f554e535550504f525445445f434841494e0000000000000000000000000000006044820152606401610949565b600101611197565b506003805460018082019092557fc2575a0e9e593c00f959f8c92f12db2869c3395a3b0502d05e2516446f71f85b0180546001600160a01b038481167fffffffffffffffffffffffff000000000000000000000000000000000000000092831681179093556040805160808101825233815260208082018b81528284018a9052606083018890526000968752600282529290952081518154941693909416929092178355518051919492936112f493850192910190613bba565b5060408201516002820155606090910151600390910180547fffffffffffffffffffffffffffffffffffffffffffffffffffffffffffffff0016911515919091179055336001600160a01b0316816001600160a01b03167f98d764e4e13736430425ae8d8bc6a5e8ec0569bd9b754206016f1077dca7fa428b8760405161137c9291906147a0565b60405180910390a350505050505050505050565b600061139c8383612685565b9392505050565b60008281527fc1f6fe24621ce81ec5827caf0253cadb74709b061630e6b55e823717059320006020819052604082206113dc90846129ad565b949350505050565b8160006113f0826121d4565b6001600160a01b0380821660009081526002602052604090205491925016331461145c5760405162461bcd60e51b815260206004820152601560248201527f4f4e4c595f474154455741595f4f50455241544f5200000000000000000000006044820152606401610949565b611474336000546001600160a01b0316903086612931565b600061147f856121d4565b90508360026000836001600160a01b03166001600160a01b0316815260200190815260200160002060020160008282546114b991906147f4565b90915550506001600160a01b038116600090815260026020819052604091829020015490517f9a719891db0e8e647d47fb1a5f64fea9a2c0d206db0b610c23f2cf1df52178239161150d9188918891614807565b60405180910390a15050505050565b611525816129b9565b50565b3360009081527fb7db2dd08fcb62d0c9e08c51941cae53c267786a0b75803fb7960902fc8ef97d602052604090205460ff166115a65760405162461bcd60e51b815260206004820152600a60248201527f6f6e6c792061646d696e000000000000000000000000000000000000000000006044820152606401610949565b600080547fffffffffffffffffffffffff0000000000000000000000000000000000000000166001600160a01b0392909216919091179055565b6001600160a01b038082166000908152600260208181526040808420805493810154600382015460018301805485518188028101880190965280865297986060988a988998969792169592949360ff169285919083018282801561166357602002820191906000526020600020905b81548152602001906001019080831161164f575b505050505092509450945094509450509193509193565b60008181527fc1f6fe24621ce81ec5827caf0253cadb74709b061630e6b55e8237170593200060208190526040822061139c90612a9e565b8160006116be826121d4565b6001600160a01b0380821660009081526002602052604090205491925016331461172a5760405162461bcd60e51b815260206004820152601560248201527f4f4e4c595f474154455741595f4f50455241544f5200000000000000000000006044820152606401610949565b611741336000546001600160a01b03169085612aa8565b600061174c856121d4565b90508360026000836001600160a01b03166001600160a01b031681526020019081526020016000206002016000828254611786919061482c565b90915550506001600160a01b038116600090815260026020819052604091829020015490517f162e2d134a088692c1bd7ca2e473a83d6ad3dcc4d7289b5cee9d342f4004d1b89161150d9188918891614807565b7ff0c57e16840df040f15088dc2f81fe391c3923bec73e23a9662efc9c229c6a00805468010000000000000000810460ff16159067ffffffffffffffff166000811580156118255750825b905060008267ffffffffffffffff1660011480156118425750303b155b905081158015611850575080155b15611887576040517ff92ee8a900000000000000000000000000000000000000000000000000000000815260040160405180910390fd5b84547fffffffffffffffffffffffffffffffffffffffffffffffff000000000000000016600117855583156118e85784547fffffffffffffffffffffffffffffffffffffffffffffff00ffffffffffffffff16680100000000000000001785555b6001600160a01b03881661193e5760405162461bcd60e51b815260206004820152601260248201527f5a45524f5f414444524553535f41444d494e00000000000000000000000000006044820152606401610949565b6001600160a01b0386166119945760405162461bcd60e51b815260206004820152601260248201527f5a45524f5f414444524553535f544f4b454e00000000000000000000000000006044820152606401610949565b61199c612ad9565b6119a4612ad9565b6119ac612ad9565b6119b587612ae1565b6119bd612ad9565b6119c8600089612160565b50600080547fffffffffffffffffffffffff0000000000000000000000000000000000000000166001600160a01b0388161790558315611a5d5784547fffffffffffffffffffffffffffffffffffffffffffffff00ffffffffffffffff168555604051600181527fc7f505b2f371ae2175ee4913f4499e1f2633a7b5936321eed1cdaeb6115181d29060200160405180910390a15b5050505050505050565b60008281527f02dd7bc7dec4dceedda775e58dd541e08a116c6c53815c0bd028192f7b6268006020526040902060010154611aa181612156565b610f62838361216c565b806000611ab7826121d4565b6001600160a01b03808216600090815260026020526040902054919250163314611b235760405162461bcd60e51b815260206004820152601560248201527f4f4e4c595f474154455741595f4f50455241544f5200000000000000000000006044820152606401610949565b6000611b2e846121d4565b6001600160a01b0380821660009081526002602052604090205491925016611b985760405162461bcd60e51b815260206004820152601360248201527f494e56414c49445f454e434c4156455f4b4559000000000000000000000000006044820152606401610949565b60035460005b81811015611be557826001600160a01b031660038281548110611bc357611bc361471e565b6000918252602090912001546001600160a01b031614611be557600101611b9e565b611bf060018361482c565b8114611c6e576003611c0360018461482c565b81548110611c1357611c1361471e565b600091825260209091200154600380546001600160a01b039092169183908110611c3f57611c3f61471e565b9060005260206000200160006101000a8154816001600160a01b0302191690836001600160a01b031602179055505b6003805480611c7f57611c7f61483f565b6000828152602080822083017fffffffffffffffffffffffffffffffffffffffffffffffffffffffffffffffff90810180547fffffffffffffffffffffffff000000000000000000000000000000000000000090811690915593019093556001600160a01b03861681526002909252604082208054909116815590611d076001830182613c05565b506000600282015560030180547fffffffffffffffffffffffffffffffffffffffffffffffffffffffffffffff00169055611d4186612b21565b507fcfdd9fda8828d739bda25c6f221393246d149dd1b7f6784acdb8ba0132722f2786604051611d7191906143e4565b60405180910390a1505050505050565b816000611d8d826121d4565b6001600160a01b03808216600090815260026020526040902054919250163314611df95760405162461bcd60e51b815260206004820152601560248201527f4f4e4c595f474154455741595f4f50455241544f5200000000000000000000006044820152606401610949565b6000835111611e4a5760405162461bcd60e51b815260206004820152601060248201527f454d5054595f5245515f434841494e53000000000000000000000000000000006044820152606401610949565b60005b83518110156110b957611e7985858381518110611e6c57611e6c61471e565b6020026020010151612b8c565b600101611e4d565b6001602081905260009182526040909120805491810180546001600160a01b0390931692611eae9061474d565b80601f0160208091040260200160405190810160405280929190818152602001828054611eda9061474d565b8015611f275780601f10611efc57610100808354040283529160200191611f27565b820191906000526020600020905b815481529060010190602001808311611f0a57829003601f168201915b5050505050905082565b3360009081527fb7db2dd08fcb62d0c9e08c51941cae53c267786a0b75803fb7960902fc8ef97d602052604090205460ff16611faf5760405162461bcd60e51b815260206004820152600a60248201527f6f6e6c792061646d696e000000000000000000000000000000000000000000006044820152606401610949565b60008251118015611fc1575080518251145b61200d5760405162461bcd60e51b815260206004820152600e60248201527f494e56414c49445f4c454e4754480000000000000000000000000000000000006044820152606401610949565b60005b8151811015610fb457600082828151811061202d5761202d61471e565b60200260200101519050600084838151811061204b5761204b61471e565b602090810291909101810151600081815260018084526040909120855181547fffffffffffffffffffffffff0000000000000000000000000000000000000000166001600160a01b0390911617815592850151919350849291908201906120b290826148be565b5050825160208401516040517f67dd8b8576f1455907cc1b4aa4623860ed1036d8ead856785f3d51bef810fa6393506120ee92859290916149ba565b60405180910390a15050600101612010565b60007fffffffff0000000000000000000000000000000000000000000000000000000082167f5a05180f000000000000000000000000000000000000000000000000000000001480610a625750610a6282612dd2565b6115258133612e69565b600061139c8383612ef6565b6000806121798484612f4d565b9050612185600061167a565b60000361139c5760405162461bcd60e51b815260206004820181905260248201527f41563a52522d416c6c2061646d696e732063616e742062652072656d6f7665646044820152606401610949565b60008151604014612211576040517fbd9c80c100000000000000000000000000000000000000000000000000000000815260040160405180910390fd5b50805160209091012090565b6000818152600160205260409020546001600160a01b03166122815760405162461bcd60e51b815260206004820152601160248201527f554e535550504f525445445f434841494e0000000000000000000000000000006044820152606401610949565b600061228c836121d4565b6001600160a01b0381166000908152600260209081526040808320600101805482518185028101850190935280835294955092939092918301828280156122f257602002820191906000526020600020905b8154815260200190600101908083116122de575b5050505050905060005b815181101561236257838282815181106123185761231861471e565b60200260200101510361235a576040517f625fc3a600000000000000000000000000000000000000000000000000000000815260048101859052602401610949565b6001016122fc565b506001600160a01b038216600090815260026020908152604080832060019081018054918201815584529190922001849055517f88cce4122801bcc715f3f1b2e894f26b07049a0d4c2d204c0c4ad87157f4e18c906123c490869086906149e2565b60405180910390a150505050565b306001600160a01b037f000000000000000000000000000000000000000000000000000000000000000016148061246b57507f00000000000000000000000000000000000000000000000000000000000000006001600160a01b031661245f7f360894a13ba1a3210667c828492db98dca3e2076cc3735a920a3ca505d382bbc546001600160a01b031690565b6001600160a01b031614155b156124a2576040517fe07c8dba00000000000000000000000000000000000000000000000000000000815260040160405180910390fd5b565b3360009081527fb7db2dd08fcb62d0c9e08c51941cae53c267786a0b75803fb7960902fc8ef97d602052604090205460ff166115255760405162461bcd60e51b815260206004820152600a60248201527f6f6e6c792061646d696e000000000000000000000000000000000000000000006044820152606401610949565b816001600160a01b03166352d1902d6040518163ffffffff1660e01b8152600401602060405180830381865afa92505050801561257c575060408051601f3d908101601f1916820190925261257991810190614a04565b60015b6125bd576040517f4c9c8ce30000000000000000000000000000000000000000000000000000000081526001600160a01b0383166004820152602401610949565b7f360894a13ba1a3210667c828492db98dca3e2076cc3735a920a3ca505d382bbc8114612619576040517faa1d49a400000000000000000000000000000000000000000000000000000000815260048101829052602401610949565b610fb48383612f9b565b306001600160a01b037f000000000000000000000000000000000000000000000000000000000000000016146124a2576040517fe07c8dba00000000000000000000000000000000000000000000000000000000815260040160405180910390fd5b6000807fc17b4b708b6f44255c20913a9d97a05300b670342c71fe5ae5b617bd4db55000905060008360200151846040015185606001516040516020016126ce93929190614a1d565b60408051601f19818403018152918152815160209283012060008181529285905291208054919250906127009061474d565b905060000361273b576040517f38c4ac1600000000000000000000000000000000000000000000000000000000815260040160405180910390fd5b6127657f00000000000000000000000000000000000000000000000000000000000000004261482c565b6103e885608001516127779190614a60565b116127ae576040517f19605e0a00000000000000000000000000000000000000000000000000000000815260040160405180910390fd5b6040517feac708a30000000000000000000000000000000000000000000000000000000081526001600160a01b037f0000000000000000000000000000000000000000000000000000000000000000169063eac708a3906128159088908890600401614a9b565b60006040518083038186803b15801561282d57600080fd5b505afa158015612841573d6000803e3d6000fd5b50505050600061285485600001516121d4565b6001600160a01b0381166000908152600185016020526040902054909150156128835760009350505050610a62565b6001600160a01b0381166000908152600184016020526040908190208390558551905183916128b191614b2f565b604051908190038120907ff4837f1a66a1e5fbde2c40d0f6eff75183139e79b0fc1eaab280a3a0be38e7b190600090a350600195945050505050565b6000826040516020016129009190614b4b565b60408051601f198184030181529190528051602090910120905060006129268284612ff1565b9050610f62816129b9565b6040516001600160a01b038481166024830152838116604483015260648201839052610f629186918216906323b872dd906084015b604051602081830303815290604052915060e01b6020820180517bffffffffffffffffffffffffffffffffffffffffffffffffffffffff838183161783525050505061301b565b600061139c8383613097565b6001600160a01b03811660009081527fc17b4b708b6f44255c20913a9d97a05300b670342c71fe5ae5b617bd4db5500160205260409020547fc17b4b708b6f44255c20913a9d97a05300b670342c71fe5ae5b617bd4db550009080612a4a576040517f3dd8ca9500000000000000000000000000000000000000000000000000000000815260040160405180910390fd5b60008181526020839052604090208054612a639061474d565b9050600003610fb4576040517f38c4ac1600000000000000000000000000000000000000000000000000000000815260040160405180910390fd5b6000610a62825490565b6040516001600160a01b03838116602483015260448201839052610fb491859182169063a9059cbb90606401612966565b6124a26130c1565b612ae96130c1565b60005b8151811015610a5357612b17828281518110612b0a57612b0a61471e565b6020026020010151613128565b5050600101612aec565b600080612b2d836121d4565b9050612b38816132d0565b612b455750600092915050565b82604051612b539190614b2f565b604051908190038120907ff910fd78b98e9574e8b6f0e42bc3a996a6aba3776ec20b9d85515bd74a6c8fe990600090a250600192915050565b6000612b97836121d4565b6001600160a01b038116600090815260026020908152604080832060010180548251818502810185019093528083529495509293909291830182828015612bfd57602002820191906000526020600020905b815481526020019060010190808311612be9575b5050835193945050508115159050612c575760405162461bcd60e51b815260206004820152600f60248201527f454d5054595f434841494e4c49535400000000000000000000000000000000006044820152606401610949565b60005b81811015612c8b5784838281518110612c7557612c7561471e565b60200260200101510315612c8b57600101612c5a565b818114612cc7576040517f4a7f43fa00000000000000000000000000000000000000000000000000000000815260048101869052602401610949565b612cd260018361482c565b8114612d61576001600160a01b0384166000908152600260205260409020600190810190612d00908461482c565b81548110612d1057612d1061471e565b906000526020600020015460026000866001600160a01b03166001600160a01b031681526020019081526020016000206001018281548110612d5457612d5461471e565b6000918252602090912001555b6001600160a01b0384166000908152600260205260409020600101805480612d8b57612d8b61483f565b600190038181906000526020600020016000905590557f23e9f2f63bc310edd7f3f83bb1e8fe39cd606aabe6a2530271f8037383aaf98c8686604051611d719291906149e2565b60007fffffffff0000000000000000000000000000000000000000000000000000000082167f7965db0b000000000000000000000000000000000000000000000000000000001480610a6257507f01ffc9a7000000000000000000000000000000000000000000000000000000007fffffffff00000000000000000000000000000000000000000000000000000000831614610a62565b60008281527f02dd7bc7dec4dceedda775e58dd541e08a116c6c53815c0bd028192f7b626800602090815260408083206001600160a01b038516845290915290205460ff16610a53576040517fe2517d3f0000000000000000000000000000000000000000000000000000000081526001600160a01b038216600482015260248101839052604401610949565b60007fc1f6fe24621ce81ec5827caf0253cadb74709b061630e6b55e8237170593200081612f248585613383565b905080156113dc576000858152602083905260409020612f449085613470565b50949350505050565b60007fc1f6fe24621ce81ec5827caf0253cadb74709b061630e6b55e8237170593200081612f7b8585613485565b905080156113dc576000858152602083905260409020612f449085613549565b612fa48261355e565b6040516001600160a01b038316907fbc7cd75a20ee27fd9adebab32041f755214dbc6bffa90cc0225b39da2e5c2d3b90600090a2805115612fe957610fb48282613606565b610a5361367c565b60008060008061300186866136b4565b9250925092506130118282613701565b5090949350505050565b60006130306001600160a01b03841683613805565b905080516000141580156130555750808060200190518101906130539190614b81565b155b15610fb4576040517f5274afe70000000000000000000000000000000000000000000000000000000081526001600160a01b0384166004820152602401610949565b60008260000182815481106130ae576130ae61471e565b9060005260206000200154905092915050565b7ff0c57e16840df040f15088dc2f81fe391c3923bec73e23a9662efc9c229c6a005468010000000000000000900460ff166124a2576040517fd7e6bcf800000000000000000000000000000000000000000000000000000000815260040160405180910390fd5b80515160009081907fc17b4b708b6f44255c20913a9d97a05300b670342c71fe5ae5b617bd4db5500090603014801561316657508360200151516030145b801561317757508360400151516030145b6131ad576040517f84c61bb600000000000000000000000000000000000000000000000000000000815260040160405180910390fd5b60008460000151856020015186604001516040516020016131d093929190614a1d565b60408051601f19818403018152918152815160209283012060008181529285905291208054919250906132029061474d565b15905061321457946000945092505050565b6040805160608101825286518152602080880151818301528783015182840152600084815290859052919091208151819061324f90826148be565b506020820151600182019061326490826148be565b506040820151600282019061327990826148be565b50905050807f52b29bbdd97ab983419f50fa1590e5ab75e9942279e95e10a08607b06c23238b8660000151876020015188604001516040516132bd93929190614ba3565b60405180910390a2946001945092505050565b6001600160a01b03811660009081527fc17b4b708b6f44255c20913a9d97a05300b670342c71fe5ae5b617bd4db5500160205260408120547fc17b4b708b6f44255c20913a9d97a05300b670342c71fe5ae5b617bd4db55000906133375750600092915050565b6001600160a01b0383166000818152600183016020526040808220829055517f43c77bddb18405fd78819d1d0a8a4e38d3ebc4c6fae9f7ec04ae0c0f7527b5079190a250600192915050565b60008281527f02dd7bc7dec4dceedda775e58dd541e08a116c6c53815c0bd028192f7b626800602081815260408084206001600160a01b038616855290915282205460ff16613466576000848152602082815260408083206001600160a01b0387168452909152902080547fffffffffffffffffffffffffffffffffffffffffffffffffffffffffffffff0016600117905561341c3390565b6001600160a01b0316836001600160a01b0316857f2f8788117e7eff1d82e926ec794901d17c78024a50270940304540a733656f0d60405160405180910390a46001915050610a62565b6000915050610a62565b600061139c836001600160a01b038416613813565b60008281527f02dd7bc7dec4dceedda775e58dd541e08a116c6c53815c0bd028192f7b626800602081815260408084206001600160a01b038616855290915282205460ff1615613466576000848152602082815260408083206001600160a01b038716808552925280832080547fffffffffffffffffffffffffffffffffffffffffffffffffffffffffffffff0016905551339287917ff6391f5c32d9c69d2a47ea670b442974b53935d1edc7fd64eb21e047a839171b9190a46001915050610a62565b600061139c836001600160a01b038416613862565b806001600160a01b03163b6000036135ad576040517f4c9c8ce30000000000000000000000000000000000000000000000000000000081526001600160a01b0382166004820152602401610949565b7f360894a13ba1a3210667c828492db98dca3e2076cc3735a920a3ca505d382bbc80547fffffffffffffffffffffffff0000000000000000000000000000000000000000166001600160a01b0392909216919091179055565b6060600080846001600160a01b0316846040516136239190614b2f565b600060405180830381855af49150503d806000811461365e576040519150601f19603f3d011682016040523d82523d6000602084013e613663565b606091505b509150915061367385838361394b565b95945050505050565b34156124a2576040517fb398979f00000000000000000000000000000000000000000000000000000000815260040160405180910390fd5b600080600083516041036136ee5760208401516040850151606086015160001a6136e0888285856139b9565b9550955095505050506136fa565b50508151600091506002905b9250925092565b600082600381111561371557613715614bdc565b0361371e575050565b600182600381111561373257613732614bdc565b03613769576040517ff645eedf00000000000000000000000000000000000000000000000000000000815260040160405180910390fd5b600282600381111561377d5761377d614bdc565b036137b7576040517ffce698f700000000000000000000000000000000000000000000000000000000815260048101829052602401610949565b60038260038111156137cb576137cb614bdc565b03610a53576040517fd78bce0c00000000000000000000000000000000000000000000000000000000815260048101829052602401610949565b606061139c83836000613a88565b600081815260018301602052604081205461385a57508154600181810184556000848152602080822090930184905584548482528286019093526040902091909155610a62565b506000610a62565b6000818152600183016020526040812054801561346657600061388660018361482c565b855490915060009061389a9060019061482c565b90508082146138ff5760008660000182815481106138ba576138ba61471e565b90600052602060002001549050808760000184815481106138dd576138dd61471e565b6000918252602080832090910192909255918252600188019052604090208390555b85548690806139105761391061483f565b600190038181906000526020600020016000905590558560010160008681526020019081526020016000206000905560019350505050610a62565b6060826139605761395b82613b3e565b61139c565b815115801561397757506001600160a01b0384163b155b15610f17576040517f9996b3150000000000000000000000000000000000000000000000000000000081526001600160a01b0385166004820152602401610949565b600080807f7fffffffffffffffffffffffffffffff5d576e7357a4501ddfe92f46681b20a08411156139f45750600091506003905082613a7e565b604080516000808252602082018084528a905260ff891692820192909252606081018790526080810186905260019060a0016020604051602081039080840390855afa158015613a48573d6000803e3d6000fd5b5050604051601f1901519150506001600160a01b038116613a7457506000925060019150829050613a7e565b9250600091508190505b9450945094915050565b606081471015613ac6576040517fcd786059000000000000000000000000000000000000000000000000000000008152306004820152602401610949565b600080856001600160a01b03168486604051613ae29190614b2f565b60006040518083038185875af1925050503d8060008114613b1f576040519150601f19603f3d011682016040523d82523d6000602084013e613b24565b606091505b5091509150613b3486838361394b565b9695505050505050565b805115613b4e5780518082602001fd5b6040517f1425ea4200000000000000000000000000000000000000000000000000000000815260040160405180910390fd5b508054613b8c9061474d565b6000825580601f10613b9c575050565b601f0160209004906000526020600020908101906115259190613c1f565b828054828255906000526020600020908101928215613bf5579160200282015b82811115613bf5578251825591602001919060010190613bda565b50613c01929150613c1f565b5090565b508054600082559060005260206000209081019061152591905b5b80821115613c015760008155600101613c20565b7f4e487b7100000000000000000000000000000000000000000000000000000000600052604160045260246000fd5b60405160a0810167ffffffffffffffff81118282101715613c8657613c86613c34565b60405290565b6040516060810167ffffffffffffffff81118282101715613c8657613c86613c34565b6040805190810167ffffffffffffffff81118282101715613c8657613c86613c34565b604051601f8201601f1916810167ffffffffffffffff81118282101715613cfb57613cfb613c34565b604052919050565b600067ffffffffffffffff821115613d1d57613d1d613c34565b5060051b60200190565b600082601f830112613d3857600080fd5b81356020613d4d613d4883613d03565b613cd2565b8083825260208201915060208460051b870101935086841115613d6f57600080fd5b602086015b84811015613d8b5780358352918301918301613d74565b509695505050505050565b600060208284031215613da857600080fd5b813567ffffffffffffffff811115613dbf57600080fd5b6113dc84828501613d27565b6001600160a01b038116811461152557600080fd5b600060208284031215613df257600080fd5b813561139c81613dcb565b600060208284031215613e0f57600080fd5b81357fffffffff000000000000000000000000000000000000000000000000000000008116811461139c57600080fd5b600060208284031215613e5157600080fd5b5035919050565b60005b83811015613e73578181015183820152602001613e5b565b50506000910152565b60008151808452613e94816020860160208601613e58565b601f01601f19169290920160200192915050565b602081526000825160606020840152613ec46080840182613e7c565b90506020840151601f1980858403016040860152613ee28383613e7c565b92506040860151915080858403016060860152506136738282613e7c565b60008151808452602080850194506020840160005b83811015613f3157815187529582019590820190600101613f15565b509495945050505050565b600060208083018184528085518083526040925060408601915060408160051b87010184880160005b83811015613fe4577fffffffffffffffffffffffffffffffffffffffffffffffffffffffffffffffc0898403018552815160806001600160a01b03825116855288820151818a870152613fba82870182613f00565b838a0151878b01526060938401511515939096019290925250509386019390860190600101613f65565b509098975050505050505050565b6000806040838503121561400557600080fd5b82359150602083013561401781613dcb565b809150509250929050565b600067ffffffffffffffff83111561403c5761403c613c34565b61404f6020601f19601f86011601613cd2565b905082815283838301111561406357600080fd5b828260208301376000602084830101529392505050565b600082601f83011261408b57600080fd5b61139c83833560208501614022565b600080604083850312156140ad57600080fd5b823567ffffffffffffffff808211156140c557600080fd5b6140d18683870161407a565b935060208501359150808211156140e757600080fd5b506140f485828601613d27565b9150509250929050565b6000806040838503121561411157600080fd5b823561411c81613dcb565b9150602083013567ffffffffffffffff81111561413857600080fd5b6140f48582860161407a565b60008060008060008060008060006101208a8c03121561416357600080fd5b893567ffffffffffffffff8082111561417b57600080fd5b6141878d838e0161407a565b9a5060208c013591508082111561419d57600080fd5b6141a98d838e0161407a565b995060408c01359150808211156141bf57600080fd5b6141cb8d838e0161407a565b985060608c01359150808211156141e157600080fd5b6141ed8d838e0161407a565b975060808c013591508082111561420357600080fd5b61420f8d838e0161407a565b965060a08c0135955060c08c013591508082111561422c57600080fd5b6142388d838e01613d27565b945060e08c013591508082111561424e57600080fd5b5061425b8c828d0161407a565b9250506101008a013590509295985092959850929598565b6000806040838503121561428657600080fd5b50508035926020909101359150565b600080604083850312156142a857600080fd5b823567ffffffffffffffff808211156142c057600080fd5b6142cc8683870161407a565b935060208501359150808211156142e257600080fd5b9084019060a082870312156142f657600080fd5b6142fe613c63565b82358281111561430d57600080fd5b6143198882860161407a565b82525060208301358281111561432e57600080fd5b61433a8882860161407a565b60208301525060408301358281111561435257600080fd5b61435e8882860161407a565b60408301525060608301358281111561437657600080fd5b6143828882860161407a565b606083015250608083013560808201528093505050509250929050565b600080604083850312156143b257600080fd5b823567ffffffffffffffff8111156143c957600080fd5b6143d58582860161407a565b95602094909401359450505050565b60208152600061139c6020830184613e7c565b803561440281613dcb565b919050565b6001600160a01b03851681526080602082015260006144296080830186613f00565b60408301949094525090151560609091015292915050565b60008060006060848603121561445657600080fd5b833561446181613dcb565b925060208481013567ffffffffffffffff8082111561447f57600080fd5b818701915087601f83011261449357600080fd5b81356144a1613d4882613d03565b81815260059190911b8301840190848101908a8311156144c057600080fd5b8585015b83811015614576578035858111156144db57600080fd5b86016060818e03601f190112156144f157600080fd5b6144f9613c8c565b888201358781111561450a57600080fd5b6145188f8b8386010161407a565b82525060408201358781111561452e5760008081fd5b61453c8f8b8386010161407a565b8a830152506060820135878111156145545760008081fd5b6145628f8b8386010161407a565b6040830152508452509186019186016144c4565b5080975050505050505061458c604085016143f7565b90509250925092565b6000602082840312156145a757600080fd5b813567ffffffffffffffff8111156145be57600080fd5b6113dc8482850161407a565b6001600160a01b03831681526040602082015260006113dc6040830184613e7c565b600080604080848603121561460057600080fd5b833567ffffffffffffffff8082111561461857600080fd5b61462487838801613d27565b945060209150818601358181111561463b57600080fd5b8601601f8101881361464c57600080fd5b803561465a613d4882613d03565b81815260059190911b8201840190848101908a83111561467957600080fd5b8584015b8381101561470c578035868111156146955760008081fd5b8501808d03601f19018913156146ab5760008081fd5b6146b3613caf565b888201356146c081613dcb565b8152818a0135888111156146d45760008081fd5b8083019250508d603f8301126146ea5760008081fd5b6146fa8e8a8401358c8501614022565b818a015284525091860191860161467d565b50809750505050505050509250929050565b7f4e487b7100000000000000000000000000000000000000000000000000000000600052603260045260246000fd5b600181811c9082168061476157607f821691505b60208210810361479a577f4e487b7100000000000000000000000000000000000000000000000000000000600052602260045260246000fd5b50919050565b6040815260006147b36040830185613e7c565b82810360208401526136738185613f00565b7f4e487b7100000000000000000000000000000000000000000000000000000000600052601160045260246000fd5b80820180821115610a6257610a626147c5565b60608152600061481a6060830186613e7c565b60208301949094525060400152919050565b81810381811115610a6257610a626147c5565b7f4e487b7100000000000000000000000000000000000000000000000000000000600052603160045260246000fd5b601f821115610fb4576000816000526020600020601f850160051c810160208610156148975750805b601f850160051c820191505b818110156148b6578281556001016148a3565b505050505050565b815167ffffffffffffffff8111156148d8576148d8613c34565b6148ec816148e6845461474d565b8461486e565b602080601f83116001811461493f57600084156149095750858301515b7fffffffffffffffffffffffffffffffffffffffffffffffffffffffffffffffff600386901b1c1916600185901b1785556148b6565b600085815260208120601f198616915b8281101561496e5788860151825594840194600190910190840161494f565b50858210156149aa57878501517fffffffffffffffffffffffffffffffffffffffffffffffffffffffffffffffff600388901b60f8161c191681555b5050505050600190811b01905550565b8381526001600160a01b03831660208201526060604082015260006136736060830184613e7c565b6040815260006149f56040830185613e7c565b90508260208301529392505050565b600060208284031215614a1657600080fd5b5051919050565b60008451614a2f818460208901613e58565b845190830190614a43818360208901613e58565b8451910190614a56818360208801613e58565b0195945050505050565b600082614a96577f4e487b7100000000000000000000000000000000000000000000000000000000600052601260045260246000fd5b500490565b604081526000614aae6040830185613e7c565b8281036020840152835160a08252614ac960a0830182613e7c565b905060208501518282036020840152614ae28282613e7c565b91505060408501518282036040840152614afc8282613e7c565b91505060608501518282036060840152614b168282613e7c565b9150506080850151608083015280925050509392505050565b60008251614b41818460208701613e58565b9190910192915050565b815160009082906020808601845b83811015614b7557815185529382019390820190600101614b59565b50929695505050505050565b600060208284031215614b9357600080fd5b8151801515811461139c57600080fd5b606081526000614bb66060830186613e7c565b8281036020840152614bc88186613e7c565b90508281036040840152613b348185613e7c565b7f4e487b7100000000000000000000000000000000000000000000000000000000600052602160045260246000fdfea2646970667358221220a5df7385b1e764cfe99124a56b80899a3b934fb475af2acd4cae1abf6be8220064736f6c63430008190033",
  "linkReferences": {},
  "deployedLinkReferences": {}
}