{
  "_format": "hh-sol-artifact-1",
  "contractName": "CommonChainJobs",
  "sourceName": "contracts/serverless-v2/CommonChainJobs.sol",
  "abi": [
    {
      "inputs": [],
      "stateMutability": "nonpayable",
      "type": "constructor"
    },
    {
      "inputs": [],
      "name": "AccessControlBadConfirmation",
      "type": "error"
    },
    {
      "inputs": [
        {
          "internalType": "address",
          "name": "account",
          "type": "address"
        },
        {
          "internalType": "bytes32",
          "name": "neededRole",
          "type": "bytes32"
        }
      ],
      "name": "AccessControlUnauthorizedAccount",
      "type": "error"
    },
    {
      "inputs": [
        {
          "internalType": "address",
          "name": "target",
          "type": "address"
        }
      ],
      "name": "AddressEmptyCode",
      "type": "error"
    },
    {
      "inputs": [],
      "name": "ECDSAInvalidSignature",
      "type": "error"
    },
    {
      "inputs": [
        {
          "internalType": "uint256",
          "name": "length",
          "type": "uint256"
        }
      ],
      "name": "ECDSAInvalidSignatureLength",
      "type": "error"
    },
    {
      "inputs": [
        {
          "internalType": "bytes32",
          "name": "s",
          "type": "bytes32"
        }
      ],
      "name": "ECDSAInvalidSignatureS",
      "type": "error"
    },
    {
      "inputs": [
        {
          "internalType": "address",
          "name": "implementation",
          "type": "address"
        }
      ],
      "name": "ERC1967InvalidImplementation",
      "type": "error"
    },
    {
      "inputs": [],
      "name": "ERC1967NonPayable",
      "type": "error"
    },
    {
      "inputs": [],
      "name": "FailedInnerCall",
      "type": "error"
    },
    {
      "inputs": [],
      "name": "InvalidInitialization",
      "type": "error"
    },
    {
      "inputs": [],
      "name": "NotInitializing",
      "type": "error"
    },
    {
      "inputs": [],
      "name": "UUPSUnauthorizedCallContext",
      "type": "error"
    },
    {
      "inputs": [
        {
          "internalType": "bytes32",
          "name": "slot",
          "type": "bytes32"
        }
      ],
      "name": "UUPSUnsupportedProxiableUUID",
      "type": "error"
    },
    {
      "anonymous": false,
      "inputs": [
        {
          "indexed": false,
          "internalType": "uint256",
          "name": "jobId",
          "type": "uint256"
        },
        {
          "indexed": true,
          "internalType": "address",
          "name": "prevGatewayOperator",
          "type": "address"
        },
        {
          "indexed": true,
          "internalType": "address",
          "name": "newGatewayOperator",
          "type": "address"
        }
      ],
      "name": "GatewayReassigned",
      "type": "event"
    },
    {
      "anonymous": false,
      "inputs": [
        {
          "indexed": false,
          "internalType": "uint64",
          "name": "version",
          "type": "uint64"
        }
      ],
      "name": "Initialized",
      "type": "event"
    },
    {
      "anonymous": false,
      "inputs": [
        {
          "indexed": true,
          "internalType": "uint256",
          "name": "jobId",
          "type": "uint256"
        },
        {
          "indexed": false,
          "internalType": "uint256",
          "name": "reqChainId",
          "type": "uint256"
        },
        {
          "indexed": false,
          "internalType": "bytes32",
          "name": "codehash",
          "type": "bytes32"
        },
        {
          "indexed": false,
          "internalType": "bytes",
          "name": "codeInputs",
          "type": "bytes"
        },
        {
          "indexed": false,
          "internalType": "uint256",
          "name": "deadline",
          "type": "uint256"
        },
        {
          "indexed": false,
          "internalType": "address",
          "name": "jobOwner",
          "type": "address"
        },
        {
          "indexed": false,
          "internalType": "address",
          "name": "gatewayOperator",
          "type": "address"
        },
        {
          "indexed": false,
          "internalType": "address[]",
          "name": "selectedExecutors",
          "type": "address[]"
        }
      ],
      "name": "JobRelayed",
      "type": "event"
    },
    {
      "anonymous": false,
      "inputs": [
        {
          "indexed": true,
          "internalType": "uint256",
          "name": "jobId",
          "type": "uint256"
        },
        {
          "indexed": true,
          "internalType": "uint256",
          "name": "chainId",
          "type": "uint256"
        },
        {
          "indexed": true,
          "internalType": "address",
          "name": "gatewayOperator",
          "type": "address"
        }
      ],
      "name": "JobResourceUnavailable",
      "type": "event"
    },
    {
      "anonymous": false,
      "inputs": [
        {
          "indexed": true,
          "internalType": "uint256",
          "name": "jobId",
          "type": "uint256"
        },
        {
          "indexed": false,
          "internalType": "bytes",
          "name": "output",
          "type": "bytes"
        },
        {
          "indexed": false,
          "internalType": "uint256",
          "name": "totalTime",
          "type": "uint256"
        },
        {
          "indexed": false,
          "internalType": "uint256",
          "name": "errorCode",
          "type": "uint256"
        },
        {
          "indexed": false,
          "internalType": "uint8",
          "name": "outputCount",
          "type": "uint8"
        }
      ],
      "name": "JobResponded",
      "type": "event"
    },
    {
      "anonymous": false,
      "inputs": [
        {
          "indexed": true,
          "internalType": "bytes32",
          "name": "role",
          "type": "bytes32"
        },
        {
          "indexed": true,
          "internalType": "bytes32",
          "name": "previousAdminRole",
          "type": "bytes32"
        },
        {
          "indexed": true,
          "internalType": "bytes32",
          "name": "newAdminRole",
          "type": "bytes32"
        }
      ],
      "name": "RoleAdminChanged",
      "type": "event"
    },
    {
      "anonymous": false,
      "inputs": [
        {
          "indexed": true,
          "internalType": "bytes32",
          "name": "role",
          "type": "bytes32"
        },
        {
          "indexed": true,
          "internalType": "address",
          "name": "account",
          "type": "address"
        },
        {
          "indexed": true,
          "internalType": "address",
          "name": "sender",
          "type": "address"
        }
      ],
      "name": "RoleGranted",
      "type": "event"
    },
    {
      "anonymous": false,
      "inputs": [
        {
          "indexed": true,
          "internalType": "bytes32",
          "name": "role",
          "type": "bytes32"
        },
        {
          "indexed": true,
          "internalType": "address",
          "name": "account",
          "type": "address"
        },
        {
          "indexed": true,
          "internalType": "address",
          "name": "sender",
          "type": "address"
        }
      ],
      "name": "RoleRevoked",
      "type": "event"
    },
    {
      "anonymous": false,
      "inputs": [
        {
          "indexed": false,
          "internalType": "uint256",
          "name": "jobId",
          "type": "uint256"
        },
        {
          "indexed": false,
          "internalType": "address[]",
          "name": "executors",
          "type": "address[]"
        }
      ],
      "name": "SlashedOnExecutionTimeout",
      "type": "event"
    },
    {
      "anonymous": false,
      "inputs": [
        {
          "indexed": true,
          "internalType": "address",
          "name": "implementation",
          "type": "address"
        }
      ],
      "name": "Upgraded",
      "type": "event"
    },
    {
      "inputs": [],
      "name": "DEFAULT_ADMIN_ROLE",
      "outputs": [
        {
          "internalType": "bytes32",
          "name": "",
          "type": "bytes32"
        }
      ],
      "stateMutability": "view",
      "type": "function"
    },
    {
      "inputs": [],
      "name": "UPGRADE_INTERFACE_VERSION",
      "outputs": [
        {
          "internalType": "string",
          "name": "",
          "type": "string"
        }
      ],
      "stateMutability": "view",
      "type": "function"
    },
    {
      "inputs": [
        {
          "internalType": "address",
          "name": "_admin",
          "type": "address"
        },
        {
          "internalType": "contract IERC20",
          "name": "_token",
          "type": "address"
        },
        {
          "internalType": "contract CommonChainGateways",
          "name": "_gateways",
          "type": "address"
        },
        {
          "internalType": "contract CommonChainExecutors",
          "name": "_executors",
          "type": "address"
        },
        {
          "internalType": "uint256",
          "name": "_relayBufferTime",
          "type": "uint256"
        },
        {
          "internalType": "uint256",
          "name": "_executionBufferTime",
          "type": "uint256"
        },
        {
          "internalType": "uint256",
          "name": "_noOfNodesToSelect",
          "type": "uint256"
        }
      ],
      "name": "__CommonChainJobs_init",
      "outputs": [],
      "stateMutability": "nonpayable",
      "type": "function"
    },
    {
      "inputs": [],
      "name": "executionBufferTime",
      "outputs": [
        {
          "internalType": "uint256",
          "name": "",
          "type": "uint256"
        }
      ],
      "stateMutability": "view",
      "type": "function"
    },
    {
      "inputs": [],
      "name": "executors",
      "outputs": [
        {
          "internalType": "contract CommonChainExecutors",
          "name": "",
          "type": "address"
        }
      ],
      "stateMutability": "view",
      "type": "function"
    },
    {
      "inputs": [],
      "name": "gateways",
      "outputs": [
        {
          "internalType": "contract CommonChainGateways",
          "name": "",
          "type": "address"
        }
      ],
      "stateMutability": "view",
      "type": "function"
    },
    {
      "inputs": [
        {
          "internalType": "bytes32",
          "name": "role",
          "type": "bytes32"
        }
      ],
      "name": "getRoleAdmin",
      "outputs": [
        {
          "internalType": "bytes32",
          "name": "",
          "type": "bytes32"
        }
      ],
      "stateMutability": "view",
      "type": "function"
    },
    {
      "inputs": [
        {
          "internalType": "bytes32",
          "name": "role",
          "type": "bytes32"
        },
        {
          "internalType": "uint256",
          "name": "index",
          "type": "uint256"
        }
      ],
      "name": "getRoleMember",
      "outputs": [
        {
          "internalType": "address",
          "name": "",
          "type": "address"
        }
      ],
      "stateMutability": "view",
      "type": "function"
    },
    {
      "inputs": [
        {
          "internalType": "bytes32",
          "name": "role",
          "type": "bytes32"
        }
      ],
      "name": "getRoleMemberCount",
      "outputs": [
        {
          "internalType": "uint256",
          "name": "",
          "type": "uint256"
        }
      ],
      "stateMutability": "view",
      "type": "function"
    },
    {
      "inputs": [
        {
          "internalType": "bytes32",
          "name": "role",
          "type": "bytes32"
        },
        {
          "internalType": "address",
          "name": "account",
          "type": "address"
        }
      ],
      "name": "grantRole",
      "outputs": [],
      "stateMutability": "nonpayable",
      "type": "function"
    },
    {
      "inputs": [
        {
          "internalType": "bytes32",
          "name": "role",
          "type": "bytes32"
        },
        {
          "internalType": "address",
          "name": "account",
          "type": "address"
        }
      ],
      "name": "hasRole",
      "outputs": [
        {
          "internalType": "bool",
          "name": "",
          "type": "bool"
        }
      ],
      "stateMutability": "view",
      "type": "function"
    },
    {
      "inputs": [
        {
          "internalType": "uint256",
          "name": "_jobId",
          "type": "uint256"
        },
        {
          "internalType": "address",
          "name": "_executor",
          "type": "address"
        }
      ],
      "name": "isJobExecutor",
      "outputs": [
        {
          "internalType": "bool",
          "name": "",
          "type": "bool"
        }
      ],
      "stateMutability": "view",
      "type": "function"
    },
    {
      "inputs": [
        {
          "internalType": "uint256",
          "name": "",
          "type": "uint256"
        }
      ],
      "name": "jobs",
      "outputs": [
        {
          "internalType": "uint256",
          "name": "reqChainId",
          "type": "uint256"
        },
        {
          "internalType": "bytes32",
          "name": "codehash",
          "type": "bytes32"
        },
        {
          "internalType": "bytes",
          "name": "codeInputs",
          "type": "bytes"
        },
        {
          "internalType": "uint256",
          "name": "deadline",
          "type": "uint256"
        },
        {
          "internalType": "uint256",
          "name": "execStartTime",
          "type": "uint256"
        },
        {
          "internalType": "address",
          "name": "jobOwner",
          "type": "address"
        },
        {
          "internalType": "address",
          "name": "gatewayOperator",
          "type": "address"
        },
        {
          "internalType": "uint8",
          "name": "outputCount",
          "type": "uint8"
        },
        {
          "internalType": "uint8",
          "name": "sequenceId",
          "type": "uint8"
        },
        {
          "internalType": "bool",
          "name": "isResourceUnavailable",
          "type": "bool"
        }
      ],
      "stateMutability": "view",
      "type": "function"
    },
    {
      "inputs": [],
      "name": "noOfNodesToSelect",
      "outputs": [
        {
          "internalType": "uint256",
          "name": "",
          "type": "uint256"
        }
      ],
      "stateMutability": "view",
      "type": "function"
    },
    {
      "inputs": [],
      "name": "proxiableUUID",
      "outputs": [
        {
          "internalType": "bytes32",
          "name": "",
          "type": "bytes32"
        }
      ],
      "stateMutability": "view",
      "type": "function"
    },
    {
      "inputs": [
        {
          "internalType": "address",
          "name": "_gatewayOperatorOld",
          "type": "address"
        },
        {
          "internalType": "uint256",
          "name": "_jobId",
          "type": "uint256"
        },
        {
          "internalType": "bytes",
          "name": "_signature",
          "type": "bytes"
        },
        {
          "internalType": "uint8",
          "name": "_sequenceId",
          "type": "uint8"
        }
      ],
      "name": "reassignGatewayRelay",
      "outputs": [],
      "stateMutability": "nonpayable",
      "type": "function"
    },
    {
      "inputs": [],
      "name": "relayBufferTime",
      "outputs": [
        {
          "internalType": "uint256",
          "name": "",
          "type": "uint256"
        }
      ],
      "stateMutability": "view",
      "type": "function"
    },
    {
      "inputs": [
        {
          "internalType": "bytes",
          "name": "_signature",
          "type": "bytes"
        },
        {
          "internalType": "uint256",
          "name": "_jobId",
          "type": "uint256"
        },
        {
          "internalType": "uint256",
          "name": "_reqChainId",
          "type": "uint256"
        },
        {
          "internalType": "bytes32",
          "name": "_codehash",
          "type": "bytes32"
        },
        {
          "internalType": "bytes",
          "name": "_codeInputs",
          "type": "bytes"
        },
        {
          "internalType": "uint256",
          "name": "_deadline",
          "type": "uint256"
        },
        {
          "internalType": "uint256",
          "name": "_jobRequestTimestamp",
          "type": "uint256"
        },
        {
          "internalType": "uint8",
          "name": "_sequenceId",
          "type": "uint8"
        },
        {
          "internalType": "address",
          "name": "_jobOwner",
          "type": "address"
        }
      ],
      "name": "relayJob",
      "outputs": [],
      "stateMutability": "nonpayable",
      "type": "function"
    },
    {
      "inputs": [
        {
          "internalType": "bytes32",
          "name": "role",
          "type": "bytes32"
        },
        {
          "internalType": "address",
          "name": "callerConfirmation",
          "type": "address"
        }
      ],
      "name": "renounceRole",
      "outputs": [],
      "stateMutability": "nonpayable",
      "type": "function"
    },
    {
      "inputs": [
        {
          "internalType": "bytes32",
          "name": "role",
          "type": "bytes32"
        },
        {
          "internalType": "address",
          "name": "account",
          "type": "address"
        }
      ],
      "name": "revokeRole",
      "outputs": [],
      "stateMutability": "nonpayable",
      "type": "function"
    },
    {
      "inputs": [
        {
          "internalType": "uint256",
          "name": "",
          "type": "uint256"
        },
        {
          "internalType": "uint256",
          "name": "",
          "type": "uint256"
        }
      ],
      "name": "selectedExecutors",
      "outputs": [
        {
          "internalType": "address",
          "name": "",
          "type": "address"
        }
      ],
      "stateMutability": "view",
      "type": "function"
    },
    {
      "inputs": [
        {
          "internalType": "contract CommonChainExecutors",
          "name": "_executors",
          "type": "address"
        }
      ],
      "name": "setExecutorsContract",
      "outputs": [],
      "stateMutability": "nonpayable",
      "type": "function"
    },
    {
      "inputs": [
        {
          "internalType": "contract CommonChainGateways",
          "name": "_gateways",
          "type": "address"
        }
      ],
      "name": "setGatewaysContract",
      "outputs": [],
      "stateMutability": "nonpayable",
      "type": "function"
    },
    {
      "inputs": [
        {
          "internalType": "contract IERC20",
          "name": "_token",
          "type": "address"
        }
      ],
      "name": "setTokenContract",
      "outputs": [],
      "stateMutability": "nonpayable",
      "type": "function"
    },
    {
      "inputs": [
        {
          "internalType": "uint256",
          "name": "_jobId",
          "type": "uint256"
        }
      ],
      "name": "slashOnExecutionTimeout",
      "outputs": [],
      "stateMutability": "nonpayable",
      "type": "function"
    },
    {
      "inputs": [
        {
          "internalType": "bytes",
          "name": "_signature",
          "type": "bytes"
        },
        {
          "internalType": "uint256",
          "name": "_jobId",
          "type": "uint256"
        },
        {
          "internalType": "bytes",
          "name": "_output",
          "type": "bytes"
        },
        {
          "internalType": "uint256",
          "name": "_totalTime",
          "type": "uint256"
        },
        {
          "internalType": "uint8",
          "name": "_errorCode",
          "type": "uint8"
        }
      ],
      "name": "submitOutput",
      "outputs": [],
      "stateMutability": "nonpayable",
      "type": "function"
    },
    {
      "inputs": [
        {
          "internalType": "bytes4",
          "name": "interfaceId",
          "type": "bytes4"
        }
      ],
      "name": "supportsInterface",
      "outputs": [
        {
          "internalType": "bool",
          "name": "",
          "type": "bool"
        }
      ],
      "stateMutability": "view",
      "type": "function"
    },
    {
      "inputs": [],
      "name": "token",
      "outputs": [
        {
          "internalType": "contract IERC20",
          "name": "",
          "type": "address"
        }
      ],
      "stateMutability": "view",
      "type": "function"
    },
    {
      "inputs": [
        {
          "internalType": "address",
          "name": "newImplementation",
          "type": "address"
        },
        {
          "internalType": "bytes",
          "name": "data",
          "type": "bytes"
        }
      ],
      "name": "upgradeToAndCall",
      "outputs": [],
      "stateMutability": "payable",
      "type": "function"
    }
  ],
  "bytecode": "0x60a06040523060805234801561001457600080fd5b507ff0c57e16840df040f15088dc2f81fe391c3923bec73e23a9662efc9c229c6a00805468010000000000000000810460ff1615906001600160401b031660008115801561005f5750825b90506000826001600160401b0316600114801561007b5750303b155b905081158015610089575080155b156100a75760405163f92ee8a960e01b815260040160405180910390fd5b84546001600160401b031916600117855583156100d557845460ff60401b1916680100000000000000001785555b831561011b57845460ff60401b19168555604051600181527fc7f505b2f371ae2175ee4913f4499e1f2633a7b5936321eed1cdaeb6115181d29060200160405180910390a15b505050505060805161367e61014960003960008181611e1601528181611e3f0152612065015261367e6000f3fe6080604052600436106101c25760003560e01c80639010d07c116100f7578063bbcd5bbe11610095578063da4dd3b111610064578063da4dd3b1146105ad578063e52e63c5146105cd578063fc0c546a146105ed578063fdd165d71461060d57600080fd5b8063bbcd5bbe1461052d578063ca15c8731461054d578063d547741f1461056d578063d7e4ee651461058d57600080fd5b8063a217fddf116100d1578063a217fddf1461048c578063a8986930146104a1578063accc7f2e146104b7578063ad3cb1cc146104d757600080fd5b80639010d07c146103e757806391d148541461040757806395e11ef71461046c57600080fd5b806336568abe116101645780636361df6b1161013e5780636361df6b1461037157806371b9eae114610391578063728d21b0146103b157806377cba036146103c757600080fd5b806336568abe146103295780634f1ef2861461034957806352d1902d1461035c57600080fd5b80631a3516c6116101a05780631a3516c61461026a578063248a9ca31461028c5780632f2ff15d146102e95780633651cf281461030957600080fd5b806301ffc9a7146101c7578063093a86d3146101fc578063180aedf314610234575b600080fd5b3480156101d357600080fd5b506101e76101e2366004612bd6565b610623565b60405190151581526020015b60405180910390f35b34801561020857600080fd5b5060015461021c906001600160a01b031681565b6040516001600160a01b0390911681526020016101f3565b34801561024057600080fd5b5061025461024f366004612c18565b610634565b6040516101f39a99989796959493929190612c81565b34801561027657600080fd5b5061028a610285366004612d04565b61075d565b005b34801561029857600080fd5b506102db6102a7366004612c18565b60009081527f02dd7bc7dec4dceedda775e58dd541e08a116c6c53815c0bd028192f7b626800602052604090206001015490565b6040519081526020016101f3565b3480156102f557600080fd5b5061028a610304366004612d7b565b6109c5565b34801561031557600080fd5b5061021c610324366004612dab565b610a0f565b34801561033557600080fd5b5061028a610344366004612d7b565b610a47565b61028a610357366004612e9d565b610a98565b34801561036857600080fd5b506102db610ab7565b34801561037d57600080fd5b5061028a61038c366004612f03565b610ae6565b34801561039d57600080fd5b5061028a6103ac366004612f8b565b610d75565b3480156103bd57600080fd5b506102db60045481565b3480156103d357600080fd5b506101e76103e2366004612d7b565b610e2d565b3480156103f357600080fd5b5061021c610402366004612dab565b610efd565b34801561041357600080fd5b506101e7610422366004612d7b565b60009182527f02dd7bc7dec4dceedda775e58dd541e08a116c6c53815c0bd028192f7b626800602090815260408084206001600160a01b0393909316845291905290205460ff1690565b34801561047857600080fd5b5061028a610487366004612c18565b610f3e565b34801561049857600080fd5b506102db600081565b3480156104ad57600080fd5b506102db60055481565b3480156104c357600080fd5b5061028a6104d2366004612fa8565b61117d565b3480156104e357600080fd5b506105206040518060400160405280600581526020017f352e302e3000000000000000000000000000000000000000000000000000000081525081565b6040516101f39190613062565b34801561053957600080fd5b5061028a610548366004612f8b565b611876565b34801561055957600080fd5b506102db610568366004612c18565b61192e565b34801561057957600080fd5b5061028a610588366004612d7b565b61196d565b34801561059957600080fd5b5061028a6105a8366004612f8b565b6119b1565b3480156105b957600080fd5b5061028a6105c8366004613075565b611a69565b3480156105d957600080fd5b5060025461021c906001600160a01b031681565b3480156105f957600080fd5b5060005461021c906001600160a01b031681565b34801561061957600080fd5b506102db60035481565b600061062e82611d2a565b92915050565b6006602052600090815260409020805460018201546002830180549293919261065c906130df565b80601f0160208091040260200160405190810160405280929190818152602001828054610688906130df565b80156106d55780601f106106aa576101008083540402835291602001916106d5565b820191906000526020600020905b8154815290600101906020018083116106b857829003601f168201915b505050600384015460048501546005860154600690960154949591949093506001600160a01b0391821692509081169060ff74010000000000000000000000000000000000000000820481169175010000000000000000000000000000000000000000008104821691760100000000000000000000000000000000000000000000909104168a565b7ff0c57e16840df040f15088dc2f81fe391c3923bec73e23a9662efc9c229c6a00805468010000000000000000810460ff16159067ffffffffffffffff166000811580156107a85750825b905060008267ffffffffffffffff1660011480156107c55750303b155b9050811580156107d3575080155b1561080a576040517ff92ee8a900000000000000000000000000000000000000000000000000000000815260040160405180910390fd5b84547fffffffffffffffffffffffffffffffffffffffffffffffff0000000000000000166001178555831561086b5784547fffffffffffffffffffffffffffffffffffffffffffffff00ffffffffffffffff16680100000000000000001785555b6001600160a01b038c166108c65760405162461bcd60e51b815260206004820152601260248201527f5a45524f5f414444524553535f41444d494e000000000000000000000000000060448201526064015b60405180910390fd5b6108ce611d80565b6108d6611d80565b6108de611d80565b6108e6611d80565b6108f160008d611d8a565b50600080546001600160a01b03808e167fffffffffffffffffffffffff000000000000000000000000000000000000000092831617909255600180548d841690831617905560028054928c169290911691909117905560038890556004879055600586905583156109b75784547fffffffffffffffffffffffffffffffffffffffffffffff00ffffffffffffffff168555604051600181527fc7f505b2f371ae2175ee4913f4499e1f2633a7b5936321eed1cdaeb6115181d29060200160405180910390a15b505050505050505050505050565b60008281527f02dd7bc7dec4dceedda775e58dd541e08a116c6c53815c0bd028192f7b62680060205260409020600101546109ff81611d96565b610a098383611d8a565b50505050565b60076020528160005260406000208181548110610a2b57600080fd5b6000918252602090912001546001600160a01b03169150829050565b6001600160a01b0381163314610a89576040517f6697b23200000000000000000000000000000000000000000000000000000000815260040160405180910390fd5b610a938282611da3565b505050565b610aa0611e0b565b610aa982611edb565b610ab38282611f59565b5050565b6000610ac161205a565b507f360894a13ba1a3210667c828492db98dca3e2076cc3735a920a3ca505d382bbc90565b60048054600086815260066020526040902060038101549201549091610b0b91613161565b610b159190613161565b421115610b645760405162461bcd60e51b815260206004820152601360248201527f455845435554494f4e5f54494d455f4f5645520000000000000000000000000060448201526064016108bd565b600084848484604051602001610b7d9493929190613174565b60408051601f19818403018152919052805160209091012090506000610ba382886120bc565b6002546040517fa0ac45d50000000000000000000000000000000000000000000000000000000081526001600160a01b03808416600483015292935091169063a0ac45d59060240160006040518083038186803b158015610c0357600080fd5b505afa158015610c17573d6000803e3d6000fd5b50505050610c258682610e2d565b610c715760405162461bcd60e51b815260206004820152601560248201527f4e4f545f53454c45435445445f4558454355544f52000000000000000000000060448201526064016108bd565b6002546040517fb91582010000000000000000000000000000000000000000000000000000000081526001600160a01b0383811660048301529091169063b915820190602401600060405180830381600087803b158015610cd157600080fd5b505af1158015610ce5573d6000803e3d6000fd5b50505050857f8fc6b8b59d0ff3436773bd2fa42b72163ff74598764f7e02bbcfc75afb425160868686600660008c8152602001908152602001600020600601601481819054906101000a900460ff16610d3d906131a7565b91906101000a81548160ff021916908360ff1602179055604051610d6494939291906131c6565b60405180910390a250505050505050565b3360009081527fb7db2dd08fcb62d0c9e08c51941cae53c267786a0b75803fb7960902fc8ef97d602052604090205460ff16610df35760405162461bcd60e51b815260206004820152600a60248201527f6f6e6c792061646d696e0000000000000000000000000000000000000000000060448201526064016108bd565b600280547fffffffffffffffffffffffff0000000000000000000000000000000000000000166001600160a01b0392909216919091179055565b600082815260076020908152604080832080548251818502810185019093528083528493830182828015610e8a57602002820191906000526020600020905b81546001600160a01b03168152600190910190602001808311610e6c575b5050506000878152600760205260408120549394509150505b81811015610ef157846001600160a01b0316838281518110610ec757610ec76131f9565b60200260200101516001600160a01b031603610ee9576001935050505061062e565b600101610ea3565b50600095945050505050565b60008281527fc1f6fe24621ce81ec5827caf0253cadb74709b061630e6b55e82371705932000602081905260408220610f3690846120e6565b949350505050565b60048054600083815260066020526040902060038101549201549091610f6391613161565b610f6d9190613161565b4211610fbb5760405162461bcd60e51b815260206004820152601160248201527f444541444c494e455f4e4f545f4f56455200000000000000000000000000000060448201526064016108bd565b60008181526006602052604081208181556001810182905590610fe16002830182612aec565b50600060038201819055600482018190556005820180547fffffffffffffffffffffffff0000000000000000000000000000000000000000169055600690910180547fffffffffffffffffff000000000000000000000000000000000000000000000016905581815260076020526040812054905b8181101561111d57600254600084815260076020526040902080546001600160a01b0390921691638d816ec3919084908110611094576110946131f9565b60009182526020909120015460405160e083901b7fffffffff000000000000000000000000000000000000000000000000000000001681526001600160a01b039091166004820152602401600060405180830381600087803b1580156110f957600080fd5b505af115801561110d573d6000803e3d6000fd5b5050600190920191506110569050565b506000828152600760205260409081902090517f028662a7b04c153b66537cb788297aa2b4f14412cc5830ff5c5748231924f9c69161115e91859190613228565b60405180910390a16000828152600760205260408120610ab391612b26565b60035461118a9084613161565b4211156111d95760405162461bcd60e51b815260206004820152600f60248201527f52454c41595f54494d455f4f564552000000000000000000000000000000000060448201526064016108bd565b60008881526006602081905260409091200154760100000000000000000000000000000000000000000000900460ff161561127c5760405162461bcd60e51b815260206004820152602860248201527f4a4f425f4d41524b45445f454e4445445f41535f5245534f555243455f554e4160448201527f5641494c41424c4500000000000000000000000000000000000000000000000060648201526084016108bd565b600088815260066020819052604090912001546112b6907501000000000000000000000000000000000000000000900460ff166001613286565b60ff168260ff161461130a5760405162461bcd60e51b815260206004820152601360248201527f494e56414c49445f53455155454e43455f49440000000000000000000000000060448201526064016108bd565b600088815260066020526040902060040154156113695760405162461bcd60e51b815260206004820152601360248201527f4a4f425f414c52454144595f52454c415945440000000000000000000000000060448201526064016108bd565b6001546040517f5221c1f0000000000000000000000000000000000000000000000000000000008152600481018990526001600160a01b0390911690635221c1f090602401602060405180830381865afa1580156113cb573d6000803e3d6000fd5b505050506040513d601f19601f820116820180604052508101906113ef919061329f565b61143b5760405162461bcd60e51b815260206004820152601160248201527f554e535550504f525445445f434841494e00000000000000000000000000000060448201526064016108bd565b6000888888888888888860405160200161145c9897969594939291906132c1565b60408051601f19818403018152919052805160209091012090506000611482828c6120bc565b6001546040517fa0ac45d50000000000000000000000000000000000000000000000000000000081526001600160a01b03808416600483015292935091169063a0ac45d59060240160006040518083038186803b1580156114e257600080fd5b505afa1580156114f6573d6000803e3d6000fd5b50506002546005546040517f5f6531e80000000000000000000000000000000000000000000000000000000081526004810191909152600093506001600160a01b039091169150635f6531e8906024016000604051808303816000875af1158015611565573d6000803e3d6000fd5b505050506040513d6000823e601f3d908101601f1916820160405261158d919081019061331b565b9050600554815110156116315760008b81526006602081905260409091200180547fffffffffffffffffff00ffffffffffffffffffffffffffffffffffffffffffff167601000000000000000000000000000000000000000000001790556115f23390565b6001600160a01b03168a8c7f4ebb21ff905f5d90620c48c9f4b007dce57e7255ae474507566f5fe529568a3c60405160405180910390a450505061186b565b60008b8152600760209081526040909120825161165092840190612b44565b506040518061014001604052808b81526020018a8152602001898152602001888152602001428152602001856001600160a01b031681526020016116913390565b6001600160a01b031681526000602080830182905260ff891660408085019190915260609093018290528e82526006815290829020835181559083015160018201559082015160028201906116e6908261341d565b50606082015160038201556080820151600482015560a08201516005820180547fffffffffffffffffffffffff0000000000000000000000000000000000000000166001600160a01b0392831617905560c08301516006909201805460e085015161010086015161012090960151949093167fffffffffffffffffffffff000000000000000000000000000000000000000000909116177401000000000000000000000000000000000000000060ff93841602177fffffffffffffffffff0000ffffffffffffffffffffffffffffffffffffffffff16750100000000000000000000000000000000000000000092909416919091027fffffffffffffffffff00ffffffffffffffffffffffffffffffffffffffffffff1692909217760100000000000000000000000000000000000000000000911515919091021790558a7fb51249bf719b85583328439685b75cb2a06fdddb25305d70151caf8d2e95d2e28b8b8b8b89338860405161185f9796959493929190613519565b60405180910390a25050505b505050505050505050565b3360009081527fb7db2dd08fcb62d0c9e08c51941cae53c267786a0b75803fb7960902fc8ef97d602052604090205460ff166118f45760405162461bcd60e51b815260206004820152600a60248201527f6f6e6c792061646d696e0000000000000000000000000000000000000000000060448201526064016108bd565b600080547fffffffffffffffffffffffff0000000000000000000000000000000000000000166001600160a01b0392909216919091179055565b60008181527fc1f6fe24621ce81ec5827caf0253cadb74709b061630e6b55e82371705932000602081905260408220611966906120f2565b9392505050565b60008281527f02dd7bc7dec4dceedda775e58dd541e08a116c6c53815c0bd028192f7b62680060205260409020600101546119a781611d96565b610a098383611da3565b3360009081527fb7db2dd08fcb62d0c9e08c51941cae53c267786a0b75803fb7960902fc8ef97d602052604090205460ff16611a2f5760405162461bcd60e51b815260206004820152600a60248201527f6f6e6c792061646d696e0000000000000000000000000000000000000000000060448201526064016108bd565b600180547fffffffffffffffffffffffff0000000000000000000000000000000000000000166001600160a01b0392909216919091179055565b60008381526006602081905260409091200154760100000000000000000000000000000000000000000000900460ff1615611b0c5760405162461bcd60e51b815260206004820152602860248201527f4a4f425f4d41524b45445f454e4445445f41535f5245534f555243455f554e4160448201527f5641494c41424c4500000000000000000000000000000000000000000000000060648201526084016108bd565b60008381526006602081905260409091200154611b46907501000000000000000000000000000000000000000000900460ff166001613286565b60ff168160ff16148015611b5d575060038160ff16105b611ba95760405162461bcd60e51b815260206004820152601360248201527f494e56414c49445f53455155454e43455f49440000000000000000000000000060448201526064016108bd565b6000838152600660208181526040808420909201805460ff86167501000000000000000000000000000000000000000000027fffffffffffffffffffff00ffffffffffffffffffffffffffffffffffffffffff9091161790559051611c3191869188918691019283526001600160a01b0391909116602083015260ff16604082015260600190565b60408051601f19818403018152919052805160209091012090506000611c5782856120bc565b6001546040517fa0ac45d50000000000000000000000000000000000000000000000000000000081526001600160a01b03808416600483015292935091169063a0ac45d59060240160006040518083038186803b158015611cb757600080fd5b505afa158015611ccb573d6000803e3d6000fd5b50505050611cd63390565b6001600160a01b0316866001600160a01b03167f8b7c31ce9ded31107fcb4bfabbf28198eb7426f50084e26df70e22525d9b6b0e87604051611d1a91815260200190565b60405180910390a3505050505050565b60007fffffffff0000000000000000000000000000000000000000000000000000000082167f5a05180f00000000000000000000000000000000000000000000000000000000148061062e575061062e826120fc565b611d88612193565b565b600061196683836121fa565b611da08133612251565b50565b600080611db084846122de565b9050611dbc600061192e565b6000036119665760405162461bcd60e51b815260206004820181905260248201527f41563a52522d416c6c2061646d696e732063616e742062652072656d6f76656460448201526064016108bd565b306001600160a01b037f0000000000000000000000000000000000000000000000000000000000000000161480611ea457507f00000000000000000000000000000000000000000000000000000000000000006001600160a01b0316611e987f360894a13ba1a3210667c828492db98dca3e2076cc3735a920a3ca505d382bbc546001600160a01b031690565b6001600160a01b031614155b15611d88576040517fe07c8dba00000000000000000000000000000000000000000000000000000000815260040160405180910390fd5b3360009081527fb7db2dd08fcb62d0c9e08c51941cae53c267786a0b75803fb7960902fc8ef97d602052604090205460ff16611da05760405162461bcd60e51b815260206004820152600a60248201527f6f6e6c792061646d696e0000000000000000000000000000000000000000000060448201526064016108bd565b816001600160a01b03166352d1902d6040518163ffffffff1660e01b8152600401602060405180830381865afa925050508015611fb3575060408051601f3d908101601f19168201909252611fb0918101906135a2565b60015b611ff4576040517f4c9c8ce30000000000000000000000000000000000000000000000000000000081526001600160a01b03831660048201526024016108bd565b7f360894a13ba1a3210667c828492db98dca3e2076cc3735a920a3ca505d382bbc8114612050576040517faa1d49a4000000000000000000000000000000000000000000000000000000008152600481018290526024016108bd565b610a93838361232c565b306001600160a01b037f00000000000000000000000000000000000000000000000000000000000000001614611d88576040517fe07c8dba00000000000000000000000000000000000000000000000000000000815260040160405180910390fd5b6000806000806120cc8686612382565b9250925092506120dc82826123cf565b5090949350505050565b600061196683836124d3565b600061062e825490565b60007fffffffff0000000000000000000000000000000000000000000000000000000082167f7965db0b00000000000000000000000000000000000000000000000000000000148061062e57507f01ffc9a7000000000000000000000000000000000000000000000000000000007fffffffff0000000000000000000000000000000000000000000000000000000083161461062e565b7ff0c57e16840df040f15088dc2f81fe391c3923bec73e23a9662efc9c229c6a005468010000000000000000900460ff16611d88576040517fd7e6bcf800000000000000000000000000000000000000000000000000000000815260040160405180910390fd5b60007fc1f6fe24621ce81ec5827caf0253cadb74709b061630e6b55e823717059320008161222885856124fd565b90508015610f3657600085815260208390526040902061224890856125ea565b50949350505050565b60008281527f02dd7bc7dec4dceedda775e58dd541e08a116c6c53815c0bd028192f7b626800602090815260408083206001600160a01b038516845290915290205460ff16610ab3576040517fe2517d3f0000000000000000000000000000000000000000000000000000000081526001600160a01b0382166004820152602481018390526044016108bd565b60007fc1f6fe24621ce81ec5827caf0253cadb74709b061630e6b55e823717059320008161230c85856125ff565b90508015610f3657600085815260208390526040902061224890856126c3565b612335826126d8565b6040516001600160a01b038316907fbc7cd75a20ee27fd9adebab32041f755214dbc6bffa90cc0225b39da2e5c2d3b90600090a280511561237a57610a938282612780565b610ab36127f6565b600080600083516041036123bc5760208401516040850151606086015160001a6123ae8882858561282e565b9550955095505050506123c8565b50508151600091506002905b9250925092565b60008260038111156123e3576123e36135bb565b036123ec575050565b6001826003811115612400576124006135bb565b03612437576040517ff645eedf00000000000000000000000000000000000000000000000000000000815260040160405180910390fd5b600282600381111561244b5761244b6135bb565b03612485576040517ffce698f7000000000000000000000000000000000000000000000000000000008152600481018290526024016108bd565b6003826003811115612499576124996135bb565b03610ab3576040517fd78bce0c000000000000000000000000000000000000000000000000000000008152600481018290526024016108bd565b60008260000182815481106124ea576124ea6131f9565b9060005260206000200154905092915050565b60008281527f02dd7bc7dec4dceedda775e58dd541e08a116c6c53815c0bd028192f7b626800602081815260408084206001600160a01b038616855290915282205460ff166125e0576000848152602082815260408083206001600160a01b0387168452909152902080547fffffffffffffffffffffffffffffffffffffffffffffffffffffffffffffff001660011790556125963390565b6001600160a01b0316836001600160a01b0316857f2f8788117e7eff1d82e926ec794901d17c78024a50270940304540a733656f0d60405160405180910390a4600191505061062e565b600091505061062e565b6000611966836001600160a01b0384166128fd565b60008281527f02dd7bc7dec4dceedda775e58dd541e08a116c6c53815c0bd028192f7b626800602081815260408084206001600160a01b038616855290915282205460ff16156125e0576000848152602082815260408083206001600160a01b038716808552925280832080547fffffffffffffffffffffffffffffffffffffffffffffffffffffffffffffff0016905551339287917ff6391f5c32d9c69d2a47ea670b442974b53935d1edc7fd64eb21e047a839171b9190a4600191505061062e565b6000611966836001600160a01b03841661294c565b806001600160a01b03163b600003612727576040517f4c9c8ce30000000000000000000000000000000000000000000000000000000081526001600160a01b03821660048201526024016108bd565b7f360894a13ba1a3210667c828492db98dca3e2076cc3735a920a3ca505d382bbc80547fffffffffffffffffffffffff0000000000000000000000000000000000000000166001600160a01b0392909216919091179055565b6060600080846001600160a01b03168460405161279d91906135ea565b600060405180830381855af49150503d80600081146127d8576040519150601f19603f3d011682016040523d82523d6000602084013e6127dd565b606091505b50915091506127ed858383612a35565b95945050505050565b3415611d88576040517fb398979f00000000000000000000000000000000000000000000000000000000815260040160405180910390fd5b600080807f7fffffffffffffffffffffffffffffff5d576e7357a4501ddfe92f46681b20a084111561286957506000915060039050826128f3565b604080516000808252602082018084528a905260ff891692820192909252606081018790526080810186905260019060a0016020604051602081039080840390855afa1580156128bd573d6000803e3d6000fd5b5050604051601f1901519150506001600160a01b0381166128e9575060009250600191508290506128f3565b9250600091508190505b9450945094915050565b60008181526001830160205260408120546129445750815460018181018455600084815260208082209093018490558454848252828601909352604090209190915561062e565b50600061062e565b600081815260018301602052604081205480156125e0576000612970600183613606565b855490915060009061298490600190613606565b90508082146129e95760008660000182815481106129a4576129a46131f9565b90600052602060002001549050808760000184815481106129c7576129c76131f9565b6000918252602080832090910192909255918252600188019052604090208390555b85548690806129fa576129fa613619565b60019003818190600052602060002001600090559055856001016000868152602001908152602001600020600090556001935050505061062e565b606082612a4a57612a4582612aaa565b611966565b8151158015612a6157506001600160a01b0384163b155b15612aa3576040517f9996b3150000000000000000000000000000000000000000000000000000000081526001600160a01b03851660048201526024016108bd565b5092915050565b805115612aba5780518082602001fd5b6040517f1425ea4200000000000000000000000000000000000000000000000000000000815260040160405180910390fd5b508054612af8906130df565b6000825580601f10612b08575050565b601f016020900490600052602060002090810190611da09190612bc1565b5080546000825590600052602060002090810190611da09190612bc1565b828054828255906000526020600020908101928215612bb1579160200282015b82811115612bb157825182547fffffffffffffffffffffffff0000000000000000000000000000000000000000166001600160a01b03909116178255602090920191600190910190612b64565b50612bbd929150612bc1565b5090565b5b80821115612bbd5760008155600101612bc2565b600060208284031215612be857600080fd5b81357fffffffff000000000000000000000000000000000000000000000000000000008116811461196657600080fd5b600060208284031215612c2a57600080fd5b5035919050565b60005b83811015612c4c578181015183820152602001612c34565b50506000910152565b60008151808452612c6d816020860160208601612c31565b601f01601f19169290920160200192915050565b60006101408c83528b6020840152806040840152612ca18184018c612c55565b606084019a909a52505060808101969096526001600160a01b0394851660a08701529290931660c085015260ff90811660e08501529091166101008301521515610120909101529392505050565b6001600160a01b0381168114611da057600080fd5b600080600080600080600060e0888a031215612d1f57600080fd5b8735612d2a81612cef565b96506020880135612d3a81612cef565b95506040880135612d4a81612cef565b94506060880135612d5a81612cef565b9699959850939660808101359560a0820135955060c0909101359350915050565b60008060408385031215612d8e57600080fd5b823591506020830135612da081612cef565b809150509250929050565b60008060408385031215612dbe57600080fd5b50508035926020909101359150565b7f4e487b7100000000000000000000000000000000000000000000000000000000600052604160045260246000fd5b604051601f8201601f1916810167ffffffffffffffff81118282101715612e2557612e25612dcd565b604052919050565b600082601f830112612e3e57600080fd5b813567ffffffffffffffff811115612e5857612e58612dcd565b612e6b6020601f19601f84011601612dfc565b818152846020838601011115612e8057600080fd5b816020850160208301376000918101602001919091529392505050565b60008060408385031215612eb057600080fd5b8235612ebb81612cef565b9150602083013567ffffffffffffffff811115612ed757600080fd5b612ee385828601612e2d565b9150509250929050565b803560ff81168114612efe57600080fd5b919050565b600080600080600060a08688031215612f1b57600080fd5b853567ffffffffffffffff80821115612f3357600080fd5b612f3f89838a01612e2d565b9650602088013595506040880135915080821115612f5c57600080fd5b50612f6988828901612e2d565b93505060608601359150612f7f60808701612eed565b90509295509295909350565b600060208284031215612f9d57600080fd5b813561196681612cef565b60008060008060008060008060006101208a8c031215612fc757600080fd5b893567ffffffffffffffff80821115612fdf57600080fd5b612feb8d838e01612e2d565b9a5060208c0135995060408c0135985060608c0135975060808c013591508082111561301657600080fd5b506130238c828d01612e2d565b95505060a08a0135935060c08a0135925061304060e08b01612eed565b91506101008a013561305181612cef565b809150509295985092959850929598565b6020815260006119666020830184612c55565b6000806000806080858703121561308b57600080fd5b843561309681612cef565b935060208501359250604085013567ffffffffffffffff8111156130b957600080fd5b6130c587828801612e2d565b9250506130d460608601612eed565b905092959194509250565b600181811c908216806130f357607f821691505b60208210810361312c577f4e487b7100000000000000000000000000000000000000000000000000000000600052602260045260246000fd5b50919050565b7f4e487b7100000000000000000000000000000000000000000000000000000000600052601160045260246000fd5b8082018082111561062e5761062e613132565b84815260806020820152600061318d6080830186612c55565b905083604083015260ff8316606083015295945050505050565b600060ff821660ff81036131bd576131bd613132565b60010192915050565b6080815260006131d96080830187612c55565b60208301959095525060ff92831660408201529116606090910152919050565b7f4e487b7100000000000000000000000000000000000000000000000000000000600052603260045260246000fd5b600060408201848352602060406020850152818554808452606086019150866000526020600020935060005b818110156132795784546001600160a01b031683526001948501949284019201613254565b5090979650505050505050565b60ff818116838216019081111561062e5761062e613132565b6000602082840312156132b157600080fd5b8151801515811461196657600080fd5b60006101008a83528960208401528860408401528060608401526132e781840189612c55565b9150508560808301528460a083015260ff841660c08301526001600160a01b03831660e08301529998505050505050505050565b6000602080838503121561332e57600080fd5b825167ffffffffffffffff8082111561334657600080fd5b818501915085601f83011261335a57600080fd5b81518181111561336c5761336c612dcd565b8060051b915061337d848301612dfc565b818152918301840191848101908884111561339757600080fd5b938501935b838510156133c157845192506133b183612cef565b828252938501939085019061339c565b98975050505050505050565b601f821115610a93576000816000526020600020601f850160051c810160208610156133f65750805b601f850160051c820191505b8181101561341557828155600101613402565b505050505050565b815167ffffffffffffffff81111561343757613437612dcd565b61344b8161344584546130df565b846133cd565b602080601f83116001811461349e57600084156134685750858301515b7fffffffffffffffffffffffffffffffffffffffffffffffffffffffffffffffff600386901b1c1916600185901b178555613415565b600085815260208120601f198616915b828110156134cd578886015182559484019460019091019084016134ae565b508582101561350957878501517fffffffffffffffffffffffffffffffffffffffffffffffffffffffffffffffff600388901b60f8161c191681555b5050505050600190811b01905550565b8781526000602088602084015260e0604084015261353a60e0840189612c55565b606084018890526001600160a01b03878116608086015286811660a086015284820360c08601528551808352602080880193019060005b8181101561358f578451841683529385019391850191600101613571565b50909d9c50505050505050505050505050565b6000602082840312156135b457600080fd5b5051919050565b7f4e487b7100000000000000000000000000000000000000000000000000000000600052602160045260246000fd5b600082516135fc818460208701612c31565b9190910192915050565b8181038181111561062e5761062e613132565b7f4e487b7100000000000000000000000000000000000000000000000000000000600052603160045260246000fdfea26469706673582212201789e5814412f8f5cd87d8a28f0fc0f9b6c0e5009b8be7c5d81e11bc6422650564736f6c63430008190033",
  "linkReferences": {},
  "deployedLinkReferences": {}
}