{
  "_format": "hh-sol-artifact-1",
  "contractName": "CommonChainGateways",
  "sourceName": "contracts/serverless-v2/CommonChainGateways.sol",
  "abi": [
    {
      "inputs": [
        {
          "internalType": "contract IAttestationVerifier",
          "name": "attestationVerifier",
          "type": "address"
        },
        {
          "internalType": "uint256",
          "name": "maxAge",
          "type": "uint256"
        }
      ],
      "stateMutability": "nonpayable",
      "type": "constructor"
    },
    {
      "inputs": [],
      "name": "AccessControlBadConfirmation",
      "type": "error"
    },
    {
      "inputs": [
        {
          "internalType": "address",
          "name": "account",
          "type": "address"
        },
        {
          "internalType": "bytes32",
          "name": "neededRole",
          "type": "bytes32"
        }
      ],
      "name": "AccessControlUnauthorizedAccount",
      "type": "error"
    },
    {
      "inputs": [
        {
          "internalType": "address",
          "name": "target",
          "type": "address"
        }
      ],
      "name": "AddressEmptyCode",
      "type": "error"
    },
    {
      "inputs": [
        {
          "internalType": "address",
          "name": "account",
          "type": "address"
        }
      ],
      "name": "AddressInsufficientBalance",
      "type": "error"
    },
    {
      "inputs": [],
      "name": "AttestationAutherAttestationTooOld",
      "type": "error"
    },
    {
      "inputs": [],
      "name": "AttestationAutherImageNotInFamily",
      "type": "error"
    },
    {
      "inputs": [],
      "name": "AttestationAutherImageNotWhitelisted",
      "type": "error"
    },
    {
      "inputs": [],
      "name": "AttestationAutherKeyNotVerified",
      "type": "error"
    },
    {
      "inputs": [],
      "name": "AttestationAutherMismatchedLengths",
      "type": "error"
    },
    {
      "inputs": [],
      "name": "AttestationAutherPCRsInvalid",
      "type": "error"
    },
    {
      "inputs": [],
      "name": "AttestationAutherPubkeyLengthInvalid",
      "type": "error"
    },
    {
      "inputs": [],
      "name": "ECDSAInvalidSignature",
      "type": "error"
    },
    {
      "inputs": [
        {
          "internalType": "uint256",
          "name": "length",
          "type": "uint256"
        }
      ],
      "name": "ECDSAInvalidSignatureLength",
      "type": "error"
    },
    {
      "inputs": [
        {
          "internalType": "bytes32",
          "name": "s",
          "type": "bytes32"
        }
      ],
      "name": "ECDSAInvalidSignatureS",
      "type": "error"
    },
    {
      "inputs": [
        {
          "internalType": "address",
          "name": "implementation",
          "type": "address"
        }
      ],
      "name": "ERC1967InvalidImplementation",
      "type": "error"
    },
    {
      "inputs": [],
      "name": "ERC1967NonPayable",
      "type": "error"
    },
    {
      "inputs": [],
      "name": "FailedInnerCall",
      "type": "error"
    },
    {
      "inputs": [],
      "name": "InvalidInitialization",
      "type": "error"
    },
    {
      "inputs": [],
      "name": "NotInitializing",
      "type": "error"
    },
    {
      "inputs": [
        {
          "internalType": "address",
          "name": "token",
          "type": "address"
        }
      ],
      "name": "SafeERC20FailedOperation",
      "type": "error"
    },
    {
      "inputs": [],
      "name": "UUPSUnauthorizedCallContext",
      "type": "error"
    },
    {
      "inputs": [
        {
          "internalType": "bytes32",
          "name": "slot",
          "type": "bytes32"
        }
      ],
      "name": "UUPSUnsupportedProxiableUUID",
      "type": "error"
    },
    {
      "anonymous": false,
      "inputs": [
        {
          "indexed": false,
          "internalType": "bytes",
          "name": "enclavePubKey",
          "type": "bytes"
        },
        {
          "indexed": false,
          "internalType": "uint256",
          "name": "chainId",
          "type": "uint256"
        }
      ],
      "name": "ChainAdded",
      "type": "event"
    },
    {
      "anonymous": false,
      "inputs": [
        {
          "indexed": false,
          "internalType": "uint256",
          "name": "chainId",
          "type": "uint256"
        },
        {
          "indexed": false,
          "internalType": "address",
          "name": "contractAddress",
          "type": "address"
        },
        {
          "indexed": false,
          "internalType": "string",
          "name": "rpcUrl",
          "type": "string"
        }
      ],
      "name": "ChainAddedGlobal",
      "type": "event"
    },
    {
      "anonymous": false,
      "inputs": [
        {
          "indexed": false,
          "internalType": "bytes",
          "name": "enclavePubKey",
          "type": "bytes"
        },
        {
          "indexed": false,
          "internalType": "uint256",
          "name": "chainId",
          "type": "uint256"
        }
      ],
      "name": "ChainRemoved",
      "type": "event"
    },
    {
      "anonymous": false,
      "inputs": [
        {
          "indexed": false,
          "internalType": "uint256",
          "name": "chainId",
          "type": "uint256"
        }
      ],
      "name": "ChainRemovedGlobal",
      "type": "event"
    },
    {
      "anonymous": false,
      "inputs": [
        {
          "indexed": true,
          "internalType": "bytes32",
          "name": "imageId",
          "type": "bytes32"
        },
        {
          "indexed": false,
          "internalType": "bytes32",
          "name": "family",
          "type": "bytes32"
        }
      ],
      "name": "EnclaveImageAddedToFamily",
      "type": "event"
    },
    {
      "anonymous": false,
      "inputs": [
        {
          "indexed": true,
          "internalType": "bytes32",
          "name": "imageId",
          "type": "bytes32"
        },
        {
          "indexed": false,
          "internalType": "bytes32",
          "name": "family",
          "type": "bytes32"
        }
      ],
      "name": "EnclaveImageRemovedFromFamily",
      "type": "event"
    },
    {
      "anonymous": false,
      "inputs": [
        {
          "indexed": true,
          "internalType": "bytes32",
          "name": "imageId",
          "type": "bytes32"
        }
      ],
      "name": "EnclaveImageRevoked",
      "type": "event"
    },
    {
      "anonymous": false,
      "inputs": [
        {
          "indexed": true,
          "internalType": "bytes32",
          "name": "imageId",
          "type": "bytes32"
        },
        {
          "indexed": false,
          "internalType": "bytes",
          "name": "PCR0",
          "type": "bytes"
        },
        {
          "indexed": false,
          "internalType": "bytes",
          "name": "PCR1",
          "type": "bytes"
        },
        {
          "indexed": false,
          "internalType": "bytes",
          "name": "PCR2",
          "type": "bytes"
        }
      ],
      "name": "EnclaveImageWhitelisted",
      "type": "event"
    },
    {
      "anonymous": false,
      "inputs": [
        {
          "indexed": true,
          "internalType": "bytes",
          "name": "enclavePubKey",
          "type": "bytes"
        }
      ],
      "name": "EnclaveKeyRevoked",
      "type": "event"
    },
    {
      "anonymous": false,
      "inputs": [
        {
          "indexed": true,
          "internalType": "bytes",
          "name": "enclavePubKey",
          "type": "bytes"
        },
        {
          "indexed": true,
          "internalType": "bytes32",
          "name": "imageId",
          "type": "bytes32"
        }
      ],
      "name": "EnclaveKeyVerified",
      "type": "event"
    },
    {
      "anonymous": false,
      "inputs": [
        {
          "indexed": true,
          "internalType": "bytes",
          "name": "enclavePubKey",
          "type": "bytes"
        },
        {
          "indexed": true,
          "internalType": "bytes32",
          "name": "imageId",
          "type": "bytes32"
        }
      ],
      "name": "EnclaveKeyWhitelisted",
      "type": "event"
    },
    {
      "anonymous": false,
      "inputs": [
        {
          "indexed": false,
          "internalType": "bytes",
          "name": "enclavePubKey",
          "type": "bytes"
        }
      ],
      "name": "GatewayDeregistered",
      "type": "event"
    },
    {
      "anonymous": false,
      "inputs": [
        {
          "indexed": false,
          "internalType": "bytes",
          "name": "enclavePubKey",
          "type": "bytes"
        },
        {
          "indexed": true,
          "internalType": "address",
          "name": "enclaveAddress",
          "type": "address"
        },
        {
          "indexed": true,
          "internalType": "address",
          "name": "operator",
          "type": "address"
        }
      ],
      "name": "GatewayRegistered",
      "type": "event"
    },
    {
      "anonymous": false,
      "inputs": [
        {
          "indexed": false,
          "internalType": "bytes",
          "name": "enclavePubKey",
          "type": "bytes"
        },
        {
          "indexed": false,
          "internalType": "uint256",
          "name": "addedAmount",
          "type": "uint256"
        },
        {
          "indexed": false,
          "internalType": "uint256",
          "name": "totalAmount",
          "type": "uint256"
        }
      ],
      "name": "GatewayStakeAdded",
      "type": "event"
    },
    {
      "anonymous": false,
      "inputs": [
        {
          "indexed": false,
          "internalType": "bytes",
          "name": "enclavePubKey",
          "type": "bytes"
        },
        {
          "indexed": false,
          "internalType": "uint256",
          "name": "removedAmount",
          "type": "uint256"
        },
        {
          "indexed": false,
          "internalType": "uint256",
          "name": "totalAmount",
          "type": "uint256"
        }
      ],
      "name": "GatewayStakeRemoved",
      "type": "event"
    },
    {
      "anonymous": false,
      "inputs": [
        {
          "indexed": false,
          "internalType": "uint64",
          "name": "version",
          "type": "uint64"
        }
      ],
      "name": "Initialized",
      "type": "event"
    },
    {
      "anonymous": false,
      "inputs": [
        {
          "indexed": true,
          "internalType": "bytes32",
          "name": "role",
          "type": "bytes32"
        },
        {
          "indexed": true,
          "internalType": "bytes32",
          "name": "previousAdminRole",
          "type": "bytes32"
        },
        {
          "indexed": true,
          "internalType": "bytes32",
          "name": "newAdminRole",
          "type": "bytes32"
        }
      ],
      "name": "RoleAdminChanged",
      "type": "event"
    },
    {
      "anonymous": false,
      "inputs": [
        {
          "indexed": true,
          "internalType": "bytes32",
          "name": "role",
          "type": "bytes32"
        },
        {
          "indexed": true,
          "internalType": "address",
          "name": "account",
          "type": "address"
        },
        {
          "indexed": true,
          "internalType": "address",
          "name": "sender",
          "type": "address"
        }
      ],
      "name": "RoleGranted",
      "type": "event"
    },
    {
      "anonymous": false,
      "inputs": [
        {
          "indexed": true,
          "internalType": "bytes32",
          "name": "role",
          "type": "bytes32"
        },
        {
          "indexed": true,
          "internalType": "address",
          "name": "account",
          "type": "address"
        },
        {
          "indexed": true,
          "internalType": "address",
          "name": "sender",
          "type": "address"
        }
      ],
      "name": "RoleRevoked",
      "type": "event"
    },
    {
      "anonymous": false,
      "inputs": [
        {
          "indexed": true,
          "internalType": "address",
          "name": "implementation",
          "type": "address"
        }
      ],
      "name": "Upgraded",
      "type": "event"
    },
    {
      "inputs": [],
      "name": "ATTESTATION_MAX_AGE",
      "outputs": [
        {
          "internalType": "uint256",
          "name": "",
          "type": "uint256"
        }
      ],
      "stateMutability": "view",
      "type": "function"
    },
    {
      "inputs": [],
      "name": "ATTESTATION_VERIFIER",
      "outputs": [
        {
          "internalType": "contract IAttestationVerifier",
          "name": "",
          "type": "address"
        }
      ],
      "stateMutability": "view",
      "type": "function"
    },
    {
      "inputs": [],
      "name": "DEFAULT_ADMIN_ROLE",
      "outputs": [
        {
          "internalType": "bytes32",
          "name": "",
          "type": "bytes32"
        }
      ],
      "stateMutability": "view",
      "type": "function"
    },
    {
      "inputs": [],
      "name": "UPGRADE_INTERFACE_VERSION",
      "outputs": [
        {
          "internalType": "string",
          "name": "",
          "type": "string"
        }
      ],
      "stateMutability": "view",
      "type": "function"
    },
    {
      "inputs": [
        {
          "internalType": "address",
          "name": "_admin",
          "type": "address"
        },
        {
          "components": [
            {
              "internalType": "bytes",
              "name": "PCR0",
              "type": "bytes"
            },
            {
              "internalType": "bytes",
              "name": "PCR1",
              "type": "bytes"
            },
            {
              "internalType": "bytes",
              "name": "PCR2",
              "type": "bytes"
            }
          ],
          "internalType": "struct AttestationAutherUpgradeable.EnclaveImage[]",
          "name": "_images",
          "type": "tuple[]"
        },
        {
          "internalType": "contract IERC20",
          "name": "_token",
          "type": "address"
        }
      ],
      "name": "__CommonChainGateways_init",
      "outputs": [],
      "stateMutability": "nonpayable",
      "type": "function"
    },
    {
      "inputs": [
        {
          "internalType": "bytes",
          "name": "_enclavePubKey",
          "type": "bytes"
        },
        {
          "internalType": "uint256",
          "name": "_chainId",
          "type": "uint256"
        }
      ],
      "name": "addChain",
      "outputs": [],
      "stateMutability": "nonpayable",
      "type": "function"
    },
    {
      "inputs": [
        {
          "internalType": "uint256[]",
          "name": "_chainIds",
          "type": "uint256[]"
        },
        {
          "components": [
            {
              "internalType": "address",
              "name": "contractAddress",
              "type": "address"
            },
            {
              "internalType": "string",
              "name": "rpcUrl",
              "type": "string"
            }
          ],
          "internalType": "struct CommonChainGateways.RequestChain[]",
          "name": "_requestChains",
          "type": "tuple[]"
        }
      ],
      "name": "addChainGlobal",
      "outputs": [],
      "stateMutability": "nonpayable",
      "type": "function"
    },
    {
      "inputs": [
        {
          "internalType": "bytes",
          "name": "_enclavePubKey",
          "type": "bytes"
        },
        {
          "internalType": "uint256[]",
          "name": "_chainIds",
          "type": "uint256[]"
        }
      ],
      "name": "addChains",
      "outputs": [],
      "stateMutability": "nonpayable",
      "type": "function"
    },
    {
      "inputs": [
        {
          "internalType": "bytes",
          "name": "_enclavePubKey",
          "type": "bytes"
        },
        {
          "internalType": "uint256",
          "name": "_amount",
          "type": "uint256"
        }
      ],
      "name": "addGatewayStake",
      "outputs": [],
      "stateMutability": "nonpayable",
      "type": "function"
    },
    {
      "inputs": [
        {
          "internalType": "address",
          "name": "_key",
          "type": "address"
        }
      ],
      "name": "allowOnlyVerified",
      "outputs": [],
      "stateMutability": "view",
      "type": "function"
    },
    {
      "inputs": [
        {
          "internalType": "bytes",
          "name": "_enclavePubKey",
          "type": "bytes"
        }
      ],
      "name": "deregisterGateway",
      "outputs": [],
      "stateMutability": "nonpayable",
      "type": "function"
    },
    {
      "inputs": [
        {
          "internalType": "uint256",
          "name": "",
          "type": "uint256"
        }
      ],
      "name": "gatewayAddresses",
      "outputs": [
        {
          "internalType": "address",
          "name": "",
          "type": "address"
        }
      ],
      "stateMutability": "view",
      "type": "function"
    },
    {
      "inputs": [
        {
          "internalType": "address",
          "name": "",
          "type": "address"
        }
      ],
      "name": "gateways",
      "outputs": [
        {
          "internalType": "address",
          "name": "operator",
          "type": "address"
        },
        {
          "internalType": "uint256",
          "name": "stakeAmount",
          "type": "uint256"
        },
        {
          "internalType": "bool",
          "name": "status",
          "type": "bool"
        }
      ],
      "stateMutability": "view",
      "type": "function"
    },
    {
      "inputs": [
        {
          "internalType": "uint256",
          "name": "_chainId",
          "type": "uint256"
        }
      ],
      "name": "getActiveGatewaysForReqChain",
      "outputs": [
        {
          "components": [
            {
              "internalType": "address",
              "name": "operator",
              "type": "address"
            },
            {
              "internalType": "uint256[]",
              "name": "chainIds",
              "type": "uint256[]"
            },
            {
              "internalType": "uint256",
              "name": "stakeAmount",
              "type": "uint256"
            },
            {
              "internalType": "bool",
              "name": "status",
              "type": "bool"
            }
          ],
          "internalType": "struct CommonChainGateways.Gateway[]",
          "name": "",
          "type": "tuple[]"
        }
      ],
      "stateMutability": "view",
      "type": "function"
    },
    {
      "inputs": [
        {
          "internalType": "address",
          "name": "_address",
          "type": "address"
        }
      ],
      "name": "getGateway",
      "outputs": [
        {
          "internalType": "address",
          "name": "",
          "type": "address"
        },
        {
          "internalType": "uint256[]",
          "name": "",
          "type": "uint256[]"
        },
        {
          "internalType": "uint256",
          "name": "",
          "type": "uint256"
        },
        {
          "internalType": "bool",
          "name": "",
          "type": "bool"
        }
      ],
      "stateMutability": "view",
      "type": "function"
    },
    {
      "inputs": [
        {
          "internalType": "bytes32",
          "name": "role",
          "type": "bytes32"
        }
      ],
      "name": "getRoleAdmin",
      "outputs": [
        {
          "internalType": "bytes32",
          "name": "",
          "type": "bytes32"
        }
      ],
      "stateMutability": "view",
      "type": "function"
    },
    {
      "inputs": [
        {
          "internalType": "bytes32",
          "name": "role",
          "type": "bytes32"
        },
        {
          "internalType": "uint256",
          "name": "index",
          "type": "uint256"
        }
      ],
      "name": "getRoleMember",
      "outputs": [
        {
          "internalType": "address",
          "name": "",
          "type": "address"
        }
      ],
      "stateMutability": "view",
      "type": "function"
    },
    {
      "inputs": [
        {
          "internalType": "bytes32",
          "name": "role",
          "type": "bytes32"
        }
      ],
      "name": "getRoleMemberCount",
      "outputs": [
        {
          "internalType": "uint256",
          "name": "",
          "type": "uint256"
        }
      ],
      "stateMutability": "view",
      "type": "function"
    },
    {
      "inputs": [
        {
          "internalType": "address",
          "name": "_key",
          "type": "address"
        }
      ],
      "name": "getVerifiedKey",
      "outputs": [
        {
          "internalType": "bytes32",
          "name": "",
          "type": "bytes32"
        }
      ],
      "stateMutability": "view",
      "type": "function"
    },
    {
      "inputs": [
        {
          "internalType": "bytes32",
          "name": "_imageId",
          "type": "bytes32"
        }
      ],
      "name": "getWhitelistedImage",
      "outputs": [
        {
          "components": [
            {
              "internalType": "bytes",
              "name": "PCR0",
              "type": "bytes"
            },
            {
              "internalType": "bytes",
              "name": "PCR1",
              "type": "bytes"
            },
            {
              "internalType": "bytes",
              "name": "PCR2",
              "type": "bytes"
            }
          ],
          "internalType": "struct AttestationAutherUpgradeable.EnclaveImage",
          "name": "",
          "type": "tuple"
        }
      ],
      "stateMutability": "view",
      "type": "function"
    },
    {
      "inputs": [
        {
          "internalType": "bytes32",
          "name": "role",
          "type": "bytes32"
        },
        {
          "internalType": "address",
          "name": "account",
          "type": "address"
        }
      ],
      "name": "grantRole",
      "outputs": [],
      "stateMutability": "nonpayable",
      "type": "function"
    },
    {
      "inputs": [
        {
          "internalType": "bytes32",
          "name": "role",
          "type": "bytes32"
        },
        {
          "internalType": "address",
          "name": "account",
          "type": "address"
        }
      ],
      "name": "hasRole",
      "outputs": [
        {
          "internalType": "bool",
          "name": "",
          "type": "bool"
        }
      ],
      "stateMutability": "view",
      "type": "function"
    },
    {
      "inputs": [
        {
          "internalType": "uint256",
          "name": "_reqChainId",
          "type": "uint256"
        }
      ],
      "name": "isChainSupported",
      "outputs": [
        {
          "internalType": "bool",
          "name": "",
          "type": "bool"
        }
      ],
      "stateMutability": "view",
      "type": "function"
    },
    {
      "inputs": [
        {
          "internalType": "bytes32",
          "name": "imageId",
          "type": "bytes32"
        },
        {
          "internalType": "bytes32",
          "name": "family",
          "type": "bytes32"
        }
      ],
      "name": "isImageInFamily",
      "outputs": [
        {
          "internalType": "bool",
          "name": "",
          "type": "bool"
        }
      ],
      "stateMutability": "view",
      "type": "function"
    },
    {
      "inputs": [],
      "name": "proxiableUUID",
      "outputs": [
        {
          "internalType": "bytes32",
          "name": "",
          "type": "bytes32"
        }
      ],
      "stateMutability": "view",
      "type": "function"
    },
    {
      "inputs": [
        {
          "internalType": "bytes",
          "name": "_attestation",
          "type": "bytes"
        },
        {
          "internalType": "bytes",
          "name": "_enclavePubKey",
          "type": "bytes"
        },
        {
          "internalType": "bytes",
          "name": "_PCR0",
          "type": "bytes"
        },
        {
          "internalType": "bytes",
          "name": "_PCR1",
          "type": "bytes"
        },
        {
          "internalType": "bytes",
          "name": "_PCR2",
          "type": "bytes"
        },
        {
          "internalType": "uint256",
          "name": "_timestampInMilliseconds",
          "type": "uint256"
        },
        {
          "internalType": "uint256[]",
          "name": "_chainIds",
          "type": "uint256[]"
        },
        {
          "internalType": "bytes",
          "name": "_signature",
          "type": "bytes"
        },
        {
          "internalType": "uint256",
          "name": "_stakeAmount",
          "type": "uint256"
        }
      ],
      "name": "registerGateway",
      "outputs": [],
      "stateMutability": "nonpayable",
      "type": "function"
    },
    {
      "inputs": [
        {
          "internalType": "bytes",
          "name": "_enclavePubKey",
          "type": "bytes"
        },
        {
          "internalType": "uint256",
          "name": "_chainId",
          "type": "uint256"
        }
      ],
      "name": "removeChain",
      "outputs": [],
      "stateMutability": "nonpayable",
      "type": "function"
    },
    {
      "inputs": [
        {
          "internalType": "uint256[]",
          "name": "_chainIds",
          "type": "uint256[]"
        }
      ],
      "name": "removeChainGlobal",
      "outputs": [],
      "stateMutability": "nonpayable",
      "type": "function"
    },
    {
      "inputs": [
        {
          "internalType": "bytes",
          "name": "_enclavePubKey",
          "type": "bytes"
        },
        {
          "internalType": "uint256[]",
          "name": "_chainIds",
          "type": "uint256[]"
        }
      ],
      "name": "removeChains",
      "outputs": [],
      "stateMutability": "nonpayable",
      "type": "function"
    },
    {
      "inputs": [
        {
          "internalType": "bytes",
          "name": "_enclavePubKey",
          "type": "bytes"
        },
        {
          "internalType": "uint256",
          "name": "_amount",
          "type": "uint256"
        }
      ],
      "name": "removeGatewayStake",
      "outputs": [],
      "stateMutability": "nonpayable",
      "type": "function"
    },
    {
      "inputs": [
        {
          "internalType": "bytes32",
          "name": "role",
          "type": "bytes32"
        },
        {
          "internalType": "address",
          "name": "callerConfirmation",
          "type": "address"
        }
      ],
      "name": "renounceRole",
      "outputs": [],
      "stateMutability": "nonpayable",
      "type": "function"
    },
    {
      "inputs": [
        {
          "internalType": "uint256",
          "name": "",
          "type": "uint256"
        }
      ],
      "name": "requestChains",
      "outputs": [
        {
          "internalType": "address",
          "name": "contractAddress",
          "type": "address"
        },
        {
          "internalType": "string",
          "name": "rpcUrl",
          "type": "string"
        }
      ],
      "stateMutability": "view",
      "type": "function"
    },
    {
      "inputs": [
        {
          "internalType": "bytes32",
          "name": "role",
          "type": "bytes32"
        },
        {
          "internalType": "address",
          "name": "account",
          "type": "address"
        }
      ],
      "name": "revokeRole",
      "outputs": [],
      "stateMutability": "nonpayable",
      "type": "function"
    },
    {
      "inputs": [
        {
          "internalType": "contract IERC20",
          "name": "_token",
          "type": "address"
        }
      ],
      "name": "setTokenContract",
      "outputs": [],
      "stateMutability": "nonpayable",
      "type": "function"
    },
    {
      "inputs": [
        {
          "internalType": "bytes4",
          "name": "interfaceId",
          "type": "bytes4"
        }
      ],
      "name": "supportsInterface",
      "outputs": [
        {
          "internalType": "bool",
          "name": "",
          "type": "bool"
        }
      ],
      "stateMutability": "view",
      "type": "function"
    },
    {
      "inputs": [],
      "name": "token",
      "outputs": [
        {
          "internalType": "contract IERC20",
          "name": "",
          "type": "address"
        }
      ],
      "stateMutability": "view",
      "type": "function"
    },
    {
      "inputs": [
        {
          "internalType": "address",
          "name": "newImplementation",
          "type": "address"
        },
        {
          "internalType": "bytes",
          "name": "data",
          "type": "bytes"
        }
      ],
      "name": "upgradeToAndCall",
      "outputs": [],
      "stateMutability": "payable",
      "type": "function"
    },
    {
      "inputs": [
        {
          "internalType": "bytes",
          "name": "signature",
          "type": "bytes"
        },
        {
          "components": [
            {
              "internalType": "bytes",
              "name": "enclavePubKey",
              "type": "bytes"
            },
            {
              "internalType": "bytes",
              "name": "PCR0",
              "type": "bytes"
            },
            {
              "internalType": "bytes",
              "name": "PCR1",
              "type": "bytes"
            },
            {
              "internalType": "bytes",
              "name": "PCR2",
              "type": "bytes"
            },
            {
              "internalType": "uint256",
              "name": "timestampInMilliseconds",
              "type": "uint256"
            }
          ],
          "internalType": "struct IAttestationVerifier.Attestation",
          "name": "attestation",
          "type": "tuple"
        }
      ],
      "name": "verifyEnclaveKey",
      "outputs": [
        {
          "internalType": "bool",
          "name": "",
          "type": "bool"
        }
      ],
      "stateMutability": "nonpayable",
      "type": "function"
    }
  ],
  "bytecode": "0x60e06040523060c05234801561001457600080fd5b50604051614f22380380614f2283398101604081905261003391610157565b6001600160a01b03821660805260a08190527ff0c57e16840df040f15088dc2f81fe391c3923bec73e23a9662efc9c229c6a00805468010000000000000000810460ff1615906001600160401b031660008115801561008f5750825b90506000826001600160401b031660011480156100ab5750303b155b9050811580156100b9575080155b156100d75760405163f92ee8a960e01b815260040160405180910390fd5b84546001600160401b0319166001178555831561010557845460ff60401b1916680100000000000000001785555b831561014b57845460ff60401b19168555604051600181527fc7f505b2f371ae2175ee4913f4499e1f2633a7b5936321eed1cdaeb6115181d29060200160405180910390a15b50505050505050610191565b6000806040838503121561016a57600080fd5b82516001600160a01b038116811461018157600080fd5b6020939093015192949293505050565b60805160a05160c051614d466101dc600039600081816127ad015281816127d601526129fe0152600081816106c60152612b100152600081816108350152612bae0152614d466000f3fe6080604052600436106102855760003560e01c806391d1485411610153578063ca15c873116100cb578063e0aba60a1161007f578063edc1c0df11610064578063edc1c0df146108d7578063eff3be0914610905578063fc0c546a1461092557600080fd5b8063e0aba60a14610897578063ec6aef29146108b757600080fd5b8063cd79f906116100b0578063cd79f90614610823578063d3b3f94914610857578063d547741f1461087757600080fd5b8063ca15c873146107e3578063cc101e001461080357600080fd5b8063a0ac45d511610122578063ad3cb1cc11610107578063ad3cb1cc1461073d578063bbcd5bbe14610793578063bda009fe146107b357600080fd5b8063a0ac45d514610708578063a217fddf1461072857600080fd5b806391d148541461062f578063974d2a06146106945780639aec990e146106b45780639c01de41146106e857600080fd5b80634f1ef286116102015780636b5b21a6116101b557806380bc92331161019a57806380bc92331461057e5780639010d07c1461059e5780639022c19c146105be57600080fd5b80636b5b21a61461050557806375847b841461055e57600080fd5b806352d1902d116101e657806352d1902d146104985780635450c16b146104ad5780635690e1cc146104e557600080fd5b80634f1ef2861461044d5780635221c1f01461046057600080fd5b8063248a9ca3116102585780632f2ff15d1161023d5780632f2ff15d146103ed57806336568abe1461040d5780634abc64c21461042d57600080fd5b8063248a9ca3146103715780632572647a146103c057600080fd5b80630167847b1461028a57806301d58fa3146102ac57806301ffc9a7146103145780632410f6ba14610344575b600080fd5b34801561029657600080fd5b506102aa6102a5366004613ec0565b610945565b005b3480156102b857600080fd5b506103016102c7366004613f0a565b6001600160a01b031660009081527fc17b4b708b6f44255c20913a9d97a05300b670342c71fe5ae5b617bd4db55001602052604090205490565b6040519081526020015b60405180910390f35b34801561032057600080fd5b5061033461032f366004613f27565b610acd565b604051901515815260200161030b565b34801561035057600080fd5b5061036461035f366004613f69565b610ade565b60405161030b9190613fd2565b34801561037d57600080fd5b5061030161038c366004613f69565b60009081527f02dd7bc7dec4dceedda775e58dd541e08a116c6c53815c0bd028192f7b626800602052604090206001015490565b3480156103cc57600080fd5b506103e06103db366004613f69565b610cfc565b60405161030b9190614066565b3480156103f957600080fd5b506102aa61040836600461411c565b610f94565b34801561041957600080fd5b506102aa61042836600461411c565b610fde565b34801561043957600080fd5b506102aa6104483660046141c4565b61102f565b6102aa61045b366004614228565b611136565b34801561046c57600080fd5b5061033461047b366004613f69565b6000908152600160205260409020546001600160a01b0316151590565b3480156104a457600080fd5b50610301611151565b3480156104b957600080fd5b506104cd6104c8366004613f69565b611180565b6040516001600160a01b03909116815260200161030b565b3480156104f157600080fd5b506102aa61050036600461426e565b6111aa565b34801561051157600080fd5b5061033461052036600461439d565b60009081527fc17b4b708b6f44255c20913a9d97a05300b670342c71fe5ae5b617bd4db5500260209081526040808320938352929052205460ff1690565b34801561056a57600080fd5b506103346105793660046143bf565b611404565b34801561058a57600080fd5b506102aa6105993660046144c9565b611417565b3480156105aa57600080fd5b506104cd6105b936600461439d565b611659565b3480156105ca57600080fd5b506106086105d9366004613f0a565b60026020819052600091825260409091208054918101546003909101546001600160a01b039092169160ff1683565b604080516001600160a01b039094168452602084019290925215159082015260600161030b565b34801561063b57600080fd5b5061033461064a36600461411c565b60009182527f02dd7bc7dec4dceedda775e58dd541e08a116c6c53815c0bd028192f7b626800602090815260408084206001600160a01b0393909316845291905290205460ff1690565b3480156106a057600080fd5b506102aa6106af3660046144c9565b61169a565b3480156106c057600080fd5b506103017f000000000000000000000000000000000000000000000000000000000000000081565b3480156106f457600080fd5b506102aa6107033660046144c9565b61197d565b34801561071457600080fd5b506102aa610723366004613f0a565b611ab5565b34801561073457600080fd5b50610301600081565b34801561074957600080fd5b506107866040518060400160405280600581526020017f352e302e3000000000000000000000000000000000000000000000000000000081525081565b60405161030b919061450e565b34801561079f57600080fd5b506102aa6107ae366004613f0a565b611ac1565b3480156107bf57600080fd5b506107d36107ce366004613f0a565b611b79565b60405161030b9493929190614531565b3480156107ef57600080fd5b506103016107fe366004613f69565b611c13565b34801561080f57600080fd5b506102aa61081e3660046144c9565b611c4b565b34801561082f57600080fd5b506104cd7f000000000000000000000000000000000000000000000000000000000000000081565b34801561086357600080fd5b506102aa61087236600461456b565b611d73565b34801561088357600080fd5b506102aa61089236600461411c565b611ffc565b3480156108a357600080fd5b506102aa6108b23660046146bf565b612040565b3480156108c357600080fd5b506102aa6108d23660046141c4565b612306565b3480156108e357600080fd5b506108f76108f2366004613f69565b612406565b60405161030b9291906146f4565b34801561091157600080fd5b506102aa610920366004614716565b6124b6565b34801561093157600080fd5b506000546104cd906001600160a01b031681565b3360009081527fb7db2dd08fcb62d0c9e08c51941cae53c267786a0b75803fb7960902fc8ef97d602052604090205460ff166109c85760405162461bcd60e51b815260206004820152600a60248201527f6f6e6c792061646d696e0000000000000000000000000000000000000000000060448201526064015b60405180910390fd5b6000815111610a195760405162461bcd60e51b815260206004820152600e60248201527f494e56414c49445f4c454e47544800000000000000000000000000000000000060448201526064016109bf565b60005b8151811015610ac9576000828281518110610a3957610a39614848565b60209081029190910181015160008181526001928390526040812080547fffffffffffffffffffffffff00000000000000000000000000000000000000001681559193509091610a8b90830182613caa565b50506040518181527f5b9dc40648bfe840de770df10081e79f179534343348da4087dea77ba584d1819060200160405180910390a150600101610a1c565b5050565b6000610ad882612685565b92915050565b610b0260405180606001604052806060815260200160608152602001606081525090565b60008281527fc17b4b708b6f44255c20913a9d97a05300b670342c71fe5ae5b617bd4db550006020819052604091829020825160608101909352805491929182908290610b4e90614877565b80601f0160208091040260200160405190810160405280929190818152602001828054610b7a90614877565b8015610bc75780601f10610b9c57610100808354040283529160200191610bc7565b820191906000526020600020905b815481529060010190602001808311610baa57829003601f168201915b50505050508152602001600182018054610be090614877565b80601f0160208091040260200160405190810160405280929190818152602001828054610c0c90614877565b8015610c595780601f10610c2e57610100808354040283529160200191610c59565b820191906000526020600020905b815481529060010190602001808311610c3c57829003601f168201915b50505050508152602001600282018054610c7290614877565b80601f0160208091040260200160405190810160405280929190818152602001828054610c9e90614877565b8015610ceb5780601f10610cc057610100808354040283529160200191610ceb565b820191906000526020600020905b815481529060010190602001808311610cce57829003601f168201915b505050505081525050915050919050565b60035460609060009067ffffffffffffffff811115610d1d57610d1d613d5e565b604051908082528060200260200182016040528015610d8457816020015b610d71604051806080016040528060006001600160a01b0316815260200160608152602001600081526020016000151581525090565b815260200190600190039081610d3b5790505b50905060005b600354811015610f8d576002600060038381548110610dab57610dab614848565b60009182526020808320909101546001600160a01b0316835282019290925260400190206003015460ff1615610f855760006002600060038481548110610df457610df4614848565b60009182526020808320909101546001600160a01b03168352828101939093526040918201902060010180548251818502810185019093528083529192909190830182828015610e6357602002820191906000526020600020905b815481526020019060010190808311610e4f575b5050505050905060005b8151811015610f825785828281518110610e8957610e89614848565b602002602001015103610f7a576002600060038581548110610ead57610ead614848565b60009182526020808320909101546001600160a01b039081168452838201949094526040928301909120825160808101845281549094168452600181018054845181850281018501909552808552919385840193909290830182828015610f3357602002820191906000526020600020905b815481526020019060010190808311610f1f575b50505091835250506002820154602082015260039091015460ff1615156040909101528451859085908110610f6a57610f6a614848565b6020026020010181905250610f82565b600101610e6d565b50505b600101610d8a565b5092915050565b60008281527f02dd7bc7dec4dceedda775e58dd541e08a116c6c53815c0bd028192f7b6268006020526040902060010154610fce816126db565b610fd883836126e5565b50505050565b6001600160a01b0381163314611020576040517f6697b23200000000000000000000000000000000000000000000000000000000815260040160405180910390fd5b61102a82826126f1565b505050565b81600061103b82612759565b6001600160a01b038082166000908152600260205260409020549192501633146110a75760405162461bcd60e51b815260206004820152601560248201527f4f4e4c595f474154455741595f4f50455241544f52000000000000000000000060448201526064016109bf565b60008351116110f85760405162461bcd60e51b815260206004820152601060248201527f454d5054595f5245515f434841494e530000000000000000000000000000000060448201526064016109bf565b60005b835181101561112f576111278585838151811061111a5761111a614848565b6020026020010151611417565b6001016110fb565b5050505050565b61113e6127a2565b61114782612874565b610ac982826128f2565b600061115b6129f3565b507f360894a13ba1a3210667c828492db98dca3e2076cc3735a920a3ca505d382bbc90565b6003818154811061119057600080fd5b6000918252602090912001546001600160a01b0316905081565b6111da896040518060a001604052808b81526020018a815260200189815260200188815260200187815250612a55565b506111e58383612cbd565b6111fd336000546001600160a01b0316903084612d01565b600061120889612759565b905060005b84518110156112b05760006001600160a01b03166001600087848151811061123757611237614848565b6020908102919091018101518252810191909152604001600020546001600160a01b0316036112a85760405162461bcd60e51b815260206004820152601160248201527f554e535550504f525445445f434841494e00000000000000000000000000000060448201526064016109bf565b60010161120d565b506003805460018082019092557fc2575a0e9e593c00f959f8c92f12db2869c3395a3b0502d05e2516446f71f85b0180546001600160a01b038481167fffffffffffffffffffffffff000000000000000000000000000000000000000092831681179093556040805160808101825233815260208082018b81528284018a90526060830188905260009687526002825292909520815181549416939094169290921783555180519194929361136a93850192910190613ce4565b5060408201516002820155606090910151600390910180547fffffffffffffffffffffffffffffffffffffffffffffffffffffffffffffff0016911515919091179055336001600160a01b0316816001600160a01b03167f106ffa37b07009baa2e6b20d86090a9347e3fb5e0bdb0dae1efc7346aa8a2f1c8b6040516113f0919061450e565b60405180910390a350505050505050505050565b60006114108383612a55565b9392505050565b81600061142382612759565b6001600160a01b0380821660009081526002602052604090205491925016331461148f5760405162461bcd60e51b815260206004820152601560248201527f4f4e4c595f474154455741595f4f50455241544f52000000000000000000000060448201526064016109bf565b6000838152600160205260409020546001600160a01b03166114f35760405162461bcd60e51b815260206004820152601160248201527f554e535550504f525445445f434841494e00000000000000000000000000000060448201526064016109bf565b60006114fe85612759565b6001600160a01b03811660009081526002602090815260408083206001018054825181850281018501909352808352949550929390929183018282801561156457602002820191906000526020600020905b815481526020019060010190808311611550575b5050505050905060005b81518110156115e7578582828151811061158a5761158a614848565b6020026020010151036115df5760405162461bcd60e51b815260206004820152601460248201527f434841494e5f414c52454144595f45584953545300000000000000000000000060448201526064016109bf565b60010161156e565b506001600160a01b038216600090815260026020908152604080832060019081018054918201815584529190922001869055517f88cce4122801bcc715f3f1b2e894f26b07049a0d4c2d204c0c4ad87157f4e18c9061164990889088906148ca565b60405180910390a1505050505050565b60008281527fc1f6fe24621ce81ec5827caf0253cadb74709b061630e6b55e823717059320006020819052604082206116929084612d7d565b949350505050565b8160006116a682612759565b6001600160a01b038082166000908152600260205260409020549192501633146117125760405162461bcd60e51b815260206004820152601560248201527f4f4e4c595f474154455741595f4f50455241544f52000000000000000000000060448201526064016109bf565b600061171d85612759565b6001600160a01b03811660009081526002602090815260408083206001018054825181850281018501909352808352949550929390929183018282801561178357602002820191906000526020600020905b81548152602001906001019080831161176f575b50508351939450505081151590506117dd5760405162461bcd60e51b815260206004820152600f60248201527f454d5054595f434841494e4c495354000000000000000000000000000000000060448201526064016109bf565b60005b8181101561181157868382815181106117fb576117fb614848565b60200260200101510315611811576001016117e0565b8181146118605760405162461bcd60e51b815260206004820152600f60248201527f434841494e5f4e4f545f464f554e44000000000000000000000000000000000060448201526064016109bf565b61186b60018361491b565b81146118fa576001600160a01b0384166000908152600260205260409020600190810190611899908461491b565b815481106118a9576118a9614848565b906000526020600020015460026000866001600160a01b03166001600160a01b0316815260200190815260200160002060010182815481106118ed576118ed614848565b6000918252602090912001555b6001600160a01b03841660009081526002602052604090206001018054806119245761192461492e565b600190038181906000526020600020016000905590557f23e9f2f63bc310edd7f3f83bb1e8fe39cd606aabe6a2530271f8037383aaf98c888860405161196b9291906148ca565b60405180910390a15050505050505050565b81600061198982612759565b6001600160a01b038082166000908152600260205260409020549192501633146119f55760405162461bcd60e51b815260206004820152601560248201527f4f4e4c595f474154455741595f4f50455241544f52000000000000000000000060448201526064016109bf565b611a0d336000546001600160a01b0316903086612d01565b6000611a1885612759565b90508360026000836001600160a01b03166001600160a01b031681526020019081526020016000206002016000828254611a52919061495d565b90915550506001600160a01b038116600090815260026020819052604091829020015490517f9a719891db0e8e647d47fb1a5f64fea9a2c0d206db0b610c23f2cf1df521782391611aa69188918891614970565b60405180910390a15050505050565b611abe81612d89565b50565b3360009081527fb7db2dd08fcb62d0c9e08c51941cae53c267786a0b75803fb7960902fc8ef97d602052604090205460ff16611b3f5760405162461bcd60e51b815260206004820152600a60248201527f6f6e6c792061646d696e0000000000000000000000000000000000000000000060448201526064016109bf565b600080547fffffffffffffffffffffffff0000000000000000000000000000000000000000166001600160a01b0392909216919091179055565b6001600160a01b038082166000908152600260208181526040808420805493810154600382015460018301805485518188028101880190965280865297986060988a988998969792169592949360ff1692859190830182828015611bfc57602002820191906000526020600020905b815481526020019060010190808311611be8575b505050505092509450945094509450509193509193565b60008181527fc1f6fe24621ce81ec5827caf0253cadb74709b061630e6b55e8237170593200060208190526040822061141090612e6e565b816000611c5782612759565b6001600160a01b03808216600090815260026020526040902054919250163314611cc35760405162461bcd60e51b815260206004820152601560248201527f4f4e4c595f474154455741595f4f50455241544f52000000000000000000000060448201526064016109bf565b611cda336000546001600160a01b03169085612e78565b6000611ce585612759565b90508360026000836001600160a01b03166001600160a01b031681526020019081526020016000206002016000828254611d1f919061491b565b90915550506001600160a01b038116600090815260026020819052604091829020015490517f162e2d134a088692c1bd7ca2e473a83d6ad3dcc4d7289b5cee9d342f4004d1b891611aa69188918891614970565b7ff0c57e16840df040f15088dc2f81fe391c3923bec73e23a9662efc9c229c6a00805468010000000000000000810460ff16159067ffffffffffffffff16600081158015611dbe5750825b905060008267ffffffffffffffff166001148015611ddb5750303b155b905081158015611de9575080155b15611e20576040517ff92ee8a900000000000000000000000000000000000000000000000000000000815260040160405180910390fd5b84547fffffffffffffffffffffffffffffffffffffffffffffffff00000000000000001660011785558315611e815784547fffffffffffffffffffffffffffffffffffffffffffffff00ffffffffffffffff16680100000000000000001785555b6001600160a01b038816611ed75760405162461bcd60e51b815260206004820152601260248201527f5a45524f5f414444524553535f41444d494e000000000000000000000000000060448201526064016109bf565b6001600160a01b038616611f2d5760405162461bcd60e51b815260206004820152601260248201527f5a45524f5f414444524553535f544f4b454e000000000000000000000000000060448201526064016109bf565b611f35612ea9565b611f3d612ea9565b611f45612ea9565b611f4e87612eb1565b611f56612ea9565b611f616000896126e5565b50600080547fffffffffffffffffffffffff0000000000000000000000000000000000000000166001600160a01b0388161790558315611ff25784547fffffffffffffffffffffffffffffffffffffffffffffff00ffffffffffffffff168555604051600181527fc7f505b2f371ae2175ee4913f4499e1f2633a7b5936321eed1cdaeb6115181d29060200161196b565b5050505050505050565b60008281527f02dd7bc7dec4dceedda775e58dd541e08a116c6c53815c0bd028192f7b6268006020526040902060010154612036816126db565b610fd883836126f1565b80600061204c82612759565b6001600160a01b038082166000908152600260205260409020549192501633146120b85760405162461bcd60e51b815260206004820152601560248201527f4f4e4c595f474154455741595f4f50455241544f52000000000000000000000060448201526064016109bf565b60006120c384612759565b6001600160a01b038082166000908152600260205260409020549192501661212d5760405162461bcd60e51b815260206004820152601360248201527f494e56414c49445f454e434c4156455f4b45590000000000000000000000000060448201526064016109bf565b60035460005b8181101561217a57826001600160a01b03166003828154811061215857612158614848565b6000918252602090912001546001600160a01b03161461217a57600101612133565b61218560018361491b565b811461220357600361219860018461491b565b815481106121a8576121a8614848565b600091825260209091200154600380546001600160a01b0390921691839081106121d4576121d4614848565b9060005260206000200160006101000a8154816001600160a01b0302191690836001600160a01b031602179055505b60038054806122145761221461492e565b6000828152602080822083017fffffffffffffffffffffffffffffffffffffffffffffffffffffffffffffffff90810180547fffffffffffffffffffffffff000000000000000000000000000000000000000090811690915593019093556001600160a01b0386168152600290925260408220805490911681559061229c6001830182613d2f565b506000600282015560030180547fffffffffffffffffffffffffffffffffffffffffffffffffffffffffffffff001690556122d686612ef1565b507fcfdd9fda8828d739bda25c6f221393246d149dd1b7f6784acdb8ba0132722f2786604051611649919061450e565b81600061231282612759565b6001600160a01b0380821660009081526002602052604090205491925016331461237e5760405162461bcd60e51b815260206004820152601560248201527f4f4e4c595f474154455741595f4f50455241544f52000000000000000000000060448201526064016109bf565b60008351116123cf5760405162461bcd60e51b815260206004820152601060248201527f454d5054595f5245515f434841494e530000000000000000000000000000000060448201526064016109bf565b60005b835181101561112f576123fe858583815181106123f1576123f1614848565b602002602001015161169a565b6001016123d2565b6001602081905260009182526040909120805491810180546001600160a01b039093169261243390614877565b80601f016020809104026020016040519081016040528092919081815260200182805461245f90614877565b80156124ac5780601f10612481576101008083540402835291602001916124ac565b820191906000526020600020905b81548152906001019060200180831161248f57829003601f168201915b5050505050905082565b3360009081527fb7db2dd08fcb62d0c9e08c51941cae53c267786a0b75803fb7960902fc8ef97d602052604090205460ff166125345760405162461bcd60e51b815260206004820152600a60248201527f6f6e6c792061646d696e0000000000000000000000000000000000000000000060448201526064016109bf565b60008251118015612546575080518251145b6125925760405162461bcd60e51b815260206004820152600e60248201527f494e56414c49445f4c454e47544800000000000000000000000000000000000060448201526064016109bf565b60005b815181101561102a5760008282815181106125b2576125b2614848565b6020026020010151905060008483815181106125d0576125d0614848565b602090810291909101810151600081815260018084526040909120855181547fffffffffffffffffffffffff0000000000000000000000000000000000000000166001600160a01b03909116178155928501519193508492919082019061263790826149e5565b5050825160208401516040517f67dd8b8576f1455907cc1b4aa4623860ed1036d8ead856785f3d51bef810fa6393506126739285929091614ae1565b60405180910390a15050600101612595565b60007fffffffff0000000000000000000000000000000000000000000000000000000082167f5a05180f000000000000000000000000000000000000000000000000000000001480610ad85750610ad882612faf565b611abe8133613046565b600061141083836130d3565b6000806126fe848461312a565b905061270a6000611c13565b6000036114105760405162461bcd60e51b815260206004820181905260248201527f41563a52522d416c6c2061646d696e732063616e742062652072656d6f76656460448201526064016109bf565b60008151604014612796576040517fbd9c80c100000000000000000000000000000000000000000000000000000000815260040160405180910390fd5b50805160209091012090565b306001600160a01b037f000000000000000000000000000000000000000000000000000000000000000016148061283b57507f00000000000000000000000000000000000000000000000000000000000000006001600160a01b031661282f7f360894a13ba1a3210667c828492db98dca3e2076cc3735a920a3ca505d382bbc546001600160a01b031690565b6001600160a01b031614155b15612872576040517fe07c8dba00000000000000000000000000000000000000000000000000000000815260040160405180910390fd5b565b3360009081527fb7db2dd08fcb62d0c9e08c51941cae53c267786a0b75803fb7960902fc8ef97d602052604090205460ff16611abe5760405162461bcd60e51b815260206004820152600a60248201527f6f6e6c792061646d696e0000000000000000000000000000000000000000000060448201526064016109bf565b816001600160a01b03166352d1902d6040518163ffffffff1660e01b8152600401602060405180830381865afa92505050801561294c575060408051601f3d908101601f1916820190925261294991810190614b09565b60015b61298d576040517f4c9c8ce30000000000000000000000000000000000000000000000000000000081526001600160a01b03831660048201526024016109bf565b7f360894a13ba1a3210667c828492db98dca3e2076cc3735a920a3ca505d382bbc81146129e9576040517faa1d49a4000000000000000000000000000000000000000000000000000000008152600481018290526024016109bf565b61102a8383613178565b306001600160a01b037f00000000000000000000000000000000000000000000000000000000000000001614612872576040517fe07c8dba00000000000000000000000000000000000000000000000000000000815260040160405180910390fd5b6000807fc17b4b708b6f44255c20913a9d97a05300b670342c71fe5ae5b617bd4db5500090506000836020015184604001518560600151604051602001612a9e93929190614b22565b60408051601f1981840301815291815281516020928301206000818152928590529120805491925090612ad090614877565b9050600003612b0b576040517f38c4ac1600000000000000000000000000000000000000000000000000000000815260040160405180910390fd5b612b357f00000000000000000000000000000000000000000000000000000000000000004261491b565b6103e88560800151612b479190614b65565b11612b7e576040517f19605e0a00000000000000000000000000000000000000000000000000000000815260040160405180910390fd5b6040517feac708a30000000000000000000000000000000000000000000000000000000081526001600160a01b037f0000000000000000000000000000000000000000000000000000000000000000169063eac708a390612be59088908890600401614ba0565b60006040518083038186803b158015612bfd57600080fd5b505afa158015612c11573d6000803e3d6000fd5b505050506000612c248560000151612759565b6001600160a01b038116600090815260018501602052604090205490915015612c535760009350505050610ad8565b6001600160a01b038116600090815260018401602052604090819020839055855190518391612c8191614c34565b604051908190038120907ff4837f1a66a1e5fbde2c40d0f6eff75183139e79b0fc1eaab280a3a0be38e7b190600090a350600195945050505050565b600082604051602001612cd09190614c50565b60408051601f19818403018152919052805160209091012090506000612cf682846131ce565b9050610fd881612d89565b6040516001600160a01b038481166024830152838116604483015260648201839052610fd89186918216906323b872dd906084015b604051602081830303815290604052915060e01b6020820180517bffffffffffffffffffffffffffffffffffffffffffffffffffffffff83818316178352505050506131f8565b60006114108383613274565b6001600160a01b03811660009081527fc17b4b708b6f44255c20913a9d97a05300b670342c71fe5ae5b617bd4db5500160205260409020547fc17b4b708b6f44255c20913a9d97a05300b670342c71fe5ae5b617bd4db550009080612e1a576040517f3dd8ca9500000000000000000000000000000000000000000000000000000000815260040160405180910390fd5b60008181526020839052604090208054612e3390614877565b905060000361102a576040517f38c4ac1600000000000000000000000000000000000000000000000000000000815260040160405180910390fd5b6000610ad8825490565b6040516001600160a01b0383811660248301526044820183905261102a91859182169063a9059cbb90606401612d36565b61287261329e565b612eb961329e565b60005b8151811015610ac957612ee7828281518110612eda57612eda614848565b6020026020010151613305565b5050600101612ebc565b60007fc17b4b708b6f44255c20913a9d97a05300b670342c71fe5ae5b617bd4db5500081612f1e84612759565b6001600160a01b0381166000908152600184016020526040902054909150612f4a575060009392505050565b6001600160a01b03811660009081526001830160205260408082209190915551612f75908590614c34565b604051908190038120907ff910fd78b98e9574e8b6f0e42bc3a996a6aba3776ec20b9d85515bd74a6c8fe990600090a25060019392505050565b60007fffffffff0000000000000000000000000000000000000000000000000000000082167f7965db0b000000000000000000000000000000000000000000000000000000001480610ad857507f01ffc9a7000000000000000000000000000000000000000000000000000000007fffffffff00000000000000000000000000000000000000000000000000000000831614610ad8565b60008281527f02dd7bc7dec4dceedda775e58dd541e08a116c6c53815c0bd028192f7b626800602090815260408083206001600160a01b038516845290915290205460ff16610ac9576040517fe2517d3f0000000000000000000000000000000000000000000000000000000081526001600160a01b0382166004820152602481018390526044016109bf565b60007fc1f6fe24621ce81ec5827caf0253cadb74709b061630e6b55e823717059320008161310185856134ad565b90508015611692576000858152602083905260409020613121908561359a565b50949350505050565b60007fc1f6fe24621ce81ec5827caf0253cadb74709b061630e6b55e823717059320008161315885856135af565b905080156116925760008581526020839052604090206131219085613673565b61318182613688565b6040516001600160a01b038316907fbc7cd75a20ee27fd9adebab32041f755214dbc6bffa90cc0225b39da2e5c2d3b90600090a28051156131c65761102a8282613730565b610ac96137a6565b6000806000806131de86866137de565b9250925092506131ee828261382b565b5090949350505050565b600061320d6001600160a01b0384168361392f565b905080516000141580156132325750808060200190518101906132309190614c86565b155b1561102a576040517f5274afe70000000000000000000000000000000000000000000000000000000081526001600160a01b03841660048201526024016109bf565b600082600001828154811061328b5761328b614848565b9060005260206000200154905092915050565b7ff0c57e16840df040f15088dc2f81fe391c3923bec73e23a9662efc9c229c6a005468010000000000000000900460ff16612872576040517fd7e6bcf800000000000000000000000000000000000000000000000000000000815260040160405180910390fd5b80515160009081907fc17b4b708b6f44255c20913a9d97a05300b670342c71fe5ae5b617bd4db5500090603014801561334357508360200151516030145b801561335457508360400151516030145b61338a576040517f84c61bb600000000000000000000000000000000000000000000000000000000815260040160405180910390fd5b60008460000151856020015186604001516040516020016133ad93929190614b22565b60408051601f19818403018152918152815160209283012060008181529285905291208054919250906133df90614877565b1590506133f157946000945092505050565b6040805160608101825286518152602080880151818301528783015182840152600084815290859052919091208151819061342c90826149e5565b506020820151600182019061344190826149e5565b506040820151600282019061345690826149e5565b50905050807f52b29bbdd97ab983419f50fa1590e5ab75e9942279e95e10a08607b06c23238b86600001518760200151886040015160405161349a93929190614ca8565b60405180910390a2946001945092505050565b60008281527f02dd7bc7dec4dceedda775e58dd541e08a116c6c53815c0bd028192f7b626800602081815260408084206001600160a01b038616855290915282205460ff16613590576000848152602082815260408083206001600160a01b0387168452909152902080547fffffffffffffffffffffffffffffffffffffffffffffffffffffffffffffff001660011790556135463390565b6001600160a01b0316836001600160a01b0316857f2f8788117e7eff1d82e926ec794901d17c78024a50270940304540a733656f0d60405160405180910390a46001915050610ad8565b6000915050610ad8565b6000611410836001600160a01b03841661393d565b60008281527f02dd7bc7dec4dceedda775e58dd541e08a116c6c53815c0bd028192f7b626800602081815260408084206001600160a01b038616855290915282205460ff1615613590576000848152602082815260408083206001600160a01b038716808552925280832080547fffffffffffffffffffffffffffffffffffffffffffffffffffffffffffffff0016905551339287917ff6391f5c32d9c69d2a47ea670b442974b53935d1edc7fd64eb21e047a839171b9190a46001915050610ad8565b6000611410836001600160a01b03841661398c565b806001600160a01b03163b6000036136d7576040517f4c9c8ce30000000000000000000000000000000000000000000000000000000081526001600160a01b03821660048201526024016109bf565b7f360894a13ba1a3210667c828492db98dca3e2076cc3735a920a3ca505d382bbc80547fffffffffffffffffffffffff0000000000000000000000000000000000000000166001600160a01b0392909216919091179055565b6060600080846001600160a01b03168460405161374d9190614c34565b600060405180830381855af49150503d8060008114613788576040519150601f19603f3d011682016040523d82523d6000602084013e61378d565b606091505b509150915061379d858383613a75565b95945050505050565b3415612872576040517fb398979f00000000000000000000000000000000000000000000000000000000815260040160405180910390fd5b600080600083516041036138185760208401516040850151606086015160001a61380a88828585613ae3565b955095509550505050613824565b50508151600091506002905b9250925092565b600082600381111561383f5761383f614ce1565b03613848575050565b600182600381111561385c5761385c614ce1565b03613893576040517ff645eedf00000000000000000000000000000000000000000000000000000000815260040160405180910390fd5b60028260038111156138a7576138a7614ce1565b036138e1576040517ffce698f7000000000000000000000000000000000000000000000000000000008152600481018290526024016109bf565b60038260038111156138f5576138f5614ce1565b03610ac9576040517fd78bce0c000000000000000000000000000000000000000000000000000000008152600481018290526024016109bf565b606061141083836000613bb2565b600081815260018301602052604081205461398457508154600181810184556000848152602080822090930184905584548482528286019093526040902091909155610ad8565b506000610ad8565b600081815260018301602052604081205480156135905760006139b060018361491b565b85549091506000906139c49060019061491b565b9050808214613a295760008660000182815481106139e4576139e4614848565b9060005260206000200154905080876000018481548110613a0757613a07614848565b6000918252602080832090910192909255918252600188019052604090208390555b8554869080613a3a57613a3a61492e565b600190038181906000526020600020016000905590558560010160008681526020019081526020016000206000905560019350505050610ad8565b606082613a8a57613a8582613c68565b611410565b8151158015613aa157506001600160a01b0384163b155b15610f8d576040517f9996b3150000000000000000000000000000000000000000000000000000000081526001600160a01b03851660048201526024016109bf565b600080807f7fffffffffffffffffffffffffffffff5d576e7357a4501ddfe92f46681b20a0841115613b1e5750600091506003905082613ba8565b604080516000808252602082018084528a905260ff891692820192909252606081018790526080810186905260019060a0016020604051602081039080840390855afa158015613b72573d6000803e3d6000fd5b5050604051601f1901519150506001600160a01b038116613b9e57506000925060019150829050613ba8565b9250600091508190505b9450945094915050565b606081471015613bf0576040517fcd7860590000000000000000000000000000000000000000000000000000000081523060048201526024016109bf565b600080856001600160a01b03168486604051613c0c9190614c34565b60006040518083038185875af1925050503d8060008114613c49576040519150601f19603f3d011682016040523d82523d6000602084013e613c4e565b606091505b5091509150613c5e868383613a75565b9695505050505050565b805115613c785780518082602001fd5b6040517f1425ea4200000000000000000000000000000000000000000000000000000000815260040160405180910390fd5b508054613cb690614877565b6000825580601f10613cc6575050565b601f016020900490600052602060002090810190611abe9190613d49565b828054828255906000526020600020908101928215613d1f579160200282015b82811115613d1f578251825591602001919060010190613d04565b50613d2b929150613d49565b5090565b5080546000825590600052602060002090810190611abe91905b5b80821115613d2b5760008155600101613d4a565b7f4e487b7100000000000000000000000000000000000000000000000000000000600052604160045260246000fd5b60405160a0810167ffffffffffffffff81118282101715613db057613db0613d5e565b60405290565b6040516060810167ffffffffffffffff81118282101715613db057613db0613d5e565b6040805190810167ffffffffffffffff81118282101715613db057613db0613d5e565b604051601f8201601f1916810167ffffffffffffffff81118282101715613e2557613e25613d5e565b604052919050565b600067ffffffffffffffff821115613e4757613e47613d5e565b5060051b60200190565b600082601f830112613e6257600080fd5b81356020613e77613e7283613e2d565b613dfc565b8083825260208201915060208460051b870101935086841115613e9957600080fd5b602086015b84811015613eb55780358352918301918301613e9e565b509695505050505050565b600060208284031215613ed257600080fd5b813567ffffffffffffffff811115613ee957600080fd5b61169284828501613e51565b6001600160a01b0381168114611abe57600080fd5b600060208284031215613f1c57600080fd5b813561141081613ef5565b600060208284031215613f3957600080fd5b81357fffffffff000000000000000000000000000000000000000000000000000000008116811461141057600080fd5b600060208284031215613f7b57600080fd5b5035919050565b60005b83811015613f9d578181015183820152602001613f85565b50506000910152565b60008151808452613fbe816020860160208601613f82565b601f01601f19169290920160200192915050565b602081526000825160606020840152613fee6080840182613fa6565b90506020840151601f198085840301604086015261400c8383613fa6565b925060408601519150808584030160608601525061379d8282613fa6565b60008151808452602080850194506020840160005b8381101561405b5781518752958201959082019060010161403f565b509495945050505050565b600060208083018184528085518083526040925060408601915060408160051b87010184880160005b8381101561410e577fffffffffffffffffffffffffffffffffffffffffffffffffffffffffffffffc0898403018552815160806001600160a01b03825116855288820151818a8701526140e48287018261402a565b838a0151878b0152606093840151151593909601929092525050938601939086019060010161408f565b509098975050505050505050565b6000806040838503121561412f57600080fd5b82359150602083013561414181613ef5565b809150509250929050565b600067ffffffffffffffff83111561416657614166613d5e565b6141796020601f19601f86011601613dfc565b905082815283838301111561418d57600080fd5b828260208301376000602084830101529392505050565b600082601f8301126141b557600080fd5b6114108383356020850161414c565b600080604083850312156141d757600080fd5b823567ffffffffffffffff808211156141ef57600080fd5b6141fb868387016141a4565b9350602085013591508082111561421157600080fd5b5061421e85828601613e51565b9150509250929050565b6000806040838503121561423b57600080fd5b823561424681613ef5565b9150602083013567ffffffffffffffff81111561426257600080fd5b61421e858286016141a4565b60008060008060008060008060006101208a8c03121561428d57600080fd5b893567ffffffffffffffff808211156142a557600080fd5b6142b18d838e016141a4565b9a5060208c01359150808211156142c757600080fd5b6142d38d838e016141a4565b995060408c01359150808211156142e957600080fd5b6142f58d838e016141a4565b985060608c013591508082111561430b57600080fd5b6143178d838e016141a4565b975060808c013591508082111561432d57600080fd5b6143398d838e016141a4565b965060a08c0135955060c08c013591508082111561435657600080fd5b6143628d838e01613e51565b945060e08c013591508082111561437857600080fd5b506143858c828d016141a4565b9250506101008a013590509295985092959850929598565b600080604083850312156143b057600080fd5b50508035926020909101359150565b600080604083850312156143d257600080fd5b823567ffffffffffffffff808211156143ea57600080fd5b6143f6868387016141a4565b9350602085013591508082111561440c57600080fd5b9084019060a0828703121561442057600080fd5b614428613d8d565b82358281111561443757600080fd5b614443888286016141a4565b82525060208301358281111561445857600080fd5b614464888286016141a4565b60208301525060408301358281111561447c57600080fd5b614488888286016141a4565b6040830152506060830135828111156144a057600080fd5b6144ac888286016141a4565b606083015250608083013560808201528093505050509250929050565b600080604083850312156144dc57600080fd5b823567ffffffffffffffff8111156144f357600080fd5b6144ff858286016141a4565b95602094909401359450505050565b6020815260006114106020830184613fa6565b803561452c81613ef5565b919050565b6001600160a01b0385168152608060208201526000614553608083018661402a565b60408301949094525090151560609091015292915050565b60008060006060848603121561458057600080fd5b833561458b81613ef5565b925060208481013567ffffffffffffffff808211156145a957600080fd5b818701915087601f8301126145bd57600080fd5b81356145cb613e7282613e2d565b81815260059190911b8301840190848101908a8311156145ea57600080fd5b8585015b838110156146a05780358581111561460557600080fd5b86016060818e03601f1901121561461b57600080fd5b614623613db6565b888201358781111561463457600080fd5b6146428f8b838601016141a4565b8252506040820135878111156146585760008081fd5b6146668f8b838601016141a4565b8a8301525060608201358781111561467e5760008081fd5b61468c8f8b838601016141a4565b6040830152508452509186019186016145ee565b508097505050505050506146b660408501614521565b90509250925092565b6000602082840312156146d157600080fd5b813567ffffffffffffffff8111156146e857600080fd5b611692848285016141a4565b6001600160a01b03831681526040602082015260006116926040830184613fa6565b600080604080848603121561472a57600080fd5b833567ffffffffffffffff8082111561474257600080fd5b61474e87838801613e51565b945060209150818601358181111561476557600080fd5b8601601f8101881361477657600080fd5b8035614784613e7282613e2d565b81815260059190911b8201840190848101908a8311156147a357600080fd5b8584015b83811015614836578035868111156147bf5760008081fd5b8501808d03601f19018913156147d55760008081fd5b6147dd613dd9565b888201356147ea81613ef5565b8152818a0135888111156147fe5760008081fd5b8083019250508d603f8301126148145760008081fd5b6148248e8a8401358c850161414c565b818a01528452509186019186016147a7565b50809750505050505050509250929050565b7f4e487b7100000000000000000000000000000000000000000000000000000000600052603260045260246000fd5b600181811c9082168061488b57607f821691505b6020821081036148c4577f4e487b7100000000000000000000000000000000000000000000000000000000600052602260045260246000fd5b50919050565b6040815260006148dd6040830185613fa6565b90508260208301529392505050565b7f4e487b7100000000000000000000000000000000000000000000000000000000600052601160045260246000fd5b81810381811115610ad857610ad86148ec565b7f4e487b7100000000000000000000000000000000000000000000000000000000600052603160045260246000fd5b80820180821115610ad857610ad86148ec565b6060815260006149836060830186613fa6565b60208301949094525060400152919050565b601f82111561102a576000816000526020600020601f850160051c810160208610156149be5750805b601f850160051c820191505b818110156149dd578281556001016149ca565b505050505050565b815167ffffffffffffffff8111156149ff576149ff613d5e565b614a1381614a0d8454614877565b84614995565b602080601f831160018114614a665760008415614a305750858301515b7fffffffffffffffffffffffffffffffffffffffffffffffffffffffffffffffff600386901b1c1916600185901b1785556149dd565b600085815260208120601f198616915b82811015614a9557888601518255948401946001909101908401614a76565b5085821015614ad157878501517fffffffffffffffffffffffffffffffffffffffffffffffffffffffffffffffff600388901b60f8161c191681555b5050505050600190811b01905550565b8381526001600160a01b038316602082015260606040820152600061379d6060830184613fa6565b600060208284031215614b1b57600080fd5b5051919050565b60008451614b34818460208901613f82565b845190830190614b48818360208901613f82565b8451910190614b5b818360208801613f82565b0195945050505050565b600082614b9b577f4e487b7100000000000000000000000000000000000000000000000000000000600052601260045260246000fd5b500490565b604081526000614bb36040830185613fa6565b8281036020840152835160a08252614bce60a0830182613fa6565b905060208501518282036020840152614be78282613fa6565b91505060408501518282036040840152614c018282613fa6565b91505060608501518282036060840152614c1b8282613fa6565b9150506080850151608083015280925050509392505050565b60008251614c46818460208701613f82565b9190910192915050565b815160009082906020808601845b83811015614c7a57815185529382019390820190600101614c5e565b50929695505050505050565b600060208284031215614c9857600080fd5b8151801515811461141057600080fd5b606081526000614cbb6060830186613fa6565b8281036020840152614ccd8186613fa6565b90508281036040840152613c5e8185613fa6565b7f4e487b7100000000000000000000000000000000000000000000000000000000600052602160045260246000fdfea26469706673582212201cf05e4ed8d0b07e07997909fd02a5c4db36e5c31186a5c6ca5d7ca119c5bab564736f6c63430008190033",
  "linkReferences": {},
  "deployedLinkReferences": {}
}