{
  "_format": "hh-sol-artifact-1",
  "contractName": "CommonChainJobs",
  "sourceName": "contracts/serverless-v2/CommonChainJobs.sol",
  "abi": [
    {
      "inputs": [
        {
          "internalType": "contract IERC20",
          "name": "_token",
          "type": "address"
        },
        {
          "internalType": "uint256",
          "name": "_relayBufferTime",
          "type": "uint256"
        },
        {
          "internalType": "uint256",
          "name": "_executionBufferTime",
          "type": "uint256"
        },
        {
          "internalType": "uint256",
          "name": "_noOfNodesToSelect",
          "type": "uint256"
        }
      ],
      "stateMutability": "nonpayable",
      "type": "constructor"
    },
    {
      "inputs": [],
      "name": "AccessControlBadConfirmation",
      "type": "error"
    },
    {
      "inputs": [
        {
          "internalType": "address",
          "name": "account",
          "type": "address"
        },
        {
          "internalType": "bytes32",
          "name": "neededRole",
          "type": "bytes32"
        }
      ],
      "name": "AccessControlUnauthorizedAccount",
      "type": "error"
    },
    {
      "inputs": [
        {
          "internalType": "address",
          "name": "target",
          "type": "address"
        }
      ],
      "name": "AddressEmptyCode",
      "type": "error"
    },
    {
      "inputs": [],
      "name": "DeadlineNotOver",
      "type": "error"
    },
    {
      "inputs": [],
      "name": "ECDSAInvalidSignature",
      "type": "error"
    },
    {
      "inputs": [
        {
          "internalType": "uint256",
          "name": "length",
          "type": "uint256"
        }
      ],
      "name": "ECDSAInvalidSignatureLength",
      "type": "error"
    },
    {
      "inputs": [
        {
          "internalType": "bytes32",
          "name": "s",
          "type": "bytes32"
        }
      ],
      "name": "ECDSAInvalidSignatureS",
      "type": "error"
    },
    {
      "inputs": [
        {
          "internalType": "address",
          "name": "implementation",
          "type": "address"
        }
      ],
      "name": "ERC1967InvalidImplementation",
      "type": "error"
    },
    {
      "inputs": [],
      "name": "ERC1967NonPayable",
      "type": "error"
    },
    {
      "inputs": [],
      "name": "ExecutionTimeOver",
      "type": "error"
    },
    {
      "inputs": [],
      "name": "ExecutorAlreadySubmittedOutput",
      "type": "error"
    },
    {
      "inputs": [],
      "name": "FailedInnerCall",
      "type": "error"
    },
    {
      "inputs": [],
      "name": "InvalidInitialization",
      "type": "error"
    },
    {
      "inputs": [],
      "name": "InvalidJob",
      "type": "error"
    },
    {
      "inputs": [],
      "name": "InvalidSequenceId",
      "type": "error"
    },
    {
      "inputs": [],
      "name": "JobAlreadyExecuted",
      "type": "error"
    },
    {
      "inputs": [],
      "name": "JobAlreadyRelayed",
      "type": "error"
    },
    {
      "inputs": [],
      "name": "JobMarkedEndedAsResourceUnavailable",
      "type": "error"
    },
    {
      "inputs": [],
      "name": "NotInitializing",
      "type": "error"
    },
    {
      "inputs": [],
      "name": "NotSelectedExecutor",
      "type": "error"
    },
    {
      "inputs": [],
      "name": "RelayTimeOver",
      "type": "error"
    },
    {
      "inputs": [],
      "name": "UUPSUnauthorizedCallContext",
      "type": "error"
    },
    {
      "inputs": [
        {
          "internalType": "bytes32",
          "name": "slot",
          "type": "bytes32"
        }
      ],
      "name": "UUPSUnsupportedProxiableUUID",
      "type": "error"
    },
    {
      "inputs": [],
      "name": "UnsupportedChain",
      "type": "error"
    },
    {
      "inputs": [],
      "name": "ZeroAddressAdmin",
      "type": "error"
    },
    {
      "inputs": [],
      "name": "ZeroAddressToken",
      "type": "error"
    },
    {
      "anonymous": false,
      "inputs": [
        {
          "indexed": true,
          "internalType": "uint256",
          "name": "jobId",
          "type": "uint256"
        },
        {
          "indexed": true,
          "internalType": "uint256",
          "name": "reqChainId",
          "type": "uint256"
        },
        {
          "indexed": false,
          "internalType": "address",
          "name": "prevGatewayKey",
          "type": "address"
        },
        {
          "indexed": false,
          "internalType": "address",
          "name": "reporterGateway",
          "type": "address"
        },
        {
          "indexed": false,
          "internalType": "uint8",
          "name": "sequenceId",
          "type": "uint8"
        }
      ],
      "name": "GatewayReassigned",
      "type": "event"
    },
    {
      "anonymous": false,
      "inputs": [
        {
          "indexed": false,
          "internalType": "uint64",
          "name": "version",
          "type": "uint64"
        }
      ],
      "name": "Initialized",
      "type": "event"
    },
    {
      "anonymous": false,
      "inputs": [
        {
          "indexed": true,
          "internalType": "uint256",
          "name": "jobId",
          "type": "uint256"
        },
        {
          "indexed": true,
          "internalType": "uint256",
          "name": "reqChainId",
          "type": "uint256"
        },
        {
          "indexed": false,
          "internalType": "bytes32",
          "name": "codehash",
          "type": "bytes32"
        },
        {
          "indexed": false,
          "internalType": "bytes",
          "name": "codeInputs",
          "type": "bytes"
        },
        {
          "indexed": false,
          "internalType": "uint256",
          "name": "deadline",
          "type": "uint256"
        },
        {
          "indexed": false,
          "internalType": "address",
          "name": "jobOwner",
          "type": "address"
        },
        {
          "indexed": false,
          "internalType": "address",
          "name": "gatewayOperator",
          "type": "address"
        },
        {
          "indexed": false,
          "internalType": "address[]",
          "name": "selectedExecutors",
          "type": "address[]"
        }
      ],
      "name": "JobRelayed",
      "type": "event"
    },
    {
      "anonymous": false,
      "inputs": [
        {
          "indexed": true,
          "internalType": "uint256",
          "name": "jobId",
          "type": "uint256"
        },
        {
          "indexed": true,
          "internalType": "uint256",
          "name": "reqChainId",
          "type": "uint256"
        },
        {
          "indexed": true,
          "internalType": "address",
          "name": "gatewayOperator",
          "type": "address"
        }
      ],
      "name": "JobResourceUnavailable",
      "type": "event"
    },
    {
      "anonymous": false,
      "inputs": [
        {
          "indexed": true,
          "internalType": "uint256",
          "name": "jobId",
          "type": "uint256"
        },
        {
          "indexed": true,
          "internalType": "uint256",
          "name": "reqChainId",
          "type": "uint256"
        },
        {
          "indexed": false,
          "internalType": "bytes",
          "name": "output",
          "type": "bytes"
        },
        {
          "indexed": false,
          "internalType": "uint256",
          "name": "totalTime",
          "type": "uint256"
        },
        {
          "indexed": false,
          "internalType": "uint8",
          "name": "errorCode",
          "type": "uint8"
        },
        {
          "indexed": false,
          "internalType": "uint8",
          "name": "outputCount",
          "type": "uint8"
        }
      ],
      "name": "JobResponded",
      "type": "event"
    },
    {
      "anonymous": false,
      "inputs": [
        {
          "indexed": true,
          "internalType": "bytes32",
          "name": "role",
          "type": "bytes32"
        },
        {
          "indexed": true,
          "internalType": "bytes32",
          "name": "previousAdminRole",
          "type": "bytes32"
        },
        {
          "indexed": true,
          "internalType": "bytes32",
          "name": "newAdminRole",
          "type": "bytes32"
        }
      ],
      "name": "RoleAdminChanged",
      "type": "event"
    },
    {
      "anonymous": false,
      "inputs": [
        {
          "indexed": true,
          "internalType": "bytes32",
          "name": "role",
          "type": "bytes32"
        },
        {
          "indexed": true,
          "internalType": "address",
          "name": "account",
          "type": "address"
        },
        {
          "indexed": true,
          "internalType": "address",
          "name": "sender",
          "type": "address"
        }
      ],
      "name": "RoleGranted",
      "type": "event"
    },
    {
      "anonymous": false,
      "inputs": [
        {
          "indexed": true,
          "internalType": "bytes32",
          "name": "role",
          "type": "bytes32"
        },
        {
          "indexed": true,
          "internalType": "address",
          "name": "account",
          "type": "address"
        },
        {
          "indexed": true,
          "internalType": "address",
          "name": "sender",
          "type": "address"
        }
      ],
      "name": "RoleRevoked",
      "type": "event"
    },
    {
      "anonymous": false,
      "inputs": [
        {
          "indexed": true,
          "internalType": "uint256",
          "name": "jobId",
          "type": "uint256"
        },
        {
          "indexed": true,
          "internalType": "uint256",
          "name": "reqChainId",
          "type": "uint256"
        },
        {
          "indexed": false,
          "internalType": "address[]",
          "name": "executors",
          "type": "address[]"
        }
      ],
      "name": "SlashedOnExecutionTimeout",
      "type": "event"
    },
    {
      "anonymous": false,
      "inputs": [
        {
          "indexed": true,
          "internalType": "address",
          "name": "implementation",
          "type": "address"
        }
      ],
      "name": "Upgraded",
      "type": "event"
    },
    {
      "inputs": [],
      "name": "DEFAULT_ADMIN_ROLE",
      "outputs": [
        {
          "internalType": "bytes32",
          "name": "",
          "type": "bytes32"
        }
      ],
      "stateMutability": "view",
      "type": "function"
    },
    {
      "inputs": [],
      "name": "EXECUTION_BUFFER_TIME",
      "outputs": [
        {
          "internalType": "uint256",
          "name": "",
          "type": "uint256"
        }
      ],
      "stateMutability": "view",
      "type": "function"
    },
    {
      "inputs": [],
      "name": "NO_OF_NODES_TO_SELECT",
      "outputs": [
        {
          "internalType": "uint256",
          "name": "",
          "type": "uint256"
        }
      ],
      "stateMutability": "view",
      "type": "function"
    },
    {
      "inputs": [],
      "name": "RELAY_BUFFER_TIME",
      "outputs": [
        {
          "internalType": "uint256",
          "name": "",
          "type": "uint256"
        }
      ],
      "stateMutability": "view",
      "type": "function"
    },
    {
      "inputs": [],
      "name": "TOKEN",
      "outputs": [
        {
          "internalType": "contract IERC20",
          "name": "",
          "type": "address"
        }
      ],
      "stateMutability": "view",
      "type": "function"
    },
    {
      "inputs": [],
      "name": "UPGRADE_INTERFACE_VERSION",
      "outputs": [
        {
          "internalType": "string",
          "name": "",
          "type": "string"
        }
      ],
      "stateMutability": "view",
      "type": "function"
    },
    {
      "inputs": [
        {
          "internalType": "address",
          "name": "_admin",
          "type": "address"
        },
        {
          "internalType": "contract CommonChainGateways",
          "name": "_gateways",
          "type": "address"
        },
        {
          "internalType": "contract CommonChainExecutors",
          "name": "_executors",
          "type": "address"
        }
      ],
      "name": "__CommonChainJobs_init",
      "outputs": [],
      "stateMutability": "nonpayable",
      "type": "function"
    },
    {
      "inputs": [],
      "name": "executors",
      "outputs": [
        {
          "internalType": "contract CommonChainExecutors",
          "name": "",
          "type": "address"
        }
      ],
      "stateMutability": "view",
      "type": "function"
    },
    {
      "inputs": [],
      "name": "gateways",
      "outputs": [
        {
          "internalType": "contract CommonChainGateways",
          "name": "",
          "type": "address"
        }
      ],
      "stateMutability": "view",
      "type": "function"
    },
    {
      "inputs": [
        {
          "internalType": "uint256",
          "name": "_jobId",
          "type": "uint256"
        },
        {
          "internalType": "uint256",
          "name": "_reqChainId",
          "type": "uint256"
        }
      ],
      "name": "getKey",
      "outputs": [
        {
          "internalType": "uint256",
          "name": "",
          "type": "uint256"
        }
      ],
      "stateMutability": "pure",
      "type": "function"
    },
    {
      "inputs": [
        {
          "internalType": "bytes32",
          "name": "role",
          "type": "bytes32"
        }
      ],
      "name": "getRoleAdmin",
      "outputs": [
        {
          "internalType": "bytes32",
          "name": "",
          "type": "bytes32"
        }
      ],
      "stateMutability": "view",
      "type": "function"
    },
    {
      "inputs": [
        {
          "internalType": "uint256",
          "name": "_jobId",
          "type": "uint256"
        },
        {
          "internalType": "uint256",
          "name": "_reqChainId",
          "type": "uint256"
        }
      ],
      "name": "getSelectedExecutors",
      "outputs": [
        {
          "internalType": "address[]",
          "name": "",
          "type": "address[]"
        }
      ],
      "stateMutability": "view",
      "type": "function"
    },
    {
      "inputs": [
        {
          "internalType": "bytes32",
          "name": "role",
          "type": "bytes32"
        },
        {
          "internalType": "address",
          "name": "account",
          "type": "address"
        }
      ],
      "name": "grantRole",
      "outputs": [],
      "stateMutability": "nonpayable",
      "type": "function"
    },
    {
      "inputs": [
        {
          "internalType": "uint256",
          "name": "",
          "type": "uint256"
        },
        {
          "internalType": "address",
          "name": "",
          "type": "address"
        }
      ],
      "name": "hasExecutedJob",
      "outputs": [
        {
          "internalType": "bool",
          "name": "",
          "type": "bool"
        }
      ],
      "stateMutability": "view",
      "type": "function"
    },
    {
      "inputs": [
        {
          "internalType": "bytes32",
          "name": "role",
          "type": "bytes32"
        },
        {
          "internalType": "address",
          "name": "account",
          "type": "address"
        }
      ],
      "name": "hasRole",
      "outputs": [
        {
          "internalType": "bool",
          "name": "",
          "type": "bool"
        }
      ],
      "stateMutability": "view",
      "type": "function"
    },
    {
      "inputs": [
        {
          "internalType": "uint256",
          "name": "_jobId",
          "type": "uint256"
        },
        {
          "internalType": "uint256",
          "name": "_reqChainId",
          "type": "uint256"
        },
        {
          "internalType": "address",
          "name": "_executor",
          "type": "address"
        }
      ],
      "name": "isJobExecutor",
      "outputs": [
        {
          "internalType": "bool",
          "name": "",
          "type": "bool"
        }
      ],
      "stateMutability": "view",
      "type": "function"
    },
    {
      "inputs": [
        {
          "internalType": "uint256",
          "name": "",
          "type": "uint256"
        }
      ],
      "name": "jobs",
      "outputs": [
        {
          "internalType": "uint256",
          "name": "jobId",
          "type": "uint256"
        },
        {
          "internalType": "uint256",
          "name": "reqChainId",
          "type": "uint256"
        },
        {
          "internalType": "bytes32",
          "name": "codehash",
          "type": "bytes32"
        },
        {
          "internalType": "bytes",
          "name": "codeInputs",
          "type": "bytes"
        },
        {
          "internalType": "uint256",
          "name": "deadline",
          "type": "uint256"
        },
        {
          "internalType": "uint256",
          "name": "execStartTime",
          "type": "uint256"
        },
        {
          "internalType": "address",
          "name": "jobOwner",
          "type": "address"
        },
        {
          "internalType": "uint8",
          "name": "outputCount",
          "type": "uint8"
        },
        {
          "internalType": "uint8",
          "name": "sequenceId",
          "type": "uint8"
        },
        {
          "internalType": "bool",
          "name": "isResourceUnavailable",
          "type": "bool"
        }
      ],
      "stateMutability": "view",
      "type": "function"
    },
    {
      "inputs": [],
      "name": "proxiableUUID",
      "outputs": [
        {
          "internalType": "bytes32",
          "name": "",
          "type": "bytes32"
        }
      ],
      "stateMutability": "view",
      "type": "function"
    },
    {
      "inputs": [
        {
          "internalType": "address",
          "name": "_gatewayKeyOld",
          "type": "address"
        },
        {
          "internalType": "uint256",
          "name": "_jobId",
          "type": "uint256"
        },
        {
          "internalType": "uint256",
          "name": "_reqChainId",
          "type": "uint256"
        },
        {
          "internalType": "bytes",
          "name": "_signature",
          "type": "bytes"
        },
        {
          "internalType": "uint8",
          "name": "_sequenceId",
          "type": "uint8"
        }
      ],
      "name": "reassignGatewayRelay",
      "outputs": [],
      "stateMutability": "nonpayable",
      "type": "function"
    },
    {
      "inputs": [
        {
          "internalType": "bytes",
          "name": "_signature",
          "type": "bytes"
        },
        {
          "internalType": "uint256",
          "name": "_jobId",
          "type": "uint256"
        },
        {
          "internalType": "uint256",
          "name": "_reqChainId",
          "type": "uint256"
        },
        {
          "internalType": "bytes32",
          "name": "_codehash",
          "type": "bytes32"
        },
        {
          "internalType": "bytes",
          "name": "_codeInputs",
          "type": "bytes"
        },
        {
          "internalType": "uint256",
          "name": "_deadline",
          "type": "uint256"
        },
        {
          "internalType": "uint256",
          "name": "_jobRequestTimestamp",
          "type": "uint256"
        },
        {
          "internalType": "uint8",
          "name": "_sequenceId",
          "type": "uint8"
        },
        {
          "internalType": "address",
          "name": "_jobOwner",
          "type": "address"
        }
      ],
      "name": "relayJob",
      "outputs": [],
      "stateMutability": "nonpayable",
      "type": "function"
    },
    {
      "inputs": [
        {
          "internalType": "bytes32",
          "name": "role",
          "type": "bytes32"
        },
        {
          "internalType": "address",
          "name": "callerConfirmation",
          "type": "address"
        }
      ],
      "name": "renounceRole",
      "outputs": [],
      "stateMutability": "nonpayable",
      "type": "function"
    },
    {
      "inputs": [
        {
          "internalType": "bytes32",
          "name": "role",
          "type": "bytes32"
        },
        {
          "internalType": "address",
          "name": "account",
          "type": "address"
        }
      ],
      "name": "revokeRole",
      "outputs": [],
      "stateMutability": "nonpayable",
      "type": "function"
    },
    {
      "inputs": [
        {
          "internalType": "uint256",
          "name": "",
          "type": "uint256"
        },
        {
          "internalType": "uint256",
          "name": "",
          "type": "uint256"
        }
      ],
      "name": "selectedExecutors",
      "outputs": [
        {
          "internalType": "address",
          "name": "",
          "type": "address"
        }
      ],
      "stateMutability": "view",
      "type": "function"
    },
    {
      "inputs": [
        {
          "internalType": "contract CommonChainExecutors",
          "name": "_executors",
          "type": "address"
        }
      ],
      "name": "setExecutorsContract",
      "outputs": [],
      "stateMutability": "nonpayable",
      "type": "function"
    },
    {
      "inputs": [
        {
          "internalType": "contract CommonChainGateways",
          "name": "_gateways",
          "type": "address"
        }
      ],
      "name": "setGatewaysContract",
      "outputs": [],
      "stateMutability": "nonpayable",
      "type": "function"
    },
    {
      "inputs": [
        {
          "internalType": "uint256",
          "name": "_jobId",
          "type": "uint256"
        },
        {
          "internalType": "uint256",
          "name": "_reqChainId",
          "type": "uint256"
        }
      ],
      "name": "slashOnExecutionTimeout",
      "outputs": [],
      "stateMutability": "nonpayable",
      "type": "function"
    },
    {
      "inputs": [
        {
          "internalType": "bytes",
          "name": "_signature",
          "type": "bytes"
        },
        {
          "internalType": "uint256",
          "name": "_jobId",
          "type": "uint256"
        },
        {
          "internalType": "uint256",
          "name": "_reqChainId",
          "type": "uint256"
        },
        {
          "internalType": "bytes",
          "name": "_output",
          "type": "bytes"
        },
        {
          "internalType": "uint256",
          "name": "_totalTime",
          "type": "uint256"
        },
        {
          "internalType": "uint8",
          "name": "_errorCode",
          "type": "uint8"
        }
      ],
      "name": "submitOutput",
      "outputs": [],
      "stateMutability": "nonpayable",
      "type": "function"
    },
    {
      "inputs": [
        {
          "internalType": "bytes4",
          "name": "interfaceId",
          "type": "bytes4"
        }
      ],
      "name": "supportsInterface",
      "outputs": [
        {
          "internalType": "bool",
          "name": "",
          "type": "bool"
        }
      ],
      "stateMutability": "view",
      "type": "function"
    },
    {
      "inputs": [
        {
          "internalType": "address",
          "name": "newImplementation",
          "type": "address"
        },
        {
          "internalType": "bytes",
          "name": "data",
          "type": "bytes"
        }
      ],
      "name": "upgradeToAndCall",
      "outputs": [],
      "stateMutability": "payable",
      "type": "function"
    }
  ],
  "bytecode": "0x6101206040523060805234801561001557600080fd5b506040516135a53803806135a583398101604081905261003491610135565b61003c610083565b6001600160a01b038416610063576040516314f28f2b60e01b815260040160405180910390fd5b6001600160a01b0390931660a05260c09190915260e05261010052610180565b7ff0c57e16840df040f15088dc2f81fe391c3923bec73e23a9662efc9c229c6a00805468010000000000000000900460ff16156100d35760405163f92ee8a960e01b815260040160405180910390fd5b80546001600160401b03908116146101325780546001600160401b0319166001600160401b0390811782556040519081527fc7f505b2f371ae2175ee4913f4499e1f2633a7b5936321eed1cdaeb6115181d29060200160405180910390a15b50565b6000806000806080858703121561014b57600080fd5b84516001600160a01b038116811461016257600080fd5b60208601516040870151606090970151919890975090945092505050565b60805160a05160c05160e051610100516133b06101f5600039600081816103ca015281816119ad0152611a360152600081816105a101528181610b690152610f43015260008181610246015261168501526000610486015260008181611ff20152818161201b01526121d301526133b06000f3fe6080604052600436106101c25760003560e01c806371b9eae1116100f7578063a217fddf11610095578063ad3cb1cc11610064578063ad3cb1cc14610603578063d547741f14610659578063d7e4ee6514610679578063e52e63c51461069957600080fd5b8063a217fddf1461057a578063a31322581461058f578063aadc672b146105c3578063accc7f2e146105e357600080fd5b80638379f744116100d15780638379f744146104a857806384bf79cc146104d557806391d14854146104f557806397c410191461055a57600080fd5b806371b9eae11461043457806382aa29af1461045457806382bfefc81461047457600080fd5b80632f2ff15d1161016457806336f9aa991161013e57806336f9aa99146103b85780634f1ef286146103ec57806352d1902d146103ff578063661785481461041457600080fd5b80632f2ff15d146103585780633651cf281461037857806336568abe1461039857600080fd5b80631134384a116101a05780631134384a146102765780631646e701146102b1578063180aedf3146102d3578063248a9ca31461030957600080fd5b806301ffc9a7146101c7578063093a86d3146101fc57806309aa1c7f14610234575b600080fd5b3480156101d357600080fd5b506101e76101e23660046128b5565b6106b9565b60405190151581526020015b60405180910390f35b34801561020857600080fd5b5060005461021c906001600160a01b031681565b6040516001600160a01b0390911681526020016101f3565b34801561024057600080fd5b506102687f000000000000000000000000000000000000000000000000000000000000000081565b6040519081526020016101f3565b34801561028257600080fd5b506101e761029136600461290c565b600460209081526000928352604080842090915290825290205460ff1681565b3480156102bd57600080fd5b506102d16102cc36600461293c565b6106ca565b005b3480156102df57600080fd5b506102f36102ee366004612987565b6108f7565b6040516101f39a999897969594939291906129f0565b34801561031557600080fd5b50610268610324366004612987565b60009081527f02dd7bc7dec4dceedda775e58dd541e08a116c6c53815c0bd028192f7b626800602052604090206001015490565b34801561036457600080fd5b506102d161037336600461290c565b610a1e565b34801561038457600080fd5b5061021c610393366004612a5b565b610a68565b3480156103a457600080fd5b506102d16103b336600461290c565b610aa0565b3480156103c457600080fd5b506102687f000000000000000000000000000000000000000000000000000000000000000081565b6102d16103fa366004612b4d565b610af1565b34801561040b57600080fd5b50610268610b10565b34801561042057600080fd5b506102d161042f366004612bb3565b610b3f565b34801561044057600080fd5b506102d161044f366004612c43565b610e8d565b34801561046057600080fd5b506102d161046f366004612a5b565b610ed3565b34801561048057600080fd5b5061021c7f000000000000000000000000000000000000000000000000000000000000000081565b3480156104b457600080fd5b506104c86104c3366004612a5b565b6111f3565b6040516101f39190612ca5565b3480156104e157600080fd5b506102d16104f0366004612cb8565b611271565b34801561050157600080fd5b506101e761051036600461290c565b60009182527f02dd7bc7dec4dceedda775e58dd541e08a116c6c53815c0bd028192f7b626800602090815260408084206001600160a01b0393909316845291905290205460ff1690565b34801561056657600080fd5b506101e7610575366004612d2c565b611527565b34801561058657600080fd5b50610268600081565b34801561059b57600080fd5b506102687f000000000000000000000000000000000000000000000000000000000000000081565b3480156105cf57600080fd5b506102686105de366004612a5b565b61160f565b3480156105ef57600080fd5b506102d16105fe366004612d5a565b611672565b34801561060f57600080fd5b5061064c6040518060400160405280600581526020017f352e302e3000000000000000000000000000000000000000000000000000000081525081565b6040516101f39190612e14565b34801561066557600080fd5b506102d161067436600461290c565b611cfe565b34801561068557600080fd5b506102d1610694366004612c43565b611d42565b3480156106a557600080fd5b5060015461021c906001600160a01b031681565b60006106c482611d88565b92915050565b7ff0c57e16840df040f15088dc2f81fe391c3923bec73e23a9662efc9c229c6a00805468010000000000000000810460ff16159067ffffffffffffffff166000811580156107155750825b905060008267ffffffffffffffff1660011480156107325750303b155b905081158015610740575080155b15610777576040517ff92ee8a900000000000000000000000000000000000000000000000000000000815260040160405180910390fd5b84547fffffffffffffffffffffffffffffffffffffffffffffffff000000000000000016600117855583156107d85784547fffffffffffffffffffffffffffffffffffffffffffffff00ffffffffffffffff16680100000000000000001785555b6001600160a01b038816610818576040517f6e24c5d600000000000000000000000000000000000000000000000000000000815260040160405180910390fd5b610820611e1f565b610828611e1f565b610830611e1f565b610838611e1f565b610843600089611e29565b50600080546001600160a01b03808a167fffffffffffffffffffffffff000000000000000000000000000000000000000092831617909255600180549289169290911691909117905583156108ed5784547fffffffffffffffffffffffffffffffffffffffffffffff00ffffffffffffffff168555604051600181527fc7f505b2f371ae2175ee4913f4499e1f2633a7b5936321eed1cdaeb6115181d29060200160405180910390a15b5050505050505050565b60026020819052600091825260409091208054600182015492820154600383018054929493919261092790612e27565b80601f016020809104026020016040519081016040528092919081815260200182805461095390612e27565b80156109a05780601f10610975576101008083540402835291602001916109a0565b820191906000526020600020905b81548152906001019060200180831161098357829003601f168201915b50505060048401546005850154600690950154939490939092506001600160a01b038116915060ff74010000000000000000000000000000000000000000820481169175010000000000000000000000000000000000000000008104821691760100000000000000000000000000000000000000000000909104168a565b60008281527f02dd7bc7dec4dceedda775e58dd541e08a116c6c53815c0bd028192f7b6268006020526040902060010154610a5881611f16565b610a628383611e29565b50505050565b60036020528160005260406000208181548110610a8457600080fd5b6000918252602090912001546001600160a01b03169150829050565b6001600160a01b0381163314610ae2576040517f6697b23200000000000000000000000000000000000000000000000000000000815260040160405180910390fd5b610aec8282611f23565b505050565b610af9611fe7565b610b02826120b7565b610b0c82826120c2565b5050565b6000610b1a6121c8565b507f360894a13ba1a3210667c828492db98dca3e2076cc3735a920a3ca505d382bbc90565b6000610b4b868661160f565b600081815260026020526040902060048101546005909101549192507f000000000000000000000000000000000000000000000000000000000000000091610b939190612ea9565b610b9d9190612ea9565b421115610bd6576040517f0c56f9c200000000000000000000000000000000000000000000000000000000815260040160405180910390fd5b60008686868686604051602001610bf1959493929190612ebc565b60408051601f19818403018152919052805160209091012090506000610c17828a61222a565b6001546040517fa0ac45d50000000000000000000000000000000000000000000000000000000081526001600160a01b03808416600483015292935091169063a0ac45d59060240160006040518083038186803b158015610c7757600080fd5b505afa158015610c8b573d6000803e3d6000fd5b50505050610c9a888883611527565b610cd0576040517f6582d35300000000000000000000000000000000000000000000000000000000815260040160405180910390fd5b60008381526004602090815260408083206001600160a01b038516845290915290205460ff1615610d2d576040517f59039d4400000000000000000000000000000000000000000000000000000000815260040160405180910390fd5b6001546040517fb91582010000000000000000000000000000000000000000000000000000000081526001600160a01b0383811660048301529091169063b915820190602401600060405180830381600087803b158015610d8d57600080fd5b505af1158015610da1573d6000803e3d6000fd5b50505060008481526004602090815260408083206001600160a01b0386168452825280832080547fffffffffffffffffffffffffffffffffffffffffffffffffffffffffffffff001660011790558683526002909152902060060180548992508a917fcd86deaec154b5433ef7431b7e87f90921ca1b867085d3b5fbeaa0734a870c08918a918a918a9190601490610e539074010000000000000000000000000000000000000000900460ff16612f1d565b91906101000a81548160ff021916908360ff1602179055604051610e7a9493929190612f3c565b60405180910390a3505050505050505050565b6000610e9881611f16565b50600180547fffffffffffffffffffffffff0000000000000000000000000000000000000000166001600160a01b0392909216919091179055565b6000610edf838361160f565b60008181526002602052604081205491925003610f28576040517f71c8f46000000000000000000000000000000000000000000000000000000000815260040160405180910390fd5b600081815260026020526040902060048101546005909101547f000000000000000000000000000000000000000000000000000000000000000091610f6c91612ea9565b610f769190612ea9565b4211610fae576040517f9c3f88fa00000000000000000000000000000000000000000000000000000000815260040160405180910390fd5b600081815260026020819052604082208281556001810183905590810182905590610fdc60038301826127cb565b5060006004820181905560058201819055600690910180547fffffffffffffffffff000000000000000000000000000000000000000000000016905581815260036020526040812054905b8181101561119057600083815260036020526040812080548390811061104f5761104f612f6f565b60009182526020808320909101548683526004825260408084206001600160a01b039092168085529190925291205490915060ff16156110bb576040517f5aa8e88900000000000000000000000000000000000000000000000000000000815260040160405180910390fd5b60008481526004602081815260408084206001600160a01b03808716865292529283902080547fffffffffffffffffffffffffffffffffffffffffffffffffffffffffffffff0016905560015492517f8d816ec3000000000000000000000000000000000000000000000000000000008152921691638d816ec391611151918591016001600160a01b0391909116815260200190565b600060405180830381600087803b15801561116b57600080fd5b505af115801561117f573d6000803e3d6000fd5b505060019093019250611027915050565b5082847f2c59c586a31f422a6ca799a7602cfd94e2f80425f0f8808233898d631c99dbeb600360008681526020019081526020016000206040516111d49190612f9e565b60405180910390a36000828152600360205260408120610a6291612805565b60606000611201848461160f565b600081815260036020908152604091829020805483518184028101840190945280845293945091929083018282801561126357602002820191906000526020600020905b81546001600160a01b03168152600190910190602001808311611245575b505050505091505092915050565b600061127d858561160f565b600081815260026020526040902060060154909150760100000000000000000000000000000000000000000000900460ff16156112e6576040517f386a00b200000000000000000000000000000000000000000000000000000000815260040160405180910390fd5b60008181526002602052604090206006015461131f907501000000000000000000000000000000000000000000900460ff166001612fee565b60ff168260ff16141580611336575060028260ff16115b1561136d576040517f5e38d89d00000000000000000000000000000000000000000000000000000000815260040160405180910390fd5b6000818152600260209081526040808320600601805460ff87167501000000000000000000000000000000000000000000027fffffffffffffffffffff00ffffffffffffffffffffffffffffffffffffffffff909116179055805180830189905280820188905260608a811b7fffffffffffffffffffffffffffffffffffffffff000000000000000000000000169082015260f886901b7fff0000000000000000000000000000000000000000000000000000000000000016607482015281518082036055018152607590910190915280519101209061144d828661222a565b6000546040517fa0ac45d50000000000000000000000000000000000000000000000000000000081526001600160a01b03808416600483015292935091169063a0ac45d59060240160006040518083038186803b1580156114ad57600080fd5b505afa1580156114c1573d6000803e3d6000fd5b5050505085877fc31cb391e5bc4534492666e14038fba505e5f24190f587d734833f36f6b516048a6114f03390565b604080516001600160a01b03938416815292909116602083015260ff89169082015260600160405180910390a35050505050505050565b600080611534858561160f565b60008181526003602090815260408083208054825181850281018501909352808352949550929390929183018282801561159757602002820191906000526020600020905b81546001600160a01b03168152600190910190602001808311611579575b5050506000858152600360205260408120549394509150505b818110156115ff57856001600160a01b03168382815181106115d4576115d4612f6f565b60200260200101516001600160a01b0316036115f7576001945050505050611608565b6001016115b0565b50600093505050505b9392505050565b600082826040516020016116539291909182527f2d000000000000000000000000000000000000000000000000000000000000006020830152602182015260410190565b60408051601f1981840301815291905280516020909101209392505050565b600061167e898961160f565b90506116aa7f000000000000000000000000000000000000000000000000000000000000000085612ea9565b4211156116e3576040517f18a9837000000000000000000000000000000000000000000000000000000000815260040160405180910390fd5b600081815260026020526040902060060154760100000000000000000000000000000000000000000000900460ff1615611749576040517f386a00b200000000000000000000000000000000000000000000000000000000815260040160405180910390fd5b600081815260026020526040902060060154611782907501000000000000000000000000000000000000000000900460ff166001612fee565b60ff168360ff16146117c0576040517f5e38d89d00000000000000000000000000000000000000000000000000000000815260040160405180910390fd5b60008181526002602052604090206005015415611809576040517fb167fe9900000000000000000000000000000000000000000000000000000000815260040160405180910390fd5b6000546040517f5221c1f0000000000000000000000000000000000000000000000000000000008152600481018a90526001600160a01b0390911690635221c1f090602401602060405180830381865afa15801561186b573d6000803e3d6000fd5b505050506040513d601f19601f8201168201806040525081019061188f9190613007565b6118c5576040517fd21eab3700000000000000000000000000000000000000000000000000000000815260040160405180910390fd5b600089898989898989896040516020016118e6989796959493929190613029565b60408051601f1981840301815291905280516020909101209050600061190c828d61222a565b6000546040517fa0ac45d50000000000000000000000000000000000000000000000000000000081526001600160a01b03808416600483015292935091169063a0ac45d59060240160006040518083038186803b15801561196c57600080fd5b505afa158015611980573d6000803e3d6000fd5b50506001546040517f5f6531e80000000000000000000000000000000000000000000000000000000081527f00000000000000000000000000000000000000000000000000000000000000006004820152600093506001600160a01b039091169150635f6531e8906024016000604051808303816000875af1158015611a0a573d6000803e3d6000fd5b505050506040513d6000823e601f3d908101601f19168201604052611a3291908101906130c2565b90507f000000000000000000000000000000000000000000000000000000000000000081511015611af457600084815260026020526040902060060180547fffffffffffffffffff00ffffffffffffffffffffffffffffffffffffffffffff16760100000000000000000000000000000000000000000000179055611ab43390565b6001600160a01b03168b8d7f4ebb21ff905f5d90620c48c9f4b007dce57e7255ae474507566f5fe529568a3c60405160405180910390a450505050611cf3565b60008481526003602090815260409091208251611b1392840190612823565b5060408051610140810182528d815260208082018e81528284018e8152606084018e8152608085018e90524260a08601526001600160a01b038b1660c0860152600060e0860181905260ff8d1661010087015261012086018190528a8152600294859052959095208451815591516001830155519181019190915591519091906003820190611ba290826131c4565b506080820151600482015560a0820151600582015560c08201516006909101805460e0840151610100850151610120909501516001600160a01b039094167fffffffffffffffffffffff000000000000000000000000000000000000000000909216919091177401000000000000000000000000000000000000000060ff92831602177fffffffffffffffffff0000ffffffffffffffffffffffffffffffffffffffffff16750100000000000000000000000000000000000000000091909416027fffffffffffffffffff00ffffffffffffffffffffffffffffffffffffffffffff1692909217760100000000000000000000000000000000000000000000911515919091021790558a8c7fb51249bf719b85583328439685b75cb2a06fdddb25305d70151caf8d2e95d2e28c8c8c8a3388604051611ce6969594939291906132c0565b60405180910390a3505050505b505050505050505050565b60008281527f02dd7bc7dec4dceedda775e58dd541e08a116c6c53815c0bd028192f7b6268006020526040902060010154611d3881611f16565b610a628383611f23565b6000611d4d81611f16565b50600080547fffffffffffffffffffffffff0000000000000000000000000000000000000000166001600160a01b0392909216919091179055565b60007fffffffff0000000000000000000000000000000000000000000000000000000082167f7965db0b0000000000000000000000000000000000000000000000000000000014806106c457507f01ffc9a7000000000000000000000000000000000000000000000000000000007fffffffff000000000000000000000000000000000000000000000000000000008316146106c4565b611e27612254565b565b60008281527f02dd7bc7dec4dceedda775e58dd541e08a116c6c53815c0bd028192f7b626800602081815260408084206001600160a01b038616855290915282205460ff16611f0c576000848152602082815260408083206001600160a01b0387168452909152902080547fffffffffffffffffffffffffffffffffffffffffffffffffffffffffffffff00166001179055611ec23390565b6001600160a01b0316836001600160a01b0316857f2f8788117e7eff1d82e926ec794901d17c78024a50270940304540a733656f0d60405160405180910390a460019150506106c4565b60009150506106c4565b611f2081336122bb565b50565b60008281527f02dd7bc7dec4dceedda775e58dd541e08a116c6c53815c0bd028192f7b626800602081815260408084206001600160a01b038616855290915282205460ff1615611f0c576000848152602082815260408083206001600160a01b038716808552925280832080547fffffffffffffffffffffffffffffffffffffffffffffffffffffffffffffff0016905551339287917ff6391f5c32d9c69d2a47ea670b442974b53935d1edc7fd64eb21e047a839171b9190a460019150506106c4565b306001600160a01b037f000000000000000000000000000000000000000000000000000000000000000016148061208057507f00000000000000000000000000000000000000000000000000000000000000006001600160a01b03166120747f360894a13ba1a3210667c828492db98dca3e2076cc3735a920a3ca505d382bbc546001600160a01b031690565b6001600160a01b031614155b15611e27576040517fe07c8dba00000000000000000000000000000000000000000000000000000000815260040160405180910390fd5b6000610b0c81611f16565b816001600160a01b03166352d1902d6040518163ffffffff1660e01b8152600401602060405180830381865afa92505050801561211c575060408051601f3d908101601f1916820190925261211991810190613316565b60015b612162576040517f4c9c8ce30000000000000000000000000000000000000000000000000000000081526001600160a01b03831660048201526024015b60405180910390fd5b7f360894a13ba1a3210667c828492db98dca3e2076cc3735a920a3ca505d382bbc81146121be576040517faa1d49a400000000000000000000000000000000000000000000000000000000815260048101829052602401612159565b610aec8383612348565b306001600160a01b037f00000000000000000000000000000000000000000000000000000000000000001614611e27576040517fe07c8dba00000000000000000000000000000000000000000000000000000000815260040160405180910390fd5b60008060008061223a868661239e565b92509250925061224a82826123eb565b5090949350505050565b7ff0c57e16840df040f15088dc2f81fe391c3923bec73e23a9662efc9c229c6a005468010000000000000000900460ff16611e27576040517fd7e6bcf800000000000000000000000000000000000000000000000000000000815260040160405180910390fd5b60008281527f02dd7bc7dec4dceedda775e58dd541e08a116c6c53815c0bd028192f7b626800602090815260408083206001600160a01b038516845290915290205460ff16610b0c576040517fe2517d3f0000000000000000000000000000000000000000000000000000000081526001600160a01b038216600482015260248101839052604401612159565b612351826124ef565b6040516001600160a01b038316907fbc7cd75a20ee27fd9adebab32041f755214dbc6bffa90cc0225b39da2e5c2d3b90600090a280511561239657610aec8282612597565b610b0c61260d565b600080600083516041036123d85760208401516040850151606086015160001a6123ca88828585612645565b9550955095505050506123e4565b50508151600091506002905b9250925092565b60008260038111156123ff576123ff61332f565b03612408575050565b600182600381111561241c5761241c61332f565b03612453576040517ff645eedf00000000000000000000000000000000000000000000000000000000815260040160405180910390fd5b60028260038111156124675761246761332f565b036124a1576040517ffce698f700000000000000000000000000000000000000000000000000000000815260048101829052602401612159565b60038260038111156124b5576124b561332f565b03610b0c576040517fd78bce0c00000000000000000000000000000000000000000000000000000000815260048101829052602401612159565b806001600160a01b03163b60000361253e576040517f4c9c8ce30000000000000000000000000000000000000000000000000000000081526001600160a01b0382166004820152602401612159565b7f360894a13ba1a3210667c828492db98dca3e2076cc3735a920a3ca505d382bbc80547fffffffffffffffffffffffff0000000000000000000000000000000000000000166001600160a01b0392909216919091179055565b6060600080846001600160a01b0316846040516125b4919061335e565b600060405180830381855af49150503d80600081146125ef576040519150601f19603f3d011682016040523d82523d6000602084013e6125f4565b606091505b5091509150612604858383612714565b95945050505050565b3415611e27576040517fb398979f00000000000000000000000000000000000000000000000000000000815260040160405180910390fd5b600080807f7fffffffffffffffffffffffffffffff5d576e7357a4501ddfe92f46681b20a0841115612680575060009150600390508261270a565b604080516000808252602082018084528a905260ff891692820192909252606081018790526080810186905260019060a0016020604051602081039080840390855afa1580156126d4573d6000803e3d6000fd5b5050604051601f1901519150506001600160a01b0381166127005750600092506001915082905061270a565b9250600091508190505b9450945094915050565b6060826127295761272482612789565b611608565b815115801561274057506001600160a01b0384163b155b15612782576040517f9996b3150000000000000000000000000000000000000000000000000000000081526001600160a01b0385166004820152602401612159565b5080611608565b8051156127995780518082602001fd5b6040517f1425ea4200000000000000000000000000000000000000000000000000000000815260040160405180910390fd5b5080546127d790612e27565b6000825580601f106127e7575050565b601f016020900490600052602060002090810190611f2091906128a0565b5080546000825590600052602060002090810190611f2091906128a0565b828054828255906000526020600020908101928215612890579160200282015b8281111561289057825182547fffffffffffffffffffffffff0000000000000000000000000000000000000000166001600160a01b03909116178255602090920191600190910190612843565b5061289c9291506128a0565b5090565b5b8082111561289c57600081556001016128a1565b6000602082840312156128c757600080fd5b81357fffffffff000000000000000000000000000000000000000000000000000000008116811461160857600080fd5b6001600160a01b0381168114611f2057600080fd5b6000806040838503121561291f57600080fd5b823591506020830135612931816128f7565b809150509250929050565b60008060006060848603121561295157600080fd5b833561295c816128f7565b9250602084013561296c816128f7565b9150604084013561297c816128f7565b809150509250925092565b60006020828403121561299957600080fd5b5035919050565b60005b838110156129bb5781810151838201526020016129a3565b50506000910152565b600081518084526129dc8160208601602086016129a0565b601f01601f19169290920160200192915050565b60006101408c83528b60208401528a6040840152806060840152612a168184018b6129c4565b6080840199909952505060a08101959095526001600160a01b039390931660c085015260ff91821660e085015216610100830152151561012090910152949350505050565b60008060408385031215612a6e57600080fd5b50508035926020909101359150565b7f4e487b7100000000000000000000000000000000000000000000000000000000600052604160045260246000fd5b604051601f8201601f1916810167ffffffffffffffff81118282101715612ad557612ad5612a7d565b604052919050565b600082601f830112612aee57600080fd5b813567ffffffffffffffff811115612b0857612b08612a7d565b612b1b6020601f19601f84011601612aac565b818152846020838601011115612b3057600080fd5b816020850160208301376000918101602001919091529392505050565b60008060408385031215612b6057600080fd5b8235612b6b816128f7565b9150602083013567ffffffffffffffff811115612b8757600080fd5b612b9385828601612add565b9150509250929050565b803560ff81168114612bae57600080fd5b919050565b60008060008060008060c08789031215612bcc57600080fd5b863567ffffffffffffffff80821115612be457600080fd5b612bf08a838b01612add565b975060208901359650604089013595506060890135915080821115612c1457600080fd5b50612c2189828a01612add565b93505060808701359150612c3760a08801612b9d565b90509295509295509295565b600060208284031215612c5557600080fd5b8135611608816128f7565b60008151808452602080850194506020840160005b83811015612c9a5781516001600160a01b031687529582019590820190600101612c75565b509495945050505050565b6020815260006116086020830184612c60565b600080600080600060a08688031215612cd057600080fd5b8535612cdb816128f7565b94506020860135935060408601359250606086013567ffffffffffffffff811115612d0557600080fd5b612d1188828901612add565b925050612d2060808701612b9d565b90509295509295909350565b600080600060608486031215612d4157600080fd5b8335925060208401359150604084013561297c816128f7565b60008060008060008060008060006101208a8c031215612d7957600080fd5b893567ffffffffffffffff80821115612d9157600080fd5b612d9d8d838e01612add565b9a5060208c0135995060408c0135985060608c0135975060808c0135915080821115612dc857600080fd5b50612dd58c828d01612add565b95505060a08a0135935060c08a01359250612df260e08b01612b9d565b91506101008a0135612e03816128f7565b809150509295985092959850929598565b60208152600061160860208301846129c4565b600181811c90821680612e3b57607f821691505b602082108103612e74577f4e487b7100000000000000000000000000000000000000000000000000000000600052602260045260246000fd5b50919050565b7f4e487b7100000000000000000000000000000000000000000000000000000000600052601160045260246000fd5b808201808211156106c4576106c4612e7a565b85815284602082015260008451612eda8160408501602089016129a0565b604092019182019390935260f89190911b7fff00000000000000000000000000000000000000000000000000000000000000166060820152606101949350505050565b600060ff821660ff8103612f3357612f33612e7a565b60010192915050565b608081526000612f4f60808301876129c4565b60208301959095525060ff92831660408201529116606090910152919050565b7f4e487b7100000000000000000000000000000000000000000000000000000000600052603260045260246000fd5b6020808252825482820181905260008481528281209092916040850190845b81811015612fe25783546001600160a01b031683526001938401939285019201612fbd565b50909695505050505050565b60ff81811683821601908111156106c4576106c4612e7a565b60006020828403121561301957600080fd5b8151801515811461160857600080fd5b8881528760208201528660408201526000865161304d816060850160208b016129a0565b606092018281019690965250608085019390935260f89190911b7fff000000000000000000000000000000000000000000000000000000000000001660a0840152901b7fffffffffffffffffffffffffffffffffffffffff0000000000000000000000001660a182015260b501949350505050565b600060208083850312156130d557600080fd5b825167ffffffffffffffff808211156130ed57600080fd5b818501915085601f83011261310157600080fd5b81518181111561311357613113612a7d565b8060051b9150613124848301612aac565b818152918301840191848101908884111561313e57600080fd5b938501935b838510156131685784519250613158836128f7565b8282529385019390850190613143565b98975050505050505050565b601f821115610aec576000816000526020600020601f850160051c8101602086101561319d5750805b601f850160051c820191505b818110156131bc578281556001016131a9565b505050505050565b815167ffffffffffffffff8111156131de576131de612a7d565b6131f2816131ec8454612e27565b84613174565b602080601f831160018114613245576000841561320f5750858301515b7fffffffffffffffffffffffffffffffffffffffffffffffffffffffffffffffff600386901b1c1916600185901b1785556131bc565b600085815260208120601f198616915b8281101561327457888601518255948401946001909101908401613255565b50858210156132b057878501517fffffffffffffffffffffffffffffffffffffffffffffffffffffffffffffffff600388901b60f8161c191681555b5050505050600190811b01905550565b86815260c0602082015260006132d960c08301886129c4565b604083018790526001600160a01b0386811660608501528516608084015282810360a08401526133098185612c60565b9998505050505050505050565b60006020828403121561332857600080fd5b5051919050565b7f4e487b7100000000000000000000000000000000000000000000000000000000600052602160045260246000fd5b600082516133708184602087016129a0565b919091019291505056fea26469706673582212209d1e260671df49e542449ff83fe1b95e903c90731dcc4150721a2e5bcfd9519164736f6c63430008190033",
  "linkReferences": {},
  "deployedLinkReferences": {}
}