{
  "_format": "hh-sol-artifact-1",
  "contractName": "CommonChainJobs",
  "sourceName": "contracts/serverless-v2/CommonChainJobs.sol",
  "abi": [
    {
      "inputs": [],
      "stateMutability": "nonpayable",
      "type": "constructor"
    },
    {
      "inputs": [],
      "name": "AccessControlBadConfirmation",
      "type": "error"
    },
    {
      "inputs": [
        {
          "internalType": "address",
          "name": "account",
          "type": "address"
        },
        {
          "internalType": "bytes32",
          "name": "neededRole",
          "type": "bytes32"
        }
      ],
      "name": "AccessControlUnauthorizedAccount",
      "type": "error"
    },
    {
      "inputs": [
        {
          "internalType": "address",
          "name": "target",
          "type": "address"
        }
      ],
      "name": "AddressEmptyCode",
      "type": "error"
    },
    {
      "inputs": [],
      "name": "ECDSAInvalidSignature",
      "type": "error"
    },
    {
      "inputs": [
        {
          "internalType": "uint256",
          "name": "length",
          "type": "uint256"
        }
      ],
      "name": "ECDSAInvalidSignatureLength",
      "type": "error"
    },
    {
      "inputs": [
        {
          "internalType": "bytes32",
          "name": "s",
          "type": "bytes32"
        }
      ],
      "name": "ECDSAInvalidSignatureS",
      "type": "error"
    },
    {
      "inputs": [
        {
          "internalType": "address",
          "name": "implementation",
          "type": "address"
        }
      ],
      "name": "ERC1967InvalidImplementation",
      "type": "error"
    },
    {
      "inputs": [],
      "name": "ERC1967NonPayable",
      "type": "error"
    },
    {
      "inputs": [],
      "name": "FailedInnerCall",
      "type": "error"
    },
    {
      "inputs": [],
      "name": "InvalidInitialization",
      "type": "error"
    },
    {
      "inputs": [],
      "name": "NotInitializing",
      "type": "error"
    },
    {
      "inputs": [],
      "name": "UUPSUnauthorizedCallContext",
      "type": "error"
    },
    {
      "inputs": [
        {
          "internalType": "bytes32",
          "name": "slot",
          "type": "bytes32"
        }
      ],
      "name": "UUPSUnsupportedProxiableUUID",
      "type": "error"
    },
    {
      "anonymous": false,
      "inputs": [
        {
          "indexed": true,
          "internalType": "uint256",
          "name": "jobId",
          "type": "uint256"
        },
        {
          "indexed": true,
          "internalType": "uint256",
          "name": "reqChainId",
          "type": "uint256"
        },
        {
          "indexed": false,
          "internalType": "address",
          "name": "prevGatewayOperator",
          "type": "address"
        },
        {
          "indexed": false,
          "internalType": "address",
          "name": "newGatewayOperator",
          "type": "address"
        }
      ],
      "name": "GatewayReassigned",
      "type": "event"
    },
    {
      "anonymous": false,
      "inputs": [
        {
          "indexed": false,
          "internalType": "uint64",
          "name": "version",
          "type": "uint64"
        }
      ],
      "name": "Initialized",
      "type": "event"
    },
    {
      "anonymous": false,
      "inputs": [
        {
          "indexed": true,
          "internalType": "uint256",
          "name": "jobId",
          "type": "uint256"
        },
        {
          "indexed": true,
          "internalType": "uint256",
          "name": "reqChainId",
          "type": "uint256"
        },
        {
          "indexed": false,
          "internalType": "bytes32",
          "name": "codehash",
          "type": "bytes32"
        },
        {
          "indexed": false,
          "internalType": "bytes",
          "name": "codeInputs",
          "type": "bytes"
        },
        {
          "indexed": false,
          "internalType": "uint256",
          "name": "deadline",
          "type": "uint256"
        },
        {
          "indexed": false,
          "internalType": "address",
          "name": "jobOwner",
          "type": "address"
        },
        {
          "indexed": false,
          "internalType": "address",
          "name": "gatewayOperator",
          "type": "address"
        },
        {
          "indexed": false,
          "internalType": "address[]",
          "name": "selectedExecutors",
          "type": "address[]"
        }
      ],
      "name": "JobRelayed",
      "type": "event"
    },
    {
      "anonymous": false,
      "inputs": [
        {
          "indexed": true,
          "internalType": "uint256",
          "name": "jobId",
          "type": "uint256"
        },
        {
          "indexed": true,
          "internalType": "uint256",
          "name": "reqChainId",
          "type": "uint256"
        },
        {
          "indexed": true,
          "internalType": "address",
          "name": "gatewayOperator",
          "type": "address"
        }
      ],
      "name": "JobResourceUnavailable",
      "type": "event"
    },
    {
      "anonymous": false,
      "inputs": [
        {
          "indexed": true,
          "internalType": "uint256",
          "name": "jobId",
          "type": "uint256"
        },
        {
          "indexed": true,
          "internalType": "uint256",
          "name": "reqChainId",
          "type": "uint256"
        },
        {
          "indexed": false,
          "internalType": "bytes",
          "name": "output",
          "type": "bytes"
        },
        {
          "indexed": false,
          "internalType": "uint256",
          "name": "totalTime",
          "type": "uint256"
        },
        {
          "indexed": false,
          "internalType": "uint256",
          "name": "errorCode",
          "type": "uint256"
        },
        {
          "indexed": false,
          "internalType": "uint8",
          "name": "outputCount",
          "type": "uint8"
        }
      ],
      "name": "JobResponded",
      "type": "event"
    },
    {
      "anonymous": false,
      "inputs": [
        {
          "indexed": true,
          "internalType": "bytes32",
          "name": "role",
          "type": "bytes32"
        },
        {
          "indexed": true,
          "internalType": "bytes32",
          "name": "previousAdminRole",
          "type": "bytes32"
        },
        {
          "indexed": true,
          "internalType": "bytes32",
          "name": "newAdminRole",
          "type": "bytes32"
        }
      ],
      "name": "RoleAdminChanged",
      "type": "event"
    },
    {
      "anonymous": false,
      "inputs": [
        {
          "indexed": true,
          "internalType": "bytes32",
          "name": "role",
          "type": "bytes32"
        },
        {
          "indexed": true,
          "internalType": "address",
          "name": "account",
          "type": "address"
        },
        {
          "indexed": true,
          "internalType": "address",
          "name": "sender",
          "type": "address"
        }
      ],
      "name": "RoleGranted",
      "type": "event"
    },
    {
      "anonymous": false,
      "inputs": [
        {
          "indexed": true,
          "internalType": "bytes32",
          "name": "role",
          "type": "bytes32"
        },
        {
          "indexed": true,
          "internalType": "address",
          "name": "account",
          "type": "address"
        },
        {
          "indexed": true,
          "internalType": "address",
          "name": "sender",
          "type": "address"
        }
      ],
      "name": "RoleRevoked",
      "type": "event"
    },
    {
      "anonymous": false,
      "inputs": [
        {
          "indexed": true,
          "internalType": "uint256",
          "name": "jobId",
          "type": "uint256"
        },
        {
          "indexed": true,
          "internalType": "uint256",
          "name": "reqChainId",
          "type": "uint256"
        },
        {
          "indexed": false,
          "internalType": "address[]",
          "name": "executors",
          "type": "address[]"
        }
      ],
      "name": "SlashedOnExecutionTimeout",
      "type": "event"
    },
    {
      "anonymous": false,
      "inputs": [
        {
          "indexed": true,
          "internalType": "address",
          "name": "implementation",
          "type": "address"
        }
      ],
      "name": "Upgraded",
      "type": "event"
    },
    {
      "inputs": [],
      "name": "DEFAULT_ADMIN_ROLE",
      "outputs": [
        {
          "internalType": "bytes32",
          "name": "",
          "type": "bytes32"
        }
      ],
      "stateMutability": "view",
      "type": "function"
    },
    {
      "inputs": [],
      "name": "UPGRADE_INTERFACE_VERSION",
      "outputs": [
        {
          "internalType": "string",
          "name": "",
          "type": "string"
        }
      ],
      "stateMutability": "view",
      "type": "function"
    },
    {
      "inputs": [
        {
          "internalType": "address",
          "name": "_admin",
          "type": "address"
        },
        {
          "internalType": "contract IERC20",
          "name": "_token",
          "type": "address"
        },
        {
          "internalType": "contract CommonChainGateways",
          "name": "_gateways",
          "type": "address"
        },
        {
          "internalType": "contract CommonChainExecutors",
          "name": "_executors",
          "type": "address"
        },
        {
          "internalType": "uint256",
          "name": "_relayBufferTime",
          "type": "uint256"
        },
        {
          "internalType": "uint256",
          "name": "_executionBufferTime",
          "type": "uint256"
        },
        {
          "internalType": "uint256",
          "name": "_noOfNodesToSelect",
          "type": "uint256"
        }
      ],
      "name": "__CommonChainJobs_init",
      "outputs": [],
      "stateMutability": "nonpayable",
      "type": "function"
    },
    {
      "inputs": [],
      "name": "executionBufferTime",
      "outputs": [
        {
          "internalType": "uint256",
          "name": "",
          "type": "uint256"
        }
      ],
      "stateMutability": "view",
      "type": "function"
    },
    {
      "inputs": [],
      "name": "executors",
      "outputs": [
        {
          "internalType": "contract CommonChainExecutors",
          "name": "",
          "type": "address"
        }
      ],
      "stateMutability": "view",
      "type": "function"
    },
    {
      "inputs": [],
      "name": "gateways",
      "outputs": [
        {
          "internalType": "contract CommonChainGateways",
          "name": "",
          "type": "address"
        }
      ],
      "stateMutability": "view",
      "type": "function"
    },
    {
      "inputs": [
        {
          "internalType": "uint256",
          "name": "_jobId",
          "type": "uint256"
        },
        {
          "internalType": "uint256",
          "name": "_reqChainId",
          "type": "uint256"
        }
      ],
      "name": "getKey",
      "outputs": [
        {
          "internalType": "uint256",
          "name": "",
          "type": "uint256"
        }
      ],
      "stateMutability": "pure",
      "type": "function"
    },
    {
      "inputs": [
        {
          "internalType": "bytes32",
          "name": "role",
          "type": "bytes32"
        }
      ],
      "name": "getRoleAdmin",
      "outputs": [
        {
          "internalType": "bytes32",
          "name": "",
          "type": "bytes32"
        }
      ],
      "stateMutability": "view",
      "type": "function"
    },
    {
      "inputs": [
        {
          "internalType": "bytes32",
          "name": "role",
          "type": "bytes32"
        },
        {
          "internalType": "uint256",
          "name": "index",
          "type": "uint256"
        }
      ],
      "name": "getRoleMember",
      "outputs": [
        {
          "internalType": "address",
          "name": "",
          "type": "address"
        }
      ],
      "stateMutability": "view",
      "type": "function"
    },
    {
      "inputs": [
        {
          "internalType": "bytes32",
          "name": "role",
          "type": "bytes32"
        }
      ],
      "name": "getRoleMemberCount",
      "outputs": [
        {
          "internalType": "uint256",
          "name": "",
          "type": "uint256"
        }
      ],
      "stateMutability": "view",
      "type": "function"
    },
    {
      "inputs": [
        {
          "internalType": "bytes32",
          "name": "role",
          "type": "bytes32"
        },
        {
          "internalType": "address",
          "name": "account",
          "type": "address"
        }
      ],
      "name": "grantRole",
      "outputs": [],
      "stateMutability": "nonpayable",
      "type": "function"
    },
    {
      "inputs": [
        {
          "internalType": "uint256",
          "name": "",
          "type": "uint256"
        },
        {
          "internalType": "address",
          "name": "",
          "type": "address"
        }
      ],
      "name": "hasExecutedJob",
      "outputs": [
        {
          "internalType": "bool",
          "name": "",
          "type": "bool"
        }
      ],
      "stateMutability": "view",
      "type": "function"
    },
    {
      "inputs": [
        {
          "internalType": "bytes32",
          "name": "role",
          "type": "bytes32"
        },
        {
          "internalType": "address",
          "name": "account",
          "type": "address"
        }
      ],
      "name": "hasRole",
      "outputs": [
        {
          "internalType": "bool",
          "name": "",
          "type": "bool"
        }
      ],
      "stateMutability": "view",
      "type": "function"
    },
    {
      "inputs": [
        {
          "internalType": "uint256",
          "name": "_jobId",
          "type": "uint256"
        },
        {
          "internalType": "uint256",
          "name": "_reqChainId",
          "type": "uint256"
        },
        {
          "internalType": "address",
          "name": "_executor",
          "type": "address"
        }
      ],
      "name": "isJobExecutor",
      "outputs": [
        {
          "internalType": "bool",
          "name": "",
          "type": "bool"
        }
      ],
      "stateMutability": "view",
      "type": "function"
    },
    {
      "inputs": [
        {
          "internalType": "uint256",
          "name": "",
          "type": "uint256"
        }
      ],
      "name": "jobs",
      "outputs": [
        {
          "internalType": "uint256",
          "name": "jobId",
          "type": "uint256"
        },
        {
          "internalType": "uint256",
          "name": "reqChainId",
          "type": "uint256"
        },
        {
          "internalType": "bytes32",
          "name": "codehash",
          "type": "bytes32"
        },
        {
          "internalType": "bytes",
          "name": "codeInputs",
          "type": "bytes"
        },
        {
          "internalType": "uint256",
          "name": "deadline",
          "type": "uint256"
        },
        {
          "internalType": "uint256",
          "name": "execStartTime",
          "type": "uint256"
        },
        {
          "internalType": "address",
          "name": "jobOwner",
          "type": "address"
        },
        {
          "internalType": "address",
          "name": "gatewayOperator",
          "type": "address"
        },
        {
          "internalType": "uint8",
          "name": "outputCount",
          "type": "uint8"
        },
        {
          "internalType": "uint8",
          "name": "sequenceId",
          "type": "uint8"
        },
        {
          "internalType": "bool",
          "name": "isResourceUnavailable",
          "type": "bool"
        }
      ],
      "stateMutability": "view",
      "type": "function"
    },
    {
      "inputs": [],
      "name": "noOfNodesToSelect",
      "outputs": [
        {
          "internalType": "uint256",
          "name": "",
          "type": "uint256"
        }
      ],
      "stateMutability": "view",
      "type": "function"
    },
    {
      "inputs": [],
      "name": "proxiableUUID",
      "outputs": [
        {
          "internalType": "bytes32",
          "name": "",
          "type": "bytes32"
        }
      ],
      "stateMutability": "view",
      "type": "function"
    },
    {
      "inputs": [
        {
          "internalType": "address",
          "name": "_gatewayOperatorOld",
          "type": "address"
        },
        {
          "internalType": "uint256",
          "name": "_jobId",
          "type": "uint256"
        },
        {
          "internalType": "uint256",
          "name": "_reqChainId",
          "type": "uint256"
        },
        {
          "internalType": "bytes",
          "name": "_signature",
          "type": "bytes"
        },
        {
          "internalType": "uint8",
          "name": "_sequenceId",
          "type": "uint8"
        }
      ],
      "name": "reassignGatewayRelay",
      "outputs": [],
      "stateMutability": "nonpayable",
      "type": "function"
    },
    {
      "inputs": [],
      "name": "relayBufferTime",
      "outputs": [
        {
          "internalType": "uint256",
          "name": "",
          "type": "uint256"
        }
      ],
      "stateMutability": "view",
      "type": "function"
    },
    {
      "inputs": [
        {
          "internalType": "bytes",
          "name": "_signature",
          "type": "bytes"
        },
        {
          "internalType": "uint256",
          "name": "_jobId",
          "type": "uint256"
        },
        {
          "internalType": "uint256",
          "name": "_reqChainId",
          "type": "uint256"
        },
        {
          "internalType": "bytes32",
          "name": "_codehash",
          "type": "bytes32"
        },
        {
          "internalType": "bytes",
          "name": "_codeInputs",
          "type": "bytes"
        },
        {
          "internalType": "uint256",
          "name": "_deadline",
          "type": "uint256"
        },
        {
          "internalType": "uint256",
          "name": "_jobRequestTimestamp",
          "type": "uint256"
        },
        {
          "internalType": "uint8",
          "name": "_sequenceId",
          "type": "uint8"
        },
        {
          "internalType": "address",
          "name": "_jobOwner",
          "type": "address"
        }
      ],
      "name": "relayJob",
      "outputs": [],
      "stateMutability": "nonpayable",
      "type": "function"
    },
    {
      "inputs": [
        {
          "internalType": "bytes32",
          "name": "role",
          "type": "bytes32"
        },
        {
          "internalType": "address",
          "name": "callerConfirmation",
          "type": "address"
        }
      ],
      "name": "renounceRole",
      "outputs": [],
      "stateMutability": "nonpayable",
      "type": "function"
    },
    {
      "inputs": [
        {
          "internalType": "bytes32",
          "name": "role",
          "type": "bytes32"
        },
        {
          "internalType": "address",
          "name": "account",
          "type": "address"
        }
      ],
      "name": "revokeRole",
      "outputs": [],
      "stateMutability": "nonpayable",
      "type": "function"
    },
    {
      "inputs": [
        {
          "internalType": "uint256",
          "name": "",
          "type": "uint256"
        },
        {
          "internalType": "uint256",
          "name": "",
          "type": "uint256"
        }
      ],
      "name": "selectedExecutors",
      "outputs": [
        {
          "internalType": "address",
          "name": "",
          "type": "address"
        }
      ],
      "stateMutability": "view",
      "type": "function"
    },
    {
      "inputs": [
        {
          "internalType": "contract CommonChainExecutors",
          "name": "_executors",
          "type": "address"
        }
      ],
      "name": "setExecutorsContract",
      "outputs": [],
      "stateMutability": "nonpayable",
      "type": "function"
    },
    {
      "inputs": [
        {
          "internalType": "contract CommonChainGateways",
          "name": "_gateways",
          "type": "address"
        }
      ],
      "name": "setGatewaysContract",
      "outputs": [],
      "stateMutability": "nonpayable",
      "type": "function"
    },
    {
      "inputs": [
        {
          "internalType": "contract IERC20",
          "name": "_token",
          "type": "address"
        }
      ],
      "name": "setTokenContract",
      "outputs": [],
      "stateMutability": "nonpayable",
      "type": "function"
    },
    {
      "inputs": [
        {
          "internalType": "uint256",
          "name": "_jobId",
          "type": "uint256"
        },
        {
          "internalType": "uint256",
          "name": "_reqChainId",
          "type": "uint256"
        }
      ],
      "name": "slashOnExecutionTimeout",
      "outputs": [],
      "stateMutability": "nonpayable",
      "type": "function"
    },
    {
      "inputs": [
        {
          "internalType": "bytes",
          "name": "_signature",
          "type": "bytes"
        },
        {
          "internalType": "uint256",
          "name": "_jobId",
          "type": "uint256"
        },
        {
          "internalType": "uint256",
          "name": "_reqChainId",
          "type": "uint256"
        },
        {
          "internalType": "bytes",
          "name": "_output",
          "type": "bytes"
        },
        {
          "internalType": "uint256",
          "name": "_totalTime",
          "type": "uint256"
        },
        {
          "internalType": "uint8",
          "name": "_errorCode",
          "type": "uint8"
        }
      ],
      "name": "submitOutput",
      "outputs": [],
      "stateMutability": "nonpayable",
      "type": "function"
    },
    {
      "inputs": [
        {
          "internalType": "bytes4",
          "name": "interfaceId",
          "type": "bytes4"
        }
      ],
      "name": "supportsInterface",
      "outputs": [
        {
          "internalType": "bool",
          "name": "",
          "type": "bool"
        }
      ],
      "stateMutability": "view",
      "type": "function"
    },
    {
      "inputs": [],
      "name": "token",
      "outputs": [
        {
          "internalType": "contract IERC20",
          "name": "",
          "type": "address"
        }
      ],
      "stateMutability": "view",
      "type": "function"
    },
    {
      "inputs": [
        {
          "internalType": "address",
          "name": "newImplementation",
          "type": "address"
        },
        {
          "internalType": "bytes",
          "name": "data",
          "type": "bytes"
        }
      ],
      "name": "upgradeToAndCall",
      "outputs": [],
      "stateMutability": "payable",
      "type": "function"
    }
  ],
  "bytecode": "0x60a06040523060805234801561001457600080fd5b507ff0c57e16840df040f15088dc2f81fe391c3923bec73e23a9662efc9c229c6a00805468010000000000000000810460ff1615906001600160401b031660008115801561005f5750825b90506000826001600160401b0316600114801561007b5750303b155b905081158015610089575080155b156100a75760405163f92ee8a960e01b815260040160405180910390fd5b84546001600160401b031916600117855583156100d557845460ff60401b1916680100000000000000001785555b831561011b57845460ff60401b19168555604051600181527fc7f505b2f371ae2175ee4913f4499e1f2633a7b5936321eed1cdaeb6115181d29060200160405180910390a15b5050505050608051613a3b6101496000396000818161214f01528181612178015261239e0152613a3b6000f3fe6080604052600436106101d85760003560e01c806384bf79cc11610102578063ad3cb1cc11610095578063d7e4ee6511610064578063d7e4ee651461061f578063e52e63c51461063f578063fc0c546a1461065f578063fdd165d71461067f57600080fd5b8063ad3cb1cc14610569578063bbcd5bbe146105bf578063ca15c873146105df578063d547741f146105ff57600080fd5b8063a217fddf116100d1578063a217fddf146104fe578063a898693014610513578063aadc672b14610529578063accc7f2e1461054957600080fd5b806384bf79cc146104395780639010d07c1461045957806391d148541461047957806397c41019146104de57600080fd5b80633651cf281161017a578063661785481161014957806366178548146103c357806371b9eae1146103e3578063728d21b01461040357806382aa29af1461041957600080fd5b80633651cf281461035b57806336568abe1461037b5780634f1ef2861461039b57806352d1902d146103ae57600080fd5b8063180aedf3116101b6578063180aedf3146102855780631a3516c6146102bc578063248a9ca3146102de5780632f2ff15d1461033b57600080fd5b806301ffc9a7146101dd578063093a86d3146102125780631134384a1461024a575b600080fd5b3480156101e957600080fd5b506101fd6101f8366004612f0f565b610695565b60405190151581526020015b60405180910390f35b34801561021e57600080fd5b50600154610232906001600160a01b031681565b6040516001600160a01b039091168152602001610209565b34801561025657600080fd5b506101fd610265366004612f66565b600860209081526000928352604080842090915290825290205460ff1681565b34801561029157600080fd5b506102a56102a0366004612f96565b6106a6565b6040516102099b9a99989796959493929190612fff565b3480156102c857600080fd5b506102dc6102d7366004613075565b6107d7565b005b3480156102ea57600080fd5b5061032d6102f9366004612f96565b60009081527f02dd7bc7dec4dceedda775e58dd541e08a116c6c53815c0bd028192f7b626800602052604090206001015490565b604051908152602001610209565b34801561034757600080fd5b506102dc610356366004612f66565b610a3f565b34801561036757600080fd5b506102326103763660046130ec565b610a89565b34801561038757600080fd5b506102dc610396366004612f66565b610ac1565b6102dc6103a93660046131de565b610b12565b3480156103ba57600080fd5b5061032d610b31565b3480156103cf57600080fd5b506102dc6103de366004613244565b610b60565b3480156103ef57600080fd5b506102dc6103fe3660046132d4565b610ef8565b34801561040f57600080fd5b5061032d60045481565b34801561042557600080fd5b506102dc6104343660046130ec565b610fb0565b34801561044557600080fd5b506102dc6104543660046132f1565b611310565b34801561046557600080fd5b506102326104743660046130ec565b6115d5565b34801561048557600080fd5b506101fd610494366004612f66565b60009182527f02dd7bc7dec4dceedda775e58dd541e08a116c6c53815c0bd028192f7b626800602090815260408084206001600160a01b0393909316845291905290205460ff1690565b3480156104ea57600080fd5b506101fd6104f9366004613365565b611616565b34801561050a57600080fd5b5061032d600081565b34801561051f57600080fd5b5061032d60055481565b34801561053557600080fd5b5061032d6105443660046130ec565b6116fe565b34801561055557600080fd5b506102dc61056436600461339e565b611761565b34801561057557600080fd5b506105b26040518060400160405280600581526020017f352e302e3000000000000000000000000000000000000000000000000000000081525081565b6040516102099190613458565b3480156105cb57600080fd5b506102dc6105da3660046132d4565b611e77565b3480156105eb57600080fd5b5061032d6105fa366004612f96565b611f2f565b34801561060b57600080fd5b506102dc61061a366004612f66565b611f67565b34801561062b57600080fd5b506102dc61063a3660046132d4565b611fab565b34801561064b57600080fd5b50600254610232906001600160a01b031681565b34801561066b57600080fd5b50600054610232906001600160a01b031681565b34801561068b57600080fd5b5061032d60035481565b60006106a082612063565b92915050565b6006602052600090815260409020805460018201546002830154600384018054939492939192916106d69061346b565b80601f01602080910402602001604051908101604052809291908181526020018280546107029061346b565b801561074f5780601f106107245761010080835404028352916020019161074f565b820191906000526020600020905b81548152906001019060200180831161073257829003601f168201915b505050600484015460058501546006860154600790960154949591949093506001600160a01b0391821692509081169060ff74010000000000000000000000000000000000000000820481169175010000000000000000000000000000000000000000008104821691760100000000000000000000000000000000000000000000909104168b565b7ff0c57e16840df040f15088dc2f81fe391c3923bec73e23a9662efc9c229c6a00805468010000000000000000810460ff16159067ffffffffffffffff166000811580156108225750825b905060008267ffffffffffffffff16600114801561083f5750303b155b90508115801561084d575080155b15610884576040517ff92ee8a900000000000000000000000000000000000000000000000000000000815260040160405180910390fd5b84547fffffffffffffffffffffffffffffffffffffffffffffffff000000000000000016600117855583156108e55784547fffffffffffffffffffffffffffffffffffffffffffffff00ffffffffffffffff16680100000000000000001785555b6001600160a01b038c166109405760405162461bcd60e51b815260206004820152601260248201527f5a45524f5f414444524553535f41444d494e000000000000000000000000000060448201526064015b60405180910390fd5b6109486120b9565b6109506120b9565b6109586120b9565b6109606120b9565b61096b60008d6120c3565b50600080546001600160a01b03808e167fffffffffffffffffffffffff000000000000000000000000000000000000000092831617909255600180548d841690831617905560028054928c16929091169190911790556003889055600487905560058690558315610a315784547fffffffffffffffffffffffffffffffffffffffffffffff00ffffffffffffffff168555604051600181527fc7f505b2f371ae2175ee4913f4499e1f2633a7b5936321eed1cdaeb6115181d29060200160405180910390a15b505050505050505050505050565b60008281527f02dd7bc7dec4dceedda775e58dd541e08a116c6c53815c0bd028192f7b6268006020526040902060010154610a79816120cf565b610a8383836120c3565b50505050565b60076020528160005260406000208181548110610aa557600080fd5b6000918252602090912001546001600160a01b03169150829050565b6001600160a01b0381163314610b03576040517f6697b23200000000000000000000000000000000000000000000000000000000815260040160405180910390fd5b610b0d82826120dc565b505050565b610b1a612144565b610b2382612214565b610b2d8282612292565b5050565b6000610b3b612393565b507f360894a13ba1a3210667c828492db98dca3e2076cc3735a920a3ca505d382bbc90565b6000610b6c86866116fe565b6004805460008381526006602052604090209182015460059092015492935091610b9691906134ed565b610ba091906134ed565b421115610bef5760405162461bcd60e51b815260206004820152601360248201527f455845435554494f4e5f54494d455f4f564552000000000000000000000000006044820152606401610937565b60008686868686604051602001610c0a959493929190613500565b60408051601f19818403018152919052805160209091012090506000610c30828a6123f5565b6002546040517fa0ac45d50000000000000000000000000000000000000000000000000000000081526001600160a01b03808416600483015292935091169063a0ac45d59060240160006040518083038186803b158015610c9057600080fd5b505afa158015610ca4573d6000803e3d6000fd5b50505050610cb3888883611616565b610cff5760405162461bcd60e51b815260206004820152601560248201527f4e4f545f53454c45435445445f4558454355544f5200000000000000000000006044820152606401610937565b60008381526008602090815260408083206001600160a01b038516845290915290205460ff1615610d985760405162461bcd60e51b815260206004820152602160248201527f4558454355544f525f414c52454144595f5355424d49545445445f4f5554505560448201527f54000000000000000000000000000000000000000000000000000000000000006064820152608401610937565b6002546040517fb91582010000000000000000000000000000000000000000000000000000000081526001600160a01b0383811660048301529091169063b915820190602401600060405180830381600087803b158015610df857600080fd5b505af1158015610e0c573d6000803e3d6000fd5b50505060008481526008602090815260408083206001600160a01b0386168452825280832080547fffffffffffffffffffffffffffffffffffffffffffffffffffffffffffffff001660011790558683526006909152902060070180548992508a917f5b83d5951ac92c2375553e3232820c322f7f24dbe065445d69b16e6118ae927e918a918a918a9190601490610ebe9074010000000000000000000000000000000000000000900460ff1661353a565b91906101000a81548160ff021916908360ff1602179055604051610ee59493929190613559565b60405180910390a3505050505050505050565b3360009081527fb7db2dd08fcb62d0c9e08c51941cae53c267786a0b75803fb7960902fc8ef97d602052604090205460ff16610f765760405162461bcd60e51b815260206004820152600a60248201527f6f6e6c792061646d696e000000000000000000000000000000000000000000006044820152606401610937565b600280547fffffffffffffffffffffffff0000000000000000000000000000000000000000166001600160a01b0392909216919091179055565b6000610fbc83836116fe565b60008181526006602052604090205490915061101a5760405162461bcd60e51b815260206004820152600b60248201527f494e56414c49445f4a4f420000000000000000000000000000000000000000006044820152606401610937565b600480546000838152600660205260409020918201546005909201549091611041916134ed565b61104b91906134ed565b42116110995760405162461bcd60e51b815260206004820152601160248201527f444541444c494e455f4e4f545f4f5645520000000000000000000000000000006044820152606401610937565b60008181526006602052604081208181556001810182905560028101829055906110c66003830182612e25565b50600060048201819055600582018190556006820180547fffffffffffffffffffffffff0000000000000000000000000000000000000000169055600791820180547fffffffffffffffffff00000000000000000000000000000000000000000000001690558281526020919091526040812054905b818110156112ad5760008381526007602052604081208054839081106111645761116461358c565b60009182526020808320909101548683526008825260408084206001600160a01b039092168085529190925291205490915060ff16156111e65760405162461bcd60e51b815260206004820152601460248201527f4a4f425f414c52454144595f45584543555445440000000000000000000000006044820152606401610937565b60008481526008602090815260408083206001600160a01b03858116808652919093529281902080547fffffffffffffffffffffffffffffffffffffffffffffffffffffffffffffff0016905560025490517f8d816ec300000000000000000000000000000000000000000000000000000000815260048101939093521690638d816ec390602401600060405180830381600087803b15801561128857600080fd5b505af115801561129c573d6000803e3d6000fd5b50506001909301925061113c915050565b5082847f2c59c586a31f422a6ca799a7602cfd94e2f80425f0f8808233898d631c99dbeb600760008681526020019081526020016000206040516112f191906135bb565b60405180910390a36000828152600760205260408120610a8391612e5f565b600061131c85856116fe565b600081815260066020526040902060070154909150760100000000000000000000000000000000000000000000900460ff16156113c15760405162461bcd60e51b815260206004820152602860248201527f4a4f425f4d41524b45445f454e4445445f41535f5245534f555243455f554e4160448201527f5641494c41424c450000000000000000000000000000000000000000000000006064820152608401610937565b6000818152600660205260409020600701546113fa907501000000000000000000000000000000000000000000900460ff16600161360b565b60ff168260ff16148015611411575060038260ff16105b61145d5760405162461bcd60e51b815260206004820152601360248201527f494e56414c49445f53455155454e43455f4944000000000000000000000000006044820152606401610937565b600081815260066020908152604080832060070180547fffffffffffffffffffff00ffffffffffffffffffffffffffffffffffffffffff16750100000000000000000000000000000000000000000060ff88169081029190911790915581519283018990529082018790526001600160a01b0389166060830152608082015260a00160408051601f1981840301815291905280516020909101209050600061150582866123f5565b6001546040517fa0ac45d50000000000000000000000000000000000000000000000000000000081526001600160a01b03808416600483015292935091169063a0ac45d59060240160006040518083038186803b15801561156557600080fd5b505afa158015611579573d6000803e3d6000fd5b5050505085877f54bc44ecd3f3bddab2f42dfb97acf2843ac4d5b2537ad2fd366f7407dcd47a128a6115a83390565b604080516001600160a01b0393841681529290911660208301520160405180910390a35050505050505050565b60008281527fc1f6fe24621ce81ec5827caf0253cadb74709b061630e6b55e8237170593200060208190526040822061160e908461241f565b949350505050565b60008061162385856116fe565b60008181526007602090815260408083208054825181850281018501909352808352949550929390929183018282801561168657602002820191906000526020600020905b81546001600160a01b03168152600190910190602001808311611668575b5050506000858152600760205260408120549394509150505b818110156116ee57856001600160a01b03168382815181106116c3576116c361358c565b60200260200101516001600160a01b0316036116e65760019450505050506116f7565b60010161169f565b50600093505050505b9392505050565b600082826040516020016117429291909182527f2d000000000000000000000000000000000000000000000000000000000000006020830152602182015260410190565b60408051601f1981840301815291905280516020909101209392505050565b600061176d89896116fe565b90506003548461177d91906134ed565b4211156117cc5760405162461bcd60e51b815260206004820152600f60248201527f52454c41595f54494d455f4f56455200000000000000000000000000000000006044820152606401610937565b600081815260066020526040902060070154760100000000000000000000000000000000000000000000900460ff161561186e5760405162461bcd60e51b815260206004820152602860248201527f4a4f425f4d41524b45445f454e4445445f41535f5245534f555243455f554e4160448201527f5641494c41424c450000000000000000000000000000000000000000000000006064820152608401610937565b6000818152600660205260409020600701546118a7907501000000000000000000000000000000000000000000900460ff16600161360b565b60ff168360ff16146118fb5760405162461bcd60e51b815260206004820152601360248201527f494e56414c49445f53455155454e43455f4944000000000000000000000000006044820152606401610937565b6000818152600660205260409020600501541561195a5760405162461bcd60e51b815260206004820152601360248201527f4a4f425f414c52454144595f52454c41594544000000000000000000000000006044820152606401610937565b6001546040517f5221c1f0000000000000000000000000000000000000000000000000000000008152600481018a90526001600160a01b0390911690635221c1f090602401602060405180830381865afa1580156119bc573d6000803e3d6000fd5b505050506040513d601f19601f820116820180604052508101906119e09190613624565b611a2c5760405162461bcd60e51b815260206004820152601160248201527f554e535550504f525445445f434841494e0000000000000000000000000000006044820152606401610937565b60008989898989898989604051602001611a4d989796959493929190613646565b60408051601f19818403018152919052805160209091012090506000611a73828d6123f5565b6001546040517fa0ac45d50000000000000000000000000000000000000000000000000000000081526001600160a01b03808416600483015292935091169063a0ac45d59060240160006040518083038186803b158015611ad357600080fd5b505afa158015611ae7573d6000803e3d6000fd5b50506002546005546040517f5f6531e80000000000000000000000000000000000000000000000000000000081526004810191909152600093506001600160a01b039091169150635f6531e8906024016000604051808303816000875af1158015611b56573d6000803e3d6000fd5b505050506040513d6000823e601f3d908101601f19168201604052611b7e91908101906136df565b905060055481511015611c2257600084815260066020526040902060070180547fffffffffffffffffff00ffffffffffffffffffffffffffffffffffffffffffff16760100000000000000000000000000000000000000000000179055611be23390565b6001600160a01b03168b8d7f4ebb21ff905f5d90620c48c9f4b007dce57e7255ae474507566f5fe529568a3c60405160405180910390a450505050611e6c565b60008481526007602090815260409091208251611c4192840190612e7d565b506040518061016001604052808d81526020018c81526020018b81526020018a8152602001898152602001428152602001866001600160a01b03168152602001611c883390565b6001600160a01b031681526000602080830182905260ff8a166040808501919091526060938401839052888352600682529182902084518155908401516001820155908301516002820155908201516003820190611ce690826137e1565b506080820151600482015560a0820151600582015560c08201516006820180547fffffffffffffffffffffffff0000000000000000000000000000000000000000166001600160a01b0392831617905560e08301516007909201805461010085015161012086015161014090960151949093167fffffffffffffffffffffff000000000000000000000000000000000000000000909116177401000000000000000000000000000000000000000060ff93841602177fffffffffffffffffff0000ffffffffffffffffffffffffffffffffffffffffff16750100000000000000000000000000000000000000000092909416919091027fffffffffffffffffff00ffffffffffffffffffffffffffffffffffffffffffff1692909217760100000000000000000000000000000000000000000000911515919091021790558a8c7fb51249bf719b85583328439685b75cb2a06fdddb25305d70151caf8d2e95d2e28c8c8c8a3388604051611e5f969594939291906138dd565b60405180910390a3505050505b505050505050505050565b3360009081527fb7db2dd08fcb62d0c9e08c51941cae53c267786a0b75803fb7960902fc8ef97d602052604090205460ff16611ef55760405162461bcd60e51b815260206004820152600a60248201527f6f6e6c792061646d696e000000000000000000000000000000000000000000006044820152606401610937565b600080547fffffffffffffffffffffffff0000000000000000000000000000000000000000166001600160a01b0392909216919091179055565b60008181527fc1f6fe24621ce81ec5827caf0253cadb74709b061630e6b55e823717059320006020819052604082206116f79061242b565b60008281527f02dd7bc7dec4dceedda775e58dd541e08a116c6c53815c0bd028192f7b6268006020526040902060010154611fa1816120cf565b610a8383836120dc565b3360009081527fb7db2dd08fcb62d0c9e08c51941cae53c267786a0b75803fb7960902fc8ef97d602052604090205460ff166120295760405162461bcd60e51b815260206004820152600a60248201527f6f6e6c792061646d696e000000000000000000000000000000000000000000006044820152606401610937565b600180547fffffffffffffffffffffffff0000000000000000000000000000000000000000166001600160a01b0392909216919091179055565b60007fffffffff0000000000000000000000000000000000000000000000000000000082167f5a05180f0000000000000000000000000000000000000000000000000000000014806106a057506106a082612435565b6120c16124cc565b565b60006116f78383612533565b6120d9813361258a565b50565b6000806120e98484612617565b90506120f56000611f2f565b6000036116f75760405162461bcd60e51b815260206004820181905260248201527f41563a52522d416c6c2061646d696e732063616e742062652072656d6f7665646044820152606401610937565b306001600160a01b037f00000000000000000000000000000000000000000000000000000000000000001614806121dd57507f00000000000000000000000000000000000000000000000000000000000000006001600160a01b03166121d17f360894a13ba1a3210667c828492db98dca3e2076cc3735a920a3ca505d382bbc546001600160a01b031690565b6001600160a01b031614155b156120c1576040517fe07c8dba00000000000000000000000000000000000000000000000000000000815260040160405180910390fd5b3360009081527fb7db2dd08fcb62d0c9e08c51941cae53c267786a0b75803fb7960902fc8ef97d602052604090205460ff166120d95760405162461bcd60e51b815260206004820152600a60248201527f6f6e6c792061646d696e000000000000000000000000000000000000000000006044820152606401610937565b816001600160a01b03166352d1902d6040518163ffffffff1660e01b8152600401602060405180830381865afa9250505080156122ec575060408051601f3d908101601f191682019092526122e99181019061395f565b60015b61232d576040517f4c9c8ce30000000000000000000000000000000000000000000000000000000081526001600160a01b0383166004820152602401610937565b7f360894a13ba1a3210667c828492db98dca3e2076cc3735a920a3ca505d382bbc8114612389576040517faa1d49a400000000000000000000000000000000000000000000000000000000815260048101829052602401610937565b610b0d8383612665565b306001600160a01b037f000000000000000000000000000000000000000000000000000000000000000016146120c1576040517fe07c8dba00000000000000000000000000000000000000000000000000000000815260040160405180910390fd5b60008060008061240586866126bb565b9250925092506124158282612708565b5090949350505050565b60006116f7838361280c565b60006106a0825490565b60007fffffffff0000000000000000000000000000000000000000000000000000000082167f7965db0b0000000000000000000000000000000000000000000000000000000014806106a057507f01ffc9a7000000000000000000000000000000000000000000000000000000007fffffffff000000000000000000000000000000000000000000000000000000008316146106a0565b7ff0c57e16840df040f15088dc2f81fe391c3923bec73e23a9662efc9c229c6a005468010000000000000000900460ff166120c1576040517fd7e6bcf800000000000000000000000000000000000000000000000000000000815260040160405180910390fd5b60007fc1f6fe24621ce81ec5827caf0253cadb74709b061630e6b55e82371705932000816125618585612836565b9050801561160e5760008581526020839052604090206125819085612923565b50949350505050565b60008281527f02dd7bc7dec4dceedda775e58dd541e08a116c6c53815c0bd028192f7b626800602090815260408083206001600160a01b038516845290915290205460ff16610b2d576040517fe2517d3f0000000000000000000000000000000000000000000000000000000081526001600160a01b038216600482015260248101839052604401610937565b60007fc1f6fe24621ce81ec5827caf0253cadb74709b061630e6b55e82371705932000816126458585612938565b9050801561160e57600085815260208390526040902061258190856129fc565b61266e82612a11565b6040516001600160a01b038316907fbc7cd75a20ee27fd9adebab32041f755214dbc6bffa90cc0225b39da2e5c2d3b90600090a28051156126b357610b0d8282612ab9565b610b2d612b2f565b600080600083516041036126f55760208401516040850151606086015160001a6126e788828585612b67565b955095509550505050612701565b50508151600091506002905b9250925092565b600082600381111561271c5761271c613978565b03612725575050565b600182600381111561273957612739613978565b03612770576040517ff645eedf00000000000000000000000000000000000000000000000000000000815260040160405180910390fd5b600282600381111561278457612784613978565b036127be576040517ffce698f700000000000000000000000000000000000000000000000000000000815260048101829052602401610937565b60038260038111156127d2576127d2613978565b03610b2d576040517fd78bce0c00000000000000000000000000000000000000000000000000000000815260048101829052602401610937565b60008260000182815481106128235761282361358c565b9060005260206000200154905092915050565b60008281527f02dd7bc7dec4dceedda775e58dd541e08a116c6c53815c0bd028192f7b626800602081815260408084206001600160a01b038616855290915282205460ff16612919576000848152602082815260408083206001600160a01b0387168452909152902080547fffffffffffffffffffffffffffffffffffffffffffffffffffffffffffffff001660011790556128cf3390565b6001600160a01b0316836001600160a01b0316857f2f8788117e7eff1d82e926ec794901d17c78024a50270940304540a733656f0d60405160405180910390a460019150506106a0565b60009150506106a0565b60006116f7836001600160a01b038416612c36565b60008281527f02dd7bc7dec4dceedda775e58dd541e08a116c6c53815c0bd028192f7b626800602081815260408084206001600160a01b038616855290915282205460ff1615612919576000848152602082815260408083206001600160a01b038716808552925280832080547fffffffffffffffffffffffffffffffffffffffffffffffffffffffffffffff0016905551339287917ff6391f5c32d9c69d2a47ea670b442974b53935d1edc7fd64eb21e047a839171b9190a460019150506106a0565b60006116f7836001600160a01b038416612c85565b806001600160a01b03163b600003612a60576040517f4c9c8ce30000000000000000000000000000000000000000000000000000000081526001600160a01b0382166004820152602401610937565b7f360894a13ba1a3210667c828492db98dca3e2076cc3735a920a3ca505d382bbc80547fffffffffffffffffffffffff0000000000000000000000000000000000000000166001600160a01b0392909216919091179055565b6060600080846001600160a01b031684604051612ad691906139a7565b600060405180830381855af49150503d8060008114612b11576040519150601f19603f3d011682016040523d82523d6000602084013e612b16565b606091505b5091509150612b26858383612d6e565b95945050505050565b34156120c1576040517fb398979f00000000000000000000000000000000000000000000000000000000815260040160405180910390fd5b600080807f7fffffffffffffffffffffffffffffff5d576e7357a4501ddfe92f46681b20a0841115612ba25750600091506003905082612c2c565b604080516000808252602082018084528a905260ff891692820192909252606081018790526080810186905260019060a0016020604051602081039080840390855afa158015612bf6573d6000803e3d6000fd5b5050604051601f1901519150506001600160a01b038116612c2257506000925060019150829050612c2c565b9250600091508190505b9450945094915050565b6000818152600183016020526040812054612c7d575081546001818101845560008481526020808220909301849055845484825282860190935260409020919091556106a0565b5060006106a0565b60008181526001830160205260408120548015612919576000612ca96001836139c3565b8554909150600090612cbd906001906139c3565b9050808214612d22576000866000018281548110612cdd57612cdd61358c565b9060005260206000200154905080876000018481548110612d0057612d0061358c565b6000918252602080832090910192909255918252600188019052604090208390555b8554869080612d3357612d336139d6565b6001900381819060005260206000200160009055905585600101600086815260200190815260200160002060009055600193505050506106a0565b606082612d8357612d7e82612de3565b6116f7565b8151158015612d9a57506001600160a01b0384163b155b15612ddc576040517f9996b3150000000000000000000000000000000000000000000000000000000081526001600160a01b0385166004820152602401610937565b50806116f7565b805115612df35780518082602001fd5b6040517f1425ea4200000000000000000000000000000000000000000000000000000000815260040160405180910390fd5b508054612e319061346b565b6000825580601f10612e41575050565b601f0160209004906000526020600020908101906120d99190612efa565b50805460008255906000526020600020908101906120d99190612efa565b828054828255906000526020600020908101928215612eea579160200282015b82811115612eea57825182547fffffffffffffffffffffffff0000000000000000000000000000000000000000166001600160a01b03909116178255602090920191600190910190612e9d565b50612ef6929150612efa565b5090565b5b80821115612ef65760008155600101612efb565b600060208284031215612f2157600080fd5b81357fffffffff00000000000000000000000000000000000000000000000000000000811681146116f757600080fd5b6001600160a01b03811681146120d957600080fd5b60008060408385031215612f7957600080fd5b823591506020830135612f8b81612f51565b809150509250929050565b600060208284031215612fa857600080fd5b5035919050565b60005b83811015612fca578181015183820152602001612fb2565b50506000910152565b60008151808452612feb816020860160208601612faf565b601f01601f19169290920160200192915050565b60006101608d83528c60208401528b60408401528060608401526130258184018c612fd3565b608084019a909a52505060a08101969096526001600160a01b0394851660c08701529290931660e085015260ff908116610100850152909116610120830152151561014090910152949350505050565b600080600080600080600060e0888a03121561309057600080fd5b873561309b81612f51565b965060208801356130ab81612f51565b955060408801356130bb81612f51565b945060608801356130cb81612f51565b9699959850939660808101359560a0820135955060c0909101359350915050565b600080604083850312156130ff57600080fd5b50508035926020909101359150565b7f4e487b7100000000000000000000000000000000000000000000000000000000600052604160045260246000fd5b604051601f8201601f1916810167ffffffffffffffff811182821017156131665761316661310e565b604052919050565b600082601f83011261317f57600080fd5b813567ffffffffffffffff8111156131995761319961310e565b6131ac6020601f19601f8401160161313d565b8181528460208386010111156131c157600080fd5b816020850160208301376000918101602001919091529392505050565b600080604083850312156131f157600080fd5b82356131fc81612f51565b9150602083013567ffffffffffffffff81111561321857600080fd5b6132248582860161316e565b9150509250929050565b803560ff8116811461323f57600080fd5b919050565b60008060008060008060c0878903121561325d57600080fd5b863567ffffffffffffffff8082111561327557600080fd5b6132818a838b0161316e565b9750602089013596506040890135955060608901359150808211156132a557600080fd5b506132b289828a0161316e565b935050608087013591506132c860a0880161322e565b90509295509295509295565b6000602082840312156132e657600080fd5b81356116f781612f51565b600080600080600060a0868803121561330957600080fd5b853561331481612f51565b94506020860135935060408601359250606086013567ffffffffffffffff81111561333e57600080fd5b61334a8882890161316e565b9250506133596080870161322e565b90509295509295909350565b60008060006060848603121561337a57600080fd5b8335925060208401359150604084013561339381612f51565b809150509250925092565b60008060008060008060008060006101208a8c0312156133bd57600080fd5b893567ffffffffffffffff808211156133d557600080fd5b6133e18d838e0161316e565b9a5060208c0135995060408c0135985060608c0135975060808c013591508082111561340c57600080fd5b506134198c828d0161316e565b95505060a08a0135935060c08a0135925061343660e08b0161322e565b91506101008a013561344781612f51565b809150509295985092959850929598565b6020815260006116f76020830184612fd3565b600181811c9082168061347f57607f821691505b6020821081036134b8577f4e487b7100000000000000000000000000000000000000000000000000000000600052602260045260246000fd5b50919050565b7f4e487b7100000000000000000000000000000000000000000000000000000000600052601160045260246000fd5b808201808211156106a0576106a06134be565b85815284602082015260a06040820152600061351f60a0830186612fd3565b905083606083015260ff831660808301529695505050505050565b600060ff821660ff8103613550576135506134be565b60010192915050565b60808152600061356c6080830187612fd3565b60208301959095525060ff92831660408201529116606090910152919050565b7f4e487b7100000000000000000000000000000000000000000000000000000000600052603260045260246000fd5b6020808252825482820181905260008481528281209092916040850190845b818110156135ff5783546001600160a01b0316835260019384019392850192016135da565b50909695505050505050565b60ff81811683821601908111156106a0576106a06134be565b60006020828403121561363657600080fd5b815180151581146116f757600080fd5b8881528760208201528660408201526000865161366a816060850160208b01612faf565b606092018281019690965250608085019390935260f89190911b7fff000000000000000000000000000000000000000000000000000000000000001660a0840152901b7fffffffffffffffffffffffffffffffffffffffff0000000000000000000000001660a182015260b501949350505050565b600060208083850312156136f257600080fd5b825167ffffffffffffffff8082111561370a57600080fd5b818501915085601f83011261371e57600080fd5b8151818111156137305761373061310e565b8060051b915061374184830161313d565b818152918301840191848101908884111561375b57600080fd5b938501935b83851015613785578451925061377583612f51565b8282529385019390850190613760565b98975050505050505050565b601f821115610b0d576000816000526020600020601f850160051c810160208610156137ba5750805b601f850160051c820191505b818110156137d9578281556001016137c6565b505050505050565b815167ffffffffffffffff8111156137fb576137fb61310e565b61380f81613809845461346b565b84613791565b602080601f831160018114613862576000841561382c5750858301515b7fffffffffffffffffffffffffffffffffffffffffffffffffffffffffffffffff600386901b1c1916600185901b1785556137d9565b600085815260208120601f198616915b8281101561389157888601518255948401946001909101908401613872565b50858210156138cd57878501517fffffffffffffffffffffffffffffffffffffffffffffffffffffffffffffffff600388901b60f8161c191681555b5050505050600190811b01905550565b8681526000602060c060208401526138f860c0840189612fd3565b604084018890526001600160a01b038781166060860152868116608086015284820360a08601528551808352602080880193019060005b8181101561394d57845184168352938501939185019160010161392f565b50909c9b505050505050505050505050565b60006020828403121561397157600080fd5b5051919050565b7f4e487b7100000000000000000000000000000000000000000000000000000000600052602160045260246000fd5b600082516139b9818460208701612faf565b9190910192915050565b818103818111156106a0576106a06134be565b7f4e487b7100000000000000000000000000000000000000000000000000000000600052603160045260246000fdfea26469706673582212207b99d62ba429afdcdcb5f646706c847f5b411c529d56c971126e4c8e8279602664736f6c63430008190033",
  "linkReferences": {},
  "deployedLinkReferences": {}
}