{
  "_format": "hh-sol-artifact-1",
  "contractName": "CommonChainGateways",
  "sourceName": "contracts/serverless-v2/CommonChainGateways.sol",
  "abi": [
    {
      "inputs": [
        {
          "internalType": "contract IAttestationVerifier",
          "name": "attestationVerifier",
          "type": "address"
        },
        {
          "internalType": "uint256",
          "name": "maxAge",
          "type": "uint256"
        }
      ],
      "stateMutability": "nonpayable",
      "type": "constructor"
    },
    {
      "anonymous": false,
      "inputs": [
        {
          "indexed": false,
          "internalType": "address",
          "name": "previousAdmin",
          "type": "address"
        },
        {
          "indexed": false,
          "internalType": "address",
          "name": "newAdmin",
          "type": "address"
        }
      ],
      "name": "AdminChanged",
      "type": "event"
    },
    {
      "anonymous": false,
      "inputs": [
        {
          "indexed": true,
          "internalType": "address",
          "name": "beacon",
          "type": "address"
        }
      ],
      "name": "BeaconUpgraded",
      "type": "event"
    },
    {
      "anonymous": false,
      "inputs": [
        {
          "indexed": false,
          "internalType": "bytes",
          "name": "enclavePubKey",
          "type": "bytes"
        },
        {
          "indexed": false,
          "internalType": "uint256",
          "name": "chainId",
          "type": "uint256"
        }
      ],
      "name": "ChainAdded",
      "type": "event"
    },
    {
      "anonymous": false,
      "inputs": [
        {
          "indexed": false,
          "internalType": "uint256",
          "name": "chainId",
          "type": "uint256"
        },
        {
          "indexed": false,
          "internalType": "address",
          "name": "contractAddress",
          "type": "address"
        },
        {
          "indexed": false,
          "internalType": "string",
          "name": "rpcUrl",
          "type": "string"
        }
      ],
      "name": "ChainAddedGlobal",
      "type": "event"
    },
    {
      "anonymous": false,
      "inputs": [
        {
          "indexed": false,
          "internalType": "bytes",
          "name": "enclavePubKey",
          "type": "bytes"
        },
        {
          "indexed": false,
          "internalType": "uint256",
          "name": "chainId",
          "type": "uint256"
        }
      ],
      "name": "ChainRemoved",
      "type": "event"
    },
    {
      "anonymous": false,
      "inputs": [
        {
          "indexed": false,
          "internalType": "uint256",
          "name": "chainId",
          "type": "uint256"
        }
      ],
      "name": "ChainRemovedGlobal",
      "type": "event"
    },
    {
      "anonymous": false,
      "inputs": [
        {
          "indexed": true,
          "internalType": "bytes32",
          "name": "imageId",
          "type": "bytes32"
        }
      ],
      "name": "EnclaveImageRevoked",
      "type": "event"
    },
    {
      "anonymous": false,
      "inputs": [
        {
          "indexed": true,
          "internalType": "bytes32",
          "name": "imageId",
          "type": "bytes32"
        },
        {
          "indexed": false,
          "internalType": "bytes",
          "name": "PCR0",
          "type": "bytes"
        },
        {
          "indexed": false,
          "internalType": "bytes",
          "name": "PCR1",
          "type": "bytes"
        },
        {
          "indexed": false,
          "internalType": "bytes",
          "name": "PCR2",
          "type": "bytes"
        }
      ],
      "name": "EnclaveImageWhitelisted",
      "type": "event"
    },
    {
      "anonymous": false,
      "inputs": [
        {
          "indexed": true,
          "internalType": "bytes",
          "name": "enclavePubKey",
          "type": "bytes"
        }
      ],
      "name": "EnclaveKeyRevoked",
      "type": "event"
    },
    {
      "anonymous": false,
      "inputs": [
        {
          "indexed": true,
          "internalType": "bytes",
          "name": "enclavePubKey",
          "type": "bytes"
        },
        {
          "indexed": true,
          "internalType": "bytes32",
          "name": "imageId",
          "type": "bytes32"
        }
      ],
      "name": "EnclaveKeyVerified",
      "type": "event"
    },
    {
      "anonymous": false,
      "inputs": [
        {
          "indexed": true,
          "internalType": "bytes",
          "name": "enclavePubKey",
          "type": "bytes"
        },
        {
          "indexed": true,
          "internalType": "bytes32",
          "name": "imageId",
          "type": "bytes32"
        }
      ],
      "name": "EnclaveKeyWhitelisted",
      "type": "event"
    },
    {
      "anonymous": false,
      "inputs": [
        {
          "indexed": false,
          "internalType": "bytes",
          "name": "enclavePubKey",
          "type": "bytes"
        }
      ],
      "name": "GatewayDeregistered",
      "type": "event"
    },
    {
      "anonymous": false,
      "inputs": [
        {
          "indexed": false,
          "internalType": "bytes",
          "name": "enclavePubKey",
          "type": "bytes"
        },
        {
          "indexed": true,
          "internalType": "address",
          "name": "enclaveAddress",
          "type": "address"
        },
        {
          "indexed": true,
          "internalType": "address",
          "name": "operator",
          "type": "address"
        }
      ],
      "name": "GatewayRegistered",
      "type": "event"
    },
    {
      "anonymous": false,
      "inputs": [
        {
          "indexed": false,
          "internalType": "bytes",
          "name": "enclavePubKey",
          "type": "bytes"
        },
        {
          "indexed": false,
          "internalType": "uint256",
          "name": "addedAmount",
          "type": "uint256"
        },
        {
          "indexed": false,
          "internalType": "uint256",
          "name": "totalAmount",
          "type": "uint256"
        }
      ],
      "name": "GatewayStakeAdded",
      "type": "event"
    },
    {
      "anonymous": false,
      "inputs": [
        {
          "indexed": false,
          "internalType": "bytes",
          "name": "enclavePubKey",
          "type": "bytes"
        },
        {
          "indexed": false,
          "internalType": "uint256",
          "name": "removedAmount",
          "type": "uint256"
        },
        {
          "indexed": false,
          "internalType": "uint256",
          "name": "totalAmount",
          "type": "uint256"
        }
      ],
      "name": "GatewayStakeRemoved",
      "type": "event"
    },
    {
      "anonymous": false,
      "inputs": [
        {
          "indexed": false,
          "internalType": "uint8",
          "name": "version",
          "type": "uint8"
        }
      ],
      "name": "Initialized",
      "type": "event"
    },
    {
      "anonymous": false,
      "inputs": [
        {
          "indexed": true,
          "internalType": "bytes32",
          "name": "role",
          "type": "bytes32"
        },
        {
          "indexed": true,
          "internalType": "bytes32",
          "name": "previousAdminRole",
          "type": "bytes32"
        },
        {
          "indexed": true,
          "internalType": "bytes32",
          "name": "newAdminRole",
          "type": "bytes32"
        }
      ],
      "name": "RoleAdminChanged",
      "type": "event"
    },
    {
      "anonymous": false,
      "inputs": [
        {
          "indexed": true,
          "internalType": "bytes32",
          "name": "role",
          "type": "bytes32"
        },
        {
          "indexed": true,
          "internalType": "address",
          "name": "account",
          "type": "address"
        },
        {
          "indexed": true,
          "internalType": "address",
          "name": "sender",
          "type": "address"
        }
      ],
      "name": "RoleGranted",
      "type": "event"
    },
    {
      "anonymous": false,
      "inputs": [
        {
          "indexed": true,
          "internalType": "bytes32",
          "name": "role",
          "type": "bytes32"
        },
        {
          "indexed": true,
          "internalType": "address",
          "name": "account",
          "type": "address"
        },
        {
          "indexed": true,
          "internalType": "address",
          "name": "sender",
          "type": "address"
        }
      ],
      "name": "RoleRevoked",
      "type": "event"
    },
    {
      "anonymous": false,
      "inputs": [
        {
          "indexed": true,
          "internalType": "address",
          "name": "implementation",
          "type": "address"
        }
      ],
      "name": "Upgraded",
      "type": "event"
    },
    {
      "inputs": [],
      "name": "ATTESTATION_MAX_AGE",
      "outputs": [
        {
          "internalType": "uint256",
          "name": "",
          "type": "uint256"
        }
      ],
      "stateMutability": "view",
      "type": "function"
    },
    {
      "inputs": [],
      "name": "ATTESTATION_VERIFIER",
      "outputs": [
        {
          "internalType": "contract IAttestationVerifier",
          "name": "",
          "type": "address"
        }
      ],
      "stateMutability": "view",
      "type": "function"
    },
    {
      "inputs": [],
      "name": "DEFAULT_ADMIN_ROLE",
      "outputs": [
        {
          "internalType": "bytes32",
          "name": "",
          "type": "bytes32"
        }
      ],
      "stateMutability": "view",
      "type": "function"
    },
    {
      "inputs": [
        {
          "internalType": "address",
          "name": "_admin",
          "type": "address"
        },
        {
          "components": [
            {
              "internalType": "bytes",
              "name": "PCR0",
              "type": "bytes"
            },
            {
              "internalType": "bytes",
              "name": "PCR1",
              "type": "bytes"
            },
            {
              "internalType": "bytes",
              "name": "PCR2",
              "type": "bytes"
            }
          ],
          "internalType": "struct AttestationAutherUpgradeable.EnclaveImage[]",
          "name": "_images",
          "type": "tuple[]"
        },
        {
          "internalType": "contract IERC20",
          "name": "_token",
          "type": "address"
        }
      ],
      "name": "__CommonChainGateways_init",
      "outputs": [],
      "stateMutability": "nonpayable",
      "type": "function"
    },
    {
      "inputs": [
        {
          "internalType": "bytes",
          "name": "_enclavePubKey",
          "type": "bytes"
        },
        {
          "internalType": "uint256",
          "name": "_chainId",
          "type": "uint256"
        }
      ],
      "name": "addChain",
      "outputs": [],
      "stateMutability": "nonpayable",
      "type": "function"
    },
    {
      "inputs": [
        {
          "internalType": "uint256[]",
          "name": "_chainIds",
          "type": "uint256[]"
        },
        {
          "components": [
            {
              "internalType": "address",
              "name": "contractAddress",
              "type": "address"
            },
            {
              "internalType": "string",
              "name": "rpcUrl",
              "type": "string"
            }
          ],
          "internalType": "struct CommonChainGateways.RequestChain[]",
          "name": "_requestChains",
          "type": "tuple[]"
        }
      ],
      "name": "addChainGlobal",
      "outputs": [],
      "stateMutability": "nonpayable",
      "type": "function"
    },
    {
      "inputs": [
        {
          "internalType": "bytes",
          "name": "_enclavePubKey",
          "type": "bytes"
        },
        {
          "internalType": "uint256[]",
          "name": "_chainIds",
          "type": "uint256[]"
        }
      ],
      "name": "addChains",
      "outputs": [],
      "stateMutability": "nonpayable",
      "type": "function"
    },
    {
      "inputs": [
        {
          "internalType": "bytes",
          "name": "_enclavePubKey",
          "type": "bytes"
        },
        {
          "internalType": "uint256",
          "name": "_amount",
          "type": "uint256"
        }
      ],
      "name": "addGatewayStake",
      "outputs": [],
      "stateMutability": "nonpayable",
      "type": "function"
    },
    {
      "inputs": [
        {
          "internalType": "address",
          "name": "_key",
          "type": "address"
        }
      ],
      "name": "allowOnlyVerified",
      "outputs": [],
      "stateMutability": "view",
      "type": "function"
    },
    {
      "inputs": [
        {
          "internalType": "bytes",
          "name": "_enclavePubKey",
          "type": "bytes"
        }
      ],
      "name": "deregisterGateway",
      "outputs": [],
      "stateMutability": "nonpayable",
      "type": "function"
    },
    {
      "inputs": [
        {
          "internalType": "uint256",
          "name": "",
          "type": "uint256"
        }
      ],
      "name": "gatewayAddresses",
      "outputs": [
        {
          "internalType": "address",
          "name": "",
          "type": "address"
        }
      ],
      "stateMutability": "view",
      "type": "function"
    },
    {
      "inputs": [
        {
          "internalType": "address",
          "name": "",
          "type": "address"
        }
      ],
      "name": "gateways",
      "outputs": [
        {
          "internalType": "address",
          "name": "operator",
          "type": "address"
        },
        {
          "internalType": "uint256",
          "name": "stakeAmount",
          "type": "uint256"
        },
        {
          "internalType": "bool",
          "name": "status",
          "type": "bool"
        }
      ],
      "stateMutability": "view",
      "type": "function"
    },
    {
      "inputs": [
        {
          "internalType": "uint256",
          "name": "_chainId",
          "type": "uint256"
        }
      ],
      "name": "getActiveGatewaysForReqChain",
      "outputs": [
        {
          "components": [
            {
              "internalType": "address",
              "name": "operator",
              "type": "address"
            },
            {
              "internalType": "uint256[]",
              "name": "chainIds",
              "type": "uint256[]"
            },
            {
              "internalType": "uint256",
              "name": "stakeAmount",
              "type": "uint256"
            },
            {
              "internalType": "bool",
              "name": "status",
              "type": "bool"
            }
          ],
          "internalType": "struct CommonChainGateways.Gateway[]",
          "name": "",
          "type": "tuple[]"
        }
      ],
      "stateMutability": "view",
      "type": "function"
    },
    {
      "inputs": [
        {
          "internalType": "address",
          "name": "_address",
          "type": "address"
        }
      ],
      "name": "getGateway",
      "outputs": [
        {
          "internalType": "address",
          "name": "",
          "type": "address"
        },
        {
          "internalType": "uint256[]",
          "name": "",
          "type": "uint256[]"
        },
        {
          "internalType": "uint256",
          "name": "",
          "type": "uint256"
        },
        {
          "internalType": "bool",
          "name": "",
          "type": "bool"
        }
      ],
      "stateMutability": "view",
      "type": "function"
    },
    {
      "inputs": [
        {
          "internalType": "bytes32",
          "name": "role",
          "type": "bytes32"
        }
      ],
      "name": "getRoleAdmin",
      "outputs": [
        {
          "internalType": "bytes32",
          "name": "",
          "type": "bytes32"
        }
      ],
      "stateMutability": "view",
      "type": "function"
    },
    {
      "inputs": [
        {
          "internalType": "bytes32",
          "name": "role",
          "type": "bytes32"
        },
        {
          "internalType": "uint256",
          "name": "index",
          "type": "uint256"
        }
      ],
      "name": "getRoleMember",
      "outputs": [
        {
          "internalType": "address",
          "name": "",
          "type": "address"
        }
      ],
      "stateMutability": "view",
      "type": "function"
    },
    {
      "inputs": [
        {
          "internalType": "bytes32",
          "name": "role",
          "type": "bytes32"
        }
      ],
      "name": "getRoleMemberCount",
      "outputs": [
        {
          "internalType": "uint256",
          "name": "",
          "type": "uint256"
        }
      ],
      "stateMutability": "view",
      "type": "function"
    },
    {
      "inputs": [
        {
          "internalType": "address",
          "name": "_key",
          "type": "address"
        }
      ],
      "name": "getVerifiedKey",
      "outputs": [
        {
          "internalType": "bytes32",
          "name": "",
          "type": "bytes32"
        }
      ],
      "stateMutability": "view",
      "type": "function"
    },
    {
      "inputs": [
        {
          "internalType": "bytes32",
          "name": "_imageId",
          "type": "bytes32"
        }
      ],
      "name": "getWhitelistedImage",
      "outputs": [
        {
          "components": [
            {
              "internalType": "bytes",
              "name": "PCR0",
              "type": "bytes"
            },
            {
              "internalType": "bytes",
              "name": "PCR1",
              "type": "bytes"
            },
            {
              "internalType": "bytes",
              "name": "PCR2",
              "type": "bytes"
            }
          ],
          "internalType": "struct AttestationAutherUpgradeable.EnclaveImage",
          "name": "",
          "type": "tuple"
        }
      ],
      "stateMutability": "view",
      "type": "function"
    },
    {
      "inputs": [
        {
          "internalType": "bytes32",
          "name": "role",
          "type": "bytes32"
        },
        {
          "internalType": "address",
          "name": "account",
          "type": "address"
        }
      ],
      "name": "grantRole",
      "outputs": [],
      "stateMutability": "nonpayable",
      "type": "function"
    },
    {
      "inputs": [
        {
          "internalType": "bytes32",
          "name": "role",
          "type": "bytes32"
        },
        {
          "internalType": "address",
          "name": "account",
          "type": "address"
        }
      ],
      "name": "hasRole",
      "outputs": [
        {
          "internalType": "bool",
          "name": "",
          "type": "bool"
        }
      ],
      "stateMutability": "view",
      "type": "function"
    },
    {
      "inputs": [
        {
          "internalType": "uint256",
          "name": "_reqChainId",
          "type": "uint256"
        }
      ],
      "name": "isChainSupported",
      "outputs": [
        {
          "internalType": "bool",
          "name": "",
          "type": "bool"
        }
      ],
      "stateMutability": "view",
      "type": "function"
    },
    {
      "inputs": [],
      "name": "proxiableUUID",
      "outputs": [
        {
          "internalType": "bytes32",
          "name": "",
          "type": "bytes32"
        }
      ],
      "stateMutability": "view",
      "type": "function"
    },
    {
      "inputs": [
        {
          "internalType": "bytes",
          "name": "_attestation",
          "type": "bytes"
        },
        {
          "internalType": "bytes",
          "name": "_enclavePubKey",
          "type": "bytes"
        },
        {
          "internalType": "bytes",
          "name": "_PCR0",
          "type": "bytes"
        },
        {
          "internalType": "bytes",
          "name": "_PCR1",
          "type": "bytes"
        },
        {
          "internalType": "bytes",
          "name": "_PCR2",
          "type": "bytes"
        },
        {
          "internalType": "uint256",
          "name": "_enclaveCPUs",
          "type": "uint256"
        },
        {
          "internalType": "uint256",
          "name": "_enclaveMemory",
          "type": "uint256"
        },
        {
          "internalType": "uint256",
          "name": "_timestampInMilliseconds",
          "type": "uint256"
        },
        {
          "internalType": "uint256[]",
          "name": "_chainIds",
          "type": "uint256[]"
        },
        {
          "internalType": "bytes",
          "name": "_signature",
          "type": "bytes"
        },
        {
          "internalType": "uint256",
          "name": "_stakeAmount",
          "type": "uint256"
        }
      ],
      "name": "registerGateway",
      "outputs": [],
      "stateMutability": "nonpayable",
      "type": "function"
    },
    {
      "inputs": [
        {
          "internalType": "bytes",
          "name": "_enclavePubKey",
          "type": "bytes"
        },
        {
          "internalType": "uint256",
          "name": "_chainId",
          "type": "uint256"
        }
      ],
      "name": "removeChain",
      "outputs": [],
      "stateMutability": "nonpayable",
      "type": "function"
    },
    {
      "inputs": [
        {
          "internalType": "uint256[]",
          "name": "_chainIds",
          "type": "uint256[]"
        }
      ],
      "name": "removeChainGlobal",
      "outputs": [],
      "stateMutability": "nonpayable",
      "type": "function"
    },
    {
      "inputs": [
        {
          "internalType": "bytes",
          "name": "_enclavePubKey",
          "type": "bytes"
        },
        {
          "internalType": "uint256[]",
          "name": "_chainIds",
          "type": "uint256[]"
        }
      ],
      "name": "removeChains",
      "outputs": [],
      "stateMutability": "nonpayable",
      "type": "function"
    },
    {
      "inputs": [
        {
          "internalType": "bytes",
          "name": "_enclavePubKey",
          "type": "bytes"
        },
        {
          "internalType": "uint256",
          "name": "_amount",
          "type": "uint256"
        }
      ],
      "name": "removeGatewayStake",
      "outputs": [],
      "stateMutability": "nonpayable",
      "type": "function"
    },
    {
      "inputs": [
        {
          "internalType": "bytes32",
          "name": "role",
          "type": "bytes32"
        },
        {
          "internalType": "address",
          "name": "account",
          "type": "address"
        }
      ],
      "name": "renounceRole",
      "outputs": [],
      "stateMutability": "nonpayable",
      "type": "function"
    },
    {
      "inputs": [
        {
          "internalType": "uint256",
          "name": "",
          "type": "uint256"
        }
      ],
      "name": "requestChains",
      "outputs": [
        {
          "internalType": "address",
          "name": "contractAddress",
          "type": "address"
        },
        {
          "internalType": "string",
          "name": "rpcUrl",
          "type": "string"
        }
      ],
      "stateMutability": "view",
      "type": "function"
    },
    {
      "inputs": [
        {
          "internalType": "bytes32",
          "name": "role",
          "type": "bytes32"
        },
        {
          "internalType": "address",
          "name": "account",
          "type": "address"
        }
      ],
      "name": "revokeRole",
      "outputs": [],
      "stateMutability": "nonpayable",
      "type": "function"
    },
    {
      "inputs": [
        {
          "internalType": "bytes4",
          "name": "interfaceId",
          "type": "bytes4"
        }
      ],
      "name": "supportsInterface",
      "outputs": [
        {
          "internalType": "bool",
          "name": "",
          "type": "bool"
        }
      ],
      "stateMutability": "view",
      "type": "function"
    },
    {
      "inputs": [],
      "name": "token",
      "outputs": [
        {
          "internalType": "contract IERC20",
          "name": "",
          "type": "address"
        }
      ],
      "stateMutability": "view",
      "type": "function"
    },
    {
      "inputs": [
        {
          "internalType": "address",
          "name": "newImplementation",
          "type": "address"
        }
      ],
      "name": "upgradeTo",
      "outputs": [],
      "stateMutability": "nonpayable",
      "type": "function"
    },
    {
      "inputs": [
        {
          "internalType": "address",
          "name": "newImplementation",
          "type": "address"
        },
        {
          "internalType": "bytes",
          "name": "data",
          "type": "bytes"
        }
      ],
      "name": "upgradeToAndCall",
      "outputs": [],
      "stateMutability": "payable",
      "type": "function"
    },
    {
      "inputs": [
        {
          "internalType": "bytes",
          "name": "signature",
          "type": "bytes"
        },
        {
          "internalType": "bytes",
          "name": "enclavePubKey",
          "type": "bytes"
        },
        {
          "internalType": "bytes32",
          "name": "imageId",
          "type": "bytes32"
        },
        {
          "internalType": "uint256",
          "name": "enclaveCPUs",
          "type": "uint256"
        },
        {
          "internalType": "uint256",
          "name": "enclaveMemory",
          "type": "uint256"
        },
        {
          "internalType": "uint256",
          "name": "timestampInMilliseconds",
          "type": "uint256"
        }
      ],
      "name": "verifyKey",
      "outputs": [],
      "stateMutability": "nonpayable",
      "type": "function"
    }
  ],
  "bytecode": "0x60e06040523060c0523480156200001557600080fd5b50604051620055b6380380620055b6833981016040819052620000389162000186565b6001600160a01b03821660805260a0819052600054610100900460ff16158080156200006b5750600054600160ff909116105b806200009b575062000088306200017760201b6200273e1760201c565b1580156200009b575060005460ff166001145b620001035760405162461bcd60e51b815260206004820152602e60248201527f496e697469616c697a61626c653a20636f6e747261637420697320616c72656160448201526d191e481a5b9a5d1a585b1a5e995960921b606482015260840160405180910390fd5b6000805460ff19166001179055801562000127576000805461ff0019166101001790555b80156200016e576000805461ff0019169055604051600181527f7f26b83ff96e1f2b6a682f133852f6798a09c465da95921460cefb38474024989060200160405180910390a15b505050620001c2565b6001600160a01b03163b151590565b600080604083850312156200019a57600080fd5b82516001600160a01b0381168114620001b257600080fd5b6020939093015192949293505050565b60805160a05160c05161539a6200021c60003960008181610eea01528181610f800152818161140101528181611497015261158e0152600081816105db0152612b9f0152600081816106d40152612dee015261539a6000f3fe60806040526004361061024f5760003560e01c806391d1485411610138578063cd79f906116100b0578063ec6aef291161007f578063eff3be0911610064578063eff3be09146107a4578063fb94db2b146107c4578063fc0c546a146107e457600080fd5b8063ec6aef2914610756578063edc1c0df1461077657600080fd5b8063cd79f906146106c2578063d3b3f949146106f6578063d547741f14610716578063e0aba60a1461073657600080fd5b8063a0ac45d511610107578063bda009fe116100ec578063bda009fe14610652578063ca15c87314610682578063cc101e00146106a257600080fd5b8063a0ac45d51461061d578063a217fddf1461063d57600080fd5b806391d1485414610563578063974d2a06146105a95780639aec990e146105c95780639c01de41146105fd57600080fd5b80634abc64c2116101cb57806352d1902d1161019a57806380bc92331161017f57806380bc9233146104b25780639010d07c146104d25780639022c19c146104f257600080fd5b806352d1902d146104655780635450c16b1461047a57600080fd5b80634abc64c2146103d95780634c712ba3146103f95780634f1ef286146104195780635221c1f01461042c57600080fd5b8063248a9ca3116102225780632f2ff15d116102075780632f2ff15d1461037957806336568abe146103995780633659cfe6146103b957600080fd5b8063248a9ca31461031c5780632572647a1461034c57600080fd5b80630167847b1461025457806301d58fa31461027657806301ffc9a7146102bf5780632410f6ba146102ef575b600080fd5b34801561026057600080fd5b5061027461026f366004614484565b610805565b005b34801561028257600080fd5b506102ac6102913660046144ce565b6001600160a01b0316600090815260ca602052604090205490565b6040519081526020015b60405180910390f35b3480156102cb57600080fd5b506102df6102da3660046144eb565b610970565b60405190151581526020016102b6565b3480156102fb57600080fd5b5061030f61030a36600461452d565b610981565b6040516102b69190614596565b34801561032857600080fd5b506102ac61033736600461452d565b60009081526065602052604090206001015490565b34801561035857600080fd5b5061036c61036736600461452d565b610b7a565b6040516102b69190614632565b34801561038557600080fd5b506102746103943660046146e6565b610e2e565b3480156103a557600080fd5b506102746103b43660046146e6565b610e58565b3480156103c557600080fd5b506102746103d43660046144ce565b610ee0565b3480156103e557600080fd5b506102746103f436600461478e565b61107d565b34801561040557600080fd5b506102746104143660046147f2565b61118f565b61027461042736600461493e565b6113f7565b34801561043857600080fd5b506102df61044736600461452d565b600090815261016060205260409020546001600160a01b0316151590565b34801561047157600080fd5b506102ac611581565b34801561048657600080fd5b5061049a61049536600461452d565b611646565b6040516001600160a01b0390911681526020016102b6565b3480156104be57600080fd5b506102746104cd366004614984565b611671565b3480156104de57600080fd5b5061049a6104ed3660046149c9565b6118c1565b3480156104fe57600080fd5b5061053c61050d3660046144ce565b610161602052600090815260409020805460028201546003909201546001600160a01b03909116919060ff1683565b604080516001600160a01b03909416845260208401929092521515908201526060016102b6565b34801561056f57600080fd5b506102df61057e3660046146e6565b60009182526065602090815260408084206001600160a01b0393909316845291905290205460ff1690565b3480156105b557600080fd5b506102746105c4366004614984565b6118e0565b3480156105d557600080fd5b506102ac7f000000000000000000000000000000000000000000000000000000000000000081565b34801561060957600080fd5b50610274610618366004614984565b611bd2565b34801561062957600080fd5b506102746106383660046144ce565b611d04565b34801561064957600080fd5b506102ac600081565b34801561065e57600080fd5b5061067261066d3660046144ce565b611d0d565b6040516102b694939291906149eb565b34801561068e57600080fd5b506102ac61069d36600461452d565b611daa565b3480156106ae57600080fd5b506102746106bd366004614984565b611dc1565b3480156106ce57600080fd5b5061049a7f000000000000000000000000000000000000000000000000000000000000000081565b34801561070257600080fd5b50610274610711366004614a35565b611ee3565b34801561072257600080fd5b506102746107313660046146e6565b6120be565b34801561074257600080fd5b50610274610751366004614b89565b6120e3565b34801561076257600080fd5b5061027461077136600461478e565b6123ba565b34801561078257600080fd5b5061079661079136600461452d565b6124c5565b6040516102b6929190614bbe565b3480156107b057600080fd5b506102746107bf366004614be0565b612575565b3480156107d057600080fd5b506102746107df366004614d12565b612728565b3480156107f057600080fd5b5061015f5461049a906001600160a01b031681565b61081060003361057e565b6108615760405162461bcd60e51b815260206004820152600a60248201527f6f6e6c792061646d696e0000000000000000000000000000000000000000000060448201526064015b60405180910390fd5b60008151116108b25760405162461bcd60e51b815260206004820152600e60248201527f494e56414c49445f4c454e4754480000000000000000000000000000000000006044820152606401610858565b60005b815181101561096c5760008282815181106108d2576108d2614d99565b60209081029190910181015160008181526101609092526040822080547fffffffffffffffffffffffff0000000000000000000000000000000000000000168155909250906109246001830182614295565b50506040518181527f5b9dc40648bfe840de770df10081e79f179534343348da4087dea77ba584d1819060200160405180910390a1508061096481614df7565b9150506108b5565b5050565b600061097b8261274d565b92915050565b6109a560405180606001604052806060815260200160608152602001606081525090565b600082815260c96020526040908190208151606081019092528054829082906109cd90614e2f565b80601f01602080910402602001604051908101604052809291908181526020018280546109f990614e2f565b8015610a465780601f10610a1b57610100808354040283529160200191610a46565b820191906000526020600020905b815481529060010190602001808311610a2957829003601f168201915b50505050508152602001600182018054610a5f90614e2f565b80601f0160208091040260200160405190810160405280929190818152602001828054610a8b90614e2f565b8015610ad85780601f10610aad57610100808354040283529160200191610ad8565b820191906000526020600020905b815481529060010190602001808311610abb57829003601f168201915b50505050508152602001600282018054610af190614e2f565b80601f0160208091040260200160405190810160405280929190818152602001828054610b1d90614e2f565b8015610b6a5780601f10610b3f57610100808354040283529160200191610b6a565b820191906000526020600020905b815481529060010190602001808311610b4d57829003601f168201915b5050505050815250509050919050565b6101625460609060009067ffffffffffffffff811115610b9c57610b9c614349565b604051908082528060200260200182016040528015610c0357816020015b610bf0604051806080016040528060006001600160a01b0316815260200160608152602001600081526020016000151581525090565b815260200190600190039081610bba5790505b50905060005b61016254811015610e275761016160006101628381548110610c2d57610c2d614d99565b60009182526020808320909101546001600160a01b0316835282019290925260400190206003015460ff1615610e1557600061016160006101628481548110610c7857610c78614d99565b60009182526020808320909101546001600160a01b03168352828101939093526040918201902060010180548251818502810185019093528083529192909190830182828015610ce757602002820191906000526020600020905b815481526020019060010190808311610cd3575b5050505050905060005b8151811015610e125785828281518110610d0d57610d0d614d99565b602002602001015103610e005761016160006101628581548110610d3357610d33614d99565b60009182526020808320909101546001600160a01b039081168452838201949094526040928301909120825160808101845281549094168452600181018054845181850281018501909552808552919385840193909290830182828015610db957602002820191906000526020600020905b815481526020019060010190808311610da5575b50505091835250506002820154602082015260039091015460ff1615156040909101528451859085908110610df057610df0614d99565b6020026020010181905250610e12565b80610e0a81614df7565b915050610cf1565b50505b80610e1f81614df7565b915050610c09565b5092915050565b600082815260656020526040902060010154610e49816127a3565b610e5383836127ad565b505050565b6001600160a01b0381163314610ed65760405162461bcd60e51b815260206004820152602f60248201527f416363657373436f6e74726f6c3a2063616e206f6e6c792072656e6f756e636560448201527f20726f6c657320666f722073656c6600000000000000000000000000000000006064820152608401610858565b61096c82826127b7565b6001600160a01b037f0000000000000000000000000000000000000000000000000000000000000000163003610f7e5760405162461bcd60e51b815260206004820152602c60248201527f46756e6374696f6e206d7573742062652063616c6c6564207468726f7567682060448201527f64656c656761746563616c6c00000000000000000000000000000000000000006064820152608401610858565b7f00000000000000000000000000000000000000000000000000000000000000006001600160a01b0316610fd97f360894a13ba1a3210667c828492db98dca3e2076cc3735a920a3ca505d382bbc546001600160a01b031690565b6001600160a01b0316146110555760405162461bcd60e51b815260206004820152602c60248201527f46756e6374696f6e206d7573742062652063616c6c6564207468726f7567682060448201527f6163746976652070726f787900000000000000000000000000000000000000006064820152608401610858565b61105e8161281a565b6040805160008082526020820190925261107a91839190612871565b50565b81600061108982612a11565b6001600160a01b03808216600090815261016160205260409020549192501633146110f65760405162461bcd60e51b815260206004820152601560248201527f4f4e4c595f474154455741595f4f50455241544f5200000000000000000000006044820152606401610858565b60008351116111475760405162461bcd60e51b815260206004820152601060248201527f454d5054595f5245515f434841494e53000000000000000000000000000000006044820152606401610858565b60005b8351811015611188576111768585838151811061116957611169614d99565b6020026020010151611671565b8061118081614df7565b91505061114a565b5050505050565b60008989896040516020016111a693929190614e82565b6040516020818303038152906040528051906020012090506111cc8c8c838a8a8a612a70565b6000846040516020016111df9190614ec5565b60408051601f198184030181529190528051602090910120905060006112058286612ee7565b905061121081612f0b565b6112293361015f546001600160a01b0316903087613027565b60006112348e612a11565b905060005b87518110156112e75760006001600160a01b031661016060008a848151811061126457611264614d99565b6020908102919091018101518252810191909152604001600020546001600160a01b0316036112d55760405162461bcd60e51b815260206004820152601160248201527f554e535550504f525445445f434841494e0000000000000000000000000000006044820152606401610858565b806112df81614df7565b915050611239565b50610162805460018082019092557f29af0939a5988989bfee913a9ad10b9335cb63ebc9fd2b69e5f877d0455ac9190180546001600160a01b038481167fffffffffffffffffffffffff000000000000000000000000000000000000000092831681179093556040805160808101825233815260208082018e81528284018d905260608301889052600096875261016182529290952081518154941693909416929092178355518051919492936113a3938501929101906142cf565b5060408201516002820155606090910151600390910180547fffffffffffffffffffffffffffffffffffffffffffffffffffffffffffffff0016911515919091179055505050505050505050505050505050565b6001600160a01b037f00000000000000000000000000000000000000000000000000000000000000001630036114955760405162461bcd60e51b815260206004820152602c60248201527f46756e6374696f6e206d7573742062652063616c6c6564207468726f7567682060448201527f64656c656761746563616c6c00000000000000000000000000000000000000006064820152608401610858565b7f00000000000000000000000000000000000000000000000000000000000000006001600160a01b03166114f07f360894a13ba1a3210667c828492db98dca3e2076cc3735a920a3ca505d382bbc546001600160a01b031690565b6001600160a01b03161461156c5760405162461bcd60e51b815260206004820152602c60248201527f46756e6374696f6e206d7573742062652063616c6c6564207468726f7567682060448201527f6163746976652070726f787900000000000000000000000000000000000000006064820152608401610858565b6115758261281a565b61096c82826001612871565b6000306001600160a01b037f000000000000000000000000000000000000000000000000000000000000000016146116215760405162461bcd60e51b815260206004820152603860248201527f555550535570677261646561626c653a206d757374206e6f742062652063616c60448201527f6c6564207468726f7567682064656c656761746563616c6c00000000000000006064820152608401610858565b507f360894a13ba1a3210667c828492db98dca3e2076cc3735a920a3ca505d382bbc90565b610162818154811061165757600080fd5b6000918252602090912001546001600160a01b0316905081565b81600061167d82612a11565b6001600160a01b03808216600090815261016160205260409020549192501633146116ea5760405162461bcd60e51b815260206004820152601560248201527f4f4e4c595f474154455741595f4f50455241544f5200000000000000000000006044820152606401610858565b600083815261016060205260409020546001600160a01b031661174f5760405162461bcd60e51b815260206004820152601160248201527f554e535550504f525445445f434841494e0000000000000000000000000000006044820152606401610858565b600061175a85612a11565b6001600160a01b038116600090815261016160209081526040808320600101805482518185028101850190935280835294955092939092918301828280156117c157602002820191906000526020600020905b8154815260200190600101908083116117ad575b5050505050905060005b815181101561184e57858282815181106117e7576117e7614d99565b60200260200101510361183c5760405162461bcd60e51b815260206004820152601460248201527f434841494e5f414c52454144595f4558495354530000000000000000000000006044820152606401610858565b8061184681614df7565b9150506117cb565b506001600160a01b03821660009081526101616020908152604080832060019081018054918201815584529190922001869055517f88cce4122801bcc715f3f1b2e894f26b07049a0d4c2d204c0c4ad87157f4e18c906118b19088908890614ed8565b60405180910390a1505050505050565b60008281526097602052604081206118d990836130d8565b9392505050565b8160006118ec82612a11565b6001600160a01b03808216600090815261016160205260409020549192501633146119595760405162461bcd60e51b815260206004820152601560248201527f4f4e4c595f474154455741595f4f50455241544f5200000000000000000000006044820152606401610858565b600061196485612a11565b6001600160a01b038116600090815261016160209081526040808320600101805482518185028101850190935280835294955092939092918301828280156119cb57602002820191906000526020600020905b8154815260200190600101908083116119b7575b5050835193945050508115159050611a255760405162461bcd60e51b815260206004820152600f60248201527f454d5054595f434841494e4c49535400000000000000000000000000000000006044820152606401610858565b60005b81811015611a635786838281518110611a4357611a43614d99565b60200260200101510315611a635780611a5b81614df7565b915050611a28565b818114611ab25760405162461bcd60e51b815260206004820152600f60248201527f434841494e5f4e4f545f464f554e4400000000000000000000000000000000006044820152606401610858565b611abd600183614efa565b8114611b4e576001600160a01b038416600090815261016160205260409020600190810190611aec9084614efa565b81548110611afc57611afc614d99565b90600052602060002001546101616000866001600160a01b03166001600160a01b031681526020019081526020016000206001018281548110611b4157611b41614d99565b6000918252602090912001555b6001600160a01b038416600090815261016160205260409020600101805480611b7957611b79614f0d565b600190038181906000526020600020016000905590557f23e9f2f63bc310edd7f3f83bb1e8fe39cd606aabe6a2530271f8037383aaf98c8888604051611bc0929190614ed8565b60405180910390a15050505050505050565b816000611bde82612a11565b6001600160a01b0380821660009081526101616020526040902054919250163314611c4b5760405162461bcd60e51b815260206004820152601560248201527f4f4e4c595f474154455741595f4f50455241544f5200000000000000000000006044820152606401610858565b611c643361015f546001600160a01b0316903086613027565b6000611c6f85612a11565b6001600160a01b03811660009081526101616020526040812060020180549293508692909190611ca0908490614f3c565b90915550506001600160a01b03811660009081526101616020526040908190206002015490517f9a719891db0e8e647d47fb1a5f64fea9a2c0d206db0b610c23f2cf1df521782391611cf59188918891614f4f565b60405180910390a15050505050565b61107a81612f0b565b6001600160a01b0380821660009081526101616020908152604080832080546002820154600383015460018401805486518189028101890190975280875297986060988a988998969092169592949360ff169291859190830182828015611d9357602002820191906000526020600020905b815481526020019060010190808311611d7f575b505050505092509450945094509450509193509193565b600081815260976020526040812061097b906130e4565b816000611dcd82612a11565b6001600160a01b0380821660009081526101616020526040902054919250163314611e3a5760405162461bcd60e51b815260206004820152601560248201527f4f4e4c595f474154455741595f4f50455241544f5200000000000000000000006044820152606401610858565b611e523361015f546001600160a01b031690856130ee565b6000611e5d85612a11565b6001600160a01b03811660009081526101616020526040812060020180549293508692909190611e8e908490614efa565b90915550506001600160a01b03811660009081526101616020526040908190206002015490517f162e2d134a088692c1bd7ca2e473a83d6ad3dcc4d7289b5cee9d342f4004d1b891611cf59188918891614f4f565b600054610100900460ff1615808015611f035750600054600160ff909116105b80611f1d5750303b158015611f1d575060005460ff166001145b611f8f5760405162461bcd60e51b815260206004820152602e60248201527f496e697469616c697a61626c653a20636f6e747261637420697320616c72656160448201527f647920696e697469616c697a65640000000000000000000000000000000000006064820152608401610858565b600080547fffffffffffffffffffffffffffffffffffffffffffffffffffffffffffffff001660011790558015611fed57600080547fffffffffffffffffffffffffffffffffffffffffffffffffffffffffffff00ff166101001790555b611ff5613137565b611ffd613137565b612005613137565b61200e836131b6565b612016613137565b6120216000856127ad565b61015f80547fffffffffffffffffffffffff0000000000000000000000000000000000000000166001600160a01b03841617905580156120b857600080547fffffffffffffffffffffffffffffffffffffffffffffffffffffffffffff00ff169055604051600181527f7f26b83ff96e1f2b6a682f133852f6798a09c465da95921460cefb38474024989060200160405180910390a15b50505050565b6000828152606560205260409020600101546120d9816127a3565b610e5383836127b7565b8060006120ef82612a11565b6001600160a01b038082166000908152610161602052604090205491925016331461215c5760405162461bcd60e51b815260206004820152601560248201527f4f4e4c595f474154455741595f4f50455241544f5200000000000000000000006044820152606401610858565b600061216784612a11565b6001600160a01b0380821660009081526101616020526040902054919250166121d25760405162461bcd60e51b815260206004820152601360248201527f494e56414c49445f454e434c4156455f4b4559000000000000000000000000006044820152606401610858565b6101625460005b8181101561222b57826001600160a01b031661016282815481106121ff576121ff614d99565b6000918252602090912001546001600160a01b03161461222b578061222381614df7565b9150506121d9565b612236600183614efa565b81146122b65761016261224a600184614efa565b8154811061225a5761225a614d99565b60009182526020909120015461016280546001600160a01b03909216918390811061228757612287614d99565b9060005260206000200160006101000a8154816001600160a01b0302191690836001600160a01b031602179055505b6101628054806122c8576122c8614f0d565b6000828152602080822083017fffffffffffffffffffffffffffffffffffffffffffffffffffffffffffffffff90810180547fffffffffffffffffffffffff000000000000000000000000000000000000000090811690915593019093556001600160a01b0386168152610161909252604082208054909116815590612351600183018261431a565b506000600282015560030180547fffffffffffffffffffffffffffffffffffffffffffffffffffffffffffffff0016905561238b86613274565b7fcfdd9fda8828d739bda25c6f221393246d149dd1b7f6784acdb8ba0132722f27866040516118b19190614f74565b8160006123c682612a11565b6001600160a01b03808216600090815261016160205260409020549192501633146124335760405162461bcd60e51b815260206004820152601560248201527f4f4e4c595f474154455741595f4f50455241544f5200000000000000000000006044820152606401610858565b60008351116124845760405162461bcd60e51b815260206004820152601060248201527f454d5054595f5245515f434841494e53000000000000000000000000000000006044820152606401610858565b60005b8351811015611188576124b3858583815181106124a6576124a6614d99565b60200260200101516118e0565b806124bd81614df7565b915050612487565b61016060205260009081526040902080546001820180546001600160a01b0390921692916124f290614e2f565b80601f016020809104026020016040519081016040528092919081815260200182805461251e90614e2f565b801561256b5780601f106125405761010080835404028352916020019161256b565b820191906000526020600020905b81548152906001019060200180831161254e57829003601f168201915b5050505050905082565b61258060003361057e565b6125cc5760405162461bcd60e51b815260206004820152600a60248201527f6f6e6c792061646d696e000000000000000000000000000000000000000000006044820152606401610858565b600082511180156125de575080518251145b61262a5760405162461bcd60e51b815260206004820152600e60248201527f494e56414c49445f4c454e4754480000000000000000000000000000000000006044820152606401610858565b60005b8151811015610e5357600082828151811061264a5761264a614d99565b60200260200101519050600084838151811061266857612668614d99565b6020908102919091018101516000818152610160835260409020845181547fffffffffffffffffffffffff0000000000000000000000000000000000000000166001600160a01b039091161781559184015190925083919060018201906126cf9082614fcd565b5050825160208401516040517f67dd8b8576f1455907cc1b4aa4623860ed1036d8ead856785f3d51bef810fa63935061270b92859290916150c9565b60405180910390a15050808061272090614df7565b91505061262d565b612736868686868686612a70565b505050505050565b6001600160a01b03163b151590565b60007fffffffff0000000000000000000000000000000000000000000000000000000082167f5a05180f00000000000000000000000000000000000000000000000000000000148061097b575061097b82613344565b61107a81336133db565b61096c8282613450565b6127c18282613472565b6127cb6000611daa565b60000361096c5760405162461bcd60e51b815260206004820181905260248201527f41563a52522d416c6c2061646d696e732063616e742062652072656d6f7665646044820152606401610858565b61282560003361057e565b61107a5760405162461bcd60e51b815260206004820152600a60248201527f6f6e6c792061646d696e000000000000000000000000000000000000000000006044820152606401610858565b7f4910fdfa16fed3260ed0e7147f7cc6da11a60208b5b9406d12a635614ffd91435460ff16156128a457610e5383613494565b826001600160a01b03166352d1902d6040518163ffffffff1660e01b8152600401602060405180830381865afa9250505080156128fe575060408051601f3d908101601f191682019092526128fb918101906150f1565b60015b6129705760405162461bcd60e51b815260206004820152602e60248201527f45524331393637557067726164653a206e657720696d706c656d656e7461746960448201527f6f6e206973206e6f7420555550530000000000000000000000000000000000006064820152608401610858565b7f360894a13ba1a3210667c828492db98dca3e2076cc3735a920a3ca505d382bbc8114612a055760405162461bcd60e51b815260206004820152602960248201527f45524331393637557067726164653a20756e737570706f727465642070726f7860448201527f6961626c655555494400000000000000000000000000000000000000000000006064820152608401610858565b50610e5383838361356a565b60008151604014612a645760405162461bcd60e51b815260206004820152601960248201527f496e76616c6964207075626c6963206b6579206c656e677468000000000000006044820152606401610858565b50805160209091012090565b600084815260c9602052604090208054612a8990614e2f565b9050600003612b005760405162461bcd60e51b815260206004820152602d60248201527f41413a564b2d456e636c61766520696d61676520746f20766572696679206e6f60448201527f742077686974656c6973746564000000000000000000000000000000000000006064820152608401610858565b6000612b0b86612a11565b6001600160a01b038116600090815260ca602052604090205490915015612b9a5760405162461bcd60e51b815260206004820152602260248201527f41413a564b2d456e636c617665206b657920616c72656164792076657269666960448201527f65640000000000000000000000000000000000000000000000000000000000006064820152608401610858565b612bc47f000000000000000000000000000000000000000000000000000000000000000042614efa565b612bd06103e88461510a565b11612c1d5760405162461bcd60e51b815260206004820152601960248201527f41413a564b2d4174746573746174696f6e20746f6f206f6c64000000000000006044820152606401610858565b600085815260c96020526040808220815160608101909252805482908290612c4490614e2f565b80601f0160208091040260200160405190810160405280929190818152602001828054612c7090614e2f565b8015612cbd5780601f10612c9257610100808354040283529160200191612cbd565b820191906000526020600020905b815481529060010190602001808311612ca057829003601f168201915b50505050508152602001600182018054612cd690614e2f565b80601f0160208091040260200160405190810160405280929190818152602001828054612d0290614e2f565b8015612d4f5780601f10612d2457610100808354040283529160200191612d4f565b820191906000526020600020905b815481529060010190602001808311612d3257829003601f168201915b50505050508152602001600282018054612d6890614e2f565b80601f0160208091040260200160405190810160405280929190818152602001828054612d9490614e2f565b8015612de15780601f10612db657610100808354040283529160200191612de1565b820191906000526020600020905b815481529060010190602001808311612dc457829003601f168201915b50505050508152505090507f00000000000000000000000000000000000000000000000000000000000000006001600160a01b031663ac0f0bd589898460000151856020015186604001518b8b8b6040518963ffffffff1660e01b8152600401612e52989796959493929190615145565b60006040518083038186803b158015612e6a57600080fd5b505afa158015612e7e573d6000803e3d6000fd5b5050506001600160a01b038316600090815260ca60205260409081902088905551879150612ead9089906151ca565b604051908190038120907ff4837f1a66a1e5fbde2c40d0f6eff75183139e79b0fc1eaab280a3a0be38e7b190600090a35050505050505050565b6000806000612ef6858561358f565b91509150612f03816135d4565b509392505050565b6001600160a01b038116600090815260ca602052604090205480612f975760405162461bcd60e51b815260206004820152602360248201527f41413a414f562d456e636c617665206b6579206d75737420626520766572696660448201527f69656400000000000000000000000000000000000000000000000000000000006064820152608401610858565b600081815260c9602052604090208054612fb090614e2f565b905060000361096c5760405162461bcd60e51b815260206004820152602760248201527f41413a414f562d536f7572636520696d616765206d757374206265207768697460448201527f656c6973746564000000000000000000000000000000000000000000000000006064820152608401610858565b6040516001600160a01b03808516602483015283166044820152606481018290526120b89085907f23b872dd00000000000000000000000000000000000000000000000000000000906084015b60408051601f198184030181529190526020810180517bffffffffffffffffffffffffffffffffffffffffffffffffffffffff167fffffffff0000000000000000000000000000000000000000000000000000000090931692909217909152613739565b60006118d98383613821565b600061097b825490565b6040516001600160a01b038316602482015260448101829052610e539084907fa9059cbb0000000000000000000000000000000000000000000000000000000090606401613074565b600054610100900460ff166131b45760405162461bcd60e51b815260206004820152602b60248201527f496e697469616c697a61626c653a20636f6e7472616374206973206e6f74206960448201527f6e697469616c697a696e670000000000000000000000000000000000000000006064820152608401610858565b565b600054610100900460ff166132335760405162461bcd60e51b815260206004820152602b60248201527f496e697469616c697a61626c653a20636f6e7472616374206973206e6f74206960448201527f6e697469616c697a696e670000000000000000000000000000000000000000006064820152608401610858565b60005b815181101561096c5761326182828151811061325457613254614d99565b602002602001015161384b565b508061326c81614df7565b915050613236565b600061327f82612a11565b6001600160a01b038116600090815260ca60205260409020549091506132e75760405162461bcd60e51b815260206004820152601e60248201527f41413a524b2d456e636c617665206b6579206e6f7420766572696669656400006044820152606401610858565b6001600160a01b038116600090815260ca602052604080822091909155516133109083906151ca565b604051908190038120907ff910fd78b98e9574e8b6f0e42bc3a996a6aba3776ec20b9d85515bd74a6c8fe990600090a25050565b60007fffffffff0000000000000000000000000000000000000000000000000000000082167f7965db0b00000000000000000000000000000000000000000000000000000000148061097b57507f01ffc9a7000000000000000000000000000000000000000000000000000000007fffffffff0000000000000000000000000000000000000000000000000000000083161461097b565b60008281526065602090815260408083206001600160a01b038516845290915290205460ff1661096c5761340e81613a45565b613419836020613a57565b60405160200161342a9291906151e6565b60408051601f198184030181529082905262461bcd60e51b825261085891600401614f74565b61345a8282613c80565b6000828152609760205260409020610e539082613d40565b61347c8282613d55565b6000828152609760205260409020610e539082613df6565b6001600160a01b0381163b6135115760405162461bcd60e51b815260206004820152602d60248201527f455243313936373a206e657720696d706c656d656e746174696f6e206973206e60448201527f6f74206120636f6e7472616374000000000000000000000000000000000000006064820152608401610858565b7f360894a13ba1a3210667c828492db98dca3e2076cc3735a920a3ca505d382bbc80547fffffffffffffffffffffffff0000000000000000000000000000000000000000166001600160a01b0392909216919091179055565b61357383613e0b565b6000825111806135805750805b15610e53576120b88383613e4b565b60008082516041036135c55760208301516040840151606085015160001a6135b987828585613e70565b945094505050506135cd565b506000905060025b9250929050565b60008160048111156135e8576135e8615267565b036135f05750565b600181600481111561360457613604615267565b036136515760405162461bcd60e51b815260206004820152601860248201527f45434453413a20696e76616c6964207369676e617475726500000000000000006044820152606401610858565b600281600481111561366557613665615267565b036136b25760405162461bcd60e51b815260206004820152601f60248201527f45434453413a20696e76616c6964207369676e6174757265206c656e677468006044820152606401610858565b60038160048111156136c6576136c6615267565b0361107a5760405162461bcd60e51b815260206004820152602260248201527f45434453413a20696e76616c6964207369676e6174757265202773272076616c60448201527f75650000000000000000000000000000000000000000000000000000000000006064820152608401610858565b600061378e826040518060400160405280602081526020017f5361666545524332303a206c6f772d6c6576656c2063616c6c206661696c6564815250856001600160a01b0316613f349092919063ffffffff16565b90508051600014806137af5750808060200190518101906137af9190615296565b610e535760405162461bcd60e51b815260206004820152602a60248201527f5361666545524332303a204552433230206f7065726174696f6e20646964206e60448201527f6f742073756363656564000000000000000000000000000000000000000000006064820152608401610858565b600082600001828154811061383857613838614d99565b9060005260206000200154905092915050565b805151600090603014801561386557508160200151516030145b801561387657508160400151516030145b6138e85760405162461bcd60e51b815260206004820152602160248201527f41413a57492d5043522076616c756573206d757374206265203438206279746560448201527f73000000000000000000000000000000000000000000000000000000000000006064820152608401610858565b600082600001518360200151846040015160405160200161390b93929190614e82565b60408051601f198184030181529181528151602092830120600081815260c9909352912080549192509061393e90614e2f565b15905061398d5760405162461bcd60e51b815260206004820152601f60248201527f41413a57492d696d61676520616c72656164792077686974656c6973746564006044820152606401610858565b6040805160608101825284518152602080860151818301528583015182840152600084815260c990915291909120815181906139c99082614fcd565b50602082015160018201906139de9082614fcd565b50604082015160028201906139f39082614fcd565b50905050807f52b29bbdd97ab983419f50fa1590e5ab75e9942279e95e10a08607b06c23238b846000015185602001518660400151604051613a37939291906152b8565b60405180910390a292915050565b606061097b6001600160a01b03831660145b60606000613a668360026152f1565b613a71906002614f3c565b67ffffffffffffffff811115613a8957613a89614349565b6040519080825280601f01601f191660200182016040528015613ab3576020820181803683370190505b5090507f300000000000000000000000000000000000000000000000000000000000000081600081518110613aea57613aea614d99565b60200101907effffffffffffffffffffffffffffffffffffffffffffffffffffffffffffff1916908160001a9053507f780000000000000000000000000000000000000000000000000000000000000081600181518110613b4d57613b4d614d99565b60200101907effffffffffffffffffffffffffffffffffffffffffffffffffffffffffffff1916908160001a9053506000613b898460026152f1565b613b94906001614f3c565b90505b6001811115613c31577f303132333435363738396162636465660000000000000000000000000000000085600f1660108110613bd557613bd5614d99565b1a60f81b828281518110613beb57613beb614d99565b60200101907effffffffffffffffffffffffffffffffffffffffffffffffffffffffffffff1916908160001a90535060049490941c93613c2a81615308565b9050613b97565b5083156118d95760405162461bcd60e51b815260206004820181905260248201527f537472696e67733a20686578206c656e67746820696e73756666696369656e746044820152606401610858565b60008281526065602090815260408083206001600160a01b038516845290915290205460ff1661096c5760008281526065602090815260408083206001600160a01b0385168452909152902080547fffffffffffffffffffffffffffffffffffffffffffffffffffffffffffffff00166001179055613cfc3390565b6001600160a01b0316816001600160a01b0316837f2f8788117e7eff1d82e926ec794901d17c78024a50270940304540a733656f0d60405160405180910390a45050565b60006118d9836001600160a01b038416613f4b565b60008281526065602090815260408083206001600160a01b038516845290915290205460ff161561096c5760008281526065602090815260408083206001600160a01b038516808552925280832080547fffffffffffffffffffffffffffffffffffffffffffffffffffffffffffffff0016905551339285917ff6391f5c32d9c69d2a47ea670b442974b53935d1edc7fd64eb21e047a839171b9190a45050565b60006118d9836001600160a01b038416613f9a565b613e1481613494565b6040516001600160a01b038216907fbc7cd75a20ee27fd9adebab32041f755214dbc6bffa90cc0225b39da2e5c2d3b90600090a250565b60606118d9838360405180606001604052806027815260200161533e6027913961408d565b6000807f7fffffffffffffffffffffffffffffff5d576e7357a4501ddfe92f46681b20a0831115613ea75750600090506003613f2b565b6040805160008082526020820180845289905260ff881692820192909252606081018690526080810185905260019060a0016020604051602081039080840390855afa158015613efb573d6000803e3d6000fd5b5050604051601f1901519150506001600160a01b038116613f2457600060019250925050613f2b565b9150600090505b94509492505050565b6060613f438484600085614105565b949350505050565b6000818152600183016020526040812054613f925750815460018181018455600084815260208082209093018490558454848252828601909352604090209190915561097b565b50600061097b565b60008181526001830160205260408120548015614083576000613fbe600183614efa565b8554909150600090613fd290600190614efa565b9050818114614037576000866000018281548110613ff257613ff2614d99565b906000526020600020015490508087600001848154811061401557614015614d99565b6000918252602080832090910192909255918252600188019052604090208390555b855486908061404857614048614f0d565b60019003818190600052602060002001600090559055856001016000868152602001908152602001600020600090556001935050505061097b565b600091505061097b565b6060600080856001600160a01b0316856040516140aa91906151ca565b600060405180830381855af49150503d80600081146140e5576040519150601f19603f3d011682016040523d82523d6000602084013e6140ea565b606091505b50915091506140fb868383876141f7565b9695505050505050565b60608247101561417d5760405162461bcd60e51b815260206004820152602660248201527f416464726573733a20696e73756666696369656e742062616c616e636520666f60448201527f722063616c6c00000000000000000000000000000000000000000000000000006064820152608401610858565b600080866001600160a01b0316858760405161419991906151ca565b60006040518083038185875af1925050503d80600081146141d6576040519150601f19603f3d011682016040523d82523d6000602084013e6141db565b606091505b50915091506141ec878383876141f7565b979650505050505050565b6060831561426657825160000361425f576001600160a01b0385163b61425f5760405162461bcd60e51b815260206004820152601d60248201527f416464726573733a2063616c6c20746f206e6f6e2d636f6e74726163740000006044820152606401610858565b5081613f43565b613f43838381511561427b5781518083602001fd5b8060405162461bcd60e51b81526004016108589190614f74565b5080546142a190614e2f565b6000825580601f106142b1575050565b601f01602090049060005260206000209081019061107a9190614334565b82805482825590600052602060002090810192821561430a579160200282015b8281111561430a5782518255916020019190600101906142ef565b50614316929150614334565b5090565b508054600082559060005260206000209081019061107a91905b5b808211156143165760008155600101614335565b7f4e487b7100000000000000000000000000000000000000000000000000000000600052604160045260246000fd5b6040516060810167ffffffffffffffff8111828210171561439b5761439b614349565b60405290565b6040805190810167ffffffffffffffff8111828210171561439b5761439b614349565b604051601f8201601f1916810167ffffffffffffffff811182821017156143ed576143ed614349565b604052919050565b600067ffffffffffffffff82111561440f5761440f614349565b5060051b60200190565b600082601f83011261442a57600080fd5b8135602061443f61443a836143f5565b6143c4565b82815260059290921b8401810191818101908684111561445e57600080fd5b8286015b848110156144795780358352918301918301614462565b509695505050505050565b60006020828403121561449657600080fd5b813567ffffffffffffffff8111156144ad57600080fd5b613f4384828501614419565b6001600160a01b038116811461107a57600080fd5b6000602082840312156144e057600080fd5b81356118d9816144b9565b6000602082840312156144fd57600080fd5b81357fffffffff00000000000000000000000000000000000000000000000000000000811681146118d957600080fd5b60006020828403121561453f57600080fd5b5035919050565b60005b83811015614561578181015183820152602001614549565b50506000910152565b60008151808452614582816020860160208601614546565b601f01601f19169290920160200192915050565b6020815260008251606060208401526145b2608084018261456a565b90506020840151601f19808584030160408601526145d0838361456a565b92506040860151915080858403016060860152506145ee828261456a565b95945050505050565b600081518084526020808501945080840160005b838110156146275781518752958201959082019060010161460b565b509495945050505050565b60006020808301818452808551808352604092508286019150828160051b87010184880160005b838110156146d8577fffffffffffffffffffffffffffffffffffffffffffffffffffffffffffffffc0898403018552815160806001600160a01b03825116855288820151818a8701526146ae828701826145f7565b838a0151878b01526060938401511515939096019290925250509386019390860190600101614659565b509098975050505050505050565b600080604083850312156146f957600080fd5b82359150602083013561470b816144b9565b809150509250929050565b600067ffffffffffffffff83111561473057614730614349565b6147436020601f19601f860116016143c4565b905082815283838301111561475757600080fd5b828260208301376000602084830101529392505050565b600082601f83011261477f57600080fd5b6118d983833560208501614716565b600080604083850312156147a157600080fd5b823567ffffffffffffffff808211156147b957600080fd5b6147c58683870161476e565b935060208501359150808211156147db57600080fd5b506147e885828601614419565b9150509250929050565b60008060008060008060008060008060006101608c8e03121561481457600080fd5b67ffffffffffffffff808d35111561482b57600080fd5b6148388e8e358f0161476e565b9b508060208e0135111561484b57600080fd5b61485b8e60208f01358f0161476e565b9a508060408e0135111561486e57600080fd5b61487e8e60408f01358f0161476e565b99508060608e0135111561489157600080fd5b6148a18e60608f01358f0161476e565b98508060808e013511156148b457600080fd5b6148c48e60808f01358f0161476e565b975060a08d0135965060c08d0135955060e08d01359450806101008e013511156148ed57600080fd5b6148fe8e6101008f01358f01614419565b9350806101208e0135111561491257600080fd5b506149248d6101208e01358e0161476e565b91506101408c013590509295989b509295989b9093969950565b6000806040838503121561495157600080fd5b823561495c816144b9565b9150602083013567ffffffffffffffff81111561497857600080fd5b6147e88582860161476e565b6000806040838503121561499757600080fd5b823567ffffffffffffffff8111156149ae57600080fd5b6149ba8582860161476e565b95602094909401359450505050565b600080604083850312156149dc57600080fd5b50508035926020909101359150565b6001600160a01b0385168152608060208201526000614a0d60808301866145f7565b60408301949094525090151560609091015292915050565b8035614a30816144b9565b919050565b600080600060608486031215614a4a57600080fd5b8335614a55816144b9565b925060208481013567ffffffffffffffff80821115614a7357600080fd5b818701915087601f830112614a8757600080fd5b8135614a9561443a826143f5565b81815260059190911b8301840190848101908a831115614ab457600080fd5b8585015b83811015614b6a57803585811115614acf57600080fd5b86016060818e03601f19011215614ae557600080fd5b614aed614378565b8882013587811115614afe57600080fd5b614b0c8f8b8386010161476e565b825250604082013587811115614b225760008081fd5b614b308f8b8386010161476e565b8a83015250606082013587811115614b485760008081fd5b614b568f8b8386010161476e565b604083015250845250918601918601614ab8565b50809750505050505050614b8060408501614a25565b90509250925092565b600060208284031215614b9b57600080fd5b813567ffffffffffffffff811115614bb257600080fd5b613f438482850161476e565b6001600160a01b0383168152604060208201526000613f43604083018461456a565b6000806040808486031215614bf457600080fd5b833567ffffffffffffffff80821115614c0c57600080fd5b614c1887838801614419565b9450602091508186013581811115614c2f57600080fd5b8601601f81018813614c4057600080fd5b8035614c4e61443a826143f5565b81815260059190911b8201840190848101908a831115614c6d57600080fd5b8584015b83811015614d0057803586811115614c895760008081fd5b8501808d03601f1901891315614c9f5760008081fd5b614ca76143a1565b88820135614cb4816144b9565b8152818a013588811115614cc85760008081fd5b8083019250508d603f830112614cde5760008081fd5b614cee8e8a8401358c8501614716565b818a0152845250918601918601614c71565b50809750505050505050509250929050565b60008060008060008060c08789031215614d2b57600080fd5b863567ffffffffffffffff80821115614d4357600080fd5b614d4f8a838b0161476e565b97506020890135915080821115614d6557600080fd5b50614d7289828a0161476e565b96999698505050506040850135946060810135946080820135945060a09091013592509050565b7f4e487b7100000000000000000000000000000000000000000000000000000000600052603260045260246000fd5b7f4e487b7100000000000000000000000000000000000000000000000000000000600052601160045260246000fd5b60007fffffffffffffffffffffffffffffffffffffffffffffffffffffffffffffffff8203614e2857614e28614dc8565b5060010190565b600181811c90821680614e4357607f821691505b602082108103614e7c577f4e487b7100000000000000000000000000000000000000000000000000000000600052602260045260246000fd5b50919050565b60008451614e94818460208901614546565b845190830190614ea8818360208901614546565b8451910190614ebb818360208801614546565b0195945050505050565b6020815260006118d960208301846145f7565b604081526000614eeb604083018561456a565b90508260208301529392505050565b8181038181111561097b5761097b614dc8565b7f4e487b7100000000000000000000000000000000000000000000000000000000600052603160045260246000fd5b8082018082111561097b5761097b614dc8565b606081526000614f62606083018661456a565b60208301949094525060400152919050565b6020815260006118d9602083018461456a565b601f821115610e5357600081815260208120601f850160051c81016020861015614fae5750805b601f850160051c820191505b8181101561273657828155600101614fba565b815167ffffffffffffffff811115614fe757614fe7614349565b614ffb81614ff58454614e2f565b84614f87565b602080601f83116001811461504e57600084156150185750858301515b7fffffffffffffffffffffffffffffffffffffffffffffffffffffffffffffffff600386901b1c1916600185901b178555612736565b600085815260208120601f198616915b8281101561507d5788860151825594840194600190910190840161505e565b50858210156150b957878501517fffffffffffffffffffffffffffffffffffffffffffffffffffffffffffffffff600388901b60f8161c191681555b5050505050600190811b01905550565b8381526001600160a01b03831660208201526060604082015260006145ee606083018461456a565b60006020828403121561510357600080fd5b5051919050565b600082615140577f4e487b7100000000000000000000000000000000000000000000000000000000600052601260045260246000fd5b500490565b60006101008083526151598184018c61456a565b9050828103602084015261516d818b61456a565b90508281036040840152615181818a61456a565b90508281036060840152615195818961456a565b905082810360808401526151a9818861456a565b60a0840196909652505060c081019290925260e09091015295945050505050565b600082516151dc818460208701614546565b9190910192915050565b7f416363657373436f6e74726f6c3a206163636f756e742000000000000000000081526000835161521e816017850160208801614546565b7f206973206d697373696e6720726f6c6520000000000000000000000000000000601791840191820152835161525b816028840160208801614546565b01602801949350505050565b7f4e487b7100000000000000000000000000000000000000000000000000000000600052602160045260246000fd5b6000602082840312156152a857600080fd5b815180151581146118d957600080fd5b6060815260006152cb606083018661456a565b82810360208401526152dd818661456a565b905082810360408401526140fb818561456a565b808202811582820484141761097b5761097b614dc8565b60008161531757615317614dc8565b507fffffffffffffffffffffffffffffffffffffffffffffffffffffffffffffffff019056fe416464726573733a206c6f772d6c6576656c2064656c65676174652063616c6c206661696c6564a26469706673582212200d2912512780456402b81ea92799e8462757508ddfa60c7486226f17a875a51464736f6c63430008110033",
  "linkReferences": {},
  "deployedLinkReferences": {}
}