{
  "_format": "hh-sol-artifact-1",
  "contractName": "CommonChainGateways",
  "sourceName": "contracts/serverless-v2/CommonChainGateways.sol",
  "abi": [
    {
      "inputs": [
        {
          "internalType": "contract IAttestationVerifier",
          "name": "attestationVerifier",
          "type": "address"
        },
        {
          "internalType": "uint256",
          "name": "maxAge",
          "type": "uint256"
        },
        {
          "internalType": "contract IERC20",
          "name": "_token",
          "type": "address"
        }
      ],
      "stateMutability": "nonpayable",
      "type": "constructor"
    },
    {
      "inputs": [],
      "name": "AccessControlBadConfirmation",
      "type": "error"
    },
    {
      "inputs": [
        {
          "internalType": "address",
          "name": "account",
          "type": "address"
        },
        {
          "internalType": "bytes32",
          "name": "neededRole",
          "type": "bytes32"
        }
      ],
      "name": "AccessControlUnauthorizedAccount",
      "type": "error"
    },
    {
      "inputs": [
        {
          "internalType": "address",
          "name": "target",
          "type": "address"
        }
      ],
      "name": "AddressEmptyCode",
      "type": "error"
    },
    {
      "inputs": [
        {
          "internalType": "address",
          "name": "account",
          "type": "address"
        }
      ],
      "name": "AddressInsufficientBalance",
      "type": "error"
    },
    {
      "inputs": [],
      "name": "AttestationAutherAttestationTooOld",
      "type": "error"
    },
    {
      "inputs": [],
      "name": "AttestationAutherImageNotInFamily",
      "type": "error"
    },
    {
      "inputs": [],
      "name": "AttestationAutherImageNotWhitelisted",
      "type": "error"
    },
    {
      "inputs": [],
      "name": "AttestationAutherKeyNotVerified",
      "type": "error"
    },
    {
      "inputs": [],
      "name": "AttestationAutherMismatchedLengths",
      "type": "error"
    },
    {
      "inputs": [],
      "name": "AttestationAutherPCRsInvalid",
      "type": "error"
    },
    {
      "inputs": [],
      "name": "AttestationAutherPubkeyLengthInvalid",
      "type": "error"
    },
    {
      "inputs": [
        {
          "internalType": "uint256",
          "name": "chainId",
          "type": "uint256"
        }
      ],
      "name": "ChainAlreadyExists",
      "type": "error"
    },
    {
      "inputs": [
        {
          "internalType": "uint256",
          "name": "chainId",
          "type": "uint256"
        }
      ],
      "name": "ChainNotFound",
      "type": "error"
    },
    {
      "inputs": [],
      "name": "ECDSAInvalidSignature",
      "type": "error"
    },
    {
      "inputs": [
        {
          "internalType": "uint256",
          "name": "length",
          "type": "uint256"
        }
      ],
      "name": "ECDSAInvalidSignatureLength",
      "type": "error"
    },
    {
      "inputs": [
        {
          "internalType": "bytes32",
          "name": "s",
          "type": "bytes32"
        }
      ],
      "name": "ECDSAInvalidSignatureS",
      "type": "error"
    },
    {
      "inputs": [
        {
          "internalType": "address",
          "name": "implementation",
          "type": "address"
        }
      ],
      "name": "ERC1967InvalidImplementation",
      "type": "error"
    },
    {
      "inputs": [],
      "name": "ERC1967NonPayable",
      "type": "error"
    },
    {
      "inputs": [],
      "name": "FailedInnerCall",
      "type": "error"
    },
    {
      "inputs": [],
      "name": "InvalidInitialization",
      "type": "error"
    },
    {
      "inputs": [],
      "name": "NotInitializing",
      "type": "error"
    },
    {
      "inputs": [
        {
          "internalType": "address",
          "name": "token",
          "type": "address"
        }
      ],
      "name": "SafeERC20FailedOperation",
      "type": "error"
    },
    {
      "inputs": [],
      "name": "UUPSUnauthorizedCallContext",
      "type": "error"
    },
    {
      "inputs": [
        {
          "internalType": "bytes32",
          "name": "slot",
          "type": "bytes32"
        }
      ],
      "name": "UUPSUnsupportedProxiableUUID",
      "type": "error"
    },
    {
      "anonymous": false,
      "inputs": [
        {
          "indexed": true,
          "internalType": "address",
          "name": "enclaveKey",
          "type": "address"
        },
        {
          "indexed": false,
          "internalType": "uint256",
          "name": "chainId",
          "type": "uint256"
        }
      ],
      "name": "ChainAdded",
      "type": "event"
    },
    {
      "anonymous": false,
      "inputs": [
        {
          "indexed": false,
          "internalType": "uint256",
          "name": "chainId",
          "type": "uint256"
        },
        {
          "indexed": false,
          "internalType": "address",
          "name": "contractAddress",
          "type": "address"
        },
        {
          "indexed": false,
          "internalType": "string",
          "name": "rpcUrl",
          "type": "string"
        }
      ],
      "name": "ChainAddedGlobal",
      "type": "event"
    },
    {
      "anonymous": false,
      "inputs": [
        {
          "indexed": true,
          "internalType": "address",
          "name": "enclaveKey",
          "type": "address"
        },
        {
          "indexed": false,
          "internalType": "uint256",
          "name": "chainId",
          "type": "uint256"
        }
      ],
      "name": "ChainRemoved",
      "type": "event"
    },
    {
      "anonymous": false,
      "inputs": [
        {
          "indexed": false,
          "internalType": "uint256",
          "name": "chainId",
          "type": "uint256"
        }
      ],
      "name": "ChainRemovedGlobal",
      "type": "event"
    },
    {
      "anonymous": false,
      "inputs": [
        {
          "indexed": true,
          "internalType": "bytes32",
          "name": "imageId",
          "type": "bytes32"
        },
        {
          "indexed": false,
          "internalType": "bytes32",
          "name": "family",
          "type": "bytes32"
        }
      ],
      "name": "EnclaveImageAddedToFamily",
      "type": "event"
    },
    {
      "anonymous": false,
      "inputs": [
        {
          "indexed": true,
          "internalType": "bytes32",
          "name": "imageId",
          "type": "bytes32"
        },
        {
          "indexed": false,
          "internalType": "bytes32",
          "name": "family",
          "type": "bytes32"
        }
      ],
      "name": "EnclaveImageRemovedFromFamily",
      "type": "event"
    },
    {
      "anonymous": false,
      "inputs": [
        {
          "indexed": true,
          "internalType": "bytes32",
          "name": "imageId",
          "type": "bytes32"
        }
      ],
      "name": "EnclaveImageRevoked",
      "type": "event"
    },
    {
      "anonymous": false,
      "inputs": [
        {
          "indexed": true,
          "internalType": "bytes32",
          "name": "imageId",
          "type": "bytes32"
        },
        {
          "indexed": false,
          "internalType": "bytes",
          "name": "PCR0",
          "type": "bytes"
        },
        {
          "indexed": false,
          "internalType": "bytes",
          "name": "PCR1",
          "type": "bytes"
        },
        {
          "indexed": false,
          "internalType": "bytes",
          "name": "PCR2",
          "type": "bytes"
        }
      ],
      "name": "EnclaveImageWhitelisted",
      "type": "event"
    },
    {
      "anonymous": false,
      "inputs": [
        {
          "indexed": true,
          "internalType": "bytes",
          "name": "enclavePubKey",
          "type": "bytes"
        }
      ],
      "name": "EnclaveKeyRevoked",
      "type": "event"
    },
    {
      "anonymous": false,
      "inputs": [
        {
          "indexed": true,
          "internalType": "address",
          "name": "enclaveKey",
          "type": "address"
        }
      ],
      "name": "EnclaveKeyRevoked2",
      "type": "event"
    },
    {
      "anonymous": false,
      "inputs": [
        {
          "indexed": true,
          "internalType": "bytes",
          "name": "enclavePubKey",
          "type": "bytes"
        },
        {
          "indexed": true,
          "internalType": "bytes32",
          "name": "imageId",
          "type": "bytes32"
        }
      ],
      "name": "EnclaveKeyVerified",
      "type": "event"
    },
    {
      "anonymous": false,
      "inputs": [
        {
          "indexed": true,
          "internalType": "bytes",
          "name": "enclavePubKey",
          "type": "bytes"
        },
        {
          "indexed": true,
          "internalType": "bytes32",
          "name": "imageId",
          "type": "bytes32"
        }
      ],
      "name": "EnclaveKeyWhitelisted",
      "type": "event"
    },
    {
      "anonymous": false,
      "inputs": [
        {
          "indexed": true,
          "internalType": "address",
          "name": "enclaveKey",
          "type": "address"
        }
      ],
      "name": "GatewayDeregistered",
      "type": "event"
    },
    {
      "anonymous": false,
      "inputs": [
        {
          "indexed": true,
          "internalType": "address",
          "name": "enclaveKey",
          "type": "address"
        },
        {
          "indexed": true,
          "internalType": "address",
          "name": "operator",
          "type": "address"
        },
        {
          "indexed": false,
          "internalType": "uint256[]",
          "name": "chainIds",
          "type": "uint256[]"
        }
      ],
      "name": "GatewayRegistered",
      "type": "event"
    },
    {
      "anonymous": false,
      "inputs": [
        {
          "indexed": true,
          "internalType": "address",
          "name": "enclaveKey",
          "type": "address"
        },
        {
          "indexed": false,
          "internalType": "uint256",
          "name": "addedAmount",
          "type": "uint256"
        },
        {
          "indexed": false,
          "internalType": "uint256",
          "name": "totalAmount",
          "type": "uint256"
        }
      ],
      "name": "GatewayStakeAdded",
      "type": "event"
    },
    {
      "anonymous": false,
      "inputs": [
        {
          "indexed": true,
          "internalType": "address",
          "name": "enclaveKey",
          "type": "address"
        },
        {
          "indexed": false,
          "internalType": "uint256",
          "name": "removedAmount",
          "type": "uint256"
        },
        {
          "indexed": false,
          "internalType": "uint256",
          "name": "totalAmount",
          "type": "uint256"
        }
      ],
      "name": "GatewayStakeRemoved",
      "type": "event"
    },
    {
      "anonymous": false,
      "inputs": [
        {
          "indexed": false,
          "internalType": "uint64",
          "name": "version",
          "type": "uint64"
        }
      ],
      "name": "Initialized",
      "type": "event"
    },
    {
      "anonymous": false,
      "inputs": [
        {
          "indexed": true,
          "internalType": "bytes32",
          "name": "role",
          "type": "bytes32"
        },
        {
          "indexed": true,
          "internalType": "bytes32",
          "name": "previousAdminRole",
          "type": "bytes32"
        },
        {
          "indexed": true,
          "internalType": "bytes32",
          "name": "newAdminRole",
          "type": "bytes32"
        }
      ],
      "name": "RoleAdminChanged",
      "type": "event"
    },
    {
      "anonymous": false,
      "inputs": [
        {
          "indexed": true,
          "internalType": "bytes32",
          "name": "role",
          "type": "bytes32"
        },
        {
          "indexed": true,
          "internalType": "address",
          "name": "account",
          "type": "address"
        },
        {
          "indexed": true,
          "internalType": "address",
          "name": "sender",
          "type": "address"
        }
      ],
      "name": "RoleGranted",
      "type": "event"
    },
    {
      "anonymous": false,
      "inputs": [
        {
          "indexed": true,
          "internalType": "bytes32",
          "name": "role",
          "type": "bytes32"
        },
        {
          "indexed": true,
          "internalType": "address",
          "name": "account",
          "type": "address"
        },
        {
          "indexed": true,
          "internalType": "address",
          "name": "sender",
          "type": "address"
        }
      ],
      "name": "RoleRevoked",
      "type": "event"
    },
    {
      "anonymous": false,
      "inputs": [
        {
          "indexed": true,
          "internalType": "address",
          "name": "implementation",
          "type": "address"
        }
      ],
      "name": "Upgraded",
      "type": "event"
    },
    {
      "inputs": [],
      "name": "ATTESTATION_MAX_AGE",
      "outputs": [
        {
          "internalType": "uint256",
          "name": "",
          "type": "uint256"
        }
      ],
      "stateMutability": "view",
      "type": "function"
    },
    {
      "inputs": [],
      "name": "ATTESTATION_VERIFIER",
      "outputs": [
        {
          "internalType": "contract IAttestationVerifier",
          "name": "",
          "type": "address"
        }
      ],
      "stateMutability": "view",
      "type": "function"
    },
    {
      "inputs": [],
      "name": "DEFAULT_ADMIN_ROLE",
      "outputs": [
        {
          "internalType": "bytes32",
          "name": "",
          "type": "bytes32"
        }
      ],
      "stateMutability": "view",
      "type": "function"
    },
    {
      "inputs": [],
      "name": "TOKEN",
      "outputs": [
        {
          "internalType": "contract IERC20",
          "name": "",
          "type": "address"
        }
      ],
      "stateMutability": "view",
      "type": "function"
    },
    {
      "inputs": [],
      "name": "UPGRADE_INTERFACE_VERSION",
      "outputs": [
        {
          "internalType": "string",
          "name": "",
          "type": "string"
        }
      ],
      "stateMutability": "view",
      "type": "function"
    },
    {
      "inputs": [
        {
          "internalType": "address",
          "name": "_admin",
          "type": "address"
        },
        {
          "components": [
            {
              "internalType": "bytes",
              "name": "PCR0",
              "type": "bytes"
            },
            {
              "internalType": "bytes",
              "name": "PCR1",
              "type": "bytes"
            },
            {
              "internalType": "bytes",
              "name": "PCR2",
              "type": "bytes"
            }
          ],
          "internalType": "struct AttestationAutherUpgradeable.EnclaveImage[]",
          "name": "_images",
          "type": "tuple[]"
        }
      ],
      "name": "__CommonChainGateways_init",
      "outputs": [],
      "stateMutability": "nonpayable",
      "type": "function"
    },
    {
      "inputs": [
        {
          "internalType": "uint256[]",
          "name": "_chainIds",
          "type": "uint256[]"
        },
        {
          "components": [
            {
              "internalType": "address",
              "name": "contractAddress",
              "type": "address"
            },
            {
              "internalType": "string",
              "name": "rpcUrl",
              "type": "string"
            }
          ],
          "internalType": "struct CommonChainGateways.RequestChain[]",
          "name": "_requestChains",
          "type": "tuple[]"
        }
      ],
      "name": "addChainGlobal",
      "outputs": [],
      "stateMutability": "nonpayable",
      "type": "function"
    },
    {
      "inputs": [
        {
          "internalType": "bytes",
          "name": "_enclavePubKey",
          "type": "bytes"
        },
        {
          "internalType": "uint256[]",
          "name": "_chainIds",
          "type": "uint256[]"
        }
      ],
      "name": "addChains",
      "outputs": [],
      "stateMutability": "nonpayable",
      "type": "function"
    },
    {
      "inputs": [
        {
          "internalType": "bytes",
          "name": "_enclavePubKey",
          "type": "bytes"
        },
        {
          "internalType": "uint256",
          "name": "_amount",
          "type": "uint256"
        }
      ],
      "name": "addGatewayStake",
      "outputs": [],
      "stateMutability": "nonpayable",
      "type": "function"
    },
    {
      "inputs": [
        {
          "internalType": "address",
          "name": "_key",
          "type": "address"
        }
      ],
      "name": "allowOnlyVerified",
      "outputs": [],
      "stateMutability": "view",
      "type": "function"
    },
    {
      "inputs": [
        {
          "internalType": "bytes",
          "name": "_enclavePubKey",
          "type": "bytes"
        }
      ],
      "name": "deregisterGateway",
      "outputs": [],
      "stateMutability": "nonpayable",
      "type": "function"
    },
    {
      "inputs": [
        {
          "internalType": "address",
          "name": "",
          "type": "address"
        }
      ],
      "name": "gateways",
      "outputs": [
        {
          "internalType": "address",
          "name": "operator",
          "type": "address"
        },
        {
          "internalType": "uint256",
          "name": "stakeAmount",
          "type": "uint256"
        },
        {
          "internalType": "uint256",
          "name": "deregisterStartTime",
          "type": "uint256"
        },
        {
          "internalType": "bool",
          "name": "status",
          "type": "bool"
        }
      ],
      "stateMutability": "view",
      "type": "function"
    },
    {
      "inputs": [
        {
          "internalType": "bytes32",
          "name": "role",
          "type": "bytes32"
        }
      ],
      "name": "getRoleAdmin",
      "outputs": [
        {
          "internalType": "bytes32",
          "name": "",
          "type": "bytes32"
        }
      ],
      "stateMutability": "view",
      "type": "function"
    },
    {
      "inputs": [
        {
          "internalType": "bytes32",
          "name": "role",
          "type": "bytes32"
        },
        {
          "internalType": "uint256",
          "name": "index",
          "type": "uint256"
        }
      ],
      "name": "getRoleMember",
      "outputs": [
        {
          "internalType": "address",
          "name": "",
          "type": "address"
        }
      ],
      "stateMutability": "view",
      "type": "function"
    },
    {
      "inputs": [
        {
          "internalType": "bytes32",
          "name": "role",
          "type": "bytes32"
        }
      ],
      "name": "getRoleMemberCount",
      "outputs": [
        {
          "internalType": "uint256",
          "name": "",
          "type": "uint256"
        }
      ],
      "stateMutability": "view",
      "type": "function"
    },
    {
      "inputs": [
        {
          "internalType": "address",
          "name": "_key",
          "type": "address"
        }
      ],
      "name": "getVerifiedKey",
      "outputs": [
        {
          "internalType": "bytes32",
          "name": "",
          "type": "bytes32"
        }
      ],
      "stateMutability": "view",
      "type": "function"
    },
    {
      "inputs": [
        {
          "internalType": "bytes32",
          "name": "_imageId",
          "type": "bytes32"
        }
      ],
      "name": "getWhitelistedImage",
      "outputs": [
        {
          "components": [
            {
              "internalType": "bytes",
              "name": "PCR0",
              "type": "bytes"
            },
            {
              "internalType": "bytes",
              "name": "PCR1",
              "type": "bytes"
            },
            {
              "internalType": "bytes",
              "name": "PCR2",
              "type": "bytes"
            }
          ],
          "internalType": "struct AttestationAutherUpgradeable.EnclaveImage",
          "name": "",
          "type": "tuple"
        }
      ],
      "stateMutability": "view",
      "type": "function"
    },
    {
      "inputs": [
        {
          "internalType": "bytes32",
          "name": "role",
          "type": "bytes32"
        },
        {
          "internalType": "address",
          "name": "account",
          "type": "address"
        }
      ],
      "name": "grantRole",
      "outputs": [],
      "stateMutability": "nonpayable",
      "type": "function"
    },
    {
      "inputs": [
        {
          "internalType": "bytes32",
          "name": "role",
          "type": "bytes32"
        },
        {
          "internalType": "address",
          "name": "account",
          "type": "address"
        }
      ],
      "name": "hasRole",
      "outputs": [
        {
          "internalType": "bool",
          "name": "",
          "type": "bool"
        }
      ],
      "stateMutability": "view",
      "type": "function"
    },
    {
      "inputs": [
        {
          "internalType": "uint256",
          "name": "_reqChainId",
          "type": "uint256"
        }
      ],
      "name": "isChainSupported",
      "outputs": [
        {
          "internalType": "bool",
          "name": "",
          "type": "bool"
        }
      ],
      "stateMutability": "view",
      "type": "function"
    },
    {
      "inputs": [
        {
          "internalType": "bytes32",
          "name": "imageId",
          "type": "bytes32"
        },
        {
          "internalType": "bytes32",
          "name": "family",
          "type": "bytes32"
        }
      ],
      "name": "isImageInFamily",
      "outputs": [
        {
          "internalType": "bool",
          "name": "",
          "type": "bool"
        }
      ],
      "stateMutability": "view",
      "type": "function"
    },
    {
      "inputs": [],
      "name": "proxiableUUID",
      "outputs": [
        {
          "internalType": "bytes32",
          "name": "",
          "type": "bytes32"
        }
      ],
      "stateMutability": "view",
      "type": "function"
    },
    {
      "inputs": [
        {
          "internalType": "bytes",
          "name": "_attestation",
          "type": "bytes"
        },
        {
          "internalType": "bytes",
          "name": "_enclavePubKey",
          "type": "bytes"
        },
        {
          "internalType": "bytes",
          "name": "_PCR0",
          "type": "bytes"
        },
        {
          "internalType": "bytes",
          "name": "_PCR1",
          "type": "bytes"
        },
        {
          "internalType": "bytes",
          "name": "_PCR2",
          "type": "bytes"
        },
        {
          "internalType": "uint256",
          "name": "_timestampInMilliseconds",
          "type": "uint256"
        },
        {
          "internalType": "uint256[]",
          "name": "_chainIds",
          "type": "uint256[]"
        },
        {
          "internalType": "bytes",
          "name": "_signature",
          "type": "bytes"
        },
        {
          "internalType": "uint256",
          "name": "_stakeAmount",
          "type": "uint256"
        }
      ],
      "name": "registerGateway",
      "outputs": [],
      "stateMutability": "nonpayable",
      "type": "function"
    },
    {
      "inputs": [
        {
          "internalType": "uint256[]",
          "name": "_chainIds",
          "type": "uint256[]"
        }
      ],
      "name": "removeChainGlobal",
      "outputs": [],
      "stateMutability": "nonpayable",
      "type": "function"
    },
    {
      "inputs": [
        {
          "internalType": "bytes",
          "name": "_enclavePubKey",
          "type": "bytes"
        },
        {
          "internalType": "uint256[]",
          "name": "_chainIds",
          "type": "uint256[]"
        }
      ],
      "name": "removeChains",
      "outputs": [],
      "stateMutability": "nonpayable",
      "type": "function"
    },
    {
      "inputs": [
        {
          "internalType": "bytes",
          "name": "_enclavePubKey",
          "type": "bytes"
        },
        {
          "internalType": "uint256",
          "name": "_amount",
          "type": "uint256"
        }
      ],
      "name": "removeGatewayStake",
      "outputs": [],
      "stateMutability": "nonpayable",
      "type": "function"
    },
    {
      "inputs": [
        {
          "internalType": "bytes32",
          "name": "role",
          "type": "bytes32"
        },
        {
          "internalType": "address",
          "name": "callerConfirmation",
          "type": "address"
        }
      ],
      "name": "renounceRole",
      "outputs": [],
      "stateMutability": "nonpayable",
      "type": "function"
    },
    {
      "inputs": [
        {
          "internalType": "uint256",
          "name": "",
          "type": "uint256"
        }
      ],
      "name": "requestChains",
      "outputs": [
        {
          "internalType": "address",
          "name": "contractAddress",
          "type": "address"
        },
        {
          "internalType": "string",
          "name": "rpcUrl",
          "type": "string"
        }
      ],
      "stateMutability": "view",
      "type": "function"
    },
    {
      "inputs": [
        {
          "internalType": "bytes32",
          "name": "role",
          "type": "bytes32"
        },
        {
          "internalType": "address",
          "name": "account",
          "type": "address"
        }
      ],
      "name": "revokeRole",
      "outputs": [],
      "stateMutability": "nonpayable",
      "type": "function"
    },
    {
      "inputs": [
        {
          "internalType": "bytes4",
          "name": "interfaceId",
          "type": "bytes4"
        }
      ],
      "name": "supportsInterface",
      "outputs": [
        {
          "internalType": "bool",
          "name": "",
          "type": "bool"
        }
      ],
      "stateMutability": "view",
      "type": "function"
    },
    {
      "inputs": [
        {
          "internalType": "address",
          "name": "newImplementation",
          "type": "address"
        },
        {
          "internalType": "bytes",
          "name": "data",
          "type": "bytes"
        }
      ],
      "name": "upgradeToAndCall",
      "outputs": [],
      "stateMutability": "payable",
      "type": "function"
    },
    {
      "inputs": [
        {
          "internalType": "bytes",
          "name": "signature",
          "type": "bytes"
        },
        {
          "components": [
            {
              "internalType": "bytes",
              "name": "enclavePubKey",
              "type": "bytes"
            },
            {
              "internalType": "bytes",
              "name": "PCR0",
              "type": "bytes"
            },
            {
              "internalType": "bytes",
              "name": "PCR1",
              "type": "bytes"
            },
            {
              "internalType": "bytes",
              "name": "PCR2",
              "type": "bytes"
            },
            {
              "internalType": "uint256",
              "name": "timestampInMilliseconds",
              "type": "uint256"
            }
          ],
          "internalType": "struct IAttestationVerifier.Attestation",
          "name": "attestation",
          "type": "tuple"
        }
      ],
      "name": "verifyEnclaveKey",
      "outputs": [
        {
          "internalType": "bool",
          "name": "",
          "type": "bool"
        }
      ],
      "stateMutability": "nonpayable",
      "type": "function"
    }
  ],
  "bytecode": "0x6101006040523060c05234801561001557600080fd5b50604051614763380380614763833981016040819052610034916101cd565b6001600160a01b03831660805260a08290527ff0c57e16840df040f15088dc2f81fe391c3923bec73e23a9662efc9c229c6a00805468010000000000000000810460ff1615906001600160401b03166000811580156100905750825b90506000826001600160401b031660011480156100ac5750303b155b9050811580156100ba575080155b156100d85760405163f92ee8a960e01b815260040160405180910390fd5b84546001600160401b0319166001178555831561010657845460ff60401b1916680100000000000000001785555b6001600160a01b0386166101555760405162461bcd60e51b81526020600482015260126024820152712d22a927afa0a2222922a9a9afaa27a5a2a760711b604482015260640160405180910390fd5b6001600160a01b03861660e05283156101a857845460ff60401b19168555604051600181527fc7f505b2f371ae2175ee4913f4499e1f2633a7b5936321eed1cdaeb6115181d29060200160405180910390a15b5050505050505050610210565b6001600160a01b03811681146101ca57600080fd5b50565b6000806000606084860312156101e257600080fd5b83516101ed816101b5565b602085015160408601519194509250610205816101b5565b809150509250925092565b60805160a05160c05160e0516144e961027a6000396000818161048901528181610dc50152818161111901526112a6015260008181611dc801528181611df101526120190152600081816105d5015261212b0152600081816106f401526121c901526144e96000f3fe6080604052600436106101e35760003560e01c80639022c19c11610102578063cc101e0011610095578063ec6aef2911610064578063ec6aef2914610756578063edc1c0df14610776578063ee61a8d5146107a4578063eff3be09146107c457600080fd5b8063cc101e00146106c2578063cd79f906146106e2578063d547741f14610716578063e0aba60a1461073657600080fd5b8063a0ac45d5116100d1578063a0ac45d514610617578063a217fddf14610637578063ad3cb1cc1461064c578063ca15c873146106a257600080fd5b80639022c19c146104e357806391d148541461055e5780639aec990e146105c35780639c01de41146105f757600080fd5b80634f1ef2861161017a5780636b5b21a6116101495780636b5b21a6146103fe57806375847b841461045757806382bfefc8146104775780639010d07c146104c357600080fd5b80634f1ef2861461037e5780635221c1f01461039157806352d1902d146103c95780635690e1cc146103de57600080fd5b8063248a9ca3116101b6578063248a9ca3146102cf5780632f2ff15d1461031e57806336568abe1461033e5780634abc64c21461035e57600080fd5b80630167847b146101e857806301d58fa31461020a57806301ffc9a7146102725780632410f6ba146102a2575b600080fd5b3480156101f457600080fd5b506102086102033660046137b3565b6107e4565b005b34801561021657600080fd5b5061025f610225366004613804565b6001600160a01b031660009081527fc17b4b708b6f44255c20913a9d97a05300b670342c71fe5ae5b617bd4db55001602052604090205490565b6040519081526020015b60405180910390f35b34801561027e57600080fd5b5061029261028d36600461381f565b61096a565b6040519015158152602001610269565b3480156102ae57600080fd5b506102c26102bd366004613861565b61097b565b60405161026991906138ca565b3480156102db57600080fd5b5061025f6102ea366004613861565b60009081527f02dd7bc7dec4dceedda775e58dd541e08a116c6c53815c0bd028192f7b626800602052604090206001015490565b34801561032a57600080fd5b50610208610339366004613922565b610b99565b34801561034a57600080fd5b50610208610359366004613922565b610be3565b34801561036a57600080fd5b506102086103793660046139c6565b610c34565b61020861038c366004613a2a565b610d3b565b34801561039d57600080fd5b506102926103ac366004613861565b6000908152602081905260409020546001600160a01b0316151590565b3480156103d557600080fd5b5061025f610d56565b3480156103ea57600080fd5b506102086103f9366004613a6e565b610d85565b34801561040a57600080fd5b50610292610419366004613b9d565b60009081527fc17b4b708b6f44255c20913a9d97a05300b670342c71fe5ae5b617bd4db5500260209081526040808320938352929052205460ff1690565b34801561046357600080fd5b50610292610472366004613bbf565b611048565b34801561048357600080fd5b506104ab7f000000000000000000000000000000000000000000000000000000000000000081565b6040516001600160a01b039091168152602001610269565b3480156104cf57600080fd5b506104ab6104de366004613b9d565b61105b565b3480156104ef57600080fd5b506105326104fe366004613804565b60016020526000908152604090208054600282015460038301546004909301546001600160a01b0390921692909160ff1684565b604080516001600160a01b03909516855260208501939093529183015215156060820152608001610269565b34801561056a57600080fd5b50610292610579366004613922565b60009182527f02dd7bc7dec4dceedda775e58dd541e08a116c6c53815c0bd028192f7b626800602090815260408084206001600160a01b0393909316845291905290205460ff1690565b3480156105cf57600080fd5b5061025f7f000000000000000000000000000000000000000000000000000000000000000081565b34801561060357600080fd5b50610208610612366004613cc9565b61109c565b34801561062357600080fd5b50610208610632366004613804565b6111e5565b34801561064357600080fd5b5061025f600081565b34801561065857600080fd5b506106956040518060400160405280600581526020017f352e302e3000000000000000000000000000000000000000000000000000000081525081565b6040516102699190613d0e565b3480156106ae57600080fd5b5061025f6106bd366004613861565b6111f1565b3480156106ce57600080fd5b506102086106dd366004613cc9565b611229565b3480156106ee57600080fd5b506104ab7f000000000000000000000000000000000000000000000000000000000000000081565b34801561072257600080fd5b50610208610731366004613922565b611366565b34801561074257600080fd5b50610208610751366004613d21565b6113aa565b34801561076257600080fd5b506102086107713660046139c6565b611561565b34801561078257600080fd5b50610796610791366004613861565b611661565b604051610269929190613d56565b3480156107b057600080fd5b506102086107bf366004613d78565b611710565b3480156107d057600080fd5b506102086107df366004613ebe565b611913565b3360009081527fb7db2dd08fcb62d0c9e08c51941cae53c267786a0b75803fb7960902fc8ef97d602052604090205460ff166108675760405162461bcd60e51b815260206004820152600a60248201527f6f6e6c792061646d696e0000000000000000000000000000000000000000000060448201526064015b60405180910390fd5b60008151116108b85760405162461bcd60e51b815260206004820152600e60248201527f494e56414c49445f4c454e475448000000000000000000000000000000000000604482015260640161085e565b60005b81518110156109665760008282815181106108d8576108d8613fee565b6020908102919091018101516000818152918290526040822080547fffffffffffffffffffffffff000000000000000000000000000000000000000016815590925090610928600183018261359d565b50506040518181527f5b9dc40648bfe840de770df10081e79f179534343348da4087dea77ba584d1819060200160405180910390a1506001016108bb565b5050565b600061097582611ae0565b92915050565b61099f60405180606001604052806060815260200160608152602001606081525090565b60008281527fc17b4b708b6f44255c20913a9d97a05300b670342c71fe5ae5b617bd4db5500060208190526040918290208251606081019093528054919291829082906109eb9061401d565b80601f0160208091040260200160405190810160405280929190818152602001828054610a179061401d565b8015610a645780601f10610a3957610100808354040283529160200191610a64565b820191906000526020600020905b815481529060010190602001808311610a4757829003601f168201915b50505050508152602001600182018054610a7d9061401d565b80601f0160208091040260200160405190810160405280929190818152602001828054610aa99061401d565b8015610af65780601f10610acb57610100808354040283529160200191610af6565b820191906000526020600020905b815481529060010190602001808311610ad957829003601f168201915b50505050508152602001600282018054610b0f9061401d565b80601f0160208091040260200160405190810160405280929190818152602001828054610b3b9061401d565b8015610b885780601f10610b5d57610100808354040283529160200191610b88565b820191906000526020600020905b815481529060010190602001808311610b6b57829003601f168201915b505050505081525050915050919050565b60008281527f02dd7bc7dec4dceedda775e58dd541e08a116c6c53815c0bd028192f7b6268006020526040902060010154610bd381611b36565b610bdd8383611b40565b50505050565b6001600160a01b0381163314610c25576040517f6697b23200000000000000000000000000000000000000000000000000000000815260040160405180910390fd5b610c2f8282611b4c565b505050565b816000610c4082611bb4565b6001600160a01b03808216600090815260016020526040902054919250163314610cac5760405162461bcd60e51b815260206004820152601560248201527f4f4e4c595f474154455741595f4f50455241544f520000000000000000000000604482015260640161085e565b6000835111610cfd5760405162461bcd60e51b815260206004820152601060248201527f454d5054595f5245515f434841494e5300000000000000000000000000000000604482015260640161085e565b60005b8351811015610d3457610d2c85858381518110610d1f57610d1f613fee565b6020026020010151611bfd565b600101610d00565b5050505050565b610d43611dbd565b610d4c82611e8f565b6109668282611f0d565b6000610d6061200e565b507f360894a13ba1a3210667c828492db98dca3e2076cc3735a920a3ca505d382bbc90565b610db5896040518060a001604052808b81526020018a815260200189815260200188815260200187815250612070565b50610dc083836122d8565b610df57f00000000000000000000000000000000000000000000000000000000000000006001600160a01b031633308461231c565b6000610e0089611bb4565b6001600160a01b038082166000908152600160205260409020549192501615610e6b5760405162461bcd60e51b815260206004820152601660248201527f474154455741595f414c52454144595f45584953545300000000000000000000604482015260640161085e565b60005b8451811015610f105760006001600160a01b0316600080878481518110610e9757610e97613fee565b6020908102919091018101518252810191909152604001600020546001600160a01b031603610f085760405162461bcd60e51b815260206004820152601160248201527f554e535550504f525445445f434841494e000000000000000000000000000000604482015260640161085e565b600101610e6e565b506040518060a00160405280610f233390565b6001600160a01b0390811682526020808301889052604080840187905260006060850181905260016080909501859052868416815284835220845181547fffffffffffffffffffffffff00000000000000000000000000000000000000001693169290921782558381015180519293610fa4939085019291909101906135d7565b506040820151600282015560608201516003820155608090910151600490910180547fffffffffffffffffffffffffffffffffffffffffffffffffffffffffffffff0016911515919091179055336001600160a01b0316816001600160a01b03167f1586eae4013456779cf6b481c0cc4c5eba08765933b33ad4109e869b1505dcc3866040516110349190614070565b60405180910390a350505050505050505050565b60006110548383612070565b9392505050565b60008281527fc1f6fe24621ce81ec5827caf0253cadb74709b061630e6b55e823717059320006020819052604082206110949084612398565b949350505050565b8160006110a882611bb4565b6001600160a01b038082166000908152600160205260409020549192501633146111145760405162461bcd60e51b815260206004820152601560248201527f4f4e4c595f474154455741595f4f50455241544f520000000000000000000000604482015260640161085e565b6111497f00000000000000000000000000000000000000000000000000000000000000006001600160a01b031633308661231c565b600061115485611bb4565b6001600160a01b0381166000908152600160205260408120600201805492935086929091906111849084906140e3565b90915550506001600160a01b038116600081815260016020908152604091829020600201548251888152918201527f7937866df5a212734c901da8bbe229fc15d215eefcae93db8f3c078ec7c96cdb91015b60405180910390a25050505050565b6111ee816123a4565b50565b60008181527fc1f6fe24621ce81ec5827caf0253cadb74709b061630e6b55e8237170593200060208190526040822061105490612489565b81600061123582611bb4565b6001600160a01b038082166000908152600160205260409020549192501633146112a15760405162461bcd60e51b815260206004820152601560248201527f4f4e4c595f474154455741595f4f50455241544f520000000000000000000000604482015260640161085e565b6112d57f00000000000000000000000000000000000000000000000000000000000000006001600160a01b03163385612493565b60006112e085611bb4565b6001600160a01b0381166000908152600160205260408120600201805492935086929091906113109084906140f6565b90915550506001600160a01b038116600081815260016020908152604091829020600201548251888152918201527f119c3b6037d5e5f7261862a1a205a0c5577c7df134fcd0d2663f2c65cf02679c91016111d6565b60008281527f02dd7bc7dec4dceedda775e58dd541e08a116c6c53815c0bd028192f7b62680060205260409020600101546113a081611b36565b610bdd8383611b4c565b8060006113b682611bb4565b6001600160a01b038082166000908152600160205260409020549192501633146114225760405162461bcd60e51b815260206004820152601560248201527f4f4e4c595f474154455741595f4f50455241544f520000000000000000000000604482015260640161085e565b600061142d84611bb4565b6001600160a01b03808216600090815260016020526040902054919250166114975760405162461bcd60e51b815260206004820152601360248201527f494e56414c49445f454e434c4156455f4b455900000000000000000000000000604482015260640161085e565b6001600160a01b0381166000908152600160208190526040822080547fffffffffffffffffffffffff000000000000000000000000000000000000000016815591906114e590830182613622565b50600060028201819055600382015560040180547fffffffffffffffffffffffffffffffffffffffffffffffffffffffffffffff00169055611526846124c4565b506040516001600160a01b038216907f962f6082057b3b4fb251973bd737c7707bf1733cf85a0b7c86fd6c3caca260c590600090a250505050565b81600061156d82611bb4565b6001600160a01b038082166000908152600160205260409020549192501633146115d95760405162461bcd60e51b815260206004820152601560248201527f4f4e4c595f474154455741595f4f50455241544f520000000000000000000000604482015260640161085e565b600083511161162a5760405162461bcd60e51b815260206004820152601060248201527f454d5054595f5245515f434841494e5300000000000000000000000000000000604482015260640161085e565b60005b8351811015610d34576116598585838151811061164c5761164c613fee565b602002602001015161252f565b60010161162d565b600060208190529081526040902080546001820180546001600160a01b03909216929161168d9061401d565b80601f01602080910402602001604051908101604052809291908181526020018280546116b99061401d565b80156117065780601f106116db57610100808354040283529160200191611706565b820191906000526020600020905b8154815290600101906020018083116116e957829003601f168201915b5050505050905082565b7ff0c57e16840df040f15088dc2f81fe391c3923bec73e23a9662efc9c229c6a00805468010000000000000000810460ff16159067ffffffffffffffff1660008115801561175b5750825b905060008267ffffffffffffffff1660011480156117785750303b155b905081158015611786575080155b156117bd576040517ff92ee8a900000000000000000000000000000000000000000000000000000000815260040160405180910390fd5b84547fffffffffffffffffffffffffffffffffffffffffffffffff0000000000000000166001178555831561181e5784547fffffffffffffffffffffffffffffffffffffffffffffff00ffffffffffffffff16680100000000000000001785555b6001600160a01b0387166118745760405162461bcd60e51b815260206004820152601260248201527f5a45524f5f414444524553535f41444d494e0000000000000000000000000000604482015260640161085e565b61187c6127a0565b6118846127a0565b61188c6127a0565b611895866127a8565b61189d6127a0565b6118a8600088611b40565b50831561190a5784547fffffffffffffffffffffffffffffffffffffffffffffff00ffffffffffffffff168555604051600181527fc7f505b2f371ae2175ee4913f4499e1f2633a7b5936321eed1cdaeb6115181d29060200160405180910390a15b50505050505050565b3360009081527fb7db2dd08fcb62d0c9e08c51941cae53c267786a0b75803fb7960902fc8ef97d602052604090205460ff166119915760405162461bcd60e51b815260206004820152600a60248201527f6f6e6c792061646d696e00000000000000000000000000000000000000000000604482015260640161085e565b600082511180156119a3575080518251145b6119ef5760405162461bcd60e51b815260206004820152600e60248201527f494e56414c49445f4c454e475448000000000000000000000000000000000000604482015260640161085e565b60005b8151811015610c2f576000828281518110611a0f57611a0f613fee565b602002602001015190506000848381518110611a2d57611a2d613fee565b602090810291909101810151600081815280835260409020845181547fffffffffffffffffffffffff0000000000000000000000000000000000000000166001600160a01b03909116178155918401519092508391906001820190611a929082614159565b5050825160208401516040517f67dd8b8576f1455907cc1b4aa4623860ed1036d8ead856785f3d51bef810fa639350611ace9285929091614255565b60405180910390a150506001016119f2565b60007fffffffff0000000000000000000000000000000000000000000000000000000082167f5a05180f0000000000000000000000000000000000000000000000000000000014806109755750610975826127e8565b6111ee813361287f565b6000611054838361290c565b600080611b598484612963565b9050611b6560006111f1565b6000036110545760405162461bcd60e51b815260206004820181905260248201527f41563a52522d416c6c2061646d696e732063616e742062652072656d6f766564604482015260640161085e565b60008151604014611bf1576040517fbd9c80c100000000000000000000000000000000000000000000000000000000815260040160405180910390fd5b50805160209091012090565b6000818152602081905260409020546001600160a01b0316611c615760405162461bcd60e51b815260206004820152601160248201527f554e535550504f525445445f434841494e000000000000000000000000000000604482015260640161085e565b6000611c6c83611bb4565b9050600060016000836001600160a01b03166001600160a01b03168152602001908152602001600020600101805480602002602001604051908101604052809291908181526020018280548015611ce257602002820191906000526020600020905b815481526020019060010190808311611cce575b5050505050905060005b8151811015611d525783828281518110611d0857611d08613fee565b602002602001015103611d4a576040517f625fc3a60000000000000000000000000000000000000000000000000000000081526004810185905260240161085e565b600101611cec565b506001600160a01b03821660008181526001602081815260408084208301805493840181558452922001859055517fbae667a7ed97b338409582b4ff8ba4ae0c912d2a80fbd7153d9f5f12e136de7790611daf9086815260200190565b60405180910390a250505050565b306001600160a01b037f0000000000000000000000000000000000000000000000000000000000000000161480611e5657507f00000000000000000000000000000000000000000000000000000000000000006001600160a01b0316611e4a7f360894a13ba1a3210667c828492db98dca3e2076cc3735a920a3ca505d382bbc546001600160a01b031690565b6001600160a01b031614155b15611e8d576040517fe07c8dba00000000000000000000000000000000000000000000000000000000815260040160405180910390fd5b565b3360009081527fb7db2dd08fcb62d0c9e08c51941cae53c267786a0b75803fb7960902fc8ef97d602052604090205460ff166111ee5760405162461bcd60e51b815260206004820152600a60248201527f6f6e6c792061646d696e00000000000000000000000000000000000000000000604482015260640161085e565b816001600160a01b03166352d1902d6040518163ffffffff1660e01b8152600401602060405180830381865afa925050508015611f67575060408051601f3d908101601f19168201909252611f649181019061427d565b60015b611fa8576040517f4c9c8ce30000000000000000000000000000000000000000000000000000000081526001600160a01b038316600482015260240161085e565b7f360894a13ba1a3210667c828492db98dca3e2076cc3735a920a3ca505d382bbc8114612004576040517faa1d49a40000000000000000000000000000000000000000000000000000000081526004810182905260240161085e565b610c2f83836129b1565b306001600160a01b037f00000000000000000000000000000000000000000000000000000000000000001614611e8d576040517fe07c8dba00000000000000000000000000000000000000000000000000000000815260040160405180910390fd5b6000807fc17b4b708b6f44255c20913a9d97a05300b670342c71fe5ae5b617bd4db55000905060008360200151846040015185606001516040516020016120b993929190614296565b60408051601f19818403018152918152815160209283012060008181529285905291208054919250906120eb9061401d565b9050600003612126576040517f38c4ac1600000000000000000000000000000000000000000000000000000000815260040160405180910390fd5b6121507f0000000000000000000000000000000000000000000000000000000000000000426140f6565b6103e8856080015161216291906142d9565b11612199576040517f19605e0a00000000000000000000000000000000000000000000000000000000815260040160405180910390fd5b6040517feac708a30000000000000000000000000000000000000000000000000000000081526001600160a01b037f0000000000000000000000000000000000000000000000000000000000000000169063eac708a3906122009088908890600401614314565b60006040518083038186803b15801561221857600080fd5b505afa15801561222c573d6000803e3d6000fd5b50505050600061223f8560000151611bb4565b6001600160a01b03811660009081526001850160205260409020549091501561226e5760009350505050610975565b6001600160a01b03811660009081526001840160205260409081902083905585519051839161229c916143a8565b604051908190038120907ff4837f1a66a1e5fbde2c40d0f6eff75183139e79b0fc1eaab280a3a0be38e7b190600090a350600195945050505050565b6000826040516020016122eb91906143c4565b60408051601f198184030181529190528051602090910120905060006123118284612a07565b9050610bdd816123a4565b6040516001600160a01b038481166024830152838116604483015260648201839052610bdd9186918216906323b872dd906084015b604051602081830303815290604052915060e01b6020820180517bffffffffffffffffffffffffffffffffffffffffffffffffffffffff8381831617835250505050612a31565b60006110548383612aad565b6001600160a01b03811660009081527fc17b4b708b6f44255c20913a9d97a05300b670342c71fe5ae5b617bd4db5500160205260409020547fc17b4b708b6f44255c20913a9d97a05300b670342c71fe5ae5b617bd4db550009080612435576040517f3dd8ca9500000000000000000000000000000000000000000000000000000000815260040160405180910390fd5b6000818152602083905260409020805461244e9061401d565b9050600003610c2f576040517f38c4ac1600000000000000000000000000000000000000000000000000000000815260040160405180910390fd5b6000610975825490565b6040516001600160a01b03838116602483015260448201839052610c2f91859182169063a9059cbb90606401612351565b6000806124d083611bb4565b90506124db81612ad7565b6124e85750600092915050565b826040516124f691906143a8565b604051908190038120907ff910fd78b98e9574e8b6f0e42bc3a996a6aba3776ec20b9d85515bd74a6c8fe990600090a250600192915050565b600061253a83611bb4565b9050600060016000836001600160a01b03166001600160a01b031681526020019081526020016000206001018054806020026020016040519081016040528092919081815260200182805480156125b057602002820191906000526020600020905b81548152602001906001019080831161259c575b505083519394505050811515905061260a5760405162461bcd60e51b815260206004820152600f60248201527f454d5054595f434841494e4c4953540000000000000000000000000000000000604482015260640161085e565b60005b8181101561263e578483828151811061262857612628613fee565b6020026020010151031561263e5760010161260d565b81811461267a576040517f4a7f43fa0000000000000000000000000000000000000000000000000000000081526004810186905260240161085e565b6126856001836140f6565b8114612714576001600160a01b03841660009081526001602081905260409091208101906126b390846140f6565b815481106126c3576126c3613fee565b906000526020600020015460016000866001600160a01b03166001600160a01b03168152602001908152602001600020600101828154811061270757612707613fee565b6000918252602090912001555b6001600160a01b03841660009081526001602081905260409091200180548061273f5761273f6143fa565b60019003818190600052602060002001600090559055836001600160a01b03167f3cfa750f6651a5d0226cb438c747adef8f00c35cce0a6951071f99aac90cc8cc8660405161279091815260200190565b60405180910390a2505050505050565b611e8d612b8a565b6127b0612b8a565b60005b8151811015610966576127de8282815181106127d1576127d1613fee565b6020026020010151612bf1565b50506001016127b3565b60007fffffffff0000000000000000000000000000000000000000000000000000000082167f7965db0b00000000000000000000000000000000000000000000000000000000148061097557507f01ffc9a7000000000000000000000000000000000000000000000000000000007fffffffff00000000000000000000000000000000000000000000000000000000831614610975565b60008281527f02dd7bc7dec4dceedda775e58dd541e08a116c6c53815c0bd028192f7b626800602090815260408083206001600160a01b038516845290915290205460ff16610966576040517fe2517d3f0000000000000000000000000000000000000000000000000000000081526001600160a01b03821660048201526024810183905260440161085e565b60007fc1f6fe24621ce81ec5827caf0253cadb74709b061630e6b55e823717059320008161293a8585612d99565b9050801561109457600085815260208390526040902061295a9085612e86565b50949350505050565b60007fc1f6fe24621ce81ec5827caf0253cadb74709b061630e6b55e82371705932000816129918585612e9b565b9050801561109457600085815260208390526040902061295a9085612f5f565b6129ba82612f74565b6040516001600160a01b038316907fbc7cd75a20ee27fd9adebab32041f755214dbc6bffa90cc0225b39da2e5c2d3b90600090a28051156129ff57610c2f828261301c565b610966613092565b600080600080612a1786866130ca565b925092509250612a278282613117565b5090949350505050565b6000612a466001600160a01b0384168361321b565b90508051600014158015612a6b575080806020019051810190612a699190614429565b155b15610c2f576040517f5274afe70000000000000000000000000000000000000000000000000000000081526001600160a01b038416600482015260240161085e565b6000826000018281548110612ac457612ac4613fee565b9060005260206000200154905092915050565b6001600160a01b03811660009081527fc17b4b708b6f44255c20913a9d97a05300b670342c71fe5ae5b617bd4db5500160205260408120547fc17b4b708b6f44255c20913a9d97a05300b670342c71fe5ae5b617bd4db5500090612b3e5750600092915050565b6001600160a01b0383166000818152600183016020526040808220829055517f43c77bddb18405fd78819d1d0a8a4e38d3ebc4c6fae9f7ec04ae0c0f7527b5079190a250600192915050565b7ff0c57e16840df040f15088dc2f81fe391c3923bec73e23a9662efc9c229c6a005468010000000000000000900460ff16611e8d576040517fd7e6bcf800000000000000000000000000000000000000000000000000000000815260040160405180910390fd5b80515160009081907fc17b4b708b6f44255c20913a9d97a05300b670342c71fe5ae5b617bd4db55000906030148015612c2f57508360200151516030145b8015612c4057508360400151516030145b612c76576040517f84c61bb600000000000000000000000000000000000000000000000000000000815260040160405180910390fd5b6000846000015185602001518660400151604051602001612c9993929190614296565b60408051601f1981840301815291815281516020928301206000818152928590529120805491925090612ccb9061401d565b159050612cdd57946000945092505050565b60408051606081018252865181526020808801518183015287830151828401526000848152908590529190912081518190612d189082614159565b5060208201516001820190612d2d9082614159565b5060408201516002820190612d429082614159565b50905050807f52b29bbdd97ab983419f50fa1590e5ab75e9942279e95e10a08607b06c23238b866000015187602001518860400151604051612d869392919061444b565b60405180910390a2946001945092505050565b60008281527f02dd7bc7dec4dceedda775e58dd541e08a116c6c53815c0bd028192f7b626800602081815260408084206001600160a01b038616855290915282205460ff16612e7c576000848152602082815260408083206001600160a01b0387168452909152902080547fffffffffffffffffffffffffffffffffffffffffffffffffffffffffffffff00166001179055612e323390565b6001600160a01b0316836001600160a01b0316857f2f8788117e7eff1d82e926ec794901d17c78024a50270940304540a733656f0d60405160405180910390a46001915050610975565b6000915050610975565b6000611054836001600160a01b038416613229565b60008281527f02dd7bc7dec4dceedda775e58dd541e08a116c6c53815c0bd028192f7b626800602081815260408084206001600160a01b038616855290915282205460ff1615612e7c576000848152602082815260408083206001600160a01b038716808552925280832080547fffffffffffffffffffffffffffffffffffffffffffffffffffffffffffffff0016905551339287917ff6391f5c32d9c69d2a47ea670b442974b53935d1edc7fd64eb21e047a839171b9190a46001915050610975565b6000611054836001600160a01b038416613278565b806001600160a01b03163b600003612fc3576040517f4c9c8ce30000000000000000000000000000000000000000000000000000000081526001600160a01b038216600482015260240161085e565b7f360894a13ba1a3210667c828492db98dca3e2076cc3735a920a3ca505d382bbc80547fffffffffffffffffffffffff0000000000000000000000000000000000000000166001600160a01b0392909216919091179055565b6060600080846001600160a01b03168460405161303991906143a8565b600060405180830381855af49150503d8060008114613074576040519150601f19603f3d011682016040523d82523d6000602084013e613079565b606091505b5091509150613089858383613361565b95945050505050565b3415611e8d576040517fb398979f00000000000000000000000000000000000000000000000000000000815260040160405180910390fd5b600080600083516041036131045760208401516040850151606086015160001a6130f6888285856133d6565b955095509550505050613110565b50508151600091506002905b9250925092565b600082600381111561312b5761312b614484565b03613134575050565b600182600381111561314857613148614484565b0361317f576040517ff645eedf00000000000000000000000000000000000000000000000000000000815260040160405180910390fd5b600282600381111561319357613193614484565b036131cd576040517ffce698f70000000000000000000000000000000000000000000000000000000081526004810182905260240161085e565b60038260038111156131e1576131e1614484565b03610966576040517fd78bce0c0000000000000000000000000000000000000000000000000000000081526004810182905260240161085e565b6060611054838360006134a5565b600081815260018301602052604081205461327057508154600181810184556000848152602080822090930184905584548482528286019093526040902091909155610975565b506000610975565b60008181526001830160205260408120548015612e7c57600061329c6001836140f6565b85549091506000906132b0906001906140f6565b90508082146133155760008660000182815481106132d0576132d0613fee565b90600052602060002001549050808760000184815481106132f3576132f3613fee565b6000918252602080832090910192909255918252600188019052604090208390555b8554869080613326576133266143fa565b600190038181906000526020600020016000905590558560010160008681526020019081526020016000206000905560019350505050610975565b606082613376576133718261355b565b611054565b815115801561338d57506001600160a01b0384163b155b156133cf576040517f9996b3150000000000000000000000000000000000000000000000000000000081526001600160a01b038516600482015260240161085e565b5092915050565b600080807f7fffffffffffffffffffffffffffffff5d576e7357a4501ddfe92f46681b20a0841115613411575060009150600390508261349b565b604080516000808252602082018084528a905260ff891692820192909252606081018790526080810186905260019060a0016020604051602081039080840390855afa158015613465573d6000803e3d6000fd5b5050604051601f1901519150506001600160a01b0381166134915750600092506001915082905061349b565b9250600091508190505b9450945094915050565b6060814710156134e3576040517fcd78605900000000000000000000000000000000000000000000000000000000815230600482015260240161085e565b600080856001600160a01b031684866040516134ff91906143a8565b60006040518083038185875af1925050503d806000811461353c576040519150601f19603f3d011682016040523d82523d6000602084013e613541565b606091505b5091509150613551868383613361565b9695505050505050565b80511561356b5780518082602001fd5b6040517f1425ea4200000000000000000000000000000000000000000000000000000000815260040160405180910390fd5b5080546135a99061401d565b6000825580601f106135b9575050565b601f0160209004906000526020600020908101906111ee919061363c565b828054828255906000526020600020908101928215613612579160200282015b828111156136125782518255916020019190600101906135f7565b5061361e92915061363c565b5090565b50805460008255906000526020600020908101906111ee91905b5b8082111561361e576000815560010161363d565b7f4e487b7100000000000000000000000000000000000000000000000000000000600052604160045260246000fd5b60405160a0810167ffffffffffffffff811182821017156136a3576136a3613651565b60405290565b6040516060810167ffffffffffffffff811182821017156136a3576136a3613651565b6040805190810167ffffffffffffffff811182821017156136a3576136a3613651565b604051601f8201601f1916810167ffffffffffffffff8111828210171561371857613718613651565b604052919050565b600067ffffffffffffffff82111561373a5761373a613651565b5060051b60200190565b600082601f83011261375557600080fd5b8135602061376a61376583613720565b6136ef565b8083825260208201915060208460051b87010193508684111561378c57600080fd5b602086015b848110156137a85780358352918301918301613791565b509695505050505050565b6000602082840312156137c557600080fd5b813567ffffffffffffffff8111156137dc57600080fd5b61109484828501613744565b80356001600160a01b03811681146137ff57600080fd5b919050565b60006020828403121561381657600080fd5b611054826137e8565b60006020828403121561383157600080fd5b81357fffffffff000000000000000000000000000000000000000000000000000000008116811461105457600080fd5b60006020828403121561387357600080fd5b5035919050565b60005b8381101561389557818101518382015260200161387d565b50506000910152565b600081518084526138b681602086016020860161387a565b601f01601f19169290920160200192915050565b6020815260008251606060208401526138e6608084018261389e565b90506020840151601f1980858403016040860152613904838361389e565b9250604086015191508085840301606086015250613089828261389e565b6000806040838503121561393557600080fd5b82359150613945602084016137e8565b90509250929050565b600067ffffffffffffffff83111561396857613968613651565b61397b6020601f19601f860116016136ef565b905082815283838301111561398f57600080fd5b828260208301376000602084830101529392505050565b600082601f8301126139b757600080fd5b6110548383356020850161394e565b600080604083850312156139d957600080fd5b823567ffffffffffffffff808211156139f157600080fd5b6139fd868387016139a6565b93506020850135915080821115613a1357600080fd5b50613a2085828601613744565b9150509250929050565b60008060408385031215613a3d57600080fd5b613a46836137e8565b9150602083013567ffffffffffffffff811115613a6257600080fd5b613a20858286016139a6565b60008060008060008060008060006101208a8c031215613a8d57600080fd5b893567ffffffffffffffff80821115613aa557600080fd5b613ab18d838e016139a6565b9a5060208c0135915080821115613ac757600080fd5b613ad38d838e016139a6565b995060408c0135915080821115613ae957600080fd5b613af58d838e016139a6565b985060608c0135915080821115613b0b57600080fd5b613b178d838e016139a6565b975060808c0135915080821115613b2d57600080fd5b613b398d838e016139a6565b965060a08c0135955060c08c0135915080821115613b5657600080fd5b613b628d838e01613744565b945060e08c0135915080821115613b7857600080fd5b50613b858c828d016139a6565b9250506101008a013590509295985092959850929598565b60008060408385031215613bb057600080fd5b50508035926020909101359150565b60008060408385031215613bd257600080fd5b823567ffffffffffffffff80821115613bea57600080fd5b613bf6868387016139a6565b93506020850135915080821115613c0c57600080fd5b9084019060a08287031215613c2057600080fd5b613c28613680565b823582811115613c3757600080fd5b613c43888286016139a6565b825250602083013582811115613c5857600080fd5b613c64888286016139a6565b602083015250604083013582811115613c7c57600080fd5b613c88888286016139a6565b604083015250606083013582811115613ca057600080fd5b613cac888286016139a6565b606083015250608083013560808201528093505050509250929050565b60008060408385031215613cdc57600080fd5b823567ffffffffffffffff811115613cf357600080fd5b613cff858286016139a6565b95602094909401359450505050565b602081526000611054602083018461389e565b600060208284031215613d3357600080fd5b813567ffffffffffffffff811115613d4a57600080fd5b611094848285016139a6565b6001600160a01b0383168152604060208201526000611094604083018461389e565b60008060408385031215613d8b57600080fd5b613d94836137e8565b915060208084013567ffffffffffffffff80821115613db257600080fd5b818601915086601f830112613dc657600080fd5b8135613dd461376582613720565b81815260059190911b83018401908481019089831115613df357600080fd5b8585015b83811015613ead57803585811115613e0f5760008081fd5b86016060818d03601f1901811315613e275760008081fd5b613e2f6136a9565b8983013588811115613e415760008081fd5b613e4f8f8c838701016139a6565b825250604083013588811115613e655760008081fd5b613e738f8c838701016139a6565b828c015250908201359087821115613e8b5760008081fd5b613e998e8b848601016139a6565b604082015285525050918601918601613df7565b508096505050505050509250929050565b6000806040808486031215613ed257600080fd5b833567ffffffffffffffff80821115613eea57600080fd5b613ef687838801613744565b9450602091508186013581811115613f0d57600080fd5b8601601f81018813613f1e57600080fd5b8035613f2c61376582613720565b81815260059190911b8201840190848101908a831115613f4b57600080fd5b8584015b83811015613fdc57803586811115613f675760008081fd5b8501808d03601f1901891315613f7d5760008081fd5b613f856136cc565b613f908983016137e8565b81528982013588811115613fa45760008081fd5b8083019250508d603f830112613fba5760008081fd5b613fca8e8a8401358c850161394e565b818a0152845250918601918601613f4f565b50809750505050505050509250929050565b7f4e487b7100000000000000000000000000000000000000000000000000000000600052603260045260246000fd5b600181811c9082168061403157607f821691505b60208210810361406a577f4e487b7100000000000000000000000000000000000000000000000000000000600052602260045260246000fd5b50919050565b6020808252825182820181905260009190848201906040850190845b818110156140a85783518352928401929184019160010161408c565b50909695505050505050565b7f4e487b7100000000000000000000000000000000000000000000000000000000600052601160045260246000fd5b80820180821115610975576109756140b4565b81810381811115610975576109756140b4565b601f821115610c2f576000816000526020600020601f850160051c810160208610156141325750805b601f850160051c820191505b818110156141515782815560010161413e565b505050505050565b815167ffffffffffffffff81111561417357614173613651565b61418781614181845461401d565b84614109565b602080601f8311600181146141da57600084156141a45750858301515b7fffffffffffffffffffffffffffffffffffffffffffffffffffffffffffffffff600386901b1c1916600185901b178555614151565b600085815260208120601f198616915b82811015614209578886015182559484019460019091019084016141ea565b508582101561424557878501517fffffffffffffffffffffffffffffffffffffffffffffffffffffffffffffffff600388901b60f8161c191681555b5050505050600190811b01905550565b8381526001600160a01b0383166020820152606060408201526000613089606083018461389e565b60006020828403121561428f57600080fd5b5051919050565b600084516142a881846020890161387a565b8451908301906142bc81836020890161387a565b84519101906142cf81836020880161387a565b0195945050505050565b60008261430f577f4e487b7100000000000000000000000000000000000000000000000000000000600052601260045260246000fd5b500490565b604081526000614327604083018561389e565b8281036020840152835160a0825261434260a083018261389e565b90506020850151828203602084015261435b828261389e565b91505060408501518282036040840152614375828261389e565b9150506060850151828203606084015261438f828261389e565b9150506080850151608083015280925050509392505050565b600082516143ba81846020870161387a565b9190910192915050565b815160009082906020808601845b838110156143ee578151855293820193908201906001016143d2565b50929695505050505050565b7f4e487b7100000000000000000000000000000000000000000000000000000000600052603160045260246000fd5b60006020828403121561443b57600080fd5b8151801515811461105457600080fd5b60608152600061445e606083018661389e565b8281036020840152614470818661389e565b90508281036040840152613551818561389e565b7f4e487b7100000000000000000000000000000000000000000000000000000000600052602160045260246000fdfea26469706673582212201bb044f461ef5fac96d02cb2ba62bc8efd09a4033568ed348c4c91fd2783b80064736f6c63430008190033",
  "linkReferences": {},
  "deployedLinkReferences": {}
}