{
  "_format": "hh-sol-artifact-1",
  "contractName": "CommonChainContract",
  "sourceName": "contracts/serverless-v2/CommonChainContract.sol",
  "abi": [
    {
      "inputs": [
        {
          "internalType": "contract IAttestationVerifier",
          "name": "attestationVerifier",
          "type": "address"
        },
        {
          "internalType": "uint256",
          "name": "maxAge",
          "type": "uint256"
        }
      ],
      "stateMutability": "nonpayable",
      "type": "constructor"
    },
    {
      "anonymous": false,
      "inputs": [
        {
          "indexed": false,
          "internalType": "address",
          "name": "previousAdmin",
          "type": "address"
        },
        {
          "indexed": false,
          "internalType": "address",
          "name": "newAdmin",
          "type": "address"
        }
      ],
      "name": "AdminChanged",
      "type": "event"
    },
    {
      "anonymous": false,
      "inputs": [
        {
          "indexed": true,
          "internalType": "address",
          "name": "beacon",
          "type": "address"
        }
      ],
      "name": "BeaconUpgraded",
      "type": "event"
    },
    {
      "anonymous": false,
      "inputs": [
        {
          "indexed": false,
          "internalType": "bytes",
          "name": "enclavePubKey",
          "type": "bytes"
        },
        {
          "indexed": false,
          "internalType": "uint256",
          "name": "chainId",
          "type": "uint256"
        }
      ],
      "name": "ChainAdded",
      "type": "event"
    },
    {
      "anonymous": false,
      "inputs": [
        {
          "indexed": false,
          "internalType": "uint256",
          "name": "chainId",
          "type": "uint256"
        },
        {
          "indexed": false,
          "internalType": "address",
          "name": "contractAddress",
          "type": "address"
        },
        {
          "indexed": false,
          "internalType": "string",
          "name": "rpcUrl",
          "type": "string"
        }
      ],
      "name": "ChainAddedGlobal",
      "type": "event"
    },
    {
      "anonymous": false,
      "inputs": [
        {
          "indexed": false,
          "internalType": "bytes",
          "name": "enclavePubKey",
          "type": "bytes"
        },
        {
          "indexed": false,
          "internalType": "uint256",
          "name": "chainId",
          "type": "uint256"
        }
      ],
      "name": "ChainRemoved",
      "type": "event"
    },
    {
      "anonymous": false,
      "inputs": [
        {
          "indexed": false,
          "internalType": "uint256",
          "name": "chainId",
          "type": "uint256"
        }
      ],
      "name": "ChainRemovedGlobal",
      "type": "event"
    },
    {
      "anonymous": false,
      "inputs": [
        {
          "indexed": true,
          "internalType": "bytes32",
          "name": "imageId",
          "type": "bytes32"
        }
      ],
      "name": "EnclaveImageRevoked",
      "type": "event"
    },
    {
      "anonymous": false,
      "inputs": [
        {
          "indexed": true,
          "internalType": "bytes32",
          "name": "imageId",
          "type": "bytes32"
        },
        {
          "indexed": false,
          "internalType": "bytes",
          "name": "PCR0",
          "type": "bytes"
        },
        {
          "indexed": false,
          "internalType": "bytes",
          "name": "PCR1",
          "type": "bytes"
        },
        {
          "indexed": false,
          "internalType": "bytes",
          "name": "PCR2",
          "type": "bytes"
        }
      ],
      "name": "EnclaveImageWhitelisted",
      "type": "event"
    },
    {
      "anonymous": false,
      "inputs": [
        {
          "indexed": true,
          "internalType": "bytes",
          "name": "enclavePubKey",
          "type": "bytes"
        }
      ],
      "name": "EnclaveKeyRevoked",
      "type": "event"
    },
    {
      "anonymous": false,
      "inputs": [
        {
          "indexed": true,
          "internalType": "bytes",
          "name": "enclavePubKey",
          "type": "bytes"
        },
        {
          "indexed": true,
          "internalType": "bytes32",
          "name": "imageId",
          "type": "bytes32"
        }
      ],
      "name": "EnclaveKeyVerified",
      "type": "event"
    },
    {
      "anonymous": false,
      "inputs": [
        {
          "indexed": true,
          "internalType": "bytes",
          "name": "enclavePubKey",
          "type": "bytes"
        },
        {
          "indexed": true,
          "internalType": "bytes32",
          "name": "imageId",
          "type": "bytes32"
        }
      ],
      "name": "EnclaveKeyWhitelisted",
      "type": "event"
    },
    {
      "anonymous": false,
      "inputs": [
        {
          "indexed": false,
          "internalType": "bytes",
          "name": "enclavePubKey",
          "type": "bytes"
        }
      ],
      "name": "ExecutorDeregistered",
      "type": "event"
    },
    {
      "anonymous": false,
      "inputs": [
        {
          "indexed": false,
          "internalType": "bytes",
          "name": "enclavePubKey",
          "type": "bytes"
        },
        {
          "indexed": true,
          "internalType": "address",
          "name": "enclaveAddress",
          "type": "address"
        },
        {
          "indexed": true,
          "internalType": "address",
          "name": "operator",
          "type": "address"
        }
      ],
      "name": "ExecutorRegistered",
      "type": "event"
    },
    {
      "anonymous": false,
      "inputs": [
        {
          "indexed": false,
          "internalType": "bytes",
          "name": "enclavePubKey",
          "type": "bytes"
        },
        {
          "indexed": false,
          "internalType": "uint256",
          "name": "addedAmount",
          "type": "uint256"
        },
        {
          "indexed": false,
          "internalType": "uint256",
          "name": "totalAmount",
          "type": "uint256"
        }
      ],
      "name": "ExecutorStakeAdded",
      "type": "event"
    },
    {
      "anonymous": false,
      "inputs": [
        {
          "indexed": false,
          "internalType": "bytes",
          "name": "enclavePubKey",
          "type": "bytes"
        },
        {
          "indexed": false,
          "internalType": "uint256",
          "name": "removedAmount",
          "type": "uint256"
        },
        {
          "indexed": false,
          "internalType": "uint256",
          "name": "totalAmount",
          "type": "uint256"
        }
      ],
      "name": "ExecutorStakeRemoved",
      "type": "event"
    },
    {
      "anonymous": false,
      "inputs": [
        {
          "indexed": false,
          "internalType": "bytes",
          "name": "enclavePubKey",
          "type": "bytes"
        }
      ],
      "name": "GatewayDeregistered",
      "type": "event"
    },
    {
      "anonymous": false,
      "inputs": [
        {
          "indexed": false,
          "internalType": "uint256",
          "name": "jobId",
          "type": "uint256"
        },
        {
          "indexed": true,
          "internalType": "address",
          "name": "prevGatewayOperator",
          "type": "address"
        },
        {
          "indexed": true,
          "internalType": "address",
          "name": "newGatewayOperator",
          "type": "address"
        }
      ],
      "name": "GatewayReassigned",
      "type": "event"
    },
    {
      "anonymous": false,
      "inputs": [
        {
          "indexed": false,
          "internalType": "bytes",
          "name": "enclavePubKey",
          "type": "bytes"
        },
        {
          "indexed": true,
          "internalType": "address",
          "name": "enclaveAddress",
          "type": "address"
        },
        {
          "indexed": true,
          "internalType": "address",
          "name": "operator",
          "type": "address"
        }
      ],
      "name": "GatewayRegistered",
      "type": "event"
    },
    {
      "anonymous": false,
      "inputs": [
        {
          "indexed": false,
          "internalType": "bytes",
          "name": "enclavePubKey",
          "type": "bytes"
        },
        {
          "indexed": false,
          "internalType": "uint256",
          "name": "addedAmount",
          "type": "uint256"
        },
        {
          "indexed": false,
          "internalType": "uint256",
          "name": "totalAmount",
          "type": "uint256"
        }
      ],
      "name": "GatewayStakeAdded",
      "type": "event"
    },
    {
      "anonymous": false,
      "inputs": [
        {
          "indexed": false,
          "internalType": "bytes",
          "name": "enclavePubKey",
          "type": "bytes"
        },
        {
          "indexed": false,
          "internalType": "uint256",
          "name": "removedAmount",
          "type": "uint256"
        },
        {
          "indexed": false,
          "internalType": "uint256",
          "name": "totalAmount",
          "type": "uint256"
        }
      ],
      "name": "GatewayStakeRemoved",
      "type": "event"
    },
    {
      "anonymous": false,
      "inputs": [
        {
          "indexed": false,
          "internalType": "uint8",
          "name": "version",
          "type": "uint8"
        }
      ],
      "name": "Initialized",
      "type": "event"
    },
    {
      "anonymous": false,
      "inputs": [
        {
          "indexed": true,
          "internalType": "uint256",
          "name": "jobId",
          "type": "uint256"
        },
        {
          "indexed": false,
          "internalType": "uint256",
          "name": "reqChainId",
          "type": "uint256"
        },
        {
          "indexed": false,
          "internalType": "bytes32",
          "name": "codehash",
          "type": "bytes32"
        },
        {
          "indexed": false,
          "internalType": "bytes",
          "name": "codeInputs",
          "type": "bytes"
        },
        {
          "indexed": false,
          "internalType": "uint256",
          "name": "deadline",
          "type": "uint256"
        },
        {
          "indexed": false,
          "internalType": "address",
          "name": "jobOwner",
          "type": "address"
        },
        {
          "indexed": false,
          "internalType": "address",
          "name": "gatewayOperator",
          "type": "address"
        }
      ],
      "name": "JobRelayed",
      "type": "event"
    },
    {
      "anonymous": false,
      "inputs": [
        {
          "indexed": true,
          "internalType": "uint256",
          "name": "jobId",
          "type": "uint256"
        },
        {
          "indexed": false,
          "internalType": "bytes",
          "name": "output",
          "type": "bytes"
        },
        {
          "indexed": false,
          "internalType": "uint256",
          "name": "totalTime",
          "type": "uint256"
        },
        {
          "indexed": false,
          "internalType": "uint256",
          "name": "errorCode",
          "type": "uint256"
        },
        {
          "indexed": false,
          "internalType": "uint8",
          "name": "outputCount",
          "type": "uint8"
        }
      ],
      "name": "JobResponded",
      "type": "event"
    },
    {
      "anonymous": false,
      "inputs": [
        {
          "indexed": true,
          "internalType": "bytes32",
          "name": "role",
          "type": "bytes32"
        },
        {
          "indexed": true,
          "internalType": "bytes32",
          "name": "previousAdminRole",
          "type": "bytes32"
        },
        {
          "indexed": true,
          "internalType": "bytes32",
          "name": "newAdminRole",
          "type": "bytes32"
        }
      ],
      "name": "RoleAdminChanged",
      "type": "event"
    },
    {
      "anonymous": false,
      "inputs": [
        {
          "indexed": true,
          "internalType": "bytes32",
          "name": "role",
          "type": "bytes32"
        },
        {
          "indexed": true,
          "internalType": "address",
          "name": "account",
          "type": "address"
        },
        {
          "indexed": true,
          "internalType": "address",
          "name": "sender",
          "type": "address"
        }
      ],
      "name": "RoleGranted",
      "type": "event"
    },
    {
      "anonymous": false,
      "inputs": [
        {
          "indexed": true,
          "internalType": "bytes32",
          "name": "role",
          "type": "bytes32"
        },
        {
          "indexed": true,
          "internalType": "address",
          "name": "account",
          "type": "address"
        },
        {
          "indexed": true,
          "internalType": "address",
          "name": "sender",
          "type": "address"
        }
      ],
      "name": "RoleRevoked",
      "type": "event"
    },
    {
      "anonymous": false,
      "inputs": [
        {
          "indexed": false,
          "internalType": "uint256",
          "name": "jobId",
          "type": "uint256"
        },
        {
          "indexed": false,
          "internalType": "address[]",
          "name": "executors",
          "type": "address[]"
        }
      ],
      "name": "SlashedOnExecutionTimeout",
      "type": "event"
    },
    {
      "anonymous": false,
      "inputs": [
        {
          "indexed": true,
          "internalType": "address",
          "name": "implementation",
          "type": "address"
        }
      ],
      "name": "Upgraded",
      "type": "event"
    },
    {
      "inputs": [],
      "name": "ATTESTATION_MAX_AGE",
      "outputs": [
        {
          "internalType": "uint256",
          "name": "",
          "type": "uint256"
        }
      ],
      "stateMutability": "view",
      "type": "function"
    },
    {
      "inputs": [],
      "name": "ATTESTATION_VERIFIER",
      "outputs": [
        {
          "internalType": "contract IAttestationVerifier",
          "name": "",
          "type": "address"
        }
      ],
      "stateMutability": "view",
      "type": "function"
    },
    {
      "inputs": [],
      "name": "DEFAULT_ADMIN_ROLE",
      "outputs": [
        {
          "internalType": "bytes32",
          "name": "",
          "type": "bytes32"
        }
      ],
      "stateMutability": "view",
      "type": "function"
    },
    {
      "inputs": [
        {
          "internalType": "address",
          "name": "_admin",
          "type": "address"
        },
        {
          "components": [
            {
              "internalType": "bytes",
              "name": "PCR0",
              "type": "bytes"
            },
            {
              "internalType": "bytes",
              "name": "PCR1",
              "type": "bytes"
            },
            {
              "internalType": "bytes",
              "name": "PCR2",
              "type": "bytes"
            }
          ],
          "internalType": "struct AttestationAutherUpgradeable.EnclaveImage[]",
          "name": "_images",
          "type": "tuple[]"
        },
        {
          "internalType": "contract IERC20",
          "name": "_token",
          "type": "address"
        },
        {
          "internalType": "uint256",
          "name": "_executionBufferTime",
          "type": "uint256"
        },
        {
          "internalType": "uint256",
          "name": "_noOfNodesToSelect",
          "type": "uint256"
        }
      ],
      "name": "__CommonChainContract_init",
      "outputs": [],
      "stateMutability": "nonpayable",
      "type": "function"
    },
    {
      "inputs": [
        {
          "internalType": "bytes",
          "name": "_enclavePubKey",
          "type": "bytes"
        },
        {
          "internalType": "uint256",
          "name": "_chainId",
          "type": "uint256"
        }
      ],
      "name": "addChain",
      "outputs": [],
      "stateMutability": "nonpayable",
      "type": "function"
    },
    {
      "inputs": [
        {
          "internalType": "uint256[]",
          "name": "_chainIds",
          "type": "uint256[]"
        },
        {
          "components": [
            {
              "internalType": "address",
              "name": "contractAddress",
              "type": "address"
            },
            {
              "internalType": "string",
              "name": "rpcUrl",
              "type": "string"
            }
          ],
          "internalType": "struct CommonChainContract.RequestChain[]",
          "name": "_requestChains",
          "type": "tuple[]"
        }
      ],
      "name": "addChainGlobal",
      "outputs": [],
      "stateMutability": "nonpayable",
      "type": "function"
    },
    {
      "inputs": [
        {
          "internalType": "bytes",
          "name": "_enclavePubKey",
          "type": "bytes"
        },
        {
          "internalType": "uint256[]",
          "name": "_chainIds",
          "type": "uint256[]"
        }
      ],
      "name": "addChains",
      "outputs": [],
      "stateMutability": "nonpayable",
      "type": "function"
    },
    {
      "inputs": [
        {
          "internalType": "bytes",
          "name": "_enclavePubKey",
          "type": "bytes"
        },
        {
          "internalType": "uint256",
          "name": "_amount",
          "type": "uint256"
        }
      ],
      "name": "addExecutorStake",
      "outputs": [],
      "stateMutability": "nonpayable",
      "type": "function"
    },
    {
      "inputs": [
        {
          "internalType": "bytes",
          "name": "_enclavePubKey",
          "type": "bytes"
        },
        {
          "internalType": "uint256",
          "name": "_amount",
          "type": "uint256"
        }
      ],
      "name": "addGatewayStake",
      "outputs": [],
      "stateMutability": "nonpayable",
      "type": "function"
    },
    {
      "inputs": [
        {
          "internalType": "address",
          "name": "",
          "type": "address"
        }
      ],
      "name": "addressToIndexMap",
      "outputs": [
        {
          "internalType": "uint256",
          "name": "",
          "type": "uint256"
        }
      ],
      "stateMutability": "view",
      "type": "function"
    },
    {
      "inputs": [
        {
          "internalType": "bytes",
          "name": "_enclavePubKey",
          "type": "bytes"
        }
      ],
      "name": "deregisterExecutor",
      "outputs": [],
      "stateMutability": "nonpayable",
      "type": "function"
    },
    {
      "inputs": [
        {
          "internalType": "bytes",
          "name": "_enclavePubKey",
          "type": "bytes"
        }
      ],
      "name": "deregisterGateway",
      "outputs": [],
      "stateMutability": "nonpayable",
      "type": "function"
    },
    {
      "inputs": [],
      "name": "executionBufferTime",
      "outputs": [
        {
          "internalType": "uint256",
          "name": "",
          "type": "uint256"
        }
      ],
      "stateMutability": "view",
      "type": "function"
    },
    {
      "inputs": [
        {
          "internalType": "address",
          "name": "",
          "type": "address"
        }
      ],
      "name": "executors",
      "outputs": [
        {
          "internalType": "address",
          "name": "operator",
          "type": "address"
        },
        {
          "internalType": "uint256",
          "name": "jobCapacity",
          "type": "uint256"
        },
        {
          "internalType": "uint256",
          "name": "activeJobs",
          "type": "uint256"
        },
        {
          "internalType": "uint256",
          "name": "stakeAmount",
          "type": "uint256"
        },
        {
          "internalType": "bool",
          "name": "status",
          "type": "bool"
        }
      ],
      "stateMutability": "view",
      "type": "function"
    },
    {
      "inputs": [
        {
          "internalType": "uint256",
          "name": "",
          "type": "uint256"
        }
      ],
      "name": "gatewayAddresses",
      "outputs": [
        {
          "internalType": "address",
          "name": "",
          "type": "address"
        }
      ],
      "stateMutability": "view",
      "type": "function"
    },
    {
      "inputs": [
        {
          "internalType": "address",
          "name": "",
          "type": "address"
        }
      ],
      "name": "gateways",
      "outputs": [
        {
          "internalType": "address",
          "name": "operator",
          "type": "address"
        },
        {
          "internalType": "uint256",
          "name": "stakeAmount",
          "type": "uint256"
        },
        {
          "internalType": "bool",
          "name": "status",
          "type": "bool"
        }
      ],
      "stateMutability": "view",
      "type": "function"
    },
    {
      "inputs": [],
      "name": "getAllGateways",
      "outputs": [
        {
          "components": [
            {
              "internalType": "address",
              "name": "operator",
              "type": "address"
            },
            {
              "internalType": "uint256[]",
              "name": "chainIds",
              "type": "uint256[]"
            },
            {
              "internalType": "uint256",
              "name": "stakeAmount",
              "type": "uint256"
            },
            {
              "internalType": "bool",
              "name": "status",
              "type": "bool"
            }
          ],
          "internalType": "struct CommonChainContract.Gateway[]",
          "name": "",
          "type": "tuple[]"
        }
      ],
      "stateMutability": "view",
      "type": "function"
    },
    {
      "inputs": [
        {
          "internalType": "bytes32",
          "name": "role",
          "type": "bytes32"
        }
      ],
      "name": "getRoleAdmin",
      "outputs": [
        {
          "internalType": "bytes32",
          "name": "",
          "type": "bytes32"
        }
      ],
      "stateMutability": "view",
      "type": "function"
    },
    {
      "inputs": [
        {
          "internalType": "bytes32",
          "name": "role",
          "type": "bytes32"
        },
        {
          "internalType": "uint256",
          "name": "index",
          "type": "uint256"
        }
      ],
      "name": "getRoleMember",
      "outputs": [
        {
          "internalType": "address",
          "name": "",
          "type": "address"
        }
      ],
      "stateMutability": "view",
      "type": "function"
    },
    {
      "inputs": [
        {
          "internalType": "bytes32",
          "name": "role",
          "type": "bytes32"
        }
      ],
      "name": "getRoleMemberCount",
      "outputs": [
        {
          "internalType": "uint256",
          "name": "",
          "type": "uint256"
        }
      ],
      "stateMutability": "view",
      "type": "function"
    },
    {
      "inputs": [
        {
          "internalType": "address",
          "name": "_key",
          "type": "address"
        }
      ],
      "name": "getVerifiedKey",
      "outputs": [
        {
          "internalType": "bytes32",
          "name": "",
          "type": "bytes32"
        }
      ],
      "stateMutability": "view",
      "type": "function"
    },
    {
      "inputs": [
        {
          "internalType": "bytes32",
          "name": "_imageId",
          "type": "bytes32"
        }
      ],
      "name": "getWhitelistedImage",
      "outputs": [
        {
          "components": [
            {
              "internalType": "bytes",
              "name": "PCR0",
              "type": "bytes"
            },
            {
              "internalType": "bytes",
              "name": "PCR1",
              "type": "bytes"
            },
            {
              "internalType": "bytes",
              "name": "PCR2",
              "type": "bytes"
            }
          ],
          "internalType": "struct AttestationAutherUpgradeable.EnclaveImage",
          "name": "",
          "type": "tuple"
        }
      ],
      "stateMutability": "view",
      "type": "function"
    },
    {
      "inputs": [
        {
          "internalType": "bytes32",
          "name": "role",
          "type": "bytes32"
        },
        {
          "internalType": "address",
          "name": "account",
          "type": "address"
        }
      ],
      "name": "grantRole",
      "outputs": [],
      "stateMutability": "nonpayable",
      "type": "function"
    },
    {
      "inputs": [
        {
          "internalType": "bytes32",
          "name": "role",
          "type": "bytes32"
        },
        {
          "internalType": "address",
          "name": "account",
          "type": "address"
        }
      ],
      "name": "hasRole",
      "outputs": [
        {
          "internalType": "bool",
          "name": "",
          "type": "bool"
        }
      ],
      "stateMutability": "view",
      "type": "function"
    },
    {
      "inputs": [
        {
          "internalType": "uint256",
          "name": "",
          "type": "uint256"
        }
      ],
      "name": "indexToAddressMap",
      "outputs": [
        {
          "internalType": "address",
          "name": "",
          "type": "address"
        }
      ],
      "stateMutability": "view",
      "type": "function"
    },
    {
      "inputs": [
        {
          "internalType": "uint256",
          "name": "_jobId",
          "type": "uint256"
        },
        {
          "internalType": "address",
          "name": "_executor",
          "type": "address"
        }
      ],
      "name": "isJobExecutor",
      "outputs": [
        {
          "internalType": "bool",
          "name": "",
          "type": "bool"
        }
      ],
      "stateMutability": "view",
      "type": "function"
    },
    {
      "inputs": [
        {
          "internalType": "uint256",
          "name": "",
          "type": "uint256"
        }
      ],
      "name": "jobs",
      "outputs": [
        {
          "internalType": "uint256",
          "name": "reqChainId",
          "type": "uint256"
        },
        {
          "internalType": "bytes32",
          "name": "codehash",
          "type": "bytes32"
        },
        {
          "internalType": "bytes",
          "name": "codeInputs",
          "type": "bytes"
        },
        {
          "internalType": "uint256",
          "name": "deadline",
          "type": "uint256"
        },
        {
          "internalType": "uint256",
          "name": "execStartTime",
          "type": "uint256"
        },
        {
          "internalType": "address",
          "name": "jobOwner",
          "type": "address"
        },
        {
          "internalType": "address",
          "name": "gatewayOperator",
          "type": "address"
        },
        {
          "internalType": "uint8",
          "name": "outputCount",
          "type": "uint8"
        }
      ],
      "stateMutability": "view",
      "type": "function"
    },
    {
      "inputs": [],
      "name": "noOfNodesToSelect",
      "outputs": [
        {
          "internalType": "uint256",
          "name": "",
          "type": "uint256"
        }
      ],
      "stateMutability": "view",
      "type": "function"
    },
    {
      "inputs": [
        {
          "internalType": "uint256",
          "name": "",
          "type": "uint256"
        }
      ],
      "name": "nodes",
      "outputs": [
        {
          "internalType": "uint64",
          "name": "value",
          "type": "uint64"
        },
        {
          "internalType": "uint64",
          "name": "leftSum",
          "type": "uint64"
        },
        {
          "internalType": "uint64",
          "name": "rightSum",
          "type": "uint64"
        }
      ],
      "stateMutability": "view",
      "type": "function"
    },
    {
      "inputs": [],
      "name": "nodesInTree",
      "outputs": [
        {
          "internalType": "uint256",
          "name": "",
          "type": "uint256"
        }
      ],
      "stateMutability": "view",
      "type": "function"
    },
    {
      "inputs": [],
      "name": "proxiableUUID",
      "outputs": [
        {
          "internalType": "bytes32",
          "name": "",
          "type": "bytes32"
        }
      ],
      "stateMutability": "view",
      "type": "function"
    },
    {
      "inputs": [
        {
          "internalType": "address",
          "name": "_gatewayOperatorOld",
          "type": "address"
        },
        {
          "internalType": "uint256",
          "name": "_jobId",
          "type": "uint256"
        },
        {
          "internalType": "bytes",
          "name": "_signature",
          "type": "bytes"
        }
      ],
      "name": "reassignGatewayRelay",
      "outputs": [],
      "stateMutability": "nonpayable",
      "type": "function"
    },
    {
      "inputs": [
        {
          "internalType": "bytes",
          "name": "_attestation",
          "type": "bytes"
        },
        {
          "internalType": "bytes",
          "name": "_enclavePubKey",
          "type": "bytes"
        },
        {
          "internalType": "bytes",
          "name": "_PCR0",
          "type": "bytes"
        },
        {
          "internalType": "bytes",
          "name": "_PCR1",
          "type": "bytes"
        },
        {
          "internalType": "bytes",
          "name": "_PCR2",
          "type": "bytes"
        },
        {
          "internalType": "uint256",
          "name": "_enclaveCPUs",
          "type": "uint256"
        },
        {
          "internalType": "uint256",
          "name": "_enclaveMemory",
          "type": "uint256"
        },
        {
          "internalType": "uint256",
          "name": "_timestampInMilliseconds",
          "type": "uint256"
        },
        {
          "internalType": "uint256",
          "name": "_jobCapacity",
          "type": "uint256"
        },
        {
          "internalType": "bytes",
          "name": "_signature",
          "type": "bytes"
        },
        {
          "internalType": "uint256",
          "name": "_stakeAmount",
          "type": "uint256"
        }
      ],
      "name": "registerExecutor",
      "outputs": [],
      "stateMutability": "nonpayable",
      "type": "function"
    },
    {
      "inputs": [
        {
          "internalType": "bytes",
          "name": "_attestation",
          "type": "bytes"
        },
        {
          "internalType": "bytes",
          "name": "_enclavePubKey",
          "type": "bytes"
        },
        {
          "internalType": "bytes",
          "name": "_PCR0",
          "type": "bytes"
        },
        {
          "internalType": "bytes",
          "name": "_PCR1",
          "type": "bytes"
        },
        {
          "internalType": "bytes",
          "name": "_PCR2",
          "type": "bytes"
        },
        {
          "internalType": "uint256",
          "name": "_enclaveCPUs",
          "type": "uint256"
        },
        {
          "internalType": "uint256",
          "name": "_enclaveMemory",
          "type": "uint256"
        },
        {
          "internalType": "uint256",
          "name": "_timestampInMilliseconds",
          "type": "uint256"
        },
        {
          "internalType": "uint256[]",
          "name": "_chainIds",
          "type": "uint256[]"
        },
        {
          "internalType": "bytes",
          "name": "_signature",
          "type": "bytes"
        },
        {
          "internalType": "uint256",
          "name": "_stakeAmount",
          "type": "uint256"
        }
      ],
      "name": "registerGateway",
      "outputs": [],
      "stateMutability": "nonpayable",
      "type": "function"
    },
    {
      "inputs": [
        {
          "internalType": "bytes",
          "name": "_signature",
          "type": "bytes"
        },
        {
          "internalType": "uint256",
          "name": "_jobId",
          "type": "uint256"
        },
        {
          "internalType": "uint256",
          "name": "_reqChainId",
          "type": "uint256"
        },
        {
          "internalType": "bytes32",
          "name": "_codehash",
          "type": "bytes32"
        },
        {
          "internalType": "bytes",
          "name": "_codeInputs",
          "type": "bytes"
        },
        {
          "internalType": "uint256",
          "name": "_deadline",
          "type": "uint256"
        },
        {
          "internalType": "address",
          "name": "_jobOwner",
          "type": "address"
        }
      ],
      "name": "relayJob",
      "outputs": [],
      "stateMutability": "nonpayable",
      "type": "function"
    },
    {
      "inputs": [
        {
          "internalType": "bytes",
          "name": "_enclavePubKey",
          "type": "bytes"
        },
        {
          "internalType": "uint256",
          "name": "_chainId",
          "type": "uint256"
        }
      ],
      "name": "removeChain",
      "outputs": [],
      "stateMutability": "nonpayable",
      "type": "function"
    },
    {
      "inputs": [
        {
          "internalType": "uint256[]",
          "name": "_chainIds",
          "type": "uint256[]"
        }
      ],
      "name": "removeChainGlobal",
      "outputs": [],
      "stateMutability": "nonpayable",
      "type": "function"
    },
    {
      "inputs": [
        {
          "internalType": "bytes",
          "name": "_enclavePubKey",
          "type": "bytes"
        },
        {
          "internalType": "uint256[]",
          "name": "_chainIds",
          "type": "uint256[]"
        }
      ],
      "name": "removeChains",
      "outputs": [],
      "stateMutability": "nonpayable",
      "type": "function"
    },
    {
      "inputs": [
        {
          "internalType": "bytes",
          "name": "_enclavePubKey",
          "type": "bytes"
        },
        {
          "internalType": "uint256",
          "name": "_amount",
          "type": "uint256"
        }
      ],
      "name": "removeExecutorStake",
      "outputs": [],
      "stateMutability": "nonpayable",
      "type": "function"
    },
    {
      "inputs": [
        {
          "internalType": "bytes",
          "name": "_enclavePubKey",
          "type": "bytes"
        },
        {
          "internalType": "uint256",
          "name": "_amount",
          "type": "uint256"
        }
      ],
      "name": "removeGatewayStake",
      "outputs": [],
      "stateMutability": "nonpayable",
      "type": "function"
    },
    {
      "inputs": [
        {
          "internalType": "bytes32",
          "name": "role",
          "type": "bytes32"
        },
        {
          "internalType": "address",
          "name": "account",
          "type": "address"
        }
      ],
      "name": "renounceRole",
      "outputs": [],
      "stateMutability": "nonpayable",
      "type": "function"
    },
    {
      "inputs": [
        {
          "internalType": "uint256",
          "name": "",
          "type": "uint256"
        }
      ],
      "name": "requestChains",
      "outputs": [
        {
          "internalType": "address",
          "name": "contractAddress",
          "type": "address"
        },
        {
          "internalType": "string",
          "name": "rpcUrl",
          "type": "string"
        }
      ],
      "stateMutability": "view",
      "type": "function"
    },
    {
      "inputs": [
        {
          "internalType": "bytes32",
          "name": "role",
          "type": "bytes32"
        },
        {
          "internalType": "address",
          "name": "account",
          "type": "address"
        }
      ],
      "name": "revokeRole",
      "outputs": [],
      "stateMutability": "nonpayable",
      "type": "function"
    },
    {
      "inputs": [
        {
          "internalType": "uint256",
          "name": "",
          "type": "uint256"
        },
        {
          "internalType": "uint256",
          "name": "",
          "type": "uint256"
        }
      ],
      "name": "selectedExecutors",
      "outputs": [
        {
          "internalType": "address",
          "name": "",
          "type": "address"
        }
      ],
      "stateMutability": "view",
      "type": "function"
    },
    {
      "inputs": [
        {
          "internalType": "uint256",
          "name": "_jobId",
          "type": "uint256"
        }
      ],
      "name": "slashOnExecutionTimeout",
      "outputs": [],
      "stateMutability": "nonpayable",
      "type": "function"
    },
    {
      "inputs": [
        {
          "internalType": "bytes",
          "name": "_signature",
          "type": "bytes"
        },
        {
          "internalType": "uint256",
          "name": "_jobId",
          "type": "uint256"
        },
        {
          "internalType": "bytes",
          "name": "_output",
          "type": "bytes"
        },
        {
          "internalType": "uint256",
          "name": "_totalTime",
          "type": "uint256"
        },
        {
          "internalType": "uint8",
          "name": "_errorCode",
          "type": "uint8"
        }
      ],
      "name": "submitOutput",
      "outputs": [],
      "stateMutability": "nonpayable",
      "type": "function"
    },
    {
      "inputs": [
        {
          "internalType": "bytes4",
          "name": "interfaceId",
          "type": "bytes4"
        }
      ],
      "name": "supportsInterface",
      "outputs": [
        {
          "internalType": "bool",
          "name": "",
          "type": "bool"
        }
      ],
      "stateMutability": "view",
      "type": "function"
    },
    {
      "inputs": [],
      "name": "token",
      "outputs": [
        {
          "internalType": "contract IERC20",
          "name": "",
          "type": "address"
        }
      ],
      "stateMutability": "view",
      "type": "function"
    },
    {
      "inputs": [
        {
          "internalType": "address",
          "name": "newImplementation",
          "type": "address"
        }
      ],
      "name": "upgradeTo",
      "outputs": [],
      "stateMutability": "nonpayable",
      "type": "function"
    },
    {
      "inputs": [
        {
          "internalType": "address",
          "name": "newImplementation",
          "type": "address"
        },
        {
          "internalType": "bytes",
          "name": "data",
          "type": "bytes"
        }
      ],
      "name": "upgradeToAndCall",
      "outputs": [],
      "stateMutability": "payable",
      "type": "function"
    },
    {
      "inputs": [
        {
          "internalType": "bytes",
          "name": "signature",
          "type": "bytes"
        },
        {
          "internalType": "bytes",
          "name": "enclavePubKey",
          "type": "bytes"
        },
        {
          "internalType": "bytes32",
          "name": "imageId",
          "type": "bytes32"
        },
        {
          "internalType": "uint256",
          "name": "enclaveCPUs",
          "type": "uint256"
        },
        {
          "internalType": "uint256",
          "name": "enclaveMemory",
          "type": "uint256"
        },
        {
          "internalType": "uint256",
          "name": "timestampInMilliseconds",
          "type": "uint256"
        }
      ],
      "name": "verifyKey",
      "outputs": [],
      "stateMutability": "nonpayable",
      "type": "function"
    }
  ],
  "bytecode": "0x60e06040523060c0523480156200001557600080fd5b50604051620078cb380380620078cb833981016040819052620000389162000186565b6001600160a01b03821660805260a0819052600054610100900460ff16158080156200006b5750600054600160ff909116105b806200009b575062000088306200017760201b620037b91760201c565b1580156200009b575060005460ff166001145b620001035760405162461bcd60e51b815260206004820152602e60248201527f496e697469616c697a61626c653a20636f6e747261637420697320616c72656160448201526d191e481a5b9a5d1a585b1a5e995960921b606482015260840160405180910390fd5b6000805460ff19166001179055801562000127576000805461ff0019166101001790555b80156200016e576000805461ff0019169055604051600181527f7f26b83ff96e1f2b6a682f133852f6798a09c465da95921460cefb38474024989060200160405180910390a15b505050620001c2565b6001600160a01b03163b151590565b600080604083850312156200019a57600080fd5b82516001600160a01b0381168114620001b257600080fd5b6020939093015192949293505050565b60805160a05160c0516176af6200021c600039600081816110e60152818161117c0152818161170e015281816117a4015261189b0152600081816108c10152613ce60152600081816109c10152613f3501526176af6000f3fe6080604052600436106103345760003560e01c80639010d07c116101b0578063cc101e00116100ec578063e79e524a11610095578063eff3be091161006f578063eff3be0914610ac6578063f6c3873914610ae6578063fb94db2b14610b06578063fc0c546a14610b2657600080fd5b8063e79e524a14610a58578063ec6aef2914610a78578063edc1c0df14610a9857600080fd5b8063d77114a5116100c6578063d77114a514610a03578063e0aba60a14610a18578063e201aee114610a3857600080fd5b8063cc101e001461098f578063cd79f906146109af578063d547741f146109e357600080fd5b80639aec990e11610159578063a728ab7611610133578063a728ab7614610918578063a898693014610938578063ca0a13b61461094f578063ca15c8731461096f57600080fd5b80639aec990e146108af5780639c01de41146108e3578063a217fddf1461090357600080fd5b806395e11ef71161018a57806395e11ef7146107e3578063974d2a06146108035780639ac2a0111461082357600080fd5b80639010d07c1461070c5780639022c19c1461072c57806391d148541461079d57600080fd5b80633659cfe61161027f5780635450c16b11610228578063728d21b011610202578063728d21b014610693578063734aeee1146106aa57806377cba036146106cc57806380bc9233146106ec57600080fd5b80635450c16b146106335780636361df6b146106535780636d5cc39f1461067357600080fd5b80634c712ba3116102595780634c712ba3146105eb5780634f1ef2861461060b57806352d1902d1461061e57600080fd5b80633659cfe61461058b5780634abc64c2146105ab5780634b104c85146105cb57600080fd5b80632410f6ba116102e157806332dc9a96116102bb57806332dc9a96146104fd5780633651cf281461054b57806336568abe1461056b57600080fd5b80632410f6ba14610480578063248a9ca3146104ad5780632f2ff15d146104dd57600080fd5b8063180aedf311610312578063180aedf3146103d45780631a2c9de7146104085780631c53c2801461043557600080fd5b80630167847b1461033957806301d58fa31461035b57806301ffc9a7146103a4575b600080fd5b34801561034557600080fd5b50610359610354366004616304565b610b47565b005b34801561036757600080fd5b5061039161037636600461634e565b6001600160a01b0316600090815260ca602052604090205490565b6040519081526020015b60405180910390f35b3480156103b057600080fd5b506103c46103bf36600461636b565b610ca7565b604051901515815260200161039b565b3480156103e057600080fd5b506103f46103ef3660046163ad565b610cb8565b60405161039b989796959493929190616416565b34801561041457600080fd5b5061039161042336600461634e565b60fb6020526000908152604090205481565b34801561044157600080fd5b506104556104503660046163ad565b610da7565b6040805167ffffffffffffffff9485168152928416602084015292169181019190915260600161039b565b34801561048c57600080fd5b506104a061049b3660046163ad565b610df8565b60405161039b919061646f565b3480156104b957600080fd5b506103916104c83660046163ad565b60009081526065602052604090206001015490565b3480156104e957600080fd5b506103596104f83660046164d0565b610ff1565b34801561050957600080fd5b506105336105183660046163ad565b60fc602052600090815260409020546001600160a01b031681565b6040516001600160a01b03909116815260200161039b565b34801561055757600080fd5b50610533610566366004616500565b61101b565b34801561057757600080fd5b506103596105863660046164d0565b611054565b34801561059757600080fd5b506103596105a636600461634e565b6110dc565b3480156105b757600080fd5b506103596105c636600461659a565b611279565b3480156105d757600080fd5b506103596105e63660046165fe565b61138b565b3480156105f757600080fd5b50610359610606366004616643565b6114f0565b61035961061936600461678f565b611704565b34801561062a57600080fd5b5061039161188e565b34801561063f57600080fd5b5061053361064e3660046163ad565b611953565b34801561065f57600080fd5b5061035961066e3660046167d5565b61197e565b34801561067f57600080fd5b5061035961068e366004616867565b611b3f565b34801561069f57600080fd5b506103916101925481565b3480156106b657600080fd5b506106bf611e9a565b60405161039b9190616941565b3480156106d857600080fd5b506103c46106e73660046164d0565b61202e565b3480156106f857600080fd5b506103596107073660046165fe565b61210a565b34801561071857600080fd5b50610533610727366004616500565b61235a565b34801561073857600080fd5b5061077661074736600461634e565b610195602052600090815260409020805460028201546003909201546001600160a01b03909116919060ff1683565b604080516001600160a01b039094168452602084019290925215159082015260600161039b565b3480156107a957600080fd5b506103c46107b83660046164d0565b60009182526065602090815260408084206001600160a01b0393909316845291905290205460ff1690565b3480156107ef57600080fd5b506103596107fe3660046163ad565b612379565b34801561080f57600080fd5b5061035961081e3660046165fe565b6125be565b34801561082f57600080fd5b5061087b61083e36600461634e565b61019760205260009081526040902080546001820154600283015460038401546004909401546001600160a01b0390931693919290919060ff1685565b604080516001600160a01b03909616865260208601949094529284019190915260608301521515608082015260a00161039b565b3480156108bb57600080fd5b506103917f000000000000000000000000000000000000000000000000000000000000000081565b3480156108ef57600080fd5b506103596108fe3660046165fe565b6128b0565b34801561090f57600080fd5b50610391600081565b34801561092457600080fd5b506103596109333660046165fe565b6129d4565b34801561094457600080fd5b506103916101935481565b34801561095b57600080fd5b5061035961096a3660046169f5565b612b1a565b34801561097b57600080fd5b5061039161098a3660046163ad565b612c74565b34801561099b57600080fd5b506103596109aa3660046165fe565b612c8b565b3480156109bb57600080fd5b506105337f000000000000000000000000000000000000000000000000000000000000000081565b3480156109ef57600080fd5b506103596109fe3660046164d0565b612d9e565b348015610a0f57600080fd5b50610391612dc3565b348015610a2457600080fd5b50610359610a33366004616af8565b612dda565b348015610a4457600080fd5b50610359610a53366004616b2d565b612f64565b348015610a6457600080fd5b50610359610a73366004616b96565b61309e565b348015610a8457600080fd5b50610359610a9336600461659a565b613262565b348015610aa457600080fd5b50610ab8610ab33660046163ad565b61336d565b60405161039b929190616d0c565b348015610ad257600080fd5b50610359610ae1366004616d2e565b61341d565b348015610af257600080fd5b50610359610b01366004616af8565b6135c5565b348015610b1257600080fd5b50610359610b21366004616e60565b6137ab565b348015610b3257600080fd5b5061019154610533906001600160a01b031681565b610b526000336107b8565b610ba35760405162461bcd60e51b815260206004820152600a60248201527f6f6e6c792061646d696e0000000000000000000000000000000000000000000060448201526064015b60405180910390fd5b6000815111610bf45760405162461bcd60e51b815260206004820152600e60248201527f494e56414c49445f4c454e4754480000000000000000000000000000000000006044820152606401610b9a565b60005b8151811015610ca3576000828281518110610c1457610c14616ee7565b602090810291909101810151600081815261019490925260408220805473ffffffffffffffffffffffffffffffffffffffff1916815590925090610c5b60018301826160af565b50506040518181527f5b9dc40648bfe840de770df10081e79f179534343348da4087dea77ba584d1819060200160405180910390a15080610c9b81616f45565b915050610bf7565b5050565b6000610cb2826137c8565b92915050565b6101986020526000908152604090208054600182015460028301805492939192610ce190616f7d565b80601f0160208091040260200160405190810160405280929190818152602001828054610d0d90616f7d565b8015610d5a5780601f10610d2f57610100808354040283529160200191610d5a565b820191906000526020600020905b815481529060010190602001808311610d3d57829003601f168201915b50505050600383015460048401546005850154600690950154939491939092506001600160a01b039182169181169074010000000000000000000000000000000000000000900460ff1688565b60fd8181548110610db757600080fd5b60009182526020909120015467ffffffffffffffff808216925068010000000000000000820481169170010000000000000000000000000000000090041683565b610e1c60405180606001604052806060815260200160608152602001606081525090565b600082815260c9602052604090819020815160608101909252805482908290610e4490616f7d565b80601f0160208091040260200160405190810160405280929190818152602001828054610e7090616f7d565b8015610ebd5780601f10610e9257610100808354040283529160200191610ebd565b820191906000526020600020905b815481529060010190602001808311610ea057829003601f168201915b50505050508152602001600182018054610ed690616f7d565b80601f0160208091040260200160405190810160405280929190818152602001828054610f0290616f7d565b8015610f4f5780601f10610f2457610100808354040283529160200191610f4f565b820191906000526020600020905b815481529060010190602001808311610f3257829003601f168201915b50505050508152602001600282018054610f6890616f7d565b80601f0160208091040260200160405190810160405280929190818152602001828054610f9490616f7d565b8015610fe15780601f10610fb657610100808354040283529160200191610fe1565b820191906000526020600020905b815481529060010190602001808311610fc457829003601f168201915b5050505050815250509050919050565b60008281526065602052604090206001015461100c8161381e565b6110168383613828565b505050565b610199602052816000526040600020818154811061103857600080fd5b6000918252602090912001546001600160a01b03169150829050565b6001600160a01b03811633146110d25760405162461bcd60e51b815260206004820152602f60248201527f416363657373436f6e74726f6c3a2063616e206f6e6c792072656e6f756e636560448201527f20726f6c657320666f722073656c6600000000000000000000000000000000006064820152608401610b9a565b610ca38282613832565b6001600160a01b037f000000000000000000000000000000000000000000000000000000000000000016300361117a5760405162461bcd60e51b815260206004820152602c60248201527f46756e6374696f6e206d7573742062652063616c6c6564207468726f7567682060448201527f64656c656761746563616c6c00000000000000000000000000000000000000006064820152608401610b9a565b7f00000000000000000000000000000000000000000000000000000000000000006001600160a01b03166111d57f360894a13ba1a3210667c828492db98dca3e2076cc3735a920a3ca505d382bbc546001600160a01b031690565b6001600160a01b0316146112515760405162461bcd60e51b815260206004820152602c60248201527f46756e6374696f6e206d7573742062652063616c6c6564207468726f7567682060448201527f6163746976652070726f787900000000000000000000000000000000000000006064820152608401610b9a565b61125a81613895565b60408051600080825260208201909252611276918391906138ec565b50565b81600061128582613a8c565b6001600160a01b03808216600090815261019560205260409020549192501633146112f25760405162461bcd60e51b815260206004820152601560248201527f4f4e4c595f474154455741595f4f50455241544f5200000000000000000000006044820152606401610b9a565b60008351116113435760405162461bcd60e51b815260206004820152601060248201527f454d5054595f5245515f434841494e53000000000000000000000000000000006044820152606401610b9a565b60005b8351811015611384576113728585838151811061136557611365616ee7565b602002602001015161210a565b8061137c81616f45565b915050611346565b5050505050565b81600061139782613a8c565b6001600160a01b03808216600090815261019760205260409020549192501633146114045760405162461bcd60e51b815260206004820152601660248201527f4f4e4c595f4558454355544f525f4f50455241544f52000000000000000000006044820152606401610b9a565b61141d335b610191546001600160a01b03169085613aeb565b600061142885613a8c565b6001600160a01b03811660009081526101976020526040812060030180549293508692909190611459908490616fca565b90915550506001600160a01b038116600090815261019760205260409020600181015460029091015414611491576114918185613b94565b6001600160a01b03811660009081526101976020526040908190206003015490517fa7903817e9c60899f1796f02344546fbe45af803ac7a26968e800564687172f9916114e19188918891616fdd565b60405180910390a15050505050565b600089898960405160200161150793929190617002565b60405160208183030381529060405280519060200120905061152d8c8c838a8a8a613bb7565b6000846040516020016115409190617045565b60408051601f19818403018152919052805160209091012090506000611566828661402e565b905061157181614052565b61158b335b610191546001600160a01b031690308761416e565b60006115968e613a8c565b905060005b87518110156116495760006001600160a01b031661019460008a84815181106115c6576115c6616ee7565b6020908102919091018101518252810191909152604001600020546001600160a01b0316036116375760405162461bcd60e51b815260206004820152601160248201527f554e535550504f525445445f434841494e0000000000000000000000000000006044820152606401610b9a565b8061164181616f45565b91505061159b565b50604051806080016040528061165c3390565b6001600160a01b03908116825260208083018b905260408084018a90526001606090940184905285831660009081526101958352208451815473ffffffffffffffffffffffffffffffffffffffff1916931692909217825583810151805192936116ce939085019291909101906160e9565b50604082015160028201556060909101516003909101805460ff1916911515919091179055505050505050505050505050505050565b6001600160a01b037f00000000000000000000000000000000000000000000000000000000000000001630036117a25760405162461bcd60e51b815260206004820152602c60248201527f46756e6374696f6e206d7573742062652063616c6c6564207468726f7567682060448201527f64656c656761746563616c6c00000000000000000000000000000000000000006064820152608401610b9a565b7f00000000000000000000000000000000000000000000000000000000000000006001600160a01b03166117fd7f360894a13ba1a3210667c828492db98dca3e2076cc3735a920a3ca505d382bbc546001600160a01b031690565b6001600160a01b0316146118795760405162461bcd60e51b815260206004820152602c60248201527f46756e6374696f6e206d7573742062652063616c6c6564207468726f7567682060448201527f6163746976652070726f787900000000000000000000000000000000000000006064820152608401610b9a565b61188282613895565b610ca3828260016138ec565b6000306001600160a01b037f0000000000000000000000000000000000000000000000000000000000000000161461192e5760405162461bcd60e51b815260206004820152603860248201527f555550535570677261646561626c653a206d757374206e6f742062652063616c60448201527f6c6564207468726f7567682064656c656761746563616c6c00000000000000006064820152608401610b9a565b507f360894a13ba1a3210667c828492db98dca3e2076cc3735a920a3ca505d382bbc90565b610196818154811061196457600080fd5b6000918252602090912001546001600160a01b0316905081565b6000848484846040516020016119979493929190617058565b60408051601f198184030181529190528051602090910120905060006119bd828861402e565b90506119c881614052565b6119d2868261202e565b611a1e5760405162461bcd60e51b815260206004820152601560248201527f4e4f545f53454c45435445445f4558454355544f5200000000000000000000006044820152606401610b9a565b6001600160a01b038116600090815261019760205260409020600181015460029091015403611a6f576001600160a01b03811660009081526101976020526040902060030154611a6f9082906141c5565b6001600160a01b038116600090815261019760205260408120600201805460019290611a9c908490616fca565b9091555050600086815261019860205260409020600601805487917f8fc6b8b59d0ff3436773bd2fa42b72163ff74598764f7e02bbcfc75afb4251609188918891889190601490611b079074010000000000000000000000000000000000000000900460ff1661708b565b91906101000a81548160ff021916908360ff1602179055604051611b2e94939291906170aa565b60405180910390a250505050505050565b600085815261019460205260409020546001600160a01b0316611ba45760405162461bcd60e51b815260206004820152601160248201527f554e535550504f525445445f434841494e0000000000000000000000000000006044820152606401610b9a565b6000868686868686604051602001611bc1969594939291906170dd565b60408051601f19818403018152919052805160209091012090506000611be7828a61402e565b9050611bf281614052565b6000611bfd896142ec565b905060005b8151811015611d245760016101976000848481518110611c2457611c24616ee7565b60200260200101516001600160a01b03166001600160a01b031681526020019081526020016000206002016000828254611c5e9190617124565b925050819055506101976000838381518110611c7c57611c7c616ee7565b60200260200101516001600160a01b03166001600160a01b03168152602001908152602001600020600101546101976000848481518110611cbf57611cbf616ee7565b60200260200101516001600160a01b03166001600160a01b031681526020019081526020016000206002015403611d1257611d12828281518110611d0557611d05616ee7565b60200260200101516143b0565b80611d1c81616f45565b915050611c02565b50604051806101000160405280898152602001888152602001878152602001868152602001428152602001856001600160a01b03168152602001611d653390565b6001600160a01b03168152600060209182018190528b81526101988252604090819020835181559183015160018301558201516002820190611da7908261717d565b50606082015160038201556080820151600482015560a082015160058201805473ffffffffffffffffffffffffffffffffffffffff19166001600160a01b0392831617905560c08301516006909201805460e090940151929091167fffffffffffffffffffffff000000000000000000000000000000000000000000909316929092177401000000000000000000000000000000000000000060ff90921691909102179055887fbf1af60e0a2cc5cbc5ef57ad1fe278be6c3e6923245f407b1127d24471847677898989898933604051611e8696959493929190617279565b60405180910390a250505050505050505050565b6101965460609060009067ffffffffffffffff811115611ebc57611ebc6161c9565b604051908082528060200260200182016040528015611f2357816020015b611f10604051806080016040528060006001600160a01b0316815260200160608152602001600081526020016000151581525090565b815260200190600190039081611eda5790505b50905060005b610196548110156120285761019560006101968381548110611f4d57611f4d616ee7565b60009182526020808320909101546001600160a01b039081168452838201949094526040928301909120825160808101845281549094168452600181018054845181850281018501909552808552919385840193909290830182828015611fd357602002820191906000526020600020905b815481526020019060010190808311611fbf575b50505091835250506002820154602082015260039091015460ff161515604090910152825183908390811061200a5761200a616ee7565b6020026020010181905250808061202090616f45565b915050611f29565b50919050565b6000828152610199602090815260408083208054825181850281018501909352808352849383018282801561208c57602002820191906000526020600020905b81546001600160a01b0316815260019091019060200180831161206e575b505050600087815261019960205260408120549394509150505b818110156120fe57846001600160a01b03168382815181106120ca576120ca616ee7565b60200260200101516001600160a01b0316036120ec5760019350505050610cb2565b806120f681616f45565b9150506120a6565b50600095945050505050565b81600061211682613a8c565b6001600160a01b03808216600090815261019560205260409020549192501633146121835760405162461bcd60e51b815260206004820152601560248201527f4f4e4c595f474154455741595f4f50455241544f5200000000000000000000006044820152606401610b9a565b600083815261019460205260409020546001600160a01b03166121e85760405162461bcd60e51b815260206004820152601160248201527f554e535550504f525445445f434841494e0000000000000000000000000000006044820152606401610b9a565b60006121f385613a8c565b6001600160a01b0381166000908152610195602090815260408083206001018054825181850281018501909352808352949550929390929183018282801561225a57602002820191906000526020600020905b815481526020019060010190808311612246575b5050505050905060005b81518110156122e7578582828151811061228057612280616ee7565b6020026020010151036122d55760405162461bcd60e51b815260206004820152601460248201527f434841494e5f414c52454144595f4558495354530000000000000000000000006044820152606401610b9a565b806122df81616f45565b915050612264565b506001600160a01b03821660009081526101956020908152604080832060019081018054918201815584529190922001869055517f88cce4122801bcc715f3f1b2e894f26b07049a0d4c2d204c0c4ad87157f4e18c9061234a90889088906172c0565b60405180910390a1505050505050565b600082815260976020526040812061237290836143df565b9392505050565b6101925460008281526101986020526040902060038101546004909101546123a19190617124565b6123ab9190617124565b42116123f95760405162461bcd60e51b815260206004820152601160248201527f444541444c494e455f4e4f545f4f5645520000000000000000000000000000006044820152606401610b9a565b600081815261019860205260408120818155600181018290559061242060028301826160af565b506000600382018190556004820181905560058201805473ffffffffffffffffffffffffffffffffffffffff19169055600690910180547fffffffffffffffffffffff0000000000000000000000000000000000000000001690558181526101996020526040812054905b8181101561255c576000838152610199602052604081208054839081106124b4576124b4616ee7565b60009182526020808320909101546001600160a01b0316808352610197909152604090912060018101546002909101549192509003612515576001600160a01b038116600090815261019760205260409020600301546125159082906141c5565b6001600160a01b038116600090815261019760205260408120600201805460019290612542908490616fca565b90915550829150612554905081616f45565b91505061248b565b50600082815261019960205260409081902090517f028662a7b04c153b66537cb788297aa2b4f14412cc5830ff5c5748231924f9c69161259e918591906172e2565b60405180910390a1600082815261019960205260408120610ca391616134565b8160006125ca82613a8c565b6001600160a01b03808216600090815261019560205260409020549192501633146126375760405162461bcd60e51b815260206004820152601560248201527f4f4e4c595f474154455741595f4f50455241544f5200000000000000000000006044820152606401610b9a565b600061264285613a8c565b6001600160a01b038116600090815261019560209081526040808320600101805482518185028101850190935280835294955092939092918301828280156126a957602002820191906000526020600020905b815481526020019060010190808311612695575b50508351939450505081151590506127035760405162461bcd60e51b815260206004820152600f60248201527f454d5054595f434841494e4c49535400000000000000000000000000000000006044820152606401610b9a565b60005b81811015612741578683828151811061272157612721616ee7565b60200260200101510315612741578061273981616f45565b915050612706565b8181146127905760405162461bcd60e51b815260206004820152600f60248201527f434841494e5f4e4f545f464f554e4400000000000000000000000000000000006044820152606401610b9a565b61279b600183616fca565b811461282c576001600160a01b0384166000908152610195602052604090206001908101906127ca9084616fca565b815481106127da576127da616ee7565b90600052602060002001546101956000866001600160a01b03166001600160a01b03168152602001908152602001600020600101828154811061281f5761281f616ee7565b6000918252602090912001555b6001600160a01b0384166000908152610195602052604090206001018054806128575761285761733e565b600190038181906000526020600020016000905590557f23e9f2f63bc310edd7f3f83bb1e8fe39cd606aabe6a2530271f8037383aaf98c888860405161289e9291906172c0565b60405180910390a15050505050505050565b8160006128bc82613a8c565b6001600160a01b03808216600090815261019560205260409020549192501633146129295760405162461bcd60e51b815260206004820152601560248201527f4f4e4c595f474154455741595f4f50455241544f5200000000000000000000006044820152606401610b9a565b612943335b610191546001600160a01b031690308661416e565b600061294e85613a8c565b6001600160a01b0381166000908152610195602052604081206002018054929350869290919061297f908490617124565b90915550506001600160a01b03811660009081526101956020526040908190206002015490517f9a719891db0e8e647d47fb1a5f64fea9a2c0d206db0b610c23f2cf1df5217823916114e19188918891616fdd565b8160006129e082613a8c565b6001600160a01b0380821660009081526101976020526040902054919250163314612a4d5760405162461bcd60e51b815260206004820152601660248201527f4f4e4c595f4558454355544f525f4f50455241544f52000000000000000000006044820152606401610b9a565b612a563361292e565b6000612a6185613a8c565b6001600160a01b03811660009081526101976020526040812060030180549293508692909190612a92908490617124565b90915550506001600160a01b038116600090815261019760205260409020600181015460029091015414612aca57612aca8185613b94565b6001600160a01b03811660009081526101976020526040908190206003015490517f1f95f2be015b951fd700619ce83a83c8d4aaa34d2ffbd70307a2623f6299c4d4916114e19188918891616fdd565b6000898989604051602001612b3193929190617002565b604051602081830303815290604052805190602001209050612b578c8c838a8a8a613bb7565b600084604051602001612b6c91815260200190565b60408051601f19818403018152919052805160209091012090506000612b92828661402e565b9050612b9d81614052565b612ba633611576565b6000612bb18e613a8c565b90506040518060a00160405280612bc53390565b6001600160a01b03908116825260208083018b90526000604080850182905260608086018c90526001608096870181905288861684526101978552928290208751815473ffffffffffffffffffffffffffffffffffffffff191696169590951785559286015191840191909155840151600283015583015160038201559101516004909101805460ff1916911515919091179055612c6381866141c5565b505050505050505050505050505050565b6000818152609760205260408120610cb2906143eb565b816000612c9782613a8c565b6001600160a01b0380821660009081526101956020526040902054919250163314612d045760405162461bcd60e51b815260206004820152601560248201527f4f4e4c595f474154455741595f4f50455241544f5200000000000000000000006044820152606401610b9a565b612d0d33611409565b6000612d1885613a8c565b6001600160a01b03811660009081526101956020526040812060020180549293508692909190612d49908490616fca565b90915550506001600160a01b03811660009081526101956020526040908190206002015490517f162e2d134a088692c1bd7ca2e473a83d6ad3dcc4d7289b5cee9d342f4004d1b8916114e19188918891616fdd565b600082815260656020526040902060010154612db98161381e565b6110168383613832565b60fd54600090612dd590600190616fca565b905090565b806000612de682613a8c565b6001600160a01b0380821660009081526101956020526040902054919250163314612e535760405162461bcd60e51b815260206004820152601560248201527f4f4e4c595f474154455741595f4f50455241544f5200000000000000000000006044820152606401610b9a565b6000612e5e84613a8c565b6001600160a01b038082166000908152610195602052604090205491925016612ec95760405162461bcd60e51b815260206004820152601360248201527f494e56414c49445f454e434c4156455f4b4559000000000000000000000000006044820152606401610b9a565b6001600160a01b038116600090815261019560205260408120805473ffffffffffffffffffffffffffffffffffffffff1916815590612f0b6001830182616134565b5060006002820155600301805460ff19169055612f27846143f5565b7fcfdd9fda8828d739bda25c6f221393246d149dd1b7f6784acdb8ba0132722f2784604051612f56919061736d565b60405180910390a150505050565b600082815261019860205260409020600601546001600160a01b03163303612fce5760405162461bcd60e51b815260206004820152600c60248201527f53414d455f4741544557415900000000000000000000000000000000000000006044820152606401610b9a565b60008284604051602001612ff59291909182526001600160a01b0316602082015260400190565b60408051601f1981840301815291905280516020909101209050600061301b828461402e565b905061302681614052565b60008481526101986020908152604091829020600601805473ffffffffffffffffffffffffffffffffffffffff19163390811790915591518681526001600160a01b038816917f8b7c31ce9ded31107fcb4bfabbf28198eb7426f50084e26df70e22525d9b6b0e910160405180910390a35050505050565b600054610100900460ff16158080156130be5750600054600160ff909116105b806130d85750303b1580156130d8575060005460ff166001145b61314a5760405162461bcd60e51b815260206004820152602e60248201527f496e697469616c697a61626c653a20636f6e747261637420697320616c72656160448201527f647920696e697469616c697a65640000000000000000000000000000000000006064820152608401610b9a565b6000805460ff19166001179055801561318a57600080547fffffffffffffffffffffffffffffffffffffffffffffffffffffffffffff00ff166101001790555b6131926144c5565b61319a6144c5565b6131a26144c5565b6131ab85614544565b6131b3614602565b6131bb6144c5565b6131c6600087613828565b610191805473ffffffffffffffffffffffffffffffffffffffff19166001600160a01b038616179055610192839055610193829055801561325a57600080547fffffffffffffffffffffffffffffffffffffffffffffffffffffffffffff00ff169055604051600181527f7f26b83ff96e1f2b6a682f133852f6798a09c465da95921460cefb38474024989060200161234a565b505050505050565b81600061326e82613a8c565b6001600160a01b03808216600090815261019560205260409020549192501633146132db5760405162461bcd60e51b815260206004820152601560248201527f4f4e4c595f474154455741595f4f50455241544f5200000000000000000000006044820152606401610b9a565b600083511161332c5760405162461bcd60e51b815260206004820152601060248201527f454d5054595f5245515f434841494e53000000000000000000000000000000006044820152606401610b9a565b60005b83518110156113845761335b8585838151811061334e5761334e616ee7565b60200260200101516125be565b8061336581616f45565b91505061332f565b61019460205260009081526040902080546001820180546001600160a01b03909216929161339a90616f7d565b80601f01602080910402602001604051908101604052809291908181526020018280546133c690616f7d565b80156134135780601f106133e857610100808354040283529160200191613413565b820191906000526020600020905b8154815290600101906020018083116133f657829003601f168201915b5050505050905082565b6134286000336107b8565b6134745760405162461bcd60e51b815260206004820152600a60248201527f6f6e6c792061646d696e000000000000000000000000000000000000000000006044820152606401610b9a565b60008251118015613486575080518251145b6134d25760405162461bcd60e51b815260206004820152600e60248201527f494e56414c49445f4c454e4754480000000000000000000000000000000000006044820152606401610b9a565b60005b81518110156110165760008282815181106134f2576134f2616ee7565b60200260200101519050600084838151811061351057613510616ee7565b60209081029190910181015160008181526101948352604090208451815473ffffffffffffffffffffffffffffffffffffffff19166001600160a01b0390911617815591840151909250839190600182019061356c908261717d565b5050825160208401516040517f67dd8b8576f1455907cc1b4aa4623860ed1036d8ead856785f3d51bef810fa6393506135a89285929091617380565b60405180910390a1505080806135bd90616f45565b9150506134d5565b8060006135d182613a8c565b6001600160a01b038082166000908152610197602052604090205491925016331461363e5760405162461bcd60e51b815260206004820152601660248201527f4f4e4c595f4558454355544f525f4f50455241544f52000000000000000000006044820152606401610b9a565b600061364984613a8c565b6001600160a01b0380821660009081526101976020526040902054919250166136b45760405162461bcd60e51b815260206004820152601360248201527f494e56414c49445f454e434c4156455f4b4559000000000000000000000000006044820152606401610b9a565b6001600160a01b038116600090815261019760205260409020600201541561371e5760405162461bcd60e51b815260206004820152601360248201527f4143544956455f4a4f42535f50454e44494e47000000000000000000000000006044820152606401610b9a565b6001600160a01b038116600090815261019760205260408120805473ffffffffffffffffffffffffffffffffffffffff1916815560018101829055600281018290556003810191909155600401805460ff1916905561377c816143b0565b7fcd3eb6b4f0e55ead3175ceaac8651559bdea002353da50a25dbc57e9d6bce8ce84604051612f56919061736d565b61325a868686868686613bb7565b6001600160a01b03163b151590565b60007fffffffff0000000000000000000000000000000000000000000000000000000082167f5a05180f000000000000000000000000000000000000000000000000000000001480610cb25750610cb282614687565b611276813361471e565b610ca38282614793565b61383c82826147b5565b6138466000612c74565b600003610ca35760405162461bcd60e51b815260206004820181905260248201527f41563a52522d416c6c2061646d696e732063616e742062652072656d6f7665646044820152606401610b9a565b6138a06000336107b8565b6112765760405162461bcd60e51b815260206004820152600a60248201527f6f6e6c792061646d696e000000000000000000000000000000000000000000006044820152606401610b9a565b7f4910fdfa16fed3260ed0e7147f7cc6da11a60208b5b9406d12a635614ffd91435460ff161561391f57611016836147d7565b826001600160a01b03166352d1902d6040518163ffffffff1660e01b8152600401602060405180830381865afa925050508015613979575060408051601f3d908101601f19168201909252613976918101906173a8565b60015b6139eb5760405162461bcd60e51b815260206004820152602e60248201527f45524331393637557067726164653a206e657720696d706c656d656e7461746960448201527f6f6e206973206e6f7420555550530000000000000000000000000000000000006064820152608401610b9a565b7f360894a13ba1a3210667c828492db98dca3e2076cc3735a920a3ca505d382bbc8114613a805760405162461bcd60e51b815260206004820152602960248201527f45524331393637557067726164653a20756e737570706f727465642070726f7860448201527f6961626c655555494400000000000000000000000000000000000000000000006064820152608401610b9a565b506110168383836148a2565b60008151604014613adf5760405162461bcd60e51b815260206004820152601960248201527f496e76616c6964207075626c6963206b6579206c656e677468000000000000006044820152606401610b9a565b50805160209091012090565b6040516001600160a01b0383166024820152604481018290526110169084907fa9059cbb00000000000000000000000000000000000000000000000000000000906064015b60408051601f198184030181529190526020810180517bffffffffffffffffffffffffffffffffffffffffffffffffffffffff167fffffffff00000000000000000000000000000000000000000000000000000000909316929092179091526148c7565b6001600160a01b038216600090815260fb6020526040902054610ca390826149af565b600084815260c9602052604090208054613bd090616f7d565b9050600003613c475760405162461bcd60e51b815260206004820152602d60248201527f41413a564b2d456e636c61766520696d61676520746f20766572696679206e6f60448201527f742077686974656c6973746564000000000000000000000000000000000000006064820152608401610b9a565b6000613c5286613a8c565b6001600160a01b038116600090815260ca602052604090205490915015613ce15760405162461bcd60e51b815260206004820152602260248201527f41413a564b2d456e636c617665206b657920616c72656164792076657269666960448201527f65640000000000000000000000000000000000000000000000000000000000006064820152608401610b9a565b613d0b7f000000000000000000000000000000000000000000000000000000000000000042616fca565b613d176103e8846173f0565b11613d645760405162461bcd60e51b815260206004820152601960248201527f41413a564b2d4174746573746174696f6e20746f6f206f6c64000000000000006044820152606401610b9a565b600085815260c96020526040808220815160608101909252805482908290613d8b90616f7d565b80601f0160208091040260200160405190810160405280929190818152602001828054613db790616f7d565b8015613e045780601f10613dd957610100808354040283529160200191613e04565b820191906000526020600020905b815481529060010190602001808311613de757829003601f168201915b50505050508152602001600182018054613e1d90616f7d565b80601f0160208091040260200160405190810160405280929190818152602001828054613e4990616f7d565b8015613e965780601f10613e6b57610100808354040283529160200191613e96565b820191906000526020600020905b815481529060010190602001808311613e7957829003601f168201915b50505050508152602001600282018054613eaf90616f7d565b80601f0160208091040260200160405190810160405280929190818152602001828054613edb90616f7d565b8015613f285780601f10613efd57610100808354040283529160200191613f28565b820191906000526020600020905b815481529060010190602001808311613f0b57829003601f168201915b50505050508152505090507f00000000000000000000000000000000000000000000000000000000000000006001600160a01b031663ac0f0bd589898460000151856020015186604001518b8b8b6040518963ffffffff1660e01b8152600401613f99989796959493929190617404565b60006040518083038186803b158015613fb157600080fd5b505afa158015613fc5573d6000803e3d6000fd5b5050506001600160a01b038316600090815260ca60205260409081902088905551879150613ff4908990617489565b604051908190038120907ff4837f1a66a1e5fbde2c40d0f6eff75183139e79b0fc1eaab280a3a0be38e7b190600090a35050505050505050565b600080600061403d8585614a0c565b9150915061404a81614a51565b509392505050565b6001600160a01b038116600090815260ca6020526040902054806140de5760405162461bcd60e51b815260206004820152602360248201527f41413a414f562d456e636c617665206b6579206d75737420626520766572696660448201527f69656400000000000000000000000000000000000000000000000000000000006064820152608401610b9a565b600081815260c96020526040902080546140f790616f7d565b9050600003610ca35760405162461bcd60e51b815260206004820152602760248201527f41413a414f562d536f7572636520696d616765206d757374206265207768697460448201527f656c6973746564000000000000000000000000000000000000000000000000006064820152608401610b9a565b6040516001600160a01b03808516602483015283166044820152606481018290526141bf9085907f23b872dd0000000000000000000000000000000000000000000000000000000090608401613b30565b50505050565b60fd8054604080516060810182526000808252602080830182815283850183815260018701885596835292517f9346ac6dd7de6b96975fec380d4d994c4c12e6a8897544f22915316cc6cca280860180549451975167ffffffffffffffff908116700100000000000000000000000000000000027fffffffffffffffff0000000000000000ffffffffffffffffffffffffffffffff99821668010000000000000000027fffffffffffffffffffffffffffffffff0000000000000000000000000000000090971693909116929092179490941796909616959095179091556001600160a01b03861680825260fb855282822084905583825260fc90945220805473ffffffffffffffffffffffffffffffffffffffff19169092179091556110168183614bb6565b606060006142fb600143616fca565b604080519140602083015242908201526060016040516020818303038152906040528051906020012060001c90506143368161019354614d26565b915081516000036143895760405162461bcd60e51b815260206004820152601460248201527f4e4f5f4558454355544f525f53454c45435445440000000000000000000000006044820152606401610b9a565b60008381526101996020908152604090912083516143a992850190616152565b5050919050565b6001600160a01b038116600090815260fb6020526040812054908190036143d5575050565b610ca38282614f80565b600061237283836150ee565b6000610cb2825490565b600061440082613a8c565b6001600160a01b038116600090815260ca60205260409020549091506144685760405162461bcd60e51b815260206004820152601e60248201527f41413a524b2d456e636c617665206b6579206e6f7420766572696669656400006044820152606401610b9a565b6001600160a01b038116600090815260ca60205260408082209190915551614491908390617489565b604051908190038120907ff910fd78b98e9574e8b6f0e42bc3a996a6aba3776ec20b9d85515bd74a6c8fe990600090a25050565b600054610100900460ff166145425760405162461bcd60e51b815260206004820152602b60248201527f496e697469616c697a61626c653a20636f6e7472616374206973206e6f74206960448201527f6e697469616c697a696e670000000000000000000000000000000000000000006064820152608401610b9a565b565b600054610100900460ff166145c15760405162461bcd60e51b815260206004820152602b60248201527f496e697469616c697a61626c653a20636f6e7472616374206973206e6f74206960448201527f6e697469616c697a696e670000000000000000000000000000000000000000006064820152608401610b9a565b60005b8151811015610ca3576145ef8282815181106145e2576145e2616ee7565b6020026020010151615118565b50806145fa81616f45565b9150506145c4565b600054610100900460ff1661467f5760405162461bcd60e51b815260206004820152602b60248201527f496e697469616c697a61626c653a20636f6e7472616374206973206e6f74206960448201527f6e697469616c697a696e670000000000000000000000000000000000000000006064820152608401610b9a565b614542615312565b60007fffffffff0000000000000000000000000000000000000000000000000000000082167f7965db0b000000000000000000000000000000000000000000000000000000001480610cb257507f01ffc9a7000000000000000000000000000000000000000000000000000000007fffffffff00000000000000000000000000000000000000000000000000000000831614610cb2565b60008281526065602090815260408083206001600160a01b038516845290915290205460ff16610ca35761475181615444565b61475c836020615456565b60405160200161476d9291906174a5565b60408051601f198184030181529082905262461bcd60e51b8252610b9a9160040161736d565b61479d828261567f565b60008281526097602052604090206110169082615721565b6147bf8282615736565b600082815260976020526040902061101690826157b9565b6001600160a01b0381163b6148545760405162461bcd60e51b815260206004820152602d60248201527f455243313936373a206e657720696d706c656d656e746174696f6e206973206e60448201527f6f74206120636f6e7472616374000000000000000000000000000000000000006064820152608401610b9a565b7f360894a13ba1a3210667c828492db98dca3e2076cc3735a920a3ca505d382bbc805473ffffffffffffffffffffffffffffffffffffffff19166001600160a01b0392909216919091179055565b6148ab836157ce565b6000825111806148b85750805b15611016576141bf838361580e565b600061491c826040518060400160405280602081526020017f5361666545524332303a206c6f772d6c6576656c2063616c6c206661696c6564815250856001600160a01b03166158339092919063ffffffff16565b905080516000148061493d57508080602001905181019061493d9190617526565b6110165760405162461bcd60e51b815260206004820152602a60248201527f5361666545524332303a204552433230206f7065726174696f6e20646964206e60448201527f6f742073756363656564000000000000000000000000000000000000000000006064820152608401610b9a565b600060fd83815481106149c4576149c4616ee7565b60009182526020909120015467ffffffffffffffff9081169150821681106149f957611016836149f48484617548565b61584a565b61101683614a078385617548565b614bb6565b6000808251604103614a425760208301516040840151606085015160001a614a36878285856159ba565b94509450505050614a4a565b506000905060025b9250929050565b6000816004811115614a6557614a65617569565b03614a6d5750565b6001816004811115614a8157614a81617569565b03614ace5760405162461bcd60e51b815260206004820152601860248201527f45434453413a20696e76616c6964207369676e617475726500000000000000006044820152606401610b9a565b6002816004811115614ae257614ae2617569565b03614b2f5760405162461bcd60e51b815260206004820152601f60248201527f45434453413a20696e76616c6964207369676e6174757265206c656e677468006044820152606401610b9a565b6003816004811115614b4357614b43617569565b036112765760405162461bcd60e51b815260206004820152602260248201527f45434453413a20696e76616c6964207369676e6174757265202773272076616c60448201527f75650000000000000000000000000000000000000000000000000000000000006064820152608401610b9a565b8060fd8381548110614bca57614bca616ee7565b600091825260208220018054909190614bee90849067ffffffffffffffff16617598565b92506101000a81548167ffffffffffffffff021916908367ffffffffffffffff1602179055505b6001821115610ca3576000614c2b6002846175b9565b600193841c9390159150819003614cac578160fd8481548110614c5057614c50616ee7565b60009182526020909120018054600890614c8190849068010000000000000000900467ffffffffffffffff16617598565b92506101000a81548167ffffffffffffffff021916908367ffffffffffffffff160217905550614d20565b8160fd8481548110614cc057614cc0616ee7565b60009182526020909120018054601090614cf9908490700100000000000000000000000000000000900467ffffffffffffffff16617598565b92506101000a81548167ffffffffffffffff021916908367ffffffffffffffff1602179055505b50614c15565b60fd54606090600090614d3b90600190616fca565b905080831115614d49578092505b82600003614d67575050604080516000815260208101909152610cb2565b6060604051610a8081016040525060538152600060fd600181548110614d8f57614d8f616ee7565b600091825260208083206040805160608082018352929094015467ffffffffffffffff80821686526801000000000000000082048116868601527001000000000000000000000000000000009091041684820152805160c08101825260018082529381018690529081018590529081018490526080810184905260a0810193909352845191935084918110614e2657614e26616ee7565b60200260200101819052506000600190506000826000015167ffffffffffffffff169050826040015183602001510167ffffffffffffffff168101905060008767ffffffffffffffff811115614e7e57614e7e6161c9565b604051908082528060200260200182016040528015614ea7578160200160208202803683370190505b50965060005b88811015614f735760408051602081018c905290810182905260600160408051601f19818403018152919052805160209091012099506000614eef8385616fca565b614ef9908c6175b9565b9050600080614f0d6001848b60018b615a7e565b63ffffffff8316600090815260fc60205260409020548e51919a509294509092506001600160a01b03909116908c9086908110614f4c57614f4c616ee7565b6001600160a01b039092166020928302919091019091015293909301925050600101614ead565b5050505050505092915050565b60fd54600090614f9290600190616fca565b600081815260fc602052604081205460fd80549394506001600160a01b039091169284908110614fc457614fc4616ee7565b60009182526020909120015467ffffffffffffffff169050614fe6838261584a565b82841461503e57614ff784826149af565b600084815260fc60209081526040808320805473ffffffffffffffffffffffffffffffffffffffff19166001600160a01b038716908117909155835260fb90915290208490555b600083815260fc60209081526040808320805473ffffffffffffffffffffffffffffffffffffffff191690556001600160a01b038816835260fb90915281205560fd80548061508f5761508f61733e565b60008281526020902081017fffffffffffffffffffffffffffffffffffffffffffffffffffffffffffffffff90810180547fffffffffffffffff0000000000000000000000000000000000000000000000001690550190555050505050565b600082600001828154811061510557615105616ee7565b9060005260206000200154905092915050565b805151600090603014801561513257508160200151516030145b801561514357508160400151516030145b6151b55760405162461bcd60e51b815260206004820152602160248201527f41413a57492d5043522076616c756573206d757374206265203438206279746560448201527f73000000000000000000000000000000000000000000000000000000000000006064820152608401610b9a565b60008260000151836020015184604001516040516020016151d893929190617002565b60408051601f198184030181529181528151602092830120600081815260c9909352912080549192509061520b90616f7d565b15905061525a5760405162461bcd60e51b815260206004820152601f60248201527f41413a57492d696d61676520616c72656164792077686974656c6973746564006044820152606401610b9a565b6040805160608101825284518152602080860151818301528583015182840152600084815260c99091529190912081518190615296908261717d565b50602082015160018201906152ab908261717d565b50604082015160028201906152c0908261717d565b50905050807f52b29bbdd97ab983419f50fa1590e5ab75e9942279e95e10a08607b06c23238b846000015185602001518660400151604051615304939291906175cd565b60405180910390a292915050565b60fd5460408051808201909152600181527f3500000000000000000000000000000000000000000000000000000000000000602082015290156153685760405162461bcd60e51b8152600401610b9a919061736d565b506040805160608101825260008082526020820181815292820181815260fd8054600181018255925291517f9346ac6dd7de6b96975fec380d4d994c4c12e6a8897544f22915316cc6cca28090910180549351925167ffffffffffffffff908116700100000000000000000000000000000000027fffffffffffffffff0000000000000000ffffffffffffffffffffffffffffffff94821668010000000000000000027fffffffffffffffffffffffffffffffff0000000000000000000000000000000090961693909116929092179390931791909116179055565b6060610cb26001600160a01b03831660145b60606000615465836002617606565b615470906002617124565b67ffffffffffffffff811115615488576154886161c9565b6040519080825280601f01601f1916602001820160405280156154b2576020820181803683370190505b5090507f3000000000000000000000000000000000000000000000000000000000000000816000815181106154e9576154e9616ee7565b60200101907effffffffffffffffffffffffffffffffffffffffffffffffffffffffffffff1916908160001a9053507f78000000000000000000000000000000000000000000000000000000000000008160018151811061554c5761554c616ee7565b60200101907effffffffffffffffffffffffffffffffffffffffffffffffffffffffffffff1916908160001a9053506000615588846002617606565b615593906001617124565b90505b6001811115615630577f303132333435363738396162636465660000000000000000000000000000000085600f16601081106155d4576155d4616ee7565b1a60f81b8282815181106155ea576155ea616ee7565b60200101907effffffffffffffffffffffffffffffffffffffffffffffffffffffffffffff1916908160001a90535060049490941c936156298161761d565b9050615596565b5083156123725760405162461bcd60e51b815260206004820181905260248201527f537472696e67733a20686578206c656e67746820696e73756666696369656e746044820152606401610b9a565b60008281526065602090815260408083206001600160a01b038516845290915290205460ff16610ca35760008281526065602090815260408083206001600160a01b03851684529091529020805460ff191660011790556156dd3390565b6001600160a01b0316816001600160a01b0316837f2f8788117e7eff1d82e926ec794901d17c78024a50270940304540a733656f0d60405160405180910390a45050565b6000612372836001600160a01b038416615c49565b60008281526065602090815260408083206001600160a01b038516845290915290205460ff1615610ca35760008281526065602090815260408083206001600160a01b0385168085529252808320805460ff1916905551339285917ff6391f5c32d9c69d2a47ea670b442974b53935d1edc7fd64eb21e047a839171b9190a45050565b6000612372836001600160a01b038416615c98565b6157d7816147d7565b6040516001600160a01b038216907fbc7cd75a20ee27fd9adebab32041f755214dbc6bffa90cc0225b39da2e5c2d3b90600090a250565b6060612372838360405180606001604052806027815260200161765360279139615d92565b60606158428484600085615e0a565b949350505050565b8060fd838154811061585e5761585e616ee7565b60009182526020822001805490919061588290849067ffffffffffffffff16617548565b92506101000a81548167ffffffffffffffff021916908367ffffffffffffffff1602179055505b6001821115610ca35760006158bf6002846175b9565b600193841c9390159150819003615940578160fd84815481106158e4576158e4616ee7565b6000918252602090912001805460089061591590849068010000000000000000900467ffffffffffffffff16617548565b92506101000a81548167ffffffffffffffff021916908367ffffffffffffffff1602179055506159b4565b8160fd848154811061595457615954616ee7565b6000918252602090912001805460109061598d908490700100000000000000000000000000000000900467ffffffffffffffff16617548565b92506101000a81548167ffffffffffffffff021916908367ffffffffffffffff1602179055505b506158a9565b6000807f7fffffffffffffffffffffffffffffff5d576e7357a4501ddfe92f46681b20a08311156159f15750600090506003615a75565b6040805160008082526020820180845289905260ff881692820192909252606081018690526080810185905260019060a0016020604051602081039080840390855afa158015615a45573d6000803e3d6000fd5b5050604051601f1901519150506001600160a01b038116615a6e57600060019250925050615a75565b9150600090505b94509492505050565b60008060008060fd8981548110615a9757615a97616ee7565b600091825260208083206040805160608082018352929094015467ffffffffffffffff80821686526801000000000000000082048116868601527001000000000000000000000000000000009091041684820152805160c081018252858152928301859052820184905281018390526080810183905260a081019290925291506020820151825167ffffffffffffffff918216911681018815615b6d57898981518110615b4657615b46616ee7565b60200260200101519250826060015182039150826020015183606001510181039050615b9b565b8b8352895160019098019850889783908b908a908110615b8f57615b8f616ee7565b60200260200101819052505b818b10158015615baa5750808b105b15615c0157836000015167ffffffffffffffff168a8a81518110615bd057615bd0616ee7565b60209081029190910181015101805190910190525050905189945067ffffffffffffffff169250849150615c3e9050565b818b1015615c2a57615c1b8c8c8c86604001518d8d615efc565b96509650965050505050615c3e565b615c1b8c828d038c86608001518d8d615f85565b955095509592505050565b6000818152600183016020526040812054615c9057508154600181810184556000848152602080822090930184905584548482528286019093526040902091909155610cb2565b506000610cb2565b60008181526001830160205260408120548015615d81576000615cbc600183616fca565b8554909150600090615cd090600190616fca565b9050818114615d35576000866000018281548110615cf057615cf0616ee7565b9060005260206000200154905080876000018481548110615d1357615d13616ee7565b6000918252602080832090910192909255918252600188019052604090208390555b8554869080615d4657615d4661733e565b600190038181906000526020600020016000905590558560010160008681526020019081526020016000206000905560019350505050610cb2565b6000915050610cb2565b5092915050565b6060600080856001600160a01b031685604051615daf9190617489565b600060405180830381855af49150503d8060008114615dea576040519150601f19603f3d011682016040523d82523d6000602084013e615def565b606091505b5091509150615e0086838387616011565b9695505050505050565b606082471015615e825760405162461bcd60e51b815260206004820152602660248201527f416464726573733a20696e73756666696369656e742062616c616e636520666f60448201527f722063616c6c00000000000000000000000000000000000000000000000000006064820152608401610b9a565b600080866001600160a01b03168587604051615e9e9190617489565b60006040518083038185875af1925050503d8060008114615edb576040519150601f19603f3d011682016040523d82523d6000602084013e615ee0565b606091505b5091509150615ef187838387616011565b979650505050505050565b600080600080600080615f158c6002028c8c8c8b615a7e565b92509250925088600003615f4a57866001018a8981518110615f3957615f39616ee7565b602002602001015160400181815250505b818a8981518110615f5d57615f5d616ee7565b6020908102919091010151606001805190910190529194509250905096509650969350505050565b600080600080600080615fa18c6002026001018c8c8c8b615a7e565b92509250925088600003615fd657866001018a8981518110615fc557615fc5616ee7565b602002602001015160800181815250505b818a8981518110615fe957615fe9616ee7565b602090810291909101015160a001805190910190529194509250905096509650969350505050565b60608315616080578251600003616079576001600160a01b0385163b6160795760405162461bcd60e51b815260206004820152601d60248201527f416464726573733a2063616c6c20746f206e6f6e2d636f6e74726163740000006044820152606401610b9a565b5081615842565b61584283838151156160955781518083602001fd5b8060405162461bcd60e51b8152600401610b9a919061736d565b5080546160bb90616f7d565b6000825580601f106160cb575050565b601f01602090049060005260206000209081019061127691906161b4565b828054828255906000526020600020908101928215616124579160200282015b82811115616124578251825591602001919060010190616109565b506161309291506161b4565b5090565b508054600082559060005260206000209081019061127691906161b4565b828054828255906000526020600020908101928215616124579160200282015b82811115616124578251825473ffffffffffffffffffffffffffffffffffffffff19166001600160a01b03909116178255602090920191600190910190616172565b5b8082111561613057600081556001016161b5565b7f4e487b7100000000000000000000000000000000000000000000000000000000600052604160045260246000fd5b6040516060810167ffffffffffffffff8111828210171561621b5761621b6161c9565b60405290565b6040805190810167ffffffffffffffff8111828210171561621b5761621b6161c9565b604051601f8201601f1916810167ffffffffffffffff8111828210171561626d5761626d6161c9565b604052919050565b600067ffffffffffffffff82111561628f5761628f6161c9565b5060051b60200190565b600082601f8301126162aa57600080fd5b813560206162bf6162ba83616275565b616244565b82815260059290921b840181019181810190868411156162de57600080fd5b8286015b848110156162f957803583529183019183016162e2565b509695505050505050565b60006020828403121561631657600080fd5b813567ffffffffffffffff81111561632d57600080fd5b61584284828501616299565b6001600160a01b038116811461127657600080fd5b60006020828403121561636057600080fd5b813561237281616339565b60006020828403121561637d57600080fd5b81357fffffffff000000000000000000000000000000000000000000000000000000008116811461237257600080fd5b6000602082840312156163bf57600080fd5b5035919050565b60005b838110156163e15781810151838201526020016163c9565b50506000910152565b600081518084526164028160208601602086016163c6565b601f01601f19169290920160200192915050565b60006101008a83528960208401528060408401526164368184018a6163ea565b6060840198909852505060808101949094526001600160a01b0392831660a0850152911660c083015260ff1660e0909101529392505050565b60208152600082516060602084015261648b60808401826163ea565b90506020840151601f19808584030160408601526164a983836163ea565b92506040860151915080858403016060860152506164c782826163ea565b95945050505050565b600080604083850312156164e357600080fd5b8235915060208301356164f581616339565b809150509250929050565b6000806040838503121561651357600080fd5b50508035926020909101359150565b600067ffffffffffffffff83111561653c5761653c6161c9565b61654f6020601f19601f86011601616244565b905082815283838301111561656357600080fd5b828260208301376000602084830101529392505050565b600082601f83011261658b57600080fd5b61237283833560208501616522565b600080604083850312156165ad57600080fd5b823567ffffffffffffffff808211156165c557600080fd5b6165d18683870161657a565b935060208501359150808211156165e757600080fd5b506165f485828601616299565b9150509250929050565b6000806040838503121561661157600080fd5b823567ffffffffffffffff81111561662857600080fd5b6166348582860161657a565b95602094909401359450505050565b60008060008060008060008060008060006101608c8e03121561666557600080fd5b67ffffffffffffffff808d35111561667c57600080fd5b6166898e8e358f0161657a565b9b508060208e0135111561669c57600080fd5b6166ac8e60208f01358f0161657a565b9a508060408e013511156166bf57600080fd5b6166cf8e60408f01358f0161657a565b99508060608e013511156166e257600080fd5b6166f28e60608f01358f0161657a565b98508060808e0135111561670557600080fd5b6167158e60808f01358f0161657a565b975060a08d0135965060c08d0135955060e08d01359450806101008e0135111561673e57600080fd5b61674f8e6101008f01358f01616299565b9350806101208e0135111561676357600080fd5b506167758d6101208e01358e0161657a565b91506101408c013590509295989b509295989b9093969950565b600080604083850312156167a257600080fd5b82356167ad81616339565b9150602083013567ffffffffffffffff8111156167c957600080fd5b6165f48582860161657a565b600080600080600060a086880312156167ed57600080fd5b853567ffffffffffffffff8082111561680557600080fd5b61681189838a0161657a565b965060208801359550604088013591508082111561682e57600080fd5b5061683b8882890161657a565b93505060608601359150608086013560ff8116811461685957600080fd5b809150509295509295909350565b600080600080600080600060e0888a03121561688257600080fd5b873567ffffffffffffffff8082111561689a57600080fd5b6168a68b838c0161657a565b985060208a0135975060408a0135965060608a0135955060808a01359150808211156168d157600080fd5b506168de8a828b0161657a565b93505060a0880135915060c08801356168f681616339565b8091505092959891949750929550565b600081518084526020808501945080840160005b838110156169365781518752958201959082019060010161691a565b509495945050505050565b60006020808301818452808551808352604092508286019150828160051b87010184880160005b838110156169e7577fffffffffffffffffffffffffffffffffffffffffffffffffffffffffffffffc0898403018552815160806001600160a01b03825116855288820151818a8701526169bd82870182616906565b838a0151878b01526060938401511515939096019290925250509386019390860190600101616968565b509098975050505050505050565b60008060008060008060008060008060006101608c8e031215616a1757600080fd5b67ffffffffffffffff808d351115616a2e57600080fd5b616a3b8e8e358f0161657a565b9b508060208e01351115616a4e57600080fd5b616a5e8e60208f01358f0161657a565b9a508060408e01351115616a7157600080fd5b616a818e60408f01358f0161657a565b99508060608e01351115616a9457600080fd5b616aa48e60608f01358f0161657a565b98508060808e01351115616ab757600080fd5b616ac78e60808f01358f0161657a565b975060a08d0135965060c08d0135955060e08d013594506101008d01359350806101208e0135111561676357600080fd5b600060208284031215616b0a57600080fd5b813567ffffffffffffffff811115616b2157600080fd5b6158428482850161657a565b600080600060608486031215616b4257600080fd5b8335616b4d81616339565b925060208401359150604084013567ffffffffffffffff811115616b7057600080fd5b616b7c8682870161657a565b9150509250925092565b8035616b9181616339565b919050565b600080600080600060a08688031215616bae57600080fd5b616bb88635616339565b8535945067ffffffffffffffff8060208801351115616bd657600080fd5b6020870135870188601f820112616bec57600080fd5b616bf96162ba8235616275565b81358082526020808301929160051b8401018b1015616c1757600080fd5b602083015b6020843560051b850101811015616ce1578481351115616c3b57600080fd5b803584016060601f19828f03011215616c5357600080fd5b616c5b6161f8565b8660208301351115616c6c57600080fd5b616c7e8e60208085013585010161657a565b81528660408301351115616c9157600080fd5b616ca48e6020604085013585010161657a565b60208201528660608301351115616cba57600080fd5b616ccd8e6020606085013585010161657a565b604082015284525060209283019201616c1c565b509650616cf49250505060408701616b86565b94979396509394606081013594506080013592915050565b6001600160a01b038316815260406020820152600061584260408301846163ea565b6000806040808486031215616d4257600080fd5b833567ffffffffffffffff80821115616d5a57600080fd5b616d6687838801616299565b9450602091508186013581811115616d7d57600080fd5b8601601f81018813616d8e57600080fd5b8035616d9c6162ba82616275565b81815260059190911b8201840190848101908a831115616dbb57600080fd5b8584015b83811015616e4e57803586811115616dd75760008081fd5b8501808d03601f1901891315616ded5760008081fd5b616df5616221565b88820135616e0281616339565b8152818a013588811115616e165760008081fd5b8083019250508d603f830112616e2c5760008081fd5b616e3c8e8a8401358c8501616522565b818a0152845250918601918601616dbf565b50809750505050505050509250929050565b60008060008060008060c08789031215616e7957600080fd5b863567ffffffffffffffff80821115616e9157600080fd5b616e9d8a838b0161657a565b97506020890135915080821115616eb357600080fd5b50616ec089828a0161657a565b96999698505050506040850135946060810135946080820135945060a09091013592509050565b7f4e487b7100000000000000000000000000000000000000000000000000000000600052603260045260246000fd5b7f4e487b7100000000000000000000000000000000000000000000000000000000600052601160045260246000fd5b60007fffffffffffffffffffffffffffffffffffffffffffffffffffffffffffffffff8203616f7657616f76616f16565b5060010190565b600181811c90821680616f9157607f821691505b602082108103612028577f4e487b7100000000000000000000000000000000000000000000000000000000600052602260045260246000fd5b81810381811115610cb257610cb2616f16565b606081526000616ff060608301866163ea565b60208301949094525060400152919050565b600084516170148184602089016163c6565b8451908301906170288183602089016163c6565b845191019061703b8183602088016163c6565b0195945050505050565b6020815260006123726020830184616906565b84815260806020820152600061707160808301866163ea565b905083604083015260ff8316606083015295945050505050565b600060ff821660ff81036170a1576170a1616f16565b60010192915050565b6080815260006170bd60808301876163ea565b60208301959095525060ff92831660408201529116606090910152919050565b86815285602082015284604082015260c06060820152600061710260c08301866163ea565b90508360808301526001600160a01b03831660a0830152979650505050505050565b80820180821115610cb257610cb2616f16565b601f82111561101657600081815260208120601f850160051c8101602086101561715e5750805b601f850160051c820191505b8181101561325a5782815560010161716a565b815167ffffffffffffffff811115617197576171976161c9565b6171ab816171a58454616f7d565b84617137565b602080601f8311600181146171fe57600084156171c85750858301515b7fffffffffffffffffffffffffffffffffffffffffffffffffffffffffffffffff600386901b1c1916600185901b17855561325a565b600085815260208120601f198616915b8281101561722d5788860151825594840194600190910190840161720e565b508582101561726957878501517fffffffffffffffffffffffffffffffffffffffffffffffffffffffffffffffff600388901b60f8161c191681555b5050505050600190811b01905550565b86815285602082015260c06040820152600061729860c08301876163ea565b6060830195909552506001600160a01b039283166080820152911660a0909101529392505050565b6040815260006172d360408301856163ea565b90508260208301529392505050565b60006040820184835260206040818501528185548084526060860191508660005282600020935060005b818110156173315784546001600160a01b03168352600194850194928401920161730c565b5090979650505050505050565b7f4e487b7100000000000000000000000000000000000000000000000000000000600052603160045260246000fd5b60208152600061237260208301846163ea565b8381526001600160a01b03831660208201526060604082015260006164c760608301846163ea565b6000602082840312156173ba57600080fd5b5051919050565b7f4e487b7100000000000000000000000000000000000000000000000000000000600052601260045260246000fd5b6000826173ff576173ff6173c1565b500490565b60006101008083526174188184018c6163ea565b9050828103602084015261742c818b6163ea565b90508281036040840152617440818a6163ea565b9050828103606084015261745481896163ea565b9050828103608084015261746881886163ea565b60a0840196909652505060c081019290925260e09091015295945050505050565b6000825161749b8184602087016163c6565b9190910192915050565b7f416363657373436f6e74726f6c3a206163636f756e74200000000000000000008152600083516174dd8160178501602088016163c6565b7f206973206d697373696e6720726f6c6520000000000000000000000000000000601791840191820152835161751a8160288401602088016163c6565b01602801949350505050565b60006020828403121561753857600080fd5b8151801515811461237257600080fd5b67ffffffffffffffff828116828216039080821115615d8b57615d8b616f16565b7f4e487b7100000000000000000000000000000000000000000000000000000000600052602160045260246000fd5b67ffffffffffffffff818116838216019080821115615d8b57615d8b616f16565b6000826175c8576175c86173c1565b500690565b6060815260006175e060608301866163ea565b82810360208401526175f281866163ea565b90508281036040840152615e0081856163ea565b8082028115828204841417610cb257610cb2616f16565b60008161762c5761762c616f16565b507fffffffffffffffffffffffffffffffffffffffffffffffffffffffffffffffff019056fe416464726573733a206c6f772d6c6576656c2064656c65676174652063616c6c206661696c6564a264697066735822122032deacc81af6f6ba4c0f1eb7ebb3bb0eb79789ee9bb21b6163961a34a0ac1a5164736f6c63430008110033",
  "linkReferences": {},
  "deployedLinkReferences": {}
}