{
  "_format": "hh-sol-artifact-1",
  "contractName": "CommonChainGateways",
  "sourceName": "contracts/serverless-v2/CommonChainGateways.sol",
  "abi": [
    {
      "inputs": [
        {
          "internalType": "contract IAttestationVerifier",
          "name": "attestationVerifier",
          "type": "address"
        },
        {
          "internalType": "uint256",
          "name": "maxAge",
          "type": "uint256"
        },
        {
          "internalType": "contract IERC20",
          "name": "_token",
          "type": "address"
        },
        {
          "internalType": "uint256",
          "name": "_deregisterTimeoutDuration",
          "type": "uint256"
        }
      ],
      "stateMutability": "nonpayable",
      "type": "constructor"
    },
    {
      "inputs": [],
      "name": "AccessControlBadConfirmation",
      "type": "error"
    },
    {
      "inputs": [
        {
          "internalType": "address",
          "name": "account",
          "type": "address"
        },
        {
          "internalType": "bytes32",
          "name": "neededRole",
          "type": "bytes32"
        }
      ],
      "name": "AccessControlUnauthorizedAccount",
      "type": "error"
    },
    {
      "inputs": [
        {
          "internalType": "address",
          "name": "target",
          "type": "address"
        }
      ],
      "name": "AddressEmptyCode",
      "type": "error"
    },
    {
      "inputs": [
        {
          "internalType": "address",
          "name": "account",
          "type": "address"
        }
      ],
      "name": "AddressInsufficientBalance",
      "type": "error"
    },
    {
      "inputs": [],
      "name": "AttestationAutherAttestationTooOld",
      "type": "error"
    },
    {
      "inputs": [],
      "name": "AttestationAutherImageNotInFamily",
      "type": "error"
    },
    {
      "inputs": [],
      "name": "AttestationAutherImageNotWhitelisted",
      "type": "error"
    },
    {
      "inputs": [],
      "name": "AttestationAutherKeyNotVerified",
      "type": "error"
    },
    {
      "inputs": [],
      "name": "AttestationAutherMismatchedLengths",
      "type": "error"
    },
    {
      "inputs": [],
      "name": "AttestationAutherPCRsInvalid",
      "type": "error"
    },
    {
      "inputs": [],
      "name": "AttestationAutherPubkeyLengthInvalid",
      "type": "error"
    },
    {
      "inputs": [
        {
          "internalType": "uint256",
          "name": "chainId",
          "type": "uint256"
        }
      ],
      "name": "ChainAlreadyExists",
      "type": "error"
    },
    {
      "inputs": [
        {
          "internalType": "uint256",
          "name": "chainId",
          "type": "uint256"
        }
      ],
      "name": "ChainNotFound",
      "type": "error"
    },
    {
      "inputs": [],
      "name": "DeregisterTimePending",
      "type": "error"
    },
    {
      "inputs": [],
      "name": "ECDSAInvalidSignature",
      "type": "error"
    },
    {
      "inputs": [
        {
          "internalType": "uint256",
          "name": "length",
          "type": "uint256"
        }
      ],
      "name": "ECDSAInvalidSignatureLength",
      "type": "error"
    },
    {
      "inputs": [
        {
          "internalType": "bytes32",
          "name": "s",
          "type": "bytes32"
        }
      ],
      "name": "ECDSAInvalidSignatureS",
      "type": "error"
    },
    {
      "inputs": [
        {
          "internalType": "address",
          "name": "implementation",
          "type": "address"
        }
      ],
      "name": "ERC1967InvalidImplementation",
      "type": "error"
    },
    {
      "inputs": [],
      "name": "ERC1967NonPayable",
      "type": "error"
    },
    {
      "inputs": [],
      "name": "EmptyChainlist",
      "type": "error"
    },
    {
      "inputs": [],
      "name": "EmptyRequestedChains",
      "type": "error"
    },
    {
      "inputs": [],
      "name": "FailedInnerCall",
      "type": "error"
    },
    {
      "inputs": [],
      "name": "GatewayAlreadyExists",
      "type": "error"
    },
    {
      "inputs": [],
      "name": "InvalidEnclaveKey",
      "type": "error"
    },
    {
      "inputs": [],
      "name": "InvalidGatewayOperator",
      "type": "error"
    },
    {
      "inputs": [],
      "name": "InvalidInitialization",
      "type": "error"
    },
    {
      "inputs": [],
      "name": "InvalidLength",
      "type": "error"
    },
    {
      "inputs": [],
      "name": "InvalidStatus",
      "type": "error"
    },
    {
      "inputs": [],
      "name": "NotInitializing",
      "type": "error"
    },
    {
      "inputs": [
        {
          "internalType": "address",
          "name": "token",
          "type": "address"
        }
      ],
      "name": "SafeERC20FailedOperation",
      "type": "error"
    },
    {
      "inputs": [],
      "name": "UUPSUnauthorizedCallContext",
      "type": "error"
    },
    {
      "inputs": [
        {
          "internalType": "bytes32",
          "name": "slot",
          "type": "bytes32"
        }
      ],
      "name": "UUPSUnsupportedProxiableUUID",
      "type": "error"
    },
    {
      "inputs": [],
      "name": "UnsupportedChain",
      "type": "error"
    },
    {
      "inputs": [],
      "name": "ZeroAddressAdmin",
      "type": "error"
    },
    {
      "inputs": [],
      "name": "ZeroAddressToken",
      "type": "error"
    },
    {
      "anonymous": false,
      "inputs": [
        {
          "indexed": true,
          "internalType": "address",
          "name": "enclaveKey",
          "type": "address"
        },
        {
          "indexed": false,
          "internalType": "uint256",
          "name": "chainId",
          "type": "uint256"
        }
      ],
      "name": "ChainAdded",
      "type": "event"
    },
    {
      "anonymous": false,
      "inputs": [
        {
          "indexed": false,
          "internalType": "uint256",
          "name": "chainId",
          "type": "uint256"
        },
        {
          "indexed": false,
          "internalType": "address",
          "name": "contractAddress",
          "type": "address"
        },
        {
          "indexed": false,
          "internalType": "string",
          "name": "httpRpcUrl",
          "type": "string"
        },
        {
          "indexed": false,
          "internalType": "string",
          "name": "wsRpcUrl",
          "type": "string"
        }
      ],
      "name": "ChainAddedGlobal",
      "type": "event"
    },
    {
      "anonymous": false,
      "inputs": [
        {
          "indexed": true,
          "internalType": "address",
          "name": "enclaveKey",
          "type": "address"
        },
        {
          "indexed": false,
          "internalType": "uint256",
          "name": "chainId",
          "type": "uint256"
        }
      ],
      "name": "ChainRemoved",
      "type": "event"
    },
    {
      "anonymous": false,
      "inputs": [
        {
          "indexed": false,
          "internalType": "uint256",
          "name": "chainId",
          "type": "uint256"
        }
      ],
      "name": "ChainRemovedGlobal",
      "type": "event"
    },
    {
      "anonymous": false,
      "inputs": [
        {
          "indexed": true,
          "internalType": "bytes32",
          "name": "imageId",
          "type": "bytes32"
        },
        {
          "indexed": false,
          "internalType": "bytes32",
          "name": "family",
          "type": "bytes32"
        }
      ],
      "name": "EnclaveImageAddedToFamily",
      "type": "event"
    },
    {
      "anonymous": false,
      "inputs": [
        {
          "indexed": true,
          "internalType": "bytes32",
          "name": "imageId",
          "type": "bytes32"
        },
        {
          "indexed": false,
          "internalType": "bytes32",
          "name": "family",
          "type": "bytes32"
        }
      ],
      "name": "EnclaveImageRemovedFromFamily",
      "type": "event"
    },
    {
      "anonymous": false,
      "inputs": [
        {
          "indexed": true,
          "internalType": "bytes32",
          "name": "imageId",
          "type": "bytes32"
        }
      ],
      "name": "EnclaveImageRevoked",
      "type": "event"
    },
    {
      "anonymous": false,
      "inputs": [
        {
          "indexed": true,
          "internalType": "bytes32",
          "name": "imageId",
          "type": "bytes32"
        },
        {
          "indexed": false,
          "internalType": "bytes",
          "name": "PCR0",
          "type": "bytes"
        },
        {
          "indexed": false,
          "internalType": "bytes",
          "name": "PCR1",
          "type": "bytes"
        },
        {
          "indexed": false,
          "internalType": "bytes",
          "name": "PCR2",
          "type": "bytes"
        }
      ],
      "name": "EnclaveImageWhitelisted",
      "type": "event"
    },
    {
      "anonymous": false,
      "inputs": [
        {
          "indexed": true,
          "internalType": "bytes",
          "name": "enclavePubKey",
          "type": "bytes"
        }
      ],
      "name": "EnclaveKeyRevoked",
      "type": "event"
    },
    {
      "anonymous": false,
      "inputs": [
        {
          "indexed": true,
          "internalType": "address",
          "name": "enclaveKey",
          "type": "address"
        }
      ],
      "name": "EnclaveKeyRevoked2",
      "type": "event"
    },
    {
      "anonymous": false,
      "inputs": [
        {
          "indexed": true,
          "internalType": "bytes",
          "name": "enclavePubKey",
          "type": "bytes"
        },
        {
          "indexed": true,
          "internalType": "bytes32",
          "name": "imageId",
          "type": "bytes32"
        }
      ],
      "name": "EnclaveKeyVerified",
      "type": "event"
    },
    {
      "anonymous": false,
      "inputs": [
        {
          "indexed": true,
          "internalType": "bytes",
          "name": "enclavePubKey",
          "type": "bytes"
        },
        {
          "indexed": true,
          "internalType": "bytes32",
          "name": "imageId",
          "type": "bytes32"
        }
      ],
      "name": "EnclaveKeyWhitelisted",
      "type": "event"
    },
    {
      "anonymous": false,
      "inputs": [
        {
          "indexed": true,
          "internalType": "address",
          "name": "enclaveKey",
          "type": "address"
        }
      ],
      "name": "GatewayDeregistered",
      "type": "event"
    },
    {
      "anonymous": false,
      "inputs": [
        {
          "indexed": true,
          "internalType": "address",
          "name": "enclaveKey",
          "type": "address"
        },
        {
          "indexed": true,
          "internalType": "address",
          "name": "operator",
          "type": "address"
        },
        {
          "indexed": false,
          "internalType": "uint256[]",
          "name": "chainIds",
          "type": "uint256[]"
        }
      ],
      "name": "GatewayRegistered",
      "type": "event"
    },
    {
      "anonymous": false,
      "inputs": [
        {
          "indexed": true,
          "internalType": "address",
          "name": "enclaveKey",
          "type": "address"
        },
        {
          "indexed": false,
          "internalType": "uint256",
          "name": "addedAmount",
          "type": "uint256"
        },
        {
          "indexed": false,
          "internalType": "uint256",
          "name": "totalAmount",
          "type": "uint256"
        }
      ],
      "name": "GatewayStakeAdded",
      "type": "event"
    },
    {
      "anonymous": false,
      "inputs": [
        {
          "indexed": true,
          "internalType": "address",
          "name": "enclaveKey",
          "type": "address"
        },
        {
          "indexed": false,
          "internalType": "uint256",
          "name": "removedAmount",
          "type": "uint256"
        },
        {
          "indexed": false,
          "internalType": "uint256",
          "name": "totalAmount",
          "type": "uint256"
        }
      ],
      "name": "GatewayStakeRemoved",
      "type": "event"
    },
    {
      "anonymous": false,
      "inputs": [
        {
          "indexed": false,
          "internalType": "uint64",
          "name": "version",
          "type": "uint64"
        }
      ],
      "name": "Initialized",
      "type": "event"
    },
    {
      "anonymous": false,
      "inputs": [
        {
          "indexed": true,
          "internalType": "bytes32",
          "name": "role",
          "type": "bytes32"
        },
        {
          "indexed": true,
          "internalType": "bytes32",
          "name": "previousAdminRole",
          "type": "bytes32"
        },
        {
          "indexed": true,
          "internalType": "bytes32",
          "name": "newAdminRole",
          "type": "bytes32"
        }
      ],
      "name": "RoleAdminChanged",
      "type": "event"
    },
    {
      "anonymous": false,
      "inputs": [
        {
          "indexed": true,
          "internalType": "bytes32",
          "name": "role",
          "type": "bytes32"
        },
        {
          "indexed": true,
          "internalType": "address",
          "name": "account",
          "type": "address"
        },
        {
          "indexed": true,
          "internalType": "address",
          "name": "sender",
          "type": "address"
        }
      ],
      "name": "RoleGranted",
      "type": "event"
    },
    {
      "anonymous": false,
      "inputs": [
        {
          "indexed": true,
          "internalType": "bytes32",
          "name": "role",
          "type": "bytes32"
        },
        {
          "indexed": true,
          "internalType": "address",
          "name": "account",
          "type": "address"
        },
        {
          "indexed": true,
          "internalType": "address",
          "name": "sender",
          "type": "address"
        }
      ],
      "name": "RoleRevoked",
      "type": "event"
    },
    {
      "anonymous": false,
      "inputs": [
        {
          "indexed": true,
          "internalType": "address",
          "name": "implementation",
          "type": "address"
        }
      ],
      "name": "Upgraded",
      "type": "event"
    },
    {
      "inputs": [],
      "name": "ATTESTATION_MAX_AGE",
      "outputs": [
        {
          "internalType": "uint256",
          "name": "",
          "type": "uint256"
        }
      ],
      "stateMutability": "view",
      "type": "function"
    },
    {
      "inputs": [],
      "name": "ATTESTATION_VERIFIER",
      "outputs": [
        {
          "internalType": "contract IAttestationVerifier",
          "name": "",
          "type": "address"
        }
      ],
      "stateMutability": "view",
      "type": "function"
    },
    {
      "inputs": [],
      "name": "DEFAULT_ADMIN_ROLE",
      "outputs": [
        {
          "internalType": "bytes32",
          "name": "",
          "type": "bytes32"
        }
      ],
      "stateMutability": "view",
      "type": "function"
    },
    {
      "inputs": [],
      "name": "DEREGISTER_TIMEOUT_DURATION",
      "outputs": [
        {
          "internalType": "uint256",
          "name": "",
          "type": "uint256"
        }
      ],
      "stateMutability": "view",
      "type": "function"
    },
    {
      "inputs": [],
      "name": "TOKEN",
      "outputs": [
        {
          "internalType": "contract IERC20",
          "name": "",
          "type": "address"
        }
      ],
      "stateMutability": "view",
      "type": "function"
    },
    {
      "inputs": [],
      "name": "UPGRADE_INTERFACE_VERSION",
      "outputs": [
        {
          "internalType": "string",
          "name": "",
          "type": "string"
        }
      ],
      "stateMutability": "view",
      "type": "function"
    },
    {
      "inputs": [
        {
          "internalType": "address",
          "name": "_admin",
          "type": "address"
        },
        {
          "components": [
            {
              "internalType": "bytes",
              "name": "PCR0",
              "type": "bytes"
            },
            {
              "internalType": "bytes",
              "name": "PCR1",
              "type": "bytes"
            },
            {
              "internalType": "bytes",
              "name": "PCR2",
              "type": "bytes"
            }
          ],
          "internalType": "struct AttestationAutherUpgradeable.EnclaveImage[]",
          "name": "_images",
          "type": "tuple[]"
        }
      ],
      "name": "__CommonChainGateways_init",
      "outputs": [],
      "stateMutability": "nonpayable",
      "type": "function"
    },
    {
      "inputs": [
        {
          "internalType": "uint256[]",
          "name": "_chainIds",
          "type": "uint256[]"
        },
        {
          "components": [
            {
              "internalType": "address",
              "name": "contractAddress",
              "type": "address"
            },
            {
              "internalType": "string",
              "name": "httpRpcUrl",
              "type": "string"
            },
            {
              "internalType": "string",
              "name": "wsRpcUrl",
              "type": "string"
            }
          ],
          "internalType": "struct CommonChainGateways.RequestChain[]",
          "name": "_requestChains",
          "type": "tuple[]"
        }
      ],
      "name": "addChainGlobal",
      "outputs": [],
      "stateMutability": "nonpayable",
      "type": "function"
    },
    {
      "inputs": [
        {
          "internalType": "bytes",
          "name": "_enclavePubKey",
          "type": "bytes"
        },
        {
          "internalType": "uint256[]",
          "name": "_chainIds",
          "type": "uint256[]"
        }
      ],
      "name": "addChains",
      "outputs": [],
      "stateMutability": "nonpayable",
      "type": "function"
    },
    {
      "inputs": [
        {
          "internalType": "bytes",
          "name": "_enclavePubKey",
          "type": "bytes"
        },
        {
          "internalType": "uint256",
          "name": "_amount",
          "type": "uint256"
        }
      ],
      "name": "addGatewayStake",
      "outputs": [],
      "stateMutability": "nonpayable",
      "type": "function"
    },
    {
      "inputs": [
        {
          "internalType": "address",
          "name": "_key",
          "type": "address"
        }
      ],
      "name": "allowOnlyVerified",
      "outputs": [],
      "stateMutability": "view",
      "type": "function"
    },
    {
      "inputs": [
        {
          "internalType": "bytes",
          "name": "_enclavePubKey",
          "type": "bytes"
        }
      ],
      "name": "completeDegistration",
      "outputs": [],
      "stateMutability": "nonpayable",
      "type": "function"
    },
    {
      "inputs": [
        {
          "internalType": "bytes",
          "name": "_enclavePubKey",
          "type": "bytes"
        }
      ],
      "name": "deregisterGateway",
      "outputs": [],
      "stateMutability": "nonpayable",
      "type": "function"
    },
    {
      "inputs": [
        {
          "internalType": "address",
          "name": "",
          "type": "address"
        }
      ],
      "name": "gateways",
      "outputs": [
        {
          "internalType": "address",
          "name": "operator",
          "type": "address"
        },
        {
          "internalType": "uint256",
          "name": "stakeAmount",
          "type": "uint256"
        },
        {
          "internalType": "uint256",
          "name": "deregisterStartTime",
          "type": "uint256"
        },
        {
          "internalType": "bool",
          "name": "status",
          "type": "bool"
        }
      ],
      "stateMutability": "view",
      "type": "function"
    },
    {
      "inputs": [
        {
          "internalType": "bytes32",
          "name": "role",
          "type": "bytes32"
        }
      ],
      "name": "getRoleAdmin",
      "outputs": [
        {
          "internalType": "bytes32",
          "name": "",
          "type": "bytes32"
        }
      ],
      "stateMutability": "view",
      "type": "function"
    },
    {
      "inputs": [
        {
          "internalType": "address",
          "name": "_key",
          "type": "address"
        }
      ],
      "name": "getVerifiedKey",
      "outputs": [
        {
          "internalType": "bytes32",
          "name": "",
          "type": "bytes32"
        }
      ],
      "stateMutability": "view",
      "type": "function"
    },
    {
      "inputs": [
        {
          "internalType": "bytes32",
          "name": "_imageId",
          "type": "bytes32"
        }
      ],
      "name": "getWhitelistedImage",
      "outputs": [
        {
          "components": [
            {
              "internalType": "bytes",
              "name": "PCR0",
              "type": "bytes"
            },
            {
              "internalType": "bytes",
              "name": "PCR1",
              "type": "bytes"
            },
            {
              "internalType": "bytes",
              "name": "PCR2",
              "type": "bytes"
            }
          ],
          "internalType": "struct AttestationAutherUpgradeable.EnclaveImage",
          "name": "",
          "type": "tuple"
        }
      ],
      "stateMutability": "view",
      "type": "function"
    },
    {
      "inputs": [
        {
          "internalType": "bytes32",
          "name": "role",
          "type": "bytes32"
        },
        {
          "internalType": "address",
          "name": "account",
          "type": "address"
        }
      ],
      "name": "grantRole",
      "outputs": [],
      "stateMutability": "nonpayable",
      "type": "function"
    },
    {
      "inputs": [
        {
          "internalType": "bytes32",
          "name": "role",
          "type": "bytes32"
        },
        {
          "internalType": "address",
          "name": "account",
          "type": "address"
        }
      ],
      "name": "hasRole",
      "outputs": [
        {
          "internalType": "bool",
          "name": "",
          "type": "bool"
        }
      ],
      "stateMutability": "view",
      "type": "function"
    },
    {
      "inputs": [
        {
          "internalType": "uint256",
          "name": "_reqChainId",
          "type": "uint256"
        }
      ],
      "name": "isChainSupported",
      "outputs": [
        {
          "internalType": "bool",
          "name": "",
          "type": "bool"
        }
      ],
      "stateMutability": "view",
      "type": "function"
    },
    {
      "inputs": [
        {
          "internalType": "bytes32",
          "name": "imageId",
          "type": "bytes32"
        },
        {
          "internalType": "bytes32",
          "name": "family",
          "type": "bytes32"
        }
      ],
      "name": "isImageInFamily",
      "outputs": [
        {
          "internalType": "bool",
          "name": "",
          "type": "bool"
        }
      ],
      "stateMutability": "view",
      "type": "function"
    },
    {
      "inputs": [],
      "name": "proxiableUUID",
      "outputs": [
        {
          "internalType": "bytes32",
          "name": "",
          "type": "bytes32"
        }
      ],
      "stateMutability": "view",
      "type": "function"
    },
    {
      "inputs": [
        {
          "internalType": "bytes",
          "name": "_attestation",
          "type": "bytes"
        },
        {
          "internalType": "bytes",
          "name": "_enclavePubKey",
          "type": "bytes"
        },
        {
          "internalType": "bytes",
          "name": "_PCR0",
          "type": "bytes"
        },
        {
          "internalType": "bytes",
          "name": "_PCR1",
          "type": "bytes"
        },
        {
          "internalType": "bytes",
          "name": "_PCR2",
          "type": "bytes"
        },
        {
          "internalType": "uint256",
          "name": "_timestampInMilliseconds",
          "type": "uint256"
        },
        {
          "internalType": "uint256[]",
          "name": "_chainIds",
          "type": "uint256[]"
        },
        {
          "internalType": "bytes",
          "name": "_signature",
          "type": "bytes"
        },
        {
          "internalType": "uint256",
          "name": "_stakeAmount",
          "type": "uint256"
        }
      ],
      "name": "registerGateway",
      "outputs": [],
      "stateMutability": "nonpayable",
      "type": "function"
    },
    {
      "inputs": [
        {
          "internalType": "uint256[]",
          "name": "_chainIds",
          "type": "uint256[]"
        }
      ],
      "name": "removeChainGlobal",
      "outputs": [],
      "stateMutability": "nonpayable",
      "type": "function"
    },
    {
      "inputs": [
        {
          "internalType": "bytes",
          "name": "_enclavePubKey",
          "type": "bytes"
        },
        {
          "internalType": "uint256[]",
          "name": "_chainIds",
          "type": "uint256[]"
        }
      ],
      "name": "removeChains",
      "outputs": [],
      "stateMutability": "nonpayable",
      "type": "function"
    },
    {
      "inputs": [
        {
          "internalType": "bytes",
          "name": "_enclavePubKey",
          "type": "bytes"
        },
        {
          "internalType": "uint256",
          "name": "_amount",
          "type": "uint256"
        }
      ],
      "name": "removeGatewayStake",
      "outputs": [],
      "stateMutability": "nonpayable",
      "type": "function"
    },
    {
      "inputs": [
        {
          "internalType": "bytes32",
          "name": "role",
          "type": "bytes32"
        },
        {
          "internalType": "address",
          "name": "callerConfirmation",
          "type": "address"
        }
      ],
      "name": "renounceRole",
      "outputs": [],
      "stateMutability": "nonpayable",
      "type": "function"
    },
    {
      "inputs": [
        {
          "internalType": "uint256",
          "name": "",
          "type": "uint256"
        }
      ],
      "name": "requestChains",
      "outputs": [
        {
          "internalType": "address",
          "name": "contractAddress",
          "type": "address"
        },
        {
          "internalType": "string",
          "name": "httpRpcUrl",
          "type": "string"
        },
        {
          "internalType": "string",
          "name": "wsRpcUrl",
          "type": "string"
        }
      ],
      "stateMutability": "view",
      "type": "function"
    },
    {
      "inputs": [
        {
          "internalType": "bytes32",
          "name": "role",
          "type": "bytes32"
        },
        {
          "internalType": "address",
          "name": "account",
          "type": "address"
        }
      ],
      "name": "revokeRole",
      "outputs": [],
      "stateMutability": "nonpayable",
      "type": "function"
    },
    {
      "inputs": [
        {
          "internalType": "bytes4",
          "name": "interfaceId",
          "type": "bytes4"
        }
      ],
      "name": "supportsInterface",
      "outputs": [
        {
          "internalType": "bool",
          "name": "",
          "type": "bool"
        }
      ],
      "stateMutability": "view",
      "type": "function"
    },
    {
      "inputs": [
        {
          "internalType": "address",
          "name": "newImplementation",
          "type": "address"
        },
        {
          "internalType": "bytes",
          "name": "data",
          "type": "bytes"
        }
      ],
      "name": "upgradeToAndCall",
      "outputs": [],
      "stateMutability": "payable",
      "type": "function"
    },
    {
      "inputs": [
        {
          "internalType": "bytes",
          "name": "signature",
          "type": "bytes"
        },
        {
          "components": [
            {
              "internalType": "bytes",
              "name": "enclavePubKey",
              "type": "bytes"
            },
            {
              "internalType": "bytes",
              "name": "PCR0",
              "type": "bytes"
            },
            {
              "internalType": "bytes",
              "name": "PCR1",
              "type": "bytes"
            },
            {
              "internalType": "bytes",
              "name": "PCR2",
              "type": "bytes"
            },
            {
              "internalType": "uint256",
              "name": "timestampInMilliseconds",
              "type": "uint256"
            }
          ],
          "internalType": "struct IAttestationVerifier.Attestation",
          "name": "attestation",
          "type": "tuple"
        }
      ],
      "name": "verifyEnclaveKey",
      "outputs": [
        {
          "internalType": "bool",
          "name": "",
          "type": "bool"
        }
      ],
      "stateMutability": "nonpayable",
      "type": "function"
    }
  ],
  "bytecode": "0x6101206040523060805234801561001557600080fd5b506040516141c93803806141c983398101604081905261003491610156565b6001600160a01b03841660a05260c083905261004e61008f565b6001600160a01b038216610075576040516314f28f2b60e01b815260040160405180910390fd5b6001600160a01b0390911660e052610100525061019f9050565b7ff0c57e16840df040f15088dc2f81fe391c3923bec73e23a9662efc9c229c6a00805468010000000000000000900460ff16156100df5760405163f92ee8a960e01b815260040160405180910390fd5b80546001600160401b039081161461013e5780546001600160401b0319166001600160401b0390811782556040519081527fc7f505b2f371ae2175ee4913f4499e1f2633a7b5936321eed1cdaeb6115181d29060200160405180910390a15b50565b6001600160a01b038116811461013e57600080fd5b6000806000806080858703121561016c57600080fd5b845161017781610141565b60208601516040870151919550935061018f81610141565b6060959095015193969295505050565b60805160a05160c05160e05161010051613fbc61020d600039600081816107280152610dd60152600081816104a90152818161119e01526112dd0152600081816105d50152612226015260006106d4015260008181611ecb01528181611ef401526120a90152613fbc6000f3fe6080604052600436106101e35760003560e01c80639022c19c11610102578063cd79f90611610095578063ec6aef2911610064578063ec6aef291461076a578063edc1c0df1461078a578063ee61a8d5146107b9578063f2462ba6146107d957600080fd5b8063cd79f906146106c2578063d547741f146106f6578063d8ffd00214610716578063e0aba60a1461074a57600080fd5b8063a0ac45d5116100d1578063a0ac45d514610617578063a217fddf14610637578063ad3cb1cc1461064c578063cc101e00146106a257600080fd5b80639022c19c146104e357806391d148541461055e5780639aec990e146105c35780639c01de41146105f757600080fd5b80634f1ef2861161017a5780635690e1cc116101495780635690e1cc146103fe5780636b5b21a61461041e57806375847b841461047757806382bfefc81461049757600080fd5b80634f1ef2861461037e5780635221c1f01461039157806352d1902d146103c9578063549220d9146103de57600080fd5b8063248a9ca3116101b6578063248a9ca3146102cf5780632f2ff15d1461031e57806336568abe1461033e5780634abc64c21461035e57600080fd5b80630167847b146101e857806301d58fa31461020a57806301ffc9a7146102725780632410f6ba146102a2575b600080fd5b3480156101f457600080fd5b506102086102033660046132eb565b6107f9565b005b34801561021657600080fd5b5061025f610225366004613344565b6001600160a01b031660009081527fc17b4b708b6f44255c20913a9d97a05300b670342c71fe5ae5b617bd4db55001602052604090205490565b6040519081526020015b60405180910390f35b34801561027e57600080fd5b5061029261028d36600461335f565b610900565b6040519015158152602001610269565b3480156102ae57600080fd5b506102c26102bd3660046133a1565b610911565b604051610269919061340a565b3480156102db57600080fd5b5061025f6102ea3660046133a1565b60009081527f02dd7bc7dec4dceedda775e58dd541e08a116c6c53815c0bd028192f7b626800602052604090206001015490565b34801561032a57600080fd5b50610208610339366004613462565b610b2f565b34801561034a57600080fd5b50610208610359366004613462565b610b79565b34801561036a57600080fd5b506102086103793660046134fe565b610bc5565b61020861038c366004613562565b610ca0565b34801561039d57600080fd5b506102926103ac3660046133a1565b6000908152602081905260409020546001600160a01b0316151590565b3480156103d557600080fd5b5061025f610cbf565b3480156103ea57600080fd5b506102086103f93660046135a6565b610cee565b34801561040a57600080fd5b506102086104193660046135db565b610ec2565b34801561042a57600080fd5b5061029261043936600461370a565b60009081527fc17b4b708b6f44255c20913a9d97a05300b670342c71fe5ae5b617bd4db5500260209081526040808320938352929052205460ff1690565b34801561048357600080fd5b5061029261049236600461372c565b611124565b3480156104a357600080fd5b506104cb7f000000000000000000000000000000000000000000000000000000000000000081565b6040516001600160a01b039091168152602001610269565b3480156104ef57600080fd5b506105326104fe366004613344565b60016020526000908152604090208054600282015460038301546004909301546001600160a01b0390921692909160ff1684565b604080516001600160a01b03909516855260208501939093529183015215156060820152608001610269565b34801561056a57600080fd5b50610292610579366004613462565b60009182527f02dd7bc7dec4dceedda775e58dd541e08a116c6c53815c0bd028192f7b626800602090815260408084206001600160a01b0393909316845291905290205460ff1690565b3480156105cf57600080fd5b5061025f7f000000000000000000000000000000000000000000000000000000000000000081565b34801561060357600080fd5b50610208610612366004613836565b611137565b34801561062357600080fd5b50610208610632366004613344565b61126a565b34801561064357600080fd5b5061025f600081565b34801561065857600080fd5b506106956040518060400160405280600581526020017f352e302e3000000000000000000000000000000000000000000000000000000081525081565b604051610269919061387b565b3480156106ae57600080fd5b506102086106bd366004613836565b611276565b3480156106ce57600080fd5b506104cb7f000000000000000000000000000000000000000000000000000000000000000081565b34801561070257600080fd5b50610208610711366004613462565b61139d565b34801561072257600080fd5b5061025f7f000000000000000000000000000000000000000000000000000000000000000081565b34801561075657600080fd5b506102086107653660046135a6565b6113e1565b34801561077657600080fd5b506102086107853660046134fe565b611517565b34801561079657600080fd5b506107aa6107a53660046133a1565b6115eb565b6040516102699392919061388e565b3480156107c557600080fd5b506102086107d43660046138c2565b611728565b3480156107e557600080fd5b506102086107f4366004613a08565b611915565b600061080481611a76565b815160000361083f576040517f947d5a8400000000000000000000000000000000000000000000000000000000815260040160405180910390fd5b60005b82518110156108fb57600083828151811061085f5761085f613b38565b6020908102919091018101516000818152918290526040822080547fffffffffffffffffffffffff0000000000000000000000000000000000000000168155909250906108af60018301826130f4565b6108bd6002830160006130f4565b50506040518181527f5b9dc40648bfe840de770df10081e79f179534343348da4087dea77ba584d1819060200160405180910390a150600101610842565b505050565b600061090b82611a80565b92915050565b61093560405180606001604052806060815260200160608152602001606081525090565b60008281527fc17b4b708b6f44255c20913a9d97a05300b670342c71fe5ae5b617bd4db55000602081905260409182902082516060810190935280549192918290829061098190613b67565b80601f01602080910402602001604051908101604052809291908181526020018280546109ad90613b67565b80156109fa5780601f106109cf576101008083540402835291602001916109fa565b820191906000526020600020905b8154815290600101906020018083116109dd57829003601f168201915b50505050508152602001600182018054610a1390613b67565b80601f0160208091040260200160405190810160405280929190818152602001828054610a3f90613b67565b8015610a8c5780601f10610a6157610100808354040283529160200191610a8c565b820191906000526020600020905b815481529060010190602001808311610a6f57829003601f168201915b50505050508152602001600282018054610aa590613b67565b80601f0160208091040260200160405190810160405280929190818152602001828054610ad190613b67565b8015610b1e5780601f10610af357610100808354040283529160200191610b1e565b820191906000526020600020905b815481529060010190602001808311610b0157829003601f168201915b505050505081525050915050919050565b60008281527f02dd7bc7dec4dceedda775e58dd541e08a116c6c53815c0bd028192f7b6268006020526040902060010154610b6981611a76565b610b738383611b17565b50505050565b6001600160a01b0381163314610bbb576040517f6697b23200000000000000000000000000000000000000000000000000000000815260040160405180910390fd5b6108fb8282611c04565b816000610bd182611cc8565b6001600160a01b03808216600090815260016020526040902054919250163314610c27576040517f0c87f49500000000000000000000000000000000000000000000000000000000815260040160405180910390fd5b8251600003610c62576040517fa36817ae00000000000000000000000000000000000000000000000000000000815260040160405180910390fd5b60005b8351811015610c9957610c9185858381518110610c8457610c84613b38565b6020026020010151611d11565b600101610c65565b5050505050565b610ca8611ec0565b610cb182611f92565b610cbb8282611f9d565b5050565b6000610cc961209e565b507f360894a13ba1a3210667c828492db98dca3e2076cc3735a920a3ca505d382bbc90565b806000610cfa82611cc8565b6001600160a01b03808216600090815260016020526040902054919250163314610d50576040517f0c87f49500000000000000000000000000000000000000000000000000000000815260040160405180910390fd5b6000610d5b84611cc8565b6001600160a01b03811660009081526001602052604090206004015490915060ff1615610db4576040517ff525e32000000000000000000000000000000000000000000000000000000000815260040160405180910390fd5b6001600160a01b038116600090815260016020526040902060030154610dfb907f000000000000000000000000000000000000000000000000000000000000000090613be9565b4211610e33576040517f4f703b6400000000000000000000000000000000000000000000000000000000815260040160405180910390fd5b6001600160a01b0381166000908152600160208190526040822080547fffffffffffffffffffffffff00000000000000000000000000000000000000001681559190610e819083018261312e565b50600060028201819055600382015560040180547fffffffffffffffffffffffffffffffffffffffffffffffffffffffffffffff00169055610c9984612100565b610ef2896040518060a001604052808b81526020018a81526020018981526020018881526020018781525061216b565b50610efd838361233c565b6000610f0889611cc8565b6001600160a01b038082166000908152600160205260409020549192501615610f5d576040517f5104a0b800000000000000000000000000000000000000000000000000000000815260040160405180910390fd5b60005b8451811015610fec5760006001600160a01b0316600080878481518110610f8957610f89613b38565b6020908102919091018101518252810191909152604001600020546001600160a01b031603610fe4576040517fd21eab3700000000000000000000000000000000000000000000000000000000815260040160405180910390fd5b600101610f60565b506040518060a00160405280610fff3390565b6001600160a01b0390811682526020808301889052604080840187905260006060850181905260016080909501859052868416815284835220845181547fffffffffffffffffffffffff000000000000000000000000000000000000000016931692909217825583810151805192936110809390850192919091019061314c565b506040820151600282015560608201516003820155608090910151600490910180547fffffffffffffffffffffffffffffffffffffffffffffffffffffffffffffff0016911515919091179055336001600160a01b0316816001600160a01b03167f1586eae4013456779cf6b481c0cc4c5eba08765933b33ad4109e869b1505dcc3866040516111109190613bfc565b60405180910390a350505050505050505050565b6000611130838361216b565b9392505050565b81600061114382611cc8565b6001600160a01b03808216600090815260016020526040902054919250163314611199576040517f0c87f49500000000000000000000000000000000000000000000000000000000815260040160405180910390fd5b6111ce7f00000000000000000000000000000000000000000000000000000000000000006001600160a01b0316333086612380565b60006111d985611cc8565b6001600160a01b038116600090815260016020526040812060020180549293508692909190611209908490613be9565b90915550506001600160a01b038116600081815260016020908152604091829020600201548251888152918201527f7937866df5a212734c901da8bbe229fc15d215eefcae93db8f3c078ec7c96cdb91015b60405180910390a25050505050565b611273816123fc565b50565b81600061128282611cc8565b6001600160a01b038082166000908152600160205260409020549192501633146112d8576040517f0c87f49500000000000000000000000000000000000000000000000000000000815260040160405180910390fd5b61130c7f00000000000000000000000000000000000000000000000000000000000000006001600160a01b031633856124e1565b600061131785611cc8565b6001600160a01b038116600090815260016020526040812060020180549293508692909190611347908490613c40565b90915550506001600160a01b038116600081815260016020908152604091829020600201548251888152918201527f119c3b6037d5e5f7261862a1a205a0c5577c7df134fcd0d2663f2c65cf02679c910161125b565b60008281527f02dd7bc7dec4dceedda775e58dd541e08a116c6c53815c0bd028192f7b62680060205260409020600101546113d781611a76565b610b738383611c04565b8060006113ed82611cc8565b6001600160a01b03808216600090815260016020526040902054919250163314611443576040517f0c87f49500000000000000000000000000000000000000000000000000000000815260040160405180910390fd5b600061144e84611cc8565b6001600160a01b03808216600090815260016020526040902054919250166114a2576040517fd283335d00000000000000000000000000000000000000000000000000000000815260040160405180910390fd5b6001600160a01b0381166000818152600160205260408082206004810180547fffffffffffffffffffffffffffffffffffffffffffffffffffffffffffffff0016905542600390910155517f962f6082057b3b4fb251973bd737c7707bf1733cf85a0b7c86fd6c3caca260c59190a250505050565b81600061152382611cc8565b6001600160a01b03808216600090815260016020526040902054919250163314611579576040517f0c87f49500000000000000000000000000000000000000000000000000000000815260040160405180910390fd5b82516000036115b4576040517fa36817ae00000000000000000000000000000000000000000000000000000000815260040160405180910390fd5b60005b8351811015610c99576115e3858583815181106115d6576115d6613b38565b6020026020010151612512565b6001016115b7565b600060208190529081526040902080546001820180546001600160a01b03909216929161161790613b67565b80601f016020809104026020016040519081016040528092919081815260200182805461164390613b67565b80156116905780601f1061166557610100808354040283529160200191611690565b820191906000526020600020905b81548152906001019060200180831161167357829003601f168201915b5050505050908060020180546116a590613b67565b80601f01602080910402602001604051908101604052809291908181526020018280546116d190613b67565b801561171e5780601f106116f35761010080835404028352916020019161171e565b820191906000526020600020905b81548152906001019060200180831161170157829003601f168201915b5050505050905083565b7ff0c57e16840df040f15088dc2f81fe391c3923bec73e23a9662efc9c229c6a00805468010000000000000000810460ff16159067ffffffffffffffff166000811580156117735750825b905060008267ffffffffffffffff1660011480156117905750303b155b90508115801561179e575080155b156117d5576040517ff92ee8a900000000000000000000000000000000000000000000000000000000815260040160405180910390fd5b84547fffffffffffffffffffffffffffffffffffffffffffffffff000000000000000016600117855583156118365784547fffffffffffffffffffffffffffffffffffffffffffffff00ffffffffffffffff16680100000000000000001785555b6001600160a01b038716611876576040517f6e24c5d600000000000000000000000000000000000000000000000000000000815260040160405180910390fd5b61187e612770565b611886612770565b61188e612770565b611896612770565b61189f86612778565b6118aa600088611b17565b50831561190c5784547fffffffffffffffffffffffffffffffffffffffffffffff00ffffffffffffffff168555604051600181527fc7f505b2f371ae2175ee4913f4499e1f2633a7b5936321eed1cdaeb6115181d29060200160405180910390a15b50505050505050565b600061192081611a76565b8251158061193057508151835114155b15611967576040517f947d5a8400000000000000000000000000000000000000000000000000000000815260040160405180910390fd5b60005b8251811015610b7357600083828151811061198757611987613b38565b6020026020010151905060008583815181106119a5576119a5613b38565b602090810291909101810151600081815280835260409020845181547fffffffffffffffffffffffff0000000000000000000000000000000000000000166001600160a01b03909116178155918401519092508391906001820190611a0a9082613ca3565b5060408201516002820190611a1f9082613ca3565b509050507fe922b6f5bfe72eedf674b3926c477da7df7d374a47cff7cb8d1779e22657c55c81836000015184602001518560400151604051611a649493929190613d9f565b60405180910390a1505060010161196a565b61127381336127b8565b60007fffffffff0000000000000000000000000000000000000000000000000000000082167f7965db0b00000000000000000000000000000000000000000000000000000000148061090b57507f01ffc9a7000000000000000000000000000000000000000000000000000000007fffffffff0000000000000000000000000000000000000000000000000000000083161461090b565b60008281527f02dd7bc7dec4dceedda775e58dd541e08a116c6c53815c0bd028192f7b626800602081815260408084206001600160a01b038616855290915282205460ff16611bfa576000848152602082815260408083206001600160a01b0387168452909152902080547fffffffffffffffffffffffffffffffffffffffffffffffffffffffffffffff00166001179055611bb03390565b6001600160a01b0316836001600160a01b0316857f2f8788117e7eff1d82e926ec794901d17c78024a50270940304540a733656f0d60405160405180910390a4600191505061090b565b600091505061090b565b60008281527f02dd7bc7dec4dceedda775e58dd541e08a116c6c53815c0bd028192f7b626800602081815260408084206001600160a01b038616855290915282205460ff1615611bfa576000848152602082815260408083206001600160a01b038716808552925280832080547fffffffffffffffffffffffffffffffffffffffffffffffffffffffffffffff0016905551339287917ff6391f5c32d9c69d2a47ea670b442974b53935d1edc7fd64eb21e047a839171b9190a4600191505061090b565b60008151604014611d05576040517fbd9c80c100000000000000000000000000000000000000000000000000000000815260040160405180910390fd5b50805160209091012090565b6000818152602081905260409020546001600160a01b0316611d5f576040517fd21eab3700000000000000000000000000000000000000000000000000000000815260040160405180910390fd5b6000611d6a83611cc8565b9050600060016000836001600160a01b03166001600160a01b03168152602001908152602001600020600101805480602002602001604051908101604052809291908181526020018280548015611de057602002820191906000526020600020905b815481526020019060010190808311611dcc575b5050505050905060005b8151811015611e555783828281518110611e0657611e06613b38565b602002602001015103611e4d576040517f625fc3a6000000000000000000000000000000000000000000000000000000008152600481018590526024015b60405180910390fd5b600101611dea565b506001600160a01b03821660008181526001602081815260408084208301805493840181558452922001859055517fbae667a7ed97b338409582b4ff8ba4ae0c912d2a80fbd7153d9f5f12e136de7790611eb29086815260200190565b60405180910390a250505050565b306001600160a01b037f0000000000000000000000000000000000000000000000000000000000000000161480611f5957507f00000000000000000000000000000000000000000000000000000000000000006001600160a01b0316611f4d7f360894a13ba1a3210667c828492db98dca3e2076cc3735a920a3ca505d382bbc546001600160a01b031690565b6001600160a01b031614155b15611f90576040517fe07c8dba00000000000000000000000000000000000000000000000000000000815260040160405180910390fd5b565b6000610cbb81611a76565b816001600160a01b03166352d1902d6040518163ffffffff1660e01b8152600401602060405180830381865afa925050508015611ff7575060408051601f3d908101601f19168201909252611ff491810190613de4565b60015b612038576040517f4c9c8ce30000000000000000000000000000000000000000000000000000000081526001600160a01b0383166004820152602401611e44565b7f360894a13ba1a3210667c828492db98dca3e2076cc3735a920a3ca505d382bbc8114612094576040517faa1d49a400000000000000000000000000000000000000000000000000000000815260048101829052602401611e44565b6108fb8383612845565b306001600160a01b037f00000000000000000000000000000000000000000000000000000000000000001614611f90576040517fe07c8dba00000000000000000000000000000000000000000000000000000000815260040160405180910390fd5b60008061210c83611cc8565b90506121178161289b565b6121245750600092915050565b826040516121329190613dfd565b604051908190038120907ff910fd78b98e9574e8b6f0e42bc3a996a6aba3776ec20b9d85515bd74a6c8fe990600090a250600192915050565b6000807fc17b4b708b6f44255c20913a9d97a05300b670342c71fe5ae5b617bd4db55000905060008360200151846040015185606001516040516020016121b493929190613e19565b60408051601f19818403018152918152815160209283012060008181529285905291208054919250906121e690613b67565b9050600003612221576040517f38c4ac1600000000000000000000000000000000000000000000000000000000815260040160405180910390fd5b61224b7f000000000000000000000000000000000000000000000000000000000000000042613c40565b6103e8856080015161225d9190613e5c565b11612294576040517f19605e0a00000000000000000000000000000000000000000000000000000000815260040160405180910390fd5b60006122a38560000151611cc8565b6001600160a01b0381166000908152600185016020526040902054909150156122d2576000935050505061090b565b6001600160a01b03811660009081526001840160205260409081902083905585519051839161230091613dfd565b604051908190038120907ff4837f1a66a1e5fbde2c40d0f6eff75183139e79b0fc1eaab280a3a0be38e7b190600090a350600195945050505050565b60008260405160200161234f9190613e97565b60408051601f19818403018152919052805160209091012090506000612375828461294e565b9050610b73816123fc565b6040516001600160a01b038481166024830152838116604483015260648201839052610b739186918216906323b872dd906084015b604051602081830303815290604052915060e01b6020820180517bffffffffffffffffffffffffffffffffffffffffffffffffffffffff8381831617835250505050612978565b6001600160a01b03811660009081527fc17b4b708b6f44255c20913a9d97a05300b670342c71fe5ae5b617bd4db5500160205260409020547fc17b4b708b6f44255c20913a9d97a05300b670342c71fe5ae5b617bd4db55000908061248d576040517f3dd8ca9500000000000000000000000000000000000000000000000000000000815260040160405180910390fd5b600081815260208390526040902080546124a690613b67565b90506000036108fb576040517f38c4ac1600000000000000000000000000000000000000000000000000000000815260040160405180910390fd5b6040516001600160a01b038381166024830152604482018390526108fb91859182169063a9059cbb906064016123b5565b600061251d83611cc8565b9050600060016000836001600160a01b03166001600160a01b0316815260200190815260200160002060010180548060200260200160405190810160405280929190818152602001828054801561259357602002820191906000526020600020905b81548152602001906001019080831161257f575b50505050509050600081519050806000036125da576040517f5be6f44600000000000000000000000000000000000000000000000000000000815260040160405180910390fd5b60005b8181101561260e57848382815181106125f8576125f8613b38565b6020026020010151031561260e576001016125dd565b81811461264a576040517f4a7f43fa00000000000000000000000000000000000000000000000000000000815260048101869052602401611e44565b612655600183613c40565b81146126e4576001600160a01b03841660009081526001602081905260409091208101906126839084613c40565b8154811061269357612693613b38565b906000526020600020015460016000866001600160a01b03166001600160a01b0316815260200190815260200160002060010182815481106126d7576126d7613b38565b6000918252602090912001555b6001600160a01b03841660009081526001602081905260409091200180548061270f5761270f613ecd565b60019003818190600052602060002001600090559055836001600160a01b03167f3cfa750f6651a5d0226cb438c747adef8f00c35cce0a6951071f99aac90cc8cc8660405161276091815260200190565b60405180910390a2505050505050565b611f906129f4565b6127806129f4565b60005b8151811015610cbb576127ae8282815181106127a1576127a1613b38565b6020026020010151612a5b565b5050600101612783565b60008281527f02dd7bc7dec4dceedda775e58dd541e08a116c6c53815c0bd028192f7b626800602090815260408083206001600160a01b038516845290915290205460ff16610cbb576040517fe2517d3f0000000000000000000000000000000000000000000000000000000081526001600160a01b038216600482015260248101839052604401611e44565b61284e82612c03565b6040516001600160a01b038316907fbc7cd75a20ee27fd9adebab32041f755214dbc6bffa90cc0225b39da2e5c2d3b90600090a2805115612893576108fb8282612cab565b610cbb612d21565b6001600160a01b03811660009081527fc17b4b708b6f44255c20913a9d97a05300b670342c71fe5ae5b617bd4db5500160205260408120547fc17b4b708b6f44255c20913a9d97a05300b670342c71fe5ae5b617bd4db55000906129025750600092915050565b6001600160a01b0383166000818152600183016020526040808220829055517f43c77bddb18405fd78819d1d0a8a4e38d3ebc4c6fae9f7ec04ae0c0f7527b5079190a250600192915050565b60008060008061295e8686612d59565b92509250925061296e8282612da6565b5090949350505050565b600061298d6001600160a01b03841683612eaa565b905080516000141580156129b25750808060200190518101906129b09190613efc565b155b156108fb576040517f5274afe70000000000000000000000000000000000000000000000000000000081526001600160a01b0384166004820152602401611e44565b7ff0c57e16840df040f15088dc2f81fe391c3923bec73e23a9662efc9c229c6a005468010000000000000000900460ff16611f90576040517fd7e6bcf800000000000000000000000000000000000000000000000000000000815260040160405180910390fd5b80515160009081907fc17b4b708b6f44255c20913a9d97a05300b670342c71fe5ae5b617bd4db55000906030148015612a9957508360200151516030145b8015612aaa57508360400151516030145b612ae0576040517f84c61bb600000000000000000000000000000000000000000000000000000000815260040160405180910390fd5b6000846000015185602001518660400151604051602001612b0393929190613e19565b60408051601f1981840301815291815281516020928301206000818152928590529120805491925090612b3590613b67565b159050612b4757946000945092505050565b60408051606081018252865181526020808801518183015287830151828401526000848152908590529190912081518190612b829082613ca3565b5060208201516001820190612b979082613ca3565b5060408201516002820190612bac9082613ca3565b50905050807f52b29bbdd97ab983419f50fa1590e5ab75e9942279e95e10a08607b06c23238b866000015187602001518860400151604051612bf093929190613f1e565b60405180910390a2946001945092505050565b806001600160a01b03163b600003612c52576040517f4c9c8ce30000000000000000000000000000000000000000000000000000000081526001600160a01b0382166004820152602401611e44565b7f360894a13ba1a3210667c828492db98dca3e2076cc3735a920a3ca505d382bbc80547fffffffffffffffffffffffff0000000000000000000000000000000000000000166001600160a01b0392909216919091179055565b6060600080846001600160a01b031684604051612cc89190613dfd565b600060405180830381855af49150503d8060008114612d03576040519150601f19603f3d011682016040523d82523d6000602084013e612d08565b606091505b5091509150612d18858383612eb8565b95945050505050565b3415611f90576040517fb398979f00000000000000000000000000000000000000000000000000000000815260040160405180910390fd5b60008060008351604103612d935760208401516040850151606086015160001a612d8588828585612f2d565b955095509550505050612d9f565b50508151600091506002905b9250925092565b6000826003811115612dba57612dba613f57565b03612dc3575050565b6001826003811115612dd757612dd7613f57565b03612e0e576040517ff645eedf00000000000000000000000000000000000000000000000000000000815260040160405180910390fd5b6002826003811115612e2257612e22613f57565b03612e5c576040517ffce698f700000000000000000000000000000000000000000000000000000000815260048101829052602401611e44565b6003826003811115612e7057612e70613f57565b03610cbb576040517fd78bce0c00000000000000000000000000000000000000000000000000000000815260048101829052602401611e44565b606061113083836000612ffc565b606082612ecd57612ec8826130b2565b611130565b8151158015612ee457506001600160a01b0384163b155b15612f26576040517f9996b3150000000000000000000000000000000000000000000000000000000081526001600160a01b0385166004820152602401611e44565b5092915050565b600080807f7fffffffffffffffffffffffffffffff5d576e7357a4501ddfe92f46681b20a0841115612f685750600091506003905082612ff2565b604080516000808252602082018084528a905260ff891692820192909252606081018790526080810186905260019060a0016020604051602081039080840390855afa158015612fbc573d6000803e3d6000fd5b5050604051601f1901519150506001600160a01b038116612fe857506000925060019150829050612ff2565b9250600091508190505b9450945094915050565b60608147101561303a576040517fcd786059000000000000000000000000000000000000000000000000000000008152306004820152602401611e44565b600080856001600160a01b031684866040516130569190613dfd565b60006040518083038185875af1925050503d8060008114613093576040519150601f19603f3d011682016040523d82523d6000602084013e613098565b606091505b50915091506130a8868383612eb8565b9695505050505050565b8051156130c25780518082602001fd5b6040517f1425ea4200000000000000000000000000000000000000000000000000000000815260040160405180910390fd5b50805461310090613b67565b6000825580601f10613110575050565b601f0160209004906000526020600020908101906112739190613197565b50805460008255906000526020600020908101906112739190613197565b828054828255906000526020600020908101928215613187579160200282015b8281111561318757825182559160200191906001019061316c565b50613193929150613197565b5090565b5b808211156131935760008155600101613198565b7f4e487b7100000000000000000000000000000000000000000000000000000000600052604160045260246000fd5b60405160a0810167ffffffffffffffff811182821017156131fe576131fe6131ac565b60405290565b6040516060810167ffffffffffffffff811182821017156131fe576131fe6131ac565b604051601f8201601f1916810167ffffffffffffffff81118282101715613250576132506131ac565b604052919050565b600067ffffffffffffffff821115613272576132726131ac565b5060051b60200190565b600082601f83011261328d57600080fd5b813560206132a261329d83613258565b613227565b8083825260208201915060208460051b8701019350868411156132c457600080fd5b602086015b848110156132e057803583529183019183016132c9565b509695505050505050565b6000602082840312156132fd57600080fd5b813567ffffffffffffffff81111561331457600080fd5b6133208482850161327c565b949350505050565b80356001600160a01b038116811461333f57600080fd5b919050565b60006020828403121561335657600080fd5b61113082613328565b60006020828403121561337157600080fd5b81357fffffffff000000000000000000000000000000000000000000000000000000008116811461113057600080fd5b6000602082840312156133b357600080fd5b5035919050565b60005b838110156133d55781810151838201526020016133bd565b50506000910152565b600081518084526133f68160208601602086016133ba565b601f01601f19169290920160200192915050565b60208152600082516060602084015261342660808401826133de565b90506020840151601f198085840301604086015261344483836133de565b9250604086015191508085840301606086015250612d1882826133de565b6000806040838503121561347557600080fd5b8235915061348560208401613328565b90509250929050565b600082601f83011261349f57600080fd5b813567ffffffffffffffff8111156134b9576134b96131ac565b6134cc6020601f19601f84011601613227565b8181528460208386010111156134e157600080fd5b816020850160208301376000918101602001919091529392505050565b6000806040838503121561351157600080fd5b823567ffffffffffffffff8082111561352957600080fd5b6135358683870161348e565b9350602085013591508082111561354b57600080fd5b506135588582860161327c565b9150509250929050565b6000806040838503121561357557600080fd5b61357e83613328565b9150602083013567ffffffffffffffff81111561359a57600080fd5b6135588582860161348e565b6000602082840312156135b857600080fd5b813567ffffffffffffffff8111156135cf57600080fd5b6133208482850161348e565b60008060008060008060008060006101208a8c0312156135fa57600080fd5b893567ffffffffffffffff8082111561361257600080fd5b61361e8d838e0161348e565b9a5060208c013591508082111561363457600080fd5b6136408d838e0161348e565b995060408c013591508082111561365657600080fd5b6136628d838e0161348e565b985060608c013591508082111561367857600080fd5b6136848d838e0161348e565b975060808c013591508082111561369a57600080fd5b6136a68d838e0161348e565b965060a08c0135955060c08c01359150808211156136c357600080fd5b6136cf8d838e0161327c565b945060e08c01359150808211156136e557600080fd5b506136f28c828d0161348e565b9250506101008a013590509295985092959850929598565b6000806040838503121561371d57600080fd5b50508035926020909101359150565b6000806040838503121561373f57600080fd5b823567ffffffffffffffff8082111561375757600080fd5b6137638683870161348e565b9350602085013591508082111561377957600080fd5b9084019060a0828703121561378d57600080fd5b6137956131db565b8235828111156137a457600080fd5b6137b08882860161348e565b8252506020830135828111156137c557600080fd5b6137d18882860161348e565b6020830152506040830135828111156137e957600080fd5b6137f58882860161348e565b60408301525060608301358281111561380d57600080fd5b6138198882860161348e565b606083015250608083013560808201528093505050509250929050565b6000806040838503121561384957600080fd5b823567ffffffffffffffff81111561386057600080fd5b61386c8582860161348e565b95602094909401359450505050565b60208152600061113060208301846133de565b6001600160a01b03841681526060602082015260006138b060608301856133de565b82810360408401526130a881856133de565b600080604083850312156138d557600080fd5b6138de83613328565b915060208084013567ffffffffffffffff808211156138fc57600080fd5b818601915086601f83011261391057600080fd5b813561391e61329d82613258565b81815260059190911b8301840190848101908983111561393d57600080fd5b8585015b838110156139f7578035858111156139595760008081fd5b86016060818d03601f19018113156139715760008081fd5b613979613204565b898301358881111561398b5760008081fd5b6139998f8c8387010161348e565b8252506040830135888111156139af5760008081fd5b6139bd8f8c8387010161348e565b828c0152509082013590878211156139d55760008081fd5b6139e38e8b8486010161348e565b604082015285525050918601918601613941565b508096505050505050509250929050565b60008060408385031215613a1b57600080fd5b823567ffffffffffffffff80821115613a3357600080fd5b613a3f8683870161327c565b9350602091508185013581811115613a5657600080fd5b8501601f81018713613a6757600080fd5b8035613a7561329d82613258565b81815260059190911b82018401908481019089831115613a9457600080fd5b8584015b838110156139f757803586811115613ab05760008081fd5b85016060818d03601f1901811315613ac85760008081fd5b613ad0613204565b613adb8a8401613328565b8152604083013589811115613af05760008081fd5b613afe8f8c8387010161348e565b828c015250908201359088821115613b165760008081fd5b613b248e8b8486010161348e565b604082015285525050918601918601613a98565b7f4e487b7100000000000000000000000000000000000000000000000000000000600052603260045260246000fd5b600181811c90821680613b7b57607f821691505b602082108103613bb4577f4e487b7100000000000000000000000000000000000000000000000000000000600052602260045260246000fd5b50919050565b7f4e487b7100000000000000000000000000000000000000000000000000000000600052601160045260246000fd5b8082018082111561090b5761090b613bba565b6020808252825182820181905260009190848201906040850190845b81811015613c3457835183529284019291840191600101613c18565b50909695505050505050565b8181038181111561090b5761090b613bba565b601f8211156108fb576000816000526020600020601f850160051c81016020861015613c7c5750805b601f850160051c820191505b81811015613c9b57828155600101613c88565b505050505050565b815167ffffffffffffffff811115613cbd57613cbd6131ac565b613cd181613ccb8454613b67565b84613c53565b602080601f831160018114613d245760008415613cee5750858301515b7fffffffffffffffffffffffffffffffffffffffffffffffffffffffffffffffff600386901b1c1916600185901b178555613c9b565b600085815260208120601f198616915b82811015613d5357888601518255948401946001909101908401613d34565b5085821015613d8f57878501517fffffffffffffffffffffffffffffffffffffffffffffffffffffffffffffffff600388901b60f8161c191681555b5050505050600190811b01905550565b8481526001600160a01b0384166020820152608060408201526000613dc760808301856133de565b8281036060840152613dd981856133de565b979650505050505050565b600060208284031215613df657600080fd5b5051919050565b60008251613e0f8184602087016133ba565b9190910192915050565b60008451613e2b8184602089016133ba565b845190830190613e3f8183602089016133ba565b8451910190613e528183602088016133ba565b0195945050505050565b600082613e92577f4e487b7100000000000000000000000000000000000000000000000000000000600052601260045260246000fd5b500490565b815160009082906020808601845b83811015613ec157815185529382019390820190600101613ea5565b50929695505050505050565b7f4e487b7100000000000000000000000000000000000000000000000000000000600052603160045260246000fd5b600060208284031215613f0e57600080fd5b8151801515811461113057600080fd5b606081526000613f3160608301866133de565b8281036020840152613f4381866133de565b905082810360408401526130a881856133de565b7f4e487b7100000000000000000000000000000000000000000000000000000000600052602160045260246000fdfea26469706673582212202c6450877ad3b210288a2343a24be684977533b1f3fc976220aba2ae96670fdd64736f6c63430008190033",
  "linkReferences": {},
  "deployedLinkReferences": {}
}