{
  "_format": "hh-sol-artifact-1",
  "contractName": "CommonChainContract",
  "sourceName": "contracts/serverless-v2/CommonChainContract.sol",
  "abi": [
    {
      "inputs": [
        {
          "internalType": "contract IAttestationVerifier",
          "name": "attestationVerifier",
          "type": "address"
        },
        {
          "internalType": "uint256",
          "name": "maxAge",
          "type": "uint256"
        }
      ],
      "stateMutability": "nonpayable",
      "type": "constructor"
    },
    {
      "anonymous": false,
      "inputs": [
        {
          "indexed": false,
          "internalType": "address",
          "name": "previousAdmin",
          "type": "address"
        },
        {
          "indexed": false,
          "internalType": "address",
          "name": "newAdmin",
          "type": "address"
        }
      ],
      "name": "AdminChanged",
      "type": "event"
    },
    {
      "anonymous": false,
      "inputs": [
        {
          "indexed": true,
          "internalType": "address",
          "name": "beacon",
          "type": "address"
        }
      ],
      "name": "BeaconUpgraded",
      "type": "event"
    },
    {
      "anonymous": false,
      "inputs": [
        {
          "indexed": false,
          "internalType": "bytes",
          "name": "enclavePubKey",
          "type": "bytes"
        },
        {
          "indexed": false,
          "internalType": "uint256",
          "name": "chainId",
          "type": "uint256"
        }
      ],
      "name": "ChainAdded",
      "type": "event"
    },
    {
      "anonymous": false,
      "inputs": [
        {
          "indexed": false,
          "internalType": "uint256",
          "name": "chainId",
          "type": "uint256"
        },
        {
          "indexed": false,
          "internalType": "address",
          "name": "contractAddress",
          "type": "address"
        },
        {
          "indexed": false,
          "internalType": "string",
          "name": "rpcUrl",
          "type": "string"
        }
      ],
      "name": "ChainAddedGlobal",
      "type": "event"
    },
    {
      "anonymous": false,
      "inputs": [
        {
          "indexed": false,
          "internalType": "bytes",
          "name": "enclavePubKey",
          "type": "bytes"
        },
        {
          "indexed": false,
          "internalType": "uint256",
          "name": "chainId",
          "type": "uint256"
        }
      ],
      "name": "ChainRemoved",
      "type": "event"
    },
    {
      "anonymous": false,
      "inputs": [
        {
          "indexed": false,
          "internalType": "uint256",
          "name": "chainId",
          "type": "uint256"
        }
      ],
      "name": "ChainRemovedGlobal",
      "type": "event"
    },
    {
      "anonymous": false,
      "inputs": [
        {
          "indexed": true,
          "internalType": "bytes32",
          "name": "imageId",
          "type": "bytes32"
        }
      ],
      "name": "EnclaveImageRevoked",
      "type": "event"
    },
    {
      "anonymous": false,
      "inputs": [
        {
          "indexed": true,
          "internalType": "bytes32",
          "name": "imageId",
          "type": "bytes32"
        },
        {
          "indexed": false,
          "internalType": "bytes",
          "name": "PCR0",
          "type": "bytes"
        },
        {
          "indexed": false,
          "internalType": "bytes",
          "name": "PCR1",
          "type": "bytes"
        },
        {
          "indexed": false,
          "internalType": "bytes",
          "name": "PCR2",
          "type": "bytes"
        }
      ],
      "name": "EnclaveImageWhitelisted",
      "type": "event"
    },
    {
      "anonymous": false,
      "inputs": [
        {
          "indexed": true,
          "internalType": "bytes",
          "name": "enclavePubKey",
          "type": "bytes"
        }
      ],
      "name": "EnclaveKeyRevoked",
      "type": "event"
    },
    {
      "anonymous": false,
      "inputs": [
        {
          "indexed": true,
          "internalType": "bytes",
          "name": "enclavePubKey",
          "type": "bytes"
        },
        {
          "indexed": true,
          "internalType": "bytes32",
          "name": "imageId",
          "type": "bytes32"
        }
      ],
      "name": "EnclaveKeyVerified",
      "type": "event"
    },
    {
      "anonymous": false,
      "inputs": [
        {
          "indexed": true,
          "internalType": "bytes",
          "name": "enclavePubKey",
          "type": "bytes"
        },
        {
          "indexed": true,
          "internalType": "bytes32",
          "name": "imageId",
          "type": "bytes32"
        }
      ],
      "name": "EnclaveKeyWhitelisted",
      "type": "event"
    },
    {
      "anonymous": false,
      "inputs": [
        {
          "indexed": false,
          "internalType": "bytes",
          "name": "enclavePubKey",
          "type": "bytes"
        }
      ],
      "name": "ExecutorDeregistered",
      "type": "event"
    },
    {
      "anonymous": false,
      "inputs": [
        {
          "indexed": false,
          "internalType": "bytes",
          "name": "enclavePubKey",
          "type": "bytes"
        },
        {
          "indexed": true,
          "internalType": "address",
          "name": "enclaveAddress",
          "type": "address"
        },
        {
          "indexed": true,
          "internalType": "address",
          "name": "operator",
          "type": "address"
        }
      ],
      "name": "ExecutorRegistered",
      "type": "event"
    },
    {
      "anonymous": false,
      "inputs": [
        {
          "indexed": false,
          "internalType": "bytes",
          "name": "enclavePubKey",
          "type": "bytes"
        },
        {
          "indexed": false,
          "internalType": "uint256",
          "name": "addedAmount",
          "type": "uint256"
        },
        {
          "indexed": false,
          "internalType": "uint256",
          "name": "totalAmount",
          "type": "uint256"
        }
      ],
      "name": "ExecutorStakeAdded",
      "type": "event"
    },
    {
      "anonymous": false,
      "inputs": [
        {
          "indexed": false,
          "internalType": "bytes",
          "name": "enclavePubKey",
          "type": "bytes"
        },
        {
          "indexed": false,
          "internalType": "uint256",
          "name": "removedAmount",
          "type": "uint256"
        },
        {
          "indexed": false,
          "internalType": "uint256",
          "name": "totalAmount",
          "type": "uint256"
        }
      ],
      "name": "ExecutorStakeRemoved",
      "type": "event"
    },
    {
      "anonymous": false,
      "inputs": [
        {
          "indexed": false,
          "internalType": "bytes",
          "name": "enclavePubKey",
          "type": "bytes"
        }
      ],
      "name": "GatewayDeregistered",
      "type": "event"
    },
    {
      "anonymous": false,
      "inputs": [
        {
          "indexed": false,
          "internalType": "uint256",
          "name": "jobId",
          "type": "uint256"
        },
        {
          "indexed": true,
          "internalType": "address",
          "name": "prevGatewayOperator",
          "type": "address"
        },
        {
          "indexed": true,
          "internalType": "address",
          "name": "newGatewayOperator",
          "type": "address"
        }
      ],
      "name": "GatewayReassigned",
      "type": "event"
    },
    {
      "anonymous": false,
      "inputs": [
        {
          "indexed": false,
          "internalType": "bytes",
          "name": "enclavePubKey",
          "type": "bytes"
        },
        {
          "indexed": true,
          "internalType": "address",
          "name": "enclaveAddress",
          "type": "address"
        },
        {
          "indexed": true,
          "internalType": "address",
          "name": "operator",
          "type": "address"
        }
      ],
      "name": "GatewayRegistered",
      "type": "event"
    },
    {
      "anonymous": false,
      "inputs": [
        {
          "indexed": false,
          "internalType": "bytes",
          "name": "enclavePubKey",
          "type": "bytes"
        },
        {
          "indexed": false,
          "internalType": "uint256",
          "name": "addedAmount",
          "type": "uint256"
        },
        {
          "indexed": false,
          "internalType": "uint256",
          "name": "totalAmount",
          "type": "uint256"
        }
      ],
      "name": "GatewayStakeAdded",
      "type": "event"
    },
    {
      "anonymous": false,
      "inputs": [
        {
          "indexed": false,
          "internalType": "bytes",
          "name": "enclavePubKey",
          "type": "bytes"
        },
        {
          "indexed": false,
          "internalType": "uint256",
          "name": "removedAmount",
          "type": "uint256"
        },
        {
          "indexed": false,
          "internalType": "uint256",
          "name": "totalAmount",
          "type": "uint256"
        }
      ],
      "name": "GatewayStakeRemoved",
      "type": "event"
    },
    {
      "anonymous": false,
      "inputs": [
        {
          "indexed": false,
          "internalType": "uint8",
          "name": "version",
          "type": "uint8"
        }
      ],
      "name": "Initialized",
      "type": "event"
    },
    {
      "anonymous": false,
      "inputs": [
        {
          "indexed": true,
          "internalType": "uint256",
          "name": "jobId",
          "type": "uint256"
        },
        {
          "indexed": false,
          "internalType": "uint256",
          "name": "reqChainId",
          "type": "uint256"
        },
        {
          "indexed": false,
          "internalType": "bytes32",
          "name": "codehash",
          "type": "bytes32"
        },
        {
          "indexed": false,
          "internalType": "bytes",
          "name": "codeInputs",
          "type": "bytes"
        },
        {
          "indexed": false,
          "internalType": "uint256",
          "name": "deadline",
          "type": "uint256"
        },
        {
          "indexed": false,
          "internalType": "address",
          "name": "jobOwner",
          "type": "address"
        },
        {
          "indexed": false,
          "internalType": "address",
          "name": "gatewayOperator",
          "type": "address"
        }
      ],
      "name": "JobRelayed",
      "type": "event"
    },
    {
      "anonymous": false,
      "inputs": [
        {
          "indexed": true,
          "internalType": "uint256",
          "name": "jobId",
          "type": "uint256"
        },
        {
          "indexed": false,
          "internalType": "bytes",
          "name": "output",
          "type": "bytes"
        },
        {
          "indexed": false,
          "internalType": "uint256",
          "name": "totalTime",
          "type": "uint256"
        },
        {
          "indexed": false,
          "internalType": "uint256",
          "name": "errorCode",
          "type": "uint256"
        },
        {
          "indexed": false,
          "internalType": "uint8",
          "name": "outputCount",
          "type": "uint8"
        }
      ],
      "name": "JobResponded",
      "type": "event"
    },
    {
      "anonymous": false,
      "inputs": [
        {
          "indexed": true,
          "internalType": "bytes32",
          "name": "role",
          "type": "bytes32"
        },
        {
          "indexed": true,
          "internalType": "bytes32",
          "name": "previousAdminRole",
          "type": "bytes32"
        },
        {
          "indexed": true,
          "internalType": "bytes32",
          "name": "newAdminRole",
          "type": "bytes32"
        }
      ],
      "name": "RoleAdminChanged",
      "type": "event"
    },
    {
      "anonymous": false,
      "inputs": [
        {
          "indexed": true,
          "internalType": "bytes32",
          "name": "role",
          "type": "bytes32"
        },
        {
          "indexed": true,
          "internalType": "address",
          "name": "account",
          "type": "address"
        },
        {
          "indexed": true,
          "internalType": "address",
          "name": "sender",
          "type": "address"
        }
      ],
      "name": "RoleGranted",
      "type": "event"
    },
    {
      "anonymous": false,
      "inputs": [
        {
          "indexed": true,
          "internalType": "bytes32",
          "name": "role",
          "type": "bytes32"
        },
        {
          "indexed": true,
          "internalType": "address",
          "name": "account",
          "type": "address"
        },
        {
          "indexed": true,
          "internalType": "address",
          "name": "sender",
          "type": "address"
        }
      ],
      "name": "RoleRevoked",
      "type": "event"
    },
    {
      "anonymous": false,
      "inputs": [
        {
          "indexed": false,
          "internalType": "uint256",
          "name": "jobId",
          "type": "uint256"
        },
        {
          "indexed": false,
          "internalType": "address[]",
          "name": "executors",
          "type": "address[]"
        }
      ],
      "name": "SlashedOnExecutionTimeout",
      "type": "event"
    },
    {
      "anonymous": false,
      "inputs": [
        {
          "indexed": true,
          "internalType": "address",
          "name": "implementation",
          "type": "address"
        }
      ],
      "name": "Upgraded",
      "type": "event"
    },
    {
      "inputs": [],
      "name": "ATTESTATION_MAX_AGE",
      "outputs": [
        {
          "internalType": "uint256",
          "name": "",
          "type": "uint256"
        }
      ],
      "stateMutability": "view",
      "type": "function"
    },
    {
      "inputs": [],
      "name": "ATTESTATION_VERIFIER",
      "outputs": [
        {
          "internalType": "contract IAttestationVerifier",
          "name": "",
          "type": "address"
        }
      ],
      "stateMutability": "view",
      "type": "function"
    },
    {
      "inputs": [],
      "name": "DEFAULT_ADMIN_ROLE",
      "outputs": [
        {
          "internalType": "bytes32",
          "name": "",
          "type": "bytes32"
        }
      ],
      "stateMutability": "view",
      "type": "function"
    },
    {
      "inputs": [
        {
          "internalType": "address",
          "name": "_admin",
          "type": "address"
        },
        {
          "components": [
            {
              "internalType": "bytes",
              "name": "PCR0",
              "type": "bytes"
            },
            {
              "internalType": "bytes",
              "name": "PCR1",
              "type": "bytes"
            },
            {
              "internalType": "bytes",
              "name": "PCR2",
              "type": "bytes"
            }
          ],
          "internalType": "struct AttestationAutherUpgradeable.EnclaveImage[]",
          "name": "_images",
          "type": "tuple[]"
        },
        {
          "internalType": "contract IERC20",
          "name": "_token",
          "type": "address"
        },
        {
          "internalType": "uint256",
          "name": "_executionBufferTime",
          "type": "uint256"
        },
        {
          "internalType": "uint256",
          "name": "_noOfNodesToSelect",
          "type": "uint256"
        }
      ],
      "name": "__CommonChainContract_init",
      "outputs": [],
      "stateMutability": "nonpayable",
      "type": "function"
    },
    {
      "inputs": [
        {
          "internalType": "bytes",
          "name": "_enclavePubKey",
          "type": "bytes"
        },
        {
          "internalType": "uint256",
          "name": "_chainId",
          "type": "uint256"
        }
      ],
      "name": "addChain",
      "outputs": [],
      "stateMutability": "nonpayable",
      "type": "function"
    },
    {
      "inputs": [
        {
          "internalType": "uint256[]",
          "name": "_chainIds",
          "type": "uint256[]"
        },
        {
          "components": [
            {
              "internalType": "address",
              "name": "contractAddress",
              "type": "address"
            },
            {
              "internalType": "string",
              "name": "rpcUrl",
              "type": "string"
            }
          ],
          "internalType": "struct CommonChainContract.RequestChain[]",
          "name": "_requestChains",
          "type": "tuple[]"
        }
      ],
      "name": "addChainGlobal",
      "outputs": [],
      "stateMutability": "nonpayable",
      "type": "function"
    },
    {
      "inputs": [
        {
          "internalType": "bytes",
          "name": "_enclavePubKey",
          "type": "bytes"
        },
        {
          "internalType": "uint256[]",
          "name": "_chainIds",
          "type": "uint256[]"
        }
      ],
      "name": "addChains",
      "outputs": [],
      "stateMutability": "nonpayable",
      "type": "function"
    },
    {
      "inputs": [
        {
          "internalType": "bytes",
          "name": "_enclavePubKey",
          "type": "bytes"
        },
        {
          "internalType": "uint256",
          "name": "_amount",
          "type": "uint256"
        }
      ],
      "name": "addExecutorStake",
      "outputs": [],
      "stateMutability": "nonpayable",
      "type": "function"
    },
    {
      "inputs": [
        {
          "internalType": "bytes",
          "name": "_enclavePubKey",
          "type": "bytes"
        },
        {
          "internalType": "uint256",
          "name": "_amount",
          "type": "uint256"
        }
      ],
      "name": "addGatewayStake",
      "outputs": [],
      "stateMutability": "nonpayable",
      "type": "function"
    },
    {
      "inputs": [
        {
          "internalType": "address",
          "name": "",
          "type": "address"
        }
      ],
      "name": "addressToIndexMap",
      "outputs": [
        {
          "internalType": "uint256",
          "name": "",
          "type": "uint256"
        }
      ],
      "stateMutability": "view",
      "type": "function"
    },
    {
      "inputs": [
        {
          "internalType": "bytes",
          "name": "_enclavePubKey",
          "type": "bytes"
        }
      ],
      "name": "deregisterExecutor",
      "outputs": [],
      "stateMutability": "nonpayable",
      "type": "function"
    },
    {
      "inputs": [
        {
          "internalType": "bytes",
          "name": "_enclavePubKey",
          "type": "bytes"
        }
      ],
      "name": "deregisterGateway",
      "outputs": [],
      "stateMutability": "nonpayable",
      "type": "function"
    },
    {
      "inputs": [],
      "name": "executionBufferTime",
      "outputs": [
        {
          "internalType": "uint256",
          "name": "",
          "type": "uint256"
        }
      ],
      "stateMutability": "view",
      "type": "function"
    },
    {
      "inputs": [
        {
          "internalType": "address",
          "name": "",
          "type": "address"
        }
      ],
      "name": "executors",
      "outputs": [
        {
          "internalType": "address",
          "name": "operator",
          "type": "address"
        },
        {
          "internalType": "uint256",
          "name": "jobCapacity",
          "type": "uint256"
        },
        {
          "internalType": "uint256",
          "name": "activeJobs",
          "type": "uint256"
        },
        {
          "internalType": "uint256",
          "name": "stakeAmount",
          "type": "uint256"
        },
        {
          "internalType": "bool",
          "name": "status",
          "type": "bool"
        }
      ],
      "stateMutability": "view",
      "type": "function"
    },
    {
      "inputs": [
        {
          "internalType": "uint256",
          "name": "",
          "type": "uint256"
        }
      ],
      "name": "gatewayAddresses",
      "outputs": [
        {
          "internalType": "address",
          "name": "",
          "type": "address"
        }
      ],
      "stateMutability": "view",
      "type": "function"
    },
    {
      "inputs": [
        {
          "internalType": "address",
          "name": "",
          "type": "address"
        }
      ],
      "name": "gateways",
      "outputs": [
        {
          "internalType": "address",
          "name": "operator",
          "type": "address"
        },
        {
          "internalType": "uint256",
          "name": "stakeAmount",
          "type": "uint256"
        },
        {
          "internalType": "bool",
          "name": "status",
          "type": "bool"
        }
      ],
      "stateMutability": "view",
      "type": "function"
    },
    {
      "inputs": [],
      "name": "getAllGateways",
      "outputs": [
        {
          "components": [
            {
              "internalType": "address",
              "name": "operator",
              "type": "address"
            },
            {
              "internalType": "uint256[]",
              "name": "chainIds",
              "type": "uint256[]"
            },
            {
              "internalType": "uint256",
              "name": "stakeAmount",
              "type": "uint256"
            },
            {
              "internalType": "bool",
              "name": "status",
              "type": "bool"
            }
          ],
          "internalType": "struct CommonChainContract.Gateway[]",
          "name": "",
          "type": "tuple[]"
        }
      ],
      "stateMutability": "view",
      "type": "function"
    },
    {
      "inputs": [
        {
          "internalType": "address",
          "name": "_address",
          "type": "address"
        }
      ],
      "name": "getGateway",
      "outputs": [
        {
          "internalType": "address",
          "name": "",
          "type": "address"
        },
        {
          "internalType": "uint256[]",
          "name": "",
          "type": "uint256[]"
        },
        {
          "internalType": "uint256",
          "name": "",
          "type": "uint256"
        },
        {
          "internalType": "bool",
          "name": "",
          "type": "bool"
        }
      ],
      "stateMutability": "view",
      "type": "function"
    },
    {
      "inputs": [
        {
          "internalType": "bytes32",
          "name": "role",
          "type": "bytes32"
        }
      ],
      "name": "getRoleAdmin",
      "outputs": [
        {
          "internalType": "bytes32",
          "name": "",
          "type": "bytes32"
        }
      ],
      "stateMutability": "view",
      "type": "function"
    },
    {
      "inputs": [
        {
          "internalType": "bytes32",
          "name": "role",
          "type": "bytes32"
        },
        {
          "internalType": "uint256",
          "name": "index",
          "type": "uint256"
        }
      ],
      "name": "getRoleMember",
      "outputs": [
        {
          "internalType": "address",
          "name": "",
          "type": "address"
        }
      ],
      "stateMutability": "view",
      "type": "function"
    },
    {
      "inputs": [
        {
          "internalType": "bytes32",
          "name": "role",
          "type": "bytes32"
        }
      ],
      "name": "getRoleMemberCount",
      "outputs": [
        {
          "internalType": "uint256",
          "name": "",
          "type": "uint256"
        }
      ],
      "stateMutability": "view",
      "type": "function"
    },
    {
      "inputs": [
        {
          "internalType": "address",
          "name": "_key",
          "type": "address"
        }
      ],
      "name": "getVerifiedKey",
      "outputs": [
        {
          "internalType": "bytes32",
          "name": "",
          "type": "bytes32"
        }
      ],
      "stateMutability": "view",
      "type": "function"
    },
    {
      "inputs": [
        {
          "internalType": "bytes32",
          "name": "_imageId",
          "type": "bytes32"
        }
      ],
      "name": "getWhitelistedImage",
      "outputs": [
        {
          "components": [
            {
              "internalType": "bytes",
              "name": "PCR0",
              "type": "bytes"
            },
            {
              "internalType": "bytes",
              "name": "PCR1",
              "type": "bytes"
            },
            {
              "internalType": "bytes",
              "name": "PCR2",
              "type": "bytes"
            }
          ],
          "internalType": "struct AttestationAutherUpgradeable.EnclaveImage",
          "name": "",
          "type": "tuple"
        }
      ],
      "stateMutability": "view",
      "type": "function"
    },
    {
      "inputs": [
        {
          "internalType": "bytes32",
          "name": "role",
          "type": "bytes32"
        },
        {
          "internalType": "address",
          "name": "account",
          "type": "address"
        }
      ],
      "name": "grantRole",
      "outputs": [],
      "stateMutability": "nonpayable",
      "type": "function"
    },
    {
      "inputs": [
        {
          "internalType": "bytes32",
          "name": "role",
          "type": "bytes32"
        },
        {
          "internalType": "address",
          "name": "account",
          "type": "address"
        }
      ],
      "name": "hasRole",
      "outputs": [
        {
          "internalType": "bool",
          "name": "",
          "type": "bool"
        }
      ],
      "stateMutability": "view",
      "type": "function"
    },
    {
      "inputs": [
        {
          "internalType": "uint256",
          "name": "",
          "type": "uint256"
        }
      ],
      "name": "indexToAddressMap",
      "outputs": [
        {
          "internalType": "address",
          "name": "",
          "type": "address"
        }
      ],
      "stateMutability": "view",
      "type": "function"
    },
    {
      "inputs": [
        {
          "internalType": "uint256",
          "name": "_jobId",
          "type": "uint256"
        },
        {
          "internalType": "address",
          "name": "_executor",
          "type": "address"
        }
      ],
      "name": "isJobExecutor",
      "outputs": [
        {
          "internalType": "bool",
          "name": "",
          "type": "bool"
        }
      ],
      "stateMutability": "view",
      "type": "function"
    },
    {
      "inputs": [
        {
          "internalType": "uint256",
          "name": "",
          "type": "uint256"
        }
      ],
      "name": "jobs",
      "outputs": [
        {
          "internalType": "uint256",
          "name": "reqChainId",
          "type": "uint256"
        },
        {
          "internalType": "bytes32",
          "name": "codehash",
          "type": "bytes32"
        },
        {
          "internalType": "bytes",
          "name": "codeInputs",
          "type": "bytes"
        },
        {
          "internalType": "uint256",
          "name": "deadline",
          "type": "uint256"
        },
        {
          "internalType": "uint256",
          "name": "execStartTime",
          "type": "uint256"
        },
        {
          "internalType": "address",
          "name": "jobOwner",
          "type": "address"
        },
        {
          "internalType": "address",
          "name": "gatewayOperator",
          "type": "address"
        },
        {
          "internalType": "uint8",
          "name": "outputCount",
          "type": "uint8"
        }
      ],
      "stateMutability": "view",
      "type": "function"
    },
    {
      "inputs": [],
      "name": "noOfNodesToSelect",
      "outputs": [
        {
          "internalType": "uint256",
          "name": "",
          "type": "uint256"
        }
      ],
      "stateMutability": "view",
      "type": "function"
    },
    {
      "inputs": [
        {
          "internalType": "uint256",
          "name": "",
          "type": "uint256"
        }
      ],
      "name": "nodes",
      "outputs": [
        {
          "internalType": "uint64",
          "name": "value",
          "type": "uint64"
        },
        {
          "internalType": "uint64",
          "name": "leftSum",
          "type": "uint64"
        },
        {
          "internalType": "uint64",
          "name": "rightSum",
          "type": "uint64"
        }
      ],
      "stateMutability": "view",
      "type": "function"
    },
    {
      "inputs": [],
      "name": "nodesInTree",
      "outputs": [
        {
          "internalType": "uint256",
          "name": "",
          "type": "uint256"
        }
      ],
      "stateMutability": "view",
      "type": "function"
    },
    {
      "inputs": [],
      "name": "proxiableUUID",
      "outputs": [
        {
          "internalType": "bytes32",
          "name": "",
          "type": "bytes32"
        }
      ],
      "stateMutability": "view",
      "type": "function"
    },
    {
      "inputs": [
        {
          "internalType": "address",
          "name": "_gatewayOperatorOld",
          "type": "address"
        },
        {
          "internalType": "uint256",
          "name": "_jobId",
          "type": "uint256"
        },
        {
          "internalType": "bytes",
          "name": "_signature",
          "type": "bytes"
        }
      ],
      "name": "reassignGatewayRelay",
      "outputs": [],
      "stateMutability": "nonpayable",
      "type": "function"
    },
    {
      "inputs": [
        {
          "internalType": "bytes",
          "name": "_attestation",
          "type": "bytes"
        },
        {
          "internalType": "bytes",
          "name": "_enclavePubKey",
          "type": "bytes"
        },
        {
          "internalType": "bytes",
          "name": "_PCR0",
          "type": "bytes"
        },
        {
          "internalType": "bytes",
          "name": "_PCR1",
          "type": "bytes"
        },
        {
          "internalType": "bytes",
          "name": "_PCR2",
          "type": "bytes"
        },
        {
          "internalType": "uint256",
          "name": "_enclaveCPUs",
          "type": "uint256"
        },
        {
          "internalType": "uint256",
          "name": "_enclaveMemory",
          "type": "uint256"
        },
        {
          "internalType": "uint256",
          "name": "_timestampInMilliseconds",
          "type": "uint256"
        },
        {
          "internalType": "uint256",
          "name": "_jobCapacity",
          "type": "uint256"
        },
        {
          "internalType": "bytes",
          "name": "_signature",
          "type": "bytes"
        },
        {
          "internalType": "uint256",
          "name": "_stakeAmount",
          "type": "uint256"
        }
      ],
      "name": "registerExecutor",
      "outputs": [],
      "stateMutability": "nonpayable",
      "type": "function"
    },
    {
      "inputs": [
        {
          "internalType": "bytes",
          "name": "_attestation",
          "type": "bytes"
        },
        {
          "internalType": "bytes",
          "name": "_enclavePubKey",
          "type": "bytes"
        },
        {
          "internalType": "bytes",
          "name": "_PCR0",
          "type": "bytes"
        },
        {
          "internalType": "bytes",
          "name": "_PCR1",
          "type": "bytes"
        },
        {
          "internalType": "bytes",
          "name": "_PCR2",
          "type": "bytes"
        },
        {
          "internalType": "uint256",
          "name": "_enclaveCPUs",
          "type": "uint256"
        },
        {
          "internalType": "uint256",
          "name": "_enclaveMemory",
          "type": "uint256"
        },
        {
          "internalType": "uint256",
          "name": "_timestampInMilliseconds",
          "type": "uint256"
        },
        {
          "internalType": "uint256[]",
          "name": "_chainIds",
          "type": "uint256[]"
        },
        {
          "internalType": "bytes",
          "name": "_signature",
          "type": "bytes"
        },
        {
          "internalType": "uint256",
          "name": "_stakeAmount",
          "type": "uint256"
        }
      ],
      "name": "registerGateway",
      "outputs": [],
      "stateMutability": "nonpayable",
      "type": "function"
    },
    {
      "inputs": [
        {
          "internalType": "bytes",
          "name": "_signature",
          "type": "bytes"
        },
        {
          "internalType": "uint256",
          "name": "_jobId",
          "type": "uint256"
        },
        {
          "internalType": "uint256",
          "name": "_reqChainId",
          "type": "uint256"
        },
        {
          "internalType": "bytes32",
          "name": "_codehash",
          "type": "bytes32"
        },
        {
          "internalType": "bytes",
          "name": "_codeInputs",
          "type": "bytes"
        },
        {
          "internalType": "uint256",
          "name": "_deadline",
          "type": "uint256"
        },
        {
          "internalType": "address",
          "name": "_jobOwner",
          "type": "address"
        }
      ],
      "name": "relayJob",
      "outputs": [],
      "stateMutability": "nonpayable",
      "type": "function"
    },
    {
      "inputs": [
        {
          "internalType": "bytes",
          "name": "_enclavePubKey",
          "type": "bytes"
        },
        {
          "internalType": "uint256",
          "name": "_chainId",
          "type": "uint256"
        }
      ],
      "name": "removeChain",
      "outputs": [],
      "stateMutability": "nonpayable",
      "type": "function"
    },
    {
      "inputs": [
        {
          "internalType": "uint256[]",
          "name": "_chainIds",
          "type": "uint256[]"
        }
      ],
      "name": "removeChainGlobal",
      "outputs": [],
      "stateMutability": "nonpayable",
      "type": "function"
    },
    {
      "inputs": [
        {
          "internalType": "bytes",
          "name": "_enclavePubKey",
          "type": "bytes"
        },
        {
          "internalType": "uint256[]",
          "name": "_chainIds",
          "type": "uint256[]"
        }
      ],
      "name": "removeChains",
      "outputs": [],
      "stateMutability": "nonpayable",
      "type": "function"
    },
    {
      "inputs": [
        {
          "internalType": "bytes",
          "name": "_enclavePubKey",
          "type": "bytes"
        },
        {
          "internalType": "uint256",
          "name": "_amount",
          "type": "uint256"
        }
      ],
      "name": "removeExecutorStake",
      "outputs": [],
      "stateMutability": "nonpayable",
      "type": "function"
    },
    {
      "inputs": [
        {
          "internalType": "bytes",
          "name": "_enclavePubKey",
          "type": "bytes"
        },
        {
          "internalType": "uint256",
          "name": "_amount",
          "type": "uint256"
        }
      ],
      "name": "removeGatewayStake",
      "outputs": [],
      "stateMutability": "nonpayable",
      "type": "function"
    },
    {
      "inputs": [
        {
          "internalType": "bytes32",
          "name": "role",
          "type": "bytes32"
        },
        {
          "internalType": "address",
          "name": "account",
          "type": "address"
        }
      ],
      "name": "renounceRole",
      "outputs": [],
      "stateMutability": "nonpayable",
      "type": "function"
    },
    {
      "inputs": [
        {
          "internalType": "uint256",
          "name": "",
          "type": "uint256"
        }
      ],
      "name": "requestChains",
      "outputs": [
        {
          "internalType": "address",
          "name": "contractAddress",
          "type": "address"
        },
        {
          "internalType": "string",
          "name": "rpcUrl",
          "type": "string"
        }
      ],
      "stateMutability": "view",
      "type": "function"
    },
    {
      "inputs": [
        {
          "internalType": "bytes32",
          "name": "role",
          "type": "bytes32"
        },
        {
          "internalType": "address",
          "name": "account",
          "type": "address"
        }
      ],
      "name": "revokeRole",
      "outputs": [],
      "stateMutability": "nonpayable",
      "type": "function"
    },
    {
      "inputs": [
        {
          "internalType": "uint256",
          "name": "",
          "type": "uint256"
        },
        {
          "internalType": "uint256",
          "name": "",
          "type": "uint256"
        }
      ],
      "name": "selectedExecutors",
      "outputs": [
        {
          "internalType": "address",
          "name": "",
          "type": "address"
        }
      ],
      "stateMutability": "view",
      "type": "function"
    },
    {
      "inputs": [
        {
          "internalType": "uint256",
          "name": "_jobId",
          "type": "uint256"
        }
      ],
      "name": "slashOnExecutionTimeout",
      "outputs": [],
      "stateMutability": "nonpayable",
      "type": "function"
    },
    {
      "inputs": [
        {
          "internalType": "bytes",
          "name": "_signature",
          "type": "bytes"
        },
        {
          "internalType": "uint256",
          "name": "_jobId",
          "type": "uint256"
        },
        {
          "internalType": "bytes",
          "name": "_output",
          "type": "bytes"
        },
        {
          "internalType": "uint256",
          "name": "_totalTime",
          "type": "uint256"
        },
        {
          "internalType": "uint8",
          "name": "_errorCode",
          "type": "uint8"
        }
      ],
      "name": "submitOutput",
      "outputs": [],
      "stateMutability": "nonpayable",
      "type": "function"
    },
    {
      "inputs": [
        {
          "internalType": "bytes4",
          "name": "interfaceId",
          "type": "bytes4"
        }
      ],
      "name": "supportsInterface",
      "outputs": [
        {
          "internalType": "bool",
          "name": "",
          "type": "bool"
        }
      ],
      "stateMutability": "view",
      "type": "function"
    },
    {
      "inputs": [],
      "name": "token",
      "outputs": [
        {
          "internalType": "contract IERC20",
          "name": "",
          "type": "address"
        }
      ],
      "stateMutability": "view",
      "type": "function"
    },
    {
      "inputs": [
        {
          "internalType": "address",
          "name": "newImplementation",
          "type": "address"
        }
      ],
      "name": "upgradeTo",
      "outputs": [],
      "stateMutability": "nonpayable",
      "type": "function"
    },
    {
      "inputs": [
        {
          "internalType": "address",
          "name": "newImplementation",
          "type": "address"
        },
        {
          "internalType": "bytes",
          "name": "data",
          "type": "bytes"
        }
      ],
      "name": "upgradeToAndCall",
      "outputs": [],
      "stateMutability": "payable",
      "type": "function"
    },
    {
      "inputs": [
        {
          "internalType": "bytes",
          "name": "signature",
          "type": "bytes"
        },
        {
          "internalType": "bytes",
          "name": "enclavePubKey",
          "type": "bytes"
        },
        {
          "internalType": "bytes32",
          "name": "imageId",
          "type": "bytes32"
        },
        {
          "internalType": "uint256",
          "name": "enclaveCPUs",
          "type": "uint256"
        },
        {
          "internalType": "uint256",
          "name": "enclaveMemory",
          "type": "uint256"
        },
        {
          "internalType": "uint256",
          "name": "timestampInMilliseconds",
          "type": "uint256"
        }
      ],
      "name": "verifyKey",
      "outputs": [],
      "stateMutability": "nonpayable",
      "type": "function"
    }
  ],
  "bytecode": "0x60e06040523060c0523480156200001557600080fd5b50604051620079dd380380620079dd833981016040819052620000389162000186565b6001600160a01b03821660805260a0819052600054610100900460ff16158080156200006b5750600054600160ff909116105b806200009b575062000088306200017760201b620038911760201c565b1580156200009b575060005460ff166001145b620001035760405162461bcd60e51b815260206004820152602e60248201527f496e697469616c697a61626c653a20636f6e747261637420697320616c72656160448201526d191e481a5b9a5d1a585b1a5e995960921b606482015260840160405180910390fd5b6000805460ff19166001179055801562000127576000805461ff0019166101001790555b80156200016e576000805461ff0019169055604051600181527f7f26b83ff96e1f2b6a682f133852f6798a09c465da95921460cefb38474024989060200160405180910390a15b505050620001c2565b6001600160a01b03163b151590565b600080604083850312156200019a57600080fd5b82516001600160a01b0381168114620001b257600080fd5b6020939093015192949293505050565b60805160a05160c0516177c16200021c60003960008181611121015281816111b701528181611749015281816117df01526118d60152600081816108cc0152613dbe0152600081816109fc015261400d01526177c16000f3fe60806040526004361061033f5760003560e01c80639022c19c116101b0578063cc101e00116100ec578063e79e524a11610095578063eff3be091161006f578063eff3be0914610b01578063f6c3873914610b21578063fb94db2b14610b41578063fc0c546a14610b6157600080fd5b8063e79e524a14610a93578063ec6aef2914610ab3578063edc1c0df14610ad357600080fd5b8063d77114a5116100c6578063d77114a514610a3e578063e0aba60a14610a53578063e201aee114610a7357600080fd5b8063cc101e00146109ca578063cd79f906146109ea578063d547741f14610a1e57600080fd5b80639c01de4111610159578063a898693011610133578063a898693014610943578063bda009fe1461095a578063ca0a13b61461098a578063ca15c873146109aa57600080fd5b80639c01de41146108ee578063a217fddf1461090e578063a728ab761461092357600080fd5b8063974d2a061161018a578063974d2a061461080e5780639ac2a0111461082e5780639aec990e146108ba57600080fd5b80639022c19c1461073757806391d14854146107a857806395e11ef7146107ee57600080fd5b80634abc64c21161027f5780636361df6b11610228578063734aeee111610202578063734aeee1146106b557806377cba036146106d757806380bc9233146106f75780639010d07c1461071757600080fd5b80636361df6b1461065e5780636d5cc39f1461067e578063728d21b01461069e57600080fd5b80634f1ef286116102595780634f1ef2861461061657806352d1902d146106295780635450c16b1461063e57600080fd5b80634abc64c2146105b65780634b104c85146105d65780634c712ba3146105f657600080fd5b80632410f6ba116102ec57806332dc9a96116102c657806332dc9a96146105085780633651cf281461055657806336568abe146105765780633659cfe61461059657600080fd5b80632410f6ba1461048b578063248a9ca3146104b85780632f2ff15d146104e857600080fd5b8063180aedf31161031d578063180aedf3146103df5780631a2c9de7146104135780631c53c2801461044057600080fd5b80630167847b1461034457806301d58fa31461036657806301ffc9a7146103af575b600080fd5b34801561035057600080fd5b5061036461035f3660046163dc565b610b82565b005b34801561037257600080fd5b5061039c610381366004616426565b6001600160a01b0316600090815260ca602052604090205490565b6040519081526020015b60405180910390f35b3480156103bb57600080fd5b506103cf6103ca366004616443565b610ce2565b60405190151581526020016103a6565b3480156103eb57600080fd5b506103ff6103fa366004616485565b610cf3565b6040516103a69897969594939291906164ee565b34801561041f57600080fd5b5061039c61042e366004616426565b60fb6020526000908152604090205481565b34801561044c57600080fd5b5061046061045b366004616485565b610de2565b6040805167ffffffffffffffff948516815292841660208401529216918101919091526060016103a6565b34801561049757600080fd5b506104ab6104a6366004616485565b610e33565b6040516103a69190616547565b3480156104c457600080fd5b5061039c6104d3366004616485565b60009081526065602052604090206001015490565b3480156104f457600080fd5b506103646105033660046165a8565b61102c565b34801561051457600080fd5b5061053e610523366004616485565b60fc602052600090815260409020546001600160a01b031681565b6040516001600160a01b0390911681526020016103a6565b34801561056257600080fd5b5061053e6105713660046165d8565b611056565b34801561058257600080fd5b506103646105913660046165a8565b61108f565b3480156105a257600080fd5b506103646105b1366004616426565b611117565b3480156105c257600080fd5b506103646105d1366004616672565b6112b4565b3480156105e257600080fd5b506103646105f13660046166d6565b6113c6565b34801561060257600080fd5b5061036461061136600461671b565b61152b565b610364610624366004616867565b61173f565b34801561063557600080fd5b5061039c6118c9565b34801561064a57600080fd5b5061053e610659366004616485565b61198e565b34801561066a57600080fd5b506103646106793660046168ad565b6119b9565b34801561068a57600080fd5b5061036461069936600461693f565b611b7a565b3480156106aa57600080fd5b5061039c6101925481565b3480156106c157600080fd5b506106ca611ed5565b6040516103a69190616a19565b3480156106e357600080fd5b506103cf6106f23660046165a8565b612069565b34801561070357600080fd5b506103646107123660046166d6565b612145565b34801561072357600080fd5b5061053e6107323660046165d8565b612395565b34801561074357600080fd5b50610781610752366004616426565b610195602052600090815260409020805460028201546003909201546001600160a01b03909116919060ff1683565b604080516001600160a01b03909416845260208401929092521515908201526060016103a6565b3480156107b457600080fd5b506103cf6107c33660046165a8565b60009182526065602090815260408084206001600160a01b0393909316845291905290205460ff1690565b3480156107fa57600080fd5b50610364610809366004616485565b6123b4565b34801561081a57600080fd5b506103646108293660046166d6565b6125f9565b34801561083a57600080fd5b50610886610849366004616426565b61019760205260009081526040902080546001820154600283015460038401546004909401546001600160a01b0390931693919290919060ff1685565b604080516001600160a01b03909616865260208601949094529284019190915260608301521515608082015260a0016103a6565b3480156108c657600080fd5b5061039c7f000000000000000000000000000000000000000000000000000000000000000081565b3480156108fa57600080fd5b506103646109093660046166d6565b6128eb565b34801561091a57600080fd5b5061039c600081565b34801561092f57600080fd5b5061036461093e3660046166d6565b612a0f565b34801561094f57600080fd5b5061039c6101935481565b34801561096657600080fd5b5061097a610975366004616426565b612b55565b6040516103a69493929190616acd565b34801561099657600080fd5b506103646109a5366004616b07565b612bf2565b3480156109b657600080fd5b5061039c6109c5366004616485565b612d4c565b3480156109d657600080fd5b506103646109e53660046166d6565b612d63565b3480156109f657600080fd5b5061053e7f000000000000000000000000000000000000000000000000000000000000000081565b348015610a2a57600080fd5b50610364610a393660046165a8565b612e76565b348015610a4a57600080fd5b5061039c612e9b565b348015610a5f57600080fd5b50610364610a6e366004616c0a565b612eb2565b348015610a7f57600080fd5b50610364610a8e366004616c3f565b61303c565b348015610a9f57600080fd5b50610364610aae366004616ca8565b613176565b348015610abf57600080fd5b50610364610ace366004616672565b61333a565b348015610adf57600080fd5b50610af3610aee366004616485565b613445565b6040516103a6929190616e1e565b348015610b0d57600080fd5b50610364610b1c366004616e40565b6134f5565b348015610b2d57600080fd5b50610364610b3c366004616c0a565b61369d565b348015610b4d57600080fd5b50610364610b5c366004616f72565b613883565b348015610b6d57600080fd5b506101915461053e906001600160a01b031681565b610b8d6000336107c3565b610bde5760405162461bcd60e51b815260206004820152600a60248201527f6f6e6c792061646d696e0000000000000000000000000000000000000000000060448201526064015b60405180910390fd5b6000815111610c2f5760405162461bcd60e51b815260206004820152600e60248201527f494e56414c49445f4c454e4754480000000000000000000000000000000000006044820152606401610bd5565b60005b8151811015610cde576000828281518110610c4f57610c4f616ff9565b602090810291909101810151600081815261019490925260408220805473ffffffffffffffffffffffffffffffffffffffff1916815590925090610c966001830182616187565b50506040518181527f5b9dc40648bfe840de770df10081e79f179534343348da4087dea77ba584d1819060200160405180910390a15080610cd681617057565b915050610c32565b5050565b6000610ced826138a0565b92915050565b6101986020526000908152604090208054600182015460028301805492939192610d1c9061708f565b80601f0160208091040260200160405190810160405280929190818152602001828054610d489061708f565b8015610d955780601f10610d6a57610100808354040283529160200191610d95565b820191906000526020600020905b815481529060010190602001808311610d7857829003601f168201915b50505050600383015460048401546005850154600690950154939491939092506001600160a01b039182169181169074010000000000000000000000000000000000000000900460ff1688565b60fd8181548110610df257600080fd5b60009182526020909120015467ffffffffffffffff808216925068010000000000000000820481169170010000000000000000000000000000000090041683565b610e5760405180606001604052806060815260200160608152602001606081525090565b600082815260c9602052604090819020815160608101909252805482908290610e7f9061708f565b80601f0160208091040260200160405190810160405280929190818152602001828054610eab9061708f565b8015610ef85780601f10610ecd57610100808354040283529160200191610ef8565b820191906000526020600020905b815481529060010190602001808311610edb57829003601f168201915b50505050508152602001600182018054610f119061708f565b80601f0160208091040260200160405190810160405280929190818152602001828054610f3d9061708f565b8015610f8a5780601f10610f5f57610100808354040283529160200191610f8a565b820191906000526020600020905b815481529060010190602001808311610f6d57829003601f168201915b50505050508152602001600282018054610fa39061708f565b80601f0160208091040260200160405190810160405280929190818152602001828054610fcf9061708f565b801561101c5780601f10610ff15761010080835404028352916020019161101c565b820191906000526020600020905b815481529060010190602001808311610fff57829003601f168201915b5050505050815250509050919050565b600082815260656020526040902060010154611047816138f6565b6110518383613900565b505050565b610199602052816000526040600020818154811061107357600080fd5b6000918252602090912001546001600160a01b03169150829050565b6001600160a01b038116331461110d5760405162461bcd60e51b815260206004820152602f60248201527f416363657373436f6e74726f6c3a2063616e206f6e6c792072656e6f756e636560448201527f20726f6c657320666f722073656c6600000000000000000000000000000000006064820152608401610bd5565b610cde828261390a565b6001600160a01b037f00000000000000000000000000000000000000000000000000000000000000001630036111b55760405162461bcd60e51b815260206004820152602c60248201527f46756e6374696f6e206d7573742062652063616c6c6564207468726f7567682060448201527f64656c656761746563616c6c00000000000000000000000000000000000000006064820152608401610bd5565b7f00000000000000000000000000000000000000000000000000000000000000006001600160a01b03166112107f360894a13ba1a3210667c828492db98dca3e2076cc3735a920a3ca505d382bbc546001600160a01b031690565b6001600160a01b03161461128c5760405162461bcd60e51b815260206004820152602c60248201527f46756e6374696f6e206d7573742062652063616c6c6564207468726f7567682060448201527f6163746976652070726f787900000000000000000000000000000000000000006064820152608401610bd5565b6112958161396d565b604080516000808252602082019092526112b1918391906139c4565b50565b8160006112c082613b64565b6001600160a01b038082166000908152610195602052604090205491925016331461132d5760405162461bcd60e51b815260206004820152601560248201527f4f4e4c595f474154455741595f4f50455241544f5200000000000000000000006044820152606401610bd5565b600083511161137e5760405162461bcd60e51b815260206004820152601060248201527f454d5054595f5245515f434841494e53000000000000000000000000000000006044820152606401610bd5565b60005b83518110156113bf576113ad858583815181106113a0576113a0616ff9565b6020026020010151612145565b806113b781617057565b915050611381565b5050505050565b8160006113d282613b64565b6001600160a01b038082166000908152610197602052604090205491925016331461143f5760405162461bcd60e51b815260206004820152601660248201527f4f4e4c595f4558454355544f525f4f50455241544f52000000000000000000006044820152606401610bd5565b611458335b610191546001600160a01b03169085613bc3565b600061146385613b64565b6001600160a01b038116600090815261019760205260408120600301805492935086929091906114949084906170dc565b90915550506001600160a01b0381166000908152610197602052604090206001810154600290910154146114cc576114cc8185613c6c565b6001600160a01b03811660009081526101976020526040908190206003015490517fa7903817e9c60899f1796f02344546fbe45af803ac7a26968e800564687172f99161151c91889188916170ef565b60405180910390a15050505050565b600089898960405160200161154293929190617114565b6040516020818303038152906040528051906020012090506115688c8c838a8a8a613c8f565b60008460405160200161157b9190617157565b60408051601f198184030181529190528051602090910120905060006115a18286614106565b90506115ac8161412a565b6115c6335b610191546001600160a01b0316903087614246565b60006115d18e613b64565b905060005b87518110156116845760006001600160a01b031661019460008a848151811061160157611601616ff9565b6020908102919091018101518252810191909152604001600020546001600160a01b0316036116725760405162461bcd60e51b815260206004820152601160248201527f554e535550504f525445445f434841494e0000000000000000000000000000006044820152606401610bd5565b8061167c81617057565b9150506115d6565b5060405180608001604052806116973390565b6001600160a01b03908116825260208083018b905260408084018a90526001606090940184905285831660009081526101958352208451815473ffffffffffffffffffffffffffffffffffffffff191693169290921782558381015180519293611709939085019291909101906161c1565b50604082015160028201556060909101516003909101805460ff1916911515919091179055505050505050505050505050505050565b6001600160a01b037f00000000000000000000000000000000000000000000000000000000000000001630036117dd5760405162461bcd60e51b815260206004820152602c60248201527f46756e6374696f6e206d7573742062652063616c6c6564207468726f7567682060448201527f64656c656761746563616c6c00000000000000000000000000000000000000006064820152608401610bd5565b7f00000000000000000000000000000000000000000000000000000000000000006001600160a01b03166118387f360894a13ba1a3210667c828492db98dca3e2076cc3735a920a3ca505d382bbc546001600160a01b031690565b6001600160a01b0316146118b45760405162461bcd60e51b815260206004820152602c60248201527f46756e6374696f6e206d7573742062652063616c6c6564207468726f7567682060448201527f6163746976652070726f787900000000000000000000000000000000000000006064820152608401610bd5565b6118bd8261396d565b610cde828260016139c4565b6000306001600160a01b037f000000000000000000000000000000000000000000000000000000000000000016146119695760405162461bcd60e51b815260206004820152603860248201527f555550535570677261646561626c653a206d757374206e6f742062652063616c60448201527f6c6564207468726f7567682064656c656761746563616c6c00000000000000006064820152608401610bd5565b507f360894a13ba1a3210667c828492db98dca3e2076cc3735a920a3ca505d382bbc90565b610196818154811061199f57600080fd5b6000918252602090912001546001600160a01b0316905081565b6000848484846040516020016119d2949392919061716a565b60408051601f198184030181529190528051602090910120905060006119f88288614106565b9050611a038161412a565b611a0d8682612069565b611a595760405162461bcd60e51b815260206004820152601560248201527f4e4f545f53454c45435445445f4558454355544f5200000000000000000000006044820152606401610bd5565b6001600160a01b038116600090815261019760205260409020600181015460029091015403611aaa576001600160a01b03811660009081526101976020526040902060030154611aaa90829061429d565b6001600160a01b038116600090815261019760205260408120600201805460019290611ad79084906170dc565b9091555050600086815261019860205260409020600601805487917f8fc6b8b59d0ff3436773bd2fa42b72163ff74598764f7e02bbcfc75afb4251609188918891889190601490611b429074010000000000000000000000000000000000000000900460ff1661719d565b91906101000a81548160ff021916908360ff1602179055604051611b6994939291906171bc565b60405180910390a250505050505050565b600085815261019460205260409020546001600160a01b0316611bdf5760405162461bcd60e51b815260206004820152601160248201527f554e535550504f525445445f434841494e0000000000000000000000000000006044820152606401610bd5565b6000868686868686604051602001611bfc969594939291906171ef565b60408051601f19818403018152919052805160209091012090506000611c22828a614106565b9050611c2d8161412a565b6000611c38896143c4565b905060005b8151811015611d5f5760016101976000848481518110611c5f57611c5f616ff9565b60200260200101516001600160a01b03166001600160a01b031681526020019081526020016000206002016000828254611c999190617236565b925050819055506101976000838381518110611cb757611cb7616ff9565b60200260200101516001600160a01b03166001600160a01b03168152602001908152602001600020600101546101976000848481518110611cfa57611cfa616ff9565b60200260200101516001600160a01b03166001600160a01b031681526020019081526020016000206002015403611d4d57611d4d828281518110611d4057611d40616ff9565b6020026020010151614488565b80611d5781617057565b915050611c3d565b50604051806101000160405280898152602001888152602001878152602001868152602001428152602001856001600160a01b03168152602001611da03390565b6001600160a01b03168152600060209182018190528b81526101988252604090819020835181559183015160018301558201516002820190611de2908261728f565b50606082015160038201556080820151600482015560a082015160058201805473ffffffffffffffffffffffffffffffffffffffff19166001600160a01b0392831617905560c08301516006909201805460e090940151929091167fffffffffffffffffffffff000000000000000000000000000000000000000000909316929092177401000000000000000000000000000000000000000060ff90921691909102179055887fbf1af60e0a2cc5cbc5ef57ad1fe278be6c3e6923245f407b1127d24471847677898989898933604051611ec19695949392919061738b565b60405180910390a250505050505050505050565b6101965460609060009067ffffffffffffffff811115611ef757611ef76162a1565b604051908082528060200260200182016040528015611f5e57816020015b611f4b604051806080016040528060006001600160a01b0316815260200160608152602001600081526020016000151581525090565b815260200190600190039081611f155790505b50905060005b610196548110156120635761019560006101968381548110611f8857611f88616ff9565b60009182526020808320909101546001600160a01b03908116845283820194909452604092830190912082516080810184528154909416845260018101805484518185028101850190955280855291938584019390929083018282801561200e57602002820191906000526020600020905b815481526020019060010190808311611ffa575b50505091835250506002820154602082015260039091015460ff161515604090910152825183908390811061204557612045616ff9565b6020026020010181905250808061205b90617057565b915050611f64565b50919050565b600082815261019960209081526040808320805482518185028101850190935280835284938301828280156120c757602002820191906000526020600020905b81546001600160a01b031681526001909101906020018083116120a9575b505050600087815261019960205260408120549394509150505b8181101561213957846001600160a01b031683828151811061210557612105616ff9565b60200260200101516001600160a01b0316036121275760019350505050610ced565b8061213181617057565b9150506120e1565b50600095945050505050565b81600061215182613b64565b6001600160a01b03808216600090815261019560205260409020549192501633146121be5760405162461bcd60e51b815260206004820152601560248201527f4f4e4c595f474154455741595f4f50455241544f5200000000000000000000006044820152606401610bd5565b600083815261019460205260409020546001600160a01b03166122235760405162461bcd60e51b815260206004820152601160248201527f554e535550504f525445445f434841494e0000000000000000000000000000006044820152606401610bd5565b600061222e85613b64565b6001600160a01b0381166000908152610195602090815260408083206001018054825181850281018501909352808352949550929390929183018282801561229557602002820191906000526020600020905b815481526020019060010190808311612281575b5050505050905060005b815181101561232257858282815181106122bb576122bb616ff9565b6020026020010151036123105760405162461bcd60e51b815260206004820152601460248201527f434841494e5f414c52454144595f4558495354530000000000000000000000006044820152606401610bd5565b8061231a81617057565b91505061229f565b506001600160a01b03821660009081526101956020908152604080832060019081018054918201815584529190922001869055517f88cce4122801bcc715f3f1b2e894f26b07049a0d4c2d204c0c4ad87157f4e18c9061238590889088906173d2565b60405180910390a1505050505050565b60008281526097602052604081206123ad90836144b7565b9392505050565b6101925460008281526101986020526040902060038101546004909101546123dc9190617236565b6123e69190617236565b42116124345760405162461bcd60e51b815260206004820152601160248201527f444541444c494e455f4e4f545f4f5645520000000000000000000000000000006044820152606401610bd5565b600081815261019860205260408120818155600181018290559061245b6002830182616187565b506000600382018190556004820181905560058201805473ffffffffffffffffffffffffffffffffffffffff19169055600690910180547fffffffffffffffffffffff0000000000000000000000000000000000000000001690558181526101996020526040812054905b81811015612597576000838152610199602052604081208054839081106124ef576124ef616ff9565b60009182526020808320909101546001600160a01b0316808352610197909152604090912060018101546002909101549192509003612550576001600160a01b0381166000908152610197602052604090206003015461255090829061429d565b6001600160a01b03811660009081526101976020526040812060020180546001929061257d9084906170dc565b9091555082915061258f905081617057565b9150506124c6565b50600082815261019960205260409081902090517f028662a7b04c153b66537cb788297aa2b4f14412cc5830ff5c5748231924f9c6916125d9918591906173f4565b60405180910390a1600082815261019960205260408120610cde9161620c565b81600061260582613b64565b6001600160a01b03808216600090815261019560205260409020549192501633146126725760405162461bcd60e51b815260206004820152601560248201527f4f4e4c595f474154455741595f4f50455241544f5200000000000000000000006044820152606401610bd5565b600061267d85613b64565b6001600160a01b038116600090815261019560209081526040808320600101805482518185028101850190935280835294955092939092918301828280156126e457602002820191906000526020600020905b8154815260200190600101908083116126d0575b505083519394505050811515905061273e5760405162461bcd60e51b815260206004820152600f60248201527f454d5054595f434841494e4c49535400000000000000000000000000000000006044820152606401610bd5565b60005b8181101561277c578683828151811061275c5761275c616ff9565b6020026020010151031561277c578061277481617057565b915050612741565b8181146127cb5760405162461bcd60e51b815260206004820152600f60248201527f434841494e5f4e4f545f464f554e4400000000000000000000000000000000006044820152606401610bd5565b6127d66001836170dc565b8114612867576001600160a01b03841660009081526101956020526040902060019081019061280590846170dc565b8154811061281557612815616ff9565b90600052602060002001546101956000866001600160a01b03166001600160a01b03168152602001908152602001600020600101828154811061285a5761285a616ff9565b6000918252602090912001555b6001600160a01b03841660009081526101956020526040902060010180548061289257612892617450565b600190038181906000526020600020016000905590557f23e9f2f63bc310edd7f3f83bb1e8fe39cd606aabe6a2530271f8037383aaf98c88886040516128d99291906173d2565b60405180910390a15050505050505050565b8160006128f782613b64565b6001600160a01b03808216600090815261019560205260409020549192501633146129645760405162461bcd60e51b815260206004820152601560248201527f4f4e4c595f474154455741595f4f50455241544f5200000000000000000000006044820152606401610bd5565b61297e335b610191546001600160a01b0316903086614246565b600061298985613b64565b6001600160a01b038116600090815261019560205260408120600201805492935086929091906129ba908490617236565b90915550506001600160a01b03811660009081526101956020526040908190206002015490517f9a719891db0e8e647d47fb1a5f64fea9a2c0d206db0b610c23f2cf1df52178239161151c91889188916170ef565b816000612a1b82613b64565b6001600160a01b0380821660009081526101976020526040902054919250163314612a885760405162461bcd60e51b815260206004820152601660248201527f4f4e4c595f4558454355544f525f4f50455241544f52000000000000000000006044820152606401610bd5565b612a9133612969565b6000612a9c85613b64565b6001600160a01b03811660009081526101976020526040812060030180549293508692909190612acd908490617236565b90915550506001600160a01b038116600090815261019760205260409020600181015460029091015414612b0557612b058185613c6c565b6001600160a01b03811660009081526101976020526040908190206003015490517f1f95f2be015b951fd700619ce83a83c8d4aaa34d2ffbd70307a2623f6299c4d49161151c91889188916170ef565b6001600160a01b0380821660009081526101956020908152604080832080546002820154600383015460018401805486518189028101890190975280875297986060988a988998969092169592949360ff169291859190830182828015612bdb57602002820191906000526020600020905b815481526020019060010190808311612bc7575b505050505092509450945094509450509193509193565b6000898989604051602001612c0993929190617114565b604051602081830303815290604052805190602001209050612c2f8c8c838a8a8a613c8f565b600084604051602001612c4491815260200190565b60408051601f19818403018152919052805160209091012090506000612c6a8286614106565b9050612c758161412a565b612c7e336115b1565b6000612c898e613b64565b90506040518060a00160405280612c9d3390565b6001600160a01b03908116825260208083018b90526000604080850182905260608086018c90526001608096870181905288861684526101978552928290208751815473ffffffffffffffffffffffffffffffffffffffff191696169590951785559286015191840191909155840151600283015583015160038201559101516004909101805460ff1916911515919091179055612d3b818661429d565b505050505050505050505050505050565b6000818152609760205260408120610ced906144c3565b816000612d6f82613b64565b6001600160a01b0380821660009081526101956020526040902054919250163314612ddc5760405162461bcd60e51b815260206004820152601560248201527f4f4e4c595f474154455741595f4f50455241544f5200000000000000000000006044820152606401610bd5565b612de533611444565b6000612df085613b64565b6001600160a01b03811660009081526101956020526040812060020180549293508692909190612e219084906170dc565b90915550506001600160a01b03811660009081526101956020526040908190206002015490517f162e2d134a088692c1bd7ca2e473a83d6ad3dcc4d7289b5cee9d342f4004d1b89161151c91889188916170ef565b600082815260656020526040902060010154612e91816138f6565b611051838361390a565b60fd54600090612ead906001906170dc565b905090565b806000612ebe82613b64565b6001600160a01b0380821660009081526101956020526040902054919250163314612f2b5760405162461bcd60e51b815260206004820152601560248201527f4f4e4c595f474154455741595f4f50455241544f5200000000000000000000006044820152606401610bd5565b6000612f3684613b64565b6001600160a01b038082166000908152610195602052604090205491925016612fa15760405162461bcd60e51b815260206004820152601360248201527f494e56414c49445f454e434c4156455f4b4559000000000000000000000000006044820152606401610bd5565b6001600160a01b038116600090815261019560205260408120805473ffffffffffffffffffffffffffffffffffffffff1916815590612fe3600183018261620c565b5060006002820155600301805460ff19169055612fff846144cd565b7fcfdd9fda8828d739bda25c6f221393246d149dd1b7f6784acdb8ba0132722f278460405161302e919061747f565b60405180910390a150505050565b600082815261019860205260409020600601546001600160a01b031633036130a65760405162461bcd60e51b815260206004820152600c60248201527f53414d455f4741544557415900000000000000000000000000000000000000006044820152606401610bd5565b600082846040516020016130cd9291909182526001600160a01b0316602082015260400190565b60408051601f198184030181529190528051602090910120905060006130f38284614106565b90506130fe8161412a565b60008481526101986020908152604091829020600601805473ffffffffffffffffffffffffffffffffffffffff19163390811790915591518681526001600160a01b038816917f8b7c31ce9ded31107fcb4bfabbf28198eb7426f50084e26df70e22525d9b6b0e910160405180910390a35050505050565b600054610100900460ff16158080156131965750600054600160ff909116105b806131b05750303b1580156131b0575060005460ff166001145b6132225760405162461bcd60e51b815260206004820152602e60248201527f496e697469616c697a61626c653a20636f6e747261637420697320616c72656160448201527f647920696e697469616c697a65640000000000000000000000000000000000006064820152608401610bd5565b6000805460ff19166001179055801561326257600080547fffffffffffffffffffffffffffffffffffffffffffffffffffffffffffff00ff166101001790555b61326a61459d565b61327261459d565b61327a61459d565b6132838561461c565b61328b6146da565b61329361459d565b61329e600087613900565b610191805473ffffffffffffffffffffffffffffffffffffffff19166001600160a01b038616179055610192839055610193829055801561333257600080547fffffffffffffffffffffffffffffffffffffffffffffffffffffffffffff00ff169055604051600181527f7f26b83ff96e1f2b6a682f133852f6798a09c465da95921460cefb384740249890602001612385565b505050505050565b81600061334682613b64565b6001600160a01b03808216600090815261019560205260409020549192501633146133b35760405162461bcd60e51b815260206004820152601560248201527f4f4e4c595f474154455741595f4f50455241544f5200000000000000000000006044820152606401610bd5565b60008351116134045760405162461bcd60e51b815260206004820152601060248201527f454d5054595f5245515f434841494e53000000000000000000000000000000006044820152606401610bd5565b60005b83518110156113bf576134338585838151811061342657613426616ff9565b60200260200101516125f9565b8061343d81617057565b915050613407565b61019460205260009081526040902080546001820180546001600160a01b0390921692916134729061708f565b80601f016020809104026020016040519081016040528092919081815260200182805461349e9061708f565b80156134eb5780601f106134c0576101008083540402835291602001916134eb565b820191906000526020600020905b8154815290600101906020018083116134ce57829003601f168201915b5050505050905082565b6135006000336107c3565b61354c5760405162461bcd60e51b815260206004820152600a60248201527f6f6e6c792061646d696e000000000000000000000000000000000000000000006044820152606401610bd5565b6000825111801561355e575080518251145b6135aa5760405162461bcd60e51b815260206004820152600e60248201527f494e56414c49445f4c454e4754480000000000000000000000000000000000006044820152606401610bd5565b60005b81518110156110515760008282815181106135ca576135ca616ff9565b6020026020010151905060008483815181106135e8576135e8616ff9565b60209081029190910181015160008181526101948352604090208451815473ffffffffffffffffffffffffffffffffffffffff19166001600160a01b03909116178155918401519092508391906001820190613644908261728f565b5050825160208401516040517f67dd8b8576f1455907cc1b4aa4623860ed1036d8ead856785f3d51bef810fa6393506136809285929091617492565b60405180910390a15050808061369590617057565b9150506135ad565b8060006136a982613b64565b6001600160a01b03808216600090815261019760205260409020549192501633146137165760405162461bcd60e51b815260206004820152601660248201527f4f4e4c595f4558454355544f525f4f50455241544f52000000000000000000006044820152606401610bd5565b600061372184613b64565b6001600160a01b03808216600090815261019760205260409020549192501661378c5760405162461bcd60e51b815260206004820152601360248201527f494e56414c49445f454e434c4156455f4b4559000000000000000000000000006044820152606401610bd5565b6001600160a01b03811660009081526101976020526040902060020154156137f65760405162461bcd60e51b815260206004820152601360248201527f4143544956455f4a4f42535f50454e44494e47000000000000000000000000006044820152606401610bd5565b6001600160a01b038116600090815261019760205260408120805473ffffffffffffffffffffffffffffffffffffffff1916815560018101829055600281018290556003810191909155600401805460ff1916905561385481614488565b7fcd3eb6b4f0e55ead3175ceaac8651559bdea002353da50a25dbc57e9d6bce8ce8460405161302e919061747f565b613332868686868686613c8f565b6001600160a01b03163b151590565b60007fffffffff0000000000000000000000000000000000000000000000000000000082167f5a05180f000000000000000000000000000000000000000000000000000000001480610ced5750610ced8261475f565b6112b181336147f6565b610cde828261486b565b613914828261488d565b61391e6000612d4c565b600003610cde5760405162461bcd60e51b815260206004820181905260248201527f41563a52522d416c6c2061646d696e732063616e742062652072656d6f7665646044820152606401610bd5565b6139786000336107c3565b6112b15760405162461bcd60e51b815260206004820152600a60248201527f6f6e6c792061646d696e000000000000000000000000000000000000000000006044820152606401610bd5565b7f4910fdfa16fed3260ed0e7147f7cc6da11a60208b5b9406d12a635614ffd91435460ff16156139f757611051836148af565b826001600160a01b03166352d1902d6040518163ffffffff1660e01b8152600401602060405180830381865afa925050508015613a51575060408051601f3d908101601f19168201909252613a4e918101906174ba565b60015b613ac35760405162461bcd60e51b815260206004820152602e60248201527f45524331393637557067726164653a206e657720696d706c656d656e7461746960448201527f6f6e206973206e6f7420555550530000000000000000000000000000000000006064820152608401610bd5565b7f360894a13ba1a3210667c828492db98dca3e2076cc3735a920a3ca505d382bbc8114613b585760405162461bcd60e51b815260206004820152602960248201527f45524331393637557067726164653a20756e737570706f727465642070726f7860448201527f6961626c655555494400000000000000000000000000000000000000000000006064820152608401610bd5565b5061105183838361497a565b60008151604014613bb75760405162461bcd60e51b815260206004820152601960248201527f496e76616c6964207075626c6963206b6579206c656e677468000000000000006044820152606401610bd5565b50805160209091012090565b6040516001600160a01b0383166024820152604481018290526110519084907fa9059cbb00000000000000000000000000000000000000000000000000000000906064015b60408051601f198184030181529190526020810180517bffffffffffffffffffffffffffffffffffffffffffffffffffffffff167fffffffff000000000000000000000000000000000000000000000000000000009093169290921790915261499f565b6001600160a01b038216600090815260fb6020526040902054610cde9082614a87565b600084815260c9602052604090208054613ca89061708f565b9050600003613d1f5760405162461bcd60e51b815260206004820152602d60248201527f41413a564b2d456e636c61766520696d61676520746f20766572696679206e6f60448201527f742077686974656c6973746564000000000000000000000000000000000000006064820152608401610bd5565b6000613d2a86613b64565b6001600160a01b038116600090815260ca602052604090205490915015613db95760405162461bcd60e51b815260206004820152602260248201527f41413a564b2d456e636c617665206b657920616c72656164792076657269666960448201527f65640000000000000000000000000000000000000000000000000000000000006064820152608401610bd5565b613de37f0000000000000000000000000000000000000000000000000000000000000000426170dc565b613def6103e884617502565b11613e3c5760405162461bcd60e51b815260206004820152601960248201527f41413a564b2d4174746573746174696f6e20746f6f206f6c64000000000000006044820152606401610bd5565b600085815260c96020526040808220815160608101909252805482908290613e639061708f565b80601f0160208091040260200160405190810160405280929190818152602001828054613e8f9061708f565b8015613edc5780601f10613eb157610100808354040283529160200191613edc565b820191906000526020600020905b815481529060010190602001808311613ebf57829003601f168201915b50505050508152602001600182018054613ef59061708f565b80601f0160208091040260200160405190810160405280929190818152602001828054613f219061708f565b8015613f6e5780601f10613f4357610100808354040283529160200191613f6e565b820191906000526020600020905b815481529060010190602001808311613f5157829003601f168201915b50505050508152602001600282018054613f879061708f565b80601f0160208091040260200160405190810160405280929190818152602001828054613fb39061708f565b80156140005780601f10613fd557610100808354040283529160200191614000565b820191906000526020600020905b815481529060010190602001808311613fe357829003601f168201915b50505050508152505090507f00000000000000000000000000000000000000000000000000000000000000006001600160a01b031663ac0f0bd589898460000151856020015186604001518b8b8b6040518963ffffffff1660e01b8152600401614071989796959493929190617516565b60006040518083038186803b15801561408957600080fd5b505afa15801561409d573d6000803e3d6000fd5b5050506001600160a01b038316600090815260ca602052604090819020889055518791506140cc90899061759b565b604051908190038120907ff4837f1a66a1e5fbde2c40d0f6eff75183139e79b0fc1eaab280a3a0be38e7b190600090a35050505050505050565b60008060006141158585614ae4565b9150915061412281614b29565b509392505050565b6001600160a01b038116600090815260ca6020526040902054806141b65760405162461bcd60e51b815260206004820152602360248201527f41413a414f562d456e636c617665206b6579206d75737420626520766572696660448201527f69656400000000000000000000000000000000000000000000000000000000006064820152608401610bd5565b600081815260c96020526040902080546141cf9061708f565b9050600003610cde5760405162461bcd60e51b815260206004820152602760248201527f41413a414f562d536f7572636520696d616765206d757374206265207768697460448201527f656c6973746564000000000000000000000000000000000000000000000000006064820152608401610bd5565b6040516001600160a01b03808516602483015283166044820152606481018290526142979085907f23b872dd0000000000000000000000000000000000000000000000000000000090608401613c08565b50505050565b60fd8054604080516060810182526000808252602080830182815283850183815260018701885596835292517f9346ac6dd7de6b96975fec380d4d994c4c12e6a8897544f22915316cc6cca280860180549451975167ffffffffffffffff908116700100000000000000000000000000000000027fffffffffffffffff0000000000000000ffffffffffffffffffffffffffffffff99821668010000000000000000027fffffffffffffffffffffffffffffffff0000000000000000000000000000000090971693909116929092179490941796909616959095179091556001600160a01b03861680825260fb855282822084905583825260fc90945220805473ffffffffffffffffffffffffffffffffffffffff19169092179091556110518183614c8e565b606060006143d36001436170dc565b604080519140602083015242908201526060016040516020818303038152906040528051906020012060001c905061440e8161019354614dfe565b915081516000036144615760405162461bcd60e51b815260206004820152601460248201527f4e4f5f4558454355544f525f53454c45435445440000000000000000000000006044820152606401610bd5565b60008381526101996020908152604090912083516144819285019061622a565b5050919050565b6001600160a01b038116600090815260fb6020526040812054908190036144ad575050565b610cde8282615058565b60006123ad83836151c6565b6000610ced825490565b60006144d882613b64565b6001600160a01b038116600090815260ca60205260409020549091506145405760405162461bcd60e51b815260206004820152601e60248201527f41413a524b2d456e636c617665206b6579206e6f7420766572696669656400006044820152606401610bd5565b6001600160a01b038116600090815260ca6020526040808220919091555161456990839061759b565b604051908190038120907ff910fd78b98e9574e8b6f0e42bc3a996a6aba3776ec20b9d85515bd74a6c8fe990600090a25050565b600054610100900460ff1661461a5760405162461bcd60e51b815260206004820152602b60248201527f496e697469616c697a61626c653a20636f6e7472616374206973206e6f74206960448201527f6e697469616c697a696e670000000000000000000000000000000000000000006064820152608401610bd5565b565b600054610100900460ff166146995760405162461bcd60e51b815260206004820152602b60248201527f496e697469616c697a61626c653a20636f6e7472616374206973206e6f74206960448201527f6e697469616c697a696e670000000000000000000000000000000000000000006064820152608401610bd5565b60005b8151811015610cde576146c78282815181106146ba576146ba616ff9565b60200260200101516151f0565b50806146d281617057565b91505061469c565b600054610100900460ff166147575760405162461bcd60e51b815260206004820152602b60248201527f496e697469616c697a61626c653a20636f6e7472616374206973206e6f74206960448201527f6e697469616c697a696e670000000000000000000000000000000000000000006064820152608401610bd5565b61461a6153ea565b60007fffffffff0000000000000000000000000000000000000000000000000000000082167f7965db0b000000000000000000000000000000000000000000000000000000001480610ced57507f01ffc9a7000000000000000000000000000000000000000000000000000000007fffffffff00000000000000000000000000000000000000000000000000000000831614610ced565b60008281526065602090815260408083206001600160a01b038516845290915290205460ff16610cde576148298161551c565b61483483602061552e565b6040516020016148459291906175b7565b60408051601f198184030181529082905262461bcd60e51b8252610bd59160040161747f565b6148758282615757565b600082815260976020526040902061105190826157f9565b614897828261580e565b60008281526097602052604090206110519082615891565b6001600160a01b0381163b61492c5760405162461bcd60e51b815260206004820152602d60248201527f455243313936373a206e657720696d706c656d656e746174696f6e206973206e60448201527f6f74206120636f6e7472616374000000000000000000000000000000000000006064820152608401610bd5565b7f360894a13ba1a3210667c828492db98dca3e2076cc3735a920a3ca505d382bbc805473ffffffffffffffffffffffffffffffffffffffff19166001600160a01b0392909216919091179055565b614983836158a6565b6000825111806149905750805b156110515761429783836158e6565b60006149f4826040518060400160405280602081526020017f5361666545524332303a206c6f772d6c6576656c2063616c6c206661696c6564815250856001600160a01b031661590b9092919063ffffffff16565b9050805160001480614a15575080806020019051810190614a159190617638565b6110515760405162461bcd60e51b815260206004820152602a60248201527f5361666545524332303a204552433230206f7065726174696f6e20646964206e60448201527f6f742073756363656564000000000000000000000000000000000000000000006064820152608401610bd5565b600060fd8381548110614a9c57614a9c616ff9565b60009182526020909120015467ffffffffffffffff908116915082168110614ad15761105183614acc848461765a565b615922565b61105183614adf838561765a565b614c8e565b6000808251604103614b1a5760208301516040840151606085015160001a614b0e87828585615a92565b94509450505050614b22565b506000905060025b9250929050565b6000816004811115614b3d57614b3d61767b565b03614b455750565b6001816004811115614b5957614b5961767b565b03614ba65760405162461bcd60e51b815260206004820152601860248201527f45434453413a20696e76616c6964207369676e617475726500000000000000006044820152606401610bd5565b6002816004811115614bba57614bba61767b565b03614c075760405162461bcd60e51b815260206004820152601f60248201527f45434453413a20696e76616c6964207369676e6174757265206c656e677468006044820152606401610bd5565b6003816004811115614c1b57614c1b61767b565b036112b15760405162461bcd60e51b815260206004820152602260248201527f45434453413a20696e76616c6964207369676e6174757265202773272076616c60448201527f75650000000000000000000000000000000000000000000000000000000000006064820152608401610bd5565b8060fd8381548110614ca257614ca2616ff9565b600091825260208220018054909190614cc690849067ffffffffffffffff166176aa565b92506101000a81548167ffffffffffffffff021916908367ffffffffffffffff1602179055505b6001821115610cde576000614d036002846176cb565b600193841c9390159150819003614d84578160fd8481548110614d2857614d28616ff9565b60009182526020909120018054600890614d5990849068010000000000000000900467ffffffffffffffff166176aa565b92506101000a81548167ffffffffffffffff021916908367ffffffffffffffff160217905550614df8565b8160fd8481548110614d9857614d98616ff9565b60009182526020909120018054601090614dd1908490700100000000000000000000000000000000900467ffffffffffffffff166176aa565b92506101000a81548167ffffffffffffffff021916908367ffffffffffffffff1602179055505b50614ced565b60fd54606090600090614e13906001906170dc565b905080831115614e21578092505b82600003614e3f575050604080516000815260208101909152610ced565b6060604051610a8081016040525060538152600060fd600181548110614e6757614e67616ff9565b600091825260208083206040805160608082018352929094015467ffffffffffffffff80821686526801000000000000000082048116868601527001000000000000000000000000000000009091041684820152805160c08101825260018082529381018690529081018590529081018490526080810184905260a0810193909352845191935084918110614efe57614efe616ff9565b60200260200101819052506000600190506000826000015167ffffffffffffffff169050826040015183602001510167ffffffffffffffff168101905060008767ffffffffffffffff811115614f5657614f566162a1565b604051908082528060200260200182016040528015614f7f578160200160208202803683370190505b50965060005b8881101561504b5760408051602081018c905290810182905260600160408051601f19818403018152919052805160209091012099506000614fc783856170dc565b614fd1908c6176cb565b9050600080614fe56001848b60018b615b56565b63ffffffff8316600090815260fc60205260409020548e51919a509294509092506001600160a01b03909116908c908690811061502457615024616ff9565b6001600160a01b039092166020928302919091019091015293909301925050600101614f85565b5050505050505092915050565b60fd5460009061506a906001906170dc565b600081815260fc602052604081205460fd80549394506001600160a01b03909116928490811061509c5761509c616ff9565b60009182526020909120015467ffffffffffffffff1690506150be8382615922565b828414615116576150cf8482614a87565b600084815260fc60209081526040808320805473ffffffffffffffffffffffffffffffffffffffff19166001600160a01b038716908117909155835260fb90915290208490555b600083815260fc60209081526040808320805473ffffffffffffffffffffffffffffffffffffffff191690556001600160a01b038816835260fb90915281205560fd80548061516757615167617450565b60008281526020902081017fffffffffffffffffffffffffffffffffffffffffffffffffffffffffffffffff90810180547fffffffffffffffff0000000000000000000000000000000000000000000000001690550190555050505050565b60008260000182815481106151dd576151dd616ff9565b9060005260206000200154905092915050565b805151600090603014801561520a57508160200151516030145b801561521b57508160400151516030145b61528d5760405162461bcd60e51b815260206004820152602160248201527f41413a57492d5043522076616c756573206d757374206265203438206279746560448201527f73000000000000000000000000000000000000000000000000000000000000006064820152608401610bd5565b60008260000151836020015184604001516040516020016152b093929190617114565b60408051601f198184030181529181528151602092830120600081815260c990935291208054919250906152e39061708f565b1590506153325760405162461bcd60e51b815260206004820152601f60248201527f41413a57492d696d61676520616c72656164792077686974656c6973746564006044820152606401610bd5565b6040805160608101825284518152602080860151818301528583015182840152600084815260c9909152919091208151819061536e908261728f565b5060208201516001820190615383908261728f565b5060408201516002820190615398908261728f565b50905050807f52b29bbdd97ab983419f50fa1590e5ab75e9942279e95e10a08607b06c23238b8460000151856020015186604001516040516153dc939291906176df565b60405180910390a292915050565b60fd5460408051808201909152600181527f3500000000000000000000000000000000000000000000000000000000000000602082015290156154405760405162461bcd60e51b8152600401610bd5919061747f565b506040805160608101825260008082526020820181815292820181815260fd8054600181018255925291517f9346ac6dd7de6b96975fec380d4d994c4c12e6a8897544f22915316cc6cca28090910180549351925167ffffffffffffffff908116700100000000000000000000000000000000027fffffffffffffffff0000000000000000ffffffffffffffffffffffffffffffff94821668010000000000000000027fffffffffffffffffffffffffffffffff0000000000000000000000000000000090961693909116929092179390931791909116179055565b6060610ced6001600160a01b03831660145b6060600061553d836002617718565b615548906002617236565b67ffffffffffffffff811115615560576155606162a1565b6040519080825280601f01601f19166020018201604052801561558a576020820181803683370190505b5090507f3000000000000000000000000000000000000000000000000000000000000000816000815181106155c1576155c1616ff9565b60200101907effffffffffffffffffffffffffffffffffffffffffffffffffffffffffffff1916908160001a9053507f78000000000000000000000000000000000000000000000000000000000000008160018151811061562457615624616ff9565b60200101907effffffffffffffffffffffffffffffffffffffffffffffffffffffffffffff1916908160001a9053506000615660846002617718565b61566b906001617236565b90505b6001811115615708577f303132333435363738396162636465660000000000000000000000000000000085600f16601081106156ac576156ac616ff9565b1a60f81b8282815181106156c2576156c2616ff9565b60200101907effffffffffffffffffffffffffffffffffffffffffffffffffffffffffffff1916908160001a90535060049490941c936157018161772f565b905061566e565b5083156123ad5760405162461bcd60e51b815260206004820181905260248201527f537472696e67733a20686578206c656e67746820696e73756666696369656e746044820152606401610bd5565b60008281526065602090815260408083206001600160a01b038516845290915290205460ff16610cde5760008281526065602090815260408083206001600160a01b03851684529091529020805460ff191660011790556157b53390565b6001600160a01b0316816001600160a01b0316837f2f8788117e7eff1d82e926ec794901d17c78024a50270940304540a733656f0d60405160405180910390a45050565b60006123ad836001600160a01b038416615d21565b60008281526065602090815260408083206001600160a01b038516845290915290205460ff1615610cde5760008281526065602090815260408083206001600160a01b0385168085529252808320805460ff1916905551339285917ff6391f5c32d9c69d2a47ea670b442974b53935d1edc7fd64eb21e047a839171b9190a45050565b60006123ad836001600160a01b038416615d70565b6158af816148af565b6040516001600160a01b038216907fbc7cd75a20ee27fd9adebab32041f755214dbc6bffa90cc0225b39da2e5c2d3b90600090a250565b60606123ad838360405180606001604052806027815260200161776560279139615e6a565b606061591a8484600085615ee2565b949350505050565b8060fd838154811061593657615936616ff9565b60009182526020822001805490919061595a90849067ffffffffffffffff1661765a565b92506101000a81548167ffffffffffffffff021916908367ffffffffffffffff1602179055505b6001821115610cde5760006159976002846176cb565b600193841c9390159150819003615a18578160fd84815481106159bc576159bc616ff9565b600091825260209091200180546008906159ed90849068010000000000000000900467ffffffffffffffff1661765a565b92506101000a81548167ffffffffffffffff021916908367ffffffffffffffff160217905550615a8c565b8160fd8481548110615a2c57615a2c616ff9565b60009182526020909120018054601090615a65908490700100000000000000000000000000000000900467ffffffffffffffff1661765a565b92506101000a81548167ffffffffffffffff021916908367ffffffffffffffff1602179055505b50615981565b6000807f7fffffffffffffffffffffffffffffff5d576e7357a4501ddfe92f46681b20a0831115615ac95750600090506003615b4d565b6040805160008082526020820180845289905260ff881692820192909252606081018690526080810185905260019060a0016020604051602081039080840390855afa158015615b1d573d6000803e3d6000fd5b5050604051601f1901519150506001600160a01b038116615b4657600060019250925050615b4d565b9150600090505b94509492505050565b60008060008060fd8981548110615b6f57615b6f616ff9565b600091825260208083206040805160608082018352929094015467ffffffffffffffff80821686526801000000000000000082048116868601527001000000000000000000000000000000009091041684820152805160c081018252858152928301859052820184905281018390526080810183905260a081019290925291506020820151825167ffffffffffffffff918216911681018815615c4557898981518110615c1e57615c1e616ff9565b60200260200101519250826060015182039150826020015183606001510181039050615c73565b8b8352895160019098019850889783908b908a908110615c6757615c67616ff9565b60200260200101819052505b818b10158015615c825750808b105b15615cd957836000015167ffffffffffffffff168a8a81518110615ca857615ca8616ff9565b60209081029190910181015101805190910190525050905189945067ffffffffffffffff169250849150615d169050565b818b1015615d0257615cf38c8c8c86604001518d8d615fd4565b96509650965050505050615d16565b615cf38c828d038c86608001518d8d61605d565b955095509592505050565b6000818152600183016020526040812054615d6857508154600181810184556000848152602080822090930184905584548482528286019093526040902091909155610ced565b506000610ced565b60008181526001830160205260408120548015615e59576000615d946001836170dc565b8554909150600090615da8906001906170dc565b9050818114615e0d576000866000018281548110615dc857615dc8616ff9565b9060005260206000200154905080876000018481548110615deb57615deb616ff9565b6000918252602080832090910192909255918252600188019052604090208390555b8554869080615e1e57615e1e617450565b600190038181906000526020600020016000905590558560010160008681526020019081526020016000206000905560019350505050610ced565b6000915050610ced565b5092915050565b6060600080856001600160a01b031685604051615e87919061759b565b600060405180830381855af49150503d8060008114615ec2576040519150601f19603f3d011682016040523d82523d6000602084013e615ec7565b606091505b5091509150615ed8868383876160e9565b9695505050505050565b606082471015615f5a5760405162461bcd60e51b815260206004820152602660248201527f416464726573733a20696e73756666696369656e742062616c616e636520666f60448201527f722063616c6c00000000000000000000000000000000000000000000000000006064820152608401610bd5565b600080866001600160a01b03168587604051615f76919061759b565b60006040518083038185875af1925050503d8060008114615fb3576040519150601f19603f3d011682016040523d82523d6000602084013e615fb8565b606091505b5091509150615fc9878383876160e9565b979650505050505050565b600080600080600080615fed8c6002028c8c8c8b615b56565b9250925092508860000361602257866001018a898151811061601157616011616ff9565b602002602001015160400181815250505b818a898151811061603557616035616ff9565b6020908102919091010151606001805190910190529194509250905096509650969350505050565b6000806000806000806160798c6002026001018c8c8c8b615b56565b925092509250886000036160ae57866001018a898151811061609d5761609d616ff9565b602002602001015160800181815250505b818a89815181106160c1576160c1616ff9565b602090810291909101015160a001805190910190529194509250905096509650969350505050565b60608315616158578251600003616151576001600160a01b0385163b6161515760405162461bcd60e51b815260206004820152601d60248201527f416464726573733a2063616c6c20746f206e6f6e2d636f6e74726163740000006044820152606401610bd5565b508161591a565b61591a838381511561616d5781518083602001fd5b8060405162461bcd60e51b8152600401610bd5919061747f565b5080546161939061708f565b6000825580601f106161a3575050565b601f0160209004906000526020600020908101906112b1919061628c565b8280548282559060005260206000209081019282156161fc579160200282015b828111156161fc5782518255916020019190600101906161e1565b5061620892915061628c565b5090565b50805460008255906000526020600020908101906112b1919061628c565b8280548282559060005260206000209081019282156161fc579160200282015b828111156161fc578251825473ffffffffffffffffffffffffffffffffffffffff19166001600160a01b0390911617825560209092019160019091019061624a565b5b80821115616208576000815560010161628d565b7f4e487b7100000000000000000000000000000000000000000000000000000000600052604160045260246000fd5b6040516060810167ffffffffffffffff811182821017156162f3576162f36162a1565b60405290565b6040805190810167ffffffffffffffff811182821017156162f3576162f36162a1565b604051601f8201601f1916810167ffffffffffffffff81118282101715616345576163456162a1565b604052919050565b600067ffffffffffffffff821115616367576163676162a1565b5060051b60200190565b600082601f83011261638257600080fd5b813560206163976163928361634d565b61631c565b82815260059290921b840181019181810190868411156163b657600080fd5b8286015b848110156163d157803583529183019183016163ba565b509695505050505050565b6000602082840312156163ee57600080fd5b813567ffffffffffffffff81111561640557600080fd5b61591a84828501616371565b6001600160a01b03811681146112b157600080fd5b60006020828403121561643857600080fd5b81356123ad81616411565b60006020828403121561645557600080fd5b81357fffffffff00000000000000000000000000000000000000000000000000000000811681146123ad57600080fd5b60006020828403121561649757600080fd5b5035919050565b60005b838110156164b95781810151838201526020016164a1565b50506000910152565b600081518084526164da81602086016020860161649e565b601f01601f19169290920160200192915050565b60006101008a835289602084015280604084015261650e8184018a6164c2565b6060840198909852505060808101949094526001600160a01b0392831660a0850152911660c083015260ff1660e0909101529392505050565b60208152600082516060602084015261656360808401826164c2565b90506020840151601f198085840301604086015261658183836164c2565b925060408601519150808584030160608601525061659f82826164c2565b95945050505050565b600080604083850312156165bb57600080fd5b8235915060208301356165cd81616411565b809150509250929050565b600080604083850312156165eb57600080fd5b50508035926020909101359150565b600067ffffffffffffffff831115616614576166146162a1565b6166276020601f19601f8601160161631c565b905082815283838301111561663b57600080fd5b828260208301376000602084830101529392505050565b600082601f83011261666357600080fd5b6123ad838335602085016165fa565b6000806040838503121561668557600080fd5b823567ffffffffffffffff8082111561669d57600080fd5b6166a986838701616652565b935060208501359150808211156166bf57600080fd5b506166cc85828601616371565b9150509250929050565b600080604083850312156166e957600080fd5b823567ffffffffffffffff81111561670057600080fd5b61670c85828601616652565b95602094909401359450505050565b60008060008060008060008060008060006101608c8e03121561673d57600080fd5b67ffffffffffffffff808d35111561675457600080fd5b6167618e8e358f01616652565b9b508060208e0135111561677457600080fd5b6167848e60208f01358f01616652565b9a508060408e0135111561679757600080fd5b6167a78e60408f01358f01616652565b99508060608e013511156167ba57600080fd5b6167ca8e60608f01358f01616652565b98508060808e013511156167dd57600080fd5b6167ed8e60808f01358f01616652565b975060a08d0135965060c08d0135955060e08d01359450806101008e0135111561681657600080fd5b6168278e6101008f01358f01616371565b9350806101208e0135111561683b57600080fd5b5061684d8d6101208e01358e01616652565b91506101408c013590509295989b509295989b9093969950565b6000806040838503121561687a57600080fd5b823561688581616411565b9150602083013567ffffffffffffffff8111156168a157600080fd5b6166cc85828601616652565b600080600080600060a086880312156168c557600080fd5b853567ffffffffffffffff808211156168dd57600080fd5b6168e989838a01616652565b965060208801359550604088013591508082111561690657600080fd5b5061691388828901616652565b93505060608601359150608086013560ff8116811461693157600080fd5b809150509295509295909350565b600080600080600080600060e0888a03121561695a57600080fd5b873567ffffffffffffffff8082111561697257600080fd5b61697e8b838c01616652565b985060208a0135975060408a0135965060608a0135955060808a01359150808211156169a957600080fd5b506169b68a828b01616652565b93505060a0880135915060c08801356169ce81616411565b8091505092959891949750929550565b600081518084526020808501945080840160005b83811015616a0e578151875295820195908201906001016169f2565b509495945050505050565b60006020808301818452808551808352604092508286019150828160051b87010184880160005b83811015616abf577fffffffffffffffffffffffffffffffffffffffffffffffffffffffffffffffc0898403018552815160806001600160a01b03825116855288820151818a870152616a95828701826169de565b838a0151878b01526060938401511515939096019290925250509386019390860190600101616a40565b509098975050505050505050565b6001600160a01b0385168152608060208201526000616aef60808301866169de565b60408301949094525090151560609091015292915050565b60008060008060008060008060008060006101608c8e031215616b2957600080fd5b67ffffffffffffffff808d351115616b4057600080fd5b616b4d8e8e358f01616652565b9b508060208e01351115616b6057600080fd5b616b708e60208f01358f01616652565b9a508060408e01351115616b8357600080fd5b616b938e60408f01358f01616652565b99508060608e01351115616ba657600080fd5b616bb68e60608f01358f01616652565b98508060808e01351115616bc957600080fd5b616bd98e60808f01358f01616652565b975060a08d0135965060c08d0135955060e08d013594506101008d01359350806101208e0135111561683b57600080fd5b600060208284031215616c1c57600080fd5b813567ffffffffffffffff811115616c3357600080fd5b61591a84828501616652565b600080600060608486031215616c5457600080fd5b8335616c5f81616411565b925060208401359150604084013567ffffffffffffffff811115616c8257600080fd5b616c8e86828701616652565b9150509250925092565b8035616ca381616411565b919050565b600080600080600060a08688031215616cc057600080fd5b616cca8635616411565b8535945067ffffffffffffffff8060208801351115616ce857600080fd5b6020870135870188601f820112616cfe57600080fd5b616d0b616392823561634d565b81358082526020808301929160051b8401018b1015616d2957600080fd5b602083015b6020843560051b850101811015616df3578481351115616d4d57600080fd5b803584016060601f19828f03011215616d6557600080fd5b616d6d6162d0565b8660208301351115616d7e57600080fd5b616d908e602080850135850101616652565b81528660408301351115616da357600080fd5b616db68e60206040850135850101616652565b60208201528660608301351115616dcc57600080fd5b616ddf8e60206060850135850101616652565b604082015284525060209283019201616d2e565b509650616e069250505060408701616c98565b94979396509394606081013594506080013592915050565b6001600160a01b038316815260406020820152600061591a60408301846164c2565b6000806040808486031215616e5457600080fd5b833567ffffffffffffffff80821115616e6c57600080fd5b616e7887838801616371565b9450602091508186013581811115616e8f57600080fd5b8601601f81018813616ea057600080fd5b8035616eae6163928261634d565b81815260059190911b8201840190848101908a831115616ecd57600080fd5b8584015b83811015616f6057803586811115616ee95760008081fd5b8501808d03601f1901891315616eff5760008081fd5b616f076162f9565b88820135616f1481616411565b8152818a013588811115616f285760008081fd5b8083019250508d603f830112616f3e5760008081fd5b616f4e8e8a8401358c85016165fa565b818a0152845250918601918601616ed1565b50809750505050505050509250929050565b60008060008060008060c08789031215616f8b57600080fd5b863567ffffffffffffffff80821115616fa357600080fd5b616faf8a838b01616652565b97506020890135915080821115616fc557600080fd5b50616fd289828a01616652565b96999698505050506040850135946060810135946080820135945060a09091013592509050565b7f4e487b7100000000000000000000000000000000000000000000000000000000600052603260045260246000fd5b7f4e487b7100000000000000000000000000000000000000000000000000000000600052601160045260246000fd5b60007fffffffffffffffffffffffffffffffffffffffffffffffffffffffffffffffff820361708857617088617028565b5060010190565b600181811c908216806170a357607f821691505b602082108103612063577f4e487b7100000000000000000000000000000000000000000000000000000000600052602260045260246000fd5b81810381811115610ced57610ced617028565b60608152600061710260608301866164c2565b60208301949094525060400152919050565b6000845161712681846020890161649e565b84519083019061713a81836020890161649e565b845191019061714d81836020880161649e565b0195945050505050565b6020815260006123ad60208301846169de565b84815260806020820152600061718360808301866164c2565b905083604083015260ff8316606083015295945050505050565b600060ff821660ff81036171b3576171b3617028565b60010192915050565b6080815260006171cf60808301876164c2565b60208301959095525060ff92831660408201529116606090910152919050565b86815285602082015284604082015260c06060820152600061721460c08301866164c2565b90508360808301526001600160a01b03831660a0830152979650505050505050565b80820180821115610ced57610ced617028565b601f82111561105157600081815260208120601f850160051c810160208610156172705750805b601f850160051c820191505b818110156133325782815560010161727c565b815167ffffffffffffffff8111156172a9576172a96162a1565b6172bd816172b7845461708f565b84617249565b602080601f83116001811461731057600084156172da5750858301515b7fffffffffffffffffffffffffffffffffffffffffffffffffffffffffffffffff600386901b1c1916600185901b178555613332565b600085815260208120601f198616915b8281101561733f57888601518255948401946001909101908401617320565b508582101561737b57878501517fffffffffffffffffffffffffffffffffffffffffffffffffffffffffffffffff600388901b60f8161c191681555b5050505050600190811b01905550565b86815285602082015260c0604082015260006173aa60c08301876164c2565b6060830195909552506001600160a01b039283166080820152911660a0909101529392505050565b6040815260006173e560408301856164c2565b90508260208301529392505050565b60006040820184835260206040818501528185548084526060860191508660005282600020935060005b818110156174435784546001600160a01b03168352600194850194928401920161741e565b5090979650505050505050565b7f4e487b7100000000000000000000000000000000000000000000000000000000600052603160045260246000fd5b6020815260006123ad60208301846164c2565b8381526001600160a01b038316602082015260606040820152600061659f60608301846164c2565b6000602082840312156174cc57600080fd5b5051919050565b7f4e487b7100000000000000000000000000000000000000000000000000000000600052601260045260246000fd5b600082617511576175116174d3565b500490565b600061010080835261752a8184018c6164c2565b9050828103602084015261753e818b6164c2565b90508281036040840152617552818a6164c2565b9050828103606084015261756681896164c2565b9050828103608084015261757a81886164c2565b60a0840196909652505060c081019290925260e09091015295945050505050565b600082516175ad81846020870161649e565b9190910192915050565b7f416363657373436f6e74726f6c3a206163636f756e74200000000000000000008152600083516175ef81601785016020880161649e565b7f206973206d697373696e6720726f6c6520000000000000000000000000000000601791840191820152835161762c81602884016020880161649e565b01602801949350505050565b60006020828403121561764a57600080fd5b815180151581146123ad57600080fd5b67ffffffffffffffff828116828216039080821115615e6357615e63617028565b7f4e487b7100000000000000000000000000000000000000000000000000000000600052602160045260246000fd5b67ffffffffffffffff818116838216019080821115615e6357615e63617028565b6000826176da576176da6174d3565b500690565b6060815260006176f260608301866164c2565b828103602084015261770481866164c2565b90508281036040840152615ed881856164c2565b8082028115828204841417610ced57610ced617028565b60008161773e5761773e617028565b507fffffffffffffffffffffffffffffffffffffffffffffffffffffffffffffffff019056fe416464726573733a206c6f772d6c6576656c2064656c65676174652063616c6c206661696c6564a26469706673582212205531b3973ac679667b98da93880a75b3bdcdec70f2dd7fbb924599d472bec9b964736f6c63430008110033",
  "linkReferences": {},
  "deployedLinkReferences": {}
}