{
  "_format": "hh-sol-artifact-1",
  "contractName": "CommonChainJobs",
  "sourceName": "contracts/serverless-v2/CommonChainJobs.sol",
  "abi": [
    {
      "inputs": [
        {
          "internalType": "contract IERC20",
          "name": "_token",
          "type": "address"
        },
        {
          "internalType": "uint256",
          "name": "_relayBufferTime",
          "type": "uint256"
        },
        {
          "internalType": "uint256",
          "name": "_executionBufferTime",
          "type": "uint256"
        },
        {
          "internalType": "uint256",
          "name": "_noOfNodesToSelect",
          "type": "uint256"
        }
      ],
      "stateMutability": "nonpayable",
      "type": "constructor"
    },
    {
      "inputs": [],
      "name": "AccessControlBadConfirmation",
      "type": "error"
    },
    {
      "inputs": [
        {
          "internalType": "address",
          "name": "account",
          "type": "address"
        },
        {
          "internalType": "bytes32",
          "name": "neededRole",
          "type": "bytes32"
        }
      ],
      "name": "AccessControlUnauthorizedAccount",
      "type": "error"
    },
    {
      "inputs": [
        {
          "internalType": "address",
          "name": "target",
          "type": "address"
        }
      ],
      "name": "AddressEmptyCode",
      "type": "error"
    },
    {
      "inputs": [],
      "name": "ECDSAInvalidSignature",
      "type": "error"
    },
    {
      "inputs": [
        {
          "internalType": "uint256",
          "name": "length",
          "type": "uint256"
        }
      ],
      "name": "ECDSAInvalidSignatureLength",
      "type": "error"
    },
    {
      "inputs": [
        {
          "internalType": "bytes32",
          "name": "s",
          "type": "bytes32"
        }
      ],
      "name": "ECDSAInvalidSignatureS",
      "type": "error"
    },
    {
      "inputs": [
        {
          "internalType": "address",
          "name": "implementation",
          "type": "address"
        }
      ],
      "name": "ERC1967InvalidImplementation",
      "type": "error"
    },
    {
      "inputs": [],
      "name": "ERC1967NonPayable",
      "type": "error"
    },
    {
      "inputs": [],
      "name": "FailedInnerCall",
      "type": "error"
    },
    {
      "inputs": [],
      "name": "InvalidInitialization",
      "type": "error"
    },
    {
      "inputs": [],
      "name": "NotInitializing",
      "type": "error"
    },
    {
      "inputs": [],
      "name": "UUPSUnauthorizedCallContext",
      "type": "error"
    },
    {
      "inputs": [
        {
          "internalType": "bytes32",
          "name": "slot",
          "type": "bytes32"
        }
      ],
      "name": "UUPSUnsupportedProxiableUUID",
      "type": "error"
    },
    {
      "anonymous": false,
      "inputs": [
        {
          "indexed": true,
          "internalType": "uint256",
          "name": "jobId",
          "type": "uint256"
        },
        {
          "indexed": true,
          "internalType": "uint256",
          "name": "reqChainId",
          "type": "uint256"
        },
        {
          "indexed": false,
          "internalType": "address",
          "name": "prevGatewayKey",
          "type": "address"
        },
        {
          "indexed": false,
          "internalType": "address",
          "name": "reporterGateway",
          "type": "address"
        },
        {
          "indexed": false,
          "internalType": "uint8",
          "name": "sequenceId",
          "type": "uint8"
        }
      ],
      "name": "GatewayReassigned",
      "type": "event"
    },
    {
      "anonymous": false,
      "inputs": [
        {
          "indexed": false,
          "internalType": "uint64",
          "name": "version",
          "type": "uint64"
        }
      ],
      "name": "Initialized",
      "type": "event"
    },
    {
      "anonymous": false,
      "inputs": [
        {
          "indexed": true,
          "internalType": "uint256",
          "name": "jobId",
          "type": "uint256"
        },
        {
          "indexed": true,
          "internalType": "uint256",
          "name": "reqChainId",
          "type": "uint256"
        },
        {
          "indexed": false,
          "internalType": "bytes32",
          "name": "codehash",
          "type": "bytes32"
        },
        {
          "indexed": false,
          "internalType": "bytes",
          "name": "codeInputs",
          "type": "bytes"
        },
        {
          "indexed": false,
          "internalType": "uint256",
          "name": "deadline",
          "type": "uint256"
        },
        {
          "indexed": false,
          "internalType": "address",
          "name": "jobOwner",
          "type": "address"
        },
        {
          "indexed": false,
          "internalType": "address",
          "name": "gatewayOperator",
          "type": "address"
        },
        {
          "indexed": false,
          "internalType": "address[]",
          "name": "selectedExecutors",
          "type": "address[]"
        }
      ],
      "name": "JobRelayed",
      "type": "event"
    },
    {
      "anonymous": false,
      "inputs": [
        {
          "indexed": true,
          "internalType": "uint256",
          "name": "jobId",
          "type": "uint256"
        },
        {
          "indexed": true,
          "internalType": "uint256",
          "name": "reqChainId",
          "type": "uint256"
        },
        {
          "indexed": true,
          "internalType": "address",
          "name": "gatewayOperator",
          "type": "address"
        }
      ],
      "name": "JobResourceUnavailable",
      "type": "event"
    },
    {
      "anonymous": false,
      "inputs": [
        {
          "indexed": true,
          "internalType": "uint256",
          "name": "jobId",
          "type": "uint256"
        },
        {
          "indexed": true,
          "internalType": "uint256",
          "name": "reqChainId",
          "type": "uint256"
        },
        {
          "indexed": false,
          "internalType": "bytes",
          "name": "output",
          "type": "bytes"
        },
        {
          "indexed": false,
          "internalType": "uint256",
          "name": "totalTime",
          "type": "uint256"
        },
        {
          "indexed": false,
          "internalType": "uint8",
          "name": "errorCode",
          "type": "uint8"
        },
        {
          "indexed": false,
          "internalType": "uint8",
          "name": "outputCount",
          "type": "uint8"
        }
      ],
      "name": "JobResponded",
      "type": "event"
    },
    {
      "anonymous": false,
      "inputs": [
        {
          "indexed": true,
          "internalType": "bytes32",
          "name": "role",
          "type": "bytes32"
        },
        {
          "indexed": true,
          "internalType": "bytes32",
          "name": "previousAdminRole",
          "type": "bytes32"
        },
        {
          "indexed": true,
          "internalType": "bytes32",
          "name": "newAdminRole",
          "type": "bytes32"
        }
      ],
      "name": "RoleAdminChanged",
      "type": "event"
    },
    {
      "anonymous": false,
      "inputs": [
        {
          "indexed": true,
          "internalType": "bytes32",
          "name": "role",
          "type": "bytes32"
        },
        {
          "indexed": true,
          "internalType": "address",
          "name": "account",
          "type": "address"
        },
        {
          "indexed": true,
          "internalType": "address",
          "name": "sender",
          "type": "address"
        }
      ],
      "name": "RoleGranted",
      "type": "event"
    },
    {
      "anonymous": false,
      "inputs": [
        {
          "indexed": true,
          "internalType": "bytes32",
          "name": "role",
          "type": "bytes32"
        },
        {
          "indexed": true,
          "internalType": "address",
          "name": "account",
          "type": "address"
        },
        {
          "indexed": true,
          "internalType": "address",
          "name": "sender",
          "type": "address"
        }
      ],
      "name": "RoleRevoked",
      "type": "event"
    },
    {
      "anonymous": false,
      "inputs": [
        {
          "indexed": true,
          "internalType": "uint256",
          "name": "jobId",
          "type": "uint256"
        },
        {
          "indexed": true,
          "internalType": "uint256",
          "name": "reqChainId",
          "type": "uint256"
        },
        {
          "indexed": false,
          "internalType": "address[]",
          "name": "executors",
          "type": "address[]"
        }
      ],
      "name": "SlashedOnExecutionTimeout",
      "type": "event"
    },
    {
      "anonymous": false,
      "inputs": [
        {
          "indexed": true,
          "internalType": "address",
          "name": "implementation",
          "type": "address"
        }
      ],
      "name": "Upgraded",
      "type": "event"
    },
    {
      "inputs": [],
      "name": "DEFAULT_ADMIN_ROLE",
      "outputs": [
        {
          "internalType": "bytes32",
          "name": "",
          "type": "bytes32"
        }
      ],
      "stateMutability": "view",
      "type": "function"
    },
    {
      "inputs": [],
      "name": "EXECUTION_BUFFER_TIME",
      "outputs": [
        {
          "internalType": "uint256",
          "name": "",
          "type": "uint256"
        }
      ],
      "stateMutability": "view",
      "type": "function"
    },
    {
      "inputs": [],
      "name": "NO_OF_NODES_TO_SELECT",
      "outputs": [
        {
          "internalType": "uint256",
          "name": "",
          "type": "uint256"
        }
      ],
      "stateMutability": "view",
      "type": "function"
    },
    {
      "inputs": [],
      "name": "RELAY_BUFFER_TIME",
      "outputs": [
        {
          "internalType": "uint256",
          "name": "",
          "type": "uint256"
        }
      ],
      "stateMutability": "view",
      "type": "function"
    },
    {
      "inputs": [],
      "name": "TOKEN",
      "outputs": [
        {
          "internalType": "contract IERC20",
          "name": "",
          "type": "address"
        }
      ],
      "stateMutability": "view",
      "type": "function"
    },
    {
      "inputs": [],
      "name": "UPGRADE_INTERFACE_VERSION",
      "outputs": [
        {
          "internalType": "string",
          "name": "",
          "type": "string"
        }
      ],
      "stateMutability": "view",
      "type": "function"
    },
    {
      "inputs": [
        {
          "internalType": "address",
          "name": "_admin",
          "type": "address"
        },
        {
          "internalType": "contract CommonChainGateways",
          "name": "_gateways",
          "type": "address"
        },
        {
          "internalType": "contract CommonChainExecutors",
          "name": "_executors",
          "type": "address"
        }
      ],
      "name": "__CommonChainJobs_init",
      "outputs": [],
      "stateMutability": "nonpayable",
      "type": "function"
    },
    {
      "inputs": [],
      "name": "executors",
      "outputs": [
        {
          "internalType": "contract CommonChainExecutors",
          "name": "",
          "type": "address"
        }
      ],
      "stateMutability": "view",
      "type": "function"
    },
    {
      "inputs": [],
      "name": "gateways",
      "outputs": [
        {
          "internalType": "contract CommonChainGateways",
          "name": "",
          "type": "address"
        }
      ],
      "stateMutability": "view",
      "type": "function"
    },
    {
      "inputs": [
        {
          "internalType": "uint256",
          "name": "_jobId",
          "type": "uint256"
        },
        {
          "internalType": "uint256",
          "name": "_reqChainId",
          "type": "uint256"
        }
      ],
      "name": "getKey",
      "outputs": [
        {
          "internalType": "uint256",
          "name": "",
          "type": "uint256"
        }
      ],
      "stateMutability": "pure",
      "type": "function"
    },
    {
      "inputs": [
        {
          "internalType": "bytes32",
          "name": "role",
          "type": "bytes32"
        }
      ],
      "name": "getRoleAdmin",
      "outputs": [
        {
          "internalType": "bytes32",
          "name": "",
          "type": "bytes32"
        }
      ],
      "stateMutability": "view",
      "type": "function"
    },
    {
      "inputs": [
        {
          "internalType": "bytes32",
          "name": "role",
          "type": "bytes32"
        },
        {
          "internalType": "uint256",
          "name": "index",
          "type": "uint256"
        }
      ],
      "name": "getRoleMember",
      "outputs": [
        {
          "internalType": "address",
          "name": "",
          "type": "address"
        }
      ],
      "stateMutability": "view",
      "type": "function"
    },
    {
      "inputs": [
        {
          "internalType": "bytes32",
          "name": "role",
          "type": "bytes32"
        }
      ],
      "name": "getRoleMemberCount",
      "outputs": [
        {
          "internalType": "uint256",
          "name": "",
          "type": "uint256"
        }
      ],
      "stateMutability": "view",
      "type": "function"
    },
    {
      "inputs": [
        {
          "internalType": "uint256",
          "name": "_jobId",
          "type": "uint256"
        },
        {
          "internalType": "uint256",
          "name": "_reqChainId",
          "type": "uint256"
        }
      ],
      "name": "getSelectedExecutors",
      "outputs": [
        {
          "internalType": "address[]",
          "name": "",
          "type": "address[]"
        }
      ],
      "stateMutability": "view",
      "type": "function"
    },
    {
      "inputs": [
        {
          "internalType": "bytes32",
          "name": "role",
          "type": "bytes32"
        },
        {
          "internalType": "address",
          "name": "account",
          "type": "address"
        }
      ],
      "name": "grantRole",
      "outputs": [],
      "stateMutability": "nonpayable",
      "type": "function"
    },
    {
      "inputs": [
        {
          "internalType": "uint256",
          "name": "",
          "type": "uint256"
        },
        {
          "internalType": "address",
          "name": "",
          "type": "address"
        }
      ],
      "name": "hasExecutedJob",
      "outputs": [
        {
          "internalType": "bool",
          "name": "",
          "type": "bool"
        }
      ],
      "stateMutability": "view",
      "type": "function"
    },
    {
      "inputs": [
        {
          "internalType": "bytes32",
          "name": "role",
          "type": "bytes32"
        },
        {
          "internalType": "address",
          "name": "account",
          "type": "address"
        }
      ],
      "name": "hasRole",
      "outputs": [
        {
          "internalType": "bool",
          "name": "",
          "type": "bool"
        }
      ],
      "stateMutability": "view",
      "type": "function"
    },
    {
      "inputs": [
        {
          "internalType": "uint256",
          "name": "_jobId",
          "type": "uint256"
        },
        {
          "internalType": "uint256",
          "name": "_reqChainId",
          "type": "uint256"
        },
        {
          "internalType": "address",
          "name": "_executor",
          "type": "address"
        }
      ],
      "name": "isJobExecutor",
      "outputs": [
        {
          "internalType": "bool",
          "name": "",
          "type": "bool"
        }
      ],
      "stateMutability": "view",
      "type": "function"
    },
    {
      "inputs": [
        {
          "internalType": "uint256",
          "name": "",
          "type": "uint256"
        }
      ],
      "name": "jobs",
      "outputs": [
        {
          "internalType": "uint256",
          "name": "jobId",
          "type": "uint256"
        },
        {
          "internalType": "uint256",
          "name": "reqChainId",
          "type": "uint256"
        },
        {
          "internalType": "bytes32",
          "name": "codehash",
          "type": "bytes32"
        },
        {
          "internalType": "bytes",
          "name": "codeInputs",
          "type": "bytes"
        },
        {
          "internalType": "uint256",
          "name": "deadline",
          "type": "uint256"
        },
        {
          "internalType": "uint256",
          "name": "execStartTime",
          "type": "uint256"
        },
        {
          "internalType": "address",
          "name": "jobOwner",
          "type": "address"
        },
        {
          "internalType": "uint8",
          "name": "outputCount",
          "type": "uint8"
        },
        {
          "internalType": "uint8",
          "name": "sequenceId",
          "type": "uint8"
        },
        {
          "internalType": "bool",
          "name": "isResourceUnavailable",
          "type": "bool"
        }
      ],
      "stateMutability": "view",
      "type": "function"
    },
    {
      "inputs": [],
      "name": "proxiableUUID",
      "outputs": [
        {
          "internalType": "bytes32",
          "name": "",
          "type": "bytes32"
        }
      ],
      "stateMutability": "view",
      "type": "function"
    },
    {
      "inputs": [
        {
          "internalType": "address",
          "name": "_gatewayKeyOld",
          "type": "address"
        },
        {
          "internalType": "uint256",
          "name": "_jobId",
          "type": "uint256"
        },
        {
          "internalType": "uint256",
          "name": "_reqChainId",
          "type": "uint256"
        },
        {
          "internalType": "bytes",
          "name": "_signature",
          "type": "bytes"
        },
        {
          "internalType": "uint8",
          "name": "_sequenceId",
          "type": "uint8"
        }
      ],
      "name": "reassignGatewayRelay",
      "outputs": [],
      "stateMutability": "nonpayable",
      "type": "function"
    },
    {
      "inputs": [
        {
          "internalType": "bytes",
          "name": "_signature",
          "type": "bytes"
        },
        {
          "internalType": "uint256",
          "name": "_jobId",
          "type": "uint256"
        },
        {
          "internalType": "uint256",
          "name": "_reqChainId",
          "type": "uint256"
        },
        {
          "internalType": "bytes32",
          "name": "_codehash",
          "type": "bytes32"
        },
        {
          "internalType": "bytes",
          "name": "_codeInputs",
          "type": "bytes"
        },
        {
          "internalType": "uint256",
          "name": "_deadline",
          "type": "uint256"
        },
        {
          "internalType": "uint256",
          "name": "_jobRequestTimestamp",
          "type": "uint256"
        },
        {
          "internalType": "uint8",
          "name": "_sequenceId",
          "type": "uint8"
        },
        {
          "internalType": "address",
          "name": "_jobOwner",
          "type": "address"
        }
      ],
      "name": "relayJob",
      "outputs": [],
      "stateMutability": "nonpayable",
      "type": "function"
    },
    {
      "inputs": [
        {
          "internalType": "bytes32",
          "name": "role",
          "type": "bytes32"
        },
        {
          "internalType": "address",
          "name": "callerConfirmation",
          "type": "address"
        }
      ],
      "name": "renounceRole",
      "outputs": [],
      "stateMutability": "nonpayable",
      "type": "function"
    },
    {
      "inputs": [
        {
          "internalType": "bytes32",
          "name": "role",
          "type": "bytes32"
        },
        {
          "internalType": "address",
          "name": "account",
          "type": "address"
        }
      ],
      "name": "revokeRole",
      "outputs": [],
      "stateMutability": "nonpayable",
      "type": "function"
    },
    {
      "inputs": [
        {
          "internalType": "uint256",
          "name": "",
          "type": "uint256"
        },
        {
          "internalType": "uint256",
          "name": "",
          "type": "uint256"
        }
      ],
      "name": "selectedExecutors",
      "outputs": [
        {
          "internalType": "address",
          "name": "",
          "type": "address"
        }
      ],
      "stateMutability": "view",
      "type": "function"
    },
    {
      "inputs": [
        {
          "internalType": "contract CommonChainExecutors",
          "name": "_executors",
          "type": "address"
        }
      ],
      "name": "setExecutorsContract",
      "outputs": [],
      "stateMutability": "nonpayable",
      "type": "function"
    },
    {
      "inputs": [
        {
          "internalType": "contract CommonChainGateways",
          "name": "_gateways",
          "type": "address"
        }
      ],
      "name": "setGatewaysContract",
      "outputs": [],
      "stateMutability": "nonpayable",
      "type": "function"
    },
    {
      "inputs": [
        {
          "internalType": "uint256",
          "name": "_jobId",
          "type": "uint256"
        },
        {
          "internalType": "uint256",
          "name": "_reqChainId",
          "type": "uint256"
        }
      ],
      "name": "slashOnExecutionTimeout",
      "outputs": [],
      "stateMutability": "nonpayable",
      "type": "function"
    },
    {
      "inputs": [
        {
          "internalType": "bytes",
          "name": "_signature",
          "type": "bytes"
        },
        {
          "internalType": "uint256",
          "name": "_jobId",
          "type": "uint256"
        },
        {
          "internalType": "uint256",
          "name": "_reqChainId",
          "type": "uint256"
        },
        {
          "internalType": "bytes",
          "name": "_output",
          "type": "bytes"
        },
        {
          "internalType": "uint256",
          "name": "_totalTime",
          "type": "uint256"
        },
        {
          "internalType": "uint8",
          "name": "_errorCode",
          "type": "uint8"
        }
      ],
      "name": "submitOutput",
      "outputs": [],
      "stateMutability": "nonpayable",
      "type": "function"
    },
    {
      "inputs": [
        {
          "internalType": "bytes4",
          "name": "interfaceId",
          "type": "bytes4"
        }
      ],
      "name": "supportsInterface",
      "outputs": [
        {
          "internalType": "bool",
          "name": "",
          "type": "bool"
        }
      ],
      "stateMutability": "view",
      "type": "function"
    },
    {
      "inputs": [
        {
          "internalType": "address",
          "name": "newImplementation",
          "type": "address"
        },
        {
          "internalType": "bytes",
          "name": "data",
          "type": "bytes"
        }
      ],
      "name": "upgradeToAndCall",
      "outputs": [],
      "stateMutability": "payable",
      "type": "function"
    }
  ],
  "bytecode": "0x6101206040523060805234801561001557600080fd5b50604051613d41380380613d41833981016040819052610034916101b4565b7ff0c57e16840df040f15088dc2f81fe391c3923bec73e23a9662efc9c229c6a00805468010000000000000000810460ff1615906001600160401b031660008115801561007e5750825b90506000826001600160401b0316600114801561009a5750303b155b9050811580156100a8575080155b156100c65760405163f92ee8a960e01b815260040160405180910390fd5b84546001600160401b031916600117855583156100f457845460ff60401b1916680100000000000000001785555b6001600160a01b0389166101435760405162461bcd60e51b81526020600482015260126024820152712d22a927afa0a2222922a9a9afaa27a5a2a760711b604482015260640160405180910390fd5b6001600160a01b03891660a05260c088905260e087905261010086905283156101a657845460ff60401b19168555604051600181527fc7f505b2f371ae2175ee4913f4499e1f2633a7b5936321eed1cdaeb6115181d29060200160405180910390a15b5050505050505050506101ff565b600080600080608085870312156101ca57600080fd5b84516001600160a01b03811681146101e157600080fd5b60208601516040870151606090970151919890975090945092505050565b60805160a05160c05160e05161010051613acd610274600039600081816103e001528181611c5f0152611ce80152600081816105d701528181610bda01526110a301526000818161025c01526118a30152600061049c0152600081816121d0015281816121f9015261241f0152613acd6000f3fe6080604052600436106101d85760003560e01c806382aa29af11610102578063a313225811610095578063ca15c87311610064578063ca15c8731461068f578063d547741f146106af578063d7e4ee65146106cf578063e52e63c5146106ef57600080fd5b8063a3132258146105c5578063aadc672b146105f9578063accc7f2e14610619578063ad3cb1cc1461063957600080fd5b80639010d07c116100d15780639010d07c1461050b57806391d148541461052b57806397c4101914610590578063a217fddf146105b057600080fd5b806382aa29af1461046a57806382bfefc81461048a5780638379f744146104be57806384bf79cc146104eb57600080fd5b80632f2ff15d1161017a5780634f1ef286116101495780634f1ef2861461040257806352d1902d14610415578063661785481461042a57806371b9eae11461044a57600080fd5b80632f2ff15d1461036e5780633651cf281461038e57806336568abe146103ae57806336f9aa99146103ce57600080fd5b80631134384a116101b65780631134384a1461028c5780631646e701146102c7578063180aedf3146102e9578063248a9ca31461031f57600080fd5b806301ffc9a7146101dd578063093a86d31461021257806309aa1c7f1461024a575b600080fd5b3480156101e957600080fd5b506101fd6101f8366004612f90565b61070f565b60405190151581526020015b60405180910390f35b34801561021e57600080fd5b50600054610232906001600160a01b031681565b6040516001600160a01b039091168152602001610209565b34801561025657600080fd5b5061027e7f000000000000000000000000000000000000000000000000000000000000000081565b604051908152602001610209565b34801561029857600080fd5b506101fd6102a7366004612fe7565b600460209081526000928352604080842090915290825290205460ff1681565b3480156102d357600080fd5b506102e76102e2366004613017565b610720565b005b3480156102f557600080fd5b50610309610304366004613062565b610968565b6040516102099a999897969594939291906130cb565b34801561032b57600080fd5b5061027e61033a366004613062565b60009081527f02dd7bc7dec4dceedda775e58dd541e08a116c6c53815c0bd028192f7b626800602052604090206001015490565b34801561037a57600080fd5b506102e7610389366004612fe7565b610a8f565b34801561039a57600080fd5b506102326103a9366004613136565b610ad9565b3480156103ba57600080fd5b506102e76103c9366004612fe7565b610b11565b3480156103da57600080fd5b5061027e7f000000000000000000000000000000000000000000000000000000000000000081565b6102e7610410366004613228565b610b62565b34801561042157600080fd5b5061027e610b81565b34801561043657600080fd5b506102e761044536600461328e565b610bb0565b34801561045657600080fd5b506102e761046536600461331e565b610f66565b34801561047657600080fd5b506102e7610485366004613136565b61101e565b34801561049657600080fd5b506102327f000000000000000000000000000000000000000000000000000000000000000081565b3480156104ca57600080fd5b506104de6104d9366004613136565b61137f565b6040516102099190613380565b3480156104f757600080fd5b506102e7610506366004613393565b6113fd565b34801561051757600080fd5b50610232610526366004613136565b611704565b34801561053757600080fd5b506101fd610546366004612fe7565b60009182527f02dd7bc7dec4dceedda775e58dd541e08a116c6c53815c0bd028192f7b626800602090815260408084206001600160a01b0393909316845291905290205460ff1690565b34801561059c57600080fd5b506101fd6105ab366004613407565b611745565b3480156105bc57600080fd5b5061027e600081565b3480156105d157600080fd5b5061027e7f000000000000000000000000000000000000000000000000000000000000000081565b34801561060557600080fd5b5061027e610614366004613136565b61182d565b34801561062557600080fd5b506102e7610634366004613435565b611890565b34801561064557600080fd5b506106826040518060400160405280600581526020017f352e302e3000000000000000000000000000000000000000000000000000000081525081565b60405161020991906134ef565b34801561069b57600080fd5b5061027e6106aa366004613062565b611fb0565b3480156106bb57600080fd5b506102e76106ca366004612fe7565b611fe8565b3480156106db57600080fd5b506102e76106ea36600461331e565b61202c565b3480156106fb57600080fd5b50600154610232906001600160a01b031681565b600061071a826120e4565b92915050565b7ff0c57e16840df040f15088dc2f81fe391c3923bec73e23a9662efc9c229c6a00805468010000000000000000810460ff16159067ffffffffffffffff1660008115801561076b5750825b905060008267ffffffffffffffff1660011480156107885750303b155b905081158015610796575080155b156107cd576040517ff92ee8a900000000000000000000000000000000000000000000000000000000815260040160405180910390fd5b84547fffffffffffffffffffffffffffffffffffffffffffffffff0000000000000000166001178555831561082e5784547fffffffffffffffffffffffffffffffffffffffffffffff00ffffffffffffffff16680100000000000000001785555b6001600160a01b0388166108895760405162461bcd60e51b815260206004820152601260248201527f5a45524f5f414444524553535f41444d494e000000000000000000000000000060448201526064015b60405180910390fd5b61089161213a565b61089961213a565b6108a161213a565b6108a961213a565b6108b4600089612144565b50600080546001600160a01b03808a167fffffffffffffffffffffffff0000000000000000000000000000000000000000928316179092556001805492891692909116919091179055831561095e5784547fffffffffffffffffffffffffffffffffffffffffffffff00ffffffffffffffff168555604051600181527fc7f505b2f371ae2175ee4913f4499e1f2633a7b5936321eed1cdaeb6115181d29060200160405180910390a15b5050505050505050565b60026020819052600091825260409091208054600182015492820154600383018054929493919261099890613502565b80601f01602080910402602001604051908101604052809291908181526020018280546109c490613502565b8015610a115780601f106109e657610100808354040283529160200191610a11565b820191906000526020600020905b8154815290600101906020018083116109f457829003601f168201915b50505060048401546005850154600690950154939490939092506001600160a01b038116915060ff74010000000000000000000000000000000000000000820481169175010000000000000000000000000000000000000000008104821691760100000000000000000000000000000000000000000000909104168a565b60008281527f02dd7bc7dec4dceedda775e58dd541e08a116c6c53815c0bd028192f7b6268006020526040902060010154610ac981612150565b610ad38383612144565b50505050565b60036020528160005260406000208181548110610af557600080fd5b6000918252602090912001546001600160a01b03169150829050565b6001600160a01b0381163314610b53576040517f6697b23200000000000000000000000000000000000000000000000000000000815260040160405180910390fd5b610b5d828261215d565b505050565b610b6a6121c5565b610b7382612295565b610b7d8282612313565b5050565b6000610b8b612414565b507f360894a13ba1a3210667c828492db98dca3e2076cc3735a920a3ca505d382bbc90565b6000610bbc868661182d565b600081815260026020526040902060048101546005909101549192507f000000000000000000000000000000000000000000000000000000000000000091610c049190613584565b610c0e9190613584565b421115610c5d5760405162461bcd60e51b815260206004820152601360248201527f455845435554494f4e5f54494d455f4f564552000000000000000000000000006044820152606401610880565b60008686868686604051602001610c78959493929190613597565b60408051601f19818403018152919052805160209091012090506000610c9e828a612476565b6001546040517fa0ac45d50000000000000000000000000000000000000000000000000000000081526001600160a01b03808416600483015292935091169063a0ac45d59060240160006040518083038186803b158015610cfe57600080fd5b505afa158015610d12573d6000803e3d6000fd5b50505050610d21888883611745565b610d6d5760405162461bcd60e51b815260206004820152601560248201527f4e4f545f53454c45435445445f4558454355544f5200000000000000000000006044820152606401610880565b60008381526004602090815260408083206001600160a01b038516845290915290205460ff1615610e065760405162461bcd60e51b815260206004820152602160248201527f4558454355544f525f414c52454144595f5355424d49545445445f4f5554505560448201527f54000000000000000000000000000000000000000000000000000000000000006064820152608401610880565b6001546040517fb91582010000000000000000000000000000000000000000000000000000000081526001600160a01b0383811660048301529091169063b915820190602401600060405180830381600087803b158015610e6657600080fd5b505af1158015610e7a573d6000803e3d6000fd5b50505060008481526004602090815260408083206001600160a01b0386168452825280832080547fffffffffffffffffffffffffffffffffffffffffffffffffffffffffffffff001660011790558683526002909152902060060180548992508a917fcd86deaec154b5433ef7431b7e87f90921ca1b867085d3b5fbeaa0734a870c08918a918a918a9190601490610f2c9074010000000000000000000000000000000000000000900460ff166135f8565b91906101000a81548160ff021916908360ff1602179055604051610f539493929190613617565b60405180910390a3505050505050505050565b3360009081527fb7db2dd08fcb62d0c9e08c51941cae53c267786a0b75803fb7960902fc8ef97d602052604090205460ff16610fe45760405162461bcd60e51b815260206004820152600a60248201527f6f6e6c792061646d696e000000000000000000000000000000000000000000006044820152606401610880565b600180547fffffffffffffffffffffffff0000000000000000000000000000000000000000166001600160a01b0392909216919091179055565b600061102a838361182d565b6000818152600260205260409020549091506110885760405162461bcd60e51b815260206004820152600b60248201527f494e56414c49445f4a4f420000000000000000000000000000000000000000006044820152606401610880565b600081815260026020526040902060048101546005909101547f0000000000000000000000000000000000000000000000000000000000000000916110cc91613584565b6110d69190613584565b42116111245760405162461bcd60e51b815260206004820152601160248201527f444541444c494e455f4e4f545f4f5645520000000000000000000000000000006044820152606401610880565b6000818152600260208190526040822082815560018101839055908101829055906111526003830182612ea6565b5060006004820181905560058201819055600690910180547fffffffffffffffffff000000000000000000000000000000000000000000000016905581815260036020526040812054905b8181101561131c5760008381526003602052604081208054839081106111c5576111c561364a565b60009182526020808320909101548683526004825260408084206001600160a01b039092168085529190925291205490915060ff16156112475760405162461bcd60e51b815260206004820152601460248201527f4a4f425f414c52454144595f45584543555445440000000000000000000000006044820152606401610880565b60008481526004602081815260408084206001600160a01b03808716865292529283902080547fffffffffffffffffffffffffffffffffffffffffffffffffffffffffffffff0016905560015492517f8d816ec3000000000000000000000000000000000000000000000000000000008152921691638d816ec3916112dd918591016001600160a01b0391909116815260200190565b600060405180830381600087803b1580156112f757600080fd5b505af115801561130b573d6000803e3d6000fd5b50506001909301925061119d915050565b5082847f2c59c586a31f422a6ca799a7602cfd94e2f80425f0f8808233898d631c99dbeb600360008681526020019081526020016000206040516113609190613679565b60405180910390a36000828152600360205260408120610ad391612ee0565b6060600061138d848461182d565b60008181526003602090815260409182902080548351818402810184019094528084529394509192908301828280156113ef57602002820191906000526020600020905b81546001600160a01b031681526001909101906020018083116113d1575b505050505091505092915050565b6000611409858561182d565b600081815260026020526040902060060154909150760100000000000000000000000000000000000000000000900460ff16156114ae5760405162461bcd60e51b815260206004820152602860248201527f4a4f425f4d41524b45445f454e4445445f41535f5245534f555243455f554e4160448201527f5641494c41424c450000000000000000000000000000000000000000000000006064820152608401610880565b6000818152600260205260409020600601546114e7907501000000000000000000000000000000000000000000900460ff1660016136c9565b60ff168260ff161480156114fe575060038260ff16105b61154a5760405162461bcd60e51b815260206004820152601360248201527f494e56414c49445f53455155454e43455f4944000000000000000000000000006044820152606401610880565b6000818152600260209081526040808320600601805460ff87167501000000000000000000000000000000000000000000027fffffffffffffffffffff00ffffffffffffffffffffffffffffffffffffffffff909116179055805180830189905280820188905260608a811b7fffffffffffffffffffffffffffffffffffffffff000000000000000000000000169082015260f886901b7fff0000000000000000000000000000000000000000000000000000000000000016607482015281518082036055018152607590910190915280519101209061162a8286612476565b6000546040517fa0ac45d50000000000000000000000000000000000000000000000000000000081526001600160a01b03808416600483015292935091169063a0ac45d59060240160006040518083038186803b15801561168a57600080fd5b505afa15801561169e573d6000803e3d6000fd5b5050505085877fc31cb391e5bc4534492666e14038fba505e5f24190f587d734833f36f6b516048a6116cd3390565b604080516001600160a01b03938416815292909116602083015260ff89169082015260600160405180910390a35050505050505050565b60008281527fc1f6fe24621ce81ec5827caf0253cadb74709b061630e6b55e8237170593200060208190526040822061173d90846124a0565b949350505050565b600080611752858561182d565b6000818152600360209081526040808320805482518185028101850190935280835294955092939092918301828280156117b557602002820191906000526020600020905b81546001600160a01b03168152600190910190602001808311611797575b5050506000858152600360205260408120549394509150505b8181101561181d57856001600160a01b03168382815181106117f2576117f261364a565b60200260200101516001600160a01b031603611815576001945050505050611826565b6001016117ce565b50600093505050505b9392505050565b600082826040516020016118719291909182527f2d000000000000000000000000000000000000000000000000000000000000006020830152602182015260410190565b60408051601f1981840301815291905280516020909101209392505050565b600061189c898961182d565b90506118c87f000000000000000000000000000000000000000000000000000000000000000085613584565b4211156119175760405162461bcd60e51b815260206004820152600f60248201527f52454c41595f54494d455f4f56455200000000000000000000000000000000006044820152606401610880565b600081815260026020526040902060060154760100000000000000000000000000000000000000000000900460ff16156119b95760405162461bcd60e51b815260206004820152602860248201527f4a4f425f4d41524b45445f454e4445445f41535f5245534f555243455f554e4160448201527f5641494c41424c450000000000000000000000000000000000000000000000006064820152608401610880565b6000818152600260205260409020600601546119f2907501000000000000000000000000000000000000000000900460ff1660016136c9565b60ff168360ff1614611a465760405162461bcd60e51b815260206004820152601360248201527f494e56414c49445f53455155454e43455f4944000000000000000000000000006044820152606401610880565b60008181526002602052604090206005015415611aa55760405162461bcd60e51b815260206004820152601360248201527f4a4f425f414c52454144595f52454c41594544000000000000000000000000006044820152606401610880565b6000546040517f5221c1f0000000000000000000000000000000000000000000000000000000008152600481018a90526001600160a01b0390911690635221c1f090602401602060405180830381865afa158015611b07573d6000803e3d6000fd5b505050506040513d601f19601f82011682018060405250810190611b2b91906136e2565b611b775760405162461bcd60e51b815260206004820152601160248201527f554e535550504f525445445f434841494e0000000000000000000000000000006044820152606401610880565b60008989898989898989604051602001611b98989796959493929190613704565b60408051601f19818403018152919052805160209091012090506000611bbe828d612476565b6000546040517fa0ac45d50000000000000000000000000000000000000000000000000000000081526001600160a01b03808416600483015292935091169063a0ac45d59060240160006040518083038186803b158015611c1e57600080fd5b505afa158015611c32573d6000803e3d6000fd5b50506001546040517f5f6531e80000000000000000000000000000000000000000000000000000000081527f00000000000000000000000000000000000000000000000000000000000000006004820152600093506001600160a01b039091169150635f6531e8906024016000604051808303816000875af1158015611cbc573d6000803e3d6000fd5b505050506040513d6000823e601f3d908101601f19168201604052611ce4919081019061379d565b90507f000000000000000000000000000000000000000000000000000000000000000081511015611da657600084815260026020526040902060060180547fffffffffffffffffff00ffffffffffffffffffffffffffffffffffffffffffff16760100000000000000000000000000000000000000000000179055611d663390565b6001600160a01b03168b8d7f4ebb21ff905f5d90620c48c9f4b007dce57e7255ae474507566f5fe529568a3c60405160405180910390a450505050611fa5565b60008481526003602090815260409091208251611dc592840190612efe565b5060408051610140810182528d815260208082018e81528284018e8152606084018e8152608085018e90524260a08601526001600160a01b038b1660c0860152600060e0860181905260ff8d1661010087015261012086018190528a8152600294859052959095208451815591516001830155519181019190915591519091906003820190611e54908261389f565b506080820151600482015560a0820151600582015560c08201516006909101805460e0840151610100850151610120909501516001600160a01b039094167fffffffffffffffffffffff000000000000000000000000000000000000000000909216919091177401000000000000000000000000000000000000000060ff92831602177fffffffffffffffffff0000ffffffffffffffffffffffffffffffffffffffffff16750100000000000000000000000000000000000000000091909416027fffffffffffffffffff00ffffffffffffffffffffffffffffffffffffffffffff1692909217760100000000000000000000000000000000000000000000911515919091021790558a8c7fb51249bf719b85583328439685b75cb2a06fdddb25305d70151caf8d2e95d2e28c8c8c8a3388604051611f989695949392919061399b565b60405180910390a3505050505b505050505050505050565b60008181527fc1f6fe24621ce81ec5827caf0253cadb74709b061630e6b55e82371705932000602081905260408220611826906124ac565b60008281527f02dd7bc7dec4dceedda775e58dd541e08a116c6c53815c0bd028192f7b626800602052604090206001015461202281612150565b610ad3838361215d565b3360009081527fb7db2dd08fcb62d0c9e08c51941cae53c267786a0b75803fb7960902fc8ef97d602052604090205460ff166120aa5760405162461bcd60e51b815260206004820152600a60248201527f6f6e6c792061646d696e000000000000000000000000000000000000000000006044820152606401610880565b600080547fffffffffffffffffffffffff0000000000000000000000000000000000000000166001600160a01b0392909216919091179055565b60007fffffffff0000000000000000000000000000000000000000000000000000000082167f5a05180f00000000000000000000000000000000000000000000000000000000148061071a575061071a826124b6565b61214261254d565b565b600061182683836125b4565b61215a813361260b565b50565b60008061216a8484612698565b90506121766000611fb0565b6000036118265760405162461bcd60e51b815260206004820181905260248201527f41563a52522d416c6c2061646d696e732063616e742062652072656d6f7665646044820152606401610880565b306001600160a01b037f000000000000000000000000000000000000000000000000000000000000000016148061225e57507f00000000000000000000000000000000000000000000000000000000000000006001600160a01b03166122527f360894a13ba1a3210667c828492db98dca3e2076cc3735a920a3ca505d382bbc546001600160a01b031690565b6001600160a01b031614155b15612142576040517fe07c8dba00000000000000000000000000000000000000000000000000000000815260040160405180910390fd5b3360009081527fb7db2dd08fcb62d0c9e08c51941cae53c267786a0b75803fb7960902fc8ef97d602052604090205460ff1661215a5760405162461bcd60e51b815260206004820152600a60248201527f6f6e6c792061646d696e000000000000000000000000000000000000000000006044820152606401610880565b816001600160a01b03166352d1902d6040518163ffffffff1660e01b8152600401602060405180830381865afa92505050801561236d575060408051601f3d908101601f1916820190925261236a918101906139f1565b60015b6123ae576040517f4c9c8ce30000000000000000000000000000000000000000000000000000000081526001600160a01b0383166004820152602401610880565b7f360894a13ba1a3210667c828492db98dca3e2076cc3735a920a3ca505d382bbc811461240a576040517faa1d49a400000000000000000000000000000000000000000000000000000000815260048101829052602401610880565b610b5d83836126e6565b306001600160a01b037f00000000000000000000000000000000000000000000000000000000000000001614612142576040517fe07c8dba00000000000000000000000000000000000000000000000000000000815260040160405180910390fd5b600080600080612486868661273c565b9250925092506124968282612789565b5090949350505050565b6000611826838361288d565b600061071a825490565b60007fffffffff0000000000000000000000000000000000000000000000000000000082167f7965db0b00000000000000000000000000000000000000000000000000000000148061071a57507f01ffc9a7000000000000000000000000000000000000000000000000000000007fffffffff0000000000000000000000000000000000000000000000000000000083161461071a565b7ff0c57e16840df040f15088dc2f81fe391c3923bec73e23a9662efc9c229c6a005468010000000000000000900460ff16612142576040517fd7e6bcf800000000000000000000000000000000000000000000000000000000815260040160405180910390fd5b60007fc1f6fe24621ce81ec5827caf0253cadb74709b061630e6b55e82371705932000816125e285856128b7565b9050801561173d57600085815260208390526040902061260290856129a4565b50949350505050565b60008281527f02dd7bc7dec4dceedda775e58dd541e08a116c6c53815c0bd028192f7b626800602090815260408083206001600160a01b038516845290915290205460ff16610b7d576040517fe2517d3f0000000000000000000000000000000000000000000000000000000081526001600160a01b038216600482015260248101839052604401610880565b60007fc1f6fe24621ce81ec5827caf0253cadb74709b061630e6b55e82371705932000816126c685856129b9565b9050801561173d5760008581526020839052604090206126029085612a7d565b6126ef82612a92565b6040516001600160a01b038316907fbc7cd75a20ee27fd9adebab32041f755214dbc6bffa90cc0225b39da2e5c2d3b90600090a280511561273457610b5d8282612b3a565b610b7d612bb0565b600080600083516041036127765760208401516040850151606086015160001a61276888828585612be8565b955095509550505050612782565b50508151600091506002905b9250925092565b600082600381111561279d5761279d613a0a565b036127a6575050565b60018260038111156127ba576127ba613a0a565b036127f1576040517ff645eedf00000000000000000000000000000000000000000000000000000000815260040160405180910390fd5b600282600381111561280557612805613a0a565b0361283f576040517ffce698f700000000000000000000000000000000000000000000000000000000815260048101829052602401610880565b600382600381111561285357612853613a0a565b03610b7d576040517fd78bce0c00000000000000000000000000000000000000000000000000000000815260048101829052602401610880565b60008260000182815481106128a4576128a461364a565b9060005260206000200154905092915050565b60008281527f02dd7bc7dec4dceedda775e58dd541e08a116c6c53815c0bd028192f7b626800602081815260408084206001600160a01b038616855290915282205460ff1661299a576000848152602082815260408083206001600160a01b0387168452909152902080547fffffffffffffffffffffffffffffffffffffffffffffffffffffffffffffff001660011790556129503390565b6001600160a01b0316836001600160a01b0316857f2f8788117e7eff1d82e926ec794901d17c78024a50270940304540a733656f0d60405160405180910390a4600191505061071a565b600091505061071a565b6000611826836001600160a01b038416612cb7565b60008281527f02dd7bc7dec4dceedda775e58dd541e08a116c6c53815c0bd028192f7b626800602081815260408084206001600160a01b038616855290915282205460ff161561299a576000848152602082815260408083206001600160a01b038716808552925280832080547fffffffffffffffffffffffffffffffffffffffffffffffffffffffffffffff0016905551339287917ff6391f5c32d9c69d2a47ea670b442974b53935d1edc7fd64eb21e047a839171b9190a4600191505061071a565b6000611826836001600160a01b038416612d06565b806001600160a01b03163b600003612ae1576040517f4c9c8ce30000000000000000000000000000000000000000000000000000000081526001600160a01b0382166004820152602401610880565b7f360894a13ba1a3210667c828492db98dca3e2076cc3735a920a3ca505d382bbc80547fffffffffffffffffffffffff0000000000000000000000000000000000000000166001600160a01b0392909216919091179055565b6060600080846001600160a01b031684604051612b579190613a39565b600060405180830381855af49150503d8060008114612b92576040519150601f19603f3d011682016040523d82523d6000602084013e612b97565b606091505b5091509150612ba7858383612def565b95945050505050565b3415612142576040517fb398979f00000000000000000000000000000000000000000000000000000000815260040160405180910390fd5b600080807f7fffffffffffffffffffffffffffffff5d576e7357a4501ddfe92f46681b20a0841115612c235750600091506003905082612cad565b604080516000808252602082018084528a905260ff891692820192909252606081018790526080810186905260019060a0016020604051602081039080840390855afa158015612c77573d6000803e3d6000fd5b5050604051601f1901519150506001600160a01b038116612ca357506000925060019150829050612cad565b9250600091508190505b9450945094915050565b6000818152600183016020526040812054612cfe5750815460018181018455600084815260208082209093018490558454848252828601909352604090209190915561071a565b50600061071a565b6000818152600183016020526040812054801561299a576000612d2a600183613a55565b8554909150600090612d3e90600190613a55565b9050808214612da3576000866000018281548110612d5e57612d5e61364a565b9060005260206000200154905080876000018481548110612d8157612d8161364a565b6000918252602080832090910192909255918252600188019052604090208390555b8554869080612db457612db4613a68565b60019003818190600052602060002001600090559055856001016000868152602001908152602001600020600090556001935050505061071a565b606082612e0457612dff82612e64565b611826565b8151158015612e1b57506001600160a01b0384163b155b15612e5d576040517f9996b3150000000000000000000000000000000000000000000000000000000081526001600160a01b0385166004820152602401610880565b5080611826565b805115612e745780518082602001fd5b6040517f1425ea4200000000000000000000000000000000000000000000000000000000815260040160405180910390fd5b508054612eb290613502565b6000825580601f10612ec2575050565b601f01602090049060005260206000209081019061215a9190612f7b565b508054600082559060005260206000209081019061215a9190612f7b565b828054828255906000526020600020908101928215612f6b579160200282015b82811115612f6b57825182547fffffffffffffffffffffffff0000000000000000000000000000000000000000166001600160a01b03909116178255602090920191600190910190612f1e565b50612f77929150612f7b565b5090565b5b80821115612f775760008155600101612f7c565b600060208284031215612fa257600080fd5b81357fffffffff000000000000000000000000000000000000000000000000000000008116811461182657600080fd5b6001600160a01b038116811461215a57600080fd5b60008060408385031215612ffa57600080fd5b82359150602083013561300c81612fd2565b809150509250929050565b60008060006060848603121561302c57600080fd5b833561303781612fd2565b9250602084013561304781612fd2565b9150604084013561305781612fd2565b809150509250925092565b60006020828403121561307457600080fd5b5035919050565b60005b8381101561309657818101518382015260200161307e565b50506000910152565b600081518084526130b781602086016020860161307b565b601f01601f19169290920160200192915050565b60006101408c83528b60208401528a60408401528060608401526130f18184018b61309f565b6080840199909952505060a08101959095526001600160a01b039390931660c085015260ff91821660e085015216610100830152151561012090910152949350505050565b6000806040838503121561314957600080fd5b50508035926020909101359150565b7f4e487b7100000000000000000000000000000000000000000000000000000000600052604160045260246000fd5b604051601f8201601f1916810167ffffffffffffffff811182821017156131b0576131b0613158565b604052919050565b600082601f8301126131c957600080fd5b813567ffffffffffffffff8111156131e3576131e3613158565b6131f66020601f19601f84011601613187565b81815284602083860101111561320b57600080fd5b816020850160208301376000918101602001919091529392505050565b6000806040838503121561323b57600080fd5b823561324681612fd2565b9150602083013567ffffffffffffffff81111561326257600080fd5b61326e858286016131b8565b9150509250929050565b803560ff8116811461328957600080fd5b919050565b60008060008060008060c087890312156132a757600080fd5b863567ffffffffffffffff808211156132bf57600080fd5b6132cb8a838b016131b8565b9750602089013596506040890135955060608901359150808211156132ef57600080fd5b506132fc89828a016131b8565b9350506080870135915061331260a08801613278565b90509295509295509295565b60006020828403121561333057600080fd5b813561182681612fd2565b60008151808452602080850194506020840160005b838110156133755781516001600160a01b031687529582019590820190600101613350565b509495945050505050565b602081526000611826602083018461333b565b600080600080600060a086880312156133ab57600080fd5b85356133b681612fd2565b94506020860135935060408601359250606086013567ffffffffffffffff8111156133e057600080fd5b6133ec888289016131b8565b9250506133fb60808701613278565b90509295509295909350565b60008060006060848603121561341c57600080fd5b8335925060208401359150604084013561305781612fd2565b60008060008060008060008060006101208a8c03121561345457600080fd5b893567ffffffffffffffff8082111561346c57600080fd5b6134788d838e016131b8565b9a5060208c0135995060408c0135985060608c0135975060808c01359150808211156134a357600080fd5b506134b08c828d016131b8565b95505060a08a0135935060c08a013592506134cd60e08b01613278565b91506101008a01356134de81612fd2565b809150509295985092959850929598565b602081526000611826602083018461309f565b600181811c9082168061351657607f821691505b60208210810361354f577f4e487b7100000000000000000000000000000000000000000000000000000000600052602260045260246000fd5b50919050565b7f4e487b7100000000000000000000000000000000000000000000000000000000600052601160045260246000fd5b8082018082111561071a5761071a613555565b858152846020820152600084516135b581604085016020890161307b565b604092019182019390935260f89190911b7fff00000000000000000000000000000000000000000000000000000000000000166060820152606101949350505050565b600060ff821660ff810361360e5761360e613555565b60010192915050565b60808152600061362a608083018761309f565b60208301959095525060ff92831660408201529116606090910152919050565b7f4e487b7100000000000000000000000000000000000000000000000000000000600052603260045260246000fd5b6020808252825482820181905260008481528281209092916040850190845b818110156136bd5783546001600160a01b031683526001938401939285019201613698565b50909695505050505050565b60ff818116838216019081111561071a5761071a613555565b6000602082840312156136f457600080fd5b8151801515811461182657600080fd5b88815287602082015286604082015260008651613728816060850160208b0161307b565b606092018281019690965250608085019390935260f89190911b7fff000000000000000000000000000000000000000000000000000000000000001660a0840152901b7fffffffffffffffffffffffffffffffffffffffff0000000000000000000000001660a182015260b501949350505050565b600060208083850312156137b057600080fd5b825167ffffffffffffffff808211156137c857600080fd5b818501915085601f8301126137dc57600080fd5b8151818111156137ee576137ee613158565b8060051b91506137ff848301613187565b818152918301840191848101908884111561381957600080fd5b938501935b83851015613843578451925061383383612fd2565b828252938501939085019061381e565b98975050505050505050565b601f821115610b5d576000816000526020600020601f850160051c810160208610156138785750805b601f850160051c820191505b8181101561389757828155600101613884565b505050505050565b815167ffffffffffffffff8111156138b9576138b9613158565b6138cd816138c78454613502565b8461384f565b602080601f83116001811461392057600084156138ea5750858301515b7fffffffffffffffffffffffffffffffffffffffffffffffffffffffffffffffff600386901b1c1916600185901b178555613897565b600085815260208120601f198616915b8281101561394f57888601518255948401946001909101908401613930565b508582101561398b57878501517fffffffffffffffffffffffffffffffffffffffffffffffffffffffffffffffff600388901b60f8161c191681555b5050505050600190811b01905550565b86815260c0602082015260006139b460c083018861309f565b604083018790526001600160a01b0386811660608501528516608084015282810360a08401526139e4818561333b565b9998505050505050505050565b600060208284031215613a0357600080fd5b5051919050565b7f4e487b7100000000000000000000000000000000000000000000000000000000600052602160045260246000fd5b60008251613a4b81846020870161307b565b9190910192915050565b8181038181111561071a5761071a613555565b7f4e487b7100000000000000000000000000000000000000000000000000000000600052603160045260246000fdfea26469706673582212208eb72b4fd60b8a12e5ad2c48ee4363bf248ca0e32754d33a90c46a6c19a8c60964736f6c63430008190033",
  "linkReferences": {},
  "deployedLinkReferences": {}
}