{
  "_format": "hh-sol-artifact-1",
  "contractName": "CommonChainGateways",
  "sourceName": "contracts/serverless-v2/CommonChainGateways.sol",
  "abi": [
    {
      "inputs": [
        {
          "internalType": "contract IAttestationVerifier",
          "name": "attestationVerifier",
          "type": "address"
        },
        {
          "internalType": "uint256",
          "name": "maxAge",
          "type": "uint256"
        },
        {
          "internalType": "contract IERC20",
          "name": "_token",
          "type": "address"
        },
        {
          "internalType": "uint256",
          "name": "_deregisterTimeoutDuration",
          "type": "uint256"
        }
      ],
      "stateMutability": "nonpayable",
      "type": "constructor"
    },
    {
      "inputs": [],
      "name": "AccessControlBadConfirmation",
      "type": "error"
    },
    {
      "inputs": [
        {
          "internalType": "address",
          "name": "account",
          "type": "address"
        },
        {
          "internalType": "bytes32",
          "name": "neededRole",
          "type": "bytes32"
        }
      ],
      "name": "AccessControlUnauthorizedAccount",
      "type": "error"
    },
    {
      "inputs": [
        {
          "internalType": "address",
          "name": "target",
          "type": "address"
        }
      ],
      "name": "AddressEmptyCode",
      "type": "error"
    },
    {
      "inputs": [
        {
          "internalType": "address",
          "name": "account",
          "type": "address"
        }
      ],
      "name": "AddressInsufficientBalance",
      "type": "error"
    },
    {
      "inputs": [],
      "name": "AttestationAutherAttestationTooOld",
      "type": "error"
    },
    {
      "inputs": [],
      "name": "AttestationAutherImageNotInFamily",
      "type": "error"
    },
    {
      "inputs": [],
      "name": "AttestationAutherImageNotWhitelisted",
      "type": "error"
    },
    {
      "inputs": [],
      "name": "AttestationAutherKeyNotVerified",
      "type": "error"
    },
    {
      "inputs": [],
      "name": "AttestationAutherMismatchedLengths",
      "type": "error"
    },
    {
      "inputs": [],
      "name": "AttestationAutherPCRsInvalid",
      "type": "error"
    },
    {
      "inputs": [],
      "name": "AttestationAutherPubkeyLengthInvalid",
      "type": "error"
    },
    {
      "inputs": [
        {
          "internalType": "uint256",
          "name": "chainId",
          "type": "uint256"
        }
      ],
      "name": "ChainAlreadyExists",
      "type": "error"
    },
    {
      "inputs": [
        {
          "internalType": "uint256",
          "name": "chainId",
          "type": "uint256"
        }
      ],
      "name": "ChainNotFound",
      "type": "error"
    },
    {
      "inputs": [],
      "name": "DeregisterTimePending",
      "type": "error"
    },
    {
      "inputs": [],
      "name": "ECDSAInvalidSignature",
      "type": "error"
    },
    {
      "inputs": [
        {
          "internalType": "uint256",
          "name": "length",
          "type": "uint256"
        }
      ],
      "name": "ECDSAInvalidSignatureLength",
      "type": "error"
    },
    {
      "inputs": [
        {
          "internalType": "bytes32",
          "name": "s",
          "type": "bytes32"
        }
      ],
      "name": "ECDSAInvalidSignatureS",
      "type": "error"
    },
    {
      "inputs": [
        {
          "internalType": "address",
          "name": "implementation",
          "type": "address"
        }
      ],
      "name": "ERC1967InvalidImplementation",
      "type": "error"
    },
    {
      "inputs": [],
      "name": "ERC1967NonPayable",
      "type": "error"
    },
    {
      "inputs": [],
      "name": "EmptyChainlist",
      "type": "error"
    },
    {
      "inputs": [],
      "name": "EmptyRequestedChains",
      "type": "error"
    },
    {
      "inputs": [],
      "name": "FailedInnerCall",
      "type": "error"
    },
    {
      "inputs": [],
      "name": "GatewayAlreadyExists",
      "type": "error"
    },
    {
      "inputs": [],
      "name": "InvalidEnclaveKey",
      "type": "error"
    },
    {
      "inputs": [],
      "name": "InvalidGatewayOperator",
      "type": "error"
    },
    {
      "inputs": [],
      "name": "InvalidInitialization",
      "type": "error"
    },
    {
      "inputs": [],
      "name": "InvalidLength",
      "type": "error"
    },
    {
      "inputs": [],
      "name": "InvalidStatus",
      "type": "error"
    },
    {
      "inputs": [],
      "name": "NotInitializing",
      "type": "error"
    },
    {
      "inputs": [
        {
          "internalType": "address",
          "name": "token",
          "type": "address"
        }
      ],
      "name": "SafeERC20FailedOperation",
      "type": "error"
    },
    {
      "inputs": [],
      "name": "UUPSUnauthorizedCallContext",
      "type": "error"
    },
    {
      "inputs": [
        {
          "internalType": "bytes32",
          "name": "slot",
          "type": "bytes32"
        }
      ],
      "name": "UUPSUnsupportedProxiableUUID",
      "type": "error"
    },
    {
      "inputs": [],
      "name": "UnsupportedChain",
      "type": "error"
    },
    {
      "inputs": [],
      "name": "ZeroAddressAdmin",
      "type": "error"
    },
    {
      "inputs": [],
      "name": "ZeroAddressToken",
      "type": "error"
    },
    {
      "anonymous": false,
      "inputs": [
        {
          "indexed": true,
          "internalType": "address",
          "name": "enclaveKey",
          "type": "address"
        },
        {
          "indexed": false,
          "internalType": "uint256",
          "name": "chainId",
          "type": "uint256"
        }
      ],
      "name": "ChainAdded",
      "type": "event"
    },
    {
      "anonymous": false,
      "inputs": [
        {
          "indexed": false,
          "internalType": "uint256",
          "name": "chainId",
          "type": "uint256"
        },
        {
          "indexed": false,
          "internalType": "address",
          "name": "contractAddress",
          "type": "address"
        },
        {
          "indexed": false,
          "internalType": "string",
          "name": "rpcUrl",
          "type": "string"
        }
      ],
      "name": "ChainAddedGlobal",
      "type": "event"
    },
    {
      "anonymous": false,
      "inputs": [
        {
          "indexed": true,
          "internalType": "address",
          "name": "enclaveKey",
          "type": "address"
        },
        {
          "indexed": false,
          "internalType": "uint256",
          "name": "chainId",
          "type": "uint256"
        }
      ],
      "name": "ChainRemoved",
      "type": "event"
    },
    {
      "anonymous": false,
      "inputs": [
        {
          "indexed": false,
          "internalType": "uint256",
          "name": "chainId",
          "type": "uint256"
        }
      ],
      "name": "ChainRemovedGlobal",
      "type": "event"
    },
    {
      "anonymous": false,
      "inputs": [
        {
          "indexed": true,
          "internalType": "bytes32",
          "name": "imageId",
          "type": "bytes32"
        },
        {
          "indexed": false,
          "internalType": "bytes32",
          "name": "family",
          "type": "bytes32"
        }
      ],
      "name": "EnclaveImageAddedToFamily",
      "type": "event"
    },
    {
      "anonymous": false,
      "inputs": [
        {
          "indexed": true,
          "internalType": "bytes32",
          "name": "imageId",
          "type": "bytes32"
        },
        {
          "indexed": false,
          "internalType": "bytes32",
          "name": "family",
          "type": "bytes32"
        }
      ],
      "name": "EnclaveImageRemovedFromFamily",
      "type": "event"
    },
    {
      "anonymous": false,
      "inputs": [
        {
          "indexed": true,
          "internalType": "bytes32",
          "name": "imageId",
          "type": "bytes32"
        }
      ],
      "name": "EnclaveImageRevoked",
      "type": "event"
    },
    {
      "anonymous": false,
      "inputs": [
        {
          "indexed": true,
          "internalType": "bytes32",
          "name": "imageId",
          "type": "bytes32"
        },
        {
          "indexed": false,
          "internalType": "bytes",
          "name": "PCR0",
          "type": "bytes"
        },
        {
          "indexed": false,
          "internalType": "bytes",
          "name": "PCR1",
          "type": "bytes"
        },
        {
          "indexed": false,
          "internalType": "bytes",
          "name": "PCR2",
          "type": "bytes"
        }
      ],
      "name": "EnclaveImageWhitelisted",
      "type": "event"
    },
    {
      "anonymous": false,
      "inputs": [
        {
          "indexed": true,
          "internalType": "bytes",
          "name": "enclavePubKey",
          "type": "bytes"
        }
      ],
      "name": "EnclaveKeyRevoked",
      "type": "event"
    },
    {
      "anonymous": false,
      "inputs": [
        {
          "indexed": true,
          "internalType": "address",
          "name": "enclaveKey",
          "type": "address"
        }
      ],
      "name": "EnclaveKeyRevoked2",
      "type": "event"
    },
    {
      "anonymous": false,
      "inputs": [
        {
          "indexed": true,
          "internalType": "bytes",
          "name": "enclavePubKey",
          "type": "bytes"
        },
        {
          "indexed": true,
          "internalType": "bytes32",
          "name": "imageId",
          "type": "bytes32"
        }
      ],
      "name": "EnclaveKeyVerified",
      "type": "event"
    },
    {
      "anonymous": false,
      "inputs": [
        {
          "indexed": true,
          "internalType": "bytes",
          "name": "enclavePubKey",
          "type": "bytes"
        },
        {
          "indexed": true,
          "internalType": "bytes32",
          "name": "imageId",
          "type": "bytes32"
        }
      ],
      "name": "EnclaveKeyWhitelisted",
      "type": "event"
    },
    {
      "anonymous": false,
      "inputs": [
        {
          "indexed": true,
          "internalType": "address",
          "name": "enclaveKey",
          "type": "address"
        }
      ],
      "name": "GatewayDeregistered",
      "type": "event"
    },
    {
      "anonymous": false,
      "inputs": [
        {
          "indexed": true,
          "internalType": "address",
          "name": "enclaveKey",
          "type": "address"
        },
        {
          "indexed": true,
          "internalType": "address",
          "name": "operator",
          "type": "address"
        },
        {
          "indexed": false,
          "internalType": "uint256[]",
          "name": "chainIds",
          "type": "uint256[]"
        }
      ],
      "name": "GatewayRegistered",
      "type": "event"
    },
    {
      "anonymous": false,
      "inputs": [
        {
          "indexed": true,
          "internalType": "address",
          "name": "enclaveKey",
          "type": "address"
        },
        {
          "indexed": false,
          "internalType": "uint256",
          "name": "addedAmount",
          "type": "uint256"
        },
        {
          "indexed": false,
          "internalType": "uint256",
          "name": "totalAmount",
          "type": "uint256"
        }
      ],
      "name": "GatewayStakeAdded",
      "type": "event"
    },
    {
      "anonymous": false,
      "inputs": [
        {
          "indexed": true,
          "internalType": "address",
          "name": "enclaveKey",
          "type": "address"
        },
        {
          "indexed": false,
          "internalType": "uint256",
          "name": "removedAmount",
          "type": "uint256"
        },
        {
          "indexed": false,
          "internalType": "uint256",
          "name": "totalAmount",
          "type": "uint256"
        }
      ],
      "name": "GatewayStakeRemoved",
      "type": "event"
    },
    {
      "anonymous": false,
      "inputs": [
        {
          "indexed": false,
          "internalType": "uint64",
          "name": "version",
          "type": "uint64"
        }
      ],
      "name": "Initialized",
      "type": "event"
    },
    {
      "anonymous": false,
      "inputs": [
        {
          "indexed": true,
          "internalType": "bytes32",
          "name": "role",
          "type": "bytes32"
        },
        {
          "indexed": true,
          "internalType": "bytes32",
          "name": "previousAdminRole",
          "type": "bytes32"
        },
        {
          "indexed": true,
          "internalType": "bytes32",
          "name": "newAdminRole",
          "type": "bytes32"
        }
      ],
      "name": "RoleAdminChanged",
      "type": "event"
    },
    {
      "anonymous": false,
      "inputs": [
        {
          "indexed": true,
          "internalType": "bytes32",
          "name": "role",
          "type": "bytes32"
        },
        {
          "indexed": true,
          "internalType": "address",
          "name": "account",
          "type": "address"
        },
        {
          "indexed": true,
          "internalType": "address",
          "name": "sender",
          "type": "address"
        }
      ],
      "name": "RoleGranted",
      "type": "event"
    },
    {
      "anonymous": false,
      "inputs": [
        {
          "indexed": true,
          "internalType": "bytes32",
          "name": "role",
          "type": "bytes32"
        },
        {
          "indexed": true,
          "internalType": "address",
          "name": "account",
          "type": "address"
        },
        {
          "indexed": true,
          "internalType": "address",
          "name": "sender",
          "type": "address"
        }
      ],
      "name": "RoleRevoked",
      "type": "event"
    },
    {
      "anonymous": false,
      "inputs": [
        {
          "indexed": true,
          "internalType": "address",
          "name": "implementation",
          "type": "address"
        }
      ],
      "name": "Upgraded",
      "type": "event"
    },
    {
      "inputs": [],
      "name": "ATTESTATION_MAX_AGE",
      "outputs": [
        {
          "internalType": "uint256",
          "name": "",
          "type": "uint256"
        }
      ],
      "stateMutability": "view",
      "type": "function"
    },
    {
      "inputs": [],
      "name": "ATTESTATION_VERIFIER",
      "outputs": [
        {
          "internalType": "contract IAttestationVerifier",
          "name": "",
          "type": "address"
        }
      ],
      "stateMutability": "view",
      "type": "function"
    },
    {
      "inputs": [],
      "name": "DEFAULT_ADMIN_ROLE",
      "outputs": [
        {
          "internalType": "bytes32",
          "name": "",
          "type": "bytes32"
        }
      ],
      "stateMutability": "view",
      "type": "function"
    },
    {
      "inputs": [],
      "name": "DEREGISTER_TIMEOUT_DURATION",
      "outputs": [
        {
          "internalType": "uint256",
          "name": "",
          "type": "uint256"
        }
      ],
      "stateMutability": "view",
      "type": "function"
    },
    {
      "inputs": [],
      "name": "TOKEN",
      "outputs": [
        {
          "internalType": "contract IERC20",
          "name": "",
          "type": "address"
        }
      ],
      "stateMutability": "view",
      "type": "function"
    },
    {
      "inputs": [],
      "name": "UPGRADE_INTERFACE_VERSION",
      "outputs": [
        {
          "internalType": "string",
          "name": "",
          "type": "string"
        }
      ],
      "stateMutability": "view",
      "type": "function"
    },
    {
      "inputs": [
        {
          "internalType": "address",
          "name": "_admin",
          "type": "address"
        },
        {
          "components": [
            {
              "internalType": "bytes",
              "name": "PCR0",
              "type": "bytes"
            },
            {
              "internalType": "bytes",
              "name": "PCR1",
              "type": "bytes"
            },
            {
              "internalType": "bytes",
              "name": "PCR2",
              "type": "bytes"
            }
          ],
          "internalType": "struct AttestationAutherUpgradeable.EnclaveImage[]",
          "name": "_images",
          "type": "tuple[]"
        }
      ],
      "name": "__CommonChainGateways_init",
      "outputs": [],
      "stateMutability": "nonpayable",
      "type": "function"
    },
    {
      "inputs": [
        {
          "internalType": "uint256[]",
          "name": "_chainIds",
          "type": "uint256[]"
        },
        {
          "components": [
            {
              "internalType": "address",
              "name": "contractAddress",
              "type": "address"
            },
            {
              "internalType": "string",
              "name": "rpcUrl",
              "type": "string"
            }
          ],
          "internalType": "struct CommonChainGateways.RequestChain[]",
          "name": "_requestChains",
          "type": "tuple[]"
        }
      ],
      "name": "addChainGlobal",
      "outputs": [],
      "stateMutability": "nonpayable",
      "type": "function"
    },
    {
      "inputs": [
        {
          "internalType": "bytes",
          "name": "_enclavePubKey",
          "type": "bytes"
        },
        {
          "internalType": "uint256[]",
          "name": "_chainIds",
          "type": "uint256[]"
        }
      ],
      "name": "addChains",
      "outputs": [],
      "stateMutability": "nonpayable",
      "type": "function"
    },
    {
      "inputs": [
        {
          "internalType": "bytes",
          "name": "_enclavePubKey",
          "type": "bytes"
        },
        {
          "internalType": "uint256",
          "name": "_amount",
          "type": "uint256"
        }
      ],
      "name": "addGatewayStake",
      "outputs": [],
      "stateMutability": "nonpayable",
      "type": "function"
    },
    {
      "inputs": [
        {
          "internalType": "address",
          "name": "_key",
          "type": "address"
        }
      ],
      "name": "allowOnlyVerified",
      "outputs": [],
      "stateMutability": "view",
      "type": "function"
    },
    {
      "inputs": [
        {
          "internalType": "bytes",
          "name": "_enclavePubKey",
          "type": "bytes"
        }
      ],
      "name": "completeDegistration",
      "outputs": [],
      "stateMutability": "nonpayable",
      "type": "function"
    },
    {
      "inputs": [
        {
          "internalType": "bytes",
          "name": "_enclavePubKey",
          "type": "bytes"
        }
      ],
      "name": "deregisterGateway",
      "outputs": [],
      "stateMutability": "nonpayable",
      "type": "function"
    },
    {
      "inputs": [
        {
          "internalType": "address",
          "name": "",
          "type": "address"
        }
      ],
      "name": "gateways",
      "outputs": [
        {
          "internalType": "address",
          "name": "operator",
          "type": "address"
        },
        {
          "internalType": "uint256",
          "name": "stakeAmount",
          "type": "uint256"
        },
        {
          "internalType": "uint256",
          "name": "deregisterStartTime",
          "type": "uint256"
        },
        {
          "internalType": "bool",
          "name": "status",
          "type": "bool"
        }
      ],
      "stateMutability": "view",
      "type": "function"
    },
    {
      "inputs": [
        {
          "internalType": "bytes32",
          "name": "role",
          "type": "bytes32"
        }
      ],
      "name": "getRoleAdmin",
      "outputs": [
        {
          "internalType": "bytes32",
          "name": "",
          "type": "bytes32"
        }
      ],
      "stateMutability": "view",
      "type": "function"
    },
    {
      "inputs": [
        {
          "internalType": "address",
          "name": "_key",
          "type": "address"
        }
      ],
      "name": "getVerifiedKey",
      "outputs": [
        {
          "internalType": "bytes32",
          "name": "",
          "type": "bytes32"
        }
      ],
      "stateMutability": "view",
      "type": "function"
    },
    {
      "inputs": [
        {
          "internalType": "bytes32",
          "name": "_imageId",
          "type": "bytes32"
        }
      ],
      "name": "getWhitelistedImage",
      "outputs": [
        {
          "components": [
            {
              "internalType": "bytes",
              "name": "PCR0",
              "type": "bytes"
            },
            {
              "internalType": "bytes",
              "name": "PCR1",
              "type": "bytes"
            },
            {
              "internalType": "bytes",
              "name": "PCR2",
              "type": "bytes"
            }
          ],
          "internalType": "struct AttestationAutherUpgradeable.EnclaveImage",
          "name": "",
          "type": "tuple"
        }
      ],
      "stateMutability": "view",
      "type": "function"
    },
    {
      "inputs": [
        {
          "internalType": "bytes32",
          "name": "role",
          "type": "bytes32"
        },
        {
          "internalType": "address",
          "name": "account",
          "type": "address"
        }
      ],
      "name": "grantRole",
      "outputs": [],
      "stateMutability": "nonpayable",
      "type": "function"
    },
    {
      "inputs": [
        {
          "internalType": "bytes32",
          "name": "role",
          "type": "bytes32"
        },
        {
          "internalType": "address",
          "name": "account",
          "type": "address"
        }
      ],
      "name": "hasRole",
      "outputs": [
        {
          "internalType": "bool",
          "name": "",
          "type": "bool"
        }
      ],
      "stateMutability": "view",
      "type": "function"
    },
    {
      "inputs": [
        {
          "internalType": "uint256",
          "name": "_reqChainId",
          "type": "uint256"
        }
      ],
      "name": "isChainSupported",
      "outputs": [
        {
          "internalType": "bool",
          "name": "",
          "type": "bool"
        }
      ],
      "stateMutability": "view",
      "type": "function"
    },
    {
      "inputs": [
        {
          "internalType": "bytes32",
          "name": "imageId",
          "type": "bytes32"
        },
        {
          "internalType": "bytes32",
          "name": "family",
          "type": "bytes32"
        }
      ],
      "name": "isImageInFamily",
      "outputs": [
        {
          "internalType": "bool",
          "name": "",
          "type": "bool"
        }
      ],
      "stateMutability": "view",
      "type": "function"
    },
    {
      "inputs": [],
      "name": "proxiableUUID",
      "outputs": [
        {
          "internalType": "bytes32",
          "name": "",
          "type": "bytes32"
        }
      ],
      "stateMutability": "view",
      "type": "function"
    },
    {
      "inputs": [
        {
          "internalType": "bytes",
          "name": "_attestation",
          "type": "bytes"
        },
        {
          "internalType": "bytes",
          "name": "_enclavePubKey",
          "type": "bytes"
        },
        {
          "internalType": "bytes",
          "name": "_PCR0",
          "type": "bytes"
        },
        {
          "internalType": "bytes",
          "name": "_PCR1",
          "type": "bytes"
        },
        {
          "internalType": "bytes",
          "name": "_PCR2",
          "type": "bytes"
        },
        {
          "internalType": "uint256",
          "name": "_timestampInMilliseconds",
          "type": "uint256"
        },
        {
          "internalType": "uint256[]",
          "name": "_chainIds",
          "type": "uint256[]"
        },
        {
          "internalType": "bytes",
          "name": "_signature",
          "type": "bytes"
        },
        {
          "internalType": "uint256",
          "name": "_stakeAmount",
          "type": "uint256"
        }
      ],
      "name": "registerGateway",
      "outputs": [],
      "stateMutability": "nonpayable",
      "type": "function"
    },
    {
      "inputs": [
        {
          "internalType": "uint256[]",
          "name": "_chainIds",
          "type": "uint256[]"
        }
      ],
      "name": "removeChainGlobal",
      "outputs": [],
      "stateMutability": "nonpayable",
      "type": "function"
    },
    {
      "inputs": [
        {
          "internalType": "bytes",
          "name": "_enclavePubKey",
          "type": "bytes"
        },
        {
          "internalType": "uint256[]",
          "name": "_chainIds",
          "type": "uint256[]"
        }
      ],
      "name": "removeChains",
      "outputs": [],
      "stateMutability": "nonpayable",
      "type": "function"
    },
    {
      "inputs": [
        {
          "internalType": "bytes",
          "name": "_enclavePubKey",
          "type": "bytes"
        },
        {
          "internalType": "uint256",
          "name": "_amount",
          "type": "uint256"
        }
      ],
      "name": "removeGatewayStake",
      "outputs": [],
      "stateMutability": "nonpayable",
      "type": "function"
    },
    {
      "inputs": [
        {
          "internalType": "bytes32",
          "name": "role",
          "type": "bytes32"
        },
        {
          "internalType": "address",
          "name": "callerConfirmation",
          "type": "address"
        }
      ],
      "name": "renounceRole",
      "outputs": [],
      "stateMutability": "nonpayable",
      "type": "function"
    },
    {
      "inputs": [
        {
          "internalType": "uint256",
          "name": "",
          "type": "uint256"
        }
      ],
      "name": "requestChains",
      "outputs": [
        {
          "internalType": "address",
          "name": "contractAddress",
          "type": "address"
        },
        {
          "internalType": "string",
          "name": "rpcUrl",
          "type": "string"
        }
      ],
      "stateMutability": "view",
      "type": "function"
    },
    {
      "inputs": [
        {
          "internalType": "bytes32",
          "name": "role",
          "type": "bytes32"
        },
        {
          "internalType": "address",
          "name": "account",
          "type": "address"
        }
      ],
      "name": "revokeRole",
      "outputs": [],
      "stateMutability": "nonpayable",
      "type": "function"
    },
    {
      "inputs": [
        {
          "internalType": "bytes4",
          "name": "interfaceId",
          "type": "bytes4"
        }
      ],
      "name": "supportsInterface",
      "outputs": [
        {
          "internalType": "bool",
          "name": "",
          "type": "bool"
        }
      ],
      "stateMutability": "view",
      "type": "function"
    },
    {
      "inputs": [
        {
          "internalType": "address",
          "name": "newImplementation",
          "type": "address"
        },
        {
          "internalType": "bytes",
          "name": "data",
          "type": "bytes"
        }
      ],
      "name": "upgradeToAndCall",
      "outputs": [],
      "stateMutability": "payable",
      "type": "function"
    },
    {
      "inputs": [
        {
          "internalType": "bytes",
          "name": "signature",
          "type": "bytes"
        },
        {
          "components": [
            {
              "internalType": "bytes",
              "name": "enclavePubKey",
              "type": "bytes"
            },
            {
              "internalType": "bytes",
              "name": "PCR0",
              "type": "bytes"
            },
            {
              "internalType": "bytes",
              "name": "PCR1",
              "type": "bytes"
            },
            {
              "internalType": "bytes",
              "name": "PCR2",
              "type": "bytes"
            },
            {
              "internalType": "uint256",
              "name": "timestampInMilliseconds",
              "type": "uint256"
            }
          ],
          "internalType": "struct IAttestationVerifier.Attestation",
          "name": "attestation",
          "type": "tuple"
        }
      ],
      "name": "verifyEnclaveKey",
      "outputs": [
        {
          "internalType": "bool",
          "name": "",
          "type": "bool"
        }
      ],
      "stateMutability": "nonpayable",
      "type": "function"
    }
  ],
  "bytecode": "0x6101206040523060805234801561001557600080fd5b5060405161427838038061427883398101604081905261003491610156565b6001600160a01b03841660a05260c083905261004e61008f565b6001600160a01b038216610075576040516314f28f2b60e01b815260040160405180910390fd5b6001600160a01b0390911660e052610100525061019f9050565b7ff0c57e16840df040f15088dc2f81fe391c3923bec73e23a9662efc9c229c6a00805468010000000000000000900460ff16156100df5760405163f92ee8a960e01b815260040160405180910390fd5b80546001600160401b039081161461013e5780546001600160401b0319166001600160401b0390811782556040519081527fc7f505b2f371ae2175ee4913f4499e1f2633a7b5936321eed1cdaeb6115181d29060200160405180910390a15b50565b6001600160a01b038116811461013e57600080fd5b6000806000806080858703121561016c57600080fd5b845161017781610141565b60208601516040870151919550935061018f81610141565b6060959095015193969295505050565b60805160a05160c05160e0516101005161405d61021b600039600081816107280152610dc70152600081816104a901528181610ef3015281816111c401526113030152600081816105d501526121a00152600081816106d4015261223e015260008181611e4501528181611e6e0152612023015261405d6000f3fe6080604052600436106101e35760003560e01c80639022c19c11610102578063cd79f90611610095578063ec6aef2911610064578063ec6aef291461076a578063edc1c0df1461078a578063ee61a8d5146107b8578063eff3be09146107d857600080fd5b8063cd79f906146106c2578063d547741f146106f6578063d8ffd00214610716578063e0aba60a1461074a57600080fd5b8063a0ac45d5116100d1578063a0ac45d514610617578063a217fddf14610637578063ad3cb1cc1461064c578063cc101e00146106a257600080fd5b80639022c19c146104e357806391d148541461055e5780639aec990e146105c35780639c01de41146105f757600080fd5b80634f1ef2861161017a5780635690e1cc116101495780635690e1cc146103fe5780636b5b21a61461041e57806375847b841461047757806382bfefc81461049757600080fd5b80634f1ef2861461037e5780635221c1f01461039157806352d1902d146103c9578063549220d9146103de57600080fd5b8063248a9ca3116101b6578063248a9ca3146102cf5780632f2ff15d1461031e57806336568abe1461033e5780634abc64c21461035e57600080fd5b80630167847b146101e857806301d58fa31461020a57806301ffc9a7146102725780632410f6ba146102a2575b600080fd5b3480156101f457600080fd5b5061020861020336600461331f565b6107f8565b005b34801561021657600080fd5b5061025f610225366004613378565b6001600160a01b031660009081527fc17b4b708b6f44255c20913a9d97a05300b670342c71fe5ae5b617bd4db55001602052604090205490565b6040519081526020015b60405180910390f35b34801561027e57600080fd5b5061029261028d366004613393565b6108f1565b6040519015158152602001610269565b3480156102ae57600080fd5b506102c26102bd3660046133d5565b610902565b604051610269919061343e565b3480156102db57600080fd5b5061025f6102ea3660046133d5565b60009081527f02dd7bc7dec4dceedda775e58dd541e08a116c6c53815c0bd028192f7b626800602052604090206001015490565b34801561032a57600080fd5b50610208610339366004613496565b610b20565b34801561034a57600080fd5b50610208610359366004613496565b610b6a565b34801561036a57600080fd5b5061020861037936600461353a565b610bb6565b61020861038c36600461359e565b610c91565b34801561039d57600080fd5b506102926103ac3660046133d5565b6000908152602081905260409020546001600160a01b0316151590565b3480156103d557600080fd5b5061025f610cb0565b3480156103ea57600080fd5b506102086103f93660046135e2565b610cdf565b34801561040a57600080fd5b50610208610419366004613617565b610eb3565b34801561042a57600080fd5b50610292610439366004613746565b60009081527fc17b4b708b6f44255c20913a9d97a05300b670342c71fe5ae5b617bd4db5500260209081526040808320938352929052205460ff1690565b34801561048357600080fd5b50610292610492366004613768565b61114a565b3480156104a357600080fd5b506104cb7f000000000000000000000000000000000000000000000000000000000000000081565b6040516001600160a01b039091168152602001610269565b3480156104ef57600080fd5b506105326104fe366004613378565b60016020526000908152604090208054600282015460038301546004909301546001600160a01b0390921692909160ff1684565b604080516001600160a01b03909516855260208501939093529183015215156060820152608001610269565b34801561056a57600080fd5b50610292610579366004613496565b60009182527f02dd7bc7dec4dceedda775e58dd541e08a116c6c53815c0bd028192f7b626800602090815260408084206001600160a01b0393909316845291905290205460ff1690565b3480156105cf57600080fd5b5061025f7f000000000000000000000000000000000000000000000000000000000000000081565b34801561060357600080fd5b50610208610612366004613872565b61115d565b34801561062357600080fd5b50610208610632366004613378565b611290565b34801561064357600080fd5b5061025f600081565b34801561065857600080fd5b506106956040518060400160405280600581526020017f352e302e3000000000000000000000000000000000000000000000000000000081525081565b60405161026991906138b7565b3480156106ae57600080fd5b506102086106bd366004613872565b61129c565b3480156106ce57600080fd5b506104cb7f000000000000000000000000000000000000000000000000000000000000000081565b34801561070257600080fd5b50610208610711366004613496565b6113c3565b34801561072257600080fd5b5061025f7f000000000000000000000000000000000000000000000000000000000000000081565b34801561075657600080fd5b506102086107653660046135e2565b611407565b34801561077657600080fd5b5061020861078536600461353a565b61153d565b34801561079657600080fd5b506107aa6107a53660046133d5565b611611565b6040516102699291906138ca565b3480156107c457600080fd5b506102086107d33660046138ec565b6116c0565b3480156107e457600080fd5b506102086107f3366004613a32565b6118ad565b6000610803816119f0565b815160000361083e576040517f947d5a8400000000000000000000000000000000000000000000000000000000815260040160405180910390fd5b60005b82518110156108ec57600083828151811061085e5761085e613b62565b6020908102919091018101516000818152918290526040822080547fffffffffffffffffffffffff0000000000000000000000000000000000000000168155909250906108ae6001830182613105565b50506040518181527f5b9dc40648bfe840de770df10081e79f179534343348da4087dea77ba584d1819060200160405180910390a150600101610841565b505050565b60006108fc826119fa565b92915050565b61092660405180606001604052806060815260200160608152602001606081525090565b60008281527fc17b4b708b6f44255c20913a9d97a05300b670342c71fe5ae5b617bd4db55000602081905260409182902082516060810190935280549192918290829061097290613b91565b80601f016020809104026020016040519081016040528092919081815260200182805461099e90613b91565b80156109eb5780601f106109c0576101008083540402835291602001916109eb565b820191906000526020600020905b8154815290600101906020018083116109ce57829003601f168201915b50505050508152602001600182018054610a0490613b91565b80601f0160208091040260200160405190810160405280929190818152602001828054610a3090613b91565b8015610a7d5780601f10610a5257610100808354040283529160200191610a7d565b820191906000526020600020905b815481529060010190602001808311610a6057829003601f168201915b50505050508152602001600282018054610a9690613b91565b80601f0160208091040260200160405190810160405280929190818152602001828054610ac290613b91565b8015610b0f5780601f10610ae457610100808354040283529160200191610b0f565b820191906000526020600020905b815481529060010190602001808311610af257829003601f168201915b505050505081525050915050919050565b60008281527f02dd7bc7dec4dceedda775e58dd541e08a116c6c53815c0bd028192f7b6268006020526040902060010154610b5a816119f0565b610b648383611a91565b50505050565b6001600160a01b0381163314610bac576040517f6697b23200000000000000000000000000000000000000000000000000000000815260040160405180910390fd5b6108ec8282611b7e565b816000610bc282611c42565b6001600160a01b03808216600090815260016020526040902054919250163314610c18576040517f0c87f49500000000000000000000000000000000000000000000000000000000815260040160405180910390fd5b8251600003610c53576040517fa36817ae00000000000000000000000000000000000000000000000000000000815260040160405180910390fd5b60005b8351811015610c8a57610c8285858381518110610c7557610c75613b62565b6020026020010151611c8b565b600101610c56565b5050505050565b610c99611e3a565b610ca282611f0c565b610cac8282611f17565b5050565b6000610cba612018565b507f360894a13ba1a3210667c828492db98dca3e2076cc3735a920a3ca505d382bbc90565b806000610ceb82611c42565b6001600160a01b03808216600090815260016020526040902054919250163314610d41576040517f0c87f49500000000000000000000000000000000000000000000000000000000815260040160405180910390fd5b6000610d4c84611c42565b6001600160a01b03811660009081526001602052604090206004015490915060ff1615610da5576040517ff525e32000000000000000000000000000000000000000000000000000000000815260040160405180910390fd5b6001600160a01b038116600090815260016020526040902060030154610dec907f000000000000000000000000000000000000000000000000000000000000000090613c13565b4211610e24576040517f4f703b6400000000000000000000000000000000000000000000000000000000815260040160405180910390fd5b6001600160a01b0381166000908152600160208190526040822080547fffffffffffffffffffffffff00000000000000000000000000000000000000001681559190610e729083018261313f565b50600060028201819055600382015560040180547fffffffffffffffffffffffffffffffffffffffffffffffffffffffffffffff00169055610c8a8461207a565b610ee3896040518060a001604052808b81526020018a8152602001898152602001888152602001878152506120e5565b50610eee838361234d565b610f237f00000000000000000000000000000000000000000000000000000000000000006001600160a01b0316333084612391565b6000610f2e89611c42565b6001600160a01b038082166000908152600160205260409020549192501615610f83576040517f5104a0b800000000000000000000000000000000000000000000000000000000815260040160405180910390fd5b60005b84518110156110125760006001600160a01b0316600080878481518110610faf57610faf613b62565b6020908102919091018101518252810191909152604001600020546001600160a01b03160361100a576040517fd21eab3700000000000000000000000000000000000000000000000000000000815260040160405180910390fd5b600101610f86565b506040518060a001604052806110253390565b6001600160a01b0390811682526020808301889052604080840187905260006060850181905260016080909501859052868416815284835220845181547fffffffffffffffffffffffff000000000000000000000000000000000000000016931692909217825583810151805192936110a69390850192919091019061315d565b506040820151600282015560608201516003820155608090910151600490910180547fffffffffffffffffffffffffffffffffffffffffffffffffffffffffffffff0016911515919091179055336001600160a01b0316816001600160a01b03167f1586eae4013456779cf6b481c0cc4c5eba08765933b33ad4109e869b1505dcc3866040516111369190613c26565b60405180910390a350505050505050505050565b600061115683836120e5565b9392505050565b81600061116982611c42565b6001600160a01b038082166000908152600160205260409020549192501633146111bf576040517f0c87f49500000000000000000000000000000000000000000000000000000000815260040160405180910390fd5b6111f47f00000000000000000000000000000000000000000000000000000000000000006001600160a01b0316333086612391565b60006111ff85611c42565b6001600160a01b03811660009081526001602052604081206002018054929350869290919061122f908490613c13565b90915550506001600160a01b038116600081815260016020908152604091829020600201548251888152918201527f7937866df5a212734c901da8bbe229fc15d215eefcae93db8f3c078ec7c96cdb91015b60405180910390a25050505050565b6112998161240d565b50565b8160006112a882611c42565b6001600160a01b038082166000908152600160205260409020549192501633146112fe576040517f0c87f49500000000000000000000000000000000000000000000000000000000815260040160405180910390fd5b6113327f00000000000000000000000000000000000000000000000000000000000000006001600160a01b031633856124f2565b600061133d85611c42565b6001600160a01b03811660009081526001602052604081206002018054929350869290919061136d908490613c6a565b90915550506001600160a01b038116600081815260016020908152604091829020600201548251888152918201527f119c3b6037d5e5f7261862a1a205a0c5577c7df134fcd0d2663f2c65cf02679c9101611281565b60008281527f02dd7bc7dec4dceedda775e58dd541e08a116c6c53815c0bd028192f7b62680060205260409020600101546113fd816119f0565b610b648383611b7e565b80600061141382611c42565b6001600160a01b03808216600090815260016020526040902054919250163314611469576040517f0c87f49500000000000000000000000000000000000000000000000000000000815260040160405180910390fd5b600061147484611c42565b6001600160a01b03808216600090815260016020526040902054919250166114c8576040517fd283335d00000000000000000000000000000000000000000000000000000000815260040160405180910390fd5b6001600160a01b0381166000818152600160205260408082206004810180547fffffffffffffffffffffffffffffffffffffffffffffffffffffffffffffff0016905542600390910155517f962f6082057b3b4fb251973bd737c7707bf1733cf85a0b7c86fd6c3caca260c59190a250505050565b81600061154982611c42565b6001600160a01b0380821660009081526001602052604090205491925016331461159f576040517f0c87f49500000000000000000000000000000000000000000000000000000000815260040160405180910390fd5b82516000036115da576040517fa36817ae00000000000000000000000000000000000000000000000000000000815260040160405180910390fd5b60005b8351811015610c8a57611609858583815181106115fc576115fc613b62565b6020026020010151612523565b6001016115dd565b600060208190529081526040902080546001820180546001600160a01b03909216929161163d90613b91565b80601f016020809104026020016040519081016040528092919081815260200182805461166990613b91565b80156116b65780601f1061168b576101008083540402835291602001916116b6565b820191906000526020600020905b81548152906001019060200180831161169957829003601f168201915b5050505050905082565b7ff0c57e16840df040f15088dc2f81fe391c3923bec73e23a9662efc9c229c6a00805468010000000000000000810460ff16159067ffffffffffffffff1660008115801561170b5750825b905060008267ffffffffffffffff1660011480156117285750303b155b905081158015611736575080155b1561176d576040517ff92ee8a900000000000000000000000000000000000000000000000000000000815260040160405180910390fd5b84547fffffffffffffffffffffffffffffffffffffffffffffffff000000000000000016600117855583156117ce5784547fffffffffffffffffffffffffffffffffffffffffffffff00ffffffffffffffff16680100000000000000001785555b6001600160a01b03871661180e576040517f6e24c5d600000000000000000000000000000000000000000000000000000000815260040160405180910390fd5b611816612781565b61181e612781565b611826612781565b61182e612781565b61183786612789565b611842600088611a91565b5083156118a45784547fffffffffffffffffffffffffffffffffffffffffffffff00ffffffffffffffff168555604051600181527fc7f505b2f371ae2175ee4913f4499e1f2633a7b5936321eed1cdaeb6115181d29060200160405180910390a15b50505050505050565b60006118b8816119f0565b825115806118c857508151835114155b156118ff576040517f947d5a8400000000000000000000000000000000000000000000000000000000815260040160405180910390fd5b60005b8251811015610b6457600083828151811061191f5761191f613b62565b60200260200101519050600085838151811061193d5761193d613b62565b602090810291909101810151600081815280835260409020845181547fffffffffffffffffffffffff0000000000000000000000000000000000000000166001600160a01b039091161781559184015190925083919060018201906119a29082613ccd565b5050825160208401516040517f67dd8b8576f1455907cc1b4aa4623860ed1036d8ead856785f3d51bef810fa6393506119de9285929091613dc9565b60405180910390a15050600101611902565b61129981336127c9565b60007fffffffff0000000000000000000000000000000000000000000000000000000082167f7965db0b0000000000000000000000000000000000000000000000000000000014806108fc57507f01ffc9a7000000000000000000000000000000000000000000000000000000007fffffffff000000000000000000000000000000000000000000000000000000008316146108fc565b60008281527f02dd7bc7dec4dceedda775e58dd541e08a116c6c53815c0bd028192f7b626800602081815260408084206001600160a01b038616855290915282205460ff16611b74576000848152602082815260408083206001600160a01b0387168452909152902080547fffffffffffffffffffffffffffffffffffffffffffffffffffffffffffffff00166001179055611b2a3390565b6001600160a01b0316836001600160a01b0316857f2f8788117e7eff1d82e926ec794901d17c78024a50270940304540a733656f0d60405160405180910390a460019150506108fc565b60009150506108fc565b60008281527f02dd7bc7dec4dceedda775e58dd541e08a116c6c53815c0bd028192f7b626800602081815260408084206001600160a01b038616855290915282205460ff1615611b74576000848152602082815260408083206001600160a01b038716808552925280832080547fffffffffffffffffffffffffffffffffffffffffffffffffffffffffffffff0016905551339287917ff6391f5c32d9c69d2a47ea670b442974b53935d1edc7fd64eb21e047a839171b9190a460019150506108fc565b60008151604014611c7f576040517fbd9c80c100000000000000000000000000000000000000000000000000000000815260040160405180910390fd5b50805160209091012090565b6000818152602081905260409020546001600160a01b0316611cd9576040517fd21eab3700000000000000000000000000000000000000000000000000000000815260040160405180910390fd5b6000611ce483611c42565b9050600060016000836001600160a01b03166001600160a01b03168152602001908152602001600020600101805480602002602001604051908101604052809291908181526020018280548015611d5a57602002820191906000526020600020905b815481526020019060010190808311611d46575b5050505050905060005b8151811015611dcf5783828281518110611d8057611d80613b62565b602002602001015103611dc7576040517f625fc3a6000000000000000000000000000000000000000000000000000000008152600481018590526024015b60405180910390fd5b600101611d64565b506001600160a01b03821660008181526001602081815260408084208301805493840181558452922001859055517fbae667a7ed97b338409582b4ff8ba4ae0c912d2a80fbd7153d9f5f12e136de7790611e2c9086815260200190565b60405180910390a250505050565b306001600160a01b037f0000000000000000000000000000000000000000000000000000000000000000161480611ed357507f00000000000000000000000000000000000000000000000000000000000000006001600160a01b0316611ec77f360894a13ba1a3210667c828492db98dca3e2076cc3735a920a3ca505d382bbc546001600160a01b031690565b6001600160a01b031614155b15611f0a576040517fe07c8dba00000000000000000000000000000000000000000000000000000000815260040160405180910390fd5b565b6000610cac816119f0565b816001600160a01b03166352d1902d6040518163ffffffff1660e01b8152600401602060405180830381865afa925050508015611f71575060408051601f3d908101601f19168201909252611f6e91810190613df1565b60015b611fb2576040517f4c9c8ce30000000000000000000000000000000000000000000000000000000081526001600160a01b0383166004820152602401611dbe565b7f360894a13ba1a3210667c828492db98dca3e2076cc3735a920a3ca505d382bbc811461200e576040517faa1d49a400000000000000000000000000000000000000000000000000000000815260048101829052602401611dbe565b6108ec8383612856565b306001600160a01b037f00000000000000000000000000000000000000000000000000000000000000001614611f0a576040517fe07c8dba00000000000000000000000000000000000000000000000000000000815260040160405180910390fd5b60008061208683611c42565b9050612091816128ac565b61209e5750600092915050565b826040516120ac9190613e0a565b604051908190038120907ff910fd78b98e9574e8b6f0e42bc3a996a6aba3776ec20b9d85515bd74a6c8fe990600090a250600192915050565b6000807fc17b4b708b6f44255c20913a9d97a05300b670342c71fe5ae5b617bd4db550009050600083602001518460400151856060015160405160200161212e93929190613e26565b60408051601f198184030181529181528151602092830120600081815292859052912080549192509061216090613b91565b905060000361219b576040517f38c4ac1600000000000000000000000000000000000000000000000000000000815260040160405180910390fd5b6121c57f000000000000000000000000000000000000000000000000000000000000000042613c6a565b6103e885608001516121d79190613e69565b1161220e576040517f19605e0a00000000000000000000000000000000000000000000000000000000815260040160405180910390fd5b6040517feac708a30000000000000000000000000000000000000000000000000000000081526001600160a01b037f0000000000000000000000000000000000000000000000000000000000000000169063eac708a3906122759088908890600401613ea4565b60006040518083038186803b15801561228d57600080fd5b505afa1580156122a1573d6000803e3d6000fd5b5050505060006122b48560000151611c42565b6001600160a01b0381166000908152600185016020526040902054909150156122e357600093505050506108fc565b6001600160a01b03811660009081526001840160205260409081902083905585519051839161231191613e0a565b604051908190038120907ff4837f1a66a1e5fbde2c40d0f6eff75183139e79b0fc1eaab280a3a0be38e7b190600090a350600195945050505050565b6000826040516020016123609190613f38565b60408051601f19818403018152919052805160209091012090506000612386828461295f565b9050610b648161240d565b6040516001600160a01b038481166024830152838116604483015260648201839052610b649186918216906323b872dd906084015b604051602081830303815290604052915060e01b6020820180517bffffffffffffffffffffffffffffffffffffffffffffffffffffffff8381831617835250505050612989565b6001600160a01b03811660009081527fc17b4b708b6f44255c20913a9d97a05300b670342c71fe5ae5b617bd4db5500160205260409020547fc17b4b708b6f44255c20913a9d97a05300b670342c71fe5ae5b617bd4db55000908061249e576040517f3dd8ca9500000000000000000000000000000000000000000000000000000000815260040160405180910390fd5b600081815260208390526040902080546124b790613b91565b90506000036108ec576040517f38c4ac1600000000000000000000000000000000000000000000000000000000815260040160405180910390fd5b6040516001600160a01b038381166024830152604482018390526108ec91859182169063a9059cbb906064016123c6565b600061252e83611c42565b9050600060016000836001600160a01b03166001600160a01b031681526020019081526020016000206001018054806020026020016040519081016040528092919081815260200182805480156125a457602002820191906000526020600020905b815481526020019060010190808311612590575b50505050509050600081519050806000036125eb576040517f5be6f44600000000000000000000000000000000000000000000000000000000815260040160405180910390fd5b60005b8181101561261f578483828151811061260957612609613b62565b6020026020010151031561261f576001016125ee565b81811461265b576040517f4a7f43fa00000000000000000000000000000000000000000000000000000000815260048101869052602401611dbe565b612666600183613c6a565b81146126f5576001600160a01b03841660009081526001602081905260409091208101906126949084613c6a565b815481106126a4576126a4613b62565b906000526020600020015460016000866001600160a01b03166001600160a01b0316815260200190815260200160002060010182815481106126e8576126e8613b62565b6000918252602090912001555b6001600160a01b03841660009081526001602081905260409091200180548061272057612720613f6e565b60019003818190600052602060002001600090559055836001600160a01b03167f3cfa750f6651a5d0226cb438c747adef8f00c35cce0a6951071f99aac90cc8cc8660405161277191815260200190565b60405180910390a2505050505050565b611f0a612a05565b612791612a05565b60005b8151811015610cac576127bf8282815181106127b2576127b2613b62565b6020026020010151612a6c565b5050600101612794565b60008281527f02dd7bc7dec4dceedda775e58dd541e08a116c6c53815c0bd028192f7b626800602090815260408083206001600160a01b038516845290915290205460ff16610cac576040517fe2517d3f0000000000000000000000000000000000000000000000000000000081526001600160a01b038216600482015260248101839052604401611dbe565b61285f82612c14565b6040516001600160a01b038316907fbc7cd75a20ee27fd9adebab32041f755214dbc6bffa90cc0225b39da2e5c2d3b90600090a28051156128a4576108ec8282612cbc565b610cac612d32565b6001600160a01b03811660009081527fc17b4b708b6f44255c20913a9d97a05300b670342c71fe5ae5b617bd4db5500160205260408120547fc17b4b708b6f44255c20913a9d97a05300b670342c71fe5ae5b617bd4db55000906129135750600092915050565b6001600160a01b0383166000818152600183016020526040808220829055517f43c77bddb18405fd78819d1d0a8a4e38d3ebc4c6fae9f7ec04ae0c0f7527b5079190a250600192915050565b60008060008061296f8686612d6a565b92509250925061297f8282612db7565b5090949350505050565b600061299e6001600160a01b03841683612ebb565b905080516000141580156129c35750808060200190518101906129c19190613f9d565b155b156108ec576040517f5274afe70000000000000000000000000000000000000000000000000000000081526001600160a01b0384166004820152602401611dbe565b7ff0c57e16840df040f15088dc2f81fe391c3923bec73e23a9662efc9c229c6a005468010000000000000000900460ff16611f0a576040517fd7e6bcf800000000000000000000000000000000000000000000000000000000815260040160405180910390fd5b80515160009081907fc17b4b708b6f44255c20913a9d97a05300b670342c71fe5ae5b617bd4db55000906030148015612aaa57508360200151516030145b8015612abb57508360400151516030145b612af1576040517f84c61bb600000000000000000000000000000000000000000000000000000000815260040160405180910390fd5b6000846000015185602001518660400151604051602001612b1493929190613e26565b60408051601f1981840301815291815281516020928301206000818152928590529120805491925090612b4690613b91565b159050612b5857946000945092505050565b60408051606081018252865181526020808801518183015287830151828401526000848152908590529190912081518190612b939082613ccd565b5060208201516001820190612ba89082613ccd565b5060408201516002820190612bbd9082613ccd565b50905050807f52b29bbdd97ab983419f50fa1590e5ab75e9942279e95e10a08607b06c23238b866000015187602001518860400151604051612c0193929190613fbf565b60405180910390a2946001945092505050565b806001600160a01b03163b600003612c63576040517f4c9c8ce30000000000000000000000000000000000000000000000000000000081526001600160a01b0382166004820152602401611dbe565b7f360894a13ba1a3210667c828492db98dca3e2076cc3735a920a3ca505d382bbc80547fffffffffffffffffffffffff0000000000000000000000000000000000000000166001600160a01b0392909216919091179055565b6060600080846001600160a01b031684604051612cd99190613e0a565b600060405180830381855af49150503d8060008114612d14576040519150601f19603f3d011682016040523d82523d6000602084013e612d19565b606091505b5091509150612d29858383612ec9565b95945050505050565b3415611f0a576040517fb398979f00000000000000000000000000000000000000000000000000000000815260040160405180910390fd5b60008060008351604103612da45760208401516040850151606086015160001a612d9688828585612f3e565b955095509550505050612db0565b50508151600091506002905b9250925092565b6000826003811115612dcb57612dcb613ff8565b03612dd4575050565b6001826003811115612de857612de8613ff8565b03612e1f576040517ff645eedf00000000000000000000000000000000000000000000000000000000815260040160405180910390fd5b6002826003811115612e3357612e33613ff8565b03612e6d576040517ffce698f700000000000000000000000000000000000000000000000000000000815260048101829052602401611dbe565b6003826003811115612e8157612e81613ff8565b03610cac576040517fd78bce0c00000000000000000000000000000000000000000000000000000000815260048101829052602401611dbe565b60606111568383600061300d565b606082612ede57612ed9826130c3565b611156565b8151158015612ef557506001600160a01b0384163b155b15612f37576040517f9996b3150000000000000000000000000000000000000000000000000000000081526001600160a01b0385166004820152602401611dbe565b5092915050565b600080807f7fffffffffffffffffffffffffffffff5d576e7357a4501ddfe92f46681b20a0841115612f795750600091506003905082613003565b604080516000808252602082018084528a905260ff891692820192909252606081018790526080810186905260019060a0016020604051602081039080840390855afa158015612fcd573d6000803e3d6000fd5b5050604051601f1901519150506001600160a01b038116612ff957506000925060019150829050613003565b9250600091508190505b9450945094915050565b60608147101561304b576040517fcd786059000000000000000000000000000000000000000000000000000000008152306004820152602401611dbe565b600080856001600160a01b031684866040516130679190613e0a565b60006040518083038185875af1925050503d80600081146130a4576040519150601f19603f3d011682016040523d82523d6000602084013e6130a9565b606091505b50915091506130b9868383612ec9565b9695505050505050565b8051156130d35780518082602001fd5b6040517f1425ea4200000000000000000000000000000000000000000000000000000000815260040160405180910390fd5b50805461311190613b91565b6000825580601f10613121575050565b601f01602090049060005260206000209081019061129991906131a8565b508054600082559060005260206000209081019061129991906131a8565b828054828255906000526020600020908101928215613198579160200282015b8281111561319857825182559160200191906001019061317d565b506131a49291506131a8565b5090565b5b808211156131a457600081556001016131a9565b7f4e487b7100000000000000000000000000000000000000000000000000000000600052604160045260246000fd5b60405160a0810167ffffffffffffffff8111828210171561320f5761320f6131bd565b60405290565b6040516060810167ffffffffffffffff8111828210171561320f5761320f6131bd565b6040805190810167ffffffffffffffff8111828210171561320f5761320f6131bd565b604051601f8201601f1916810167ffffffffffffffff81118282101715613284576132846131bd565b604052919050565b600067ffffffffffffffff8211156132a6576132a66131bd565b5060051b60200190565b600082601f8301126132c157600080fd5b813560206132d66132d18361328c565b61325b565b8083825260208201915060208460051b8701019350868411156132f857600080fd5b602086015b8481101561331457803583529183019183016132fd565b509695505050505050565b60006020828403121561333157600080fd5b813567ffffffffffffffff81111561334857600080fd5b613354848285016132b0565b949350505050565b80356001600160a01b038116811461337357600080fd5b919050565b60006020828403121561338a57600080fd5b6111568261335c565b6000602082840312156133a557600080fd5b81357fffffffff000000000000000000000000000000000000000000000000000000008116811461115657600080fd5b6000602082840312156133e757600080fd5b5035919050565b60005b838110156134095781810151838201526020016133f1565b50506000910152565b6000815180845261342a8160208601602086016133ee565b601f01601f19169290920160200192915050565b60208152600082516060602084015261345a6080840182613412565b90506020840151601f19808584030160408601526134788383613412565b9250604086015191508085840301606086015250612d298282613412565b600080604083850312156134a957600080fd5b823591506134b96020840161335c565b90509250929050565b600067ffffffffffffffff8311156134dc576134dc6131bd565b6134ef6020601f19601f8601160161325b565b905082815283838301111561350357600080fd5b828260208301376000602084830101529392505050565b600082601f83011261352b57600080fd5b611156838335602085016134c2565b6000806040838503121561354d57600080fd5b823567ffffffffffffffff8082111561356557600080fd5b6135718683870161351a565b9350602085013591508082111561358757600080fd5b50613594858286016132b0565b9150509250929050565b600080604083850312156135b157600080fd5b6135ba8361335c565b9150602083013567ffffffffffffffff8111156135d657600080fd5b6135948582860161351a565b6000602082840312156135f457600080fd5b813567ffffffffffffffff81111561360b57600080fd5b6133548482850161351a565b60008060008060008060008060006101208a8c03121561363657600080fd5b893567ffffffffffffffff8082111561364e57600080fd5b61365a8d838e0161351a565b9a5060208c013591508082111561367057600080fd5b61367c8d838e0161351a565b995060408c013591508082111561369257600080fd5b61369e8d838e0161351a565b985060608c01359150808211156136b457600080fd5b6136c08d838e0161351a565b975060808c01359150808211156136d657600080fd5b6136e28d838e0161351a565b965060a08c0135955060c08c01359150808211156136ff57600080fd5b61370b8d838e016132b0565b945060e08c013591508082111561372157600080fd5b5061372e8c828d0161351a565b9250506101008a013590509295985092959850929598565b6000806040838503121561375957600080fd5b50508035926020909101359150565b6000806040838503121561377b57600080fd5b823567ffffffffffffffff8082111561379357600080fd5b61379f8683870161351a565b935060208501359150808211156137b557600080fd5b9084019060a082870312156137c957600080fd5b6137d16131ec565b8235828111156137e057600080fd5b6137ec8882860161351a565b82525060208301358281111561380157600080fd5b61380d8882860161351a565b60208301525060408301358281111561382557600080fd5b6138318882860161351a565b60408301525060608301358281111561384957600080fd5b6138558882860161351a565b606083015250608083013560808201528093505050509250929050565b6000806040838503121561388557600080fd5b823567ffffffffffffffff81111561389c57600080fd5b6138a88582860161351a565b95602094909401359450505050565b6020815260006111566020830184613412565b6001600160a01b03831681526040602082015260006133546040830184613412565b600080604083850312156138ff57600080fd5b6139088361335c565b915060208084013567ffffffffffffffff8082111561392657600080fd5b818601915086601f83011261393a57600080fd5b81356139486132d18261328c565b81815260059190911b8301840190848101908983111561396757600080fd5b8585015b83811015613a21578035858111156139835760008081fd5b86016060818d03601f190181131561399b5760008081fd5b6139a3613215565b89830135888111156139b55760008081fd5b6139c38f8c8387010161351a565b8252506040830135888111156139d95760008081fd5b6139e78f8c8387010161351a565b828c0152509082013590878211156139ff5760008081fd5b613a0d8e8b8486010161351a565b60408201528552505091860191860161396b565b508096505050505050509250929050565b6000806040808486031215613a4657600080fd5b833567ffffffffffffffff80821115613a5e57600080fd5b613a6a878388016132b0565b9450602091508186013581811115613a8157600080fd5b8601601f81018813613a9257600080fd5b8035613aa06132d18261328c565b81815260059190911b8201840190848101908a831115613abf57600080fd5b8584015b83811015613b5057803586811115613adb5760008081fd5b8501808d03601f1901891315613af15760008081fd5b613af9613238565b613b0489830161335c565b81528982013588811115613b185760008081fd5b8083019250508d603f830112613b2e5760008081fd5b613b3e8e8a8401358c85016134c2565b818a0152845250918601918601613ac3565b50809750505050505050509250929050565b7f4e487b7100000000000000000000000000000000000000000000000000000000600052603260045260246000fd5b600181811c90821680613ba557607f821691505b602082108103613bde577f4e487b7100000000000000000000000000000000000000000000000000000000600052602260045260246000fd5b50919050565b7f4e487b7100000000000000000000000000000000000000000000000000000000600052601160045260246000fd5b808201808211156108fc576108fc613be4565b6020808252825182820181905260009190848201906040850190845b81811015613c5e57835183529284019291840191600101613c42565b50909695505050505050565b818103818111156108fc576108fc613be4565b601f8211156108ec576000816000526020600020601f850160051c81016020861015613ca65750805b601f850160051c820191505b81811015613cc557828155600101613cb2565b505050505050565b815167ffffffffffffffff811115613ce757613ce76131bd565b613cfb81613cf58454613b91565b84613c7d565b602080601f831160018114613d4e5760008415613d185750858301515b7fffffffffffffffffffffffffffffffffffffffffffffffffffffffffffffffff600386901b1c1916600185901b178555613cc5565b600085815260208120601f198616915b82811015613d7d57888601518255948401946001909101908401613d5e565b5085821015613db957878501517fffffffffffffffffffffffffffffffffffffffffffffffffffffffffffffffff600388901b60f8161c191681555b5050505050600190811b01905550565b8381526001600160a01b0383166020820152606060408201526000612d296060830184613412565b600060208284031215613e0357600080fd5b5051919050565b60008251613e1c8184602087016133ee565b9190910192915050565b60008451613e388184602089016133ee565b845190830190613e4c8183602089016133ee565b8451910190613e5f8183602088016133ee565b0195945050505050565b600082613e9f577f4e487b7100000000000000000000000000000000000000000000000000000000600052601260045260246000fd5b500490565b604081526000613eb76040830185613412565b8281036020840152835160a08252613ed260a0830182613412565b905060208501518282036020840152613eeb8282613412565b91505060408501518282036040840152613f058282613412565b91505060608501518282036060840152613f1f8282613412565b9150506080850151608083015280925050509392505050565b815160009082906020808601845b83811015613f6257815185529382019390820190600101613f46565b50929695505050505050565b7f4e487b7100000000000000000000000000000000000000000000000000000000600052603160045260246000fd5b600060208284031215613faf57600080fd5b8151801515811461115657600080fd5b606081526000613fd26060830186613412565b8281036020840152613fe48186613412565b905082810360408401526130b98185613412565b7f4e487b7100000000000000000000000000000000000000000000000000000000600052602160045260246000fdfea2646970667358221220600a299437c560b061edaf4b8068ab088cf3d1bc1177b98bd7fd3ad1695c950b64736f6c63430008190033",
  "linkReferences": {},
  "deployedLinkReferences": {}
}