{
  "_format": "hh-sol-artifact-1",
  "contractName": "Gateways",
  "sourceName": "contracts/serverless-v2/Gateways.sol",
  "abi": [
    {
      "inputs": [
        {
          "internalType": "contract IAttestationVerifier",
          "name": "attestationVerifier",
          "type": "address"
        },
        {
          "internalType": "uint256",
          "name": "maxAge",
          "type": "uint256"
        },
        {
          "internalType": "contract IERC20",
          "name": "_token",
          "type": "address"
        },
        {
          "internalType": "uint256",
          "name": "_deregisterOrUnstakeTimeout",
          "type": "uint256"
        },
        {
          "internalType": "uint256",
          "name": "_slashPercentInBips",
          "type": "uint256"
        },
        {
          "internalType": "uint256",
          "name": "_slashMaxBips",
          "type": "uint256"
        }
      ],
      "stateMutability": "nonpayable",
      "type": "constructor"
    },
    {
      "inputs": [],
      "name": "AccessControlBadConfirmation",
      "type": "error"
    },
    {
      "inputs": [
        {
          "internalType": "address",
          "name": "account",
          "type": "address"
        },
        {
          "internalType": "bytes32",
          "name": "neededRole",
          "type": "bytes32"
        }
      ],
      "name": "AccessControlUnauthorizedAccount",
      "type": "error"
    },
    {
      "inputs": [
        {
          "internalType": "address",
          "name": "target",
          "type": "address"
        }
      ],
      "name": "AddressEmptyCode",
      "type": "error"
    },
    {
      "inputs": [
        {
          "internalType": "address",
          "name": "account",
          "type": "address"
        }
      ],
      "name": "AddressInsufficientBalance",
      "type": "error"
    },
    {
      "inputs": [],
      "name": "AttestationAutherAttestationTooOld",
      "type": "error"
    },
    {
      "inputs": [],
      "name": "AttestationAutherImageNotInFamily",
      "type": "error"
    },
    {
      "inputs": [],
      "name": "AttestationAutherImageNotWhitelisted",
      "type": "error"
    },
    {
      "inputs": [],
      "name": "AttestationAutherKeyNotVerified",
      "type": "error"
    },
    {
      "inputs": [],
      "name": "AttestationAutherMismatchedLengths",
      "type": "error"
    },
    {
      "inputs": [],
      "name": "AttestationAutherPCRsInvalid",
      "type": "error"
    },
    {
      "inputs": [],
      "name": "AttestationAutherPubkeyLengthInvalid",
      "type": "error"
    },
    {
      "inputs": [],
      "name": "ECDSAInvalidSignature",
      "type": "error"
    },
    {
      "inputs": [
        {
          "internalType": "uint256",
          "name": "length",
          "type": "uint256"
        }
      ],
      "name": "ECDSAInvalidSignatureLength",
      "type": "error"
    },
    {
      "inputs": [
        {
          "internalType": "bytes32",
          "name": "s",
          "type": "bytes32"
        }
      ],
      "name": "ECDSAInvalidSignatureS",
      "type": "error"
    },
    {
      "inputs": [
        {
          "internalType": "address",
          "name": "implementation",
          "type": "address"
        }
      ],
      "name": "ERC1967InvalidImplementation",
      "type": "error"
    },
    {
      "inputs": [],
      "name": "ERC1967NonPayable",
      "type": "error"
    },
    {
      "inputs": [],
      "name": "FailedInnerCall",
      "type": "error"
    },
    {
      "inputs": [],
      "name": "GatewaysAlreadyDraining",
      "type": "error"
    },
    {
      "inputs": [],
      "name": "GatewaysAlreadyRevived",
      "type": "error"
    },
    {
      "inputs": [
        {
          "internalType": "uint256",
          "name": "chainId",
          "type": "uint256"
        }
      ],
      "name": "GatewaysChainAlreadyExists",
      "type": "error"
    },
    {
      "inputs": [
        {
          "internalType": "uint256",
          "name": "chainId",
          "type": "uint256"
        }
      ],
      "name": "GatewaysChainNotFound",
      "type": "error"
    },
    {
      "inputs": [],
      "name": "GatewaysDrainPending",
      "type": "error"
    },
    {
      "inputs": [],
      "name": "GatewaysEmptyChainlist",
      "type": "error"
    },
    {
      "inputs": [],
      "name": "GatewaysEmptyRequestedChains",
      "type": "error"
    },
    {
      "inputs": [],
      "name": "GatewaysGatewayAlreadyExists",
      "type": "error"
    },
    {
      "inputs": [],
      "name": "GatewaysInvalidGateway",
      "type": "error"
    },
    {
      "inputs": [],
      "name": "GatewaysInvalidLength",
      "type": "error"
    },
    {
      "inputs": [],
      "name": "GatewaysInvalidSigner",
      "type": "error"
    },
    {
      "inputs": [],
      "name": "GatewaysNotDraining",
      "type": "error"
    },
    {
      "inputs": [],
      "name": "GatewaysSignatureTooOld",
      "type": "error"
    },
    {
      "inputs": [],
      "name": "GatewaysUnsupportedChain",
      "type": "error"
    },
    {
      "inputs": [],
      "name": "GatewaysZeroAddressAdmin",
      "type": "error"
    },
    {
      "inputs": [],
      "name": "GatewaysZeroAddressToken",
      "type": "error"
    },
    {
      "inputs": [],
      "name": "InvalidInitialization",
      "type": "error"
    },
    {
      "inputs": [],
      "name": "NotInitializing",
      "type": "error"
    },
    {
      "inputs": [
        {
          "internalType": "address",
          "name": "token",
          "type": "address"
        }
      ],
      "name": "SafeERC20FailedOperation",
      "type": "error"
    },
    {
      "inputs": [],
      "name": "UUPSUnauthorizedCallContext",
      "type": "error"
    },
    {
      "inputs": [
        {
          "internalType": "bytes32",
          "name": "slot",
          "type": "bytes32"
        }
      ],
      "name": "UUPSUnsupportedProxiableUUID",
      "type": "error"
    },
    {
      "anonymous": false,
      "inputs": [
        {
          "indexed": true,
          "internalType": "address",
          "name": "enclaveAddress",
          "type": "address"
        },
        {
          "indexed": false,
          "internalType": "uint256",
          "name": "chainId",
          "type": "uint256"
        }
      ],
      "name": "ChainAdded",
      "type": "event"
    },
    {
      "anonymous": false,
      "inputs": [
        {
          "indexed": false,
          "internalType": "uint256",
          "name": "chainId",
          "type": "uint256"
        },
        {
          "indexed": false,
          "internalType": "address",
          "name": "contractAddress",
          "type": "address"
        },
        {
          "indexed": false,
          "internalType": "string",
          "name": "httpRpcUrl",
          "type": "string"
        },
        {
          "indexed": false,
          "internalType": "string",
          "name": "wsRpcUrl",
          "type": "string"
        }
      ],
      "name": "ChainAddedGlobal",
      "type": "event"
    },
    {
      "anonymous": false,
      "inputs": [
        {
          "indexed": true,
          "internalType": "address",
          "name": "enclaveAddress",
          "type": "address"
        },
        {
          "indexed": false,
          "internalType": "uint256",
          "name": "chainId",
          "type": "uint256"
        }
      ],
      "name": "ChainRemoved",
      "type": "event"
    },
    {
      "anonymous": false,
      "inputs": [
        {
          "indexed": false,
          "internalType": "uint256",
          "name": "chainId",
          "type": "uint256"
        }
      ],
      "name": "ChainRemovedGlobal",
      "type": "event"
    },
    {
      "anonymous": false,
      "inputs": [
        {
          "indexed": true,
          "internalType": "bytes32",
          "name": "imageId",
          "type": "bytes32"
        },
        {
          "indexed": false,
          "internalType": "bytes32",
          "name": "family",
          "type": "bytes32"
        }
      ],
      "name": "EnclaveImageAddedToFamily",
      "type": "event"
    },
    {
      "anonymous": false,
      "inputs": [
        {
          "indexed": true,
          "internalType": "bytes32",
          "name": "imageId",
          "type": "bytes32"
        },
        {
          "indexed": false,
          "internalType": "bytes32",
          "name": "family",
          "type": "bytes32"
        }
      ],
      "name": "EnclaveImageRemovedFromFamily",
      "type": "event"
    },
    {
      "anonymous": false,
      "inputs": [
        {
          "indexed": true,
          "internalType": "bytes32",
          "name": "imageId",
          "type": "bytes32"
        }
      ],
      "name": "EnclaveImageRevoked",
      "type": "event"
    },
    {
      "anonymous": false,
      "inputs": [
        {
          "indexed": true,
          "internalType": "bytes32",
          "name": "imageId",
          "type": "bytes32"
        },
        {
          "indexed": false,
          "internalType": "bytes",
          "name": "PCR0",
          "type": "bytes"
        },
        {
          "indexed": false,
          "internalType": "bytes",
          "name": "PCR1",
          "type": "bytes"
        },
        {
          "indexed": false,
          "internalType": "bytes",
          "name": "PCR2",
          "type": "bytes"
        }
      ],
      "name": "EnclaveImageWhitelisted",
      "type": "event"
    },
    {
      "anonymous": false,
      "inputs": [
        {
          "indexed": true,
          "internalType": "address",
          "name": "enclaveAddress",
          "type": "address"
        }
      ],
      "name": "EnclaveKeyRevoked",
      "type": "event"
    },
    {
      "anonymous": false,
      "inputs": [
        {
          "indexed": true,
          "internalType": "address",
          "name": "enclaveAddress",
          "type": "address"
        },
        {
          "indexed": true,
          "internalType": "bytes32",
          "name": "imageId",
          "type": "bytes32"
        },
        {
          "indexed": false,
          "internalType": "bytes",
          "name": "enclavePubKey",
          "type": "bytes"
        }
      ],
      "name": "EnclaveKeyVerified",
      "type": "event"
    },
    {
      "anonymous": false,
      "inputs": [
        {
          "indexed": true,
          "internalType": "address",
          "name": "enclaveAddress",
          "type": "address"
        },
        {
          "indexed": true,
          "internalType": "bytes32",
          "name": "imageId",
          "type": "bytes32"
        },
        {
          "indexed": false,
          "internalType": "bytes",
          "name": "enclavePubKey",
          "type": "bytes"
        }
      ],
      "name": "EnclaveKeyWhitelisted",
      "type": "event"
    },
    {
      "anonymous": false,
      "inputs": [
        {
          "indexed": true,
          "internalType": "address",
          "name": "enclaveAddress",
          "type": "address"
        }
      ],
      "name": "GatewayDeregistered",
      "type": "event"
    },
    {
      "anonymous": false,
      "inputs": [
        {
          "indexed": true,
          "internalType": "address",
          "name": "enclaveAddress",
          "type": "address"
        }
      ],
      "name": "GatewayDrained",
      "type": "event"
    },
    {
      "anonymous": false,
      "inputs": [
        {
          "indexed": true,
          "internalType": "address",
          "name": "enclaveAddress",
          "type": "address"
        },
        {
          "indexed": true,
          "internalType": "address",
          "name": "owner",
          "type": "address"
        },
        {
          "indexed": false,
          "internalType": "uint256[]",
          "name": "chainIds",
          "type": "uint256[]"
        }
      ],
      "name": "GatewayRegistered",
      "type": "event"
    },
    {
      "anonymous": false,
      "inputs": [
        {
          "indexed": true,
          "internalType": "address",
          "name": "enclaveAddress",
          "type": "address"
        }
      ],
      "name": "GatewayRevived",
      "type": "event"
    },
    {
      "anonymous": false,
      "inputs": [
        {
          "indexed": true,
          "internalType": "address",
          "name": "enclaveAddress",
          "type": "address"
        },
        {
          "indexed": false,
          "internalType": "uint256",
          "name": "addedAmount",
          "type": "uint256"
        }
      ],
      "name": "GatewayStakeAdded",
      "type": "event"
    },
    {
      "anonymous": false,
      "inputs": [
        {
          "indexed": true,
          "internalType": "address",
          "name": "enclaveAddress",
          "type": "address"
        },
        {
          "indexed": false,
          "internalType": "uint256",
          "name": "removedAmount",
          "type": "uint256"
        }
      ],
      "name": "GatewayStakeRemoved",
      "type": "event"
    },
    {
      "anonymous": false,
      "inputs": [
        {
          "indexed": false,
          "internalType": "uint64",
          "name": "version",
          "type": "uint64"
        }
      ],
      "name": "Initialized",
      "type": "event"
    },
    {
      "anonymous": false,
      "inputs": [
        {
          "indexed": true,
          "internalType": "bytes32",
          "name": "role",
          "type": "bytes32"
        },
        {
          "indexed": true,
          "internalType": "bytes32",
          "name": "previousAdminRole",
          "type": "bytes32"
        },
        {
          "indexed": true,
          "internalType": "bytes32",
          "name": "newAdminRole",
          "type": "bytes32"
        }
      ],
      "name": "RoleAdminChanged",
      "type": "event"
    },
    {
      "anonymous": false,
      "inputs": [
        {
          "indexed": true,
          "internalType": "bytes32",
          "name": "role",
          "type": "bytes32"
        },
        {
          "indexed": true,
          "internalType": "address",
          "name": "account",
          "type": "address"
        },
        {
          "indexed": true,
          "internalType": "address",
          "name": "sender",
          "type": "address"
        }
      ],
      "name": "RoleGranted",
      "type": "event"
    },
    {
      "anonymous": false,
      "inputs": [
        {
          "indexed": true,
          "internalType": "bytes32",
          "name": "role",
          "type": "bytes32"
        },
        {
          "indexed": true,
          "internalType": "address",
          "name": "account",
          "type": "address"
        },
        {
          "indexed": true,
          "internalType": "address",
          "name": "sender",
          "type": "address"
        }
      ],
      "name": "RoleRevoked",
      "type": "event"
    },
    {
      "anonymous": false,
      "inputs": [
        {
          "indexed": true,
          "internalType": "address",
          "name": "implementation",
          "type": "address"
        }
      ],
      "name": "Upgraded",
      "type": "event"
    },
    {
      "inputs": [],
      "name": "ATTESTATION_MAX_AGE",
      "outputs": [
        {
          "internalType": "uint256",
          "name": "",
          "type": "uint256"
        }
      ],
      "stateMutability": "view",
      "type": "function"
    },
    {
      "inputs": [],
      "name": "ATTESTATION_VERIFIER",
      "outputs": [
        {
          "internalType": "contract IAttestationVerifier",
          "name": "",
          "type": "address"
        }
      ],
      "stateMutability": "view",
      "type": "function"
    },
    {
      "inputs": [],
      "name": "DEFAULT_ADMIN_ROLE",
      "outputs": [
        {
          "internalType": "bytes32",
          "name": "",
          "type": "bytes32"
        }
      ],
      "stateMutability": "view",
      "type": "function"
    },
    {
      "inputs": [],
      "name": "DRAINING_TIME_DURATION",
      "outputs": [
        {
          "internalType": "uint256",
          "name": "",
          "type": "uint256"
        }
      ],
      "stateMutability": "view",
      "type": "function"
    },
    {
      "inputs": [],
      "name": "GATEWAY_JOBS_ROLE",
      "outputs": [
        {
          "internalType": "bytes32",
          "name": "",
          "type": "bytes32"
        }
      ],
      "stateMutability": "view",
      "type": "function"
    },
    {
      "inputs": [],
      "name": "REASSIGN_COMP_FOR_REPORTER_GATEWAY",
      "outputs": [
        {
          "internalType": "uint256",
          "name": "",
          "type": "uint256"
        }
      ],
      "stateMutability": "view",
      "type": "function"
    },
    {
      "inputs": [],
      "name": "SLASH_MAX_BIPS",
      "outputs": [
        {
          "internalType": "uint256",
          "name": "",
          "type": "uint256"
        }
      ],
      "stateMutability": "view",
      "type": "function"
    },
    {
      "inputs": [],
      "name": "SLASH_PERCENT_IN_BIPS",
      "outputs": [
        {
          "internalType": "uint256",
          "name": "",
          "type": "uint256"
        }
      ],
      "stateMutability": "view",
      "type": "function"
    },
    {
      "inputs": [],
      "name": "TOKEN",
      "outputs": [
        {
          "internalType": "contract IERC20",
          "name": "",
          "type": "address"
        }
      ],
      "stateMutability": "view",
      "type": "function"
    },
    {
      "inputs": [],
      "name": "UPGRADE_INTERFACE_VERSION",
      "outputs": [
        {
          "internalType": "string",
          "name": "",
          "type": "string"
        }
      ],
      "stateMutability": "view",
      "type": "function"
    },
    {
      "inputs": [
        {
          "internalType": "uint256[]",
          "name": "_chainIds",
          "type": "uint256[]"
        },
        {
          "components": [
            {
              "internalType": "address",
              "name": "contractAddress",
              "type": "address"
            },
            {
              "internalType": "string",
              "name": "httpRpcUrl",
              "type": "string"
            },
            {
              "internalType": "string",
              "name": "wsRpcUrl",
              "type": "string"
            }
          ],
          "internalType": "struct Gateways.RequestChain[]",
          "name": "_requestChains",
          "type": "tuple[]"
        }
      ],
      "name": "addChainGlobal",
      "outputs": [],
      "stateMutability": "nonpayable",
      "type": "function"
    },
    {
      "inputs": [
        {
          "internalType": "bytes",
          "name": "_signature",
          "type": "bytes"
        },
        {
          "internalType": "uint256[]",
          "name": "_chainIds",
          "type": "uint256[]"
        },
        {
          "internalType": "uint256",
          "name": "_signTimestamp",
          "type": "uint256"
        },
        {
          "internalType": "address",
          "name": "_enclaveAddress",
          "type": "address"
        }
      ],
      "name": "addChains",
      "outputs": [],
      "stateMutability": "nonpayable",
      "type": "function"
    },
    {
      "inputs": [
        {
          "internalType": "address",
          "name": "_enclaveAddress",
          "type": "address"
        },
        {
          "internalType": "uint256",
          "name": "_amount",
          "type": "uint256"
        }
      ],
      "name": "addGatewayStake",
      "outputs": [],
      "stateMutability": "nonpayable",
      "type": "function"
    },
    {
      "inputs": [
        {
          "internalType": "address",
          "name": "_enclaveAddress",
          "type": "address"
        }
      ],
      "name": "allowOnlyVerified",
      "outputs": [],
      "stateMutability": "view",
      "type": "function"
    },
    {
      "inputs": [
        {
          "internalType": "address",
          "name": "_enclaveAddress",
          "type": "address"
        }
      ],
      "name": "deregisterGateway",
      "outputs": [],
      "stateMutability": "nonpayable",
      "type": "function"
    },
    {
      "inputs": [
        {
          "internalType": "address",
          "name": "_enclaveAddress",
          "type": "address"
        }
      ],
      "name": "drainGateway",
      "outputs": [],
      "stateMutability": "nonpayable",
      "type": "function"
    },
    {
      "inputs": [
        {
          "internalType": "address",
          "name": "",
          "type": "address"
        }
      ],
      "name": "gateways",
      "outputs": [
        {
          "internalType": "address",
          "name": "owner",
          "type": "address"
        },
        {
          "internalType": "uint256",
          "name": "stakeAmount",
          "type": "uint256"
        },
        {
          "internalType": "bool",
          "name": "draining",
          "type": "bool"
        },
        {
          "internalType": "uint256",
          "name": "drainStartTime",
          "type": "uint256"
        }
      ],
      "stateMutability": "view",
      "type": "function"
    },
    {
      "inputs": [
        {
          "internalType": "address",
          "name": "_enclaveAddress",
          "type": "address"
        }
      ],
      "name": "getGatewayChainIds",
      "outputs": [
        {
          "internalType": "uint256[]",
          "name": "",
          "type": "uint256[]"
        }
      ],
      "stateMutability": "view",
      "type": "function"
    },
    {
      "inputs": [
        {
          "internalType": "address",
          "name": "_enclaveAddress",
          "type": "address"
        }
      ],
      "name": "getOwner",
      "outputs": [
        {
          "internalType": "address",
          "name": "",
          "type": "address"
        }
      ],
      "stateMutability": "view",
      "type": "function"
    },
    {
      "inputs": [
        {
          "internalType": "bytes32",
          "name": "role",
          "type": "bytes32"
        }
      ],
      "name": "getRoleAdmin",
      "outputs": [
        {
          "internalType": "bytes32",
          "name": "",
          "type": "bytes32"
        }
      ],
      "stateMutability": "view",
      "type": "function"
    },
    {
      "inputs": [
        {
          "internalType": "address",
          "name": "_key",
          "type": "address"
        }
      ],
      "name": "getVerifiedKey",
      "outputs": [
        {
          "internalType": "bytes32",
          "name": "",
          "type": "bytes32"
        }
      ],
      "stateMutability": "view",
      "type": "function"
    },
    {
      "inputs": [
        {
          "internalType": "bytes32",
          "name": "_imageId",
          "type": "bytes32"
        }
      ],
      "name": "getWhitelistedImage",
      "outputs": [
        {
          "components": [
            {
              "internalType": "bytes",
              "name": "PCR0",
              "type": "bytes"
            },
            {
              "internalType": "bytes",
              "name": "PCR1",
              "type": "bytes"
            },
            {
              "internalType": "bytes",
              "name": "PCR2",
              "type": "bytes"
            }
          ],
          "internalType": "struct AttestationAutherUpgradeable.EnclaveImage",
          "name": "",
          "type": "tuple"
        }
      ],
      "stateMutability": "view",
      "type": "function"
    },
    {
      "inputs": [
        {
          "internalType": "bytes32",
          "name": "role",
          "type": "bytes32"
        },
        {
          "internalType": "address",
          "name": "account",
          "type": "address"
        }
      ],
      "name": "grantRole",
      "outputs": [],
      "stateMutability": "nonpayable",
      "type": "function"
    },
    {
      "inputs": [
        {
          "internalType": "bytes32",
          "name": "role",
          "type": "bytes32"
        },
        {
          "internalType": "address",
          "name": "account",
          "type": "address"
        }
      ],
      "name": "hasRole",
      "outputs": [
        {
          "internalType": "bool",
          "name": "",
          "type": "bool"
        }
      ],
      "stateMutability": "view",
      "type": "function"
    },
    {
      "inputs": [
        {
          "internalType": "address",
          "name": "_admin",
          "type": "address"
        },
        {
          "components": [
            {
              "internalType": "bytes",
              "name": "PCR0",
              "type": "bytes"
            },
            {
              "internalType": "bytes",
              "name": "PCR1",
              "type": "bytes"
            },
            {
              "internalType": "bytes",
              "name": "PCR2",
              "type": "bytes"
            }
          ],
          "internalType": "struct AttestationAutherUpgradeable.EnclaveImage[]",
          "name": "_images",
          "type": "tuple[]"
        }
      ],
      "name": "initialize",
      "outputs": [],
      "stateMutability": "nonpayable",
      "type": "function"
    },
    {
      "inputs": [
        {
          "internalType": "uint256",
          "name": "_reqChainId",
          "type": "uint256"
        }
      ],
      "name": "isChainSupported",
      "outputs": [
        {
          "internalType": "bool",
          "name": "",
          "type": "bool"
        }
      ],
      "stateMutability": "view",
      "type": "function"
    },
    {
      "inputs": [
        {
          "internalType": "bytes32",
          "name": "imageId",
          "type": "bytes32"
        },
        {
          "internalType": "bytes32",
          "name": "family",
          "type": "bytes32"
        }
      ],
      "name": "isImageInFamily",
      "outputs": [
        {
          "internalType": "bool",
          "name": "",
          "type": "bool"
        }
      ],
      "stateMutability": "view",
      "type": "function"
    },
    {
      "inputs": [],
      "name": "proxiableUUID",
      "outputs": [
        {
          "internalType": "bytes32",
          "name": "",
          "type": "bytes32"
        }
      ],
      "stateMutability": "view",
      "type": "function"
    },
    {
      "inputs": [
        {
          "internalType": "bytes",
          "name": "_attestationSignature",
          "type": "bytes"
        },
        {
          "components": [
            {
              "internalType": "bytes",
              "name": "enclavePubKey",
              "type": "bytes"
            },
            {
              "internalType": "bytes",
              "name": "PCR0",
              "type": "bytes"
            },
            {
              "internalType": "bytes",
              "name": "PCR1",
              "type": "bytes"
            },
            {
              "internalType": "bytes",
              "name": "PCR2",
              "type": "bytes"
            },
            {
              "internalType": "uint256",
              "name": "timestampInMilliseconds",
              "type": "uint256"
            }
          ],
          "internalType": "struct IAttestationVerifier.Attestation",
          "name": "_attestation",
          "type": "tuple"
        },
        {
          "internalType": "uint256[]",
          "name": "_chainIds",
          "type": "uint256[]"
        },
        {
          "internalType": "bytes",
          "name": "_signature",
          "type": "bytes"
        },
        {
          "internalType": "uint256",
          "name": "_stakeAmount",
          "type": "uint256"
        },
        {
          "internalType": "uint256",
          "name": "_signTimestamp",
          "type": "uint256"
        }
      ],
      "name": "registerGateway",
      "outputs": [],
      "stateMutability": "nonpayable",
      "type": "function"
    },
    {
      "inputs": [
        {
          "internalType": "uint256[]",
          "name": "_chainIds",
          "type": "uint256[]"
        }
      ],
      "name": "removeChainGlobal",
      "outputs": [],
      "stateMutability": "nonpayable",
      "type": "function"
    },
    {
      "inputs": [
        {
          "internalType": "bytes",
          "name": "_signature",
          "type": "bytes"
        },
        {
          "internalType": "uint256[]",
          "name": "_chainIds",
          "type": "uint256[]"
        },
        {
          "internalType": "uint256",
          "name": "_signTimestamp",
          "type": "uint256"
        },
        {
          "internalType": "address",
          "name": "_enclaveAddress",
          "type": "address"
        }
      ],
      "name": "removeChains",
      "outputs": [],
      "stateMutability": "nonpayable",
      "type": "function"
    },
    {
      "inputs": [
        {
          "internalType": "address",
          "name": "_enclaveAddress",
          "type": "address"
        },
        {
          "internalType": "uint256",
          "name": "_amount",
          "type": "uint256"
        }
      ],
      "name": "removeGatewayStake",
      "outputs": [],
      "stateMutability": "nonpayable",
      "type": "function"
    },
    {
      "inputs": [
        {
          "internalType": "bytes32",
          "name": "role",
          "type": "bytes32"
        },
        {
          "internalType": "address",
          "name": "callerConfirmation",
          "type": "address"
        }
      ],
      "name": "renounceRole",
      "outputs": [],
      "stateMutability": "nonpayable",
      "type": "function"
    },
    {
      "inputs": [
        {
          "internalType": "uint256",
          "name": "",
          "type": "uint256"
        }
      ],
      "name": "requestChains",
      "outputs": [
        {
          "internalType": "address",
          "name": "contractAddress",
          "type": "address"
        },
        {
          "internalType": "string",
          "name": "httpRpcUrl",
          "type": "string"
        },
        {
          "internalType": "string",
          "name": "wsRpcUrl",
          "type": "string"
        }
      ],
      "stateMutability": "view",
      "type": "function"
    },
    {
      "inputs": [
        {
          "internalType": "address",
          "name": "_enclaveAddress",
          "type": "address"
        }
      ],
      "name": "reviveGateway",
      "outputs": [],
      "stateMutability": "nonpayable",
      "type": "function"
    },
    {
      "inputs": [
        {
          "internalType": "bytes32",
          "name": "imageId",
          "type": "bytes32"
        }
      ],
      "name": "revokeEnclaveImage",
      "outputs": [
        {
          "internalType": "bool",
          "name": "",
          "type": "bool"
        }
      ],
      "stateMutability": "nonpayable",
      "type": "function"
    },
    {
      "inputs": [
        {
          "internalType": "bytes32",
          "name": "role",
          "type": "bytes32"
        },
        {
          "internalType": "address",
          "name": "account",
          "type": "address"
        }
      ],
      "name": "revokeRole",
      "outputs": [],
      "stateMutability": "nonpayable",
      "type": "function"
    },
    {
      "inputs": [
        {
          "internalType": "address",
          "name": "_oldGateway",
          "type": "address"
        }
      ],
      "name": "slashOnReassignGateway",
      "outputs": [
        {
          "internalType": "uint256",
          "name": "",
          "type": "uint256"
        }
      ],
      "stateMutability": "nonpayable",
      "type": "function"
    },
    {
      "inputs": [
        {
          "internalType": "bytes4",
          "name": "interfaceId",
          "type": "bytes4"
        }
      ],
      "name": "supportsInterface",
      "outputs": [
        {
          "internalType": "bool",
          "name": "",
          "type": "bool"
        }
      ],
      "stateMutability": "view",
      "type": "function"
    },
    {
      "inputs": [
        {
          "internalType": "address",
          "name": "newImplementation",
          "type": "address"
        },
        {
          "internalType": "bytes",
          "name": "data",
          "type": "bytes"
        }
      ],
      "name": "upgradeToAndCall",
      "outputs": [],
      "stateMutability": "payable",
      "type": "function"
    },
    {
      "inputs": [
        {
          "internalType": "bytes",
          "name": "signature",
          "type": "bytes"
        },
        {
          "components": [
            {
              "internalType": "bytes",
              "name": "enclavePubKey",
              "type": "bytes"
            },
            {
              "internalType": "bytes",
              "name": "PCR0",
              "type": "bytes"
            },
            {
              "internalType": "bytes",
              "name": "PCR1",
              "type": "bytes"
            },
            {
              "internalType": "bytes",
              "name": "PCR2",
              "type": "bytes"
            },
            {
              "internalType": "uint256",
              "name": "timestampInMilliseconds",
              "type": "uint256"
            }
          ],
          "internalType": "struct IAttestationVerifier.Attestation",
          "name": "attestation",
          "type": "tuple"
        }
      ],
      "name": "verifyEnclaveKey",
      "outputs": [
        {
          "internalType": "bool",
          "name": "",
          "type": "bool"
        }
      ],
      "stateMutability": "nonpayable",
      "type": "function"
    },
    {
      "inputs": [
        {
          "internalType": "bytes",
          "name": "PCR0",
          "type": "bytes"
        },
        {
          "internalType": "bytes",
          "name": "PCR1",
          "type": "bytes"
        },
        {
          "internalType": "bytes",
          "name": "PCR2",
          "type": "bytes"
        }
      ],
      "name": "whitelistEnclaveImage",
      "outputs": [
        {
          "internalType": "bytes32",
          "name": "",
          "type": "bytes32"
        },
        {
          "internalType": "bool",
          "name": "",
          "type": "bool"
        }
      ],
      "stateMutability": "nonpayable",
      "type": "function"
    }
  ],
  "bytecode": "0x6101806040523060805234801561001557600080fd5b50604051614ea2380380614ea283398101604081905261003491610161565b6001600160a01b03861660a05260c085905261004e61009a565b6001600160a01b038416610075576040516335353f0160e21b815260040160405180910390fd5b6001600160a01b0390931660e052610100919091526101405261016052506101c09050565b7ff0c57e16840df040f15088dc2f81fe391c3923bec73e23a9662efc9c229c6a00805468010000000000000000900460ff16156100ea5760405163f92ee8a960e01b815260040160405180910390fd5b80546001600160401b03908116146101495780546001600160401b0319166001600160401b0390811782556040519081527fc7f505b2f371ae2175ee4913f4499e1f2633a7b5936321eed1cdaeb6115181d29060200160405180910390a15b50565b6001600160a01b038116811461014957600080fd5b60008060008060008060c0878903121561017a57600080fd5b86516101858161014c565b60208801516040890151919750955061019d8161014c565b80945050606087015192506080870151915060a087015190509295509295509295565b60805160a05160c05160e05161010051610120516101405161016051614c1b6102876000396000818161095b0152611ca90152600081816105720152611ccf0152600061087c0152600081816104be015281816117da01526124d60152600081816106a101528181611d4101528181612dea0152612f6701526000818161084801528181611fcb015281816129fa0152818161308e01526134140152600081816109af0152612069015260008181611a4701528181611a700152611c320152614c1b6000f3fe6080604052600436106102d15760003560e01c806382bfefc811610179578063a217fddf116100d6578063d547741f1161008a578063edc1c0df11610064578063edc1c0df14610a31578063f2462ba614610a60578063fa54416114610a8057600080fd5b8063d547741f146109d1578063db6b8fae146109f1578063de4bea0714610a1157600080fd5b8063b2bed408116100bb578063b2bed40814610949578063b9d546e01461097d578063cd79f9061461099d57600080fd5b8063a217fddf146108de578063ad3cb1cc146108f357600080fd5b8063979623ad1161012d5780639b9898b6116101125780639b9898b61461086a5780639f450d5b1461089e578063a0ac45d5146108be57600080fd5b8063979623ad146108165780639aec990e1461083657600080fd5b80639022c19c1161015e5780639022c19c1461070f57806391d148541461079157806395c60294146107f657600080fd5b806382bfefc81461068f5780638c161c01146106db57600080fd5b806337e352551161023257806355d44b45116101e65780636b5b21a6116101c05780636b5b21a6146105e957806375847b84146106425780637a639d4a1461066257600080fd5b806355d44b45146105605780635b0d57be1461059457806369815e57146105b457600080fd5b80634f99f740116102175780634f99f740146104f35780635221c1f01461051357806352d1902d1461054b57600080fd5b806337e35255146104ac5780634f1ef286146104e057600080fd5b80632410f6ba116102895780632eb39ee91161026e5780632eb39ee91461044c5780632f2ff15d1461046c57806336568abe1461048c57600080fd5b80632410f6ba146103d0578063248a9ca3146103fd57600080fd5b806301ffc9a7116102ba57806301ffc9a71461036057806309d9f72c1461039057806314129d27146103b057600080fd5b80630167847b146102d657806301d58fa3146102f8575b600080fd5b3480156102e257600080fd5b506102f66102f1366004613eae565b610ab9565b005b34801561030457600080fd5b5061034d610313366004613f07565b6001600160a01b031660009081527fc17b4b708b6f44255c20913a9d97a05300b670342c71fe5ae5b617bd4db55001602052604090205490565b6040519081526020015b60405180910390f35b34801561036c57600080fd5b5061038061037b366004613f22565b610ad1565b6040519015158152602001610357565b34801561039c57600080fd5b506102f66103ab366004613fd4565b610ae2565b3480156103bc57600080fd5b506102f66103cb366004614052565b610b4d565b3480156103dc57600080fd5b506103f06103eb36600461407c565b610bb4565b60405161035791906140e5565b34801561040957600080fd5b5061034d61041836600461407c565b60009081527f02dd7bc7dec4dceedda775e58dd541e08a116c6c53815c0bd028192f7b626800602052604090206001015490565b34801561045857600080fd5b506102f661046736600461413d565b610dd2565b34801561047857600080fd5b506102f6610487366004614283565b610fbf565b34801561049857600080fd5b506102f66104a7366004614283565b611003565b3480156104b857600080fd5b5061034d7f000000000000000000000000000000000000000000000000000000000000000081565b6102f66104ee3660046142af565b611054565b3480156104ff57600080fd5b506102f661050e366004614052565b61106f565b34801561051f57600080fd5b5061038061052e36600461407c565b6000908152602081905260409020546001600160a01b0316151590565b34801561055757600080fd5b5061034d6110d0565b34801561056c57600080fd5b5061034d7f000000000000000000000000000000000000000000000000000000000000000081565b3480156105a057600080fd5b5061034d6105af366004613f07565b6110ff565b3480156105c057600080fd5b506105d46105cf3660046142fd565b61113e565b60408051928352901515602083015201610357565b3480156105f557600080fd5b50610380610604366004614385565b60009081527fc17b4b708b6f44255c20913a9d97a05300b670342c71fe5ae5b617bd4db5500260209081526040808320938352929052205460ff1690565b34801561064e57600080fd5b5061038061065d36600461446a565b61117b565b34801561066e57600080fd5b5061068261067d366004613f07565b61118e565b60405161035791906144c4565b34801561069b57600080fd5b506106c37f000000000000000000000000000000000000000000000000000000000000000081565b6040516001600160a01b039091168152602001610357565b3480156106e757600080fd5b5061034d7f83e28810d66771c4d1748f85389d90b4e679f86d930392a432230a880f5e964e81565b34801561071b57600080fd5b5061076161072a366004613f07565b60016020526000908152604090208054600282015460038301546004909301546001600160a01b0390921692909160ff9091169084565b604080516001600160a01b0390951685526020850193909352901515918301919091526060820152608001610357565b34801561079d57600080fd5b506103806107ac366004614283565b60009182527f02dd7bc7dec4dceedda775e58dd541e08a116c6c53815c0bd028192f7b626800602090815260408084206001600160a01b0393909316845291905290205460ff1690565b34801561080257600080fd5b5061038061081136600461407c565b6111fd565b34801561082257600080fd5b506102f6610831366004613fd4565b611212565b34801561084257600080fd5b5061034d7f000000000000000000000000000000000000000000000000000000000000000081565b34801561087657600080fd5b5061034d7f000000000000000000000000000000000000000000000000000000000000000081565b3480156108aa57600080fd5b506102f66108b9366004613f07565b611275565b3480156108ca57600080fd5b506102f66108d9366004613f07565b6112d5565b3480156108ea57600080fd5b5061034d600081565b3480156108ff57600080fd5b5061093c6040518060400160405280600581526020017f352e302e3000000000000000000000000000000000000000000000000000000081525081565b6040516103579190614508565b34801561095557600080fd5b5061034d7f000000000000000000000000000000000000000000000000000000000000000081565b34801561098957600080fd5b506102f6610998366004613f07565b6112e1565b3480156109a957600080fd5b506106c37f000000000000000000000000000000000000000000000000000000000000000081565b3480156109dd57600080fd5b506102f66109ec366004614283565b611341565b3480156109fd57600080fd5b506102f6610a0c366004613f07565b611385565b348015610a1d57600080fd5b506102f6610a2c36600461451b565b6113e5565b348015610a3d57600080fd5b50610a51610a4c36600461407c565b6113f4565b604051610357939291906145da565b348015610a6c57600080fd5b506102f6610a7b36600461460e565b611531565b348015610a8c57600080fd5b506106c3610a9b366004613f07565b6001600160a01b039081166000908152600160205260409020541690565b6000610ac481611546565b610acd82611550565b5050565b6000610adc82611647565b92915050565b6001600160a01b0380821660009081526001602052604090205482913391168114610b39576040517ff224c10d00000000000000000000000000000000000000000000000000000000815260040160405180910390fd5b610b45868686866116de565b505050505050565b6001600160a01b0380831660009081526001602052604090205483913391168114610ba4576040517ff224c10d00000000000000000000000000000000000000000000000000000000815260040160405180910390fd5b610bae8484611763565b50505050565b610bd860405180606001604052806060815260200160608152602001606081525090565b60008281527fc17b4b708b6f44255c20913a9d97a05300b670342c71fe5ae5b617bd4db550006020819052604091829020825160608101909352805491929182908290610c249061473e565b80601f0160208091040260200160405190810160405280929190818152602001828054610c509061473e565b8015610c9d5780601f10610c7257610100808354040283529160200191610c9d565b820191906000526020600020905b815481529060010190602001808311610c8057829003601f168201915b50505050508152602001600182018054610cb69061473e565b80601f0160208091040260200160405190810160405280929190818152602001828054610ce29061473e565b8015610d2f5780601f10610d0457610100808354040283529160200191610d2f565b820191906000526020600020905b815481529060010190602001808311610d1257829003601f168201915b50505050508152602001600282018054610d489061473e565b80601f0160208091040260200160405190810160405280929190818152602001828054610d749061473e565b8015610dc15780601f10610d9657610100808354040283529160200191610dc1565b820191906000526020600020905b815481529060010190602001808311610da457829003601f168201915b505050505081525050915050919050565b7ff0c57e16840df040f15088dc2f81fe391c3923bec73e23a9662efc9c229c6a00805468010000000000000000810460ff16159067ffffffffffffffff16600081158015610e1d5750825b905060008267ffffffffffffffff166001148015610e3a5750303b155b905081158015610e48575080155b15610e7f576040517ff92ee8a900000000000000000000000000000000000000000000000000000000815260040160405180910390fd5b84547fffffffffffffffffffffffffffffffffffffffffffffffff00000000000000001660011785558315610ee05784547fffffffffffffffffffffffffffffffffffffffffffffff00ffffffffffffffff16680100000000000000001785555b6001600160a01b038716610f20576040517faf2f9ad400000000000000000000000000000000000000000000000000000000815260040160405180910390fd5b610f28611841565b610f30611841565b610f38611841565b610f40611841565b610f498661184b565b610f5460008861188b565b508315610fb65784547fffffffffffffffffffffffffffffffffffffffffffffff00ffffffffffffffff168555604051600181527fc7f505b2f371ae2175ee4913f4499e1f2633a7b5936321eed1cdaeb6115181d29060200160405180910390a15b50505050505050565b60008281527f02dd7bc7dec4dceedda775e58dd541e08a116c6c53815c0bd028192f7b6268006020526040902060010154610ff981611546565b610bae838361188b565b6001600160a01b0381163314611045576040517f6697b23200000000000000000000000000000000000000000000000000000000815260040160405180910390fd5b61104f8282611978565b505050565b61105c611a3c565b61106582611b0c565b610acd8282611b17565b6001600160a01b03808316600090815260016020526040902054839133911681146110c6576040517ff224c10d00000000000000000000000000000000000000000000000000000000815260040160405180910390fd5b610bae8484611c1d565b60006110da611c27565b507f360894a13ba1a3210667c828492db98dca3e2076cc3735a920a3ca505d382bbc90565b60007f83e28810d66771c4d1748f85389d90b4e679f86d930392a432230a880f5e964e61112b81611546565b6111358333611c89565b91505b50919050565b6000808061114b81611546565b61116e604051806060016040528088815260200187815260200186815250611d68565b9250925050935093915050565b60006111878383611f10565b9392505050565b6001600160a01b0381166000908152600160208181526040928390209091018054835181840281018401909452808452606093928301828280156111f157602002820191906000526020600020905b8154815260200190600101908083116111dd575b50505050509050919050565b60008061120981611546565b61113583612174565b6001600160a01b0380821660009081526001602052604090205482913391168114611269576040517ff224c10d00000000000000000000000000000000000000000000000000000000815260040160405180910390fd5b610b458686868661222b565b6001600160a01b03808216600090815260016020526040902054829133911681146112cc576040517ff224c10d00000000000000000000000000000000000000000000000000000000815260040160405180910390fd5b61104f836122a9565b6112de8161237a565b50565b6001600160a01b0380821660009081526001602052604090205482913391168114611338576040517ff224c10d00000000000000000000000000000000000000000000000000000000815260040160405180910390fd5b61104f8361245f565b60008281527f02dd7bc7dec4dceedda775e58dd541e08a116c6c53815c0bd028192f7b626800602052604090206001015461137b81611546565b610bae8383611978565b6001600160a01b03808216600090815260016020526040902054829133911681146113dc576040517ff224c10d00000000000000000000000000000000000000000000000000000000815260040160405180910390fd5b61104f83612622565b610b45868686868686336126e8565b600060208190529081526040902080546001820180546001600160a01b0390921692916114209061473e565b80601f016020809104026020016040519081016040528092919081815260200182805461144c9061473e565b80156114995780601f1061146e57610100808354040283529160200191611499565b820191906000526020600020905b81548152906001019060200180831161147c57829003601f168201915b5050505050908060020180546114ae9061473e565b80601f01602080910402602001604051908101604052809291908181526020018280546114da9061473e565b80156115275780601f106114fc57610100808354040283529160200191611527565b820191906000526020600020905b81548152906001019060200180831161150a57829003601f168201915b5050505050905083565b600061153c81611546565b61104f8383612812565b6112de8133612968565b805160000361158b576040517f93f0b16e00000000000000000000000000000000000000000000000000000000815260040160405180910390fd5b60005b8151811015610acd5760008282815181106115ab576115ab61478b565b6020908102919091018101516000818152918290526040822080547fffffffffffffffffffffffff0000000000000000000000000000000000000000168155909250906115fb6001830182613cb7565b611609600283016000613cb7565b50506040518181527f5b9dc40648bfe840de770df10081e79f179534343348da4087dea77ba584d1819060200160405180910390a15060010161158e565b60007fffffffff0000000000000000000000000000000000000000000000000000000082167f7965db0b000000000000000000000000000000000000000000000000000000001480610adc57507f01ffc9a7000000000000000000000000000000000000000000000000000000007fffffffff00000000000000000000000000000000000000000000000000000000831614610adc565b8251600003611719576040517f15d7613700000000000000000000000000000000000000000000000000000000815260040160405180910390fd5b611725848484846129f5565b60005b835181101561175c576117548482815181106117465761174661478b565b602002602001015183612c12565b600101611728565b5050505050565b6001600160a01b03821660009081526001602052604090206003015460ff166117b8576040517fd4e049dd00000000000000000000000000000000000000000000000000000000815260040160405180910390fd5b6001600160a01b0382166000908152600160205260409020600401546117ff907f0000000000000000000000000000000000000000000000000000000000000000906147e9565b4211611837576040517fd77a5c8900000000000000000000000000000000000000000000000000000000815260040160405180910390fd5b610acd8282612d9a565b611849612e5a565b565b611853612e5a565b60005b8151811015610acd576118818282815181106118745761187461478b565b6020026020010151611d68565b5050600101611856565b60008281527f02dd7bc7dec4dceedda775e58dd541e08a116c6c53815c0bd028192f7b626800602081815260408084206001600160a01b038616855290915282205460ff1661196e576000848152602082815260408083206001600160a01b0387168452909152902080547fffffffffffffffffffffffffffffffffffffffffffffffffffffffffffffff001660011790556119243390565b6001600160a01b0316836001600160a01b0316857f2f8788117e7eff1d82e926ec794901d17c78024a50270940304540a733656f0d60405160405180910390a46001915050610adc565b6000915050610adc565b60008281527f02dd7bc7dec4dceedda775e58dd541e08a116c6c53815c0bd028192f7b626800602081815260408084206001600160a01b038616855290915282205460ff161561196e576000848152602082815260408083206001600160a01b038716808552925280832080547fffffffffffffffffffffffffffffffffffffffffffffffffffffffffffffff0016905551339287917ff6391f5c32d9c69d2a47ea670b442974b53935d1edc7fd64eb21e047a839171b9190a46001915050610adc565b306001600160a01b037f0000000000000000000000000000000000000000000000000000000000000000161480611ad557507f00000000000000000000000000000000000000000000000000000000000000006001600160a01b0316611ac97f360894a13ba1a3210667c828492db98dca3e2076cc3735a920a3ca505d382bbc546001600160a01b031690565b6001600160a01b031614155b15611849576040517fe07c8dba00000000000000000000000000000000000000000000000000000000815260040160405180910390fd5b6000610acd81611546565b816001600160a01b03166352d1902d6040518163ffffffff1660e01b8152600401602060405180830381865afa925050508015611b71575060408051601f3d908101601f19168201909252611b6e918101906147fc565b60015b611bb7576040517f4c9c8ce30000000000000000000000000000000000000000000000000000000081526001600160a01b03831660048201526024015b60405180910390fd5b7f360894a13ba1a3210667c828492db98dca3e2076cc3735a920a3ca505d382bbc8114611c13576040517faa1d49a400000000000000000000000000000000000000000000000000000000815260048101829052602401611bae565b61104f8383612ec1565b610acd8282612f17565b306001600160a01b037f00000000000000000000000000000000000000000000000000000000000000001614611849576040517fe07c8dba00000000000000000000000000000000000000000000000000000000815260040160405180910390fd5b6001600160a01b03821660009081526001602052604081206002015481907f000000000000000000000000000000000000000000000000000000000000000090611cf4907f000000000000000000000000000000000000000000000000000000000000000090614815565b611cfe919061482c565b6001600160a01b038516600090815260016020526040812060020180549293508392909190611d2e908490614867565b9091555061118790506001600160a01b037f0000000000000000000000000000000000000000000000000000000000000000168483612fcc565b80515160009081907fc17b4b708b6f44255c20913a9d97a05300b670342c71fe5ae5b617bd4db55000906030148015611da657508360200151516030145b8015611db757508360400151516030145b611ded576040517f84c61bb600000000000000000000000000000000000000000000000000000000815260040160405180910390fd5b6000846000015185602001518660400151604051602001611e109392919061487a565b60408051601f1981840301815291815281516020928301206000818152928590529120805491925090611e429061473e565b159050611e5457946000945092505050565b60408051606081018252865181526020808801518183015287830151828401526000848152908590529190912081518190611e8f9082614905565b5060208201516001820190611ea49082614905565b5060408201516002820190611eb99082614905565b50905050807f52b29bbdd97ab983419f50fa1590e5ab75e9942279e95e10a08607b06c23238b866000015187602001518860400151604051611efd93929190614a01565b60405180910390a2946001945092505050565b6000807fc17b4b708b6f44255c20913a9d97a05300b670342c71fe5ae5b617bd4db5500090506000836020015184604001518560600151604051602001611f599392919061487a565b60408051601f1981840301815291815281516020928301206000818152928590529120805491925090611f8b9061473e565b9050600003611fc6576040517f38c4ac1600000000000000000000000000000000000000000000000000000000815260040160405180910390fd5b611ff07f000000000000000000000000000000000000000000000000000000000000000042614867565b6103e88560800151612002919061482c565b11612039576040517f19605e0a00000000000000000000000000000000000000000000000000000000815260040160405180910390fd5b6040517feac708a30000000000000000000000000000000000000000000000000000000081526001600160a01b037f0000000000000000000000000000000000000000000000000000000000000000169063eac708a3906120a09088908890600401614a3a565b60006040518083038186803b1580156120b857600080fd5b505afa1580156120cc573d6000803e3d6000fd5b5050505060006120df8560000151613040565b6001600160a01b03811660009081526001850160205260409020549091501561210e5760009350505050610adc565b6001600160a01b038116600081815260018501602052604090819020849055865190518492917fbb4d6428d53ea924d94be0488473deb5c0a70c979f8477d21911cb5bee4037fd916121609190614508565b60405180910390a350600195945050505050565b60008181527fc17b4b708b6f44255c20913a9d97a05300b670342c71fe5ae5b617bd4db5500060208190526040822080546121ae9061473e565b90506000036121c05750600092915050565b6000838152602082905260408120906121d98282613cb7565b6121e7600183016000613cb7565b6121f5600283016000613cb7565b505060405183907f4b71bedda4217966eac1aa49e35b1550e5ab87064ae179d1b36b393bd04eb74390600090a250600192915050565b8251600003612266576040517f15d7613700000000000000000000000000000000000000000000000000000000815260040160405180910390fd5b61227284848484613089565b60005b835181101561175c576122a18482815181106122935761229361478b565b602002602001015183613120565b600101612275565b6001600160a01b03811660009081526001602052604090206003015460ff16156122ff576040517f405c6a7400000000000000000000000000000000000000000000000000000000815260040160405180910390fd5b6001600160a01b03811660008181526001602081905260408083206003810180547fffffffffffffffffffffffffffffffffffffffffffffffffffffffffffffff001690931790925542600490920191909155517f754bb4dcc62c442f85f421ffe7d04156186cc4ae7c66eb0ffd3bb1fe375bebbc9190a250565b6001600160a01b03811660009081527fc17b4b708b6f44255c20913a9d97a05300b670342c71fe5ae5b617bd4db5500160205260409020547fc17b4b708b6f44255c20913a9d97a05300b670342c71fe5ae5b617bd4db55000908061240b576040517f3dd8ca9500000000000000000000000000000000000000000000000000000000815260040160405180910390fd5b600081815260208390526040902080546124249061473e565b905060000361104f576040517f38c4ac1600000000000000000000000000000000000000000000000000000000815260040160405180910390fd5b6001600160a01b03811660009081526001602052604090206003015460ff166124b4576040517fd4e049dd00000000000000000000000000000000000000000000000000000000815260040160405180910390fd5b6001600160a01b0381166000908152600160205260409020600401546124fb907f0000000000000000000000000000000000000000000000000000000000000000906147e9565b4211612533576040517fd77a5c8900000000000000000000000000000000000000000000000000000000815260040160405180910390fd5b6001600160a01b03811660009081526001602052604090206002015461255a908290612d9a565b6125638161335c565b506001600160a01b0381166000908152600160208190526040822080547fffffffffffffffffffffffff000000000000000000000000000000000000000016815591906125b290830182613cf1565b506000600282018190556003820180547fffffffffffffffffffffffffffffffffffffffffffffffffffffffffffffff0016905560049091018190556040516001600160a01b038316917f962f6082057b3b4fb251973bd737c7707bf1733cf85a0b7c86fd6c3caca260c591a250565b6001600160a01b03811660009081526001602052604090206003015460ff16612677576040517fa72c061100000000000000000000000000000000000000000000000000000000815260040160405180910390fd5b6001600160a01b0381166000818152600160205260408082206003810180547fffffffffffffffffffffffffffffffffffffffffffffffffffffffffffffff00169055600401829055517ffd5e3986dcf03659b4ef119571fb29771a1fac99c8af966fd5a6cbe6ea8179ea9190a250565b6126f28787611f10565b5060006127028760000151613040565b9050612711828785888561340f565b6001600160a01b038181166000908152600160205260409020541615612763576040517fc2bf629200000000000000000000000000000000000000000000000000000000815260040160405180910390fd5b60005b86518110156127f25760006001600160a01b031660008089848151811061278f5761278f61478b565b6020908102919091018101518252810191909152604001600020546001600160a01b0316036127ea576040517feb7bb5b200000000000000000000000000000000000000000000000000000000815260040160405180910390fd5b600101612766565b506127fe81838861363b565b6128088185612f17565b5050505050505050565b8151158061282257508051825114155b15612859576040517f93f0b16e00000000000000000000000000000000000000000000000000000000815260040160405180910390fd5b60005b815181101561104f5760008282815181106128795761287961478b565b6020026020010151905060008483815181106128975761289761478b565b602090810291909101810151600081815280835260409020845181547fffffffffffffffffffffffff0000000000000000000000000000000000000000166001600160a01b039091161781559184015190925083919060018201906128fc9082614905565b50604082015160028201906129119082614905565b509050507fe922b6f5bfe72eedf674b3926c477da7df7d374a47cff7cb8d1779e22657c55c818360000151846020015185604001516040516129569493929190614ace565b60405180910390a1505060010161285c565b60008281527f02dd7bc7dec4dceedda775e58dd541e08a116c6c53815c0bd028192f7b626800602090815260408083206001600160a01b038516845290915290205460ff16610acd576040517fe2517d3f0000000000000000000000000000000000000000000000000000000081526001600160a01b038216600482015260248101839052604401611bae565b612a1f7f0000000000000000000000000000000000000000000000000000000000000000836147e9565b421115612a58576040517fdd66e60500000000000000000000000000000000000000000000000000000000815260040160405180910390fd5b60007ffd4e6622704a3c8b7273a2baf3b9a3995934dcda81cfcd8759601d3b3d56af7184604051602001612a8c9190614b13565b60408051808303601f19018152828252805160209182012081840194909452828201939093526060808301879052815180840390910181526080830182528051908401207fb03948446334eb9b2196d5eb166f69b9d49403eb4a12f36de8d3f9f3cb8e15c360a08401527f858289a371ca56f9c62eb60bbc775dcb5d2616816582707c12fb22be4a4b013160c08401527fc89efdaa54c0f20c7adf612882df0950f5a951637e0307cdcb4c672f298b8bc660e08085019190915282518085039091018152610100840183528051908501207f190100000000000000000000000000000000000000000000000000000000000061012085015261012284015261014280840182905282518085039091018152610162909301909152815191909201209091506000612bbc82886136e7565b9050836001600160a01b0316816001600160a01b031614612c09576040517f370b384a00000000000000000000000000000000000000000000000000000000815260040160405180910390fd5b610fb68161237a565b6000828152602081905260409020546001600160a01b0316612c60576040517feb7bb5b200000000000000000000000000000000000000000000000000000000815260040160405180910390fd5b6001600160a01b038116600090815260016020818152604080842090920180548351818402810184019094528084529091830182828015612cc057602002820191906000526020600020905b815481526020019060010190808311612cac575b5050505050905060005b8151811015612d305783828281518110612ce657612ce661478b565b602002602001015103612d28576040517fe282303000000000000000000000000000000000000000000000000000000000815260048101859052602401611bae565b600101612cca565b506001600160a01b03821660008181526001602081815260408084208301805493840181558452922001859055517fbae667a7ed97b338409582b4ff8ba4ae0c912d2a80fbd7153d9f5f12e136de7790612d8d9086815260200190565b60405180910390a2505050565b6001600160a01b03821660009081526001602052604081206002018054839290612dc5908490614867565b90915550506001600160a01b03808316600090815260016020526040902054612e13917f00000000000000000000000000000000000000000000000000000000000000008116911683612fcc565b816001600160a01b03167f382916f020eb774dcea1efa46950af8dfd207190928e187cf480f93bc8d335d182604051612e4e91815260200190565b60405180910390a25050565b7ff0c57e16840df040f15088dc2f81fe391c3923bec73e23a9662efc9c229c6a005468010000000000000000900460ff16611849576040517fd7e6bcf800000000000000000000000000000000000000000000000000000000815260040160405180910390fd5b612eca82613711565b6040516001600160a01b038316907fbc7cd75a20ee27fd9adebab32041f755214dbc6bffa90cc0225b39da2e5c2d3b90600090a2805115612f0f5761104f82826137b9565b610acd61382f565b6001600160a01b03821660009081526001602052604081206002018054839290612f429084906147e9565b90915550506001600160a01b03808316600090815260016020526040902054612f91917f0000000000000000000000000000000000000000000000000000000000000000811691163084613867565b816001600160a01b03167f19cc467a75b86f019e9658624dfb0651a46458ddc16479c1ae6f42d742c579ad82604051612e4e91815260200190565b6040516001600160a01b0383811660248301526044820183905261104f91859182169063a9059cbb906064015b604051602081830303815290604052915060e01b6020820180517bffffffffffffffffffffffffffffffffffffffffffffffffffffffff83818316178352505050506138a0565b6000815160401461307d576040517fbd9c80c100000000000000000000000000000000000000000000000000000000815260040160405180910390fd5b50805160209091012090565b6130b37f0000000000000000000000000000000000000000000000000000000000000000836147e9565b4211156130ec576040517fdd66e60500000000000000000000000000000000000000000000000000000000815260040160405180910390fd5b60007f2d6e0b5f3eceb7fed7d9bbd146c955b9dcb92f3e942b67014e53ff05aa538f8484604051602001612a8c9190614b13565b6001600160a01b03811660009081526001602081815260408084209092018054835181840281018401909452808452909183018282801561318057602002820191906000526020600020905b81548152602001906001019080831161316c575b50505050509050600081519050806000036131c7576040517fbfb2dfcb00000000000000000000000000000000000000000000000000000000815260040160405180910390fd5b60005b818110156131fb57848382815181106131e5576131e561478b565b602002602001015103156131fb576001016131ca565b818103613237576040517f9a0f536e00000000000000000000000000000000000000000000000000000000815260048101869052602401611bae565b613242600183614867565b81146132d1576001600160a01b03841660009081526001602081905260409091208101906132709084614867565b815481106132805761328061478b565b906000526020600020015460016000866001600160a01b03166001600160a01b0316815260200190815260200160002060010182815481106132c4576132c461478b565b6000918252602090912001555b6001600160a01b0384166000908152600160208190526040909120018054806132fc576132fc614b49565b60019003818190600052602060002001600090559055836001600160a01b03167f3cfa750f6651a5d0226cb438c747adef8f00c35cce0a6951071f99aac90cc8cc8660405161334d91815260200190565b60405180910390a25050505050565b6001600160a01b03811660009081527fc17b4b708b6f44255c20913a9d97a05300b670342c71fe5ae5b617bd4db5500160205260408120547fc17b4b708b6f44255c20913a9d97a05300b670342c71fe5ae5b617bd4db55000906133c35750600092915050565b6001600160a01b0383166000818152600183016020526040808220829055517f0f586d928fc7ce3b60c8a7c276a8562f9f53b126cebe71cf612948dfc52eff169190a250600192915050565b6134397f0000000000000000000000000000000000000000000000000000000000000000846147e9565b421115613472576040517fdd66e60500000000000000000000000000000000000000000000000000000000815260040160405180910390fd5b60007f56108c9c249e5d9a1270a9b602c2d28918dc60308995d620c49f7235f0f8315286866040516020016134a79190614b13565b60405160208183030381529060405280519060200120866040516020016134f094939291909384526001600160a01b039290921660208401526040830152606082015260800190565b60408051808303601f1901815282825280516020918201207fb03948446334eb9b2196d5eb166f69b9d49403eb4a12f36de8d3f9f3cb8e15c3828501527f858289a371ca56f9c62eb60bbc775dcb5d2616816582707c12fb22be4a4b0131848401527fc89efdaa54c0f20c7adf612882df0950f5a951637e0307cdcb4c672f298b8bc6606080860191909152835180860390910181526080850184528051908301207f190100000000000000000000000000000000000000000000000000000000000060a086015260a285015260c28085018290528351808603909101815260e2909401909252825192019190912090915060006135ee82866136e7565b9050836001600160a01b0316816001600160a01b031614612808576040517f370b384a00000000000000000000000000000000000000000000000000000000815260040160405180910390fd5b6001600160a01b03838116600090815260016020818152604090922080547fffffffffffffffffffffffff00000000000000000000000000000000000000001693861693909317835583516136969390910191840190613d0f565b50816001600160a01b0316836001600160a01b03167f1586eae4013456779cf6b481c0cc4c5eba08765933b33ad4109e869b1505dcc3836040516136da91906144c4565b60405180910390a3505050565b6000806000806136f7868661391c565b9250925092506137078282613969565b5090949350505050565b806001600160a01b03163b600003613760576040517f4c9c8ce30000000000000000000000000000000000000000000000000000000081526001600160a01b0382166004820152602401611bae565b7f360894a13ba1a3210667c828492db98dca3e2076cc3735a920a3ca505d382bbc80547fffffffffffffffffffffffff0000000000000000000000000000000000000000166001600160a01b0392909216919091179055565b6060600080846001600160a01b0316846040516137d69190614b78565b600060405180830381855af49150503d8060008114613811576040519150601f19603f3d011682016040523d82523d6000602084013e613816565b606091505b5091509150613826858383613a6d565b95945050505050565b3415611849576040517fb398979f00000000000000000000000000000000000000000000000000000000815260040160405180910390fd5b6040516001600160a01b038481166024830152838116604483015260648201839052610bae9186918216906323b872dd90608401612ff9565b60006138b56001600160a01b03841683613ae2565b905080516000141580156138da5750808060200190518101906138d89190614b94565b155b1561104f576040517f5274afe70000000000000000000000000000000000000000000000000000000081526001600160a01b0384166004820152602401611bae565b600080600083516041036139565760208401516040850151606086015160001a61394888828585613af0565b955095509550505050613962565b50508151600091506002905b9250925092565b600082600381111561397d5761397d614bb6565b03613986575050565b600182600381111561399a5761399a614bb6565b036139d1576040517ff645eedf00000000000000000000000000000000000000000000000000000000815260040160405180910390fd5b60028260038111156139e5576139e5614bb6565b03613a1f576040517ffce698f700000000000000000000000000000000000000000000000000000000815260048101829052602401611bae565b6003826003811115613a3357613a33614bb6565b03610acd576040517fd78bce0c00000000000000000000000000000000000000000000000000000000815260048101829052602401611bae565b606082613a8257613a7d82613bbf565b611187565b8151158015613a9957506001600160a01b0384163b155b15613adb576040517f9996b3150000000000000000000000000000000000000000000000000000000081526001600160a01b0385166004820152602401611bae565b5092915050565b606061118783836000613c01565b600080807f7fffffffffffffffffffffffffffffff5d576e7357a4501ddfe92f46681b20a0841115613b2b5750600091506003905082613bb5565b604080516000808252602082018084528a905260ff891692820192909252606081018790526080810186905260019060a0016020604051602081039080840390855afa158015613b7f573d6000803e3d6000fd5b5050604051601f1901519150506001600160a01b038116613bab57506000925060019150829050613bb5565b9250600091508190505b9450945094915050565b805115613bcf5780518082602001fd5b6040517f1425ea4200000000000000000000000000000000000000000000000000000000815260040160405180910390fd5b606081471015613c3f576040517fcd786059000000000000000000000000000000000000000000000000000000008152306004820152602401611bae565b600080856001600160a01b03168486604051613c5b9190614b78565b60006040518083038185875af1925050503d8060008114613c98576040519150601f19603f3d011682016040523d82523d6000602084013e613c9d565b606091505b5091509150613cad868383613a6d565b9695505050505050565b508054613cc39061473e565b6000825580601f10613cd3575050565b601f0160209004906000526020600020908101906112de9190613d5a565b50805460008255906000526020600020908101906112de9190613d5a565b828054828255906000526020600020908101928215613d4a579160200282015b82811115613d4a578251825591602001919060010190613d2f565b50613d56929150613d5a565b5090565b5b80821115613d565760008155600101613d5b565b7f4e487b7100000000000000000000000000000000000000000000000000000000600052604160045260246000fd5b6040516060810167ffffffffffffffff81118282101715613dc157613dc1613d6f565b60405290565b60405160a0810167ffffffffffffffff81118282101715613dc157613dc1613d6f565b604051601f8201601f1916810167ffffffffffffffff81118282101715613e1357613e13613d6f565b604052919050565b600067ffffffffffffffff821115613e3557613e35613d6f565b5060051b60200190565b600082601f830112613e5057600080fd5b81356020613e65613e6083613e1b565b613dea565b8083825260208201915060208460051b870101935086841115613e8757600080fd5b602086015b84811015613ea35780358352918301918301613e8c565b509695505050505050565b600060208284031215613ec057600080fd5b813567ffffffffffffffff811115613ed757600080fd5b613ee384828501613e3f565b949350505050565b80356001600160a01b0381168114613f0257600080fd5b919050565b600060208284031215613f1957600080fd5b61118782613eeb565b600060208284031215613f3457600080fd5b81357fffffffff000000000000000000000000000000000000000000000000000000008116811461118757600080fd5b600082601f830112613f7557600080fd5b813567ffffffffffffffff811115613f8f57613f8f613d6f565b613fa26020601f19601f84011601613dea565b818152846020838601011115613fb757600080fd5b816020850160208301376000918101602001919091529392505050565b60008060008060808587031215613fea57600080fd5b843567ffffffffffffffff8082111561400257600080fd5b61400e88838901613f64565b9550602087013591508082111561402457600080fd5b5061403187828801613e3f565b9350506040850135915061404760608601613eeb565b905092959194509250565b6000806040838503121561406557600080fd5b61406e83613eeb565b946020939093013593505050565b60006020828403121561408e57600080fd5b5035919050565b60005b838110156140b0578181015183820152602001614098565b50506000910152565b600081518084526140d1816020860160208601614095565b601f01601f19169290920160200192915050565b60208152600082516060602084015261410160808401826140b9565b90506020840151601f198085840301604086015261411f83836140b9565b925060408601519150808584030160608601525061382682826140b9565b6000806040838503121561415057600080fd5b61415983613eeb565b915060208084013567ffffffffffffffff8082111561417757600080fd5b818601915086601f83011261418b57600080fd5b8135614199613e6082613e1b565b81815260059190911b830184019084810190898311156141b857600080fd5b8585015b83811015614272578035858111156141d45760008081fd5b86016060818d03601f19018113156141ec5760008081fd5b6141f4613d9e565b89830135888111156142065760008081fd5b6142148f8c83870101613f64565b82525060408301358881111561422a5760008081fd5b6142388f8c83870101613f64565b828c0152509082013590878211156142505760008081fd5b61425e8e8b84860101613f64565b6040820152855250509186019186016141bc565b508096505050505050509250929050565b6000806040838503121561429657600080fd5b823591506142a660208401613eeb565b90509250929050565b600080604083850312156142c257600080fd5b6142cb83613eeb565b9150602083013567ffffffffffffffff8111156142e757600080fd5b6142f385828601613f64565b9150509250929050565b60008060006060848603121561431257600080fd5b833567ffffffffffffffff8082111561432a57600080fd5b61433687838801613f64565b9450602086013591508082111561434c57600080fd5b61435887838801613f64565b9350604086013591508082111561436e57600080fd5b5061437b86828701613f64565b9150509250925092565b6000806040838503121561439857600080fd5b50508035926020909101359150565b600060a082840312156143b957600080fd5b6143c1613dc7565b9050813567ffffffffffffffff808211156143db57600080fd5b6143e785838601613f64565b835260208401359150808211156143fd57600080fd5b61440985838601613f64565b6020840152604084013591508082111561442257600080fd5b61442e85838601613f64565b6040840152606084013591508082111561444757600080fd5b5061445484828501613f64565b6060830152506080820135608082015292915050565b6000806040838503121561447d57600080fd5b823567ffffffffffffffff8082111561449557600080fd5b6144a186838701613f64565b935060208501359150808211156144b757600080fd5b506142f3858286016143a7565b6020808252825182820181905260009190848201906040850190845b818110156144fc578351835292840192918401916001016144e0565b50909695505050505050565b60208152600061118760208301846140b9565b60008060008060008060c0878903121561453457600080fd5b863567ffffffffffffffff8082111561454c57600080fd5b6145588a838b01613f64565b9750602089013591508082111561456e57600080fd5b61457a8a838b016143a7565b9650604089013591508082111561459057600080fd5b61459c8a838b01613e3f565b955060608901359150808211156145b257600080fd5b506145bf89828a01613f64565b9350506080870135915060a087013590509295509295509295565b6001600160a01b03841681526060602082015260006145fc60608301856140b9565b8281036040840152613cad81856140b9565b6000806040838503121561462157600080fd5b823567ffffffffffffffff8082111561463957600080fd5b61464586838701613e3f565b935060209150818501358181111561465c57600080fd5b8501601f8101871361466d57600080fd5b803561467b613e6082613e1b565b81815260059190911b8201840190848101908983111561469a57600080fd5b8584015b83811015614272578035868111156146b65760008081fd5b85016060818d03601f19018113156146ce5760008081fd5b6146d6613d9e565b6146e18a8401613eeb565b81526040830135898111156146f65760008081fd5b6147048f8c83870101613f64565b828c01525090820135908882111561471c5760008081fd5b61472a8e8b84860101613f64565b60408201528552505091860191860161469e565b600181811c9082168061475257607f821691505b602082108103611138577f4e487b7100000000000000000000000000000000000000000000000000000000600052602260045260246000fd5b7f4e487b7100000000000000000000000000000000000000000000000000000000600052603260045260246000fd5b7f4e487b7100000000000000000000000000000000000000000000000000000000600052601160045260246000fd5b80820180821115610adc57610adc6147ba565b60006020828403121561480e57600080fd5b5051919050565b8082028115828204841417610adc57610adc6147ba565b600082614862577f4e487b7100000000000000000000000000000000000000000000000000000000600052601260045260246000fd5b500490565b81810381811115610adc57610adc6147ba565b6000845161488c818460208901614095565b8451908301906148a0818360208901614095565b84519101906148b3818360208801614095565b0195945050505050565b601f82111561104f576000816000526020600020601f850160051c810160208610156148e65750805b601f850160051c820191505b81811015610b45578281556001016148f2565b815167ffffffffffffffff81111561491f5761491f613d6f565b6149338161492d845461473e565b846148bd565b602080601f83116001811461498657600084156149505750858301515b7fffffffffffffffffffffffffffffffffffffffffffffffffffffffffffffffff600386901b1c1916600185901b178555610b45565b600085815260208120601f198616915b828110156149b557888601518255948401946001909101908401614996565b50858210156149f157878501517fffffffffffffffffffffffffffffffffffffffffffffffffffffffffffffffff600388901b60f8161c191681555b5050505050600190811b01905550565b606081526000614a1460608301866140b9565b8281036020840152614a2681866140b9565b90508281036040840152613cad81856140b9565b604081526000614a4d60408301856140b9565b8281036020840152835160a08252614a6860a08301826140b9565b905060208501518282036020840152614a8182826140b9565b91505060408501518282036040840152614a9b82826140b9565b91505060608501518282036060840152614ab582826140b9565b9150506080850151608083015280925050509392505050565b8481526001600160a01b0384166020820152608060408201526000614af660808301856140b9565b8281036060840152614b0881856140b9565b979650505050505050565b815160009082906020808601845b83811015614b3d57815185529382019390820190600101614b21565b50929695505050505050565b7f4e487b7100000000000000000000000000000000000000000000000000000000600052603160045260246000fd5b60008251614b8a818460208701614095565b9190910192915050565b600060208284031215614ba657600080fd5b8151801515811461118757600080fd5b7f4e487b7100000000000000000000000000000000000000000000000000000000600052602160045260246000fdfea2646970667358221220379df64aa8b17d35113956fc29498b4f1805cc4abdccb385b72866f0e5b11ef764736f6c63430008190033",
  "linkReferences": {},
  "deployedLinkReferences": {}
}