{
  "_format": "hh-sol-artifact-1",
  "contractName": "Gateways",
  "sourceName": "contracts/serverless-v2/Gateways.sol",
  "abi": [
    {
      "inputs": [
        {
          "internalType": "contract IAttestationVerifier",
          "name": "attestationVerifier",
          "type": "address"
        },
        {
          "internalType": "uint256",
          "name": "maxAge",
          "type": "uint256"
        },
        {
          "internalType": "contract IERC20",
          "name": "_token",
          "type": "address"
        },
        {
          "internalType": "uint256",
          "name": "_deregisterOrUnstakeTimeout",
          "type": "uint256"
        },
        {
          "internalType": "uint256",
          "name": "_slashPercentInBips",
          "type": "uint256"
        },
        {
          "internalType": "uint256",
          "name": "_slashMaxBips",
          "type": "uint256"
        }
      ],
      "stateMutability": "nonpayable",
      "type": "constructor"
    },
    {
      "inputs": [],
      "name": "AccessControlBadConfirmation",
      "type": "error"
    },
    {
      "inputs": [
        {
          "internalType": "address",
          "name": "account",
          "type": "address"
        },
        {
          "internalType": "bytes32",
          "name": "neededRole",
          "type": "bytes32"
        }
      ],
      "name": "AccessControlUnauthorizedAccount",
      "type": "error"
    },
    {
      "inputs": [
        {
          "internalType": "address",
          "name": "target",
          "type": "address"
        }
      ],
      "name": "AddressEmptyCode",
      "type": "error"
    },
    {
      "inputs": [
        {
          "internalType": "address",
          "name": "account",
          "type": "address"
        }
      ],
      "name": "AddressInsufficientBalance",
      "type": "error"
    },
    {
      "inputs": [],
      "name": "AttestationAutherAttestationTooOld",
      "type": "error"
    },
    {
      "inputs": [],
      "name": "AttestationAutherImageNotInFamily",
      "type": "error"
    },
    {
      "inputs": [],
      "name": "AttestationAutherImageNotWhitelisted",
      "type": "error"
    },
    {
      "inputs": [],
      "name": "AttestationAutherKeyNotVerified",
      "type": "error"
    },
    {
      "inputs": [],
      "name": "AttestationAutherMismatchedLengths",
      "type": "error"
    },
    {
      "inputs": [],
      "name": "AttestationAutherPCRsInvalid",
      "type": "error"
    },
    {
      "inputs": [],
      "name": "AttestationAutherPubkeyLengthInvalid",
      "type": "error"
    },
    {
      "inputs": [],
      "name": "ECDSAInvalidSignature",
      "type": "error"
    },
    {
      "inputs": [
        {
          "internalType": "uint256",
          "name": "length",
          "type": "uint256"
        }
      ],
      "name": "ECDSAInvalidSignatureLength",
      "type": "error"
    },
    {
      "inputs": [
        {
          "internalType": "bytes32",
          "name": "s",
          "type": "bytes32"
        }
      ],
      "name": "ECDSAInvalidSignatureS",
      "type": "error"
    },
    {
      "inputs": [
        {
          "internalType": "address",
          "name": "implementation",
          "type": "address"
        }
      ],
      "name": "ERC1967InvalidImplementation",
      "type": "error"
    },
    {
      "inputs": [],
      "name": "ERC1967NonPayable",
      "type": "error"
    },
    {
      "inputs": [],
      "name": "FailedInnerCall",
      "type": "error"
    },
    {
      "inputs": [],
      "name": "GatewaysAlreadyDraining",
      "type": "error"
    },
    {
      "inputs": [],
      "name": "GatewaysAlreadyRevived",
      "type": "error"
    },
    {
      "inputs": [
        {
          "internalType": "uint256",
          "name": "chainId",
          "type": "uint256"
        }
      ],
      "name": "GatewaysChainAlreadyExists",
      "type": "error"
    },
    {
      "inputs": [
        {
          "internalType": "uint256",
          "name": "chainId",
          "type": "uint256"
        }
      ],
      "name": "GatewaysChainNotFound",
      "type": "error"
    },
    {
      "inputs": [],
      "name": "GatewaysDrainPending",
      "type": "error"
    },
    {
      "inputs": [],
      "name": "GatewaysEmptyChainlist",
      "type": "error"
    },
    {
      "inputs": [],
      "name": "GatewaysEmptyRequestedChains",
      "type": "error"
    },
    {
      "inputs": [],
      "name": "GatewaysGatewayAlreadyExists",
      "type": "error"
    },
    {
      "inputs": [],
      "name": "GatewaysInvalidGateway",
      "type": "error"
    },
    {
      "inputs": [],
      "name": "GatewaysInvalidLength",
      "type": "error"
    },
    {
      "inputs": [],
      "name": "GatewaysInvalidSigner",
      "type": "error"
    },
    {
      "inputs": [],
      "name": "GatewaysNotDraining",
      "type": "error"
    },
    {
      "inputs": [],
      "name": "GatewaysSignatureTooOld",
      "type": "error"
    },
    {
      "inputs": [],
      "name": "GatewaysUnsupportedChain",
      "type": "error"
    },
    {
      "inputs": [],
      "name": "GatewaysZeroAddressAdmin",
      "type": "error"
    },
    {
      "inputs": [],
      "name": "GatewaysZeroAddressToken",
      "type": "error"
    },
    {
      "inputs": [],
      "name": "InvalidInitialization",
      "type": "error"
    },
    {
      "inputs": [],
      "name": "NotInitializing",
      "type": "error"
    },
    {
      "inputs": [
        {
          "internalType": "address",
          "name": "token",
          "type": "address"
        }
      ],
      "name": "SafeERC20FailedOperation",
      "type": "error"
    },
    {
      "inputs": [],
      "name": "UUPSUnauthorizedCallContext",
      "type": "error"
    },
    {
      "inputs": [
        {
          "internalType": "bytes32",
          "name": "slot",
          "type": "bytes32"
        }
      ],
      "name": "UUPSUnsupportedProxiableUUID",
      "type": "error"
    },
    {
      "anonymous": false,
      "inputs": [
        {
          "indexed": true,
          "internalType": "address",
          "name": "enclaveAddress",
          "type": "address"
        },
        {
          "indexed": false,
          "internalType": "uint256",
          "name": "chainId",
          "type": "uint256"
        }
      ],
      "name": "ChainAdded",
      "type": "event"
    },
    {
      "anonymous": false,
      "inputs": [
        {
          "indexed": false,
          "internalType": "uint256",
          "name": "chainId",
          "type": "uint256"
        },
        {
          "indexed": false,
          "internalType": "address",
          "name": "contractAddress",
          "type": "address"
        },
        {
          "indexed": false,
          "internalType": "string",
          "name": "httpRpcUrl",
          "type": "string"
        },
        {
          "indexed": false,
          "internalType": "string",
          "name": "wsRpcUrl",
          "type": "string"
        }
      ],
      "name": "ChainAddedGlobal",
      "type": "event"
    },
    {
      "anonymous": false,
      "inputs": [
        {
          "indexed": true,
          "internalType": "address",
          "name": "enclaveAddress",
          "type": "address"
        },
        {
          "indexed": false,
          "internalType": "uint256",
          "name": "chainId",
          "type": "uint256"
        }
      ],
      "name": "ChainRemoved",
      "type": "event"
    },
    {
      "anonymous": false,
      "inputs": [
        {
          "indexed": false,
          "internalType": "uint256",
          "name": "chainId",
          "type": "uint256"
        }
      ],
      "name": "ChainRemovedGlobal",
      "type": "event"
    },
    {
      "anonymous": false,
      "inputs": [
        {
          "indexed": true,
          "internalType": "bytes32",
          "name": "imageId",
          "type": "bytes32"
        },
        {
          "indexed": false,
          "internalType": "bytes32",
          "name": "family",
          "type": "bytes32"
        }
      ],
      "name": "EnclaveImageAddedToFamily",
      "type": "event"
    },
    {
      "anonymous": false,
      "inputs": [
        {
          "indexed": true,
          "internalType": "bytes32",
          "name": "imageId",
          "type": "bytes32"
        },
        {
          "indexed": false,
          "internalType": "bytes32",
          "name": "family",
          "type": "bytes32"
        }
      ],
      "name": "EnclaveImageRemovedFromFamily",
      "type": "event"
    },
    {
      "anonymous": false,
      "inputs": [
        {
          "indexed": true,
          "internalType": "bytes32",
          "name": "imageId",
          "type": "bytes32"
        }
      ],
      "name": "EnclaveImageRevoked",
      "type": "event"
    },
    {
      "anonymous": false,
      "inputs": [
        {
          "indexed": true,
          "internalType": "bytes32",
          "name": "imageId",
          "type": "bytes32"
        },
        {
          "indexed": false,
          "internalType": "bytes",
          "name": "PCR0",
          "type": "bytes"
        },
        {
          "indexed": false,
          "internalType": "bytes",
          "name": "PCR1",
          "type": "bytes"
        },
        {
          "indexed": false,
          "internalType": "bytes",
          "name": "PCR2",
          "type": "bytes"
        }
      ],
      "name": "EnclaveImageWhitelisted",
      "type": "event"
    },
    {
      "anonymous": false,
      "inputs": [
        {
          "indexed": true,
          "internalType": "address",
          "name": "enclaveAddress",
          "type": "address"
        }
      ],
      "name": "EnclaveKeyRevoked",
      "type": "event"
    },
    {
      "anonymous": false,
      "inputs": [
        {
          "indexed": true,
          "internalType": "address",
          "name": "enclaveAddress",
          "type": "address"
        },
        {
          "indexed": true,
          "internalType": "bytes32",
          "name": "imageId",
          "type": "bytes32"
        },
        {
          "indexed": false,
          "internalType": "bytes",
          "name": "enclavePubKey",
          "type": "bytes"
        }
      ],
      "name": "EnclaveKeyVerified",
      "type": "event"
    },
    {
      "anonymous": false,
      "inputs": [
        {
          "indexed": true,
          "internalType": "address",
          "name": "enclaveAddress",
          "type": "address"
        },
        {
          "indexed": true,
          "internalType": "bytes32",
          "name": "imageId",
          "type": "bytes32"
        },
        {
          "indexed": false,
          "internalType": "bytes",
          "name": "enclavePubKey",
          "type": "bytes"
        }
      ],
      "name": "EnclaveKeyWhitelisted",
      "type": "event"
    },
    {
      "anonymous": false,
      "inputs": [
        {
          "indexed": true,
          "internalType": "address",
          "name": "enclaveAddress",
          "type": "address"
        }
      ],
      "name": "GatewayDeregistered",
      "type": "event"
    },
    {
      "anonymous": false,
      "inputs": [
        {
          "indexed": true,
          "internalType": "address",
          "name": "enclaveAddress",
          "type": "address"
        }
      ],
      "name": "GatewayDrained",
      "type": "event"
    },
    {
      "anonymous": false,
      "inputs": [
        {
          "indexed": true,
          "internalType": "address",
          "name": "enclaveAddress",
          "type": "address"
        },
        {
          "indexed": true,
          "internalType": "address",
          "name": "owner",
          "type": "address"
        },
        {
          "indexed": false,
          "internalType": "uint256[]",
          "name": "chainIds",
          "type": "uint256[]"
        }
      ],
      "name": "GatewayRegistered",
      "type": "event"
    },
    {
      "anonymous": false,
      "inputs": [
        {
          "indexed": true,
          "internalType": "address",
          "name": "enclaveAddress",
          "type": "address"
        }
      ],
      "name": "GatewayRevived",
      "type": "event"
    },
    {
      "anonymous": false,
      "inputs": [
        {
          "indexed": true,
          "internalType": "address",
          "name": "enclaveAddress",
          "type": "address"
        },
        {
          "indexed": false,
          "internalType": "uint256",
          "name": "addedAmount",
          "type": "uint256"
        }
      ],
      "name": "GatewayStakeAdded",
      "type": "event"
    },
    {
      "anonymous": false,
      "inputs": [
        {
          "indexed": true,
          "internalType": "address",
          "name": "enclaveAddress",
          "type": "address"
        },
        {
          "indexed": false,
          "internalType": "uint256",
          "name": "removedAmount",
          "type": "uint256"
        }
      ],
      "name": "GatewayStakeRemoved",
      "type": "event"
    },
    {
      "anonymous": false,
      "inputs": [
        {
          "indexed": false,
          "internalType": "uint64",
          "name": "version",
          "type": "uint64"
        }
      ],
      "name": "Initialized",
      "type": "event"
    },
    {
      "anonymous": false,
      "inputs": [
        {
          "indexed": true,
          "internalType": "bytes32",
          "name": "role",
          "type": "bytes32"
        },
        {
          "indexed": true,
          "internalType": "bytes32",
          "name": "previousAdminRole",
          "type": "bytes32"
        },
        {
          "indexed": true,
          "internalType": "bytes32",
          "name": "newAdminRole",
          "type": "bytes32"
        }
      ],
      "name": "RoleAdminChanged",
      "type": "event"
    },
    {
      "anonymous": false,
      "inputs": [
        {
          "indexed": true,
          "internalType": "bytes32",
          "name": "role",
          "type": "bytes32"
        },
        {
          "indexed": true,
          "internalType": "address",
          "name": "account",
          "type": "address"
        },
        {
          "indexed": true,
          "internalType": "address",
          "name": "sender",
          "type": "address"
        }
      ],
      "name": "RoleGranted",
      "type": "event"
    },
    {
      "anonymous": false,
      "inputs": [
        {
          "indexed": true,
          "internalType": "bytes32",
          "name": "role",
          "type": "bytes32"
        },
        {
          "indexed": true,
          "internalType": "address",
          "name": "account",
          "type": "address"
        },
        {
          "indexed": true,
          "internalType": "address",
          "name": "sender",
          "type": "address"
        }
      ],
      "name": "RoleRevoked",
      "type": "event"
    },
    {
      "anonymous": false,
      "inputs": [
        {
          "indexed": true,
          "internalType": "address",
          "name": "implementation",
          "type": "address"
        }
      ],
      "name": "Upgraded",
      "type": "event"
    },
    {
      "inputs": [],
      "name": "ATTESTATION_MAX_AGE",
      "outputs": [
        {
          "internalType": "uint256",
          "name": "",
          "type": "uint256"
        }
      ],
      "stateMutability": "view",
      "type": "function"
    },
    {
      "inputs": [],
      "name": "ATTESTATION_VERIFIER",
      "outputs": [
        {
          "internalType": "contract IAttestationVerifier",
          "name": "",
          "type": "address"
        }
      ],
      "stateMutability": "view",
      "type": "function"
    },
    {
      "inputs": [],
      "name": "DEFAULT_ADMIN_ROLE",
      "outputs": [
        {
          "internalType": "bytes32",
          "name": "",
          "type": "bytes32"
        }
      ],
      "stateMutability": "view",
      "type": "function"
    },
    {
      "inputs": [],
      "name": "DRAINING_TIME_DURATION",
      "outputs": [
        {
          "internalType": "uint256",
          "name": "",
          "type": "uint256"
        }
      ],
      "stateMutability": "view",
      "type": "function"
    },
    {
      "inputs": [],
      "name": "GATEWAY_JOBS_ROLE",
      "outputs": [
        {
          "internalType": "bytes32",
          "name": "",
          "type": "bytes32"
        }
      ],
      "stateMutability": "view",
      "type": "function"
    },
    {
      "inputs": [],
      "name": "SLASH_MAX_BIPS",
      "outputs": [
        {
          "internalType": "uint256",
          "name": "",
          "type": "uint256"
        }
      ],
      "stateMutability": "view",
      "type": "function"
    },
    {
      "inputs": [],
      "name": "SLASH_PERCENT_IN_BIPS",
      "outputs": [
        {
          "internalType": "uint256",
          "name": "",
          "type": "uint256"
        }
      ],
      "stateMutability": "view",
      "type": "function"
    },
    {
      "inputs": [],
      "name": "TOKEN",
      "outputs": [
        {
          "internalType": "contract IERC20",
          "name": "",
          "type": "address"
        }
      ],
      "stateMutability": "view",
      "type": "function"
    },
    {
      "inputs": [],
      "name": "UPGRADE_INTERFACE_VERSION",
      "outputs": [
        {
          "internalType": "string",
          "name": "",
          "type": "string"
        }
      ],
      "stateMutability": "view",
      "type": "function"
    },
    {
      "inputs": [
        {
          "internalType": "uint256[]",
          "name": "_chainIds",
          "type": "uint256[]"
        },
        {
          "components": [
            {
              "internalType": "address",
              "name": "contractAddress",
              "type": "address"
            },
            {
              "internalType": "string",
              "name": "httpRpcUrl",
              "type": "string"
            },
            {
              "internalType": "string",
              "name": "wsRpcUrl",
              "type": "string"
            }
          ],
          "internalType": "struct Gateways.RequestChain[]",
          "name": "_requestChains",
          "type": "tuple[]"
        }
      ],
      "name": "addChainGlobal",
      "outputs": [],
      "stateMutability": "nonpayable",
      "type": "function"
    },
    {
      "inputs": [
        {
          "internalType": "bytes",
          "name": "_signature",
          "type": "bytes"
        },
        {
          "internalType": "uint256[]",
          "name": "_chainIds",
          "type": "uint256[]"
        },
        {
          "internalType": "uint256",
          "name": "_signTimestamp",
          "type": "uint256"
        },
        {
          "internalType": "address",
          "name": "_enclaveAddress",
          "type": "address"
        }
      ],
      "name": "addChains",
      "outputs": [],
      "stateMutability": "nonpayable",
      "type": "function"
    },
    {
      "inputs": [
        {
          "internalType": "address",
          "name": "_enclaveAddress",
          "type": "address"
        },
        {
          "internalType": "uint256",
          "name": "_amount",
          "type": "uint256"
        }
      ],
      "name": "addGatewayStake",
      "outputs": [],
      "stateMutability": "nonpayable",
      "type": "function"
    },
    {
      "inputs": [
        {
          "internalType": "address",
          "name": "_enclaveAddress",
          "type": "address"
        }
      ],
      "name": "allowOnlyVerified",
      "outputs": [],
      "stateMutability": "view",
      "type": "function"
    },
    {
      "inputs": [
        {
          "internalType": "address",
          "name": "_enclaveAddress",
          "type": "address"
        }
      ],
      "name": "deregisterGateway",
      "outputs": [],
      "stateMutability": "nonpayable",
      "type": "function"
    },
    {
      "inputs": [
        {
          "internalType": "address",
          "name": "_enclaveAddress",
          "type": "address"
        }
      ],
      "name": "drainGateway",
      "outputs": [],
      "stateMutability": "nonpayable",
      "type": "function"
    },
    {
      "inputs": [
        {
          "internalType": "address",
          "name": "",
          "type": "address"
        }
      ],
      "name": "gateways",
      "outputs": [
        {
          "internalType": "address",
          "name": "owner",
          "type": "address"
        },
        {
          "internalType": "uint256",
          "name": "stakeAmount",
          "type": "uint256"
        },
        {
          "internalType": "bool",
          "name": "draining",
          "type": "bool"
        },
        {
          "internalType": "uint256",
          "name": "drainStartTime",
          "type": "uint256"
        }
      ],
      "stateMutability": "view",
      "type": "function"
    },
    {
      "inputs": [
        {
          "internalType": "address",
          "name": "_enclaveAddress",
          "type": "address"
        }
      ],
      "name": "getGatewayChainIds",
      "outputs": [
        {
          "internalType": "uint256[]",
          "name": "",
          "type": "uint256[]"
        }
      ],
      "stateMutability": "view",
      "type": "function"
    },
    {
      "inputs": [
        {
          "internalType": "address",
          "name": "_enclaveAddress",
          "type": "address"
        }
      ],
      "name": "getOwner",
      "outputs": [
        {
          "internalType": "address",
          "name": "",
          "type": "address"
        }
      ],
      "stateMutability": "view",
      "type": "function"
    },
    {
      "inputs": [
        {
          "internalType": "bytes32",
          "name": "role",
          "type": "bytes32"
        }
      ],
      "name": "getRoleAdmin",
      "outputs": [
        {
          "internalType": "bytes32",
          "name": "",
          "type": "bytes32"
        }
      ],
      "stateMutability": "view",
      "type": "function"
    },
    {
      "inputs": [
        {
          "internalType": "address",
          "name": "_key",
          "type": "address"
        }
      ],
      "name": "getVerifiedKey",
      "outputs": [
        {
          "internalType": "bytes32",
          "name": "",
          "type": "bytes32"
        }
      ],
      "stateMutability": "view",
      "type": "function"
    },
    {
      "inputs": [
        {
          "internalType": "bytes32",
          "name": "_imageId",
          "type": "bytes32"
        }
      ],
      "name": "getWhitelistedImage",
      "outputs": [
        {
          "components": [
            {
              "internalType": "bytes",
              "name": "PCR0",
              "type": "bytes"
            },
            {
              "internalType": "bytes",
              "name": "PCR1",
              "type": "bytes"
            },
            {
              "internalType": "bytes",
              "name": "PCR2",
              "type": "bytes"
            }
          ],
          "internalType": "struct AttestationAutherUpgradeable.EnclaveImage",
          "name": "",
          "type": "tuple"
        }
      ],
      "stateMutability": "view",
      "type": "function"
    },
    {
      "inputs": [
        {
          "internalType": "bytes32",
          "name": "role",
          "type": "bytes32"
        },
        {
          "internalType": "address",
          "name": "account",
          "type": "address"
        }
      ],
      "name": "grantRole",
      "outputs": [],
      "stateMutability": "nonpayable",
      "type": "function"
    },
    {
      "inputs": [
        {
          "internalType": "bytes32",
          "name": "role",
          "type": "bytes32"
        },
        {
          "internalType": "address",
          "name": "account",
          "type": "address"
        }
      ],
      "name": "hasRole",
      "outputs": [
        {
          "internalType": "bool",
          "name": "",
          "type": "bool"
        }
      ],
      "stateMutability": "view",
      "type": "function"
    },
    {
      "inputs": [
        {
          "internalType": "address",
          "name": "_admin",
          "type": "address"
        },
        {
          "components": [
            {
              "internalType": "bytes",
              "name": "PCR0",
              "type": "bytes"
            },
            {
              "internalType": "bytes",
              "name": "PCR1",
              "type": "bytes"
            },
            {
              "internalType": "bytes",
              "name": "PCR2",
              "type": "bytes"
            }
          ],
          "internalType": "struct AttestationAutherUpgradeable.EnclaveImage[]",
          "name": "_images",
          "type": "tuple[]"
        }
      ],
      "name": "initialize",
      "outputs": [],
      "stateMutability": "nonpayable",
      "type": "function"
    },
    {
      "inputs": [
        {
          "internalType": "uint256",
          "name": "_reqChainId",
          "type": "uint256"
        }
      ],
      "name": "isChainSupported",
      "outputs": [
        {
          "internalType": "bool",
          "name": "",
          "type": "bool"
        }
      ],
      "stateMutability": "view",
      "type": "function"
    },
    {
      "inputs": [
        {
          "internalType": "bytes32",
          "name": "imageId",
          "type": "bytes32"
        },
        {
          "internalType": "bytes32",
          "name": "family",
          "type": "bytes32"
        }
      ],
      "name": "isImageInFamily",
      "outputs": [
        {
          "internalType": "bool",
          "name": "",
          "type": "bool"
        }
      ],
      "stateMutability": "view",
      "type": "function"
    },
    {
      "inputs": [],
      "name": "proxiableUUID",
      "outputs": [
        {
          "internalType": "bytes32",
          "name": "",
          "type": "bytes32"
        }
      ],
      "stateMutability": "view",
      "type": "function"
    },
    {
      "inputs": [
        {
          "internalType": "bytes",
          "name": "_attestationSignature",
          "type": "bytes"
        },
        {
          "components": [
            {
              "internalType": "bytes",
              "name": "enclavePubKey",
              "type": "bytes"
            },
            {
              "internalType": "bytes",
              "name": "PCR0",
              "type": "bytes"
            },
            {
              "internalType": "bytes",
              "name": "PCR1",
              "type": "bytes"
            },
            {
              "internalType": "bytes",
              "name": "PCR2",
              "type": "bytes"
            },
            {
              "internalType": "uint256",
              "name": "timestampInMilliseconds",
              "type": "uint256"
            }
          ],
          "internalType": "struct IAttestationVerifier.Attestation",
          "name": "_attestation",
          "type": "tuple"
        },
        {
          "internalType": "uint256[]",
          "name": "_chainIds",
          "type": "uint256[]"
        },
        {
          "internalType": "bytes",
          "name": "_signature",
          "type": "bytes"
        },
        {
          "internalType": "uint256",
          "name": "_stakeAmount",
          "type": "uint256"
        },
        {
          "internalType": "uint256",
          "name": "_signTimestamp",
          "type": "uint256"
        }
      ],
      "name": "registerGateway",
      "outputs": [],
      "stateMutability": "nonpayable",
      "type": "function"
    },
    {
      "inputs": [
        {
          "internalType": "uint256[]",
          "name": "_chainIds",
          "type": "uint256[]"
        }
      ],
      "name": "removeChainGlobal",
      "outputs": [],
      "stateMutability": "nonpayable",
      "type": "function"
    },
    {
      "inputs": [
        {
          "internalType": "bytes",
          "name": "_signature",
          "type": "bytes"
        },
        {
          "internalType": "uint256[]",
          "name": "_chainIds",
          "type": "uint256[]"
        },
        {
          "internalType": "uint256",
          "name": "_signTimestamp",
          "type": "uint256"
        },
        {
          "internalType": "address",
          "name": "_enclaveAddress",
          "type": "address"
        }
      ],
      "name": "removeChains",
      "outputs": [],
      "stateMutability": "nonpayable",
      "type": "function"
    },
    {
      "inputs": [
        {
          "internalType": "address",
          "name": "_enclaveAddress",
          "type": "address"
        },
        {
          "internalType": "uint256",
          "name": "_amount",
          "type": "uint256"
        }
      ],
      "name": "removeGatewayStake",
      "outputs": [],
      "stateMutability": "nonpayable",
      "type": "function"
    },
    {
      "inputs": [
        {
          "internalType": "bytes32",
          "name": "role",
          "type": "bytes32"
        },
        {
          "internalType": "address",
          "name": "callerConfirmation",
          "type": "address"
        }
      ],
      "name": "renounceRole",
      "outputs": [],
      "stateMutability": "nonpayable",
      "type": "function"
    },
    {
      "inputs": [
        {
          "internalType": "uint256",
          "name": "",
          "type": "uint256"
        }
      ],
      "name": "requestChains",
      "outputs": [
        {
          "internalType": "address",
          "name": "contractAddress",
          "type": "address"
        },
        {
          "internalType": "string",
          "name": "httpRpcUrl",
          "type": "string"
        },
        {
          "internalType": "string",
          "name": "wsRpcUrl",
          "type": "string"
        }
      ],
      "stateMutability": "view",
      "type": "function"
    },
    {
      "inputs": [
        {
          "internalType": "address",
          "name": "_enclaveAddress",
          "type": "address"
        }
      ],
      "name": "reviveGateway",
      "outputs": [],
      "stateMutability": "nonpayable",
      "type": "function"
    },
    {
      "inputs": [
        {
          "internalType": "bytes32",
          "name": "imageId",
          "type": "bytes32"
        }
      ],
      "name": "revokeEnclaveImage",
      "outputs": [
        {
          "internalType": "bool",
          "name": "",
          "type": "bool"
        }
      ],
      "stateMutability": "nonpayable",
      "type": "function"
    },
    {
      "inputs": [
        {
          "internalType": "bytes32",
          "name": "role",
          "type": "bytes32"
        },
        {
          "internalType": "address",
          "name": "account",
          "type": "address"
        }
      ],
      "name": "revokeRole",
      "outputs": [],
      "stateMutability": "nonpayable",
      "type": "function"
    },
    {
      "inputs": [
        {
          "internalType": "address",
          "name": "_oldGateway",
          "type": "address"
        }
      ],
      "name": "slashOnReassignGateway",
      "outputs": [
        {
          "internalType": "uint256",
          "name": "",
          "type": "uint256"
        }
      ],
      "stateMutability": "nonpayable",
      "type": "function"
    },
    {
      "inputs": [
        {
          "internalType": "bytes4",
          "name": "interfaceId",
          "type": "bytes4"
        }
      ],
      "name": "supportsInterface",
      "outputs": [
        {
          "internalType": "bool",
          "name": "",
          "type": "bool"
        }
      ],
      "stateMutability": "view",
      "type": "function"
    },
    {
      "inputs": [
        {
          "internalType": "address",
          "name": "newImplementation",
          "type": "address"
        },
        {
          "internalType": "bytes",
          "name": "data",
          "type": "bytes"
        }
      ],
      "name": "upgradeToAndCall",
      "outputs": [],
      "stateMutability": "payable",
      "type": "function"
    },
    {
      "inputs": [
        {
          "internalType": "bytes",
          "name": "signature",
          "type": "bytes"
        },
        {
          "components": [
            {
              "internalType": "bytes",
              "name": "enclavePubKey",
              "type": "bytes"
            },
            {
              "internalType": "bytes",
              "name": "PCR0",
              "type": "bytes"
            },
            {
              "internalType": "bytes",
              "name": "PCR1",
              "type": "bytes"
            },
            {
              "internalType": "bytes",
              "name": "PCR2",
              "type": "bytes"
            },
            {
              "internalType": "uint256",
              "name": "timestampInMilliseconds",
              "type": "uint256"
            }
          ],
          "internalType": "struct IAttestationVerifier.Attestation",
          "name": "attestation",
          "type": "tuple"
        }
      ],
      "name": "verifyEnclaveKey",
      "outputs": [
        {
          "internalType": "bool",
          "name": "",
          "type": "bool"
        }
      ],
      "stateMutability": "nonpayable",
      "type": "function"
    },
    {
      "inputs": [
        {
          "internalType": "bytes",
          "name": "PCR0",
          "type": "bytes"
        },
        {
          "internalType": "bytes",
          "name": "PCR1",
          "type": "bytes"
        },
        {
          "internalType": "bytes",
          "name": "PCR2",
          "type": "bytes"
        }
      ],
      "name": "whitelistEnclaveImage",
      "outputs": [
        {
          "internalType": "bytes32",
          "name": "",
          "type": "bytes32"
        },
        {
          "internalType": "bool",
          "name": "",
          "type": "bool"
        }
      ],
      "stateMutability": "nonpayable",
      "type": "function"
    }
  ],
  "bytecode": "0x6101606040523060805234801561001557600080fd5b50604051614e58380380614e5883398101604081905261003491610161565b6001600160a01b03861660a05260c085905261004e61009a565b6001600160a01b038416610075576040516335353f0160e21b815260040160405180910390fd5b6001600160a01b0390931660e052610100919091526101205261014052506101c09050565b7ff0c57e16840df040f15088dc2f81fe391c3923bec73e23a9662efc9c229c6a00805468010000000000000000900460ff16156100ea5760405163f92ee8a960e01b815260040160405180910390fd5b80546001600160401b03908116146101495780546001600160401b0319166001600160401b0390811782556040519081527fc7f505b2f371ae2175ee4913f4499e1f2633a7b5936321eed1cdaeb6115181d29060200160405180910390a15b50565b6001600160a01b038116811461014957600080fd5b60008060008060008060c0878903121561017a57600080fd5b86516101858161014c565b60208801516040890151919750955061019d8161014c565b80945050606087015192506080870151915060a087015190509295509295509295565b60805160a05160c05160e051610100516101205161014051614bdc61027c6000396000818161091c0152611c6a0152600081816105670152611c900152600081816104b30152818161179b015261249701526000818161069601528181611d0201528181612dab0152612f2801526000818161083d01528181611f8c015281816129bb0152818161304f01526133d5015260008181610970015261202a015260008181611a0801528181611a310152611bf30152614bdc6000f3fe6080604052600436106102c65760003560e01c80637a639d4a11610179578063a217fddf116100d6578063d547741f1161008a578063edc1c0df11610064578063edc1c0df146109f2578063f2462ba614610a21578063fa54416114610a4157600080fd5b8063d547741f14610992578063db6b8fae146109b2578063de4bea07146109d257600080fd5b8063b2bed408116100bb578063b2bed4081461090a578063b9d546e01461093e578063cd79f9061461095e57600080fd5b8063a217fddf1461089f578063ad3cb1cc146108b457600080fd5b806395c602941161012d5780639aec990e116101125780639aec990e1461082b5780639f450d5b1461085f578063a0ac45d51461087f57600080fd5b806395c60294146107eb578063979623ad1461080b57600080fd5b80638c161c011161015e5780638c161c01146106d05780639022c19c1461070457806391d148541461078657600080fd5b80637a639d4a1461065757806382bfefc81461068457600080fd5b806337e352551161022757806355d44b45116101db57806369815e57116101c057806369815e57146105a95780636b5b21a6146105de57806375847b841461063757600080fd5b806355d44b45146105555780635b0d57be1461058957600080fd5b80634f99f7401161020c5780634f99f740146104e85780635221c1f01461050857806352d1902d1461054057600080fd5b806337e35255146104a15780634f1ef286146104d557600080fd5b80632410f6ba1161027e5780632eb39ee9116102635780632eb39ee9146104415780632f2ff15d1461046157806336568abe1461048157600080fd5b80632410f6ba146103c5578063248a9ca3146103f257600080fd5b806301ffc9a7116102af57806301ffc9a71461035557806309d9f72c1461038557806314129d27146103a557600080fd5b80630167847b146102cb57806301d58fa3146102ed575b600080fd5b3480156102d757600080fd5b506102eb6102e6366004613e6f565b610a7a565b005b3480156102f957600080fd5b50610342610308366004613ec8565b6001600160a01b031660009081527fc17b4b708b6f44255c20913a9d97a05300b670342c71fe5ae5b617bd4db55001602052604090205490565b6040519081526020015b60405180910390f35b34801561036157600080fd5b50610375610370366004613ee3565b610a92565b604051901515815260200161034c565b34801561039157600080fd5b506102eb6103a0366004613f95565b610aa3565b3480156103b157600080fd5b506102eb6103c0366004614013565b610b0e565b3480156103d157600080fd5b506103e56103e036600461403d565b610b75565b60405161034c91906140a6565b3480156103fe57600080fd5b5061034261040d36600461403d565b60009081527f02dd7bc7dec4dceedda775e58dd541e08a116c6c53815c0bd028192f7b626800602052604090206001015490565b34801561044d57600080fd5b506102eb61045c3660046140fe565b610d93565b34801561046d57600080fd5b506102eb61047c366004614244565b610f80565b34801561048d57600080fd5b506102eb61049c366004614244565b610fc4565b3480156104ad57600080fd5b506103427f000000000000000000000000000000000000000000000000000000000000000081565b6102eb6104e3366004614270565b611015565b3480156104f457600080fd5b506102eb610503366004614013565b611030565b34801561051457600080fd5b5061037561052336600461403d565b6000908152602081905260409020546001600160a01b0316151590565b34801561054c57600080fd5b50610342611091565b34801561056157600080fd5b506103427f000000000000000000000000000000000000000000000000000000000000000081565b34801561059557600080fd5b506103426105a4366004613ec8565b6110c0565b3480156105b557600080fd5b506105c96105c43660046142be565b6110ff565b6040805192835290151560208301520161034c565b3480156105ea57600080fd5b506103756105f9366004614346565b60009081527fc17b4b708b6f44255c20913a9d97a05300b670342c71fe5ae5b617bd4db5500260209081526040808320938352929052205460ff1690565b34801561064357600080fd5b5061037561065236600461442b565b61113c565b34801561066357600080fd5b50610677610672366004613ec8565b61114f565b60405161034c9190614485565b34801561069057600080fd5b506106b87f000000000000000000000000000000000000000000000000000000000000000081565b6040516001600160a01b03909116815260200161034c565b3480156106dc57600080fd5b506103427f83e28810d66771c4d1748f85389d90b4e679f86d930392a432230a880f5e964e81565b34801561071057600080fd5b5061075661071f366004613ec8565b60016020526000908152604090208054600282015460038301546004909301546001600160a01b0390921692909160ff9091169084565b604080516001600160a01b039095168552602085019390935290151591830191909152606082015260800161034c565b34801561079257600080fd5b506103756107a1366004614244565b60009182527f02dd7bc7dec4dceedda775e58dd541e08a116c6c53815c0bd028192f7b626800602090815260408084206001600160a01b0393909316845291905290205460ff1690565b3480156107f757600080fd5b5061037561080636600461403d565b6111be565b34801561081757600080fd5b506102eb610826366004613f95565b6111d3565b34801561083757600080fd5b506103427f000000000000000000000000000000000000000000000000000000000000000081565b34801561086b57600080fd5b506102eb61087a366004613ec8565b611236565b34801561088b57600080fd5b506102eb61089a366004613ec8565b611296565b3480156108ab57600080fd5b50610342600081565b3480156108c057600080fd5b506108fd6040518060400160405280600581526020017f352e302e3000000000000000000000000000000000000000000000000000000081525081565b60405161034c91906144c9565b34801561091657600080fd5b506103427f000000000000000000000000000000000000000000000000000000000000000081565b34801561094a57600080fd5b506102eb610959366004613ec8565b6112a2565b34801561096a57600080fd5b506106b87f000000000000000000000000000000000000000000000000000000000000000081565b34801561099e57600080fd5b506102eb6109ad366004614244565b611302565b3480156109be57600080fd5b506102eb6109cd366004613ec8565b611346565b3480156109de57600080fd5b506102eb6109ed3660046144dc565b6113a6565b3480156109fe57600080fd5b50610a12610a0d36600461403d565b6113b5565b60405161034c9392919061459b565b348015610a2d57600080fd5b506102eb610a3c3660046145cf565b6114f2565b348015610a4d57600080fd5b506106b8610a5c366004613ec8565b6001600160a01b039081166000908152600160205260409020541690565b6000610a8581611507565b610a8e82611511565b5050565b6000610a9d82611608565b92915050565b6001600160a01b0380821660009081526001602052604090205482913391168114610afa576040517ff224c10d00000000000000000000000000000000000000000000000000000000815260040160405180910390fd5b610b068686868661169f565b505050505050565b6001600160a01b0380831660009081526001602052604090205483913391168114610b65576040517ff224c10d00000000000000000000000000000000000000000000000000000000815260040160405180910390fd5b610b6f8484611724565b50505050565b610b9960405180606001604052806060815260200160608152602001606081525090565b60008281527fc17b4b708b6f44255c20913a9d97a05300b670342c71fe5ae5b617bd4db550006020819052604091829020825160608101909352805491929182908290610be5906146ff565b80601f0160208091040260200160405190810160405280929190818152602001828054610c11906146ff565b8015610c5e5780601f10610c3357610100808354040283529160200191610c5e565b820191906000526020600020905b815481529060010190602001808311610c4157829003601f168201915b50505050508152602001600182018054610c77906146ff565b80601f0160208091040260200160405190810160405280929190818152602001828054610ca3906146ff565b8015610cf05780601f10610cc557610100808354040283529160200191610cf0565b820191906000526020600020905b815481529060010190602001808311610cd357829003601f168201915b50505050508152602001600282018054610d09906146ff565b80601f0160208091040260200160405190810160405280929190818152602001828054610d35906146ff565b8015610d825780601f10610d5757610100808354040283529160200191610d82565b820191906000526020600020905b815481529060010190602001808311610d6557829003601f168201915b505050505081525050915050919050565b7ff0c57e16840df040f15088dc2f81fe391c3923bec73e23a9662efc9c229c6a00805468010000000000000000810460ff16159067ffffffffffffffff16600081158015610dde5750825b905060008267ffffffffffffffff166001148015610dfb5750303b155b905081158015610e09575080155b15610e40576040517ff92ee8a900000000000000000000000000000000000000000000000000000000815260040160405180910390fd5b84547fffffffffffffffffffffffffffffffffffffffffffffffff00000000000000001660011785558315610ea15784547fffffffffffffffffffffffffffffffffffffffffffffff00ffffffffffffffff16680100000000000000001785555b6001600160a01b038716610ee1576040517faf2f9ad400000000000000000000000000000000000000000000000000000000815260040160405180910390fd5b610ee9611802565b610ef1611802565b610ef9611802565b610f01611802565b610f0a8661180c565b610f1560008861184c565b508315610f775784547fffffffffffffffffffffffffffffffffffffffffffffff00ffffffffffffffff168555604051600181527fc7f505b2f371ae2175ee4913f4499e1f2633a7b5936321eed1cdaeb6115181d29060200160405180910390a15b50505050505050565b60008281527f02dd7bc7dec4dceedda775e58dd541e08a116c6c53815c0bd028192f7b6268006020526040902060010154610fba81611507565b610b6f838361184c565b6001600160a01b0381163314611006576040517f6697b23200000000000000000000000000000000000000000000000000000000815260040160405180910390fd5b6110108282611939565b505050565b61101d6119fd565b61102682611acd565b610a8e8282611ad8565b6001600160a01b0380831660009081526001602052604090205483913391168114611087576040517ff224c10d00000000000000000000000000000000000000000000000000000000815260040160405180910390fd5b610b6f8484611bde565b600061109b611be8565b507f360894a13ba1a3210667c828492db98dca3e2076cc3735a920a3ca505d382bbc90565b60007f83e28810d66771c4d1748f85389d90b4e679f86d930392a432230a880f5e964e6110ec81611507565b6110f68333611c4a565b91505b50919050565b6000808061110c81611507565b61112f604051806060016040528088815260200187815260200186815250611d29565b9250925050935093915050565b60006111488383611ed1565b9392505050565b6001600160a01b0381166000908152600160208181526040928390209091018054835181840281018401909452808452606093928301828280156111b257602002820191906000526020600020905b81548152602001906001019080831161119e575b50505050509050919050565b6000806111ca81611507565b6110f683612135565b6001600160a01b038082166000908152600160205260409020548291339116811461122a576040517ff224c10d00000000000000000000000000000000000000000000000000000000815260040160405180910390fd5b610b06868686866121ec565b6001600160a01b038082166000908152600160205260409020548291339116811461128d576040517ff224c10d00000000000000000000000000000000000000000000000000000000815260040160405180910390fd5b6110108361226a565b61129f8161233b565b50565b6001600160a01b03808216600090815260016020526040902054829133911681146112f9576040517ff224c10d00000000000000000000000000000000000000000000000000000000815260040160405180910390fd5b61101083612420565b60008281527f02dd7bc7dec4dceedda775e58dd541e08a116c6c53815c0bd028192f7b626800602052604090206001015461133c81611507565b610b6f8383611939565b6001600160a01b038082166000908152600160205260409020548291339116811461139d576040517ff224c10d00000000000000000000000000000000000000000000000000000000815260040160405180910390fd5b611010836125e3565b610b06868686868686336126a9565b600060208190529081526040902080546001820180546001600160a01b0390921692916113e1906146ff565b80601f016020809104026020016040519081016040528092919081815260200182805461140d906146ff565b801561145a5780601f1061142f5761010080835404028352916020019161145a565b820191906000526020600020905b81548152906001019060200180831161143d57829003601f168201915b50505050509080600201805461146f906146ff565b80601f016020809104026020016040519081016040528092919081815260200182805461149b906146ff565b80156114e85780601f106114bd576101008083540402835291602001916114e8565b820191906000526020600020905b8154815290600101906020018083116114cb57829003601f168201915b5050505050905083565b60006114fd81611507565b61101083836127d3565b61129f8133612929565b805160000361154c576040517f93f0b16e00000000000000000000000000000000000000000000000000000000815260040160405180910390fd5b60005b8151811015610a8e57600082828151811061156c5761156c61474c565b6020908102919091018101516000818152918290526040822080547fffffffffffffffffffffffff0000000000000000000000000000000000000000168155909250906115bc6001830182613c78565b6115ca600283016000613c78565b50506040518181527f5b9dc40648bfe840de770df10081e79f179534343348da4087dea77ba584d1819060200160405180910390a15060010161154f565b60007fffffffff0000000000000000000000000000000000000000000000000000000082167f7965db0b000000000000000000000000000000000000000000000000000000001480610a9d57507f01ffc9a7000000000000000000000000000000000000000000000000000000007fffffffff00000000000000000000000000000000000000000000000000000000831614610a9d565b82516000036116da576040517f15d7613700000000000000000000000000000000000000000000000000000000815260040160405180910390fd5b6116e6848484846129b6565b60005b835181101561171d576117158482815181106117075761170761474c565b602002602001015183612bd3565b6001016116e9565b5050505050565b6001600160a01b03821660009081526001602052604090206003015460ff16611779576040517fd4e049dd00000000000000000000000000000000000000000000000000000000815260040160405180910390fd5b6001600160a01b0382166000908152600160205260409020600401546117c0907f0000000000000000000000000000000000000000000000000000000000000000906147aa565b42116117f8576040517fd77a5c8900000000000000000000000000000000000000000000000000000000815260040160405180910390fd5b610a8e8282612d5b565b61180a612e1b565b565b611814612e1b565b60005b8151811015610a8e576118428282815181106118355761183561474c565b6020026020010151611d29565b5050600101611817565b60008281527f02dd7bc7dec4dceedda775e58dd541e08a116c6c53815c0bd028192f7b626800602081815260408084206001600160a01b038616855290915282205460ff1661192f576000848152602082815260408083206001600160a01b0387168452909152902080547fffffffffffffffffffffffffffffffffffffffffffffffffffffffffffffff001660011790556118e53390565b6001600160a01b0316836001600160a01b0316857f2f8788117e7eff1d82e926ec794901d17c78024a50270940304540a733656f0d60405160405180910390a46001915050610a9d565b6000915050610a9d565b60008281527f02dd7bc7dec4dceedda775e58dd541e08a116c6c53815c0bd028192f7b626800602081815260408084206001600160a01b038616855290915282205460ff161561192f576000848152602082815260408083206001600160a01b038716808552925280832080547fffffffffffffffffffffffffffffffffffffffffffffffffffffffffffffff0016905551339287917ff6391f5c32d9c69d2a47ea670b442974b53935d1edc7fd64eb21e047a839171b9190a46001915050610a9d565b306001600160a01b037f0000000000000000000000000000000000000000000000000000000000000000161480611a9657507f00000000000000000000000000000000000000000000000000000000000000006001600160a01b0316611a8a7f360894a13ba1a3210667c828492db98dca3e2076cc3735a920a3ca505d382bbc546001600160a01b031690565b6001600160a01b031614155b1561180a576040517fe07c8dba00000000000000000000000000000000000000000000000000000000815260040160405180910390fd5b6000610a8e81611507565b816001600160a01b03166352d1902d6040518163ffffffff1660e01b8152600401602060405180830381865afa925050508015611b32575060408051601f3d908101601f19168201909252611b2f918101906147bd565b60015b611b78576040517f4c9c8ce30000000000000000000000000000000000000000000000000000000081526001600160a01b03831660048201526024015b60405180910390fd5b7f360894a13ba1a3210667c828492db98dca3e2076cc3735a920a3ca505d382bbc8114611bd4576040517faa1d49a400000000000000000000000000000000000000000000000000000000815260048101829052602401611b6f565b6110108383612e82565b610a8e8282612ed8565b306001600160a01b037f0000000000000000000000000000000000000000000000000000000000000000161461180a576040517fe07c8dba00000000000000000000000000000000000000000000000000000000815260040160405180910390fd5b6001600160a01b03821660009081526001602052604081206002015481907f000000000000000000000000000000000000000000000000000000000000000090611cb5907f0000000000000000000000000000000000000000000000000000000000000000906147d6565b611cbf91906147ed565b6001600160a01b038516600090815260016020526040812060020180549293508392909190611cef908490614828565b9091555061114890506001600160a01b037f0000000000000000000000000000000000000000000000000000000000000000168483612f8d565b80515160009081907fc17b4b708b6f44255c20913a9d97a05300b670342c71fe5ae5b617bd4db55000906030148015611d6757508360200151516030145b8015611d7857508360400151516030145b611dae576040517f84c61bb600000000000000000000000000000000000000000000000000000000815260040160405180910390fd5b6000846000015185602001518660400151604051602001611dd19392919061483b565b60408051601f1981840301815291815281516020928301206000818152928590529120805491925090611e03906146ff565b159050611e1557946000945092505050565b60408051606081018252865181526020808801518183015287830151828401526000848152908590529190912081518190611e5090826148c6565b5060208201516001820190611e6590826148c6565b5060408201516002820190611e7a90826148c6565b50905050807f52b29bbdd97ab983419f50fa1590e5ab75e9942279e95e10a08607b06c23238b866000015187602001518860400151604051611ebe939291906149c2565b60405180910390a2946001945092505050565b6000807fc17b4b708b6f44255c20913a9d97a05300b670342c71fe5ae5b617bd4db5500090506000836020015184604001518560600151604051602001611f1a9392919061483b565b60408051601f1981840301815291815281516020928301206000818152928590529120805491925090611f4c906146ff565b9050600003611f87576040517f38c4ac1600000000000000000000000000000000000000000000000000000000815260040160405180910390fd5b611fb17f000000000000000000000000000000000000000000000000000000000000000042614828565b6103e88560800151611fc391906147ed565b11611ffa576040517f19605e0a00000000000000000000000000000000000000000000000000000000815260040160405180910390fd5b6040517feac708a30000000000000000000000000000000000000000000000000000000081526001600160a01b037f0000000000000000000000000000000000000000000000000000000000000000169063eac708a39061206190889088906004016149fb565b60006040518083038186803b15801561207957600080fd5b505afa15801561208d573d6000803e3d6000fd5b5050505060006120a08560000151613001565b6001600160a01b0381166000908152600185016020526040902054909150156120cf5760009350505050610a9d565b6001600160a01b038116600081815260018501602052604090819020849055865190518492917fbb4d6428d53ea924d94be0488473deb5c0a70c979f8477d21911cb5bee4037fd9161212191906144c9565b60405180910390a350600195945050505050565b60008181527fc17b4b708b6f44255c20913a9d97a05300b670342c71fe5ae5b617bd4db55000602081905260408220805461216f906146ff565b90506000036121815750600092915050565b60008381526020829052604081209061219a8282613c78565b6121a8600183016000613c78565b6121b6600283016000613c78565b505060405183907f4b71bedda4217966eac1aa49e35b1550e5ab87064ae179d1b36b393bd04eb74390600090a250600192915050565b8251600003612227576040517f15d7613700000000000000000000000000000000000000000000000000000000815260040160405180910390fd5b6122338484848461304a565b60005b835181101561171d576122628482815181106122545761225461474c565b6020026020010151836130e1565b600101612236565b6001600160a01b03811660009081526001602052604090206003015460ff16156122c0576040517f405c6a7400000000000000000000000000000000000000000000000000000000815260040160405180910390fd5b6001600160a01b03811660008181526001602081905260408083206003810180547fffffffffffffffffffffffffffffffffffffffffffffffffffffffffffffff001690931790925542600490920191909155517f754bb4dcc62c442f85f421ffe7d04156186cc4ae7c66eb0ffd3bb1fe375bebbc9190a250565b6001600160a01b03811660009081527fc17b4b708b6f44255c20913a9d97a05300b670342c71fe5ae5b617bd4db5500160205260409020547fc17b4b708b6f44255c20913a9d97a05300b670342c71fe5ae5b617bd4db5500090806123cc576040517f3dd8ca9500000000000000000000000000000000000000000000000000000000815260040160405180910390fd5b600081815260208390526040902080546123e5906146ff565b9050600003611010576040517f38c4ac1600000000000000000000000000000000000000000000000000000000815260040160405180910390fd5b6001600160a01b03811660009081526001602052604090206003015460ff16612475576040517fd4e049dd00000000000000000000000000000000000000000000000000000000815260040160405180910390fd5b6001600160a01b0381166000908152600160205260409020600401546124bc907f0000000000000000000000000000000000000000000000000000000000000000906147aa565b42116124f4576040517fd77a5c8900000000000000000000000000000000000000000000000000000000815260040160405180910390fd5b6001600160a01b03811660009081526001602052604090206002015461251b908290612d5b565b6125248161331d565b506001600160a01b0381166000908152600160208190526040822080547fffffffffffffffffffffffff0000000000000000000000000000000000000000168155919061257390830182613cb2565b506000600282018190556003820180547fffffffffffffffffffffffffffffffffffffffffffffffffffffffffffffff0016905560049091018190556040516001600160a01b038316917f962f6082057b3b4fb251973bd737c7707bf1733cf85a0b7c86fd6c3caca260c591a250565b6001600160a01b03811660009081526001602052604090206003015460ff16612638576040517fa72c061100000000000000000000000000000000000000000000000000000000815260040160405180910390fd5b6001600160a01b0381166000818152600160205260408082206003810180547fffffffffffffffffffffffffffffffffffffffffffffffffffffffffffffff00169055600401829055517ffd5e3986dcf03659b4ef119571fb29771a1fac99c8af966fd5a6cbe6ea8179ea9190a250565b6126b38787611ed1565b5060006126c38760000151613001565b90506126d282878588856133d0565b6001600160a01b038181166000908152600160205260409020541615612724576040517fc2bf629200000000000000000000000000000000000000000000000000000000815260040160405180910390fd5b60005b86518110156127b35760006001600160a01b03166000808984815181106127505761275061474c565b6020908102919091018101518252810191909152604001600020546001600160a01b0316036127ab576040517feb7bb5b200000000000000000000000000000000000000000000000000000000815260040160405180910390fd5b600101612727565b506127bf8183886135fc565b6127c98185612ed8565b5050505050505050565b815115806127e357508051825114155b1561281a576040517f93f0b16e00000000000000000000000000000000000000000000000000000000815260040160405180910390fd5b60005b815181101561101057600082828151811061283a5761283a61474c565b6020026020010151905060008483815181106128585761285861474c565b602090810291909101810151600081815280835260409020845181547fffffffffffffffffffffffff0000000000000000000000000000000000000000166001600160a01b039091161781559184015190925083919060018201906128bd90826148c6565b50604082015160028201906128d290826148c6565b509050507fe922b6f5bfe72eedf674b3926c477da7df7d374a47cff7cb8d1779e22657c55c818360000151846020015185604001516040516129179493929190614a8f565b60405180910390a1505060010161281d565b60008281527f02dd7bc7dec4dceedda775e58dd541e08a116c6c53815c0bd028192f7b626800602090815260408083206001600160a01b038516845290915290205460ff16610a8e576040517fe2517d3f0000000000000000000000000000000000000000000000000000000081526001600160a01b038216600482015260248101839052604401611b6f565b6129e07f0000000000000000000000000000000000000000000000000000000000000000836147aa565b421115612a19576040517fdd66e60500000000000000000000000000000000000000000000000000000000815260040160405180910390fd5b60007ffd4e6622704a3c8b7273a2baf3b9a3995934dcda81cfcd8759601d3b3d56af7184604051602001612a4d9190614ad4565b60408051808303601f19018152828252805160209182012081840194909452828201939093526060808301879052815180840390910181526080830182528051908401207fb03948446334eb9b2196d5eb166f69b9d49403eb4a12f36de8d3f9f3cb8e15c360a08401527f858289a371ca56f9c62eb60bbc775dcb5d2616816582707c12fb22be4a4b013160c08401527fc89efdaa54c0f20c7adf612882df0950f5a951637e0307cdcb4c672f298b8bc660e08085019190915282518085039091018152610100840183528051908501207f190100000000000000000000000000000000000000000000000000000000000061012085015261012284015261014280840182905282518085039091018152610162909301909152815191909201209091506000612b7d82886136a8565b9050836001600160a01b0316816001600160a01b031614612bca576040517f370b384a00000000000000000000000000000000000000000000000000000000815260040160405180910390fd5b610f778161233b565b6000828152602081905260409020546001600160a01b0316612c21576040517feb7bb5b200000000000000000000000000000000000000000000000000000000815260040160405180910390fd5b6001600160a01b038116600090815260016020818152604080842090920180548351818402810184019094528084529091830182828015612c8157602002820191906000526020600020905b815481526020019060010190808311612c6d575b5050505050905060005b8151811015612cf15783828281518110612ca757612ca761474c565b602002602001015103612ce9576040517fe282303000000000000000000000000000000000000000000000000000000000815260048101859052602401611b6f565b600101612c8b565b506001600160a01b03821660008181526001602081815260408084208301805493840181558452922001859055517fbae667a7ed97b338409582b4ff8ba4ae0c912d2a80fbd7153d9f5f12e136de7790612d4e9086815260200190565b60405180910390a2505050565b6001600160a01b03821660009081526001602052604081206002018054839290612d86908490614828565b90915550506001600160a01b03808316600090815260016020526040902054612dd4917f00000000000000000000000000000000000000000000000000000000000000008116911683612f8d565b816001600160a01b03167f382916f020eb774dcea1efa46950af8dfd207190928e187cf480f93bc8d335d182604051612e0f91815260200190565b60405180910390a25050565b7ff0c57e16840df040f15088dc2f81fe391c3923bec73e23a9662efc9c229c6a005468010000000000000000900460ff1661180a576040517fd7e6bcf800000000000000000000000000000000000000000000000000000000815260040160405180910390fd5b612e8b826136d2565b6040516001600160a01b038316907fbc7cd75a20ee27fd9adebab32041f755214dbc6bffa90cc0225b39da2e5c2d3b90600090a2805115612ed057611010828261377a565b610a8e6137f0565b6001600160a01b03821660009081526001602052604081206002018054839290612f039084906147aa565b90915550506001600160a01b03808316600090815260016020526040902054612f52917f0000000000000000000000000000000000000000000000000000000000000000811691163084613828565b816001600160a01b03167f19cc467a75b86f019e9658624dfb0651a46458ddc16479c1ae6f42d742c579ad82604051612e0f91815260200190565b6040516001600160a01b0383811660248301526044820183905261101091859182169063a9059cbb906064015b604051602081830303815290604052915060e01b6020820180517bffffffffffffffffffffffffffffffffffffffffffffffffffffffff8381831617835250505050613861565b6000815160401461303e576040517fbd9c80c100000000000000000000000000000000000000000000000000000000815260040160405180910390fd5b50805160209091012090565b6130747f0000000000000000000000000000000000000000000000000000000000000000836147aa565b4211156130ad576040517fdd66e60500000000000000000000000000000000000000000000000000000000815260040160405180910390fd5b60007f2d6e0b5f3eceb7fed7d9bbd146c955b9dcb92f3e942b67014e53ff05aa538f8484604051602001612a4d9190614ad4565b6001600160a01b03811660009081526001602081815260408084209092018054835181840281018401909452808452909183018282801561314157602002820191906000526020600020905b81548152602001906001019080831161312d575b5050505050905060008151905080600003613188576040517fbfb2dfcb00000000000000000000000000000000000000000000000000000000815260040160405180910390fd5b60005b818110156131bc57848382815181106131a6576131a661474c565b602002602001015103156131bc5760010161318b565b8181036131f8576040517f9a0f536e00000000000000000000000000000000000000000000000000000000815260048101869052602401611b6f565b613203600183614828565b8114613292576001600160a01b03841660009081526001602081905260409091208101906132319084614828565b815481106132415761324161474c565b906000526020600020015460016000866001600160a01b03166001600160a01b0316815260200190815260200160002060010182815481106132855761328561474c565b6000918252602090912001555b6001600160a01b0384166000908152600160208190526040909120018054806132bd576132bd614b0a565b60019003818190600052602060002001600090559055836001600160a01b03167f3cfa750f6651a5d0226cb438c747adef8f00c35cce0a6951071f99aac90cc8cc8660405161330e91815260200190565b60405180910390a25050505050565b6001600160a01b03811660009081527fc17b4b708b6f44255c20913a9d97a05300b670342c71fe5ae5b617bd4db5500160205260408120547fc17b4b708b6f44255c20913a9d97a05300b670342c71fe5ae5b617bd4db55000906133845750600092915050565b6001600160a01b0383166000818152600183016020526040808220829055517f0f586d928fc7ce3b60c8a7c276a8562f9f53b126cebe71cf612948dfc52eff169190a250600192915050565b6133fa7f0000000000000000000000000000000000000000000000000000000000000000846147aa565b421115613433576040517fdd66e60500000000000000000000000000000000000000000000000000000000815260040160405180910390fd5b60007f56108c9c249e5d9a1270a9b602c2d28918dc60308995d620c49f7235f0f8315286866040516020016134689190614ad4565b60405160208183030381529060405280519060200120866040516020016134b194939291909384526001600160a01b039290921660208401526040830152606082015260800190565b60408051808303601f1901815282825280516020918201207fb03948446334eb9b2196d5eb166f69b9d49403eb4a12f36de8d3f9f3cb8e15c3828501527f858289a371ca56f9c62eb60bbc775dcb5d2616816582707c12fb22be4a4b0131848401527fc89efdaa54c0f20c7adf612882df0950f5a951637e0307cdcb4c672f298b8bc6606080860191909152835180860390910181526080850184528051908301207f190100000000000000000000000000000000000000000000000000000000000060a086015260a285015260c28085018290528351808603909101815260e2909401909252825192019190912090915060006135af82866136a8565b9050836001600160a01b0316816001600160a01b0316146127c9576040517f370b384a00000000000000000000000000000000000000000000000000000000815260040160405180910390fd5b6001600160a01b03838116600090815260016020818152604090922080547fffffffffffffffffffffffff00000000000000000000000000000000000000001693861693909317835583516136579390910191840190613cd0565b50816001600160a01b0316836001600160a01b03167f1586eae4013456779cf6b481c0cc4c5eba08765933b33ad4109e869b1505dcc38360405161369b9190614485565b60405180910390a3505050565b6000806000806136b886866138dd565b9250925092506136c8828261392a565b5090949350505050565b806001600160a01b03163b600003613721576040517f4c9c8ce30000000000000000000000000000000000000000000000000000000081526001600160a01b0382166004820152602401611b6f565b7f360894a13ba1a3210667c828492db98dca3e2076cc3735a920a3ca505d382bbc80547fffffffffffffffffffffffff0000000000000000000000000000000000000000166001600160a01b0392909216919091179055565b6060600080846001600160a01b0316846040516137979190614b39565b600060405180830381855af49150503d80600081146137d2576040519150601f19603f3d011682016040523d82523d6000602084013e6137d7565b606091505b50915091506137e7858383613a2e565b95945050505050565b341561180a576040517fb398979f00000000000000000000000000000000000000000000000000000000815260040160405180910390fd5b6040516001600160a01b038481166024830152838116604483015260648201839052610b6f9186918216906323b872dd90608401612fba565b60006138766001600160a01b03841683613aa3565b9050805160001415801561389b5750808060200190518101906138999190614b55565b155b15611010576040517f5274afe70000000000000000000000000000000000000000000000000000000081526001600160a01b0384166004820152602401611b6f565b600080600083516041036139175760208401516040850151606086015160001a61390988828585613ab1565b955095509550505050613923565b50508151600091506002905b9250925092565b600082600381111561393e5761393e614b77565b03613947575050565b600182600381111561395b5761395b614b77565b03613992576040517ff645eedf00000000000000000000000000000000000000000000000000000000815260040160405180910390fd5b60028260038111156139a6576139a6614b77565b036139e0576040517ffce698f700000000000000000000000000000000000000000000000000000000815260048101829052602401611b6f565b60038260038111156139f4576139f4614b77565b03610a8e576040517fd78bce0c00000000000000000000000000000000000000000000000000000000815260048101829052602401611b6f565b606082613a4357613a3e82613b80565b611148565b8151158015613a5a57506001600160a01b0384163b155b15613a9c576040517f9996b3150000000000000000000000000000000000000000000000000000000081526001600160a01b0385166004820152602401611b6f565b5092915050565b606061114883836000613bc2565b600080807f7fffffffffffffffffffffffffffffff5d576e7357a4501ddfe92f46681b20a0841115613aec5750600091506003905082613b76565b604080516000808252602082018084528a905260ff891692820192909252606081018790526080810186905260019060a0016020604051602081039080840390855afa158015613b40573d6000803e3d6000fd5b5050604051601f1901519150506001600160a01b038116613b6c57506000925060019150829050613b76565b9250600091508190505b9450945094915050565b805115613b905780518082602001fd5b6040517f1425ea4200000000000000000000000000000000000000000000000000000000815260040160405180910390fd5b606081471015613c00576040517fcd786059000000000000000000000000000000000000000000000000000000008152306004820152602401611b6f565b600080856001600160a01b03168486604051613c1c9190614b39565b60006040518083038185875af1925050503d8060008114613c59576040519150601f19603f3d011682016040523d82523d6000602084013e613c5e565b606091505b5091509150613c6e868383613a2e565b9695505050505050565b508054613c84906146ff565b6000825580601f10613c94575050565b601f01602090049060005260206000209081019061129f9190613d1b565b508054600082559060005260206000209081019061129f9190613d1b565b828054828255906000526020600020908101928215613d0b579160200282015b82811115613d0b578251825591602001919060010190613cf0565b50613d17929150613d1b565b5090565b5b80821115613d175760008155600101613d1c565b7f4e487b7100000000000000000000000000000000000000000000000000000000600052604160045260246000fd5b6040516060810167ffffffffffffffff81118282101715613d8257613d82613d30565b60405290565b60405160a0810167ffffffffffffffff81118282101715613d8257613d82613d30565b604051601f8201601f1916810167ffffffffffffffff81118282101715613dd457613dd4613d30565b604052919050565b600067ffffffffffffffff821115613df657613df6613d30565b5060051b60200190565b600082601f830112613e1157600080fd5b81356020613e26613e2183613ddc565b613dab565b8083825260208201915060208460051b870101935086841115613e4857600080fd5b602086015b84811015613e645780358352918301918301613e4d565b509695505050505050565b600060208284031215613e8157600080fd5b813567ffffffffffffffff811115613e9857600080fd5b613ea484828501613e00565b949350505050565b80356001600160a01b0381168114613ec357600080fd5b919050565b600060208284031215613eda57600080fd5b61114882613eac565b600060208284031215613ef557600080fd5b81357fffffffff000000000000000000000000000000000000000000000000000000008116811461114857600080fd5b600082601f830112613f3657600080fd5b813567ffffffffffffffff811115613f5057613f50613d30565b613f636020601f19601f84011601613dab565b818152846020838601011115613f7857600080fd5b816020850160208301376000918101602001919091529392505050565b60008060008060808587031215613fab57600080fd5b843567ffffffffffffffff80821115613fc357600080fd5b613fcf88838901613f25565b95506020870135915080821115613fe557600080fd5b50613ff287828801613e00565b9350506040850135915061400860608601613eac565b905092959194509250565b6000806040838503121561402657600080fd5b61402f83613eac565b946020939093013593505050565b60006020828403121561404f57600080fd5b5035919050565b60005b83811015614071578181015183820152602001614059565b50506000910152565b60008151808452614092816020860160208601614056565b601f01601f19169290920160200192915050565b6020815260008251606060208401526140c2608084018261407a565b90506020840151601f19808584030160408601526140e0838361407a565b92506040860151915080858403016060860152506137e7828261407a565b6000806040838503121561411157600080fd5b61411a83613eac565b915060208084013567ffffffffffffffff8082111561413857600080fd5b818601915086601f83011261414c57600080fd5b813561415a613e2182613ddc565b81815260059190911b8301840190848101908983111561417957600080fd5b8585015b83811015614233578035858111156141955760008081fd5b86016060818d03601f19018113156141ad5760008081fd5b6141b5613d5f565b89830135888111156141c75760008081fd5b6141d58f8c83870101613f25565b8252506040830135888111156141eb5760008081fd5b6141f98f8c83870101613f25565b828c0152509082013590878211156142115760008081fd5b61421f8e8b84860101613f25565b60408201528552505091860191860161417d565b508096505050505050509250929050565b6000806040838503121561425757600080fd5b8235915061426760208401613eac565b90509250929050565b6000806040838503121561428357600080fd5b61428c83613eac565b9150602083013567ffffffffffffffff8111156142a857600080fd5b6142b485828601613f25565b9150509250929050565b6000806000606084860312156142d357600080fd5b833567ffffffffffffffff808211156142eb57600080fd5b6142f787838801613f25565b9450602086013591508082111561430d57600080fd5b61431987838801613f25565b9350604086013591508082111561432f57600080fd5b5061433c86828701613f25565b9150509250925092565b6000806040838503121561435957600080fd5b50508035926020909101359150565b600060a0828403121561437a57600080fd5b614382613d88565b9050813567ffffffffffffffff8082111561439c57600080fd5b6143a885838601613f25565b835260208401359150808211156143be57600080fd5b6143ca85838601613f25565b602084015260408401359150808211156143e357600080fd5b6143ef85838601613f25565b6040840152606084013591508082111561440857600080fd5b5061441584828501613f25565b6060830152506080820135608082015292915050565b6000806040838503121561443e57600080fd5b823567ffffffffffffffff8082111561445657600080fd5b61446286838701613f25565b9350602085013591508082111561447857600080fd5b506142b485828601614368565b6020808252825182820181905260009190848201906040850190845b818110156144bd578351835292840192918401916001016144a1565b50909695505050505050565b602081526000611148602083018461407a565b60008060008060008060c087890312156144f557600080fd5b863567ffffffffffffffff8082111561450d57600080fd5b6145198a838b01613f25565b9750602089013591508082111561452f57600080fd5b61453b8a838b01614368565b9650604089013591508082111561455157600080fd5b61455d8a838b01613e00565b9550606089013591508082111561457357600080fd5b5061458089828a01613f25565b9350506080870135915060a087013590509295509295509295565b6001600160a01b03841681526060602082015260006145bd606083018561407a565b8281036040840152613c6e818561407a565b600080604083850312156145e257600080fd5b823567ffffffffffffffff808211156145fa57600080fd5b61460686838701613e00565b935060209150818501358181111561461d57600080fd5b8501601f8101871361462e57600080fd5b803561463c613e2182613ddc565b81815260059190911b8201840190848101908983111561465b57600080fd5b8584015b83811015614233578035868111156146775760008081fd5b85016060818d03601f190181131561468f5760008081fd5b614697613d5f565b6146a28a8401613eac565b81526040830135898111156146b75760008081fd5b6146c58f8c83870101613f25565b828c0152509082013590888211156146dd5760008081fd5b6146eb8e8b84860101613f25565b60408201528552505091860191860161465f565b600181811c9082168061471357607f821691505b6020821081036110f9577f4e487b7100000000000000000000000000000000000000000000000000000000600052602260045260246000fd5b7f4e487b7100000000000000000000000000000000000000000000000000000000600052603260045260246000fd5b7f4e487b7100000000000000000000000000000000000000000000000000000000600052601160045260246000fd5b80820180821115610a9d57610a9d61477b565b6000602082840312156147cf57600080fd5b5051919050565b8082028115828204841417610a9d57610a9d61477b565b600082614823577f4e487b7100000000000000000000000000000000000000000000000000000000600052601260045260246000fd5b500490565b81810381811115610a9d57610a9d61477b565b6000845161484d818460208901614056565b845190830190614861818360208901614056565b8451910190614874818360208801614056565b0195945050505050565b601f821115611010576000816000526020600020601f850160051c810160208610156148a75750805b601f850160051c820191505b81811015610b06578281556001016148b3565b815167ffffffffffffffff8111156148e0576148e0613d30565b6148f4816148ee84546146ff565b8461487e565b602080601f83116001811461494757600084156149115750858301515b7fffffffffffffffffffffffffffffffffffffffffffffffffffffffffffffffff600386901b1c1916600185901b178555610b06565b600085815260208120601f198616915b8281101561497657888601518255948401946001909101908401614957565b50858210156149b257878501517fffffffffffffffffffffffffffffffffffffffffffffffffffffffffffffffff600388901b60f8161c191681555b5050505050600190811b01905550565b6060815260006149d5606083018661407a565b82810360208401526149e7818661407a565b90508281036040840152613c6e818561407a565b604081526000614a0e604083018561407a565b8281036020840152835160a08252614a2960a083018261407a565b905060208501518282036020840152614a42828261407a565b91505060408501518282036040840152614a5c828261407a565b91505060608501518282036060840152614a76828261407a565b9150506080850151608083015280925050509392505050565b8481526001600160a01b0384166020820152608060408201526000614ab7608083018561407a565b8281036060840152614ac9818561407a565b979650505050505050565b815160009082906020808601845b83811015614afe57815185529382019390820190600101614ae2565b50929695505050505050565b7f4e487b7100000000000000000000000000000000000000000000000000000000600052603160045260246000fd5b60008251614b4b818460208701614056565b9190910192915050565b600060208284031215614b6757600080fd5b8151801515811461114857600080fd5b7f4e487b7100000000000000000000000000000000000000000000000000000000600052602160045260246000fdfea264697066735822122051e59cbb0c620be9ebab086dabca607d296d909cfd9e59e04dc8b750eaba513e64736f6c63430008190033",
  "linkReferences": {},
  "deployedLinkReferences": {}
}