{
  "_format": "hh-sol-artifact-1",
  "contractName": "Gateways",
  "sourceName": "contracts/serverless-v2/Gateways.sol",
  "abi": [
    {
      "inputs": [
        {
          "internalType": "contract IAttestationVerifier",
          "name": "attestationVerifier",
          "type": "address"
        },
        {
          "internalType": "uint256",
          "name": "maxAge",
          "type": "uint256"
        },
        {
          "internalType": "contract IERC20",
          "name": "_token",
          "type": "address"
        },
        {
          "internalType": "uint256",
          "name": "_deregisterOrUnstakeTimeout",
          "type": "uint256"
        },
        {
          "internalType": "uint256",
          "name": "_slashPercentInBips",
          "type": "uint256"
        },
        {
          "internalType": "uint256",
          "name": "_slashMaxBips",
          "type": "uint256"
        }
      ],
      "stateMutability": "nonpayable",
      "type": "constructor"
    },
    {
      "inputs": [],
      "name": "AccessControlBadConfirmation",
      "type": "error"
    },
    {
      "inputs": [
        {
          "internalType": "address",
          "name": "account",
          "type": "address"
        },
        {
          "internalType": "bytes32",
          "name": "neededRole",
          "type": "bytes32"
        }
      ],
      "name": "AccessControlUnauthorizedAccount",
      "type": "error"
    },
    {
      "inputs": [
        {
          "internalType": "address",
          "name": "target",
          "type": "address"
        }
      ],
      "name": "AddressEmptyCode",
      "type": "error"
    },
    {
      "inputs": [
        {
          "internalType": "address",
          "name": "account",
          "type": "address"
        }
      ],
      "name": "AddressInsufficientBalance",
      "type": "error"
    },
    {
      "inputs": [],
      "name": "AttestationAutherAttestationTooOld",
      "type": "error"
    },
    {
      "inputs": [],
      "name": "AttestationAutherImageNotInFamily",
      "type": "error"
    },
    {
      "inputs": [],
      "name": "AttestationAutherImageNotWhitelisted",
      "type": "error"
    },
    {
      "inputs": [],
      "name": "AttestationAutherKeyNotVerified",
      "type": "error"
    },
    {
      "inputs": [],
      "name": "AttestationAutherMismatchedLengths",
      "type": "error"
    },
    {
      "inputs": [],
      "name": "AttestationAutherPCRsInvalid",
      "type": "error"
    },
    {
      "inputs": [],
      "name": "AttestationAutherPubkeyLengthInvalid",
      "type": "error"
    },
    {
      "inputs": [],
      "name": "ECDSAInvalidSignature",
      "type": "error"
    },
    {
      "inputs": [
        {
          "internalType": "uint256",
          "name": "length",
          "type": "uint256"
        }
      ],
      "name": "ECDSAInvalidSignatureLength",
      "type": "error"
    },
    {
      "inputs": [
        {
          "internalType": "bytes32",
          "name": "s",
          "type": "bytes32"
        }
      ],
      "name": "ECDSAInvalidSignatureS",
      "type": "error"
    },
    {
      "inputs": [
        {
          "internalType": "address",
          "name": "implementation",
          "type": "address"
        }
      ],
      "name": "ERC1967InvalidImplementation",
      "type": "error"
    },
    {
      "inputs": [],
      "name": "ERC1967NonPayable",
      "type": "error"
    },
    {
      "inputs": [],
      "name": "FailedInnerCall",
      "type": "error"
    },
    {
      "inputs": [],
      "name": "GatewaysAlreadyDraining",
      "type": "error"
    },
    {
      "inputs": [],
      "name": "GatewaysAlreadyRevived",
      "type": "error"
    },
    {
      "inputs": [
        {
          "internalType": "uint256",
          "name": "chainId",
          "type": "uint256"
        }
      ],
      "name": "GatewaysChainAlreadyExists",
      "type": "error"
    },
    {
      "inputs": [
        {
          "internalType": "uint256",
          "name": "chainId",
          "type": "uint256"
        }
      ],
      "name": "GatewaysChainNotFound",
      "type": "error"
    },
    {
      "inputs": [],
      "name": "GatewaysDrainPending",
      "type": "error"
    },
    {
      "inputs": [],
      "name": "GatewaysEmptyChainlist",
      "type": "error"
    },
    {
      "inputs": [],
      "name": "GatewaysEmptyRequestedChains",
      "type": "error"
    },
    {
      "inputs": [],
      "name": "GatewaysGatewayAlreadyExists",
      "type": "error"
    },
    {
      "inputs": [],
      "name": "GatewaysInvalidLength",
      "type": "error"
    },
    {
      "inputs": [],
      "name": "GatewaysInvalidSigner",
      "type": "error"
    },
    {
      "inputs": [],
      "name": "GatewaysNotDraining",
      "type": "error"
    },
    {
      "inputs": [],
      "name": "GatewaysNotGatewayOwner",
      "type": "error"
    },
    {
      "inputs": [],
      "name": "GatewaysSignatureTooOld",
      "type": "error"
    },
    {
      "inputs": [],
      "name": "GatewaysUnsupportedChain",
      "type": "error"
    },
    {
      "inputs": [],
      "name": "GatewaysZeroAddressAdmin",
      "type": "error"
    },
    {
      "inputs": [],
      "name": "GatewaysZeroAddressToken",
      "type": "error"
    },
    {
      "inputs": [],
      "name": "InvalidInitialization",
      "type": "error"
    },
    {
      "inputs": [],
      "name": "NotInitializing",
      "type": "error"
    },
    {
      "inputs": [
        {
          "internalType": "address",
          "name": "token",
          "type": "address"
        }
      ],
      "name": "SafeERC20FailedOperation",
      "type": "error"
    },
    {
      "inputs": [],
      "name": "UUPSUnauthorizedCallContext",
      "type": "error"
    },
    {
      "inputs": [
        {
          "internalType": "bytes32",
          "name": "slot",
          "type": "bytes32"
        }
      ],
      "name": "UUPSUnsupportedProxiableUUID",
      "type": "error"
    },
    {
      "anonymous": false,
      "inputs": [
        {
          "indexed": true,
          "internalType": "address",
          "name": "enclaveAddress",
          "type": "address"
        },
        {
          "indexed": false,
          "internalType": "uint256",
          "name": "chainId",
          "type": "uint256"
        }
      ],
      "name": "ChainAdded",
      "type": "event"
    },
    {
      "anonymous": false,
      "inputs": [
        {
          "indexed": false,
          "internalType": "uint256",
          "name": "chainId",
          "type": "uint256"
        },
        {
          "indexed": false,
          "internalType": "address",
          "name": "relayAddress",
          "type": "address"
        },
        {
          "indexed": false,
          "internalType": "address",
          "name": "relaySubscriptionsAddress",
          "type": "address"
        },
        {
          "indexed": false,
          "internalType": "string",
          "name": "httpRpcUrl",
          "type": "string"
        },
        {
          "indexed": false,
          "internalType": "string",
          "name": "wsRpcUrl",
          "type": "string"
        }
      ],
      "name": "ChainAddedGlobal",
      "type": "event"
    },
    {
      "anonymous": false,
      "inputs": [
        {
          "indexed": true,
          "internalType": "address",
          "name": "enclaveAddress",
          "type": "address"
        },
        {
          "indexed": false,
          "internalType": "uint256",
          "name": "chainId",
          "type": "uint256"
        }
      ],
      "name": "ChainRemoved",
      "type": "event"
    },
    {
      "anonymous": false,
      "inputs": [
        {
          "indexed": false,
          "internalType": "uint256",
          "name": "chainId",
          "type": "uint256"
        }
      ],
      "name": "ChainRemovedGlobal",
      "type": "event"
    },
    {
      "anonymous": false,
      "inputs": [
        {
          "indexed": true,
          "internalType": "bytes32",
          "name": "imageId",
          "type": "bytes32"
        },
        {
          "indexed": false,
          "internalType": "bytes32",
          "name": "family",
          "type": "bytes32"
        }
      ],
      "name": "EnclaveImageAddedToFamily",
      "type": "event"
    },
    {
      "anonymous": false,
      "inputs": [
        {
          "indexed": true,
          "internalType": "bytes32",
          "name": "imageId",
          "type": "bytes32"
        },
        {
          "indexed": false,
          "internalType": "bytes32",
          "name": "family",
          "type": "bytes32"
        }
      ],
      "name": "EnclaveImageRemovedFromFamily",
      "type": "event"
    },
    {
      "anonymous": false,
      "inputs": [
        {
          "indexed": true,
          "internalType": "bytes32",
          "name": "imageId",
          "type": "bytes32"
        }
      ],
      "name": "EnclaveImageRevoked",
      "type": "event"
    },
    {
      "anonymous": false,
      "inputs": [
        {
          "indexed": true,
          "internalType": "bytes32",
          "name": "imageId",
          "type": "bytes32"
        },
        {
          "indexed": false,
          "internalType": "bytes",
          "name": "PCR0",
          "type": "bytes"
        },
        {
          "indexed": false,
          "internalType": "bytes",
          "name": "PCR1",
          "type": "bytes"
        },
        {
          "indexed": false,
          "internalType": "bytes",
          "name": "PCR2",
          "type": "bytes"
        }
      ],
      "name": "EnclaveImageWhitelisted",
      "type": "event"
    },
    {
      "anonymous": false,
      "inputs": [
        {
          "indexed": true,
          "internalType": "address",
          "name": "enclaveAddress",
          "type": "address"
        }
      ],
      "name": "EnclaveKeyRevoked",
      "type": "event"
    },
    {
      "anonymous": false,
      "inputs": [
        {
          "indexed": true,
          "internalType": "address",
          "name": "enclaveAddress",
          "type": "address"
        },
        {
          "indexed": true,
          "internalType": "bytes32",
          "name": "imageId",
          "type": "bytes32"
        },
        {
          "indexed": false,
          "internalType": "bytes",
          "name": "enclavePubKey",
          "type": "bytes"
        }
      ],
      "name": "EnclaveKeyVerified",
      "type": "event"
    },
    {
      "anonymous": false,
      "inputs": [
        {
          "indexed": true,
          "internalType": "address",
          "name": "enclaveAddress",
          "type": "address"
        },
        {
          "indexed": true,
          "internalType": "bytes32",
          "name": "imageId",
          "type": "bytes32"
        },
        {
          "indexed": false,
          "internalType": "bytes",
          "name": "enclavePubKey",
          "type": "bytes"
        }
      ],
      "name": "EnclaveKeyWhitelisted",
      "type": "event"
    },
    {
      "anonymous": false,
      "inputs": [
        {
          "indexed": true,
          "internalType": "address",
          "name": "enclaveAddress",
          "type": "address"
        }
      ],
      "name": "GatewayDeregistered",
      "type": "event"
    },
    {
      "anonymous": false,
      "inputs": [
        {
          "indexed": true,
          "internalType": "address",
          "name": "enclaveAddress",
          "type": "address"
        }
      ],
      "name": "GatewayDrained",
      "type": "event"
    },
    {
      "anonymous": false,
      "inputs": [
        {
          "indexed": true,
          "internalType": "address",
          "name": "enclaveAddress",
          "type": "address"
        },
        {
          "indexed": true,
          "internalType": "address",
          "name": "owner",
          "type": "address"
        },
        {
          "indexed": false,
          "internalType": "uint256[]",
          "name": "chainIds",
          "type": "uint256[]"
        }
      ],
      "name": "GatewayRegistered",
      "type": "event"
    },
    {
      "anonymous": false,
      "inputs": [
        {
          "indexed": true,
          "internalType": "address",
          "name": "enclaveAddress",
          "type": "address"
        }
      ],
      "name": "GatewayRevived",
      "type": "event"
    },
    {
      "anonymous": false,
      "inputs": [
        {
          "indexed": true,
          "internalType": "address",
          "name": "enclaveAddress",
          "type": "address"
        },
        {
          "indexed": false,
          "internalType": "uint256",
          "name": "addedAmount",
          "type": "uint256"
        }
      ],
      "name": "GatewayStakeAdded",
      "type": "event"
    },
    {
      "anonymous": false,
      "inputs": [
        {
          "indexed": true,
          "internalType": "address",
          "name": "enclaveAddress",
          "type": "address"
        },
        {
          "indexed": false,
          "internalType": "uint256",
          "name": "removedAmount",
          "type": "uint256"
        }
      ],
      "name": "GatewayStakeRemoved",
      "type": "event"
    },
    {
      "anonymous": false,
      "inputs": [
        {
          "indexed": false,
          "internalType": "uint64",
          "name": "version",
          "type": "uint64"
        }
      ],
      "name": "Initialized",
      "type": "event"
    },
    {
      "anonymous": false,
      "inputs": [
        {
          "indexed": true,
          "internalType": "bytes32",
          "name": "role",
          "type": "bytes32"
        },
        {
          "indexed": true,
          "internalType": "bytes32",
          "name": "previousAdminRole",
          "type": "bytes32"
        },
        {
          "indexed": true,
          "internalType": "bytes32",
          "name": "newAdminRole",
          "type": "bytes32"
        }
      ],
      "name": "RoleAdminChanged",
      "type": "event"
    },
    {
      "anonymous": false,
      "inputs": [
        {
          "indexed": true,
          "internalType": "bytes32",
          "name": "role",
          "type": "bytes32"
        },
        {
          "indexed": true,
          "internalType": "address",
          "name": "account",
          "type": "address"
        },
        {
          "indexed": true,
          "internalType": "address",
          "name": "sender",
          "type": "address"
        }
      ],
      "name": "RoleGranted",
      "type": "event"
    },
    {
      "anonymous": false,
      "inputs": [
        {
          "indexed": true,
          "internalType": "bytes32",
          "name": "role",
          "type": "bytes32"
        },
        {
          "indexed": true,
          "internalType": "address",
          "name": "account",
          "type": "address"
        },
        {
          "indexed": true,
          "internalType": "address",
          "name": "sender",
          "type": "address"
        }
      ],
      "name": "RoleRevoked",
      "type": "event"
    },
    {
      "anonymous": false,
      "inputs": [
        {
          "indexed": true,
          "internalType": "address",
          "name": "implementation",
          "type": "address"
        }
      ],
      "name": "Upgraded",
      "type": "event"
    },
    {
      "inputs": [],
      "name": "ATTESTATION_MAX_AGE",
      "outputs": [
        {
          "internalType": "uint256",
          "name": "",
          "type": "uint256"
        }
      ],
      "stateMutability": "view",
      "type": "function"
    },
    {
      "inputs": [],
      "name": "ATTESTATION_VERIFIER",
      "outputs": [
        {
          "internalType": "contract IAttestationVerifier",
          "name": "",
          "type": "address"
        }
      ],
      "stateMutability": "view",
      "type": "function"
    },
    {
      "inputs": [],
      "name": "DEFAULT_ADMIN_ROLE",
      "outputs": [
        {
          "internalType": "bytes32",
          "name": "",
          "type": "bytes32"
        }
      ],
      "stateMutability": "view",
      "type": "function"
    },
    {
      "inputs": [],
      "name": "DRAINING_TIME_DURATION",
      "outputs": [
        {
          "internalType": "uint256",
          "name": "",
          "type": "uint256"
        }
      ],
      "stateMutability": "view",
      "type": "function"
    },
    {
      "inputs": [],
      "name": "GATEWAY_JOBS_ROLE",
      "outputs": [
        {
          "internalType": "bytes32",
          "name": "",
          "type": "bytes32"
        }
      ],
      "stateMutability": "view",
      "type": "function"
    },
    {
      "inputs": [],
      "name": "SLASH_MAX_BIPS",
      "outputs": [
        {
          "internalType": "uint256",
          "name": "",
          "type": "uint256"
        }
      ],
      "stateMutability": "view",
      "type": "function"
    },
    {
      "inputs": [],
      "name": "SLASH_PERCENT_IN_BIPS",
      "outputs": [
        {
          "internalType": "uint256",
          "name": "",
          "type": "uint256"
        }
      ],
      "stateMutability": "view",
      "type": "function"
    },
    {
      "inputs": [],
      "name": "TOKEN",
      "outputs": [
        {
          "internalType": "contract IERC20",
          "name": "",
          "type": "address"
        }
      ],
      "stateMutability": "view",
      "type": "function"
    },
    {
      "inputs": [],
      "name": "UPGRADE_INTERFACE_VERSION",
      "outputs": [
        {
          "internalType": "string",
          "name": "",
          "type": "string"
        }
      ],
      "stateMutability": "view",
      "type": "function"
    },
    {
      "inputs": [
        {
          "internalType": "uint256[]",
          "name": "_chainIds",
          "type": "uint256[]"
        },
        {
          "components": [
            {
              "internalType": "address",
              "name": "relayAddress",
              "type": "address"
            },
            {
              "internalType": "address",
              "name": "relaySubscriptionsAddress",
              "type": "address"
            },
            {
              "internalType": "string",
              "name": "httpRpcUrl",
              "type": "string"
            },
            {
              "internalType": "string",
              "name": "wsRpcUrl",
              "type": "string"
            }
          ],
          "internalType": "struct Gateways.RequestChain[]",
          "name": "_requestChains",
          "type": "tuple[]"
        }
      ],
      "name": "addChainGlobal",
      "outputs": [],
      "stateMutability": "nonpayable",
      "type": "function"
    },
    {
      "inputs": [
        {
          "internalType": "bytes",
          "name": "_signature",
          "type": "bytes"
        },
        {
          "internalType": "uint256[]",
          "name": "_chainIds",
          "type": "uint256[]"
        },
        {
          "internalType": "uint256",
          "name": "_signTimestamp",
          "type": "uint256"
        },
        {
          "internalType": "address",
          "name": "_enclaveAddress",
          "type": "address"
        }
      ],
      "name": "addChains",
      "outputs": [],
      "stateMutability": "nonpayable",
      "type": "function"
    },
    {
      "inputs": [
        {
          "internalType": "address",
          "name": "_enclaveAddress",
          "type": "address"
        },
        {
          "internalType": "uint256",
          "name": "_amount",
          "type": "uint256"
        }
      ],
      "name": "addGatewayStake",
      "outputs": [],
      "stateMutability": "nonpayable",
      "type": "function"
    },
    {
      "inputs": [
        {
          "internalType": "address",
          "name": "_enclaveAddress",
          "type": "address"
        }
      ],
      "name": "allowOnlyVerified",
      "outputs": [],
      "stateMutability": "view",
      "type": "function"
    },
    {
      "inputs": [
        {
          "internalType": "address",
          "name": "_enclaveAddress",
          "type": "address"
        }
      ],
      "name": "deregisterGateway",
      "outputs": [],
      "stateMutability": "nonpayable",
      "type": "function"
    },
    {
      "inputs": [
        {
          "internalType": "address",
          "name": "_enclaveAddress",
          "type": "address"
        }
      ],
      "name": "drainGateway",
      "outputs": [],
      "stateMutability": "nonpayable",
      "type": "function"
    },
    {
      "inputs": [
        {
          "internalType": "address",
          "name": "",
          "type": "address"
        }
      ],
      "name": "gateways",
      "outputs": [
        {
          "internalType": "address",
          "name": "owner",
          "type": "address"
        },
        {
          "internalType": "uint256",
          "name": "stakeAmount",
          "type": "uint256"
        },
        {
          "internalType": "bool",
          "name": "draining",
          "type": "bool"
        },
        {
          "internalType": "uint256",
          "name": "drainStartTime",
          "type": "uint256"
        }
      ],
      "stateMutability": "view",
      "type": "function"
    },
    {
      "inputs": [
        {
          "internalType": "address",
          "name": "_enclaveAddress",
          "type": "address"
        }
      ],
      "name": "getGatewayChainIds",
      "outputs": [
        {
          "internalType": "uint256[]",
          "name": "",
          "type": "uint256[]"
        }
      ],
      "stateMutability": "view",
      "type": "function"
    },
    {
      "inputs": [
        {
          "internalType": "address",
          "name": "_enclaveAddress",
          "type": "address"
        }
      ],
      "name": "getOwner",
      "outputs": [
        {
          "internalType": "address",
          "name": "",
          "type": "address"
        }
      ],
      "stateMutability": "view",
      "type": "function"
    },
    {
      "inputs": [
        {
          "internalType": "bytes32",
          "name": "role",
          "type": "bytes32"
        }
      ],
      "name": "getRoleAdmin",
      "outputs": [
        {
          "internalType": "bytes32",
          "name": "",
          "type": "bytes32"
        }
      ],
      "stateMutability": "view",
      "type": "function"
    },
    {
      "inputs": [
        {
          "internalType": "address",
          "name": "_key",
          "type": "address"
        }
      ],
      "name": "getVerifiedKey",
      "outputs": [
        {
          "internalType": "bytes32",
          "name": "",
          "type": "bytes32"
        }
      ],
      "stateMutability": "view",
      "type": "function"
    },
    {
      "inputs": [
        {
          "internalType": "bytes32",
          "name": "_imageId",
          "type": "bytes32"
        }
      ],
      "name": "getWhitelistedImage",
      "outputs": [
        {
          "components": [
            {
              "internalType": "bytes",
              "name": "PCR0",
              "type": "bytes"
            },
            {
              "internalType": "bytes",
              "name": "PCR1",
              "type": "bytes"
            },
            {
              "internalType": "bytes",
              "name": "PCR2",
              "type": "bytes"
            }
          ],
          "internalType": "struct AttestationAutherUpgradeable.EnclaveImage",
          "name": "",
          "type": "tuple"
        }
      ],
      "stateMutability": "view",
      "type": "function"
    },
    {
      "inputs": [
        {
          "internalType": "bytes32",
          "name": "role",
          "type": "bytes32"
        },
        {
          "internalType": "address",
          "name": "account",
          "type": "address"
        }
      ],
      "name": "grantRole",
      "outputs": [],
      "stateMutability": "nonpayable",
      "type": "function"
    },
    {
      "inputs": [
        {
          "internalType": "bytes32",
          "name": "role",
          "type": "bytes32"
        },
        {
          "internalType": "address",
          "name": "account",
          "type": "address"
        }
      ],
      "name": "hasRole",
      "outputs": [
        {
          "internalType": "bool",
          "name": "",
          "type": "bool"
        }
      ],
      "stateMutability": "view",
      "type": "function"
    },
    {
      "inputs": [
        {
          "internalType": "address",
          "name": "_admin",
          "type": "address"
        },
        {
          "components": [
            {
              "internalType": "bytes",
              "name": "PCR0",
              "type": "bytes"
            },
            {
              "internalType": "bytes",
              "name": "PCR1",
              "type": "bytes"
            },
            {
              "internalType": "bytes",
              "name": "PCR2",
              "type": "bytes"
            }
          ],
          "internalType": "struct AttestationAutherUpgradeable.EnclaveImage[]",
          "name": "_images",
          "type": "tuple[]"
        }
      ],
      "name": "initialize",
      "outputs": [],
      "stateMutability": "nonpayable",
      "type": "function"
    },
    {
      "inputs": [
        {
          "internalType": "uint256",
          "name": "_reqChainId",
          "type": "uint256"
        }
      ],
      "name": "isChainSupported",
      "outputs": [
        {
          "internalType": "bool",
          "name": "",
          "type": "bool"
        }
      ],
      "stateMutability": "view",
      "type": "function"
    },
    {
      "inputs": [
        {
          "internalType": "bytes32",
          "name": "imageId",
          "type": "bytes32"
        },
        {
          "internalType": "bytes32",
          "name": "family",
          "type": "bytes32"
        }
      ],
      "name": "isImageInFamily",
      "outputs": [
        {
          "internalType": "bool",
          "name": "",
          "type": "bool"
        }
      ],
      "stateMutability": "view",
      "type": "function"
    },
    {
      "inputs": [],
      "name": "proxiableUUID",
      "outputs": [
        {
          "internalType": "bytes32",
          "name": "",
          "type": "bytes32"
        }
      ],
      "stateMutability": "view",
      "type": "function"
    },
    {
      "inputs": [
        {
          "internalType": "bytes",
          "name": "_attestationSignature",
          "type": "bytes"
        },
        {
          "components": [
            {
              "internalType": "bytes",
              "name": "enclavePubKey",
              "type": "bytes"
            },
            {
              "internalType": "bytes",
              "name": "PCR0",
              "type": "bytes"
            },
            {
              "internalType": "bytes",
              "name": "PCR1",
              "type": "bytes"
            },
            {
              "internalType": "bytes",
              "name": "PCR2",
              "type": "bytes"
            },
            {
              "internalType": "uint256",
              "name": "timestampInMilliseconds",
              "type": "uint256"
            }
          ],
          "internalType": "struct IAttestationVerifier.Attestation",
          "name": "_attestation",
          "type": "tuple"
        },
        {
          "internalType": "uint256[]",
          "name": "_chainIds",
          "type": "uint256[]"
        },
        {
          "internalType": "bytes",
          "name": "_signature",
          "type": "bytes"
        },
        {
          "internalType": "uint256",
          "name": "_stakeAmount",
          "type": "uint256"
        },
        {
          "internalType": "uint256",
          "name": "_signTimestamp",
          "type": "uint256"
        }
      ],
      "name": "registerGateway",
      "outputs": [],
      "stateMutability": "nonpayable",
      "type": "function"
    },
    {
      "inputs": [
        {
          "internalType": "uint256[]",
          "name": "_chainIds",
          "type": "uint256[]"
        }
      ],
      "name": "removeChainGlobal",
      "outputs": [],
      "stateMutability": "nonpayable",
      "type": "function"
    },
    {
      "inputs": [
        {
          "internalType": "bytes",
          "name": "_signature",
          "type": "bytes"
        },
        {
          "internalType": "uint256[]",
          "name": "_chainIds",
          "type": "uint256[]"
        },
        {
          "internalType": "uint256",
          "name": "_signTimestamp",
          "type": "uint256"
        },
        {
          "internalType": "address",
          "name": "_enclaveAddress",
          "type": "address"
        }
      ],
      "name": "removeChains",
      "outputs": [],
      "stateMutability": "nonpayable",
      "type": "function"
    },
    {
      "inputs": [
        {
          "internalType": "address",
          "name": "_enclaveAddress",
          "type": "address"
        },
        {
          "internalType": "uint256",
          "name": "_amount",
          "type": "uint256"
        }
      ],
      "name": "removeGatewayStake",
      "outputs": [],
      "stateMutability": "nonpayable",
      "type": "function"
    },
    {
      "inputs": [
        {
          "internalType": "bytes32",
          "name": "role",
          "type": "bytes32"
        },
        {
          "internalType": "address",
          "name": "callerConfirmation",
          "type": "address"
        }
      ],
      "name": "renounceRole",
      "outputs": [],
      "stateMutability": "nonpayable",
      "type": "function"
    },
    {
      "inputs": [
        {
          "internalType": "uint256",
          "name": "",
          "type": "uint256"
        }
      ],
      "name": "requestChains",
      "outputs": [
        {
          "internalType": "address",
          "name": "relayAddress",
          "type": "address"
        },
        {
          "internalType": "address",
          "name": "relaySubscriptionsAddress",
          "type": "address"
        },
        {
          "internalType": "string",
          "name": "httpRpcUrl",
          "type": "string"
        },
        {
          "internalType": "string",
          "name": "wsRpcUrl",
          "type": "string"
        }
      ],
      "stateMutability": "view",
      "type": "function"
    },
    {
      "inputs": [
        {
          "internalType": "address",
          "name": "_enclaveAddress",
          "type": "address"
        }
      ],
      "name": "reviveGateway",
      "outputs": [],
      "stateMutability": "nonpayable",
      "type": "function"
    },
    {
      "inputs": [
        {
          "internalType": "bytes32",
          "name": "imageId",
          "type": "bytes32"
        }
      ],
      "name": "revokeEnclaveImage",
      "outputs": [
        {
          "internalType": "bool",
          "name": "",
          "type": "bool"
        }
      ],
      "stateMutability": "nonpayable",
      "type": "function"
    },
    {
      "inputs": [
        {
          "internalType": "bytes32",
          "name": "role",
          "type": "bytes32"
        },
        {
          "internalType": "address",
          "name": "account",
          "type": "address"
        }
      ],
      "name": "revokeRole",
      "outputs": [],
      "stateMutability": "nonpayable",
      "type": "function"
    },
    {
      "inputs": [
        {
          "internalType": "address",
          "name": "_oldGateway",
          "type": "address"
        }
      ],
      "name": "slashOnReassignGateway",
      "outputs": [
        {
          "internalType": "uint256",
          "name": "",
          "type": "uint256"
        }
      ],
      "stateMutability": "nonpayable",
      "type": "function"
    },
    {
      "inputs": [
        {
          "internalType": "bytes4",
          "name": "interfaceId",
          "type": "bytes4"
        }
      ],
      "name": "supportsInterface",
      "outputs": [
        {
          "internalType": "bool",
          "name": "",
          "type": "bool"
        }
      ],
      "stateMutability": "view",
      "type": "function"
    },
    {
      "inputs": [
        {
          "internalType": "address",
          "name": "newImplementation",
          "type": "address"
        },
        {
          "internalType": "bytes",
          "name": "data",
          "type": "bytes"
        }
      ],
      "name": "upgradeToAndCall",
      "outputs": [],
      "stateMutability": "payable",
      "type": "function"
    },
    {
      "inputs": [
        {
          "internalType": "bytes",
          "name": "signature",
          "type": "bytes"
        },
        {
          "components": [
            {
              "internalType": "bytes",
              "name": "enclavePubKey",
              "type": "bytes"
            },
            {
              "internalType": "bytes",
              "name": "PCR0",
              "type": "bytes"
            },
            {
              "internalType": "bytes",
              "name": "PCR1",
              "type": "bytes"
            },
            {
              "internalType": "bytes",
              "name": "PCR2",
              "type": "bytes"
            },
            {
              "internalType": "uint256",
              "name": "timestampInMilliseconds",
              "type": "uint256"
            }
          ],
          "internalType": "struct IAttestationVerifier.Attestation",
          "name": "attestation",
          "type": "tuple"
        }
      ],
      "name": "verifyEnclaveKey",
      "outputs": [
        {
          "internalType": "bool",
          "name": "",
          "type": "bool"
        }
      ],
      "stateMutability": "nonpayable",
      "type": "function"
    },
    {
      "inputs": [
        {
          "internalType": "bytes",
          "name": "PCR0",
          "type": "bytes"
        },
        {
          "internalType": "bytes",
          "name": "PCR1",
          "type": "bytes"
        },
        {
          "internalType": "bytes",
          "name": "PCR2",
          "type": "bytes"
        }
      ],
      "name": "whitelistEnclaveImage",
      "outputs": [
        {
          "internalType": "bytes32",
          "name": "",
          "type": "bytes32"
        },
        {
          "internalType": "bool",
          "name": "",
          "type": "bool"
        }
      ],
      "stateMutability": "nonpayable",
      "type": "function"
    }
  ],
  "bytecode": "0x6101606040523060805234801561001557600080fd5b50604051614f67380380614f6783398101604081905261003491610161565b6001600160a01b03861660a05260c085905261004e61009a565b6001600160a01b038416610075576040516335353f0160e21b815260040160405180910390fd5b6001600160a01b0390931660e052610100919091526101205261014052506101c19050565b7ff0c57e16840df040f15088dc2f81fe391c3923bec73e23a9662efc9c229c6a00805468010000000000000000900460ff16156100ea5760405163f92ee8a960e01b815260040160405180910390fd5b80546001600160401b03908116146101495780546001600160401b0319166001600160401b0390811782556040519081527fc7f505b2f371ae2175ee4913f4499e1f2633a7b5936321eed1cdaeb6115181d29060200160405180910390a15b50565b6001600160a01b038116811461014957600080fd5b60008060008060008060c0878903121561017a57600080fd5b86516101858161014c565b60208801516040890151919750955061019d8161014c565b6060880151608089015160a090990151979a96995090979096909590945092505050565b60805160a05160c05160e051610100516101205161014051614cea61027d6000396000818161093c0152611c810152600081816105670152611ca70152600081816104b3015281816117b201526126200152600081816106b601528181611d1901528181612dde0152612f5b01526000818161085d01528181611fa3015281816129ee0152818161308201526134080152600081816109900152612041015260008181611a1f01528181611a480152611c0a0152614cea6000f3fe6080604052600436106102c65760003560e01c80637a639d4a11610179578063a0ac45d5116100d6578063cd79f9061161008a578063de4bea0711610064578063de4bea07146109f2578063edc1c0df14610a12578063fa54416114610a4257600080fd5b8063cd79f9061461097e578063d547741f146109b2578063db6b8fae146109d257600080fd5b8063ad3cb1cc116100bb578063ad3cb1cc146108d4578063b2bed4081461092a578063b9d546e01461095e57600080fd5b8063a0ac45d51461089f578063a217fddf146108bf57600080fd5b806391d148541161012d578063979623ad11610112578063979623ad1461082b5780639aec990e1461084b5780639f450d5b1461087f57600080fd5b806391d14854146107a657806395c602941461080b57600080fd5b806382bfefc81161015e57806382bfefc8146106a45780638c161c01146106f05780639022c19c1461072457600080fd5b80637a639d4a146106575780637bccaf2e1461068457600080fd5b806337e352551161022757806355d44b45116101db57806369815e57116101c057806369815e57146105a95780636b5b21a6146105de57806375847b841461063757600080fd5b806355d44b45146105555780635b0d57be1461058957600080fd5b80634f99f7401161020c5780634f99f740146104e85780635221c1f01461050857806352d1902d1461054057600080fd5b806337e35255146104a15780634f1ef286146104d557600080fd5b80632410f6ba1161027e5780632eb39ee9116102635780632eb39ee9146104415780632f2ff15d1461046157806336568abe1461048157600080fd5b80632410f6ba146103c5578063248a9ca3146103f257600080fd5b806301ffc9a7116102af57806301ffc9a71461035557806309d9f72c1461038557806314129d27146103a557600080fd5b80630167847b146102cb57806301d58fa3146102ed575b600080fd5b3480156102d757600080fd5b506102eb6102e6366004613ec3565b610a7b565b005b3480156102f957600080fd5b50610342610308366004613f1c565b6001600160a01b031660009081527fc17b4b708b6f44255c20913a9d97a05300b670342c71fe5ae5b617bd4db55001602052604090205490565b6040519081526020015b60405180910390f35b34801561036157600080fd5b50610375610370366004613f37565b610a93565b604051901515815260200161034c565b34801561039157600080fd5b506102eb6103a0366004613ff0565b610aa4565b3480156103b157600080fd5b506102eb6103c0366004614073565b610b0f565b3480156103d157600080fd5b506103e56103e036600461409d565b610b76565b60405161034c9190614106565b3480156103fe57600080fd5b5061034261040d36600461409d565b60009081527f02dd7bc7dec4dceedda775e58dd541e08a116c6c53815c0bd028192f7b626800602052604090206001015490565b34801561044d57600080fd5b506102eb61045c36600461415d565b610d94565b34801561046d57600080fd5b506102eb61047c3660046142c0565b610f81565b34801561048d57600080fd5b506102eb61049c3660046142c0565b610fc5565b3480156104ad57600080fd5b506103427f000000000000000000000000000000000000000000000000000000000000000081565b6102eb6104e33660046142ec565b611016565b3480156104f457600080fd5b506102eb610503366004614073565b611031565b34801561051457600080fd5b5061037561052336600461409d565b6000908152602081905260409020546001600160a01b0316151590565b34801561054c57600080fd5b50610342611092565b34801561056157600080fd5b506103427f000000000000000000000000000000000000000000000000000000000000000081565b34801561059557600080fd5b506103426105a4366004613f1c565b6110c1565b3480156105b557600080fd5b506105c96105c436600461433a565b611100565b6040805192835290151560208301520161034c565b3480156105ea57600080fd5b506103756105f93660046143ce565b60009081527fc17b4b708b6f44255c20913a9d97a05300b670342c71fe5ae5b617bd4db5500260209081526040808320938352929052205460ff1690565b34801561064357600080fd5b506103756106523660046144c8565b61113d565b34801561066357600080fd5b50610677610672366004613f1c565b611150565b60405161034c9190614527565b34801561069057600080fd5b506102eb61069f36600461456a565b6111bf565b3480156106b057600080fd5b506106d87f000000000000000000000000000000000000000000000000000000000000000081565b6040516001600160a01b03909116815260200161034c565b3480156106fc57600080fd5b506103427f83e28810d66771c4d1748f85389d90b4e679f86d930392a432230a880f5e964e81565b34801561073057600080fd5b5061077661073f366004613f1c565b60016020526000908152604090208054600282015460038301546004909301546001600160a01b0390921692909160ff9091169084565b604080516001600160a01b039095168552602085019390935290151591830191909152606082015260800161034c565b3480156107b257600080fd5b506103756107c13660046142c0565b60009182527f02dd7bc7dec4dceedda775e58dd541e08a116c6c53815c0bd028192f7b626800602090815260408084206001600160a01b0393909316845291905290205460ff1690565b34801561081757600080fd5b5061037561082636600461409d565b6111d4565b34801561083757600080fd5b506102eb610846366004613ff0565b6111e9565b34801561085757600080fd5b506103427f000000000000000000000000000000000000000000000000000000000000000081565b34801561088b57600080fd5b506102eb61089a366004613f1c565b61124c565b3480156108ab57600080fd5b506102eb6108ba366004613f1c565b6112ac565b3480156108cb57600080fd5b50610342600081565b3480156108e057600080fd5b5061091d6040518060400160405280600581526020017f352e302e3000000000000000000000000000000000000000000000000000000081525081565b60405161034c91906146cc565b34801561093657600080fd5b506103427f000000000000000000000000000000000000000000000000000000000000000081565b34801561096a57600080fd5b506102eb610979366004613f1c565b6112b8565b34801561098a57600080fd5b506106d87f000000000000000000000000000000000000000000000000000000000000000081565b3480156109be57600080fd5b506102eb6109cd3660046142c0565b611318565b3480156109de57600080fd5b506102eb6109ed366004613f1c565b61135c565b3480156109fe57600080fd5b506102eb610a0d3660046146df565b6113bc565b348015610a1e57600080fd5b50610a32610a2d36600461409d565b6113cb565b60405161034c94939291906147b1565b348015610a4e57600080fd5b506106d8610a5d366004613f1c565b6001600160a01b039081166000908152600160205260409020541690565b6000610a8681611511565b610a8f8261151b565b5050565b6000610a9e8261161f565b92915050565b6001600160a01b0380821660009081526001602052604090205482913391168114610afb576040517f55be343d00000000000000000000000000000000000000000000000000000000815260040160405180910390fd5b610b07868686866116b6565b505050505050565b6001600160a01b0380831660009081526001602052604090205483913391168114610b66576040517f55be343d00000000000000000000000000000000000000000000000000000000815260040160405180910390fd5b610b70848461173b565b50505050565b610b9a60405180606001604052806060815260200160608152602001606081525090565b60008281527fc17b4b708b6f44255c20913a9d97a05300b670342c71fe5ae5b617bd4db550006020819052604091829020825160608101909352805491929182908290610be6906147ff565b80601f0160208091040260200160405190810160405280929190818152602001828054610c12906147ff565b8015610c5f5780601f10610c3457610100808354040283529160200191610c5f565b820191906000526020600020905b815481529060010190602001808311610c4257829003601f168201915b50505050508152602001600182018054610c78906147ff565b80601f0160208091040260200160405190810160405280929190818152602001828054610ca4906147ff565b8015610cf15780601f10610cc657610100808354040283529160200191610cf1565b820191906000526020600020905b815481529060010190602001808311610cd457829003601f168201915b50505050508152602001600282018054610d0a906147ff565b80601f0160208091040260200160405190810160405280929190818152602001828054610d36906147ff565b8015610d835780601f10610d5857610100808354040283529160200191610d83565b820191906000526020600020905b815481529060010190602001808311610d6657829003601f168201915b505050505081525050915050919050565b7ff0c57e16840df040f15088dc2f81fe391c3923bec73e23a9662efc9c229c6a00805468010000000000000000810460ff16159067ffffffffffffffff16600081158015610ddf5750825b905060008267ffffffffffffffff166001148015610dfc5750303b155b905081158015610e0a575080155b15610e41576040517ff92ee8a900000000000000000000000000000000000000000000000000000000815260040160405180910390fd5b84547fffffffffffffffffffffffffffffffffffffffffffffffff00000000000000001660011785558315610ea25784547fffffffffffffffffffffffffffffffffffffffffffffff00ffffffffffffffff16680100000000000000001785555b6001600160a01b038716610ee2576040517faf2f9ad400000000000000000000000000000000000000000000000000000000815260040160405180910390fd5b610eea611819565b610ef2611819565b610efa611819565b610f02611819565b610f0b86611823565b610f16600088611863565b508315610f785784547fffffffffffffffffffffffffffffffffffffffffffffff00ffffffffffffffff168555604051600181527fc7f505b2f371ae2175ee4913f4499e1f2633a7b5936321eed1cdaeb6115181d29060200160405180910390a15b50505050505050565b60008281527f02dd7bc7dec4dceedda775e58dd541e08a116c6c53815c0bd028192f7b6268006020526040902060010154610fbb81611511565b610b708383611863565b6001600160a01b0381163314611007576040517f6697b23200000000000000000000000000000000000000000000000000000000815260040160405180910390fd5b6110118282611950565b505050565b61101e611a14565b61102782611ae4565b610a8f8282611aef565b6001600160a01b0380831660009081526001602052604090205483913391168114611088576040517f55be343d00000000000000000000000000000000000000000000000000000000815260040160405180910390fd5b610b708484611bf5565b600061109c611bff565b507f360894a13ba1a3210667c828492db98dca3e2076cc3735a920a3ca505d382bbc90565b60007f83e28810d66771c4d1748f85389d90b4e679f86d930392a432230a880f5e964e6110ed81611511565b6110f78333611c61565b91505b50919050565b6000808061110d81611511565b611130604051806060016040528088815260200187815260200186815250611d40565b9250925050935093915050565b60006111498383611ee8565b9392505050565b6001600160a01b0381166000908152600160208181526040928390209091018054835181840281018401909452808452606093928301828280156111b357602002820191906000526020600020905b81548152602001906001019080831161119f575b50505050509050919050565b60006111ca81611511565b611011838361214c565b6000806111e081611511565b6110f7836122be565b6001600160a01b0380821660009081526001602052604090205482913391168114611240576040517f55be343d00000000000000000000000000000000000000000000000000000000815260040160405180910390fd5b610b0786868686612375565b6001600160a01b03808216600090815260016020526040902054829133911681146112a3576040517f55be343d00000000000000000000000000000000000000000000000000000000815260040160405180910390fd5b611011836123f3565b6112b5816124c4565b50565b6001600160a01b038082166000908152600160205260409020548291339116811461130f576040517f55be343d00000000000000000000000000000000000000000000000000000000815260040160405180910390fd5b611011836125a9565b60008281527f02dd7bc7dec4dceedda775e58dd541e08a116c6c53815c0bd028192f7b626800602052604090206001015461135281611511565b610b708383611950565b6001600160a01b03808216600090815260016020526040902054829133911681146113b3576040517f55be343d00000000000000000000000000000000000000000000000000000000815260040160405180910390fd5b6110118361276c565b610b0786868686868633612832565b6000602081905290815260409020805460018201546002830180546001600160a01b03938416949290931692611400906147ff565b80601f016020809104026020016040519081016040528092919081815260200182805461142c906147ff565b80156114795780601f1061144e57610100808354040283529160200191611479565b820191906000526020600020905b81548152906001019060200180831161145c57829003601f168201915b50505050509080600301805461148e906147ff565b80601f01602080910402602001604051908101604052809291908181526020018280546114ba906147ff565b80156115075780601f106114dc57610100808354040283529160200191611507565b820191906000526020600020905b8154815290600101906020018083116114ea57829003601f168201915b5050505050905084565b6112b5813361295c565b8051600003611556576040517f93f0b16e00000000000000000000000000000000000000000000000000000000815260040160405180910390fd5b60005b8151811015610a8f5760008282815181106115765761157661484c565b6020908102919091018101516000818152918290526040822080547fffffffffffffffffffffffff000000000000000000000000000000000000000090811682556001820180549091169055909250906115d36002830182613cab565b6115e1600383016000613cab565b50506040518181527f5b9dc40648bfe840de770df10081e79f179534343348da4087dea77ba584d1819060200160405180910390a150600101611559565b60007fffffffff0000000000000000000000000000000000000000000000000000000082167f7965db0b000000000000000000000000000000000000000000000000000000001480610a9e57507f01ffc9a7000000000000000000000000000000000000000000000000000000007fffffffff00000000000000000000000000000000000000000000000000000000831614610a9e565b82516000036116f1576040517f15d7613700000000000000000000000000000000000000000000000000000000815260040160405180910390fd5b6116fd848484846129e9565b60005b83518110156117345761172c84828151811061171e5761171e61484c565b602002602001015183612c06565b600101611700565b5050505050565b6001600160a01b03821660009081526001602052604090206003015460ff16611790576040517fd4e049dd00000000000000000000000000000000000000000000000000000000815260040160405180910390fd5b6001600160a01b0382166000908152600160205260409020600401546117d7907f0000000000000000000000000000000000000000000000000000000000000000906148aa565b421161180f576040517fd77a5c8900000000000000000000000000000000000000000000000000000000815260040160405180910390fd5b610a8f8282612d8e565b611821612e4e565b565b61182b612e4e565b60005b8151811015610a8f5761185982828151811061184c5761184c61484c565b6020026020010151611d40565b505060010161182e565b60008281527f02dd7bc7dec4dceedda775e58dd541e08a116c6c53815c0bd028192f7b626800602081815260408084206001600160a01b038616855290915282205460ff16611946576000848152602082815260408083206001600160a01b0387168452909152902080547fffffffffffffffffffffffffffffffffffffffffffffffffffffffffffffff001660011790556118fc3390565b6001600160a01b0316836001600160a01b0316857f2f8788117e7eff1d82e926ec794901d17c78024a50270940304540a733656f0d60405160405180910390a46001915050610a9e565b6000915050610a9e565b60008281527f02dd7bc7dec4dceedda775e58dd541e08a116c6c53815c0bd028192f7b626800602081815260408084206001600160a01b038616855290915282205460ff1615611946576000848152602082815260408083206001600160a01b038716808552925280832080547fffffffffffffffffffffffffffffffffffffffffffffffffffffffffffffff0016905551339287917ff6391f5c32d9c69d2a47ea670b442974b53935d1edc7fd64eb21e047a839171b9190a46001915050610a9e565b306001600160a01b037f0000000000000000000000000000000000000000000000000000000000000000161480611aad57507f00000000000000000000000000000000000000000000000000000000000000006001600160a01b0316611aa17f360894a13ba1a3210667c828492db98dca3e2076cc3735a920a3ca505d382bbc546001600160a01b031690565b6001600160a01b031614155b15611821576040517fe07c8dba00000000000000000000000000000000000000000000000000000000815260040160405180910390fd5b6000610a8f81611511565b816001600160a01b03166352d1902d6040518163ffffffff1660e01b8152600401602060405180830381865afa925050508015611b49575060408051601f3d908101601f19168201909252611b46918101906148bd565b60015b611b8f576040517f4c9c8ce30000000000000000000000000000000000000000000000000000000081526001600160a01b03831660048201526024015b60405180910390fd5b7f360894a13ba1a3210667c828492db98dca3e2076cc3735a920a3ca505d382bbc8114611beb576040517faa1d49a400000000000000000000000000000000000000000000000000000000815260048101829052602401611b86565b6110118383612eb5565b610a8f8282612f0b565b306001600160a01b037f00000000000000000000000000000000000000000000000000000000000000001614611821576040517fe07c8dba00000000000000000000000000000000000000000000000000000000815260040160405180910390fd5b6001600160a01b03821660009081526001602052604081206002015481907f000000000000000000000000000000000000000000000000000000000000000090611ccc907f0000000000000000000000000000000000000000000000000000000000000000906148d6565b611cd691906148ed565b6001600160a01b038516600090815260016020526040812060020180549293508392909190611d06908490614928565b9091555061114990506001600160a01b037f0000000000000000000000000000000000000000000000000000000000000000168483612fc0565b80515160009081907fc17b4b708b6f44255c20913a9d97a05300b670342c71fe5ae5b617bd4db55000906030148015611d7e57508360200151516030145b8015611d8f57508360400151516030145b611dc5576040517f84c61bb600000000000000000000000000000000000000000000000000000000815260040160405180910390fd5b6000846000015185602001518660400151604051602001611de89392919061493b565b60408051601f1981840301815291815281516020928301206000818152928590529120805491925090611e1a906147ff565b159050611e2c57946000945092505050565b60408051606081018252865181526020808801518183015287830151828401526000848152908590529190912081518190611e6790826149c5565b5060208201516001820190611e7c90826149c5565b5060408201516002820190611e9190826149c5565b50905050807f52b29bbdd97ab983419f50fa1590e5ab75e9942279e95e10a08607b06c23238b866000015187602001518860400151604051611ed593929190614ac0565b60405180910390a2946001945092505050565b6000807fc17b4b708b6f44255c20913a9d97a05300b670342c71fe5ae5b617bd4db5500090506000836020015184604001518560600151604051602001611f319392919061493b565b60408051601f1981840301815291815281516020928301206000818152928590529120805491925090611f63906147ff565b9050600003611f9e576040517f38c4ac1600000000000000000000000000000000000000000000000000000000815260040160405180910390fd5b611fc87f000000000000000000000000000000000000000000000000000000000000000042614928565b6103e88560800151611fda91906148ed565b11612011576040517f19605e0a00000000000000000000000000000000000000000000000000000000815260040160405180910390fd5b6040517feac708a30000000000000000000000000000000000000000000000000000000081526001600160a01b037f0000000000000000000000000000000000000000000000000000000000000000169063eac708a3906120789088908890600401614af9565b60006040518083038186803b15801561209057600080fd5b505afa1580156120a4573d6000803e3d6000fd5b5050505060006120b78560000151613034565b6001600160a01b0381166000908152600185016020526040902054909150156120e65760009350505050610a9e565b6001600160a01b038116600081815260018501602052604090819020849055865190518492917fbb4d6428d53ea924d94be0488473deb5c0a70c979f8477d21911cb5bee4037fd9161213891906146cc565b60405180910390a350600195945050505050565b8151158061215c57508051825114155b15612193576040517f93f0b16e00000000000000000000000000000000000000000000000000000000815260040160405180910390fd5b60005b81518110156110115760008282815181106121b3576121b361484c565b6020026020010151905060008483815181106121d1576121d161484c565b6020908102919091018101516000818152808352604090819020855181547fffffffffffffffffffffffff00000000000000000000000000000000000000009081166001600160a01b0392831617835594870151600183018054909616911617909355840151909250839190600282019061224c90826149c5565b506060820151600382019061226190826149c5565b509050507fb0fddf922dc9cc7d1ec5e17bdba0ed45a4aa4a1d54061b78cb66489c46348ba58183600001518460200151856040015186606001516040516122ac959493929190614b8d565b60405180910390a15050600101612196565b60008181527fc17b4b708b6f44255c20913a9d97a05300b670342c71fe5ae5b617bd4db5500060208190526040822080546122f8906147ff565b905060000361230a5750600092915050565b6000838152602082905260408120906123238282613cab565b612331600183016000613cab565b61233f600283016000613cab565b505060405183907f4b71bedda4217966eac1aa49e35b1550e5ab87064ae179d1b36b393bd04eb74390600090a250600192915050565b82516000036123b0576040517f15d7613700000000000000000000000000000000000000000000000000000000815260040160405180910390fd5b6123bc8484848461307d565b60005b8351811015611734576123eb8482815181106123dd576123dd61484c565b602002602001015183613114565b6001016123bf565b6001600160a01b03811660009081526001602052604090206003015460ff1615612449576040517f405c6a7400000000000000000000000000000000000000000000000000000000815260040160405180910390fd5b6001600160a01b03811660008181526001602081905260408083206003810180547fffffffffffffffffffffffffffffffffffffffffffffffffffffffffffffff001690931790925542600490920191909155517f754bb4dcc62c442f85f421ffe7d04156186cc4ae7c66eb0ffd3bb1fe375bebbc9190a250565b6001600160a01b03811660009081527fc17b4b708b6f44255c20913a9d97a05300b670342c71fe5ae5b617bd4db5500160205260409020547fc17b4b708b6f44255c20913a9d97a05300b670342c71fe5ae5b617bd4db550009080612555576040517f3dd8ca9500000000000000000000000000000000000000000000000000000000815260040160405180910390fd5b6000818152602083905260409020805461256e906147ff565b9050600003611011576040517f38c4ac1600000000000000000000000000000000000000000000000000000000815260040160405180910390fd5b6001600160a01b03811660009081526001602052604090206003015460ff166125fe576040517fd4e049dd00000000000000000000000000000000000000000000000000000000815260040160405180910390fd5b6001600160a01b038116600090815260016020526040902060040154612645907f0000000000000000000000000000000000000000000000000000000000000000906148aa565b421161267d576040517fd77a5c8900000000000000000000000000000000000000000000000000000000815260040160405180910390fd5b6001600160a01b0381166000908152600160205260409020600201546126a4908290612d8e565b6126ad81613350565b506001600160a01b0381166000908152600160208190526040822080547fffffffffffffffffffffffff000000000000000000000000000000000000000016815591906126fc90830182613ce5565b506000600282018190556003820180547fffffffffffffffffffffffffffffffffffffffffffffffffffffffffffffff0016905560049091018190556040516001600160a01b038316917f962f6082057b3b4fb251973bd737c7707bf1733cf85a0b7c86fd6c3caca260c591a250565b6001600160a01b03811660009081526001602052604090206003015460ff166127c1576040517fa72c061100000000000000000000000000000000000000000000000000000000815260040160405180910390fd5b6001600160a01b0381166000818152600160205260408082206003810180547fffffffffffffffffffffffffffffffffffffffffffffffffffffffffffffff00169055600401829055517ffd5e3986dcf03659b4ef119571fb29771a1fac99c8af966fd5a6cbe6ea8179ea9190a250565b61283c8787611ee8565b50600061284c8760000151613034565b905061285b8287858885613403565b6001600160a01b0381811660009081526001602052604090205416156128ad576040517fc2bf629200000000000000000000000000000000000000000000000000000000815260040160405180910390fd5b60005b865181101561293c5760006001600160a01b03166000808984815181106128d9576128d961484c565b6020908102919091018101518252810191909152604001600020546001600160a01b031603612934576040517feb7bb5b200000000000000000000000000000000000000000000000000000000815260040160405180910390fd5b6001016128b0565b5061294881838861362f565b6129528185612f0b565b5050505050505050565b60008281527f02dd7bc7dec4dceedda775e58dd541e08a116c6c53815c0bd028192f7b626800602090815260408083206001600160a01b038516845290915290205460ff16610a8f576040517fe2517d3f0000000000000000000000000000000000000000000000000000000081526001600160a01b038216600482015260248101839052604401611b86565b612a137f0000000000000000000000000000000000000000000000000000000000000000836148aa565b421115612a4c576040517fdd66e60500000000000000000000000000000000000000000000000000000000815260040160405180910390fd5b60007ffd4e6622704a3c8b7273a2baf3b9a3995934dcda81cfcd8759601d3b3d56af7184604051602001612a809190614be2565b60408051808303601f19018152828252805160209182012081840194909452828201939093526060808301879052815180840390910181526080830182528051908401207fb03948446334eb9b2196d5eb166f69b9d49403eb4a12f36de8d3f9f3cb8e15c360a08401527f858289a371ca56f9c62eb60bbc775dcb5d2616816582707c12fb22be4a4b013160c08401527fc89efdaa54c0f20c7adf612882df0950f5a951637e0307cdcb4c672f298b8bc660e08085019190915282518085039091018152610100840183528051908501207f190100000000000000000000000000000000000000000000000000000000000061012085015261012284015261014280840182905282518085039091018152610162909301909152815191909201209091506000612bb082886136db565b9050836001600160a01b0316816001600160a01b031614612bfd576040517f370b384a00000000000000000000000000000000000000000000000000000000815260040160405180910390fd5b610f78816124c4565b6000828152602081905260409020546001600160a01b0316612c54576040517feb7bb5b200000000000000000000000000000000000000000000000000000000815260040160405180910390fd5b6001600160a01b038116600090815260016020818152604080842090920180548351818402810184019094528084529091830182828015612cb457602002820191906000526020600020905b815481526020019060010190808311612ca0575b5050505050905060005b8151811015612d245783828281518110612cda57612cda61484c565b602002602001015103612d1c576040517fe282303000000000000000000000000000000000000000000000000000000000815260048101859052602401611b86565b600101612cbe565b506001600160a01b03821660008181526001602081815260408084208301805493840181558452922001859055517fbae667a7ed97b338409582b4ff8ba4ae0c912d2a80fbd7153d9f5f12e136de7790612d819086815260200190565b60405180910390a2505050565b6001600160a01b03821660009081526001602052604081206002018054839290612db9908490614928565b90915550506001600160a01b03808316600090815260016020526040902054612e07917f00000000000000000000000000000000000000000000000000000000000000008116911683612fc0565b816001600160a01b03167f382916f020eb774dcea1efa46950af8dfd207190928e187cf480f93bc8d335d182604051612e4291815260200190565b60405180910390a25050565b7ff0c57e16840df040f15088dc2f81fe391c3923bec73e23a9662efc9c229c6a005468010000000000000000900460ff16611821576040517fd7e6bcf800000000000000000000000000000000000000000000000000000000815260040160405180910390fd5b612ebe82613705565b6040516001600160a01b038316907fbc7cd75a20ee27fd9adebab32041f755214dbc6bffa90cc0225b39da2e5c2d3b90600090a2805115612f035761101182826137ad565b610a8f613823565b6001600160a01b03821660009081526001602052604081206002018054839290612f369084906148aa565b90915550506001600160a01b03808316600090815260016020526040902054612f85917f000000000000000000000000000000000000000000000000000000000000000081169116308461385b565b816001600160a01b03167f19cc467a75b86f019e9658624dfb0651a46458ddc16479c1ae6f42d742c579ad82604051612e4291815260200190565b6040516001600160a01b0383811660248301526044820183905261101191859182169063a9059cbb906064015b604051602081830303815290604052915060e01b6020820180517bffffffffffffffffffffffffffffffffffffffffffffffffffffffff8381831617835250505050613894565b60008151604014613071576040517fbd9c80c100000000000000000000000000000000000000000000000000000000815260040160405180910390fd5b50805160209091012090565b6130a77f0000000000000000000000000000000000000000000000000000000000000000836148aa565b4211156130e0576040517fdd66e60500000000000000000000000000000000000000000000000000000000815260040160405180910390fd5b60007f2d6e0b5f3eceb7fed7d9bbd146c955b9dcb92f3e942b67014e53ff05aa538f8484604051602001612a809190614be2565b6001600160a01b03811660009081526001602081815260408084209092018054835181840281018401909452808452909183018282801561317457602002820191906000526020600020905b815481526020019060010190808311613160575b50505050509050600081519050806000036131bb576040517fbfb2dfcb00000000000000000000000000000000000000000000000000000000815260040160405180910390fd5b60005b818110156131ef57848382815181106131d9576131d961484c565b602002602001015103156131ef576001016131be565b81810361322b576040517f9a0f536e00000000000000000000000000000000000000000000000000000000815260048101869052602401611b86565b613236600183614928565b81146132c5576001600160a01b03841660009081526001602081905260409091208101906132649084614928565b815481106132745761327461484c565b906000526020600020015460016000866001600160a01b03166001600160a01b0316815260200190815260200160002060010182815481106132b8576132b861484c565b6000918252602090912001555b6001600160a01b0384166000908152600160208190526040909120018054806132f0576132f0614c18565b60019003818190600052602060002001600090559055836001600160a01b03167f3cfa750f6651a5d0226cb438c747adef8f00c35cce0a6951071f99aac90cc8cc8660405161334191815260200190565b60405180910390a25050505050565b6001600160a01b03811660009081527fc17b4b708b6f44255c20913a9d97a05300b670342c71fe5ae5b617bd4db5500160205260408120547fc17b4b708b6f44255c20913a9d97a05300b670342c71fe5ae5b617bd4db55000906133b75750600092915050565b6001600160a01b0383166000818152600183016020526040808220829055517f0f586d928fc7ce3b60c8a7c276a8562f9f53b126cebe71cf612948dfc52eff169190a250600192915050565b61342d7f0000000000000000000000000000000000000000000000000000000000000000846148aa565b421115613466576040517fdd66e60500000000000000000000000000000000000000000000000000000000815260040160405180910390fd5b60007f56108c9c249e5d9a1270a9b602c2d28918dc60308995d620c49f7235f0f83152868660405160200161349b9190614be2565b60405160208183030381529060405280519060200120866040516020016134e494939291909384526001600160a01b039290921660208401526040830152606082015260800190565b60408051808303601f1901815282825280516020918201207fb03948446334eb9b2196d5eb166f69b9d49403eb4a12f36de8d3f9f3cb8e15c3828501527f858289a371ca56f9c62eb60bbc775dcb5d2616816582707c12fb22be4a4b0131848401527fc89efdaa54c0f20c7adf612882df0950f5a951637e0307cdcb4c672f298b8bc6606080860191909152835180860390910181526080850184528051908301207f190100000000000000000000000000000000000000000000000000000000000060a086015260a285015260c28085018290528351808603909101815260e2909401909252825192019190912090915060006135e282866136db565b9050836001600160a01b0316816001600160a01b031614612952576040517f370b384a00000000000000000000000000000000000000000000000000000000815260040160405180910390fd5b6001600160a01b03838116600090815260016020818152604090922080547fffffffffffffffffffffffff000000000000000000000000000000000000000016938616939093178355835161368a9390910191840190613d03565b50816001600160a01b0316836001600160a01b03167f1586eae4013456779cf6b481c0cc4c5eba08765933b33ad4109e869b1505dcc3836040516136ce9190614527565b60405180910390a3505050565b6000806000806136eb8686613910565b9250925092506136fb828261395d565b5090949350505050565b806001600160a01b03163b600003613754576040517f4c9c8ce30000000000000000000000000000000000000000000000000000000081526001600160a01b0382166004820152602401611b86565b7f360894a13ba1a3210667c828492db98dca3e2076cc3735a920a3ca505d382bbc80547fffffffffffffffffffffffff0000000000000000000000000000000000000000166001600160a01b0392909216919091179055565b6060600080846001600160a01b0316846040516137ca9190614c47565b600060405180830381855af49150503d8060008114613805576040519150601f19603f3d011682016040523d82523d6000602084013e61380a565b606091505b509150915061381a858383613a61565b95945050505050565b3415611821576040517fb398979f00000000000000000000000000000000000000000000000000000000815260040160405180910390fd5b6040516001600160a01b038481166024830152838116604483015260648201839052610b709186918216906323b872dd90608401612fed565b60006138a96001600160a01b03841683613ad6565b905080516000141580156138ce5750808060200190518101906138cc9190614c63565b155b15611011576040517f5274afe70000000000000000000000000000000000000000000000000000000081526001600160a01b0384166004820152602401611b86565b6000806000835160410361394a5760208401516040850151606086015160001a61393c88828585613ae4565b955095509550505050613956565b50508151600091506002905b9250925092565b600082600381111561397157613971614c85565b0361397a575050565b600182600381111561398e5761398e614c85565b036139c5576040517ff645eedf00000000000000000000000000000000000000000000000000000000815260040160405180910390fd5b60028260038111156139d9576139d9614c85565b03613a13576040517ffce698f700000000000000000000000000000000000000000000000000000000815260048101829052602401611b86565b6003826003811115613a2757613a27614c85565b03610a8f576040517fd78bce0c00000000000000000000000000000000000000000000000000000000815260048101829052602401611b86565b606082613a7657613a7182613bb3565b611149565b8151158015613a8d57506001600160a01b0384163b155b15613acf576040517f9996b3150000000000000000000000000000000000000000000000000000000081526001600160a01b0385166004820152602401611b86565b5092915050565b606061114983836000613bf5565b600080807f7fffffffffffffffffffffffffffffff5d576e7357a4501ddfe92f46681b20a0841115613b1f5750600091506003905082613ba9565b604080516000808252602082018084528a905260ff891692820192909252606081018790526080810186905260019060a0016020604051602081039080840390855afa158015613b73573d6000803e3d6000fd5b5050604051601f1901519150506001600160a01b038116613b9f57506000925060019150829050613ba9565b9250600091508190505b9450945094915050565b805115613bc35780518082602001fd5b6040517f1425ea4200000000000000000000000000000000000000000000000000000000815260040160405180910390fd5b606081471015613c33576040517fcd786059000000000000000000000000000000000000000000000000000000008152306004820152602401611b86565b600080856001600160a01b03168486604051613c4f9190614c47565b60006040518083038185875af1925050503d8060008114613c8c576040519150601f19603f3d011682016040523d82523d6000602084013e613c91565b606091505b5091509150613ca1868383613a61565b9695505050505050565b508054613cb7906147ff565b6000825580601f10613cc7575050565b601f0160209004906000526020600020908101906112b59190613d4e565b50805460008255906000526020600020908101906112b59190613d4e565b828054828255906000526020600020908101928215613d3e579160200282015b82811115613d3e578251825591602001919060010190613d23565b50613d4a929150613d4e565b5090565b5b80821115613d4a5760008155600101613d4f565b7f4e487b7100000000000000000000000000000000000000000000000000000000600052604160045260246000fd5b6040516060810167ffffffffffffffff81118282101715613db557613db5613d63565b60405290565b60405160a0810167ffffffffffffffff81118282101715613db557613db5613d63565b6040516080810167ffffffffffffffff81118282101715613db557613db5613d63565b604051601f8201601f1916810167ffffffffffffffff81118282101715613e2a57613e2a613d63565b604052919050565b600067ffffffffffffffff821115613e4c57613e4c613d63565b5060051b60200190565b600082601f830112613e6757600080fd5b8135613e7a613e7582613e32565b613e01565b8082825260208201915060208360051b860101925085831115613e9c57600080fd5b602085015b83811015613eb9578035835260209283019201613ea1565b5095945050505050565b600060208284031215613ed557600080fd5b813567ffffffffffffffff811115613eec57600080fd5b613ef884828501613e56565b949350505050565b80356001600160a01b0381168114613f1757600080fd5b919050565b600060208284031215613f2e57600080fd5b61114982613f00565b600060208284031215613f4957600080fd5b81357fffffffff000000000000000000000000000000000000000000000000000000008116811461114957600080fd5b600082601f830112613f8a57600080fd5b81356020830160008067ffffffffffffffff841115613fab57613fab613d63565b50601f8301601f1916602001613fc081613e01565b915050828152858383011115613fd557600080fd5b82826020830137600092810160200192909252509392505050565b6000806000806080858703121561400657600080fd5b843567ffffffffffffffff81111561401d57600080fd5b61402987828801613f79565b945050602085013567ffffffffffffffff81111561404657600080fd5b61405287828801613e56565b9350506040850135915061406860608601613f00565b905092959194509250565b6000806040838503121561408657600080fd5b61408f83613f00565b946020939093013593505050565b6000602082840312156140af57600080fd5b5035919050565b60005b838110156140d15781810151838201526020016140b9565b50506000910152565b600081518084526140f28160208601602086016140b6565b601f01601f19169290920160200192915050565b60208152600082516060602084015261412260808401826140da565b90506020840151601f1984830301604085015261413f82826140da565b9150506040840151601f1984830301606085015261381a82826140da565b6000806040838503121561417057600080fd5b61417983613f00565b9150602083013567ffffffffffffffff81111561419557600080fd5b8301601f810185136141a657600080fd5b80356141b4613e7582613e32565b8082825260208201915060208360051b8501019250878311156141d657600080fd5b602084015b838110156142b157803567ffffffffffffffff8111156141fa57600080fd5b85016060818b03601f1901121561421057600080fd5b614218613d92565b602082013567ffffffffffffffff81111561423257600080fd5b6142418c602083860101613f79565b825250604082013567ffffffffffffffff81111561425e57600080fd5b61426d8c602083860101613f79565b602083015250606082013567ffffffffffffffff81111561428d57600080fd5b61429c8c602083860101613f79565b604083015250845250602092830192016141db565b50809450505050509250929050565b600080604083850312156142d357600080fd5b823591506142e360208401613f00565b90509250929050565b600080604083850312156142ff57600080fd5b61430883613f00565b9150602083013567ffffffffffffffff81111561432457600080fd5b61433085828601613f79565b9150509250929050565b60008060006060848603121561434f57600080fd5b833567ffffffffffffffff81111561436657600080fd5b61437286828701613f79565b935050602084013567ffffffffffffffff81111561438f57600080fd5b61439b86828701613f79565b925050604084013567ffffffffffffffff8111156143b857600080fd5b6143c486828701613f79565b9150509250925092565b600080604083850312156143e157600080fd5b50508035926020909101359150565b600060a0828403121561440257600080fd5b61440a613dbb565b9050813567ffffffffffffffff81111561442357600080fd5b61442f84828501613f79565b825250602082013567ffffffffffffffff81111561444c57600080fd5b61445884828501613f79565b602083015250604082013567ffffffffffffffff81111561447857600080fd5b61448484828501613f79565b604083015250606082013567ffffffffffffffff8111156144a457600080fd5b6144b084828501613f79565b60608301525060809182013591810191909152919050565b600080604083850312156144db57600080fd5b823567ffffffffffffffff8111156144f257600080fd5b6144fe85828601613f79565b925050602083013567ffffffffffffffff81111561451b57600080fd5b614330858286016143f0565b602080825282518282018190526000918401906040840190835b8181101561455f578351835260209384019390920191600101614541565b509095945050505050565b6000806040838503121561457d57600080fd5b823567ffffffffffffffff81111561459457600080fd5b6145a085828601613e56565b925050602083013567ffffffffffffffff8111156145bd57600080fd5b8301601f810185136145ce57600080fd5b80356145dc613e7582613e32565b8082825260208201915060208360051b8501019250878311156145fe57600080fd5b602084015b838110156142b157803567ffffffffffffffff81111561462257600080fd5b85016080818b03601f1901121561463857600080fd5b614640613dde565b61464c60208301613f00565b815261465a60408301613f00565b6020820152606082013567ffffffffffffffff81111561467957600080fd5b6146888c602083860101613f79565b604083015250608082013567ffffffffffffffff8111156146a857600080fd5b6146b78c602083860101613f79565b60608301525084525060209283019201614603565b60208152600061114960208301846140da565b60008060008060008060c087890312156146f857600080fd5b863567ffffffffffffffff81111561470f57600080fd5b61471b89828a01613f79565b965050602087013567ffffffffffffffff81111561473857600080fd5b61474489828a016143f0565b955050604087013567ffffffffffffffff81111561476157600080fd5b61476d89828a01613e56565b945050606087013567ffffffffffffffff81111561478a57600080fd5b61479689828a01613f79565b9699959850939660808101359560a090910135945092505050565b6001600160a01b03851681526001600160a01b03841660208201526080604082015260006147e260808301856140da565b82810360608401526147f481856140da565b979650505050505050565b600181811c9082168061481357607f821691505b6020821081036110fa577f4e487b7100000000000000000000000000000000000000000000000000000000600052602260045260246000fd5b7f4e487b7100000000000000000000000000000000000000000000000000000000600052603260045260246000fd5b7f4e487b7100000000000000000000000000000000000000000000000000000000600052601160045260246000fd5b80820180821115610a9e57610a9e61487b565b6000602082840312156148cf57600080fd5b5051919050565b8082028115828204841417610a9e57610a9e61487b565b600082614923577f4e487b7100000000000000000000000000000000000000000000000000000000600052601260045260246000fd5b500490565b81810381811115610a9e57610a9e61487b565b6000845161494d8184602089016140b6565b8451908301906149618183602089016140b6565b84519101906149748183602088016140b6565b0195945050505050565b601f82111561101157806000526020600020601f840160051c810160208510156149a55750805b601f840160051c820191505b8181101561173457600081556001016149b1565b815167ffffffffffffffff8111156149df576149df613d63565b6149f3816149ed84546147ff565b8461497e565b6020601f821160018114614a455760008315614a0f5750848201515b7fffffffffffffffffffffffffffffffffffffffffffffffffffffffffffffffff600385901b1c1916600184901b178455611734565b600084815260208120601f198516915b82811015614a755787850151825560209485019460019092019101614a55565b5084821015614ab157868401517fffffffffffffffffffffffffffffffffffffffffffffffffffffffffffffffff600387901b60f8161c191681555b50505050600190811b01905550565b606081526000614ad360608301866140da565b8281036020840152614ae581866140da565b90508281036040840152613ca181856140da565b604081526000614b0c60408301856140da565b8281036020840152835160a08252614b2760a08301826140da565b905060208501518282036020840152614b4082826140da565b91505060408501518282036040840152614b5a82826140da565b91505060608501518282036060840152614b7482826140da565b9150506080850151608083015280925050509392505050565b8581526001600160a01b03851660208201526001600160a01b038416604082015260a060608201526000614bc460a08301856140da565b8281036080840152614bd681856140da565b98975050505050505050565b8151600090829060208501835b82811015614c0d578151845260209384019390910190600101614bef565b509195945050505050565b7f4e487b7100000000000000000000000000000000000000000000000000000000600052603160045260246000fd5b60008251614c598184602087016140b6565b9190910192915050565b600060208284031215614c7557600080fd5b8151801515811461114957600080fd5b7f4e487b7100000000000000000000000000000000000000000000000000000000600052602160045260246000fdfea26469706673582212203f395f3bed6b3c7f223725e3b71e27040e084cd0113a119142af4d95a99edb9e64736f6c634300081b0033",
  "linkReferences": {},
  "deployedLinkReferences": {}
}