{
  "_format": "hh-sol-artifact-1",
  "contractName": "Relay",
  "sourceName": "contracts/serverless-v2/Relay.sol",
  "abi": [
    {
      "inputs": [
        {
          "internalType": "contract IAttestationVerifier",
          "name": "attestationVerifier",
          "type": "address"
        },
        {
          "internalType": "uint256",
          "name": "maxAge",
          "type": "uint256"
        },
        {
          "internalType": "contract IERC20",
          "name": "_token",
          "type": "address"
        },
        {
          "internalType": "uint256",
          "name": "_globalMinTimeout",
          "type": "uint256"
        },
        {
          "internalType": "uint256",
          "name": "_globalMaxTimeout",
          "type": "uint256"
        },
        {
          "internalType": "uint256",
          "name": "_overallTimeout",
          "type": "uint256"
        },
        {
          "internalType": "uint256",
          "name": "_executionFeePerMs",
          "type": "uint256"
        },
        {
          "internalType": "uint256",
          "name": "_gatewayFeePerJob",
          "type": "uint256"
        },
        {
          "internalType": "uint256",
          "name": "_fixedGas",
          "type": "uint256"
        },
        {
          "internalType": "uint256",
          "name": "_callbackMeasureGas",
          "type": "uint256"
        }
      ],
      "stateMutability": "nonpayable",
      "type": "constructor"
    },
    {
      "inputs": [],
      "name": "AccessControlBadConfirmation",
      "type": "error"
    },
    {
      "inputs": [
        {
          "internalType": "address",
          "name": "account",
          "type": "address"
        },
        {
          "internalType": "bytes32",
          "name": "neededRole",
          "type": "bytes32"
        }
      ],
      "name": "AccessControlUnauthorizedAccount",
      "type": "error"
    },
    {
      "inputs": [
        {
          "internalType": "address",
          "name": "target",
          "type": "address"
        }
      ],
      "name": "AddressEmptyCode",
      "type": "error"
    },
    {
      "inputs": [
        {
          "internalType": "address",
          "name": "account",
          "type": "address"
        }
      ],
      "name": "AddressInsufficientBalance",
      "type": "error"
    },
    {
      "inputs": [],
      "name": "AttestationAutherAttestationTooOld",
      "type": "error"
    },
    {
      "inputs": [],
      "name": "AttestationAutherImageNotInFamily",
      "type": "error"
    },
    {
      "inputs": [],
      "name": "AttestationAutherImageNotWhitelisted",
      "type": "error"
    },
    {
      "inputs": [],
      "name": "AttestationAutherKeyNotVerified",
      "type": "error"
    },
    {
      "inputs": [],
      "name": "AttestationAutherMismatchedLengths",
      "type": "error"
    },
    {
      "inputs": [],
      "name": "AttestationAutherPCRsInvalid",
      "type": "error"
    },
    {
      "inputs": [],
      "name": "AttestationAutherPubkeyLengthInvalid",
      "type": "error"
    },
    {
      "inputs": [],
      "name": "ECDSAInvalidSignature",
      "type": "error"
    },
    {
      "inputs": [
        {
          "internalType": "uint256",
          "name": "length",
          "type": "uint256"
        }
      ],
      "name": "ECDSAInvalidSignatureLength",
      "type": "error"
    },
    {
      "inputs": [
        {
          "internalType": "bytes32",
          "name": "s",
          "type": "bytes32"
        }
      ],
      "name": "ECDSAInvalidSignatureS",
      "type": "error"
    },
    {
      "inputs": [
        {
          "internalType": "address",
          "name": "implementation",
          "type": "address"
        }
      ],
      "name": "ERC1967InvalidImplementation",
      "type": "error"
    },
    {
      "inputs": [],
      "name": "ERC1967NonPayable",
      "type": "error"
    },
    {
      "inputs": [],
      "name": "FailedInnerCall",
      "type": "error"
    },
    {
      "inputs": [],
      "name": "InvalidInitialization",
      "type": "error"
    },
    {
      "inputs": [],
      "name": "NotInitializing",
      "type": "error"
    },
    {
      "inputs": [],
      "name": "RelayCallbackDepositTransferFailed",
      "type": "error"
    },
    {
      "inputs": [],
      "name": "RelayGatewayAlreadyExists",
      "type": "error"
    },
    {
      "inputs": [],
      "name": "RelayInsufficientCallbackDeposit",
      "type": "error"
    },
    {
      "inputs": [],
      "name": "RelayInsufficientMaxGasPrice",
      "type": "error"
    },
    {
      "inputs": [],
      "name": "RelayInsufficientUsdcDeposit",
      "type": "error"
    },
    {
      "inputs": [],
      "name": "RelayInvalidCurrentRuns",
      "type": "error"
    },
    {
      "inputs": [],
      "name": "RelayInvalidGateway",
      "type": "error"
    },
    {
      "inputs": [],
      "name": "RelayInvalidGlobalTimeouts",
      "type": "error"
    },
    {
      "inputs": [],
      "name": "RelayInvalidJobOwner",
      "type": "error"
    },
    {
      "inputs": [],
      "name": "RelayInvalidJobSubscription",
      "type": "error"
    },
    {
      "inputs": [],
      "name": "RelayInvalidSigner",
      "type": "error"
    },
    {
      "inputs": [],
      "name": "RelayInvalidTerminationTimestamp",
      "type": "error"
    },
    {
      "inputs": [],
      "name": "RelayInvalidToken",
      "type": "error"
    },
    {
      "inputs": [],
      "name": "RelayInvalidUserTimeout",
      "type": "error"
    },
    {
      "inputs": [],
      "name": "RelayJobNotExists",
      "type": "error"
    },
    {
      "inputs": [],
      "name": "RelayJobSubscriptionTerminated",
      "type": "error"
    },
    {
      "inputs": [],
      "name": "RelayNotJobSubscriptionOwner",
      "type": "error"
    },
    {
      "inputs": [],
      "name": "RelayOverallTimeoutNotOver",
      "type": "error"
    },
    {
      "inputs": [],
      "name": "RelayOverallTimeoutOver",
      "type": "error"
    },
    {
      "inputs": [],
      "name": "RelaySignatureTooOld",
      "type": "error"
    },
    {
      "inputs": [],
      "name": "RelayTerminationConditionPending",
      "type": "error"
    },
    {
      "inputs": [],
      "name": "RelayZeroAddressAdmin",
      "type": "error"
    },
    {
      "inputs": [
        {
          "internalType": "address",
          "name": "token",
          "type": "address"
        }
      ],
      "name": "SafeERC20FailedOperation",
      "type": "error"
    },
    {
      "inputs": [],
      "name": "UUPSUnauthorizedCallContext",
      "type": "error"
    },
    {
      "inputs": [
        {
          "internalType": "bytes32",
          "name": "slot",
          "type": "bytes32"
        }
      ],
      "name": "UUPSUnsupportedProxiableUUID",
      "type": "error"
    },
    {
      "anonymous": false,
      "inputs": [
        {
          "indexed": true,
          "internalType": "bytes32",
          "name": "imageId",
          "type": "bytes32"
        },
        {
          "indexed": false,
          "internalType": "bytes32",
          "name": "family",
          "type": "bytes32"
        }
      ],
      "name": "EnclaveImageAddedToFamily",
      "type": "event"
    },
    {
      "anonymous": false,
      "inputs": [
        {
          "indexed": true,
          "internalType": "bytes32",
          "name": "imageId",
          "type": "bytes32"
        },
        {
          "indexed": false,
          "internalType": "bytes32",
          "name": "family",
          "type": "bytes32"
        }
      ],
      "name": "EnclaveImageRemovedFromFamily",
      "type": "event"
    },
    {
      "anonymous": false,
      "inputs": [
        {
          "indexed": true,
          "internalType": "bytes32",
          "name": "imageId",
          "type": "bytes32"
        }
      ],
      "name": "EnclaveImageRevoked",
      "type": "event"
    },
    {
      "anonymous": false,
      "inputs": [
        {
          "indexed": true,
          "internalType": "bytes32",
          "name": "imageId",
          "type": "bytes32"
        },
        {
          "indexed": false,
          "internalType": "bytes",
          "name": "PCR0",
          "type": "bytes"
        },
        {
          "indexed": false,
          "internalType": "bytes",
          "name": "PCR1",
          "type": "bytes"
        },
        {
          "indexed": false,
          "internalType": "bytes",
          "name": "PCR2",
          "type": "bytes"
        }
      ],
      "name": "EnclaveImageWhitelisted",
      "type": "event"
    },
    {
      "anonymous": false,
      "inputs": [
        {
          "indexed": true,
          "internalType": "address",
          "name": "enclaveAddress",
          "type": "address"
        }
      ],
      "name": "EnclaveKeyRevoked",
      "type": "event"
    },
    {
      "anonymous": false,
      "inputs": [
        {
          "indexed": true,
          "internalType": "address",
          "name": "enclaveAddress",
          "type": "address"
        },
        {
          "indexed": true,
          "internalType": "bytes32",
          "name": "imageId",
          "type": "bytes32"
        },
        {
          "indexed": false,
          "internalType": "bytes",
          "name": "enclavePubKey",
          "type": "bytes"
        }
      ],
      "name": "EnclaveKeyVerified",
      "type": "event"
    },
    {
      "anonymous": false,
      "inputs": [
        {
          "indexed": true,
          "internalType": "address",
          "name": "enclaveAddress",
          "type": "address"
        },
        {
          "indexed": true,
          "internalType": "bytes32",
          "name": "imageId",
          "type": "bytes32"
        },
        {
          "indexed": false,
          "internalType": "bytes",
          "name": "enclavePubKey",
          "type": "bytes"
        }
      ],
      "name": "EnclaveKeyWhitelisted",
      "type": "event"
    },
    {
      "anonymous": false,
      "inputs": [
        {
          "indexed": true,
          "internalType": "address",
          "name": "enclaveAddress",
          "type": "address"
        }
      ],
      "name": "GatewayDeregistered",
      "type": "event"
    },
    {
      "anonymous": false,
      "inputs": [
        {
          "indexed": true,
          "internalType": "address",
          "name": "owner",
          "type": "address"
        },
        {
          "indexed": true,
          "internalType": "address",
          "name": "enclaveAddress",
          "type": "address"
        }
      ],
      "name": "GatewayRegistered",
      "type": "event"
    },
    {
      "anonymous": false,
      "inputs": [
        {
          "indexed": false,
          "internalType": "uint64",
          "name": "version",
          "type": "uint64"
        }
      ],
      "name": "Initialized",
      "type": "event"
    },
    {
      "anonymous": false,
      "inputs": [
        {
          "indexed": true,
          "internalType": "uint256",
          "name": "jobId",
          "type": "uint256"
        }
      ],
      "name": "JobCancelled",
      "type": "event"
    },
    {
      "anonymous": false,
      "inputs": [
        {
          "indexed": true,
          "internalType": "uint256",
          "name": "jobId",
          "type": "uint256"
        },
        {
          "indexed": false,
          "internalType": "bytes32",
          "name": "codehash",
          "type": "bytes32"
        },
        {
          "indexed": false,
          "internalType": "bytes",
          "name": "codeInputs",
          "type": "bytes"
        },
        {
          "indexed": false,
          "internalType": "uint256",
          "name": "userTimeout",
          "type": "uint256"
        },
        {
          "indexed": false,
          "internalType": "uint256",
          "name": "maxGasPrice",
          "type": "uint256"
        },
        {
          "indexed": false,
          "internalType": "uint256",
          "name": "usdcDeposit",
          "type": "uint256"
        },
        {
          "indexed": false,
          "internalType": "uint256",
          "name": "callbackDeposit",
          "type": "uint256"
        },
        {
          "indexed": false,
          "internalType": "address",
          "name": "refundAccount",
          "type": "address"
        },
        {
          "indexed": false,
          "internalType": "address",
          "name": "callbackContract",
          "type": "address"
        },
        {
          "indexed": false,
          "internalType": "uint256",
          "name": "startTime",
          "type": "uint256"
        },
        {
          "indexed": false,
          "internalType": "uint256",
          "name": "callbackGasLimit",
          "type": "uint256"
        }
      ],
      "name": "JobRelayed",
      "type": "event"
    },
    {
      "anonymous": false,
      "inputs": [
        {
          "indexed": true,
          "internalType": "uint256",
          "name": "jobId",
          "type": "uint256"
        },
        {
          "indexed": false,
          "internalType": "bytes",
          "name": "output",
          "type": "bytes"
        },
        {
          "indexed": false,
          "internalType": "uint256",
          "name": "totalTime",
          "type": "uint256"
        },
        {
          "indexed": false,
          "internalType": "uint256",
          "name": "errorCode",
          "type": "uint256"
        },
        {
          "indexed": false,
          "internalType": "bool",
          "name": "success",
          "type": "bool"
        }
      ],
      "name": "JobResponded",
      "type": "event"
    },
    {
      "anonymous": false,
      "inputs": [
        {
          "indexed": true,
          "internalType": "uint256",
          "name": "jobSubsId",
          "type": "uint256"
        },
        {
          "indexed": true,
          "internalType": "address",
          "name": "depositor",
          "type": "address"
        },
        {
          "indexed": false,
          "internalType": "uint256",
          "name": "usdcDeposit",
          "type": "uint256"
        },
        {
          "indexed": false,
          "internalType": "uint256",
          "name": "callbackDeposit",
          "type": "uint256"
        }
      ],
      "name": "JobSubscriptionFundsDeposited",
      "type": "event"
    },
    {
      "anonymous": false,
      "inputs": [
        {
          "indexed": true,
          "internalType": "uint256",
          "name": "jobSubsId",
          "type": "uint256"
        },
        {
          "indexed": true,
          "internalType": "address",
          "name": "withdrawer",
          "type": "address"
        },
        {
          "indexed": false,
          "internalType": "uint256",
          "name": "usdcAmountWithdrawn",
          "type": "uint256"
        },
        {
          "indexed": false,
          "internalType": "uint256",
          "name": "callbackAmountWithdrawn",
          "type": "uint256"
        },
        {
          "indexed": false,
          "internalType": "bool",
          "name": "success",
          "type": "bool"
        }
      ],
      "name": "JobSubscriptionFundsWithdrawn",
      "type": "event"
    },
    {
      "anonymous": false,
      "inputs": [
        {
          "indexed": true,
          "internalType": "uint256",
          "name": "jobSubsId",
          "type": "uint256"
        },
        {
          "indexed": false,
          "internalType": "bytes32",
          "name": "_codehash",
          "type": "bytes32"
        },
        {
          "indexed": false,
          "internalType": "bytes",
          "name": "_codeInputs",
          "type": "bytes"
        }
      ],
      "name": "JobSubscriptionJobParamsUpdated",
      "type": "event"
    },
    {
      "anonymous": false,
      "inputs": [
        {
          "indexed": true,
          "internalType": "uint256",
          "name": "jobSubsId",
          "type": "uint256"
        },
        {
          "indexed": false,
          "internalType": "bytes",
          "name": "output",
          "type": "bytes"
        },
        {
          "indexed": false,
          "internalType": "uint256",
          "name": "totalTime",
          "type": "uint256"
        },
        {
          "indexed": false,
          "internalType": "uint256",
          "name": "errorCode",
          "type": "uint256"
        },
        {
          "indexed": false,
          "internalType": "bool",
          "name": "success",
          "type": "bool"
        },
        {
          "indexed": false,
          "internalType": "uint256",
          "name": "currentRuns",
          "type": "uint256"
        },
        {
          "indexed": false,
          "internalType": "uint256",
          "name": "lastRunTimestamp",
          "type": "uint256"
        }
      ],
      "name": "JobSubscriptionResponded",
      "type": "event"
    },
    {
      "anonymous": false,
      "inputs": [
        {
          "indexed": true,
          "internalType": "uint256",
          "name": "jobSubsId",
          "type": "uint256"
        },
        {
          "indexed": true,
          "internalType": "address",
          "name": "jobSubscriber",
          "type": "address"
        },
        {
          "indexed": false,
          "internalType": "uint256",
          "name": "periodicGap",
          "type": "uint256"
        },
        {
          "indexed": false,
          "internalType": "uint256",
          "name": "usdcDeposit",
          "type": "uint256"
        },
        {
          "indexed": false,
          "internalType": "uint256",
          "name": "terminationTimestamp",
          "type": "uint256"
        },
        {
          "indexed": false,
          "internalType": "uint256",
          "name": "userTimeout",
          "type": "uint256"
        },
        {
          "indexed": false,
          "internalType": "address",
          "name": "refundAccount",
          "type": "address"
        },
        {
          "indexed": false,
          "internalType": "bytes32",
          "name": "codehash",
          "type": "bytes32"
        },
        {
          "indexed": false,
          "internalType": "bytes",
          "name": "codeInputs",
          "type": "bytes"
        },
        {
          "indexed": false,
          "internalType": "uint256",
          "name": "startTime",
          "type": "uint256"
        }
      ],
      "name": "JobSubscriptionStarted",
      "type": "event"
    },
    {
      "anonymous": false,
      "inputs": [
        {
          "indexed": true,
          "internalType": "uint256",
          "name": "jobSubsId",
          "type": "uint256"
        }
      ],
      "name": "JobSubscriptionTerminated",
      "type": "event"
    },
    {
      "anonymous": false,
      "inputs": [
        {
          "indexed": true,
          "internalType": "uint256",
          "name": "jobSubsId",
          "type": "uint256"
        },
        {
          "indexed": false,
          "internalType": "uint256",
          "name": "terminationTimestamp",
          "type": "uint256"
        }
      ],
      "name": "JobSubscriptionTerminationParamsUpdated",
      "type": "event"
    },
    {
      "anonymous": false,
      "inputs": [
        {
          "indexed": true,
          "internalType": "bytes32",
          "name": "role",
          "type": "bytes32"
        },
        {
          "indexed": true,
          "internalType": "bytes32",
          "name": "previousAdminRole",
          "type": "bytes32"
        },
        {
          "indexed": true,
          "internalType": "bytes32",
          "name": "newAdminRole",
          "type": "bytes32"
        }
      ],
      "name": "RoleAdminChanged",
      "type": "event"
    },
    {
      "anonymous": false,
      "inputs": [
        {
          "indexed": true,
          "internalType": "bytes32",
          "name": "role",
          "type": "bytes32"
        },
        {
          "indexed": true,
          "internalType": "address",
          "name": "account",
          "type": "address"
        },
        {
          "indexed": true,
          "internalType": "address",
          "name": "sender",
          "type": "address"
        }
      ],
      "name": "RoleGranted",
      "type": "event"
    },
    {
      "anonymous": false,
      "inputs": [
        {
          "indexed": true,
          "internalType": "bytes32",
          "name": "role",
          "type": "bytes32"
        },
        {
          "indexed": true,
          "internalType": "address",
          "name": "account",
          "type": "address"
        },
        {
          "indexed": true,
          "internalType": "address",
          "name": "sender",
          "type": "address"
        }
      ],
      "name": "RoleRevoked",
      "type": "event"
    },
    {
      "anonymous": false,
      "inputs": [
        {
          "indexed": true,
          "internalType": "address",
          "name": "implementation",
          "type": "address"
        }
      ],
      "name": "Upgraded",
      "type": "event"
    },
    {
      "inputs": [],
      "name": "ATTESTATION_MAX_AGE",
      "outputs": [
        {
          "internalType": "uint256",
          "name": "",
          "type": "uint256"
        }
      ],
      "stateMutability": "view",
      "type": "function"
    },
    {
      "inputs": [],
      "name": "ATTESTATION_VERIFIER",
      "outputs": [
        {
          "internalType": "contract IAttestationVerifier",
          "name": "",
          "type": "address"
        }
      ],
      "stateMutability": "view",
      "type": "function"
    },
    {
      "inputs": [],
      "name": "CALLBACK_MEASURE_GAS",
      "outputs": [
        {
          "internalType": "uint256",
          "name": "",
          "type": "uint256"
        }
      ],
      "stateMutability": "view",
      "type": "function"
    },
    {
      "inputs": [],
      "name": "DEFAULT_ADMIN_ROLE",
      "outputs": [
        {
          "internalType": "bytes32",
          "name": "",
          "type": "bytes32"
        }
      ],
      "stateMutability": "view",
      "type": "function"
    },
    {
      "inputs": [],
      "name": "EXECUTION_FEE_PER_MS",
      "outputs": [
        {
          "internalType": "uint256",
          "name": "",
          "type": "uint256"
        }
      ],
      "stateMutability": "view",
      "type": "function"
    },
    {
      "inputs": [],
      "name": "FIXED_GAS",
      "outputs": [
        {
          "internalType": "uint256",
          "name": "",
          "type": "uint256"
        }
      ],
      "stateMutability": "view",
      "type": "function"
    },
    {
      "inputs": [],
      "name": "GATEWAY_FEE_PER_JOB",
      "outputs": [
        {
          "internalType": "uint256",
          "name": "",
          "type": "uint256"
        }
      ],
      "stateMutability": "view",
      "type": "function"
    },
    {
      "inputs": [],
      "name": "GLOBAL_MAX_TIMEOUT",
      "outputs": [
        {
          "internalType": "uint256",
          "name": "",
          "type": "uint256"
        }
      ],
      "stateMutability": "view",
      "type": "function"
    },
    {
      "inputs": [],
      "name": "GLOBAL_MIN_TIMEOUT",
      "outputs": [
        {
          "internalType": "uint256",
          "name": "",
          "type": "uint256"
        }
      ],
      "stateMutability": "view",
      "type": "function"
    },
    {
      "inputs": [],
      "name": "OVERALL_TIMEOUT",
      "outputs": [
        {
          "internalType": "uint256",
          "name": "",
          "type": "uint256"
        }
      ],
      "stateMutability": "view",
      "type": "function"
    },
    {
      "inputs": [],
      "name": "TOKEN",
      "outputs": [
        {
          "internalType": "contract IERC20",
          "name": "",
          "type": "address"
        }
      ],
      "stateMutability": "view",
      "type": "function"
    },
    {
      "inputs": [],
      "name": "UPGRADE_INTERFACE_VERSION",
      "outputs": [
        {
          "internalType": "string",
          "name": "",
          "type": "string"
        }
      ],
      "stateMutability": "view",
      "type": "function"
    },
    {
      "inputs": [
        {
          "internalType": "uint256",
          "name": "_jobSubsId",
          "type": "uint256"
        },
        {
          "internalType": "uint256",
          "name": "_usdcDeposit",
          "type": "uint256"
        }
      ],
      "name": "depositJobSubscriptionFunds",
      "outputs": [],
      "stateMutability": "payable",
      "type": "function"
    },
    {
      "inputs": [
        {
          "internalType": "address",
          "name": "_enclaveAddress",
          "type": "address"
        }
      ],
      "name": "deregisterGateway",
      "outputs": [],
      "stateMutability": "nonpayable",
      "type": "function"
    },
    {
      "inputs": [
        {
          "internalType": "address",
          "name": "",
          "type": "address"
        }
      ],
      "name": "gatewayOwners",
      "outputs": [
        {
          "internalType": "address",
          "name": "",
          "type": "address"
        }
      ],
      "stateMutability": "view",
      "type": "function"
    },
    {
      "inputs": [
        {
          "internalType": "bytes32",
          "name": "role",
          "type": "bytes32"
        }
      ],
      "name": "getRoleAdmin",
      "outputs": [
        {
          "internalType": "bytes32",
          "name": "",
          "type": "bytes32"
        }
      ],
      "stateMutability": "view",
      "type": "function"
    },
    {
      "inputs": [
        {
          "internalType": "address",
          "name": "_key",
          "type": "address"
        }
      ],
      "name": "getVerifiedKey",
      "outputs": [
        {
          "internalType": "bytes32",
          "name": "",
          "type": "bytes32"
        }
      ],
      "stateMutability": "view",
      "type": "function"
    },
    {
      "inputs": [
        {
          "internalType": "bytes32",
          "name": "_imageId",
          "type": "bytes32"
        }
      ],
      "name": "getWhitelistedImage",
      "outputs": [
        {
          "components": [
            {
              "internalType": "bytes",
              "name": "PCR0",
              "type": "bytes"
            },
            {
              "internalType": "bytes",
              "name": "PCR1",
              "type": "bytes"
            },
            {
              "internalType": "bytes",
              "name": "PCR2",
              "type": "bytes"
            }
          ],
          "internalType": "struct AttestationAutherUpgradeable.EnclaveImage",
          "name": "",
          "type": "tuple"
        }
      ],
      "stateMutability": "view",
      "type": "function"
    },
    {
      "inputs": [
        {
          "internalType": "bytes32",
          "name": "role",
          "type": "bytes32"
        },
        {
          "internalType": "address",
          "name": "account",
          "type": "address"
        }
      ],
      "name": "grantRole",
      "outputs": [],
      "stateMutability": "nonpayable",
      "type": "function"
    },
    {
      "inputs": [
        {
          "internalType": "bytes32",
          "name": "role",
          "type": "bytes32"
        },
        {
          "internalType": "address",
          "name": "account",
          "type": "address"
        }
      ],
      "name": "hasRole",
      "outputs": [
        {
          "internalType": "bool",
          "name": "",
          "type": "bool"
        }
      ],
      "stateMutability": "view",
      "type": "function"
    },
    {
      "inputs": [
        {
          "internalType": "address",
          "name": "_admin",
          "type": "address"
        },
        {
          "components": [
            {
              "internalType": "bytes",
              "name": "PCR0",
              "type": "bytes"
            },
            {
              "internalType": "bytes",
              "name": "PCR1",
              "type": "bytes"
            },
            {
              "internalType": "bytes",
              "name": "PCR2",
              "type": "bytes"
            }
          ],
          "internalType": "struct AttestationAutherUpgradeable.EnclaveImage[]",
          "name": "_images",
          "type": "tuple[]"
        }
      ],
      "name": "initialize",
      "outputs": [],
      "stateMutability": "nonpayable",
      "type": "function"
    },
    {
      "inputs": [
        {
          "internalType": "bytes32",
          "name": "imageId",
          "type": "bytes32"
        },
        {
          "internalType": "bytes32",
          "name": "family",
          "type": "bytes32"
        }
      ],
      "name": "isImageInFamily",
      "outputs": [
        {
          "internalType": "bool",
          "name": "",
          "type": "bool"
        }
      ],
      "stateMutability": "view",
      "type": "function"
    },
    {
      "inputs": [
        {
          "internalType": "uint256",
          "name": "_jobId",
          "type": "uint256"
        }
      ],
      "name": "jobCancel",
      "outputs": [],
      "stateMutability": "nonpayable",
      "type": "function"
    },
    {
      "inputs": [],
      "name": "jobCount",
      "outputs": [
        {
          "internalType": "uint256",
          "name": "",
          "type": "uint256"
        }
      ],
      "stateMutability": "view",
      "type": "function"
    },
    {
      "inputs": [
        {
          "internalType": "bytes",
          "name": "_signature",
          "type": "bytes"
        },
        {
          "internalType": "uint256",
          "name": "_jobId",
          "type": "uint256"
        },
        {
          "internalType": "bytes",
          "name": "_output",
          "type": "bytes"
        },
        {
          "internalType": "uint256",
          "name": "_totalTime",
          "type": "uint256"
        },
        {
          "internalType": "uint8",
          "name": "_errorCode",
          "type": "uint8"
        },
        {
          "internalType": "uint256",
          "name": "_signTimestamp",
          "type": "uint256"
        }
      ],
      "name": "jobResponse",
      "outputs": [],
      "stateMutability": "nonpayable",
      "type": "function"
    },
    {
      "inputs": [],
      "name": "jobSubsCount",
      "outputs": [
        {
          "internalType": "uint256",
          "name": "",
          "type": "uint256"
        }
      ],
      "stateMutability": "view",
      "type": "function"
    },
    {
      "inputs": [
        {
          "internalType": "bytes",
          "name": "_signature",
          "type": "bytes"
        },
        {
          "internalType": "uint256",
          "name": "_jobId",
          "type": "uint256"
        },
        {
          "internalType": "bytes",
          "name": "_output",
          "type": "bytes"
        },
        {
          "internalType": "uint256",
          "name": "_totalTime",
          "type": "uint256"
        },
        {
          "internalType": "uint8",
          "name": "_errorCode",
          "type": "uint8"
        },
        {
          "internalType": "uint256",
          "name": "_signTimestamp",
          "type": "uint256"
        }
      ],
      "name": "jobSubsResponse",
      "outputs": [],
      "stateMutability": "nonpayable",
      "type": "function"
    },
    {
      "inputs": [
        {
          "internalType": "uint256",
          "name": "",
          "type": "uint256"
        }
      ],
      "name": "jobSubscriptions",
      "outputs": [
        {
          "internalType": "uint256",
          "name": "periodicGap",
          "type": "uint256"
        },
        {
          "internalType": "uint256",
          "name": "terminationTimestamp",
          "type": "uint256"
        },
        {
          "internalType": "uint256",
          "name": "currentRuns",
          "type": "uint256"
        },
        {
          "internalType": "uint256",
          "name": "lastRunTimestamp",
          "type": "uint256"
        },
        {
          "internalType": "uint256",
          "name": "userTimeout",
          "type": "uint256"
        },
        {
          "internalType": "address",
          "name": "refundAccount",
          "type": "address"
        },
        {
          "components": [
            {
              "internalType": "uint256",
              "name": "startTime",
              "type": "uint256"
            },
            {
              "internalType": "uint256",
              "name": "maxGasPrice",
              "type": "uint256"
            },
            {
              "internalType": "uint256",
              "name": "usdcDeposit",
              "type": "uint256"
            },
            {
              "internalType": "uint256",
              "name": "callbackDeposit",
              "type": "uint256"
            },
            {
              "internalType": "uint256",
              "name": "callbackGasLimit",
              "type": "uint256"
            },
            {
              "internalType": "address",
              "name": "jobOwner",
              "type": "address"
            },
            {
              "internalType": "address",
              "name": "callbackContract",
              "type": "address"
            },
            {
              "internalType": "bytes32",
              "name": "codehash",
              "type": "bytes32"
            },
            {
              "internalType": "bytes",
              "name": "codeInputs",
              "type": "bytes"
            }
          ],
          "internalType": "struct Relay.Job",
          "name": "job",
          "type": "tuple"
        }
      ],
      "stateMutability": "view",
      "type": "function"
    },
    {
      "inputs": [
        {
          "internalType": "uint256",
          "name": "",
          "type": "uint256"
        }
      ],
      "name": "jobs",
      "outputs": [
        {
          "internalType": "uint256",
          "name": "startTime",
          "type": "uint256"
        },
        {
          "internalType": "uint256",
          "name": "maxGasPrice",
          "type": "uint256"
        },
        {
          "internalType": "uint256",
          "name": "usdcDeposit",
          "type": "uint256"
        },
        {
          "internalType": "uint256",
          "name": "callbackDeposit",
          "type": "uint256"
        },
        {
          "internalType": "uint256",
          "name": "callbackGasLimit",
          "type": "uint256"
        },
        {
          "internalType": "address",
          "name": "jobOwner",
          "type": "address"
        },
        {
          "internalType": "address",
          "name": "callbackContract",
          "type": "address"
        },
        {
          "internalType": "bytes32",
          "name": "codehash",
          "type": "bytes32"
        },
        {
          "internalType": "bytes",
          "name": "codeInputs",
          "type": "bytes"
        }
      ],
      "stateMutability": "view",
      "type": "function"
    },
    {
      "inputs": [],
      "name": "proxiableUUID",
      "outputs": [
        {
          "internalType": "bytes32",
          "name": "",
          "type": "bytes32"
        }
      ],
      "stateMutability": "view",
      "type": "function"
    },
    {
      "inputs": [
        {
          "internalType": "bytes",
          "name": "_attestationSignature",
          "type": "bytes"
        },
        {
          "components": [
            {
              "internalType": "bytes",
              "name": "enclavePubKey",
              "type": "bytes"
            },
            {
              "internalType": "bytes",
              "name": "PCR0",
              "type": "bytes"
            },
            {
              "internalType": "bytes",
              "name": "PCR1",
              "type": "bytes"
            },
            {
              "internalType": "bytes",
              "name": "PCR2",
              "type": "bytes"
            },
            {
              "internalType": "uint256",
              "name": "timestampInMilliseconds",
              "type": "uint256"
            }
          ],
          "internalType": "struct IAttestationVerifier.Attestation",
          "name": "_attestation",
          "type": "tuple"
        },
        {
          "internalType": "bytes",
          "name": "_signature",
          "type": "bytes"
        },
        {
          "internalType": "uint256",
          "name": "_signTimestamp",
          "type": "uint256"
        }
      ],
      "name": "registerGateway",
      "outputs": [],
      "stateMutability": "nonpayable",
      "type": "function"
    },
    {
      "inputs": [
        {
          "internalType": "bytes32",
          "name": "_codehash",
          "type": "bytes32"
        },
        {
          "internalType": "bytes",
          "name": "_codeInputs",
          "type": "bytes"
        },
        {
          "internalType": "uint256",
          "name": "_userTimeout",
          "type": "uint256"
        },
        {
          "internalType": "uint256",
          "name": "_maxGasPrice",
          "type": "uint256"
        },
        {
          "internalType": "address",
          "name": "_refundAccount",
          "type": "address"
        },
        {
          "internalType": "address",
          "name": "_callbackContract",
          "type": "address"
        },
        {
          "internalType": "uint256",
          "name": "_callbackGasLimit",
          "type": "uint256"
        }
      ],
      "name": "relayJob",
      "outputs": [],
      "stateMutability": "payable",
      "type": "function"
    },
    {
      "inputs": [
        {
          "internalType": "bytes32",
          "name": "role",
          "type": "bytes32"
        },
        {
          "internalType": "address",
          "name": "callerConfirmation",
          "type": "address"
        }
      ],
      "name": "renounceRole",
      "outputs": [],
      "stateMutability": "nonpayable",
      "type": "function"
    },
    {
      "inputs": [
        {
          "internalType": "bytes32",
          "name": "imageId",
          "type": "bytes32"
        }
      ],
      "name": "revokeEnclaveImage",
      "outputs": [
        {
          "internalType": "bool",
          "name": "",
          "type": "bool"
        }
      ],
      "stateMutability": "nonpayable",
      "type": "function"
    },
    {
      "inputs": [
        {
          "internalType": "bytes32",
          "name": "role",
          "type": "bytes32"
        },
        {
          "internalType": "address",
          "name": "account",
          "type": "address"
        }
      ],
      "name": "revokeRole",
      "outputs": [],
      "stateMutability": "nonpayable",
      "type": "function"
    },
    {
      "inputs": [
        {
          "internalType": "bytes32",
          "name": "_codehash",
          "type": "bytes32"
        },
        {
          "internalType": "bytes",
          "name": "_codeInputs",
          "type": "bytes"
        },
        {
          "internalType": "uint256",
          "name": "_userTimeout",
          "type": "uint256"
        },
        {
          "internalType": "uint256",
          "name": "_maxGasPrice",
          "type": "uint256"
        },
        {
          "internalType": "address",
          "name": "_refundAccount",
          "type": "address"
        },
        {
          "internalType": "address",
          "name": "_callbackContract",
          "type": "address"
        },
        {
          "internalType": "uint256",
          "name": "_callbackGasLimit",
          "type": "uint256"
        },
        {
          "internalType": "uint256",
          "name": "_periodicGap",
          "type": "uint256"
        },
        {
          "internalType": "uint256",
          "name": "_usdcDeposit",
          "type": "uint256"
        },
        {
          "internalType": "uint256",
          "name": "_startTimestamp",
          "type": "uint256"
        },
        {
          "internalType": "uint256",
          "name": "_terminationTimestamp",
          "type": "uint256"
        }
      ],
      "name": "startJobSubscription",
      "outputs": [],
      "stateMutability": "payable",
      "type": "function"
    },
    {
      "inputs": [
        {
          "internalType": "bytes4",
          "name": "interfaceId",
          "type": "bytes4"
        }
      ],
      "name": "supportsInterface",
      "outputs": [
        {
          "internalType": "bool",
          "name": "",
          "type": "bool"
        }
      ],
      "stateMutability": "view",
      "type": "function"
    },
    {
      "inputs": [
        {
          "internalType": "uint256",
          "name": "_jobSubsId",
          "type": "uint256"
        }
      ],
      "name": "terminateJobSubscription",
      "outputs": [],
      "stateMutability": "nonpayable",
      "type": "function"
    },
    {
      "inputs": [
        {
          "internalType": "uint256",
          "name": "_jobSubsId",
          "type": "uint256"
        },
        {
          "internalType": "bytes32",
          "name": "_codehash",
          "type": "bytes32"
        },
        {
          "internalType": "bytes",
          "name": "_codeInputs",
          "type": "bytes"
        }
      ],
      "name": "updateJobSubsJobParams",
      "outputs": [],
      "stateMutability": "nonpayable",
      "type": "function"
    },
    {
      "inputs": [
        {
          "internalType": "uint256",
          "name": "_jobSubsId",
          "type": "uint256"
        },
        {
          "internalType": "uint256",
          "name": "_terminationTimestamp",
          "type": "uint256"
        },
        {
          "internalType": "uint256",
          "name": "_usdcDeposit",
          "type": "uint256"
        }
      ],
      "name": "updateJobSubsTerminationParams",
      "outputs": [],
      "stateMutability": "payable",
      "type": "function"
    },
    {
      "inputs": [
        {
          "internalType": "address",
          "name": "newImplementation",
          "type": "address"
        },
        {
          "internalType": "bytes",
          "name": "data",
          "type": "bytes"
        }
      ],
      "name": "upgradeToAndCall",
      "outputs": [],
      "stateMutability": "payable",
      "type": "function"
    },
    {
      "inputs": [
        {
          "internalType": "bytes",
          "name": "signature",
          "type": "bytes"
        },
        {
          "components": [
            {
              "internalType": "bytes",
              "name": "enclavePubKey",
              "type": "bytes"
            },
            {
              "internalType": "bytes",
              "name": "PCR0",
              "type": "bytes"
            },
            {
              "internalType": "bytes",
              "name": "PCR1",
              "type": "bytes"
            },
            {
              "internalType": "bytes",
              "name": "PCR2",
              "type": "bytes"
            },
            {
              "internalType": "uint256",
              "name": "timestampInMilliseconds",
              "type": "uint256"
            }
          ],
          "internalType": "struct IAttestationVerifier.Attestation",
          "name": "attestation",
          "type": "tuple"
        }
      ],
      "name": "verifyEnclaveKey",
      "outputs": [
        {
          "internalType": "bool",
          "name": "",
          "type": "bool"
        }
      ],
      "stateMutability": "nonpayable",
      "type": "function"
    },
    {
      "inputs": [
        {
          "internalType": "bytes",
          "name": "PCR0",
          "type": "bytes"
        },
        {
          "internalType": "bytes",
          "name": "PCR1",
          "type": "bytes"
        },
        {
          "internalType": "bytes",
          "name": "PCR2",
          "type": "bytes"
        }
      ],
      "name": "whitelistEnclaveImage",
      "outputs": [
        {
          "internalType": "bytes32",
          "name": "",
          "type": "bytes32"
        },
        {
          "internalType": "bool",
          "name": "",
          "type": "bool"
        }
      ],
      "stateMutability": "nonpayable",
      "type": "function"
    },
    {
      "inputs": [
        {
          "internalType": "uint256",
          "name": "_jobSubsId",
          "type": "uint256"
        }
      ],
      "name": "withdrawJobSubsFunds",
      "outputs": [],
      "stateMutability": "nonpayable",
      "type": "function"
    }
  ],
  "bytecode": "0x6101e06040523060805234801561001557600080fd5b5060405161635438038061635483398101604081905261003491610196565b6001600160a01b038a1660a05260c089905261004e6100cf565b6001600160a01b0388166100755760405163c844103f60e01b815260040160405180910390fd5b6001600160a01b03881660e0528587106100a15760405162fe194b60e31b815260040160405180910390fd5b61010096909652610120949094526101409290925261016052610180526101a0526101c0525061021f915050565b7ff0c57e16840df040f15088dc2f81fe391c3923bec73e23a9662efc9c229c6a00805468010000000000000000900460ff161561011f5760405163f92ee8a960e01b815260040160405180910390fd5b80546001600160401b039081161461017e5780546001600160401b0319166001600160401b0390811782556040519081527fc7f505b2f371ae2175ee4913f4499e1f2633a7b5936321eed1cdaeb6115181d29060200160405180910390a15b50565b6001600160a01b038116811461017e57600080fd5b6000806000806000806000806000806101408b8d0312156101b657600080fd5b8a516101c181610181565b60208c015160408d0151919b5099506101d981610181565b8098505060608b0151965060808b0151955060a08b0151945060c08b0151935060e08b015192506101008b015191506101208b015190509295989b9194979a5092959850565b60805160a05160c05160e05161010051610120516101405161016051610180516101a0516101c051615f906103c460003960008181610a5c01528181611a05015281816123c6015261377f0152600081816108d601528181611a26015281816123ea01528181612ec90152818161339301526137a301526000818161081701528181611abc0152818161245f015281816138230152818161423f015261454d01526000818161097e01528181611add01528181612483015281816138470152818161421c015261452a0152600081816105c70152818161176701528181611e2e01528181612da40152818161327301526135880152600081816109b20152818161158e01526122f50152600081816104200152818161156401526122cb0152600081816106f2015281816116d701528181611f4c015281816125dc0152818161367b01528181613b250152818161426a0152818161457801526145ae0152600081816107e3015281816129b101528181613daa0152613fd801526000818161090a0152612a4f015260008181612091015281816120ba01526122720152615f906000f3fe6080604052600436106102e75760003560e01c806369815e5711610184578063b9d546e0116100d6578063e27a70851161008a578063f398cc7411610064578063f398cc74146109f4578063f6a17fe314610a14578063fa3036bf14610a4a57600080fd5b8063e27a70851461096c578063e29fcdc5146109a0578063f2a9b01d146109d457600080fd5b8063cd79f906116100bb578063cd79f906146108f8578063d547741f1461092c578063debfc2f31461094c57600080fd5b8063b9d546e0146108a4578063bdb3a870146108c457600080fd5b806391d14854116101385780639bc27136116101125780639bc2713614610805578063a217fddf14610839578063ad3cb1cc1461084e57600080fd5b806391d148541461074c57806395c60294146107b15780639aec990e146107d157600080fd5b806375847b841161016957806375847b84146106c057806382bfefc8146106e05780638f8ce5f01461072c57600080fd5b806369815e57146106325780636b5b21a61461066757600080fd5b80632f2ff15d1161023d5780634f1ef286116101f15780635b65c460116101cb5780635b65c460146105e95780635c2c28e5146105ff5780636549bf481461061257600080fd5b80634f1ef2861461058d57806352d1902d146105a057806358a14ad2146105b557600080fd5b806339f811811161022257806339f811811461054457806346a9f6d2146105645780634c5d8a0f1461057757600080fd5b80632f2ff15d1461050457806336568abe1461052457600080fd5b80631e3708df1161029f578063248a9ca311610279578063248a9ca31461048257806326cacd6f146104d15780632eb39ee9146104e457600080fd5b80631e3708df1461040e5780631eb7efbe146104425780632410f6ba1461045557600080fd5b806304a11e96116102d057806304a11e961461038457806310d12e1f146103b7578063180aedf3146103d957600080fd5b806301d58fa3146102ec57806301ffc9a714610354575b600080fd5b3480156102f857600080fd5b50610341610307366004614de0565b6001600160a01b031660009081527fc17b4b708b6f44255c20913a9d97a05300b670342c71fe5ae5b617bd4db55001602052604090205490565b6040519081526020015b60405180910390f35b34801561036057600080fd5b5061037461036f366004614dfb565b610a7e565b604051901515815260200161034b565b34801561039057600080fd5b506103a461039f366004614e3d565b610a8f565b60405161034b9796959493929190614ea6565b3480156103c357600080fd5b506103d76103d2366004614fc2565b610bd0565b005b3480156103e557600080fd5b506103f96103f4366004614e3d565b610be2565b60405161034b99989796959493929190615015565b34801561041a57600080fd5b506103417f000000000000000000000000000000000000000000000000000000000000000081565b6103d7610450366004615077565b610cc4565b34801561046157600080fd5b50610475610470366004614e3d565b610ce7565b60405161034b919061512c565b34801561048e57600080fd5b5061034161049d366004614e3d565b60009081527f02dd7bc7dec4dceedda775e58dd541e08a116c6c53815c0bd028192f7b626800602052604090206001015490565b6103d76104df366004615184565b610f05565b3480156104f057600080fd5b506103d76104ff3660046152cc565b610f15565b34801561051057600080fd5b506103d761051f366004615424565b611128565b34801561053057600080fd5b506103d761053f366004615424565b61116c565b34801561055057600080fd5b506103d761055f366004614e3d565b6111b8565b6103d7610572366004615450565b6111c5565b34801561058357600080fd5b5061034160025481565b6103d761059b366004615472565b6111d3565b3480156105ac57600080fd5b506103416111ee565b3480156105c157600080fd5b506103417f000000000000000000000000000000000000000000000000000000000000000081565b3480156105f557600080fd5b5061034160045481565b6103d761060d3660046154c0565b61121d565b34801561061e57600080fd5b506103d761062d366004615608565b61122e565b34801561063e57600080fd5b5061065261064d36600461569b565b611243565b6040805192835290151560208301520161034b565b34801561067357600080fd5b50610374610682366004615450565b60009081527fc17b4b708b6f44255c20913a9d97a05300b670342c71fe5ae5b617bd4db5500260209081526040808320938352929052205460ff1690565b3480156106cc57600080fd5b506103746106db366004615735565b61131c565b3480156106ec57600080fd5b506107147f000000000000000000000000000000000000000000000000000000000000000081565b6040516001600160a01b03909116815260200161034b565b34801561073857600080fd5b506103d761074736600461578f565b61132f565b34801561075857600080fd5b50610374610767366004615424565b60009182527f02dd7bc7dec4dceedda775e58dd541e08a116c6c53815c0bd028192f7b626800602090815260408084206001600160a01b0393909316845291905290205460ff1690565b3480156107bd57600080fd5b506103746107cc366004614e3d565b611349565b3480156107dd57600080fd5b506103417f000000000000000000000000000000000000000000000000000000000000000081565b34801561081157600080fd5b506103417f000000000000000000000000000000000000000000000000000000000000000081565b34801561084557600080fd5b50610341600081565b34801561085a57600080fd5b506108976040518060400160405280600581526020017f352e302e3000000000000000000000000000000000000000000000000000000081525081565b60405161034b9190615835565b3480156108b057600080fd5b506103d76108bf366004614de0565b611367565b3480156108d057600080fd5b506103417f000000000000000000000000000000000000000000000000000000000000000081565b34801561090457600080fd5b506107147f000000000000000000000000000000000000000000000000000000000000000081565b34801561093857600080fd5b506103d7610947366004615424565b611371565b34801561095857600080fd5b506103d761096736600461578f565b6113b5565b34801561097857600080fd5b506103417f000000000000000000000000000000000000000000000000000000000000000081565b3480156109ac57600080fd5b506103417f000000000000000000000000000000000000000000000000000000000000000081565b3480156109e057600080fd5b506103d76109ef366004614e3d565b6113c5565b348015610a0057600080fd5b506103d7610a0f366004614e3d565b6113cf565b348015610a2057600080fd5b50610714610a2f366004614de0565b6000602081905290815260409020546001600160a01b031681565b348015610a5657600080fd5b506103417f000000000000000000000000000000000000000000000000000000000000000081565b6000610a89826113d9565b92915050565b6003602081815260009283526040928390208054600182015460028301549483015460048401546005850154885161012081018a526006870180548252600788015498820198909852600887015499810199909952600986015460608a0152600a86015460808a0152600b8601546001600160a01b0390811660a08b0152600c870154811660c08b0152600d87015460e08b0152600e87018054969a959998949793969190921694929391610100840191610b4990615848565b80601f0160208091040260200160405190810160405280929190818152602001828054610b7590615848565b8015610bc25780601f10610b9757610100808354040283529160200191610bc2565b820191906000526020600020905b815481529060010190602001808311610ba557829003601f168201915b505050505081525050905087565b610bdc84848484611470565b50505050565b600160208190526000918252604090912080549181015460028201546003830154600484015460058501546006860154600787015460088801805497989697959694956001600160a01b039485169594909316939192610c4190615848565b80601f0160208091040260200160405190810160405280929190818152602001828054610c6d90615848565b8015610cba5780601f10610c8f57610100808354040283529160200191610cba565b820191906000526020600020905b815481529060010190602001808311610c9d57829003601f168201915b5050505050905089565b610cd98c8c8c8c8c8c8c8c8c8c8c8c33611529565b505050505050505050505050565b610d0b60405180606001604052806060815260200160608152602001606081525090565b60008281527fc17b4b708b6f44255c20913a9d97a05300b670342c71fe5ae5b617bd4db550006020819052604091829020825160608101909352805491929182908290610d5790615848565b80601f0160208091040260200160405190810160405280929190818152602001828054610d8390615848565b8015610dd05780601f10610da557610100808354040283529160200191610dd0565b820191906000526020600020905b815481529060010190602001808311610db357829003601f168201915b50505050508152602001600182018054610de990615848565b80601f0160208091040260200160405190810160405280929190818152602001828054610e1590615848565b8015610e625780601f10610e3757610100808354040283529160200191610e62565b820191906000526020600020905b815481529060010190602001808311610e4557829003601f168201915b50505050508152602001600282018054610e7b90615848565b80601f0160208091040260200160405190810160405280929190818152602001828054610ea790615848565b8015610ef45780601f10610ec957610100808354040283529160200191610ef4565b820191906000526020600020905b815481529060010190602001808311610ed757829003601f168201915b505050505081525050915050919050565b610f1083838361170f565b505050565b7ff0c57e16840df040f15088dc2f81fe391c3923bec73e23a9662efc9c229c6a00805468010000000000000000810460ff16159067ffffffffffffffff16600081158015610f605750825b905060008267ffffffffffffffff166001148015610f7d5750303b155b905081158015610f8b575080155b15610fc2576040517ff92ee8a900000000000000000000000000000000000000000000000000000000815260040160405180910390fd5b84547fffffffffffffffffffffffffffffffffffffffffffffffff000000000000000016600117855583156110235784547fffffffffffffffffffffffffffffffffffffffffffffff00ffffffffffffffff16680100000000000000001785555b6001600160a01b038716611063576040517f30a7a37f00000000000000000000000000000000000000000000000000000000815260040160405180910390fd5b61106b611bbb565b611073611bbb565b61107b611bbb565b611083611bbb565b61108c86611bc5565b611097600088611c05565b504660c01b60028190557780000000000000000000000000000000000000000000000017600455831561111f5784547fffffffffffffffffffffffffffffffffffffffffffffff00ffffffffffffffff168555604051600181527fc7f505b2f371ae2175ee4913f4499e1f2633a7b5936321eed1cdaeb6115181d29060200160405180910390a15b50505050505050565b60008281527f02dd7bc7dec4dceedda775e58dd541e08a116c6c53815c0bd028192f7b626800602052604090206001015461116281611cf2565b610bdc8383611c05565b6001600160a01b03811633146111ae576040517f6697b23200000000000000000000000000000000000000000000000000000000815260040160405180910390fd5b610f108282611cfc565b6111c28133611dc0565b50565b6111cf828261202b565b5050565b6111db612086565b6111e482612156565b6111cf8282612161565b60006111f8612267565b507f360894a13ba1a3210667c828492db98dca3e2076cc3735a920a3ca505d382bbc90565b61111f8787878734888888336122c9565b61123c85858585853361265c565b5050505050565b6000808061125081611cf2565b6040805160806020601f8c018190040282018101909252606081018a815261130c928291908d908d9081908501838280828437600092019190915250505090825250604080516020601f8c018190048102820181019092528a815291810191908b908b9081908401838280828437600092019190915250505090825250604080516020601f8a0181900481028201810190925288815291810191908990899081908401838280828437600092019190915250505091525061274e565b9250925050965096945050505050565b600061132883836128f6565b9392505050565b61133f8888888888888888612b5a565b5050505050505050565b60008061135581611cf2565b61135e83612f81565b91505b50919050565b6111c28133613038565b60008281527f02dd7bc7dec4dceedda775e58dd541e08a116c6c53815c0bd028192f7b62680060205260409020600101546113ab81611cf2565b610bdc8383611cfc565b61133f888888888888888861311b565b6111c28133613448565b6111c28133613529565b60007fffffffff0000000000000000000000000000000000000000000000000000000082167f7965db0b000000000000000000000000000000000000000000000000000000001480610a8957507f01ffc9a7000000000000000000000000000000000000000000000000000000007fffffffff00000000000000000000000000000000000000000000000000000000831614610a89565b6000848152600360205260409020600b01546001600160a01b031633146114c3576040517f6410534900000000000000000000000000000000000000000000000000000000815260040160405180910390fd5b6000848152600360205260409020600d8101849055600e016114e68284836158dd565b50837f67cca598521e82ef0d9258a1aa68c73e39a1378e9b11f4fd23e9207ed7426d6684848460405161151b93929190615a04565b60405180910390a250505050565b428211611562576040517f1cce145000000000000000000000000000000000000000000000000000000000815260040160405180910390fd5b7f00000000000000000000000000000000000000000000000000000000000000008a1115806115b157507f00000000000000000000000000000000000000000000000000000000000000008a10155b156115e8576040517f445e056c00000000000000000000000000000000000000000000000000000000815260040160405180910390fd5b3a891015611622576040517f4d8e7c6200000000000000000000000000000000000000000000000000000000815260040160405180910390fd5b6116318a8a8888888888613762565b60006040518061012001604052808581526020018b8152602001868152602001348152602001888152602001836001600160a01b03168152602001896001600160a01b031681526020018f81526020018e8e8080601f016020809104026020016040519081016040528093929190818152602001838380828437600092019190915250505091525090506116ca818c8b898888886138c7565b6116ff6001600160a01b037f000000000000000000000000000000000000000000000000000000000000000016833088613aa4565b5050505050505050505050505050565b6000838152600360205260409020600b01546001600160a01b03163314611762576040517f6410534900000000000000000000000000000000000000000000000000000000815260040160405180910390fd5b61178c7f000000000000000000000000000000000000000000000000000000000000000042615a4d565b82116117c4576040517f1cce145000000000000000000000000000000000000000000000000000000000815260040160405180910390fd5b60008381526003602052604090206001015442111561180f576040517fc765c9c000000000000000000000000000000000000000000000000000000000815260040160405180910390fd5b6118198382613b20565b6000600360008581526020019081526020016000206040518060e001604052908160008201548152602001600182015481526020016002820154815260200160038201548152602001600482015481526020016005820160009054906101000a90046001600160a01b03166001600160a01b03166001600160a01b03168152602001600682016040518061012001604052908160008201548152602001600182015481526020016002820154815260200160038201548152602001600482015481526020016005820160009054906101000a90046001600160a01b03166001600160a01b03166001600160a01b031681526020016006820160009054906101000a90046001600160a01b03166001600160a01b03166001600160a01b031681526020016007820154815260200160088201805461195590615848565b80601f016020809104026020016040519081016040528092919081815260200182805461198190615848565b80156119ce5780601f106119a3576101008083540402835291602001916119ce565b820191906000526020600020905b8154815290600101906020018083116119b157829003601f168201915b5050509190925250505090525080519091506000906119ed4286615a60565b6119f79190615a73565b90508160c0015160600151817f00000000000000000000000000000000000000000000000000000000000000007f00000000000000000000000000000000000000000000000000000000000000008560c0015160800151611a589190615a4d565b611a629190615a4d565b8460c0015160200151611a759190615aae565b611a7f9190615aae565b1115611ab7576040517f7273245b00000000000000000000000000000000000000000000000000000000815260040160405180910390fd5b6000817f00000000000000000000000000000000000000000000000000000000000000007f00000000000000000000000000000000000000000000000000000000000000008560800151611b0b9190615aae565b611b159190615a4d565b611b1f9190615aae565b9050808360c00151604001511015611b63576040517fc3274e9900000000000000000000000000000000000000000000000000000000815260040160405180910390fd5b600086815260036020526040908190206001018690555186907fe3d85a74b6d91487b5aecc2a9740a541debf4a95ac1c5c8f7bc285e06fdfab2b90611bab9088815260200190565b60405180910390a2505050505050565b611bc3613be1565b565b611bcd613be1565b60005b81518110156111cf57611bfb828281518110611bee57611bee615ac5565b602002602001015161274e565b5050600101611bd0565b60008281527f02dd7bc7dec4dceedda775e58dd541e08a116c6c53815c0bd028192f7b626800602081815260408084206001600160a01b038616855290915282205460ff16611ce8576000848152602082815260408083206001600160a01b0387168452909152902080547fffffffffffffffffffffffffffffffffffffffffffffffffffffffffffffff00166001179055611c9e3390565b6001600160a01b0316836001600160a01b0316857f2f8788117e7eff1d82e926ec794901d17c78024a50270940304540a733656f0d60405160405180910390a46001915050610a89565b6000915050610a89565b6111c28133613c48565b60008281527f02dd7bc7dec4dceedda775e58dd541e08a116c6c53815c0bd028192f7b626800602081815260408084206001600160a01b038616855290915282205460ff1615611ce8576000848152602082815260408083206001600160a01b038716808552925280832080547fffffffffffffffffffffffffffffffffffffffffffffffffffffffffffffff0016905551339287917ff6391f5c32d9c69d2a47ea670b442974b53935d1edc7fd64eb21e047a839171b9190a46001915050610a89565b6000828152600360205260409020600b01546001600160a01b03828116911614611e16576040517f6410534900000000000000000000000000000000000000000000000000000000815260040160405180910390fd5b600082815260036020526040902060010154611e53907f000000000000000000000000000000000000000000000000000000000000000090615a4d565b4211611e8b576040517fdd1cd23800000000000000000000000000000000000000000000000000000000815260040160405180910390fd5b600082815260036020819052604082206008810180546009830180548685556001850187905560028501879055948401869055600484018690556005840180547fffffffffffffffffffffffff000000000000000000000000000000000000000090811690915560068501878155600786018890559387905590869055600a8401869055600b8401805482169055600c840180549091169055600d8301859055939081611f3b600e850182614d76565b50611f759250506001600160a01b037f00000000000000000000000000000000000000000000000000000000000000001690508484613cd5565b6000836001600160a01b03168260405160006040518083038185875af1925050503d8060008114611fc2576040519150601f19603f3d011682016040523d82523d6000602084013e611fc7565b606091505b50509050836001600160a01b0316857f69226f5ca59c55570cd38107d930b90739a5031ee32fbc38cf08dd132354465a85858560405161201c9392919092835260208301919091521515604082015260600190565b60405180910390a35050505050565b6000828152600360205260409020600b01546001600160a01b031661207c576040517fabf8b83700000000000000000000000000000000000000000000000000000000815260040160405180910390fd5b6111cf8282613b20565b306001600160a01b037f000000000000000000000000000000000000000000000000000000000000000016148061211f57507f00000000000000000000000000000000000000000000000000000000000000006001600160a01b03166121137f360894a13ba1a3210667c828492db98dca3e2076cc3735a920a3ca505d382bbc546001600160a01b031690565b6001600160a01b031614155b15611bc3576040517fe07c8dba00000000000000000000000000000000000000000000000000000000815260040160405180910390fd5b60006111cf81611cf2565b816001600160a01b03166352d1902d6040518163ffffffff1660e01b8152600401602060405180830381865afa9250505080156121bb575060408051601f3d908101601f191682019092526121b891810190615af4565b60015b612201576040517f4c9c8ce30000000000000000000000000000000000000000000000000000000081526001600160a01b03831660048201526024015b60405180910390fd5b7f360894a13ba1a3210667c828492db98dca3e2076cc3735a920a3ca505d382bbc811461225d576040517faa1d49a4000000000000000000000000000000000000000000000000000000008152600481018290526024016121f8565b610f108383613d06565b306001600160a01b037f00000000000000000000000000000000000000000000000000000000000000001614611bc3576040517fe07c8dba00000000000000000000000000000000000000000000000000000000815260040160405180910390fd5b7f00000000000000000000000000000000000000000000000000000000000000008711158061231857507f00000000000000000000000000000000000000000000000000000000000000008710155b1561234f576040517f445e056c00000000000000000000000000000000000000000000000000000000815260040160405180910390fd5b6002544660c01b77800000000000000000000000000000000000000000000000179061237c906001615a4d565b03612389574660c01b6002555b3a8610156123c3576040517f4d8e7c6200000000000000000000000000000000000000000000000000000000815260040160405180910390fd5b847f000000000000000000000000000000000000000000000000000000000000000061240f7f000000000000000000000000000000000000000000000000000000000000000085615a4d565b6124199190615a4d565b6124239088615aae565b111561245b576040517f7273245b00000000000000000000000000000000000000000000000000000000815260040160405180910390fd5b60007f00000000000000000000000000000000000000000000000000000000000000006124a87f00000000000000000000000000000000000000000000000000000000000000008a615aae565b6124b29190615a4d565b9050604051806101200160405280428152602001888152602001828152602001878152602001848152602001836001600160a01b03168152602001856001600160a01b031681526020018b81526020018a8152506001600060026000815461251990615b0d565b918290555081526020808201929092526040908101600020835181559183015160018301558201516002820155606082015160038201556080820151600482015560a08201516005820180546001600160a01b039283167fffffffffffffffffffffffff00000000000000000000000000000000000000009182161790915560c084015160068401805491909316911617905560e0820151600782015561010082015160088201906125cb9082615b45565b506126049150506001600160a01b037f000000000000000000000000000000000000000000000000000000000000000016833084613aa4565b6002547f3b08b298012c416f3edcaa89a6a04489e9f3a2e2b189b7fd5f2864da3a740f9a8b8b8b8b868c8c8c428d6040516126489a99989796959493929190615c41565b60405180910390a250505050505050505050565b61266686866128f6565b5060006126768660000151613d5c565b90506126858284878785613da5565b6001600160a01b0381811660009081526020819052604090205416156126d7576040517ffd764a3900000000000000000000000000000000000000000000000000000000815260040160405180910390fd5b6001600160a01b0381811660008181526020819052604080822080547fffffffffffffffffffffffff0000000000000000000000000000000000000000169487169485179055519192917f95f86f0783d4494f76a6aeaa178c399f2c6a140aa3e88d39f056b00f460d359a9190a350505050505050565b80515160009081907fc17b4b708b6f44255c20913a9d97a05300b670342c71fe5ae5b617bd4db5500090603014801561278c57508360200151516030145b801561279d57508360400151516030145b6127d3576040517f84c61bb600000000000000000000000000000000000000000000000000000000815260040160405180910390fd5b60008460000151856020015186604001516040516020016127f693929190615ca6565b60408051601f198184030181529181528151602092830120600081815292859052912080549192509061282890615848565b15905061283a57946000945092505050565b604080516060810182528651815260208088015181830152878301518284015260008481529085905291909120815181906128759082615b45565b506020820151600182019061288a9082615b45565b506040820151600282019061289f9082615b45565b50905050807f52b29bbdd97ab983419f50fa1590e5ab75e9942279e95e10a08607b06c23238b8660000151876020015188604001516040516128e393929190615ce9565b60405180910390a2946001945092505050565b6000807fc17b4b708b6f44255c20913a9d97a05300b670342c71fe5ae5b617bd4db550009050600083602001518460400151856060015160405160200161293f93929190615ca6565b60408051601f198184030181529181528151602092830120600081815292859052912080549192509061297190615848565b90506000036129ac576040517f38c4ac1600000000000000000000000000000000000000000000000000000000815260040160405180910390fd5b6129d67f000000000000000000000000000000000000000000000000000000000000000042615a60565b6103e885608001516129e89190615a73565b11612a1f576040517f19605e0a00000000000000000000000000000000000000000000000000000000815260040160405180910390fd5b6040517feac708a30000000000000000000000000000000000000000000000000000000081526001600160a01b037f0000000000000000000000000000000000000000000000000000000000000000169063eac708a390612a869088908890600401615d22565b60006040518083038186803b158015612a9e57600080fd5b505afa158015612ab2573d6000803e3d6000fd5b505050506000612ac58560000151613d5c565b6001600160a01b038116600090815260018501602052604090205490915015612af45760009350505050610a89565b6001600160a01b038116600081815260018501602052604090819020849055865190518492917fbb4d6428d53ea924d94be0488473deb5c0a70c979f8477d21911cb5bee4037fd91612b469190615835565b60405180910390a350600195945050505050565b6000607f87901c67ffffffffffffffff1690506000600360008381526020019081526020016000206040518060e001604052908160008201548152602001600182015481526020016002820154815260200160038201548152602001600482015481526020016005820160009054906101000a90046001600160a01b03166001600160a01b03166001600160a01b03168152602001600682016040518061012001604052908160008201548152602001600182015481526020016002820154815260200160038201548152602001600482015481526020016005820160009054906101000a90046001600160a01b03166001600160a01b03166001600160a01b031681526020016006820160009054906101000a90046001600160a01b03166001600160a01b03166001600160a01b0316815260200160078201548152602001600882018054612ca990615848565b80601f0160208091040260200160405190810160405280929190818152602001828054612cd590615848565b8015612d225780601f10612cf757610100808354040283529160200191612d22565b820191906000526020600020905b815481529060010190602001808311612d0557829003601f168201915b5050509190925250505090525060c081015160a001519091506001600160a01b0316612d7a576040517fabf8b83700000000000000000000000000000000000000000000000000000000815260040160405180910390fd5b80516040820151600091612d8d91615aae565b60c083015151612d9d9190615a4d565b9050612dc97f000000000000000000000000000000000000000000000000000000000000000082615a4d565b421115612e02576040517f159413f400000000000000000000000000000000000000000000000000000000815260040160405180910390fd5b60408201516f7fffffffffffffffffffffffffffffff8a1690811015612e54576040517f3e5bff3800000000000000000000000000000000000000000000000000000000815260040160405180910390fd5b6000612e668d8d8d8d8d8d8d8d613fd1565b9050612e73826001615a4d565b60008681526003602081905260409182902060028101939093554292019190915560c08501510151612ea89082908a90614200565b600080612ebc878760c001518e8e8d6142ae565b909250905060003a612eee7f000000000000000000000000000000000000000000000000000000000000000084615a4d565b612ef89190615aae565b6001600160a01b0380861660009081526020819052604090205460c08a015160600151929350612f2b92911690836143c2565b877f4177b56b43bdfa0b78d2a3c937d3d9b43803c0707df626aaa31235a3b6d2b8f38e8e8e8e888b42604051612f679796959493929190615db6565b60405180910390a250505050505050505050505050505050565b60008181527fc17b4b708b6f44255c20913a9d97a05300b670342c71fe5ae5b617bd4db550006020819052604082208054612fbb90615848565b9050600003612fcd5750600092915050565b600083815260208290526040812090612fe68282614d76565b612ff4600183016000614d76565b613002600283016000614d76565b505060405183907f4b71bedda4217966eac1aa49e35b1550e5ab87064ae179d1b36b393bd04eb74390600090a250600192915050565b6001600160a01b0382811660009081526020819052604090205481169082161461308e576040517f07191dbf00000000000000000000000000000000000000000000000000000000815260040160405180910390fd5b6001600160a01b038083166000908152602081905260409020546130b2911661445b565b506001600160a01b03821660008181526020819052604080822080547fffffffffffffffffffffffff0000000000000000000000000000000000000000169055517f962f6082057b3b4fb251973bd737c7707bf1733cf85a0b7c86fd6c3caca260c59190a25050565b6000868152600160208181526040808420815161012081018352815481529381015492840192909252600282015490830152600381015460608301526004810154608083015260058101546001600160a01b0390811660a084015260068201541660c0830152600781015460e0830152600881018054610100840191906131a190615848565b80601f01602080910402602001604051908101604052809291908181526020018280546131cd90615848565b801561321a5780601f106131ef5761010080835404028352916020019161321a565b820191906000526020600020905b8154815290600101906020018083116131fd57829003601f168201915b5050509190925250505060a08101519091506001600160a01b031661326b576040517f9da0635900000000000000000000000000000000000000000000000000000000815260040160405180910390fd5b8051613298907f000000000000000000000000000000000000000000000000000000000000000090615a4d565b4211156132d1576040517f159413f400000000000000000000000000000000000000000000000000000000815260040160405180910390fd5b60006132e38a8a8a8a8a8a8a8a613fd1565b600089815260016020819052604082208281559081018290556002810182905560038101829055600481018290556005810180547fffffffffffffffffffffffff00000000000000000000000000000000000000009081169091556006820180549091169055600781018290559192506133606008830182614d76565b5050613376818360a0015187856040015161450e565b6000806133868a858b8b8a6142ae565b909250905060003a6133b87f000000000000000000000000000000000000000000000000000000000000000084615a4d565b6133c29190615aae565b6001600160a01b0380861660009081526020819052604090205460a088015160608901519394506133f993919092169190846145dd565b8a7f3bcf275077501f1077e75b4e70896bf241dc8cbeec71823201ef711cfc454ea18b8b8b8b88604051613431959493929190615df7565b60405180910390a250505050505050505050505050565b6000828152600360205260409020600b01546001600160a01b0382811691161461349e576040517f6410534900000000000000000000000000000000000000000000000000000000815260040160405180910390fd5b6000828152600360205260409020600101544211156134e9576040517fc765c9c000000000000000000000000000000000000000000000000000000000815260040160405180910390fd5b600082815260036020526040808220426001909101555183917f74316243c2e2fb2f84ee7bf4750a4499d76e9a6d59d64d193e4234372f5e2c2191a25050565b600082815260016020526040902060058101546001600160a01b03838116911614613580576040517f8166e98400000000000000000000000000000000000000000000000000000000815260040160405180910390fd5b80546135ad907f000000000000000000000000000000000000000000000000000000000000000090615a4d565b42116135e5576040517fd856047b00000000000000000000000000000000000000000000000000000000815260040160405180910390fd5b60038082015460028084015460008781526001602081905260408220828155908101829055928301819055938201849055600482018490556005820180547fffffffffffffffffffffffff0000000000000000000000000000000000000000908116909155600683018054909116905560078201849055919261366b6008830182614d76565b506136a290506001600160a01b037f0000000000000000000000000000000000000000000000000000000000000000168583613cd5565b6000846001600160a01b03168360405160006040518083038185875af1925050503d80600081146136ef576040519150601f19603f3d011682016040523d82523d6000602084013e6136f4565b606091505b505090508061372f576040517ffbe8c5be00000000000000000000000000000000000000000000000000000000815260040160405180910390fd5b60405186907f58243f872c550ad02802199ade99eb4250f6bb19e9abbf2d3de7b969c0eb5e4f90600090a2505050505050565b60008461376f8484615a60565b6137799190615a73565b905034817f00000000000000000000000000000000000000000000000000000000000000006137c87f00000000000000000000000000000000000000000000000000000000000000008a615a4d565b6137d29190615a4d565b6137dc908a615aae565b6137e69190615aae565b111561381e576040517f7273245b00000000000000000000000000000000000000000000000000000000815260040160405180910390fd5b6000817f000000000000000000000000000000000000000000000000000000000000000061386c7f00000000000000000000000000000000000000000000000000000000000000008c615aae565b6138769190615a4d565b6138809190615aae565b9050808510156138bc576040517fc3274e9900000000000000000000000000000000000000000000000000000000815260040160405180910390fd5b505050505050505050565b6138cf614695565b6040518060e001604052808581526020018381526020016000815260200160008152602001878152602001866001600160a01b0316815260200188815250600360006004548152602001908152602001600020600082015181600001556020820151816001015560408201518160020155606082015181600301556080820151816004015560a08201518160050160006101000a8154816001600160a01b0302191690836001600160a01b0316021790555060c082015181600601600082015181600001556020820151816001015560408201518160020155606082015181600301556080820151816004015560a08201518160050160006101000a8154816001600160a01b0302191690836001600160a01b0316021790555060c08201518160060160006101000a8154816001600160a01b0302191690836001600160a01b0316021790555060e08201518160070155610100820151816008019081613a369190615b45565b505050905050806001600160a01b03166004547f4a8b714796e387ac5742bdfeb3278d2e5ff8fe58ec4bbdf13020711f7c9c1fd2868a60400151868b8b8e60e001518f61010001518c604051613a93989796959493929190615e2d565b60405180910390a350505050505050565b6040516001600160a01b038481166024830152838116604483015260648201839052610bdc9186918216906323b872dd906084015b604051602081830303815290604052915060e01b6020820180517bffffffffffffffffffffffffffffffffffffffffffffffffffffffff83818316178352505050506146fa565b613b557f00000000000000000000000000000000000000000000000000000000000000006001600160a01b0316333084613aa4565b60008281526003602052604081206008018054839290613b76908490615a4d565b909155505060008281526003602052604081206009018054349290613b9c908490615a4d565b909155505060408051828152346020820152339184917fe302ecb735de589d160f2840a80e52229c6d153f4e9d0c8bf81832eda174243c910160405180910390a35050565b7ff0c57e16840df040f15088dc2f81fe391c3923bec73e23a9662efc9c229c6a005468010000000000000000900460ff16611bc3576040517fd7e6bcf800000000000000000000000000000000000000000000000000000000815260040160405180910390fd5b60008281527f02dd7bc7dec4dceedda775e58dd541e08a116c6c53815c0bd028192f7b626800602090815260408083206001600160a01b038516845290915290205460ff166111cf576040517fe2517d3f0000000000000000000000000000000000000000000000000000000081526001600160a01b0382166004820152602481018390526044016121f8565b6040516001600160a01b03838116602483015260448201839052610f1091859182169063a9059cbb90606401613ad9565b613d0f82614776565b6040516001600160a01b038316907fbc7cd75a20ee27fd9adebab32041f755214dbc6bffa90cc0225b39da2e5c2d3b90600090a2805115613d5457610f10828261481e565b6111cf614894565b60008151604014613d99576040517fbd9c80c100000000000000000000000000000000000000000000000000000000815260040160405180910390fd5b50805160209091012090565b613dcf7f000000000000000000000000000000000000000000000000000000000000000085615a4d565b421115613e08576040517f0a151d0b00000000000000000000000000000000000000000000000000000000815260040160405180910390fd5b604080517f5f8784d207b73e6da533ec436e4e68df897ada404898707128cf43ddf65f7a186020808301919091526001600160a01b038816828401526060808301889052835180840390910181526080830184528051908201207fb03948446334eb9b2196d5eb166f69b9d49403eb4a12f36de8d3f9f3cb8e15c360a08401527fd13b7bcdea8dd87e8f9a0d206dc73d6264326a7f9f4c38119298bb466e785c5360c08401527fc89efdaa54c0f20c7adf612882df0950f5a951637e0307cdcb4c672f298b8bc660e08085019190915284518085039091018152610100840185528051908301207f1901000000000000000000000000000000000000000000000000000000000000610120850152610122840152610142808401829052845180850390910181526101628401808652815191840191909120610182601f890185900490940285018401909552868152909392600092613f8492918991899182910183828082843760009201919091525086939250506148cc9050565b9050836001600160a01b0316816001600160a01b03161461133f576040517ff5b2592500000000000000000000000000000000000000000000000000000000815260040160405180910390fd5b6000613ffd7f000000000000000000000000000000000000000000000000000000000000000083615a4d565b421115614036576040517f0a151d0b00000000000000000000000000000000000000000000000000000000815260040160405180910390fd5b60007f37096cd2491f9c5ef86ecee2c1b7a06103393df9e824c16fab6722c818bd43ef88888860405161406a929190615e84565b60408051918290038220602083019490945281019190915260608101919091526080810186905260ff851660a082015260c0810184905260e00160408051601f1981840301815282825280516020918201207fb03948446334eb9b2196d5eb166f69b9d49403eb4a12f36de8d3f9f3cb8e15c3918401919091527fd13b7bcdea8dd87e8f9a0d206dc73d6264326a7f9f4c38119298bb466e785c53918301919091527fc89efdaa54c0f20c7adf612882df0950f5a951637e0307cdcb4c672f298b8bc66060830152915060009060800160408051601f198184030181529082905280516020918201207f19010000000000000000000000000000000000000000000000000000000000009183019190915260228201526042810183905260620160405160208183030381529060405280519060200120905060006141e68c8c8080601f01602080910402602001604051908101604052809392919081815260200183838082843760009201919091525086939250506148cc9050565b90506141f1816148f6565b9b9a5050505050505050505050565b6001600160a01b038084166000908152602081905260409020547f000000000000000000000000000000000000000000000000000000000000000084027f0000000000000000000000000000000000000000000000000000000000000000019182840391614293917f00000000000000000000000000000000000000000000000000000000000000008116911684613cd5565b60045460009081526003602052604090206008015550505050565b60008085602001513a116143b85760005a90508660c001516001600160a01b03168760800151898960a001518a60e001518b61010001518b8b8b6040516024016142fe9796959493929190615e94565b60408051601f198184030181529181526020820180517bffffffffffffffffffffffffffffffffffffffffffffffffffffffff167f9e24036d00000000000000000000000000000000000000000000000000000000179052516143619190615eed565b60006040518083038160008787f1925050503d806000811461439f576040519150601f19603f3d011682016040523d82523d6000602084013e6143a4565b606091505b50909350505a6143b49082615a60565b9150505b9550959350505050565b8181116143cf57806143d1565b815b90506000836001600160a01b03168260405160006040518083038185875af1925050503d8060008114614420576040519150601f19603f3d011682016040523d82523d6000602084013e614425565b606091505b5050600454600090815260036020526040812060090180549293508492909190614450908490615a60565b909155505050505050565b6001600160a01b03811660009081527fc17b4b708b6f44255c20913a9d97a05300b670342c71fe5ae5b617bd4db5500160205260408120547fc17b4b708b6f44255c20913a9d97a05300b670342c71fe5ae5b617bd4db55000906144c25750600092915050565b6001600160a01b0383166000818152600183016020526040808220829055517f0f586d928fc7ce3b60c8a7c276a8562f9f53b126cebe71cf612948dfc52eff169190a250600192915050565b6001600160a01b038085166000908152602081905260409020547f000000000000000000000000000000000000000000000000000000000000000084027f00000000000000000000000000000000000000000000000000000000000000000191828403916145a1917f00000000000000000000000000000000000000000000000000000000000000008116911684613cd5565b6145d56001600160a01b037f0000000000000000000000000000000000000000000000000000000000000000168683613cd5565b505050505050565b8181116145ea57806145ec565b815b90506000846001600160a01b03168260405160006040518083038185875af1925050503d806000811461463b576040519150601f19603f3d011682016040523d82523d6000602084013e614640565b606091505b50909150506001600160a01b0384166146598385615a60565b604051600081818185875af1925050503d806000811461133f576040519150601f19603f3d011682016040523d82523d6000602084013e61133f565b6000607f600454901c67ffffffffffffffff1690508067ffffffffffffffff036146db574660c01b77800000000000000000000000000000000000000000000000176004555b607f6001901b600460008282546146f29190615a4d565b909155505050565b600061470f6001600160a01b038416836149db565b905080516000141580156147345750808060200190518101906147329190615f09565b155b15610f10576040517f5274afe70000000000000000000000000000000000000000000000000000000081526001600160a01b03841660048201526024016121f8565b806001600160a01b03163b6000036147c5576040517f4c9c8ce30000000000000000000000000000000000000000000000000000000081526001600160a01b03821660048201526024016121f8565b7f360894a13ba1a3210667c828492db98dca3e2076cc3735a920a3ca505d382bbc80547fffffffffffffffffffffffff0000000000000000000000000000000000000000166001600160a01b0392909216919091179055565b6060600080846001600160a01b03168460405161483b9190615eed565b600060405180830381855af49150503d8060008114614876576040519150601f19603f3d011682016040523d82523d6000602084013e61487b565b606091505b509150915061488b8583836149e9565b95945050505050565b3415611bc3576040517fb398979f00000000000000000000000000000000000000000000000000000000815260040160405180910390fd5b6000806000806148dc8686614a5e565b9250925092506148ec8282614aab565b5090949350505050565b6001600160a01b03811660009081527fc17b4b708b6f44255c20913a9d97a05300b670342c71fe5ae5b617bd4db5500160205260409020547fc17b4b708b6f44255c20913a9d97a05300b670342c71fe5ae5b617bd4db550009080614987576040517f3dd8ca9500000000000000000000000000000000000000000000000000000000815260040160405180910390fd5b600081815260208390526040902080546149a090615848565b9050600003610f10576040517f38c4ac1600000000000000000000000000000000000000000000000000000000815260040160405180910390fd5b606061132883836000614baf565b6060826149fe576149f982614c65565b611328565b8151158015614a1557506001600160a01b0384163b155b15614a57576040517f9996b3150000000000000000000000000000000000000000000000000000000081526001600160a01b03851660048201526024016121f8565b5092915050565b60008060008351604103614a985760208401516040850151606086015160001a614a8a88828585614ca7565b955095509550505050614aa4565b50508151600091506002905b9250925092565b6000826003811115614abf57614abf615f2b565b03614ac8575050565b6001826003811115614adc57614adc615f2b565b03614b13576040517ff645eedf00000000000000000000000000000000000000000000000000000000815260040160405180910390fd5b6002826003811115614b2757614b27615f2b565b03614b61576040517ffce698f7000000000000000000000000000000000000000000000000000000008152600481018290526024016121f8565b6003826003811115614b7557614b75615f2b565b036111cf576040517fd78bce0c000000000000000000000000000000000000000000000000000000008152600481018290526024016121f8565b606081471015614bed576040517fcd7860590000000000000000000000000000000000000000000000000000000081523060048201526024016121f8565b600080856001600160a01b03168486604051614c099190615eed565b60006040518083038185875af1925050503d8060008114614c46576040519150601f19603f3d011682016040523d82523d6000602084013e614c4b565b606091505b5091509150614c5b8683836149e9565b9695505050505050565b805115614c755780518082602001fd5b6040517f1425ea4200000000000000000000000000000000000000000000000000000000815260040160405180910390fd5b600080807f7fffffffffffffffffffffffffffffff5d576e7357a4501ddfe92f46681b20a0841115614ce25750600091506003905082614d6c565b604080516000808252602082018084528a905260ff891692820192909252606081018790526080810186905260019060a0016020604051602081039080840390855afa158015614d36573d6000803e3d6000fd5b5050604051601f1901519150506001600160a01b038116614d6257506000925060019150829050614d6c565b9250600091508190505b9450945094915050565b508054614d8290615848565b6000825580601f10614d92575050565b601f0160209004906000526020600020908101906111c291905b80821115614dc05760008155600101614dac565b5090565b80356001600160a01b0381168114614ddb57600080fd5b919050565b600060208284031215614df257600080fd5b61132882614dc4565b600060208284031215614e0d57600080fd5b81357fffffffff000000000000000000000000000000000000000000000000000000008116811461132857600080fd5b600060208284031215614e4f57600080fd5b5035919050565b60005b83811015614e71578181015183820152602001614e59565b50506000910152565b60008151808452614e92816020860160208601614e56565b601f01601f19169290920160200192915050565b8781528660208201528560408201528460608201528360808201526001600160a01b03831660a082015260e060c0820152815160e08201526000602083015161010081818501526040850151915061012082818601526060860151610140860152608086015161016086015260a08601519250614f2f6101808601846001600160a01b03169052565b60c08601516001600160a01b03166101a086015260e08601516101c0860152908501516101e08501919091529050614f6b610200840182614e7a565b9a9950505050505050505050565b60008083601f840112614f8b57600080fd5b50813567ffffffffffffffff811115614fa357600080fd5b602083019150836020828501011115614fbb57600080fd5b9250929050565b60008060008060608587031215614fd857600080fd5b8435935060208501359250604085013567ffffffffffffffff811115614ffd57600080fd5b61500987828801614f79565b95989497509550505050565b60006101208b83528a60208401528960408401528860608401528760808401526001600160a01b0380881660a085015280871660c0850152508460e08401528061010084015261506781840185614e7a565b9c9b505050505050505050505050565b6000806000806000806000806000806000806101608d8f03121561509a57600080fd5b8c359b5067ffffffffffffffff60208e013511156150b757600080fd5b6150c78e60208f01358f01614f79565b909b50995060408d0135985060608d013597506150e660808e01614dc4565b96506150f460a08e01614dc4565b955060c08d0135945060e08d013593506101008d013592506101208d013591506101408d013590509295989b509295989b509295989b565b6020815260008251606060208401526151486080840182614e7a565b90506020840151601f19808584030160408601526151668383614e7a565b925060408601519150808584030160608601525061488b8282614e7a565b60008060006060848603121561519957600080fd5b505081359360208301359350604090920135919050565b7f4e487b7100000000000000000000000000000000000000000000000000000000600052604160045260246000fd5b6040516060810167ffffffffffffffff81118282101715615202576152026151b0565b60405290565b60405160a0810167ffffffffffffffff81118282101715615202576152026151b0565b604051601f8201601f1916810167ffffffffffffffff81118282101715615254576152546151b0565b604052919050565b600082601f83011261526d57600080fd5b813567ffffffffffffffff811115615287576152876151b0565b61529a6020601f19601f8401160161522b565b8181528460208386010111156152af57600080fd5b816020850160208301376000918101602001919091529392505050565b600080604083850312156152df57600080fd5b6152e883614dc4565b915060208084013567ffffffffffffffff8082111561530657600080fd5b818601915086601f83011261531a57600080fd5b81358181111561532c5761532c6151b0565b8060051b61533b85820161522b565b918252838101850191858101908a84111561535557600080fd5b86860192505b83831015615413578235858111156153735760008081fd5b86016060818d03601f190181131561538b5760008081fd5b6153936151df565b89830135888111156153a55760008081fd5b6153b38f8c8387010161525c565b8252506040830135888111156153c95760008081fd5b6153d78f8c8387010161525c565b828c0152509082013590878211156153ef5760008081fd5b6153fd8e8b8486010161525c565b604082015284525050918601919086019061535b565b809750505050505050509250929050565b6000806040838503121561543757600080fd5b8235915061544760208401614dc4565b90509250929050565b6000806040838503121561546357600080fd5b50508035926020909101359150565b6000806040838503121561548557600080fd5b61548e83614dc4565b9150602083013567ffffffffffffffff8111156154aa57600080fd5b6154b68582860161525c565b9150509250929050565b600080600080600080600060e0888a0312156154db57600080fd5b87359650602088013567ffffffffffffffff8111156154f957600080fd5b6155058a828b0161525c565b965050604088013594506060880135935061552260808901614dc4565b925061553060a08901614dc4565b915060c0880135905092959891949750929550565b600060a0828403121561555757600080fd5b61555f615208565b9050813567ffffffffffffffff8082111561557957600080fd5b6155858583860161525c565b8352602084013591508082111561559b57600080fd5b6155a78583860161525c565b602084015260408401359150808211156155c057600080fd5b6155cc8583860161525c565b604084015260608401359150808211156155e557600080fd5b506155f28482850161525c565b6060830152506080820135608082015292915050565b60008060008060006080868803121561562057600080fd5b853567ffffffffffffffff8082111561563857600080fd5b61564489838a0161525c565b9650602088013591508082111561565a57600080fd5b61566689838a01615545565b9550604088013591508082111561567c57600080fd5b5061568988828901614f79565b96999598509660600135949350505050565b600080600080600080606087890312156156b457600080fd5b863567ffffffffffffffff808211156156cc57600080fd5b6156d88a838b01614f79565b909850965060208901359150808211156156f157600080fd5b6156fd8a838b01614f79565b9096509450604089013591508082111561571657600080fd5b5061572389828a01614f79565b979a9699509497509295939492505050565b6000806040838503121561574857600080fd5b823567ffffffffffffffff8082111561576057600080fd5b61576c8683870161525c565b9350602085013591508082111561578257600080fd5b506154b685828601615545565b60008060008060008060008060c0898b0312156157ab57600080fd5b883567ffffffffffffffff808211156157c357600080fd5b6157cf8c838d01614f79565b909a50985060208b0135975060408b01359150808211156157ef57600080fd5b506157fc8b828c01614f79565b90965094505060608901359250608089013560ff8116811461581d57600080fd5b8092505060a089013590509295985092959890939650565b6020815260006113286020830184614e7a565b600181811c9082168061585c57607f821691505b602082108103611361577f4e487b7100000000000000000000000000000000000000000000000000000000600052602260045260246000fd5b601f821115610f10576000816000526020600020601f850160051c810160208610156158be5750805b601f850160051c820191505b818110156145d5578281556001016158ca565b67ffffffffffffffff8311156158f5576158f56151b0565b615909836159038354615848565b83615895565b6000601f84116001811461595b57600085156159255750838201355b7fffffffffffffffffffffffffffffffffffffffffffffffffffffffffffffffff600387901b1c1916600186901b17835561123c565b600083815260209020601f19861690835b8281101561598c578685013582556020948501946001909201910161596c565b50868210156159c7577fffffffffffffffffffffffffffffffffffffffffffffffffffffffffffffffff60f88860031b161c19848701351681555b505060018560011b0183555050505050565b818352818160208501375060006020828401015260006020601f19601f840116840101905092915050565b83815260406020820152600061488b6040830184866159d9565b7f4e487b7100000000000000000000000000000000000000000000000000000000600052601160045260246000fd5b80820180821115610a8957610a89615a1e565b81810381811115610a8957610a89615a1e565b600082615aa9577f4e487b7100000000000000000000000000000000000000000000000000000000600052601260045260246000fd5b500490565b8082028115828204841417610a8957610a89615a1e565b7f4e487b7100000000000000000000000000000000000000000000000000000000600052603260045260246000fd5b600060208284031215615b0657600080fd5b5051919050565b60007fffffffffffffffffffffffffffffffffffffffffffffffffffffffffffffffff8203615b3e57615b3e615a1e565b5060010190565b815167ffffffffffffffff811115615b5f57615b5f6151b0565b615b7381615b6d8454615848565b84615895565b602080601f831160018114615bc65760008415615b905750858301515b7fffffffffffffffffffffffffffffffffffffffffffffffffffffffffffffffff600386901b1c1916600185901b1785556145d5565b600085815260208120601f198616915b82811015615bf557888601518255948401946001909101908401615bd6565b5085821015615c3157878501517fffffffffffffffffffffffffffffffffffffffffffffffffffffffffffffffff600388901b60f8161c191681555b5050505050600190811b01905550565b60006101408c8352806020840152615c5b8184018d614e7a565b604084019b909b5250506060810197909752608087019590955260a08601939093526001600160a01b0391821660c08601521660e08401526101008301526101209091015292915050565b60008451615cb8818460208901614e56565b845190830190615ccc818360208901614e56565b8451910190615cdf818360208801614e56565b0195945050505050565b606081526000615cfc6060830186614e7a565b8281036020840152615d0e8186614e7a565b90508281036040840152614c5b8185614e7a565b604081526000615d356040830185614e7a565b8281036020840152835160a08252615d5060a0830182614e7a565b905060208501518282036020840152615d698282614e7a565b91505060408501518282036040840152615d838282614e7a565b91505060608501518282036060840152615d9d8282614e7a565b9150506080850151608083015280925050509392505050565b60c081526000615dca60c08301898b6159d9565b60208301979097525060ff9490941660408501529115156060840152608083015260a09091015292915050565b608081526000615e0b6080830187896159d9565b60208301959095525060ff929092166040830152151560609091015292915050565b60006101008a83528960208401528860408401528760608401526001600160a01b03871660808401528560a08401528060c0840152615e6e81840186614e7a565b9150508260e08301529998505050505050505050565b8183823760009101908152919050565b8781526001600160a01b038716602082015285604082015260c060608201526000615ec260c0830187614e7a565b8281036080840152615ed58186886159d9565b91505060ff831660a083015298975050505050505050565b60008251615eff818460208701614e56565b9190910192915050565b600060208284031215615f1b57600080fd5b8151801515811461132857600080fd5b7f4e487b7100000000000000000000000000000000000000000000000000000000600052602160045260246000fdfea2646970667358221220f6833716c2121a53e7283cbf222a581cec84bed1ad08d5b133dc98349ad2392764736f6c63430008190033",
  "linkReferences": {},
  "deployedLinkReferences": {}
}