{
  "_format": "hh-sol-artifact-1",
  "contractName": "Relay",
  "sourceName": "contracts/serverless-v2/Relay.sol",
  "abi": [
    {
      "inputs": [
        {
          "internalType": "contract IAttestationVerifier",
          "name": "attestationVerifier",
          "type": "address"
        },
        {
          "internalType": "uint256",
          "name": "maxAge",
          "type": "uint256"
        },
        {
          "internalType": "contract IERC20",
          "name": "_token",
          "type": "address"
        },
        {
          "internalType": "uint256",
          "name": "_globalMinTimeout",
          "type": "uint256"
        },
        {
          "internalType": "uint256",
          "name": "_globalMaxTimeout",
          "type": "uint256"
        },
        {
          "internalType": "uint256",
          "name": "_overallTimeout",
          "type": "uint256"
        },
        {
          "internalType": "uint256",
          "name": "_executionFeePerMs",
          "type": "uint256"
        },
        {
          "internalType": "uint256",
          "name": "_gatewayFeePerJob",
          "type": "uint256"
        },
        {
          "internalType": "uint256",
          "name": "_fixedGas",
          "type": "uint256"
        },
        {
          "internalType": "uint256",
          "name": "_callbackMeasureGas",
          "type": "uint256"
        }
      ],
      "stateMutability": "nonpayable",
      "type": "constructor"
    },
    {
      "inputs": [],
      "name": "AccessControlBadConfirmation",
      "type": "error"
    },
    {
      "inputs": [
        {
          "internalType": "address",
          "name": "account",
          "type": "address"
        },
        {
          "internalType": "bytes32",
          "name": "neededRole",
          "type": "bytes32"
        }
      ],
      "name": "AccessControlUnauthorizedAccount",
      "type": "error"
    },
    {
      "inputs": [
        {
          "internalType": "address",
          "name": "target",
          "type": "address"
        }
      ],
      "name": "AddressEmptyCode",
      "type": "error"
    },
    {
      "inputs": [
        {
          "internalType": "address",
          "name": "account",
          "type": "address"
        }
      ],
      "name": "AddressInsufficientBalance",
      "type": "error"
    },
    {
      "inputs": [],
      "name": "AttestationAutherAttestationTooOld",
      "type": "error"
    },
    {
      "inputs": [],
      "name": "AttestationAutherImageNotInFamily",
      "type": "error"
    },
    {
      "inputs": [],
      "name": "AttestationAutherImageNotWhitelisted",
      "type": "error"
    },
    {
      "inputs": [],
      "name": "AttestationAutherKeyNotVerified",
      "type": "error"
    },
    {
      "inputs": [],
      "name": "AttestationAutherMismatchedLengths",
      "type": "error"
    },
    {
      "inputs": [],
      "name": "AttestationAutherPCRsInvalid",
      "type": "error"
    },
    {
      "inputs": [],
      "name": "AttestationAutherPubkeyLengthInvalid",
      "type": "error"
    },
    {
      "inputs": [],
      "name": "ECDSAInvalidSignature",
      "type": "error"
    },
    {
      "inputs": [
        {
          "internalType": "uint256",
          "name": "length",
          "type": "uint256"
        }
      ],
      "name": "ECDSAInvalidSignatureLength",
      "type": "error"
    },
    {
      "inputs": [
        {
          "internalType": "bytes32",
          "name": "s",
          "type": "bytes32"
        }
      ],
      "name": "ECDSAInvalidSignatureS",
      "type": "error"
    },
    {
      "inputs": [
        {
          "internalType": "address",
          "name": "implementation",
          "type": "address"
        }
      ],
      "name": "ERC1967InvalidImplementation",
      "type": "error"
    },
    {
      "inputs": [],
      "name": "ERC1967NonPayable",
      "type": "error"
    },
    {
      "inputs": [],
      "name": "FailedInnerCall",
      "type": "error"
    },
    {
      "inputs": [],
      "name": "InvalidInitialization",
      "type": "error"
    },
    {
      "inputs": [],
      "name": "NotInitializing",
      "type": "error"
    },
    {
      "inputs": [],
      "name": "RelayCallbackDepositTransferFailed",
      "type": "error"
    },
    {
      "inputs": [],
      "name": "RelayGatewayAlreadyExists",
      "type": "error"
    },
    {
      "inputs": [],
      "name": "RelayInsufficientCallbackDeposit",
      "type": "error"
    },
    {
      "inputs": [],
      "name": "RelayInvalidGateway",
      "type": "error"
    },
    {
      "inputs": [],
      "name": "RelayInvalidGlobalTimeouts",
      "type": "error"
    },
    {
      "inputs": [],
      "name": "RelayInvalidJobOwner",
      "type": "error"
    },
    {
      "inputs": [],
      "name": "RelayInvalidSigner",
      "type": "error"
    },
    {
      "inputs": [],
      "name": "RelayInvalidToken",
      "type": "error"
    },
    {
      "inputs": [],
      "name": "RelayInvalidUserTimeout",
      "type": "error"
    },
    {
      "inputs": [],
      "name": "RelayJobNotExists",
      "type": "error"
    },
    {
      "inputs": [],
      "name": "RelayOverallTimeoutNotOver",
      "type": "error"
    },
    {
      "inputs": [],
      "name": "RelayOverallTimeoutOver",
      "type": "error"
    },
    {
      "inputs": [],
      "name": "RelaySignatureTooOld",
      "type": "error"
    },
    {
      "inputs": [],
      "name": "RelayZeroAddressAdmin",
      "type": "error"
    },
    {
      "inputs": [
        {
          "internalType": "address",
          "name": "token",
          "type": "address"
        }
      ],
      "name": "SafeERC20FailedOperation",
      "type": "error"
    },
    {
      "inputs": [],
      "name": "UUPSUnauthorizedCallContext",
      "type": "error"
    },
    {
      "inputs": [
        {
          "internalType": "bytes32",
          "name": "slot",
          "type": "bytes32"
        }
      ],
      "name": "UUPSUnsupportedProxiableUUID",
      "type": "error"
    },
    {
      "anonymous": false,
      "inputs": [
        {
          "indexed": true,
          "internalType": "bytes32",
          "name": "imageId",
          "type": "bytes32"
        },
        {
          "indexed": false,
          "internalType": "bytes32",
          "name": "family",
          "type": "bytes32"
        }
      ],
      "name": "EnclaveImageAddedToFamily",
      "type": "event"
    },
    {
      "anonymous": false,
      "inputs": [
        {
          "indexed": true,
          "internalType": "bytes32",
          "name": "imageId",
          "type": "bytes32"
        },
        {
          "indexed": false,
          "internalType": "bytes32",
          "name": "family",
          "type": "bytes32"
        }
      ],
      "name": "EnclaveImageRemovedFromFamily",
      "type": "event"
    },
    {
      "anonymous": false,
      "inputs": [
        {
          "indexed": true,
          "internalType": "bytes32",
          "name": "imageId",
          "type": "bytes32"
        }
      ],
      "name": "EnclaveImageRevoked",
      "type": "event"
    },
    {
      "anonymous": false,
      "inputs": [
        {
          "indexed": true,
          "internalType": "bytes32",
          "name": "imageId",
          "type": "bytes32"
        },
        {
          "indexed": false,
          "internalType": "bytes",
          "name": "PCR0",
          "type": "bytes"
        },
        {
          "indexed": false,
          "internalType": "bytes",
          "name": "PCR1",
          "type": "bytes"
        },
        {
          "indexed": false,
          "internalType": "bytes",
          "name": "PCR2",
          "type": "bytes"
        }
      ],
      "name": "EnclaveImageWhitelisted",
      "type": "event"
    },
    {
      "anonymous": false,
      "inputs": [
        {
          "indexed": true,
          "internalType": "address",
          "name": "enclaveAddress",
          "type": "address"
        }
      ],
      "name": "EnclaveKeyRevoked",
      "type": "event"
    },
    {
      "anonymous": false,
      "inputs": [
        {
          "indexed": true,
          "internalType": "address",
          "name": "enclaveAddress",
          "type": "address"
        },
        {
          "indexed": true,
          "internalType": "bytes32",
          "name": "imageId",
          "type": "bytes32"
        },
        {
          "indexed": false,
          "internalType": "bytes",
          "name": "enclavePubKey",
          "type": "bytes"
        }
      ],
      "name": "EnclaveKeyVerified",
      "type": "event"
    },
    {
      "anonymous": false,
      "inputs": [
        {
          "indexed": true,
          "internalType": "address",
          "name": "enclaveAddress",
          "type": "address"
        },
        {
          "indexed": true,
          "internalType": "bytes32",
          "name": "imageId",
          "type": "bytes32"
        },
        {
          "indexed": false,
          "internalType": "bytes",
          "name": "enclavePubKey",
          "type": "bytes"
        }
      ],
      "name": "EnclaveKeyWhitelisted",
      "type": "event"
    },
    {
      "anonymous": false,
      "inputs": [
        {
          "indexed": true,
          "internalType": "address",
          "name": "enclaveAddress",
          "type": "address"
        }
      ],
      "name": "GatewayDeregistered",
      "type": "event"
    },
    {
      "anonymous": false,
      "inputs": [
        {
          "indexed": true,
          "internalType": "address",
          "name": "owner",
          "type": "address"
        },
        {
          "indexed": true,
          "internalType": "address",
          "name": "enclaveAddress",
          "type": "address"
        }
      ],
      "name": "GatewayRegistered",
      "type": "event"
    },
    {
      "anonymous": false,
      "inputs": [
        {
          "indexed": false,
          "internalType": "uint64",
          "name": "version",
          "type": "uint64"
        }
      ],
      "name": "Initialized",
      "type": "event"
    },
    {
      "anonymous": false,
      "inputs": [
        {
          "indexed": true,
          "internalType": "uint256",
          "name": "jobId",
          "type": "uint256"
        }
      ],
      "name": "JobCancelled",
      "type": "event"
    },
    {
      "anonymous": false,
      "inputs": [
        {
          "indexed": true,
          "internalType": "uint256",
          "name": "jobId",
          "type": "uint256"
        },
        {
          "indexed": false,
          "internalType": "bytes32",
          "name": "codehash",
          "type": "bytes32"
        },
        {
          "indexed": false,
          "internalType": "bytes",
          "name": "codeInputs",
          "type": "bytes"
        },
        {
          "indexed": false,
          "internalType": "uint256",
          "name": "userTimeout",
          "type": "uint256"
        },
        {
          "indexed": false,
          "internalType": "uint256",
          "name": "maxGasPrice",
          "type": "uint256"
        },
        {
          "indexed": false,
          "internalType": "uint256",
          "name": "usdcDeposit",
          "type": "uint256"
        },
        {
          "indexed": false,
          "internalType": "uint256",
          "name": "callbackDeposit",
          "type": "uint256"
        },
        {
          "indexed": false,
          "internalType": "address",
          "name": "refundAccount",
          "type": "address"
        },
        {
          "indexed": false,
          "internalType": "address",
          "name": "callbackContract",
          "type": "address"
        },
        {
          "indexed": false,
          "internalType": "uint256",
          "name": "startTime",
          "type": "uint256"
        },
        {
          "indexed": false,
          "internalType": "uint256",
          "name": "callbackGasLimit",
          "type": "uint256"
        }
      ],
      "name": "JobRelayed",
      "type": "event"
    },
    {
      "anonymous": false,
      "inputs": [
        {
          "indexed": true,
          "internalType": "uint256",
          "name": "jobId",
          "type": "uint256"
        },
        {
          "indexed": false,
          "internalType": "bytes",
          "name": "output",
          "type": "bytes"
        },
        {
          "indexed": false,
          "internalType": "uint256",
          "name": "totalTime",
          "type": "uint256"
        },
        {
          "indexed": false,
          "internalType": "uint256",
          "name": "errorCode",
          "type": "uint256"
        },
        {
          "indexed": false,
          "internalType": "bool",
          "name": "success",
          "type": "bool"
        }
      ],
      "name": "JobResponded",
      "type": "event"
    },
    {
      "anonymous": false,
      "inputs": [
        {
          "indexed": true,
          "internalType": "bytes32",
          "name": "role",
          "type": "bytes32"
        },
        {
          "indexed": true,
          "internalType": "bytes32",
          "name": "previousAdminRole",
          "type": "bytes32"
        },
        {
          "indexed": true,
          "internalType": "bytes32",
          "name": "newAdminRole",
          "type": "bytes32"
        }
      ],
      "name": "RoleAdminChanged",
      "type": "event"
    },
    {
      "anonymous": false,
      "inputs": [
        {
          "indexed": true,
          "internalType": "bytes32",
          "name": "role",
          "type": "bytes32"
        },
        {
          "indexed": true,
          "internalType": "address",
          "name": "account",
          "type": "address"
        },
        {
          "indexed": true,
          "internalType": "address",
          "name": "sender",
          "type": "address"
        }
      ],
      "name": "RoleGranted",
      "type": "event"
    },
    {
      "anonymous": false,
      "inputs": [
        {
          "indexed": true,
          "internalType": "bytes32",
          "name": "role",
          "type": "bytes32"
        },
        {
          "indexed": true,
          "internalType": "address",
          "name": "account",
          "type": "address"
        },
        {
          "indexed": true,
          "internalType": "address",
          "name": "sender",
          "type": "address"
        }
      ],
      "name": "RoleRevoked",
      "type": "event"
    },
    {
      "anonymous": false,
      "inputs": [
        {
          "indexed": true,
          "internalType": "address",
          "name": "implementation",
          "type": "address"
        }
      ],
      "name": "Upgraded",
      "type": "event"
    },
    {
      "inputs": [],
      "name": "ATTESTATION_MAX_AGE",
      "outputs": [
        {
          "internalType": "uint256",
          "name": "",
          "type": "uint256"
        }
      ],
      "stateMutability": "view",
      "type": "function"
    },
    {
      "inputs": [],
      "name": "ATTESTATION_VERIFIER",
      "outputs": [
        {
          "internalType": "contract IAttestationVerifier",
          "name": "",
          "type": "address"
        }
      ],
      "stateMutability": "view",
      "type": "function"
    },
    {
      "inputs": [],
      "name": "CALLBACK_MEASURE_GAS",
      "outputs": [
        {
          "internalType": "uint256",
          "name": "",
          "type": "uint256"
        }
      ],
      "stateMutability": "view",
      "type": "function"
    },
    {
      "inputs": [],
      "name": "DEFAULT_ADMIN_ROLE",
      "outputs": [
        {
          "internalType": "bytes32",
          "name": "",
          "type": "bytes32"
        }
      ],
      "stateMutability": "view",
      "type": "function"
    },
    {
      "inputs": [],
      "name": "EXECUTION_FEE_PER_MS",
      "outputs": [
        {
          "internalType": "uint256",
          "name": "",
          "type": "uint256"
        }
      ],
      "stateMutability": "view",
      "type": "function"
    },
    {
      "inputs": [],
      "name": "FIXED_GAS",
      "outputs": [
        {
          "internalType": "uint256",
          "name": "",
          "type": "uint256"
        }
      ],
      "stateMutability": "view",
      "type": "function"
    },
    {
      "inputs": [],
      "name": "GATEWAY_FEE_PER_JOB",
      "outputs": [
        {
          "internalType": "uint256",
          "name": "",
          "type": "uint256"
        }
      ],
      "stateMutability": "view",
      "type": "function"
    },
    {
      "inputs": [],
      "name": "GLOBAL_MAX_TIMEOUT",
      "outputs": [
        {
          "internalType": "uint256",
          "name": "",
          "type": "uint256"
        }
      ],
      "stateMutability": "view",
      "type": "function"
    },
    {
      "inputs": [],
      "name": "GLOBAL_MIN_TIMEOUT",
      "outputs": [
        {
          "internalType": "uint256",
          "name": "",
          "type": "uint256"
        }
      ],
      "stateMutability": "view",
      "type": "function"
    },
    {
      "inputs": [],
      "name": "OVERALL_TIMEOUT",
      "outputs": [
        {
          "internalType": "uint256",
          "name": "",
          "type": "uint256"
        }
      ],
      "stateMutability": "view",
      "type": "function"
    },
    {
      "inputs": [],
      "name": "TOKEN",
      "outputs": [
        {
          "internalType": "contract IERC20",
          "name": "",
          "type": "address"
        }
      ],
      "stateMutability": "view",
      "type": "function"
    },
    {
      "inputs": [],
      "name": "UPGRADE_INTERFACE_VERSION",
      "outputs": [
        {
          "internalType": "string",
          "name": "",
          "type": "string"
        }
      ],
      "stateMutability": "view",
      "type": "function"
    },
    {
      "inputs": [
        {
          "internalType": "address",
          "name": "_enclaveAddress",
          "type": "address"
        }
      ],
      "name": "deregisterGateway",
      "outputs": [],
      "stateMutability": "nonpayable",
      "type": "function"
    },
    {
      "inputs": [
        {
          "internalType": "address",
          "name": "",
          "type": "address"
        }
      ],
      "name": "gatewayOwners",
      "outputs": [
        {
          "internalType": "address",
          "name": "",
          "type": "address"
        }
      ],
      "stateMutability": "view",
      "type": "function"
    },
    {
      "inputs": [
        {
          "internalType": "bytes32",
          "name": "role",
          "type": "bytes32"
        }
      ],
      "name": "getRoleAdmin",
      "outputs": [
        {
          "internalType": "bytes32",
          "name": "",
          "type": "bytes32"
        }
      ],
      "stateMutability": "view",
      "type": "function"
    },
    {
      "inputs": [
        {
          "internalType": "address",
          "name": "_key",
          "type": "address"
        }
      ],
      "name": "getVerifiedKey",
      "outputs": [
        {
          "internalType": "bytes32",
          "name": "",
          "type": "bytes32"
        }
      ],
      "stateMutability": "view",
      "type": "function"
    },
    {
      "inputs": [
        {
          "internalType": "bytes32",
          "name": "_imageId",
          "type": "bytes32"
        }
      ],
      "name": "getWhitelistedImage",
      "outputs": [
        {
          "components": [
            {
              "internalType": "bytes",
              "name": "PCR0",
              "type": "bytes"
            },
            {
              "internalType": "bytes",
              "name": "PCR1",
              "type": "bytes"
            },
            {
              "internalType": "bytes",
              "name": "PCR2",
              "type": "bytes"
            }
          ],
          "internalType": "struct AttestationAutherUpgradeable.EnclaveImage",
          "name": "",
          "type": "tuple"
        }
      ],
      "stateMutability": "view",
      "type": "function"
    },
    {
      "inputs": [
        {
          "internalType": "bytes32",
          "name": "role",
          "type": "bytes32"
        },
        {
          "internalType": "address",
          "name": "account",
          "type": "address"
        }
      ],
      "name": "grantRole",
      "outputs": [],
      "stateMutability": "nonpayable",
      "type": "function"
    },
    {
      "inputs": [
        {
          "internalType": "bytes32",
          "name": "role",
          "type": "bytes32"
        },
        {
          "internalType": "address",
          "name": "account",
          "type": "address"
        }
      ],
      "name": "hasRole",
      "outputs": [
        {
          "internalType": "bool",
          "name": "",
          "type": "bool"
        }
      ],
      "stateMutability": "view",
      "type": "function"
    },
    {
      "inputs": [
        {
          "internalType": "address",
          "name": "_admin",
          "type": "address"
        },
        {
          "components": [
            {
              "internalType": "bytes",
              "name": "PCR0",
              "type": "bytes"
            },
            {
              "internalType": "bytes",
              "name": "PCR1",
              "type": "bytes"
            },
            {
              "internalType": "bytes",
              "name": "PCR2",
              "type": "bytes"
            }
          ],
          "internalType": "struct AttestationAutherUpgradeable.EnclaveImage[]",
          "name": "_images",
          "type": "tuple[]"
        }
      ],
      "name": "initialize",
      "outputs": [],
      "stateMutability": "nonpayable",
      "type": "function"
    },
    {
      "inputs": [
        {
          "internalType": "bytes32",
          "name": "imageId",
          "type": "bytes32"
        },
        {
          "internalType": "bytes32",
          "name": "family",
          "type": "bytes32"
        }
      ],
      "name": "isImageInFamily",
      "outputs": [
        {
          "internalType": "bool",
          "name": "",
          "type": "bool"
        }
      ],
      "stateMutability": "view",
      "type": "function"
    },
    {
      "inputs": [
        {
          "internalType": "uint256",
          "name": "_jobId",
          "type": "uint256"
        }
      ],
      "name": "jobCancel",
      "outputs": [],
      "stateMutability": "nonpayable",
      "type": "function"
    },
    {
      "inputs": [],
      "name": "jobCount",
      "outputs": [
        {
          "internalType": "uint256",
          "name": "",
          "type": "uint256"
        }
      ],
      "stateMutability": "view",
      "type": "function"
    },
    {
      "inputs": [
        {
          "internalType": "bytes",
          "name": "_signature",
          "type": "bytes"
        },
        {
          "internalType": "uint256",
          "name": "_jobId",
          "type": "uint256"
        },
        {
          "internalType": "bytes",
          "name": "_output",
          "type": "bytes"
        },
        {
          "internalType": "uint256",
          "name": "_totalTime",
          "type": "uint256"
        },
        {
          "internalType": "uint8",
          "name": "_errorCode",
          "type": "uint8"
        },
        {
          "internalType": "uint256",
          "name": "_signTimestamp",
          "type": "uint256"
        }
      ],
      "name": "jobResponse",
      "outputs": [],
      "stateMutability": "nonpayable",
      "type": "function"
    },
    {
      "inputs": [
        {
          "internalType": "uint256",
          "name": "",
          "type": "uint256"
        }
      ],
      "name": "jobs",
      "outputs": [
        {
          "internalType": "uint256",
          "name": "startTime",
          "type": "uint256"
        },
        {
          "internalType": "uint256",
          "name": "maxGasPrice",
          "type": "uint256"
        },
        {
          "internalType": "uint256",
          "name": "usdcDeposit",
          "type": "uint256"
        },
        {
          "internalType": "uint256",
          "name": "callbackDeposit",
          "type": "uint256"
        },
        {
          "internalType": "uint256",
          "name": "callbackGasLimit",
          "type": "uint256"
        },
        {
          "internalType": "address",
          "name": "jobOwner",
          "type": "address"
        },
        {
          "internalType": "address",
          "name": "callbackContract",
          "type": "address"
        },
        {
          "internalType": "bytes32",
          "name": "codehash",
          "type": "bytes32"
        },
        {
          "internalType": "bytes",
          "name": "codeInputs",
          "type": "bytes"
        }
      ],
      "stateMutability": "view",
      "type": "function"
    },
    {
      "inputs": [],
      "name": "proxiableUUID",
      "outputs": [
        {
          "internalType": "bytes32",
          "name": "",
          "type": "bytes32"
        }
      ],
      "stateMutability": "view",
      "type": "function"
    },
    {
      "inputs": [
        {
          "internalType": "bytes",
          "name": "_attestationSignature",
          "type": "bytes"
        },
        {
          "components": [
            {
              "internalType": "bytes",
              "name": "enclavePubKey",
              "type": "bytes"
            },
            {
              "internalType": "bytes",
              "name": "PCR0",
              "type": "bytes"
            },
            {
              "internalType": "bytes",
              "name": "PCR1",
              "type": "bytes"
            },
            {
              "internalType": "bytes",
              "name": "PCR2",
              "type": "bytes"
            },
            {
              "internalType": "uint256",
              "name": "timestampInMilliseconds",
              "type": "uint256"
            }
          ],
          "internalType": "struct IAttestationVerifier.Attestation",
          "name": "_attestation",
          "type": "tuple"
        },
        {
          "internalType": "bytes",
          "name": "_signature",
          "type": "bytes"
        },
        {
          "internalType": "uint256",
          "name": "_signTimestamp",
          "type": "uint256"
        }
      ],
      "name": "registerGateway",
      "outputs": [],
      "stateMutability": "nonpayable",
      "type": "function"
    },
    {
      "inputs": [
        {
          "internalType": "bytes32",
          "name": "_codehash",
          "type": "bytes32"
        },
        {
          "internalType": "bytes",
          "name": "_codeInputs",
          "type": "bytes"
        },
        {
          "internalType": "uint256",
          "name": "_userTimeout",
          "type": "uint256"
        },
        {
          "internalType": "uint256",
          "name": "_maxGasPrice",
          "type": "uint256"
        },
        {
          "internalType": "address",
          "name": "_refundAccount",
          "type": "address"
        },
        {
          "internalType": "address",
          "name": "_callbackContract",
          "type": "address"
        },
        {
          "internalType": "uint256",
          "name": "_callbackGasLimit",
          "type": "uint256"
        }
      ],
      "name": "relayJob",
      "outputs": [],
      "stateMutability": "payable",
      "type": "function"
    },
    {
      "inputs": [
        {
          "internalType": "bytes32",
          "name": "role",
          "type": "bytes32"
        },
        {
          "internalType": "address",
          "name": "callerConfirmation",
          "type": "address"
        }
      ],
      "name": "renounceRole",
      "outputs": [],
      "stateMutability": "nonpayable",
      "type": "function"
    },
    {
      "inputs": [
        {
          "internalType": "bytes32",
          "name": "imageId",
          "type": "bytes32"
        }
      ],
      "name": "revokeEnclaveImage",
      "outputs": [
        {
          "internalType": "bool",
          "name": "",
          "type": "bool"
        }
      ],
      "stateMutability": "nonpayable",
      "type": "function"
    },
    {
      "inputs": [
        {
          "internalType": "bytes32",
          "name": "role",
          "type": "bytes32"
        },
        {
          "internalType": "address",
          "name": "account",
          "type": "address"
        }
      ],
      "name": "revokeRole",
      "outputs": [],
      "stateMutability": "nonpayable",
      "type": "function"
    },
    {
      "inputs": [
        {
          "internalType": "bytes4",
          "name": "interfaceId",
          "type": "bytes4"
        }
      ],
      "name": "supportsInterface",
      "outputs": [
        {
          "internalType": "bool",
          "name": "",
          "type": "bool"
        }
      ],
      "stateMutability": "view",
      "type": "function"
    },
    {
      "inputs": [
        {
          "internalType": "address",
          "name": "newImplementation",
          "type": "address"
        },
        {
          "internalType": "bytes",
          "name": "data",
          "type": "bytes"
        }
      ],
      "name": "upgradeToAndCall",
      "outputs": [],
      "stateMutability": "payable",
      "type": "function"
    },
    {
      "inputs": [
        {
          "internalType": "bytes",
          "name": "signature",
          "type": "bytes"
        },
        {
          "components": [
            {
              "internalType": "bytes",
              "name": "enclavePubKey",
              "type": "bytes"
            },
            {
              "internalType": "bytes",
              "name": "PCR0",
              "type": "bytes"
            },
            {
              "internalType": "bytes",
              "name": "PCR1",
              "type": "bytes"
            },
            {
              "internalType": "bytes",
              "name": "PCR2",
              "type": "bytes"
            },
            {
              "internalType": "uint256",
              "name": "timestampInMilliseconds",
              "type": "uint256"
            }
          ],
          "internalType": "struct IAttestationVerifier.Attestation",
          "name": "attestation",
          "type": "tuple"
        }
      ],
      "name": "verifyEnclaveKey",
      "outputs": [
        {
          "internalType": "bool",
          "name": "",
          "type": "bool"
        }
      ],
      "stateMutability": "nonpayable",
      "type": "function"
    },
    {
      "inputs": [
        {
          "internalType": "bytes",
          "name": "PCR0",
          "type": "bytes"
        },
        {
          "internalType": "bytes",
          "name": "PCR1",
          "type": "bytes"
        },
        {
          "internalType": "bytes",
          "name": "PCR2",
          "type": "bytes"
        }
      ],
      "name": "whitelistEnclaveImage",
      "outputs": [
        {
          "internalType": "bytes32",
          "name": "",
          "type": "bytes32"
        },
        {
          "internalType": "bool",
          "name": "",
          "type": "bool"
        }
      ],
      "stateMutability": "nonpayable",
      "type": "function"
    }
  ],
  "bytecode": "0x6101e06040523060805234801561001557600080fd5b506040516146d23803806146d283398101604081905261003491610196565b6001600160a01b038a1660a05260c089905261004e6100cf565b6001600160a01b0388166100755760405163c844103f60e01b815260040160405180910390fd5b6001600160a01b03881660e0528587106100a15760405162fe194b60e31b815260040160405180910390fd5b61010096909652610120949094526101409290925261016052610180526101a0526101c0525061021f915050565b7ff0c57e16840df040f15088dc2f81fe391c3923bec73e23a9662efc9c229c6a00805468010000000000000000900460ff161561011f5760405163f92ee8a960e01b815260040160405180910390fd5b80546001600160401b039081161461017e5780546001600160401b0319166001600160401b0390811782556040519081527fc7f505b2f371ae2175ee4913f4499e1f2633a7b5936321eed1cdaeb6115181d29060200160405180910390a15b50565b6001600160a01b038116811461017e57600080fd5b6000806000806000806000806000806101408b8d0312156101b657600080fd5b8a516101c181610181565b60208c015160408d0151919b5099506101d981610181565b8098505060608b0151965060808b0151955060a08b0151945060c08b0151935060e08b015192506101008b015191506101208b015190509295989b9194979a5092959850565b60805160a05160c05160e05161010051610120516101405161016051610180516101a0516101c05161439a610338600039600081816108a701526115f00152600081816107410152818161161401526121f1015260008181610682015281816116890152612c3b0152600081816107e9015281816116ad0152612c18015260008181610468015281816120ad015261230501526000818161081d0152611568015260008181610318015261153e01526000818161057d0152818161183a015281816123f801528181612c660152612c9c01526000818161064e01528181611c12015281816126f301526129d40152600081816107750152611cb00152600081816113040152818161132d01526114e5015261439a6000f3fe6080604052600436106102345760003560e01c806375847b8411610138578063bdb3a870116100b0578063e27a70851161007f578063f398cc7411610064578063f398cc741461083f578063f6a17fe31461085f578063fa3036bf1461089557600080fd5b8063e27a7085146107d7578063e29fcdc51461080b57600080fd5b8063bdb3a8701461072f578063cd79f90614610763578063d547741f14610797578063debfc2f3146107b757600080fd5b80639aec990e11610107578063a217fddf116100ec578063a217fddf146106a4578063ad3cb1cc146106b9578063b9d546e01461070f57600080fd5b80639aec990e1461063c5780639bc271361461067057600080fd5b806375847b841461054b57806382bfefc81461056b57806391d14854146105b757806395c602941461061c57600080fd5b806336568abe116101cb57806358a14ad21161019a5780636549bf481161017f5780636549bf481461049d57806369815e57146104bd5780636b5b21a6146104f257600080fd5b806358a14ad2146104565780635c2c28e51461048a57600080fd5b806336568abe146103f85780634c5d8a0f146104185780634f1ef2861461042e57806352d1902d1461044157600080fd5b80632410f6ba116102075780632410f6ba1461033a578063248a9ca3146103675780632eb39ee9146103b65780632f2ff15d146103d857600080fd5b806301d58fa31461023957806301ffc9a7146102a1578063180aedf3146102d15780631e3708df14610306575b600080fd5b34801561024557600080fd5b5061028e610254366004613598565b6001600160a01b031660009081527fc17b4b708b6f44255c20913a9d97a05300b670342c71fe5ae5b617bd4db55001602052604090205490565b6040519081526020015b60405180910390f35b3480156102ad57600080fd5b506102c16102bc3660046135b3565b6108c9565b6040519015158152602001610298565b3480156102dd57600080fd5b506102f16102ec3660046135f5565b6108da565b6040516102989998979695949392919061365e565b34801561031257600080fd5b5061028e7f000000000000000000000000000000000000000000000000000000000000000081565b34801561034657600080fd5b5061035a6103553660046135f5565b6109bc565b60405161029891906136c0565b34801561037357600080fd5b5061028e6103823660046135f5565b60009081527f02dd7bc7dec4dceedda775e58dd541e08a116c6c53815c0bd028192f7b626800602052604090206001015490565b3480156103c257600080fd5b506103d66103d1366004613834565b610bda565b005b3480156103e457600080fd5b506103d66103f336600461398c565b610dce565b34801561040457600080fd5b506103d661041336600461398c565b610e18565b34801561042457600080fd5b5061028e60025481565b6103d661043c3660046139b8565b610e69565b34801561044d57600080fd5b5061028e610e88565b34801561046257600080fd5b5061028e7f000000000000000000000000000000000000000000000000000000000000000081565b6103d6610498366004613a4f565b610eb7565b3480156104a957600080fd5b506103d66104b8366004613b9c565b610ed3565b3480156104c957600080fd5b506104dd6104d8366004613c2f565b610ee8565b60408051928352901515602083015201610298565b3480156104fe57600080fd5b506102c161050d366004613cc9565b60009081527fc17b4b708b6f44255c20913a9d97a05300b670342c71fe5ae5b617bd4db5500260209081526040808320938352929052205460ff1690565b34801561055757600080fd5b506102c1610566366004613ceb565b610fc1565b34801561057757600080fd5b5061059f7f000000000000000000000000000000000000000000000000000000000000000081565b6040516001600160a01b039091168152602001610298565b3480156105c357600080fd5b506102c16105d236600461398c565b60009182527f02dd7bc7dec4dceedda775e58dd541e08a116c6c53815c0bd028192f7b626800602090815260408084206001600160a01b0393909316845291905290205460ff1690565b34801561062857600080fd5b506102c16106373660046135f5565b610fd4565b34801561064857600080fd5b5061028e7f000000000000000000000000000000000000000000000000000000000000000081565b34801561067c57600080fd5b5061028e7f000000000000000000000000000000000000000000000000000000000000000081565b3480156106b057600080fd5b5061028e600081565b3480156106c557600080fd5b506107026040518060400160405280600581526020017f352e302e3000000000000000000000000000000000000000000000000000000081525081565b6040516102989190613d45565b34801561071b57600080fd5b506103d661072a366004613598565b610ff2565b34801561073b57600080fd5b5061028e7f000000000000000000000000000000000000000000000000000000000000000081565b34801561076f57600080fd5b5061059f7f000000000000000000000000000000000000000000000000000000000000000081565b3480156107a357600080fd5b506103d66107b236600461398c565b610fff565b3480156107c357600080fd5b506103d66107d2366004613d58565b611043565b3480156107e357600080fd5b5061028e7f000000000000000000000000000000000000000000000000000000000000000081565b34801561081757600080fd5b5061028e7f000000000000000000000000000000000000000000000000000000000000000081565b34801561084b57600080fd5b506103d661085a3660046135f5565b611053565b34801561086b57600080fd5b5061059f61087a366004613598565b6000602081905290815260409020546001600160a01b031681565b3480156108a157600080fd5b5061028e7f000000000000000000000000000000000000000000000000000000000000000081565b60006108d48261105d565b92915050565b600160208190526000918252604090912080549181015460028201546003830154600484015460058501546006860154600787015460088801805497989697959694956001600160a01b03948516959490931693919261093990613dfe565b80601f016020809104026020016040519081016040528092919081815260200182805461096590613dfe565b80156109b25780601f10610987576101008083540402835291602001916109b2565b820191906000526020600020905b81548152906001019060200180831161099557829003601f168201915b5050505050905089565b6109e060405180606001604052806060815260200160608152602001606081525090565b60008281527fc17b4b708b6f44255c20913a9d97a05300b670342c71fe5ae5b617bd4db550006020819052604091829020825160608101909352805491929182908290610a2c90613dfe565b80601f0160208091040260200160405190810160405280929190818152602001828054610a5890613dfe565b8015610aa55780601f10610a7a57610100808354040283529160200191610aa5565b820191906000526020600020905b815481529060010190602001808311610a8857829003601f168201915b50505050508152602001600182018054610abe90613dfe565b80601f0160208091040260200160405190810160405280929190818152602001828054610aea90613dfe565b8015610b375780601f10610b0c57610100808354040283529160200191610b37565b820191906000526020600020905b815481529060010190602001808311610b1a57829003601f168201915b50505050508152602001600282018054610b5090613dfe565b80601f0160208091040260200160405190810160405280929190818152602001828054610b7c90613dfe565b8015610bc95780601f10610b9e57610100808354040283529160200191610bc9565b820191906000526020600020905b815481529060010190602001808311610bac57829003601f168201915b505050505081525050915050919050565b7ff0c57e16840df040f15088dc2f81fe391c3923bec73e23a9662efc9c229c6a00805468010000000000000000810460ff16159067ffffffffffffffff16600081158015610c255750825b905060008267ffffffffffffffff166001148015610c425750303b155b905081158015610c50575080155b15610c87576040517ff92ee8a900000000000000000000000000000000000000000000000000000000815260040160405180910390fd5b84547fffffffffffffffffffffffffffffffffffffffffffffffff00000000000000001660011785558315610ce85784547fffffffffffffffffffffffffffffffffffffffffffffff00ffffffffffffffff16680100000000000000001785555b6001600160a01b038716610d28576040517f30a7a37f00000000000000000000000000000000000000000000000000000000815260040160405180910390fd5b610d306110f4565b610d386110f4565b610d406110f4565b610d486110f4565b610d51866110fe565b610d5c60008861113e565b504660c01b6002558315610dc55784547fffffffffffffffffffffffffffffffffffffffffffffff00ffffffffffffffff168555604051600181527fc7f505b2f371ae2175ee4913f4499e1f2633a7b5936321eed1cdaeb6115181d29060200160405180910390a15b50505050505050565b60008281527f02dd7bc7dec4dceedda775e58dd541e08a116c6c53815c0bd028192f7b6268006020526040902060010154610e088161122b565b610e12838361113e565b50505050565b6001600160a01b0381163314610e5a576040517f6697b23200000000000000000000000000000000000000000000000000000000815260040160405180910390fd5b610e648282611235565b505050565b610e716112f9565b610e7a826113c9565b610e8482826113d4565b5050565b6000610e926114da565b507f360894a13ba1a3210667c828492db98dca3e2076cc3735a920a3ca505d382bbc90565b610ec98888888888348989893361153c565b5050505050505050565b610ee18585858585336118bd565b5050505050565b60008080610ef58161122b565b6040805160806020601f8c018190040282018101909252606081018a8152610fb1928291908d908d9081908501838280828437600092019190915250505090825250604080516020601f8c018190048102820181019092528a815291810191908b908b9081908401838280828437600092019190915250505090825250604080516020601f8a018190048102820181019092528881529181019190899089908190840183828082843760009201919091525050509152506119af565b9250925050965096945050505050565b6000610fcd8383611b57565b9392505050565b600080610fe08161122b565b610fe983611dbb565b91505b50919050565b610ffc8133611e72565b50565b60008281527f02dd7bc7dec4dceedda775e58dd541e08a116c6c53815c0bd028192f7b62680060205260409020600101546110398161122b565b610e128383611235565b610ec98888888888888888611f55565b610ffc81336122a6565b60007fffffffff0000000000000000000000000000000000000000000000000000000082167f7965db0b0000000000000000000000000000000000000000000000000000000014806108d457507f01ffc9a7000000000000000000000000000000000000000000000000000000007fffffffff000000000000000000000000000000000000000000000000000000008316146108d4565b6110fc6124df565b565b6111066124df565b60005b8151811015610e845761113482828151811061112757611127613e4b565b60200260200101516119af565b5050600101611109565b60008281527f02dd7bc7dec4dceedda775e58dd541e08a116c6c53815c0bd028192f7b626800602081815260408084206001600160a01b038616855290915282205460ff16611221576000848152602082815260408083206001600160a01b0387168452909152902080547fffffffffffffffffffffffffffffffffffffffffffffffffffffffffffffff001660011790556111d73390565b6001600160a01b0316836001600160a01b0316857f2f8788117e7eff1d82e926ec794901d17c78024a50270940304540a733656f0d60405160405180910390a460019150506108d4565b60009150506108d4565b610ffc8133612546565b60008281527f02dd7bc7dec4dceedda775e58dd541e08a116c6c53815c0bd028192f7b626800602081815260408084206001600160a01b038616855290915282205460ff1615611221576000848152602082815260408083206001600160a01b038716808552925280832080547fffffffffffffffffffffffffffffffffffffffffffffffffffffffffffffff0016905551339287917ff6391f5c32d9c69d2a47ea670b442974b53935d1edc7fd64eb21e047a839171b9190a460019150506108d4565b306001600160a01b037f000000000000000000000000000000000000000000000000000000000000000016148061139257507f00000000000000000000000000000000000000000000000000000000000000006001600160a01b03166113867f360894a13ba1a3210667c828492db98dca3e2076cc3735a920a3ca505d382bbc546001600160a01b031690565b6001600160a01b031614155b156110fc576040517fe07c8dba00000000000000000000000000000000000000000000000000000000815260040160405180910390fd5b6000610e848161122b565b816001600160a01b03166352d1902d6040518163ffffffff1660e01b8152600401602060405180830381865afa92505050801561142e575060408051601f3d908101601f1916820190925261142b91810190613e7a565b60015b611474576040517f4c9c8ce30000000000000000000000000000000000000000000000000000000081526001600160a01b03831660048201526024015b60405180910390fd5b7f360894a13ba1a3210667c828492db98dca3e2076cc3735a920a3ca505d382bbc81146114d0576040517faa1d49a40000000000000000000000000000000000000000000000000000000081526004810182905260240161146b565b610e6483836125d3565b306001600160a01b037f000000000000000000000000000000000000000000000000000000000000000016146110fc576040517fe07c8dba00000000000000000000000000000000000000000000000000000000815260040160405180910390fd5b7f00000000000000000000000000000000000000000000000000000000000000008711158061158b57507f00000000000000000000000000000000000000000000000000000000000000008710155b156115c2576040517f445e056c00000000000000000000000000000000000000000000000000000000815260040160405180910390fd5b60c06115cf466001613ec2565b901b60025460016115e09190613ec2565b036115ed574660c01b6002555b847f00000000000000000000000000000000000000000000000000000000000000006116397f000000000000000000000000000000000000000000000000000000000000000085613ec2565b6116439190613ec2565b61164d9088613ed5565b1115611685576040517f7273245b00000000000000000000000000000000000000000000000000000000815260040160405180910390fd5b60007f00000000000000000000000000000000000000000000000000000000000000006116d27f00000000000000000000000000000000000000000000000000000000000000008a613ed5565b6116dc9190613ec2565b9050604051806101200160405280428152602001888152602001828152602001878152602001848152602001836001600160a01b03168152602001856001600160a01b031681526020018c81526020018b8b8080601f01602080910402602001604051908101604052809392919081815260200183838082843760009201829052509390945250506002805460019350829061177790613eec565b918290555081526020808201929092526040908101600020835181559183015160018301558201516002820155606082015160038201556080820151600482015560a08201516005820180546001600160a01b039283167fffffffffffffffffffffffff00000000000000000000000000000000000000009182161790915560c084015160068401805491909316911617905560e0820151600782015561010082015160088201906118299082613f6c565b506118629150506001600160a01b037f000000000000000000000000000000000000000000000000000000000000000016833084612629565b6002547f3b08b298012c416f3edcaa89a6a04489e9f3a2e2b189b7fd5f2864da3a740f9a8c8c8c8c8c878d8d8d428e6040516118a89b9a99989796959493929190614093565b60405180910390a25050505050505050505050565b6118c78686611b57565b5060006118d786600001516126a5565b90506118e682848787856126ee565b6001600160a01b038181166000908152602081905260409020541615611938576040517ffd764a3900000000000000000000000000000000000000000000000000000000815260040160405180910390fd5b6001600160a01b0381811660008181526020819052604080822080547fffffffffffffffffffffffff0000000000000000000000000000000000000000169487169485179055519192917f95f86f0783d4494f76a6aeaa178c399f2c6a140aa3e88d39f056b00f460d359a9190a350505050505050565b80515160009081907fc17b4b708b6f44255c20913a9d97a05300b670342c71fe5ae5b617bd4db550009060301480156119ed57508360200151516030145b80156119fe57508360400151516030145b611a34576040517f84c61bb600000000000000000000000000000000000000000000000000000000815260040160405180910390fd5b6000846000015185602001518660400151604051602001611a57939291906140fa565b60408051601f1981840301815291815281516020928301206000818152928590529120805491925090611a8990613dfe565b159050611a9b57946000945092505050565b60408051606081018252865181526020808801518183015287830151828401526000848152908590529190912081518190611ad69082613f6c565b5060208201516001820190611aeb9082613f6c565b5060408201516002820190611b009082613f6c565b50905050807f52b29bbdd97ab983419f50fa1590e5ab75e9942279e95e10a08607b06c23238b866000015187602001518860400151604051611b449392919061413d565b60405180910390a2946001945092505050565b6000807fc17b4b708b6f44255c20913a9d97a05300b670342c71fe5ae5b617bd4db5500090506000836020015184604001518560600151604051602001611ba0939291906140fa565b60408051601f1981840301815291815281516020928301206000818152928590529120805491925090611bd290613dfe565b9050600003611c0d576040517f38c4ac1600000000000000000000000000000000000000000000000000000000815260040160405180910390fd5b611c377f000000000000000000000000000000000000000000000000000000000000000042614176565b6103e88560800151611c499190614189565b11611c80576040517f19605e0a00000000000000000000000000000000000000000000000000000000815260040160405180910390fd5b6040517feac708a30000000000000000000000000000000000000000000000000000000081526001600160a01b037f0000000000000000000000000000000000000000000000000000000000000000169063eac708a390611ce790889088906004016141c4565b60006040518083038186803b158015611cff57600080fd5b505afa158015611d13573d6000803e3d6000fd5b505050506000611d2685600001516126a5565b6001600160a01b038116600090815260018501602052604090205490915015611d5557600093505050506108d4565b6001600160a01b038116600081815260018501602052604090819020849055865190518492917fbb4d6428d53ea924d94be0488473deb5c0a70c979f8477d21911cb5bee4037fd91611da79190613d45565b60405180910390a350600195945050505050565b60008181527fc17b4b708b6f44255c20913a9d97a05300b670342c71fe5ae5b617bd4db550006020819052604082208054611df590613dfe565b9050600003611e075750600092915050565b600083815260208290526040812090611e20828261352e565b611e2e60018301600061352e565b611e3c60028301600061352e565b505060405183907f4b71bedda4217966eac1aa49e35b1550e5ab87064ae179d1b36b393bd04eb74390600090a250600192915050565b6001600160a01b03828116600090815260208190526040902054811690821614611ec8576040517f07191dbf00000000000000000000000000000000000000000000000000000000815260040160405180910390fd5b6001600160a01b03808316600090815260208190526040902054611eec911661291a565b506001600160a01b03821660008181526020819052604080822080547fffffffffffffffffffffffff0000000000000000000000000000000000000000169055517f962f6082057b3b4fb251973bd737c7707bf1733cf85a0b7c86fd6c3caca260c59190a25050565b6000868152600160208181526040808420815161012081018352815481529381015492840192909252600282015490830152600381015460608301526004810154608083015260058101546001600160a01b0390811660a084015260068201541660c0830152600781015460e083015260088101805461010084019190611fdb90613dfe565b80601f016020809104026020016040519081016040528092919081815260200182805461200790613dfe565b80156120545780601f1061202957610100808354040283529160200191612054565b820191906000526020600020905b81548152906001019060200180831161203757829003601f168201915b5050509190925250505060a08101519091506001600160a01b03166120a5576040517f9da0635900000000000000000000000000000000000000000000000000000000815260040160405180910390fd5b80516120d2907f000000000000000000000000000000000000000000000000000000000000000090613ec2565b42111561210b576040517f159413f400000000000000000000000000000000000000000000000000000000815260040160405180910390fd5b600061211d8a8a8a8a8a8a8a8a6129cd565b600089815260016020819052604082208281559081018290556002810182905560038101829055600481018290556005810180547fffffffffffffffffffffffff000000000000000000000000000000000000000090811690915560068201805490911690556007810182905591925061219a600883018261352e565b50506121b0818360a00151878560400151612bfc565b60008083602001513a116121e9576121e48a8560a001518660c0015187608001518860e001518961010001518f8f8e612ccb565b925090505b60003a6122167f000000000000000000000000000000000000000000000000000000000000000085613ec2565b6122209190613ed5565b6001600160a01b0380861660009081526020819052604090205460a088015160608901519394506122579391909216919084612dc9565b8a7f3bcf275077501f1077e75b4e70896bf241dc8cbeec71823201ef711cfc454ea18b8b8b8b8760405161228f959493929190614258565b60405180910390a250505050505050505050505050565b600082815260016020526040902060058101546001600160a01b038381169116146122fd576040517f8166e98400000000000000000000000000000000000000000000000000000000815260040160405180910390fd5b805461232a907f000000000000000000000000000000000000000000000000000000000000000090613ec2565b4211612362576040517fd856047b00000000000000000000000000000000000000000000000000000000815260040160405180910390fd5b60038082015460028084015460008781526001602081905260408220828155908101829055928301819055938201849055600482018490556005820180547fffffffffffffffffffffffff000000000000000000000000000000000000000090811690915560068301805490911690556007820184905591926123e8600883018261352e565b5061241f90506001600160a01b037f0000000000000000000000000000000000000000000000000000000000000000168583612e81565b6000846001600160a01b03168360405160006040518083038185875af1925050503d806000811461246c576040519150601f19603f3d011682016040523d82523d6000602084013e612471565b606091505b50509050806124ac576040517ffbe8c5be00000000000000000000000000000000000000000000000000000000815260040160405180910390fd5b60405186907f58243f872c550ad02802199ade99eb4250f6bb19e9abbf2d3de7b969c0eb5e4f90600090a2505050505050565b7ff0c57e16840df040f15088dc2f81fe391c3923bec73e23a9662efc9c229c6a005468010000000000000000900460ff166110fc576040517fd7e6bcf800000000000000000000000000000000000000000000000000000000815260040160405180910390fd5b60008281527f02dd7bc7dec4dceedda775e58dd541e08a116c6c53815c0bd028192f7b626800602090815260408083206001600160a01b038516845290915290205460ff16610e84576040517fe2517d3f0000000000000000000000000000000000000000000000000000000081526001600160a01b03821660048201526024810183905260440161146b565b6125dc82612eb2565b6040516001600160a01b038316907fbc7cd75a20ee27fd9adebab32041f755214dbc6bffa90cc0225b39da2e5c2d3b90600090a280511561262157610e648282612f5a565b610e84612fd0565b6040516001600160a01b038481166024830152838116604483015260648201839052610e129186918216906323b872dd906084015b604051602081830303815290604052915060e01b6020820180517bffffffffffffffffffffffffffffffffffffffffffffffffffffffff8381831617835250505050613008565b600081516040146126e2576040517fbd9c80c100000000000000000000000000000000000000000000000000000000815260040160405180910390fd5b50805160209091012090565b6127187f000000000000000000000000000000000000000000000000000000000000000085613ec2565b421115612751576040517f0a151d0b00000000000000000000000000000000000000000000000000000000815260040160405180910390fd5b604080517f5f8784d207b73e6da533ec436e4e68df897ada404898707128cf43ddf65f7a186020808301919091526001600160a01b038816828401526060808301889052835180840390910181526080830184528051908201207fb03948446334eb9b2196d5eb166f69b9d49403eb4a12f36de8d3f9f3cb8e15c360a08401527fd13b7bcdea8dd87e8f9a0d206dc73d6264326a7f9f4c38119298bb466e785c5360c08401527fc89efdaa54c0f20c7adf612882df0950f5a951637e0307cdcb4c672f298b8bc660e08085019190915284518085039091018152610100840185528051908301207f1901000000000000000000000000000000000000000000000000000000000000610120850152610122840152610142808401829052845180850390910181526101628401808652815191840191909120610182601f8901859004909402850184019095528681529093926000926128cd92918991899182910183828082843760009201919091525086939250506130849050565b9050836001600160a01b0316816001600160a01b031614610ec9576040517ff5b2592500000000000000000000000000000000000000000000000000000000815260040160405180910390fd5b6001600160a01b03811660009081527fc17b4b708b6f44255c20913a9d97a05300b670342c71fe5ae5b617bd4db5500160205260408120547fc17b4b708b6f44255c20913a9d97a05300b670342c71fe5ae5b617bd4db55000906129815750600092915050565b6001600160a01b0383166000818152600183016020526040808220829055517f0f586d928fc7ce3b60c8a7c276a8562f9f53b126cebe71cf612948dfc52eff169190a250600192915050565b60006129f97f000000000000000000000000000000000000000000000000000000000000000083613ec2565b421115612a32576040517f0a151d0b00000000000000000000000000000000000000000000000000000000815260040160405180910390fd5b60007f37096cd2491f9c5ef86ecee2c1b7a06103393df9e824c16fab6722c818bd43ef888888604051612a6692919061428e565b60408051918290038220602083019490945281019190915260608101919091526080810186905260ff851660a082015260c0810184905260e00160408051601f1981840301815282825280516020918201207fb03948446334eb9b2196d5eb166f69b9d49403eb4a12f36de8d3f9f3cb8e15c3918401919091527fd13b7bcdea8dd87e8f9a0d206dc73d6264326a7f9f4c38119298bb466e785c53918301919091527fc89efdaa54c0f20c7adf612882df0950f5a951637e0307cdcb4c672f298b8bc66060830152915060009060800160408051601f198184030181529082905280516020918201207f1901000000000000000000000000000000000000000000000000000000000000918301919091526022820152604281018390526062016040516020818303038152906040528051906020012090506000612be28c8c8080601f01602080910402602001604051908101604052809392919081815260200183838082843760009201919091525086939250506130849050565b9050612bed816130ae565b9b9a5050505050505050505050565b6001600160a01b038085166000908152602081905260409020547f000000000000000000000000000000000000000000000000000000000000000084027f0000000000000000000000000000000000000000000000000000000000000000019182840391612c8f917f00000000000000000000000000000000000000000000000000000000000000008116911684612e81565b612cc36001600160a01b037f0000000000000000000000000000000000000000000000000000000000000000168683612e81565b505050505050565b60008060005a905060008a6001600160a01b03168a8e8e8c8c8c8c8c604051602401612cfd979695949392919061429e565b60408051601f198184030181529181526020820180517bffffffffffffffffffffffffffffffffffffffffffffffffffffffff167f9e24036d0000000000000000000000000000000000000000000000000000000017905251612d6091906142f7565b60006040518083038160008787f1925050503d8060008114612d9e576040519150601f19603f3d011682016040523d82523d6000602084013e612da3565b606091505b5050905060005a612db49084614176565b919e919d50909b505050505050505050505050565b818111612dd65780612dd8565b815b90506000846001600160a01b03168260405160006040518083038185875af1925050503d8060008114612e27576040519150601f19603f3d011682016040523d82523d6000602084013e612e2c565b606091505b50909150506001600160a01b038416612e458385614176565b604051600081818185875af1925050503d8060008114610ec9576040519150601f19603f3d011682016040523d82523d6000602084013e610ec9565b6040516001600160a01b03838116602483015260448201839052610e6491859182169063a9059cbb9060640161265e565b806001600160a01b03163b600003612f01576040517f4c9c8ce30000000000000000000000000000000000000000000000000000000081526001600160a01b038216600482015260240161146b565b7f360894a13ba1a3210667c828492db98dca3e2076cc3735a920a3ca505d382bbc80547fffffffffffffffffffffffff0000000000000000000000000000000000000000166001600160a01b0392909216919091179055565b6060600080846001600160a01b031684604051612f7791906142f7565b600060405180830381855af49150503d8060008114612fb2576040519150601f19603f3d011682016040523d82523d6000602084013e612fb7565b606091505b5091509150612fc7858383613193565b95945050505050565b34156110fc576040517fb398979f00000000000000000000000000000000000000000000000000000000815260040160405180910390fd5b600061301d6001600160a01b03841683613208565b905080516000141580156130425750808060200190518101906130409190614313565b155b15610e64576040517f5274afe70000000000000000000000000000000000000000000000000000000081526001600160a01b038416600482015260240161146b565b6000806000806130948686613216565b9250925092506130a48282613263565b5090949350505050565b6001600160a01b03811660009081527fc17b4b708b6f44255c20913a9d97a05300b670342c71fe5ae5b617bd4db5500160205260409020547fc17b4b708b6f44255c20913a9d97a05300b670342c71fe5ae5b617bd4db55000908061313f576040517f3dd8ca9500000000000000000000000000000000000000000000000000000000815260040160405180910390fd5b6000818152602083905260409020805461315890613dfe565b9050600003610e64576040517f38c4ac1600000000000000000000000000000000000000000000000000000000815260040160405180910390fd5b6060826131a8576131a382613367565b610fcd565b81511580156131bf57506001600160a01b0384163b155b15613201576040517f9996b3150000000000000000000000000000000000000000000000000000000081526001600160a01b038516600482015260240161146b565b5092915050565b6060610fcd838360006133a9565b600080600083516041036132505760208401516040850151606086015160001a6132428882858561345f565b95509550955050505061325c565b50508151600091506002905b9250925092565b600082600381111561327757613277614335565b03613280575050565b600182600381111561329457613294614335565b036132cb576040517ff645eedf00000000000000000000000000000000000000000000000000000000815260040160405180910390fd5b60028260038111156132df576132df614335565b03613319576040517ffce698f70000000000000000000000000000000000000000000000000000000081526004810182905260240161146b565b600382600381111561332d5761332d614335565b03610e84576040517fd78bce0c0000000000000000000000000000000000000000000000000000000081526004810182905260240161146b565b8051156133775780518082602001fd5b6040517f1425ea4200000000000000000000000000000000000000000000000000000000815260040160405180910390fd5b6060814710156133e7576040517fcd78605900000000000000000000000000000000000000000000000000000000815230600482015260240161146b565b600080856001600160a01b0316848660405161340391906142f7565b60006040518083038185875af1925050503d8060008114613440576040519150601f19603f3d011682016040523d82523d6000602084013e613445565b606091505b5091509150613455868383613193565b9695505050505050565b600080807f7fffffffffffffffffffffffffffffff5d576e7357a4501ddfe92f46681b20a084111561349a5750600091506003905082613524565b604080516000808252602082018084528a905260ff891692820192909252606081018790526080810186905260019060a0016020604051602081039080840390855afa1580156134ee573d6000803e3d6000fd5b5050604051601f1901519150506001600160a01b03811661351a57506000925060019150829050613524565b9250600091508190505b9450945094915050565b50805461353a90613dfe565b6000825580601f1061354a575050565b601f016020900490600052602060002090810190610ffc91905b808211156135785760008155600101613564565b5090565b80356001600160a01b038116811461359357600080fd5b919050565b6000602082840312156135aa57600080fd5b610fcd8261357c565b6000602082840312156135c557600080fd5b81357fffffffff0000000000000000000000000000000000000000000000000000000081168114610fcd57600080fd5b60006020828403121561360757600080fd5b5035919050565b60005b83811015613629578181015183820152602001613611565b50506000910152565b6000815180845261364a81602086016020860161360e565b601f01601f19169290920160200192915050565b60006101208b83528a60208401528960408401528860608401528760808401526001600160a01b0380881660a085015280871660c0850152508460e0840152806101008401526136b081840185613632565b9c9b505050505050505050505050565b6020815260008251606060208401526136dc6080840182613632565b90506020840151601f19808584030160408601526136fa8383613632565b9250604086015191508085840301606086015250612fc78282613632565b7f4e487b7100000000000000000000000000000000000000000000000000000000600052604160045260246000fd5b6040516060810167ffffffffffffffff8111828210171561376a5761376a613718565b60405290565b60405160a0810167ffffffffffffffff8111828210171561376a5761376a613718565b604051601f8201601f1916810167ffffffffffffffff811182821017156137bc576137bc613718565b604052919050565b600082601f8301126137d557600080fd5b813567ffffffffffffffff8111156137ef576137ef613718565b6138026020601f19601f84011601613793565b81815284602083860101111561381757600080fd5b816020850160208301376000918101602001919091529392505050565b6000806040838503121561384757600080fd5b6138508361357c565b915060208084013567ffffffffffffffff8082111561386e57600080fd5b818601915086601f83011261388257600080fd5b81358181111561389457613894613718565b8060051b6138a3858201613793565b918252838101850191858101908a8411156138bd57600080fd5b86860192505b8383101561397b578235858111156138db5760008081fd5b86016060818d03601f19018113156138f35760008081fd5b6138fb613747565b898301358881111561390d5760008081fd5b61391b8f8c838701016137c4565b8252506040830135888111156139315760008081fd5b61393f8f8c838701016137c4565b828c0152509082013590878211156139575760008081fd5b6139658e8b848601016137c4565b60408201528452505091860191908601906138c3565b809750505050505050509250929050565b6000806040838503121561399f57600080fd5b823591506139af6020840161357c565b90509250929050565b600080604083850312156139cb57600080fd5b6139d48361357c565b9150602083013567ffffffffffffffff8111156139f057600080fd5b6139fc858286016137c4565b9150509250929050565b60008083601f840112613a1857600080fd5b50813567ffffffffffffffff811115613a3057600080fd5b602083019150836020828501011115613a4857600080fd5b9250929050565b60008060008060008060008060e0898b031215613a6b57600080fd5b88359750602089013567ffffffffffffffff811115613a8957600080fd5b613a958b828c01613a06565b9098509650506040890135945060608901359350613ab560808a0161357c565b9250613ac360a08a0161357c565b915060c089013590509295985092959890939650565b600060a08284031215613aeb57600080fd5b613af3613770565b9050813567ffffffffffffffff80821115613b0d57600080fd5b613b19858386016137c4565b83526020840135915080821115613b2f57600080fd5b613b3b858386016137c4565b60208401526040840135915080821115613b5457600080fd5b613b60858386016137c4565b60408401526060840135915080821115613b7957600080fd5b50613b86848285016137c4565b6060830152506080820135608082015292915050565b600080600080600060808688031215613bb457600080fd5b853567ffffffffffffffff80821115613bcc57600080fd5b613bd889838a016137c4565b96506020880135915080821115613bee57600080fd5b613bfa89838a01613ad9565b95506040880135915080821115613c1057600080fd5b50613c1d88828901613a06565b96999598509660600135949350505050565b60008060008060008060608789031215613c4857600080fd5b863567ffffffffffffffff80821115613c6057600080fd5b613c6c8a838b01613a06565b90985096506020890135915080821115613c8557600080fd5b613c918a838b01613a06565b90965094506040890135915080821115613caa57600080fd5b50613cb789828a01613a06565b979a9699509497509295939492505050565b60008060408385031215613cdc57600080fd5b50508035926020909101359150565b60008060408385031215613cfe57600080fd5b823567ffffffffffffffff80821115613d1657600080fd5b613d22868387016137c4565b93506020850135915080821115613d3857600080fd5b506139fc85828601613ad9565b602081526000610fcd6020830184613632565b60008060008060008060008060c0898b031215613d7457600080fd5b883567ffffffffffffffff80821115613d8c57600080fd5b613d988c838d01613a06565b909a50985060208b0135975060408b0135915080821115613db857600080fd5b50613dc58b828c01613a06565b90965094505060608901359250608089013560ff81168114613de657600080fd5b8092505060a089013590509295985092959890939650565b600181811c90821680613e1257607f821691505b602082108103610fec577f4e487b7100000000000000000000000000000000000000000000000000000000600052602260045260246000fd5b7f4e487b7100000000000000000000000000000000000000000000000000000000600052603260045260246000fd5b600060208284031215613e8c57600080fd5b5051919050565b7f4e487b7100000000000000000000000000000000000000000000000000000000600052601160045260246000fd5b808201808211156108d4576108d4613e93565b80820281158282048414176108d4576108d4613e93565b60007fffffffffffffffffffffffffffffffffffffffffffffffffffffffffffffffff8203613f1d57613f1d613e93565b5060010190565b601f821115610e64576000816000526020600020601f850160051c81016020861015613f4d5750805b601f850160051c820191505b81811015612cc357828155600101613f59565b815167ffffffffffffffff811115613f8657613f86613718565b613f9a81613f948454613dfe565b84613f24565b602080601f831160018114613fed5760008415613fb75750858301515b7fffffffffffffffffffffffffffffffffffffffffffffffffffffffffffffffff600386901b1c1916600185901b178555612cc3565b600085815260208120601f198616915b8281101561401c57888601518255948401946001909101908401613ffd565b508582101561405857878501517fffffffffffffffffffffffffffffffffffffffffffffffffffffffffffffffff600388901b60f8161c191681555b5050505050600190811b01905550565b818352818160208501375060006020828401015260006020601f19601f840116840101905092915050565b60006101408d83528060208401526140ae8184018d8f614068565b604084019b909b5250506060810197909752608087019590955260a08601939093526001600160a01b0391821660c08601521660e0840152610100830152610120909101529392505050565b6000845161410c81846020890161360e565b84519083019061412081836020890161360e565b845191019061413381836020880161360e565b0195945050505050565b6060815260006141506060830186613632565b82810360208401526141628186613632565b905082810360408401526134558185613632565b818103818111156108d4576108d4613e93565b6000826141bf577f4e487b7100000000000000000000000000000000000000000000000000000000600052601260045260246000fd5b500490565b6040815260006141d76040830185613632565b8281036020840152835160a082526141f260a0830182613632565b90506020850151828203602084015261420b8282613632565b915050604085015182820360408401526142258282613632565b9150506060850151828203606084015261423f8282613632565b9150506080850151608083015280925050509392505050565b60808152600061426c608083018789614068565b60208301959095525060ff929092166040830152151560609091015292915050565b8183823760009101908152919050565b8781526001600160a01b038716602082015285604082015260c0606082015260006142cc60c0830187613632565b82810360808401526142df818688614068565b91505060ff831660a083015298975050505050505050565b6000825161430981846020870161360e565b9190910192915050565b60006020828403121561432557600080fd5b81518015158114610fcd57600080fd5b7f4e487b7100000000000000000000000000000000000000000000000000000000600052602160045260246000fdfea2646970667358221220d9275fc1eb6942b0c06980bd6911b8477f2e35fa089169af35e88818b16eda4e64736f6c63430008190033",
  "linkReferences": {},
  "deployedLinkReferences": {}
}