{
  "_format": "hh-sol-artifact-1",
  "contractName": "Relay",
  "sourceName": "contracts/serverless-v2/Relay.sol",
  "abi": [
    {
      "inputs": [
        {
          "internalType": "contract IAttestationVerifier",
          "name": "attestationVerifier",
          "type": "address"
        },
        {
          "internalType": "uint256",
          "name": "maxAge",
          "type": "uint256"
        },
        {
          "internalType": "contract IERC20",
          "name": "_token",
          "type": "address"
        },
        {
          "internalType": "uint256",
          "name": "_globalMinTimeout",
          "type": "uint256"
        },
        {
          "internalType": "uint256",
          "name": "_globalMaxTimeout",
          "type": "uint256"
        },
        {
          "internalType": "uint256",
          "name": "_overallTimeout",
          "type": "uint256"
        },
        {
          "internalType": "uint256",
          "name": "_executionFeePerMs",
          "type": "uint256"
        },
        {
          "internalType": "uint256",
          "name": "_gatewayFeePerJob",
          "type": "uint256"
        },
        {
          "internalType": "uint256",
          "name": "_fixedGas",
          "type": "uint256"
        },
        {
          "internalType": "uint256",
          "name": "_callbackMeasureGas",
          "type": "uint256"
        }
      ],
      "stateMutability": "nonpayable",
      "type": "constructor"
    },
    {
      "inputs": [],
      "name": "AccessControlBadConfirmation",
      "type": "error"
    },
    {
      "inputs": [
        {
          "internalType": "address",
          "name": "account",
          "type": "address"
        },
        {
          "internalType": "bytes32",
          "name": "neededRole",
          "type": "bytes32"
        }
      ],
      "name": "AccessControlUnauthorizedAccount",
      "type": "error"
    },
    {
      "inputs": [
        {
          "internalType": "address",
          "name": "target",
          "type": "address"
        }
      ],
      "name": "AddressEmptyCode",
      "type": "error"
    },
    {
      "inputs": [
        {
          "internalType": "address",
          "name": "account",
          "type": "address"
        }
      ],
      "name": "AddressInsufficientBalance",
      "type": "error"
    },
    {
      "inputs": [],
      "name": "AttestationAutherAttestationTooOld",
      "type": "error"
    },
    {
      "inputs": [],
      "name": "AttestationAutherImageNotInFamily",
      "type": "error"
    },
    {
      "inputs": [],
      "name": "AttestationAutherImageNotWhitelisted",
      "type": "error"
    },
    {
      "inputs": [],
      "name": "AttestationAutherKeyNotVerified",
      "type": "error"
    },
    {
      "inputs": [],
      "name": "AttestationAutherMismatchedLengths",
      "type": "error"
    },
    {
      "inputs": [],
      "name": "AttestationAutherPCRsInvalid",
      "type": "error"
    },
    {
      "inputs": [],
      "name": "AttestationAutherPubkeyLengthInvalid",
      "type": "error"
    },
    {
      "inputs": [],
      "name": "ECDSAInvalidSignature",
      "type": "error"
    },
    {
      "inputs": [
        {
          "internalType": "uint256",
          "name": "length",
          "type": "uint256"
        }
      ],
      "name": "ECDSAInvalidSignatureLength",
      "type": "error"
    },
    {
      "inputs": [
        {
          "internalType": "bytes32",
          "name": "s",
          "type": "bytes32"
        }
      ],
      "name": "ECDSAInvalidSignatureS",
      "type": "error"
    },
    {
      "inputs": [
        {
          "internalType": "address",
          "name": "implementation",
          "type": "address"
        }
      ],
      "name": "ERC1967InvalidImplementation",
      "type": "error"
    },
    {
      "inputs": [],
      "name": "ERC1967NonPayable",
      "type": "error"
    },
    {
      "inputs": [],
      "name": "FailedInnerCall",
      "type": "error"
    },
    {
      "inputs": [],
      "name": "InvalidInitialization",
      "type": "error"
    },
    {
      "inputs": [],
      "name": "NotInitializing",
      "type": "error"
    },
    {
      "inputs": [],
      "name": "RelayCallbackDepositTransferFailed",
      "type": "error"
    },
    {
      "inputs": [],
      "name": "RelayGatewayAlreadyExists",
      "type": "error"
    },
    {
      "inputs": [],
      "name": "RelayInsufficientCallbackDeposit",
      "type": "error"
    },
    {
      "inputs": [],
      "name": "RelayInsufficientMaxGasPrice",
      "type": "error"
    },
    {
      "inputs": [],
      "name": "RelayInsufficientUsdcDeposit",
      "type": "error"
    },
    {
      "inputs": [],
      "name": "RelayInvalidGateway",
      "type": "error"
    },
    {
      "inputs": [],
      "name": "RelayInvalidGlobalTimeouts",
      "type": "error"
    },
    {
      "inputs": [],
      "name": "RelayInvalidJobOwner",
      "type": "error"
    },
    {
      "inputs": [],
      "name": "RelayInvalidJobSubscription",
      "type": "error"
    },
    {
      "inputs": [],
      "name": "RelayInvalidSigner",
      "type": "error"
    },
    {
      "inputs": [],
      "name": "RelayInvalidTerminationTimestamp",
      "type": "error"
    },
    {
      "inputs": [],
      "name": "RelayInvalidToken",
      "type": "error"
    },
    {
      "inputs": [],
      "name": "RelayInvalidUserTimeout",
      "type": "error"
    },
    {
      "inputs": [],
      "name": "RelayJobNotExists",
      "type": "error"
    },
    {
      "inputs": [],
      "name": "RelayNotJobSubscriptionOwner",
      "type": "error"
    },
    {
      "inputs": [],
      "name": "RelayOverallTimeoutNotOver",
      "type": "error"
    },
    {
      "inputs": [],
      "name": "RelayOverallTimeoutOver",
      "type": "error"
    },
    {
      "inputs": [],
      "name": "RelaySignatureTooOld",
      "type": "error"
    },
    {
      "inputs": [],
      "name": "RelayTerminationConditionPending",
      "type": "error"
    },
    {
      "inputs": [],
      "name": "RelayZeroAddressAdmin",
      "type": "error"
    },
    {
      "inputs": [
        {
          "internalType": "address",
          "name": "token",
          "type": "address"
        }
      ],
      "name": "SafeERC20FailedOperation",
      "type": "error"
    },
    {
      "inputs": [],
      "name": "UUPSUnauthorizedCallContext",
      "type": "error"
    },
    {
      "inputs": [
        {
          "internalType": "bytes32",
          "name": "slot",
          "type": "bytes32"
        }
      ],
      "name": "UUPSUnsupportedProxiableUUID",
      "type": "error"
    },
    {
      "anonymous": false,
      "inputs": [
        {
          "indexed": true,
          "internalType": "bytes32",
          "name": "imageId",
          "type": "bytes32"
        },
        {
          "indexed": false,
          "internalType": "bytes32",
          "name": "family",
          "type": "bytes32"
        }
      ],
      "name": "EnclaveImageAddedToFamily",
      "type": "event"
    },
    {
      "anonymous": false,
      "inputs": [
        {
          "indexed": true,
          "internalType": "bytes32",
          "name": "imageId",
          "type": "bytes32"
        },
        {
          "indexed": false,
          "internalType": "bytes32",
          "name": "family",
          "type": "bytes32"
        }
      ],
      "name": "EnclaveImageRemovedFromFamily",
      "type": "event"
    },
    {
      "anonymous": false,
      "inputs": [
        {
          "indexed": true,
          "internalType": "bytes32",
          "name": "imageId",
          "type": "bytes32"
        }
      ],
      "name": "EnclaveImageRevoked",
      "type": "event"
    },
    {
      "anonymous": false,
      "inputs": [
        {
          "indexed": true,
          "internalType": "bytes32",
          "name": "imageId",
          "type": "bytes32"
        },
        {
          "indexed": false,
          "internalType": "bytes",
          "name": "PCR0",
          "type": "bytes"
        },
        {
          "indexed": false,
          "internalType": "bytes",
          "name": "PCR1",
          "type": "bytes"
        },
        {
          "indexed": false,
          "internalType": "bytes",
          "name": "PCR2",
          "type": "bytes"
        }
      ],
      "name": "EnclaveImageWhitelisted",
      "type": "event"
    },
    {
      "anonymous": false,
      "inputs": [
        {
          "indexed": true,
          "internalType": "address",
          "name": "enclaveAddress",
          "type": "address"
        }
      ],
      "name": "EnclaveKeyRevoked",
      "type": "event"
    },
    {
      "anonymous": false,
      "inputs": [
        {
          "indexed": true,
          "internalType": "address",
          "name": "enclaveAddress",
          "type": "address"
        },
        {
          "indexed": true,
          "internalType": "bytes32",
          "name": "imageId",
          "type": "bytes32"
        },
        {
          "indexed": false,
          "internalType": "bytes",
          "name": "enclavePubKey",
          "type": "bytes"
        }
      ],
      "name": "EnclaveKeyVerified",
      "type": "event"
    },
    {
      "anonymous": false,
      "inputs": [
        {
          "indexed": true,
          "internalType": "address",
          "name": "enclaveAddress",
          "type": "address"
        },
        {
          "indexed": true,
          "internalType": "bytes32",
          "name": "imageId",
          "type": "bytes32"
        },
        {
          "indexed": false,
          "internalType": "bytes",
          "name": "enclavePubKey",
          "type": "bytes"
        }
      ],
      "name": "EnclaveKeyWhitelisted",
      "type": "event"
    },
    {
      "anonymous": false,
      "inputs": [
        {
          "indexed": true,
          "internalType": "address",
          "name": "enclaveAddress",
          "type": "address"
        }
      ],
      "name": "GatewayDeregistered",
      "type": "event"
    },
    {
      "anonymous": false,
      "inputs": [
        {
          "indexed": true,
          "internalType": "address",
          "name": "owner",
          "type": "address"
        },
        {
          "indexed": true,
          "internalType": "address",
          "name": "enclaveAddress",
          "type": "address"
        }
      ],
      "name": "GatewayRegistered",
      "type": "event"
    },
    {
      "anonymous": false,
      "inputs": [
        {
          "indexed": false,
          "internalType": "uint64",
          "name": "version",
          "type": "uint64"
        }
      ],
      "name": "Initialized",
      "type": "event"
    },
    {
      "anonymous": false,
      "inputs": [
        {
          "indexed": true,
          "internalType": "uint256",
          "name": "jobId",
          "type": "uint256"
        }
      ],
      "name": "JobCancelled",
      "type": "event"
    },
    {
      "anonymous": false,
      "inputs": [
        {
          "indexed": true,
          "internalType": "uint256",
          "name": "jobId",
          "type": "uint256"
        },
        {
          "indexed": false,
          "internalType": "bytes32",
          "name": "codehash",
          "type": "bytes32"
        },
        {
          "indexed": false,
          "internalType": "bytes",
          "name": "codeInputs",
          "type": "bytes"
        },
        {
          "indexed": false,
          "internalType": "uint256",
          "name": "userTimeout",
          "type": "uint256"
        },
        {
          "indexed": false,
          "internalType": "uint256",
          "name": "maxGasPrice",
          "type": "uint256"
        },
        {
          "indexed": false,
          "internalType": "uint256",
          "name": "usdcDeposit",
          "type": "uint256"
        },
        {
          "indexed": false,
          "internalType": "uint256",
          "name": "callbackDeposit",
          "type": "uint256"
        },
        {
          "indexed": false,
          "internalType": "address",
          "name": "refundAccount",
          "type": "address"
        },
        {
          "indexed": false,
          "internalType": "address",
          "name": "callbackContract",
          "type": "address"
        },
        {
          "indexed": false,
          "internalType": "uint256",
          "name": "startTime",
          "type": "uint256"
        },
        {
          "indexed": false,
          "internalType": "uint256",
          "name": "callbackGasLimit",
          "type": "uint256"
        }
      ],
      "name": "JobRelayed",
      "type": "event"
    },
    {
      "anonymous": false,
      "inputs": [
        {
          "indexed": true,
          "internalType": "uint256",
          "name": "jobId",
          "type": "uint256"
        },
        {
          "indexed": false,
          "internalType": "bytes",
          "name": "output",
          "type": "bytes"
        },
        {
          "indexed": false,
          "internalType": "uint256",
          "name": "totalTime",
          "type": "uint256"
        },
        {
          "indexed": false,
          "internalType": "uint256",
          "name": "errorCode",
          "type": "uint256"
        },
        {
          "indexed": false,
          "internalType": "bool",
          "name": "success",
          "type": "bool"
        }
      ],
      "name": "JobResponded",
      "type": "event"
    },
    {
      "anonymous": false,
      "inputs": [
        {
          "indexed": true,
          "internalType": "uint256",
          "name": "jobSubsId",
          "type": "uint256"
        },
        {
          "indexed": true,
          "internalType": "address",
          "name": "depositor",
          "type": "address"
        },
        {
          "indexed": false,
          "internalType": "uint256",
          "name": "usdcDeposit",
          "type": "uint256"
        },
        {
          "indexed": false,
          "internalType": "uint256",
          "name": "callbackDeposit",
          "type": "uint256"
        }
      ],
      "name": "JobSubscriptionDeposited",
      "type": "event"
    },
    {
      "anonymous": false,
      "inputs": [
        {
          "indexed": true,
          "internalType": "uint256",
          "name": "jobSubsId",
          "type": "uint256"
        },
        {
          "indexed": false,
          "internalType": "bytes32",
          "name": "_codehash",
          "type": "bytes32"
        },
        {
          "indexed": false,
          "internalType": "bytes",
          "name": "_codeInputs",
          "type": "bytes"
        }
      ],
      "name": "JobSubscriptionJobParamsUpdated",
      "type": "event"
    },
    {
      "anonymous": false,
      "inputs": [
        {
          "indexed": true,
          "internalType": "uint256",
          "name": "jobSubsId",
          "type": "uint256"
        },
        {
          "indexed": false,
          "internalType": "bytes",
          "name": "output",
          "type": "bytes"
        },
        {
          "indexed": false,
          "internalType": "uint256",
          "name": "totalTime",
          "type": "uint256"
        },
        {
          "indexed": false,
          "internalType": "uint256",
          "name": "errorCode",
          "type": "uint256"
        },
        {
          "indexed": false,
          "internalType": "bool",
          "name": "success",
          "type": "bool"
        },
        {
          "indexed": false,
          "internalType": "uint256",
          "name": "currentRuns",
          "type": "uint256"
        },
        {
          "indexed": false,
          "internalType": "uint256",
          "name": "lastRunTimestamp",
          "type": "uint256"
        }
      ],
      "name": "JobSubscriptionResponded",
      "type": "event"
    },
    {
      "anonymous": false,
      "inputs": [
        {
          "indexed": true,
          "internalType": "uint256",
          "name": "jobSubsId",
          "type": "uint256"
        },
        {
          "indexed": true,
          "internalType": "address",
          "name": "jobSubscriber",
          "type": "address"
        },
        {
          "indexed": false,
          "internalType": "uint256",
          "name": "periodicGap",
          "type": "uint256"
        },
        {
          "indexed": false,
          "internalType": "uint256",
          "name": "usdcDeposit",
          "type": "uint256"
        },
        {
          "indexed": false,
          "internalType": "uint256",
          "name": "terminationTimestamp",
          "type": "uint256"
        },
        {
          "indexed": false,
          "internalType": "uint256",
          "name": "userTimeout",
          "type": "uint256"
        },
        {
          "indexed": false,
          "internalType": "address",
          "name": "refundAccount",
          "type": "address"
        },
        {
          "indexed": false,
          "internalType": "bytes32",
          "name": "codehash",
          "type": "bytes32"
        },
        {
          "indexed": false,
          "internalType": "bytes",
          "name": "codeInputs",
          "type": "bytes"
        },
        {
          "indexed": false,
          "internalType": "uint256",
          "name": "startTime",
          "type": "uint256"
        }
      ],
      "name": "JobSubscriptionStarted",
      "type": "event"
    },
    {
      "anonymous": false,
      "inputs": [
        {
          "indexed": true,
          "internalType": "uint256",
          "name": "jobSubsId",
          "type": "uint256"
        },
        {
          "indexed": true,
          "internalType": "address",
          "name": "withdrawer",
          "type": "address"
        },
        {
          "indexed": false,
          "internalType": "uint256",
          "name": "usdcAmountWithdrawn",
          "type": "uint256"
        },
        {
          "indexed": false,
          "internalType": "uint256",
          "name": "callbackAmountWithdrawn",
          "type": "uint256"
        },
        {
          "indexed": false,
          "internalType": "bool",
          "name": "success",
          "type": "bool"
        }
      ],
      "name": "JobSubscriptionTerminated",
      "type": "event"
    },
    {
      "anonymous": false,
      "inputs": [
        {
          "indexed": true,
          "internalType": "uint256",
          "name": "jobSubsId",
          "type": "uint256"
        },
        {
          "indexed": false,
          "internalType": "uint256",
          "name": "terminationTimestamp",
          "type": "uint256"
        }
      ],
      "name": "JobSubscriptionTerminationParamsUpdated",
      "type": "event"
    },
    {
      "anonymous": false,
      "inputs": [
        {
          "indexed": true,
          "internalType": "bytes32",
          "name": "role",
          "type": "bytes32"
        },
        {
          "indexed": true,
          "internalType": "bytes32",
          "name": "previousAdminRole",
          "type": "bytes32"
        },
        {
          "indexed": true,
          "internalType": "bytes32",
          "name": "newAdminRole",
          "type": "bytes32"
        }
      ],
      "name": "RoleAdminChanged",
      "type": "event"
    },
    {
      "anonymous": false,
      "inputs": [
        {
          "indexed": true,
          "internalType": "bytes32",
          "name": "role",
          "type": "bytes32"
        },
        {
          "indexed": true,
          "internalType": "address",
          "name": "account",
          "type": "address"
        },
        {
          "indexed": true,
          "internalType": "address",
          "name": "sender",
          "type": "address"
        }
      ],
      "name": "RoleGranted",
      "type": "event"
    },
    {
      "anonymous": false,
      "inputs": [
        {
          "indexed": true,
          "internalType": "bytes32",
          "name": "role",
          "type": "bytes32"
        },
        {
          "indexed": true,
          "internalType": "address",
          "name": "account",
          "type": "address"
        },
        {
          "indexed": true,
          "internalType": "address",
          "name": "sender",
          "type": "address"
        }
      ],
      "name": "RoleRevoked",
      "type": "event"
    },
    {
      "anonymous": false,
      "inputs": [
        {
          "indexed": true,
          "internalType": "address",
          "name": "implementation",
          "type": "address"
        }
      ],
      "name": "Upgraded",
      "type": "event"
    },
    {
      "inputs": [],
      "name": "ATTESTATION_MAX_AGE",
      "outputs": [
        {
          "internalType": "uint256",
          "name": "",
          "type": "uint256"
        }
      ],
      "stateMutability": "view",
      "type": "function"
    },
    {
      "inputs": [],
      "name": "ATTESTATION_VERIFIER",
      "outputs": [
        {
          "internalType": "contract IAttestationVerifier",
          "name": "",
          "type": "address"
        }
      ],
      "stateMutability": "view",
      "type": "function"
    },
    {
      "inputs": [],
      "name": "CALLBACK_MEASURE_GAS",
      "outputs": [
        {
          "internalType": "uint256",
          "name": "",
          "type": "uint256"
        }
      ],
      "stateMutability": "view",
      "type": "function"
    },
    {
      "inputs": [],
      "name": "DEFAULT_ADMIN_ROLE",
      "outputs": [
        {
          "internalType": "bytes32",
          "name": "",
          "type": "bytes32"
        }
      ],
      "stateMutability": "view",
      "type": "function"
    },
    {
      "inputs": [],
      "name": "EXECUTION_FEE_PER_MS",
      "outputs": [
        {
          "internalType": "uint256",
          "name": "",
          "type": "uint256"
        }
      ],
      "stateMutability": "view",
      "type": "function"
    },
    {
      "inputs": [],
      "name": "FIXED_GAS",
      "outputs": [
        {
          "internalType": "uint256",
          "name": "",
          "type": "uint256"
        }
      ],
      "stateMutability": "view",
      "type": "function"
    },
    {
      "inputs": [],
      "name": "GATEWAY_FEE_PER_JOB",
      "outputs": [
        {
          "internalType": "uint256",
          "name": "",
          "type": "uint256"
        }
      ],
      "stateMutability": "view",
      "type": "function"
    },
    {
      "inputs": [],
      "name": "GLOBAL_MAX_TIMEOUT",
      "outputs": [
        {
          "internalType": "uint256",
          "name": "",
          "type": "uint256"
        }
      ],
      "stateMutability": "view",
      "type": "function"
    },
    {
      "inputs": [],
      "name": "GLOBAL_MIN_TIMEOUT",
      "outputs": [
        {
          "internalType": "uint256",
          "name": "",
          "type": "uint256"
        }
      ],
      "stateMutability": "view",
      "type": "function"
    },
    {
      "inputs": [],
      "name": "OVERALL_TIMEOUT",
      "outputs": [
        {
          "internalType": "uint256",
          "name": "",
          "type": "uint256"
        }
      ],
      "stateMutability": "view",
      "type": "function"
    },
    {
      "inputs": [],
      "name": "TOKEN",
      "outputs": [
        {
          "internalType": "contract IERC20",
          "name": "",
          "type": "address"
        }
      ],
      "stateMutability": "view",
      "type": "function"
    },
    {
      "inputs": [],
      "name": "UPGRADE_INTERFACE_VERSION",
      "outputs": [
        {
          "internalType": "string",
          "name": "",
          "type": "string"
        }
      ],
      "stateMutability": "view",
      "type": "function"
    },
    {
      "inputs": [
        {
          "internalType": "uint256",
          "name": "_jobSubsId",
          "type": "uint256"
        },
        {
          "internalType": "uint256",
          "name": "_usdcDeposit",
          "type": "uint256"
        }
      ],
      "name": "depositForJobSubscription",
      "outputs": [],
      "stateMutability": "payable",
      "type": "function"
    },
    {
      "inputs": [
        {
          "internalType": "address",
          "name": "_enclaveAddress",
          "type": "address"
        }
      ],
      "name": "deregisterGateway",
      "outputs": [],
      "stateMutability": "nonpayable",
      "type": "function"
    },
    {
      "inputs": [
        {
          "internalType": "address",
          "name": "",
          "type": "address"
        }
      ],
      "name": "gatewayOwners",
      "outputs": [
        {
          "internalType": "address",
          "name": "",
          "type": "address"
        }
      ],
      "stateMutability": "view",
      "type": "function"
    },
    {
      "inputs": [
        {
          "internalType": "bytes32",
          "name": "role",
          "type": "bytes32"
        }
      ],
      "name": "getRoleAdmin",
      "outputs": [
        {
          "internalType": "bytes32",
          "name": "",
          "type": "bytes32"
        }
      ],
      "stateMutability": "view",
      "type": "function"
    },
    {
      "inputs": [
        {
          "internalType": "address",
          "name": "_key",
          "type": "address"
        }
      ],
      "name": "getVerifiedKey",
      "outputs": [
        {
          "internalType": "bytes32",
          "name": "",
          "type": "bytes32"
        }
      ],
      "stateMutability": "view",
      "type": "function"
    },
    {
      "inputs": [
        {
          "internalType": "bytes32",
          "name": "_imageId",
          "type": "bytes32"
        }
      ],
      "name": "getWhitelistedImage",
      "outputs": [
        {
          "components": [
            {
              "internalType": "bytes",
              "name": "PCR0",
              "type": "bytes"
            },
            {
              "internalType": "bytes",
              "name": "PCR1",
              "type": "bytes"
            },
            {
              "internalType": "bytes",
              "name": "PCR2",
              "type": "bytes"
            }
          ],
          "internalType": "struct AttestationAutherUpgradeable.EnclaveImage",
          "name": "",
          "type": "tuple"
        }
      ],
      "stateMutability": "view",
      "type": "function"
    },
    {
      "inputs": [
        {
          "internalType": "bytes32",
          "name": "role",
          "type": "bytes32"
        },
        {
          "internalType": "address",
          "name": "account",
          "type": "address"
        }
      ],
      "name": "grantRole",
      "outputs": [],
      "stateMutability": "nonpayable",
      "type": "function"
    },
    {
      "inputs": [
        {
          "internalType": "bytes32",
          "name": "role",
          "type": "bytes32"
        },
        {
          "internalType": "address",
          "name": "account",
          "type": "address"
        }
      ],
      "name": "hasRole",
      "outputs": [
        {
          "internalType": "bool",
          "name": "",
          "type": "bool"
        }
      ],
      "stateMutability": "view",
      "type": "function"
    },
    {
      "inputs": [
        {
          "internalType": "address",
          "name": "_admin",
          "type": "address"
        },
        {
          "components": [
            {
              "internalType": "bytes",
              "name": "PCR0",
              "type": "bytes"
            },
            {
              "internalType": "bytes",
              "name": "PCR1",
              "type": "bytes"
            },
            {
              "internalType": "bytes",
              "name": "PCR2",
              "type": "bytes"
            }
          ],
          "internalType": "struct AttestationAutherUpgradeable.EnclaveImage[]",
          "name": "_images",
          "type": "tuple[]"
        }
      ],
      "name": "initialize",
      "outputs": [],
      "stateMutability": "nonpayable",
      "type": "function"
    },
    {
      "inputs": [
        {
          "internalType": "bytes32",
          "name": "imageId",
          "type": "bytes32"
        },
        {
          "internalType": "bytes32",
          "name": "family",
          "type": "bytes32"
        }
      ],
      "name": "isImageInFamily",
      "outputs": [
        {
          "internalType": "bool",
          "name": "",
          "type": "bool"
        }
      ],
      "stateMutability": "view",
      "type": "function"
    },
    {
      "inputs": [
        {
          "internalType": "uint256",
          "name": "_jobId",
          "type": "uint256"
        }
      ],
      "name": "jobCancel",
      "outputs": [],
      "stateMutability": "nonpayable",
      "type": "function"
    },
    {
      "inputs": [],
      "name": "jobCount",
      "outputs": [
        {
          "internalType": "uint256",
          "name": "",
          "type": "uint256"
        }
      ],
      "stateMutability": "view",
      "type": "function"
    },
    {
      "inputs": [
        {
          "internalType": "bytes",
          "name": "_signature",
          "type": "bytes"
        },
        {
          "internalType": "uint256",
          "name": "_jobId",
          "type": "uint256"
        },
        {
          "internalType": "bytes",
          "name": "_output",
          "type": "bytes"
        },
        {
          "internalType": "uint256",
          "name": "_totalTime",
          "type": "uint256"
        },
        {
          "internalType": "uint8",
          "name": "_errorCode",
          "type": "uint8"
        },
        {
          "internalType": "uint256",
          "name": "_signTimestamp",
          "type": "uint256"
        }
      ],
      "name": "jobResponse",
      "outputs": [],
      "stateMutability": "nonpayable",
      "type": "function"
    },
    {
      "inputs": [],
      "name": "jobSubsCount",
      "outputs": [
        {
          "internalType": "uint256",
          "name": "",
          "type": "uint256"
        }
      ],
      "stateMutability": "view",
      "type": "function"
    },
    {
      "inputs": [
        {
          "internalType": "bytes",
          "name": "_signature",
          "type": "bytes"
        },
        {
          "internalType": "uint256",
          "name": "_jobSubsId",
          "type": "uint256"
        },
        {
          "internalType": "bytes",
          "name": "_output",
          "type": "bytes"
        },
        {
          "internalType": "uint256",
          "name": "_totalTime",
          "type": "uint256"
        },
        {
          "internalType": "uint8",
          "name": "_errorCode",
          "type": "uint8"
        },
        {
          "internalType": "uint256",
          "name": "_signTimestamp",
          "type": "uint256"
        }
      ],
      "name": "jobSubsResponse",
      "outputs": [],
      "stateMutability": "nonpayable",
      "type": "function"
    },
    {
      "inputs": [
        {
          "internalType": "uint256",
          "name": "",
          "type": "uint256"
        }
      ],
      "name": "jobSubscriptions",
      "outputs": [
        {
          "internalType": "uint256",
          "name": "periodicGap",
          "type": "uint256"
        },
        {
          "internalType": "uint256",
          "name": "terminationTimestamp",
          "type": "uint256"
        },
        {
          "internalType": "uint256",
          "name": "currentRuns",
          "type": "uint256"
        },
        {
          "internalType": "uint256",
          "name": "lastRunTimestamp",
          "type": "uint256"
        },
        {
          "internalType": "uint256",
          "name": "userTimeout",
          "type": "uint256"
        },
        {
          "internalType": "address",
          "name": "refundAccount",
          "type": "address"
        },
        {
          "components": [
            {
              "internalType": "uint256",
              "name": "startTime",
              "type": "uint256"
            },
            {
              "internalType": "uint256",
              "name": "maxGasPrice",
              "type": "uint256"
            },
            {
              "internalType": "uint256",
              "name": "usdcDeposit",
              "type": "uint256"
            },
            {
              "internalType": "uint256",
              "name": "callbackDeposit",
              "type": "uint256"
            },
            {
              "internalType": "uint256",
              "name": "callbackGasLimit",
              "type": "uint256"
            },
            {
              "internalType": "address",
              "name": "jobOwner",
              "type": "address"
            },
            {
              "internalType": "address",
              "name": "callbackContract",
              "type": "address"
            },
            {
              "internalType": "bytes32",
              "name": "codehash",
              "type": "bytes32"
            },
            {
              "internalType": "bytes",
              "name": "codeInputs",
              "type": "bytes"
            }
          ],
          "internalType": "struct Relay.Job",
          "name": "job",
          "type": "tuple"
        }
      ],
      "stateMutability": "view",
      "type": "function"
    },
    {
      "inputs": [
        {
          "internalType": "uint256",
          "name": "",
          "type": "uint256"
        }
      ],
      "name": "jobs",
      "outputs": [
        {
          "internalType": "uint256",
          "name": "startTime",
          "type": "uint256"
        },
        {
          "internalType": "uint256",
          "name": "maxGasPrice",
          "type": "uint256"
        },
        {
          "internalType": "uint256",
          "name": "usdcDeposit",
          "type": "uint256"
        },
        {
          "internalType": "uint256",
          "name": "callbackDeposit",
          "type": "uint256"
        },
        {
          "internalType": "uint256",
          "name": "callbackGasLimit",
          "type": "uint256"
        },
        {
          "internalType": "address",
          "name": "jobOwner",
          "type": "address"
        },
        {
          "internalType": "address",
          "name": "callbackContract",
          "type": "address"
        },
        {
          "internalType": "bytes32",
          "name": "codehash",
          "type": "bytes32"
        },
        {
          "internalType": "bytes",
          "name": "codeInputs",
          "type": "bytes"
        }
      ],
      "stateMutability": "view",
      "type": "function"
    },
    {
      "inputs": [],
      "name": "proxiableUUID",
      "outputs": [
        {
          "internalType": "bytes32",
          "name": "",
          "type": "bytes32"
        }
      ],
      "stateMutability": "view",
      "type": "function"
    },
    {
      "inputs": [
        {
          "internalType": "bytes",
          "name": "_attestationSignature",
          "type": "bytes"
        },
        {
          "components": [
            {
              "internalType": "bytes",
              "name": "enclavePubKey",
              "type": "bytes"
            },
            {
              "internalType": "bytes",
              "name": "PCR0",
              "type": "bytes"
            },
            {
              "internalType": "bytes",
              "name": "PCR1",
              "type": "bytes"
            },
            {
              "internalType": "bytes",
              "name": "PCR2",
              "type": "bytes"
            },
            {
              "internalType": "uint256",
              "name": "timestampInMilliseconds",
              "type": "uint256"
            }
          ],
          "internalType": "struct IAttestationVerifier.Attestation",
          "name": "_attestation",
          "type": "tuple"
        },
        {
          "internalType": "bytes",
          "name": "_signature",
          "type": "bytes"
        },
        {
          "internalType": "uint256",
          "name": "_signTimestamp",
          "type": "uint256"
        }
      ],
      "name": "registerGateway",
      "outputs": [],
      "stateMutability": "nonpayable",
      "type": "function"
    },
    {
      "inputs": [
        {
          "internalType": "bytes32",
          "name": "_codehash",
          "type": "bytes32"
        },
        {
          "internalType": "bytes",
          "name": "_codeInputs",
          "type": "bytes"
        },
        {
          "internalType": "uint256",
          "name": "_userTimeout",
          "type": "uint256"
        },
        {
          "internalType": "uint256",
          "name": "_maxGasPrice",
          "type": "uint256"
        },
        {
          "internalType": "address",
          "name": "_refundAccount",
          "type": "address"
        },
        {
          "internalType": "address",
          "name": "_callbackContract",
          "type": "address"
        },
        {
          "internalType": "uint256",
          "name": "_callbackGasLimit",
          "type": "uint256"
        }
      ],
      "name": "relayJob",
      "outputs": [],
      "stateMutability": "payable",
      "type": "function"
    },
    {
      "inputs": [
        {
          "internalType": "bytes32",
          "name": "role",
          "type": "bytes32"
        },
        {
          "internalType": "address",
          "name": "callerConfirmation",
          "type": "address"
        }
      ],
      "name": "renounceRole",
      "outputs": [],
      "stateMutability": "nonpayable",
      "type": "function"
    },
    {
      "inputs": [
        {
          "internalType": "bytes32",
          "name": "imageId",
          "type": "bytes32"
        }
      ],
      "name": "revokeEnclaveImage",
      "outputs": [
        {
          "internalType": "bool",
          "name": "",
          "type": "bool"
        }
      ],
      "stateMutability": "nonpayable",
      "type": "function"
    },
    {
      "inputs": [
        {
          "internalType": "bytes32",
          "name": "role",
          "type": "bytes32"
        },
        {
          "internalType": "address",
          "name": "account",
          "type": "address"
        }
      ],
      "name": "revokeRole",
      "outputs": [],
      "stateMutability": "nonpayable",
      "type": "function"
    },
    {
      "inputs": [
        {
          "internalType": "bytes32",
          "name": "_codehash",
          "type": "bytes32"
        },
        {
          "internalType": "bytes",
          "name": "_codeInputs",
          "type": "bytes"
        },
        {
          "internalType": "uint256",
          "name": "_userTimeout",
          "type": "uint256"
        },
        {
          "internalType": "uint256",
          "name": "_maxGasPrice",
          "type": "uint256"
        },
        {
          "internalType": "address",
          "name": "_refundAccount",
          "type": "address"
        },
        {
          "internalType": "address",
          "name": "_callbackContract",
          "type": "address"
        },
        {
          "internalType": "uint256",
          "name": "_callbackGasLimit",
          "type": "uint256"
        },
        {
          "internalType": "uint256",
          "name": "_periodicGap",
          "type": "uint256"
        },
        {
          "internalType": "uint256",
          "name": "_usdcDeposit",
          "type": "uint256"
        },
        {
          "internalType": "uint256",
          "name": "_terminationTimestamp",
          "type": "uint256"
        }
      ],
      "name": "startJobSubscription",
      "outputs": [],
      "stateMutability": "payable",
      "type": "function"
    },
    {
      "inputs": [
        {
          "internalType": "bytes4",
          "name": "interfaceId",
          "type": "bytes4"
        }
      ],
      "name": "supportsInterface",
      "outputs": [
        {
          "internalType": "bool",
          "name": "",
          "type": "bool"
        }
      ],
      "stateMutability": "view",
      "type": "function"
    },
    {
      "inputs": [
        {
          "internalType": "uint256",
          "name": "_jobSubsId",
          "type": "uint256"
        }
      ],
      "name": "terminateJobSubscription",
      "outputs": [],
      "stateMutability": "nonpayable",
      "type": "function"
    },
    {
      "inputs": [
        {
          "internalType": "uint256",
          "name": "_jobSubsId",
          "type": "uint256"
        },
        {
          "internalType": "bytes32",
          "name": "_codehash",
          "type": "bytes32"
        },
        {
          "internalType": "bytes",
          "name": "_codeInputs",
          "type": "bytes"
        }
      ],
      "name": "updateJobParams",
      "outputs": [],
      "stateMutability": "nonpayable",
      "type": "function"
    },
    {
      "inputs": [
        {
          "internalType": "uint256",
          "name": "_jobSubsId",
          "type": "uint256"
        },
        {
          "internalType": "uint256",
          "name": "_terminationTimestamp",
          "type": "uint256"
        },
        {
          "internalType": "uint256",
          "name": "_usdcDeposit",
          "type": "uint256"
        }
      ],
      "name": "updateJobTerminationParams",
      "outputs": [],
      "stateMutability": "payable",
      "type": "function"
    },
    {
      "inputs": [
        {
          "internalType": "address",
          "name": "newImplementation",
          "type": "address"
        },
        {
          "internalType": "bytes",
          "name": "data",
          "type": "bytes"
        }
      ],
      "name": "upgradeToAndCall",
      "outputs": [],
      "stateMutability": "payable",
      "type": "function"
    },
    {
      "inputs": [
        {
          "internalType": "bytes",
          "name": "signature",
          "type": "bytes"
        },
        {
          "components": [
            {
              "internalType": "bytes",
              "name": "enclavePubKey",
              "type": "bytes"
            },
            {
              "internalType": "bytes",
              "name": "PCR0",
              "type": "bytes"
            },
            {
              "internalType": "bytes",
              "name": "PCR1",
              "type": "bytes"
            },
            {
              "internalType": "bytes",
              "name": "PCR2",
              "type": "bytes"
            },
            {
              "internalType": "uint256",
              "name": "timestampInMilliseconds",
              "type": "uint256"
            }
          ],
          "internalType": "struct IAttestationVerifier.Attestation",
          "name": "attestation",
          "type": "tuple"
        }
      ],
      "name": "verifyEnclaveKey",
      "outputs": [
        {
          "internalType": "bool",
          "name": "",
          "type": "bool"
        }
      ],
      "stateMutability": "nonpayable",
      "type": "function"
    },
    {
      "inputs": [
        {
          "internalType": "bytes",
          "name": "PCR0",
          "type": "bytes"
        },
        {
          "internalType": "bytes",
          "name": "PCR1",
          "type": "bytes"
        },
        {
          "internalType": "bytes",
          "name": "PCR2",
          "type": "bytes"
        }
      ],
      "name": "whitelistEnclaveImage",
      "outputs": [
        {
          "internalType": "bytes32",
          "name": "",
          "type": "bytes32"
        },
        {
          "internalType": "bool",
          "name": "",
          "type": "bool"
        }
      ],
      "stateMutability": "nonpayable",
      "type": "function"
    }
  ],
  "bytecode": "0x6101e06040523060805234801561001557600080fd5b5060405161604138038061604183398101604081905261003491610196565b6001600160a01b038a1660a05260c089905261004e6100cf565b6001600160a01b0388166100755760405163c844103f60e01b815260040160405180910390fd5b6001600160a01b03881660e0528587106100a15760405162fe194b60e31b815260040160405180910390fd5b61010096909652610120949094526101409290925261016052610180526101a0526101c0525061021f915050565b7ff0c57e16840df040f15088dc2f81fe391c3923bec73e23a9662efc9c229c6a00805468010000000000000000900460ff161561011f5760405163f92ee8a960e01b815260040160405180910390fd5b80546001600160401b039081161461017e5780546001600160401b0319166001600160401b0390811782556040519081527fc7f505b2f371ae2175ee4913f4499e1f2633a7b5936321eed1cdaeb6115181d29060200160405180910390a15b50565b6001600160a01b038116811461017e57600080fd5b6000806000806000806000806000806101408b8d0312156101b657600080fd5b8a516101c181610181565b60208c015160408d0151919b5099506101d981610181565b8098505060608b0151965060808b0151955060a08b0151945060c08b0151935060e08b015192506101008b015191506101208b015190509295989b9194979a5092959850565b60805160a05160c05160e05161010051610120516101405161016051610180516101a0516101c051615c846103bd60003960008181610a3101528181611b8201528181611ef20152612f0701526000818161089801528181611ba301528181611f160152818161286301528181612d3c0152612f2b0152600081816107d901528181611c3901528181611f8b01528181612fab01528181613d34015261404201526000818161094001528181611c5a01528181611faf01528181612fcf01528181613d11015261401f0152600081816105890152818161192f01528181612c1c0152818161319401526133f001526000818161097401528181611e210152612e560152600081816103f301528181611df70152612e2c0152600081816106b401528181612108015281816130e6015281816132b2015281816134e30152818161371901528181613d5f0152818161406d01526140a30152600081816107a5015281816124dd0152818161389f0152613acd0152600081816108cc015261257b0152600081816117010152818161172a0152611d430152615c846000f3fe6080604052600436106102dc5760003560e01c80636b5b21a611610184578063bdb3a870116100d6578063e29fcdc51161008a578063f398cc7411610064578063f398cc74146109c9578063f6a17fe3146109e9578063fa3036bf14610a1f57600080fd5b8063e29fcdc514610962578063e79b6b0214610996578063f2a9b01d146109a957600080fd5b8063d547741f116100bb578063d547741f146108ee578063debfc2f31461090e578063e27a70851461092e57600080fd5b8063bdb3a87014610886578063cd79f906146108ba57600080fd5b806395c6029411610138578063a217fddf11610112578063a217fddf146107fb578063ad3cb1cc14610810578063b9d546e01461086657600080fd5b806395c60294146107735780639aec990e146107935780639bc27136146107c757600080fd5b806382bfefc81161016957806382bfefc8146106a25780638f8ce5f0146106ee57806391d148541461070e57600080fd5b80636b5b21a61461062957806375847b841461068257600080fd5b80633fb9295d1161023d57806355aa1000116101f15780635c2c28e5116101cb5780635c2c28e5146105c15780636549bf48146105d457806369815e57146105f457600080fd5b806355aa10001461056457806358a14ad2146105775780635b65c460146105ab57600080fd5b80634f1ef286116102225780634f1ef2861461052957806350ed85681461053c57806352d1902d1461054f57600080fd5b80633fb9295d146104f35780634c5d8a0f1461051357600080fd5b80632410f6ba116102945780632eb39ee9116102795780632eb39ee9146104915780632f2ff15d146104b357806336568abe146104d357600080fd5b80632410f6ba14610415578063248a9ca31461044257600080fd5b806304a11e96116102c557806304a11e9614610379578063180aedf3146103ac5780631e3708df146103e157600080fd5b806301d58fa3146102e157806301ffc9a714610349575b600080fd5b3480156102ed57600080fd5b506103366102fc366004614adf565b6001600160a01b031660009081527fc17b4b708b6f44255c20913a9d97a05300b670342c71fe5ae5b617bd4db55001602052604090205490565b6040519081526020015b60405180910390f35b34801561035557600080fd5b50610369610364366004614afa565b610a53565b6040519015158152602001610340565b34801561038557600080fd5b50610399610394366004614b3c565b610a64565b6040516103409796959493929190614ba5565b3480156103b857600080fd5b506103cc6103c7366004614b3c565b610ba5565b60405161034099989796959493929190614c78565b3480156103ed57600080fd5b506103367f000000000000000000000000000000000000000000000000000000000000000081565b34801561042157600080fd5b50610435610430366004614b3c565b610c87565b6040516103409190614cda565b34801561044e57600080fd5b5061033661045d366004614b3c565b60009081527f02dd7bc7dec4dceedda775e58dd541e08a116c6c53815c0bd028192f7b626800602052604090206001015490565b34801561049d57600080fd5b506104b16104ac366004614e4e565b610ea5565b005b3480156104bf57600080fd5b506104b16104ce366004614fa6565b6110b8565b3480156104df57600080fd5b506104b16104ee366004614fa6565b611102565b3480156104ff57600080fd5b506104b161050e36600461501b565b611153565b34801561051f57600080fd5b5061033660025481565b6104b161053736600461506e565b61115f565b6104b161054a3660046150bc565b61117e565b34801561055b57600080fd5b50610336611189565b6104b16105723660046150e8565b6111b8565b34801561058357600080fd5b506103367f000000000000000000000000000000000000000000000000000000000000000081565b3480156105b757600080fd5b5061033660045481565b6104b16105cf36600461510a565b6111c2565b3480156105e057600080fd5b506104b16105ef366004615252565b6111d3565b34801561060057600080fd5b5061061461060f3660046152e5565b6111e8565b60408051928352901515602083015201610340565b34801561063557600080fd5b506103696106443660046150e8565b60009081527fc17b4b708b6f44255c20913a9d97a05300b670342c71fe5ae5b617bd4db5500260209081526040808320938352929052205460ff1690565b34801561068e57600080fd5b5061036961069d36600461537f565b6112c1565b3480156106ae57600080fd5b506106d67f000000000000000000000000000000000000000000000000000000000000000081565b6040516001600160a01b039091168152602001610340565b3480156106fa57600080fd5b506104b16107093660046153d9565b6112d4565b34801561071a57600080fd5b50610369610729366004614fa6565b60009182527f02dd7bc7dec4dceedda775e58dd541e08a116c6c53815c0bd028192f7b626800602090815260408084206001600160a01b0393909316845291905290205460ff1690565b34801561077f57600080fd5b5061036961078e366004614b3c565b6112ee565b34801561079f57600080fd5b506103367f000000000000000000000000000000000000000000000000000000000000000081565b3480156107d357600080fd5b506103367f000000000000000000000000000000000000000000000000000000000000000081565b34801561080757600080fd5b50610336600081565b34801561081c57600080fd5b506108596040518060400160405280600581526020017f352e302e3000000000000000000000000000000000000000000000000000000081525081565b604051610340919061547f565b34801561087257600080fd5b506104b1610881366004614adf565b61130c565b34801561089257600080fd5b506103367f000000000000000000000000000000000000000000000000000000000000000081565b3480156108c657600080fd5b506106d67f000000000000000000000000000000000000000000000000000000000000000081565b3480156108fa57600080fd5b506104b1610909366004614fa6565b611319565b34801561091a57600080fd5b506104b16109293660046153d9565b61135d565b34801561093a57600080fd5b506103367f000000000000000000000000000000000000000000000000000000000000000081565b34801561096e57600080fd5b506103367f000000000000000000000000000000000000000000000000000000000000000081565b6104b16109a4366004615492565b61136d565b3480156109b557600080fd5b506104b16109c4366004614b3c565b61138d565b3480156109d557600080fd5b506104b16109e4366004614b3c565b611397565b3480156109f557600080fd5b506106d6610a04366004614adf565b6000602081905290815260409020546001600160a01b031681565b348015610a2b57600080fd5b506103367f000000000000000000000000000000000000000000000000000000000000000081565b6000610a5e826113a1565b92915050565b6003602081815260009283526040928390208054600182015460028301549483015460048401546005850154885161012081018a526006870180548252600788015498820198909852600887015499810199909952600986015460608a0152600a86015460808a0152600b8601546001600160a01b0390811660a08b0152600c870154811660c08b0152600d87015460e08b0152600e87018054969a959998949793969190921694929391610100840191610b1e9061553c565b80601f0160208091040260200160405190810160405280929190818152602001828054610b4a9061553c565b8015610b975780601f10610b6c57610100808354040283529160200191610b97565b820191906000526020600020905b815481529060010190602001808311610b7a57829003601f168201915b505050505081525050905087565b600160208190526000918252604090912080549181015460028201546003830154600484015460058501546006860154600787015460088801805497989697959694956001600160a01b039485169594909316939192610c049061553c565b80601f0160208091040260200160405190810160405280929190818152602001828054610c309061553c565b8015610c7d5780601f10610c5257610100808354040283529160200191610c7d565b820191906000526020600020905b815481529060010190602001808311610c6057829003601f168201915b5050505050905089565b610cab60405180606001604052806060815260200160608152602001606081525090565b60008281527fc17b4b708b6f44255c20913a9d97a05300b670342c71fe5ae5b617bd4db550006020819052604091829020825160608101909352805491929182908290610cf79061553c565b80601f0160208091040260200160405190810160405280929190818152602001828054610d239061553c565b8015610d705780601f10610d4557610100808354040283529160200191610d70565b820191906000526020600020905b815481529060010190602001808311610d5357829003601f168201915b50505050508152602001600182018054610d899061553c565b80601f0160208091040260200160405190810160405280929190818152602001828054610db59061553c565b8015610e025780601f10610dd757610100808354040283529160200191610e02565b820191906000526020600020905b815481529060010190602001808311610de557829003601f168201915b50505050508152602001600282018054610e1b9061553c565b80601f0160208091040260200160405190810160405280929190818152602001828054610e479061553c565b8015610e945780601f10610e6957610100808354040283529160200191610e94565b820191906000526020600020905b815481529060010190602001808311610e7757829003601f168201915b505050505081525050915050919050565b7ff0c57e16840df040f15088dc2f81fe391c3923bec73e23a9662efc9c229c6a00805468010000000000000000810460ff16159067ffffffffffffffff16600081158015610ef05750825b905060008267ffffffffffffffff166001148015610f0d5750303b155b905081158015610f1b575080155b15610f52576040517ff92ee8a900000000000000000000000000000000000000000000000000000000815260040160405180910390fd5b84547fffffffffffffffffffffffffffffffffffffffffffffffff00000000000000001660011785558315610fb35784547fffffffffffffffffffffffffffffffffffffffffffffff00ffffffffffffffff16680100000000000000001785555b6001600160a01b038716610ff3576040517f30a7a37f00000000000000000000000000000000000000000000000000000000815260040160405180910390fd5b610ffb611438565b611003611438565b61100b611438565b611013611438565b61101c86611442565b611027600088611482565b504660c01b6002819055778000000000000000000000000000000000000000000000001760045583156110af5784547fffffffffffffffffffffffffffffffffffffffffffffff00ffffffffffffffff168555604051600181527fc7f505b2f371ae2175ee4913f4499e1f2633a7b5936321eed1cdaeb6115181d29060200160405180910390a15b50505050505050565b60008281527f02dd7bc7dec4dceedda775e58dd541e08a116c6c53815c0bd028192f7b62680060205260409020600101546110f28161156f565b6110fc8383611482565b50505050565b6001600160a01b0381163314611144576040517f6697b23200000000000000000000000000000000000000000000000000000000815260040160405180910390fd5b61114e8282611579565b505050565b6110fc8484848461163d565b6111676116f6565b611170826117c6565b61117a82826117d1565b5050565b61114e8383836118d7565b6000611193611d38565b507f360894a13ba1a3210667c828492db98dca3e2076cc3735a920a3ca505d382bbc90565b61117a8282611d9a565b6110af878787873488888833611df5565b6111e1858585858533612188565b5050505050565b600080806111f58161156f565b6040805160806020601f8c018190040282018101909252606081018a81526112b1928291908d908d9081908501838280828437600092019190915250505090825250604080516020601f8c018190048102820181019092528a815291810191908b908b9081908401838280828437600092019190915250505090825250604080516020601f8a0181900481028201810190925288815291810191908990899081908401838280828437600092019190915250505091525061227a565b9250925050965096945050505050565b60006112cd8383612422565b9392505050565b6112e48888888888888888612686565b5050505050505050565b6000806112fa8161156f565b6113038361292a565b91505b50919050565b61131681336129e1565b50565b60008281527f02dd7bc7dec4dceedda775e58dd541e08a116c6c53815c0bd028192f7b62680060205260409020600101546113538161156f565b6110fc8383611579565b6112e48888888888888888612ac4565b6113808b8b8b8b8b8b8b8b8b8b8b612df1565b5050505050505050505050565b6113168133613126565b6113168133613391565b60007fffffffff0000000000000000000000000000000000000000000000000000000082167f7965db0b000000000000000000000000000000000000000000000000000000001480610a5e57507f01ffc9a7000000000000000000000000000000000000000000000000000000007fffffffff00000000000000000000000000000000000000000000000000000000831614610a5e565b6114406135ca565b565b61144a6135ca565b60005b815181101561117a5761147882828151811061146b5761146b615589565b602002602001015161227a565b505060010161144d565b60008281527f02dd7bc7dec4dceedda775e58dd541e08a116c6c53815c0bd028192f7b626800602081815260408084206001600160a01b038616855290915282205460ff16611565576000848152602082815260408083206001600160a01b0387168452909152902080547fffffffffffffffffffffffffffffffffffffffffffffffffffffffffffffff0016600117905561151b3390565b6001600160a01b0316836001600160a01b0316857f2f8788117e7eff1d82e926ec794901d17c78024a50270940304540a733656f0d60405160405180910390a46001915050610a5e565b6000915050610a5e565b6113168133613631565b60008281527f02dd7bc7dec4dceedda775e58dd541e08a116c6c53815c0bd028192f7b626800602081815260408084206001600160a01b038616855290915282205460ff1615611565576000848152602082815260408083206001600160a01b038716808552925280832080547fffffffffffffffffffffffffffffffffffffffffffffffffffffffffffffff0016905551339287917ff6391f5c32d9c69d2a47ea670b442974b53935d1edc7fd64eb21e047a839171b9190a46001915050610a5e565b6000848152600360205260409020600b01546001600160a01b03163314611690576040517f6410534900000000000000000000000000000000000000000000000000000000815260040160405180910390fd5b6000848152600360205260409020600d8101849055600e016116b3828483615600565b50837f67cca598521e82ef0d9258a1aa68c73e39a1378e9b11f4fd23e9207ed7426d668484846040516116e893929190615727565b60405180910390a250505050565b306001600160a01b037f000000000000000000000000000000000000000000000000000000000000000016148061178f57507f00000000000000000000000000000000000000000000000000000000000000006001600160a01b03166117837f360894a13ba1a3210667c828492db98dca3e2076cc3735a920a3ca505d382bbc546001600160a01b031690565b6001600160a01b031614155b15611440576040517fe07c8dba00000000000000000000000000000000000000000000000000000000815260040160405180910390fd5b600061117a8161156f565b816001600160a01b03166352d1902d6040518163ffffffff1660e01b8152600401602060405180830381865afa92505050801561182b575060408051601f3d908101601f1916820190925261182891810190615741565b60015b611871576040517f4c9c8ce30000000000000000000000000000000000000000000000000000000081526001600160a01b03831660048201526024015b60405180910390fd5b7f360894a13ba1a3210667c828492db98dca3e2076cc3735a920a3ca505d382bbc81146118cd576040517faa1d49a400000000000000000000000000000000000000000000000000000000815260048101829052602401611868565b61114e83836136be565b6000838152600360205260409020600b01546001600160a01b0316331461192a576040517f6410534900000000000000000000000000000000000000000000000000000000815260040160405180910390fd5b6119547f000000000000000000000000000000000000000000000000000000000000000042615789565b821161198c576040517f1cce145000000000000000000000000000000000000000000000000000000000815260040160405180910390fd5b6119968382613714565b6000600360008581526020019081526020016000206040518060e001604052908160008201548152602001600182015481526020016002820154815260200160038201548152602001600482015481526020016005820160009054906101000a90046001600160a01b03166001600160a01b03166001600160a01b03168152602001600682016040518061012001604052908160008201548152602001600182015481526020016002820154815260200160038201548152602001600482015481526020016005820160009054906101000a90046001600160a01b03166001600160a01b03166001600160a01b031681526020016006820160009054906101000a90046001600160a01b03166001600160a01b03166001600160a01b0316815260200160078201548152602001600882018054611ad29061553c565b80601f0160208091040260200160405190810160405280929190818152602001828054611afe9061553c565b8015611b4b5780601f10611b2057610100808354040283529160200191611b4b565b820191906000526020600020905b815481529060010190602001808311611b2e57829003601f168201915b505050919092525050509052508051909150600090611b6a428661579c565b611b7491906157af565b90508160c0015160600151817f00000000000000000000000000000000000000000000000000000000000000007f00000000000000000000000000000000000000000000000000000000000000008560c0015160800151611bd59190615789565b611bdf9190615789565b8460c0015160200151611bf291906157ea565b611bfc91906157ea565b1115611c34576040517f7273245b00000000000000000000000000000000000000000000000000000000815260040160405180910390fd5b6000817f00000000000000000000000000000000000000000000000000000000000000007f00000000000000000000000000000000000000000000000000000000000000008560800151611c8891906157ea565b611c929190615789565b611c9c91906157ea565b9050808360c00151604001511015611ce0576040517fc3274e9900000000000000000000000000000000000000000000000000000000815260040160405180910390fd5b600086815260036020526040908190206001018690555186907fe3d85a74b6d91487b5aecc2a9740a541debf4a95ac1c5c8f7bc285e06fdfab2b90611d289088815260200190565b60405180910390a2505050505050565b306001600160a01b037f00000000000000000000000000000000000000000000000000000000000000001614611440576040517fe07c8dba00000000000000000000000000000000000000000000000000000000815260040160405180910390fd5b6000828152600360205260409020600b01546001600160a01b0316611deb576040517fabf8b83700000000000000000000000000000000000000000000000000000000815260040160405180910390fd5b61117a8282613714565b7f000000000000000000000000000000000000000000000000000000000000000087111580611e4457507f00000000000000000000000000000000000000000000000000000000000000008710155b15611e7b576040517f445e056c00000000000000000000000000000000000000000000000000000000815260040160405180910390fd5b6002544660c01b778000000000000000000000000000000000000000000000001790611ea8906001615789565b03611eb5574660c01b6002555b3a861015611eef576040517f4d8e7c6200000000000000000000000000000000000000000000000000000000815260040160405180910390fd5b847f0000000000000000000000000000000000000000000000000000000000000000611f3b7f000000000000000000000000000000000000000000000000000000000000000085615789565b611f459190615789565b611f4f90886157ea565b1115611f87576040517f7273245b00000000000000000000000000000000000000000000000000000000815260040160405180910390fd5b60007f0000000000000000000000000000000000000000000000000000000000000000611fd47f00000000000000000000000000000000000000000000000000000000000000008a6157ea565b611fde9190615789565b9050604051806101200160405280428152602001888152602001828152602001878152602001848152602001836001600160a01b03168152602001856001600160a01b031681526020018b81526020018a8152506001600060026000815461204590615801565b918290555081526020808201929092526040908101600020835181559183015160018301558201516002820155606082015160038201556080820151600482015560a08201516005820180546001600160a01b039283167fffffffffffffffffffffffff00000000000000000000000000000000000000009182161790915560c084015160068401805491909316911617905560e0820151600782015561010082015160088201906120f79082615839565b506121309150506001600160a01b037f0000000000000000000000000000000000000000000000000000000000000000168330846137d5565b6002547f3b08b298012c416f3edcaa89a6a04489e9f3a2e2b189b7fd5f2864da3a740f9a8b8b8b8b868c8c8c428d6040516121749a99989796959493929190615935565b60405180910390a250505050505050505050565b6121928686612422565b5060006121a28660000151613851565b90506121b1828487878561389a565b6001600160a01b038181166000908152602081905260409020541615612203576040517ffd764a3900000000000000000000000000000000000000000000000000000000815260040160405180910390fd5b6001600160a01b0381811660008181526020819052604080822080547fffffffffffffffffffffffff0000000000000000000000000000000000000000169487169485179055519192917f95f86f0783d4494f76a6aeaa178c399f2c6a140aa3e88d39f056b00f460d359a9190a350505050505050565b80515160009081907fc17b4b708b6f44255c20913a9d97a05300b670342c71fe5ae5b617bd4db550009060301480156122b857508360200151516030145b80156122c957508360400151516030145b6122ff576040517f84c61bb600000000000000000000000000000000000000000000000000000000815260040160405180910390fd5b60008460000151856020015186604001516040516020016123229392919061599a565b60408051601f19818403018152918152815160209283012060008181529285905291208054919250906123549061553c565b15905061236657946000945092505050565b604080516060810182528651815260208088015181830152878301518284015260008481529085905291909120815181906123a19082615839565b50602082015160018201906123b69082615839565b50604082015160028201906123cb9082615839565b50905050807f52b29bbdd97ab983419f50fa1590e5ab75e9942279e95e10a08607b06c23238b86600001518760200151886040015160405161240f939291906159dd565b60405180910390a2946001945092505050565b6000807fc17b4b708b6f44255c20913a9d97a05300b670342c71fe5ae5b617bd4db550009050600083602001518460400151856060015160405160200161246b9392919061599a565b60408051601f198184030181529181528151602092830120600081815292859052912080549192509061249d9061553c565b90506000036124d8576040517f38c4ac1600000000000000000000000000000000000000000000000000000000815260040160405180910390fd5b6125027f00000000000000000000000000000000000000000000000000000000000000004261579c565b6103e8856080015161251491906157af565b1161254b576040517f19605e0a00000000000000000000000000000000000000000000000000000000815260040160405180910390fd5b6040517feac708a30000000000000000000000000000000000000000000000000000000081526001600160a01b037f0000000000000000000000000000000000000000000000000000000000000000169063eac708a3906125b29088908890600401615a16565b60006040518083038186803b1580156125ca57600080fd5b505afa1580156125de573d6000803e3d6000fd5b5050505060006125f18560000151613851565b6001600160a01b0381166000908152600185016020526040902054909150156126205760009350505050610a5e565b6001600160a01b038116600081815260018501602052604090819020849055865190518492917fbb4d6428d53ea924d94be0488473deb5c0a70c979f8477d21911cb5bee4037fd91612672919061547f565b60405180910390a350600195945050505050565b6000868152600360209081526040808320815161012081018352600682018054825260078301549482019490945260088201549281019290925260098101546060830152600a8101546080830152600b8101546001600160a01b0390811660a0840152600c8201541660c0830152600d81015460e0830152600e018054919291610100840191906127169061553c565b80601f01602080910402602001604051908101604052809291908181526020018280546127429061553c565b801561278f5780601f106127645761010080835404028352916020019161278f565b820191906000526020600020905b81548152906001019060200180831161277257829003601f168201915b5050509190925250505060a08101519091506001600160a01b03166127e0576040517fabf8b83700000000000000000000000000000000000000000000000000000000815260040160405180910390fd5b60006127f28a8a8a8a8a8a8a8a613ac6565b90506001600360008a8152602001908152602001600020600201600082825461281b9190615789565b9091555050600088815260036020819052604091829020429101558201516128469082908790613cf5565b6000806128568a858b8b8a613da3565b909250905060003a6128887f000000000000000000000000000000000000000000000000000000000000000084615789565b61289291906157ea565b6001600160a01b0380861660009081526020819052604090205460608801519293506128c19291169083613eb7565b60008b815260036020526040908190206002015490518c907f4177b56b43bdfa0b78d2a3c937d3d9b43803c0707df626aaa31235a3b6d2b8f390612912908e908e908e908e908b9089904290615aaa565b60405180910390a25050505050505050505050505050565b60008181527fc17b4b708b6f44255c20913a9d97a05300b670342c71fe5ae5b617bd4db5500060208190526040822080546129649061553c565b90506000036129765750600092915050565b60008381526020829052604081209061298f8282614a75565b61299d600183016000614a75565b6129ab600283016000614a75565b505060405183907f4b71bedda4217966eac1aa49e35b1550e5ab87064ae179d1b36b393bd04eb74390600090a250600192915050565b6001600160a01b03828116600090815260208190526040902054811690821614612a37576040517f07191dbf00000000000000000000000000000000000000000000000000000000815260040160405180910390fd5b6001600160a01b03808316600090815260208190526040902054612a5b9116613f50565b506001600160a01b03821660008181526020819052604080822080547fffffffffffffffffffffffff0000000000000000000000000000000000000000169055517f962f6082057b3b4fb251973bd737c7707bf1733cf85a0b7c86fd6c3caca260c59190a25050565b6000868152600160208181526040808420815161012081018352815481529381015492840192909252600282015490830152600381015460608301526004810154608083015260058101546001600160a01b0390811660a084015260068201541660c0830152600781015460e083015260088101805461010084019190612b4a9061553c565b80601f0160208091040260200160405190810160405280929190818152602001828054612b769061553c565b8015612bc35780601f10612b9857610100808354040283529160200191612bc3565b820191906000526020600020905b815481529060010190602001808311612ba657829003601f168201915b5050509190925250505060a08101519091506001600160a01b0316612c14576040517f9da0635900000000000000000000000000000000000000000000000000000000815260040160405180910390fd5b8051612c41907f000000000000000000000000000000000000000000000000000000000000000090615789565b421115612c7a576040517f159413f400000000000000000000000000000000000000000000000000000000815260040160405180910390fd5b6000612c8c8a8a8a8a8a8a8a8a613ac6565b600089815260016020819052604082208281559081018290556002810182905560038101829055600481018290556005810180547fffffffffffffffffffffffff0000000000000000000000000000000000000000908116909155600682018054909116905560078101829055919250612d096008830182614a75565b5050612d1f818360a00151878560400151614003565b600080612d2f8a858b8b8a613da3565b909250905060003a612d617f000000000000000000000000000000000000000000000000000000000000000084615789565b612d6b91906157ea565b6001600160a01b0380861660009081526020819052604090205460a08801516060890151939450612da293919092169190846140d2565b8a7f3bcf275077501f1077e75b4e70896bf241dc8cbeec71823201ef711cfc454ea18b8b8b8b88604051612dda959493929190615aeb565b60405180910390a250505050505050505050505050565b428111612e2a576040517f1cce145000000000000000000000000000000000000000000000000000000000815260040160405180910390fd5b7f000000000000000000000000000000000000000000000000000000000000000088111580612e7957507f00000000000000000000000000000000000000000000000000000000000000008810155b15612eb0576040517f445e056c00000000000000000000000000000000000000000000000000000000815260040160405180910390fd5b3a871015612eea576040517f4d8e7c6200000000000000000000000000000000000000000000000000000000815260040160405180910390fd5b600083612ef7428461579c565b612f0191906157af565b905034817f0000000000000000000000000000000000000000000000000000000000000000612f507f000000000000000000000000000000000000000000000000000000000000000089615789565b612f5a9190615789565b612f64908b6157ea565b612f6e91906157ea565b1115612fa6576040517f7273245b00000000000000000000000000000000000000000000000000000000815260040160405180910390fd5b6000817f0000000000000000000000000000000000000000000000000000000000000000612ff47f00000000000000000000000000000000000000000000000000000000000000008d6157ea565b612ffe9190615789565b61300891906157ea565b905080841015613044576040517fc3274e9900000000000000000000000000000000000000000000000000000000815260040160405180910390fd5b60006040518061012001604052804281526020018b81526020018681526020013481526020018881526020016130773390565b6001600160a01b03168152602001896001600160a01b031681526020018f81526020018e8e8080601f016020809104026020016040519081016040528093929190818152602001838380828437600092019190915250505091525090506130e1818c8b898861418a565b6131167f00000000000000000000000000000000000000000000000000000000000000006001600160a01b03163330886137d5565b5050505050505050505050505050565b6000828152600360205260409020600b01546001600160a01b0382811691161461317c576040517f6410534900000000000000000000000000000000000000000000000000000000815260040160405180910390fd5b6000828152600360205260409020600101546131b9907f000000000000000000000000000000000000000000000000000000000000000090615789565b42116131f1576040517fdd1cd23800000000000000000000000000000000000000000000000000000000815260040160405180910390fd5b600082815260036020819052604082206008810180546009830180548685556001850187905560028501879055948401869055600484018690556005840180547fffffffffffffffffffffffff000000000000000000000000000000000000000090811690915560068501878155600786018890559387905590869055600a8401869055600b8401805482169055600c840180549091169055600d83018590559390816132a1600e850182614a75565b506132db9250506001600160a01b037f000000000000000000000000000000000000000000000000000000000000000016905084846143c8565b6000836001600160a01b03168260405160006040518083038185875af1925050503d8060008114613328576040519150601f19603f3d011682016040523d82523d6000602084013e61332d565b606091505b50509050836001600160a01b0316857f2593e010de5bfcfa2344dab84be034f9a9123940225cb01f520a60c0c782d30e8585856040516133829392919092835260208301919091521515604082015260600190565b60405180910390a35050505050565b600082815260016020526040902060058101546001600160a01b038381169116146133e8576040517f8166e98400000000000000000000000000000000000000000000000000000000815260040160405180910390fd5b8054613415907f000000000000000000000000000000000000000000000000000000000000000090615789565b421161344d576040517fd856047b00000000000000000000000000000000000000000000000000000000815260040160405180910390fd5b60038082015460028084015460008781526001602081905260408220828155908101829055928301819055938201849055600482018490556005820180547fffffffffffffffffffffffff000000000000000000000000000000000000000090811690915560068301805490911690556007820184905591926134d36008830182614a75565b5061350a90506001600160a01b037f00000000000000000000000000000000000000000000000000000000000000001685836143c8565b6000846001600160a01b03168360405160006040518083038185875af1925050503d8060008114613557576040519150601f19603f3d011682016040523d82523d6000602084013e61355c565b606091505b5050905080613597576040517ffbe8c5be00000000000000000000000000000000000000000000000000000000815260040160405180910390fd5b60405186907f58243f872c550ad02802199ade99eb4250f6bb19e9abbf2d3de7b969c0eb5e4f90600090a2505050505050565b7ff0c57e16840df040f15088dc2f81fe391c3923bec73e23a9662efc9c229c6a005468010000000000000000900460ff16611440576040517fd7e6bcf800000000000000000000000000000000000000000000000000000000815260040160405180910390fd5b60008281527f02dd7bc7dec4dceedda775e58dd541e08a116c6c53815c0bd028192f7b626800602090815260408083206001600160a01b038516845290915290205460ff1661117a576040517fe2517d3f0000000000000000000000000000000000000000000000000000000081526001600160a01b038216600482015260248101839052604401611868565b6136c7826143f9565b6040516001600160a01b038316907fbc7cd75a20ee27fd9adebab32041f755214dbc6bffa90cc0225b39da2e5c2d3b90600090a280511561370c5761114e82826144a1565b61117a614517565b6137497f00000000000000000000000000000000000000000000000000000000000000006001600160a01b03163330846137d5565b6000828152600360205260408120600801805483929061376a908490615789565b909155505060008281526003602052604081206009018054349290613790908490615789565b909155505060408051828152346020820152339184917fc94cd60a6b02ef454c8611bc981e47f93c0b4d348a5decc85f3e2c5818e8e34c910160405180910390a35050565b6040516001600160a01b0384811660248301528381166044830152606482018390526110fc9186918216906323b872dd906084015b604051602081830303815290604052915060e01b6020820180517bffffffffffffffffffffffffffffffffffffffffffffffffffffffff838183161783525050505061454f565b6000815160401461388e576040517fbd9c80c100000000000000000000000000000000000000000000000000000000815260040160405180910390fd5b50805160209091012090565b6138c47f000000000000000000000000000000000000000000000000000000000000000085615789565b4211156138fd576040517f0a151d0b00000000000000000000000000000000000000000000000000000000815260040160405180910390fd5b604080517f5f8784d207b73e6da533ec436e4e68df897ada404898707128cf43ddf65f7a186020808301919091526001600160a01b038816828401526060808301889052835180840390910181526080830184528051908201207fb03948446334eb9b2196d5eb166f69b9d49403eb4a12f36de8d3f9f3cb8e15c360a08401527fd13b7bcdea8dd87e8f9a0d206dc73d6264326a7f9f4c38119298bb466e785c5360c08401527fc89efdaa54c0f20c7adf612882df0950f5a951637e0307cdcb4c672f298b8bc660e08085019190915284518085039091018152610100840185528051908301207f1901000000000000000000000000000000000000000000000000000000000000610120850152610122840152610142808401829052845180850390910181526101628401808652815191840191909120610182601f890185900490940285018401909552868152909392600092613a7992918991899182910183828082843760009201919091525086939250506145cb9050565b9050836001600160a01b0316816001600160a01b0316146112e4576040517ff5b2592500000000000000000000000000000000000000000000000000000000815260040160405180910390fd5b6000613af27f000000000000000000000000000000000000000000000000000000000000000083615789565b421115613b2b576040517f0a151d0b00000000000000000000000000000000000000000000000000000000815260040160405180910390fd5b60007f37096cd2491f9c5ef86ecee2c1b7a06103393df9e824c16fab6722c818bd43ef888888604051613b5f929190615b21565b60408051918290038220602083019490945281019190915260608101919091526080810186905260ff851660a082015260c0810184905260e00160408051601f1981840301815282825280516020918201207fb03948446334eb9b2196d5eb166f69b9d49403eb4a12f36de8d3f9f3cb8e15c3918401919091527fd13b7bcdea8dd87e8f9a0d206dc73d6264326a7f9f4c38119298bb466e785c53918301919091527fc89efdaa54c0f20c7adf612882df0950f5a951637e0307cdcb4c672f298b8bc66060830152915060009060800160408051601f198184030181529082905280516020918201207f1901000000000000000000000000000000000000000000000000000000000000918301919091526022820152604281018390526062016040516020818303038152906040528051906020012090506000613cdb8c8c8080601f01602080910402602001604051908101604052809392919081815260200183838082843760009201919091525086939250506145cb9050565b9050613ce6816145f5565b9b9a5050505050505050505050565b6001600160a01b038084166000908152602081905260409020547f000000000000000000000000000000000000000000000000000000000000000084027f0000000000000000000000000000000000000000000000000000000000000000019182840391613d88917f000000000000000000000000000000000000000000000000000000000000000081169116846143c8565b60045460009081526003602052604090206008015550505050565b60008085602001513a11613ead5760005a90508660c001516001600160a01b03168760800151898960a001518a60e001518b61010001518b8b8b604051602401613df39796959493929190615b31565b60408051601f198184030181529181526020820180517bffffffffffffffffffffffffffffffffffffffffffffffffffffffff167f9e24036d0000000000000000000000000000000000000000000000000000000017905251613e569190615b8a565b60006040518083038160008787f1925050503d8060008114613e94576040519150601f19603f3d011682016040523d82523d6000602084013e613e99565b606091505b50909350505a613ea9908261579c565b9150505b9550959350505050565b818111613ec45780613ec6565b815b90506000836001600160a01b03168260405160006040518083038185875af1925050503d8060008114613f15576040519150601f19603f3d011682016040523d82523d6000602084013e613f1a565b606091505b5050600454600090815260036020526040812060090180549293508492909190613f4590849061579c565b909155505050505050565b6001600160a01b03811660009081527fc17b4b708b6f44255c20913a9d97a05300b670342c71fe5ae5b617bd4db5500160205260408120547fc17b4b708b6f44255c20913a9d97a05300b670342c71fe5ae5b617bd4db5500090613fb75750600092915050565b6001600160a01b0383166000818152600183016020526040808220829055517f0f586d928fc7ce3b60c8a7c276a8562f9f53b126cebe71cf612948dfc52eff169190a250600192915050565b6001600160a01b038085166000908152602081905260409020547f000000000000000000000000000000000000000000000000000000000000000084027f0000000000000000000000000000000000000000000000000000000000000000019182840391614096917f000000000000000000000000000000000000000000000000000000000000000081169116846143c8565b6140ca6001600160a01b037f00000000000000000000000000000000000000000000000000000000000000001686836143c8565b505050505050565b8181116140df57806140e1565b815b90506000846001600160a01b03168260405160006040518083038185875af1925050503d8060008114614130576040519150601f19603f3d011682016040523d82523d6000602084013e614135565b606091505b50909150506001600160a01b03841661414e838561579c565b604051600081818185875af1925050503d80600081146112e4576040519150601f19603f3d011682016040523d82523d6000602084013e6112e4565b6000607f600454901c67ffffffffffffffff1690508067ffffffffffffffff036141d0574660c01b77800000000000000000000000000000000000000000000000176004555b607f6001901b600460008282546141e79190615789565b925050819055506040518060e001604052808481526020018381526020016000815260200160008152602001868152602001856001600160a01b0316815260200187815250600360006004548152602001908152602001600020600082015181600001556020820151816001015560408201518160020155606082015181600301556080820151816004015560a08201518160050160006101000a8154816001600160a01b0302191690836001600160a01b0316021790555060c082015181600601600082015181600001556020820151816001015560408201518160020155606082015181600301556080820151816004015560a08201518160050160006101000a8154816001600160a01b0302191690836001600160a01b0316021790555060c08201518160060160006101000a8154816001600160a01b0302191690836001600160a01b0316021790555060e082015181600701556101008201518160080190816143559190615839565b5050509050506143623390565b6001600160a01b03166004547f4a8b714796e387ac5742bdfeb3278d2e5ff8fe58ec4bbdf13020711f7c9c1fd2858960400151868a8a8d60e001518e6101000151426040516143b8989796959493929190615ba6565b60405180910390a3505050505050565b6040516001600160a01b0383811660248301526044820183905261114e91859182169063a9059cbb9060640161380a565b806001600160a01b03163b600003614448576040517f4c9c8ce30000000000000000000000000000000000000000000000000000000081526001600160a01b0382166004820152602401611868565b7f360894a13ba1a3210667c828492db98dca3e2076cc3735a920a3ca505d382bbc80547fffffffffffffffffffffffff0000000000000000000000000000000000000000166001600160a01b0392909216919091179055565b6060600080846001600160a01b0316846040516144be9190615b8a565b600060405180830381855af49150503d80600081146144f9576040519150601f19603f3d011682016040523d82523d6000602084013e6144fe565b606091505b509150915061450e8583836146da565b95945050505050565b3415611440576040517fb398979f00000000000000000000000000000000000000000000000000000000815260040160405180910390fd5b60006145646001600160a01b0384168361474f565b905080516000141580156145895750808060200190518101906145879190615bfd565b155b1561114e576040517f5274afe70000000000000000000000000000000000000000000000000000000081526001600160a01b0384166004820152602401611868565b6000806000806145db868661475d565b9250925092506145eb82826147aa565b5090949350505050565b6001600160a01b03811660009081527fc17b4b708b6f44255c20913a9d97a05300b670342c71fe5ae5b617bd4db5500160205260409020547fc17b4b708b6f44255c20913a9d97a05300b670342c71fe5ae5b617bd4db550009080614686576040517f3dd8ca9500000000000000000000000000000000000000000000000000000000815260040160405180910390fd5b6000818152602083905260409020805461469f9061553c565b905060000361114e576040517f38c4ac1600000000000000000000000000000000000000000000000000000000815260040160405180910390fd5b6060826146ef576146ea826148ae565b6112cd565b815115801561470657506001600160a01b0384163b155b15614748576040517f9996b3150000000000000000000000000000000000000000000000000000000081526001600160a01b0385166004820152602401611868565b5092915050565b60606112cd838360006148f0565b600080600083516041036147975760208401516040850151606086015160001a614789888285856149a6565b9550955095505050506147a3565b50508151600091506002905b9250925092565b60008260038111156147be576147be615c1f565b036147c7575050565b60018260038111156147db576147db615c1f565b03614812576040517ff645eedf00000000000000000000000000000000000000000000000000000000815260040160405180910390fd5b600282600381111561482657614826615c1f565b03614860576040517ffce698f700000000000000000000000000000000000000000000000000000000815260048101829052602401611868565b600382600381111561487457614874615c1f565b0361117a576040517fd78bce0c00000000000000000000000000000000000000000000000000000000815260048101829052602401611868565b8051156148be5780518082602001fd5b6040517f1425ea4200000000000000000000000000000000000000000000000000000000815260040160405180910390fd5b60608147101561492e576040517fcd786059000000000000000000000000000000000000000000000000000000008152306004820152602401611868565b600080856001600160a01b0316848660405161494a9190615b8a565b60006040518083038185875af1925050503d8060008114614987576040519150601f19603f3d011682016040523d82523d6000602084013e61498c565b606091505b509150915061499c8683836146da565b9695505050505050565b600080807f7fffffffffffffffffffffffffffffff5d576e7357a4501ddfe92f46681b20a08411156149e15750600091506003905082614a6b565b604080516000808252602082018084528a905260ff891692820192909252606081018790526080810186905260019060a0016020604051602081039080840390855afa158015614a35573d6000803e3d6000fd5b5050604051601f1901519150506001600160a01b038116614a6157506000925060019150829050614a6b565b9250600091508190505b9450945094915050565b508054614a819061553c565b6000825580601f10614a91575050565b601f01602090049060005260206000209081019061131691905b80821115614abf5760008155600101614aab565b5090565b80356001600160a01b0381168114614ada57600080fd5b919050565b600060208284031215614af157600080fd5b6112cd82614ac3565b600060208284031215614b0c57600080fd5b81357fffffffff00000000000000000000000000000000000000000000000000000000811681146112cd57600080fd5b600060208284031215614b4e57600080fd5b5035919050565b60005b83811015614b70578181015183820152602001614b58565b50506000910152565b60008151808452614b91816020860160208601614b55565b601f01601f19169290920160200192915050565b8781528660208201528560408201528460608201528360808201526001600160a01b03831660a082015260e060c0820152815160e08201526000602083015161010081818501526040850151915061012082818601526060860151610140860152608086015161016086015260a08601519250614c2e6101808601846001600160a01b03169052565b60c08601516001600160a01b03166101a086015260e08601516101c0860152908501516101e08501919091529050614c6a610200840182614b79565b9a9950505050505050505050565b60006101208b83528a60208401528960408401528860608401528760808401526001600160a01b0380881660a085015280871660c0850152508460e084015280610100840152614cca81840185614b79565b9c9b505050505050505050505050565b602081526000825160606020840152614cf66080840182614b79565b90506020840151601f1980858403016040860152614d148383614b79565b925060408601519150808584030160608601525061450e8282614b79565b7f4e487b7100000000000000000000000000000000000000000000000000000000600052604160045260246000fd5b6040516060810167ffffffffffffffff81118282101715614d8457614d84614d32565b60405290565b60405160a0810167ffffffffffffffff81118282101715614d8457614d84614d32565b604051601f8201601f1916810167ffffffffffffffff81118282101715614dd657614dd6614d32565b604052919050565b600082601f830112614def57600080fd5b813567ffffffffffffffff811115614e0957614e09614d32565b614e1c6020601f19601f84011601614dad565b818152846020838601011115614e3157600080fd5b816020850160208301376000918101602001919091529392505050565b60008060408385031215614e6157600080fd5b614e6a83614ac3565b915060208084013567ffffffffffffffff80821115614e8857600080fd5b818601915086601f830112614e9c57600080fd5b813581811115614eae57614eae614d32565b8060051b614ebd858201614dad565b918252838101850191858101908a841115614ed757600080fd5b86860192505b83831015614f9557823585811115614ef55760008081fd5b86016060818d03601f1901811315614f0d5760008081fd5b614f15614d61565b8983013588811115614f275760008081fd5b614f358f8c83870101614dde565b825250604083013588811115614f4b5760008081fd5b614f598f8c83870101614dde565b828c015250908201359087821115614f715760008081fd5b614f7f8e8b84860101614dde565b6040820152845250509186019190860190614edd565b809750505050505050509250929050565b60008060408385031215614fb957600080fd5b82359150614fc960208401614ac3565b90509250929050565b60008083601f840112614fe457600080fd5b50813567ffffffffffffffff811115614ffc57600080fd5b60208301915083602082850101111561501457600080fd5b9250929050565b6000806000806060858703121561503157600080fd5b8435935060208501359250604085013567ffffffffffffffff81111561505657600080fd5b61506287828801614fd2565b95989497509550505050565b6000806040838503121561508157600080fd5b61508a83614ac3565b9150602083013567ffffffffffffffff8111156150a657600080fd5b6150b285828601614dde565b9150509250929050565b6000806000606084860312156150d157600080fd5b505081359360208301359350604090920135919050565b600080604083850312156150fb57600080fd5b50508035926020909101359150565b600080600080600080600060e0888a03121561512557600080fd5b87359650602088013567ffffffffffffffff81111561514357600080fd5b61514f8a828b01614dde565b965050604088013594506060880135935061516c60808901614ac3565b925061517a60a08901614ac3565b915060c0880135905092959891949750929550565b600060a082840312156151a157600080fd5b6151a9614d8a565b9050813567ffffffffffffffff808211156151c357600080fd5b6151cf85838601614dde565b835260208401359150808211156151e557600080fd5b6151f185838601614dde565b6020840152604084013591508082111561520a57600080fd5b61521685838601614dde565b6040840152606084013591508082111561522f57600080fd5b5061523c84828501614dde565b6060830152506080820135608082015292915050565b60008060008060006080868803121561526a57600080fd5b853567ffffffffffffffff8082111561528257600080fd5b61528e89838a01614dde565b965060208801359150808211156152a457600080fd5b6152b089838a0161518f565b955060408801359150808211156152c657600080fd5b506152d388828901614fd2565b96999598509660600135949350505050565b600080600080600080606087890312156152fe57600080fd5b863567ffffffffffffffff8082111561531657600080fd5b6153228a838b01614fd2565b9098509650602089013591508082111561533b57600080fd5b6153478a838b01614fd2565b9096509450604089013591508082111561536057600080fd5b5061536d89828a01614fd2565b979a9699509497509295939492505050565b6000806040838503121561539257600080fd5b823567ffffffffffffffff808211156153aa57600080fd5b6153b686838701614dde565b935060208501359150808211156153cc57600080fd5b506150b28582860161518f565b60008060008060008060008060c0898b0312156153f557600080fd5b883567ffffffffffffffff8082111561540d57600080fd5b6154198c838d01614fd2565b909a50985060208b0135975060408b013591508082111561543957600080fd5b506154468b828c01614fd2565b90965094505060608901359250608089013560ff8116811461546757600080fd5b8092505060a089013590509295985092959890939650565b6020815260006112cd6020830184614b79565b60008060008060008060008060008060006101408c8e0312156154b457600080fd5b8b359a5060208c013567ffffffffffffffff8111156154d257600080fd5b6154de8e828f01614fd2565b909b5099505060408c0135975060608c013596506154fe60808d01614ac3565b955061550c60a08d01614ac3565b945060c08c0135935060e08c013592506101008c013591506101208c013590509295989b509295989b9093969950565b600181811c9082168061555057607f821691505b602082108103611306577f4e487b7100000000000000000000000000000000000000000000000000000000600052602260045260246000fd5b7f4e487b7100000000000000000000000000000000000000000000000000000000600052603260045260246000fd5b601f82111561114e576000816000526020600020601f850160051c810160208610156155e15750805b601f850160051c820191505b818110156140ca578281556001016155ed565b67ffffffffffffffff83111561561857615618614d32565b61562c83615626835461553c565b836155b8565b6000601f84116001811461567e57600085156156485750838201355b7fffffffffffffffffffffffffffffffffffffffffffffffffffffffffffffffff600387901b1c1916600186901b1783556111e1565b600083815260209020601f19861690835b828110156156af578685013582556020948501946001909201910161568f565b50868210156156ea577fffffffffffffffffffffffffffffffffffffffffffffffffffffffffffffffff60f88860031b161c19848701351681555b505060018560011b0183555050505050565b818352818160208501375060006020828401015260006020601f19601f840116840101905092915050565b83815260406020820152600061450e6040830184866156fc565b60006020828403121561575357600080fd5b5051919050565b7f4e487b7100000000000000000000000000000000000000000000000000000000600052601160045260246000fd5b80820180821115610a5e57610a5e61575a565b81810381811115610a5e57610a5e61575a565b6000826157e5577f4e487b7100000000000000000000000000000000000000000000000000000000600052601260045260246000fd5b500490565b8082028115828204841417610a5e57610a5e61575a565b60007fffffffffffffffffffffffffffffffffffffffffffffffffffffffffffffffff82036158325761583261575a565b5060010190565b815167ffffffffffffffff81111561585357615853614d32565b61586781615861845461553c565b846155b8565b602080601f8311600181146158ba57600084156158845750858301515b7fffffffffffffffffffffffffffffffffffffffffffffffffffffffffffffffff600386901b1c1916600185901b1785556140ca565b600085815260208120601f198616915b828110156158e9578886015182559484019460019091019084016158ca565b508582101561592557878501517fffffffffffffffffffffffffffffffffffffffffffffffffffffffffffffffff600388901b60f8161c191681555b5050505050600190811b01905550565b60006101408c835280602084015261594f8184018d614b79565b604084019b909b5250506060810197909752608087019590955260a08601939093526001600160a01b0391821660c08601521660e08401526101008301526101209091015292915050565b600084516159ac818460208901614b55565b8451908301906159c0818360208901614b55565b84519101906159d3818360208801614b55565b0195945050505050565b6060815260006159f06060830186614b79565b8281036020840152615a028186614b79565b9050828103604084015261499c8185614b79565b604081526000615a296040830185614b79565b8281036020840152835160a08252615a4460a0830182614b79565b905060208501518282036020840152615a5d8282614b79565b91505060408501518282036040840152615a778282614b79565b91505060608501518282036060840152615a918282614b79565b9150506080850151608083015280925050509392505050565b60c081526000615abe60c08301898b6156fc565b60208301979097525060ff9490941660408501529115156060840152608083015260a09091015292915050565b608081526000615aff6080830187896156fc565b60208301959095525060ff929092166040830152151560609091015292915050565b8183823760009101908152919050565b8781526001600160a01b038716602082015285604082015260c060608201526000615b5f60c0830187614b79565b8281036080840152615b728186886156fc565b91505060ff831660a083015298975050505050505050565b60008251615b9c818460208701614b55565b9190910192915050565b60006101008a83528960208401528860408401528760608401526001600160a01b03871660808401528560a08401528060c0840152615be781840186614b79565b9150508260e08301529998505050505050505050565b600060208284031215615c0f57600080fd5b815180151581146112cd57600080fd5b7f4e487b7100000000000000000000000000000000000000000000000000000000600052602160045260246000fdfea264697066735822122035e66cb1a0e198c98d65601fb2b3e2ba3c187f4ddc2f17cc3891bb8992d94dd264736f6c63430008190033",
  "linkReferences": {},
  "deployedLinkReferences": {}
}