{
  "_format": "hh-sol-artifact-1",
  "contractName": "Relay",
  "sourceName": "contracts/serverless-v2/Relay.sol",
  "abi": [
    {
      "inputs": [
        {
          "internalType": "contract IAttestationVerifier",
          "name": "attestationVerifier",
          "type": "address"
        },
        {
          "internalType": "uint256",
          "name": "maxAge",
          "type": "uint256"
        },
        {
          "internalType": "contract IERC20",
          "name": "_token",
          "type": "address"
        },
        {
          "internalType": "uint256",
          "name": "_globalMinTimeout",
          "type": "uint256"
        },
        {
          "internalType": "uint256",
          "name": "_globalMaxTimeout",
          "type": "uint256"
        },
        {
          "internalType": "uint256",
          "name": "_overallTimeout",
          "type": "uint256"
        },
        {
          "internalType": "uint256",
          "name": "_executionFeePerMs",
          "type": "uint256"
        },
        {
          "internalType": "uint256",
          "name": "_gatewayFeePerJob",
          "type": "uint256"
        },
        {
          "internalType": "uint256",
          "name": "_fixedGas",
          "type": "uint256"
        },
        {
          "internalType": "uint256",
          "name": "_callbackMeasureGas",
          "type": "uint256"
        }
      ],
      "stateMutability": "nonpayable",
      "type": "constructor"
    },
    {
      "inputs": [],
      "name": "AccessControlBadConfirmation",
      "type": "error"
    },
    {
      "inputs": [
        {
          "internalType": "address",
          "name": "account",
          "type": "address"
        },
        {
          "internalType": "bytes32",
          "name": "neededRole",
          "type": "bytes32"
        }
      ],
      "name": "AccessControlUnauthorizedAccount",
      "type": "error"
    },
    {
      "inputs": [
        {
          "internalType": "address",
          "name": "target",
          "type": "address"
        }
      ],
      "name": "AddressEmptyCode",
      "type": "error"
    },
    {
      "inputs": [
        {
          "internalType": "address",
          "name": "account",
          "type": "address"
        }
      ],
      "name": "AddressInsufficientBalance",
      "type": "error"
    },
    {
      "inputs": [],
      "name": "AttestationAutherAttestationTooOld",
      "type": "error"
    },
    {
      "inputs": [],
      "name": "AttestationAutherImageNotInFamily",
      "type": "error"
    },
    {
      "inputs": [],
      "name": "AttestationAutherImageNotWhitelisted",
      "type": "error"
    },
    {
      "inputs": [],
      "name": "AttestationAutherKeyNotVerified",
      "type": "error"
    },
    {
      "inputs": [],
      "name": "AttestationAutherMismatchedLengths",
      "type": "error"
    },
    {
      "inputs": [],
      "name": "AttestationAutherPCRsInvalid",
      "type": "error"
    },
    {
      "inputs": [],
      "name": "AttestationAutherPubkeyLengthInvalid",
      "type": "error"
    },
    {
      "inputs": [],
      "name": "ECDSAInvalidSignature",
      "type": "error"
    },
    {
      "inputs": [
        {
          "internalType": "uint256",
          "name": "length",
          "type": "uint256"
        }
      ],
      "name": "ECDSAInvalidSignatureLength",
      "type": "error"
    },
    {
      "inputs": [
        {
          "internalType": "bytes32",
          "name": "s",
          "type": "bytes32"
        }
      ],
      "name": "ECDSAInvalidSignatureS",
      "type": "error"
    },
    {
      "inputs": [
        {
          "internalType": "address",
          "name": "implementation",
          "type": "address"
        }
      ],
      "name": "ERC1967InvalidImplementation",
      "type": "error"
    },
    {
      "inputs": [],
      "name": "ERC1967NonPayable",
      "type": "error"
    },
    {
      "inputs": [],
      "name": "FailedInnerCall",
      "type": "error"
    },
    {
      "inputs": [],
      "name": "InvalidInitialization",
      "type": "error"
    },
    {
      "inputs": [],
      "name": "NotInitializing",
      "type": "error"
    },
    {
      "inputs": [],
      "name": "RelayCallbackDepositTransferFailed",
      "type": "error"
    },
    {
      "inputs": [],
      "name": "RelayGatewayAlreadyExists",
      "type": "error"
    },
    {
      "inputs": [],
      "name": "RelayInsufficientCallbackDeposit",
      "type": "error"
    },
    {
      "inputs": [],
      "name": "RelayInsufficientMaxGasPrice",
      "type": "error"
    },
    {
      "inputs": [],
      "name": "RelayInvalidGatewayOwner",
      "type": "error"
    },
    {
      "inputs": [],
      "name": "RelayInvalidGlobalTimeouts",
      "type": "error"
    },
    {
      "inputs": [],
      "name": "RelayInvalidSigner",
      "type": "error"
    },
    {
      "inputs": [],
      "name": "RelayInvalidToken",
      "type": "error"
    },
    {
      "inputs": [],
      "name": "RelayInvalidUserTimeout",
      "type": "error"
    },
    {
      "inputs": [],
      "name": "RelayJobNotExists",
      "type": "error"
    },
    {
      "inputs": [],
      "name": "RelayOverallTimeoutNotOver",
      "type": "error"
    },
    {
      "inputs": [],
      "name": "RelayOverallTimeoutOver",
      "type": "error"
    },
    {
      "inputs": [],
      "name": "RelaySignatureTooOld",
      "type": "error"
    },
    {
      "inputs": [],
      "name": "RelayZeroAddressAdmin",
      "type": "error"
    },
    {
      "inputs": [
        {
          "internalType": "address",
          "name": "token",
          "type": "address"
        }
      ],
      "name": "SafeERC20FailedOperation",
      "type": "error"
    },
    {
      "inputs": [],
      "name": "UUPSUnauthorizedCallContext",
      "type": "error"
    },
    {
      "inputs": [
        {
          "internalType": "bytes32",
          "name": "slot",
          "type": "bytes32"
        }
      ],
      "name": "UUPSUnsupportedProxiableUUID",
      "type": "error"
    },
    {
      "anonymous": false,
      "inputs": [
        {
          "indexed": true,
          "internalType": "bytes32",
          "name": "imageId",
          "type": "bytes32"
        },
        {
          "indexed": false,
          "internalType": "bytes32",
          "name": "family",
          "type": "bytes32"
        }
      ],
      "name": "EnclaveImageAddedToFamily",
      "type": "event"
    },
    {
      "anonymous": false,
      "inputs": [
        {
          "indexed": true,
          "internalType": "bytes32",
          "name": "imageId",
          "type": "bytes32"
        },
        {
          "indexed": false,
          "internalType": "bytes32",
          "name": "family",
          "type": "bytes32"
        }
      ],
      "name": "EnclaveImageRemovedFromFamily",
      "type": "event"
    },
    {
      "anonymous": false,
      "inputs": [
        {
          "indexed": true,
          "internalType": "bytes32",
          "name": "imageId",
          "type": "bytes32"
        }
      ],
      "name": "EnclaveImageRevoked",
      "type": "event"
    },
    {
      "anonymous": false,
      "inputs": [
        {
          "indexed": true,
          "internalType": "bytes32",
          "name": "imageId",
          "type": "bytes32"
        },
        {
          "indexed": false,
          "internalType": "bytes",
          "name": "PCR0",
          "type": "bytes"
        },
        {
          "indexed": false,
          "internalType": "bytes",
          "name": "PCR1",
          "type": "bytes"
        },
        {
          "indexed": false,
          "internalType": "bytes",
          "name": "PCR2",
          "type": "bytes"
        }
      ],
      "name": "EnclaveImageWhitelisted",
      "type": "event"
    },
    {
      "anonymous": false,
      "inputs": [
        {
          "indexed": true,
          "internalType": "address",
          "name": "enclaveAddress",
          "type": "address"
        }
      ],
      "name": "EnclaveKeyRevoked",
      "type": "event"
    },
    {
      "anonymous": false,
      "inputs": [
        {
          "indexed": true,
          "internalType": "address",
          "name": "enclaveAddress",
          "type": "address"
        },
        {
          "indexed": true,
          "internalType": "bytes32",
          "name": "imageId",
          "type": "bytes32"
        },
        {
          "indexed": false,
          "internalType": "bytes",
          "name": "enclavePubKey",
          "type": "bytes"
        }
      ],
      "name": "EnclaveKeyVerified",
      "type": "event"
    },
    {
      "anonymous": false,
      "inputs": [
        {
          "indexed": true,
          "internalType": "address",
          "name": "enclaveAddress",
          "type": "address"
        },
        {
          "indexed": true,
          "internalType": "bytes32",
          "name": "imageId",
          "type": "bytes32"
        },
        {
          "indexed": false,
          "internalType": "bytes",
          "name": "enclavePubKey",
          "type": "bytes"
        }
      ],
      "name": "EnclaveKeyWhitelisted",
      "type": "event"
    },
    {
      "anonymous": false,
      "inputs": [
        {
          "indexed": true,
          "internalType": "address",
          "name": "enclaveAddress",
          "type": "address"
        }
      ],
      "name": "GatewayDeregistered",
      "type": "event"
    },
    {
      "anonymous": false,
      "inputs": [
        {
          "indexed": true,
          "internalType": "address",
          "name": "owner",
          "type": "address"
        },
        {
          "indexed": true,
          "internalType": "address",
          "name": "enclaveAddress",
          "type": "address"
        }
      ],
      "name": "GatewayRegistered",
      "type": "event"
    },
    {
      "anonymous": false,
      "inputs": [
        {
          "indexed": false,
          "internalType": "uint64",
          "name": "version",
          "type": "uint64"
        }
      ],
      "name": "Initialized",
      "type": "event"
    },
    {
      "anonymous": false,
      "inputs": [
        {
          "indexed": true,
          "internalType": "uint256",
          "name": "jobId",
          "type": "uint256"
        }
      ],
      "name": "JobCancelled",
      "type": "event"
    },
    {
      "anonymous": false,
      "inputs": [
        {
          "indexed": true,
          "internalType": "uint256",
          "name": "jobId",
          "type": "uint256"
        },
        {
          "indexed": false,
          "internalType": "bytes32",
          "name": "codehash",
          "type": "bytes32"
        },
        {
          "indexed": false,
          "internalType": "bytes",
          "name": "codeInputs",
          "type": "bytes"
        },
        {
          "indexed": false,
          "internalType": "uint256",
          "name": "userTimeout",
          "type": "uint256"
        },
        {
          "indexed": false,
          "internalType": "uint256",
          "name": "maxGasPrice",
          "type": "uint256"
        },
        {
          "indexed": false,
          "internalType": "uint256",
          "name": "usdcDeposit",
          "type": "uint256"
        },
        {
          "indexed": false,
          "internalType": "uint256",
          "name": "callbackDeposit",
          "type": "uint256"
        },
        {
          "indexed": false,
          "internalType": "address",
          "name": "refundAccount",
          "type": "address"
        },
        {
          "indexed": false,
          "internalType": "address",
          "name": "callbackContract",
          "type": "address"
        },
        {
          "indexed": false,
          "internalType": "uint256",
          "name": "startTime",
          "type": "uint256"
        },
        {
          "indexed": false,
          "internalType": "uint256",
          "name": "callbackGasLimit",
          "type": "uint256"
        }
      ],
      "name": "JobRelayed",
      "type": "event"
    },
    {
      "anonymous": false,
      "inputs": [
        {
          "indexed": true,
          "internalType": "uint256",
          "name": "jobId",
          "type": "uint256"
        },
        {
          "indexed": false,
          "internalType": "bytes",
          "name": "output",
          "type": "bytes"
        },
        {
          "indexed": false,
          "internalType": "uint256",
          "name": "totalTime",
          "type": "uint256"
        },
        {
          "indexed": false,
          "internalType": "uint256",
          "name": "errorCode",
          "type": "uint256"
        },
        {
          "indexed": false,
          "internalType": "bool",
          "name": "success",
          "type": "bool"
        }
      ],
      "name": "JobResponded",
      "type": "event"
    },
    {
      "anonymous": false,
      "inputs": [
        {
          "indexed": true,
          "internalType": "bytes32",
          "name": "role",
          "type": "bytes32"
        },
        {
          "indexed": true,
          "internalType": "bytes32",
          "name": "previousAdminRole",
          "type": "bytes32"
        },
        {
          "indexed": true,
          "internalType": "bytes32",
          "name": "newAdminRole",
          "type": "bytes32"
        }
      ],
      "name": "RoleAdminChanged",
      "type": "event"
    },
    {
      "anonymous": false,
      "inputs": [
        {
          "indexed": true,
          "internalType": "bytes32",
          "name": "role",
          "type": "bytes32"
        },
        {
          "indexed": true,
          "internalType": "address",
          "name": "account",
          "type": "address"
        },
        {
          "indexed": true,
          "internalType": "address",
          "name": "sender",
          "type": "address"
        }
      ],
      "name": "RoleGranted",
      "type": "event"
    },
    {
      "anonymous": false,
      "inputs": [
        {
          "indexed": true,
          "internalType": "bytes32",
          "name": "role",
          "type": "bytes32"
        },
        {
          "indexed": true,
          "internalType": "address",
          "name": "account",
          "type": "address"
        },
        {
          "indexed": true,
          "internalType": "address",
          "name": "sender",
          "type": "address"
        }
      ],
      "name": "RoleRevoked",
      "type": "event"
    },
    {
      "anonymous": false,
      "inputs": [
        {
          "indexed": true,
          "internalType": "address",
          "name": "implementation",
          "type": "address"
        }
      ],
      "name": "Upgraded",
      "type": "event"
    },
    {
      "inputs": [],
      "name": "ATTESTATION_MAX_AGE",
      "outputs": [
        {
          "internalType": "uint256",
          "name": "",
          "type": "uint256"
        }
      ],
      "stateMutability": "view",
      "type": "function"
    },
    {
      "inputs": [],
      "name": "ATTESTATION_VERIFIER",
      "outputs": [
        {
          "internalType": "contract IAttestationVerifier",
          "name": "",
          "type": "address"
        }
      ],
      "stateMutability": "view",
      "type": "function"
    },
    {
      "inputs": [],
      "name": "CALLBACK_MEASURE_GAS",
      "outputs": [
        {
          "internalType": "uint256",
          "name": "",
          "type": "uint256"
        }
      ],
      "stateMutability": "view",
      "type": "function"
    },
    {
      "inputs": [],
      "name": "DEFAULT_ADMIN_ROLE",
      "outputs": [
        {
          "internalType": "bytes32",
          "name": "",
          "type": "bytes32"
        }
      ],
      "stateMutability": "view",
      "type": "function"
    },
    {
      "inputs": [],
      "name": "EXECUTION_FEE_PER_MS",
      "outputs": [
        {
          "internalType": "uint256",
          "name": "",
          "type": "uint256"
        }
      ],
      "stateMutability": "view",
      "type": "function"
    },
    {
      "inputs": [],
      "name": "FIXED_GAS",
      "outputs": [
        {
          "internalType": "uint256",
          "name": "",
          "type": "uint256"
        }
      ],
      "stateMutability": "view",
      "type": "function"
    },
    {
      "inputs": [],
      "name": "GATEWAY_FEE_PER_JOB",
      "outputs": [
        {
          "internalType": "uint256",
          "name": "",
          "type": "uint256"
        }
      ],
      "stateMutability": "view",
      "type": "function"
    },
    {
      "inputs": [],
      "name": "GLOBAL_MAX_TIMEOUT",
      "outputs": [
        {
          "internalType": "uint256",
          "name": "",
          "type": "uint256"
        }
      ],
      "stateMutability": "view",
      "type": "function"
    },
    {
      "inputs": [],
      "name": "GLOBAL_MIN_TIMEOUT",
      "outputs": [
        {
          "internalType": "uint256",
          "name": "",
          "type": "uint256"
        }
      ],
      "stateMutability": "view",
      "type": "function"
    },
    {
      "inputs": [],
      "name": "JOB_RESPONSE_TYPEHASH",
      "outputs": [
        {
          "internalType": "bytes32",
          "name": "",
          "type": "bytes32"
        }
      ],
      "stateMutability": "view",
      "type": "function"
    },
    {
      "inputs": [],
      "name": "OVERALL_TIMEOUT",
      "outputs": [
        {
          "internalType": "uint256",
          "name": "",
          "type": "uint256"
        }
      ],
      "stateMutability": "view",
      "type": "function"
    },
    {
      "inputs": [],
      "name": "TOKEN",
      "outputs": [
        {
          "internalType": "contract IERC20",
          "name": "",
          "type": "address"
        }
      ],
      "stateMutability": "view",
      "type": "function"
    },
    {
      "inputs": [],
      "name": "UPGRADE_INTERFACE_VERSION",
      "outputs": [
        {
          "internalType": "string",
          "name": "",
          "type": "string"
        }
      ],
      "stateMutability": "view",
      "type": "function"
    },
    {
      "inputs": [
        {
          "internalType": "address",
          "name": "_enclaveAddress",
          "type": "address"
        }
      ],
      "name": "allowOnlyVerified",
      "outputs": [],
      "stateMutability": "view",
      "type": "function"
    },
    {
      "inputs": [
        {
          "internalType": "address",
          "name": "_enclaveAddress",
          "type": "address"
        }
      ],
      "name": "deregisterGateway",
      "outputs": [],
      "stateMutability": "nonpayable",
      "type": "function"
    },
    {
      "inputs": [
        {
          "internalType": "address",
          "name": "",
          "type": "address"
        }
      ],
      "name": "gatewayOwners",
      "outputs": [
        {
          "internalType": "address",
          "name": "",
          "type": "address"
        }
      ],
      "stateMutability": "view",
      "type": "function"
    },
    {
      "inputs": [
        {
          "internalType": "bytes32",
          "name": "role",
          "type": "bytes32"
        }
      ],
      "name": "getRoleAdmin",
      "outputs": [
        {
          "internalType": "bytes32",
          "name": "",
          "type": "bytes32"
        }
      ],
      "stateMutability": "view",
      "type": "function"
    },
    {
      "inputs": [
        {
          "internalType": "address",
          "name": "_key",
          "type": "address"
        }
      ],
      "name": "getVerifiedKey",
      "outputs": [
        {
          "internalType": "bytes32",
          "name": "",
          "type": "bytes32"
        }
      ],
      "stateMutability": "view",
      "type": "function"
    },
    {
      "inputs": [
        {
          "internalType": "bytes32",
          "name": "_imageId",
          "type": "bytes32"
        }
      ],
      "name": "getWhitelistedImage",
      "outputs": [
        {
          "components": [
            {
              "internalType": "bytes",
              "name": "PCR0",
              "type": "bytes"
            },
            {
              "internalType": "bytes",
              "name": "PCR1",
              "type": "bytes"
            },
            {
              "internalType": "bytes",
              "name": "PCR2",
              "type": "bytes"
            }
          ],
          "internalType": "struct AttestationAutherUpgradeable.EnclaveImage",
          "name": "",
          "type": "tuple"
        }
      ],
      "stateMutability": "view",
      "type": "function"
    },
    {
      "inputs": [
        {
          "internalType": "bytes32",
          "name": "role",
          "type": "bytes32"
        },
        {
          "internalType": "address",
          "name": "account",
          "type": "address"
        }
      ],
      "name": "grantRole",
      "outputs": [],
      "stateMutability": "nonpayable",
      "type": "function"
    },
    {
      "inputs": [
        {
          "internalType": "bytes32",
          "name": "role",
          "type": "bytes32"
        },
        {
          "internalType": "address",
          "name": "account",
          "type": "address"
        }
      ],
      "name": "hasRole",
      "outputs": [
        {
          "internalType": "bool",
          "name": "",
          "type": "bool"
        }
      ],
      "stateMutability": "view",
      "type": "function"
    },
    {
      "inputs": [
        {
          "internalType": "address",
          "name": "_admin",
          "type": "address"
        },
        {
          "components": [
            {
              "internalType": "bytes",
              "name": "PCR0",
              "type": "bytes"
            },
            {
              "internalType": "bytes",
              "name": "PCR1",
              "type": "bytes"
            },
            {
              "internalType": "bytes",
              "name": "PCR2",
              "type": "bytes"
            }
          ],
          "internalType": "struct AttestationAutherUpgradeable.EnclaveImage[]",
          "name": "_images",
          "type": "tuple[]"
        }
      ],
      "name": "initialize",
      "outputs": [],
      "stateMutability": "nonpayable",
      "type": "function"
    },
    {
      "inputs": [
        {
          "internalType": "bytes32",
          "name": "imageId",
          "type": "bytes32"
        },
        {
          "internalType": "bytes32",
          "name": "family",
          "type": "bytes32"
        }
      ],
      "name": "isImageInFamily",
      "outputs": [
        {
          "internalType": "bool",
          "name": "",
          "type": "bool"
        }
      ],
      "stateMutability": "view",
      "type": "function"
    },
    {
      "inputs": [
        {
          "internalType": "uint256",
          "name": "_jobId",
          "type": "uint256"
        }
      ],
      "name": "jobCancel",
      "outputs": [],
      "stateMutability": "nonpayable",
      "type": "function"
    },
    {
      "inputs": [],
      "name": "jobCount",
      "outputs": [
        {
          "internalType": "uint256",
          "name": "",
          "type": "uint256"
        }
      ],
      "stateMutability": "view",
      "type": "function"
    },
    {
      "inputs": [
        {
          "internalType": "bytes",
          "name": "_signature",
          "type": "bytes"
        },
        {
          "internalType": "uint256",
          "name": "_jobId",
          "type": "uint256"
        },
        {
          "internalType": "bytes",
          "name": "_output",
          "type": "bytes"
        },
        {
          "internalType": "uint256",
          "name": "_totalTime",
          "type": "uint256"
        },
        {
          "internalType": "uint8",
          "name": "_errorCode",
          "type": "uint8"
        },
        {
          "internalType": "uint256",
          "name": "_signTimestamp",
          "type": "uint256"
        }
      ],
      "name": "jobResponse",
      "outputs": [],
      "stateMutability": "nonpayable",
      "type": "function"
    },
    {
      "inputs": [
        {
          "internalType": "uint256",
          "name": "",
          "type": "uint256"
        }
      ],
      "name": "jobs",
      "outputs": [
        {
          "internalType": "uint256",
          "name": "startTime",
          "type": "uint256"
        },
        {
          "internalType": "uint256",
          "name": "maxGasPrice",
          "type": "uint256"
        },
        {
          "internalType": "uint256",
          "name": "usdcDeposit",
          "type": "uint256"
        },
        {
          "internalType": "uint256",
          "name": "callbackDeposit",
          "type": "uint256"
        },
        {
          "internalType": "uint256",
          "name": "callbackGasLimit",
          "type": "uint256"
        },
        {
          "internalType": "address",
          "name": "jobOwner",
          "type": "address"
        },
        {
          "internalType": "address",
          "name": "callbackContract",
          "type": "address"
        },
        {
          "internalType": "bytes32",
          "name": "codehash",
          "type": "bytes32"
        },
        {
          "internalType": "bytes",
          "name": "codeInputs",
          "type": "bytes"
        }
      ],
      "stateMutability": "view",
      "type": "function"
    },
    {
      "inputs": [],
      "name": "proxiableUUID",
      "outputs": [
        {
          "internalType": "bytes32",
          "name": "",
          "type": "bytes32"
        }
      ],
      "stateMutability": "view",
      "type": "function"
    },
    {
      "inputs": [
        {
          "internalType": "bytes",
          "name": "_attestationSignature",
          "type": "bytes"
        },
        {
          "components": [
            {
              "internalType": "bytes",
              "name": "enclavePubKey",
              "type": "bytes"
            },
            {
              "internalType": "bytes",
              "name": "PCR0",
              "type": "bytes"
            },
            {
              "internalType": "bytes",
              "name": "PCR1",
              "type": "bytes"
            },
            {
              "internalType": "bytes",
              "name": "PCR2",
              "type": "bytes"
            },
            {
              "internalType": "uint256",
              "name": "timestampInMilliseconds",
              "type": "uint256"
            }
          ],
          "internalType": "struct IAttestationVerifier.Attestation",
          "name": "_attestation",
          "type": "tuple"
        },
        {
          "internalType": "bytes",
          "name": "_signature",
          "type": "bytes"
        },
        {
          "internalType": "uint256",
          "name": "_signTimestamp",
          "type": "uint256"
        }
      ],
      "name": "registerGateway",
      "outputs": [],
      "stateMutability": "nonpayable",
      "type": "function"
    },
    {
      "inputs": [
        {
          "internalType": "bytes32",
          "name": "_codehash",
          "type": "bytes32"
        },
        {
          "internalType": "bytes",
          "name": "_codeInputs",
          "type": "bytes"
        },
        {
          "internalType": "uint256",
          "name": "_userTimeout",
          "type": "uint256"
        },
        {
          "internalType": "uint256",
          "name": "_maxGasPrice",
          "type": "uint256"
        },
        {
          "internalType": "address",
          "name": "_refundAccount",
          "type": "address"
        },
        {
          "internalType": "address",
          "name": "_callbackContract",
          "type": "address"
        },
        {
          "internalType": "uint256",
          "name": "_callbackGasLimit",
          "type": "uint256"
        }
      ],
      "name": "relayJob",
      "outputs": [],
      "stateMutability": "payable",
      "type": "function"
    },
    {
      "inputs": [
        {
          "internalType": "bytes32",
          "name": "role",
          "type": "bytes32"
        },
        {
          "internalType": "address",
          "name": "callerConfirmation",
          "type": "address"
        }
      ],
      "name": "renounceRole",
      "outputs": [],
      "stateMutability": "nonpayable",
      "type": "function"
    },
    {
      "inputs": [
        {
          "internalType": "bytes32",
          "name": "imageId",
          "type": "bytes32"
        }
      ],
      "name": "revokeEnclaveImage",
      "outputs": [
        {
          "internalType": "bool",
          "name": "",
          "type": "bool"
        }
      ],
      "stateMutability": "nonpayable",
      "type": "function"
    },
    {
      "inputs": [
        {
          "internalType": "bytes32",
          "name": "role",
          "type": "bytes32"
        },
        {
          "internalType": "address",
          "name": "account",
          "type": "address"
        }
      ],
      "name": "revokeRole",
      "outputs": [],
      "stateMutability": "nonpayable",
      "type": "function"
    },
    {
      "inputs": [
        {
          "internalType": "bytes4",
          "name": "interfaceId",
          "type": "bytes4"
        }
      ],
      "name": "supportsInterface",
      "outputs": [
        {
          "internalType": "bool",
          "name": "",
          "type": "bool"
        }
      ],
      "stateMutability": "view",
      "type": "function"
    },
    {
      "inputs": [
        {
          "internalType": "address",
          "name": "newImplementation",
          "type": "address"
        },
        {
          "internalType": "bytes",
          "name": "data",
          "type": "bytes"
        }
      ],
      "name": "upgradeToAndCall",
      "outputs": [],
      "stateMutability": "payable",
      "type": "function"
    },
    {
      "inputs": [
        {
          "internalType": "bytes",
          "name": "signature",
          "type": "bytes"
        },
        {
          "components": [
            {
              "internalType": "bytes",
              "name": "enclavePubKey",
              "type": "bytes"
            },
            {
              "internalType": "bytes",
              "name": "PCR0",
              "type": "bytes"
            },
            {
              "internalType": "bytes",
              "name": "PCR1",
              "type": "bytes"
            },
            {
              "internalType": "bytes",
              "name": "PCR2",
              "type": "bytes"
            },
            {
              "internalType": "uint256",
              "name": "timestampInMilliseconds",
              "type": "uint256"
            }
          ],
          "internalType": "struct IAttestationVerifier.Attestation",
          "name": "attestation",
          "type": "tuple"
        }
      ],
      "name": "verifyEnclaveKey",
      "outputs": [
        {
          "internalType": "bool",
          "name": "",
          "type": "bool"
        }
      ],
      "stateMutability": "nonpayable",
      "type": "function"
    },
    {
      "inputs": [
        {
          "internalType": "bytes",
          "name": "PCR0",
          "type": "bytes"
        },
        {
          "internalType": "bytes",
          "name": "PCR1",
          "type": "bytes"
        },
        {
          "internalType": "bytes",
          "name": "PCR2",
          "type": "bytes"
        }
      ],
      "name": "whitelistEnclaveImage",
      "outputs": [
        {
          "internalType": "bytes32",
          "name": "",
          "type": "bytes32"
        },
        {
          "internalType": "bool",
          "name": "",
          "type": "bool"
        }
      ],
      "stateMutability": "nonpayable",
      "type": "function"
    }
  ],
  "bytecode": "0x6101e06040523060805234801561001557600080fd5b506040516148a13803806148a183398101604081905261003491610196565b6001600160a01b038a1660a05260c089905261004e6100cf565b6001600160a01b0388166100755760405163c844103f60e01b815260040160405180910390fd5b6001600160a01b03881660e0528587106100a15760405162fe194b60e31b815260040160405180910390fd5b61010096909652610120949094526101409290925261016052610180526101a0526101c0525061021f915050565b7ff0c57e16840df040f15088dc2f81fe391c3923bec73e23a9662efc9c229c6a00805468010000000000000000900460ff161561011f5760405163f92ee8a960e01b815260040160405180910390fd5b80546001600160401b039081161461017e5780546001600160401b0319166001600160401b0390811782556040519081527fc7f505b2f371ae2175ee4913f4499e1f2633a7b5936321eed1cdaeb6115181d29060200160405180910390a15b50565b6001600160a01b038116811461017e57600080fd5b6000806000806000806000806000806101408b8d0312156101b657600080fd5b8a516101c181610181565b60208c015160408d0151919b5099506101d981610181565b8098505060608b0151965060808b0151955060a08b0151945060c08b0151935060e08b015192506101008b015191506101208b015190509295989b9194979a5092959850565b60805160a05160c05160e05161010051610120516101405161016051610180516101a0516101c0516145696103386000396000818161093101526116cb0152600081816107cb015281816116ef015261238d0152600081816106ec015281816117640152612ed9015260008181610873015281816117880152612eb60152600081816104d20152818161226d015261259a0152600081816108a701526115fa01526000818161038201526115d00152600081816105e7015281816119150152818161269301528181612f040152612f3a0152600081816106b801528181611ced015281816129910152612c720152600081816107ff0152611d8b015260008181611396015281816113bf015261157701526145696000f3fe60806040526004361061026a5760003560e01c806375847b8411610153578063b9d546e0116100cb578063e27a70851161007f578063f398cc7411610064578063f398cc74146108c9578063f6a17fe3146108e9578063fa3036bf1461091f57600080fd5b8063e27a708514610861578063e29fcdc51461089557600080fd5b8063cd79f906116100b0578063cd79f906146107ed578063d547741f14610821578063debfc2f31461084157600080fd5b8063b9d546e014610799578063bdb3a870146107b957600080fd5b80639aec990e11610122578063a0ac45d511610107578063a0ac45d51461070e578063a217fddf1461072e578063ad3cb1cc1461074357600080fd5b80639aec990e146106a65780639bc27136146106da57600080fd5b806375847b84146105b557806382bfefc8146105d557806391d148541461062157806395c602941461068657600080fd5b806336568abe116101e657806358a14ad2116101b55780636549bf481161019a5780636549bf481461050757806369815e57146105275780636b5b21a61461055c57600080fd5b806358a14ad2146104c05780635c2c28e5146104f457600080fd5b806336568abe146104625780634c5d8a0f146104825780634f1ef2861461049857806352d1902d146104ab57600080fd5b80631e3708df1161023d578063248a9ca311610222578063248a9ca3146103d15780632eb39ee9146104205780632f2ff15d1461044257600080fd5b80631e3708df146103705780632410f6ba146103a457600080fd5b806301d58fa31461026f57806301ffc9a7146102d7578063051ce40a14610307578063180aedf31461033b575b600080fd5b34801561027b57600080fd5b506102c461028a366004613767565b6001600160a01b031660009081527fc17b4b708b6f44255c20913a9d97a05300b670342c71fe5ae5b617bd4db55001602052604090205490565b6040519081526020015b60405180910390f35b3480156102e357600080fd5b506102f76102f2366004613782565b610953565b60405190151581526020016102ce565b34801561031357600080fd5b506102c47f37096cd2491f9c5ef86ecee2c1b7a06103393df9e824c16fab6722c818bd43ef81565b34801561034757600080fd5b5061035b6103563660046137c4565b610964565b6040516102ce9998979695949392919061382d565b34801561037c57600080fd5b506102c47f000000000000000000000000000000000000000000000000000000000000000081565b3480156103b057600080fd5b506103c46103bf3660046137c4565b610a46565b6040516102ce919061388f565b3480156103dd57600080fd5b506102c46103ec3660046137c4565b60009081527f02dd7bc7dec4dceedda775e58dd541e08a116c6c53815c0bd028192f7b626800602052604090206001015490565b34801561042c57600080fd5b5061044061043b366004613a03565b610c64565b005b34801561044e57600080fd5b5061044061045d366004613b5b565b610e58565b34801561046e57600080fd5b5061044061047d366004613b5b565b610ea2565b34801561048e57600080fd5b506102c460025481565b6104406104a6366004613b87565b610ef3565b3480156104b757600080fd5b506102c4610f12565b3480156104cc57600080fd5b506102c47f000000000000000000000000000000000000000000000000000000000000000081565b610440610502366004613c1e565b610f41565b34801561051357600080fd5b50610440610522366004613d6b565b610f5d565b34801561053357600080fd5b50610547610542366004613dfe565b610f72565b604080519283529015156020830152016102ce565b34801561056857600080fd5b506102f7610577366004613e98565b60009081527fc17b4b708b6f44255c20913a9d97a05300b670342c71fe5ae5b617bd4db5500260209081526040808320938352929052205460ff1690565b3480156105c157600080fd5b506102f76105d0366004613eba565b61104b565b3480156105e157600080fd5b506106097f000000000000000000000000000000000000000000000000000000000000000081565b6040516001600160a01b0390911681526020016102ce565b34801561062d57600080fd5b506102f761063c366004613b5b565b60009182527f02dd7bc7dec4dceedda775e58dd541e08a116c6c53815c0bd028192f7b626800602090815260408084206001600160a01b0393909316845291905290205460ff1690565b34801561069257600080fd5b506102f76106a13660046137c4565b61105e565b3480156106b257600080fd5b506102c47f000000000000000000000000000000000000000000000000000000000000000081565b3480156106e657600080fd5b506102c47f000000000000000000000000000000000000000000000000000000000000000081565b34801561071a57600080fd5b50610440610729366004613767565b61107c565b34801561073a57600080fd5b506102c4600081565b34801561074f57600080fd5b5061078c6040518060400160405280600581526020017f352e302e3000000000000000000000000000000000000000000000000000000081525081565b6040516102ce9190613f14565b3480156107a557600080fd5b506104406107b4366004613767565b611088565b3480156107c557600080fd5b506102c47f000000000000000000000000000000000000000000000000000000000000000081565b3480156107f957600080fd5b506106097f000000000000000000000000000000000000000000000000000000000000000081565b34801561082d57600080fd5b5061044061083c366004613b5b565b611092565b34801561084d57600080fd5b5061044061085c366004613f27565b6110d6565b34801561086d57600080fd5b506102c47f000000000000000000000000000000000000000000000000000000000000000081565b3480156108a157600080fd5b506102c47f000000000000000000000000000000000000000000000000000000000000000081565b3480156108d557600080fd5b506104406108e43660046137c4565b6110e6565b3480156108f557600080fd5b50610609610904366004613767565b6000602081905290815260409020546001600160a01b031681565b34801561092b57600080fd5b506102c47f000000000000000000000000000000000000000000000000000000000000000081565b600061095e826110ef565b92915050565b600160208190526000918252604090912080549181015460028201546003830154600484015460058501546006860154600787015460088801805497989697959694956001600160a01b0394851695949093169391926109c390613fcd565b80601f01602080910402602001604051908101604052809291908181526020018280546109ef90613fcd565b8015610a3c5780601f10610a1157610100808354040283529160200191610a3c565b820191906000526020600020905b815481529060010190602001808311610a1f57829003601f168201915b5050505050905089565b610a6a60405180606001604052806060815260200160608152602001606081525090565b60008281527fc17b4b708b6f44255c20913a9d97a05300b670342c71fe5ae5b617bd4db550006020819052604091829020825160608101909352805491929182908290610ab690613fcd565b80601f0160208091040260200160405190810160405280929190818152602001828054610ae290613fcd565b8015610b2f5780601f10610b0457610100808354040283529160200191610b2f565b820191906000526020600020905b815481529060010190602001808311610b1257829003601f168201915b50505050508152602001600182018054610b4890613fcd565b80601f0160208091040260200160405190810160405280929190818152602001828054610b7490613fcd565b8015610bc15780601f10610b9657610100808354040283529160200191610bc1565b820191906000526020600020905b815481529060010190602001808311610ba457829003601f168201915b50505050508152602001600282018054610bda90613fcd565b80601f0160208091040260200160405190810160405280929190818152602001828054610c0690613fcd565b8015610c535780601f10610c2857610100808354040283529160200191610c53565b820191906000526020600020905b815481529060010190602001808311610c3657829003601f168201915b505050505081525050915050919050565b7ff0c57e16840df040f15088dc2f81fe391c3923bec73e23a9662efc9c229c6a00805468010000000000000000810460ff16159067ffffffffffffffff16600081158015610caf5750825b905060008267ffffffffffffffff166001148015610ccc5750303b155b905081158015610cda575080155b15610d11576040517ff92ee8a900000000000000000000000000000000000000000000000000000000815260040160405180910390fd5b84547fffffffffffffffffffffffffffffffffffffffffffffffff00000000000000001660011785558315610d725784547fffffffffffffffffffffffffffffffffffffffffffffff00ffffffffffffffff16680100000000000000001785555b6001600160a01b038716610db2576040517f30a7a37f00000000000000000000000000000000000000000000000000000000815260040160405180910390fd5b610dba611186565b610dc2611186565b610dca611186565b610dd2611186565b610ddb86611190565b610de66000886111d0565b504660c01b6002558315610e4f5784547fffffffffffffffffffffffffffffffffffffffffffffff00ffffffffffffffff168555604051600181527fc7f505b2f371ae2175ee4913f4499e1f2633a7b5936321eed1cdaeb6115181d29060200160405180910390a15b50505050505050565b60008281527f02dd7bc7dec4dceedda775e58dd541e08a116c6c53815c0bd028192f7b6268006020526040902060010154610e92816112bd565b610e9c83836111d0565b50505050565b6001600160a01b0381163314610ee4576040517f6697b23200000000000000000000000000000000000000000000000000000000815260040160405180910390fd5b610eee82826112c7565b505050565b610efb61138b565b610f048261145b565b610f0e8282611466565b5050565b6000610f1c61156c565b507f360894a13ba1a3210667c828492db98dca3e2076cc3735a920a3ca505d382bbc90565b610f53888888888834898989336115ce565b5050505050505050565b610f6b858585858533611998565b5050505050565b60008080610f7f816112bd565b6040805160806020601f8c018190040282018101909252606081018a815261103b928291908d908d9081908501838280828437600092019190915250505090825250604080516020601f8c018190048102820181019092528a815291810191908b908b9081908401838280828437600092019190915250505090825250604080516020601f8a01819004810282018101909252888152918101919089908990819084018382808284376000920191909152505050915250611a8a565b9250925050965096945050505050565b60006110578383611c32565b9392505050565b60008061106a816112bd565b61107383611e96565b91505b50919050565b61108581611f4d565b50565b6110858133612032565b60008281527f02dd7bc7dec4dceedda775e58dd541e08a116c6c53815c0bd028192f7b62680060205260409020600101546110cc816112bd565b610e9c83836112c7565b610f538888888888888888612115565b61108581612442565b60007fffffffff0000000000000000000000000000000000000000000000000000000082167f7965db0b00000000000000000000000000000000000000000000000000000000148061095e57507f01ffc9a7000000000000000000000000000000000000000000000000000000007fffffffff0000000000000000000000000000000000000000000000000000000083161461095e565b61118e61277d565b565b61119861277d565b60005b8151811015610f0e576111c68282815181106111b9576111b961401a565b6020026020010151611a8a565b505060010161119b565b60008281527f02dd7bc7dec4dceedda775e58dd541e08a116c6c53815c0bd028192f7b626800602081815260408084206001600160a01b038616855290915282205460ff166112b3576000848152602082815260408083206001600160a01b0387168452909152902080547fffffffffffffffffffffffffffffffffffffffffffffffffffffffffffffff001660011790556112693390565b6001600160a01b0316836001600160a01b0316857f2f8788117e7eff1d82e926ec794901d17c78024a50270940304540a733656f0d60405160405180910390a4600191505061095e565b600091505061095e565b61108581336127e4565b60008281527f02dd7bc7dec4dceedda775e58dd541e08a116c6c53815c0bd028192f7b626800602081815260408084206001600160a01b038616855290915282205460ff16156112b3576000848152602082815260408083206001600160a01b038716808552925280832080547fffffffffffffffffffffffffffffffffffffffffffffffffffffffffffffff0016905551339287917ff6391f5c32d9c69d2a47ea670b442974b53935d1edc7fd64eb21e047a839171b9190a4600191505061095e565b306001600160a01b037f000000000000000000000000000000000000000000000000000000000000000016148061142457507f00000000000000000000000000000000000000000000000000000000000000006001600160a01b03166114187f360894a13ba1a3210667c828492db98dca3e2076cc3735a920a3ca505d382bbc546001600160a01b031690565b6001600160a01b031614155b1561118e576040517fe07c8dba00000000000000000000000000000000000000000000000000000000815260040160405180910390fd5b6000610f0e816112bd565b816001600160a01b03166352d1902d6040518163ffffffff1660e01b8152600401602060405180830381865afa9250505080156114c0575060408051601f3d908101601f191682019092526114bd91810190614049565b60015b611506576040517f4c9c8ce30000000000000000000000000000000000000000000000000000000081526001600160a01b03831660048201526024015b60405180910390fd5b7f360894a13ba1a3210667c828492db98dca3e2076cc3735a920a3ca505d382bbc8114611562576040517faa1d49a4000000000000000000000000000000000000000000000000000000008152600481018290526024016114fd565b610eee8383612871565b306001600160a01b037f0000000000000000000000000000000000000000000000000000000000000000161461118e576040517fe07c8dba00000000000000000000000000000000000000000000000000000000815260040160405180910390fd5b7f00000000000000000000000000000000000000000000000000000000000000008711158061161d57507f00000000000000000000000000000000000000000000000000000000000000008710155b15611654576040517f445e056c00000000000000000000000000000000000000000000000000000000815260040160405180910390fd5b6002544660c01b778000000000000000000000000000000000000000000000001790611681906001614091565b0361168e574660c01b6002555b3a8610156116c8576040517f4d8e7c6200000000000000000000000000000000000000000000000000000000815260040160405180910390fd5b847f00000000000000000000000000000000000000000000000000000000000000006117147f000000000000000000000000000000000000000000000000000000000000000085614091565b61171e9190614091565b61172890886140a4565b1115611760576040517f7273245b00000000000000000000000000000000000000000000000000000000815260040160405180910390fd5b60007f00000000000000000000000000000000000000000000000000000000000000006117ad7f00000000000000000000000000000000000000000000000000000000000000008a6140a4565b6117b79190614091565b9050604051806101200160405280428152602001888152602001828152602001878152602001848152602001836001600160a01b03168152602001856001600160a01b031681526020018c81526020018b8b8080601f016020809104026020016040519081016040528093929190818152602001838380828437600092018290525093909452505060028054600193508290611852906140bb565b918290555081526020808201929092526040908101600020835181559183015160018301558201516002820155606082015160038201556080820151600482015560a08201516005820180546001600160a01b039283167fffffffffffffffffffffffff00000000000000000000000000000000000000009182161790915560c084015160068401805491909316911617905560e082015160078201556101008201516008820190611904908261413b565b5061193d9150506001600160a01b037f0000000000000000000000000000000000000000000000000000000000000000168330846128c7565b6002547f3b08b298012c416f3edcaa89a6a04489e9f3a2e2b189b7fd5f2864da3a740f9a8c8c8c8c8c878d8d8d428e6040516119839b9a99989796959493929190614262565b60405180910390a25050505050505050505050565b6119a28686611c32565b5060006119b28660000151612943565b90506119c1828487878561298c565b6001600160a01b038181166000908152602081905260409020541615611a13576040517ffd764a3900000000000000000000000000000000000000000000000000000000815260040160405180910390fd5b6001600160a01b0381811660008181526020819052604080822080547fffffffffffffffffffffffff0000000000000000000000000000000000000000169487169485179055519192917f95f86f0783d4494f76a6aeaa178c399f2c6a140aa3e88d39f056b00f460d359a9190a350505050505050565b80515160009081907fc17b4b708b6f44255c20913a9d97a05300b670342c71fe5ae5b617bd4db55000906030148015611ac857508360200151516030145b8015611ad957508360400151516030145b611b0f576040517f84c61bb600000000000000000000000000000000000000000000000000000000815260040160405180910390fd5b6000846000015185602001518660400151604051602001611b32939291906142c9565b60408051601f1981840301815291815281516020928301206000818152928590529120805491925090611b6490613fcd565b159050611b7657946000945092505050565b60408051606081018252865181526020808801518183015287830151828401526000848152908590529190912081518190611bb1908261413b565b5060208201516001820190611bc6908261413b565b5060408201516002820190611bdb908261413b565b50905050807f52b29bbdd97ab983419f50fa1590e5ab75e9942279e95e10a08607b06c23238b866000015187602001518860400151604051611c1f9392919061430c565b60405180910390a2946001945092505050565b6000807fc17b4b708b6f44255c20913a9d97a05300b670342c71fe5ae5b617bd4db5500090506000836020015184604001518560600151604051602001611c7b939291906142c9565b60408051601f1981840301815291815281516020928301206000818152928590529120805491925090611cad90613fcd565b9050600003611ce8576040517f38c4ac1600000000000000000000000000000000000000000000000000000000815260040160405180910390fd5b611d127f000000000000000000000000000000000000000000000000000000000000000042614345565b6103e88560800151611d249190614358565b11611d5b576040517f19605e0a00000000000000000000000000000000000000000000000000000000815260040160405180910390fd5b6040517feac708a30000000000000000000000000000000000000000000000000000000081526001600160a01b037f0000000000000000000000000000000000000000000000000000000000000000169063eac708a390611dc29088908890600401614393565b60006040518083038186803b158015611dda57600080fd5b505afa158015611dee573d6000803e3d6000fd5b505050506000611e018560000151612943565b6001600160a01b038116600090815260018501602052604090205490915015611e30576000935050505061095e565b6001600160a01b038116600081815260018501602052604090819020849055865190518492917fbb4d6428d53ea924d94be0488473deb5c0a70c979f8477d21911cb5bee4037fd91611e829190613f14565b60405180910390a350600195945050505050565b60008181527fc17b4b708b6f44255c20913a9d97a05300b670342c71fe5ae5b617bd4db550006020819052604082208054611ed090613fcd565b9050600003611ee25750600092915050565b600083815260208290526040812090611efb82826136fd565b611f096001830160006136fd565b611f176002830160006136fd565b505060405183907f4b71bedda4217966eac1aa49e35b1550e5ab87064ae179d1b36b393bd04eb74390600090a250600192915050565b6001600160a01b03811660009081527fc17b4b708b6f44255c20913a9d97a05300b670342c71fe5ae5b617bd4db5500160205260409020547fc17b4b708b6f44255c20913a9d97a05300b670342c71fe5ae5b617bd4db550009080611fde576040517f3dd8ca9500000000000000000000000000000000000000000000000000000000815260040160405180910390fd5b60008181526020839052604090208054611ff790613fcd565b9050600003610eee576040517f38c4ac1600000000000000000000000000000000000000000000000000000000815260040160405180910390fd5b6001600160a01b03828116600090815260208190526040902054811690821614612088576040517febabf73400000000000000000000000000000000000000000000000000000000815260040160405180910390fd5b6001600160a01b038083166000908152602081905260409020546120ac9116612bb8565b506001600160a01b03821660008181526020819052604080822080547fffffffffffffffffffffffff0000000000000000000000000000000000000000169055517f962f6082057b3b4fb251973bd737c7707bf1733cf85a0b7c86fd6c3caca260c59190a25050565b6000868152600160208181526040808420815161012081018352815481529381015492840192909252600282015490830152600381015460608301526004810154608083015260058101546001600160a01b0390811660a084015260068201541660c0830152600781015460e08301526008810180546101008401919061219b90613fcd565b80601f01602080910402602001604051908101604052809291908181526020018280546121c790613fcd565b80156122145780601f106121e957610100808354040283529160200191612214565b820191906000526020600020905b8154815290600101906020018083116121f757829003601f168201915b5050509190925250505060a08101519091506001600160a01b0316612265576040517f9da0635900000000000000000000000000000000000000000000000000000000815260040160405180910390fd5b8051612292907f000000000000000000000000000000000000000000000000000000000000000090614091565b4211156122cb576040517f159413f400000000000000000000000000000000000000000000000000000000815260040160405180910390fd5b60006122dd8a8a8a8a8a8a8a8a612c6b565b600089815260016020819052604082208281559081018290556002810182905560038101829055600481018290556005810180547fffffffffffffffffffffffff000000000000000000000000000000000000000090811690915560068201805490911690556007810182905591925061235a60088301826136fd565b5050612370818360a00151878560400151612e9a565b6000806123808a858b8b8a612f69565b909250905060003a6123b27f000000000000000000000000000000000000000000000000000000000000000084614091565b6123bc91906140a4565b6001600160a01b0380861660009081526020819052604090205460a088015160608901519394506123f3939190921691908461307d565b8a7f3bcf275077501f1077e75b4e70896bf241dc8cbeec71823201ef711cfc454ea18b8b8b8b8860405161242b959493929190614427565b60405180910390a250505050505050505050505050565b6000818152600160208181526040808420815161012081018352815481529381015492840192909252600282015490830152600381015460608301526004810154608083015260058101546001600160a01b0390811660a084015260068201541660c0830152600781015460e0830152600881018054610100840191906124c890613fcd565b80601f01602080910402602001604051908101604052809291908181526020018280546124f490613fcd565b80156125415780601f1061251657610100808354040283529160200191612541565b820191906000526020600020905b81548152906001019060200180831161252457829003601f168201915b5050509190925250505060a08101519091506001600160a01b0316612592576040517f9da0635900000000000000000000000000000000000000000000000000000000815260040160405180910390fd5b80516125bf907f000000000000000000000000000000000000000000000000000000000000000090614091565b42116125f7576040517fd856047b00000000000000000000000000000000000000000000000000000000815260040160405180910390fd5b60608101516040808301516000858152600160208190529281208181559283018190556002830181905560038301819055600483018190556005830180547fffffffffffffffffffffffff000000000000000000000000000000000000000090811690915560068401805490911690556007830181905590919061267e60088301826136fd565b505060a08301516126ba906001600160a01b037f0000000000000000000000000000000000000000000000000000000000000000169083613135565b60008360a001516001600160a01b03168360405160006040518083038185875af1925050503d806000811461270b576040519150601f19603f3d011682016040523d82523d6000602084013e612710565b606091505b505090508061274b576040517ffbe8c5be00000000000000000000000000000000000000000000000000000000815260040160405180910390fd5b60405185907f58243f872c550ad02802199ade99eb4250f6bb19e9abbf2d3de7b969c0eb5e4f90600090a25050505050565b7ff0c57e16840df040f15088dc2f81fe391c3923bec73e23a9662efc9c229c6a005468010000000000000000900460ff1661118e576040517fd7e6bcf800000000000000000000000000000000000000000000000000000000815260040160405180910390fd5b60008281527f02dd7bc7dec4dceedda775e58dd541e08a116c6c53815c0bd028192f7b626800602090815260408083206001600160a01b038516845290915290205460ff16610f0e576040517fe2517d3f0000000000000000000000000000000000000000000000000000000081526001600160a01b0382166004820152602481018390526044016114fd565b61287a82613166565b6040516001600160a01b038316907fbc7cd75a20ee27fd9adebab32041f755214dbc6bffa90cc0225b39da2e5c2d3b90600090a28051156128bf57610eee828261320e565b610f0e613284565b6040516001600160a01b038481166024830152838116604483015260648201839052610e9c9186918216906323b872dd906084015b604051602081830303815290604052915060e01b6020820180517bffffffffffffffffffffffffffffffffffffffffffffffffffffffff83818316178352505050506132bc565b60008151604014612980576040517fbd9c80c100000000000000000000000000000000000000000000000000000000815260040160405180910390fd5b50805160209091012090565b6129b67f000000000000000000000000000000000000000000000000000000000000000085614091565b4211156129ef576040517f0a151d0b00000000000000000000000000000000000000000000000000000000815260040160405180910390fd5b604080517f5f8784d207b73e6da533ec436e4e68df897ada404898707128cf43ddf65f7a186020808301919091526001600160a01b038816828401526060808301889052835180840390910181526080830184528051908201207fb03948446334eb9b2196d5eb166f69b9d49403eb4a12f36de8d3f9f3cb8e15c360a08401527fd13b7bcdea8dd87e8f9a0d206dc73d6264326a7f9f4c38119298bb466e785c5360c08401527fc89efdaa54c0f20c7adf612882df0950f5a951637e0307cdcb4c672f298b8bc660e08085019190915284518085039091018152610100840185528051908301207f1901000000000000000000000000000000000000000000000000000000000000610120850152610122840152610142808401829052845180850390910181526101628401808652815191840191909120610182601f890185900490940285018401909552868152909392600092612b6b92918991899182910183828082843760009201919091525086939250506133389050565b9050836001600160a01b0316816001600160a01b031614610f53576040517ff5b2592500000000000000000000000000000000000000000000000000000000815260040160405180910390fd5b6001600160a01b03811660009081527fc17b4b708b6f44255c20913a9d97a05300b670342c71fe5ae5b617bd4db5500160205260408120547fc17b4b708b6f44255c20913a9d97a05300b670342c71fe5ae5b617bd4db5500090612c1f5750600092915050565b6001600160a01b0383166000818152600183016020526040808220829055517f0f586d928fc7ce3b60c8a7c276a8562f9f53b126cebe71cf612948dfc52eff169190a250600192915050565b6000612c977f000000000000000000000000000000000000000000000000000000000000000083614091565b421115612cd0576040517f0a151d0b00000000000000000000000000000000000000000000000000000000815260040160405180910390fd5b60007f37096cd2491f9c5ef86ecee2c1b7a06103393df9e824c16fab6722c818bd43ef888888604051612d0492919061445d565b60408051918290038220602083019490945281019190915260608101919091526080810186905260ff851660a082015260c0810184905260e00160408051601f1981840301815282825280516020918201207fb03948446334eb9b2196d5eb166f69b9d49403eb4a12f36de8d3f9f3cb8e15c3918401919091527fd13b7bcdea8dd87e8f9a0d206dc73d6264326a7f9f4c38119298bb466e785c53918301919091527fc89efdaa54c0f20c7adf612882df0950f5a951637e0307cdcb4c672f298b8bc66060830152915060009060800160408051601f198184030181529082905280516020918201207f1901000000000000000000000000000000000000000000000000000000000000918301919091526022820152604281018390526062016040516020818303038152906040528051906020012090506000612e808c8c8080601f01602080910402602001604051908101604052809392919081815260200183838082843760009201919091525086939250506133389050565b9050612e8b81611f4d565b9b9a5050505050505050505050565b6001600160a01b038085166000908152602081905260409020547f000000000000000000000000000000000000000000000000000000000000000084027f0000000000000000000000000000000000000000000000000000000000000000019182840391612f2d917f00000000000000000000000000000000000000000000000000000000000000008116911684613135565b612f616001600160a01b037f0000000000000000000000000000000000000000000000000000000000000000168683613135565b505050505050565b60008085602001513a116130735760005a90508660c001516001600160a01b03168760800151898960a001518a60e001518b61010001518b8b8b604051602401612fb9979695949392919061446d565b60408051601f198184030181529181526020820180517bffffffffffffffffffffffffffffffffffffffffffffffffffffffff167f9e24036d000000000000000000000000000000000000000000000000000000001790525161301c91906144c6565b60006040518083038160008787f1925050503d806000811461305a576040519150601f19603f3d011682016040523d82523d6000602084013e61305f565b606091505b50909350505a61306f9082614345565b9150505b9550959350505050565b81811161308a578061308c565b815b90506000846001600160a01b03168260405160006040518083038185875af1925050503d80600081146130db576040519150601f19603f3d011682016040523d82523d6000602084013e6130e0565b606091505b50909150506001600160a01b0384166130f98385614345565b604051600081818185875af1925050503d8060008114610f53576040519150601f19603f3d011682016040523d82523d6000602084013e610f53565b6040516001600160a01b03838116602483015260448201839052610eee91859182169063a9059cbb906064016128fc565b806001600160a01b03163b6000036131b5576040517f4c9c8ce30000000000000000000000000000000000000000000000000000000081526001600160a01b03821660048201526024016114fd565b7f360894a13ba1a3210667c828492db98dca3e2076cc3735a920a3ca505d382bbc80547fffffffffffffffffffffffff0000000000000000000000000000000000000000166001600160a01b0392909216919091179055565b6060600080846001600160a01b03168460405161322b91906144c6565b600060405180830381855af49150503d8060008114613266576040519150601f19603f3d011682016040523d82523d6000602084013e61326b565b606091505b509150915061327b858383613362565b95945050505050565b341561118e576040517fb398979f00000000000000000000000000000000000000000000000000000000815260040160405180910390fd5b60006132d16001600160a01b038416836133d7565b905080516000141580156132f65750808060200190518101906132f491906144e2565b155b15610eee576040517f5274afe70000000000000000000000000000000000000000000000000000000081526001600160a01b03841660048201526024016114fd565b60008060008061334886866133e5565b9250925092506133588282613432565b5090949350505050565b6060826133775761337282613536565b611057565b815115801561338e57506001600160a01b0384163b155b156133d0576040517f9996b3150000000000000000000000000000000000000000000000000000000081526001600160a01b03851660048201526024016114fd565b5092915050565b606061105783836000613578565b6000806000835160410361341f5760208401516040850151606086015160001a6134118882858561362e565b95509550955050505061342b565b50508151600091506002905b9250925092565b600082600381111561344657613446614504565b0361344f575050565b600182600381111561346357613463614504565b0361349a576040517ff645eedf00000000000000000000000000000000000000000000000000000000815260040160405180910390fd5b60028260038111156134ae576134ae614504565b036134e8576040517ffce698f7000000000000000000000000000000000000000000000000000000008152600481018290526024016114fd565b60038260038111156134fc576134fc614504565b03610f0e576040517fd78bce0c000000000000000000000000000000000000000000000000000000008152600481018290526024016114fd565b8051156135465780518082602001fd5b6040517f1425ea4200000000000000000000000000000000000000000000000000000000815260040160405180910390fd5b6060814710156135b6576040517fcd7860590000000000000000000000000000000000000000000000000000000081523060048201526024016114fd565b600080856001600160a01b031684866040516135d291906144c6565b60006040518083038185875af1925050503d806000811461360f576040519150601f19603f3d011682016040523d82523d6000602084013e613614565b606091505b5091509150613624868383613362565b9695505050505050565b600080807f7fffffffffffffffffffffffffffffff5d576e7357a4501ddfe92f46681b20a084111561366957506000915060039050826136f3565b604080516000808252602082018084528a905260ff891692820192909252606081018790526080810186905260019060a0016020604051602081039080840390855afa1580156136bd573d6000803e3d6000fd5b5050604051601f1901519150506001600160a01b0381166136e9575060009250600191508290506136f3565b9250600091508190505b9450945094915050565b50805461370990613fcd565b6000825580601f10613719575050565b601f01602090049060005260206000209081019061108591905b808211156137475760008155600101613733565b5090565b80356001600160a01b038116811461376257600080fd5b919050565b60006020828403121561377957600080fd5b6110578261374b565b60006020828403121561379457600080fd5b81357fffffffff000000000000000000000000000000000000000000000000000000008116811461105757600080fd5b6000602082840312156137d657600080fd5b5035919050565b60005b838110156137f85781810151838201526020016137e0565b50506000910152565b600081518084526138198160208601602086016137dd565b601f01601f19169290920160200192915050565b60006101208b83528a60208401528960408401528860608401528760808401526001600160a01b0380881660a085015280871660c0850152508460e08401528061010084015261387f81840185613801565b9c9b505050505050505050505050565b6020815260008251606060208401526138ab6080840182613801565b90506020840151601f19808584030160408601526138c98383613801565b925060408601519150808584030160608601525061327b8282613801565b7f4e487b7100000000000000000000000000000000000000000000000000000000600052604160045260246000fd5b6040516060810167ffffffffffffffff81118282101715613939576139396138e7565b60405290565b60405160a0810167ffffffffffffffff81118282101715613939576139396138e7565b604051601f8201601f1916810167ffffffffffffffff8111828210171561398b5761398b6138e7565b604052919050565b600082601f8301126139a457600080fd5b813567ffffffffffffffff8111156139be576139be6138e7565b6139d16020601f19601f84011601613962565b8181528460208386010111156139e657600080fd5b816020850160208301376000918101602001919091529392505050565b60008060408385031215613a1657600080fd5b613a1f8361374b565b915060208084013567ffffffffffffffff80821115613a3d57600080fd5b818601915086601f830112613a5157600080fd5b813581811115613a6357613a636138e7565b8060051b613a72858201613962565b918252838101850191858101908a841115613a8c57600080fd5b86860192505b83831015613b4a57823585811115613aaa5760008081fd5b86016060818d03601f1901811315613ac25760008081fd5b613aca613916565b8983013588811115613adc5760008081fd5b613aea8f8c83870101613993565b825250604083013588811115613b005760008081fd5b613b0e8f8c83870101613993565b828c015250908201359087821115613b265760008081fd5b613b348e8b84860101613993565b6040820152845250509186019190860190613a92565b809750505050505050509250929050565b60008060408385031215613b6e57600080fd5b82359150613b7e6020840161374b565b90509250929050565b60008060408385031215613b9a57600080fd5b613ba38361374b565b9150602083013567ffffffffffffffff811115613bbf57600080fd5b613bcb85828601613993565b9150509250929050565b60008083601f840112613be757600080fd5b50813567ffffffffffffffff811115613bff57600080fd5b602083019150836020828501011115613c1757600080fd5b9250929050565b60008060008060008060008060e0898b031215613c3a57600080fd5b88359750602089013567ffffffffffffffff811115613c5857600080fd5b613c648b828c01613bd5565b9098509650506040890135945060608901359350613c8460808a0161374b565b9250613c9260a08a0161374b565b915060c089013590509295985092959890939650565b600060a08284031215613cba57600080fd5b613cc261393f565b9050813567ffffffffffffffff80821115613cdc57600080fd5b613ce885838601613993565b83526020840135915080821115613cfe57600080fd5b613d0a85838601613993565b60208401526040840135915080821115613d2357600080fd5b613d2f85838601613993565b60408401526060840135915080821115613d4857600080fd5b50613d5584828501613993565b6060830152506080820135608082015292915050565b600080600080600060808688031215613d8357600080fd5b853567ffffffffffffffff80821115613d9b57600080fd5b613da789838a01613993565b96506020880135915080821115613dbd57600080fd5b613dc989838a01613ca8565b95506040880135915080821115613ddf57600080fd5b50613dec88828901613bd5565b96999598509660600135949350505050565b60008060008060008060608789031215613e1757600080fd5b863567ffffffffffffffff80821115613e2f57600080fd5b613e3b8a838b01613bd5565b90985096506020890135915080821115613e5457600080fd5b613e608a838b01613bd5565b90965094506040890135915080821115613e7957600080fd5b50613e8689828a01613bd5565b979a9699509497509295939492505050565b60008060408385031215613eab57600080fd5b50508035926020909101359150565b60008060408385031215613ecd57600080fd5b823567ffffffffffffffff80821115613ee557600080fd5b613ef186838701613993565b93506020850135915080821115613f0757600080fd5b50613bcb85828601613ca8565b6020815260006110576020830184613801565b60008060008060008060008060c0898b031215613f4357600080fd5b883567ffffffffffffffff80821115613f5b57600080fd5b613f678c838d01613bd5565b909a50985060208b0135975060408b0135915080821115613f8757600080fd5b50613f948b828c01613bd5565b90965094505060608901359250608089013560ff81168114613fb557600080fd5b8092505060a089013590509295985092959890939650565b600181811c90821680613fe157607f821691505b602082108103611076577f4e487b7100000000000000000000000000000000000000000000000000000000600052602260045260246000fd5b7f4e487b7100000000000000000000000000000000000000000000000000000000600052603260045260246000fd5b60006020828403121561405b57600080fd5b5051919050565b7f4e487b7100000000000000000000000000000000000000000000000000000000600052601160045260246000fd5b8082018082111561095e5761095e614062565b808202811582820484141761095e5761095e614062565b60007fffffffffffffffffffffffffffffffffffffffffffffffffffffffffffffffff82036140ec576140ec614062565b5060010190565b601f821115610eee576000816000526020600020601f850160051c8101602086101561411c5750805b601f850160051c820191505b81811015612f6157828155600101614128565b815167ffffffffffffffff811115614155576141556138e7565b614169816141638454613fcd565b846140f3565b602080601f8311600181146141bc57600084156141865750858301515b7fffffffffffffffffffffffffffffffffffffffffffffffffffffffffffffffff600386901b1c1916600185901b178555612f61565b600085815260208120601f198616915b828110156141eb578886015182559484019460019091019084016141cc565b508582101561422757878501517fffffffffffffffffffffffffffffffffffffffffffffffffffffffffffffffff600388901b60f8161c191681555b5050505050600190811b01905550565b818352818160208501375060006020828401015260006020601f19601f840116840101905092915050565b60006101408d835280602084015261427d8184018d8f614237565b604084019b909b5250506060810197909752608087019590955260a08601939093526001600160a01b0391821660c08601521660e0840152610100830152610120909101529392505050565b600084516142db8184602089016137dd565b8451908301906142ef8183602089016137dd565b84519101906143028183602088016137dd565b0195945050505050565b60608152600061431f6060830186613801565b82810360208401526143318186613801565b905082810360408401526136248185613801565b8181038181111561095e5761095e614062565b60008261438e577f4e487b7100000000000000000000000000000000000000000000000000000000600052601260045260246000fd5b500490565b6040815260006143a66040830185613801565b8281036020840152835160a082526143c160a0830182613801565b9050602085015182820360208401526143da8282613801565b915050604085015182820360408401526143f48282613801565b9150506060850151828203606084015261440e8282613801565b9150506080850151608083015280925050509392505050565b60808152600061443b608083018789614237565b60208301959095525060ff929092166040830152151560609091015292915050565b8183823760009101908152919050565b8781526001600160a01b038716602082015285604082015260c06060820152600061449b60c0830187613801565b82810360808401526144ae818688614237565b91505060ff831660a083015298975050505050505050565b600082516144d88184602087016137dd565b9190910192915050565b6000602082840312156144f457600080fd5b8151801515811461105757600080fd5b7f4e487b7100000000000000000000000000000000000000000000000000000000600052602160045260246000fdfea26469706673582212202207a2fce0b9563a5080296abf9d61c4de77251d2fb6632fd705cc6dfa444b7164736f6c63430008190033",
  "linkReferences": {},
  "deployedLinkReferences": {}
}