{
  "_format": "hh-sol-artifact-1",
  "contractName": "Relay",
  "sourceName": "contracts/serverless-v2/Relay.sol",
  "abi": [
    {
      "inputs": [
        {
          "internalType": "contract IAttestationVerifier",
          "name": "attestationVerifier",
          "type": "address"
        },
        {
          "internalType": "uint256",
          "name": "maxAge",
          "type": "uint256"
        },
        {
          "internalType": "contract IERC20",
          "name": "_token",
          "type": "address"
        },
        {
          "internalType": "uint256",
          "name": "_globalMinTimeout",
          "type": "uint256"
        },
        {
          "internalType": "uint256",
          "name": "_globalMaxTimeout",
          "type": "uint256"
        },
        {
          "internalType": "uint256",
          "name": "_overallTimeout",
          "type": "uint256"
        },
        {
          "internalType": "uint256",
          "name": "_executionFeePerMs",
          "type": "uint256"
        },
        {
          "internalType": "uint256",
          "name": "_gatewayFeePerJob",
          "type": "uint256"
        }
      ],
      "stateMutability": "nonpayable",
      "type": "constructor"
    },
    {
      "inputs": [],
      "name": "AccessControlBadConfirmation",
      "type": "error"
    },
    {
      "inputs": [
        {
          "internalType": "address",
          "name": "account",
          "type": "address"
        },
        {
          "internalType": "bytes32",
          "name": "neededRole",
          "type": "bytes32"
        }
      ],
      "name": "AccessControlUnauthorizedAccount",
      "type": "error"
    },
    {
      "inputs": [
        {
          "internalType": "address",
          "name": "target",
          "type": "address"
        }
      ],
      "name": "AddressEmptyCode",
      "type": "error"
    },
    {
      "inputs": [
        {
          "internalType": "address",
          "name": "account",
          "type": "address"
        }
      ],
      "name": "AddressInsufficientBalance",
      "type": "error"
    },
    {
      "inputs": [],
      "name": "AttestationAutherAttestationTooOld",
      "type": "error"
    },
    {
      "inputs": [],
      "name": "AttestationAutherImageNotInFamily",
      "type": "error"
    },
    {
      "inputs": [],
      "name": "AttestationAutherImageNotWhitelisted",
      "type": "error"
    },
    {
      "inputs": [],
      "name": "AttestationAutherKeyNotVerified",
      "type": "error"
    },
    {
      "inputs": [],
      "name": "AttestationAutherMismatchedLengths",
      "type": "error"
    },
    {
      "inputs": [],
      "name": "AttestationAutherPCRsInvalid",
      "type": "error"
    },
    {
      "inputs": [],
      "name": "AttestationAutherPubkeyLengthInvalid",
      "type": "error"
    },
    {
      "inputs": [],
      "name": "ECDSAInvalidSignature",
      "type": "error"
    },
    {
      "inputs": [
        {
          "internalType": "uint256",
          "name": "length",
          "type": "uint256"
        }
      ],
      "name": "ECDSAInvalidSignatureLength",
      "type": "error"
    },
    {
      "inputs": [
        {
          "internalType": "bytes32",
          "name": "s",
          "type": "bytes32"
        }
      ],
      "name": "ECDSAInvalidSignatureS",
      "type": "error"
    },
    {
      "inputs": [
        {
          "internalType": "address",
          "name": "implementation",
          "type": "address"
        }
      ],
      "name": "ERC1967InvalidImplementation",
      "type": "error"
    },
    {
      "inputs": [],
      "name": "ERC1967NonPayable",
      "type": "error"
    },
    {
      "inputs": [],
      "name": "FailedInnerCall",
      "type": "error"
    },
    {
      "inputs": [],
      "name": "InvalidInitialization",
      "type": "error"
    },
    {
      "inputs": [],
      "name": "NotInitializing",
      "type": "error"
    },
    {
      "inputs": [],
      "name": "RelayCallbackDepositTransferFailed",
      "type": "error"
    },
    {
      "inputs": [],
      "name": "RelayGatewayAlreadyExists",
      "type": "error"
    },
    {
      "inputs": [],
      "name": "RelayInvalidGateway",
      "type": "error"
    },
    {
      "inputs": [],
      "name": "RelayInvalidGlobalTimeouts",
      "type": "error"
    },
    {
      "inputs": [],
      "name": "RelayInvalidJobOwner",
      "type": "error"
    },
    {
      "inputs": [],
      "name": "RelayInvalidSigner",
      "type": "error"
    },
    {
      "inputs": [],
      "name": "RelayInvalidToken",
      "type": "error"
    },
    {
      "inputs": [],
      "name": "RelayInvalidUserTimeout",
      "type": "error"
    },
    {
      "inputs": [],
      "name": "RelayJobNotExists",
      "type": "error"
    },
    {
      "inputs": [],
      "name": "RelayOverallTimeoutNotOver",
      "type": "error"
    },
    {
      "inputs": [],
      "name": "RelayOverallTimeoutOver",
      "type": "error"
    },
    {
      "inputs": [],
      "name": "RelaySignatureTooOld",
      "type": "error"
    },
    {
      "inputs": [],
      "name": "RelayZeroAddressAdmin",
      "type": "error"
    },
    {
      "inputs": [
        {
          "internalType": "address",
          "name": "token",
          "type": "address"
        }
      ],
      "name": "SafeERC20FailedOperation",
      "type": "error"
    },
    {
      "inputs": [],
      "name": "UUPSUnauthorizedCallContext",
      "type": "error"
    },
    {
      "inputs": [
        {
          "internalType": "bytes32",
          "name": "slot",
          "type": "bytes32"
        }
      ],
      "name": "UUPSUnsupportedProxiableUUID",
      "type": "error"
    },
    {
      "anonymous": false,
      "inputs": [
        {
          "indexed": true,
          "internalType": "bytes32",
          "name": "imageId",
          "type": "bytes32"
        },
        {
          "indexed": false,
          "internalType": "bytes32",
          "name": "family",
          "type": "bytes32"
        }
      ],
      "name": "EnclaveImageAddedToFamily",
      "type": "event"
    },
    {
      "anonymous": false,
      "inputs": [
        {
          "indexed": true,
          "internalType": "bytes32",
          "name": "imageId",
          "type": "bytes32"
        },
        {
          "indexed": false,
          "internalType": "bytes32",
          "name": "family",
          "type": "bytes32"
        }
      ],
      "name": "EnclaveImageRemovedFromFamily",
      "type": "event"
    },
    {
      "anonymous": false,
      "inputs": [
        {
          "indexed": true,
          "internalType": "bytes32",
          "name": "imageId",
          "type": "bytes32"
        }
      ],
      "name": "EnclaveImageRevoked",
      "type": "event"
    },
    {
      "anonymous": false,
      "inputs": [
        {
          "indexed": true,
          "internalType": "bytes32",
          "name": "imageId",
          "type": "bytes32"
        },
        {
          "indexed": false,
          "internalType": "bytes",
          "name": "PCR0",
          "type": "bytes"
        },
        {
          "indexed": false,
          "internalType": "bytes",
          "name": "PCR1",
          "type": "bytes"
        },
        {
          "indexed": false,
          "internalType": "bytes",
          "name": "PCR2",
          "type": "bytes"
        }
      ],
      "name": "EnclaveImageWhitelisted",
      "type": "event"
    },
    {
      "anonymous": false,
      "inputs": [
        {
          "indexed": true,
          "internalType": "address",
          "name": "enclaveAddress",
          "type": "address"
        }
      ],
      "name": "EnclaveKeyRevoked",
      "type": "event"
    },
    {
      "anonymous": false,
      "inputs": [
        {
          "indexed": true,
          "internalType": "address",
          "name": "enclaveAddress",
          "type": "address"
        },
        {
          "indexed": true,
          "internalType": "bytes32",
          "name": "imageId",
          "type": "bytes32"
        },
        {
          "indexed": false,
          "internalType": "bytes",
          "name": "enclavePubKey",
          "type": "bytes"
        }
      ],
      "name": "EnclaveKeyVerified",
      "type": "event"
    },
    {
      "anonymous": false,
      "inputs": [
        {
          "indexed": true,
          "internalType": "address",
          "name": "enclaveAddress",
          "type": "address"
        },
        {
          "indexed": true,
          "internalType": "bytes32",
          "name": "imageId",
          "type": "bytes32"
        },
        {
          "indexed": false,
          "internalType": "bytes",
          "name": "enclavePubKey",
          "type": "bytes"
        }
      ],
      "name": "EnclaveKeyWhitelisted",
      "type": "event"
    },
    {
      "anonymous": false,
      "inputs": [
        {
          "indexed": true,
          "internalType": "address",
          "name": "enclaveAddress",
          "type": "address"
        }
      ],
      "name": "GatewayDeregistered",
      "type": "event"
    },
    {
      "anonymous": false,
      "inputs": [
        {
          "indexed": true,
          "internalType": "address",
          "name": "owner",
          "type": "address"
        },
        {
          "indexed": true,
          "internalType": "address",
          "name": "enclaveAddress",
          "type": "address"
        }
      ],
      "name": "GatewayRegistered",
      "type": "event"
    },
    {
      "anonymous": false,
      "inputs": [
        {
          "indexed": false,
          "internalType": "uint64",
          "name": "version",
          "type": "uint64"
        }
      ],
      "name": "Initialized",
      "type": "event"
    },
    {
      "anonymous": false,
      "inputs": [
        {
          "indexed": true,
          "internalType": "uint256",
          "name": "jobId",
          "type": "uint256"
        }
      ],
      "name": "JobCancelled",
      "type": "event"
    },
    {
      "anonymous": false,
      "inputs": [
        {
          "indexed": true,
          "internalType": "uint256",
          "name": "jobId",
          "type": "uint256"
        },
        {
          "indexed": false,
          "internalType": "bytes32",
          "name": "codehash",
          "type": "bytes32"
        },
        {
          "indexed": false,
          "internalType": "bytes",
          "name": "codeInputs",
          "type": "bytes"
        },
        {
          "indexed": false,
          "internalType": "uint256",
          "name": "userTimeout",
          "type": "uint256"
        },
        {
          "indexed": false,
          "internalType": "uint256",
          "name": "maxGasPrice",
          "type": "uint256"
        },
        {
          "indexed": false,
          "internalType": "uint256",
          "name": "usdcDeposit",
          "type": "uint256"
        },
        {
          "indexed": false,
          "internalType": "uint256",
          "name": "callbackDeposit",
          "type": "uint256"
        },
        {
          "indexed": false,
          "internalType": "address",
          "name": "refundAccount",
          "type": "address"
        },
        {
          "indexed": false,
          "internalType": "address",
          "name": "callbackContract",
          "type": "address"
        },
        {
          "indexed": false,
          "internalType": "uint256",
          "name": "startTime",
          "type": "uint256"
        }
      ],
      "name": "JobRelayed",
      "type": "event"
    },
    {
      "anonymous": false,
      "inputs": [
        {
          "indexed": true,
          "internalType": "uint256",
          "name": "jobId",
          "type": "uint256"
        },
        {
          "indexed": false,
          "internalType": "bytes",
          "name": "output",
          "type": "bytes"
        },
        {
          "indexed": false,
          "internalType": "uint256",
          "name": "totalTime",
          "type": "uint256"
        },
        {
          "indexed": false,
          "internalType": "uint256",
          "name": "errorCode",
          "type": "uint256"
        },
        {
          "indexed": false,
          "internalType": "bool",
          "name": "success",
          "type": "bool"
        }
      ],
      "name": "JobResponded",
      "type": "event"
    },
    {
      "anonymous": false,
      "inputs": [
        {
          "indexed": true,
          "internalType": "bytes32",
          "name": "role",
          "type": "bytes32"
        },
        {
          "indexed": true,
          "internalType": "bytes32",
          "name": "previousAdminRole",
          "type": "bytes32"
        },
        {
          "indexed": true,
          "internalType": "bytes32",
          "name": "newAdminRole",
          "type": "bytes32"
        }
      ],
      "name": "RoleAdminChanged",
      "type": "event"
    },
    {
      "anonymous": false,
      "inputs": [
        {
          "indexed": true,
          "internalType": "bytes32",
          "name": "role",
          "type": "bytes32"
        },
        {
          "indexed": true,
          "internalType": "address",
          "name": "account",
          "type": "address"
        },
        {
          "indexed": true,
          "internalType": "address",
          "name": "sender",
          "type": "address"
        }
      ],
      "name": "RoleGranted",
      "type": "event"
    },
    {
      "anonymous": false,
      "inputs": [
        {
          "indexed": true,
          "internalType": "bytes32",
          "name": "role",
          "type": "bytes32"
        },
        {
          "indexed": true,
          "internalType": "address",
          "name": "account",
          "type": "address"
        },
        {
          "indexed": true,
          "internalType": "address",
          "name": "sender",
          "type": "address"
        }
      ],
      "name": "RoleRevoked",
      "type": "event"
    },
    {
      "anonymous": false,
      "inputs": [
        {
          "indexed": true,
          "internalType": "address",
          "name": "implementation",
          "type": "address"
        }
      ],
      "name": "Upgraded",
      "type": "event"
    },
    {
      "inputs": [],
      "name": "ATTESTATION_MAX_AGE",
      "outputs": [
        {
          "internalType": "uint256",
          "name": "",
          "type": "uint256"
        }
      ],
      "stateMutability": "view",
      "type": "function"
    },
    {
      "inputs": [],
      "name": "ATTESTATION_VERIFIER",
      "outputs": [
        {
          "internalType": "contract IAttestationVerifier",
          "name": "",
          "type": "address"
        }
      ],
      "stateMutability": "view",
      "type": "function"
    },
    {
      "inputs": [],
      "name": "DEFAULT_ADMIN_ROLE",
      "outputs": [
        {
          "internalType": "bytes32",
          "name": "",
          "type": "bytes32"
        }
      ],
      "stateMutability": "view",
      "type": "function"
    },
    {
      "inputs": [],
      "name": "EXECUTION_FEE_PER_MS",
      "outputs": [
        {
          "internalType": "uint256",
          "name": "",
          "type": "uint256"
        }
      ],
      "stateMutability": "view",
      "type": "function"
    },
    {
      "inputs": [],
      "name": "GATEWAY_FEE_PER_JOB",
      "outputs": [
        {
          "internalType": "uint256",
          "name": "",
          "type": "uint256"
        }
      ],
      "stateMutability": "view",
      "type": "function"
    },
    {
      "inputs": [],
      "name": "GLOBAL_MAX_TIMEOUT",
      "outputs": [
        {
          "internalType": "uint256",
          "name": "",
          "type": "uint256"
        }
      ],
      "stateMutability": "view",
      "type": "function"
    },
    {
      "inputs": [],
      "name": "GLOBAL_MIN_TIMEOUT",
      "outputs": [
        {
          "internalType": "uint256",
          "name": "",
          "type": "uint256"
        }
      ],
      "stateMutability": "view",
      "type": "function"
    },
    {
      "inputs": [],
      "name": "OVERALL_TIMEOUT",
      "outputs": [
        {
          "internalType": "uint256",
          "name": "",
          "type": "uint256"
        }
      ],
      "stateMutability": "view",
      "type": "function"
    },
    {
      "inputs": [],
      "name": "TOKEN",
      "outputs": [
        {
          "internalType": "contract IERC20",
          "name": "",
          "type": "address"
        }
      ],
      "stateMutability": "view",
      "type": "function"
    },
    {
      "inputs": [],
      "name": "UPGRADE_INTERFACE_VERSION",
      "outputs": [
        {
          "internalType": "string",
          "name": "",
          "type": "string"
        }
      ],
      "stateMutability": "view",
      "type": "function"
    },
    {
      "inputs": [
        {
          "internalType": "address",
          "name": "_enclaveAddress",
          "type": "address"
        }
      ],
      "name": "deregisterGateway",
      "outputs": [],
      "stateMutability": "nonpayable",
      "type": "function"
    },
    {
      "inputs": [
        {
          "internalType": "address",
          "name": "",
          "type": "address"
        }
      ],
      "name": "gatewayOwners",
      "outputs": [
        {
          "internalType": "address",
          "name": "",
          "type": "address"
        }
      ],
      "stateMutability": "view",
      "type": "function"
    },
    {
      "inputs": [
        {
          "internalType": "bytes32",
          "name": "role",
          "type": "bytes32"
        }
      ],
      "name": "getRoleAdmin",
      "outputs": [
        {
          "internalType": "bytes32",
          "name": "",
          "type": "bytes32"
        }
      ],
      "stateMutability": "view",
      "type": "function"
    },
    {
      "inputs": [
        {
          "internalType": "address",
          "name": "_key",
          "type": "address"
        }
      ],
      "name": "getVerifiedKey",
      "outputs": [
        {
          "internalType": "bytes32",
          "name": "",
          "type": "bytes32"
        }
      ],
      "stateMutability": "view",
      "type": "function"
    },
    {
      "inputs": [
        {
          "internalType": "bytes32",
          "name": "_imageId",
          "type": "bytes32"
        }
      ],
      "name": "getWhitelistedImage",
      "outputs": [
        {
          "components": [
            {
              "internalType": "bytes",
              "name": "PCR0",
              "type": "bytes"
            },
            {
              "internalType": "bytes",
              "name": "PCR1",
              "type": "bytes"
            },
            {
              "internalType": "bytes",
              "name": "PCR2",
              "type": "bytes"
            }
          ],
          "internalType": "struct AttestationAutherUpgradeable.EnclaveImage",
          "name": "",
          "type": "tuple"
        }
      ],
      "stateMutability": "view",
      "type": "function"
    },
    {
      "inputs": [
        {
          "internalType": "bytes32",
          "name": "role",
          "type": "bytes32"
        },
        {
          "internalType": "address",
          "name": "account",
          "type": "address"
        }
      ],
      "name": "grantRole",
      "outputs": [],
      "stateMutability": "nonpayable",
      "type": "function"
    },
    {
      "inputs": [
        {
          "internalType": "bytes32",
          "name": "role",
          "type": "bytes32"
        },
        {
          "internalType": "address",
          "name": "account",
          "type": "address"
        }
      ],
      "name": "hasRole",
      "outputs": [
        {
          "internalType": "bool",
          "name": "",
          "type": "bool"
        }
      ],
      "stateMutability": "view",
      "type": "function"
    },
    {
      "inputs": [
        {
          "internalType": "address",
          "name": "_admin",
          "type": "address"
        },
        {
          "components": [
            {
              "internalType": "bytes",
              "name": "PCR0",
              "type": "bytes"
            },
            {
              "internalType": "bytes",
              "name": "PCR1",
              "type": "bytes"
            },
            {
              "internalType": "bytes",
              "name": "PCR2",
              "type": "bytes"
            }
          ],
          "internalType": "struct AttestationAutherUpgradeable.EnclaveImage[]",
          "name": "_images",
          "type": "tuple[]"
        }
      ],
      "name": "initialize",
      "outputs": [],
      "stateMutability": "nonpayable",
      "type": "function"
    },
    {
      "inputs": [
        {
          "internalType": "bytes32",
          "name": "imageId",
          "type": "bytes32"
        },
        {
          "internalType": "bytes32",
          "name": "family",
          "type": "bytes32"
        }
      ],
      "name": "isImageInFamily",
      "outputs": [
        {
          "internalType": "bool",
          "name": "",
          "type": "bool"
        }
      ],
      "stateMutability": "view",
      "type": "function"
    },
    {
      "inputs": [
        {
          "internalType": "uint256",
          "name": "_jobId",
          "type": "uint256"
        }
      ],
      "name": "jobCancel",
      "outputs": [],
      "stateMutability": "nonpayable",
      "type": "function"
    },
    {
      "inputs": [],
      "name": "jobCount",
      "outputs": [
        {
          "internalType": "uint256",
          "name": "",
          "type": "uint256"
        }
      ],
      "stateMutability": "view",
      "type": "function"
    },
    {
      "inputs": [
        {
          "internalType": "bytes",
          "name": "_signature",
          "type": "bytes"
        },
        {
          "internalType": "uint256",
          "name": "_jobId",
          "type": "uint256"
        },
        {
          "internalType": "bytes",
          "name": "_output",
          "type": "bytes"
        },
        {
          "internalType": "uint256",
          "name": "_totalTime",
          "type": "uint256"
        },
        {
          "internalType": "uint8",
          "name": "_errorCode",
          "type": "uint8"
        },
        {
          "internalType": "uint256",
          "name": "_signTimestamp",
          "type": "uint256"
        }
      ],
      "name": "jobResponse",
      "outputs": [],
      "stateMutability": "nonpayable",
      "type": "function"
    },
    {
      "inputs": [
        {
          "internalType": "uint256",
          "name": "",
          "type": "uint256"
        }
      ],
      "name": "jobs",
      "outputs": [
        {
          "internalType": "uint256",
          "name": "startTime",
          "type": "uint256"
        },
        {
          "internalType": "uint256",
          "name": "maxGasPrice",
          "type": "uint256"
        },
        {
          "internalType": "uint256",
          "name": "usdcDeposit",
          "type": "uint256"
        },
        {
          "internalType": "uint256",
          "name": "callbackDeposit",
          "type": "uint256"
        },
        {
          "internalType": "address",
          "name": "jobOwner",
          "type": "address"
        },
        {
          "internalType": "bytes32",
          "name": "codehash",
          "type": "bytes32"
        },
        {
          "internalType": "bytes",
          "name": "codeInputs",
          "type": "bytes"
        },
        {
          "internalType": "address",
          "name": "callbackContract",
          "type": "address"
        }
      ],
      "stateMutability": "view",
      "type": "function"
    },
    {
      "inputs": [],
      "name": "proxiableUUID",
      "outputs": [
        {
          "internalType": "bytes32",
          "name": "",
          "type": "bytes32"
        }
      ],
      "stateMutability": "view",
      "type": "function"
    },
    {
      "inputs": [
        {
          "internalType": "bytes",
          "name": "_attestationSignature",
          "type": "bytes"
        },
        {
          "components": [
            {
              "internalType": "bytes",
              "name": "enclavePubKey",
              "type": "bytes"
            },
            {
              "internalType": "bytes",
              "name": "PCR0",
              "type": "bytes"
            },
            {
              "internalType": "bytes",
              "name": "PCR1",
              "type": "bytes"
            },
            {
              "internalType": "bytes",
              "name": "PCR2",
              "type": "bytes"
            },
            {
              "internalType": "uint256",
              "name": "timestampInMilliseconds",
              "type": "uint256"
            }
          ],
          "internalType": "struct IAttestationVerifier.Attestation",
          "name": "_attestation",
          "type": "tuple"
        },
        {
          "internalType": "bytes",
          "name": "_signature",
          "type": "bytes"
        },
        {
          "internalType": "uint256",
          "name": "_signTimestamp",
          "type": "uint256"
        }
      ],
      "name": "registerGateway",
      "outputs": [],
      "stateMutability": "nonpayable",
      "type": "function"
    },
    {
      "inputs": [
        {
          "internalType": "bytes32",
          "name": "_codehash",
          "type": "bytes32"
        },
        {
          "internalType": "bytes",
          "name": "_codeInputs",
          "type": "bytes"
        },
        {
          "internalType": "uint256",
          "name": "_userTimeout",
          "type": "uint256"
        },
        {
          "internalType": "uint256",
          "name": "_maxGasPrice",
          "type": "uint256"
        },
        {
          "internalType": "address",
          "name": "_refundAccount",
          "type": "address"
        },
        {
          "internalType": "address",
          "name": "_callbackContract",
          "type": "address"
        }
      ],
      "name": "relayJob",
      "outputs": [],
      "stateMutability": "payable",
      "type": "function"
    },
    {
      "inputs": [
        {
          "internalType": "bytes32",
          "name": "role",
          "type": "bytes32"
        },
        {
          "internalType": "address",
          "name": "callerConfirmation",
          "type": "address"
        }
      ],
      "name": "renounceRole",
      "outputs": [],
      "stateMutability": "nonpayable",
      "type": "function"
    },
    {
      "inputs": [
        {
          "internalType": "bytes32",
          "name": "imageId",
          "type": "bytes32"
        }
      ],
      "name": "revokeEnclaveImage",
      "outputs": [
        {
          "internalType": "bool",
          "name": "",
          "type": "bool"
        }
      ],
      "stateMutability": "nonpayable",
      "type": "function"
    },
    {
      "inputs": [
        {
          "internalType": "bytes32",
          "name": "role",
          "type": "bytes32"
        },
        {
          "internalType": "address",
          "name": "account",
          "type": "address"
        }
      ],
      "name": "revokeRole",
      "outputs": [],
      "stateMutability": "nonpayable",
      "type": "function"
    },
    {
      "inputs": [
        {
          "internalType": "bytes4",
          "name": "interfaceId",
          "type": "bytes4"
        }
      ],
      "name": "supportsInterface",
      "outputs": [
        {
          "internalType": "bool",
          "name": "",
          "type": "bool"
        }
      ],
      "stateMutability": "view",
      "type": "function"
    },
    {
      "inputs": [
        {
          "internalType": "address",
          "name": "newImplementation",
          "type": "address"
        },
        {
          "internalType": "bytes",
          "name": "data",
          "type": "bytes"
        }
      ],
      "name": "upgradeToAndCall",
      "outputs": [],
      "stateMutability": "payable",
      "type": "function"
    },
    {
      "inputs": [
        {
          "internalType": "bytes",
          "name": "signature",
          "type": "bytes"
        },
        {
          "components": [
            {
              "internalType": "bytes",
              "name": "enclavePubKey",
              "type": "bytes"
            },
            {
              "internalType": "bytes",
              "name": "PCR0",
              "type": "bytes"
            },
            {
              "internalType": "bytes",
              "name": "PCR1",
              "type": "bytes"
            },
            {
              "internalType": "bytes",
              "name": "PCR2",
              "type": "bytes"
            },
            {
              "internalType": "uint256",
              "name": "timestampInMilliseconds",
              "type": "uint256"
            }
          ],
          "internalType": "struct IAttestationVerifier.Attestation",
          "name": "attestation",
          "type": "tuple"
        }
      ],
      "name": "verifyEnclaveKey",
      "outputs": [
        {
          "internalType": "bool",
          "name": "",
          "type": "bool"
        }
      ],
      "stateMutability": "nonpayable",
      "type": "function"
    },
    {
      "inputs": [
        {
          "internalType": "bytes",
          "name": "PCR0",
          "type": "bytes"
        },
        {
          "internalType": "bytes",
          "name": "PCR1",
          "type": "bytes"
        },
        {
          "internalType": "bytes",
          "name": "PCR2",
          "type": "bytes"
        }
      ],
      "name": "whitelistEnclaveImage",
      "outputs": [
        {
          "internalType": "bytes32",
          "name": "",
          "type": "bytes32"
        },
        {
          "internalType": "bool",
          "name": "",
          "type": "bool"
        }
      ],
      "stateMutability": "nonpayable",
      "type": "function"
    }
  ],
  "bytecode": "0x6101a06040523060805234801561001557600080fd5b5060405161431a38038061431a8339810160408190526100349161018b565b6001600160a01b03881660a05260c087905261004e6100c4565b6001600160a01b0386166100755760405163c844103f60e01b815260040160405180910390fd5b6001600160a01b03861660e0528385106100a15760405162fe194b60e31b815260040160405180910390fd5b6101009490945261012092909252610140526101605261018052506101fe915050565b7ff0c57e16840df040f15088dc2f81fe391c3923bec73e23a9662efc9c229c6a00805468010000000000000000900460ff16156101145760405163f92ee8a960e01b815260040160405180910390fd5b80546001600160401b03908116146101735780546001600160401b0319166001600160401b0390811782556040519081527fc7f505b2f371ae2175ee4913f4499e1f2633a7b5936321eed1cdaeb6115181d29060200160405180910390a15b50565b6001600160a01b038116811461017357600080fd5b600080600080600080600080610100898b0312156101a857600080fd5b88516101b381610176565b60208a015160408b015191995097506101cb81610176565b60608a015160808b015160a08c015160c08d015160e0909d01519b9e9a9d50929b919a9099929850909650945092505050565b60805160a05160c05160e051610100516101205161014051610160516101805161402e6102ec6000396000818161064b0152818161105f015261293701526000818161077e01528181611083015261295b01526000818161044401528181611e9701526120c20152600081816107b20152610fd60152600081816102e10152610fac015260008181610546015281816111eb015281816121b9015281816129bb01526129f101526000818161061701528181611a03015281816124bb015261276101526000818161070a0152611aa1015260008181611478015281816114a10152611659015261402e6000f3fe6080604052600436106101fe5760003560e01c80636b5b21a61161011d578063ad3cb1cc116100b0578063debfc2f31161007f578063e29fcdc511610064578063e29fcdc5146107a0578063f398cc74146107d4578063f6a17fe3146107f457600080fd5b8063debfc2f31461074c578063e27a70851461076c57600080fd5b8063ad3cb1cc14610682578063b9d546e0146106d8578063cd79f906146106f8578063d547741f1461072c57600080fd5b806395c60294116100ec57806395c60294146105e55780639aec990e146106055780639bc2713614610639578063a217fddf1461066d57600080fd5b80636b5b21a6146104bb57806375847b841461051457806382bfefc81461053457806391d148541461058057600080fd5b80632f2ff15d1161019557806352d1902d1161016457806352d1902d1461041d57806358a14ad2146104325780636549bf481461046657806369815e571461048657600080fd5b80632f2ff15d146103b457806336568abe146103d45780634c5d8a0f146103f45780634f1ef2861461040a57600080fd5b80632410f6ba116101d15780632410f6ba14610303578063248a9ca31461033057806324f6ebde1461037f5780632eb39ee91461039457600080fd5b806301d58fa31461020357806301ffc9a71461026b578063180aedf31461029b5780631e3708df146102cf575b600080fd5b34801561020f57600080fd5b5061025861021e3660046132f4565b6001600160a01b031660009081527fc17b4b708b6f44255c20913a9d97a05300b670342c71fe5ae5b617bd4db55001602052604090205490565b6040519081526020015b60405180910390f35b34801561027757600080fd5b5061028b61028636600461330f565b61082a565b6040519015158152602001610262565b3480156102a757600080fd5b506102bb6102b6366004613351565b61083b565b6040516102629897969594939291906133ba565b3480156102db57600080fd5b506102587f000000000000000000000000000000000000000000000000000000000000000081565b34801561030f57600080fd5b5061032361031e366004613351565b61091c565b6040516102629190613415565b34801561033c57600080fd5b5061025861034b366004613351565b60009081527f02dd7bc7dec4dceedda775e58dd541e08a116c6c53815c0bd028192f7b626800602052604090206001015490565b61039261038d366004613589565b610b3a565b005b3480156103a057600080fd5b506103926103af366004613603565b610b52565b3480156103c057600080fd5b506103926103cf36600461375b565b610d46565b3480156103e057600080fd5b506103926103ef36600461375b565b610d90565b34801561040057600080fd5b5061025860025481565b610392610418366004613787565b610de1565b34801561042957600080fd5b50610258610e00565b34801561043e57600080fd5b506102587f000000000000000000000000000000000000000000000000000000000000000081565b34801561047257600080fd5b50610392610481366004613898565b610e2f565b34801561049257600080fd5b506104a66104a1366004613928565b610e3c565b60408051928352901515602083015201610262565b3480156104c757600080fd5b5061028b6104d63660046139b0565b60009081527fc17b4b708b6f44255c20913a9d97a05300b670342c71fe5ae5b617bd4db5500260209081526040808320938352929052205460ff1690565b34801561052057600080fd5b5061028b61052f3660046139d2565b610e79565b34801561054057600080fd5b506105687f000000000000000000000000000000000000000000000000000000000000000081565b6040516001600160a01b039091168152602001610262565b34801561058c57600080fd5b5061028b61059b36600461375b565b60009182527f02dd7bc7dec4dceedda775e58dd541e08a116c6c53815c0bd028192f7b626800602090815260408084206001600160a01b0393909316845291905290205460ff1690565b3480156105f157600080fd5b5061028b610600366004613351565b610e8c565b34801561061157600080fd5b506102587f000000000000000000000000000000000000000000000000000000000000000081565b34801561064557600080fd5b506102587f000000000000000000000000000000000000000000000000000000000000000081565b34801561067957600080fd5b50610258600081565b34801561068e57600080fd5b506106cb6040518060400160405280600581526020017f352e302e3000000000000000000000000000000000000000000000000000000081525081565b6040516102629190613a2c565b3480156106e457600080fd5b506103926106f33660046132f4565b610eaa565b34801561070457600080fd5b506105687f000000000000000000000000000000000000000000000000000000000000000081565b34801561073857600080fd5b5061039261074736600461375b565b610eb7565b34801561075857600080fd5b50610392610767366004613a3f565b610efb565b34801561077857600080fd5b506102587f000000000000000000000000000000000000000000000000000000000000000081565b3480156107ac57600080fd5b506102587f000000000000000000000000000000000000000000000000000000000000000081565b3480156107e057600080fd5b506103926107ef366004613351565b610f09565b34801561080057600080fd5b5061056861080f3660046132f4565b6000602081905290815260409020546001600160a01b031681565b600061083582610f13565b92915050565b600160208190526000918252604090912080549181015460028201546003830154600484015460058501546006860180549596949593946001600160a01b039093169391929161088a90613ad9565b80601f01602080910402602001604051908101604052809291908181526020018280546108b690613ad9565b80156109035780601f106108d857610100808354040283529160200191610903565b820191906000526020600020905b8154815290600101906020018083116108e657829003601f168201915b505050600790930154919250506001600160a01b031688565b61094060405180606001604052806060815260200160608152602001606081525090565b60008281527fc17b4b708b6f44255c20913a9d97a05300b670342c71fe5ae5b617bd4db55000602081905260409182902082516060810190935280549192918290829061098c90613ad9565b80601f01602080910402602001604051908101604052809291908181526020018280546109b890613ad9565b8015610a055780601f106109da57610100808354040283529160200191610a05565b820191906000526020600020905b8154815290600101906020018083116109e857829003601f168201915b50505050508152602001600182018054610a1e90613ad9565b80601f0160208091040260200160405190810160405280929190818152602001828054610a4a90613ad9565b8015610a975780601f10610a6c57610100808354040283529160200191610a97565b820191906000526020600020905b815481529060010190602001808311610a7a57829003601f168201915b50505050508152602001600282018054610ab090613ad9565b80601f0160208091040260200160405190810160405280929190818152602001828054610adc90613ad9565b8015610b295780601f10610afe57610100808354040283529160200191610b29565b820191906000526020600020905b815481529060010190602001808311610b0c57829003601f168201915b505050505081525050915050919050565b610b4a8686868634878733610faa565b505050505050565b7ff0c57e16840df040f15088dc2f81fe391c3923bec73e23a9662efc9c229c6a00805468010000000000000000810460ff16159067ffffffffffffffff16600081158015610b9d5750825b905060008267ffffffffffffffff166001148015610bba5750303b155b905081158015610bc8575080155b15610bff576040517ff92ee8a900000000000000000000000000000000000000000000000000000000815260040160405180910390fd5b84547fffffffffffffffffffffffffffffffffffffffffffffffff00000000000000001660011785558315610c605784547fffffffffffffffffffffffffffffffffffffffffffffff00ffffffffffffffff16680100000000000000001785555b6001600160a01b038716610ca0576040517f30a7a37f00000000000000000000000000000000000000000000000000000000815260040160405180910390fd5b610ca8611268565b610cb0611268565b610cb8611268565b610cc0611268565b610cc986611272565b610cd46000886112b2565b504660c01b6002558315610d3d5784547fffffffffffffffffffffffffffffffffffffffffffffff00ffffffffffffffff168555604051600181527fc7f505b2f371ae2175ee4913f4499e1f2633a7b5936321eed1cdaeb6115181d29060200160405180910390a15b50505050505050565b60008281527f02dd7bc7dec4dceedda775e58dd541e08a116c6c53815c0bd028192f7b6268006020526040902060010154610d808161139f565b610d8a83836112b2565b50505050565b6001600160a01b0381163314610dd2576040517f6697b23200000000000000000000000000000000000000000000000000000000815260040160405180910390fd5b610ddc82826113a9565b505050565b610de961146d565b610df28261153d565b610dfc8282611548565b5050565b6000610e0a61164e565b507f360894a13ba1a3210667c828492db98dca3e2076cc3735a920a3ca505d382bbc90565b610d8a84848484336116b0565b60008080610e498161139f565b610e6c6040518060600160405280888152602001878152602001868152506117a0565b9250925050935093915050565b6000610e858383611948565b9392505050565b600080610e988161139f565b610ea183611bac565b91505b50919050565b610eb48133611c63565b50565b60008281527f02dd7bc7dec4dceedda775e58dd541e08a116c6c53815c0bd028192f7b6268006020526040902060010154610ef18161139f565b610d8a83836113a9565b610b4a868686868686611d46565b610eb48133612057565b60007fffffffff0000000000000000000000000000000000000000000000000000000082167f7965db0b00000000000000000000000000000000000000000000000000000000148061083557507f01ffc9a7000000000000000000000000000000000000000000000000000000007fffffffff00000000000000000000000000000000000000000000000000000000831614610835565b7f000000000000000000000000000000000000000000000000000000000000000086111580610ff957507f00000000000000000000000000000000000000000000000000000000000000008610155b15611030576040517f445e056c00000000000000000000000000000000000000000000000000000000815260040160405180910390fd5b60c061103d466001613b55565b901b600254600161104e9190613b55565b0361105b574660c01b6002555b60007f00000000000000000000000000000000000000000000000000000000000000006110a87f000000000000000000000000000000000000000000000000000000000000000089613b68565b6110b29190613b55565b9050604051806101000160405280428152602001878152602001828152602001868152602001836001600160a01b031681526020018a8152602001898152602001846001600160a01b03168152506001600060026000815461111390613b7f565b9182905550815260208082019290925260409081016000208351815591830151600183015582015160028201556060820151600382015560808201516004820180547fffffffffffffffffffffffff0000000000000000000000000000000000000000166001600160a01b0390921691909117905560a0820151600582015560c082015160068201906111a69082613bff565b5060e09190910151600790910180547fffffffffffffffffffffffff0000000000000000000000000000000000000000166001600160a01b03928316179055611213907f0000000000000000000000000000000000000000000000000000000000000000168330846122a7565b6002547ffb886bd953c8445f6ad48361caa8258bbffe0d47b266023151730c5cccb8393e8a8a8a8a868b8b8b4260405161125599989796959493929190613cfb565b60405180910390a2505050505050505050565b611270612323565b565b61127a612323565b60005b8151811015610dfc576112a882828151811061129b5761129b613d5a565b60200260200101516117a0565b505060010161127d565b60008281527f02dd7bc7dec4dceedda775e58dd541e08a116c6c53815c0bd028192f7b626800602081815260408084206001600160a01b038616855290915282205460ff16611395576000848152602082815260408083206001600160a01b0387168452909152902080547fffffffffffffffffffffffffffffffffffffffffffffffffffffffffffffff0016600117905561134b3390565b6001600160a01b0316836001600160a01b0316857f2f8788117e7eff1d82e926ec794901d17c78024a50270940304540a733656f0d60405160405180910390a46001915050610835565b6000915050610835565b610eb4813361238a565b60008281527f02dd7bc7dec4dceedda775e58dd541e08a116c6c53815c0bd028192f7b626800602081815260408084206001600160a01b038616855290915282205460ff1615611395576000848152602082815260408083206001600160a01b038716808552925280832080547fffffffffffffffffffffffffffffffffffffffffffffffffffffffffffffff0016905551339287917ff6391f5c32d9c69d2a47ea670b442974b53935d1edc7fd64eb21e047a839171b9190a46001915050610835565b306001600160a01b037f000000000000000000000000000000000000000000000000000000000000000016148061150657507f00000000000000000000000000000000000000000000000000000000000000006001600160a01b03166114fa7f360894a13ba1a3210667c828492db98dca3e2076cc3735a920a3ca505d382bbc546001600160a01b031690565b6001600160a01b031614155b15611270576040517fe07c8dba00000000000000000000000000000000000000000000000000000000815260040160405180910390fd5b6000610dfc8161139f565b816001600160a01b03166352d1902d6040518163ffffffff1660e01b8152600401602060405180830381865afa9250505080156115a2575060408051601f3d908101601f1916820190925261159f91810190613d89565b60015b6115e8576040517f4c9c8ce30000000000000000000000000000000000000000000000000000000081526001600160a01b03831660048201526024015b60405180910390fd5b7f360894a13ba1a3210667c828492db98dca3e2076cc3735a920a3ca505d382bbc8114611644576040517faa1d49a4000000000000000000000000000000000000000000000000000000008152600481018290526024016115df565b610ddc8383612417565b306001600160a01b037f00000000000000000000000000000000000000000000000000000000000000001614611270576040517fe07c8dba00000000000000000000000000000000000000000000000000000000815260040160405180910390fd5b6116ba8585611948565b5060006116ca856000015161246d565b90506116d8828486846124b6565b6001600160a01b03818116600090815260208190526040902054161561172a576040517ffd764a3900000000000000000000000000000000000000000000000000000000815260040160405180910390fd5b6001600160a01b0381811660008181526020819052604080822080547fffffffffffffffffffffffff0000000000000000000000000000000000000000169487169485179055519192917f95f86f0783d4494f76a6aeaa178c399f2c6a140aa3e88d39f056b00f460d359a9190a3505050505050565b80515160009081907fc17b4b708b6f44255c20913a9d97a05300b670342c71fe5ae5b617bd4db550009060301480156117de57508360200151516030145b80156117ef57508360400151516030145b611825576040517f84c61bb600000000000000000000000000000000000000000000000000000000815260040160405180910390fd5b600084600001518560200151866040015160405160200161184893929190613da2565b60408051601f198184030181529181528151602092830120600081815292859052912080549192509061187a90613ad9565b15905061188c57946000945092505050565b604080516060810182528651815260208088015181830152878301518284015260008481529085905291909120815181906118c79082613bff565b50602082015160018201906118dc9082613bff565b50604082015160028201906118f19082613bff565b50905050807f52b29bbdd97ab983419f50fa1590e5ab75e9942279e95e10a08607b06c23238b86600001518760200151886040015160405161193593929190613de5565b60405180910390a2946001945092505050565b6000807fc17b4b708b6f44255c20913a9d97a05300b670342c71fe5ae5b617bd4db550009050600083602001518460400151856060015160405160200161199193929190613da2565b60408051601f19818403018152918152815160209283012060008181529285905291208054919250906119c390613ad9565b90506000036119fe576040517f38c4ac1600000000000000000000000000000000000000000000000000000000815260040160405180910390fd5b611a287f000000000000000000000000000000000000000000000000000000000000000042613e1e565b6103e88560800151611a3a9190613e31565b11611a71576040517f19605e0a00000000000000000000000000000000000000000000000000000000815260040160405180910390fd5b6040517feac708a30000000000000000000000000000000000000000000000000000000081526001600160a01b037f0000000000000000000000000000000000000000000000000000000000000000169063eac708a390611ad89088908890600401613e6c565b60006040518083038186803b158015611af057600080fd5b505afa158015611b04573d6000803e3d6000fd5b505050506000611b17856000015161246d565b6001600160a01b038116600090815260018501602052604090205490915015611b465760009350505050610835565b6001600160a01b038116600081815260018501602052604090819020849055865190518492917fbb4d6428d53ea924d94be0488473deb5c0a70c979f8477d21911cb5bee4037fd91611b989190613a2c565b60405180910390a350600195945050505050565b60008181527fc17b4b708b6f44255c20913a9d97a05300b670342c71fe5ae5b617bd4db550006020819052604082208054611be690613ad9565b9050600003611bf85750600092915050565b600083815260208290526040812090611c11828261328a565b611c1f60018301600061328a565b611c2d60028301600061328a565b505060405183907f4b71bedda4217966eac1aa49e35b1550e5ab87064ae179d1b36b393bd04eb74390600090a250600192915050565b6001600160a01b03828116600090815260208190526040902054811690821614611cb9576040517f07191dbf00000000000000000000000000000000000000000000000000000000815260040160405180910390fd5b6001600160a01b03808316600090815260208190526040902054611cdd91166126a7565b506001600160a01b03821660008181526020819052604080822080547fffffffffffffffffffffffff0000000000000000000000000000000000000000169055517f962f6082057b3b4fb251973bd737c7707bf1733cf85a0b7c86fd6c3caca260c59190a25050565b60008581526001602081815260408084208151610100810183528154815293810154928401929092526002820154908301526003810154606083015260048101546001600160a01b03166080830152600581015460a083015260068101805460c084019190611db490613ad9565b80601f0160208091040260200160405190810160405280929190818152602001828054611de090613ad9565b8015611e2d5780601f10611e0257610100808354040283529160200191611e2d565b820191906000526020600020905b815481529060010190602001808311611e1057829003601f168201915b5050509183525050600791909101546001600160a01b03908116602090920191909152608082015191925016611e8f576040517f9da0635900000000000000000000000000000000000000000000000000000000815260040160405180910390fd5b8051611ebc907f000000000000000000000000000000000000000000000000000000000000000090613b55565b421115611ef5576040517f159413f400000000000000000000000000000000000000000000000000000000815260040160405180910390fd5b6000611f0588888888888861275a565b6000888152600160208190526040822082815590810182905560028101829055600381018290556004810180547fffffffffffffffffffffffff000000000000000000000000000000000000000016905560058101829055919250611f6d600683018261328a565b5060070180547fffffffffffffffffffffffff000000000000000000000000000000000000000016905560808201516040830151611fae9183918890612933565b600080611fd58985608001518660e0015187606001518860a001518960c001518e8d612a18565b6001600160a01b038086166000908152602081905260409020546080880151606089015194965092945061200d939116919084612b27565b887f3bcf275077501f1077e75b4e70896bf241dc8cbeec71823201ef711cfc454ea1898989866040516120439493929190613f00565b60405180910390a250505050505050505050565b6000828152600160205260409020600401546001600160a01b038281169116146120ad576040517f8166e98400000000000000000000000000000000000000000000000000000000815260040160405180910390fd5b6000828152600160205260409020546120e7907f000000000000000000000000000000000000000000000000000000000000000090613b55565b421161211f576040517fd856047b00000000000000000000000000000000000000000000000000000000815260040160405180910390fd5b60008281526001602081905260408220600381018054600283018054868555948401869055859055908490556004820180547fffffffffffffffffffffffff0000000000000000000000000000000000000000169055600582018490559261218a600683018261328a565b5060070180547fffffffffffffffffffffffff00000000000000000000000000000000000000001690556121e87f00000000000000000000000000000000000000000000000000000000000000006001600160a01b03168483612bdd565b6000836001600160a01b03168360405160006040518083038185875af1925050503d8060008114612235576040519150601f19603f3d011682016040523d82523d6000602084013e61223a565b606091505b5050905080612275576040517ffbe8c5be00000000000000000000000000000000000000000000000000000000815260040160405180910390fd5b60405185907f58243f872c550ad02802199ade99eb4250f6bb19e9abbf2d3de7b969c0eb5e4f90600090a25050505050565b6040516001600160a01b038481166024830152838116604483015260648201839052610d8a9186918216906323b872dd906084015b604051602081830303815290604052915060e01b6020820180517bffffffffffffffffffffffffffffffffffffffffffffffffffffffff8381831617835250505050612c0e565b7ff0c57e16840df040f15088dc2f81fe391c3923bec73e23a9662efc9c229c6a005468010000000000000000900460ff16611270576040517fd7e6bcf800000000000000000000000000000000000000000000000000000000815260040160405180910390fd5b60008281527f02dd7bc7dec4dceedda775e58dd541e08a116c6c53815c0bd028192f7b626800602090815260408083206001600160a01b038516845290915290205460ff16610dfc576040517fe2517d3f0000000000000000000000000000000000000000000000000000000081526001600160a01b0382166004820152602481018390526044016115df565b61242082612c8a565b6040516001600160a01b038316907fbc7cd75a20ee27fd9adebab32041f755214dbc6bffa90cc0225b39da2e5c2d3b90600090a280511561246557610ddc8282612d32565b610dfc612da8565b600081516040146124aa576040517fbd9c80c100000000000000000000000000000000000000000000000000000000815260040160405180910390fd5b50805160209091012090565b6124e07f000000000000000000000000000000000000000000000000000000000000000084613b55565b421115612519576040517f0a151d0b00000000000000000000000000000000000000000000000000000000815260040160405180910390fd5b604080517f5f8784d207b73e6da533ec436e4e68df897ada404898707128cf43ddf65f7a186020808301919091526001600160a01b038716828401526060808301879052835180840390910181526080830184528051908201207fb03948446334eb9b2196d5eb166f69b9d49403eb4a12f36de8d3f9f3cb8e15c360a08401527fd13b7bcdea8dd87e8f9a0d206dc73d6264326a7f9f4c38119298bb466e785c5360c08401527fc89efdaa54c0f20c7adf612882df0950f5a951637e0307cdcb4c672f298b8bc660e08085019190915284518085039091018152610100840185528051908301207f1901000000000000000000000000000000000000000000000000000000000000610120850152610122840152610142808401829052845180850390910181526101629093019093528151910120600061265a8286612de0565b9050836001600160a01b0316816001600160a01b031614610d3d576040517ff5b2592500000000000000000000000000000000000000000000000000000000815260040160405180910390fd5b6001600160a01b03811660009081527fc17b4b708b6f44255c20913a9d97a05300b670342c71fe5ae5b617bd4db5500160205260408120547fc17b4b708b6f44255c20913a9d97a05300b670342c71fe5ae5b617bd4db550009061270e5750600092915050565b6001600160a01b0383166000818152600183016020526040808220829055517f0f586d928fc7ce3b60c8a7c276a8562f9f53b126cebe71cf612948dfc52eff169190a250600192915050565b60006127867f000000000000000000000000000000000000000000000000000000000000000083613b55565b4211156127bf576040517f0a151d0b00000000000000000000000000000000000000000000000000000000815260040160405180910390fd5b8451602080870191909120604080517f37096cd2491f9c5ef86ecee2c1b7a06103393df9e824c16fab6722c818bd43ef818501528082018a905260608101929092526080820187905260ff861660a083015260c08083018690528151808403909101815260e0830182528051908401207fb03948446334eb9b2196d5eb166f69b9d49403eb4a12f36de8d3f9f3cb8e15c36101008401527fd13b7bcdea8dd87e8f9a0d206dc73d6264326a7f9f4c38119298bb466e785c536101208401527fc89efdaa54c0f20c7adf612882df0950f5a951637e0307cdcb4c672f298b8bc66101408085019190915282518085039091018152610160840183528051908501207f19010000000000000000000000000000000000000000000000000000000000006101808501526101828401526101a2808401829052825180850390910181526101c290930190915281519190920120600061291b828b612de0565b905061292681612e0a565b9998505050505050505050565b60007f00000000000000000000000000000000000000000000000000000000000000006129807f000000000000000000000000000000000000000000000000000000000000000085613b68565b61298a9190613b55565b905060006129988284613e1e565b6001600160a01b038088166000908152602081905260409020549192506129e4917f00000000000000000000000000000000000000000000000000000000000000008216911684612bdd565b610b4a6001600160a01b037f0000000000000000000000000000000000000000000000000000000000000000168683612bdd565b60008060005a905060006001600160a01b038a16612a363a8b613e31565b8d8d8b8b8b8b604051602401612a5196959493929190613f34565b60408051601f198184030181529181526020820180517bffffffffffffffffffffffffffffffffffffffffffffffffffffffff167f9e24036d0000000000000000000000000000000000000000000000000000000017905251612ab49190613f8b565b60006040518083038160008787f1925050503d8060008114612af2576040519150601f19603f3d011682016040523d82523d6000602084013e612af7565b606091505b5050905060003a5a612b099085613e1e565b612b139190613b68565b919d919c50909a5050505050505050505050565b6000846001600160a01b03168260405160006040518083038185875af1925050503d8060008114612b74576040519150601f19603f3d011682016040523d82523d6000602084013e612b79565b606091505b50909150506001600160a01b038416612b928385613e1e565b604051600081818185875af1925050503d8060008114612bce576040519150601f19603f3d011682016040523d82523d6000602084013e612bd3565b606091505b5050505050505050565b6040516001600160a01b03838116602483015260448201839052610ddc91859182169063a9059cbb906064016122dc565b6000612c236001600160a01b03841683612eef565b90508051600014158015612c48575080806020019051810190612c469190613fa7565b155b15610ddc576040517f5274afe70000000000000000000000000000000000000000000000000000000081526001600160a01b03841660048201526024016115df565b806001600160a01b03163b600003612cd9576040517f4c9c8ce30000000000000000000000000000000000000000000000000000000081526001600160a01b03821660048201526024016115df565b7f360894a13ba1a3210667c828492db98dca3e2076cc3735a920a3ca505d382bbc80547fffffffffffffffffffffffff0000000000000000000000000000000000000000166001600160a01b0392909216919091179055565b6060600080846001600160a01b031684604051612d4f9190613f8b565b600060405180830381855af49150503d8060008114612d8a576040519150601f19603f3d011682016040523d82523d6000602084013e612d8f565b606091505b5091509150612d9f858383612efd565b95945050505050565b3415611270576040517fb398979f00000000000000000000000000000000000000000000000000000000815260040160405180910390fd5b600080600080612df08686612f72565b925092509250612e008282612fbf565b5090949350505050565b6001600160a01b03811660009081527fc17b4b708b6f44255c20913a9d97a05300b670342c71fe5ae5b617bd4db5500160205260409020547fc17b4b708b6f44255c20913a9d97a05300b670342c71fe5ae5b617bd4db550009080612e9b576040517f3dd8ca9500000000000000000000000000000000000000000000000000000000815260040160405180910390fd5b60008181526020839052604090208054612eb490613ad9565b9050600003610ddc576040517f38c4ac1600000000000000000000000000000000000000000000000000000000815260040160405180910390fd5b6060610e85838360006130c3565b606082612f1257612f0d82613179565b610e85565b8151158015612f2957506001600160a01b0384163b155b15612f6b576040517f9996b3150000000000000000000000000000000000000000000000000000000081526001600160a01b03851660048201526024016115df565b5092915050565b60008060008351604103612fac5760208401516040850151606086015160001a612f9e888285856131bb565b955095509550505050612fb8565b50508151600091506002905b9250925092565b6000826003811115612fd357612fd3613fc9565b03612fdc575050565b6001826003811115612ff057612ff0613fc9565b03613027576040517ff645eedf00000000000000000000000000000000000000000000000000000000815260040160405180910390fd5b600282600381111561303b5761303b613fc9565b03613075576040517ffce698f7000000000000000000000000000000000000000000000000000000008152600481018290526024016115df565b600382600381111561308957613089613fc9565b03610dfc576040517fd78bce0c000000000000000000000000000000000000000000000000000000008152600481018290526024016115df565b606081471015613101576040517fcd7860590000000000000000000000000000000000000000000000000000000081523060048201526024016115df565b600080856001600160a01b0316848660405161311d9190613f8b565b60006040518083038185875af1925050503d806000811461315a576040519150601f19603f3d011682016040523d82523d6000602084013e61315f565b606091505b509150915061316f868383612efd565b9695505050505050565b8051156131895780518082602001fd5b6040517f1425ea4200000000000000000000000000000000000000000000000000000000815260040160405180910390fd5b600080807f7fffffffffffffffffffffffffffffff5d576e7357a4501ddfe92f46681b20a08411156131f65750600091506003905082613280565b604080516000808252602082018084528a905260ff891692820192909252606081018790526080810186905260019060a0016020604051602081039080840390855afa15801561324a573d6000803e3d6000fd5b5050604051601f1901519150506001600160a01b03811661327657506000925060019150829050613280565b9250600091508190505b9450945094915050565b50805461329690613ad9565b6000825580601f106132a6575050565b601f016020900490600052602060002090810190610eb491905b808211156132d457600081556001016132c0565b5090565b80356001600160a01b03811681146132ef57600080fd5b919050565b60006020828403121561330657600080fd5b610e85826132d8565b60006020828403121561332157600080fd5b81357fffffffff0000000000000000000000000000000000000000000000000000000081168114610e8557600080fd5b60006020828403121561336357600080fd5b5035919050565b60005b8381101561338557818101518382015260200161336d565b50506000910152565b600081518084526133a681602086016020860161336a565b601f01601f19169290920160200192915050565b60006101008a83528960208401528860408401528760608401526001600160a01b0380881660808501528660a08501528160c08501526133fc8285018761338e565b925080851660e085015250509998505050505050505050565b602081526000825160606020840152613431608084018261338e565b90506020840151601f198085840301604086015261344f838361338e565b9250604086015191508085840301606086015250612d9f828261338e565b7f4e487b7100000000000000000000000000000000000000000000000000000000600052604160045260246000fd5b6040516060810167ffffffffffffffff811182821017156134bf576134bf61346d565b60405290565b60405160a0810167ffffffffffffffff811182821017156134bf576134bf61346d565b604051601f8201601f1916810167ffffffffffffffff811182821017156135115761351161346d565b604052919050565b600082601f83011261352a57600080fd5b813567ffffffffffffffff8111156135445761354461346d565b6135576020601f19601f840116016134e8565b81815284602083860101111561356c57600080fd5b816020850160208301376000918101602001919091529392505050565b60008060008060008060c087890312156135a257600080fd5b86359550602087013567ffffffffffffffff8111156135c057600080fd5b6135cc89828a01613519565b95505060408701359350606087013592506135e9608088016132d8565b91506135f760a088016132d8565b90509295509295509295565b6000806040838503121561361657600080fd5b61361f836132d8565b915060208084013567ffffffffffffffff8082111561363d57600080fd5b818601915086601f83011261365157600080fd5b8135818111156136635761366361346d565b8060051b6136728582016134e8565b918252838101850191858101908a84111561368c57600080fd5b86860192505b8383101561374a578235858111156136aa5760008081fd5b86016060818d03601f19018113156136c25760008081fd5b6136ca61349c565b89830135888111156136dc5760008081fd5b6136ea8f8c83870101613519565b8252506040830135888111156137005760008081fd5b61370e8f8c83870101613519565b828c0152509082013590878211156137265760008081fd5b6137348e8b84860101613519565b6040820152845250509186019190860190613692565b809750505050505050509250929050565b6000806040838503121561376e57600080fd5b8235915061377e602084016132d8565b90509250929050565b6000806040838503121561379a57600080fd5b6137a3836132d8565b9150602083013567ffffffffffffffff8111156137bf57600080fd5b6137cb85828601613519565b9150509250929050565b600060a082840312156137e757600080fd5b6137ef6134c5565b9050813567ffffffffffffffff8082111561380957600080fd5b61381585838601613519565b8352602084013591508082111561382b57600080fd5b61383785838601613519565b6020840152604084013591508082111561385057600080fd5b61385c85838601613519565b6040840152606084013591508082111561387557600080fd5b5061388284828501613519565b6060830152506080820135608082015292915050565b600080600080608085870312156138ae57600080fd5b843567ffffffffffffffff808211156138c657600080fd5b6138d288838901613519565b955060208701359150808211156138e857600080fd5b6138f4888389016137d5565b9450604087013591508082111561390a57600080fd5b5061391787828801613519565b949793965093946060013593505050565b60008060006060848603121561393d57600080fd5b833567ffffffffffffffff8082111561395557600080fd5b61396187838801613519565b9450602086013591508082111561397757600080fd5b61398387838801613519565b9350604086013591508082111561399957600080fd5b506139a686828701613519565b9150509250925092565b600080604083850312156139c357600080fd5b50508035926020909101359150565b600080604083850312156139e557600080fd5b823567ffffffffffffffff808211156139fd57600080fd5b613a0986838701613519565b93506020850135915080821115613a1f57600080fd5b506137cb858286016137d5565b602081526000610e85602083018461338e565b60008060008060008060c08789031215613a5857600080fd5b863567ffffffffffffffff80821115613a7057600080fd5b613a7c8a838b01613519565b9750602089013596506040890135915080821115613a9957600080fd5b50613aa689828a01613519565b94505060608701359250608087013560ff81168114613ac457600080fd5b8092505060a087013590509295509295509295565b600181811c90821680613aed57607f821691505b602082108103610ea4577f4e487b7100000000000000000000000000000000000000000000000000000000600052602260045260246000fd5b7f4e487b7100000000000000000000000000000000000000000000000000000000600052601160045260246000fd5b8082018082111561083557610835613b26565b808202811582820484141761083557610835613b26565b60007fffffffffffffffffffffffffffffffffffffffffffffffffffffffffffffffff8203613bb057613bb0613b26565b5060010190565b601f821115610ddc576000816000526020600020601f850160051c81016020861015613be05750805b601f850160051c820191505b81811015610b4a57828155600101613bec565b815167ffffffffffffffff811115613c1957613c1961346d565b613c2d81613c278454613ad9565b84613bb7565b602080601f831160018114613c805760008415613c4a5750858301515b7fffffffffffffffffffffffffffffffffffffffffffffffffffffffffffffffff600386901b1c1916600185901b178555610b4a565b600085815260208120601f198616915b82811015613caf57888601518255948401946001909101908401613c90565b5085821015613ceb57878501517fffffffffffffffffffffffffffffffffffffffffffffffffffffffffffffffff600388901b60f8161c191681555b5050505050600190811b01905550565b60006101208b8352806020840152613d158184018c61338e565b604084019a909a5250506060810196909652608086019490945260a08501929092526001600160a01b0390811660c08501521660e08301526101009091015292915050565b7f4e487b7100000000000000000000000000000000000000000000000000000000600052603260045260246000fd5b600060208284031215613d9b57600080fd5b5051919050565b60008451613db481846020890161336a565b845190830190613dc881836020890161336a565b8451910190613ddb81836020880161336a565b0195945050505050565b606081526000613df8606083018661338e565b8281036020840152613e0a818661338e565b9050828103604084015261316f818561338e565b8181038181111561083557610835613b26565b600082613e67577f4e487b7100000000000000000000000000000000000000000000000000000000600052601260045260246000fd5b500490565b604081526000613e7f604083018561338e565b8281036020840152835160a08252613e9a60a083018261338e565b905060208501518282036020840152613eb3828261338e565b91505060408501518282036040840152613ecd828261338e565b91505060608501518282036060840152613ee7828261338e565b9150506080850151608083015280925050509392505050565b608081526000613f13608083018761338e565b60208301959095525060ff9290921660408301521515606090910152919050565b8681526001600160a01b038616602082015284604082015260c060608201526000613f6260c083018661338e565b8281036080840152613f74818661338e565b91505060ff831660a0830152979650505050505050565b60008251613f9d81846020870161336a565b9190910192915050565b600060208284031215613fb957600080fd5b81518015158114610e8557600080fd5b7f4e487b7100000000000000000000000000000000000000000000000000000000600052602160045260246000fdfea26469706673582212201dd2750fadde486a4153f3751372c4212632229a763731092a70c9583638facc64736f6c63430008190033",
  "linkReferences": {},
  "deployedLinkReferences": {}
}