{
  "_format": "hh-sol-artifact-1",
  "contractName": "RelaySubscriptions",
  "sourceName": "contracts/serverless-v2/RelaySubscriptions.sol",
  "abi": [
    {
      "inputs": [
        {
          "internalType": "contract Relay",
          "name": "_relay",
          "type": "address"
        }
      ],
      "stateMutability": "nonpayable",
      "type": "constructor"
    },
    {
      "inputs": [],
      "name": "AccessControlBadConfirmation",
      "type": "error"
    },
    {
      "inputs": [
        {
          "internalType": "address",
          "name": "account",
          "type": "address"
        },
        {
          "internalType": "bytes32",
          "name": "neededRole",
          "type": "bytes32"
        }
      ],
      "name": "AccessControlUnauthorizedAccount",
      "type": "error"
    },
    {
      "inputs": [
        {
          "internalType": "address",
          "name": "target",
          "type": "address"
        }
      ],
      "name": "AddressEmptyCode",
      "type": "error"
    },
    {
      "inputs": [
        {
          "internalType": "address",
          "name": "account",
          "type": "address"
        }
      ],
      "name": "AddressInsufficientBalance",
      "type": "error"
    },
    {
      "inputs": [],
      "name": "ECDSAInvalidSignature",
      "type": "error"
    },
    {
      "inputs": [
        {
          "internalType": "uint256",
          "name": "length",
          "type": "uint256"
        }
      ],
      "name": "ECDSAInvalidSignatureLength",
      "type": "error"
    },
    {
      "inputs": [
        {
          "internalType": "bytes32",
          "name": "s",
          "type": "bytes32"
        }
      ],
      "name": "ECDSAInvalidSignatureS",
      "type": "error"
    },
    {
      "inputs": [
        {
          "internalType": "address",
          "name": "implementation",
          "type": "address"
        }
      ],
      "name": "ERC1967InvalidImplementation",
      "type": "error"
    },
    {
      "inputs": [],
      "name": "ERC1967NonPayable",
      "type": "error"
    },
    {
      "inputs": [],
      "name": "FailedInnerCall",
      "type": "error"
    },
    {
      "inputs": [],
      "name": "InvalidInitialization",
      "type": "error"
    },
    {
      "inputs": [],
      "name": "NotInitializing",
      "type": "error"
    },
    {
      "inputs": [],
      "name": "RelaySubscriptionsInsufficientCallbackDeposit",
      "type": "error"
    },
    {
      "inputs": [],
      "name": "RelaySubscriptionsInsufficientMaxGasPrice",
      "type": "error"
    },
    {
      "inputs": [],
      "name": "RelaySubscriptionsInsufficientUsdcDeposit",
      "type": "error"
    },
    {
      "inputs": [],
      "name": "RelaySubscriptionsInvalidCurrentRuns",
      "type": "error"
    },
    {
      "inputs": [],
      "name": "RelaySubscriptionsInvalidJobSubscription",
      "type": "error"
    },
    {
      "inputs": [],
      "name": "RelaySubscriptionsInvalidRelay",
      "type": "error"
    },
    {
      "inputs": [],
      "name": "RelaySubscriptionsInvalidStartTimestamp",
      "type": "error"
    },
    {
      "inputs": [],
      "name": "RelaySubscriptionsInvalidTerminationTimestamp",
      "type": "error"
    },
    {
      "inputs": [],
      "name": "RelaySubscriptionsInvalidUserTimeout",
      "type": "error"
    },
    {
      "inputs": [],
      "name": "RelaySubscriptionsJobSubscriptionTerminated",
      "type": "error"
    },
    {
      "inputs": [],
      "name": "RelaySubscriptionsNotJobSubscriptionOwner",
      "type": "error"
    },
    {
      "inputs": [],
      "name": "RelaySubscriptionsOverallTimeoutOver",
      "type": "error"
    },
    {
      "inputs": [],
      "name": "RelaySubscriptionsSignatureTooOld",
      "type": "error"
    },
    {
      "inputs": [],
      "name": "RelaySubscriptionsTerminationConditionPending",
      "type": "error"
    },
    {
      "inputs": [],
      "name": "RelaySubscriptionsZeroAddressAdmin",
      "type": "error"
    },
    {
      "inputs": [
        {
          "internalType": "address",
          "name": "token",
          "type": "address"
        }
      ],
      "name": "SafeERC20FailedOperation",
      "type": "error"
    },
    {
      "inputs": [],
      "name": "UUPSUnauthorizedCallContext",
      "type": "error"
    },
    {
      "inputs": [
        {
          "internalType": "bytes32",
          "name": "slot",
          "type": "bytes32"
        }
      ],
      "name": "UUPSUnsupportedProxiableUUID",
      "type": "error"
    },
    {
      "anonymous": false,
      "inputs": [
        {
          "indexed": false,
          "internalType": "uint64",
          "name": "version",
          "type": "uint64"
        }
      ],
      "name": "Initialized",
      "type": "event"
    },
    {
      "anonymous": false,
      "inputs": [
        {
          "indexed": true,
          "internalType": "uint256",
          "name": "jobSubsId",
          "type": "uint256"
        },
        {
          "indexed": true,
          "internalType": "address",
          "name": "depositor",
          "type": "address"
        },
        {
          "indexed": false,
          "internalType": "uint256",
          "name": "usdcDeposit",
          "type": "uint256"
        },
        {
          "indexed": false,
          "internalType": "uint256",
          "name": "callbackDeposit",
          "type": "uint256"
        }
      ],
      "name": "JobSubscriptionFundsDeposited",
      "type": "event"
    },
    {
      "anonymous": false,
      "inputs": [
        {
          "indexed": true,
          "internalType": "uint256",
          "name": "jobSubsId",
          "type": "uint256"
        },
        {
          "indexed": true,
          "internalType": "address",
          "name": "withdrawer",
          "type": "address"
        },
        {
          "indexed": false,
          "internalType": "uint256",
          "name": "usdcAmountWithdrawn",
          "type": "uint256"
        },
        {
          "indexed": false,
          "internalType": "uint256",
          "name": "callbackAmountWithdrawn",
          "type": "uint256"
        },
        {
          "indexed": false,
          "internalType": "bool",
          "name": "success",
          "type": "bool"
        }
      ],
      "name": "JobSubscriptionFundsWithdrawn",
      "type": "event"
    },
    {
      "anonymous": false,
      "inputs": [
        {
          "indexed": true,
          "internalType": "uint256",
          "name": "jobSubsId",
          "type": "uint256"
        },
        {
          "indexed": false,
          "internalType": "bytes32",
          "name": "_codehash",
          "type": "bytes32"
        },
        {
          "indexed": false,
          "internalType": "bytes",
          "name": "_codeInputs",
          "type": "bytes"
        }
      ],
      "name": "JobSubscriptionJobParamsUpdated",
      "type": "event"
    },
    {
      "anonymous": false,
      "inputs": [
        {
          "indexed": true,
          "internalType": "uint256",
          "name": "jobSubsId",
          "type": "uint256"
        },
        {
          "indexed": false,
          "internalType": "bytes",
          "name": "output",
          "type": "bytes"
        },
        {
          "indexed": false,
          "internalType": "uint256",
          "name": "totalTime",
          "type": "uint256"
        },
        {
          "indexed": false,
          "internalType": "uint256",
          "name": "errorCode",
          "type": "uint256"
        },
        {
          "indexed": false,
          "internalType": "bool",
          "name": "success",
          "type": "bool"
        },
        {
          "indexed": false,
          "internalType": "uint256",
          "name": "currentRuns",
          "type": "uint256"
        },
        {
          "indexed": false,
          "internalType": "uint256",
          "name": "lastRunTimestamp",
          "type": "uint256"
        }
      ],
      "name": "JobSubscriptionResponded",
      "type": "event"
    },
    {
      "anonymous": false,
      "inputs": [
        {
          "indexed": true,
          "internalType": "uint256",
          "name": "jobSubsId",
          "type": "uint256"
        },
        {
          "indexed": true,
          "internalType": "address",
          "name": "jobSubscriber",
          "type": "address"
        },
        {
          "indexed": false,
          "internalType": "uint256",
          "name": "periodicGap",
          "type": "uint256"
        },
        {
          "indexed": false,
          "internalType": "uint256",
          "name": "usdcDeposit",
          "type": "uint256"
        },
        {
          "indexed": false,
          "internalType": "uint256",
          "name": "terminationTimestamp",
          "type": "uint256"
        },
        {
          "indexed": false,
          "internalType": "uint256",
          "name": "userTimeout",
          "type": "uint256"
        },
        {
          "indexed": false,
          "internalType": "address",
          "name": "refundAccount",
          "type": "address"
        },
        {
          "indexed": false,
          "internalType": "bytes32",
          "name": "codehash",
          "type": "bytes32"
        },
        {
          "indexed": false,
          "internalType": "bytes",
          "name": "codeInputs",
          "type": "bytes"
        },
        {
          "indexed": false,
          "internalType": "uint256",
          "name": "startTime",
          "type": "uint256"
        }
      ],
      "name": "JobSubscriptionStarted",
      "type": "event"
    },
    {
      "anonymous": false,
      "inputs": [
        {
          "indexed": true,
          "internalType": "uint256",
          "name": "jobSubsId",
          "type": "uint256"
        }
      ],
      "name": "JobSubscriptionTerminated",
      "type": "event"
    },
    {
      "anonymous": false,
      "inputs": [
        {
          "indexed": true,
          "internalType": "uint256",
          "name": "jobSubsId",
          "type": "uint256"
        },
        {
          "indexed": false,
          "internalType": "uint256",
          "name": "terminationTimestamp",
          "type": "uint256"
        }
      ],
      "name": "JobSubscriptionTerminationParamsUpdated",
      "type": "event"
    },
    {
      "anonymous": false,
      "inputs": [
        {
          "indexed": true,
          "internalType": "bytes32",
          "name": "role",
          "type": "bytes32"
        },
        {
          "indexed": true,
          "internalType": "bytes32",
          "name": "previousAdminRole",
          "type": "bytes32"
        },
        {
          "indexed": true,
          "internalType": "bytes32",
          "name": "newAdminRole",
          "type": "bytes32"
        }
      ],
      "name": "RoleAdminChanged",
      "type": "event"
    },
    {
      "anonymous": false,
      "inputs": [
        {
          "indexed": true,
          "internalType": "bytes32",
          "name": "role",
          "type": "bytes32"
        },
        {
          "indexed": true,
          "internalType": "address",
          "name": "account",
          "type": "address"
        },
        {
          "indexed": true,
          "internalType": "address",
          "name": "sender",
          "type": "address"
        }
      ],
      "name": "RoleGranted",
      "type": "event"
    },
    {
      "anonymous": false,
      "inputs": [
        {
          "indexed": true,
          "internalType": "bytes32",
          "name": "role",
          "type": "bytes32"
        },
        {
          "indexed": true,
          "internalType": "address",
          "name": "account",
          "type": "address"
        },
        {
          "indexed": true,
          "internalType": "address",
          "name": "sender",
          "type": "address"
        }
      ],
      "name": "RoleRevoked",
      "type": "event"
    },
    {
      "anonymous": false,
      "inputs": [
        {
          "indexed": true,
          "internalType": "address",
          "name": "implementation",
          "type": "address"
        }
      ],
      "name": "Upgraded",
      "type": "event"
    },
    {
      "inputs": [],
      "name": "DEFAULT_ADMIN_ROLE",
      "outputs": [
        {
          "internalType": "bytes32",
          "name": "",
          "type": "bytes32"
        }
      ],
      "stateMutability": "view",
      "type": "function"
    },
    {
      "inputs": [],
      "name": "RELAY",
      "outputs": [
        {
          "internalType": "contract Relay",
          "name": "",
          "type": "address"
        }
      ],
      "stateMutability": "view",
      "type": "function"
    },
    {
      "inputs": [],
      "name": "UPGRADE_INTERFACE_VERSION",
      "outputs": [
        {
          "internalType": "string",
          "name": "",
          "type": "string"
        }
      ],
      "stateMutability": "view",
      "type": "function"
    },
    {
      "inputs": [
        {
          "internalType": "uint256",
          "name": "_jobSubsId",
          "type": "uint256"
        },
        {
          "internalType": "uint256",
          "name": "_usdcDeposit",
          "type": "uint256"
        }
      ],
      "name": "depositJobSubscriptionFunds",
      "outputs": [],
      "stateMutability": "payable",
      "type": "function"
    },
    {
      "inputs": [
        {
          "internalType": "bytes32",
          "name": "role",
          "type": "bytes32"
        }
      ],
      "name": "getRoleAdmin",
      "outputs": [
        {
          "internalType": "bytes32",
          "name": "",
          "type": "bytes32"
        }
      ],
      "stateMutability": "view",
      "type": "function"
    },
    {
      "inputs": [
        {
          "internalType": "bytes32",
          "name": "role",
          "type": "bytes32"
        },
        {
          "internalType": "address",
          "name": "account",
          "type": "address"
        }
      ],
      "name": "grantRole",
      "outputs": [],
      "stateMutability": "nonpayable",
      "type": "function"
    },
    {
      "inputs": [
        {
          "internalType": "bytes32",
          "name": "role",
          "type": "bytes32"
        },
        {
          "internalType": "address",
          "name": "account",
          "type": "address"
        }
      ],
      "name": "hasRole",
      "outputs": [
        {
          "internalType": "bool",
          "name": "",
          "type": "bool"
        }
      ],
      "stateMutability": "view",
      "type": "function"
    },
    {
      "inputs": [
        {
          "internalType": "address",
          "name": "_admin",
          "type": "address"
        }
      ],
      "name": "initialize",
      "outputs": [],
      "stateMutability": "nonpayable",
      "type": "function"
    },
    {
      "inputs": [],
      "name": "jobSubsCount",
      "outputs": [
        {
          "internalType": "uint256",
          "name": "",
          "type": "uint256"
        }
      ],
      "stateMutability": "view",
      "type": "function"
    },
    {
      "inputs": [
        {
          "internalType": "bytes",
          "name": "_signature",
          "type": "bytes"
        },
        {
          "internalType": "uint256",
          "name": "_jobId",
          "type": "uint256"
        },
        {
          "internalType": "bytes",
          "name": "_output",
          "type": "bytes"
        },
        {
          "internalType": "uint256",
          "name": "_totalTime",
          "type": "uint256"
        },
        {
          "internalType": "uint8",
          "name": "_errorCode",
          "type": "uint8"
        },
        {
          "internalType": "uint256",
          "name": "_signTimestamp",
          "type": "uint256"
        }
      ],
      "name": "jobSubsResponse",
      "outputs": [],
      "stateMutability": "nonpayable",
      "type": "function"
    },
    {
      "inputs": [
        {
          "internalType": "uint256",
          "name": "",
          "type": "uint256"
        }
      ],
      "name": "jobSubscriptions",
      "outputs": [
        {
          "internalType": "uint256",
          "name": "periodicGap",
          "type": "uint256"
        },
        {
          "internalType": "uint256",
          "name": "terminationTimestamp",
          "type": "uint256"
        },
        {
          "internalType": "uint256",
          "name": "currentRuns",
          "type": "uint256"
        },
        {
          "internalType": "uint256",
          "name": "lastRunTimestamp",
          "type": "uint256"
        },
        {
          "internalType": "uint256",
          "name": "userTimeout",
          "type": "uint256"
        },
        {
          "internalType": "address",
          "name": "refundAccount",
          "type": "address"
        },
        {
          "components": [
            {
              "internalType": "uint256",
              "name": "startTime",
              "type": "uint256"
            },
            {
              "internalType": "uint256",
              "name": "maxGasPrice",
              "type": "uint256"
            },
            {
              "internalType": "uint256",
              "name": "usdcDeposit",
              "type": "uint256"
            },
            {
              "internalType": "uint256",
              "name": "callbackDeposit",
              "type": "uint256"
            },
            {
              "internalType": "uint256",
              "name": "callbackGasLimit",
              "type": "uint256"
            },
            {
              "internalType": "address",
              "name": "jobOwner",
              "type": "address"
            },
            {
              "internalType": "address",
              "name": "callbackContract",
              "type": "address"
            },
            {
              "internalType": "bytes32",
              "name": "codehash",
              "type": "bytes32"
            },
            {
              "internalType": "bytes",
              "name": "codeInputs",
              "type": "bytes"
            }
          ],
          "internalType": "struct Relay.Job",
          "name": "job",
          "type": "tuple"
        }
      ],
      "stateMutability": "view",
      "type": "function"
    },
    {
      "inputs": [],
      "name": "proxiableUUID",
      "outputs": [
        {
          "internalType": "bytes32",
          "name": "",
          "type": "bytes32"
        }
      ],
      "stateMutability": "view",
      "type": "function"
    },
    {
      "inputs": [
        {
          "internalType": "bytes32",
          "name": "role",
          "type": "bytes32"
        },
        {
          "internalType": "address",
          "name": "callerConfirmation",
          "type": "address"
        }
      ],
      "name": "renounceRole",
      "outputs": [],
      "stateMutability": "nonpayable",
      "type": "function"
    },
    {
      "inputs": [
        {
          "internalType": "bytes32",
          "name": "role",
          "type": "bytes32"
        },
        {
          "internalType": "address",
          "name": "account",
          "type": "address"
        }
      ],
      "name": "revokeRole",
      "outputs": [],
      "stateMutability": "nonpayable",
      "type": "function"
    },
    {
      "inputs": [
        {
          "internalType": "bytes32",
          "name": "_codehash",
          "type": "bytes32"
        },
        {
          "internalType": "bytes",
          "name": "_codeInputs",
          "type": "bytes"
        },
        {
          "internalType": "uint256",
          "name": "_userTimeout",
          "type": "uint256"
        },
        {
          "internalType": "uint256",
          "name": "_maxGasPrice",
          "type": "uint256"
        },
        {
          "internalType": "address",
          "name": "_refundAccount",
          "type": "address"
        },
        {
          "internalType": "address",
          "name": "_callbackContract",
          "type": "address"
        },
        {
          "internalType": "uint256",
          "name": "_callbackGasLimit",
          "type": "uint256"
        },
        {
          "internalType": "uint256",
          "name": "_periodicGap",
          "type": "uint256"
        },
        {
          "internalType": "uint256",
          "name": "_usdcDeposit",
          "type": "uint256"
        },
        {
          "internalType": "uint256",
          "name": "_startTimestamp",
          "type": "uint256"
        },
        {
          "internalType": "uint256",
          "name": "_terminationTimestamp",
          "type": "uint256"
        }
      ],
      "name": "startJobSubscription",
      "outputs": [],
      "stateMutability": "payable",
      "type": "function"
    },
    {
      "inputs": [
        {
          "internalType": "bytes4",
          "name": "interfaceId",
          "type": "bytes4"
        }
      ],
      "name": "supportsInterface",
      "outputs": [
        {
          "internalType": "bool",
          "name": "",
          "type": "bool"
        }
      ],
      "stateMutability": "view",
      "type": "function"
    },
    {
      "inputs": [
        {
          "internalType": "uint256",
          "name": "_jobSubsId",
          "type": "uint256"
        }
      ],
      "name": "terminateJobSubscription",
      "outputs": [],
      "stateMutability": "nonpayable",
      "type": "function"
    },
    {
      "inputs": [
        {
          "internalType": "uint256",
          "name": "_jobSubsId",
          "type": "uint256"
        },
        {
          "internalType": "bytes32",
          "name": "_codehash",
          "type": "bytes32"
        },
        {
          "internalType": "bytes",
          "name": "_codeInputs",
          "type": "bytes"
        }
      ],
      "name": "updateJobSubsJobParams",
      "outputs": [],
      "stateMutability": "nonpayable",
      "type": "function"
    },
    {
      "inputs": [
        {
          "internalType": "uint256",
          "name": "_jobSubsId",
          "type": "uint256"
        },
        {
          "internalType": "uint256",
          "name": "_terminationTimestamp",
          "type": "uint256"
        },
        {
          "internalType": "uint256",
          "name": "_usdcDeposit",
          "type": "uint256"
        }
      ],
      "name": "updateJobSubsTerminationParams",
      "outputs": [],
      "stateMutability": "payable",
      "type": "function"
    },
    {
      "inputs": [
        {
          "internalType": "address",
          "name": "newImplementation",
          "type": "address"
        },
        {
          "internalType": "bytes",
          "name": "data",
          "type": "bytes"
        }
      ],
      "name": "upgradeToAndCall",
      "outputs": [],
      "stateMutability": "payable",
      "type": "function"
    },
    {
      "inputs": [
        {
          "internalType": "uint256",
          "name": "_jobSubsId",
          "type": "uint256"
        }
      ],
      "name": "withdrawJobSubsFunds",
      "outputs": [],
      "stateMutability": "nonpayable",
      "type": "function"
    }
  ],
  "bytecode": "0x60c06040523060805234801561001457600080fd5b5060405161440638038061440683398101604081905261003391610125565b61003b610073565b6001600160a01b0381166100625760405163426f3a5f60e01b815260040160405180910390fd5b6001600160a01b031660a052610155565b7ff0c57e16840df040f15088dc2f81fe391c3923bec73e23a9662efc9c229c6a00805468010000000000000000900460ff16156100c35760405163f92ee8a960e01b815260040160405180910390fd5b80546001600160401b03908116146101225780546001600160401b0319166001600160401b0390811782556040519081527fc7f505b2f371ae2175ee4913f4499e1f2633a7b5936321eed1cdaeb6115181d29060200160405180910390a15b50565b60006020828403121561013757600080fd5b81516001600160a01b038116811461014e57600080fd5b9392505050565b60805160a0516141cf610237600039600081816102ee01528181610b8601528181610c1101528181610dc201528181610eb8015281816111c5015281816112470152818161133e015281816113c00152818161170d0152818161189f01528181611e8e0152818161201a015281816120b7015281816121c5015281816122a201528181612324015281816124090152818161248b015281816127d0015281816129d201528181612a9901528181612ce101528181612d5201528181612dd40152612e65015260008181611a4c01528181611a750152611c2f01526141cf6000f3fe60806040526004361061016a5760003560e01c806346a9f6d2116100cb57806391d148541161007f578063c4d66de811610059578063c4d66de814610469578063d547741f14610489578063f2a9b01d146104a957600080fd5b806391d1485414610399578063a217fddf146103fe578063ad3cb1cc1461041357600080fd5b806352d1902d116100b057806352d1902d1461034e5780635b65c460146103635780638f8ce5f01461037957600080fd5b806346a9f6d2146103285780634f1ef2861461033b57600080fd5b806326cacd6f1161012257806336568abe1161010757806336568abe1461029c57806339f81181146102bc578063423154c9146102dc57600080fd5b806326cacd6f146102695780632f2ff15d1461027c57600080fd5b806310d12e1f1161015357806310d12e1f146101d75780631eb7efbe146101f9578063248a9ca31461020c57600080fd5b806301ffc9a71461016f57806304a11e96146101a4575b600080fd5b34801561017b57600080fd5b5061018f61018a366004613744565b6104c9565b60405190151581526020015b60405180910390f35b3480156101b057600080fd5b506101c46101bf366004613786565b6104da565b60405161019b97969594939291906137ef565b3480156101e357600080fd5b506101f76101f236600461390b565b61061b565b005b6101f7610207366004613973565b61062d565b34801561021857600080fd5b5061025b610227366004613786565b60009081527f02dd7bc7dec4dceedda775e58dd541e08a116c6c53815c0bd028192f7b626800602052604090206001015490565b60405190815260200161019b565b6101f7610277366004613a2e565b610650565b34801561028857600080fd5b506101f7610297366004613a5a565b610661565b3480156102a857600080fd5b506101f76102b7366004613a5a565b6106a5565b3480156102c857600080fd5b506101f76102d7366004613786565b6106f1565b3480156102e857600080fd5b506103107f000000000000000000000000000000000000000000000000000000000000000081565b6040516001600160a01b03909116815260200161019b565b6101f7610336366004613a8a565b6106fe565b6101f7610349366004613adb565b61070d565b34801561035a57600080fd5b5061025b610728565b34801561036f57600080fd5b5061025b60015481565b34801561038557600080fd5b506101f7610394366004613b9f565b610757565b3480156103a557600080fd5b5061018f6103b4366004613a5a565b60009182527f02dd7bc7dec4dceedda775e58dd541e08a116c6c53815c0bd028192f7b626800602090815260408084206001600160a01b0393909316845291905290205460ff1690565b34801561040a57600080fd5b5061025b600081565b34801561041f57600080fd5b5061045c6040518060400160405280600581526020017f352e302e3000000000000000000000000000000000000000000000000000000081525081565b60405161019b9190613c45565b34801561047557600080fd5b506101f7610484366004613c58565b610771565b34801561049557600080fd5b506101f76104a4366004613a5a565b610975565b3480156104b557600080fd5b506101f76104c4366004613786565b6109b9565b60006104d4826109c2565b92915050565b60006020818152918152604090819020805460018201546002830154600384015460048501546005860154875161012081018952600688018054825260078901549a82019a909a5260088801549881019890985260098701546060890152600a8701546080890152600b8701546001600160a01b0390811660a08a0152600c880154811660c08a0152600d88015460e08a0152600e88018054979a9699959894979396919092169492909161010084019161059490613c75565b80601f01602080910402602001604051908101604052809291908181526020018280546105c090613c75565b801561060d5780601f106105e25761010080835404028352916020019161060d565b820191906000526020600020905b8154815290600101906020018083116105f057829003601f168201915b505050505081525050905087565b61062784848484610a59565b50505050565b6106428c8c8c8c8c8c8c8c8c8c8c8c33610b12565b505050505050505050505050565b61065c83838334610e63565b505050565b60008281527f02dd7bc7dec4dceedda775e58dd541e08a116c6c53815c0bd028192f7b626800602052604090206001015461069b816114fa565b6106278383611504565b6001600160a01b03811633146106e7576040517f6697b23200000000000000000000000000000000000000000000000000000000815260040160405180910390fd5b61065c82826115f1565b6106fb81336116b5565b50565b6107098282346119e5565b5050565b610715611a41565b61071e82611b13565b6107098282611b1e565b6000610732611c24565b507f360894a13ba1a3210667c828492db98dca3e2076cc3735a920a3ca505d382bbc90565b6107678888888888888888611c86565b5050505050505050565b7ff0c57e16840df040f15088dc2f81fe391c3923bec73e23a9662efc9c229c6a00805468010000000000000000810460ff16159067ffffffffffffffff166000811580156107bc5750825b905060008267ffffffffffffffff1660011480156107d95750303b155b9050811580156107e7575080155b1561081e576040517ff92ee8a900000000000000000000000000000000000000000000000000000000815260040160405180910390fd5b84547fffffffffffffffffffffffffffffffffffffffffffffffff0000000000000000166001178555831561087f5784547fffffffffffffffffffffffffffffffffffffffffffffff00ffffffffffffffff16680100000000000000001785555b6001600160a01b0386166108bf576040517ffabd722c00000000000000000000000000000000000000000000000000000000815260040160405180910390fd5b6108c76121b7565b6108cf6121b7565b6108d76121b7565b6108df6121b7565b6108ea600087611504565b504660c01b7780000000000000000000000000000000000000000000000017600155831561096d5784547fffffffffffffffffffffffffffffffffffffffffffffff00ffffffffffffffff168555604051600181527fc7f505b2f371ae2175ee4913f4499e1f2633a7b5936321eed1cdaeb6115181d29060200160405180910390a15b505050505050565b60008281527f02dd7bc7dec4dceedda775e58dd541e08a116c6c53815c0bd028192f7b62680060205260409020600101546109af816114fa565b61062783836115f1565b6106fb816121bf565b60007fffffffff0000000000000000000000000000000000000000000000000000000082167f7965db0b0000000000000000000000000000000000000000000000000000000014806104d457507f01ffc9a7000000000000000000000000000000000000000000000000000000007fffffffff000000000000000000000000000000000000000000000000000000008316146104d4565b6000848152602081905260409020600b01546001600160a01b03163314610aac576040517f818b695a00000000000000000000000000000000000000000000000000000000815260040160405180910390fd5b6000848152602081905260409020600d8101849055600e01610acf828483613d10565b50837f67cca598521e82ef0d9258a1aa68c73e39a1378e9b11f4fd23e9207ed7426d66848484604051610b0493929190613e38565b60405180910390a250505050565b818310610b4b576040517fdbedfa2e00000000000000000000000000000000000000000000000000000000815260040160405180910390fd5b428211610b84576040517f983dab6700000000000000000000000000000000000000000000000000000000815260040160405180910390fd5b7f00000000000000000000000000000000000000000000000000000000000000006001600160a01b0316631e3708df6040518163ffffffff1660e01b8152600401602060405180830381865afa158015610be2573d6000803e3d6000fd5b505050506040513d601f19601f82011682018060405250810190610c069190613e52565b8a111580610c9557507f00000000000000000000000000000000000000000000000000000000000000006001600160a01b031663e29fcdc56040518163ffffffff1660e01b8152600401602060405180830381865afa158015610c6d573d6000803e3d6000fd5b505050506040513d601f19601f82011682018060405250810190610c919190613e52565b8a10155b15610ccc576040517fb0cef88200000000000000000000000000000000000000000000000000000000815260040160405180910390fd5b3a891015610d06576040517fe14c8d6b00000000000000000000000000000000000000000000000000000000815260040160405180910390fd5b42831015610d12574292505b610d218a8a8888888888612285565b60006040518061012001604052808581526020018b8152602001868152602001348152602001888152602001836001600160a01b03168152602001896001600160a01b031681526020018f81526020018e8e8080601f01602080910402602001604051908101604052809392919081815260200183838082843760009201919091525050509152509050610dba818c8b89888888612570565b610e538230877f00000000000000000000000000000000000000000000000000000000000000006001600160a01b03166382bfefc86040518163ffffffff1660e01b8152600401602060405180830381865afa158015610e1e573d6000803e3d6000fd5b505050506040513d601f19601f82011682018060405250810190610e429190613e6b565b6001600160a01b031692919061274c565b5050505050505050505050505050565b6000848152602081905260409020600b01546001600160a01b03163314610eb6576040517f818b695a00000000000000000000000000000000000000000000000000000000815260040160405180910390fd5b7f00000000000000000000000000000000000000000000000000000000000000006001600160a01b03166358a14ad26040518163ffffffff1660e01b8152600401602060405180830381865afa158015610f14573d6000803e3d6000fd5b505050506040513d601f19601f82011682018060405250810190610f389190613e52565b610f429042613eb7565b831015610f7b576040517f983dab6700000000000000000000000000000000000000000000000000000000815260040160405180910390fd5b60008481526020819052604090206001015442811015610fc7576040517f8451d06e00000000000000000000000000000000000000000000000000000000815260040160405180910390fd5b808411156114ab57610fda8584846127c8565b60008060008781526020019081526020016000206040518060e001604052908160008201548152602001600182015481526020016002820154815260200160038201548152602001600482015481526020016005820160009054906101000a90046001600160a01b03166001600160a01b03166001600160a01b03168152602001600682016040518061012001604052908160008201548152602001600182015481526020016002820154815260200160038201548152602001600482015481526020016005820160009054906101000a90046001600160a01b03166001600160a01b03166001600160a01b031681526020016006820160009054906101000a90046001600160a01b03166001600160a01b03166001600160a01b031681526020016007820154815260200160088201805461111590613c75565b80601f016020809104026020016040519081016040528092919081815260200182805461114190613c75565b801561118e5780601f106111635761010080835404028352916020019161118e565b820191906000526020600020905b81548152906001019060200180831161117157829003601f168201915b5050509190925250505090525080519091506000906111ad4288613eca565b6111b79190613edd565b90508160c0015160600151817f00000000000000000000000000000000000000000000000000000000000000006001600160a01b031663fa3036bf6040518163ffffffff1660e01b8152600401602060405180830381865afa158015611221573d6000803e3d6000fd5b505050506040513d601f19601f820116820180604052508101906112459190613e52565b7f00000000000000000000000000000000000000000000000000000000000000006001600160a01b031663bdb3a8706040518163ffffffff1660e01b8152600401602060405180830381865afa1580156112a3573d6000803e3d6000fd5b505050506040513d601f19601f820116820180604052508101906112c79190613e52565b8560c00151608001516112da9190613eb7565b6112e49190613eb7565b8460c00151602001516112f79190613f18565b6113019190613f18565b1115611339576040517f2994eb4300000000000000000000000000000000000000000000000000000000815260040160405180910390fd5b6000817f00000000000000000000000000000000000000000000000000000000000000006001600160a01b0316639bc271366040518163ffffffff1660e01b8152600401602060405180830381865afa15801561139a573d6000803e3d6000fd5b505050506040513d601f19601f820116820180604052508101906113be9190613e52565b7f00000000000000000000000000000000000000000000000000000000000000006001600160a01b031663e27a70856040518163ffffffff1660e01b8152600401602060405180830381865afa15801561141c573d6000803e3d6000fd5b505050506040513d601f19601f820116820180604052508101906114409190613e52565b856080015161144f9190613f18565b6114599190613eb7565b6114639190613f18565b9050808360c001516040015110156114a7576040517fe7b88e3500000000000000000000000000000000000000000000000000000000815260040160405180910390fd5b5050505b60008581526020818152604091829020600101869055905185815286917fe3d85a74b6d91487b5aecc2a9740a541debf4a95ac1c5c8f7bc285e06fdfab2b910160405180910390a25050505050565b6106fb81336128ba565b60008281527f02dd7bc7dec4dceedda775e58dd541e08a116c6c53815c0bd028192f7b626800602081815260408084206001600160a01b038616855290915282205460ff166115e7576000848152602082815260408083206001600160a01b0387168452909152902080547fffffffffffffffffffffffffffffffffffffffffffffffffffffffffffffff0016600117905561159d3390565b6001600160a01b0316836001600160a01b0316857f2f8788117e7eff1d82e926ec794901d17c78024a50270940304540a733656f0d60405160405180910390a460019150506104d4565b60009150506104d4565b60008281527f02dd7bc7dec4dceedda775e58dd541e08a116c6c53815c0bd028192f7b626800602081815260408084206001600160a01b038616855290915282205460ff16156115e7576000848152602082815260408083206001600160a01b038716808552925280832080547fffffffffffffffffffffffffffffffffffffffffffffffffffffffffffffff0016905551339287917ff6391f5c32d9c69d2a47ea670b442974b53935d1edc7fd64eb21e047a839171b9190a460019150506104d4565b6000828152602081905260409020600b01546001600160a01b0382811691161461170b576040517f818b695a00000000000000000000000000000000000000000000000000000000815260040160405180910390fd5b7f00000000000000000000000000000000000000000000000000000000000000006001600160a01b03166358a14ad26040518163ffffffff1660e01b8152600401602060405180830381865afa158015611769573d6000803e3d6000fd5b505050506040513d601f19601f8201168201806040525081019061178d9190613e52565b6000838152602081905260409020600101546117a99190613eb7565b42116117e1576040517f98c3b23400000000000000000000000000000000000000000000000000000000815260040160405180910390fd5b6000828152602081905260408120600881018054600983018054858555600185018690556002850186905560038501869055600485018690556005850180547fffffffffffffffffffffffff000000000000000000000000000000000000000090811690915560068601878155600787018890559487905591869055600a8501869055600b8501805483169055600c85018054909216909155600d8401859055909390929181611894600e8501826136f6565b5050505061192f83837f00000000000000000000000000000000000000000000000000000000000000006001600160a01b03166382bfefc86040518163ffffffff1660e01b8152600401602060405180830381865afa1580156118fb573d6000803e3d6000fd5b505050506040513d601f19601f8201168201806040525081019061191f9190613e6b565b6001600160a01b03169190612947565b6000836001600160a01b03168260405160006040518083038185875af1925050503d806000811461197c576040519150601f19603f3d011682016040523d82523d6000602084013e611981565b606091505b50509050836001600160a01b0316857f69226f5ca59c55570cd38107d930b90739a5031ee32fbc38cf08dd132354465a8585856040516119d69392919092835260208301919091521515604082015260600190565b60405180910390a35050505050565b6000838152602081905260409020600b01546001600160a01b0316611a36576040517f876c7f1600000000000000000000000000000000000000000000000000000000815260040160405180910390fd5b61065c8383836127c8565b306001600160a01b037f0000000000000000000000000000000000000000000000000000000000000000161480611ada57507f00000000000000000000000000000000000000000000000000000000000000006001600160a01b0316611ace7f360894a13ba1a3210667c828492db98dca3e2076cc3735a920a3ca505d382bbc546001600160a01b031690565b6001600160a01b031614155b15611b11576040517fe07c8dba00000000000000000000000000000000000000000000000000000000815260040160405180910390fd5b565b6000610709816114fa565b816001600160a01b03166352d1902d6040518163ffffffff1660e01b8152600401602060405180830381865afa925050508015611b78575060408051601f3d908101601f19168201909252611b7591810190613e52565b60015b611bbe576040517f4c9c8ce30000000000000000000000000000000000000000000000000000000081526001600160a01b03831660048201526024015b60405180910390fd5b7f360894a13ba1a3210667c828492db98dca3e2076cc3735a920a3ca505d382bbc8114611c1a576040517faa1d49a400000000000000000000000000000000000000000000000000000000815260048101829052602401611bb5565b61065c8383612978565b306001600160a01b037f00000000000000000000000000000000000000000000000000000000000000001614611b11576040517fe07c8dba00000000000000000000000000000000000000000000000000000000815260040160405180910390fd5b7fffffffffffffffffffffffffffffffff800000000000000000000000000000008616600081815260208181526040808320815160e08082018452825482526001830154828601526002830154828501526003830154606080840191909152600484015460808085019190915260058501546001600160a01b0390811660a080870191909152875161012081018952600688018054825260078901549a82019a909a52600888015498810198909852600987015493880193909352600a86015491870191909152600b850154811691860191909152600c8401541660c085810191909152600d84015491850191909152600e830180549295939491860193919261010084019190611d9690613c75565b80601f0160208091040260200160405190810160405280929190818152602001828054611dc290613c75565b8015611e0f5780601f10611de457610100808354040283529160200191611e0f565b820191906000526020600020905b815481529060010190602001808311611df257829003601f168201915b5050509190925250505090525060c081015160a001519091506001600160a01b0316611e67576040517f876c7f1600000000000000000000000000000000000000000000000000000000815260040160405180910390fd5b80516040820151600091611e7a91613f18565b60c083015151611e8a9190613eb7565b90507f00000000000000000000000000000000000000000000000000000000000000006001600160a01b03166358a14ad26040518163ffffffff1660e01b8152600401602060405180830381865afa158015611eea573d6000803e3d6000fd5b505050506040513d601f19601f82011682018060405250810190611f0e9190613e52565b611f189082613eb7565b421115611f51576040517f75b9f89300000000000000000000000000000000000000000000000000000000815260040160405180910390fd5b60408201516f7fffffffffffffffffffffffffffffff8a1690811015611fa3576040517fd4d1fc6900000000000000000000000000000000000000000000000000000000815260040160405180910390fd5b6000611fb58d8d8d8d8d8d8d8d6129ce565b9050611fc2826001613eb7565b60008681526020819052604080822060028101939093554260039093019290925590517ff6a17fe30000000000000000000000000000000000000000000000000000000081526001600160a01b0383811660048301527f0000000000000000000000000000000000000000000000000000000000000000169063f6a17fe390602401602060405180830381865afa158015612061573d6000803e3d6000fd5b505050506040513d601f19601f820116820180604052508101906120859190613e6b565b905061209a818a8760c0015160400151612d4d565b6000806120ae888860c001518f8f8e612edc565b9150915060003a7f00000000000000000000000000000000000000000000000000000000000000006001600160a01b031663bdb3a8706040518163ffffffff1660e01b8152600401602060405180830381865afa158015612113573d6000803e3d6000fd5b505050506040513d601f19601f820116820180604052508101906121379190613e52565b6121419084613eb7565b61214b9190613f18565b9050612160848960c001516060015183612ff0565b887f4177b56b43bdfa0b78d2a3c937d3d9b43803c0707df626aaa31235a3b6d2b8f38f8f8f8f888c4260405161219c9796959493929190613f2f565b60405180910390a25050505050505050505050505050505050565b611b1161308c565b612257817f00000000000000000000000000000000000000000000000000000000000000006001600160a01b03166358a14ad26040518163ffffffff1660e01b8152600401602060405180830381865afa158015612221573d6000803e3d6000fd5b505050506040513d601f19601f820116820180604052508101906122459190613e52565b61224f9042613eb7565b600080610e63565b60405181907f74316243c2e2fb2f84ee7bf4750a4499d76e9a6d59d64d193e4234372f5e2c2190600090a250565b6000846122928484613eca565b61229c9190613edd565b905034817f00000000000000000000000000000000000000000000000000000000000000006001600160a01b031663fa3036bf6040518163ffffffff1660e01b8152600401602060405180830381865afa1580156122fe573d6000803e3d6000fd5b505050506040513d601f19601f820116820180604052508101906123229190613e52565b7f00000000000000000000000000000000000000000000000000000000000000006001600160a01b031663bdb3a8706040518163ffffffff1660e01b8152600401602060405180830381865afa158015612380573d6000803e3d6000fd5b505050506040513d601f19601f820116820180604052508101906123a49190613e52565b6123ae908a613eb7565b6123b89190613eb7565b6123c2908a613f18565b6123cc9190613f18565b1115612404576040517f2994eb4300000000000000000000000000000000000000000000000000000000815260040160405180910390fd5b6000817f00000000000000000000000000000000000000000000000000000000000000006001600160a01b0316639bc271366040518163ffffffff1660e01b8152600401602060405180830381865afa158015612465573d6000803e3d6000fd5b505050506040513d601f19601f820116820180604052508101906124899190613e52565b7f00000000000000000000000000000000000000000000000000000000000000006001600160a01b031663e27a70856040518163ffffffff1660e01b8152600401602060405180830381865afa1580156124e7573d6000803e3d6000fd5b505050506040513d601f19601f8201168201806040525081019061250b9190613e52565b612515908c613f18565b61251f9190613eb7565b6125299190613f18565b905080851015612565576040517fe7b88e3500000000000000000000000000000000000000000000000000000000815260040160405180910390fd5b505050505050505050565b6125786130f3565b6040518060e001604052808581526020018381526020016000815260200160008152602001878152602001866001600160a01b03168152602001888152506000806001548152602001908152602001600020600082015181600001556020820151816001015560408201518160020155606082015181600301556080820151816004015560a08201518160050160006101000a8154816001600160a01b0302191690836001600160a01b0316021790555060c082015181600601600082015181600001556020820151816001015560408201518160020155606082015181600301556080820151816004015560a08201518160050160006101000a8154816001600160a01b0302191690836001600160a01b0316021790555060c08201518160060160006101000a8154816001600160a01b0302191690836001600160a01b0316021790555060e082015181600701556101008201518160080190816126de9190613f70565b505050905050806001600160a01b03166001547f4a8b714796e387ac5742bdfeb3278d2e5ff8fe58ec4bbdf13020711f7c9c1fd2868a60400151868b8b8e60e001518f61010001518c60405161273b98979695949392919061406c565b60405180910390a350505050505050565b6040516001600160a01b0384811660248301528381166044830152606482018390526106279186918216906323b872dd906084015b604051602081830303815290604052915060e01b6020820180517bffffffffffffffffffffffffffffffffffffffffffffffffffffffff8381831617835250505050613158565b61282c3330847f00000000000000000000000000000000000000000000000000000000000000006001600160a01b03166382bfefc86040518163ffffffff1660e01b8152600401602060405180830381865afa158015610e1e573d6000803e3d6000fd5b6000838152602081905260408120600801805484929061284d908490613eb7565b909155505060008381526020819052604081206009018054839290612873908490613eb7565b90915550506040805183815260208101839052339185917fe302ecb735de589d160f2840a80e52229c6d153f4e9d0c8bf81832eda174243c910160405180910390a3505050565b60008281527f02dd7bc7dec4dceedda775e58dd541e08a116c6c53815c0bd028192f7b626800602090815260408083206001600160a01b038516845290915290205460ff16610709576040517fe2517d3f0000000000000000000000000000000000000000000000000000000081526001600160a01b038216600482015260248101839052604401611bb5565b6040516001600160a01b0383811660248301526044820183905261065c91859182169063a9059cbb90606401612781565b612981826131d4565b6040516001600160a01b038316907fbc7cd75a20ee27fd9adebab32041f755214dbc6bffa90cc0225b39da2e5c2d3b90600090a28051156129c65761065c828261327c565b6107096132f2565b60007f00000000000000000000000000000000000000000000000000000000000000006001600160a01b0316639aec990e6040518163ffffffff1660e01b8152600401602060405180830381865afa158015612a2e573d6000803e3d6000fd5b505050506040513d601f19601f82011682018060405250810190612a529190613e52565b612a5c9083613eb7565b421115612a95576040517fb15e2e6700000000000000000000000000000000000000000000000000000000815260040160405180910390fd5b60007f00000000000000000000000000000000000000000000000000000000000000006001600160a01b031663051ce40a6040518163ffffffff1660e01b8152600401602060405180830381865afa158015612af5573d6000803e3d6000fd5b505050506040513d601f19601f82011682018060405250810190612b199190613e52565b888888604051612b2a9291906140c3565b60408051918290038220602083019490945281019190915260608101919091526080810186905260ff851660a082015260c0810184905260e00160408051601f1981840301815282825280516020918201207fb03948446334eb9b2196d5eb166f69b9d49403eb4a12f36de8d3f9f3cb8e15c3918401919091527f0d24a74f5d1859470484703a463a08f29714f90b23f20c2a12b12db1a288fdce918301919091527fc89efdaa54c0f20c7adf612882df0950f5a951637e0307cdcb4c672f298b8bc66060830152915060009060800160408051601f198184030181529082905280516020918201207f1901000000000000000000000000000000000000000000000000000000000000918301919091526022820152604281018390526062016040516020818303038152906040528051906020012090506000612ca68c8c8080601f016020809104026020016040519081016040528093929190818152602001838380828437600092019190915250869392505061332a9050565b6040517fa0ac45d50000000000000000000000000000000000000000000000000000000081526001600160a01b0380831660048301529192507f00000000000000000000000000000000000000000000000000000000000000009091169063a0ac45d59060240160006040518083038186803b158015612d2557600080fd5b505afa158015612d39573d6000803e3d6000fd5b50929e9d5050505050505050505050505050565b6000807f00000000000000000000000000000000000000000000000000000000000000006001600160a01b0316639bc271366040518163ffffffff1660e01b8152600401602060405180830381865afa158015612dae573d6000803e3d6000fd5b505050506040513d601f19601f82011682018060405250810190612dd29190613e52565b7f00000000000000000000000000000000000000000000000000000000000000006001600160a01b031663e27a70856040518163ffffffff1660e01b8152600401602060405180830381865afa158015612e30573d6000803e3d6000fd5b505050506040513d601f19601f82011682018060405250810190612e549190613e52565b85020191508183039050612ec185837f00000000000000000000000000000000000000000000000000000000000000006001600160a01b03166382bfefc86040518163ffffffff1660e01b8152600401602060405180830381865afa1580156118fb573d6000803e3d6000fd5b60015460009081526020819052604090206008015550505050565b60008085602001513a11612fe65760005a90508660c001516001600160a01b03168760800151898960a001518a60e001518b61010001518b8b8b604051602401612f2c97969594939291906140d3565b60408051601f198184030181529181526020820180517bffffffffffffffffffffffffffffffffffffffffffffffffffffffff167f9e24036d0000000000000000000000000000000000000000000000000000000017905251612f8f919061412c565b60006040518083038160008787f1925050503d8060008114612fcd576040519150601f19603f3d011682016040523d82523d6000602084013e612fd2565b606091505b50909350505a612fe29082613eca565b9150505b9550959350505050565b818111612ffd5780612fff565b815b90506000836001600160a01b03168260405160006040518083038185875af1925050503d806000811461304e576040519150601f19603f3d011682016040523d82523d6000602084013e613053565b606091505b5050905081600080600154815260200190815260200160002060060160030160008282546130819190613eca565b909155505050505050565b7ff0c57e16840df040f15088dc2f81fe391c3923bec73e23a9662efc9c229c6a005468010000000000000000900460ff16611b11576040517fd7e6bcf800000000000000000000000000000000000000000000000000000000815260040160405180910390fd5b6000607f600154901c67ffffffffffffffff1690508067ffffffffffffffff03613139574660c01b77800000000000000000000000000000000000000000000000176001555b607f6001901b600160008282546131509190613eb7565b909155505050565b600061316d6001600160a01b03841683613354565b905080516000141580156131925750808060200190518101906131909190614148565b155b1561065c576040517f5274afe70000000000000000000000000000000000000000000000000000000081526001600160a01b0384166004820152602401611bb5565b806001600160a01b03163b600003613223576040517f4c9c8ce30000000000000000000000000000000000000000000000000000000081526001600160a01b0382166004820152602401611bb5565b7f360894a13ba1a3210667c828492db98dca3e2076cc3735a920a3ca505d382bbc80547fffffffffffffffffffffffff0000000000000000000000000000000000000000166001600160a01b0392909216919091179055565b6060600080846001600160a01b031684604051613299919061412c565b600060405180830381855af49150503d80600081146132d4576040519150601f19603f3d011682016040523d82523d6000602084013e6132d9565b606091505b50915091506132e9858383613369565b95945050505050565b3415611b11576040517fb398979f00000000000000000000000000000000000000000000000000000000815260040160405180910390fd5b60008060008061333a86866133de565b92509250925061334a828261342b565b5090949350505050565b60606133628383600061352f565b9392505050565b60608261337e57613379826135e5565b613362565b815115801561339557506001600160a01b0384163b155b156133d7576040517f9996b3150000000000000000000000000000000000000000000000000000000081526001600160a01b0385166004820152602401611bb5565b5092915050565b600080600083516041036134185760208401516040850151606086015160001a61340a88828585613627565b955095509550505050613424565b50508151600091506002905b9250925092565b600082600381111561343f5761343f61416a565b03613448575050565b600182600381111561345c5761345c61416a565b03613493576040517ff645eedf00000000000000000000000000000000000000000000000000000000815260040160405180910390fd5b60028260038111156134a7576134a761416a565b036134e1576040517ffce698f700000000000000000000000000000000000000000000000000000000815260048101829052602401611bb5565b60038260038111156134f5576134f561416a565b03610709576040517fd78bce0c00000000000000000000000000000000000000000000000000000000815260048101829052602401611bb5565b60608147101561356d576040517fcd786059000000000000000000000000000000000000000000000000000000008152306004820152602401611bb5565b600080856001600160a01b03168486604051613589919061412c565b60006040518083038185875af1925050503d80600081146135c6576040519150601f19603f3d011682016040523d82523d6000602084013e6135cb565b606091505b50915091506135db868383613369565b9695505050505050565b8051156135f55780518082602001fd5b6040517f1425ea4200000000000000000000000000000000000000000000000000000000815260040160405180910390fd5b600080807f7fffffffffffffffffffffffffffffff5d576e7357a4501ddfe92f46681b20a084111561366257506000915060039050826136ec565b604080516000808252602082018084528a905260ff891692820192909252606081018790526080810186905260019060a0016020604051602081039080840390855afa1580156136b6573d6000803e3d6000fd5b5050604051601f1901519150506001600160a01b0381166136e2575060009250600191508290506136ec565b9250600091508190505b9450945094915050565b50805461370290613c75565b6000825580601f10613712575050565b601f0160209004906000526020600020908101906106fb91905b80821115613740576000815560010161372c565b5090565b60006020828403121561375657600080fd5b81357fffffffff000000000000000000000000000000000000000000000000000000008116811461336257600080fd5b60006020828403121561379857600080fd5b5035919050565b60005b838110156137ba5781810151838201526020016137a2565b50506000910152565b600081518084526137db81602086016020860161379f565b601f01601f19169290920160200192915050565b8781528660208201528560408201528460608201528360808201526001600160a01b03831660a082015260e060c0820152815160e08201526000602083015161010081818501526040850151915061012082818601526060860151610140860152608086015161016086015260a086015192506138786101808601846001600160a01b03169052565b60c08601516001600160a01b03166101a086015260e08601516101c0860152908501516101e085019190915290506138b46102008401826137c3565b9a9950505050505050505050565b60008083601f8401126138d457600080fd5b50813567ffffffffffffffff8111156138ec57600080fd5b60208301915083602082850101111561390457600080fd5b9250929050565b6000806000806060858703121561392157600080fd5b8435935060208501359250604085013567ffffffffffffffff81111561394657600080fd5b613952878288016138c2565b95989497509550505050565b6001600160a01b03811681146106fb57600080fd5b6000806000806000806000806000806000806101608d8f03121561399657600080fd5b8c359b5067ffffffffffffffff60208e013511156139b357600080fd5b6139c38e60208f01358f016138c2565b909b50995060408d0135985060608d0135975060808d01356139e48161395e565b965060a08d01356139f48161395e565b8096505060c08d0135945060e08d013593506101008d013592506101208d013591506101408d013590509295989b509295989b509295989b565b600080600060608486031215613a4357600080fd5b505081359360208301359350604090920135919050565b60008060408385031215613a6d57600080fd5b823591506020830135613a7f8161395e565b809150509250929050565b60008060408385031215613a9d57600080fd5b50508035926020909101359150565b7f4e487b7100000000000000000000000000000000000000000000000000000000600052604160045260246000fd5b60008060408385031215613aee57600080fd5b8235613af98161395e565b9150602083013567ffffffffffffffff80821115613b1657600080fd5b818501915085601f830112613b2a57600080fd5b813581811115613b3c57613b3c613aac565b604051601f8201601f19908116603f01168101908382118183101715613b6457613b64613aac565b81604052828152886020848701011115613b7d57600080fd5b8260208601602083013760006020848301015280955050505050509250929050565b60008060008060008060008060c0898b031215613bbb57600080fd5b883567ffffffffffffffff80821115613bd357600080fd5b613bdf8c838d016138c2565b909a50985060208b0135975060408b0135915080821115613bff57600080fd5b50613c0c8b828c016138c2565b90965094505060608901359250608089013560ff81168114613c2d57600080fd5b8092505060a089013590509295985092959890939650565b60208152600061336260208301846137c3565b600060208284031215613c6a57600080fd5b81356133628161395e565b600181811c90821680613c8957607f821691505b602082108103613cc2577f4e487b7100000000000000000000000000000000000000000000000000000000600052602260045260246000fd5b50919050565b601f82111561065c576000816000526020600020601f850160051c81016020861015613cf15750805b601f850160051c820191505b8181101561096d57828155600101613cfd565b67ffffffffffffffff831115613d2857613d28613aac565b613d3c83613d368354613c75565b83613cc8565b6000601f841160018114613d8e5760008515613d585750838201355b7fffffffffffffffffffffffffffffffffffffffffffffffffffffffffffffffff600387901b1c1916600186901b178355613e06565b600083815260209020601f19861690835b82811015613dbf5786850135825560209485019460019092019101613d9f565b5086821015613dfa577fffffffffffffffffffffffffffffffffffffffffffffffffffffffffffffffff60f88860031b161c19848701351681555b505060018560011b0183555b5050505050565b818352818160208501375060006020828401015260006020601f19601f840116840101905092915050565b8381526040602082015260006132e9604083018486613e0d565b600060208284031215613e6457600080fd5b5051919050565b600060208284031215613e7d57600080fd5b81516133628161395e565b7f4e487b7100000000000000000000000000000000000000000000000000000000600052601160045260246000fd5b808201808211156104d4576104d4613e88565b818103818111156104d4576104d4613e88565b600082613f13577f4e487b7100000000000000000000000000000000000000000000000000000000600052601260045260246000fd5b500490565b80820281158282048414176104d4576104d4613e88565b60c081526000613f4360c08301898b613e0d565b60208301979097525060ff9490941660408501529115156060840152608083015260a09091015292915050565b815167ffffffffffffffff811115613f8a57613f8a613aac565b613f9e81613f988454613c75565b84613cc8565b602080601f831160018114613ff15760008415613fbb5750858301515b7fffffffffffffffffffffffffffffffffffffffffffffffffffffffffffffffff600386901b1c1916600185901b17855561096d565b600085815260208120601f198616915b8281101561402057888601518255948401946001909101908401614001565b508582101561405c57878501517fffffffffffffffffffffffffffffffffffffffffffffffffffffffffffffffff600388901b60f8161c191681555b5050505050600190811b01905550565b60006101008a83528960208401528860408401528760608401526001600160a01b03871660808401528560a08401528060c08401526140ad818401866137c3565b9150508260e08301529998505050505050505050565b8183823760009101908152919050565b8781526001600160a01b038716602082015285604082015260c06060820152600061410160c08301876137c3565b8281036080840152614114818688613e0d565b91505060ff831660a083015298975050505050505050565b6000825161413e81846020870161379f565b9190910192915050565b60006020828403121561415a57600080fd5b8151801515811461336257600080fd5b7f4e487b7100000000000000000000000000000000000000000000000000000000600052602160045260246000fdfea26469706673582212208b00364773879bc53bfb7954f5dbaaaf0ee7ad44378255f22293b92e02fddd2c64736f6c63430008190033",
  "linkReferences": {},
  "deployedLinkReferences": {}
}