{
  "_format": "hh-sol-artifact-1",
  "contractName": "RelaySubscriptions",
  "sourceName": "contracts/serverless-v2/RelaySubscriptions.sol",
  "abi": [
    {
      "inputs": [
        {
          "internalType": "contract Relay",
          "name": "_relay",
          "type": "address"
        }
      ],
      "stateMutability": "nonpayable",
      "type": "constructor"
    },
    {
      "inputs": [],
      "name": "AccessControlBadConfirmation",
      "type": "error"
    },
    {
      "inputs": [
        {
          "internalType": "address",
          "name": "account",
          "type": "address"
        },
        {
          "internalType": "bytes32",
          "name": "neededRole",
          "type": "bytes32"
        }
      ],
      "name": "AccessControlUnauthorizedAccount",
      "type": "error"
    },
    {
      "inputs": [
        {
          "internalType": "address",
          "name": "target",
          "type": "address"
        }
      ],
      "name": "AddressEmptyCode",
      "type": "error"
    },
    {
      "inputs": [
        {
          "internalType": "address",
          "name": "account",
          "type": "address"
        }
      ],
      "name": "AddressInsufficientBalance",
      "type": "error"
    },
    {
      "inputs": [],
      "name": "ECDSAInvalidSignature",
      "type": "error"
    },
    {
      "inputs": [
        {
          "internalType": "uint256",
          "name": "length",
          "type": "uint256"
        }
      ],
      "name": "ECDSAInvalidSignatureLength",
      "type": "error"
    },
    {
      "inputs": [
        {
          "internalType": "bytes32",
          "name": "s",
          "type": "bytes32"
        }
      ],
      "name": "ECDSAInvalidSignatureS",
      "type": "error"
    },
    {
      "inputs": [
        {
          "internalType": "address",
          "name": "implementation",
          "type": "address"
        }
      ],
      "name": "ERC1967InvalidImplementation",
      "type": "error"
    },
    {
      "inputs": [],
      "name": "ERC1967NonPayable",
      "type": "error"
    },
    {
      "inputs": [],
      "name": "FailedInnerCall",
      "type": "error"
    },
    {
      "inputs": [],
      "name": "InvalidInitialization",
      "type": "error"
    },
    {
      "inputs": [],
      "name": "NotInitializing",
      "type": "error"
    },
    {
      "inputs": [],
      "name": "RelaySubscriptionsInsufficientCallbackDeposit",
      "type": "error"
    },
    {
      "inputs": [],
      "name": "RelaySubscriptionsInsufficientMaxGasPrice",
      "type": "error"
    },
    {
      "inputs": [],
      "name": "RelaySubscriptionsInsufficientUsdcDeposit",
      "type": "error"
    },
    {
      "inputs": [],
      "name": "RelaySubscriptionsInvalidCurrentRuns",
      "type": "error"
    },
    {
      "inputs": [],
      "name": "RelaySubscriptionsInvalidJobSubscription",
      "type": "error"
    },
    {
      "inputs": [],
      "name": "RelaySubscriptionsInvalidRelay",
      "type": "error"
    },
    {
      "inputs": [],
      "name": "RelaySubscriptionsInvalidStartTimestamp",
      "type": "error"
    },
    {
      "inputs": [],
      "name": "RelaySubscriptionsInvalidTerminationTimestamp",
      "type": "error"
    },
    {
      "inputs": [],
      "name": "RelaySubscriptionsInvalidUserTimeout",
      "type": "error"
    },
    {
      "inputs": [],
      "name": "RelaySubscriptionsJobSubscriptionTerminated",
      "type": "error"
    },
    {
      "inputs": [],
      "name": "RelaySubscriptionsNotJobSubscriptionOwner",
      "type": "error"
    },
    {
      "inputs": [],
      "name": "RelaySubscriptionsOverallTimeoutOver",
      "type": "error"
    },
    {
      "inputs": [],
      "name": "RelaySubscriptionsSignatureTooOld",
      "type": "error"
    },
    {
      "inputs": [],
      "name": "RelaySubscriptionsTerminationConditionPending",
      "type": "error"
    },
    {
      "inputs": [],
      "name": "RelaySubscriptionsUnsupportedEnv",
      "type": "error"
    },
    {
      "inputs": [],
      "name": "RelaySubscriptionsZeroAddressAdmin",
      "type": "error"
    },
    {
      "inputs": [
        {
          "internalType": "address",
          "name": "token",
          "type": "address"
        }
      ],
      "name": "SafeERC20FailedOperation",
      "type": "error"
    },
    {
      "inputs": [],
      "name": "UUPSUnauthorizedCallContext",
      "type": "error"
    },
    {
      "inputs": [
        {
          "internalType": "bytes32",
          "name": "slot",
          "type": "bytes32"
        }
      ],
      "name": "UUPSUnsupportedProxiableUUID",
      "type": "error"
    },
    {
      "anonymous": false,
      "inputs": [
        {
          "indexed": false,
          "internalType": "uint64",
          "name": "version",
          "type": "uint64"
        }
      ],
      "name": "Initialized",
      "type": "event"
    },
    {
      "anonymous": false,
      "inputs": [
        {
          "indexed": true,
          "internalType": "uint256",
          "name": "jobSubsId",
          "type": "uint256"
        },
        {
          "indexed": true,
          "internalType": "address",
          "name": "depositor",
          "type": "address"
        },
        {
          "indexed": false,
          "internalType": "uint256",
          "name": "usdcDeposit",
          "type": "uint256"
        },
        {
          "indexed": false,
          "internalType": "uint256",
          "name": "callbackDeposit",
          "type": "uint256"
        }
      ],
      "name": "JobSubscriptionFundsDeposited",
      "type": "event"
    },
    {
      "anonymous": false,
      "inputs": [
        {
          "indexed": true,
          "internalType": "uint256",
          "name": "jobSubsId",
          "type": "uint256"
        },
        {
          "indexed": true,
          "internalType": "address",
          "name": "withdrawer",
          "type": "address"
        },
        {
          "indexed": false,
          "internalType": "uint256",
          "name": "usdcAmountWithdrawn",
          "type": "uint256"
        },
        {
          "indexed": false,
          "internalType": "uint256",
          "name": "callbackAmountWithdrawn",
          "type": "uint256"
        },
        {
          "indexed": false,
          "internalType": "bool",
          "name": "success",
          "type": "bool"
        }
      ],
      "name": "JobSubscriptionFundsWithdrawn",
      "type": "event"
    },
    {
      "anonymous": false,
      "inputs": [
        {
          "indexed": true,
          "internalType": "uint256",
          "name": "jobSubsId",
          "type": "uint256"
        },
        {
          "indexed": false,
          "internalType": "bytes32",
          "name": "codehash",
          "type": "bytes32"
        },
        {
          "indexed": false,
          "internalType": "bytes",
          "name": "codeInputs",
          "type": "bytes"
        }
      ],
      "name": "JobSubscriptionJobParamsUpdated",
      "type": "event"
    },
    {
      "anonymous": false,
      "inputs": [
        {
          "indexed": true,
          "internalType": "uint256",
          "name": "jobSubsId",
          "type": "uint256"
        },
        {
          "indexed": false,
          "internalType": "bytes",
          "name": "output",
          "type": "bytes"
        },
        {
          "indexed": false,
          "internalType": "uint256",
          "name": "totalTime",
          "type": "uint256"
        },
        {
          "indexed": false,
          "internalType": "uint256",
          "name": "errorCode",
          "type": "uint256"
        },
        {
          "indexed": false,
          "internalType": "bool",
          "name": "success",
          "type": "bool"
        },
        {
          "indexed": false,
          "internalType": "uint256",
          "name": "currentRuns",
          "type": "uint256"
        },
        {
          "indexed": false,
          "internalType": "uint256",
          "name": "lastRunTimestamp",
          "type": "uint256"
        }
      ],
      "name": "JobSubscriptionResponded",
      "type": "event"
    },
    {
      "anonymous": false,
      "inputs": [
        {
          "indexed": true,
          "internalType": "uint256",
          "name": "jobSubsId",
          "type": "uint256"
        },
        {
          "indexed": true,
          "internalType": "uint8",
          "name": "env",
          "type": "uint8"
        },
        {
          "indexed": true,
          "internalType": "address",
          "name": "jobSubscriber",
          "type": "address"
        },
        {
          "indexed": false,
          "internalType": "uint256",
          "name": "periodicGap",
          "type": "uint256"
        },
        {
          "indexed": false,
          "internalType": "uint256",
          "name": "usdcDeposit",
          "type": "uint256"
        },
        {
          "indexed": false,
          "internalType": "uint256",
          "name": "terminationTimestamp",
          "type": "uint256"
        },
        {
          "indexed": false,
          "internalType": "uint256",
          "name": "userTimeout",
          "type": "uint256"
        },
        {
          "indexed": false,
          "internalType": "address",
          "name": "refundAccount",
          "type": "address"
        },
        {
          "indexed": false,
          "internalType": "bytes32",
          "name": "codehash",
          "type": "bytes32"
        },
        {
          "indexed": false,
          "internalType": "bytes",
          "name": "codeInputs",
          "type": "bytes"
        },
        {
          "indexed": false,
          "internalType": "uint256",
          "name": "startTime",
          "type": "uint256"
        }
      ],
      "name": "JobSubscriptionStarted",
      "type": "event"
    },
    {
      "anonymous": false,
      "inputs": [
        {
          "indexed": true,
          "internalType": "uint256",
          "name": "jobSubsId",
          "type": "uint256"
        }
      ],
      "name": "JobSubscriptionTerminated",
      "type": "event"
    },
    {
      "anonymous": false,
      "inputs": [
        {
          "indexed": true,
          "internalType": "uint256",
          "name": "jobSubsId",
          "type": "uint256"
        },
        {
          "indexed": false,
          "internalType": "uint256",
          "name": "terminationTimestamp",
          "type": "uint256"
        }
      ],
      "name": "JobSubscriptionTerminationParamsUpdated",
      "type": "event"
    },
    {
      "anonymous": false,
      "inputs": [
        {
          "indexed": true,
          "internalType": "bytes32",
          "name": "role",
          "type": "bytes32"
        },
        {
          "indexed": true,
          "internalType": "bytes32",
          "name": "previousAdminRole",
          "type": "bytes32"
        },
        {
          "indexed": true,
          "internalType": "bytes32",
          "name": "newAdminRole",
          "type": "bytes32"
        }
      ],
      "name": "RoleAdminChanged",
      "type": "event"
    },
    {
      "anonymous": false,
      "inputs": [
        {
          "indexed": true,
          "internalType": "bytes32",
          "name": "role",
          "type": "bytes32"
        },
        {
          "indexed": true,
          "internalType": "address",
          "name": "account",
          "type": "address"
        },
        {
          "indexed": true,
          "internalType": "address",
          "name": "sender",
          "type": "address"
        }
      ],
      "name": "RoleGranted",
      "type": "event"
    },
    {
      "anonymous": false,
      "inputs": [
        {
          "indexed": true,
          "internalType": "bytes32",
          "name": "role",
          "type": "bytes32"
        },
        {
          "indexed": true,
          "internalType": "address",
          "name": "account",
          "type": "address"
        },
        {
          "indexed": true,
          "internalType": "address",
          "name": "sender",
          "type": "address"
        }
      ],
      "name": "RoleRevoked",
      "type": "event"
    },
    {
      "anonymous": false,
      "inputs": [
        {
          "indexed": true,
          "internalType": "address",
          "name": "implementation",
          "type": "address"
        }
      ],
      "name": "Upgraded",
      "type": "event"
    },
    {
      "inputs": [],
      "name": "DEFAULT_ADMIN_ROLE",
      "outputs": [
        {
          "internalType": "bytes32",
          "name": "",
          "type": "bytes32"
        }
      ],
      "stateMutability": "view",
      "type": "function"
    },
    {
      "inputs": [],
      "name": "RELAY",
      "outputs": [
        {
          "internalType": "contract Relay",
          "name": "",
          "type": "address"
        }
      ],
      "stateMutability": "view",
      "type": "function"
    },
    {
      "inputs": [],
      "name": "UPGRADE_INTERFACE_VERSION",
      "outputs": [
        {
          "internalType": "string",
          "name": "",
          "type": "string"
        }
      ],
      "stateMutability": "view",
      "type": "function"
    },
    {
      "inputs": [
        {
          "internalType": "uint256",
          "name": "_jobSubsId",
          "type": "uint256"
        },
        {
          "internalType": "uint256",
          "name": "_usdcDeposit",
          "type": "uint256"
        }
      ],
      "name": "depositJobSubscriptionFunds",
      "outputs": [],
      "stateMutability": "payable",
      "type": "function"
    },
    {
      "inputs": [
        {
          "internalType": "bytes32",
          "name": "role",
          "type": "bytes32"
        }
      ],
      "name": "getRoleAdmin",
      "outputs": [
        {
          "internalType": "bytes32",
          "name": "",
          "type": "bytes32"
        }
      ],
      "stateMutability": "view",
      "type": "function"
    },
    {
      "inputs": [
        {
          "internalType": "bytes32",
          "name": "role",
          "type": "bytes32"
        },
        {
          "internalType": "address",
          "name": "account",
          "type": "address"
        }
      ],
      "name": "grantRole",
      "outputs": [],
      "stateMutability": "nonpayable",
      "type": "function"
    },
    {
      "inputs": [
        {
          "internalType": "bytes32",
          "name": "role",
          "type": "bytes32"
        },
        {
          "internalType": "address",
          "name": "account",
          "type": "address"
        }
      ],
      "name": "hasRole",
      "outputs": [
        {
          "internalType": "bool",
          "name": "",
          "type": "bool"
        }
      ],
      "stateMutability": "view",
      "type": "function"
    },
    {
      "inputs": [
        {
          "internalType": "address",
          "name": "_admin",
          "type": "address"
        }
      ],
      "name": "initialize",
      "outputs": [],
      "stateMutability": "nonpayable",
      "type": "function"
    },
    {
      "inputs": [],
      "name": "jobSubsCount",
      "outputs": [
        {
          "internalType": "uint256",
          "name": "",
          "type": "uint256"
        }
      ],
      "stateMutability": "view",
      "type": "function"
    },
    {
      "inputs": [
        {
          "internalType": "bytes",
          "name": "_signature",
          "type": "bytes"
        },
        {
          "internalType": "uint256",
          "name": "_jobId",
          "type": "uint256"
        },
        {
          "internalType": "bytes",
          "name": "_output",
          "type": "bytes"
        },
        {
          "internalType": "uint256",
          "name": "_totalTime",
          "type": "uint256"
        },
        {
          "internalType": "uint8",
          "name": "_errorCode",
          "type": "uint8"
        },
        {
          "internalType": "uint256",
          "name": "_signTimestamp",
          "type": "uint256"
        }
      ],
      "name": "jobSubsResponse",
      "outputs": [],
      "stateMutability": "nonpayable",
      "type": "function"
    },
    {
      "inputs": [
        {
          "internalType": "uint256",
          "name": "",
          "type": "uint256"
        }
      ],
      "name": "jobSubscriptions",
      "outputs": [
        {
          "internalType": "uint256",
          "name": "periodicGap",
          "type": "uint256"
        },
        {
          "internalType": "uint256",
          "name": "terminationTimestamp",
          "type": "uint256"
        },
        {
          "internalType": "uint256",
          "name": "currentRuns",
          "type": "uint256"
        },
        {
          "internalType": "uint256",
          "name": "lastRunTimestamp",
          "type": "uint256"
        },
        {
          "internalType": "uint256",
          "name": "userTimeout",
          "type": "uint256"
        },
        {
          "internalType": "address",
          "name": "refundAccount",
          "type": "address"
        },
        {
          "components": [
            {
              "internalType": "uint256",
              "name": "startTime",
              "type": "uint256"
            },
            {
              "internalType": "uint256",
              "name": "maxGasPrice",
              "type": "uint256"
            },
            {
              "internalType": "uint256",
              "name": "usdcDeposit",
              "type": "uint256"
            },
            {
              "internalType": "uint256",
              "name": "callbackDeposit",
              "type": "uint256"
            },
            {
              "internalType": "uint256",
              "name": "callbackGasLimit",
              "type": "uint256"
            },
            {
              "internalType": "address",
              "name": "jobOwner",
              "type": "address"
            },
            {
              "internalType": "address",
              "name": "callbackContract",
              "type": "address"
            },
            {
              "internalType": "uint8",
              "name": "env",
              "type": "uint8"
            },
            {
              "internalType": "bytes32",
              "name": "codehash",
              "type": "bytes32"
            },
            {
              "internalType": "bytes",
              "name": "codeInputs",
              "type": "bytes"
            }
          ],
          "internalType": "struct Relay.Job",
          "name": "job",
          "type": "tuple"
        }
      ],
      "stateMutability": "view",
      "type": "function"
    },
    {
      "inputs": [],
      "name": "proxiableUUID",
      "outputs": [
        {
          "internalType": "bytes32",
          "name": "",
          "type": "bytes32"
        }
      ],
      "stateMutability": "view",
      "type": "function"
    },
    {
      "inputs": [
        {
          "internalType": "bytes32",
          "name": "role",
          "type": "bytes32"
        },
        {
          "internalType": "address",
          "name": "callerConfirmation",
          "type": "address"
        }
      ],
      "name": "renounceRole",
      "outputs": [],
      "stateMutability": "nonpayable",
      "type": "function"
    },
    {
      "inputs": [
        {
          "internalType": "bytes32",
          "name": "role",
          "type": "bytes32"
        },
        {
          "internalType": "address",
          "name": "account",
          "type": "address"
        }
      ],
      "name": "revokeRole",
      "outputs": [],
      "stateMutability": "nonpayable",
      "type": "function"
    },
    {
      "inputs": [
        {
          "components": [
            {
              "internalType": "uint8",
              "name": "env",
              "type": "uint8"
            },
            {
              "internalType": "uint256",
              "name": "startTime",
              "type": "uint256"
            },
            {
              "internalType": "uint256",
              "name": "maxGasPrice",
              "type": "uint256"
            },
            {
              "internalType": "uint256",
              "name": "usdcDeposit",
              "type": "uint256"
            },
            {
              "internalType": "uint256",
              "name": "callbackGasLimit",
              "type": "uint256"
            },
            {
              "internalType": "address",
              "name": "callbackContract",
              "type": "address"
            },
            {
              "internalType": "bytes32",
              "name": "codehash",
              "type": "bytes32"
            },
            {
              "internalType": "bytes",
              "name": "codeInputs",
              "type": "bytes"
            },
            {
              "internalType": "uint256",
              "name": "periodicGap",
              "type": "uint256"
            },
            {
              "internalType": "uint256",
              "name": "terminationTimestamp",
              "type": "uint256"
            },
            {
              "internalType": "uint256",
              "name": "userTimeout",
              "type": "uint256"
            },
            {
              "internalType": "address",
              "name": "refundAccount",
              "type": "address"
            }
          ],
          "internalType": "struct RelaySubscriptions.JobSubscriptionParams",
          "name": "_jobSubsParams",
          "type": "tuple"
        }
      ],
      "name": "startJobSubscription",
      "outputs": [],
      "stateMutability": "payable",
      "type": "function"
    },
    {
      "inputs": [
        {
          "internalType": "bytes4",
          "name": "interfaceId",
          "type": "bytes4"
        }
      ],
      "name": "supportsInterface",
      "outputs": [
        {
          "internalType": "bool",
          "name": "",
          "type": "bool"
        }
      ],
      "stateMutability": "view",
      "type": "function"
    },
    {
      "inputs": [
        {
          "internalType": "uint256",
          "name": "_jobSubsId",
          "type": "uint256"
        }
      ],
      "name": "terminateJobSubscription",
      "outputs": [],
      "stateMutability": "nonpayable",
      "type": "function"
    },
    {
      "inputs": [
        {
          "internalType": "uint256",
          "name": "_jobSubsId",
          "type": "uint256"
        },
        {
          "internalType": "bytes32",
          "name": "_codehash",
          "type": "bytes32"
        },
        {
          "internalType": "bytes",
          "name": "_codeInputs",
          "type": "bytes"
        }
      ],
      "name": "updateJobSubsJobParams",
      "outputs": [],
      "stateMutability": "nonpayable",
      "type": "function"
    },
    {
      "inputs": [
        {
          "internalType": "uint256",
          "name": "_jobSubsId",
          "type": "uint256"
        },
        {
          "internalType": "uint256",
          "name": "_terminationTimestamp",
          "type": "uint256"
        },
        {
          "internalType": "uint256",
          "name": "_usdcDeposit",
          "type": "uint256"
        }
      ],
      "name": "updateJobSubsTerminationParams",
      "outputs": [],
      "stateMutability": "payable",
      "type": "function"
    },
    {
      "inputs": [
        {
          "internalType": "address",
          "name": "newImplementation",
          "type": "address"
        },
        {
          "internalType": "bytes",
          "name": "data",
          "type": "bytes"
        }
      ],
      "name": "upgradeToAndCall",
      "outputs": [],
      "stateMutability": "payable",
      "type": "function"
    },
    {
      "inputs": [
        {
          "internalType": "uint256",
          "name": "_jobSubsId",
          "type": "uint256"
        }
      ],
      "name": "withdrawJobSubsFunds",
      "outputs": [],
      "stateMutability": "nonpayable",
      "type": "function"
    }
  ],
  "bytecode": "0x60c06040523060805234801561001457600080fd5b506040516146ab3803806146ab83398101604081905261003391610125565b61003b610073565b6001600160a01b0381166100625760405163426f3a5f60e01b815260040160405180910390fd5b6001600160a01b031660a052610155565b7ff0c57e16840df040f15088dc2f81fe391c3923bec73e23a9662efc9c229c6a00805468010000000000000000900460ff16156100c35760405163f92ee8a960e01b815260040160405180910390fd5b80546001600160401b03908116146101225780546001600160401b0319166001600160401b0390811782556040519081527fc7f505b2f371ae2175ee4913f4499e1f2633a7b5936321eed1cdaeb6115181d29060200160405180910390a15b50565b60006020828403121561013757600080fd5b81516001600160a01b038116811461014e57600080fd5b9392505050565b60805160a05161446d61023e600039600081816102db015281816107a301528181610c4d01528181610f3001528181610fb2015281816110e20152818161115c015281816114ab0152818161165d01528181611c7001528181611dfc01528181611ea201528181612024015281816120b4015281816122a4015281816123430152818161240b01528181612650015281816127170152818161295f015281816129d001528181612a8101528181612b0501528181612d4b01528181612dcd01528181612eb20152612f6301526000818161180a0152818161183301526119ed015261446d6000f3fe60806040526004361061016a5760003560e01c80634f1ef286116100cb578063a217fddf1161007f578063c4d66de811610059578063c4d66de814610469578063d547741f14610489578063f2a9b01d146104a957600080fd5b8063a217fddf146103eb578063ad3cb1cc14610400578063ae9cbd201461045657600080fd5b80635b65c460116100b05780635b65c460146103505780638f8ce5f01461036657806391d148541461038657600080fd5b80634f1ef2861461032857806352d1902d1461033b57600080fd5b80632f2ff15d1161012257806339f811811161010757806339f81181146102a9578063423154c9146102c957806346a9f6d21461031557600080fd5b80632f2ff15d1461026957806336568abe1461028957600080fd5b806310d12e1f1161015357806310d12e1f146101d7578063248a9ca3146101f957806326cacd6f1461025657600080fd5b806301ffc9a71461016f57806304a11e96146101a4575b600080fd5b34801561017b57600080fd5b5061018f61018a36600461393a565b6104c9565b60405190151581526020015b60405180910390f35b3480156101b057600080fd5b506101c46101bf36600461397c565b6104da565b60405161019b97969594939291906139e5565b3480156101e357600080fd5b506101f76101f2366004613b11565b61063d565b005b34801561020557600080fd5b5061024861021436600461397c565b60009081527f02dd7bc7dec4dceedda775e58dd541e08a116c6c53815c0bd028192f7b626800602052604090206001015490565b60405190815260200161019b565b6101f7610264366004613b64565b61064f565b34801561027557600080fd5b506101f7610284366004613bb5565b610660565b34801561029557600080fd5b506101f76102a4366004613bb5565b6106a4565b3480156102b557600080fd5b506101f76102c436600461397c565b6106f0565b3480156102d557600080fd5b506102fd7f000000000000000000000000000000000000000000000000000000000000000081565b6040516001600160a01b03909116815260200161019b565b6101f7610323366004613be5565b6106fd565b6101f7610336366004613ced565b61070c565b34801561034757600080fd5b50610248610727565b34801561035c57600080fd5b5061024860015481565b34801561037257600080fd5b506101f7610381366004613d4e565b610756565b34801561039257600080fd5b5061018f6103a1366004613bb5565b60009182527f02dd7bc7dec4dceedda775e58dd541e08a116c6c53815c0bd028192f7b626800602090815260408084206001600160a01b0393909316845291905290205460ff1690565b3480156103f757600080fd5b50610248600081565b34801561040c57600080fd5b506104496040518060400160405280600581526020017f352e302e3000000000000000000000000000000000000000000000000000000081525081565b60405161019b9190613dea565b6101f7610464366004613dfd565b610770565b34801561047557600080fd5b506101f7610484366004613ef6565b610857565b34801561049557600080fd5b506101f76104a4366004613bb5565b610a5b565b3480156104b557600080fd5b506101f76104c436600461397c565b610a9f565b60006104d482610aa8565b92915050565b60006020818152918152604090819020805460018201546002830154600384015460048501546005860154875161014081018952600688018054825260078901549a82019a909a5260088801549881019890985260098701546060890152600a8701546080890152600b8701546001600160a01b0390811660a08a0152600c88015480821660c08b015274010000000000000000000000000000000000000000900460ff1660e08a0152600d8801546101008a0152600e88018054979a969995989497939691909216949290916101208401916105b690613f13565b80601f01602080910402602001604051908101604052809291908181526020018280546105e290613f13565b801561062f5780601f106106045761010080835404028352916020019161062f565b820191906000526020600020905b81548152906001019060200180831161061257829003601f168201915b505050505081525050905087565b61064984848484610b3f565b50505050565b61065b83838334610bf8565b505050565b60008281527f02dd7bc7dec4dceedda775e58dd541e08a116c6c53815c0bd028192f7b626800602052604090206001015461069a81611298565b61064983836112a2565b6001600160a01b03811633146106e6576040517f6697b23200000000000000000000000000000000000000000000000000000000815260040160405180910390fd5b61065b828261138f565b6106fa8133611453565b50565b6107088282346117a3565b5050565b6107146117ff565b61071d826118d1565b61070882826118dc565b60006107316119e2565b507f360894a13ba1a3210667c828492db98dca3e2076cc3735a920a3ca505d382bbc90565b6107668888888888888888611a44565b5050505050505050565b80516040517f156a962600000000000000000000000000000000000000000000000000000000815260ff821660048201527f00000000000000000000000000000000000000000000000000000000000000006001600160a01b03169063156a962690602401602060405180830381865afa1580156107f2573d6000803e3d6000fd5b505050506040513d601f19601f820116820180604052508101906108169190613f66565b61084c576040517fec6d1cdb00000000000000000000000000000000000000000000000000000000815260040160405180910390fd5b610708823433611fa2565b7ff0c57e16840df040f15088dc2f81fe391c3923bec73e23a9662efc9c229c6a00805468010000000000000000810460ff16159067ffffffffffffffff166000811580156108a25750825b905060008267ffffffffffffffff1660011480156108bf5750303b155b9050811580156108cd575080155b15610904576040517ff92ee8a900000000000000000000000000000000000000000000000000000000815260040160405180910390fd5b84547fffffffffffffffffffffffffffffffffffffffffffffffff000000000000000016600117855583156109655784547fffffffffffffffffffffffffffffffffffffffffffffff00ffffffffffffffff16680100000000000000001785555b6001600160a01b0386166109a5576040517ffabd722c00000000000000000000000000000000000000000000000000000000815260040160405180910390fd5b6109ad612335565b6109b5612335565b6109bd612335565b6109c5612335565b6109d06000876112a2565b504660c01b77800000000000000000000000000000000000000000000000176001558315610a535784547fffffffffffffffffffffffffffffffffffffffffffffff00ffffffffffffffff168555604051600181527fc7f505b2f371ae2175ee4913f4499e1f2633a7b5936321eed1cdaeb6115181d29060200160405180910390a15b505050505050565b60008281527f02dd7bc7dec4dceedda775e58dd541e08a116c6c53815c0bd028192f7b6268006020526040902060010154610a9581611298565b610649838361138f565b6106fa8161233d565b60007fffffffff0000000000000000000000000000000000000000000000000000000082167f7965db0b0000000000000000000000000000000000000000000000000000000014806104d457507f01ffc9a7000000000000000000000000000000000000000000000000000000007fffffffff000000000000000000000000000000000000000000000000000000008316146104d4565b6000848152602081905260409020600b01546001600160a01b03163314610b92576040517f818b695a00000000000000000000000000000000000000000000000000000000815260040160405180910390fd5b6000848152602081905260409020600d8101849055600e01610bb5828483613fd0565b50837f67cca598521e82ef0d9258a1aa68c73e39a1378e9b11f4fd23e9207ed7426d66848484604051610bea939291906140f8565b60405180910390a250505050565b6000848152602081905260409020600b01546001600160a01b03163314610c4b576040517f818b695a00000000000000000000000000000000000000000000000000000000815260040160405180910390fd5b7f00000000000000000000000000000000000000000000000000000000000000006001600160a01b03166358a14ad26040518163ffffffff1660e01b8152600401602060405180830381865afa158015610ca9573d6000803e3d6000fd5b505050506040513d601f19601f82011682018060405250810190610ccd9190614112565b610cd7904261415a565b831015610d10576040517f983dab6700000000000000000000000000000000000000000000000000000000815260040160405180910390fd5b60008481526020819052604090206001015442811015610d5c576040517f8451d06e00000000000000000000000000000000000000000000000000000000815260040160405180910390fd5b8084111561124957610d6f858484612403565b600085815260208181526040808320815160e08082018452825482526001830154828601526002830154828501526003830154606080840191909152600484015460808085019190915260058501546001600160a01b0390811660a080870191909152875161014081018952600688018054825260078901549a82019a909a52600888015498810198909852600987015493880193909352600a86015491870191909152600b850154811691860191909152600c84015490811660c0808701919091527401000000000000000000000000000000000000000090910460ff1691850191909152600d830154610100850152600e830180549295939491860193919261012084019190610e8090613f13565b80601f0160208091040260200160405190810160405280929190818152602001828054610eac90613f13565b8015610ef95780601f10610ece57610100808354040283529160200191610ef9565b820191906000526020600020905b815481529060010190602001808311610edc57829003601f168201915b505050919092525050509052508051909150600090610f18428861416d565b610f229190614180565b90508160c0015160600151817f00000000000000000000000000000000000000000000000000000000000000006001600160a01b031663fa3036bf6040518163ffffffff1660e01b8152600401602060405180830381865afa158015610f8c573d6000803e3d6000fd5b505050506040513d601f19601f82011682018060405250810190610fb09190614112565b7f00000000000000000000000000000000000000000000000000000000000000006001600160a01b031663bdb3a8706040518163ffffffff1660e01b8152600401602060405180830381865afa15801561100e573d6000803e3d6000fd5b505050506040513d601f19601f820116820180604052508101906110329190614112565b8560c0015160800151611045919061415a565b61104f919061415a565b8460c001516020015161106291906141bb565b61106c91906141bb565b11156110a4576040517f2994eb4300000000000000000000000000000000000000000000000000000000815260040160405180910390fd5b60c082015160e001516040517fc50d525d00000000000000000000000000000000000000000000000000000000815260ff90911660048201526000907f00000000000000000000000000000000000000000000000000000000000000006001600160a01b03169063c50d525d90602401602060405180830381865afa158015611131573d6000803e3d6000fd5b505050506040513d601f19601f820116820180604052508101906111559190614112565b90506000827f00000000000000000000000000000000000000000000000000000000000000006001600160a01b0316639bc271366040518163ffffffff1660e01b8152600401602060405180830381865afa1580156111b8573d6000803e3d6000fd5b505050506040513d601f19601f820116820180604052508101906111dc9190614112565b8386608001516111ec91906141bb565b6111f6919061415a565b61120091906141bb565b9050808460c00151604001511015611244576040517fe7b88e3500000000000000000000000000000000000000000000000000000000815260040160405180910390fd5b505050505b60008581526020818152604091829020600101869055905185815286917fe3d85a74b6d91487b5aecc2a9740a541debf4a95ac1c5c8f7bc285e06fdfab2b910160405180910390a25050505050565b6106fa81336124f5565b60008281527f02dd7bc7dec4dceedda775e58dd541e08a116c6c53815c0bd028192f7b626800602081815260408084206001600160a01b038616855290915282205460ff16611385576000848152602082815260408083206001600160a01b0387168452909152902080547fffffffffffffffffffffffffffffffffffffffffffffffffffffffffffffff0016600117905561133b3390565b6001600160a01b0316836001600160a01b0316857f2f8788117e7eff1d82e926ec794901d17c78024a50270940304540a733656f0d60405160405180910390a460019150506104d4565b60009150506104d4565b60008281527f02dd7bc7dec4dceedda775e58dd541e08a116c6c53815c0bd028192f7b626800602081815260408084206001600160a01b038616855290915282205460ff1615611385576000848152602082815260408083206001600160a01b038716808552925280832080547fffffffffffffffffffffffffffffffffffffffffffffffffffffffffffffff0016905551339287917ff6391f5c32d9c69d2a47ea670b442974b53935d1edc7fd64eb21e047a839171b9190a460019150506104d4565b6000828152602081905260409020600b01546001600160a01b038281169116146114a9576040517f818b695a00000000000000000000000000000000000000000000000000000000815260040160405180910390fd5b7f00000000000000000000000000000000000000000000000000000000000000006001600160a01b03166358a14ad26040518163ffffffff1660e01b8152600401602060405180830381865afa158015611507573d6000803e3d6000fd5b505050506040513d601f19601f8201168201806040525081019061152b9190614112565b600083815260208190526040902060010154611547919061415a565b421161157f576040517f98c3b23400000000000000000000000000000000000000000000000000000000815260040160405180910390fd5b6000828152602081905260408120600881018054600983018054858555600185018690556002850186905560038501869055600485018690556005850180547fffffffffffffffffffffffff000000000000000000000000000000000000000090811690915560068601878155600787018890559487905591869055600a8501869055600b85018054909216909155600c840180547fffffffffffffffffffffff000000000000000000000000000000000000000000169055600d8401859055909390929181611652600e8501826138ec565b505050506116ed83837f00000000000000000000000000000000000000000000000000000000000000006001600160a01b03166382bfefc86040518163ffffffff1660e01b8152600401602060405180830381865afa1580156116b9573d6000803e3d6000fd5b505050506040513d601f19601f820116820180604052508101906116dd91906141d2565b6001600160a01b03169190612582565b6000836001600160a01b03168260405160006040518083038185875af1925050503d806000811461173a576040519150601f19603f3d011682016040523d82523d6000602084013e61173f565b606091505b50509050836001600160a01b0316857f69226f5ca59c55570cd38107d930b90739a5031ee32fbc38cf08dd132354465a8585856040516117949392919092835260208301919091521515604082015260600190565b60405180910390a35050505050565b6000838152602081905260409020600b01546001600160a01b03166117f4576040517f876c7f1600000000000000000000000000000000000000000000000000000000815260040160405180910390fd5b61065b838383612403565b306001600160a01b037f000000000000000000000000000000000000000000000000000000000000000016148061189857507f00000000000000000000000000000000000000000000000000000000000000006001600160a01b031661188c7f360894a13ba1a3210667c828492db98dca3e2076cc3735a920a3ca505d382bbc546001600160a01b031690565b6001600160a01b031614155b156118cf576040517fe07c8dba00000000000000000000000000000000000000000000000000000000815260040160405180910390fd5b565b600061070881611298565b816001600160a01b03166352d1902d6040518163ffffffff1660e01b8152600401602060405180830381865afa925050508015611936575060408051601f3d908101601f1916820190925261193391810190614112565b60015b61197c576040517f4c9c8ce30000000000000000000000000000000000000000000000000000000081526001600160a01b03831660048201526024015b60405180910390fd5b7f360894a13ba1a3210667c828492db98dca3e2076cc3735a920a3ca505d382bbc81146119d8576040517faa1d49a400000000000000000000000000000000000000000000000000000000815260048101829052602401611973565b61065b83836125f6565b306001600160a01b037f000000000000000000000000000000000000000000000000000000000000000016146118cf576040517fe07c8dba00000000000000000000000000000000000000000000000000000000815260040160405180910390fd5b7fffffffffffffffffffffffffffffffff800000000000000000000000000000008616600081815260208181526040808320815160e08082018452825482526001830154828601526002830154828501526003830154606080840191909152600484015460808085019190915260058501546001600160a01b0390811660a080870191909152875161014081018952600688018054825260078901549a82019a909a52600888015498810198909852600987015493880193909352600a86015491870191909152600b850154811691860191909152600c84015490811660c0808701919091527401000000000000000000000000000000000000000090910460ff1691850191909152600d830154610100850152600e830180549295939491860193919261012084019190611b7890613f13565b80601f0160208091040260200160405190810160405280929190818152602001828054611ba490613f13565b8015611bf15780601f10611bc657610100808354040283529160200191611bf1565b820191906000526020600020905b815481529060010190602001808311611bd457829003601f168201915b5050509190925250505090525060c081015160a001519091506001600160a01b0316611c49576040517f876c7f1600000000000000000000000000000000000000000000000000000000815260040160405180910390fd5b80516040820151600091611c5c916141bb565b60c083015151611c6c919061415a565b90507f00000000000000000000000000000000000000000000000000000000000000006001600160a01b03166358a14ad26040518163ffffffff1660e01b8152600401602060405180830381865afa158015611ccc573d6000803e3d6000fd5b505050506040513d601f19601f82011682018060405250810190611cf09190614112565b611cfa908261415a565b421115611d33576040517f75b9f89300000000000000000000000000000000000000000000000000000000815260040160405180910390fd5b60408201516f7fffffffffffffffffffffffffffffff8a1690811015611d85576040517fd4d1fc6900000000000000000000000000000000000000000000000000000000815260040160405180910390fd5b6000611d978d8d8d8d8d8d8d8d61264c565b9050611da482600161415a565b60008681526020819052604080822060028101939093554260039093019290925590517ff6a17fe30000000000000000000000000000000000000000000000000000000081526001600160a01b0383811660048301527f0000000000000000000000000000000000000000000000000000000000000000169063f6a17fe390602401602060405180830381865afa158015611e43573d6000803e3d6000fd5b505050506040513d601f19601f82011682018060405250810190611e6791906141d2565b9050611e858560c0015160e00151828b8860c00151604001516129cb565b600080611e99888860c001518f8f8e612b7d565b9150915060003a7f00000000000000000000000000000000000000000000000000000000000000006001600160a01b031663bdb3a8706040518163ffffffff1660e01b8152600401602060405180830381865afa158015611efe573d6000803e3d6000fd5b505050506040513d601f19601f82011682018060405250810190611f229190614112565b611f2c908461415a565b611f3691906141bb565b9050611f4b848960c001516060015183612c92565b887f4177b56b43bdfa0b78d2a3c937d3d9b43803c0707df626aaa31235a3b6d2b8f38f8f8f8f888c42604051611f8797969594939291906141ef565b60405180910390a25050505050505050505050505050505050565b826101200151836020015110611fe4576040517fdbedfa2e00000000000000000000000000000000000000000000000000000000815260040160405180910390fd5b4283610120015111612022576040517f983dab6700000000000000000000000000000000000000000000000000000000815260040160405180910390fd5b7f00000000000000000000000000000000000000000000000000000000000000006001600160a01b0316631e3708df6040518163ffffffff1660e01b8152600401602060405180830381865afa158015612080573d6000803e3d6000fd5b505050506040513d601f19601f820116820180604052508101906120a49190614112565b83610140015111158061213d57507f00000000000000000000000000000000000000000000000000000000000000006001600160a01b031663e29fcdc56040518163ffffffff1660e01b8152600401602060405180830381865afa158015612110573d6000803e3d6000fd5b505050506040513d601f19601f820116820180604052508101906121349190614112565b83610140015110155b15612174576040517fb0cef88200000000000000000000000000000000000000000000000000000000815260040160405180910390fd5b3a836040015110156121b2576040517fe14c8d6b00000000000000000000000000000000000000000000000000000000815260040160405180910390fd5b42836020015110156121c5574260208401525b6121f8836000015184610140015185604001518660800151876101000151886060015189602001518a6101200151612d2e565b600060405180610140016040528085602001518152602001856040015181526020018560600151815260200184815260200185608001518152602001836001600160a01b031681526020018560a001516001600160a01b03168152602001856000015160ff1681526020018560c0015181526020018560e0015181525090506122988185610140015186610160015187610100015188610120015161303c565b610649823086606001517f00000000000000000000000000000000000000000000000000000000000000006001600160a01b03166382bfefc86040518163ffffffff1660e01b8152600401602060405180830381865afa158015612300573d6000803e3d6000fd5b505050506040513d601f19601f8201168201806040525081019061232491906141d2565b6001600160a01b0316929190613249565b6118cf613282565b6123d5817f00000000000000000000000000000000000000000000000000000000000000006001600160a01b03166358a14ad26040518163ffffffff1660e01b8152600401602060405180830381865afa15801561239f573d6000803e3d6000fd5b505050506040513d601f19601f820116820180604052508101906123c39190614112565b6123cd904261415a565b600080610bf8565b60405181907f74316243c2e2fb2f84ee7bf4750a4499d76e9a6d59d64d193e4234372f5e2c2190600090a250565b6124673330847f00000000000000000000000000000000000000000000000000000000000000006001600160a01b03166382bfefc86040518163ffffffff1660e01b8152600401602060405180830381865afa158015612300573d6000803e3d6000fd5b6000838152602081905260408120600801805484929061248890849061415a565b9091555050600083815260208190526040812060090180548392906124ae90849061415a565b90915550506040805183815260208101839052339185917fe302ecb735de589d160f2840a80e52229c6d153f4e9d0c8bf81832eda174243c910160405180910390a3505050565b60008281527f02dd7bc7dec4dceedda775e58dd541e08a116c6c53815c0bd028192f7b626800602090815260408083206001600160a01b038516845290915290205460ff16610708576040517fe2517d3f0000000000000000000000000000000000000000000000000000000081526001600160a01b038216600482015260248101839052604401611973565b6040516001600160a01b0383811660248301526044820183905261065b91859182169063a9059cbb906064015b604051602081830303815290604052915060e01b6020820180517bffffffffffffffffffffffffffffffffffffffffffffffffffffffff83818316178352505050506132e9565b6125ff82613365565b6040516001600160a01b038316907fbc7cd75a20ee27fd9adebab32041f755214dbc6bffa90cc0225b39da2e5c2d3b90600090a28051156126445761065b828261340d565b610708613483565b60007f00000000000000000000000000000000000000000000000000000000000000006001600160a01b0316639aec990e6040518163ffffffff1660e01b8152600401602060405180830381865afa1580156126ac573d6000803e3d6000fd5b505050506040513d601f19601f820116820180604052508101906126d09190614112565b6126da908361415a565b421115612713576040517fb15e2e6700000000000000000000000000000000000000000000000000000000815260040160405180910390fd5b60007f00000000000000000000000000000000000000000000000000000000000000006001600160a01b031663051ce40a6040518163ffffffff1660e01b8152600401602060405180830381865afa158015612773573d6000803e3d6000fd5b505050506040513d601f19601f820116820180604052508101906127979190614112565b8888886040516127a8929190614230565b60408051918290038220602083019490945281019190915260608101919091526080810186905260ff851660a082015260c0810184905260e00160408051601f1981840301815282825280516020918201207fb03948446334eb9b2196d5eb166f69b9d49403eb4a12f36de8d3f9f3cb8e15c3918401919091527f0d24a74f5d1859470484703a463a08f29714f90b23f20c2a12b12db1a288fdce918301919091527fc89efdaa54c0f20c7adf612882df0950f5a951637e0307cdcb4c672f298b8bc66060830152915060009060800160408051601f198184030181529082905280516020918201207f19010000000000000000000000000000000000000000000000000000000000009183019190915260228201526042810183905260620160405160208183030381529060405280519060200120905060006129248c8c8080601f01602080910402602001604051908101604052809392919081815260200183838082843760009201919091525086939250506134bb9050565b6040517fa0ac45d50000000000000000000000000000000000000000000000000000000081526001600160a01b0380831660048301529192507f00000000000000000000000000000000000000000000000000000000000000009091169063a0ac45d59060240160006040518083038186803b1580156129a357600080fd5b505afa1580156129b7573d6000803e3d6000fd5b50929e9d5050505050505050505050505050565b6000807f00000000000000000000000000000000000000000000000000000000000000006001600160a01b0316639bc271366040518163ffffffff1660e01b8152600401602060405180830381865afa158015612a2c573d6000803e3d6000fd5b505050506040513d601f19601f82011682018060405250810190612a509190614112565b6040517fc50d525d00000000000000000000000000000000000000000000000000000000815260ff881660048201527f00000000000000000000000000000000000000000000000000000000000000006001600160a01b03169063c50d525d90602401602060405180830381865afa158015612ad0573d6000803e3d6000fd5b505050506040513d601f19601f82011682018060405250810190612af49190614112565b85020191508183039050612b6185837f00000000000000000000000000000000000000000000000000000000000000006001600160a01b03166382bfefc86040518163ffffffff1660e01b8152600401602060405180830381865afa1580156116b9573d6000803e3d6000fd5b6001546000908152602081905260409020600801555050505050565b60008085602001513a11612c885760005a90508660c001516001600160a01b03168760800151898960a001518a61010001518b61012001518b8b8b604051602401612bce9796959493929190614240565b60408051601f198184030181529181526020820180517bffffffffffffffffffffffffffffffffffffffffffffffffffffffff167f9e24036d0000000000000000000000000000000000000000000000000000000017905251612c319190614299565b60006040518083038160008787f1925050503d8060008114612c6f576040519150601f19603f3d011682016040523d82523d6000602084013e612c74565b606091505b50909350505a612c84908261416d565b9150505b9550959350505050565b818111612c9f5780612ca1565b815b90506000836001600160a01b03168260405160006040518083038185875af1925050503d8060008114612cf0576040519150601f19603f3d011682016040523d82523d6000602084013e612cf5565b606091505b505090508160008060015481526020019081526020016000206006016003016000828254612d23919061416d565b909155505050505050565b600084612d3b848461416d565b612d459190614180565b905034817f00000000000000000000000000000000000000000000000000000000000000006001600160a01b031663fa3036bf6040518163ffffffff1660e01b8152600401602060405180830381865afa158015612da7573d6000803e3d6000fd5b505050506040513d601f19601f82011682018060405250810190612dcb9190614112565b7f00000000000000000000000000000000000000000000000000000000000000006001600160a01b031663bdb3a8706040518163ffffffff1660e01b8152600401602060405180830381865afa158015612e29573d6000803e3d6000fd5b505050506040513d601f19601f82011682018060405250810190612e4d9190614112565b612e57908a61415a565b612e61919061415a565b612e6b908a6141bb565b612e7591906141bb565b1115612ead576040517f2994eb4300000000000000000000000000000000000000000000000000000000815260040160405180910390fd5b6000817f00000000000000000000000000000000000000000000000000000000000000006001600160a01b0316639bc271366040518163ffffffff1660e01b8152600401602060405180830381865afa158015612f0e573d6000803e3d6000fd5b505050506040513d601f19601f82011682018060405250810190612f329190614112565b6040517fc50d525d00000000000000000000000000000000000000000000000000000000815260ff8d1660048201527f00000000000000000000000000000000000000000000000000000000000000006001600160a01b03169063c50d525d90602401602060405180830381865afa158015612fb2573d6000803e3d6000fd5b505050506040513d601f19601f82011682018060405250810190612fd69190614112565b612fe0908c6141bb565b612fea919061415a565b612ff491906141bb565b905080851015613030576040517fe7b88e3500000000000000000000000000000000000000000000000000000000815260040160405180910390fd5b50505050505050505050565b6130446134e5565b6040518060e001604052808381526020018281526020016000815260200160008152602001858152602001846001600160a01b03168152602001868152506000806001548152602001908152602001600020600082015181600001556020820151816001015560408201518160020155606082015181600301556080820151816004015560a08201518160050160006101000a8154816001600160a01b0302191690836001600160a01b0316021790555060c082015181600601600082015181600001556020820151816001015560408201518160020155606082015181600301556080820151816004015560a08201518160050160006101000a8154816001600160a01b0302191690836001600160a01b0316021790555060c08201518160060160006101000a8154816001600160a01b0302191690836001600160a01b0316021790555060e08201518160060160146101000a81548160ff021916908360ff16021790555061010082015181600701556101208201518160080190816131cc91906142b5565b5050509050508460a001516001600160a01b03168560e0015160ff166001547f3b69aeaae9699ee6479385c59bdf265ef0d39b1254a1c9363231e122a520ba93858960400151868a8a8d61010001518e61012001518f6000015160405161323a9897969594939291906143b1565b60405180910390a45050505050565b6040516001600160a01b0384811660248301528381166044830152606482018390526106499186918216906323b872dd906084016125af565b7ff0c57e16840df040f15088dc2f81fe391c3923bec73e23a9662efc9c229c6a005468010000000000000000900460ff166118cf576040517fd7e6bcf800000000000000000000000000000000000000000000000000000000815260040160405180910390fd5b60006132fe6001600160a01b0384168361354a565b905080516000141580156133235750808060200190518101906133219190613f66565b155b1561065b576040517f5274afe70000000000000000000000000000000000000000000000000000000081526001600160a01b0384166004820152602401611973565b806001600160a01b03163b6000036133b4576040517f4c9c8ce30000000000000000000000000000000000000000000000000000000081526001600160a01b0382166004820152602401611973565b7f360894a13ba1a3210667c828492db98dca3e2076cc3735a920a3ca505d382bbc80547fffffffffffffffffffffffff0000000000000000000000000000000000000000166001600160a01b0392909216919091179055565b6060600080846001600160a01b03168460405161342a9190614299565b600060405180830381855af49150503d8060008114613465576040519150601f19603f3d011682016040523d82523d6000602084013e61346a565b606091505b509150915061347a85838361355f565b95945050505050565b34156118cf576040517fb398979f00000000000000000000000000000000000000000000000000000000815260040160405180910390fd5b6000806000806134cb86866135d4565b9250925092506134db8282613621565b5090949350505050565b6000607f600154901c67ffffffffffffffff1690508067ffffffffffffffff0361352b574660c01b77800000000000000000000000000000000000000000000000176001555b607f6001901b60016000828254613542919061415a565b909155505050565b606061355883836000613725565b9392505050565b6060826135745761356f826137db565b613558565b815115801561358b57506001600160a01b0384163b155b156135cd576040517f9996b3150000000000000000000000000000000000000000000000000000000081526001600160a01b0385166004820152602401611973565b5092915050565b6000806000835160410361360e5760208401516040850151606086015160001a6136008882858561381d565b95509550955050505061361a565b50508151600091506002905b9250925092565b600082600381111561363557613635614408565b0361363e575050565b600182600381111561365257613652614408565b03613689576040517ff645eedf00000000000000000000000000000000000000000000000000000000815260040160405180910390fd5b600282600381111561369d5761369d614408565b036136d7576040517ffce698f700000000000000000000000000000000000000000000000000000000815260048101829052602401611973565b60038260038111156136eb576136eb614408565b03610708576040517fd78bce0c00000000000000000000000000000000000000000000000000000000815260048101829052602401611973565b606081471015613763576040517fcd786059000000000000000000000000000000000000000000000000000000008152306004820152602401611973565b600080856001600160a01b0316848660405161377f9190614299565b60006040518083038185875af1925050503d80600081146137bc576040519150601f19603f3d011682016040523d82523d6000602084013e6137c1565b606091505b50915091506137d186838361355f565b9695505050505050565b8051156137eb5780518082602001fd5b6040517f1425ea4200000000000000000000000000000000000000000000000000000000815260040160405180910390fd5b600080807f7fffffffffffffffffffffffffffffff5d576e7357a4501ddfe92f46681b20a084111561385857506000915060039050826138e2565b604080516000808252602082018084528a905260ff891692820192909252606081018790526080810186905260019060a0016020604051602081039080840390855afa1580156138ac573d6000803e3d6000fd5b5050604051601f1901519150506001600160a01b0381166138d8575060009250600191508290506138e2565b9250600091508190505b9450945094915050565b5080546138f890613f13565b6000825580601f10613908575050565b601f0160209004906000526020600020908101906106fa91905b808211156139365760008155600101613922565b5090565b60006020828403121561394c57600080fd5b81357fffffffff000000000000000000000000000000000000000000000000000000008116811461355857600080fd5b60006020828403121561398e57600080fd5b5035919050565b60005b838110156139b0578181015183820152602001613998565b50506000910152565b600081518084526139d1816020860160208601613995565b601f01601f19169290920160200192915050565b8781528660208201528560408201528460608201528360808201526001600160a01b03831660a082015260e060c0820152815160e0820152600060208301516101008181850152604085015191506101208281860152606086015192506101408381870152608087015161016087015260a08701519350613a726101808701856001600160a01b03169052565b60c08701516001600160a01b03166101a087015260e087015160ff166101c0870152918601516101e08601528501516102008501919091529050613aba6102208401826139b9565b9a9950505050505050505050565b60008083601f840112613ada57600080fd5b50813567ffffffffffffffff811115613af257600080fd5b602083019150836020828501011115613b0a57600080fd5b9250929050565b60008060008060608587031215613b2757600080fd5b8435935060208501359250604085013567ffffffffffffffff811115613b4c57600080fd5b613b5887828801613ac8565b95989497509550505050565b600080600060608486031215613b7957600080fd5b505081359360208301359350604090920135919050565b6001600160a01b03811681146106fa57600080fd5b8035613bb081613b90565b919050565b60008060408385031215613bc857600080fd5b823591506020830135613bda81613b90565b809150509250929050565b60008060408385031215613bf857600080fd5b50508035926020909101359150565b7f4e487b7100000000000000000000000000000000000000000000000000000000600052604160045260246000fd5b604051610180810167ffffffffffffffff81118282101715613c5a57613c5a613c07565b60405290565b600082601f830112613c7157600080fd5b813567ffffffffffffffff80821115613c8c57613c8c613c07565b604051601f8301601f19908116603f01168101908282118183101715613cb457613cb4613c07565b81604052838152866020858801011115613ccd57600080fd5b836020870160208301376000602085830101528094505050505092915050565b60008060408385031215613d0057600080fd5b8235613d0b81613b90565b9150602083013567ffffffffffffffff811115613d2757600080fd5b613d3385828601613c60565b9150509250929050565b803560ff81168114613bb057600080fd5b60008060008060008060008060c0898b031215613d6a57600080fd5b883567ffffffffffffffff80821115613d8257600080fd5b613d8e8c838d01613ac8565b909a50985060208b0135975060408b0135915080821115613dae57600080fd5b50613dbb8b828c01613ac8565b90965094505060608901359250613dd460808a01613d3d565b915060a089013590509295985092959890939650565b60208152600061355860208301846139b9565b600060208284031215613e0f57600080fd5b813567ffffffffffffffff80821115613e2757600080fd5b908301906101808286031215613e3c57600080fd5b613e44613c36565b613e4d83613d3d565b815260208301356020820152604083013560408201526060830135606082015260808301356080820152613e8360a08401613ba5565b60a082015260c083013560c082015260e083013582811115613ea457600080fd5b613eb087828601613c60565b60e0830152506101008381013590820152610120808401359082015261014080840135908201526101609150613ee7828401613ba5565b91810191909152949350505050565b600060208284031215613f0857600080fd5b813561355881613b90565b600181811c90821680613f2757607f821691505b602082108103613f60577f4e487b7100000000000000000000000000000000000000000000000000000000600052602260045260246000fd5b50919050565b600060208284031215613f7857600080fd5b8151801515811461355857600080fd5b601f82111561065b576000816000526020600020601f850160051c81016020861015613fb15750805b601f850160051c820191505b81811015610a5357828155600101613fbd565b67ffffffffffffffff831115613fe857613fe8613c07565b613ffc83613ff68354613f13565b83613f88565b6000601f84116001811461404e57600085156140185750838201355b7fffffffffffffffffffffffffffffffffffffffffffffffffffffffffffffffff600387901b1c1916600186901b1783556140c6565b600083815260209020601f19861690835b8281101561407f578685013582556020948501946001909201910161405f565b50868210156140ba577fffffffffffffffffffffffffffffffffffffffffffffffffffffffffffffffff60f88860031b161c19848701351681555b505060018560011b0183555b5050505050565b818352818160208501375060006020828401015260006020601f19601f840116840101905092915050565b83815260406020820152600061347a6040830184866140cd565b60006020828403121561412457600080fd5b5051919050565b7f4e487b7100000000000000000000000000000000000000000000000000000000600052601160045260246000fd5b808201808211156104d4576104d461412b565b818103818111156104d4576104d461412b565b6000826141b6577f4e487b7100000000000000000000000000000000000000000000000000000000600052601260045260246000fd5b500490565b80820281158282048414176104d4576104d461412b565b6000602082840312156141e457600080fd5b815161355881613b90565b60c08152600061420360c08301898b6140cd565b60208301979097525060ff9490941660408501529115156060840152608083015260a09091015292915050565b8183823760009101908152919050565b8781526001600160a01b038716602082015285604082015260c06060820152600061426e60c08301876139b9565b82810360808401526142818186886140cd565b91505060ff831660a083015298975050505050505050565b600082516142ab818460208701613995565b9190910192915050565b815167ffffffffffffffff8111156142cf576142cf613c07565b6142e3816142dd8454613f13565b84613f88565b602080601f83116001811461433657600084156143005750858301515b7fffffffffffffffffffffffffffffffffffffffffffffffffffffffffffffffff600386901b1c1916600185901b178555610a53565b600085815260208120601f198616915b8281101561436557888601518255948401946001909101908401614346565b50858210156143a157878501517fffffffffffffffffffffffffffffffffffffffffffffffffffffffffffffffff600388901b60f8161c191681555b5050505050600190811b01905550565b60006101008a83528960208401528860408401528760608401526001600160a01b03871660808401528560a08401528060c08401526143f2818401866139b9565b9150508260e08301529998505050505050505050565b7f4e487b7100000000000000000000000000000000000000000000000000000000600052602160045260246000fdfea26469706673582212203b376c8421a272aa1a83c910b6bb0be9035161ad7cc47352c3739cf92936897c64736f6c63430008190033",
  "linkReferences": {},
  "deployedLinkReferences": {}
}