{
  "_format": "hh-sol-artifact-1",
  "contractName": "Relay",
  "sourceName": "contracts/serverless-v2/Relay.sol",
  "abi": [
    {
      "inputs": [
        {
          "internalType": "contract IAttestationVerifier",
          "name": "attestationVerifier",
          "type": "address"
        },
        {
          "internalType": "uint256",
          "name": "maxAge",
          "type": "uint256"
        },
        {
          "internalType": "contract IERC20",
          "name": "_token",
          "type": "address"
        },
        {
          "internalType": "uint256",
          "name": "_globalMinTimeout",
          "type": "uint256"
        },
        {
          "internalType": "uint256",
          "name": "_globalMaxTimeout",
          "type": "uint256"
        },
        {
          "internalType": "uint256",
          "name": "_overallTimeout",
          "type": "uint256"
        },
        {
          "internalType": "uint256",
          "name": "_executionFeePerMs",
          "type": "uint256"
        },
        {
          "internalType": "uint256",
          "name": "_gatewayFeePerJob",
          "type": "uint256"
        },
        {
          "internalType": "uint256",
          "name": "_fixedGas",
          "type": "uint256"
        },
        {
          "internalType": "uint256",
          "name": "_callbackMeasureGas",
          "type": "uint256"
        }
      ],
      "stateMutability": "nonpayable",
      "type": "constructor"
    },
    {
      "inputs": [],
      "name": "AccessControlBadConfirmation",
      "type": "error"
    },
    {
      "inputs": [
        {
          "internalType": "address",
          "name": "account",
          "type": "address"
        },
        {
          "internalType": "bytes32",
          "name": "neededRole",
          "type": "bytes32"
        }
      ],
      "name": "AccessControlUnauthorizedAccount",
      "type": "error"
    },
    {
      "inputs": [
        {
          "internalType": "address",
          "name": "target",
          "type": "address"
        }
      ],
      "name": "AddressEmptyCode",
      "type": "error"
    },
    {
      "inputs": [
        {
          "internalType": "address",
          "name": "account",
          "type": "address"
        }
      ],
      "name": "AddressInsufficientBalance",
      "type": "error"
    },
    {
      "inputs": [],
      "name": "AttestationAutherAttestationTooOld",
      "type": "error"
    },
    {
      "inputs": [],
      "name": "AttestationAutherImageNotInFamily",
      "type": "error"
    },
    {
      "inputs": [],
      "name": "AttestationAutherImageNotWhitelisted",
      "type": "error"
    },
    {
      "inputs": [],
      "name": "AttestationAutherKeyNotVerified",
      "type": "error"
    },
    {
      "inputs": [],
      "name": "AttestationAutherMismatchedLengths",
      "type": "error"
    },
    {
      "inputs": [],
      "name": "AttestationAutherPCRsInvalid",
      "type": "error"
    },
    {
      "inputs": [],
      "name": "AttestationAutherPubkeyLengthInvalid",
      "type": "error"
    },
    {
      "inputs": [],
      "name": "ECDSAInvalidSignature",
      "type": "error"
    },
    {
      "inputs": [
        {
          "internalType": "uint256",
          "name": "length",
          "type": "uint256"
        }
      ],
      "name": "ECDSAInvalidSignatureLength",
      "type": "error"
    },
    {
      "inputs": [
        {
          "internalType": "bytes32",
          "name": "s",
          "type": "bytes32"
        }
      ],
      "name": "ECDSAInvalidSignatureS",
      "type": "error"
    },
    {
      "inputs": [
        {
          "internalType": "address",
          "name": "implementation",
          "type": "address"
        }
      ],
      "name": "ERC1967InvalidImplementation",
      "type": "error"
    },
    {
      "inputs": [],
      "name": "ERC1967NonPayable",
      "type": "error"
    },
    {
      "inputs": [],
      "name": "FailedInnerCall",
      "type": "error"
    },
    {
      "inputs": [],
      "name": "InvalidInitialization",
      "type": "error"
    },
    {
      "inputs": [],
      "name": "InvalidJobSubscription",
      "type": "error"
    },
    {
      "inputs": [],
      "name": "InvalidTerminationTimestamp",
      "type": "error"
    },
    {
      "inputs": [],
      "name": "NotInitializing",
      "type": "error"
    },
    {
      "inputs": [],
      "name": "RelayCallbackDepositTransferFailed",
      "type": "error"
    },
    {
      "inputs": [],
      "name": "RelayGatewayAlreadyExists",
      "type": "error"
    },
    {
      "inputs": [],
      "name": "RelayInsufficientCallbackDeposit",
      "type": "error"
    },
    {
      "inputs": [],
      "name": "RelayInsufficientMaxGasPrice",
      "type": "error"
    },
    {
      "inputs": [],
      "name": "RelayInsufficientUsdcDeposit",
      "type": "error"
    },
    {
      "inputs": [],
      "name": "RelayInvalidGateway",
      "type": "error"
    },
    {
      "inputs": [],
      "name": "RelayInvalidGlobalTimeouts",
      "type": "error"
    },
    {
      "inputs": [],
      "name": "RelayInvalidJobOwner",
      "type": "error"
    },
    {
      "inputs": [],
      "name": "RelayInvalidSigner",
      "type": "error"
    },
    {
      "inputs": [],
      "name": "RelayInvalidToken",
      "type": "error"
    },
    {
      "inputs": [],
      "name": "RelayInvalidUserTimeout",
      "type": "error"
    },
    {
      "inputs": [],
      "name": "RelayJobNotExists",
      "type": "error"
    },
    {
      "inputs": [],
      "name": "RelayOverallTimeoutNotOver",
      "type": "error"
    },
    {
      "inputs": [],
      "name": "RelayOverallTimeoutOver",
      "type": "error"
    },
    {
      "inputs": [],
      "name": "RelaySignatureTooOld",
      "type": "error"
    },
    {
      "inputs": [],
      "name": "RelayZeroAddressAdmin",
      "type": "error"
    },
    {
      "inputs": [
        {
          "internalType": "address",
          "name": "token",
          "type": "address"
        }
      ],
      "name": "SafeERC20FailedOperation",
      "type": "error"
    },
    {
      "inputs": [],
      "name": "UUPSUnauthorizedCallContext",
      "type": "error"
    },
    {
      "inputs": [
        {
          "internalType": "bytes32",
          "name": "slot",
          "type": "bytes32"
        }
      ],
      "name": "UUPSUnsupportedProxiableUUID",
      "type": "error"
    },
    {
      "anonymous": false,
      "inputs": [
        {
          "indexed": true,
          "internalType": "bytes32",
          "name": "imageId",
          "type": "bytes32"
        },
        {
          "indexed": false,
          "internalType": "bytes32",
          "name": "family",
          "type": "bytes32"
        }
      ],
      "name": "EnclaveImageAddedToFamily",
      "type": "event"
    },
    {
      "anonymous": false,
      "inputs": [
        {
          "indexed": true,
          "internalType": "bytes32",
          "name": "imageId",
          "type": "bytes32"
        },
        {
          "indexed": false,
          "internalType": "bytes32",
          "name": "family",
          "type": "bytes32"
        }
      ],
      "name": "EnclaveImageRemovedFromFamily",
      "type": "event"
    },
    {
      "anonymous": false,
      "inputs": [
        {
          "indexed": true,
          "internalType": "bytes32",
          "name": "imageId",
          "type": "bytes32"
        }
      ],
      "name": "EnclaveImageRevoked",
      "type": "event"
    },
    {
      "anonymous": false,
      "inputs": [
        {
          "indexed": true,
          "internalType": "bytes32",
          "name": "imageId",
          "type": "bytes32"
        },
        {
          "indexed": false,
          "internalType": "bytes",
          "name": "PCR0",
          "type": "bytes"
        },
        {
          "indexed": false,
          "internalType": "bytes",
          "name": "PCR1",
          "type": "bytes"
        },
        {
          "indexed": false,
          "internalType": "bytes",
          "name": "PCR2",
          "type": "bytes"
        }
      ],
      "name": "EnclaveImageWhitelisted",
      "type": "event"
    },
    {
      "anonymous": false,
      "inputs": [
        {
          "indexed": true,
          "internalType": "address",
          "name": "enclaveAddress",
          "type": "address"
        }
      ],
      "name": "EnclaveKeyRevoked",
      "type": "event"
    },
    {
      "anonymous": false,
      "inputs": [
        {
          "indexed": true,
          "internalType": "address",
          "name": "enclaveAddress",
          "type": "address"
        },
        {
          "indexed": true,
          "internalType": "bytes32",
          "name": "imageId",
          "type": "bytes32"
        },
        {
          "indexed": false,
          "internalType": "bytes",
          "name": "enclavePubKey",
          "type": "bytes"
        }
      ],
      "name": "EnclaveKeyVerified",
      "type": "event"
    },
    {
      "anonymous": false,
      "inputs": [
        {
          "indexed": true,
          "internalType": "address",
          "name": "enclaveAddress",
          "type": "address"
        },
        {
          "indexed": true,
          "internalType": "bytes32",
          "name": "imageId",
          "type": "bytes32"
        },
        {
          "indexed": false,
          "internalType": "bytes",
          "name": "enclavePubKey",
          "type": "bytes"
        }
      ],
      "name": "EnclaveKeyWhitelisted",
      "type": "event"
    },
    {
      "anonymous": false,
      "inputs": [
        {
          "indexed": true,
          "internalType": "address",
          "name": "enclaveAddress",
          "type": "address"
        }
      ],
      "name": "GatewayDeregistered",
      "type": "event"
    },
    {
      "anonymous": false,
      "inputs": [
        {
          "indexed": true,
          "internalType": "address",
          "name": "owner",
          "type": "address"
        },
        {
          "indexed": true,
          "internalType": "address",
          "name": "enclaveAddress",
          "type": "address"
        }
      ],
      "name": "GatewayRegistered",
      "type": "event"
    },
    {
      "anonymous": false,
      "inputs": [
        {
          "indexed": false,
          "internalType": "uint64",
          "name": "version",
          "type": "uint64"
        }
      ],
      "name": "Initialized",
      "type": "event"
    },
    {
      "anonymous": false,
      "inputs": [
        {
          "indexed": true,
          "internalType": "uint256",
          "name": "jobId",
          "type": "uint256"
        }
      ],
      "name": "JobCancelled",
      "type": "event"
    },
    {
      "anonymous": false,
      "inputs": [
        {
          "indexed": true,
          "internalType": "uint256",
          "name": "jobId",
          "type": "uint256"
        },
        {
          "indexed": false,
          "internalType": "bytes32",
          "name": "codehash",
          "type": "bytes32"
        },
        {
          "indexed": false,
          "internalType": "bytes",
          "name": "codeInputs",
          "type": "bytes"
        },
        {
          "indexed": false,
          "internalType": "uint256",
          "name": "userTimeout",
          "type": "uint256"
        },
        {
          "indexed": false,
          "internalType": "uint256",
          "name": "maxGasPrice",
          "type": "uint256"
        },
        {
          "indexed": false,
          "internalType": "uint256",
          "name": "usdcDeposit",
          "type": "uint256"
        },
        {
          "indexed": false,
          "internalType": "uint256",
          "name": "callbackDeposit",
          "type": "uint256"
        },
        {
          "indexed": false,
          "internalType": "address",
          "name": "refundAccount",
          "type": "address"
        },
        {
          "indexed": false,
          "internalType": "address",
          "name": "callbackContract",
          "type": "address"
        },
        {
          "indexed": false,
          "internalType": "uint256",
          "name": "startTime",
          "type": "uint256"
        },
        {
          "indexed": false,
          "internalType": "uint256",
          "name": "callbackGasLimit",
          "type": "uint256"
        }
      ],
      "name": "JobRelayed",
      "type": "event"
    },
    {
      "anonymous": false,
      "inputs": [
        {
          "indexed": true,
          "internalType": "uint256",
          "name": "jobId",
          "type": "uint256"
        },
        {
          "indexed": false,
          "internalType": "bytes",
          "name": "output",
          "type": "bytes"
        },
        {
          "indexed": false,
          "internalType": "uint256",
          "name": "totalTime",
          "type": "uint256"
        },
        {
          "indexed": false,
          "internalType": "uint256",
          "name": "errorCode",
          "type": "uint256"
        },
        {
          "indexed": false,
          "internalType": "bool",
          "name": "success",
          "type": "bool"
        }
      ],
      "name": "JobResponded",
      "type": "event"
    },
    {
      "anonymous": false,
      "inputs": [
        {
          "indexed": true,
          "internalType": "uint256",
          "name": "jobSubsId",
          "type": "uint256"
        },
        {
          "indexed": false,
          "internalType": "bytes32",
          "name": "_codehash",
          "type": "bytes32"
        },
        {
          "indexed": false,
          "internalType": "bytes",
          "name": "_codeInputs",
          "type": "bytes"
        }
      ],
      "name": "JobSubsJobParamsUpdated",
      "type": "event"
    },
    {
      "anonymous": false,
      "inputs": [
        {
          "indexed": true,
          "internalType": "uint256",
          "name": "jobSubsId",
          "type": "uint256"
        },
        {
          "indexed": false,
          "internalType": "bytes",
          "name": "output",
          "type": "bytes"
        },
        {
          "indexed": false,
          "internalType": "uint256",
          "name": "totalTime",
          "type": "uint256"
        },
        {
          "indexed": false,
          "internalType": "uint256",
          "name": "errorCode",
          "type": "uint256"
        },
        {
          "indexed": false,
          "internalType": "bool",
          "name": "success",
          "type": "bool"
        },
        {
          "indexed": false,
          "internalType": "uint256",
          "name": "currentRuns",
          "type": "uint256"
        },
        {
          "indexed": false,
          "internalType": "uint256",
          "name": "lastRunTimestamp",
          "type": "uint256"
        }
      ],
      "name": "JobSubsResponded",
      "type": "event"
    },
    {
      "anonymous": false,
      "inputs": [
        {
          "indexed": true,
          "internalType": "uint256",
          "name": "jobSubsId",
          "type": "uint256"
        },
        {
          "indexed": false,
          "internalType": "uint256",
          "name": "terminationTimestamp",
          "type": "uint256"
        }
      ],
      "name": "JobSubsTerminationParamsUpdated",
      "type": "event"
    },
    {
      "anonymous": false,
      "inputs": [
        {
          "indexed": true,
          "internalType": "uint256",
          "name": "jobSubsId",
          "type": "uint256"
        },
        {
          "indexed": true,
          "internalType": "address",
          "name": "depositor",
          "type": "address"
        },
        {
          "indexed": false,
          "internalType": "uint256",
          "name": "usdcDeposit",
          "type": "uint256"
        },
        {
          "indexed": false,
          "internalType": "uint256",
          "name": "callbackDeposit",
          "type": "uint256"
        }
      ],
      "name": "JobSubscriptionDeposited",
      "type": "event"
    },
    {
      "anonymous": false,
      "inputs": [
        {
          "indexed": true,
          "internalType": "uint256",
          "name": "jobSubsId",
          "type": "uint256"
        },
        {
          "indexed": true,
          "internalType": "address",
          "name": "jobSubscriber",
          "type": "address"
        },
        {
          "indexed": false,
          "internalType": "uint256",
          "name": "periodicGap",
          "type": "uint256"
        },
        {
          "indexed": false,
          "internalType": "uint256",
          "name": "usdcDeposit",
          "type": "uint256"
        },
        {
          "indexed": false,
          "internalType": "uint256",
          "name": "terminationTimestamp",
          "type": "uint256"
        },
        {
          "indexed": false,
          "internalType": "uint256",
          "name": "userTimeout",
          "type": "uint256"
        },
        {
          "indexed": false,
          "internalType": "address",
          "name": "refundAccount",
          "type": "address"
        },
        {
          "indexed": false,
          "internalType": "bytes32",
          "name": "codehash",
          "type": "bytes32"
        },
        {
          "indexed": false,
          "internalType": "bytes",
          "name": "codeInputs",
          "type": "bytes"
        },
        {
          "indexed": false,
          "internalType": "uint256",
          "name": "startTime",
          "type": "uint256"
        }
      ],
      "name": "JobSubscriptionStarted",
      "type": "event"
    },
    {
      "anonymous": false,
      "inputs": [
        {
          "indexed": true,
          "internalType": "uint256",
          "name": "jobSubsId",
          "type": "uint256"
        },
        {
          "indexed": true,
          "internalType": "address",
          "name": "withdrawer",
          "type": "address"
        },
        {
          "indexed": false,
          "internalType": "uint256",
          "name": "usdcAmountWithdrawn",
          "type": "uint256"
        },
        {
          "indexed": false,
          "internalType": "uint256",
          "name": "callbackAmountWithdrawn",
          "type": "uint256"
        },
        {
          "indexed": false,
          "internalType": "bool",
          "name": "success",
          "type": "bool"
        }
      ],
      "name": "JobSubscriptionWithdrawn",
      "type": "event"
    },
    {
      "anonymous": false,
      "inputs": [
        {
          "indexed": true,
          "internalType": "bytes32",
          "name": "role",
          "type": "bytes32"
        },
        {
          "indexed": true,
          "internalType": "bytes32",
          "name": "previousAdminRole",
          "type": "bytes32"
        },
        {
          "indexed": true,
          "internalType": "bytes32",
          "name": "newAdminRole",
          "type": "bytes32"
        }
      ],
      "name": "RoleAdminChanged",
      "type": "event"
    },
    {
      "anonymous": false,
      "inputs": [
        {
          "indexed": true,
          "internalType": "bytes32",
          "name": "role",
          "type": "bytes32"
        },
        {
          "indexed": true,
          "internalType": "address",
          "name": "account",
          "type": "address"
        },
        {
          "indexed": true,
          "internalType": "address",
          "name": "sender",
          "type": "address"
        }
      ],
      "name": "RoleGranted",
      "type": "event"
    },
    {
      "anonymous": false,
      "inputs": [
        {
          "indexed": true,
          "internalType": "bytes32",
          "name": "role",
          "type": "bytes32"
        },
        {
          "indexed": true,
          "internalType": "address",
          "name": "account",
          "type": "address"
        },
        {
          "indexed": true,
          "internalType": "address",
          "name": "sender",
          "type": "address"
        }
      ],
      "name": "RoleRevoked",
      "type": "event"
    },
    {
      "anonymous": false,
      "inputs": [
        {
          "indexed": true,
          "internalType": "address",
          "name": "implementation",
          "type": "address"
        }
      ],
      "name": "Upgraded",
      "type": "event"
    },
    {
      "inputs": [],
      "name": "ATTESTATION_MAX_AGE",
      "outputs": [
        {
          "internalType": "uint256",
          "name": "",
          "type": "uint256"
        }
      ],
      "stateMutability": "view",
      "type": "function"
    },
    {
      "inputs": [],
      "name": "ATTESTATION_VERIFIER",
      "outputs": [
        {
          "internalType": "contract IAttestationVerifier",
          "name": "",
          "type": "address"
        }
      ],
      "stateMutability": "view",
      "type": "function"
    },
    {
      "inputs": [],
      "name": "CALLBACK_MEASURE_GAS",
      "outputs": [
        {
          "internalType": "uint256",
          "name": "",
          "type": "uint256"
        }
      ],
      "stateMutability": "view",
      "type": "function"
    },
    {
      "inputs": [],
      "name": "DEFAULT_ADMIN_ROLE",
      "outputs": [
        {
          "internalType": "bytes32",
          "name": "",
          "type": "bytes32"
        }
      ],
      "stateMutability": "view",
      "type": "function"
    },
    {
      "inputs": [],
      "name": "EXECUTION_FEE_PER_MS",
      "outputs": [
        {
          "internalType": "uint256",
          "name": "",
          "type": "uint256"
        }
      ],
      "stateMutability": "view",
      "type": "function"
    },
    {
      "inputs": [],
      "name": "FIXED_GAS",
      "outputs": [
        {
          "internalType": "uint256",
          "name": "",
          "type": "uint256"
        }
      ],
      "stateMutability": "view",
      "type": "function"
    },
    {
      "inputs": [],
      "name": "GATEWAY_FEE_PER_JOB",
      "outputs": [
        {
          "internalType": "uint256",
          "name": "",
          "type": "uint256"
        }
      ],
      "stateMutability": "view",
      "type": "function"
    },
    {
      "inputs": [],
      "name": "GLOBAL_MAX_TIMEOUT",
      "outputs": [
        {
          "internalType": "uint256",
          "name": "",
          "type": "uint256"
        }
      ],
      "stateMutability": "view",
      "type": "function"
    },
    {
      "inputs": [],
      "name": "GLOBAL_MIN_TIMEOUT",
      "outputs": [
        {
          "internalType": "uint256",
          "name": "",
          "type": "uint256"
        }
      ],
      "stateMutability": "view",
      "type": "function"
    },
    {
      "inputs": [],
      "name": "OVERALL_TIMEOUT",
      "outputs": [
        {
          "internalType": "uint256",
          "name": "",
          "type": "uint256"
        }
      ],
      "stateMutability": "view",
      "type": "function"
    },
    {
      "inputs": [],
      "name": "TOKEN",
      "outputs": [
        {
          "internalType": "contract IERC20",
          "name": "",
          "type": "address"
        }
      ],
      "stateMutability": "view",
      "type": "function"
    },
    {
      "inputs": [],
      "name": "UPGRADE_INTERFACE_VERSION",
      "outputs": [
        {
          "internalType": "string",
          "name": "",
          "type": "string"
        }
      ],
      "stateMutability": "view",
      "type": "function"
    },
    {
      "inputs": [
        {
          "internalType": "uint256",
          "name": "_jobSubsId",
          "type": "uint256"
        },
        {
          "internalType": "uint256",
          "name": "_usdcDeposit",
          "type": "uint256"
        }
      ],
      "name": "depositForJobSubscription",
      "outputs": [],
      "stateMutability": "payable",
      "type": "function"
    },
    {
      "inputs": [
        {
          "internalType": "address",
          "name": "_enclaveAddress",
          "type": "address"
        }
      ],
      "name": "deregisterGateway",
      "outputs": [],
      "stateMutability": "nonpayable",
      "type": "function"
    },
    {
      "inputs": [
        {
          "internalType": "address",
          "name": "",
          "type": "address"
        }
      ],
      "name": "gatewayOwners",
      "outputs": [
        {
          "internalType": "address",
          "name": "",
          "type": "address"
        }
      ],
      "stateMutability": "view",
      "type": "function"
    },
    {
      "inputs": [
        {
          "internalType": "bytes32",
          "name": "role",
          "type": "bytes32"
        }
      ],
      "name": "getRoleAdmin",
      "outputs": [
        {
          "internalType": "bytes32",
          "name": "",
          "type": "bytes32"
        }
      ],
      "stateMutability": "view",
      "type": "function"
    },
    {
      "inputs": [
        {
          "internalType": "address",
          "name": "_key",
          "type": "address"
        }
      ],
      "name": "getVerifiedKey",
      "outputs": [
        {
          "internalType": "bytes32",
          "name": "",
          "type": "bytes32"
        }
      ],
      "stateMutability": "view",
      "type": "function"
    },
    {
      "inputs": [
        {
          "internalType": "bytes32",
          "name": "_imageId",
          "type": "bytes32"
        }
      ],
      "name": "getWhitelistedImage",
      "outputs": [
        {
          "components": [
            {
              "internalType": "bytes",
              "name": "PCR0",
              "type": "bytes"
            },
            {
              "internalType": "bytes",
              "name": "PCR1",
              "type": "bytes"
            },
            {
              "internalType": "bytes",
              "name": "PCR2",
              "type": "bytes"
            }
          ],
          "internalType": "struct AttestationAutherUpgradeable.EnclaveImage",
          "name": "",
          "type": "tuple"
        }
      ],
      "stateMutability": "view",
      "type": "function"
    },
    {
      "inputs": [
        {
          "internalType": "bytes32",
          "name": "role",
          "type": "bytes32"
        },
        {
          "internalType": "address",
          "name": "account",
          "type": "address"
        }
      ],
      "name": "grantRole",
      "outputs": [],
      "stateMutability": "nonpayable",
      "type": "function"
    },
    {
      "inputs": [
        {
          "internalType": "bytes32",
          "name": "role",
          "type": "bytes32"
        },
        {
          "internalType": "address",
          "name": "account",
          "type": "address"
        }
      ],
      "name": "hasRole",
      "outputs": [
        {
          "internalType": "bool",
          "name": "",
          "type": "bool"
        }
      ],
      "stateMutability": "view",
      "type": "function"
    },
    {
      "inputs": [
        {
          "internalType": "address",
          "name": "_admin",
          "type": "address"
        },
        {
          "components": [
            {
              "internalType": "bytes",
              "name": "PCR0",
              "type": "bytes"
            },
            {
              "internalType": "bytes",
              "name": "PCR1",
              "type": "bytes"
            },
            {
              "internalType": "bytes",
              "name": "PCR2",
              "type": "bytes"
            }
          ],
          "internalType": "struct AttestationAutherUpgradeable.EnclaveImage[]",
          "name": "_images",
          "type": "tuple[]"
        }
      ],
      "name": "initialize",
      "outputs": [],
      "stateMutability": "nonpayable",
      "type": "function"
    },
    {
      "inputs": [
        {
          "internalType": "bytes32",
          "name": "imageId",
          "type": "bytes32"
        },
        {
          "internalType": "bytes32",
          "name": "family",
          "type": "bytes32"
        }
      ],
      "name": "isImageInFamily",
      "outputs": [
        {
          "internalType": "bool",
          "name": "",
          "type": "bool"
        }
      ],
      "stateMutability": "view",
      "type": "function"
    },
    {
      "inputs": [
        {
          "internalType": "uint256",
          "name": "_jobId",
          "type": "uint256"
        }
      ],
      "name": "jobCancel",
      "outputs": [],
      "stateMutability": "nonpayable",
      "type": "function"
    },
    {
      "inputs": [],
      "name": "jobCount",
      "outputs": [
        {
          "internalType": "uint256",
          "name": "",
          "type": "uint256"
        }
      ],
      "stateMutability": "view",
      "type": "function"
    },
    {
      "inputs": [
        {
          "internalType": "bytes",
          "name": "_signature",
          "type": "bytes"
        },
        {
          "internalType": "uint256",
          "name": "_jobId",
          "type": "uint256"
        },
        {
          "internalType": "bytes",
          "name": "_output",
          "type": "bytes"
        },
        {
          "internalType": "uint256",
          "name": "_totalTime",
          "type": "uint256"
        },
        {
          "internalType": "uint8",
          "name": "_errorCode",
          "type": "uint8"
        },
        {
          "internalType": "uint256",
          "name": "_signTimestamp",
          "type": "uint256"
        }
      ],
      "name": "jobResponse",
      "outputs": [],
      "stateMutability": "nonpayable",
      "type": "function"
    },
    {
      "inputs": [],
      "name": "jobSubsCount",
      "outputs": [
        {
          "internalType": "uint256",
          "name": "",
          "type": "uint256"
        }
      ],
      "stateMutability": "view",
      "type": "function"
    },
    {
      "inputs": [
        {
          "internalType": "bytes",
          "name": "_signature",
          "type": "bytes"
        },
        {
          "internalType": "uint256",
          "name": "_jobSubsId",
          "type": "uint256"
        },
        {
          "internalType": "bytes",
          "name": "_output",
          "type": "bytes"
        },
        {
          "internalType": "uint256",
          "name": "_totalTime",
          "type": "uint256"
        },
        {
          "internalType": "uint8",
          "name": "_errorCode",
          "type": "uint8"
        },
        {
          "internalType": "uint256",
          "name": "_signTimestamp",
          "type": "uint256"
        }
      ],
      "name": "jobSubsResponse",
      "outputs": [],
      "stateMutability": "nonpayable",
      "type": "function"
    },
    {
      "inputs": [
        {
          "internalType": "uint256",
          "name": "",
          "type": "uint256"
        }
      ],
      "name": "jobSubscriptions",
      "outputs": [
        {
          "internalType": "uint256",
          "name": "periodicGap",
          "type": "uint256"
        },
        {
          "internalType": "uint256",
          "name": "terminationTimestamp",
          "type": "uint256"
        },
        {
          "internalType": "uint256",
          "name": "currentRuns",
          "type": "uint256"
        },
        {
          "internalType": "uint256",
          "name": "lastRunTimestamp",
          "type": "uint256"
        },
        {
          "internalType": "uint256",
          "name": "userTimeout",
          "type": "uint256"
        },
        {
          "internalType": "address",
          "name": "refundAccount",
          "type": "address"
        },
        {
          "components": [
            {
              "internalType": "uint256",
              "name": "startTime",
              "type": "uint256"
            },
            {
              "internalType": "uint256",
              "name": "maxGasPrice",
              "type": "uint256"
            },
            {
              "internalType": "uint256",
              "name": "usdcDeposit",
              "type": "uint256"
            },
            {
              "internalType": "uint256",
              "name": "callbackDeposit",
              "type": "uint256"
            },
            {
              "internalType": "uint256",
              "name": "callbackGasLimit",
              "type": "uint256"
            },
            {
              "internalType": "address",
              "name": "jobOwner",
              "type": "address"
            },
            {
              "internalType": "address",
              "name": "callbackContract",
              "type": "address"
            },
            {
              "internalType": "bytes32",
              "name": "codehash",
              "type": "bytes32"
            },
            {
              "internalType": "bytes",
              "name": "codeInputs",
              "type": "bytes"
            }
          ],
          "internalType": "struct Relay.Job",
          "name": "job",
          "type": "tuple"
        }
      ],
      "stateMutability": "view",
      "type": "function"
    },
    {
      "inputs": [
        {
          "internalType": "uint256",
          "name": "",
          "type": "uint256"
        }
      ],
      "name": "jobs",
      "outputs": [
        {
          "internalType": "uint256",
          "name": "startTime",
          "type": "uint256"
        },
        {
          "internalType": "uint256",
          "name": "maxGasPrice",
          "type": "uint256"
        },
        {
          "internalType": "uint256",
          "name": "usdcDeposit",
          "type": "uint256"
        },
        {
          "internalType": "uint256",
          "name": "callbackDeposit",
          "type": "uint256"
        },
        {
          "internalType": "uint256",
          "name": "callbackGasLimit",
          "type": "uint256"
        },
        {
          "internalType": "address",
          "name": "jobOwner",
          "type": "address"
        },
        {
          "internalType": "address",
          "name": "callbackContract",
          "type": "address"
        },
        {
          "internalType": "bytes32",
          "name": "codehash",
          "type": "bytes32"
        },
        {
          "internalType": "bytes",
          "name": "codeInputs",
          "type": "bytes"
        }
      ],
      "stateMutability": "view",
      "type": "function"
    },
    {
      "inputs": [],
      "name": "proxiableUUID",
      "outputs": [
        {
          "internalType": "bytes32",
          "name": "",
          "type": "bytes32"
        }
      ],
      "stateMutability": "view",
      "type": "function"
    },
    {
      "inputs": [
        {
          "internalType": "bytes",
          "name": "_attestationSignature",
          "type": "bytes"
        },
        {
          "components": [
            {
              "internalType": "bytes",
              "name": "enclavePubKey",
              "type": "bytes"
            },
            {
              "internalType": "bytes",
              "name": "PCR0",
              "type": "bytes"
            },
            {
              "internalType": "bytes",
              "name": "PCR1",
              "type": "bytes"
            },
            {
              "internalType": "bytes",
              "name": "PCR2",
              "type": "bytes"
            },
            {
              "internalType": "uint256",
              "name": "timestampInMilliseconds",
              "type": "uint256"
            }
          ],
          "internalType": "struct IAttestationVerifier.Attestation",
          "name": "_attestation",
          "type": "tuple"
        },
        {
          "internalType": "bytes",
          "name": "_signature",
          "type": "bytes"
        },
        {
          "internalType": "uint256",
          "name": "_signTimestamp",
          "type": "uint256"
        }
      ],
      "name": "registerGateway",
      "outputs": [],
      "stateMutability": "nonpayable",
      "type": "function"
    },
    {
      "inputs": [
        {
          "internalType": "bytes32",
          "name": "_codehash",
          "type": "bytes32"
        },
        {
          "internalType": "bytes",
          "name": "_codeInputs",
          "type": "bytes"
        },
        {
          "internalType": "uint256",
          "name": "_userTimeout",
          "type": "uint256"
        },
        {
          "internalType": "uint256",
          "name": "_maxGasPrice",
          "type": "uint256"
        },
        {
          "internalType": "address",
          "name": "_refundAccount",
          "type": "address"
        },
        {
          "internalType": "address",
          "name": "_callbackContract",
          "type": "address"
        },
        {
          "internalType": "uint256",
          "name": "_callbackGasLimit",
          "type": "uint256"
        }
      ],
      "name": "relayJob",
      "outputs": [],
      "stateMutability": "payable",
      "type": "function"
    },
    {
      "inputs": [
        {
          "internalType": "bytes32",
          "name": "role",
          "type": "bytes32"
        },
        {
          "internalType": "address",
          "name": "callerConfirmation",
          "type": "address"
        }
      ],
      "name": "renounceRole",
      "outputs": [],
      "stateMutability": "nonpayable",
      "type": "function"
    },
    {
      "inputs": [
        {
          "internalType": "bytes32",
          "name": "imageId",
          "type": "bytes32"
        }
      ],
      "name": "revokeEnclaveImage",
      "outputs": [
        {
          "internalType": "bool",
          "name": "",
          "type": "bool"
        }
      ],
      "stateMutability": "nonpayable",
      "type": "function"
    },
    {
      "inputs": [
        {
          "internalType": "bytes32",
          "name": "role",
          "type": "bytes32"
        },
        {
          "internalType": "address",
          "name": "account",
          "type": "address"
        }
      ],
      "name": "revokeRole",
      "outputs": [],
      "stateMutability": "nonpayable",
      "type": "function"
    },
    {
      "inputs": [
        {
          "internalType": "bytes32",
          "name": "_codehash",
          "type": "bytes32"
        },
        {
          "internalType": "bytes",
          "name": "_codeInputs",
          "type": "bytes"
        },
        {
          "internalType": "uint256",
          "name": "_userTimeout",
          "type": "uint256"
        },
        {
          "internalType": "uint256",
          "name": "_maxGasPrice",
          "type": "uint256"
        },
        {
          "internalType": "address",
          "name": "_refundAccount",
          "type": "address"
        },
        {
          "internalType": "address",
          "name": "_callbackContract",
          "type": "address"
        },
        {
          "internalType": "uint256",
          "name": "_callbackGasLimit",
          "type": "uint256"
        },
        {
          "internalType": "uint256",
          "name": "_periodicGap",
          "type": "uint256"
        },
        {
          "internalType": "uint256",
          "name": "_usdcDeposit",
          "type": "uint256"
        },
        {
          "internalType": "uint256",
          "name": "_terminationTimestamp",
          "type": "uint256"
        }
      ],
      "name": "startJobSubscription",
      "outputs": [],
      "stateMutability": "payable",
      "type": "function"
    },
    {
      "inputs": [
        {
          "internalType": "bytes4",
          "name": "interfaceId",
          "type": "bytes4"
        }
      ],
      "name": "supportsInterface",
      "outputs": [
        {
          "internalType": "bool",
          "name": "",
          "type": "bool"
        }
      ],
      "stateMutability": "view",
      "type": "function"
    },
    {
      "inputs": [
        {
          "internalType": "uint256",
          "name": "_jobSubsId",
          "type": "uint256"
        },
        {
          "internalType": "bytes32",
          "name": "_codehash",
          "type": "bytes32"
        },
        {
          "internalType": "bytes",
          "name": "_codeInputs",
          "type": "bytes"
        }
      ],
      "name": "updateJobParams",
      "outputs": [],
      "stateMutability": "nonpayable",
      "type": "function"
    },
    {
      "inputs": [
        {
          "internalType": "uint256",
          "name": "_jobSubsId",
          "type": "uint256"
        },
        {
          "internalType": "uint256",
          "name": "_terminationTimestamp",
          "type": "uint256"
        },
        {
          "internalType": "uint256",
          "name": "_usdcDeposit",
          "type": "uint256"
        }
      ],
      "name": "updateJobTerminationParams",
      "outputs": [],
      "stateMutability": "payable",
      "type": "function"
    },
    {
      "inputs": [
        {
          "internalType": "address",
          "name": "newImplementation",
          "type": "address"
        },
        {
          "internalType": "bytes",
          "name": "data",
          "type": "bytes"
        }
      ],
      "name": "upgradeToAndCall",
      "outputs": [],
      "stateMutability": "payable",
      "type": "function"
    },
    {
      "inputs": [
        {
          "internalType": "bytes",
          "name": "signature",
          "type": "bytes"
        },
        {
          "components": [
            {
              "internalType": "bytes",
              "name": "enclavePubKey",
              "type": "bytes"
            },
            {
              "internalType": "bytes",
              "name": "PCR0",
              "type": "bytes"
            },
            {
              "internalType": "bytes",
              "name": "PCR1",
              "type": "bytes"
            },
            {
              "internalType": "bytes",
              "name": "PCR2",
              "type": "bytes"
            },
            {
              "internalType": "uint256",
              "name": "timestampInMilliseconds",
              "type": "uint256"
            }
          ],
          "internalType": "struct IAttestationVerifier.Attestation",
          "name": "attestation",
          "type": "tuple"
        }
      ],
      "name": "verifyEnclaveKey",
      "outputs": [
        {
          "internalType": "bool",
          "name": "",
          "type": "bool"
        }
      ],
      "stateMutability": "nonpayable",
      "type": "function"
    },
    {
      "inputs": [
        {
          "internalType": "bytes",
          "name": "PCR0",
          "type": "bytes"
        },
        {
          "internalType": "bytes",
          "name": "PCR1",
          "type": "bytes"
        },
        {
          "internalType": "bytes",
          "name": "PCR2",
          "type": "bytes"
        }
      ],
      "name": "whitelistEnclaveImage",
      "outputs": [
        {
          "internalType": "bytes32",
          "name": "",
          "type": "bytes32"
        },
        {
          "internalType": "bool",
          "name": "",
          "type": "bool"
        }
      ],
      "stateMutability": "nonpayable",
      "type": "function"
    }
  ],
  "bytecode": "0x6101e06040523060805234801561001557600080fd5b50604051615cae380380615cae83398101604081905261003491610196565b6001600160a01b038a1660a05260c089905261004e6100cf565b6001600160a01b0388166100755760405163c844103f60e01b815260040160405180910390fd5b6001600160a01b03881660e0528587106100a15760405162fe194b60e31b815260040160405180910390fd5b61010096909652610120949094526101409290925261016052610180526101a0526101c0525061021f915050565b7ff0c57e16840df040f15088dc2f81fe391c3923bec73e23a9662efc9c229c6a00805468010000000000000000900460ff161561011f5760405163f92ee8a960e01b815260040160405180910390fd5b80546001600160401b039081161461017e5780546001600160401b0319166001600160401b0390811782556040519081527fc7f505b2f371ae2175ee4913f4499e1f2633a7b5936321eed1cdaeb6115181d29060200160405180910390a15b50565b6001600160a01b038116811461017e57600080fd5b6000806000806000806000806000806101408b8d0312156101b657600080fd5b8a516101c181610181565b60208c015160408d0151919b5099506101d981610181565b8098505060608b0151965060808b0151955060a08b0151945060c08b0151935060e08b015192506101008b015191506101208b015190509295989b9194979a5092959850565b60805160a05160c05160e05161010051610120516101405161016051610180516101a0516101c0516158ff6103af60003960008181610a0601528181611b2a01528181611e8b0152612e6701526000818161088d01528181611b4b01528181611eaf015281816127fc01528181612cd50152612e8b0152600081816107ce01528181611be101528181611f2401528181612f0b01528181613a290152613d3701526000818161093501528181611c0201528181611f4801528181612f2f01528181613a060152613d1401526000818161057e015281816118d701528181612bb501526130e501526000818161096901528181611dc90152612db60152600081816103e801528181611d9f0152612d8c0152600081816106a9015281816120a101528181613046015281816131d80152818161340e01528181613a5401528181613d620152613d9801526000818161079a015281816124760152818161359401526137c20152600081816108c101526125140152600081816116ab015281816116d40152611ceb01526158ff6000f3fe6080604052600436106102d15760003560e01c80636b5b21a611610179578063b9d546e0116100d6578063e27a70851161008a578063f398cc7411610064578063f398cc741461099e578063f6a17fe3146109be578063fa3036bf146109f457600080fd5b8063e27a708514610923578063e29fcdc514610957578063e79b6b021461098b57600080fd5b8063cd79f906116100bb578063cd79f906146108af578063d547741f146108e3578063debfc2f31461090357600080fd5b8063b9d546e01461085b578063bdb3a8701461087b57600080fd5b806395c602941161012d5780639bc27136116101125780639bc27136146107bc578063a217fddf146107f0578063ad3cb1cc1461080557600080fd5b806395c60294146107685780639aec990e1461078857600080fd5b806382bfefc81161015e57806382bfefc8146106975780638f8ce5f0146106e357806391d148541461070357600080fd5b80636b5b21a61461061e57806375847b841461067757600080fd5b80633fb9295d1161023257806355aa1000116101e65780635c2c28e5116101c05780635c2c28e5146105b65780636549bf48146105c957806369815e57146105e957600080fd5b806355aa10001461055957806358a14ad21461056c5780635b65c460146105a057600080fd5b80634f1ef286116102175780634f1ef2861461051e57806350ed85681461053157806352d1902d1461054457600080fd5b80633fb9295d146104e85780634c5d8a0f1461050857600080fd5b80632410f6ba116102895780632eb39ee91161026e5780632eb39ee9146104865780632f2ff15d146104a857806336568abe146104c857600080fd5b80632410f6ba1461040a578063248a9ca31461043757600080fd5b806304a11e96116102ba57806304a11e961461036e578063180aedf3146103a15780631e3708df146103d657600080fd5b806301d58fa3146102d657806301ffc9a71461033e575b600080fd5b3480156102e257600080fd5b5061032b6102f136600461475a565b6001600160a01b031660009081527fc17b4b708b6f44255c20913a9d97a05300b670342c71fe5ae5b617bd4db55001602052604090205490565b6040519081526020015b60405180910390f35b34801561034a57600080fd5b5061035e610359366004614775565b610a28565b6040519015158152602001610335565b34801561037a57600080fd5b5061038e6103893660046147b7565b610a39565b6040516103359796959493929190614820565b3480156103ad57600080fd5b506103c16103bc3660046147b7565b610b7a565b604051610335999897969594939291906148f3565b3480156103e257600080fd5b5061032b7f000000000000000000000000000000000000000000000000000000000000000081565b34801561041657600080fd5b5061042a6104253660046147b7565b610c5c565b6040516103359190614955565b34801561044357600080fd5b5061032b6104523660046147b7565b60009081527f02dd7bc7dec4dceedda775e58dd541e08a116c6c53815c0bd028192f7b626800602052604090206001015490565b34801561049257600080fd5b506104a66104a1366004614ac9565b610e7a565b005b3480156104b457600080fd5b506104a66104c3366004614c21565b61106e565b3480156104d457600080fd5b506104a66104e3366004614c21565b6110b8565b3480156104f457600080fd5b506104a6610503366004614c96565b611109565b34801561051457600080fd5b5061032b60025481565b6104a661052c366004614ce9565b611115565b6104a661053f366004614d37565b611134565b34801561055057600080fd5b5061032b61113f565b6104a6610567366004614d63565b61116e565b34801561057857600080fd5b5061032b7f000000000000000000000000000000000000000000000000000000000000000081565b3480156105ac57600080fd5b5061032b60045481565b6104a66105c4366004614d85565b611178565b3480156105d557600080fd5b506104a66105e4366004614ecd565b611189565b3480156105f557600080fd5b50610609610604366004614f60565b61119e565b60408051928352901515602083015201610335565b34801561062a57600080fd5b5061035e610639366004614d63565b60009081527fc17b4b708b6f44255c20913a9d97a05300b670342c71fe5ae5b617bd4db5500260209081526040808320938352929052205460ff1690565b34801561068357600080fd5b5061035e610692366004614ffa565b611277565b3480156106a357600080fd5b506106cb7f000000000000000000000000000000000000000000000000000000000000000081565b6040516001600160a01b039091168152602001610335565b3480156106ef57600080fd5b506104a66106fe366004615054565b61128a565b34801561070f57600080fd5b5061035e61071e366004614c21565b60009182527f02dd7bc7dec4dceedda775e58dd541e08a116c6c53815c0bd028192f7b626800602090815260408084206001600160a01b0393909316845291905290205460ff1690565b34801561077457600080fd5b5061035e6107833660046147b7565b6112a4565b34801561079457600080fd5b5061032b7f000000000000000000000000000000000000000000000000000000000000000081565b3480156107c857600080fd5b5061032b7f000000000000000000000000000000000000000000000000000000000000000081565b3480156107fc57600080fd5b5061032b600081565b34801561081157600080fd5b5061084e6040518060400160405280600581526020017f352e302e3000000000000000000000000000000000000000000000000000000081525081565b60405161033591906150fa565b34801561086757600080fd5b506104a661087636600461475a565b6112c2565b34801561088757600080fd5b5061032b7f000000000000000000000000000000000000000000000000000000000000000081565b3480156108bb57600080fd5b506106cb7f000000000000000000000000000000000000000000000000000000000000000081565b3480156108ef57600080fd5b506104a66108fe366004614c21565b6112cf565b34801561090f57600080fd5b506104a661091e366004615054565b611313565b34801561092f57600080fd5b5061032b7f000000000000000000000000000000000000000000000000000000000000000081565b34801561096357600080fd5b5061032b7f000000000000000000000000000000000000000000000000000000000000000081565b6104a661099936600461510d565b611323565b3480156109aa57600080fd5b506104a66109b93660046147b7565b611343565b3480156109ca57600080fd5b506106cb6109d936600461475a565b6000602081905290815260409020546001600160a01b031681565b348015610a0057600080fd5b5061032b7f000000000000000000000000000000000000000000000000000000000000000081565b6000610a338261134d565b92915050565b6003602081815260009283526040928390208054600182015460028301549483015460048401546005850154885161012081018a526006870180548252600788015498820198909852600887015499810199909952600986015460608a0152600a86015460808a0152600b8601546001600160a01b0390811660a08b0152600c870154811660c08b0152600d87015460e08b0152600e87018054969a959998949793969190921694929391610100840191610af3906151b7565b80601f0160208091040260200160405190810160405280929190818152602001828054610b1f906151b7565b8015610b6c5780601f10610b4157610100808354040283529160200191610b6c565b820191906000526020600020905b815481529060010190602001808311610b4f57829003601f168201915b505050505081525050905087565b600160208190526000918252604090912080549181015460028201546003830154600484015460058501546006860154600787015460088801805497989697959694956001600160a01b039485169594909316939192610bd9906151b7565b80601f0160208091040260200160405190810160405280929190818152602001828054610c05906151b7565b8015610c525780601f10610c2757610100808354040283529160200191610c52565b820191906000526020600020905b815481529060010190602001808311610c3557829003601f168201915b5050505050905089565b610c8060405180606001604052806060815260200160608152602001606081525090565b60008281527fc17b4b708b6f44255c20913a9d97a05300b670342c71fe5ae5b617bd4db550006020819052604091829020825160608101909352805491929182908290610ccc906151b7565b80601f0160208091040260200160405190810160405280929190818152602001828054610cf8906151b7565b8015610d455780601f10610d1a57610100808354040283529160200191610d45565b820191906000526020600020905b815481529060010190602001808311610d2857829003601f168201915b50505050508152602001600182018054610d5e906151b7565b80601f0160208091040260200160405190810160405280929190818152602001828054610d8a906151b7565b8015610dd75780601f10610dac57610100808354040283529160200191610dd7565b820191906000526020600020905b815481529060010190602001808311610dba57829003601f168201915b50505050508152602001600282018054610df0906151b7565b80601f0160208091040260200160405190810160405280929190818152602001828054610e1c906151b7565b8015610e695780601f10610e3e57610100808354040283529160200191610e69565b820191906000526020600020905b815481529060010190602001808311610e4c57829003601f168201915b505050505081525050915050919050565b7ff0c57e16840df040f15088dc2f81fe391c3923bec73e23a9662efc9c229c6a00805468010000000000000000810460ff16159067ffffffffffffffff16600081158015610ec55750825b905060008267ffffffffffffffff166001148015610ee25750303b155b905081158015610ef0575080155b15610f27576040517ff92ee8a900000000000000000000000000000000000000000000000000000000815260040160405180910390fd5b84547fffffffffffffffffffffffffffffffffffffffffffffffff00000000000000001660011785558315610f885784547fffffffffffffffffffffffffffffffffffffffffffffff00ffffffffffffffff16680100000000000000001785555b6001600160a01b038716610fc8576040517f30a7a37f00000000000000000000000000000000000000000000000000000000815260040160405180910390fd5b610fd06113e4565b610fd86113e4565b610fe06113e4565b610fe86113e4565b610ff1866113ee565b610ffc60008861142e565b504660c01b60025583156110655784547fffffffffffffffffffffffffffffffffffffffffffffff00ffffffffffffffff168555604051600181527fc7f505b2f371ae2175ee4913f4499e1f2633a7b5936321eed1cdaeb6115181d29060200160405180910390a15b50505050505050565b60008281527f02dd7bc7dec4dceedda775e58dd541e08a116c6c53815c0bd028192f7b62680060205260409020600101546110a88161151b565b6110b2838361142e565b50505050565b6001600160a01b03811633146110fa576040517f6697b23200000000000000000000000000000000000000000000000000000000815260040160405180910390fd5b6111048282611525565b505050565b6110b2848484846115e9565b61111d6116a0565b61112682611770565b611130828261177b565b5050565b611104838383611881565b6000611149611ce0565b507f360894a13ba1a3210667c828492db98dca3e2076cc3735a920a3ca505d382bbc90565b6111308282611d42565b611065878787873488888833611d9d565b611197858585858533612121565b5050505050565b600080806111ab8161151b565b6040805160806020601f8c018190040282018101909252606081018a8152611267928291908d908d9081908501838280828437600092019190915250505090825250604080516020601f8c018190048102820181019092528a815291810191908b908b9081908401838280828437600092019190915250505090825250604080516020601f8a01819004810282018101909252888152918101919089908990819084018382808284376000920191909152505050915250612213565b9250925050965096945050505050565b600061128383836123bb565b9392505050565b61129a888888888888888861261f565b5050505050505050565b6000806112b08161151b565b6112b9836128c3565b91505b50919050565b6112cc813361297a565b50565b60008281527f02dd7bc7dec4dceedda775e58dd541e08a116c6c53815c0bd028192f7b62680060205260409020600101546113098161151b565b6110b28383611525565b61129a8888888888888888612a5d565b6113368b8b8b8b8b8b8b8b8b8b8b612d8a565b5050505050505050505050565b6112cc8133613086565b60007fffffffff0000000000000000000000000000000000000000000000000000000082167f7965db0b000000000000000000000000000000000000000000000000000000001480610a3357507f01ffc9a7000000000000000000000000000000000000000000000000000000007fffffffff00000000000000000000000000000000000000000000000000000000831614610a33565b6113ec6132bf565b565b6113f66132bf565b60005b81518110156111305761142482828151811061141757611417615204565b6020026020010151612213565b50506001016113f9565b60008281527f02dd7bc7dec4dceedda775e58dd541e08a116c6c53815c0bd028192f7b626800602081815260408084206001600160a01b038616855290915282205460ff16611511576000848152602082815260408083206001600160a01b0387168452909152902080547fffffffffffffffffffffffffffffffffffffffffffffffffffffffffffffff001660011790556114c73390565b6001600160a01b0316836001600160a01b0316857f2f8788117e7eff1d82e926ec794901d17c78024a50270940304540a733656f0d60405160405180910390a46001915050610a33565b6000915050610a33565b6112cc8133613326565b60008281527f02dd7bc7dec4dceedda775e58dd541e08a116c6c53815c0bd028192f7b626800602081815260408084206001600160a01b038616855290915282205460ff1615611511576000848152602082815260408083206001600160a01b038716808552925280832080547fffffffffffffffffffffffffffffffffffffffffffffffffffffffffffffff0016905551339287917ff6391f5c32d9c69d2a47ea670b442974b53935d1edc7fd64eb21e047a839171b9190a46001915050610a33565b6000848152600360205260409020600b01546001600160a01b031661163a576040517f5a7aa8b600000000000000000000000000000000000000000000000000000000815260040160405180910390fd5b6000848152600360205260409020600d8101849055600e0161165d82848361527b565b50837fd667b949ac78368090356e517d96fc6584a5a2f6a201f020d3a9f0e0b64775a0848484604051611692939291906153a2565b60405180910390a250505050565b306001600160a01b037f000000000000000000000000000000000000000000000000000000000000000016148061173957507f00000000000000000000000000000000000000000000000000000000000000006001600160a01b031661172d7f360894a13ba1a3210667c828492db98dca3e2076cc3735a920a3ca505d382bbc546001600160a01b031690565b6001600160a01b031614155b156113ec576040517fe07c8dba00000000000000000000000000000000000000000000000000000000815260040160405180910390fd5b60006111308161151b565b816001600160a01b03166352d1902d6040518163ffffffff1660e01b8152600401602060405180830381865afa9250505080156117d5575060408051601f3d908101601f191682019092526117d2918101906153bc565b60015b61181b576040517f4c9c8ce30000000000000000000000000000000000000000000000000000000081526001600160a01b03831660048201526024015b60405180910390fd5b7f360894a13ba1a3210667c828492db98dca3e2076cc3735a920a3ca505d382bbc8114611877576040517faa1d49a400000000000000000000000000000000000000000000000000000000815260048101829052602401611812565b61110483836133b3565b6000838152600360205260409020600b01546001600160a01b03166118d2576040517f5a7aa8b600000000000000000000000000000000000000000000000000000000815260040160405180910390fd5b6118fc7f000000000000000000000000000000000000000000000000000000000000000042615404565b8211611934576040517fbf83dbc800000000000000000000000000000000000000000000000000000000815260040160405180910390fd5b61193e8382613409565b6000600360008581526020019081526020016000206040518060e001604052908160008201548152602001600182015481526020016002820154815260200160038201548152602001600482015481526020016005820160009054906101000a90046001600160a01b03166001600160a01b03166001600160a01b03168152602001600682016040518061012001604052908160008201548152602001600182015481526020016002820154815260200160038201548152602001600482015481526020016005820160009054906101000a90046001600160a01b03166001600160a01b03166001600160a01b031681526020016006820160009054906101000a90046001600160a01b03166001600160a01b03166001600160a01b0316815260200160078201548152602001600882018054611a7a906151b7565b80601f0160208091040260200160405190810160405280929190818152602001828054611aa6906151b7565b8015611af35780601f10611ac857610100808354040283529160200191611af3565b820191906000526020600020905b815481529060010190602001808311611ad657829003601f168201915b505050919092525050509052508051909150600090611b124286615417565b611b1c919061542a565b90508160c0015160600151817f00000000000000000000000000000000000000000000000000000000000000007f00000000000000000000000000000000000000000000000000000000000000008560c0015160800151611b7d9190615404565b611b879190615404565b8460c0015160200151611b9a9190615465565b611ba49190615465565b1115611bdc576040517f7273245b00000000000000000000000000000000000000000000000000000000815260040160405180910390fd5b6000817f00000000000000000000000000000000000000000000000000000000000000007f00000000000000000000000000000000000000000000000000000000000000008560800151611c309190615465565b611c3a9190615404565b611c449190615465565b9050808360c00151604001511015611c88576040517fc3274e9900000000000000000000000000000000000000000000000000000000815260040160405180910390fd5b600086815260036020526040908190206001018690555186907fc2fc45e4e8136eb74ef6cbc43587f7ecac89f1253978aacd6be38143b971b73b90611cd09088815260200190565b60405180910390a2505050505050565b306001600160a01b037f000000000000000000000000000000000000000000000000000000000000000016146113ec576040517fe07c8dba00000000000000000000000000000000000000000000000000000000815260040160405180910390fd5b6000828152600360205260409020600b01546001600160a01b0316611d93576040517f5a7aa8b600000000000000000000000000000000000000000000000000000000815260040160405180910390fd5b6111308282613409565b7f000000000000000000000000000000000000000000000000000000000000000087111580611dec57507f00000000000000000000000000000000000000000000000000000000000000008710155b15611e23576040517f445e056c00000000000000000000000000000000000000000000000000000000815260040160405180910390fd5b60c0611e30466001615404565b901b6002546001611e419190615404565b03611e4e574660c01b6002555b3a861015611e88576040517f4d8e7c6200000000000000000000000000000000000000000000000000000000815260040160405180910390fd5b847f0000000000000000000000000000000000000000000000000000000000000000611ed47f000000000000000000000000000000000000000000000000000000000000000085615404565b611ede9190615404565b611ee89088615465565b1115611f20576040517f7273245b00000000000000000000000000000000000000000000000000000000815260040160405180910390fd5b60007f0000000000000000000000000000000000000000000000000000000000000000611f6d7f00000000000000000000000000000000000000000000000000000000000000008a615465565b611f779190615404565b9050604051806101200160405280428152602001888152602001828152602001878152602001848152602001836001600160a01b03168152602001856001600160a01b031681526020018b81526020018a81525060016000600260008154611fde9061547c565b918290555081526020808201929092526040908101600020835181559183015160018301558201516002820155606082015160038201556080820151600482015560a08201516005820180546001600160a01b039283167fffffffffffffffffffffffff00000000000000000000000000000000000000009182161790915560c084015160068401805491909316911617905560e08201516007820155610100820151600882019061209090826154b4565b506120c99150506001600160a01b037f0000000000000000000000000000000000000000000000000000000000000000168330846134ca565b6002547f3b08b298012c416f3edcaa89a6a04489e9f3a2e2b189b7fd5f2864da3a740f9a8b8b8b8b868c8c8c428d60405161210d9a999897969594939291906155b0565b60405180910390a250505050505050505050565b61212b86866123bb565b50600061213b8660000151613546565b905061214a828487878561358f565b6001600160a01b03818116600090815260208190526040902054161561219c576040517ffd764a3900000000000000000000000000000000000000000000000000000000815260040160405180910390fd5b6001600160a01b0381811660008181526020819052604080822080547fffffffffffffffffffffffff0000000000000000000000000000000000000000169487169485179055519192917f95f86f0783d4494f76a6aeaa178c399f2c6a140aa3e88d39f056b00f460d359a9190a350505050505050565b80515160009081907fc17b4b708b6f44255c20913a9d97a05300b670342c71fe5ae5b617bd4db5500090603014801561225157508360200151516030145b801561226257508360400151516030145b612298576040517f84c61bb600000000000000000000000000000000000000000000000000000000815260040160405180910390fd5b60008460000151856020015186604001516040516020016122bb93929190615615565b60408051601f19818403018152918152815160209283012060008181529285905291208054919250906122ed906151b7565b1590506122ff57946000945092505050565b6040805160608101825286518152602080880151818301528783015182840152600084815290859052919091208151819061233a90826154b4565b506020820151600182019061234f90826154b4565b506040820151600282019061236490826154b4565b50905050807f52b29bbdd97ab983419f50fa1590e5ab75e9942279e95e10a08607b06c23238b8660000151876020015188604001516040516123a893929190615658565b60405180910390a2946001945092505050565b6000807fc17b4b708b6f44255c20913a9d97a05300b670342c71fe5ae5b617bd4db550009050600083602001518460400151856060015160405160200161240493929190615615565b60408051601f1981840301815291815281516020928301206000818152928590529120805491925090612436906151b7565b9050600003612471576040517f38c4ac1600000000000000000000000000000000000000000000000000000000815260040160405180910390fd5b61249b7f000000000000000000000000000000000000000000000000000000000000000042615417565b6103e885608001516124ad919061542a565b116124e4576040517f19605e0a00000000000000000000000000000000000000000000000000000000815260040160405180910390fd5b6040517feac708a30000000000000000000000000000000000000000000000000000000081526001600160a01b037f0000000000000000000000000000000000000000000000000000000000000000169063eac708a39061254b9088908890600401615691565b60006040518083038186803b15801561256357600080fd5b505afa158015612577573d6000803e3d6000fd5b50505050600061258a8560000151613546565b6001600160a01b0381166000908152600185016020526040902054909150156125b95760009350505050610a33565b6001600160a01b038116600081815260018501602052604090819020849055865190518492917fbb4d6428d53ea924d94be0488473deb5c0a70c979f8477d21911cb5bee4037fd9161260b91906150fa565b60405180910390a350600195945050505050565b6000868152600360209081526040808320815161012081018352600682018054825260078301549482019490945260088201549281019290925260098101546060830152600a8101546080830152600b8101546001600160a01b0390811660a0840152600c8201541660c0830152600d81015460e0830152600e018054919291610100840191906126af906151b7565b80601f01602080910402602001604051908101604052809291908181526020018280546126db906151b7565b80156127285780601f106126fd57610100808354040283529160200191612728565b820191906000526020600020905b81548152906001019060200180831161270b57829003601f168201915b5050509190925250505060a08101519091506001600160a01b0316612779576040517f5a7aa8b600000000000000000000000000000000000000000000000000000000815260040160405180910390fd5b600061278b8a8a8a8a8a8a8a8a6137bb565b90506001600360008a815260200190815260200160002060020160008282546127b49190615404565b9091555050600088815260036020819052604091829020429101558201516127df90829087906139ea565b6000806127ef8a858b8b8a613a98565b909250905060003a6128217f000000000000000000000000000000000000000000000000000000000000000084615404565b61282b9190615465565b6001600160a01b03808616600090815260208190526040902054606088015192935061285a9291169083613bac565b60008b815260036020526040908190206002015490518c907fa4969f44f2f55a4f77dc04c4ab69ce224aee2f3f4c0e76de3258345db80cd681906128ab908e908e908e908e908b9089904290615725565b60405180910390a25050505050505050505050505050565b60008181527fc17b4b708b6f44255c20913a9d97a05300b670342c71fe5ae5b617bd4db5500060208190526040822080546128fd906151b7565b905060000361290f5750600092915050565b60008381526020829052604081209061292882826146f0565b6129366001830160006146f0565b6129446002830160006146f0565b505060405183907f4b71bedda4217966eac1aa49e35b1550e5ab87064ae179d1b36b393bd04eb74390600090a250600192915050565b6001600160a01b038281166000908152602081905260409020548116908216146129d0576040517f07191dbf00000000000000000000000000000000000000000000000000000000815260040160405180910390fd5b6001600160a01b038083166000908152602081905260409020546129f49116613c45565b506001600160a01b03821660008181526020819052604080822080547fffffffffffffffffffffffff0000000000000000000000000000000000000000169055517f962f6082057b3b4fb251973bd737c7707bf1733cf85a0b7c86fd6c3caca260c59190a25050565b6000868152600160208181526040808420815161012081018352815481529381015492840192909252600282015490830152600381015460608301526004810154608083015260058101546001600160a01b0390811660a084015260068201541660c0830152600781015460e083015260088101805461010084019190612ae3906151b7565b80601f0160208091040260200160405190810160405280929190818152602001828054612b0f906151b7565b8015612b5c5780601f10612b3157610100808354040283529160200191612b5c565b820191906000526020600020905b815481529060010190602001808311612b3f57829003601f168201915b5050509190925250505060a08101519091506001600160a01b0316612bad576040517f9da0635900000000000000000000000000000000000000000000000000000000815260040160405180910390fd5b8051612bda907f000000000000000000000000000000000000000000000000000000000000000090615404565b421115612c13576040517f159413f400000000000000000000000000000000000000000000000000000000815260040160405180910390fd5b6000612c258a8a8a8a8a8a8a8a6137bb565b600089815260016020819052604082208281559081018290556002810182905560038101829055600481018290556005810180547fffffffffffffffffffffffff0000000000000000000000000000000000000000908116909155600682018054909116905560078101829055919250612ca260088301826146f0565b5050612cb8818360a00151878560400151613cf8565b600080612cc88a858b8b8a613a98565b909250905060003a612cfa7f000000000000000000000000000000000000000000000000000000000000000084615404565b612d049190615465565b6001600160a01b0380861660009081526020819052604090205460a08801516060890151939450612d3b9391909216919084613dc7565b8a7f3bcf275077501f1077e75b4e70896bf241dc8cbeec71823201ef711cfc454ea18b8b8b8b88604051612d73959493929190615766565b60405180910390a250505050505050505050505050565b7f000000000000000000000000000000000000000000000000000000000000000088111580612dd957507f00000000000000000000000000000000000000000000000000000000000000008810155b15612e10576040517f445e056c00000000000000000000000000000000000000000000000000000000815260040160405180910390fd5b3a871015612e4a576040517f4d8e7c6200000000000000000000000000000000000000000000000000000000815260040160405180910390fd5b600083612e574284615417565b612e61919061542a565b905034817f0000000000000000000000000000000000000000000000000000000000000000612eb07f000000000000000000000000000000000000000000000000000000000000000089615404565b612eba9190615404565b612ec4908b615465565b612ece9190615465565b1115612f06576040517f7273245b00000000000000000000000000000000000000000000000000000000815260040160405180910390fd5b6000817f0000000000000000000000000000000000000000000000000000000000000000612f547f00000000000000000000000000000000000000000000000000000000000000008d615465565b612f5e9190615404565b612f689190615465565b905080841015612fa4576040517fc3274e9900000000000000000000000000000000000000000000000000000000815260040160405180910390fd5b60006040518061012001604052804281526020018b8152602001868152602001348152602001888152602001612fd73390565b6001600160a01b03168152602001896001600160a01b031681526020018f81526020018e8e8080601f01602080910402602001604051908101604052809392919081815260200183838082843760009201919091525050509152509050613041818c8b8988613e7f565b6130767f00000000000000000000000000000000000000000000000000000000000000006001600160a01b03163330886134ca565b5050505050505050505050505050565b600082815260016020526040902060058101546001600160a01b038381169116146130dd576040517f8166e98400000000000000000000000000000000000000000000000000000000815260040160405180910390fd5b805461310a907f000000000000000000000000000000000000000000000000000000000000000090615404565b4211613142576040517fd856047b00000000000000000000000000000000000000000000000000000000815260040160405180910390fd5b60038082015460028084015460008781526001602081905260408220828155908101829055928301819055938201849055600482018490556005820180547fffffffffffffffffffffffff000000000000000000000000000000000000000090811690915560068301805490911690556007820184905591926131c860088301826146f0565b506131ff90506001600160a01b037f0000000000000000000000000000000000000000000000000000000000000000168583614043565b6000846001600160a01b03168360405160006040518083038185875af1925050503d806000811461324c576040519150601f19603f3d011682016040523d82523d6000602084013e613251565b606091505b505090508061328c576040517ffbe8c5be00000000000000000000000000000000000000000000000000000000815260040160405180910390fd5b60405186907f58243f872c550ad02802199ade99eb4250f6bb19e9abbf2d3de7b969c0eb5e4f90600090a2505050505050565b7ff0c57e16840df040f15088dc2f81fe391c3923bec73e23a9662efc9c229c6a005468010000000000000000900460ff166113ec576040517fd7e6bcf800000000000000000000000000000000000000000000000000000000815260040160405180910390fd5b60008281527f02dd7bc7dec4dceedda775e58dd541e08a116c6c53815c0bd028192f7b626800602090815260408083206001600160a01b038516845290915290205460ff16611130576040517fe2517d3f0000000000000000000000000000000000000000000000000000000081526001600160a01b038216600482015260248101839052604401611812565b6133bc82614074565b6040516001600160a01b038316907fbc7cd75a20ee27fd9adebab32041f755214dbc6bffa90cc0225b39da2e5c2d3b90600090a280511561340157611104828261411c565b611130614192565b61343e7f00000000000000000000000000000000000000000000000000000000000000006001600160a01b03163330846134ca565b6000828152600360205260408120600801805483929061345f908490615404565b909155505060008281526003602052604081206009018054349290613485908490615404565b909155505060408051828152346020820152339184917fc94cd60a6b02ef454c8611bc981e47f93c0b4d348a5decc85f3e2c5818e8e34c910160405180910390a35050565b6040516001600160a01b0384811660248301528381166044830152606482018390526110b29186918216906323b872dd906084015b604051602081830303815290604052915060e01b6020820180517bffffffffffffffffffffffffffffffffffffffffffffffffffffffff83818316178352505050506141ca565b60008151604014613583576040517fbd9c80c100000000000000000000000000000000000000000000000000000000815260040160405180910390fd5b50805160209091012090565b6135b97f000000000000000000000000000000000000000000000000000000000000000085615404565b4211156135f2576040517f0a151d0b00000000000000000000000000000000000000000000000000000000815260040160405180910390fd5b604080517f5f8784d207b73e6da533ec436e4e68df897ada404898707128cf43ddf65f7a186020808301919091526001600160a01b038816828401526060808301889052835180840390910181526080830184528051908201207fb03948446334eb9b2196d5eb166f69b9d49403eb4a12f36de8d3f9f3cb8e15c360a08401527fd13b7bcdea8dd87e8f9a0d206dc73d6264326a7f9f4c38119298bb466e785c5360c08401527fc89efdaa54c0f20c7adf612882df0950f5a951637e0307cdcb4c672f298b8bc660e08085019190915284518085039091018152610100840185528051908301207f1901000000000000000000000000000000000000000000000000000000000000610120850152610122840152610142808401829052845180850390910181526101628401808652815191840191909120610182601f89018590049094028501840190955286815290939260009261376e92918991899182910183828082843760009201919091525086939250506142469050565b9050836001600160a01b0316816001600160a01b03161461129a576040517ff5b2592500000000000000000000000000000000000000000000000000000000815260040160405180910390fd5b60006137e77f000000000000000000000000000000000000000000000000000000000000000083615404565b421115613820576040517f0a151d0b00000000000000000000000000000000000000000000000000000000815260040160405180910390fd5b60007f37096cd2491f9c5ef86ecee2c1b7a06103393df9e824c16fab6722c818bd43ef88888860405161385492919061579c565b60408051918290038220602083019490945281019190915260608101919091526080810186905260ff851660a082015260c0810184905260e00160408051601f1981840301815282825280516020918201207fb03948446334eb9b2196d5eb166f69b9d49403eb4a12f36de8d3f9f3cb8e15c3918401919091527fd13b7bcdea8dd87e8f9a0d206dc73d6264326a7f9f4c38119298bb466e785c53918301919091527fc89efdaa54c0f20c7adf612882df0950f5a951637e0307cdcb4c672f298b8bc66060830152915060009060800160408051601f198184030181529082905280516020918201207f19010000000000000000000000000000000000000000000000000000000000009183019190915260228201526042810183905260620160405160208183030381529060405280519060200120905060006139d08c8c8080601f01602080910402602001604051908101604052809392919081815260200183838082843760009201919091525086939250506142469050565b90506139db81614270565b9b9a5050505050505050505050565b6001600160a01b038084166000908152602081905260409020547f000000000000000000000000000000000000000000000000000000000000000084027f0000000000000000000000000000000000000000000000000000000000000000019182840391613a7d917f00000000000000000000000000000000000000000000000000000000000000008116911684614043565b60045460009081526003602052604090206008015550505050565b60008085602001513a11613ba25760005a90508660c001516001600160a01b03168760800151898960a001518a60e001518b61010001518b8b8b604051602401613ae897969594939291906157ac565b60408051601f198184030181529181526020820180517bffffffffffffffffffffffffffffffffffffffffffffffffffffffff167f9e24036d0000000000000000000000000000000000000000000000000000000017905251613b4b9190615805565b60006040518083038160008787f1925050503d8060008114613b89576040519150601f19603f3d011682016040523d82523d6000602084013e613b8e565b606091505b50909350505a613b9e9082615417565b9150505b9550959350505050565b818111613bb95780613bbb565b815b90506000836001600160a01b03168260405160006040518083038185875af1925050503d8060008114613c0a576040519150601f19603f3d011682016040523d82523d6000602084013e613c0f565b606091505b5050600454600090815260036020526040812060090180549293508492909190613c3a908490615417565b909155505050505050565b6001600160a01b03811660009081527fc17b4b708b6f44255c20913a9d97a05300b670342c71fe5ae5b617bd4db5500160205260408120547fc17b4b708b6f44255c20913a9d97a05300b670342c71fe5ae5b617bd4db5500090613cac5750600092915050565b6001600160a01b0383166000818152600183016020526040808220829055517f0f586d928fc7ce3b60c8a7c276a8562f9f53b126cebe71cf612948dfc52eff169190a250600192915050565b6001600160a01b038085166000908152602081905260409020547f000000000000000000000000000000000000000000000000000000000000000084027f0000000000000000000000000000000000000000000000000000000000000000019182840391613d8b917f00000000000000000000000000000000000000000000000000000000000000008116911684614043565b613dbf6001600160a01b037f0000000000000000000000000000000000000000000000000000000000000000168683614043565b505050505050565b818111613dd45780613dd6565b815b90506000846001600160a01b03168260405160006040518083038185875af1925050503d8060008114613e25576040519150601f19603f3d011682016040523d82523d6000602084013e613e2a565b606091505b50909150506001600160a01b038416613e438385615417565b604051600081818185875af1925050503d806000811461129a576040519150601f19603f3d011682016040523d82523d6000602084013e61129a565b6040518060e001604052808381526020018281526020016000815260200160008152602001858152602001846001600160a01b031681526020018681525060036000600460008154613ed09061547c565b918290555081526020808201929092526040908101600020835181558383015160018201558382015160028201556060808501516003830155608080860151600484015560a0808701516005850180546001600160a01b039283167fffffffffffffffffffffffff00000000000000000000000000000000000000009182161790915560c0808a015180516006890190815599810151600789015597880151600888015594870151600987015592860151600a86015590850151600b8501805491831691841691909117905591840151600c8401805491909316911617905560e0820151600d820155610100820151909290600e840190613fd190826154b4565b505050905050613fde3390565b6001600160a01b03166004547f4a8b714796e387ac5742bdfeb3278d2e5ff8fe58ec4bbdf13020711f7c9c1fd28488604001518589898c60e001518d610100015142604051614034989796959493929190615821565b60405180910390a35050505050565b6040516001600160a01b0383811660248301526044820183905261110491859182169063a9059cbb906064016134ff565b806001600160a01b03163b6000036140c3576040517f4c9c8ce30000000000000000000000000000000000000000000000000000000081526001600160a01b0382166004820152602401611812565b7f360894a13ba1a3210667c828492db98dca3e2076cc3735a920a3ca505d382bbc80547fffffffffffffffffffffffff0000000000000000000000000000000000000000166001600160a01b0392909216919091179055565b6060600080846001600160a01b0316846040516141399190615805565b600060405180830381855af49150503d8060008114614174576040519150601f19603f3d011682016040523d82523d6000602084013e614179565b606091505b5091509150614189858383614355565b95945050505050565b34156113ec576040517fb398979f00000000000000000000000000000000000000000000000000000000815260040160405180910390fd5b60006141df6001600160a01b038416836143ca565b905080516000141580156142045750808060200190518101906142029190615878565b155b15611104576040517f5274afe70000000000000000000000000000000000000000000000000000000081526001600160a01b0384166004820152602401611812565b60008060008061425686866143d8565b9250925092506142668282614425565b5090949350505050565b6001600160a01b03811660009081527fc17b4b708b6f44255c20913a9d97a05300b670342c71fe5ae5b617bd4db5500160205260409020547fc17b4b708b6f44255c20913a9d97a05300b670342c71fe5ae5b617bd4db550009080614301576040517f3dd8ca9500000000000000000000000000000000000000000000000000000000815260040160405180910390fd5b6000818152602083905260409020805461431a906151b7565b9050600003611104576040517f38c4ac1600000000000000000000000000000000000000000000000000000000815260040160405180910390fd5b60608261436a5761436582614529565b611283565b815115801561438157506001600160a01b0384163b155b156143c3576040517f9996b3150000000000000000000000000000000000000000000000000000000081526001600160a01b0385166004820152602401611812565b5092915050565b60606112838383600061456b565b600080600083516041036144125760208401516040850151606086015160001a61440488828585614621565b95509550955050505061441e565b50508151600091506002905b9250925092565b60008260038111156144395761443961589a565b03614442575050565b60018260038111156144565761445661589a565b0361448d576040517ff645eedf00000000000000000000000000000000000000000000000000000000815260040160405180910390fd5b60028260038111156144a1576144a161589a565b036144db576040517ffce698f700000000000000000000000000000000000000000000000000000000815260048101829052602401611812565b60038260038111156144ef576144ef61589a565b03611130576040517fd78bce0c00000000000000000000000000000000000000000000000000000000815260048101829052602401611812565b8051156145395780518082602001fd5b6040517f1425ea4200000000000000000000000000000000000000000000000000000000815260040160405180910390fd5b6060814710156145a9576040517fcd786059000000000000000000000000000000000000000000000000000000008152306004820152602401611812565b600080856001600160a01b031684866040516145c59190615805565b60006040518083038185875af1925050503d8060008114614602576040519150601f19603f3d011682016040523d82523d6000602084013e614607565b606091505b5091509150614617868383614355565b9695505050505050565b600080807f7fffffffffffffffffffffffffffffff5d576e7357a4501ddfe92f46681b20a084111561465c57506000915060039050826146e6565b604080516000808252602082018084528a905260ff891692820192909252606081018790526080810186905260019060a0016020604051602081039080840390855afa1580156146b0573d6000803e3d6000fd5b5050604051601f1901519150506001600160a01b0381166146dc575060009250600191508290506146e6565b9250600091508190505b9450945094915050565b5080546146fc906151b7565b6000825580601f1061470c575050565b601f0160209004906000526020600020908101906112cc91905b8082111561473a5760008155600101614726565b5090565b80356001600160a01b038116811461475557600080fd5b919050565b60006020828403121561476c57600080fd5b6112838261473e565b60006020828403121561478757600080fd5b81357fffffffff000000000000000000000000000000000000000000000000000000008116811461128357600080fd5b6000602082840312156147c957600080fd5b5035919050565b60005b838110156147eb5781810151838201526020016147d3565b50506000910152565b6000815180845261480c8160208601602086016147d0565b601f01601f19169290920160200192915050565b8781528660208201528560408201528460608201528360808201526001600160a01b03831660a082015260e060c0820152815160e08201526000602083015161010081818501526040850151915061012082818601526060860151610140860152608086015161016086015260a086015192506148a96101808601846001600160a01b03169052565b60c08601516001600160a01b03166101a086015260e08601516101c0860152908501516101e085019190915290506148e56102008401826147f4565b9a9950505050505050505050565b60006101208b83528a60208401528960408401528860608401528760808401526001600160a01b0380881660a085015280871660c0850152508460e084015280610100840152614945818401856147f4565b9c9b505050505050505050505050565b60208152600082516060602084015261497160808401826147f4565b90506020840151601f198085840301604086015261498f83836147f4565b925060408601519150808584030160608601525061418982826147f4565b7f4e487b7100000000000000000000000000000000000000000000000000000000600052604160045260246000fd5b6040516060810167ffffffffffffffff811182821017156149ff576149ff6149ad565b60405290565b60405160a0810167ffffffffffffffff811182821017156149ff576149ff6149ad565b604051601f8201601f1916810167ffffffffffffffff81118282101715614a5157614a516149ad565b604052919050565b600082601f830112614a6a57600080fd5b813567ffffffffffffffff811115614a8457614a846149ad565b614a976020601f19601f84011601614a28565b818152846020838601011115614aac57600080fd5b816020850160208301376000918101602001919091529392505050565b60008060408385031215614adc57600080fd5b614ae58361473e565b915060208084013567ffffffffffffffff80821115614b0357600080fd5b818601915086601f830112614b1757600080fd5b813581811115614b2957614b296149ad565b8060051b614b38858201614a28565b918252838101850191858101908a841115614b5257600080fd5b86860192505b83831015614c1057823585811115614b705760008081fd5b86016060818d03601f1901811315614b885760008081fd5b614b906149dc565b8983013588811115614ba25760008081fd5b614bb08f8c83870101614a59565b825250604083013588811115614bc65760008081fd5b614bd48f8c83870101614a59565b828c015250908201359087821115614bec5760008081fd5b614bfa8e8b84860101614a59565b6040820152845250509186019190860190614b58565b809750505050505050509250929050565b60008060408385031215614c3457600080fd5b82359150614c446020840161473e565b90509250929050565b60008083601f840112614c5f57600080fd5b50813567ffffffffffffffff811115614c7757600080fd5b602083019150836020828501011115614c8f57600080fd5b9250929050565b60008060008060608587031215614cac57600080fd5b8435935060208501359250604085013567ffffffffffffffff811115614cd157600080fd5b614cdd87828801614c4d565b95989497509550505050565b60008060408385031215614cfc57600080fd5b614d058361473e565b9150602083013567ffffffffffffffff811115614d2157600080fd5b614d2d85828601614a59565b9150509250929050565b600080600060608486031215614d4c57600080fd5b505081359360208301359350604090920135919050565b60008060408385031215614d7657600080fd5b50508035926020909101359150565b600080600080600080600060e0888a031215614da057600080fd5b87359650602088013567ffffffffffffffff811115614dbe57600080fd5b614dca8a828b01614a59565b9650506040880135945060608801359350614de76080890161473e565b9250614df560a0890161473e565b915060c0880135905092959891949750929550565b600060a08284031215614e1c57600080fd5b614e24614a05565b9050813567ffffffffffffffff80821115614e3e57600080fd5b614e4a85838601614a59565b83526020840135915080821115614e6057600080fd5b614e6c85838601614a59565b60208401526040840135915080821115614e8557600080fd5b614e9185838601614a59565b60408401526060840135915080821115614eaa57600080fd5b50614eb784828501614a59565b6060830152506080820135608082015292915050565b600080600080600060808688031215614ee557600080fd5b853567ffffffffffffffff80821115614efd57600080fd5b614f0989838a01614a59565b96506020880135915080821115614f1f57600080fd5b614f2b89838a01614e0a565b95506040880135915080821115614f4157600080fd5b50614f4e88828901614c4d565b96999598509660600135949350505050565b60008060008060008060608789031215614f7957600080fd5b863567ffffffffffffffff80821115614f9157600080fd5b614f9d8a838b01614c4d565b90985096506020890135915080821115614fb657600080fd5b614fc28a838b01614c4d565b90965094506040890135915080821115614fdb57600080fd5b50614fe889828a01614c4d565b979a9699509497509295939492505050565b6000806040838503121561500d57600080fd5b823567ffffffffffffffff8082111561502557600080fd5b61503186838701614a59565b9350602085013591508082111561504757600080fd5b50614d2d85828601614e0a565b60008060008060008060008060c0898b03121561507057600080fd5b883567ffffffffffffffff8082111561508857600080fd5b6150948c838d01614c4d565b909a50985060208b0135975060408b01359150808211156150b457600080fd5b506150c18b828c01614c4d565b90965094505060608901359250608089013560ff811681146150e257600080fd5b8092505060a089013590509295985092959890939650565b60208152600061128360208301846147f4565b60008060008060008060008060008060006101408c8e03121561512f57600080fd5b8b359a5060208c013567ffffffffffffffff81111561514d57600080fd5b6151598e828f01614c4d565b909b5099505060408c0135975060608c0135965061517960808d0161473e565b955061518760a08d0161473e565b945060c08c0135935060e08c013592506101008c013591506101208c013590509295989b509295989b9093969950565b600181811c908216806151cb57607f821691505b6020821081036112bc577f4e487b7100000000000000000000000000000000000000000000000000000000600052602260045260246000fd5b7f4e487b7100000000000000000000000000000000000000000000000000000000600052603260045260246000fd5b601f821115611104576000816000526020600020601f850160051c8101602086101561525c5750805b601f850160051c820191505b81811015613dbf57828155600101615268565b67ffffffffffffffff831115615293576152936149ad565b6152a7836152a183546151b7565b83615233565b6000601f8411600181146152f957600085156152c35750838201355b7fffffffffffffffffffffffffffffffffffffffffffffffffffffffffffffffff600387901b1c1916600186901b178355611197565b600083815260209020601f19861690835b8281101561532a578685013582556020948501946001909201910161530a565b5086821015615365577fffffffffffffffffffffffffffffffffffffffffffffffffffffffffffffffff60f88860031b161c19848701351681555b505060018560011b0183555050505050565b818352818160208501375060006020828401015260006020601f19601f840116840101905092915050565b838152604060208201526000614189604083018486615377565b6000602082840312156153ce57600080fd5b5051919050565b7f4e487b7100000000000000000000000000000000000000000000000000000000600052601160045260246000fd5b80820180821115610a3357610a336153d5565b81810381811115610a3357610a336153d5565b600082615460577f4e487b7100000000000000000000000000000000000000000000000000000000600052601260045260246000fd5b500490565b8082028115828204841417610a3357610a336153d5565b60007fffffffffffffffffffffffffffffffffffffffffffffffffffffffffffffffff82036154ad576154ad6153d5565b5060010190565b815167ffffffffffffffff8111156154ce576154ce6149ad565b6154e2816154dc84546151b7565b84615233565b602080601f83116001811461553557600084156154ff5750858301515b7fffffffffffffffffffffffffffffffffffffffffffffffffffffffffffffffff600386901b1c1916600185901b178555613dbf565b600085815260208120601f198616915b8281101561556457888601518255948401946001909101908401615545565b50858210156155a057878501517fffffffffffffffffffffffffffffffffffffffffffffffffffffffffffffffff600388901b60f8161c191681555b5050505050600190811b01905550565b60006101408c83528060208401526155ca8184018d6147f4565b604084019b909b5250506060810197909752608087019590955260a08601939093526001600160a01b0391821660c08601521660e08401526101008301526101209091015292915050565b600084516156278184602089016147d0565b84519083019061563b8183602089016147d0565b845191019061564e8183602088016147d0565b0195945050505050565b60608152600061566b60608301866147f4565b828103602084015261567d81866147f4565b9050828103604084015261461781856147f4565b6040815260006156a460408301856147f4565b8281036020840152835160a082526156bf60a08301826147f4565b9050602085015182820360208401526156d882826147f4565b915050604085015182820360408401526156f282826147f4565b9150506060850151828203606084015261570c82826147f4565b9150506080850151608083015280925050509392505050565b60c08152600061573960c08301898b615377565b60208301979097525060ff9490941660408501529115156060840152608083015260a09091015292915050565b60808152600061577a608083018789615377565b60208301959095525060ff929092166040830152151560609091015292915050565b8183823760009101908152919050565b8781526001600160a01b038716602082015285604082015260c0606082015260006157da60c08301876147f4565b82810360808401526157ed818688615377565b91505060ff831660a083015298975050505050505050565b600082516158178184602087016147d0565b9190910192915050565b60006101008a83528960208401528860408401528760608401526001600160a01b03871660808401528560a08401528060c0840152615862818401866147f4565b9150508260e08301529998505050505050505050565b60006020828403121561588a57600080fd5b8151801515811461128357600080fd5b7f4e487b7100000000000000000000000000000000000000000000000000000000600052602160045260246000fdfea2646970667358221220f73900679302d1512593871ac08756bf1bfa4f61eabd4f94e8fc571af839106464736f6c63430008190033",
  "linkReferences": {},
  "deployedLinkReferences": {}
}