{
  "_format": "hh-sol-artifact-1",
  "contractName": "Relay",
  "sourceName": "contracts/serverless-v2/Relay.sol",
  "abi": [
    {
      "inputs": [
        {
          "internalType": "contract IAttestationVerifier",
          "name": "attestationVerifier",
          "type": "address"
        },
        {
          "internalType": "uint256",
          "name": "maxAge",
          "type": "uint256"
        },
        {
          "internalType": "contract IERC20",
          "name": "_token",
          "type": "address"
        },
        {
          "internalType": "uint256",
          "name": "_globalMinTimeout",
          "type": "uint256"
        },
        {
          "internalType": "uint256",
          "name": "_globalMaxTimeout",
          "type": "uint256"
        },
        {
          "internalType": "uint256",
          "name": "_overallTimeout",
          "type": "uint256"
        },
        {
          "internalType": "uint256",
          "name": "_gatewayFeePerJob",
          "type": "uint256"
        },
        {
          "internalType": "uint256",
          "name": "_fixedGas",
          "type": "uint256"
        },
        {
          "internalType": "uint256",
          "name": "_callbackMeasureGas",
          "type": "uint256"
        }
      ],
      "stateMutability": "nonpayable",
      "type": "constructor"
    },
    {
      "inputs": [],
      "name": "AccessControlBadConfirmation",
      "type": "error"
    },
    {
      "inputs": [
        {
          "internalType": "address",
          "name": "account",
          "type": "address"
        },
        {
          "internalType": "bytes32",
          "name": "neededRole",
          "type": "bytes32"
        }
      ],
      "name": "AccessControlUnauthorizedAccount",
      "type": "error"
    },
    {
      "inputs": [
        {
          "internalType": "address",
          "name": "target",
          "type": "address"
        }
      ],
      "name": "AddressEmptyCode",
      "type": "error"
    },
    {
      "inputs": [
        {
          "internalType": "address",
          "name": "account",
          "type": "address"
        }
      ],
      "name": "AddressInsufficientBalance",
      "type": "error"
    },
    {
      "inputs": [],
      "name": "AttestationAutherAttestationTooOld",
      "type": "error"
    },
    {
      "inputs": [],
      "name": "AttestationAutherImageNotInFamily",
      "type": "error"
    },
    {
      "inputs": [],
      "name": "AttestationAutherImageNotWhitelisted",
      "type": "error"
    },
    {
      "inputs": [],
      "name": "AttestationAutherKeyNotVerified",
      "type": "error"
    },
    {
      "inputs": [],
      "name": "AttestationAutherMismatchedLengths",
      "type": "error"
    },
    {
      "inputs": [],
      "name": "AttestationAutherPCRsInvalid",
      "type": "error"
    },
    {
      "inputs": [],
      "name": "AttestationAutherPubkeyLengthInvalid",
      "type": "error"
    },
    {
      "inputs": [],
      "name": "ECDSAInvalidSignature",
      "type": "error"
    },
    {
      "inputs": [
        {
          "internalType": "uint256",
          "name": "length",
          "type": "uint256"
        }
      ],
      "name": "ECDSAInvalidSignatureLength",
      "type": "error"
    },
    {
      "inputs": [
        {
          "internalType": "bytes32",
          "name": "s",
          "type": "bytes32"
        }
      ],
      "name": "ECDSAInvalidSignatureS",
      "type": "error"
    },
    {
      "inputs": [
        {
          "internalType": "address",
          "name": "implementation",
          "type": "address"
        }
      ],
      "name": "ERC1967InvalidImplementation",
      "type": "error"
    },
    {
      "inputs": [],
      "name": "ERC1967NonPayable",
      "type": "error"
    },
    {
      "inputs": [],
      "name": "FailedInnerCall",
      "type": "error"
    },
    {
      "inputs": [],
      "name": "InvalidInitialization",
      "type": "error"
    },
    {
      "inputs": [],
      "name": "NotInitializing",
      "type": "error"
    },
    {
      "inputs": [],
      "name": "RelayCallbackDepositTransferFailed",
      "type": "error"
    },
    {
      "inputs": [],
      "name": "RelayEnvUnsupported",
      "type": "error"
    },
    {
      "inputs": [],
      "name": "RelayGatewayAlreadyExists",
      "type": "error"
    },
    {
      "inputs": [],
      "name": "RelayGlobalEnvAlreadySupported",
      "type": "error"
    },
    {
      "inputs": [],
      "name": "RelayGlobalEnvAlreadyUnsupported",
      "type": "error"
    },
    {
      "inputs": [],
      "name": "RelayInsufficientCallbackDeposit",
      "type": "error"
    },
    {
      "inputs": [],
      "name": "RelayInsufficientMaxGasPrice",
      "type": "error"
    },
    {
      "inputs": [],
      "name": "RelayInvalidGatewayOwner",
      "type": "error"
    },
    {
      "inputs": [],
      "name": "RelayInvalidGlobalTimeouts",
      "type": "error"
    },
    {
      "inputs": [],
      "name": "RelayInvalidSigner",
      "type": "error"
    },
    {
      "inputs": [],
      "name": "RelayInvalidToken",
      "type": "error"
    },
    {
      "inputs": [],
      "name": "RelayInvalidUserTimeout",
      "type": "error"
    },
    {
      "inputs": [],
      "name": "RelayJobNotExists",
      "type": "error"
    },
    {
      "inputs": [],
      "name": "RelayOverallTimeoutNotOver",
      "type": "error"
    },
    {
      "inputs": [],
      "name": "RelayOverallTimeoutOver",
      "type": "error"
    },
    {
      "inputs": [],
      "name": "RelaySignatureTooOld",
      "type": "error"
    },
    {
      "inputs": [],
      "name": "RelayZeroAddressAdmin",
      "type": "error"
    },
    {
      "inputs": [
        {
          "internalType": "address",
          "name": "token",
          "type": "address"
        }
      ],
      "name": "SafeERC20FailedOperation",
      "type": "error"
    },
    {
      "inputs": [],
      "name": "UUPSUnauthorizedCallContext",
      "type": "error"
    },
    {
      "inputs": [
        {
          "internalType": "bytes32",
          "name": "slot",
          "type": "bytes32"
        }
      ],
      "name": "UUPSUnsupportedProxiableUUID",
      "type": "error"
    },
    {
      "anonymous": false,
      "inputs": [
        {
          "indexed": true,
          "internalType": "bytes32",
          "name": "imageId",
          "type": "bytes32"
        },
        {
          "indexed": false,
          "internalType": "bytes32",
          "name": "family",
          "type": "bytes32"
        }
      ],
      "name": "EnclaveImageAddedToFamily",
      "type": "event"
    },
    {
      "anonymous": false,
      "inputs": [
        {
          "indexed": true,
          "internalType": "bytes32",
          "name": "imageId",
          "type": "bytes32"
        },
        {
          "indexed": false,
          "internalType": "bytes32",
          "name": "family",
          "type": "bytes32"
        }
      ],
      "name": "EnclaveImageRemovedFromFamily",
      "type": "event"
    },
    {
      "anonymous": false,
      "inputs": [
        {
          "indexed": true,
          "internalType": "bytes32",
          "name": "imageId",
          "type": "bytes32"
        }
      ],
      "name": "EnclaveImageRevoked",
      "type": "event"
    },
    {
      "anonymous": false,
      "inputs": [
        {
          "indexed": true,
          "internalType": "bytes32",
          "name": "imageId",
          "type": "bytes32"
        },
        {
          "indexed": false,
          "internalType": "bytes",
          "name": "PCR0",
          "type": "bytes"
        },
        {
          "indexed": false,
          "internalType": "bytes",
          "name": "PCR1",
          "type": "bytes"
        },
        {
          "indexed": false,
          "internalType": "bytes",
          "name": "PCR2",
          "type": "bytes"
        }
      ],
      "name": "EnclaveImageWhitelisted",
      "type": "event"
    },
    {
      "anonymous": false,
      "inputs": [
        {
          "indexed": true,
          "internalType": "address",
          "name": "enclaveAddress",
          "type": "address"
        }
      ],
      "name": "EnclaveKeyRevoked",
      "type": "event"
    },
    {
      "anonymous": false,
      "inputs": [
        {
          "indexed": true,
          "internalType": "address",
          "name": "enclaveAddress",
          "type": "address"
        },
        {
          "indexed": true,
          "internalType": "bytes32",
          "name": "imageId",
          "type": "bytes32"
        },
        {
          "indexed": false,
          "internalType": "bytes",
          "name": "enclavePubKey",
          "type": "bytes"
        }
      ],
      "name": "EnclaveKeyVerified",
      "type": "event"
    },
    {
      "anonymous": false,
      "inputs": [
        {
          "indexed": true,
          "internalType": "address",
          "name": "enclaveAddress",
          "type": "address"
        },
        {
          "indexed": true,
          "internalType": "bytes32",
          "name": "imageId",
          "type": "bytes32"
        },
        {
          "indexed": false,
          "internalType": "bytes",
          "name": "enclavePubKey",
          "type": "bytes"
        }
      ],
      "name": "EnclaveKeyWhitelisted",
      "type": "event"
    },
    {
      "anonymous": false,
      "inputs": [
        {
          "indexed": true,
          "internalType": "address",
          "name": "enclaveAddress",
          "type": "address"
        }
      ],
      "name": "GatewayDeregistered",
      "type": "event"
    },
    {
      "anonymous": false,
      "inputs": [
        {
          "indexed": true,
          "internalType": "address",
          "name": "owner",
          "type": "address"
        },
        {
          "indexed": true,
          "internalType": "address",
          "name": "enclaveAddress",
          "type": "address"
        }
      ],
      "name": "GatewayRegistered",
      "type": "event"
    },
    {
      "anonymous": false,
      "inputs": [
        {
          "indexed": true,
          "internalType": "uint8",
          "name": "env",
          "type": "uint8"
        },
        {
          "indexed": false,
          "internalType": "uint256",
          "name": "executionFeePerMs",
          "type": "uint256"
        }
      ],
      "name": "GlobalEnvAdded",
      "type": "event"
    },
    {
      "anonymous": false,
      "inputs": [
        {
          "indexed": true,
          "internalType": "uint8",
          "name": "env",
          "type": "uint8"
        }
      ],
      "name": "GlobalEnvRemoved",
      "type": "event"
    },
    {
      "anonymous": false,
      "inputs": [
        {
          "indexed": false,
          "internalType": "uint64",
          "name": "version",
          "type": "uint64"
        }
      ],
      "name": "Initialized",
      "type": "event"
    },
    {
      "anonymous": false,
      "inputs": [
        {
          "indexed": true,
          "internalType": "uint256",
          "name": "jobId",
          "type": "uint256"
        }
      ],
      "name": "JobCancelled",
      "type": "event"
    },
    {
      "anonymous": false,
      "inputs": [
        {
          "indexed": true,
          "internalType": "uint256",
          "name": "jobId",
          "type": "uint256"
        },
        {
          "indexed": true,
          "internalType": "uint8",
          "name": "env",
          "type": "uint8"
        },
        {
          "indexed": false,
          "internalType": "bytes32",
          "name": "codehash",
          "type": "bytes32"
        },
        {
          "indexed": false,
          "internalType": "bytes",
          "name": "codeInputs",
          "type": "bytes"
        },
        {
          "indexed": false,
          "internalType": "uint256",
          "name": "userTimeout",
          "type": "uint256"
        },
        {
          "indexed": false,
          "internalType": "uint256",
          "name": "maxGasPrice",
          "type": "uint256"
        },
        {
          "indexed": false,
          "internalType": "uint256",
          "name": "usdcDeposit",
          "type": "uint256"
        },
        {
          "indexed": false,
          "internalType": "uint256",
          "name": "callbackDeposit",
          "type": "uint256"
        },
        {
          "indexed": false,
          "internalType": "address",
          "name": "refundAccount",
          "type": "address"
        },
        {
          "indexed": false,
          "internalType": "address",
          "name": "callbackContract",
          "type": "address"
        },
        {
          "indexed": false,
          "internalType": "uint256",
          "name": "startTime",
          "type": "uint256"
        },
        {
          "indexed": false,
          "internalType": "uint256",
          "name": "callbackGasLimit",
          "type": "uint256"
        }
      ],
      "name": "JobRelayed",
      "type": "event"
    },
    {
      "anonymous": false,
      "inputs": [
        {
          "indexed": true,
          "internalType": "uint256",
          "name": "jobId",
          "type": "uint256"
        },
        {
          "indexed": false,
          "internalType": "bytes",
          "name": "output",
          "type": "bytes"
        },
        {
          "indexed": false,
          "internalType": "uint256",
          "name": "totalTime",
          "type": "uint256"
        },
        {
          "indexed": false,
          "internalType": "uint256",
          "name": "errorCode",
          "type": "uint256"
        },
        {
          "indexed": false,
          "internalType": "bool",
          "name": "success",
          "type": "bool"
        }
      ],
      "name": "JobResponded",
      "type": "event"
    },
    {
      "anonymous": false,
      "inputs": [
        {
          "indexed": true,
          "internalType": "bytes32",
          "name": "role",
          "type": "bytes32"
        },
        {
          "indexed": true,
          "internalType": "bytes32",
          "name": "previousAdminRole",
          "type": "bytes32"
        },
        {
          "indexed": true,
          "internalType": "bytes32",
          "name": "newAdminRole",
          "type": "bytes32"
        }
      ],
      "name": "RoleAdminChanged",
      "type": "event"
    },
    {
      "anonymous": false,
      "inputs": [
        {
          "indexed": true,
          "internalType": "bytes32",
          "name": "role",
          "type": "bytes32"
        },
        {
          "indexed": true,
          "internalType": "address",
          "name": "account",
          "type": "address"
        },
        {
          "indexed": true,
          "internalType": "address",
          "name": "sender",
          "type": "address"
        }
      ],
      "name": "RoleGranted",
      "type": "event"
    },
    {
      "anonymous": false,
      "inputs": [
        {
          "indexed": true,
          "internalType": "bytes32",
          "name": "role",
          "type": "bytes32"
        },
        {
          "indexed": true,
          "internalType": "address",
          "name": "account",
          "type": "address"
        },
        {
          "indexed": true,
          "internalType": "address",
          "name": "sender",
          "type": "address"
        }
      ],
      "name": "RoleRevoked",
      "type": "event"
    },
    {
      "anonymous": false,
      "inputs": [
        {
          "indexed": true,
          "internalType": "address",
          "name": "implementation",
          "type": "address"
        }
      ],
      "name": "Upgraded",
      "type": "event"
    },
    {
      "inputs": [],
      "name": "ATTESTATION_MAX_AGE",
      "outputs": [
        {
          "internalType": "uint256",
          "name": "",
          "type": "uint256"
        }
      ],
      "stateMutability": "view",
      "type": "function"
    },
    {
      "inputs": [],
      "name": "ATTESTATION_VERIFIER",
      "outputs": [
        {
          "internalType": "contract IAttestationVerifier",
          "name": "",
          "type": "address"
        }
      ],
      "stateMutability": "view",
      "type": "function"
    },
    {
      "inputs": [],
      "name": "CALLBACK_MEASURE_GAS",
      "outputs": [
        {
          "internalType": "uint256",
          "name": "",
          "type": "uint256"
        }
      ],
      "stateMutability": "view",
      "type": "function"
    },
    {
      "inputs": [],
      "name": "DEFAULT_ADMIN_ROLE",
      "outputs": [
        {
          "internalType": "bytes32",
          "name": "",
          "type": "bytes32"
        }
      ],
      "stateMutability": "view",
      "type": "function"
    },
    {
      "inputs": [],
      "name": "FIXED_GAS",
      "outputs": [
        {
          "internalType": "uint256",
          "name": "",
          "type": "uint256"
        }
      ],
      "stateMutability": "view",
      "type": "function"
    },
    {
      "inputs": [],
      "name": "GATEWAY_FEE_PER_JOB",
      "outputs": [
        {
          "internalType": "uint256",
          "name": "",
          "type": "uint256"
        }
      ],
      "stateMutability": "view",
      "type": "function"
    },
    {
      "inputs": [],
      "name": "GLOBAL_MAX_TIMEOUT",
      "outputs": [
        {
          "internalType": "uint256",
          "name": "",
          "type": "uint256"
        }
      ],
      "stateMutability": "view",
      "type": "function"
    },
    {
      "inputs": [],
      "name": "GLOBAL_MIN_TIMEOUT",
      "outputs": [
        {
          "internalType": "uint256",
          "name": "",
          "type": "uint256"
        }
      ],
      "stateMutability": "view",
      "type": "function"
    },
    {
      "inputs": [],
      "name": "JOB_RESPONSE_TYPEHASH",
      "outputs": [
        {
          "internalType": "bytes32",
          "name": "",
          "type": "bytes32"
        }
      ],
      "stateMutability": "view",
      "type": "function"
    },
    {
      "inputs": [],
      "name": "OVERALL_TIMEOUT",
      "outputs": [
        {
          "internalType": "uint256",
          "name": "",
          "type": "uint256"
        }
      ],
      "stateMutability": "view",
      "type": "function"
    },
    {
      "inputs": [],
      "name": "TOKEN",
      "outputs": [
        {
          "internalType": "contract IERC20",
          "name": "",
          "type": "address"
        }
      ],
      "stateMutability": "view",
      "type": "function"
    },
    {
      "inputs": [],
      "name": "UPGRADE_INTERFACE_VERSION",
      "outputs": [
        {
          "internalType": "string",
          "name": "",
          "type": "string"
        }
      ],
      "stateMutability": "view",
      "type": "function"
    },
    {
      "inputs": [
        {
          "internalType": "uint8",
          "name": "_env",
          "type": "uint8"
        },
        {
          "internalType": "uint256",
          "name": "_executionFeePerMs",
          "type": "uint256"
        }
      ],
      "name": "addGlobalEnv",
      "outputs": [],
      "stateMutability": "nonpayable",
      "type": "function"
    },
    {
      "inputs": [
        {
          "internalType": "address",
          "name": "_enclaveAddress",
          "type": "address"
        }
      ],
      "name": "allowOnlyVerified",
      "outputs": [],
      "stateMutability": "view",
      "type": "function"
    },
    {
      "inputs": [
        {
          "internalType": "address",
          "name": "_enclaveAddress",
          "type": "address"
        }
      ],
      "name": "deregisterGateway",
      "outputs": [],
      "stateMutability": "nonpayable",
      "type": "function"
    },
    {
      "inputs": [
        {
          "internalType": "uint8",
          "name": "",
          "type": "uint8"
        }
      ],
      "name": "executionEnv",
      "outputs": [
        {
          "internalType": "uint256",
          "name": "executionFeePerMs",
          "type": "uint256"
        },
        {
          "internalType": "bool",
          "name": "status",
          "type": "bool"
        }
      ],
      "stateMutability": "view",
      "type": "function"
    },
    {
      "inputs": [
        {
          "internalType": "address",
          "name": "",
          "type": "address"
        }
      ],
      "name": "gatewayOwners",
      "outputs": [
        {
          "internalType": "address",
          "name": "",
          "type": "address"
        }
      ],
      "stateMutability": "view",
      "type": "function"
    },
    {
      "inputs": [
        {
          "internalType": "uint8",
          "name": "_env",
          "type": "uint8"
        }
      ],
      "name": "getJobExecutionFeePerMs",
      "outputs": [
        {
          "internalType": "uint256",
          "name": "",
          "type": "uint256"
        }
      ],
      "stateMutability": "view",
      "type": "function"
    },
    {
      "inputs": [
        {
          "internalType": "bytes32",
          "name": "role",
          "type": "bytes32"
        }
      ],
      "name": "getRoleAdmin",
      "outputs": [
        {
          "internalType": "bytes32",
          "name": "",
          "type": "bytes32"
        }
      ],
      "stateMutability": "view",
      "type": "function"
    },
    {
      "inputs": [
        {
          "internalType": "address",
          "name": "_key",
          "type": "address"
        }
      ],
      "name": "getVerifiedKey",
      "outputs": [
        {
          "internalType": "bytes32",
          "name": "",
          "type": "bytes32"
        }
      ],
      "stateMutability": "view",
      "type": "function"
    },
    {
      "inputs": [
        {
          "internalType": "bytes32",
          "name": "_imageId",
          "type": "bytes32"
        }
      ],
      "name": "getWhitelistedImage",
      "outputs": [
        {
          "components": [
            {
              "internalType": "bytes",
              "name": "PCR0",
              "type": "bytes"
            },
            {
              "internalType": "bytes",
              "name": "PCR1",
              "type": "bytes"
            },
            {
              "internalType": "bytes",
              "name": "PCR2",
              "type": "bytes"
            }
          ],
          "internalType": "struct AttestationAutherUpgradeable.EnclaveImage",
          "name": "",
          "type": "tuple"
        }
      ],
      "stateMutability": "view",
      "type": "function"
    },
    {
      "inputs": [
        {
          "internalType": "bytes32",
          "name": "role",
          "type": "bytes32"
        },
        {
          "internalType": "address",
          "name": "account",
          "type": "address"
        }
      ],
      "name": "grantRole",
      "outputs": [],
      "stateMutability": "nonpayable",
      "type": "function"
    },
    {
      "inputs": [
        {
          "internalType": "bytes32",
          "name": "role",
          "type": "bytes32"
        },
        {
          "internalType": "address",
          "name": "account",
          "type": "address"
        }
      ],
      "name": "hasRole",
      "outputs": [
        {
          "internalType": "bool",
          "name": "",
          "type": "bool"
        }
      ],
      "stateMutability": "view",
      "type": "function"
    },
    {
      "inputs": [
        {
          "internalType": "address",
          "name": "_admin",
          "type": "address"
        },
        {
          "components": [
            {
              "internalType": "bytes",
              "name": "PCR0",
              "type": "bytes"
            },
            {
              "internalType": "bytes",
              "name": "PCR1",
              "type": "bytes"
            },
            {
              "internalType": "bytes",
              "name": "PCR2",
              "type": "bytes"
            }
          ],
          "internalType": "struct AttestationAutherUpgradeable.EnclaveImage[]",
          "name": "_images",
          "type": "tuple[]"
        }
      ],
      "name": "initialize",
      "outputs": [],
      "stateMutability": "nonpayable",
      "type": "function"
    },
    {
      "inputs": [
        {
          "internalType": "uint8",
          "name": "_env",
          "type": "uint8"
        }
      ],
      "name": "isEnvSupported",
      "outputs": [
        {
          "internalType": "bool",
          "name": "",
          "type": "bool"
        }
      ],
      "stateMutability": "view",
      "type": "function"
    },
    {
      "inputs": [
        {
          "internalType": "bytes32",
          "name": "imageId",
          "type": "bytes32"
        },
        {
          "internalType": "bytes32",
          "name": "family",
          "type": "bytes32"
        }
      ],
      "name": "isImageInFamily",
      "outputs": [
        {
          "internalType": "bool",
          "name": "",
          "type": "bool"
        }
      ],
      "stateMutability": "view",
      "type": "function"
    },
    {
      "inputs": [
        {
          "internalType": "uint256",
          "name": "_jobId",
          "type": "uint256"
        }
      ],
      "name": "jobCancel",
      "outputs": [],
      "stateMutability": "nonpayable",
      "type": "function"
    },
    {
      "inputs": [],
      "name": "jobCount",
      "outputs": [
        {
          "internalType": "uint256",
          "name": "",
          "type": "uint256"
        }
      ],
      "stateMutability": "view",
      "type": "function"
    },
    {
      "inputs": [
        {
          "internalType": "bytes",
          "name": "_signature",
          "type": "bytes"
        },
        {
          "internalType": "uint256",
          "name": "_jobId",
          "type": "uint256"
        },
        {
          "internalType": "bytes",
          "name": "_output",
          "type": "bytes"
        },
        {
          "internalType": "uint256",
          "name": "_totalTime",
          "type": "uint256"
        },
        {
          "internalType": "uint8",
          "name": "_errorCode",
          "type": "uint8"
        },
        {
          "internalType": "uint256",
          "name": "_signTimestamp",
          "type": "uint256"
        }
      ],
      "name": "jobResponse",
      "outputs": [],
      "stateMutability": "nonpayable",
      "type": "function"
    },
    {
      "inputs": [
        {
          "internalType": "uint256",
          "name": "",
          "type": "uint256"
        }
      ],
      "name": "jobs",
      "outputs": [
        {
          "internalType": "uint256",
          "name": "startTime",
          "type": "uint256"
        },
        {
          "internalType": "uint256",
          "name": "maxGasPrice",
          "type": "uint256"
        },
        {
          "internalType": "uint256",
          "name": "usdcDeposit",
          "type": "uint256"
        },
        {
          "internalType": "uint256",
          "name": "callbackDeposit",
          "type": "uint256"
        },
        {
          "internalType": "uint256",
          "name": "callbackGasLimit",
          "type": "uint256"
        },
        {
          "internalType": "address",
          "name": "jobOwner",
          "type": "address"
        },
        {
          "internalType": "address",
          "name": "callbackContract",
          "type": "address"
        },
        {
          "internalType": "uint8",
          "name": "env",
          "type": "uint8"
        },
        {
          "internalType": "bytes32",
          "name": "codehash",
          "type": "bytes32"
        },
        {
          "internalType": "bytes",
          "name": "codeInputs",
          "type": "bytes"
        }
      ],
      "stateMutability": "view",
      "type": "function"
    },
    {
      "inputs": [],
      "name": "proxiableUUID",
      "outputs": [
        {
          "internalType": "bytes32",
          "name": "",
          "type": "bytes32"
        }
      ],
      "stateMutability": "view",
      "type": "function"
    },
    {
      "inputs": [
        {
          "internalType": "bytes",
          "name": "_attestationSignature",
          "type": "bytes"
        },
        {
          "components": [
            {
              "internalType": "bytes",
              "name": "enclavePubKey",
              "type": "bytes"
            },
            {
              "internalType": "bytes",
              "name": "PCR0",
              "type": "bytes"
            },
            {
              "internalType": "bytes",
              "name": "PCR1",
              "type": "bytes"
            },
            {
              "internalType": "bytes",
              "name": "PCR2",
              "type": "bytes"
            },
            {
              "internalType": "uint256",
              "name": "timestampInMilliseconds",
              "type": "uint256"
            }
          ],
          "internalType": "struct IAttestationVerifier.Attestation",
          "name": "_attestation",
          "type": "tuple"
        },
        {
          "internalType": "bytes",
          "name": "_signature",
          "type": "bytes"
        },
        {
          "internalType": "uint256",
          "name": "_signTimestamp",
          "type": "uint256"
        }
      ],
      "name": "registerGateway",
      "outputs": [],
      "stateMutability": "nonpayable",
      "type": "function"
    },
    {
      "inputs": [
        {
          "internalType": "uint8",
          "name": "_env",
          "type": "uint8"
        },
        {
          "internalType": "bytes32",
          "name": "_codehash",
          "type": "bytes32"
        },
        {
          "internalType": "bytes",
          "name": "_codeInputs",
          "type": "bytes"
        },
        {
          "internalType": "uint256",
          "name": "_userTimeout",
          "type": "uint256"
        },
        {
          "internalType": "uint256",
          "name": "_maxGasPrice",
          "type": "uint256"
        },
        {
          "internalType": "address",
          "name": "_refundAccount",
          "type": "address"
        },
        {
          "internalType": "address",
          "name": "_callbackContract",
          "type": "address"
        },
        {
          "internalType": "uint256",
          "name": "_callbackGasLimit",
          "type": "uint256"
        }
      ],
      "name": "relayJob",
      "outputs": [],
      "stateMutability": "payable",
      "type": "function"
    },
    {
      "inputs": [
        {
          "internalType": "uint8",
          "name": "_env",
          "type": "uint8"
        }
      ],
      "name": "removeGlobalEnv",
      "outputs": [],
      "stateMutability": "nonpayable",
      "type": "function"
    },
    {
      "inputs": [
        {
          "internalType": "bytes32",
          "name": "role",
          "type": "bytes32"
        },
        {
          "internalType": "address",
          "name": "callerConfirmation",
          "type": "address"
        }
      ],
      "name": "renounceRole",
      "outputs": [],
      "stateMutability": "nonpayable",
      "type": "function"
    },
    {
      "inputs": [
        {
          "internalType": "bytes32",
          "name": "imageId",
          "type": "bytes32"
        }
      ],
      "name": "revokeEnclaveImage",
      "outputs": [
        {
          "internalType": "bool",
          "name": "",
          "type": "bool"
        }
      ],
      "stateMutability": "nonpayable",
      "type": "function"
    },
    {
      "inputs": [
        {
          "internalType": "bytes32",
          "name": "role",
          "type": "bytes32"
        },
        {
          "internalType": "address",
          "name": "account",
          "type": "address"
        }
      ],
      "name": "revokeRole",
      "outputs": [],
      "stateMutability": "nonpayable",
      "type": "function"
    },
    {
      "inputs": [
        {
          "internalType": "bytes4",
          "name": "interfaceId",
          "type": "bytes4"
        }
      ],
      "name": "supportsInterface",
      "outputs": [
        {
          "internalType": "bool",
          "name": "",
          "type": "bool"
        }
      ],
      "stateMutability": "view",
      "type": "function"
    },
    {
      "inputs": [
        {
          "internalType": "address",
          "name": "newImplementation",
          "type": "address"
        },
        {
          "internalType": "bytes",
          "name": "data",
          "type": "bytes"
        }
      ],
      "name": "upgradeToAndCall",
      "outputs": [],
      "stateMutability": "payable",
      "type": "function"
    },
    {
      "inputs": [
        {
          "internalType": "bytes",
          "name": "signature",
          "type": "bytes"
        },
        {
          "components": [
            {
              "internalType": "bytes",
              "name": "enclavePubKey",
              "type": "bytes"
            },
            {
              "internalType": "bytes",
              "name": "PCR0",
              "type": "bytes"
            },
            {
              "internalType": "bytes",
              "name": "PCR1",
              "type": "bytes"
            },
            {
              "internalType": "bytes",
              "name": "PCR2",
              "type": "bytes"
            },
            {
              "internalType": "uint256",
              "name": "timestampInMilliseconds",
              "type": "uint256"
            }
          ],
          "internalType": "struct IAttestationVerifier.Attestation",
          "name": "attestation",
          "type": "tuple"
        }
      ],
      "name": "verifyEnclaveKey",
      "outputs": [
        {
          "internalType": "bool",
          "name": "",
          "type": "bool"
        }
      ],
      "stateMutability": "nonpayable",
      "type": "function"
    },
    {
      "inputs": [
        {
          "internalType": "bytes",
          "name": "PCR0",
          "type": "bytes"
        },
        {
          "internalType": "bytes",
          "name": "PCR1",
          "type": "bytes"
        },
        {
          "internalType": "bytes",
          "name": "PCR2",
          "type": "bytes"
        }
      ],
      "name": "whitelistEnclaveImage",
      "outputs": [
        {
          "internalType": "bytes32",
          "name": "",
          "type": "bytes32"
        },
        {
          "internalType": "bool",
          "name": "",
          "type": "bool"
        }
      ],
      "stateMutability": "nonpayable",
      "type": "function"
    }
  ],
  "bytecode": "0x6101c06040523060805234801561001557600080fd5b50604051614ce0380380614ce083398101604081905261003491610192565b6001600160a01b03891660a05260c088905261004e6100cb565b6001600160a01b0387166100755760405163c844103f60e01b815260040160405180910390fd5b6001600160a01b03871660e0528486106100a15760405162fe194b60e31b815260040160405180910390fd5b61010095909552610120939093526101409190915261016052610180526101a05250610210915050565b7ff0c57e16840df040f15088dc2f81fe391c3923bec73e23a9662efc9c229c6a00805468010000000000000000900460ff161561011b5760405163f92ee8a960e01b815260040160405180910390fd5b80546001600160401b039081161461017a5780546001600160401b0319166001600160401b0390811782556040519081527fc7f505b2f371ae2175ee4913f4499e1f2633a7b5936321eed1cdaeb6115181d29060200160405180910390a15b50565b6001600160a01b038116811461017a57600080fd5b60008060008060008060008060006101208a8c0312156101b157600080fd5b89516101bc8161017d565b60208b015160408c0151919a5098506101d48161017d565b8097505060608a0151955060808a0151945060a08a0151935060c08a0151925060e08a015191506101008a015190509295985092959850929598565b60805160a05160c05160e05161010051610120516101405161016051610180516101a0516149d061031060003960008181610a37015261142c01526000818161087e01528181611450015261275a01526000818161079f015281816114d601526132d701526000818161059801528181612619015261298d015260008181610976015261135b015260008181610415015261133101526000818161069a015281816116b901528181612aa201528181613302015261333801526000818161076b01528181611f9301528181612da001526130810152600081816108e20152612031015260008181611a0601528181611a2f0152611be701526149d06000f3fe6080604052600436106102c65760003560e01c806375847b8411610179578063bdb3a870116100d6578063debfc2f31161008a578063f398cc7411610064578063f398cc74146109cf578063f6a17fe3146109ef578063fa3036bf14610a2557600080fd5b8063debfc2f314610944578063e29fcdc514610964578063e3ee2b761461099857600080fd5b8063cd79f906116100bb578063cd79f906146108d0578063d363a9f014610904578063d547741f1461092457600080fd5b8063bdb3a8701461086c578063c50d525d146108a057600080fd5b80639bc271361161012d578063a217fddf11610112578063a217fddf146107e1578063ad3cb1cc146107f6578063b9d546e01461084c57600080fd5b80639bc271361461078d578063a0ac45d5146107c157600080fd5b806391d148541161015e57806391d14854146106d457806395c60294146107395780639aec990e1461075957600080fd5b806375847b841461066857806382bfefc81461068857600080fd5b80632f2ff15d1161022757806352d1902d116101db5780636549bf48116101c05780636549bf48146105ba57806369815e57146105da5780636b5b21a61461060f57600080fd5b806352d1902d1461057157806358a14ad21461058657600080fd5b806345f3ca3c1161020c57806345f3ca3c146105285780634c5d8a0f146105485780634f1ef2861461055e57600080fd5b80632f2ff15d146104e857806336568abe1461050857600080fd5b80631e3708df1161027e5780632410f6ba116102635780632410f6ba1461044c578063248a9ca3146104795780632eb39ee9146104c857600080fd5b80631e3708df1461040357806321dc8dd91461043757600080fd5b8063051ce40a116102af578063051ce40a14610363578063156a962614610397578063180aedf3146103cd57600080fd5b806301d58fa3146102cb57806301ffc9a714610333575b600080fd5b3480156102d757600080fd5b506103206102e6366004613b5e565b6001600160a01b031660009081527fc17b4b708b6f44255c20913a9d97a05300b670342c71fe5ae5b617bd4db55001602052604090205490565b6040519081526020015b60405180910390f35b34801561033f57600080fd5b5061035361034e366004613b79565b610a59565b604051901515815260200161032a565b34801561036f57600080fd5b506103207f37096cd2491f9c5ef86ecee2c1b7a06103393df9e824c16fab6722c818bd43ef81565b3480156103a357600080fd5b506103536103b2366004613bcc565b60ff9081166000908152602081905260409020600101541690565b3480156103d957600080fd5b506103ed6103e8366004613be7565b610a6a565b60405161032a9a99989796959493929190613c50565b34801561040f57600080fd5b506103207f000000000000000000000000000000000000000000000000000000000000000081565b61044a610445366004613d06565b610b69565b005b34801561045857600080fd5b5061046c610467366004613be7565b610bd8565b60405161032a9190613da1565b34801561048557600080fd5b50610320610494366004613be7565b60009081527f02dd7bc7dec4dceedda775e58dd541e08a116c6c53815c0bd028192f7b626800602052604090206001015490565b3480156104d457600080fd5b5061044a6104e3366004613f15565b610df6565b3480156104f457600080fd5b5061044a61050336600461406d565b610fea565b34801561051457600080fd5b5061044a61052336600461406d565b611034565b34801561053457600080fd5b5061044a610543366004613bcc565b611085565b34801561055457600080fd5b5061032060035481565b61044a61056c366004614099565b61109d565b34801561057d57600080fd5b506103206110b8565b34801561059257600080fd5b506103207f000000000000000000000000000000000000000000000000000000000000000081565b3480156105c657600080fd5b5061044a6105d53660046141aa565b6110e7565b3480156105e657600080fd5b506105fa6105f536600461423d565b6110fc565b6040805192835290151560208301520161032a565b34801561061b57600080fd5b5061035361062a3660046142d7565b60009081527fc17b4b708b6f44255c20913a9d97a05300b670342c71fe5ae5b617bd4db5500260209081526040808320938352929052205460ff1690565b34801561067457600080fd5b506103536106833660046142f9565b6111d5565b34801561069457600080fd5b506106bc7f000000000000000000000000000000000000000000000000000000000000000081565b6040516001600160a01b03909116815260200161032a565b3480156106e057600080fd5b506103536106ef36600461406d565b60009182527f02dd7bc7dec4dceedda775e58dd541e08a116c6c53815c0bd028192f7b626800602090815260408084206001600160a01b0393909316845291905290205460ff1690565b34801561074557600080fd5b50610353610754366004613be7565b6111e8565b34801561076557600080fd5b506103207f000000000000000000000000000000000000000000000000000000000000000081565b34801561079957600080fd5b506103207f000000000000000000000000000000000000000000000000000000000000000081565b3480156107cd57600080fd5b5061044a6107dc366004613b5e565b611206565b3480156107ed57600080fd5b50610320600081565b34801561080257600080fd5b5061083f6040518060400160405280600581526020017f352e302e3000000000000000000000000000000000000000000000000000000081525081565b60405161032a9190614353565b34801561085857600080fd5b5061044a610867366004613b5e565b611212565b34801561087857600080fd5b506103207f000000000000000000000000000000000000000000000000000000000000000081565b3480156108ac57600080fd5b506103206108bb366004613bcc565b60ff1660009081526020819052604090205490565b3480156108dc57600080fd5b506106bc7f000000000000000000000000000000000000000000000000000000000000000081565b34801561091057600080fd5b5061044a61091f366004614366565b61121c565b34801561093057600080fd5b5061044a61093f36600461406d565b611231565b34801561095057600080fd5b5061044a61095f366004614390565b611275565b34801561097057600080fd5b506103207f000000000000000000000000000000000000000000000000000000000000000081565b3480156109a457600080fd5b506105fa6109b3366004613bcc565b6000602081905290815260409020805460019091015460ff1682565b3480156109db57600080fd5b5061044a6109ea366004613be7565b61128f565b3480156109fb57600080fd5b506106bc610a0a366004613b5e565b6001602052600090815260409020546001600160a01b031681565b348015610a3157600080fd5b506103207f000000000000000000000000000000000000000000000000000000000000000081565b6000610a6482611298565b92915050565b60026020819052600091825260409091208054600182015492820154600383015460048401546005850154600686015460078701546008880180549799989697959694956001600160a01b0394851695948416947401000000000000000000000000000000000000000090940460ff16939190610ae69061442c565b80601f0160208091040260200160405190810160405280929190818152602001828054610b129061442c565b8015610b5f5780601f10610b3457610100808354040283529160200191610b5f565b820191906000526020600020905b815481529060010190602001808311610b4257829003601f168201915b505050505090508a565b60ff808a166000908152602081905260409020600101548a9116610bb9576040517f10265fa900000000000000000000000000000000000000000000000000000000815260040160405180910390fd5b610bcc8a8a8a8a8a8a348b8b8b3361132f565b50505050505050505050565b610bfc60405180606001604052806060815260200160608152602001606081525090565b60008281527fc17b4b708b6f44255c20913a9d97a05300b670342c71fe5ae5b617bd4db550006020819052604091829020825160608101909352805491929182908290610c489061442c565b80601f0160208091040260200160405190810160405280929190818152602001828054610c749061442c565b8015610cc15780601f10610c9657610100808354040283529160200191610cc1565b820191906000526020600020905b815481529060010190602001808311610ca457829003601f168201915b50505050508152602001600182018054610cda9061442c565b80601f0160208091040260200160405190810160405280929190818152602001828054610d069061442c565b8015610d535780601f10610d2857610100808354040283529160200191610d53565b820191906000526020600020905b815481529060010190602001808311610d3657829003601f168201915b50505050508152602001600282018054610d6c9061442c565b80601f0160208091040260200160405190810160405280929190818152602001828054610d989061442c565b8015610de55780601f10610dba57610100808354040283529160200191610de5565b820191906000526020600020905b815481529060010190602001808311610dc857829003601f168201915b505050505081525050915050919050565b7ff0c57e16840df040f15088dc2f81fe391c3923bec73e23a9662efc9c229c6a00805468010000000000000000810460ff16159067ffffffffffffffff16600081158015610e415750825b905060008267ffffffffffffffff166001148015610e5e5750303b155b905081158015610e6c575080155b15610ea3576040517ff92ee8a900000000000000000000000000000000000000000000000000000000815260040160405180910390fd5b84547fffffffffffffffffffffffffffffffffffffffffffffffff00000000000000001660011785558315610f045784547fffffffffffffffffffffffffffffffffffffffffffffff00ffffffffffffffff16680100000000000000001785555b6001600160a01b038716610f44576040517f30a7a37f00000000000000000000000000000000000000000000000000000000815260040160405180910390fd5b610f4c611741565b610f54611741565b610f5c611741565b610f64611741565b610f6d8661174b565b610f7860008861178b565b504660c01b6003558315610fe15784547fffffffffffffffffffffffffffffffffffffffffffffff00ffffffffffffffff168555604051600181527fc7f505b2f371ae2175ee4913f4499e1f2633a7b5936321eed1cdaeb6115181d29060200160405180910390a15b50505050505050565b60008281527f02dd7bc7dec4dceedda775e58dd541e08a116c6c53815c0bd028192f7b626800602052604090206001015461102481611878565b61102e838361178b565b50505050565b6001600160a01b0381163314611076576040517f6697b23200000000000000000000000000000000000000000000000000000000815260040160405180910390fd5b6110808282611882565b505050565b600061109081611878565b61109982611946565b5050565b6110a56119fb565b6110ae82611acb565b6110998282611ad6565b60006110c2611bdc565b507f360894a13ba1a3210667c828492db98dca3e2076cc3735a920a3ca505d382bbc90565b6110f5858585858533611c3e565b5050505050565b6000808061110981611878565b6040805160806020601f8c018190040282018101909252606081018a81526111c5928291908d908d9081908501838280828437600092019190915250505090825250604080516020601f8c018190048102820181019092528a815291810191908b908b9081908401838280828437600092019190915250505090825250604080516020601f8a01819004810282018101909252888152918101919089908990819084018382808284376000920191909152505050915250611d30565b9250925050965096945050505050565b60006111e18383611ed8565b9392505050565b6000806111f481611878565b6111fd8361213c565b91505b50919050565b61120f816121f3565b50565b61120f81336122d8565b600061122781611878565b61108083836123bb565b60008281527f02dd7bc7dec4dceedda775e58dd541e08a116c6c53815c0bd028192f7b626800602052604090206001015461126b81611878565b61102e8383611882565b611285888888888888888861249b565b5050505050505050565b61120f8161280f565b60007fffffffff0000000000000000000000000000000000000000000000000000000082167f7965db0b000000000000000000000000000000000000000000000000000000001480610a6457507f01ffc9a7000000000000000000000000000000000000000000000000000000007fffffffff00000000000000000000000000000000000000000000000000000000831614610a64565b7f00000000000000000000000000000000000000000000000000000000000000008711158061137e57507f00000000000000000000000000000000000000000000000000000000000000008710155b156113b5576040517f445e056c00000000000000000000000000000000000000000000000000000000815260040160405180910390fd5b6003544660c01b7780000000000000000000000000000000000000000000000017906113e29060016144a8565b036113ef574660c01b6003555b3a861015611429576040517f4d8e7c6200000000000000000000000000000000000000000000000000000000815260040160405180910390fd5b847f00000000000000000000000000000000000000000000000000000000000000006114757f0000000000000000000000000000000000000000000000000000000000000000856144a8565b61147f91906144a8565b61148990886144bb565b11156114c1576040517f7273245b00000000000000000000000000000000000000000000000000000000815260040160405180910390fd5b60ff8b166000908152602081905260408120547f000000000000000000000000000000000000000000000000000000000000000090611500908a6144bb565b61150a91906144a8565b9050604051806101400160405280428152602001888152602001828152602001878152602001848152602001836001600160a01b03168152602001856001600160a01b031681526020018d60ff1681526020018c81526020018b8b8080601f0160208091040260200160405190810160405280939291908181526020018383808284376000920182905250939094525050600380546002935082906115ae906144d2565b918290555081526020808201929092526040908101600020835181559183015160018301558201516002820155606082015160038201556080820151600482015560a08201516005820180546001600160a01b039283167fffffffffffffffffffffffff000000000000000000000000000000000000000090911617905560c083015160068301805460e086015160ff1674010000000000000000000000000000000000000000027fffffffffffffffffffffff0000000000000000000000000000000000000000009091169290931691909117919091179055610100820151600782015561012082015160088201906116a8908261455a565b506116e19150506001600160a01b037f000000000000000000000000000000000000000000000000000000000000000016833084612b8c565b8b60ff166003547f88e316a5afc83ac1a3e75f1edff935f1d3776b5ae840c05a06a335d2ffc076e78d8d8d8d8d888e8e8e428f60405161172b9b9a99989796959493929190614681565b60405180910390a3505050505050505050505050565b611749612c08565b565b611753612c08565b60005b815181101561109957611781828281518110611774576117746146e8565b6020026020010151611d30565b5050600101611756565b60008281527f02dd7bc7dec4dceedda775e58dd541e08a116c6c53815c0bd028192f7b626800602081815260408084206001600160a01b038616855290915282205460ff1661186e576000848152602082815260408083206001600160a01b0387168452909152902080547fffffffffffffffffffffffffffffffffffffffffffffffffffffffffffffff001660011790556118243390565b6001600160a01b0316836001600160a01b0316857f2f8788117e7eff1d82e926ec794901d17c78024a50270940304540a733656f0d60405160405180910390a46001915050610a64565b6000915050610a64565b61120f8133612c6f565b60008281527f02dd7bc7dec4dceedda775e58dd541e08a116c6c53815c0bd028192f7b626800602081815260408084206001600160a01b038616855290915282205460ff161561186e576000848152602082815260408083206001600160a01b038716808552925280832080547fffffffffffffffffffffffffffffffffffffffffffffffffffffffffffffff0016905551339287917ff6391f5c32d9c69d2a47ea670b442974b53935d1edc7fd64eb21e047a839171b9190a46001915050610a64565b60ff80821660009081526020819052604090206001015416611994576040517f946a3fd200000000000000000000000000000000000000000000000000000000815260040160405180910390fd5b60ff811660008181526020819052604080822082815560010180547fffffffffffffffffffffffffffffffffffffffffffffffffffffffffffffff00169055517f8a5bb9eeea904ebbaf3b182fde9aee35c89c160e04a1f804d5ccb802438f55089190a250565b306001600160a01b037f0000000000000000000000000000000000000000000000000000000000000000161480611a9457507f00000000000000000000000000000000000000000000000000000000000000006001600160a01b0316611a887f360894a13ba1a3210667c828492db98dca3e2076cc3735a920a3ca505d382bbc546001600160a01b031690565b6001600160a01b031614155b15611749576040517fe07c8dba00000000000000000000000000000000000000000000000000000000815260040160405180910390fd5b600061109981611878565b816001600160a01b03166352d1902d6040518163ffffffff1660e01b8152600401602060405180830381865afa925050508015611b30575060408051601f3d908101601f19168201909252611b2d91810190614717565b60015b611b76576040517f4c9c8ce30000000000000000000000000000000000000000000000000000000081526001600160a01b03831660048201526024015b60405180910390fd5b7f360894a13ba1a3210667c828492db98dca3e2076cc3735a920a3ca505d382bbc8114611bd2576040517faa1d49a400000000000000000000000000000000000000000000000000000000815260048101829052602401611b6d565b6110808383612cfc565b306001600160a01b037f00000000000000000000000000000000000000000000000000000000000000001614611749576040517fe07c8dba00000000000000000000000000000000000000000000000000000000815260040160405180910390fd5b611c488686611ed8565b506000611c588660000151612d52565b9050611c678284878785612d9b565b6001600160a01b038181166000908152600160205260409020541615611cb9576040517ffd764a3900000000000000000000000000000000000000000000000000000000815260040160405180910390fd5b6001600160a01b0381811660008181526001602052604080822080547fffffffffffffffffffffffff0000000000000000000000000000000000000000169487169485179055519192917f95f86f0783d4494f76a6aeaa178c399f2c6a140aa3e88d39f056b00f460d359a9190a350505050505050565b80515160009081907fc17b4b708b6f44255c20913a9d97a05300b670342c71fe5ae5b617bd4db55000906030148015611d6e57508360200151516030145b8015611d7f57508360400151516030145b611db5576040517f84c61bb600000000000000000000000000000000000000000000000000000000815260040160405180910390fd5b6000846000015185602001518660400151604051602001611dd893929190614730565b60408051601f1981840301815291815281516020928301206000818152928590529120805491925090611e0a9061442c565b159050611e1c57946000945092505050565b60408051606081018252865181526020808801518183015287830151828401526000848152908590529190912081518190611e57908261455a565b5060208201516001820190611e6c908261455a565b5060408201516002820190611e81908261455a565b50905050807f52b29bbdd97ab983419f50fa1590e5ab75e9942279e95e10a08607b06c23238b866000015187602001518860400151604051611ec593929190614773565b60405180910390a2946001945092505050565b6000807fc17b4b708b6f44255c20913a9d97a05300b670342c71fe5ae5b617bd4db5500090506000836020015184604001518560600151604051602001611f2193929190614730565b60408051601f1981840301815291815281516020928301206000818152928590529120805491925090611f539061442c565b9050600003611f8e576040517f38c4ac1600000000000000000000000000000000000000000000000000000000815260040160405180910390fd5b611fb87f0000000000000000000000000000000000000000000000000000000000000000426147ac565b6103e88560800151611fca91906147bf565b11612001576040517f19605e0a00000000000000000000000000000000000000000000000000000000815260040160405180910390fd5b6040517feac708a30000000000000000000000000000000000000000000000000000000081526001600160a01b037f0000000000000000000000000000000000000000000000000000000000000000169063eac708a39061206890889088906004016147fa565b60006040518083038186803b15801561208057600080fd5b505afa158015612094573d6000803e3d6000fd5b5050505060006120a78560000151612d52565b6001600160a01b0381166000908152600185016020526040902054909150156120d65760009350505050610a64565b6001600160a01b038116600081815260018501602052604090819020849055865190518492917fbb4d6428d53ea924d94be0488473deb5c0a70c979f8477d21911cb5bee4037fd916121289190614353565b60405180910390a350600195945050505050565b60008181527fc17b4b708b6f44255c20913a9d97a05300b670342c71fe5ae5b617bd4db5500060208190526040822080546121769061442c565b90506000036121885750600092915050565b6000838152602082905260408120906121a18282613af4565b6121af600183016000613af4565b6121bd600283016000613af4565b505060405183907f4b71bedda4217966eac1aa49e35b1550e5ab87064ae179d1b36b393bd04eb74390600090a250600192915050565b6001600160a01b03811660009081527fc17b4b708b6f44255c20913a9d97a05300b670342c71fe5ae5b617bd4db5500160205260409020547fc17b4b708b6f44255c20913a9d97a05300b670342c71fe5ae5b617bd4db550009080612284576040517f3dd8ca9500000000000000000000000000000000000000000000000000000000815260040160405180910390fd5b6000818152602083905260409020805461229d9061442c565b9050600003611080576040517f38c4ac1600000000000000000000000000000000000000000000000000000000815260040160405180910390fd5b6001600160a01b0382811660009081526001602052604090205481169082161461232e576040517febabf73400000000000000000000000000000000000000000000000000000000815260040160405180910390fd5b6001600160a01b038083166000908152600160205260409020546123529116612fc7565b506001600160a01b03821660008181526001602052604080822080547fffffffffffffffffffffffff0000000000000000000000000000000000000000169055517f962f6082057b3b4fb251973bd737c7707bf1733cf85a0b7c86fd6c3caca260c59190a25050565b60ff808316600090815260208190526040902060010154161561240a576040517ffc0cc7c200000000000000000000000000000000000000000000000000000000815260040160405180910390fd5b6040805180820182528281526001602080830182815260ff871660008181528084528690209451855590519390920180547fffffffffffffffffffffffffffffffffffffffffffffffffffffffffffffff00169315159390931790925591518381527f8209448d20a75f043ca193e55ea9488c5431646ce030638fd68a5635c215aee6910160405180910390a25050565b6000868152600260208181526040808420815161014081018352815481526001820154938101939093529283015490820152600382015460608201526004820154608082015260058201546001600160a01b0390811660a0830152600683015490811660c083015274010000000000000000000000000000000000000000900460ff1660e08201526007820154610100820152600882018054919291610120840191906125479061442c565b80601f01602080910402602001604051908101604052809291908181526020018280546125739061442c565b80156125c05780601f10612595576101008083540402835291602001916125c0565b820191906000526020600020905b8154815290600101906020018083116125a357829003601f168201915b5050509190925250505060a08101519091506001600160a01b0316612611576040517f9da0635900000000000000000000000000000000000000000000000000000000815260040160405180910390fd5b805161263e907f0000000000000000000000000000000000000000000000000000000000000000906144a8565b421115612677576040517f159413f400000000000000000000000000000000000000000000000000000000815260040160405180910390fd5b60006126898a8a8a8a8a8a8a8a61307a565b600089815260026020819052604082208281556001810183905590810182905560038101829055600481018290556005810180547fffffffffffffffffffffffff00000000000000000000000000000000000000001690556006810180547fffffffffffffffffffffff000000000000000000000000000000000000000000169055600781018290559192506127226008830182613af4565b505061273d8260e00151828460a001518886604001516132a9565b60008061274d8a858b8b8a61335f565b909250905060003a61277f7f0000000000000000000000000000000000000000000000000000000000000000846144a8565b61278991906144bb565b6001600160a01b0380861660009081526001602052604090205460a088015160608901519394506127c09391909216919084613474565b8a7f3bcf275077501f1077e75b4e70896bf241dc8cbeec71823201ef711cfc454ea18b8b8b8b886040516127f895949392919061488e565b60405180910390a250505050505050505050505050565b6000818152600260208181526040808420815161014081018352815481526001820154938101939093529283015490820152600382015460608201526004820154608082015260058201546001600160a01b0390811660a0830152600683015490811660c083015274010000000000000000000000000000000000000000900460ff1660e08201526007820154610100820152600882018054919291610120840191906128bb9061442c565b80601f01602080910402602001604051908101604052809291908181526020018280546128e79061442c565b80156129345780601f1061290957610100808354040283529160200191612934565b820191906000526020600020905b81548152906001019060200180831161291757829003601f168201915b5050509190925250505060a08101519091506001600160a01b0316612985576040517f9da0635900000000000000000000000000000000000000000000000000000000815260040160405180910390fd5b80516129b2907f0000000000000000000000000000000000000000000000000000000000000000906144a8565b42116129ea576040517fd856047b00000000000000000000000000000000000000000000000000000000815260040160405180910390fd5b60608101516040808301516000858152600260208190529281208181556001810182905592830181905560038301819055600483018190556005830180547fffffffffffffffffffffffff00000000000000000000000000000000000000001690556006830180547fffffffffffffffffffffff00000000000000000000000000000000000000000016905560078301819055909190612a8d6008830182613af4565b505060a0830151612ac9906001600160a01b037f000000000000000000000000000000000000000000000000000000000000000016908361352c565b60008360a001516001600160a01b03168360405160006040518083038185875af1925050503d8060008114612b1a576040519150601f19603f3d011682016040523d82523d6000602084013e612b1f565b606091505b5050905080612b5a576040517ffbe8c5be00000000000000000000000000000000000000000000000000000000815260040160405180910390fd5b60405185907f58243f872c550ad02802199ade99eb4250f6bb19e9abbf2d3de7b969c0eb5e4f90600090a25050505050565b6040516001600160a01b03848116602483015283811660448301526064820183905261102e9186918216906323b872dd906084015b604051602081830303815290604052915060e01b6020820180517bffffffffffffffffffffffffffffffffffffffffffffffffffffffff838183161783525050505061355d565b7ff0c57e16840df040f15088dc2f81fe391c3923bec73e23a9662efc9c229c6a005468010000000000000000900460ff16611749576040517fd7e6bcf800000000000000000000000000000000000000000000000000000000815260040160405180910390fd5b60008281527f02dd7bc7dec4dceedda775e58dd541e08a116c6c53815c0bd028192f7b626800602090815260408083206001600160a01b038516845290915290205460ff16611099576040517fe2517d3f0000000000000000000000000000000000000000000000000000000081526001600160a01b038216600482015260248101839052604401611b6d565b612d05826135d9565b6040516001600160a01b038316907fbc7cd75a20ee27fd9adebab32041f755214dbc6bffa90cc0225b39da2e5c2d3b90600090a2805115612d4a576110808282613681565b6110996136f7565b60008151604014612d8f576040517fbd9c80c100000000000000000000000000000000000000000000000000000000815260040160405180910390fd5b50805160209091012090565b612dc57f0000000000000000000000000000000000000000000000000000000000000000856144a8565b421115612dfe576040517f0a151d0b00000000000000000000000000000000000000000000000000000000815260040160405180910390fd5b604080517f5f8784d207b73e6da533ec436e4e68df897ada404898707128cf43ddf65f7a186020808301919091526001600160a01b038816828401526060808301889052835180840390910181526080830184528051908201207fb03948446334eb9b2196d5eb166f69b9d49403eb4a12f36de8d3f9f3cb8e15c360a08401527fd13b7bcdea8dd87e8f9a0d206dc73d6264326a7f9f4c38119298bb466e785c5360c08401527fc89efdaa54c0f20c7adf612882df0950f5a951637e0307cdcb4c672f298b8bc660e08085019190915284518085039091018152610100840185528051908301207f1901000000000000000000000000000000000000000000000000000000000000610120850152610122840152610142808401829052845180850390910181526101628401808652815191840191909120610182601f890185900490940285018401909552868152909392600092612f7a929189918991829101838280828437600092019190915250869392505061372f9050565b9050836001600160a01b0316816001600160a01b031614611285576040517ff5b2592500000000000000000000000000000000000000000000000000000000815260040160405180910390fd5b6001600160a01b03811660009081527fc17b4b708b6f44255c20913a9d97a05300b670342c71fe5ae5b617bd4db5500160205260408120547fc17b4b708b6f44255c20913a9d97a05300b670342c71fe5ae5b617bd4db550009061302e5750600092915050565b6001600160a01b0383166000818152600183016020526040808220829055517f0f586d928fc7ce3b60c8a7c276a8562f9f53b126cebe71cf612948dfc52eff169190a250600192915050565b60006130a67f0000000000000000000000000000000000000000000000000000000000000000836144a8565b4211156130df576040517f0a151d0b00000000000000000000000000000000000000000000000000000000815260040160405180910390fd5b60007f37096cd2491f9c5ef86ecee2c1b7a06103393df9e824c16fab6722c818bd43ef8888886040516131139291906148c4565b60408051918290038220602083019490945281019190915260608101919091526080810186905260ff851660a082015260c0810184905260e00160408051601f1981840301815282825280516020918201207fb03948446334eb9b2196d5eb166f69b9d49403eb4a12f36de8d3f9f3cb8e15c3918401919091527fd13b7bcdea8dd87e8f9a0d206dc73d6264326a7f9f4c38119298bb466e785c53918301919091527fc89efdaa54c0f20c7adf612882df0950f5a951637e0307cdcb4c672f298b8bc66060830152915060009060800160408051601f198184030181529082905280516020918201207f190100000000000000000000000000000000000000000000000000000000000091830191909152602282015260428101839052606201604051602081830303815290604052805190602001209050600061328f8c8c8080601f016020809104026020016040519081016040528093929190818152602001838380828437600092019190915250869392505061372f9050565b905061329a816121f3565b9b9a5050505050505050505050565b60ff8516600090815260208181526040808320546001600160a01b03808916855260019093529220549184027f000000000000000000000000000000000000000000000000000000000000000001918284039161332b917f0000000000000000000000000000000000000000000000000000000000000000821691168461352c565b610fe16001600160a01b037f000000000000000000000000000000000000000000000000000000000000000016868361352c565b60008085602001513a1161346a5760005a90508660c001516001600160a01b03168760800151898960a001518a61010001518b61012001518b8b8b6040516024016133b097969594939291906148d4565b60408051601f198184030181529181526020820180517bffffffffffffffffffffffffffffffffffffffffffffffffffffffff167f9e24036d0000000000000000000000000000000000000000000000000000000017905251613413919061492d565b60006040518083038160008787f1925050503d8060008114613451576040519150601f19603f3d011682016040523d82523d6000602084013e613456565b606091505b50909350505a61346690826147ac565b9150505b9550959350505050565b8181116134815780613483565b815b90506000846001600160a01b03168260405160006040518083038185875af1925050503d80600081146134d2576040519150601f19603f3d011682016040523d82523d6000602084013e6134d7565b606091505b50909150506001600160a01b0384166134f083856147ac565b604051600081818185875af1925050503d8060008114611285576040519150601f19603f3d011682016040523d82523d6000602084013e611285565b6040516001600160a01b0383811660248301526044820183905261108091859182169063a9059cbb90606401612bc1565b60006135726001600160a01b03841683613759565b905080516000141580156135975750808060200190518101906135959190614949565b155b15611080576040517f5274afe70000000000000000000000000000000000000000000000000000000081526001600160a01b0384166004820152602401611b6d565b806001600160a01b03163b600003613628576040517f4c9c8ce30000000000000000000000000000000000000000000000000000000081526001600160a01b0382166004820152602401611b6d565b7f360894a13ba1a3210667c828492db98dca3e2076cc3735a920a3ca505d382bbc80547fffffffffffffffffffffffff0000000000000000000000000000000000000000166001600160a01b0392909216919091179055565b6060600080846001600160a01b03168460405161369e919061492d565b600060405180830381855af49150503d80600081146136d9576040519150601f19603f3d011682016040523d82523d6000602084013e6136de565b606091505b50915091506136ee858383613767565b95945050505050565b3415611749576040517fb398979f00000000000000000000000000000000000000000000000000000000815260040160405180910390fd5b60008060008061373f86866137dc565b92509250925061374f8282613829565b5090949350505050565b60606111e18383600061392d565b60608261377c57613777826139e3565b6111e1565b815115801561379357506001600160a01b0384163b155b156137d5576040517f9996b3150000000000000000000000000000000000000000000000000000000081526001600160a01b0385166004820152602401611b6d565b5092915050565b600080600083516041036138165760208401516040850151606086015160001a61380888828585613a25565b955095509550505050613822565b50508151600091506002905b9250925092565b600082600381111561383d5761383d61496b565b03613846575050565b600182600381111561385a5761385a61496b565b03613891576040517ff645eedf00000000000000000000000000000000000000000000000000000000815260040160405180910390fd5b60028260038111156138a5576138a561496b565b036138df576040517ffce698f700000000000000000000000000000000000000000000000000000000815260048101829052602401611b6d565b60038260038111156138f3576138f361496b565b03611099576040517fd78bce0c00000000000000000000000000000000000000000000000000000000815260048101829052602401611b6d565b60608147101561396b576040517fcd786059000000000000000000000000000000000000000000000000000000008152306004820152602401611b6d565b600080856001600160a01b03168486604051613987919061492d565b60006040518083038185875af1925050503d80600081146139c4576040519150601f19603f3d011682016040523d82523d6000602084013e6139c9565b606091505b50915091506139d9868383613767565b9695505050505050565b8051156139f35780518082602001fd5b6040517f1425ea4200000000000000000000000000000000000000000000000000000000815260040160405180910390fd5b600080807f7fffffffffffffffffffffffffffffff5d576e7357a4501ddfe92f46681b20a0841115613a605750600091506003905082613aea565b604080516000808252602082018084528a905260ff891692820192909252606081018790526080810186905260019060a0016020604051602081039080840390855afa158015613ab4573d6000803e3d6000fd5b5050604051601f1901519150506001600160a01b038116613ae057506000925060019150829050613aea565b9250600091508190505b9450945094915050565b508054613b009061442c565b6000825580601f10613b10575050565b601f01602090049060005260206000209081019061120f91905b80821115613b3e5760008155600101613b2a565b5090565b80356001600160a01b0381168114613b5957600080fd5b919050565b600060208284031215613b7057600080fd5b6111e182613b42565b600060208284031215613b8b57600080fd5b81357fffffffff00000000000000000000000000000000000000000000000000000000811681146111e157600080fd5b803560ff81168114613b5957600080fd5b600060208284031215613bde57600080fd5b6111e182613bbb565b600060208284031215613bf957600080fd5b5035919050565b60005b83811015613c1b578181015183820152602001613c03565b50506000910152565b60008151808452613c3c816020860160208601613c00565b601f01601f19169290920160200192915050565b60006101408c83528b60208401528a60408401528960608401528860808401526001600160a01b0380891660a085015280881660c08501525060ff861660e08401528461010084015280610120840152613cac81840185613c24565b9d9c50505050505050505050505050565b60008083601f840112613ccf57600080fd5b50813567ffffffffffffffff811115613ce757600080fd5b602083019150836020828501011115613cff57600080fd5b9250929050565b60008060008060008060008060006101008a8c031215613d2557600080fd5b613d2e8a613bbb565b985060208a0135975060408a013567ffffffffffffffff811115613d5157600080fd5b613d5d8c828d01613cbd565b90985096505060608a0135945060808a01359350613d7d60a08b01613b42565b9250613d8b60c08b01613b42565b915060e08a013590509295985092959850929598565b602081526000825160606020840152613dbd6080840182613c24565b90506020840151601f1980858403016040860152613ddb8383613c24565b92506040860151915080858403016060860152506136ee8282613c24565b7f4e487b7100000000000000000000000000000000000000000000000000000000600052604160045260246000fd5b6040516060810167ffffffffffffffff81118282101715613e4b57613e4b613df9565b60405290565b60405160a0810167ffffffffffffffff81118282101715613e4b57613e4b613df9565b604051601f8201601f1916810167ffffffffffffffff81118282101715613e9d57613e9d613df9565b604052919050565b600082601f830112613eb657600080fd5b813567ffffffffffffffff811115613ed057613ed0613df9565b613ee36020601f19601f84011601613e74565b818152846020838601011115613ef857600080fd5b816020850160208301376000918101602001919091529392505050565b60008060408385031215613f2857600080fd5b613f3183613b42565b915060208084013567ffffffffffffffff80821115613f4f57600080fd5b818601915086601f830112613f6357600080fd5b813581811115613f7557613f75613df9565b8060051b613f84858201613e74565b918252838101850191858101908a841115613f9e57600080fd5b86860192505b8383101561405c57823585811115613fbc5760008081fd5b86016060818d03601f1901811315613fd45760008081fd5b613fdc613e28565b8983013588811115613fee5760008081fd5b613ffc8f8c83870101613ea5565b8252506040830135888111156140125760008081fd5b6140208f8c83870101613ea5565b828c0152509082013590878211156140385760008081fd5b6140468e8b84860101613ea5565b6040820152845250509186019190860190613fa4565b809750505050505050509250929050565b6000806040838503121561408057600080fd5b8235915061409060208401613b42565b90509250929050565b600080604083850312156140ac57600080fd5b6140b583613b42565b9150602083013567ffffffffffffffff8111156140d157600080fd5b6140dd85828601613ea5565b9150509250929050565b600060a082840312156140f957600080fd5b614101613e51565b9050813567ffffffffffffffff8082111561411b57600080fd5b61412785838601613ea5565b8352602084013591508082111561413d57600080fd5b61414985838601613ea5565b6020840152604084013591508082111561416257600080fd5b61416e85838601613ea5565b6040840152606084013591508082111561418757600080fd5b5061419484828501613ea5565b6060830152506080820135608082015292915050565b6000806000806000608086880312156141c257600080fd5b853567ffffffffffffffff808211156141da57600080fd5b6141e689838a01613ea5565b965060208801359150808211156141fc57600080fd5b61420889838a016140e7565b9550604088013591508082111561421e57600080fd5b5061422b88828901613cbd565b96999598509660600135949350505050565b6000806000806000806060878903121561425657600080fd5b863567ffffffffffffffff8082111561426e57600080fd5b61427a8a838b01613cbd565b9098509650602089013591508082111561429357600080fd5b61429f8a838b01613cbd565b909650945060408901359150808211156142b857600080fd5b506142c589828a01613cbd565b979a9699509497509295939492505050565b600080604083850312156142ea57600080fd5b50508035926020909101359150565b6000806040838503121561430c57600080fd5b823567ffffffffffffffff8082111561432457600080fd5b61433086838701613ea5565b9350602085013591508082111561434657600080fd5b506140dd858286016140e7565b6020815260006111e16020830184613c24565b6000806040838503121561437957600080fd5b61438283613bbb565b946020939093013593505050565b60008060008060008060008060c0898b0312156143ac57600080fd5b883567ffffffffffffffff808211156143c457600080fd5b6143d08c838d01613cbd565b909a50985060208b0135975060408b01359150808211156143f057600080fd5b506143fd8b828c01613cbd565b9096509450506060890135925061441660808a01613bbb565b915060a089013590509295985092959890939650565b600181811c9082168061444057607f821691505b602082108103611200577f4e487b7100000000000000000000000000000000000000000000000000000000600052602260045260246000fd5b7f4e487b7100000000000000000000000000000000000000000000000000000000600052601160045260246000fd5b80820180821115610a6457610a64614479565b8082028115828204841417610a6457610a64614479565b60007fffffffffffffffffffffffffffffffffffffffffffffffffffffffffffffffff820361450357614503614479565b5060010190565b601f821115611080576000816000526020600020601f850160051c810160208610156145335750805b601f850160051c820191505b818110156145525782815560010161453f565b505050505050565b815167ffffffffffffffff81111561457457614574613df9565b61458881614582845461442c565b8461450a565b602080601f8311600181146145db57600084156145a55750858301515b7fffffffffffffffffffffffffffffffffffffffffffffffffffffffffffffffff600386901b1c1916600185901b178555614552565b600085815260208120601f198616915b8281101561460a578886015182559484019460019091019084016145eb565b508582101561464657878501517fffffffffffffffffffffffffffffffffffffffffffffffffffffffffffffffff600388901b60f8161c191681555b5050505050600190811b01905550565b818352818160208501375060006020828401015260006020601f19601f840116840101905092915050565b60006101408d835280602084015261469c8184018d8f614656565b604084019b909b5250506060810197909752608087019590955260a08601939093526001600160a01b0391821660c08601521660e0840152610100830152610120909101529392505050565b7f4e487b7100000000000000000000000000000000000000000000000000000000600052603260045260246000fd5b60006020828403121561472957600080fd5b5051919050565b60008451614742818460208901613c00565b845190830190614756818360208901613c00565b8451910190614769818360208801613c00565b0195945050505050565b6060815260006147866060830186613c24565b82810360208401526147988186613c24565b905082810360408401526139d98185613c24565b81810381811115610a6457610a64614479565b6000826147f5577f4e487b7100000000000000000000000000000000000000000000000000000000600052601260045260246000fd5b500490565b60408152600061480d6040830185613c24565b8281036020840152835160a0825261482860a0830182613c24565b9050602085015182820360208401526148418282613c24565b9150506040850151828203604084015261485b8282613c24565b915050606085015182820360608401526148758282613c24565b9150506080850151608083015280925050509392505050565b6080815260006148a2608083018789614656565b60208301959095525060ff929092166040830152151560609091015292915050565b8183823760009101908152919050565b8781526001600160a01b038716602082015285604082015260c06060820152600061490260c0830187613c24565b8281036080840152614915818688614656565b91505060ff831660a083015298975050505050505050565b6000825161493f818460208701613c00565b9190910192915050565b60006020828403121561495b57600080fd5b815180151581146111e157600080fd5b7f4e487b7100000000000000000000000000000000000000000000000000000000600052602160045260246000fdfea2646970667358221220f1dec5eb76c60e0dd2f4a340c4167f7b469f19f92989b7a3331ae01e3b9749ff64736f6c63430008190033",
  "linkReferences": {},
  "deployedLinkReferences": {}
}