{
  "_format": "hh-sol-artifact-1",
  "contractName": "RequestChainContract",
  "sourceName": "contracts/serverless-v2/RequestChainContract.sol",
  "abi": [
    {
      "inputs": [
        {
          "internalType": "contract IAttestationVerifier",
          "name": "attestationVerifier",
          "type": "address"
        },
        {
          "internalType": "uint256",
          "name": "maxAge",
          "type": "uint256"
        }
      ],
      "stateMutability": "nonpayable",
      "type": "constructor"
    },
    {
      "anonymous": false,
      "inputs": [
        {
          "indexed": false,
          "internalType": "address",
          "name": "previousAdmin",
          "type": "address"
        },
        {
          "indexed": false,
          "internalType": "address",
          "name": "newAdmin",
          "type": "address"
        }
      ],
      "name": "AdminChanged",
      "type": "event"
    },
    {
      "anonymous": false,
      "inputs": [
        {
          "indexed": true,
          "internalType": "address",
          "name": "beacon",
          "type": "address"
        }
      ],
      "name": "BeaconUpgraded",
      "type": "event"
    },
    {
      "anonymous": false,
      "inputs": [
        {
          "indexed": true,
          "internalType": "bytes32",
          "name": "imageId",
          "type": "bytes32"
        }
      ],
      "name": "EnclaveImageRevoked",
      "type": "event"
    },
    {
      "anonymous": false,
      "inputs": [
        {
          "indexed": true,
          "internalType": "bytes32",
          "name": "imageId",
          "type": "bytes32"
        },
        {
          "indexed": false,
          "internalType": "bytes",
          "name": "PCR0",
          "type": "bytes"
        },
        {
          "indexed": false,
          "internalType": "bytes",
          "name": "PCR1",
          "type": "bytes"
        },
        {
          "indexed": false,
          "internalType": "bytes",
          "name": "PCR2",
          "type": "bytes"
        }
      ],
      "name": "EnclaveImageWhitelisted",
      "type": "event"
    },
    {
      "anonymous": false,
      "inputs": [
        {
          "indexed": true,
          "internalType": "bytes",
          "name": "enclavePubKey",
          "type": "bytes"
        }
      ],
      "name": "EnclaveKeyRevoked",
      "type": "event"
    },
    {
      "anonymous": false,
      "inputs": [
        {
          "indexed": true,
          "internalType": "bytes",
          "name": "enclavePubKey",
          "type": "bytes"
        },
        {
          "indexed": true,
          "internalType": "bytes32",
          "name": "imageId",
          "type": "bytes32"
        }
      ],
      "name": "EnclaveKeyVerified",
      "type": "event"
    },
    {
      "anonymous": false,
      "inputs": [
        {
          "indexed": true,
          "internalType": "bytes",
          "name": "enclavePubKey",
          "type": "bytes"
        },
        {
          "indexed": true,
          "internalType": "bytes32",
          "name": "imageId",
          "type": "bytes32"
        }
      ],
      "name": "EnclaveKeyWhitelisted",
      "type": "event"
    },
    {
      "anonymous": false,
      "inputs": [
        {
          "indexed": false,
          "internalType": "bytes",
          "name": "enclavePubKey",
          "type": "bytes"
        }
      ],
      "name": "GatewayDeregistered",
      "type": "event"
    },
    {
      "anonymous": false,
      "inputs": [
        {
          "indexed": false,
          "internalType": "bytes",
          "name": "enclavePubKey",
          "type": "bytes"
        },
        {
          "indexed": true,
          "internalType": "address",
          "name": "enclaveAddress",
          "type": "address"
        },
        {
          "indexed": true,
          "internalType": "address",
          "name": "operator",
          "type": "address"
        }
      ],
      "name": "GatewayRegistered",
      "type": "event"
    },
    {
      "anonymous": false,
      "inputs": [
        {
          "indexed": false,
          "internalType": "uint8",
          "name": "version",
          "type": "uint8"
        }
      ],
      "name": "Initialized",
      "type": "event"
    },
    {
      "anonymous": false,
      "inputs": [
        {
          "indexed": true,
          "internalType": "uint256",
          "name": "jobId",
          "type": "uint256"
        }
      ],
      "name": "JobCancelled",
      "type": "event"
    },
    {
      "anonymous": false,
      "inputs": [
        {
          "indexed": true,
          "internalType": "uint256",
          "name": "jobId",
          "type": "uint256"
        },
        {
          "indexed": false,
          "internalType": "bytes32",
          "name": "codehash",
          "type": "bytes32"
        },
        {
          "indexed": false,
          "internalType": "bytes",
          "name": "codeInputs",
          "type": "bytes"
        },
        {
          "indexed": false,
          "internalType": "uint256",
          "name": "userTimeout",
          "type": "uint256"
        },
        {
          "indexed": false,
          "internalType": "uint256",
          "name": "maxGasPrice",
          "type": "uint256"
        },
        {
          "indexed": false,
          "internalType": "uint256",
          "name": "usdcDeposit",
          "type": "uint256"
        },
        {
          "indexed": false,
          "internalType": "uint256",
          "name": "callbackDeposit",
          "type": "uint256"
        }
      ],
      "name": "JobRelayed",
      "type": "event"
    },
    {
      "anonymous": false,
      "inputs": [
        {
          "indexed": true,
          "internalType": "uint256",
          "name": "jobId",
          "type": "uint256"
        },
        {
          "indexed": false,
          "internalType": "bytes",
          "name": "output",
          "type": "bytes"
        },
        {
          "indexed": false,
          "internalType": "uint256",
          "name": "totalTime",
          "type": "uint256"
        },
        {
          "indexed": false,
          "internalType": "uint256",
          "name": "errorCode",
          "type": "uint256"
        }
      ],
      "name": "JobResponded",
      "type": "event"
    },
    {
      "anonymous": false,
      "inputs": [
        {
          "indexed": true,
          "internalType": "bytes32",
          "name": "role",
          "type": "bytes32"
        },
        {
          "indexed": true,
          "internalType": "bytes32",
          "name": "previousAdminRole",
          "type": "bytes32"
        },
        {
          "indexed": true,
          "internalType": "bytes32",
          "name": "newAdminRole",
          "type": "bytes32"
        }
      ],
      "name": "RoleAdminChanged",
      "type": "event"
    },
    {
      "anonymous": false,
      "inputs": [
        {
          "indexed": true,
          "internalType": "bytes32",
          "name": "role",
          "type": "bytes32"
        },
        {
          "indexed": true,
          "internalType": "address",
          "name": "account",
          "type": "address"
        },
        {
          "indexed": true,
          "internalType": "address",
          "name": "sender",
          "type": "address"
        }
      ],
      "name": "RoleGranted",
      "type": "event"
    },
    {
      "anonymous": false,
      "inputs": [
        {
          "indexed": true,
          "internalType": "bytes32",
          "name": "role",
          "type": "bytes32"
        },
        {
          "indexed": true,
          "internalType": "address",
          "name": "account",
          "type": "address"
        },
        {
          "indexed": true,
          "internalType": "address",
          "name": "sender",
          "type": "address"
        }
      ],
      "name": "RoleRevoked",
      "type": "event"
    },
    {
      "anonymous": false,
      "inputs": [
        {
          "indexed": true,
          "internalType": "address",
          "name": "implementation",
          "type": "address"
        }
      ],
      "name": "Upgraded",
      "type": "event"
    },
    {
      "inputs": [],
      "name": "ATTESTATION_MAX_AGE",
      "outputs": [
        {
          "internalType": "uint256",
          "name": "",
          "type": "uint256"
        }
      ],
      "stateMutability": "view",
      "type": "function"
    },
    {
      "inputs": [],
      "name": "ATTESTATION_VERIFIER",
      "outputs": [
        {
          "internalType": "contract IAttestationVerifier",
          "name": "",
          "type": "address"
        }
      ],
      "stateMutability": "view",
      "type": "function"
    },
    {
      "inputs": [],
      "name": "DEFAULT_ADMIN_ROLE",
      "outputs": [
        {
          "internalType": "bytes32",
          "name": "",
          "type": "bytes32"
        }
      ],
      "stateMutability": "view",
      "type": "function"
    },
    {
      "inputs": [
        {
          "internalType": "address",
          "name": "_admin",
          "type": "address"
        },
        {
          "internalType": "contract IERC20",
          "name": "_token",
          "type": "address"
        },
        {
          "components": [
            {
              "internalType": "bytes",
              "name": "PCR0",
              "type": "bytes"
            },
            {
              "internalType": "bytes",
              "name": "PCR1",
              "type": "bytes"
            },
            {
              "internalType": "bytes",
              "name": "PCR2",
              "type": "bytes"
            }
          ],
          "internalType": "struct AttestationAutherUpgradeable.EnclaveImage[]",
          "name": "_images",
          "type": "tuple[]"
        },
        {
          "internalType": "uint256",
          "name": "_globalMinTimeout",
          "type": "uint256"
        },
        {
          "internalType": "uint256",
          "name": "_globalMaxTimeout",
          "type": "uint256"
        }
      ],
      "name": "__RequestChainContract_init",
      "outputs": [],
      "stateMutability": "nonpayable",
      "type": "function"
    },
    {
      "inputs": [
        {
          "internalType": "bytes",
          "name": "_enclavePubKey",
          "type": "bytes"
        }
      ],
      "name": "deregisterGateway",
      "outputs": [],
      "stateMutability": "nonpayable",
      "type": "function"
    },
    {
      "inputs": [
        {
          "internalType": "address",
          "name": "",
          "type": "address"
        }
      ],
      "name": "gateways",
      "outputs": [
        {
          "internalType": "address",
          "name": "operator",
          "type": "address"
        },
        {
          "internalType": "bool",
          "name": "status",
          "type": "bool"
        }
      ],
      "stateMutability": "view",
      "type": "function"
    },
    {
      "inputs": [
        {
          "internalType": "bytes32",
          "name": "role",
          "type": "bytes32"
        }
      ],
      "name": "getRoleAdmin",
      "outputs": [
        {
          "internalType": "bytes32",
          "name": "",
          "type": "bytes32"
        }
      ],
      "stateMutability": "view",
      "type": "function"
    },
    {
      "inputs": [
        {
          "internalType": "bytes32",
          "name": "role",
          "type": "bytes32"
        },
        {
          "internalType": "uint256",
          "name": "index",
          "type": "uint256"
        }
      ],
      "name": "getRoleMember",
      "outputs": [
        {
          "internalType": "address",
          "name": "",
          "type": "address"
        }
      ],
      "stateMutability": "view",
      "type": "function"
    },
    {
      "inputs": [
        {
          "internalType": "bytes32",
          "name": "role",
          "type": "bytes32"
        }
      ],
      "name": "getRoleMemberCount",
      "outputs": [
        {
          "internalType": "uint256",
          "name": "",
          "type": "uint256"
        }
      ],
      "stateMutability": "view",
      "type": "function"
    },
    {
      "inputs": [
        {
          "internalType": "address",
          "name": "_key",
          "type": "address"
        }
      ],
      "name": "getVerifiedKey",
      "outputs": [
        {
          "internalType": "bytes32",
          "name": "",
          "type": "bytes32"
        }
      ],
      "stateMutability": "view",
      "type": "function"
    },
    {
      "inputs": [
        {
          "internalType": "bytes32",
          "name": "_imageId",
          "type": "bytes32"
        }
      ],
      "name": "getWhitelistedImage",
      "outputs": [
        {
          "components": [
            {
              "internalType": "bytes",
              "name": "PCR0",
              "type": "bytes"
            },
            {
              "internalType": "bytes",
              "name": "PCR1",
              "type": "bytes"
            },
            {
              "internalType": "bytes",
              "name": "PCR2",
              "type": "bytes"
            }
          ],
          "internalType": "struct AttestationAutherUpgradeable.EnclaveImage",
          "name": "",
          "type": "tuple"
        }
      ],
      "stateMutability": "view",
      "type": "function"
    },
    {
      "inputs": [],
      "name": "globalMaxTimeout",
      "outputs": [
        {
          "internalType": "uint256",
          "name": "",
          "type": "uint256"
        }
      ],
      "stateMutability": "view",
      "type": "function"
    },
    {
      "inputs": [],
      "name": "globalMinTimeout",
      "outputs": [
        {
          "internalType": "uint256",
          "name": "",
          "type": "uint256"
        }
      ],
      "stateMutability": "view",
      "type": "function"
    },
    {
      "inputs": [
        {
          "internalType": "bytes32",
          "name": "role",
          "type": "bytes32"
        },
        {
          "internalType": "address",
          "name": "account",
          "type": "address"
        }
      ],
      "name": "grantRole",
      "outputs": [],
      "stateMutability": "nonpayable",
      "type": "function"
    },
    {
      "inputs": [
        {
          "internalType": "bytes32",
          "name": "role",
          "type": "bytes32"
        },
        {
          "internalType": "address",
          "name": "account",
          "type": "address"
        }
      ],
      "name": "hasRole",
      "outputs": [
        {
          "internalType": "bool",
          "name": "",
          "type": "bool"
        }
      ],
      "stateMutability": "view",
      "type": "function"
    },
    {
      "inputs": [
        {
          "internalType": "uint256",
          "name": "_jobId",
          "type": "uint256"
        }
      ],
      "name": "jobCancel",
      "outputs": [],
      "stateMutability": "nonpayable",
      "type": "function"
    },
    {
      "inputs": [],
      "name": "jobCount",
      "outputs": [
        {
          "internalType": "uint256",
          "name": "",
          "type": "uint256"
        }
      ],
      "stateMutability": "view",
      "type": "function"
    },
    {
      "inputs": [
        {
          "internalType": "uint256",
          "name": "",
          "type": "uint256"
        }
      ],
      "name": "jobOutputs",
      "outputs": [
        {
          "internalType": "bytes",
          "name": "output",
          "type": "bytes"
        },
        {
          "internalType": "uint256",
          "name": "totalTime",
          "type": "uint256"
        },
        {
          "internalType": "uint8",
          "name": "errorCode",
          "type": "uint8"
        },
        {
          "internalType": "bool",
          "name": "received",
          "type": "bool"
        }
      ],
      "stateMutability": "view",
      "type": "function"
    },
    {
      "inputs": [
        {
          "internalType": "bytes",
          "name": "_signature",
          "type": "bytes"
        },
        {
          "internalType": "uint256",
          "name": "_jobId",
          "type": "uint256"
        },
        {
          "internalType": "bytes",
          "name": "_output",
          "type": "bytes"
        },
        {
          "internalType": "uint256",
          "name": "_totalTime",
          "type": "uint256"
        },
        {
          "internalType": "uint8",
          "name": "_errorCode",
          "type": "uint8"
        }
      ],
      "name": "jobResponse",
      "outputs": [],
      "stateMutability": "nonpayable",
      "type": "function"
    },
    {
      "inputs": [
        {
          "internalType": "uint256",
          "name": "",
          "type": "uint256"
        }
      ],
      "name": "jobs",
      "outputs": [
        {
          "internalType": "bytes32",
          "name": "codehash",
          "type": "bytes32"
        },
        {
          "internalType": "bytes",
          "name": "codeInputs",
          "type": "bytes"
        },
        {
          "internalType": "uint256",
          "name": "userTimeout",
          "type": "uint256"
        },
        {
          "internalType": "uint256",
          "name": "startTime",
          "type": "uint256"
        },
        {
          "internalType": "uint256",
          "name": "maxGasPrice",
          "type": "uint256"
        },
        {
          "internalType": "uint256",
          "name": "usdcDeposit",
          "type": "uint256"
        },
        {
          "internalType": "uint256",
          "name": "callbackDeposit",
          "type": "uint256"
        },
        {
          "internalType": "address",
          "name": "jobOwner",
          "type": "address"
        }
      ],
      "stateMutability": "view",
      "type": "function"
    },
    {
      "inputs": [],
      "name": "overallTimeout",
      "outputs": [
        {
          "internalType": "uint256",
          "name": "",
          "type": "uint256"
        }
      ],
      "stateMutability": "view",
      "type": "function"
    },
    {
      "inputs": [],
      "name": "proxiableUUID",
      "outputs": [
        {
          "internalType": "bytes32",
          "name": "",
          "type": "bytes32"
        }
      ],
      "stateMutability": "view",
      "type": "function"
    },
    {
      "inputs": [
        {
          "internalType": "bytes",
          "name": "_attestation",
          "type": "bytes"
        },
        {
          "internalType": "bytes",
          "name": "_enclavePubKey",
          "type": "bytes"
        },
        {
          "internalType": "bytes",
          "name": "_PCR0",
          "type": "bytes"
        },
        {
          "internalType": "bytes",
          "name": "_PCR1",
          "type": "bytes"
        },
        {
          "internalType": "bytes",
          "name": "_PCR2",
          "type": "bytes"
        },
        {
          "internalType": "uint256",
          "name": "_enclaveCPUs",
          "type": "uint256"
        },
        {
          "internalType": "uint256",
          "name": "_enclaveMemory",
          "type": "uint256"
        },
        {
          "internalType": "uint256",
          "name": "_timestampInMilliseconds",
          "type": "uint256"
        }
      ],
      "name": "registerGateway",
      "outputs": [],
      "stateMutability": "nonpayable",
      "type": "function"
    },
    {
      "inputs": [
        {
          "internalType": "bytes32",
          "name": "_codehash",
          "type": "bytes32"
        },
        {
          "internalType": "bytes",
          "name": "_codeInputs",
          "type": "bytes"
        },
        {
          "internalType": "uint256",
          "name": "_userTimeout",
          "type": "uint256"
        },
        {
          "internalType": "uint256",
          "name": "_maxGasPrice",
          "type": "uint256"
        },
        {
          "internalType": "uint256",
          "name": "_usdcDeposit",
          "type": "uint256"
        },
        {
          "internalType": "uint256",
          "name": "_callbackDeposit",
          "type": "uint256"
        }
      ],
      "name": "relayJob",
      "outputs": [],
      "stateMutability": "nonpayable",
      "type": "function"
    },
    {
      "inputs": [
        {
          "internalType": "bytes32",
          "name": "role",
          "type": "bytes32"
        },
        {
          "internalType": "address",
          "name": "account",
          "type": "address"
        }
      ],
      "name": "renounceRole",
      "outputs": [],
      "stateMutability": "nonpayable",
      "type": "function"
    },
    {
      "inputs": [
        {
          "internalType": "bytes32",
          "name": "role",
          "type": "bytes32"
        },
        {
          "internalType": "address",
          "name": "account",
          "type": "address"
        }
      ],
      "name": "revokeRole",
      "outputs": [],
      "stateMutability": "nonpayable",
      "type": "function"
    },
    {
      "inputs": [
        {
          "internalType": "bytes4",
          "name": "interfaceId",
          "type": "bytes4"
        }
      ],
      "name": "supportsInterface",
      "outputs": [
        {
          "internalType": "bool",
          "name": "",
          "type": "bool"
        }
      ],
      "stateMutability": "view",
      "type": "function"
    },
    {
      "inputs": [],
      "name": "token",
      "outputs": [
        {
          "internalType": "contract IERC20",
          "name": "",
          "type": "address"
        }
      ],
      "stateMutability": "view",
      "type": "function"
    },
    {
      "inputs": [
        {
          "internalType": "address",
          "name": "newImplementation",
          "type": "address"
        }
      ],
      "name": "upgradeTo",
      "outputs": [],
      "stateMutability": "nonpayable",
      "type": "function"
    },
    {
      "inputs": [
        {
          "internalType": "address",
          "name": "newImplementation",
          "type": "address"
        },
        {
          "internalType": "bytes",
          "name": "data",
          "type": "bytes"
        }
      ],
      "name": "upgradeToAndCall",
      "outputs": [],
      "stateMutability": "payable",
      "type": "function"
    },
    {
      "inputs": [
        {
          "internalType": "bytes",
          "name": "signature",
          "type": "bytes"
        },
        {
          "internalType": "bytes",
          "name": "enclavePubKey",
          "type": "bytes"
        },
        {
          "internalType": "bytes32",
          "name": "imageId",
          "type": "bytes32"
        },
        {
          "internalType": "uint256",
          "name": "enclaveCPUs",
          "type": "uint256"
        },
        {
          "internalType": "uint256",
          "name": "enclaveMemory",
          "type": "uint256"
        },
        {
          "internalType": "uint256",
          "name": "timestampInMilliseconds",
          "type": "uint256"
        }
      ],
      "name": "verifyKey",
      "outputs": [],
      "stateMutability": "nonpayable",
      "type": "function"
    }
  ],
  "bytecode": "0x60e06040523060c0523480156200001557600080fd5b50604051620041fe380380620041fe833981016040819052620000389162000186565b6001600160a01b03821660805260a0819052600054610100900460ff16158080156200006b5750600054600160ff909116105b806200009b575062000088306200017760201b620019ab1760201c565b1580156200009b575060005460ff166001145b620001035760405162461bcd60e51b815260206004820152602e60248201527f496e697469616c697a61626c653a20636f6e747261637420697320616c72656160448201526d191e481a5b9a5d1a585b1a5e995960921b606482015260840160405180910390fd5b6000805460ff19166001179055801562000127576000805461ff0019166101001790555b80156200016e576000805461ff0019169055604051600181527f7f26b83ff96e1f2b6a682f133852f6798a09c465da95921460cefb38474024989060200160405180910390a15b505050620001c2565b6001600160a01b03163b151590565b600080604083850312156200019a57600080fd5b82516001600160a01b0381168114620001b257600080fd5b6020939093015192949293505050565b60805160a05160c051613fe26200021c60003960008181610e8a01528181610f20015281816112f101528181611387015261147e01526000818161057f0152611eea0152600081816105e801526121390152613fe26000f3fe6080604052600436106101d75760003560e01c80634db9394b11610102578063a217fddf11610095578063e0aba60a11610064578063e0aba60a1461062a578063f398cc741461064a578063fb94db2b1461066a578063fc0c546a1461068a57600080fd5b8063a217fddf146105a1578063ca15c873146105b6578063cd79f906146105d6578063d547741f1461060a57600080fd5b80639022c19c116100d15780639022c19c1461048457806391d14854146104f75780639563b5af1461053d5780639aec990e1461056d57600080fd5b80634db9394b146104045780634f1ef2861461042457806352d1902d146104375780639010d07c1461044c57600080fd5b80632410f6ba1161017a5780633659cfe6116101495780633659cfe61461039657806338e59184146103b657806347633b55146103d65780634c5d8a0f146103ed57600080fd5b80632410f6ba146102f9578063248a9ca3146103265780632f2ff15d1461035657806336568abe1461037657600080fd5b80630834267a116101b65780630834267a146102775780630ead66251461028e578063180aedf3146102a55780631c68fef3146102d957600080fd5b8062292ea3146101dc57806301d58fa3146101fe57806301ffc9a714610247575b600080fd5b3480156101e857600080fd5b506101fc6101f7366004613371565b6106ab565b005b34801561020a57600080fd5b506102346102193660046133f0565b6001600160a01b0316600090815260ca602052604090205490565b6040519081526020015b60405180910390f35b34801561025357600080fd5b5061026761026236600461340d565b61085c565b604051901515815260200161023e565b34801561028357600080fd5b506102346101625481565b34801561029a57600080fd5b506102346101605481565b3480156102b157600080fd5b506102c56102c036600461344f565b61086d565b60405161023e9897969594939291906134b8565b3480156102e557600080fd5b506101fc6102f436600461350e565b610943565b34801561030557600080fd5b5061031961031436600461344f565b610bd1565b60405161023e919061369d565b34801561033257600080fd5b5061023461034136600461344f565b60009081526065602052604090206001015490565b34801561036257600080fd5b506101fc6103713660046136fe565b610dca565b34801561038257600080fd5b506101fc6103913660046136fe565b610df4565b3480156103a257600080fd5b506101fc6103b13660046133f0565b610e80565b3480156103c257600080fd5b506101fc6103d136600461372e565b61101d565b3480156103e257600080fd5b506102346101615481565b3480156103f957600080fd5b506102346101655481565b34801561041057600080fd5b506101fc61041f36600461381b565b611150565b6101fc6104323660046138ad565b6112e7565b34801561044357600080fd5b50610234611471565b34801561045857600080fd5b5061046c6104673660046138fd565b611536565b6040516001600160a01b03909116815260200161023e565b34801561049057600080fd5b506104d861049f3660046133f0565b610163602052600090815260409020546001600160a01b0381169074010000000000000000000000000000000000000000900460ff1682565b604080516001600160a01b03909316835290151560208301520161023e565b34801561050357600080fd5b506102676105123660046136fe565b60009182526065602090815260408084206001600160a01b0393909316845291905290205460ff1690565b34801561054957600080fd5b5061055d61055836600461344f565b611555565b60405161023e949392919061391f565b34801561057957600080fd5b506102347f000000000000000000000000000000000000000000000000000000000000000081565b3480156105ad57600080fd5b50610234600081565b3480156105c257600080fd5b506102346105d136600461344f565b61160d565b3480156105e257600080fd5b5061046c7f000000000000000000000000000000000000000000000000000000000000000081565b34801561061657600080fd5b506101fc6106253660046136fe565b611624565b34801561063657600080fd5b506101fc610645366004613953565b611649565b34801561065657600080fd5b506101fc61066536600461344f565b6117bd565b34801561067657600080fd5b506101fc610685366004613988565b61199d565b34801561069657600080fd5b5061015f5461046c906001600160a01b031681565b61016054841180156106bf57506101615484105b6107105760405162461bcd60e51b815260206004820152601460248201527f494e56414c49445f555345525f54494d454f555400000000000000000000000060448201526064015b60405180910390fd5b60405180610100016040528087815260200186815260200185815260200142815260200184815260200183815260200182815260200161074d3390565b6001600160a01b031681525061016460006101656000815461076e90613a17565b918290555081526020808201929092526040016000208251815590820151600182019061079b9082613ae8565b506040828101516002830155606083015160038301556080830151600483015560a0830151600583015560c0830151600683015560e090920151600790910180547fffffffffffffffffffffffff0000000000000000000000000000000000000000166001600160a01b039092169190911790556101655490517f181be2e6e8e41b56db16815d6e88f76299852d169a3ba4db00008a83bb3bdb6e9061084c90899089908990899089908990613be4565b60405180910390a2505050505050565b6000610867826119ba565b92915050565b610164602052600090815260409020805460018201805491929161089090613a4f565b80601f01602080910402602001604051908101604052809291908181526020018280546108bc90613a4f565b80156109095780601f106108de57610100808354040283529160200191610909565b820191906000526020600020905b8154815290600101906020018083116108ec57829003601f168201915b505050600284015460038501546004860154600587015460068801546007909801549697939692955090935091906001600160a01b031688565b600054610100900460ff16158080156109635750600054600160ff909116105b8061097d5750303b15801561097d575060005460ff166001145b6109ef5760405162461bcd60e51b815260206004820152602e60248201527f496e697469616c697a61626c653a20636f6e747261637420697320616c72656160448201527f647920696e697469616c697a65640000000000000000000000000000000000006064820152608401610707565b600080547fffffffffffffffffffffffffffffffffffffffffffffffffffffffffffffff001660011790558015610a4d57600080547fffffffffffffffffffffffffffffffffffffffffffffffffffffffffffff00ff166101001790555b610a55611a10565b610a5d611a10565b610a65611a10565b610a6e84611a8f565b610a76611a10565b610a81600087611b4d565b6001600160a01b038516610ad75760405162461bcd60e51b815260206004820152600d60248201527f494e56414c49445f544f4b454e000000000000000000000000000000000000006044820152606401610707565b61015f80547fffffffffffffffffffffffff0000000000000000000000000000000000000000166001600160a01b038716179055818310610b5a5760405162461bcd60e51b815260206004820152601760248201527f494e56414c49445f474c4f42414c5f54494d454f5554530000000000000000006044820152606401610707565b6101608390556101618290558015610bc957600080547fffffffffffffffffffffffffffffffffffffffffffffffffffffffffffff00ff169055604051600181527f7f26b83ff96e1f2b6a682f133852f6798a09c465da95921460cefb38474024989060200160405180910390a15b505050505050565b610bf560405180606001604052806060815260200160608152602001606081525090565b600082815260c9602052604090819020815160608101909252805482908290610c1d90613a4f565b80601f0160208091040260200160405190810160405280929190818152602001828054610c4990613a4f565b8015610c965780601f10610c6b57610100808354040283529160200191610c96565b820191906000526020600020905b815481529060010190602001808311610c7957829003601f168201915b50505050508152602001600182018054610caf90613a4f565b80601f0160208091040260200160405190810160405280929190818152602001828054610cdb90613a4f565b8015610d285780601f10610cfd57610100808354040283529160200191610d28565b820191906000526020600020905b815481529060010190602001808311610d0b57829003601f168201915b50505050508152602001600282018054610d4190613a4f565b80601f0160208091040260200160405190810160405280929190818152602001828054610d6d90613a4f565b8015610dba5780601f10610d8f57610100808354040283529160200191610dba565b820191906000526020600020905b815481529060010190602001808311610d9d57829003601f168201915b5050505050815250509050919050565b600082815260656020526040902060010154610de581611b57565b610def8383611b4d565b505050565b6001600160a01b0381163314610e725760405162461bcd60e51b815260206004820152602f60248201527f416363657373436f6e74726f6c3a2063616e206f6e6c792072656e6f756e636560448201527f20726f6c657320666f722073656c6600000000000000000000000000000000006064820152608401610707565b610e7c8282611b61565b5050565b6001600160a01b037f0000000000000000000000000000000000000000000000000000000000000000163003610f1e5760405162461bcd60e51b815260206004820152602c60248201527f46756e6374696f6e206d7573742062652063616c6c6564207468726f7567682060448201527f64656c656761746563616c6c00000000000000000000000000000000000000006064820152608401610707565b7f00000000000000000000000000000000000000000000000000000000000000006001600160a01b0316610f797f360894a13ba1a3210667c828492db98dca3e2076cc3735a920a3ca505d382bbc546001600160a01b031690565b6001600160a01b031614610ff55760405162461bcd60e51b815260206004820152602c60248201527f46756e6374696f6e206d7573742062652063616c6c6564207468726f7567682060448201527f6163746976652070726f787900000000000000000000000000000000000000006064820152608401610707565b610ffe81611bc4565b6040805160008082526020820190925261101a91839190611c1b565b50565b600086868660405160200161103493929190613c22565b60405160208183030381529060405280519060200120905061105a898983878787611dbb565b600061106589612232565b905060405180604001604052806110793390565b6001600160a01b03908116825260016020928301528381166000908152610163835260409020835181549490930151151574010000000000000000000000000000000000000000027fffffffffffffffffffffff00000000000000000000000000000000000000000090941692909116919091179190911790556110fa3390565b6001600160a01b0316816001600160a01b03167f106ffa37b07009baa2e6b20d86090a9347e3fb5e0bdb0dae1efc7346aa8a2f1c8b60405161113c9190613c65565b60405180910390a350505050505050505050565b61016254600085815261016460205260409020600301546111719190613c78565b4211156111c05760405162461bcd60e51b815260206004820152601460248201527f4f564552414c4c5f54494d454f55545f4f5645520000000000000000000000006044820152606401610707565b6000848484846040516020016111d99493929190613c8b565b60408051601f198184030181529190528051602090910120905060006111ff8288612291565b905061120a816122b5565b60408051608081018252868152602080820187905260ff861682840152600160608301526000898152610166909152919091208151819061124b9082613ae8565b5060208201516001820155604080830151600290920180546060909401511515610100027fffffffffffffffffffffffffffffffffffffffffffffffffffffffffffff000090941660ff909316929092179290921790555186907fa0f4363e838928d2a6f7986b0f7f872efbbbaec7a6e370153d3fb9f8537447ab906112d690889088908890613cbe565b60405180910390a250505050505050565b6001600160a01b037f00000000000000000000000000000000000000000000000000000000000000001630036113855760405162461bcd60e51b815260206004820152602c60248201527f46756e6374696f6e206d7573742062652063616c6c6564207468726f7567682060448201527f64656c656761746563616c6c00000000000000000000000000000000000000006064820152608401610707565b7f00000000000000000000000000000000000000000000000000000000000000006001600160a01b03166113e07f360894a13ba1a3210667c828492db98dca3e2076cc3735a920a3ca505d382bbc546001600160a01b031690565b6001600160a01b03161461145c5760405162461bcd60e51b815260206004820152602c60248201527f46756e6374696f6e206d7573742062652063616c6c6564207468726f7567682060448201527f6163746976652070726f787900000000000000000000000000000000000000006064820152608401610707565b61146582611bc4565b610e7c82826001611c1b565b6000306001600160a01b037f000000000000000000000000000000000000000000000000000000000000000016146115115760405162461bcd60e51b815260206004820152603860248201527f555550535570677261646561626c653a206d757374206e6f742062652063616c60448201527f6c6564207468726f7567682064656c656761746563616c6c00000000000000006064820152608401610707565b507f360894a13ba1a3210667c828492db98dca3e2076cc3735a920a3ca505d382bbc90565b600082815260976020526040812061154e90836123d1565b9392505050565b6101666020526000908152604090208054819061157190613a4f565b80601f016020809104026020016040519081016040528092919081815260200182805461159d90613a4f565b80156115ea5780601f106115bf576101008083540402835291602001916115ea565b820191906000526020600020905b8154815290600101906020018083116115cd57829003601f168201915b50505050600183015460029093015491929160ff80821692506101009091041684565b6000818152609760205260408120610867906123dd565b60008281526065602052604090206001015461163f81611b57565b610def8383611b61565b80600061165582612232565b6001600160a01b03808216600090815261016360205260409020549192501633146116c25760405162461bcd60e51b815260206004820152601560248201527f4f4e4c595f474154455741595f4f50455241544f5200000000000000000000006044820152606401610707565b60006116cd84612232565b6001600160a01b0380821660009081526101636020526040902054919250166117385760405162461bcd60e51b815260206004820152601360248201527f494e56414c49445f454e434c4156455f4b4559000000000000000000000000006044820152606401610707565b6001600160a01b03811660009081526101636020526040902080547fffffffffffffffffffffff000000000000000000000000000000000000000000169055611780846123e7565b7fcfdd9fda8828d739bda25c6f221393246d149dd1b7f6784acdb8ba0132722f27846040516117af9190613c65565b60405180910390a150505050565b6000818152610164602052604090206007015481906001600160a01b031633146118295760405162461bcd60e51b815260206004820152600d60248201527f4e4f545f4a4f425f4f574e4552000000000000000000000000000000000000006044820152606401610707565b60008281526101666020526040902060020154610100900460ff16156118915760405162461bcd60e51b815260206004820152601b60248201527f4a4f425f4f55545055545f414c52454144595f524543454956454400000000006044820152606401610707565b61016254600083815261016460205260409020600301546118b29190613c78565b42116119005760405162461bcd60e51b815260206004820152601860248201527f4f564552414c4c5f54494d454f55545f4e4f545f4f56455200000000000000006044820152606401610707565b60008281526101646020526040812081815590611920600183018261322a565b5060006002820181905560038201819055600482018190556005820181905560068201819055600790910180547fffffffffffffffffffffffff000000000000000000000000000000000000000016905560405183917f58243f872c550ad02802199ade99eb4250f6bb19e9abbf2d3de7b969c0eb5e4f91a25050565b610bc9868686868686611dbb565b6001600160a01b03163b151590565b60007fffffffff0000000000000000000000000000000000000000000000000000000082167f5a05180f0000000000000000000000000000000000000000000000000000000014806108675750610867826124b7565b600054610100900460ff16611a8d5760405162461bcd60e51b815260206004820152602b60248201527f496e697469616c697a61626c653a20636f6e7472616374206973206e6f74206960448201527f6e697469616c697a696e670000000000000000000000000000000000000000006064820152608401610707565b565b600054610100900460ff16611b0c5760405162461bcd60e51b815260206004820152602b60248201527f496e697469616c697a61626c653a20636f6e7472616374206973206e6f74206960448201527f6e697469616c697a696e670000000000000000000000000000000000000000006064820152608401610707565b60005b8151811015610e7c57611b3a828281518110611b2d57611b2d613cea565b602002602001015161254e565b5080611b4581613a17565b915050611b0f565b610e7c8282612748565b61101a813361276a565b611b6b82826127df565b611b75600061160d565b600003610e7c5760405162461bcd60e51b815260206004820181905260248201527f41563a52522d416c6c2061646d696e732063616e742062652072656d6f7665646044820152606401610707565b611bcf600033610512565b61101a5760405162461bcd60e51b815260206004820152600a60248201527f6f6e6c792061646d696e000000000000000000000000000000000000000000006044820152606401610707565b7f4910fdfa16fed3260ed0e7147f7cc6da11a60208b5b9406d12a635614ffd91435460ff1615611c4e57610def83612801565b826001600160a01b03166352d1902d6040518163ffffffff1660e01b8152600401602060405180830381865afa925050508015611ca8575060408051601f3d908101601f19168201909252611ca591810190613d19565b60015b611d1a5760405162461bcd60e51b815260206004820152602e60248201527f45524331393637557067726164653a206e657720696d706c656d656e7461746960448201527f6f6e206973206e6f7420555550530000000000000000000000000000000000006064820152608401610707565b7f360894a13ba1a3210667c828492db98dca3e2076cc3735a920a3ca505d382bbc8114611daf5760405162461bcd60e51b815260206004820152602960248201527f45524331393637557067726164653a20756e737570706f727465642070726f7860448201527f6961626c655555494400000000000000000000000000000000000000000000006064820152608401610707565b50610def8383836128d7565b600084815260c9602052604090208054611dd490613a4f565b9050600003611e4b5760405162461bcd60e51b815260206004820152602d60248201527f41413a564b2d456e636c61766520696d61676520746f20766572696679206e6f60448201527f742077686974656c6973746564000000000000000000000000000000000000006064820152608401610707565b6000611e5686612232565b6001600160a01b038116600090815260ca602052604090205490915015611ee55760405162461bcd60e51b815260206004820152602260248201527f41413a564b2d456e636c617665206b657920616c72656164792076657269666960448201527f65640000000000000000000000000000000000000000000000000000000000006064820152608401610707565b611f0f7f000000000000000000000000000000000000000000000000000000000000000042613d32565b611f1b6103e884613d45565b11611f685760405162461bcd60e51b815260206004820152601960248201527f41413a564b2d4174746573746174696f6e20746f6f206f6c64000000000000006044820152606401610707565b600085815260c96020526040808220815160608101909252805482908290611f8f90613a4f565b80601f0160208091040260200160405190810160405280929190818152602001828054611fbb90613a4f565b80156120085780601f10611fdd57610100808354040283529160200191612008565b820191906000526020600020905b815481529060010190602001808311611feb57829003601f168201915b5050505050815260200160018201805461202190613a4f565b80601f016020809104026020016040519081016040528092919081815260200182805461204d90613a4f565b801561209a5780601f1061206f5761010080835404028352916020019161209a565b820191906000526020600020905b81548152906001019060200180831161207d57829003601f168201915b505050505081526020016002820180546120b390613a4f565b80601f01602080910402602001604051908101604052809291908181526020018280546120df90613a4f565b801561212c5780601f106121015761010080835404028352916020019161212c565b820191906000526020600020905b81548152906001019060200180831161210f57829003601f168201915b50505050508152505090507f00000000000000000000000000000000000000000000000000000000000000006001600160a01b031663ac0f0bd589898460000151856020015186604001518b8b8b6040518963ffffffff1660e01b815260040161219d989796959493929190613d80565b60006040518083038186803b1580156121b557600080fd5b505afa1580156121c9573d6000803e3d6000fd5b5050506001600160a01b038316600090815260ca602052604090819020889055518791506121f8908990613e05565b604051908190038120907ff4837f1a66a1e5fbde2c40d0f6eff75183139e79b0fc1eaab280a3a0be38e7b190600090a35050505050505050565b600081516040146122855760405162461bcd60e51b815260206004820152601960248201527f496e76616c6964207075626c6963206b6579206c656e677468000000000000006044820152606401610707565b50805160209091012090565b60008060006122a08585612902565b915091506122ad81612947565b509392505050565b6001600160a01b038116600090815260ca6020526040902054806123415760405162461bcd60e51b815260206004820152602360248201527f41413a414f562d456e636c617665206b6579206d75737420626520766572696660448201527f69656400000000000000000000000000000000000000000000000000000000006064820152608401610707565b600081815260c960205260409020805461235a90613a4f565b9050600003610e7c5760405162461bcd60e51b815260206004820152602760248201527f41413a414f562d536f7572636520696d616765206d757374206265207768697460448201527f656c6973746564000000000000000000000000000000000000000000000000006064820152608401610707565b600061154e8383612aac565b6000610867825490565b60006123f282612232565b6001600160a01b038116600090815260ca602052604090205490915061245a5760405162461bcd60e51b815260206004820152601e60248201527f41413a524b2d456e636c617665206b6579206e6f7420766572696669656400006044820152606401610707565b6001600160a01b038116600090815260ca60205260408082209190915551612483908390613e05565b604051908190038120907ff910fd78b98e9574e8b6f0e42bc3a996a6aba3776ec20b9d85515bd74a6c8fe990600090a25050565b60007fffffffff0000000000000000000000000000000000000000000000000000000082167f7965db0b00000000000000000000000000000000000000000000000000000000148061086757507f01ffc9a7000000000000000000000000000000000000000000000000000000007fffffffff00000000000000000000000000000000000000000000000000000000831614610867565b805151600090603014801561256857508160200151516030145b801561257957508160400151516030145b6125eb5760405162461bcd60e51b815260206004820152602160248201527f41413a57492d5043522076616c756573206d757374206265203438206279746560448201527f73000000000000000000000000000000000000000000000000000000000000006064820152608401610707565b600082600001518360200151846040015160405160200161260e93929190613c22565b60408051601f198184030181529181528151602092830120600081815260c9909352912080549192509061264190613a4f565b1590506126905760405162461bcd60e51b815260206004820152601f60248201527f41413a57492d696d61676520616c72656164792077686974656c6973746564006044820152606401610707565b6040805160608101825284518152602080860151818301528583015182840152600084815260c990915291909120815181906126cc9082613ae8565b50602082015160018201906126e19082613ae8565b50604082015160028201906126f69082613ae8565b50905050807f52b29bbdd97ab983419f50fa1590e5ab75e9942279e95e10a08607b06c23238b84600001518560200151866040015160405161273a93929190613e21565b60405180910390a292915050565b6127528282612ad6565b6000828152609760205260409020610def9082612b96565b60008281526065602090815260408083206001600160a01b038516845290915290205460ff16610e7c5761279d81612bab565b6127a8836020612bbd565b6040516020016127b9929190613e5a565b60408051601f198184030181529082905262461bcd60e51b825261070791600401613c65565b6127e98282612de6565b6000828152609760205260409020610def9082612e87565b6001600160a01b0381163b61287e5760405162461bcd60e51b815260206004820152602d60248201527f455243313936373a206e657720696d706c656d656e746174696f6e206973206e60448201527f6f74206120636f6e7472616374000000000000000000000000000000000000006064820152608401610707565b7f360894a13ba1a3210667c828492db98dca3e2076cc3735a920a3ca505d382bbc80547fffffffffffffffffffffffff0000000000000000000000000000000000000000166001600160a01b0392909216919091179055565b6128e083612e9c565b6000825111806128ed5750805b15610def576128fc8383612edc565b50505050565b60008082516041036129385760208301516040840151606085015160001a61292c87828585612f01565b94509450505050612940565b506000905060025b9250929050565b600081600481111561295b5761295b613edb565b036129635750565b600181600481111561297757612977613edb565b036129c45760405162461bcd60e51b815260206004820152601860248201527f45434453413a20696e76616c6964207369676e617475726500000000000000006044820152606401610707565b60028160048111156129d8576129d8613edb565b03612a255760405162461bcd60e51b815260206004820152601f60248201527f45434453413a20696e76616c6964207369676e6174757265206c656e677468006044820152606401610707565b6003816004811115612a3957612a39613edb565b0361101a5760405162461bcd60e51b815260206004820152602260248201527f45434453413a20696e76616c6964207369676e6174757265202773272076616c60448201527f75650000000000000000000000000000000000000000000000000000000000006064820152608401610707565b6000826000018281548110612ac357612ac3613cea565b9060005260206000200154905092915050565b60008281526065602090815260408083206001600160a01b038516845290915290205460ff16610e7c5760008281526065602090815260408083206001600160a01b0385168452909152902080547fffffffffffffffffffffffffffffffffffffffffffffffffffffffffffffff00166001179055612b523390565b6001600160a01b0316816001600160a01b0316837f2f8788117e7eff1d82e926ec794901d17c78024a50270940304540a733656f0d60405160405180910390a45050565b600061154e836001600160a01b038416612fc5565b60606108676001600160a01b03831660145b60606000612bcc836002613f0a565b612bd7906002613c78565b67ffffffffffffffff811115612bef57612bef613278565b6040519080825280601f01601f191660200182016040528015612c19576020820181803683370190505b5090507f300000000000000000000000000000000000000000000000000000000000000081600081518110612c5057612c50613cea565b60200101907effffffffffffffffffffffffffffffffffffffffffffffffffffffffffffff1916908160001a9053507f780000000000000000000000000000000000000000000000000000000000000081600181518110612cb357612cb3613cea565b60200101907effffffffffffffffffffffffffffffffffffffffffffffffffffffffffffff1916908160001a9053506000612cef846002613f0a565b612cfa906001613c78565b90505b6001811115612d97577f303132333435363738396162636465660000000000000000000000000000000085600f1660108110612d3b57612d3b613cea565b1a60f81b828281518110612d5157612d51613cea565b60200101907effffffffffffffffffffffffffffffffffffffffffffffffffffffffffffff1916908160001a90535060049490941c93612d9081613f21565b9050612cfd565b50831561154e5760405162461bcd60e51b815260206004820181905260248201527f537472696e67733a20686578206c656e67746820696e73756666696369656e746044820152606401610707565b60008281526065602090815260408083206001600160a01b038516845290915290205460ff1615610e7c5760008281526065602090815260408083206001600160a01b038516808552925280832080547fffffffffffffffffffffffffffffffffffffffffffffffffffffffffffffff0016905551339285917ff6391f5c32d9c69d2a47ea670b442974b53935d1edc7fd64eb21e047a839171b9190a45050565b600061154e836001600160a01b038416613014565b612ea581612801565b6040516001600160a01b038216907fbc7cd75a20ee27fd9adebab32041f755214dbc6bffa90cc0225b39da2e5c2d3b90600090a250565b606061154e8383604051806060016040528060278152602001613f8660279139613107565b6000807f7fffffffffffffffffffffffffffffff5d576e7357a4501ddfe92f46681b20a0831115612f385750600090506003612fbc565b6040805160008082526020820180845289905260ff881692820192909252606081018690526080810185905260019060a0016020604051602081039080840390855afa158015612f8c573d6000803e3d6000fd5b5050604051601f1901519150506001600160a01b038116612fb557600060019250925050612fbc565b9150600090505b94509492505050565b600081815260018301602052604081205461300c57508154600181810184556000848152602080822090930184905584548482528286019093526040902091909155610867565b506000610867565b600081815260018301602052604081205480156130fd576000613038600183613d32565b855490915060009061304c90600190613d32565b90508181146130b157600086600001828154811061306c5761306c613cea565b906000526020600020015490508087600001848154811061308f5761308f613cea565b6000918252602080832090910192909255918252600188019052604090208390555b85548690806130c2576130c2613f56565b600190038181906000526020600020016000905590558560010160008681526020019081526020016000206000905560019350505050610867565b6000915050610867565b6060600080856001600160a01b0316856040516131249190613e05565b600060405180830381855af49150503d806000811461315f576040519150601f19603f3d011682016040523d82523d6000602084013e613164565b606091505b50915091506131758683838761317f565b9695505050505050565b606083156131ee5782516000036131e7576001600160a01b0385163b6131e75760405162461bcd60e51b815260206004820152601d60248201527f416464726573733a2063616c6c20746f206e6f6e2d636f6e74726163740000006044820152606401610707565b50816131f8565b6131f88383613200565b949350505050565b8151156132105781518083602001fd5b8060405162461bcd60e51b81526004016107079190613c65565b50805461323690613a4f565b6000825580601f10613246575050565b601f01602090049060005260206000209081019061101a91905b808211156132745760008155600101613260565b5090565b7f4e487b7100000000000000000000000000000000000000000000000000000000600052604160045260246000fd5b6040516060810167ffffffffffffffff811182821017156132ca576132ca613278565b60405290565b604051601f8201601f1916810167ffffffffffffffff811182821017156132f9576132f9613278565b604052919050565b600082601f83011261331257600080fd5b813567ffffffffffffffff81111561332c5761332c613278565b61333f6020601f19601f840116016132d0565b81815284602083860101111561335457600080fd5b816020850160208301376000918101602001919091529392505050565b60008060008060008060c0878903121561338a57600080fd5b86359550602087013567ffffffffffffffff8111156133a857600080fd5b6133b489828a01613301565b96999698505050506040850135946060810135946080820135945060a09091013592509050565b6001600160a01b038116811461101a57600080fd5b60006020828403121561340257600080fd5b813561154e816133db565b60006020828403121561341f57600080fd5b81357fffffffff000000000000000000000000000000000000000000000000000000008116811461154e57600080fd5b60006020828403121561346157600080fd5b5035919050565b60005b8381101561348357818101518382015260200161346b565b50506000910152565b600081518084526134a4816020860160208601613468565b601f01601f19169290920160200192915050565b60006101008a83528060208401526134d28184018b61348c565b604084019990995250506060810195909552608085019390935260a084019190915260c08301526001600160a01b031660e09091015292915050565b600080600080600060a0868803121561352657600080fd5b61353086356133db565b8535945061354160208701356133db565b6020860135935067ffffffffffffffff806040880135111561356257600080fd5b6040870135870188601f82011261357857600080fd5b818135111561358957613589613278565b6135996020823560051b016132d0565b81358082526020808301929160051b8401018b10156135b757600080fd5b602083015b6020843560051b8501018110156136815784813511156135db57600080fd5b803584016060601f19828f030112156135f357600080fd5b6135fb6132a7565b866020830135111561360c57600080fd5b61361e8e602080850135850101613301565b8152866040830135111561363157600080fd5b6136448e60206040850135850101613301565b6020820152866060830135111561365a57600080fd5b61366d8e60206060850135850101613301565b6040820152845250602092830192016135bc565b50979a9699509697606081013597506080013595945050505050565b6020815260008251606060208401526136b9608084018261348c565b90506020840151601f19808584030160408601526136d7838361348c565b92506040860151915080858403016060860152506136f5828261348c565b95945050505050565b6000806040838503121561371157600080fd5b823591506020830135613723816133db565b809150509250929050565b600080600080600080600080610100898b03121561374b57600080fd5b883567ffffffffffffffff8082111561376357600080fd5b61376f8c838d01613301565b995060208b013591508082111561378557600080fd5b6137918c838d01613301565b985060408b01359150808211156137a757600080fd5b6137b38c838d01613301565b975060608b01359150808211156137c957600080fd5b6137d58c838d01613301565b965060808b01359150808211156137eb57600080fd5b506137f88b828c01613301565b989b979a50959894979660a0860135965060c08601359560e00135945092505050565b600080600080600060a0868803121561383357600080fd5b853567ffffffffffffffff8082111561384b57600080fd5b61385789838a01613301565b965060208801359550604088013591508082111561387457600080fd5b5061388188828901613301565b93505060608601359150608086013560ff8116811461389f57600080fd5b809150509295509295909350565b600080604083850312156138c057600080fd5b82356138cb816133db565b9150602083013567ffffffffffffffff8111156138e757600080fd5b6138f385828601613301565b9150509250929050565b6000806040838503121561391057600080fd5b50508035926020909101359150565b608081526000613932608083018761348c565b60208301959095525060ff9290921660408301521515606090910152919050565b60006020828403121561396557600080fd5b813567ffffffffffffffff81111561397c57600080fd5b6131f884828501613301565b60008060008060008060c087890312156139a157600080fd5b863567ffffffffffffffff808211156139b957600080fd5b6139c58a838b01613301565b975060208901359150808211156139db57600080fd5b506133b489828a01613301565b7f4e487b7100000000000000000000000000000000000000000000000000000000600052601160045260246000fd5b60007fffffffffffffffffffffffffffffffffffffffffffffffffffffffffffffffff8203613a4857613a486139e8565b5060010190565b600181811c90821680613a6357607f821691505b602082108103613a9c577f4e487b7100000000000000000000000000000000000000000000000000000000600052602260045260246000fd5b50919050565b601f821115610def57600081815260208120601f850160051c81016020861015613ac95750805b601f850160051c820191505b81811015610bc957828155600101613ad5565b815167ffffffffffffffff811115613b0257613b02613278565b613b1681613b108454613a4f565b84613aa2565b602080601f831160018114613b695760008415613b335750858301515b7fffffffffffffffffffffffffffffffffffffffffffffffffffffffffffffffff600386901b1c1916600185901b178555610bc9565b600085815260208120601f198616915b82811015613b9857888601518255948401946001909101908401613b79565b5085821015613bd457878501517fffffffffffffffffffffffffffffffffffffffffffffffffffffffffffffffff600388901b60f8161c191681555b5050505050600190811b01905550565b86815260c060208201526000613bfd60c083018861348c565b90508560408301528460608301528360808301528260a0830152979650505050505050565b60008451613c34818460208901613468565b845190830190613c48818360208901613468565b8451910190613c5b818360208801613468565b0195945050505050565b60208152600061154e602083018461348c565b80820180821115610867576108676139e8565b848152608060208201526000613ca4608083018661348c565b905083604083015260ff8316606083015295945050505050565b606081526000613cd1606083018661348c565b905083602083015260ff83166040830152949350505050565b7f4e487b7100000000000000000000000000000000000000000000000000000000600052603260045260246000fd5b600060208284031215613d2b57600080fd5b5051919050565b81810381811115610867576108676139e8565b600082613d7b577f4e487b7100000000000000000000000000000000000000000000000000000000600052601260045260246000fd5b500490565b6000610100808352613d948184018c61348c565b90508281036020840152613da8818b61348c565b90508281036040840152613dbc818a61348c565b90508281036060840152613dd0818961348c565b90508281036080840152613de4818861348c565b60a0840196909652505060c081019290925260e09091015295945050505050565b60008251613e17818460208701613468565b9190910192915050565b606081526000613e34606083018661348c565b8281036020840152613e46818661348c565b90508281036040840152613175818561348c565b7f416363657373436f6e74726f6c3a206163636f756e7420000000000000000000815260008351613e92816017850160208801613468565b7f206973206d697373696e6720726f6c65200000000000000000000000000000006017918401918201528351613ecf816028840160208801613468565b01602801949350505050565b7f4e487b7100000000000000000000000000000000000000000000000000000000600052602160045260246000fd5b8082028115828204841417610867576108676139e8565b600081613f3057613f306139e8565b507fffffffffffffffffffffffffffffffffffffffffffffffffffffffffffffffff0190565b7f4e487b7100000000000000000000000000000000000000000000000000000000600052603160045260246000fdfe416464726573733a206c6f772d6c6576656c2064656c65676174652063616c6c206661696c6564a26469706673582212206e344b1d745c4fdb176e49aa300a2675059ea513b85080db6883799c589c2e2364736f6c63430008110033",
  "linkReferences": {},
  "deployedLinkReferences": {}
}