{
  "_format": "hh-sol-artifact-1",
  "contractName": "RequestChainContract",
  "sourceName": "contracts/serverless-v2/RequestChainContract.sol",
  "abi": [
    {
      "inputs": [
        {
          "internalType": "contract IAttestationVerifier",
          "name": "attestationVerifier",
          "type": "address"
        },
        {
          "internalType": "uint256",
          "name": "maxAge",
          "type": "uint256"
        },
        {
          "internalType": "contract IERC20",
          "name": "_token",
          "type": "address"
        },
        {
          "internalType": "uint256",
          "name": "_globalMinTimeout",
          "type": "uint256"
        },
        {
          "internalType": "uint256",
          "name": "_globalMaxTimeout",
          "type": "uint256"
        },
        {
          "internalType": "uint256",
          "name": "_overallTimeout",
          "type": "uint256"
        }
      ],
      "stateMutability": "nonpayable",
      "type": "constructor"
    },
    {
      "inputs": [],
      "name": "AccessControlBadConfirmation",
      "type": "error"
    },
    {
      "inputs": [
        {
          "internalType": "address",
          "name": "account",
          "type": "address"
        },
        {
          "internalType": "bytes32",
          "name": "neededRole",
          "type": "bytes32"
        }
      ],
      "name": "AccessControlUnauthorizedAccount",
      "type": "error"
    },
    {
      "inputs": [
        {
          "internalType": "address",
          "name": "target",
          "type": "address"
        }
      ],
      "name": "AddressEmptyCode",
      "type": "error"
    },
    {
      "inputs": [],
      "name": "AttestationAutherAttestationTooOld",
      "type": "error"
    },
    {
      "inputs": [],
      "name": "AttestationAutherImageNotInFamily",
      "type": "error"
    },
    {
      "inputs": [],
      "name": "AttestationAutherImageNotWhitelisted",
      "type": "error"
    },
    {
      "inputs": [],
      "name": "AttestationAutherKeyNotVerified",
      "type": "error"
    },
    {
      "inputs": [],
      "name": "AttestationAutherMismatchedLengths",
      "type": "error"
    },
    {
      "inputs": [],
      "name": "AttestationAutherPCRsInvalid",
      "type": "error"
    },
    {
      "inputs": [],
      "name": "AttestationAutherPubkeyLengthInvalid",
      "type": "error"
    },
    {
      "inputs": [],
      "name": "ECDSAInvalidSignature",
      "type": "error"
    },
    {
      "inputs": [
        {
          "internalType": "uint256",
          "name": "length",
          "type": "uint256"
        }
      ],
      "name": "ECDSAInvalidSignatureLength",
      "type": "error"
    },
    {
      "inputs": [
        {
          "internalType": "bytes32",
          "name": "s",
          "type": "bytes32"
        }
      ],
      "name": "ECDSAInvalidSignatureS",
      "type": "error"
    },
    {
      "inputs": [
        {
          "internalType": "address",
          "name": "implementation",
          "type": "address"
        }
      ],
      "name": "ERC1967InvalidImplementation",
      "type": "error"
    },
    {
      "inputs": [],
      "name": "ERC1967NonPayable",
      "type": "error"
    },
    {
      "inputs": [],
      "name": "FailedInnerCall",
      "type": "error"
    },
    {
      "inputs": [],
      "name": "InvalidInitialization",
      "type": "error"
    },
    {
      "inputs": [],
      "name": "NotInitializing",
      "type": "error"
    },
    {
      "inputs": [],
      "name": "UUPSUnauthorizedCallContext",
      "type": "error"
    },
    {
      "inputs": [
        {
          "internalType": "bytes32",
          "name": "slot",
          "type": "bytes32"
        }
      ],
      "name": "UUPSUnsupportedProxiableUUID",
      "type": "error"
    },
    {
      "anonymous": false,
      "inputs": [
        {
          "indexed": true,
          "internalType": "bytes32",
          "name": "imageId",
          "type": "bytes32"
        },
        {
          "indexed": false,
          "internalType": "bytes32",
          "name": "family",
          "type": "bytes32"
        }
      ],
      "name": "EnclaveImageAddedToFamily",
      "type": "event"
    },
    {
      "anonymous": false,
      "inputs": [
        {
          "indexed": true,
          "internalType": "bytes32",
          "name": "imageId",
          "type": "bytes32"
        },
        {
          "indexed": false,
          "internalType": "bytes32",
          "name": "family",
          "type": "bytes32"
        }
      ],
      "name": "EnclaveImageRemovedFromFamily",
      "type": "event"
    },
    {
      "anonymous": false,
      "inputs": [
        {
          "indexed": true,
          "internalType": "bytes32",
          "name": "imageId",
          "type": "bytes32"
        }
      ],
      "name": "EnclaveImageRevoked",
      "type": "event"
    },
    {
      "anonymous": false,
      "inputs": [
        {
          "indexed": true,
          "internalType": "bytes32",
          "name": "imageId",
          "type": "bytes32"
        },
        {
          "indexed": false,
          "internalType": "bytes",
          "name": "PCR0",
          "type": "bytes"
        },
        {
          "indexed": false,
          "internalType": "bytes",
          "name": "PCR1",
          "type": "bytes"
        },
        {
          "indexed": false,
          "internalType": "bytes",
          "name": "PCR2",
          "type": "bytes"
        }
      ],
      "name": "EnclaveImageWhitelisted",
      "type": "event"
    },
    {
      "anonymous": false,
      "inputs": [
        {
          "indexed": true,
          "internalType": "bytes",
          "name": "enclavePubKey",
          "type": "bytes"
        }
      ],
      "name": "EnclaveKeyRevoked",
      "type": "event"
    },
    {
      "anonymous": false,
      "inputs": [
        {
          "indexed": true,
          "internalType": "address",
          "name": "enclaveKey",
          "type": "address"
        }
      ],
      "name": "EnclaveKeyRevoked2",
      "type": "event"
    },
    {
      "anonymous": false,
      "inputs": [
        {
          "indexed": true,
          "internalType": "bytes",
          "name": "enclavePubKey",
          "type": "bytes"
        },
        {
          "indexed": true,
          "internalType": "bytes32",
          "name": "imageId",
          "type": "bytes32"
        }
      ],
      "name": "EnclaveKeyVerified",
      "type": "event"
    },
    {
      "anonymous": false,
      "inputs": [
        {
          "indexed": true,
          "internalType": "bytes",
          "name": "enclavePubKey",
          "type": "bytes"
        },
        {
          "indexed": true,
          "internalType": "bytes32",
          "name": "imageId",
          "type": "bytes32"
        }
      ],
      "name": "EnclaveKeyWhitelisted",
      "type": "event"
    },
    {
      "anonymous": false,
      "inputs": [
        {
          "indexed": true,
          "internalType": "address",
          "name": "enclaveKey",
          "type": "address"
        }
      ],
      "name": "GatewayDeregistered",
      "type": "event"
    },
    {
      "anonymous": false,
      "inputs": [
        {
          "indexed": true,
          "internalType": "address",
          "name": "enclaveKey",
          "type": "address"
        },
        {
          "indexed": true,
          "internalType": "address",
          "name": "operator",
          "type": "address"
        }
      ],
      "name": "GatewayRegistered",
      "type": "event"
    },
    {
      "anonymous": false,
      "inputs": [
        {
          "indexed": false,
          "internalType": "uint64",
          "name": "version",
          "type": "uint64"
        }
      ],
      "name": "Initialized",
      "type": "event"
    },
    {
      "anonymous": false,
      "inputs": [
        {
          "indexed": true,
          "internalType": "uint256",
          "name": "jobId",
          "type": "uint256"
        }
      ],
      "name": "JobCancelled",
      "type": "event"
    },
    {
      "anonymous": false,
      "inputs": [
        {
          "indexed": true,
          "internalType": "uint256",
          "name": "jobId",
          "type": "uint256"
        },
        {
          "indexed": false,
          "internalType": "bytes32",
          "name": "codehash",
          "type": "bytes32"
        },
        {
          "indexed": false,
          "internalType": "bytes",
          "name": "codeInputs",
          "type": "bytes"
        },
        {
          "indexed": false,
          "internalType": "uint256",
          "name": "userTimeout",
          "type": "uint256"
        },
        {
          "indexed": false,
          "internalType": "uint256",
          "name": "maxGasPrice",
          "type": "uint256"
        },
        {
          "indexed": false,
          "internalType": "uint256",
          "name": "usdcDeposit",
          "type": "uint256"
        },
        {
          "indexed": false,
          "internalType": "uint256",
          "name": "callbackDeposit",
          "type": "uint256"
        },
        {
          "indexed": false,
          "internalType": "uint256",
          "name": "startTime",
          "type": "uint256"
        }
      ],
      "name": "JobRelayed",
      "type": "event"
    },
    {
      "anonymous": false,
      "inputs": [
        {
          "indexed": true,
          "internalType": "uint256",
          "name": "jobId",
          "type": "uint256"
        },
        {
          "indexed": false,
          "internalType": "bytes",
          "name": "output",
          "type": "bytes"
        },
        {
          "indexed": false,
          "internalType": "uint256",
          "name": "totalTime",
          "type": "uint256"
        },
        {
          "indexed": false,
          "internalType": "uint256",
          "name": "errorCode",
          "type": "uint256"
        },
        {
          "indexed": false,
          "internalType": "bool",
          "name": "success",
          "type": "bool"
        }
      ],
      "name": "JobResponded",
      "type": "event"
    },
    {
      "anonymous": false,
      "inputs": [
        {
          "indexed": true,
          "internalType": "bytes32",
          "name": "role",
          "type": "bytes32"
        },
        {
          "indexed": true,
          "internalType": "bytes32",
          "name": "previousAdminRole",
          "type": "bytes32"
        },
        {
          "indexed": true,
          "internalType": "bytes32",
          "name": "newAdminRole",
          "type": "bytes32"
        }
      ],
      "name": "RoleAdminChanged",
      "type": "event"
    },
    {
      "anonymous": false,
      "inputs": [
        {
          "indexed": true,
          "internalType": "bytes32",
          "name": "role",
          "type": "bytes32"
        },
        {
          "indexed": true,
          "internalType": "address",
          "name": "account",
          "type": "address"
        },
        {
          "indexed": true,
          "internalType": "address",
          "name": "sender",
          "type": "address"
        }
      ],
      "name": "RoleGranted",
      "type": "event"
    },
    {
      "anonymous": false,
      "inputs": [
        {
          "indexed": true,
          "internalType": "bytes32",
          "name": "role",
          "type": "bytes32"
        },
        {
          "indexed": true,
          "internalType": "address",
          "name": "account",
          "type": "address"
        },
        {
          "indexed": true,
          "internalType": "address",
          "name": "sender",
          "type": "address"
        }
      ],
      "name": "RoleRevoked",
      "type": "event"
    },
    {
      "anonymous": false,
      "inputs": [
        {
          "indexed": true,
          "internalType": "address",
          "name": "implementation",
          "type": "address"
        }
      ],
      "name": "Upgraded",
      "type": "event"
    },
    {
      "inputs": [],
      "name": "ATTESTATION_MAX_AGE",
      "outputs": [
        {
          "internalType": "uint256",
          "name": "",
          "type": "uint256"
        }
      ],
      "stateMutability": "view",
      "type": "function"
    },
    {
      "inputs": [],
      "name": "ATTESTATION_VERIFIER",
      "outputs": [
        {
          "internalType": "contract IAttestationVerifier",
          "name": "",
          "type": "address"
        }
      ],
      "stateMutability": "view",
      "type": "function"
    },
    {
      "inputs": [],
      "name": "DEFAULT_ADMIN_ROLE",
      "outputs": [
        {
          "internalType": "bytes32",
          "name": "",
          "type": "bytes32"
        }
      ],
      "stateMutability": "view",
      "type": "function"
    },
    {
      "inputs": [],
      "name": "GLOBAL_MAX_TIMEOUT",
      "outputs": [
        {
          "internalType": "uint256",
          "name": "",
          "type": "uint256"
        }
      ],
      "stateMutability": "view",
      "type": "function"
    },
    {
      "inputs": [],
      "name": "GLOBAL_MIN_TIMEOUT",
      "outputs": [
        {
          "internalType": "uint256",
          "name": "",
          "type": "uint256"
        }
      ],
      "stateMutability": "view",
      "type": "function"
    },
    {
      "inputs": [],
      "name": "OVERALL_TIMEOUT",
      "outputs": [
        {
          "internalType": "uint256",
          "name": "",
          "type": "uint256"
        }
      ],
      "stateMutability": "view",
      "type": "function"
    },
    {
      "inputs": [],
      "name": "TOKEN",
      "outputs": [
        {
          "internalType": "contract IERC20",
          "name": "",
          "type": "address"
        }
      ],
      "stateMutability": "view",
      "type": "function"
    },
    {
      "inputs": [],
      "name": "UPGRADE_INTERFACE_VERSION",
      "outputs": [
        {
          "internalType": "string",
          "name": "",
          "type": "string"
        }
      ],
      "stateMutability": "view",
      "type": "function"
    },
    {
      "inputs": [
        {
          "internalType": "address",
          "name": "_admin",
          "type": "address"
        },
        {
          "components": [
            {
              "internalType": "bytes",
              "name": "PCR0",
              "type": "bytes"
            },
            {
              "internalType": "bytes",
              "name": "PCR1",
              "type": "bytes"
            },
            {
              "internalType": "bytes",
              "name": "PCR2",
              "type": "bytes"
            }
          ],
          "internalType": "struct AttestationAutherUpgradeable.EnclaveImage[]",
          "name": "_images",
          "type": "tuple[]"
        }
      ],
      "name": "__RequestChainContract_init",
      "outputs": [],
      "stateMutability": "nonpayable",
      "type": "function"
    },
    {
      "inputs": [
        {
          "internalType": "bytes",
          "name": "_enclavePubKey",
          "type": "bytes"
        }
      ],
      "name": "deregisterGateway",
      "outputs": [],
      "stateMutability": "nonpayable",
      "type": "function"
    },
    {
      "inputs": [
        {
          "internalType": "address",
          "name": "",
          "type": "address"
        }
      ],
      "name": "gatewayOperators",
      "outputs": [
        {
          "internalType": "address",
          "name": "",
          "type": "address"
        }
      ],
      "stateMutability": "view",
      "type": "function"
    },
    {
      "inputs": [
        {
          "internalType": "bytes32",
          "name": "role",
          "type": "bytes32"
        }
      ],
      "name": "getRoleAdmin",
      "outputs": [
        {
          "internalType": "bytes32",
          "name": "",
          "type": "bytes32"
        }
      ],
      "stateMutability": "view",
      "type": "function"
    },
    {
      "inputs": [
        {
          "internalType": "bytes32",
          "name": "role",
          "type": "bytes32"
        },
        {
          "internalType": "uint256",
          "name": "index",
          "type": "uint256"
        }
      ],
      "name": "getRoleMember",
      "outputs": [
        {
          "internalType": "address",
          "name": "",
          "type": "address"
        }
      ],
      "stateMutability": "view",
      "type": "function"
    },
    {
      "inputs": [
        {
          "internalType": "bytes32",
          "name": "role",
          "type": "bytes32"
        }
      ],
      "name": "getRoleMemberCount",
      "outputs": [
        {
          "internalType": "uint256",
          "name": "",
          "type": "uint256"
        }
      ],
      "stateMutability": "view",
      "type": "function"
    },
    {
      "inputs": [
        {
          "internalType": "address",
          "name": "_key",
          "type": "address"
        }
      ],
      "name": "getVerifiedKey",
      "outputs": [
        {
          "internalType": "bytes32",
          "name": "",
          "type": "bytes32"
        }
      ],
      "stateMutability": "view",
      "type": "function"
    },
    {
      "inputs": [
        {
          "internalType": "bytes32",
          "name": "_imageId",
          "type": "bytes32"
        }
      ],
      "name": "getWhitelistedImage",
      "outputs": [
        {
          "components": [
            {
              "internalType": "bytes",
              "name": "PCR0",
              "type": "bytes"
            },
            {
              "internalType": "bytes",
              "name": "PCR1",
              "type": "bytes"
            },
            {
              "internalType": "bytes",
              "name": "PCR2",
              "type": "bytes"
            }
          ],
          "internalType": "struct AttestationAutherUpgradeable.EnclaveImage",
          "name": "",
          "type": "tuple"
        }
      ],
      "stateMutability": "view",
      "type": "function"
    },
    {
      "inputs": [
        {
          "internalType": "bytes32",
          "name": "role",
          "type": "bytes32"
        },
        {
          "internalType": "address",
          "name": "account",
          "type": "address"
        }
      ],
      "name": "grantRole",
      "outputs": [],
      "stateMutability": "nonpayable",
      "type": "function"
    },
    {
      "inputs": [
        {
          "internalType": "bytes32",
          "name": "role",
          "type": "bytes32"
        },
        {
          "internalType": "address",
          "name": "account",
          "type": "address"
        }
      ],
      "name": "hasRole",
      "outputs": [
        {
          "internalType": "bool",
          "name": "",
          "type": "bool"
        }
      ],
      "stateMutability": "view",
      "type": "function"
    },
    {
      "inputs": [
        {
          "internalType": "bytes32",
          "name": "imageId",
          "type": "bytes32"
        },
        {
          "internalType": "bytes32",
          "name": "family",
          "type": "bytes32"
        }
      ],
      "name": "isImageInFamily",
      "outputs": [
        {
          "internalType": "bool",
          "name": "",
          "type": "bool"
        }
      ],
      "stateMutability": "view",
      "type": "function"
    },
    {
      "inputs": [
        {
          "internalType": "uint256",
          "name": "_jobId",
          "type": "uint256"
        }
      ],
      "name": "jobCancel",
      "outputs": [],
      "stateMutability": "nonpayable",
      "type": "function"
    },
    {
      "inputs": [],
      "name": "jobCount",
      "outputs": [
        {
          "internalType": "uint256",
          "name": "",
          "type": "uint256"
        }
      ],
      "stateMutability": "view",
      "type": "function"
    },
    {
      "inputs": [
        {
          "internalType": "bytes",
          "name": "_signature",
          "type": "bytes"
        },
        {
          "internalType": "uint256",
          "name": "_jobId",
          "type": "uint256"
        },
        {
          "internalType": "bytes",
          "name": "_output",
          "type": "bytes"
        },
        {
          "internalType": "uint256",
          "name": "_totalTime",
          "type": "uint256"
        },
        {
          "internalType": "uint8",
          "name": "_errorCode",
          "type": "uint8"
        }
      ],
      "name": "jobResponse",
      "outputs": [],
      "stateMutability": "nonpayable",
      "type": "function"
    },
    {
      "inputs": [
        {
          "internalType": "uint256",
          "name": "",
          "type": "uint256"
        }
      ],
      "name": "jobs",
      "outputs": [
        {
          "internalType": "bytes32",
          "name": "codehash",
          "type": "bytes32"
        },
        {
          "internalType": "uint256",
          "name": "userTimeout",
          "type": "uint256"
        },
        {
          "internalType": "uint256",
          "name": "startTime",
          "type": "uint256"
        },
        {
          "internalType": "uint256",
          "name": "maxGasPrice",
          "type": "uint256"
        },
        {
          "internalType": "uint256",
          "name": "usdcDeposit",
          "type": "uint256"
        },
        {
          "internalType": "uint256",
          "name": "callbackDeposit",
          "type": "uint256"
        },
        {
          "internalType": "bytes",
          "name": "codeInputs",
          "type": "bytes"
        },
        {
          "internalType": "address",
          "name": "jobOwner",
          "type": "address"
        },
        {
          "internalType": "bool",
          "name": "receivedOutput",
          "type": "bool"
        }
      ],
      "stateMutability": "view",
      "type": "function"
    },
    {
      "inputs": [],
      "name": "proxiableUUID",
      "outputs": [
        {
          "internalType": "bytes32",
          "name": "",
          "type": "bytes32"
        }
      ],
      "stateMutability": "view",
      "type": "function"
    },
    {
      "inputs": [
        {
          "internalType": "bytes",
          "name": "_attestation",
          "type": "bytes"
        },
        {
          "internalType": "bytes",
          "name": "_enclavePubKey",
          "type": "bytes"
        },
        {
          "internalType": "bytes",
          "name": "_PCR0",
          "type": "bytes"
        },
        {
          "internalType": "bytes",
          "name": "_PCR1",
          "type": "bytes"
        },
        {
          "internalType": "bytes",
          "name": "_PCR2",
          "type": "bytes"
        },
        {
          "internalType": "uint256",
          "name": "_timestampInMilliseconds",
          "type": "uint256"
        }
      ],
      "name": "registerGateway",
      "outputs": [],
      "stateMutability": "nonpayable",
      "type": "function"
    },
    {
      "inputs": [
        {
          "internalType": "bytes32",
          "name": "_codehash",
          "type": "bytes32"
        },
        {
          "internalType": "bytes",
          "name": "_codeInputs",
          "type": "bytes"
        },
        {
          "internalType": "uint256",
          "name": "_userTimeout",
          "type": "uint256"
        },
        {
          "internalType": "uint256",
          "name": "_maxGasPrice",
          "type": "uint256"
        },
        {
          "internalType": "uint256",
          "name": "_usdcDeposit",
          "type": "uint256"
        },
        {
          "internalType": "uint256",
          "name": "_callbackDeposit",
          "type": "uint256"
        }
      ],
      "name": "relayJob",
      "outputs": [],
      "stateMutability": "nonpayable",
      "type": "function"
    },
    {
      "inputs": [
        {
          "internalType": "bytes32",
          "name": "role",
          "type": "bytes32"
        },
        {
          "internalType": "address",
          "name": "callerConfirmation",
          "type": "address"
        }
      ],
      "name": "renounceRole",
      "outputs": [],
      "stateMutability": "nonpayable",
      "type": "function"
    },
    {
      "inputs": [
        {
          "internalType": "bytes32",
          "name": "role",
          "type": "bytes32"
        },
        {
          "internalType": "address",
          "name": "account",
          "type": "address"
        }
      ],
      "name": "revokeRole",
      "outputs": [],
      "stateMutability": "nonpayable",
      "type": "function"
    },
    {
      "inputs": [
        {
          "internalType": "bytes4",
          "name": "interfaceId",
          "type": "bytes4"
        }
      ],
      "name": "supportsInterface",
      "outputs": [
        {
          "internalType": "bool",
          "name": "",
          "type": "bool"
        }
      ],
      "stateMutability": "view",
      "type": "function"
    },
    {
      "inputs": [
        {
          "internalType": "address",
          "name": "newImplementation",
          "type": "address"
        },
        {
          "internalType": "bytes",
          "name": "data",
          "type": "bytes"
        }
      ],
      "name": "upgradeToAndCall",
      "outputs": [],
      "stateMutability": "payable",
      "type": "function"
    },
    {
      "inputs": [
        {
          "internalType": "bytes",
          "name": "signature",
          "type": "bytes"
        },
        {
          "components": [
            {
              "internalType": "bytes",
              "name": "enclavePubKey",
              "type": "bytes"
            },
            {
              "internalType": "bytes",
              "name": "PCR0",
              "type": "bytes"
            },
            {
              "internalType": "bytes",
              "name": "PCR1",
              "type": "bytes"
            },
            {
              "internalType": "bytes",
              "name": "PCR2",
              "type": "bytes"
            },
            {
              "internalType": "uint256",
              "name": "timestampInMilliseconds",
              "type": "uint256"
            }
          ],
          "internalType": "struct IAttestationVerifier.Attestation",
          "name": "attestation",
          "type": "tuple"
        }
      ],
      "name": "verifyEnclaveKey",
      "outputs": [
        {
          "internalType": "bool",
          "name": "",
          "type": "bool"
        }
      ],
      "stateMutability": "nonpayable",
      "type": "function"
    }
  ],
  "bytecode": "0x6101606040523060c05234801561001557600080fd5b50604051613e60380380613e608339810160408190526100349161022d565b6001600160a01b03861660805260a08590527ff0c57e16840df040f15088dc2f81fe391c3923bec73e23a9662efc9c229c6a00805468010000000000000000810460ff1615906001600160401b03166000811580156100905750825b90506000826001600160401b031660011480156100ac5750303b155b9050811580156100ba575080155b156100d85760405163f92ee8a960e01b815260040160405180910390fd5b84546001600160401b0319166001178555831561010657845460ff60401b1916680100000000000000001785555b6001600160a01b0389166101515760405162461bcd60e51b815260206004820152600d60248201526c24a72b20a624a22faa27a5a2a760991b60448201526064015b60405180910390fd5b6001600160a01b03891660e0528688106101ad5760405162461bcd60e51b815260206004820152601760248201527f494e56414c49445f474c4f42414c5f54494d454f5554530000000000000000006044820152606401610148565b610100889052610120879052610140869052831561020557845460ff60401b19168555604051600181527fc7f505b2f371ae2175ee4913f4499e1f2633a7b5936321eed1cdaeb6115181d29060200160405180910390a15b505050505050505050505061028c565b6001600160a01b038116811461022a57600080fd5b50565b60008060008060008060c0878903121561024657600080fd5b865161025181610215565b60208801516040890151919750955061026981610215565b80945050606087015192506080870151915060a087015190509295509295509295565b60805160a05160c05160e051610100516101205161014051613b4261031e6000396000818161044b01528181610f4c01526115de01526000818161071c01526107c00152600081816102dd015261079601526000610518015260008181611b6f01528181611b980152611dd80152600081816105e90152611eea0152600081816106a80152611f880152613b426000f3fe6080604052600436106101d75760003560e01c80636b5b21a611610102578063ad3cb1cc11610095578063e0aba60a11610064578063e0aba60a146106ea578063e29fcdc51461070a578063f398cc741461073e578063ff9334241461075e57600080fd5b8063ad3cb1cc14610620578063ca15c87314610676578063cd79f90614610696578063d547741f146106ca57600080fd5b80639010d07c116100d15780639010d07c1461055257806391d14854146105725780639aec990e146105d7578063a217fddf1461060b57600080fd5b80636b5b21a61461046d57806375847b84146104c6578063785a1717146104e657806382bfefc81461050657600080fd5b80632f2ff15d1161017a5780634db9394b116101495780634db9394b146103f15780634f1ef2861461041157806352d1902d1461042457806358a14ad21461043957600080fd5b80632f2ff15d1461037b57806336568abe1461039b57806345cceaac146103bb5780634c5d8a0f146103db57600080fd5b8063180aedf3116101b6578063180aedf3146102965780631e3708df146102cb5780632410f6ba146102ff578063248a9ca31461032c57600080fd5b8062292ea3146101dc57806301d58fa3146101fe57806301ffc9a714610266575b600080fd5b3480156101e857600080fd5b506101fc6101f7366004612f16565b610794565b005b34801561020a57600080fd5b50610253610219366004612f9c565b6001600160a01b031660009081527fc17b4b708b6f44255c20913a9d97a05300b670342c71fe5ae5b617bd4db55001602052604090205490565b6040519081526020015b60405180910390f35b34801561027257600080fd5b50610286610281366004612fb7565b6109c6565b604051901515815260200161025d565b3480156102a257600080fd5b506102b66102b1366004612ff9565b6109d7565b60405161025d99989796959493929190613062565b3480156102d757600080fd5b506102537f000000000000000000000000000000000000000000000000000000000000000081565b34801561030b57600080fd5b5061031f61031a366004612ff9565b610ace565b60405161025d91906130c2565b34801561033857600080fd5b50610253610347366004612ff9565b60009081527f02dd7bc7dec4dceedda775e58dd541e08a116c6c53815c0bd028192f7b626800602052604090206001015490565b34801561038757600080fd5b506101fc61039636600461311a565b610cec565b3480156103a757600080fd5b506101fc6103b636600461311a565b610d36565b3480156103c757600080fd5b506101fc6103d6366004613146565b610d87565b3480156103e757600080fd5b5061025360025481565b3480156103fd57600080fd5b506101fc61040c36600461329e565b610f34565b6101fc61041f366004613330565b6110c7565b34801561043057600080fd5b506102536110e6565b34801561044557600080fd5b506102537f000000000000000000000000000000000000000000000000000000000000000081565b34801561047957600080fd5b5061028661048836600461337e565b60009081527fc17b4b708b6f44255c20913a9d97a05300b670342c71fe5ae5b617bd4db5500260209081526040808320938352929052205460ff1690565b3480156104d257600080fd5b506102866104e13660046133a0565b611115565b3480156104f257600080fd5b506101fc6105013660046134aa565b611128565b34801561051257600080fd5b5061053a7f000000000000000000000000000000000000000000000000000000000000000081565b6040516001600160a01b03909116815260200161025d565b34801561055e57600080fd5b5061053a61056d36600461337e565b61125e565b34801561057e57600080fd5b5061028661058d36600461311a565b60009182527f02dd7bc7dec4dceedda775e58dd541e08a116c6c53815c0bd028192f7b626800602090815260408084206001600160a01b0393909316845291905290205460ff1690565b3480156105e357600080fd5b506102537f000000000000000000000000000000000000000000000000000000000000000081565b34801561061757600080fd5b50610253600081565b34801561062c57600080fd5b506106696040518060400160405280600581526020017f352e302e3000000000000000000000000000000000000000000000000000000081525081565b60405161025d9190613584565b34801561068257600080fd5b50610253610691366004612ff9565b61129f565b3480156106a257600080fd5b5061053a7f000000000000000000000000000000000000000000000000000000000000000081565b3480156106d657600080fd5b506101fc6106e536600461311a565b6112d7565b3480156106f657600080fd5b506101fc610705366004613597565b61131b565b34801561071657600080fd5b506102537f000000000000000000000000000000000000000000000000000000000000000081565b34801561074a57600080fd5b506101fc610759366004612ff9565b6114ad565b34801561076a57600080fd5b5061053a610779366004612f9c565b6000602081905290815260409020546001600160a01b031681565b7f0000000000000000000000000000000000000000000000000000000000000000841180156107e257507f000000000000000000000000000000000000000000000000000000000000000084105b61084d576040517f08c379a000000000000000000000000000000000000000000000000000000000815260206004820152601460248201527f494e56414c49445f555345525f54494d454f555400000000000000000000000060448201526064015b60405180910390fd5b60405180610120016040528087815260200185815260200142815260200184815260200183815260200182815260200186815260200161088a3390565b6001600160a01b0316815260200160001515815250600160006002600081546108b2906135fb565b918290555081526020808201929092526040908101600020835181559183015160018301558201516002820155606082015160038201556080820151600482015560a0820151600582015560c0820151600682019061091190826136d6565b5060e08201516007909101805461010090930151151574010000000000000000000000000000000000000000027fffffffffffffffffffffff0000000000000000000000000000000000000000009093166001600160a01b03909216919091179190911790556002546040517f9b4bc5e4e58f6cfa2f901b02bfe1fc6914f7fc1061cd9e2019bf5dd28058068f906109b69089908990899089908990899042906137d2565b60405180910390a2505050505050565b60006109d182611707565b92915050565b6001602052806000526040600020600091509050806000015490806001015490806002015490806003015490806004015490806005015490806006018054610a1e90613633565b80601f0160208091040260200160405190810160405280929190818152602001828054610a4a90613633565b8015610a975780601f10610a6c57610100808354040283529160200191610a97565b820191906000526020600020905b815481529060010190602001808311610a7a57829003601f168201915b505050600790930154919250506001600160a01b0381169060ff740100000000000000000000000000000000000000009091041689565b610af260405180606001604052806060815260200160608152602001606081525090565b60008281527fc17b4b708b6f44255c20913a9d97a05300b670342c71fe5ae5b617bd4db550006020819052604091829020825160608101909352805491929182908290610b3e90613633565b80601f0160208091040260200160405190810160405280929190818152602001828054610b6a90613633565b8015610bb75780601f10610b8c57610100808354040283529160200191610bb7565b820191906000526020600020905b815481529060010190602001808311610b9a57829003601f168201915b50505050508152602001600182018054610bd090613633565b80601f0160208091040260200160405190810160405280929190818152602001828054610bfc90613633565b8015610c495780601f10610c1e57610100808354040283529160200191610c49565b820191906000526020600020905b815481529060010190602001808311610c2c57829003601f168201915b50505050508152602001600282018054610c6290613633565b80601f0160208091040260200160405190810160405280929190818152602001828054610c8e90613633565b8015610cdb5780601f10610cb057610100808354040283529160200191610cdb565b820191906000526020600020905b815481529060010190602001808311610cbe57829003601f168201915b505050505081525050915050919050565b60008281527f02dd7bc7dec4dceedda775e58dd541e08a116c6c53815c0bd028192f7b6268006020526040902060010154610d268161175d565b610d30838361176a565b50505050565b6001600160a01b0381163314610d78576040517f6697b23200000000000000000000000000000000000000000000000000000000815260040160405180910390fd5b610d828282611776565b505050565b7ff0c57e16840df040f15088dc2f81fe391c3923bec73e23a9662efc9c229c6a00805468010000000000000000810460ff16159067ffffffffffffffff16600081158015610dd25750825b905060008267ffffffffffffffff166001148015610def5750303b155b905081158015610dfd575080155b15610e34576040517ff92ee8a900000000000000000000000000000000000000000000000000000000815260040160405180910390fd5b84547fffffffffffffffffffffffffffffffffffffffffffffffff00000000000000001660011785558315610e955784547fffffffffffffffffffffffffffffffffffffffffffffff00ffffffffffffffff16680100000000000000001785555b610e9d6117f8565b610ea56117f8565b610ead6117f8565b610eb686611802565b610ebe6117f8565b610ec960008861176a565b508315610f2b5784547fffffffffffffffffffffffffffffffffffffffffffffff00ffffffffffffffff168555604051600181527fc7f505b2f371ae2175ee4913f4499e1f2633a7b5936321eed1cdaeb6115181d29060200160405180910390a15b50505050505050565b600084815260016020526040902060020154610f71907f000000000000000000000000000000000000000000000000000000000000000090613815565b421115610fda576040517f08c379a000000000000000000000000000000000000000000000000000000000815260206004820152601460248201527f4f564552414c4c5f54494d454f55545f4f5645520000000000000000000000006044820152606401610844565b600084848484604051602001610ff39493929190613828565b60408051601f198184030181529190528051602090910120905060006110198288611842565b90506110248161186c565b600086815260016020526040812060070180547fffffffffffffffffffffff00ffffffffffffffffffffffffffffffffffffffff167401000000000000000000000000000000000000000017905561107d878786611951565b9050867f3bcf275077501f1077e75b4e70896bf241dc8cbeec71823201ef711cfc454ea1878787856040516110b59493929190613882565b60405180910390a25050505050505050565b6110cf611b64565b6110d882611c34565b6110e28282611ccc565b5050565b60006110f0611dcd565b507f360894a13ba1a3210667c828492db98dca3e2076cc3735a920a3ca505d382bbc90565b60006111218383611e2f565b9392505050565b611158866040518060a0016040528088815260200187815260200186815260200185815260200184815250611e2f565b50600061116486612097565b6001600160a01b0380821660009081526020819052604090205491925016156111e9576040517f08c379a000000000000000000000000000000000000000000000000000000000815260206004820152601660248201527f474154455741595f414c52454144595f455849535453000000000000000000006044820152606401610844565b6001600160a01b03811660008181526020819052604080822080547fffffffffffffffffffffffff0000000000000000000000000000000000000000163390811790915590519092917f95f86f0783d4494f76a6aeaa178c399f2c6a140aa3e88d39f056b00f460d359a91a350505050505050565b60008281527fc1f6fe24621ce81ec5827caf0253cadb74709b061630e6b55e8237170593200060208190526040822061129790846120e0565b949350505050565b60008181527fc1f6fe24621ce81ec5827caf0253cadb74709b061630e6b55e82371705932000602081905260408220611121906120ec565b60008281527f02dd7bc7dec4dceedda775e58dd541e08a116c6c53815c0bd028192f7b62680060205260409020600101546113118161175d565b610d308383611776565b600061132682612097565b6001600160a01b038082166000908152602081905260409020549192501633146113ac576040517f08c379a000000000000000000000000000000000000000000000000000000000815260206004820152601560248201527f4f4e4c595f474154455741595f4f50455241544f5200000000000000000000006044820152606401610844565b6001600160a01b038181166000908152602081905260409020541661142d576040517f08c379a000000000000000000000000000000000000000000000000000000000815260206004820152601360248201527f494e56414c49445f454e434c4156455f4b4559000000000000000000000000006044820152606401610844565b6001600160a01b038116600090815260208190526040902080547fffffffffffffffffffffffff0000000000000000000000000000000000000000169055611474826120f6565b506040516001600160a01b038216907f962f6082057b3b4fb251973bd737c7707bf1733cf85a0b7c86fd6c3caca260c590600090a25050565b60008181526001602052604090206007015481906001600160a01b03163314611532576040517f08c379a000000000000000000000000000000000000000000000000000000000815260206004820152600d60248201527f4e4f545f4a4f425f4f574e4552000000000000000000000000000000000000006044820152606401610844565b60008281526001602052604090206007015474010000000000000000000000000000000000000000900460ff16156115c6576040517f08c379a000000000000000000000000000000000000000000000000000000000815260206004820152601b60248201527f4a4f425f4f55545055545f414c52454144595f524543454956454400000000006044820152606401610844565b600082815260016020526040902060020154611603907f000000000000000000000000000000000000000000000000000000000000000090613815565b421161166b576040517f08c379a000000000000000000000000000000000000000000000000000000000815260206004820152601860248201527f4f564552414c4c5f54494d454f55545f4e4f545f4f56455200000000000000006044820152606401610844565b6000828152600160208190526040822082815590810182905560028101829055600381018290556004810182905560058101829055906116ae6006830182612dac565b5060070180547fffffffffffffffffffffff00000000000000000000000000000000000000000016905560405182907f58243f872c550ad02802199ade99eb4250f6bb19e9abbf2d3de7b969c0eb5e4f90600090a25050565b60007fffffffff0000000000000000000000000000000000000000000000000000000082167f5a05180f0000000000000000000000000000000000000000000000000000000014806109d157506109d182612161565b61176781336121f8565b50565b60006111218383612285565b60008061178384846122dc565b905061178f600061129f565b600003611121576040517f08c379a000000000000000000000000000000000000000000000000000000000815260206004820181905260248201527f41563a52522d416c6c2061646d696e732063616e742062652072656d6f7665646044820152606401610844565b61180061232a565b565b61180a61232a565b60005b81518110156110e25761183882828151811061182b5761182b6138b6565b6020026020010151612391565b505060010161180d565b6000806000806118528686612539565b9250925092506118628282612586565b5090949350505050565b6001600160a01b03811660009081527fc17b4b708b6f44255c20913a9d97a05300b670342c71fe5ae5b617bd4db5500160205260409020547fc17b4b708b6f44255c20913a9d97a05300b670342c71fe5ae5b617bd4db5500090806118fd576040517f3dd8ca9500000000000000000000000000000000000000000000000000000000815260040160405180910390fd5b6000818152602083905260409020805461191690613633565b9050600003610d82576040517f38c4ac1600000000000000000000000000000000000000000000000000000000815260040160405180910390fd5b60008060016000868152602001908152602001600020604051806101200160405290816000820154815260200160018201548152602001600282015481526020016003820154815260200160048201548152602001600582015481526020016006820180546119bf90613633565b80601f01602080910402602001604051908101604052809291908181526020018280546119eb90613633565b8015611a385780601f10611a0d57610100808354040283529160200191611a38565b820191906000526020600020905b815481529060010190602001808311611a1b57829003601f168201915b5050509183525050600791909101546001600160a01b0380821660208401527401000000000000000000000000000000000000000090910460ff16151560409092019190915260e082015160a0830151929350600092911690611a9c903a906138e5565b878787604051602401611ab193929190613920565b60408051601f198184030181529181526020820180517bffffffffffffffffffffffffffffffffffffffffffffffffffffffff167f5d4b82380000000000000000000000000000000000000000000000000000000017905251611b14919061394c565b60006040518083038160008787f1925050503d8060008114611b52576040519150601f19603f3d011682016040523d82523d6000602084013e611b57565b606091505b5090979650505050505050565b306001600160a01b037f0000000000000000000000000000000000000000000000000000000000000000161480611bfd57507f00000000000000000000000000000000000000000000000000000000000000006001600160a01b0316611bf17f360894a13ba1a3210667c828492db98dca3e2076cc3735a920a3ca505d382bbc546001600160a01b031690565b6001600160a01b031614155b15611800576040517fe07c8dba00000000000000000000000000000000000000000000000000000000815260040160405180910390fd5b3360009081527fb7db2dd08fcb62d0c9e08c51941cae53c267786a0b75803fb7960902fc8ef97d602052604090205460ff16611767576040517f08c379a000000000000000000000000000000000000000000000000000000000815260206004820152600a60248201527f6f6e6c792061646d696e000000000000000000000000000000000000000000006044820152606401610844565b816001600160a01b03166352d1902d6040518163ffffffff1660e01b8152600401602060405180830381865afa925050508015611d26575060408051601f3d908101601f19168201909252611d2391810190613968565b60015b611d67576040517f4c9c8ce30000000000000000000000000000000000000000000000000000000081526001600160a01b0383166004820152602401610844565b7f360894a13ba1a3210667c828492db98dca3e2076cc3735a920a3ca505d382bbc8114611dc3576040517faa1d49a400000000000000000000000000000000000000000000000000000000815260048101829052602401610844565b610d82838361268a565b306001600160a01b037f00000000000000000000000000000000000000000000000000000000000000001614611800576040517fe07c8dba00000000000000000000000000000000000000000000000000000000815260040160405180910390fd5b6000807fc17b4b708b6f44255c20913a9d97a05300b670342c71fe5ae5b617bd4db5500090506000836020015184604001518560600151604051602001611e7893929190613981565b60408051601f1981840301815291815281516020928301206000818152928590529120805491925090611eaa90613633565b9050600003611ee5576040517f38c4ac1600000000000000000000000000000000000000000000000000000000815260040160405180910390fd5b611f0f7f0000000000000000000000000000000000000000000000000000000000000000426139c4565b6103e88560800151611f2191906138e5565b11611f58576040517f19605e0a00000000000000000000000000000000000000000000000000000000815260040160405180910390fd5b6040517feac708a30000000000000000000000000000000000000000000000000000000081526001600160a01b037f0000000000000000000000000000000000000000000000000000000000000000169063eac708a390611fbf90889088906004016139d7565b60006040518083038186803b158015611fd757600080fd5b505afa158015611feb573d6000803e3d6000fd5b505050506000611ffe8560000151612097565b6001600160a01b03811660009081526001850160205260409020549091501561202d57600093505050506109d1565b6001600160a01b03811660009081526001840160205260409081902083905585519051839161205b9161394c565b604051908190038120907ff4837f1a66a1e5fbde2c40d0f6eff75183139e79b0fc1eaab280a3a0be38e7b190600090a350600195945050505050565b600081516040146120d4576040517fbd9c80c100000000000000000000000000000000000000000000000000000000815260040160405180910390fd5b50805160209091012090565b600061112183836126e0565b60006109d1825490565b60008061210283612097565b905061210d8161270a565b61211a5750600092915050565b82604051612128919061394c565b604051908190038120907ff910fd78b98e9574e8b6f0e42bc3a996a6aba3776ec20b9d85515bd74a6c8fe990600090a250600192915050565b60007fffffffff0000000000000000000000000000000000000000000000000000000082167f7965db0b0000000000000000000000000000000000000000000000000000000014806109d157507f01ffc9a7000000000000000000000000000000000000000000000000000000007fffffffff000000000000000000000000000000000000000000000000000000008316146109d1565b60008281527f02dd7bc7dec4dceedda775e58dd541e08a116c6c53815c0bd028192f7b626800602090815260408083206001600160a01b038516845290915290205460ff166110e2576040517fe2517d3f0000000000000000000000000000000000000000000000000000000081526001600160a01b038216600482015260248101839052604401610844565b60007fc1f6fe24621ce81ec5827caf0253cadb74709b061630e6b55e82371705932000816122b385856127bd565b905080156112975760008581526020839052604090206122d390856128aa565b50949350505050565b60007fc1f6fe24621ce81ec5827caf0253cadb74709b061630e6b55e823717059320008161230a85856128bf565b905080156112975760008581526020839052604090206122d39085612983565b7ff0c57e16840df040f15088dc2f81fe391c3923bec73e23a9662efc9c229c6a005468010000000000000000900460ff16611800576040517fd7e6bcf800000000000000000000000000000000000000000000000000000000815260040160405180910390fd5b80515160009081907fc17b4b708b6f44255c20913a9d97a05300b670342c71fe5ae5b617bd4db550009060301480156123cf57508360200151516030145b80156123e057508360400151516030145b612416576040517f84c61bb600000000000000000000000000000000000000000000000000000000815260040160405180910390fd5b600084600001518560200151866040015160405160200161243993929190613981565b60408051601f198184030181529181528151602092830120600081815292859052912080549192509061246b90613633565b15905061247d57946000945092505050565b604080516060810182528651815260208088015181830152878301518284015260008481529085905291909120815181906124b890826136d6565b50602082015160018201906124cd90826136d6565b50604082015160028201906124e290826136d6565b50905050807f52b29bbdd97ab983419f50fa1590e5ab75e9942279e95e10a08607b06c23238b86600001518760200151886040015160405161252693929190613a6b565b60405180910390a2946001945092505050565b600080600083516041036125735760208401516040850151606086015160001a61256588828585612998565b95509550955050505061257f565b50508151600091506002905b9250925092565b600082600381111561259a5761259a613aae565b036125a3575050565b60018260038111156125b7576125b7613aae565b036125ee576040517ff645eedf00000000000000000000000000000000000000000000000000000000815260040160405180910390fd5b600282600381111561260257612602613aae565b0361263c576040517ffce698f700000000000000000000000000000000000000000000000000000000815260048101829052602401610844565b600382600381111561265057612650613aae565b036110e2576040517fd78bce0c00000000000000000000000000000000000000000000000000000000815260048101829052602401610844565b61269382612a67565b6040516001600160a01b038316907fbc7cd75a20ee27fd9adebab32041f755214dbc6bffa90cc0225b39da2e5c2d3b90600090a28051156126d857610d828282612b0f565b6110e2612b85565b60008260000182815481106126f7576126f76138b6565b9060005260206000200154905092915050565b6001600160a01b03811660009081527fc17b4b708b6f44255c20913a9d97a05300b670342c71fe5ae5b617bd4db5500160205260408120547fc17b4b708b6f44255c20913a9d97a05300b670342c71fe5ae5b617bd4db55000906127715750600092915050565b6001600160a01b0383166000818152600183016020526040808220829055517f43c77bddb18405fd78819d1d0a8a4e38d3ebc4c6fae9f7ec04ae0c0f7527b5079190a250600192915050565b60008281527f02dd7bc7dec4dceedda775e58dd541e08a116c6c53815c0bd028192f7b626800602081815260408084206001600160a01b038616855290915282205460ff166128a0576000848152602082815260408083206001600160a01b0387168452909152902080547fffffffffffffffffffffffffffffffffffffffffffffffffffffffffffffff001660011790556128563390565b6001600160a01b0316836001600160a01b0316857f2f8788117e7eff1d82e926ec794901d17c78024a50270940304540a733656f0d60405160405180910390a460019150506109d1565b60009150506109d1565b6000611121836001600160a01b038416612bbd565b60008281527f02dd7bc7dec4dceedda775e58dd541e08a116c6c53815c0bd028192f7b626800602081815260408084206001600160a01b038616855290915282205460ff16156128a0576000848152602082815260408083206001600160a01b038716808552925280832080547fffffffffffffffffffffffffffffffffffffffffffffffffffffffffffffff0016905551339287917ff6391f5c32d9c69d2a47ea670b442974b53935d1edc7fd64eb21e047a839171b9190a460019150506109d1565b6000611121836001600160a01b038416612c0c565b600080807f7fffffffffffffffffffffffffffffff5d576e7357a4501ddfe92f46681b20a08411156129d35750600091506003905082612a5d565b604080516000808252602082018084528a905260ff891692820192909252606081018790526080810186905260019060a0016020604051602081039080840390855afa158015612a27573d6000803e3d6000fd5b5050604051601f1901519150506001600160a01b038116612a5357506000925060019150829050612a5d565b9250600091508190505b9450945094915050565b806001600160a01b03163b600003612ab6576040517f4c9c8ce30000000000000000000000000000000000000000000000000000000081526001600160a01b0382166004820152602401610844565b7f360894a13ba1a3210667c828492db98dca3e2076cc3735a920a3ca505d382bbc80547fffffffffffffffffffffffff0000000000000000000000000000000000000000166001600160a01b0392909216919091179055565b6060600080846001600160a01b031684604051612b2c919061394c565b600060405180830381855af49150503d8060008114612b67576040519150601f19603f3d011682016040523d82523d6000602084013e612b6c565b606091505b5091509150612b7c858383612cf5565b95945050505050565b3415611800576040517fb398979f00000000000000000000000000000000000000000000000000000000815260040160405180910390fd5b6000818152600183016020526040812054612c04575081546001818101845560008481526020808220909301849055845484825282860190935260409020919091556109d1565b5060006109d1565b600081815260018301602052604081205480156128a0576000612c306001836139c4565b8554909150600090612c44906001906139c4565b9050808214612ca9576000866000018281548110612c6457612c646138b6565b9060005260206000200154905080876000018481548110612c8757612c876138b6565b6000918252602080832090910192909255918252600188019052604090208390555b8554869080612cba57612cba613add565b6001900381819060005260206000200160009055905585600101600086815260200190815260200160002060009055600193505050506109d1565b606082612d0a57612d0582612d6a565b611121565b8151158015612d2157506001600160a01b0384163b155b15612d63576040517f9996b3150000000000000000000000000000000000000000000000000000000081526001600160a01b0385166004820152602401610844565b5080611121565b805115612d7a5780518082602001fd5b6040517f1425ea4200000000000000000000000000000000000000000000000000000000815260040160405180910390fd5b508054612db890613633565b6000825580601f10612dc8575050565b601f01602090049060005260206000209081019061176791905b80821115612df65760008155600101612de2565b5090565b7f4e487b7100000000000000000000000000000000000000000000000000000000600052604160045260246000fd5b6040516060810167ffffffffffffffff81118282101715612e4c57612e4c612dfa565b60405290565b60405160a0810167ffffffffffffffff81118282101715612e4c57612e4c612dfa565b604051601f8201601f1916810167ffffffffffffffff81118282101715612e9e57612e9e612dfa565b604052919050565b600082601f830112612eb757600080fd5b813567ffffffffffffffff811115612ed157612ed1612dfa565b612ee46020601f19601f84011601612e75565b818152846020838601011115612ef957600080fd5b816020850160208301376000918101602001919091529392505050565b60008060008060008060c08789031215612f2f57600080fd5b86359550602087013567ffffffffffffffff811115612f4d57600080fd5b612f5989828a01612ea6565b96999698505050506040850135946060810135946080820135945060a09091013592509050565b80356001600160a01b0381168114612f9757600080fd5b919050565b600060208284031215612fae57600080fd5b61112182612f80565b600060208284031215612fc957600080fd5b81357fffffffff000000000000000000000000000000000000000000000000000000008116811461112157600080fd5b60006020828403121561300b57600080fd5b5035919050565b60005b8381101561302d578181015183820152602001613015565b50506000910152565b6000815180845261304e816020860160208601613012565b601f01601f19169290920160200192915050565b60006101208b83528a60208401528960408401528860608401528760808401528660a08401528060c084015261309a81840187613036565b6001600160a01b039590951660e0840152505090151561010090910152979650505050505050565b6020815260008251606060208401526130de6080840182613036565b90506020840151601f19808584030160408601526130fc8383613036565b9250604086015191508085840301606086015250612b7c8282613036565b6000806040838503121561312d57600080fd5b8235915061313d60208401612f80565b90509250929050565b6000806040838503121561315957600080fd5b61316283612f80565b915060208084013567ffffffffffffffff8082111561318057600080fd5b818601915086601f83011261319457600080fd5b8135818111156131a6576131a6612dfa565b8060051b6131b5858201612e75565b918252838101850191858101908a8411156131cf57600080fd5b86860192505b8383101561328d578235858111156131ed5760008081fd5b86016060818d03601f19018113156132055760008081fd5b61320d612e29565b898301358881111561321f5760008081fd5b61322d8f8c83870101612ea6565b8252506040830135888111156132435760008081fd5b6132518f8c83870101612ea6565b828c0152509082013590878211156132695760008081fd5b6132778e8b84860101612ea6565b60408201528452505091860191908601906131d5565b809750505050505050509250929050565b600080600080600060a086880312156132b657600080fd5b853567ffffffffffffffff808211156132ce57600080fd5b6132da89838a01612ea6565b96506020880135955060408801359150808211156132f757600080fd5b5061330488828901612ea6565b93505060608601359150608086013560ff8116811461332257600080fd5b809150509295509295909350565b6000806040838503121561334357600080fd5b61334c83612f80565b9150602083013567ffffffffffffffff81111561336857600080fd5b61337485828601612ea6565b9150509250929050565b6000806040838503121561339157600080fd5b50508035926020909101359150565b600080604083850312156133b357600080fd5b823567ffffffffffffffff808211156133cb57600080fd5b6133d786838701612ea6565b935060208501359150808211156133ed57600080fd5b9084019060a0828703121561340157600080fd5b613409612e52565b82358281111561341857600080fd5b61342488828601612ea6565b82525060208301358281111561343957600080fd5b61344588828601612ea6565b60208301525060408301358281111561345d57600080fd5b61346988828601612ea6565b60408301525060608301358281111561348157600080fd5b61348d88828601612ea6565b606083015250608083013560808201528093505050509250929050565b60008060008060008060c087890312156134c357600080fd5b863567ffffffffffffffff808211156134db57600080fd5b6134e78a838b01612ea6565b975060208901359150808211156134fd57600080fd5b6135098a838b01612ea6565b9650604089013591508082111561351f57600080fd5b61352b8a838b01612ea6565b9550606089013591508082111561354157600080fd5b61354d8a838b01612ea6565b9450608089013591508082111561356357600080fd5b5061357089828a01612ea6565b92505060a087013590509295509295509295565b6020815260006111216020830184613036565b6000602082840312156135a957600080fd5b813567ffffffffffffffff8111156135c057600080fd5b61129784828501612ea6565b7f4e487b7100000000000000000000000000000000000000000000000000000000600052601160045260246000fd5b60007fffffffffffffffffffffffffffffffffffffffffffffffffffffffffffffffff820361362c5761362c6135cc565b5060010190565b600181811c9082168061364757607f821691505b602082108103613680577f4e487b7100000000000000000000000000000000000000000000000000000000600052602260045260246000fd5b50919050565b601f821115610d82576000816000526020600020601f850160051c810160208610156136af5750805b601f850160051c820191505b818110156136ce578281556001016136bb565b505050505050565b815167ffffffffffffffff8111156136f0576136f0612dfa565b613704816136fe8454613633565b84613686565b602080601f83116001811461375757600084156137215750858301515b7fffffffffffffffffffffffffffffffffffffffffffffffffffffffffffffffff600386901b1c1916600185901b1785556136ce565b600085815260208120601f198616915b8281101561378657888601518255948401946001909101908401613767565b50858210156137c257878501517fffffffffffffffffffffffffffffffffffffffffffffffffffffffffffffffff600388901b60f8161c191681555b5050505050600190811b01905550565b87815260e0602082015260006137eb60e0830189613036565b6040830197909752506060810194909452608084019290925260a083015260c09091015292915050565b808201808211156109d1576109d16135cc565b84815260008451613840816020850160208901613012565b602092019182019390935260f89190911b7fff000000000000000000000000000000000000000000000000000000000000001660408201526041019392505050565b6080815260006138956080830187613036565b60208301959095525060ff9290921660408301521515606090910152919050565b7f4e487b7100000000000000000000000000000000000000000000000000000000600052603260045260246000fd5b60008261391b577f4e487b7100000000000000000000000000000000000000000000000000000000600052601260045260246000fd5b500490565b8381526060602082015260006139396060830185613036565b905060ff83166040830152949350505050565b6000825161395e818460208701613012565b9190910192915050565b60006020828403121561397a57600080fd5b5051919050565b60008451613993818460208901613012565b8451908301906139a7818360208901613012565b84519101906139ba818360208801613012565b0195945050505050565b818103818111156109d1576109d16135cc565b6040815260006139ea6040830185613036565b8281036020840152835160a08252613a0560a0830182613036565b905060208501518282036020840152613a1e8282613036565b91505060408501518282036040840152613a388282613036565b91505060608501518282036060840152613a528282613036565b9150506080850151608083015280925050509392505050565b606081526000613a7e6060830186613036565b8281036020840152613a908186613036565b90508281036040840152613aa48185613036565b9695505050505050565b7f4e487b7100000000000000000000000000000000000000000000000000000000600052602160045260246000fd5b7f4e487b7100000000000000000000000000000000000000000000000000000000600052603160045260246000fdfea264697066735822122096572b2ec8d8bce0c6fc339a1a89b1376408669b4eafad74904196633c93c3bf64736f6c63430008190033",
  "linkReferences": {},
  "deployedLinkReferences": {}
}