{
  "_format": "hh-sol-artifact-1",
  "contractName": "RequestChainContract",
  "sourceName": "contracts/serverless-v2/RequestChainContract.sol",
  "abi": [
    {
      "inputs": [
        {
          "internalType": "contract IAttestationVerifier",
          "name": "attestationVerifier",
          "type": "address"
        },
        {
          "internalType": "uint256",
          "name": "maxAge",
          "type": "uint256"
        }
      ],
      "stateMutability": "nonpayable",
      "type": "constructor"
    },
    {
      "inputs": [],
      "name": "AccessControlBadConfirmation",
      "type": "error"
    },
    {
      "inputs": [
        {
          "internalType": "address",
          "name": "account",
          "type": "address"
        },
        {
          "internalType": "bytes32",
          "name": "neededRole",
          "type": "bytes32"
        }
      ],
      "name": "AccessControlUnauthorizedAccount",
      "type": "error"
    },
    {
      "inputs": [
        {
          "internalType": "address",
          "name": "target",
          "type": "address"
        }
      ],
      "name": "AddressEmptyCode",
      "type": "error"
    },
    {
      "inputs": [],
      "name": "AttestationAutherAttestationTooOld",
      "type": "error"
    },
    {
      "inputs": [],
      "name": "AttestationAutherImageNotInFamily",
      "type": "error"
    },
    {
      "inputs": [],
      "name": "AttestationAutherImageNotWhitelisted",
      "type": "error"
    },
    {
      "inputs": [],
      "name": "AttestationAutherKeyNotVerified",
      "type": "error"
    },
    {
      "inputs": [],
      "name": "AttestationAutherMismatchedLengths",
      "type": "error"
    },
    {
      "inputs": [],
      "name": "AttestationAutherPCRsInvalid",
      "type": "error"
    },
    {
      "inputs": [],
      "name": "AttestationAutherPubkeyLengthInvalid",
      "type": "error"
    },
    {
      "inputs": [],
      "name": "ECDSAInvalidSignature",
      "type": "error"
    },
    {
      "inputs": [
        {
          "internalType": "uint256",
          "name": "length",
          "type": "uint256"
        }
      ],
      "name": "ECDSAInvalidSignatureLength",
      "type": "error"
    },
    {
      "inputs": [
        {
          "internalType": "bytes32",
          "name": "s",
          "type": "bytes32"
        }
      ],
      "name": "ECDSAInvalidSignatureS",
      "type": "error"
    },
    {
      "inputs": [
        {
          "internalType": "address",
          "name": "implementation",
          "type": "address"
        }
      ],
      "name": "ERC1967InvalidImplementation",
      "type": "error"
    },
    {
      "inputs": [],
      "name": "ERC1967NonPayable",
      "type": "error"
    },
    {
      "inputs": [],
      "name": "FailedInnerCall",
      "type": "error"
    },
    {
      "inputs": [],
      "name": "InvalidInitialization",
      "type": "error"
    },
    {
      "inputs": [],
      "name": "NotInitializing",
      "type": "error"
    },
    {
      "inputs": [],
      "name": "UUPSUnauthorizedCallContext",
      "type": "error"
    },
    {
      "inputs": [
        {
          "internalType": "bytes32",
          "name": "slot",
          "type": "bytes32"
        }
      ],
      "name": "UUPSUnsupportedProxiableUUID",
      "type": "error"
    },
    {
      "anonymous": false,
      "inputs": [
        {
          "indexed": true,
          "internalType": "bytes32",
          "name": "imageId",
          "type": "bytes32"
        },
        {
          "indexed": false,
          "internalType": "bytes32",
          "name": "family",
          "type": "bytes32"
        }
      ],
      "name": "EnclaveImageAddedToFamily",
      "type": "event"
    },
    {
      "anonymous": false,
      "inputs": [
        {
          "indexed": true,
          "internalType": "bytes32",
          "name": "imageId",
          "type": "bytes32"
        },
        {
          "indexed": false,
          "internalType": "bytes32",
          "name": "family",
          "type": "bytes32"
        }
      ],
      "name": "EnclaveImageRemovedFromFamily",
      "type": "event"
    },
    {
      "anonymous": false,
      "inputs": [
        {
          "indexed": true,
          "internalType": "bytes32",
          "name": "imageId",
          "type": "bytes32"
        }
      ],
      "name": "EnclaveImageRevoked",
      "type": "event"
    },
    {
      "anonymous": false,
      "inputs": [
        {
          "indexed": true,
          "internalType": "bytes32",
          "name": "imageId",
          "type": "bytes32"
        },
        {
          "indexed": false,
          "internalType": "bytes",
          "name": "PCR0",
          "type": "bytes"
        },
        {
          "indexed": false,
          "internalType": "bytes",
          "name": "PCR1",
          "type": "bytes"
        },
        {
          "indexed": false,
          "internalType": "bytes",
          "name": "PCR2",
          "type": "bytes"
        }
      ],
      "name": "EnclaveImageWhitelisted",
      "type": "event"
    },
    {
      "anonymous": false,
      "inputs": [
        {
          "indexed": true,
          "internalType": "bytes",
          "name": "enclavePubKey",
          "type": "bytes"
        }
      ],
      "name": "EnclaveKeyRevoked",
      "type": "event"
    },
    {
      "anonymous": false,
      "inputs": [
        {
          "indexed": true,
          "internalType": "address",
          "name": "enclaveKey",
          "type": "address"
        }
      ],
      "name": "EnclaveKeyRevoked2",
      "type": "event"
    },
    {
      "anonymous": false,
      "inputs": [
        {
          "indexed": true,
          "internalType": "bytes",
          "name": "enclavePubKey",
          "type": "bytes"
        },
        {
          "indexed": true,
          "internalType": "bytes32",
          "name": "imageId",
          "type": "bytes32"
        }
      ],
      "name": "EnclaveKeyVerified",
      "type": "event"
    },
    {
      "anonymous": false,
      "inputs": [
        {
          "indexed": true,
          "internalType": "bytes",
          "name": "enclavePubKey",
          "type": "bytes"
        },
        {
          "indexed": true,
          "internalType": "bytes32",
          "name": "imageId",
          "type": "bytes32"
        }
      ],
      "name": "EnclaveKeyWhitelisted",
      "type": "event"
    },
    {
      "anonymous": false,
      "inputs": [
        {
          "indexed": false,
          "internalType": "bytes",
          "name": "enclavePubKey",
          "type": "bytes"
        }
      ],
      "name": "GatewayDeregistered",
      "type": "event"
    },
    {
      "anonymous": false,
      "inputs": [
        {
          "indexed": false,
          "internalType": "bytes",
          "name": "enclavePubKey",
          "type": "bytes"
        },
        {
          "indexed": true,
          "internalType": "address",
          "name": "enclaveAddress",
          "type": "address"
        },
        {
          "indexed": true,
          "internalType": "address",
          "name": "operator",
          "type": "address"
        }
      ],
      "name": "GatewayRegistered",
      "type": "event"
    },
    {
      "anonymous": false,
      "inputs": [
        {
          "indexed": false,
          "internalType": "uint64",
          "name": "version",
          "type": "uint64"
        }
      ],
      "name": "Initialized",
      "type": "event"
    },
    {
      "anonymous": false,
      "inputs": [
        {
          "indexed": true,
          "internalType": "uint256",
          "name": "jobId",
          "type": "uint256"
        }
      ],
      "name": "JobCancelled",
      "type": "event"
    },
    {
      "anonymous": false,
      "inputs": [
        {
          "indexed": true,
          "internalType": "uint256",
          "name": "jobId",
          "type": "uint256"
        },
        {
          "indexed": false,
          "internalType": "bytes32",
          "name": "codehash",
          "type": "bytes32"
        },
        {
          "indexed": false,
          "internalType": "bytes",
          "name": "codeInputs",
          "type": "bytes"
        },
        {
          "indexed": false,
          "internalType": "uint256",
          "name": "userTimeout",
          "type": "uint256"
        },
        {
          "indexed": false,
          "internalType": "uint256",
          "name": "maxGasPrice",
          "type": "uint256"
        },
        {
          "indexed": false,
          "internalType": "uint256",
          "name": "usdcDeposit",
          "type": "uint256"
        },
        {
          "indexed": false,
          "internalType": "uint256",
          "name": "callbackDeposit",
          "type": "uint256"
        },
        {
          "indexed": false,
          "internalType": "uint256",
          "name": "startTime",
          "type": "uint256"
        }
      ],
      "name": "JobRelayed",
      "type": "event"
    },
    {
      "anonymous": false,
      "inputs": [
        {
          "indexed": true,
          "internalType": "uint256",
          "name": "jobId",
          "type": "uint256"
        },
        {
          "indexed": false,
          "internalType": "bytes",
          "name": "output",
          "type": "bytes"
        },
        {
          "indexed": false,
          "internalType": "uint256",
          "name": "totalTime",
          "type": "uint256"
        },
        {
          "indexed": false,
          "internalType": "uint256",
          "name": "errorCode",
          "type": "uint256"
        },
        {
          "indexed": false,
          "internalType": "bool",
          "name": "success",
          "type": "bool"
        }
      ],
      "name": "JobResponded",
      "type": "event"
    },
    {
      "anonymous": false,
      "inputs": [
        {
          "indexed": true,
          "internalType": "bytes32",
          "name": "role",
          "type": "bytes32"
        },
        {
          "indexed": true,
          "internalType": "bytes32",
          "name": "previousAdminRole",
          "type": "bytes32"
        },
        {
          "indexed": true,
          "internalType": "bytes32",
          "name": "newAdminRole",
          "type": "bytes32"
        }
      ],
      "name": "RoleAdminChanged",
      "type": "event"
    },
    {
      "anonymous": false,
      "inputs": [
        {
          "indexed": true,
          "internalType": "bytes32",
          "name": "role",
          "type": "bytes32"
        },
        {
          "indexed": true,
          "internalType": "address",
          "name": "account",
          "type": "address"
        },
        {
          "indexed": true,
          "internalType": "address",
          "name": "sender",
          "type": "address"
        }
      ],
      "name": "RoleGranted",
      "type": "event"
    },
    {
      "anonymous": false,
      "inputs": [
        {
          "indexed": true,
          "internalType": "bytes32",
          "name": "role",
          "type": "bytes32"
        },
        {
          "indexed": true,
          "internalType": "address",
          "name": "account",
          "type": "address"
        },
        {
          "indexed": true,
          "internalType": "address",
          "name": "sender",
          "type": "address"
        }
      ],
      "name": "RoleRevoked",
      "type": "event"
    },
    {
      "anonymous": false,
      "inputs": [
        {
          "indexed": true,
          "internalType": "address",
          "name": "implementation",
          "type": "address"
        }
      ],
      "name": "Upgraded",
      "type": "event"
    },
    {
      "inputs": [],
      "name": "ATTESTATION_MAX_AGE",
      "outputs": [
        {
          "internalType": "uint256",
          "name": "",
          "type": "uint256"
        }
      ],
      "stateMutability": "view",
      "type": "function"
    },
    {
      "inputs": [],
      "name": "ATTESTATION_VERIFIER",
      "outputs": [
        {
          "internalType": "contract IAttestationVerifier",
          "name": "",
          "type": "address"
        }
      ],
      "stateMutability": "view",
      "type": "function"
    },
    {
      "inputs": [],
      "name": "DEFAULT_ADMIN_ROLE",
      "outputs": [
        {
          "internalType": "bytes32",
          "name": "",
          "type": "bytes32"
        }
      ],
      "stateMutability": "view",
      "type": "function"
    },
    {
      "inputs": [],
      "name": "UPGRADE_INTERFACE_VERSION",
      "outputs": [
        {
          "internalType": "string",
          "name": "",
          "type": "string"
        }
      ],
      "stateMutability": "view",
      "type": "function"
    },
    {
      "inputs": [
        {
          "internalType": "address",
          "name": "_admin",
          "type": "address"
        },
        {
          "internalType": "contract IERC20",
          "name": "_token",
          "type": "address"
        },
        {
          "components": [
            {
              "internalType": "bytes",
              "name": "PCR0",
              "type": "bytes"
            },
            {
              "internalType": "bytes",
              "name": "PCR1",
              "type": "bytes"
            },
            {
              "internalType": "bytes",
              "name": "PCR2",
              "type": "bytes"
            }
          ],
          "internalType": "struct AttestationAutherUpgradeable.EnclaveImage[]",
          "name": "_images",
          "type": "tuple[]"
        },
        {
          "internalType": "uint256",
          "name": "_globalMinTimeout",
          "type": "uint256"
        },
        {
          "internalType": "uint256",
          "name": "_globalMaxTimeout",
          "type": "uint256"
        },
        {
          "internalType": "uint256",
          "name": "_overallTimeout",
          "type": "uint256"
        }
      ],
      "name": "__RequestChainContract_init",
      "outputs": [],
      "stateMutability": "nonpayable",
      "type": "function"
    },
    {
      "inputs": [
        {
          "internalType": "bytes",
          "name": "_enclavePubKey",
          "type": "bytes"
        }
      ],
      "name": "deregisterGateway",
      "outputs": [],
      "stateMutability": "nonpayable",
      "type": "function"
    },
    {
      "inputs": [
        {
          "internalType": "address",
          "name": "",
          "type": "address"
        }
      ],
      "name": "gateways",
      "outputs": [
        {
          "internalType": "address",
          "name": "operator",
          "type": "address"
        },
        {
          "internalType": "bool",
          "name": "status",
          "type": "bool"
        }
      ],
      "stateMutability": "view",
      "type": "function"
    },
    {
      "inputs": [
        {
          "internalType": "bytes32",
          "name": "role",
          "type": "bytes32"
        }
      ],
      "name": "getRoleAdmin",
      "outputs": [
        {
          "internalType": "bytes32",
          "name": "",
          "type": "bytes32"
        }
      ],
      "stateMutability": "view",
      "type": "function"
    },
    {
      "inputs": [
        {
          "internalType": "bytes32",
          "name": "role",
          "type": "bytes32"
        },
        {
          "internalType": "uint256",
          "name": "index",
          "type": "uint256"
        }
      ],
      "name": "getRoleMember",
      "outputs": [
        {
          "internalType": "address",
          "name": "",
          "type": "address"
        }
      ],
      "stateMutability": "view",
      "type": "function"
    },
    {
      "inputs": [
        {
          "internalType": "bytes32",
          "name": "role",
          "type": "bytes32"
        }
      ],
      "name": "getRoleMemberCount",
      "outputs": [
        {
          "internalType": "uint256",
          "name": "",
          "type": "uint256"
        }
      ],
      "stateMutability": "view",
      "type": "function"
    },
    {
      "inputs": [
        {
          "internalType": "address",
          "name": "_key",
          "type": "address"
        }
      ],
      "name": "getVerifiedKey",
      "outputs": [
        {
          "internalType": "bytes32",
          "name": "",
          "type": "bytes32"
        }
      ],
      "stateMutability": "view",
      "type": "function"
    },
    {
      "inputs": [
        {
          "internalType": "bytes32",
          "name": "_imageId",
          "type": "bytes32"
        }
      ],
      "name": "getWhitelistedImage",
      "outputs": [
        {
          "components": [
            {
              "internalType": "bytes",
              "name": "PCR0",
              "type": "bytes"
            },
            {
              "internalType": "bytes",
              "name": "PCR1",
              "type": "bytes"
            },
            {
              "internalType": "bytes",
              "name": "PCR2",
              "type": "bytes"
            }
          ],
          "internalType": "struct AttestationAutherUpgradeable.EnclaveImage",
          "name": "",
          "type": "tuple"
        }
      ],
      "stateMutability": "view",
      "type": "function"
    },
    {
      "inputs": [],
      "name": "globalMaxTimeout",
      "outputs": [
        {
          "internalType": "uint256",
          "name": "",
          "type": "uint256"
        }
      ],
      "stateMutability": "view",
      "type": "function"
    },
    {
      "inputs": [],
      "name": "globalMinTimeout",
      "outputs": [
        {
          "internalType": "uint256",
          "name": "",
          "type": "uint256"
        }
      ],
      "stateMutability": "view",
      "type": "function"
    },
    {
      "inputs": [
        {
          "internalType": "bytes32",
          "name": "role",
          "type": "bytes32"
        },
        {
          "internalType": "address",
          "name": "account",
          "type": "address"
        }
      ],
      "name": "grantRole",
      "outputs": [],
      "stateMutability": "nonpayable",
      "type": "function"
    },
    {
      "inputs": [
        {
          "internalType": "bytes32",
          "name": "role",
          "type": "bytes32"
        },
        {
          "internalType": "address",
          "name": "account",
          "type": "address"
        }
      ],
      "name": "hasRole",
      "outputs": [
        {
          "internalType": "bool",
          "name": "",
          "type": "bool"
        }
      ],
      "stateMutability": "view",
      "type": "function"
    },
    {
      "inputs": [
        {
          "internalType": "bytes32",
          "name": "imageId",
          "type": "bytes32"
        },
        {
          "internalType": "bytes32",
          "name": "family",
          "type": "bytes32"
        }
      ],
      "name": "isImageInFamily",
      "outputs": [
        {
          "internalType": "bool",
          "name": "",
          "type": "bool"
        }
      ],
      "stateMutability": "view",
      "type": "function"
    },
    {
      "inputs": [
        {
          "internalType": "uint256",
          "name": "_jobId",
          "type": "uint256"
        }
      ],
      "name": "jobCancel",
      "outputs": [],
      "stateMutability": "nonpayable",
      "type": "function"
    },
    {
      "inputs": [],
      "name": "jobCount",
      "outputs": [
        {
          "internalType": "uint256",
          "name": "",
          "type": "uint256"
        }
      ],
      "stateMutability": "view",
      "type": "function"
    },
    {
      "inputs": [
        {
          "internalType": "bytes",
          "name": "_signature",
          "type": "bytes"
        },
        {
          "internalType": "uint256",
          "name": "_jobId",
          "type": "uint256"
        },
        {
          "internalType": "bytes",
          "name": "_output",
          "type": "bytes"
        },
        {
          "internalType": "uint256",
          "name": "_totalTime",
          "type": "uint256"
        },
        {
          "internalType": "uint8",
          "name": "_errorCode",
          "type": "uint8"
        }
      ],
      "name": "jobResponse",
      "outputs": [],
      "stateMutability": "nonpayable",
      "type": "function"
    },
    {
      "inputs": [
        {
          "internalType": "uint256",
          "name": "",
          "type": "uint256"
        }
      ],
      "name": "jobs",
      "outputs": [
        {
          "internalType": "bytes32",
          "name": "codehash",
          "type": "bytes32"
        },
        {
          "internalType": "bytes",
          "name": "codeInputs",
          "type": "bytes"
        },
        {
          "internalType": "uint256",
          "name": "userTimeout",
          "type": "uint256"
        },
        {
          "internalType": "uint256",
          "name": "startTime",
          "type": "uint256"
        },
        {
          "internalType": "uint256",
          "name": "maxGasPrice",
          "type": "uint256"
        },
        {
          "internalType": "uint256",
          "name": "usdcDeposit",
          "type": "uint256"
        },
        {
          "internalType": "uint256",
          "name": "callbackDeposit",
          "type": "uint256"
        },
        {
          "internalType": "address",
          "name": "jobOwner",
          "type": "address"
        },
        {
          "internalType": "bool",
          "name": "receivedOutput",
          "type": "bool"
        }
      ],
      "stateMutability": "view",
      "type": "function"
    },
    {
      "inputs": [],
      "name": "overallTimeout",
      "outputs": [
        {
          "internalType": "uint256",
          "name": "",
          "type": "uint256"
        }
      ],
      "stateMutability": "view",
      "type": "function"
    },
    {
      "inputs": [],
      "name": "proxiableUUID",
      "outputs": [
        {
          "internalType": "bytes32",
          "name": "",
          "type": "bytes32"
        }
      ],
      "stateMutability": "view",
      "type": "function"
    },
    {
      "inputs": [
        {
          "internalType": "bytes",
          "name": "_attestation",
          "type": "bytes"
        },
        {
          "internalType": "bytes",
          "name": "_enclavePubKey",
          "type": "bytes"
        },
        {
          "internalType": "bytes",
          "name": "_PCR0",
          "type": "bytes"
        },
        {
          "internalType": "bytes",
          "name": "_PCR1",
          "type": "bytes"
        },
        {
          "internalType": "bytes",
          "name": "_PCR2",
          "type": "bytes"
        },
        {
          "internalType": "uint256",
          "name": "_timestampInMilliseconds",
          "type": "uint256"
        }
      ],
      "name": "registerGateway",
      "outputs": [],
      "stateMutability": "nonpayable",
      "type": "function"
    },
    {
      "inputs": [
        {
          "internalType": "bytes32",
          "name": "_codehash",
          "type": "bytes32"
        },
        {
          "internalType": "bytes",
          "name": "_codeInputs",
          "type": "bytes"
        },
        {
          "internalType": "uint256",
          "name": "_userTimeout",
          "type": "uint256"
        },
        {
          "internalType": "uint256",
          "name": "_maxGasPrice",
          "type": "uint256"
        },
        {
          "internalType": "uint256",
          "name": "_usdcDeposit",
          "type": "uint256"
        },
        {
          "internalType": "uint256",
          "name": "_callbackDeposit",
          "type": "uint256"
        }
      ],
      "name": "relayJob",
      "outputs": [],
      "stateMutability": "nonpayable",
      "type": "function"
    },
    {
      "inputs": [
        {
          "internalType": "bytes32",
          "name": "role",
          "type": "bytes32"
        },
        {
          "internalType": "address",
          "name": "callerConfirmation",
          "type": "address"
        }
      ],
      "name": "renounceRole",
      "outputs": [],
      "stateMutability": "nonpayable",
      "type": "function"
    },
    {
      "inputs": [
        {
          "internalType": "bytes32",
          "name": "role",
          "type": "bytes32"
        },
        {
          "internalType": "address",
          "name": "account",
          "type": "address"
        }
      ],
      "name": "revokeRole",
      "outputs": [],
      "stateMutability": "nonpayable",
      "type": "function"
    },
    {
      "inputs": [
        {
          "internalType": "bytes4",
          "name": "interfaceId",
          "type": "bytes4"
        }
      ],
      "name": "supportsInterface",
      "outputs": [
        {
          "internalType": "bool",
          "name": "",
          "type": "bool"
        }
      ],
      "stateMutability": "view",
      "type": "function"
    },
    {
      "inputs": [],
      "name": "token",
      "outputs": [
        {
          "internalType": "contract IERC20",
          "name": "",
          "type": "address"
        }
      ],
      "stateMutability": "view",
      "type": "function"
    },
    {
      "inputs": [
        {
          "internalType": "address",
          "name": "newImplementation",
          "type": "address"
        },
        {
          "internalType": "bytes",
          "name": "data",
          "type": "bytes"
        }
      ],
      "name": "upgradeToAndCall",
      "outputs": [],
      "stateMutability": "payable",
      "type": "function"
    },
    {
      "inputs": [
        {
          "internalType": "bytes",
          "name": "signature",
          "type": "bytes"
        },
        {
          "components": [
            {
              "internalType": "bytes",
              "name": "enclavePubKey",
              "type": "bytes"
            },
            {
              "internalType": "bytes",
              "name": "PCR0",
              "type": "bytes"
            },
            {
              "internalType": "bytes",
              "name": "PCR1",
              "type": "bytes"
            },
            {
              "internalType": "bytes",
              "name": "PCR2",
              "type": "bytes"
            },
            {
              "internalType": "uint256",
              "name": "timestampInMilliseconds",
              "type": "uint256"
            }
          ],
          "internalType": "struct IAttestationVerifier.Attestation",
          "name": "attestation",
          "type": "tuple"
        }
      ],
      "name": "verifyEnclaveKey",
      "outputs": [
        {
          "internalType": "bool",
          "name": "",
          "type": "bool"
        }
      ],
      "stateMutability": "nonpayable",
      "type": "function"
    }
  ],
  "bytecode": "0x60e06040523060c05234801561001457600080fd5b50604051613dca380380613dca83398101604081905261003391610157565b6001600160a01b03821660805260a08190527ff0c57e16840df040f15088dc2f81fe391c3923bec73e23a9662efc9c229c6a00805468010000000000000000810460ff1615906001600160401b031660008115801561008f5750825b90506000826001600160401b031660011480156100ab5750303b155b9050811580156100b9575080155b156100d75760405163f92ee8a960e01b815260040160405180910390fd5b84546001600160401b0319166001178555831561010557845460ff60401b1916680100000000000000001785555b831561014b57845460ff60401b19168555604051600181527fc7f505b2f371ae2175ee4913f4499e1f2633a7b5936321eed1cdaeb6115181d29060200160405180910390a15b50505050505050610191565b6000806040838503121561016a57600080fd5b82516001600160a01b038116811461018157600080fd5b6020939093015192949293505050565b60805160a05160c051613bee6101dc60003960008181611b9201528181611bbb0152611dfd0152600081816106010152611f570152600081816106c00152611ff50152613bee6000f3fe6080604052600436106101d75760003560e01c8063626d7cd411610102578063a217fddf11610095578063d547741f11610064578063d547741f146106e2578063e0aba60a14610702578063f398cc7414610722578063fc0c546a1461074257600080fd5b8063a217fddf14610623578063ad3cb1cc14610638578063ca15c8731461068e578063cd79f906146106ae57600080fd5b80639010d07c116100d15780639010d07c146104e05780639022c19c1461051857806391d148541461058a5780639aec990e146105ef57600080fd5b8063626d7cd4146104275780636b5b21a61461044757806375847b84146104a0578063785a1717146104c057600080fd5b8063248a9ca31161017a5780634c5d8a0f116101495780634c5d8a0f146103c95780634db9394b146103df5780634f1ef286146103ff57806352d1902d1461041257600080fd5b8063248a9ca3146103245780632f2ff15d1461037357806336568abe1461039357806347633b55146103b357600080fd5b80630834267a116101b65780630834267a146102965780630ead6625146102ac578063180aedf3146102c25780632410f6ba146102f757600080fd5b8062292ea3146101dc57806301d58fa3146101fe57806301ffc9a714610266575b600080fd5b3480156101e857600080fd5b506101fc6101f7366004612f83565b610762565b005b34801561020a57600080fd5b50610253610219366004613002565b6001600160a01b031660009081527fc17b4b708b6f44255c20913a9d97a05300b670342c71fe5ae5b617bd4db55001602052604090205490565b6040519081526020015b60405180910390f35b34801561027257600080fd5b5061028661028136600461301f565b61095c565b604051901515815260200161025d565b3480156102a257600080fd5b5061025360035481565b3480156102b857600080fd5b5061025360015481565b3480156102ce57600080fd5b506102e26102dd366004613061565b61096d565b60405161025d999897969594939291906130ca565b34801561030357600080fd5b50610317610312366004613061565b610a5f565b60405161025d9190613128565b34801561033057600080fd5b5061025361033f366004613061565b60009081527f02dd7bc7dec4dceedda775e58dd541e08a116c6c53815c0bd028192f7b626800602052604090206001015490565b34801561037f57600080fd5b506101fc61038e366004613180565b610c7d565b34801561039f57600080fd5b506101fc6103ae366004613180565b610cc7565b3480156103bf57600080fd5b5061025360025481565b3480156103d557600080fd5b5061025360065481565b3480156103eb57600080fd5b506101fc6103fa3660046131b0565b610d18565b6101fc61040d366004613242565b610e8e565b34801561041e57600080fd5b50610253610ead565b34801561043357600080fd5b506101fc610442366004613292565b610edc565b34801561045357600080fd5b50610286610462366004613451565b60009081527fc17b4b708b6f44255c20913a9d97a05300b670342c71fe5ae5b617bd4db5500260209081526040808320938352929052205460ff1690565b3480156104ac57600080fd5b506102866104bb366004613473565b6111a8565b3480156104cc57600080fd5b506101fc6104db36600461357d565b6111bb565b3480156104ec57600080fd5b506105006104fb366004613451565b6112de565b6040516001600160a01b03909116815260200161025d565b34801561052457600080fd5b5061056b610533366004613002565b6004602052600090815260409020546001600160a01b0381169074010000000000000000000000000000000000000000900460ff1682565b604080516001600160a01b03909316835290151560208301520161025d565b34801561059657600080fd5b506102866105a5366004613180565b60009182527f02dd7bc7dec4dceedda775e58dd541e08a116c6c53815c0bd028192f7b626800602090815260408084206001600160a01b0393909316845291905290205460ff1690565b3480156105fb57600080fd5b506102537f000000000000000000000000000000000000000000000000000000000000000081565b34801561062f57600080fd5b50610253600081565b34801561064457600080fd5b506106816040518060400160405280600581526020017f352e302e3000000000000000000000000000000000000000000000000000000081525081565b60405161025d9190613657565b34801561069a57600080fd5b506102536106a9366004613061565b61131f565b3480156106ba57600080fd5b506105007f000000000000000000000000000000000000000000000000000000000000000081565b3480156106ee57600080fd5b506101fc6106fd366004613180565b611357565b34801561070e57600080fd5b506101fc61071d36600461366a565b61139b565b34801561072e57600080fd5b506101fc61073d366004613061565b611541565b34801561074e57600080fd5b50600054610500906001600160a01b031681565b60015484118015610774575060025484105b6107df576040517f08c379a000000000000000000000000000000000000000000000000000000000815260206004820152601460248201527f494e56414c49445f555345525f54494d454f555400000000000000000000000060448201526064015b60405180910390fd5b60405180610120016040528087815260200186815260200185815260200142815260200184815260200183815260200182815260200161081c3390565b6001600160a01b031681526020016000151581525060056000600660008154610844906136ce565b918290555081526020808201929092526040016000208251815590820151600182019061087190826137a9565b506040828101516002830155606083015160038301556080830151600483015560a0830151600583015560c083015160068084019190915560e08401516007909301805461010090950151151574010000000000000000000000000000000000000000027fffffffffffffffffffffff0000000000000000000000000000000000000000009095166001600160a01b039094169390931793909317909155905490517f9b4bc5e4e58f6cfa2f901b02bfe1fc6914f7fc1061cd9e2019bf5dd28058068f9061094c9089908990899089908990899042906138a5565b60405180910390a2505050505050565b60006109678261177e565b92915050565b6005602052600090815260409020805460018201805491929161098f90613706565b80601f01602080910402602001604051908101604052809291908181526020018280546109bb90613706565b8015610a085780601f106109dd57610100808354040283529160200191610a08565b820191906000526020600020905b8154815290600101906020018083116109eb57829003601f168201915b505050506002830154600384015460048501546005860154600687015460079097015495969395929450909290916001600160a01b0381169074010000000000000000000000000000000000000000900460ff1689565b610a8360405180606001604052806060815260200160608152602001606081525090565b60008281527fc17b4b708b6f44255c20913a9d97a05300b670342c71fe5ae5b617bd4db550006020819052604091829020825160608101909352805491929182908290610acf90613706565b80601f0160208091040260200160405190810160405280929190818152602001828054610afb90613706565b8015610b485780601f10610b1d57610100808354040283529160200191610b48565b820191906000526020600020905b815481529060010190602001808311610b2b57829003601f168201915b50505050508152602001600182018054610b6190613706565b80601f0160208091040260200160405190810160405280929190818152602001828054610b8d90613706565b8015610bda5780601f10610baf57610100808354040283529160200191610bda565b820191906000526020600020905b815481529060010190602001808311610bbd57829003601f168201915b50505050508152602001600282018054610bf390613706565b80601f0160208091040260200160405190810160405280929190818152602001828054610c1f90613706565b8015610c6c5780601f10610c4157610100808354040283529160200191610c6c565b820191906000526020600020905b815481529060010190602001808311610c4f57829003601f168201915b505050505081525050915050919050565b60008281527f02dd7bc7dec4dceedda775e58dd541e08a116c6c53815c0bd028192f7b6268006020526040902060010154610cb7816117d4565b610cc183836117e1565b50505050565b6001600160a01b0381163314610d09576040517f6697b23200000000000000000000000000000000000000000000000000000000815260040160405180910390fd5b610d1382826117ed565b505050565b60038054600086815260056020526040902090910154610d3891906138e8565b421115610da1576040517f08c379a000000000000000000000000000000000000000000000000000000000815260206004820152601460248201527f4f564552414c4c5f54494d454f55545f4f56455200000000000000000000000060448201526064016107d6565b600084848484604051602001610dba94939291906138fb565b60408051601f19818403018152919052805160209091012090506000610de0828861186f565b9050610deb81611899565b600086815260056020526040812060070180547fffffffffffffffffffffff00ffffffffffffffffffffffffffffffffffffffff1674010000000000000000000000000000000000000000179055610e4487878661197e565b9050867f3bcf275077501f1077e75b4e70896bf241dc8cbeec71823201ef711cfc454ea187878785604051610e7c949392919061392e565b60405180910390a25050505050505050565b610e96611b87565b610e9f82611c59565b610ea98282611cf1565b5050565b6000610eb7611df2565b507f360894a13ba1a3210667c828492db98dca3e2076cc3735a920a3ca505d382bbc90565b7ff0c57e16840df040f15088dc2f81fe391c3923bec73e23a9662efc9c229c6a00805468010000000000000000810460ff16159067ffffffffffffffff16600081158015610f275750825b905060008267ffffffffffffffff166001148015610f445750303b155b905081158015610f52575080155b15610f89576040517ff92ee8a900000000000000000000000000000000000000000000000000000000815260040160405180910390fd5b84547fffffffffffffffffffffffffffffffffffffffffffffffff00000000000000001660011785558315610fea5784547fffffffffffffffffffffffffffffffffffffffffffffff00ffffffffffffffff16680100000000000000001785555b610ff2611e54565b610ffa611e54565b611002611e54565b61100b89611e5c565b611013611e54565b61101e60008c6117e1565b506001600160a01b038a1661108f576040517f08c379a000000000000000000000000000000000000000000000000000000000815260206004820152600d60248201527f494e56414c49445f544f4b454e0000000000000000000000000000000000000060448201526064016107d6565b600080547fffffffffffffffffffffffff0000000000000000000000000000000000000000166001600160a01b038c1617905586881061112b576040517f08c379a000000000000000000000000000000000000000000000000000000000815260206004820152601760248201527f494e56414c49445f474c4f42414c5f54494d454f55545300000000000000000060448201526064016107d6565b600188905560028790556003869055831561119b5784547fffffffffffffffffffffffffffffffffffffffffffffff00ffffffffffffffff168555604051600181527fc7f505b2f371ae2175ee4913f4499e1f2633a7b5936321eed1cdaeb6115181d29060200160405180910390a15b5050505050505050505050565b60006111b48383611e9c565b9392505050565b6111eb866040518060a0016040528088815260200187815260200186815260200185815260200184815250611e9c565b5060006111f786612104565b9050604051806040016040528061120b3390565b6001600160a01b039081168252600160209283015283811660009081526004835260409020835181549490930151151574010000000000000000000000000000000000000000027fffffffffffffffffffffff000000000000000000000000000000000000000000909416929091169190911791909117905561128b3390565b6001600160a01b0316816001600160a01b03167f106ffa37b07009baa2e6b20d86090a9347e3fb5e0bdb0dae1efc7346aa8a2f1c886040516112cd9190613657565b60405180910390a350505050505050565b60008281527fc1f6fe24621ce81ec5827caf0253cadb74709b061630e6b55e82371705932000602081905260408220611317908461214d565b949350505050565b60008181527fc1f6fe24621ce81ec5827caf0253cadb74709b061630e6b55e823717059320006020819052604082206111b490612159565b60008281527f02dd7bc7dec4dceedda775e58dd541e08a116c6c53815c0bd028192f7b6268006020526040902060010154611391816117d4565b610cc183836117ed565b8060006113a782612104565b6001600160a01b0380821660009081526004602052604090205491925016331461142d576040517f08c379a000000000000000000000000000000000000000000000000000000000815260206004820152601560248201527f4f4e4c595f474154455741595f4f50455241544f52000000000000000000000060448201526064016107d6565b600061143884612104565b6001600160a01b03808216600090815260046020526040902054919250166114bc576040517f08c379a000000000000000000000000000000000000000000000000000000000815260206004820152601360248201527f494e56414c49445f454e434c4156455f4b45590000000000000000000000000060448201526064016107d6565b6001600160a01b038116600090815260046020526040902080547fffffffffffffffffffffff00000000000000000000000000000000000000000016905561150384612163565b507fcfdd9fda8828d739bda25c6f221393246d149dd1b7f6784acdb8ba0132722f27846040516115339190613657565b60405180910390a150505050565b60008181526005602052604090206007015481906001600160a01b031633146115c6576040517f08c379a000000000000000000000000000000000000000000000000000000000815260206004820152600d60248201527f4e4f545f4a4f425f4f574e45520000000000000000000000000000000000000060448201526064016107d6565b60008281526005602052604090206007015474010000000000000000000000000000000000000000900460ff161561165a576040517f08c379a000000000000000000000000000000000000000000000000000000000815260206004820152601b60248201527f4a4f425f4f55545055545f414c52454144595f5245434549564544000000000060448201526064016107d6565b6003805460008481526005602052604090209091015461167a91906138e8565b42116116e2576040517f08c379a000000000000000000000000000000000000000000000000000000000815260206004820152601860248201527f4f564552414c4c5f54494d454f55545f4e4f545f4f564552000000000000000060448201526064016107d6565b6000828152600560205260408120818155906117016001830182612e19565b5060006002820181905560038201819055600482018190556005820181905560068201819055600790910180547fffffffffffffffffffffff00000000000000000000000000000000000000000016905560405183917f58243f872c550ad02802199ade99eb4250f6bb19e9abbf2d3de7b969c0eb5e4f91a25050565b60007fffffffff0000000000000000000000000000000000000000000000000000000082167f5a05180f0000000000000000000000000000000000000000000000000000000014806109675750610967826121ce565b6117de8133612265565b50565b60006111b483836122f2565b6000806117fa8484612349565b9050611806600061131f565b6000036111b4576040517f08c379a000000000000000000000000000000000000000000000000000000000815260206004820181905260248201527f41563a52522d416c6c2061646d696e732063616e742062652072656d6f76656460448201526064016107d6565b60008060008061187f8686612397565b92509250925061188f82826123e4565b5090949350505050565b6001600160a01b03811660009081527fc17b4b708b6f44255c20913a9d97a05300b670342c71fe5ae5b617bd4db5500160205260409020547fc17b4b708b6f44255c20913a9d97a05300b670342c71fe5ae5b617bd4db55000908061192a576040517f3dd8ca9500000000000000000000000000000000000000000000000000000000815260040160405180910390fd5b6000818152602083905260409020805461194390613706565b9050600003610d13576040517f38c4ac1600000000000000000000000000000000000000000000000000000000815260040160405180910390fd5b600083815260056020908152604080832081516101208101909252805482526001810180548594840191906119b290613706565b80601f01602080910402602001604051908101604052809291908181526020018280546119de90613706565b8015611a2b5780601f10611a0057610100808354040283529160200191611a2b565b820191906000526020600020905b815481529060010190602001808311611a0e57829003601f168201915b505050918352505060028201546020820152600382015460408201526004820154606082015260058201546080820152600682015460a08201526007909101546001600160a01b0380821660c0808501919091527401000000000000000000000000000000000000000090920460ff16151560e0938401529183015190830151929350600092911690611abf903a90613962565b878787604051602401611ad49392919061399d565b60408051601f198184030181529181526020820180517bffffffffffffffffffffffffffffffffffffffffffffffffffffffff167f5d4b82380000000000000000000000000000000000000000000000000000000017905251611b3791906139c9565b60006040518083038160008787f1925050503d8060008114611b75576040519150601f19603f3d011682016040523d82523d6000602084013e611b7a565b606091505b5090979650505050505050565b306001600160a01b037f0000000000000000000000000000000000000000000000000000000000000000161480611c2057507f00000000000000000000000000000000000000000000000000000000000000006001600160a01b0316611c147f360894a13ba1a3210667c828492db98dca3e2076cc3735a920a3ca505d382bbc546001600160a01b031690565b6001600160a01b031614155b15611c57576040517fe07c8dba00000000000000000000000000000000000000000000000000000000815260040160405180910390fd5b565b3360009081527fb7db2dd08fcb62d0c9e08c51941cae53c267786a0b75803fb7960902fc8ef97d602052604090205460ff166117de576040517f08c379a000000000000000000000000000000000000000000000000000000000815260206004820152600a60248201527f6f6e6c792061646d696e0000000000000000000000000000000000000000000060448201526064016107d6565b816001600160a01b03166352d1902d6040518163ffffffff1660e01b8152600401602060405180830381865afa925050508015611d4b575060408051601f3d908101601f19168201909252611d48918101906139e5565b60015b611d8c576040517f4c9c8ce30000000000000000000000000000000000000000000000000000000081526001600160a01b03831660048201526024016107d6565b7f360894a13ba1a3210667c828492db98dca3e2076cc3735a920a3ca505d382bbc8114611de8576040517faa1d49a4000000000000000000000000000000000000000000000000000000008152600481018290526024016107d6565b610d1383836124e8565b306001600160a01b037f00000000000000000000000000000000000000000000000000000000000000001614611c57576040517fe07c8dba00000000000000000000000000000000000000000000000000000000815260040160405180910390fd5b611c5761253e565b611e6461253e565b60005b8151811015610ea957611e92828281518110611e8557611e856139fe565b60200260200101516125a5565b5050600101611e67565b6000807fc17b4b708b6f44255c20913a9d97a05300b670342c71fe5ae5b617bd4db5500090506000836020015184604001518560600151604051602001611ee593929190613a2d565b60408051601f1981840301815291815281516020928301206000818152928590529120805491925090611f1790613706565b9050600003611f52576040517f38c4ac1600000000000000000000000000000000000000000000000000000000815260040160405180910390fd5b611f7c7f000000000000000000000000000000000000000000000000000000000000000042613a70565b6103e88560800151611f8e9190613962565b11611fc5576040517f19605e0a00000000000000000000000000000000000000000000000000000000815260040160405180910390fd5b6040517feac708a30000000000000000000000000000000000000000000000000000000081526001600160a01b037f0000000000000000000000000000000000000000000000000000000000000000169063eac708a39061202c9088908890600401613a83565b60006040518083038186803b15801561204457600080fd5b505afa158015612058573d6000803e3d6000fd5b50505050600061206b8560000151612104565b6001600160a01b03811660009081526001850160205260409020549091501561209a5760009350505050610967565b6001600160a01b0381166000908152600184016020526040908190208390558551905183916120c8916139c9565b604051908190038120907ff4837f1a66a1e5fbde2c40d0f6eff75183139e79b0fc1eaab280a3a0be38e7b190600090a350600195945050505050565b60008151604014612141576040517fbd9c80c100000000000000000000000000000000000000000000000000000000815260040160405180910390fd5b50805160209091012090565b60006111b4838361274d565b6000610967825490565b60008061216f83612104565b905061217a81612777565b6121875750600092915050565b8260405161219591906139c9565b604051908190038120907ff910fd78b98e9574e8b6f0e42bc3a996a6aba3776ec20b9d85515bd74a6c8fe990600090a250600192915050565b60007fffffffff0000000000000000000000000000000000000000000000000000000082167f7965db0b00000000000000000000000000000000000000000000000000000000148061096757507f01ffc9a7000000000000000000000000000000000000000000000000000000007fffffffff00000000000000000000000000000000000000000000000000000000831614610967565b60008281527f02dd7bc7dec4dceedda775e58dd541e08a116c6c53815c0bd028192f7b626800602090815260408083206001600160a01b038516845290915290205460ff16610ea9576040517fe2517d3f0000000000000000000000000000000000000000000000000000000081526001600160a01b0382166004820152602481018390526044016107d6565b60007fc1f6fe24621ce81ec5827caf0253cadb74709b061630e6b55e8237170593200081612320858561282a565b905080156113175760008581526020839052604090206123409085612917565b50949350505050565b60007fc1f6fe24621ce81ec5827caf0253cadb74709b061630e6b55e8237170593200081612377858561292c565b9050801561131757600085815260208390526040902061234090856129f0565b600080600083516041036123d15760208401516040850151606086015160001a6123c388828585612a05565b9550955095505050506123dd565b50508151600091506002905b9250925092565b60008260038111156123f8576123f8613b17565b03612401575050565b600182600381111561241557612415613b17565b0361244c576040517ff645eedf00000000000000000000000000000000000000000000000000000000815260040160405180910390fd5b600282600381111561246057612460613b17565b0361249a576040517ffce698f7000000000000000000000000000000000000000000000000000000008152600481018290526024016107d6565b60038260038111156124ae576124ae613b17565b03610ea9576040517fd78bce0c000000000000000000000000000000000000000000000000000000008152600481018290526024016107d6565b6124f182612ad4565b6040516001600160a01b038316907fbc7cd75a20ee27fd9adebab32041f755214dbc6bffa90cc0225b39da2e5c2d3b90600090a280511561253657610d138282612b7c565b610ea9612bf2565b7ff0c57e16840df040f15088dc2f81fe391c3923bec73e23a9662efc9c229c6a005468010000000000000000900460ff16611c57576040517fd7e6bcf800000000000000000000000000000000000000000000000000000000815260040160405180910390fd5b80515160009081907fc17b4b708b6f44255c20913a9d97a05300b670342c71fe5ae5b617bd4db550009060301480156125e357508360200151516030145b80156125f457508360400151516030145b61262a576040517f84c61bb600000000000000000000000000000000000000000000000000000000815260040160405180910390fd5b600084600001518560200151866040015160405160200161264d93929190613a2d565b60408051601f198184030181529181528151602092830120600081815292859052912080549192509061267f90613706565b15905061269157946000945092505050565b604080516060810182528651815260208088015181830152878301518284015260008481529085905291909120815181906126cc90826137a9565b50602082015160018201906126e190826137a9565b50604082015160028201906126f690826137a9565b50905050807f52b29bbdd97ab983419f50fa1590e5ab75e9942279e95e10a08607b06c23238b86600001518760200151886040015160405161273a93929190613b46565b60405180910390a2946001945092505050565b6000826000018281548110612764576127646139fe565b9060005260206000200154905092915050565b6001600160a01b03811660009081527fc17b4b708b6f44255c20913a9d97a05300b670342c71fe5ae5b617bd4db5500160205260408120547fc17b4b708b6f44255c20913a9d97a05300b670342c71fe5ae5b617bd4db55000906127de5750600092915050565b6001600160a01b0383166000818152600183016020526040808220829055517f43c77bddb18405fd78819d1d0a8a4e38d3ebc4c6fae9f7ec04ae0c0f7527b5079190a250600192915050565b60008281527f02dd7bc7dec4dceedda775e58dd541e08a116c6c53815c0bd028192f7b626800602081815260408084206001600160a01b038616855290915282205460ff1661290d576000848152602082815260408083206001600160a01b0387168452909152902080547fffffffffffffffffffffffffffffffffffffffffffffffffffffffffffffff001660011790556128c33390565b6001600160a01b0316836001600160a01b0316857f2f8788117e7eff1d82e926ec794901d17c78024a50270940304540a733656f0d60405160405180910390a46001915050610967565b6000915050610967565b60006111b4836001600160a01b038416612c2a565b60008281527f02dd7bc7dec4dceedda775e58dd541e08a116c6c53815c0bd028192f7b626800602081815260408084206001600160a01b038616855290915282205460ff161561290d576000848152602082815260408083206001600160a01b038716808552925280832080547fffffffffffffffffffffffffffffffffffffffffffffffffffffffffffffff0016905551339287917ff6391f5c32d9c69d2a47ea670b442974b53935d1edc7fd64eb21e047a839171b9190a46001915050610967565b60006111b4836001600160a01b038416612c79565b600080807f7fffffffffffffffffffffffffffffff5d576e7357a4501ddfe92f46681b20a0841115612a405750600091506003905082612aca565b604080516000808252602082018084528a905260ff891692820192909252606081018790526080810186905260019060a0016020604051602081039080840390855afa158015612a94573d6000803e3d6000fd5b5050604051601f1901519150506001600160a01b038116612ac057506000925060019150829050612aca565b9250600091508190505b9450945094915050565b806001600160a01b03163b600003612b23576040517f4c9c8ce30000000000000000000000000000000000000000000000000000000081526001600160a01b03821660048201526024016107d6565b7f360894a13ba1a3210667c828492db98dca3e2076cc3735a920a3ca505d382bbc80547fffffffffffffffffffffffff0000000000000000000000000000000000000000166001600160a01b0392909216919091179055565b6060600080846001600160a01b031684604051612b9991906139c9565b600060405180830381855af49150503d8060008114612bd4576040519150601f19603f3d011682016040523d82523d6000602084013e612bd9565b606091505b5091509150612be9858383612d62565b95945050505050565b3415611c57576040517fb398979f00000000000000000000000000000000000000000000000000000000815260040160405180910390fd5b6000818152600183016020526040812054612c7157508154600181810184556000848152602080822090930184905584548482528286019093526040902091909155610967565b506000610967565b6000818152600183016020526040812054801561290d576000612c9d600183613a70565b8554909150600090612cb190600190613a70565b9050808214612d16576000866000018281548110612cd157612cd16139fe565b9060005260206000200154905080876000018481548110612cf457612cf46139fe565b6000918252602080832090910192909255918252600188019052604090208390555b8554869080612d2757612d27613b89565b600190038181906000526020600020016000905590558560010160008681526020019081526020016000206000905560019350505050610967565b606082612d7757612d7282612dd7565b6111b4565b8151158015612d8e57506001600160a01b0384163b155b15612dd0576040517f9996b3150000000000000000000000000000000000000000000000000000000081526001600160a01b03851660048201526024016107d6565b50806111b4565b805115612de75780518082602001fd5b6040517f1425ea4200000000000000000000000000000000000000000000000000000000815260040160405180910390fd5b508054612e2590613706565b6000825580601f10612e35575050565b601f0160209004906000526020600020908101906117de91905b80821115612e635760008155600101612e4f565b5090565b7f4e487b7100000000000000000000000000000000000000000000000000000000600052604160045260246000fd5b6040516060810167ffffffffffffffff81118282101715612eb957612eb9612e67565b60405290565b60405160a0810167ffffffffffffffff81118282101715612eb957612eb9612e67565b604051601f8201601f1916810167ffffffffffffffff81118282101715612f0b57612f0b612e67565b604052919050565b600082601f830112612f2457600080fd5b813567ffffffffffffffff811115612f3e57612f3e612e67565b612f516020601f19601f84011601612ee2565b818152846020838601011115612f6657600080fd5b816020850160208301376000918101602001919091529392505050565b60008060008060008060c08789031215612f9c57600080fd5b86359550602087013567ffffffffffffffff811115612fba57600080fd5b612fc689828a01612f13565b96999698505050506040850135946060810135946080820135945060a09091013592509050565b6001600160a01b03811681146117de57600080fd5b60006020828403121561301457600080fd5b81356111b481612fed565b60006020828403121561303157600080fd5b81357fffffffff00000000000000000000000000000000000000000000000000000000811681146111b457600080fd5b60006020828403121561307357600080fd5b5035919050565b60005b8381101561309557818101518382015260200161307d565b50506000910152565b600081518084526130b681602086016020860161307a565b601f01601f19169290920160200192915050565b60006101208b83528060208401526130e48184018c61309e565b604084019a909a5250506060810196909652608086019490945260a085019290925260c08401526001600160a01b031660e083015215156101009091015292915050565b602081526000825160606020840152613144608084018261309e565b90506020840151601f1980858403016040860152613162838361309e565b9250604086015191508085840301606086015250612be9828261309e565b6000806040838503121561319357600080fd5b8235915060208301356131a581612fed565b809150509250929050565b600080600080600060a086880312156131c857600080fd5b853567ffffffffffffffff808211156131e057600080fd5b6131ec89838a01612f13565b965060208801359550604088013591508082111561320957600080fd5b5061321688828901612f13565b93505060608601359150608086013560ff8116811461323457600080fd5b809150509295509295909350565b6000806040838503121561325557600080fd5b823561326081612fed565b9150602083013567ffffffffffffffff81111561327c57600080fd5b61328885828601612f13565b9150509250929050565b60008060008060008060c087890312156132ab57600080fd5b6132b58735612fed565b863595506132c66020880135612fed565b6020870135945067ffffffffffffffff604088013511156132e657600080fd5b6040870135870188601f8201126132fc57600080fd5b67ffffffffffffffff8135111561331557613315612e67565b6133256020823560051b01612ee2565b81358082526020808301929160051b8401018b101561334357600080fd5b602083015b6020843560051b85010181101561342d5767ffffffffffffffff8135111561336f57600080fd5b803584016060601f19828f0301121561338757600080fd5b61338f612e96565b67ffffffffffffffff602083013511156133a857600080fd5b6133ba8e602080850135850101612f13565b815267ffffffffffffffff604083013511156133d557600080fd5b6133e88e60206040850135850101612f13565b602082015267ffffffffffffffff6060830135111561340657600080fd5b6134198e60206060850135850101612f13565b604082015284525060209283019201613348565b50979a96995096976060810135975060808101359660a09091013595509350505050565b6000806040838503121561346457600080fd5b50508035926020909101359150565b6000806040838503121561348657600080fd5b823567ffffffffffffffff8082111561349e57600080fd5b6134aa86838701612f13565b935060208501359150808211156134c057600080fd5b9084019060a082870312156134d457600080fd5b6134dc612ebf565b8235828111156134eb57600080fd5b6134f788828601612f13565b82525060208301358281111561350c57600080fd5b61351888828601612f13565b60208301525060408301358281111561353057600080fd5b61353c88828601612f13565b60408301525060608301358281111561355457600080fd5b61356088828601612f13565b606083015250608083013560808201528093505050509250929050565b60008060008060008060c0878903121561359657600080fd5b863567ffffffffffffffff808211156135ae57600080fd5b6135ba8a838b01612f13565b975060208901359150808211156135d057600080fd5b6135dc8a838b01612f13565b965060408901359150808211156135f257600080fd5b6135fe8a838b01612f13565b9550606089013591508082111561361457600080fd5b6136208a838b01612f13565b9450608089013591508082111561363657600080fd5b5061364389828a01612f13565b92505060a087013590509295509295509295565b6020815260006111b4602083018461309e565b60006020828403121561367c57600080fd5b813567ffffffffffffffff81111561369357600080fd5b61131784828501612f13565b7f4e487b7100000000000000000000000000000000000000000000000000000000600052601160045260246000fd5b60007fffffffffffffffffffffffffffffffffffffffffffffffffffffffffffffffff82036136ff576136ff61369f565b5060010190565b600181811c9082168061371a57607f821691505b602082108103613753577f4e487b7100000000000000000000000000000000000000000000000000000000600052602260045260246000fd5b50919050565b601f821115610d13576000816000526020600020601f850160051c810160208610156137825750805b601f850160051c820191505b818110156137a15782815560010161378e565b505050505050565b815167ffffffffffffffff8111156137c3576137c3612e67565b6137d7816137d18454613706565b84613759565b602080601f83116001811461382a57600084156137f45750858301515b7fffffffffffffffffffffffffffffffffffffffffffffffffffffffffffffffff600386901b1c1916600185901b1785556137a1565b600085815260208120601f198616915b828110156138595788860151825594840194600190910190840161383a565b508582101561389557878501517fffffffffffffffffffffffffffffffffffffffffffffffffffffffffffffffff600388901b60f8161c191681555b5050505050600190811b01905550565b87815260e0602082015260006138be60e083018961309e565b6040830197909752506060810194909452608084019290925260a083015260c09091015292915050565b808201808211156109675761096761369f565b848152608060208201526000613914608083018661309e565b905083604083015260ff8316606083015295945050505050565b608081526000613941608083018761309e565b60208301959095525060ff9290921660408301521515606090910152919050565b600082613998577f4e487b7100000000000000000000000000000000000000000000000000000000600052601260045260246000fd5b500490565b8381526060602082015260006139b6606083018561309e565b905060ff83166040830152949350505050565b600082516139db81846020870161307a565b9190910192915050565b6000602082840312156139f757600080fd5b5051919050565b7f4e487b7100000000000000000000000000000000000000000000000000000000600052603260045260246000fd5b60008451613a3f81846020890161307a565b845190830190613a5381836020890161307a565b8451910190613a6681836020880161307a565b0195945050505050565b818103818111156109675761096761369f565b604081526000613a96604083018561309e565b8281036020840152835160a08252613ab160a083018261309e565b905060208501518282036020840152613aca828261309e565b91505060408501518282036040840152613ae4828261309e565b91505060608501518282036060840152613afe828261309e565b9150506080850151608083015280925050509392505050565b7f4e487b7100000000000000000000000000000000000000000000000000000000600052602160045260246000fd5b606081526000613b59606083018661309e565b8281036020840152613b6b818661309e565b90508281036040840152613b7f818561309e565b9695505050505050565b7f4e487b7100000000000000000000000000000000000000000000000000000000600052603160045260246000fdfea264697066735822122026092187b23644b87176284d02fa71939f98ece0a64500b468f45621cbbd324b64736f6c63430008190033",
  "linkReferences": {},
  "deployedLinkReferences": {}
}