{
  "_format": "hh-sol-artifact-1",
  "contractName": "RequestChainContract",
  "sourceName": "contracts/serverless-v2/RequestChainContract.sol",
  "abi": [
    {
      "inputs": [
        {
          "internalType": "contract IAttestationVerifier",
          "name": "attestationVerifier",
          "type": "address"
        },
        {
          "internalType": "uint256",
          "name": "maxAge",
          "type": "uint256"
        },
        {
          "internalType": "contract IERC20",
          "name": "_token",
          "type": "address"
        },
        {
          "internalType": "uint256",
          "name": "_globalMinTimeout",
          "type": "uint256"
        },
        {
          "internalType": "uint256",
          "name": "_globalMaxTimeout",
          "type": "uint256"
        },
        {
          "internalType": "uint256",
          "name": "_overallTimeout",
          "type": "uint256"
        }
      ],
      "stateMutability": "nonpayable",
      "type": "constructor"
    },
    {
      "inputs": [],
      "name": "AccessControlBadConfirmation",
      "type": "error"
    },
    {
      "inputs": [
        {
          "internalType": "address",
          "name": "account",
          "type": "address"
        },
        {
          "internalType": "bytes32",
          "name": "neededRole",
          "type": "bytes32"
        }
      ],
      "name": "AccessControlUnauthorizedAccount",
      "type": "error"
    },
    {
      "inputs": [
        {
          "internalType": "address",
          "name": "target",
          "type": "address"
        }
      ],
      "name": "AddressEmptyCode",
      "type": "error"
    },
    {
      "inputs": [],
      "name": "AttestationAutherAttestationTooOld",
      "type": "error"
    },
    {
      "inputs": [],
      "name": "AttestationAutherImageNotInFamily",
      "type": "error"
    },
    {
      "inputs": [],
      "name": "AttestationAutherImageNotWhitelisted",
      "type": "error"
    },
    {
      "inputs": [],
      "name": "AttestationAutherKeyNotVerified",
      "type": "error"
    },
    {
      "inputs": [],
      "name": "AttestationAutherMismatchedLengths",
      "type": "error"
    },
    {
      "inputs": [],
      "name": "AttestationAutherPCRsInvalid",
      "type": "error"
    },
    {
      "inputs": [],
      "name": "AttestationAutherPubkeyLengthInvalid",
      "type": "error"
    },
    {
      "inputs": [],
      "name": "ECDSAInvalidSignature",
      "type": "error"
    },
    {
      "inputs": [
        {
          "internalType": "uint256",
          "name": "length",
          "type": "uint256"
        }
      ],
      "name": "ECDSAInvalidSignatureLength",
      "type": "error"
    },
    {
      "inputs": [
        {
          "internalType": "bytes32",
          "name": "s",
          "type": "bytes32"
        }
      ],
      "name": "ECDSAInvalidSignatureS",
      "type": "error"
    },
    {
      "inputs": [
        {
          "internalType": "address",
          "name": "implementation",
          "type": "address"
        }
      ],
      "name": "ERC1967InvalidImplementation",
      "type": "error"
    },
    {
      "inputs": [],
      "name": "ERC1967NonPayable",
      "type": "error"
    },
    {
      "inputs": [],
      "name": "FailedInnerCall",
      "type": "error"
    },
    {
      "inputs": [],
      "name": "GatewayAlreadyExists",
      "type": "error"
    },
    {
      "inputs": [],
      "name": "InvalidEnclaveKey",
      "type": "error"
    },
    {
      "inputs": [],
      "name": "InvalidGatewayOperator",
      "type": "error"
    },
    {
      "inputs": [],
      "name": "InvalidGlobalTimeouts",
      "type": "error"
    },
    {
      "inputs": [],
      "name": "InvalidInitialization",
      "type": "error"
    },
    {
      "inputs": [],
      "name": "InvalidJobOwner",
      "type": "error"
    },
    {
      "inputs": [],
      "name": "InvalidToken",
      "type": "error"
    },
    {
      "inputs": [],
      "name": "InvalidUserTimeout",
      "type": "error"
    },
    {
      "inputs": [],
      "name": "JobOutputAlreadyReceived",
      "type": "error"
    },
    {
      "inputs": [],
      "name": "NotInitializing",
      "type": "error"
    },
    {
      "inputs": [],
      "name": "OverallTimeoutNotOver",
      "type": "error"
    },
    {
      "inputs": [],
      "name": "OverallTimeoutOver",
      "type": "error"
    },
    {
      "inputs": [],
      "name": "UUPSUnauthorizedCallContext",
      "type": "error"
    },
    {
      "inputs": [
        {
          "internalType": "bytes32",
          "name": "slot",
          "type": "bytes32"
        }
      ],
      "name": "UUPSUnsupportedProxiableUUID",
      "type": "error"
    },
    {
      "anonymous": false,
      "inputs": [
        {
          "indexed": true,
          "internalType": "bytes32",
          "name": "imageId",
          "type": "bytes32"
        },
        {
          "indexed": false,
          "internalType": "bytes32",
          "name": "family",
          "type": "bytes32"
        }
      ],
      "name": "EnclaveImageAddedToFamily",
      "type": "event"
    },
    {
      "anonymous": false,
      "inputs": [
        {
          "indexed": true,
          "internalType": "bytes32",
          "name": "imageId",
          "type": "bytes32"
        },
        {
          "indexed": false,
          "internalType": "bytes32",
          "name": "family",
          "type": "bytes32"
        }
      ],
      "name": "EnclaveImageRemovedFromFamily",
      "type": "event"
    },
    {
      "anonymous": false,
      "inputs": [
        {
          "indexed": true,
          "internalType": "bytes32",
          "name": "imageId",
          "type": "bytes32"
        }
      ],
      "name": "EnclaveImageRevoked",
      "type": "event"
    },
    {
      "anonymous": false,
      "inputs": [
        {
          "indexed": true,
          "internalType": "bytes32",
          "name": "imageId",
          "type": "bytes32"
        },
        {
          "indexed": false,
          "internalType": "bytes",
          "name": "PCR0",
          "type": "bytes"
        },
        {
          "indexed": false,
          "internalType": "bytes",
          "name": "PCR1",
          "type": "bytes"
        },
        {
          "indexed": false,
          "internalType": "bytes",
          "name": "PCR2",
          "type": "bytes"
        }
      ],
      "name": "EnclaveImageWhitelisted",
      "type": "event"
    },
    {
      "anonymous": false,
      "inputs": [
        {
          "indexed": true,
          "internalType": "bytes",
          "name": "enclavePubKey",
          "type": "bytes"
        }
      ],
      "name": "EnclaveKeyRevoked",
      "type": "event"
    },
    {
      "anonymous": false,
      "inputs": [
        {
          "indexed": true,
          "internalType": "address",
          "name": "enclaveKey",
          "type": "address"
        }
      ],
      "name": "EnclaveKeyRevoked2",
      "type": "event"
    },
    {
      "anonymous": false,
      "inputs": [
        {
          "indexed": true,
          "internalType": "bytes",
          "name": "enclavePubKey",
          "type": "bytes"
        },
        {
          "indexed": true,
          "internalType": "bytes32",
          "name": "imageId",
          "type": "bytes32"
        }
      ],
      "name": "EnclaveKeyVerified",
      "type": "event"
    },
    {
      "anonymous": false,
      "inputs": [
        {
          "indexed": true,
          "internalType": "bytes",
          "name": "enclavePubKey",
          "type": "bytes"
        },
        {
          "indexed": true,
          "internalType": "bytes32",
          "name": "imageId",
          "type": "bytes32"
        }
      ],
      "name": "EnclaveKeyWhitelisted",
      "type": "event"
    },
    {
      "anonymous": false,
      "inputs": [
        {
          "indexed": true,
          "internalType": "address",
          "name": "enclaveKey",
          "type": "address"
        }
      ],
      "name": "GatewayDeregistered",
      "type": "event"
    },
    {
      "anonymous": false,
      "inputs": [
        {
          "indexed": true,
          "internalType": "address",
          "name": "enclaveKey",
          "type": "address"
        },
        {
          "indexed": true,
          "internalType": "address",
          "name": "operator",
          "type": "address"
        }
      ],
      "name": "GatewayRegistered",
      "type": "event"
    },
    {
      "anonymous": false,
      "inputs": [
        {
          "indexed": false,
          "internalType": "uint64",
          "name": "version",
          "type": "uint64"
        }
      ],
      "name": "Initialized",
      "type": "event"
    },
    {
      "anonymous": false,
      "inputs": [
        {
          "indexed": true,
          "internalType": "uint256",
          "name": "jobId",
          "type": "uint256"
        }
      ],
      "name": "JobCancelled",
      "type": "event"
    },
    {
      "anonymous": false,
      "inputs": [
        {
          "indexed": true,
          "internalType": "uint256",
          "name": "jobId",
          "type": "uint256"
        },
        {
          "indexed": false,
          "internalType": "bytes32",
          "name": "codehash",
          "type": "bytes32"
        },
        {
          "indexed": false,
          "internalType": "bytes",
          "name": "codeInputs",
          "type": "bytes"
        },
        {
          "indexed": false,
          "internalType": "uint256",
          "name": "userTimeout",
          "type": "uint256"
        },
        {
          "indexed": false,
          "internalType": "uint256",
          "name": "maxGasPrice",
          "type": "uint256"
        },
        {
          "indexed": false,
          "internalType": "uint256",
          "name": "usdcDeposit",
          "type": "uint256"
        },
        {
          "indexed": false,
          "internalType": "uint256",
          "name": "callbackDeposit",
          "type": "uint256"
        },
        {
          "indexed": false,
          "internalType": "uint256",
          "name": "startTime",
          "type": "uint256"
        }
      ],
      "name": "JobRelayed",
      "type": "event"
    },
    {
      "anonymous": false,
      "inputs": [
        {
          "indexed": true,
          "internalType": "uint256",
          "name": "jobId",
          "type": "uint256"
        },
        {
          "indexed": false,
          "internalType": "bytes",
          "name": "output",
          "type": "bytes"
        },
        {
          "indexed": false,
          "internalType": "uint256",
          "name": "totalTime",
          "type": "uint256"
        },
        {
          "indexed": false,
          "internalType": "uint256",
          "name": "errorCode",
          "type": "uint256"
        },
        {
          "indexed": false,
          "internalType": "bool",
          "name": "success",
          "type": "bool"
        }
      ],
      "name": "JobResponded",
      "type": "event"
    },
    {
      "anonymous": false,
      "inputs": [
        {
          "indexed": true,
          "internalType": "bytes32",
          "name": "role",
          "type": "bytes32"
        },
        {
          "indexed": true,
          "internalType": "bytes32",
          "name": "previousAdminRole",
          "type": "bytes32"
        },
        {
          "indexed": true,
          "internalType": "bytes32",
          "name": "newAdminRole",
          "type": "bytes32"
        }
      ],
      "name": "RoleAdminChanged",
      "type": "event"
    },
    {
      "anonymous": false,
      "inputs": [
        {
          "indexed": true,
          "internalType": "bytes32",
          "name": "role",
          "type": "bytes32"
        },
        {
          "indexed": true,
          "internalType": "address",
          "name": "account",
          "type": "address"
        },
        {
          "indexed": true,
          "internalType": "address",
          "name": "sender",
          "type": "address"
        }
      ],
      "name": "RoleGranted",
      "type": "event"
    },
    {
      "anonymous": false,
      "inputs": [
        {
          "indexed": true,
          "internalType": "bytes32",
          "name": "role",
          "type": "bytes32"
        },
        {
          "indexed": true,
          "internalType": "address",
          "name": "account",
          "type": "address"
        },
        {
          "indexed": true,
          "internalType": "address",
          "name": "sender",
          "type": "address"
        }
      ],
      "name": "RoleRevoked",
      "type": "event"
    },
    {
      "anonymous": false,
      "inputs": [
        {
          "indexed": true,
          "internalType": "address",
          "name": "implementation",
          "type": "address"
        }
      ],
      "name": "Upgraded",
      "type": "event"
    },
    {
      "inputs": [],
      "name": "ATTESTATION_MAX_AGE",
      "outputs": [
        {
          "internalType": "uint256",
          "name": "",
          "type": "uint256"
        }
      ],
      "stateMutability": "view",
      "type": "function"
    },
    {
      "inputs": [],
      "name": "ATTESTATION_VERIFIER",
      "outputs": [
        {
          "internalType": "contract IAttestationVerifier",
          "name": "",
          "type": "address"
        }
      ],
      "stateMutability": "view",
      "type": "function"
    },
    {
      "inputs": [],
      "name": "DEFAULT_ADMIN_ROLE",
      "outputs": [
        {
          "internalType": "bytes32",
          "name": "",
          "type": "bytes32"
        }
      ],
      "stateMutability": "view",
      "type": "function"
    },
    {
      "inputs": [],
      "name": "GLOBAL_MAX_TIMEOUT",
      "outputs": [
        {
          "internalType": "uint256",
          "name": "",
          "type": "uint256"
        }
      ],
      "stateMutability": "view",
      "type": "function"
    },
    {
      "inputs": [],
      "name": "GLOBAL_MIN_TIMEOUT",
      "outputs": [
        {
          "internalType": "uint256",
          "name": "",
          "type": "uint256"
        }
      ],
      "stateMutability": "view",
      "type": "function"
    },
    {
      "inputs": [],
      "name": "OVERALL_TIMEOUT",
      "outputs": [
        {
          "internalType": "uint256",
          "name": "",
          "type": "uint256"
        }
      ],
      "stateMutability": "view",
      "type": "function"
    },
    {
      "inputs": [],
      "name": "TOKEN",
      "outputs": [
        {
          "internalType": "contract IERC20",
          "name": "",
          "type": "address"
        }
      ],
      "stateMutability": "view",
      "type": "function"
    },
    {
      "inputs": [],
      "name": "UPGRADE_INTERFACE_VERSION",
      "outputs": [
        {
          "internalType": "string",
          "name": "",
          "type": "string"
        }
      ],
      "stateMutability": "view",
      "type": "function"
    },
    {
      "inputs": [
        {
          "internalType": "address",
          "name": "_admin",
          "type": "address"
        },
        {
          "components": [
            {
              "internalType": "bytes",
              "name": "PCR0",
              "type": "bytes"
            },
            {
              "internalType": "bytes",
              "name": "PCR1",
              "type": "bytes"
            },
            {
              "internalType": "bytes",
              "name": "PCR2",
              "type": "bytes"
            }
          ],
          "internalType": "struct AttestationAutherUpgradeable.EnclaveImage[]",
          "name": "_images",
          "type": "tuple[]"
        }
      ],
      "name": "__RequestChainContract_init",
      "outputs": [],
      "stateMutability": "nonpayable",
      "type": "function"
    },
    {
      "inputs": [
        {
          "internalType": "bytes",
          "name": "_enclavePubKey",
          "type": "bytes"
        }
      ],
      "name": "deregisterGateway",
      "outputs": [],
      "stateMutability": "nonpayable",
      "type": "function"
    },
    {
      "inputs": [
        {
          "internalType": "address",
          "name": "",
          "type": "address"
        }
      ],
      "name": "gatewayOperators",
      "outputs": [
        {
          "internalType": "address",
          "name": "",
          "type": "address"
        }
      ],
      "stateMutability": "view",
      "type": "function"
    },
    {
      "inputs": [
        {
          "internalType": "bytes32",
          "name": "role",
          "type": "bytes32"
        }
      ],
      "name": "getRoleAdmin",
      "outputs": [
        {
          "internalType": "bytes32",
          "name": "",
          "type": "bytes32"
        }
      ],
      "stateMutability": "view",
      "type": "function"
    },
    {
      "inputs": [
        {
          "internalType": "address",
          "name": "_key",
          "type": "address"
        }
      ],
      "name": "getVerifiedKey",
      "outputs": [
        {
          "internalType": "bytes32",
          "name": "",
          "type": "bytes32"
        }
      ],
      "stateMutability": "view",
      "type": "function"
    },
    {
      "inputs": [
        {
          "internalType": "bytes32",
          "name": "_imageId",
          "type": "bytes32"
        }
      ],
      "name": "getWhitelistedImage",
      "outputs": [
        {
          "components": [
            {
              "internalType": "bytes",
              "name": "PCR0",
              "type": "bytes"
            },
            {
              "internalType": "bytes",
              "name": "PCR1",
              "type": "bytes"
            },
            {
              "internalType": "bytes",
              "name": "PCR2",
              "type": "bytes"
            }
          ],
          "internalType": "struct AttestationAutherUpgradeable.EnclaveImage",
          "name": "",
          "type": "tuple"
        }
      ],
      "stateMutability": "view",
      "type": "function"
    },
    {
      "inputs": [
        {
          "internalType": "bytes32",
          "name": "role",
          "type": "bytes32"
        },
        {
          "internalType": "address",
          "name": "account",
          "type": "address"
        }
      ],
      "name": "grantRole",
      "outputs": [],
      "stateMutability": "nonpayable",
      "type": "function"
    },
    {
      "inputs": [
        {
          "internalType": "bytes32",
          "name": "role",
          "type": "bytes32"
        },
        {
          "internalType": "address",
          "name": "account",
          "type": "address"
        }
      ],
      "name": "hasRole",
      "outputs": [
        {
          "internalType": "bool",
          "name": "",
          "type": "bool"
        }
      ],
      "stateMutability": "view",
      "type": "function"
    },
    {
      "inputs": [
        {
          "internalType": "bytes32",
          "name": "imageId",
          "type": "bytes32"
        },
        {
          "internalType": "bytes32",
          "name": "family",
          "type": "bytes32"
        }
      ],
      "name": "isImageInFamily",
      "outputs": [
        {
          "internalType": "bool",
          "name": "",
          "type": "bool"
        }
      ],
      "stateMutability": "view",
      "type": "function"
    },
    {
      "inputs": [
        {
          "internalType": "uint256",
          "name": "_jobId",
          "type": "uint256"
        }
      ],
      "name": "jobCancel",
      "outputs": [],
      "stateMutability": "nonpayable",
      "type": "function"
    },
    {
      "inputs": [],
      "name": "jobCount",
      "outputs": [
        {
          "internalType": "uint256",
          "name": "",
          "type": "uint256"
        }
      ],
      "stateMutability": "view",
      "type": "function"
    },
    {
      "inputs": [
        {
          "internalType": "bytes",
          "name": "_signature",
          "type": "bytes"
        },
        {
          "internalType": "uint256",
          "name": "_jobId",
          "type": "uint256"
        },
        {
          "internalType": "bytes",
          "name": "_output",
          "type": "bytes"
        },
        {
          "internalType": "uint256",
          "name": "_totalTime",
          "type": "uint256"
        },
        {
          "internalType": "uint8",
          "name": "_errorCode",
          "type": "uint8"
        }
      ],
      "name": "jobResponse",
      "outputs": [],
      "stateMutability": "nonpayable",
      "type": "function"
    },
    {
      "inputs": [
        {
          "internalType": "uint256",
          "name": "",
          "type": "uint256"
        }
      ],
      "name": "jobs",
      "outputs": [
        {
          "internalType": "bytes32",
          "name": "codehash",
          "type": "bytes32"
        },
        {
          "internalType": "uint256",
          "name": "userTimeout",
          "type": "uint256"
        },
        {
          "internalType": "uint256",
          "name": "startTime",
          "type": "uint256"
        },
        {
          "internalType": "uint256",
          "name": "maxGasPrice",
          "type": "uint256"
        },
        {
          "internalType": "uint256",
          "name": "usdcDeposit",
          "type": "uint256"
        },
        {
          "internalType": "uint256",
          "name": "callbackDeposit",
          "type": "uint256"
        },
        {
          "internalType": "bytes",
          "name": "codeInputs",
          "type": "bytes"
        },
        {
          "internalType": "address",
          "name": "jobOwner",
          "type": "address"
        },
        {
          "internalType": "bool",
          "name": "receivedOutput",
          "type": "bool"
        }
      ],
      "stateMutability": "view",
      "type": "function"
    },
    {
      "inputs": [],
      "name": "proxiableUUID",
      "outputs": [
        {
          "internalType": "bytes32",
          "name": "",
          "type": "bytes32"
        }
      ],
      "stateMutability": "view",
      "type": "function"
    },
    {
      "inputs": [
        {
          "internalType": "bytes",
          "name": "_attestation",
          "type": "bytes"
        },
        {
          "internalType": "bytes",
          "name": "_enclavePubKey",
          "type": "bytes"
        },
        {
          "internalType": "bytes",
          "name": "_PCR0",
          "type": "bytes"
        },
        {
          "internalType": "bytes",
          "name": "_PCR1",
          "type": "bytes"
        },
        {
          "internalType": "bytes",
          "name": "_PCR2",
          "type": "bytes"
        },
        {
          "internalType": "uint256",
          "name": "_timestampInMilliseconds",
          "type": "uint256"
        }
      ],
      "name": "registerGateway",
      "outputs": [],
      "stateMutability": "nonpayable",
      "type": "function"
    },
    {
      "inputs": [
        {
          "internalType": "bytes32",
          "name": "_codehash",
          "type": "bytes32"
        },
        {
          "internalType": "bytes",
          "name": "_codeInputs",
          "type": "bytes"
        },
        {
          "internalType": "uint256",
          "name": "_userTimeout",
          "type": "uint256"
        },
        {
          "internalType": "uint256",
          "name": "_maxGasPrice",
          "type": "uint256"
        },
        {
          "internalType": "uint256",
          "name": "_usdcDeposit",
          "type": "uint256"
        },
        {
          "internalType": "uint256",
          "name": "_callbackDeposit",
          "type": "uint256"
        }
      ],
      "name": "relayJob",
      "outputs": [],
      "stateMutability": "nonpayable",
      "type": "function"
    },
    {
      "inputs": [
        {
          "internalType": "bytes32",
          "name": "role",
          "type": "bytes32"
        },
        {
          "internalType": "address",
          "name": "callerConfirmation",
          "type": "address"
        }
      ],
      "name": "renounceRole",
      "outputs": [],
      "stateMutability": "nonpayable",
      "type": "function"
    },
    {
      "inputs": [
        {
          "internalType": "bytes32",
          "name": "role",
          "type": "bytes32"
        },
        {
          "internalType": "address",
          "name": "account",
          "type": "address"
        }
      ],
      "name": "revokeRole",
      "outputs": [],
      "stateMutability": "nonpayable",
      "type": "function"
    },
    {
      "inputs": [
        {
          "internalType": "bytes4",
          "name": "interfaceId",
          "type": "bytes4"
        }
      ],
      "name": "supportsInterface",
      "outputs": [
        {
          "internalType": "bool",
          "name": "",
          "type": "bool"
        }
      ],
      "stateMutability": "view",
      "type": "function"
    },
    {
      "inputs": [
        {
          "internalType": "address",
          "name": "newImplementation",
          "type": "address"
        },
        {
          "internalType": "bytes",
          "name": "data",
          "type": "bytes"
        }
      ],
      "name": "upgradeToAndCall",
      "outputs": [],
      "stateMutability": "payable",
      "type": "function"
    },
    {
      "inputs": [
        {
          "internalType": "bytes",
          "name": "signature",
          "type": "bytes"
        },
        {
          "components": [
            {
              "internalType": "bytes",
              "name": "enclavePubKey",
              "type": "bytes"
            },
            {
              "internalType": "bytes",
              "name": "PCR0",
              "type": "bytes"
            },
            {
              "internalType": "bytes",
              "name": "PCR1",
              "type": "bytes"
            },
            {
              "internalType": "bytes",
              "name": "PCR2",
              "type": "bytes"
            },
            {
              "internalType": "uint256",
              "name": "timestampInMilliseconds",
              "type": "uint256"
            }
          ],
          "internalType": "struct IAttestationVerifier.Attestation",
          "name": "attestation",
          "type": "tuple"
        }
      ],
      "name": "verifyEnclaveKey",
      "outputs": [
        {
          "internalType": "bool",
          "name": "",
          "type": "bool"
        }
      ],
      "stateMutability": "nonpayable",
      "type": "function"
    }
  ],
  "bytecode": "0x6101606040523060805234801561001557600080fd5b5060405161378838038061378883398101604081905261003491610181565b6001600160a01b03861660a05260c085905261004e6100ba565b6001600160a01b0384166100755760405163c1ab6dc160e01b815260040160405180910390fd5b6001600160a01b03841660e0528183106100a25760405163a0f6432160e01b815260040160405180910390fd5b610100929092526101205261014052506101e0915050565b7ff0c57e16840df040f15088dc2f81fe391c3923bec73e23a9662efc9c229c6a00805468010000000000000000900460ff161561010a5760405163f92ee8a960e01b815260040160405180910390fd5b80546001600160401b03908116146101695780546001600160401b0319166001600160401b0390811782556040519081527fc7f505b2f371ae2175ee4913f4499e1f2633a7b5936321eed1cdaeb6115181d29060200160405180910390a15b50565b6001600160a01b038116811461016957600080fd5b60008060008060008060c0878903121561019a57600080fd5b86516101a58161016c565b6020880151604089015191975095506101bd8161016c565b80945050606087015192506080870151915060a087015190509295509295509295565b60805160a05160c05160e0516101005161012051610140516135166102726000396000818161043501528181610ec301526113bc0152600081816106c6015261076a0152600081816102c70152610740015260006105020152600081816105b30152611d740152600081816106520152611e12015260008181611a8101528181611aaa0152611c6201526135166000f3fe6080604052600436106101c15760003560e01c806358a14ad2116100f7578063a217fddf11610095578063e0aba60a11610064578063e0aba60a14610694578063e29fcdc5146106b4578063f398cc74146106e8578063ff9334241461070857600080fd5b8063a217fddf146105d5578063ad3cb1cc146105ea578063cd79f90614610640578063d547741f1461067457600080fd5b8063785a1717116100d1578063785a1717146104d057806382bfefc8146104f057806391d148541461053c5780639aec990e146105a157600080fd5b806358a14ad2146104235780636b5b21a61461045757806375847b84146104b057600080fd5b80632f2ff15d116101645780634c5d8a0f1161013e5780634c5d8a0f146103c55780634db9394b146103db5780634f1ef286146103fb57806352d1902d1461040e57600080fd5b80632f2ff15d1461036557806336568abe1461038557806345cceaac146103a557600080fd5b8063180aedf3116101a0578063180aedf3146102805780631e3708df146102b55780632410f6ba146102e9578063248a9ca31461031657600080fd5b8062292ea3146101c657806301d58fa3146101e857806301ffc9a714610250575b600080fd5b3480156101d257600080fd5b506101e66101e1366004612911565b61073e565b005b3480156101f457600080fd5b5061023d610203366004612997565b6001600160a01b031660009081527fc17b4b708b6f44255c20913a9d97a05300b670342c71fe5ae5b617bd4db55001602052604090205490565b6040519081526020015b60405180910390f35b34801561025c57600080fd5b5061027061026b3660046129b2565b61093d565b6040519015158152602001610247565b34801561028c57600080fd5b506102a061029b3660046129f4565b61094e565b60405161024799989796959493929190612a5d565b3480156102c157600080fd5b5061023d7f000000000000000000000000000000000000000000000000000000000000000081565b3480156102f557600080fd5b506103096103043660046129f4565b610a45565b6040516102479190612abd565b34801561032257600080fd5b5061023d6103313660046129f4565b60009081527f02dd7bc7dec4dceedda775e58dd541e08a116c6c53815c0bd028192f7b626800602052604090206001015490565b34801561037157600080fd5b506101e6610380366004612b15565b610c63565b34801561039157600080fd5b506101e66103a0366004612b15565b610cad565b3480156103b157600080fd5b506101e66103c0366004612b41565b610cfe565b3480156103d157600080fd5b5061023d60025481565b3480156103e757600080fd5b506101e66103f6366004612c99565b610eab565b6101e6610409366004612d2b565b61100e565b34801561041a57600080fd5b5061023d61102d565b34801561042f57600080fd5b5061023d7f000000000000000000000000000000000000000000000000000000000000000081565b34801561046357600080fd5b50610270610472366004612d79565b60009081527fc17b4b708b6f44255c20913a9d97a05300b670342c71fe5ae5b617bd4db5500260209081526040808320938352929052205460ff1690565b3480156104bc57600080fd5b506102706104cb366004612d9b565b61105c565b3480156104dc57600080fd5b506101e66104eb366004612ea5565b61106f565b3480156104fc57600080fd5b506105247f000000000000000000000000000000000000000000000000000000000000000081565b6040516001600160a01b039091168152602001610247565b34801561054857600080fd5b50610270610557366004612b15565b60009182527f02dd7bc7dec4dceedda775e58dd541e08a116c6c53815c0bd028192f7b626800602090815260408084206001600160a01b0393909316845291905290205460ff1690565b3480156105ad57600080fd5b5061023d7f000000000000000000000000000000000000000000000000000000000000000081565b3480156105e157600080fd5b5061023d600081565b3480156105f657600080fd5b506106336040518060400160405280600581526020017f352e302e3000000000000000000000000000000000000000000000000000000081525081565b6040516102479190612f7f565b34801561064c57600080fd5b506105247f000000000000000000000000000000000000000000000000000000000000000081565b34801561068057600080fd5b506101e661068f366004612b15565b611175565b3480156106a057600080fd5b506101e66106af366004612f92565b6111b9565b3480156106c057600080fd5b5061023d7f000000000000000000000000000000000000000000000000000000000000000081565b3480156106f457600080fd5b506101e66107033660046129f4565b6112eb565b34801561071457600080fd5b50610524610723366004612997565b6000602081905290815260409020546001600160a01b031681565b7f00000000000000000000000000000000000000000000000000000000000000008411158061078d57507f00000000000000000000000000000000000000000000000000000000000000008410155b156107c4576040517f81fc3f3800000000000000000000000000000000000000000000000000000000815260040160405180910390fd5b6040518061012001604052808781526020018581526020014281526020018481526020018381526020018281526020018681526020016108013390565b6001600160a01b03168152602001600015158152506001600060026000815461082990612ffe565b918290555081526020808201929092526040908101600020835181559183015160018301558201516002820155606082015160038201556080820151600482015560a0820151600582015560c0820151600682019061088890826130d9565b5060e08201516007909101805461010090930151151574010000000000000000000000000000000000000000027fffffffffffffffffffffff0000000000000000000000000000000000000000009093166001600160a01b03909216919091179190911790556002546040517f9b4bc5e4e58f6cfa2f901b02bfe1fc6914f7fc1061cd9e2019bf5dd28058068f9061092d9089908990899089908990899042906131d5565b60405180910390a2505050505050565b6000610948826114b5565b92915050565b600160205280600052604060002060009150905080600001549080600101549080600201549080600301549080600401549080600501549080600601805461099590613036565b80601f01602080910402602001604051908101604052809291908181526020018280546109c190613036565b8015610a0e5780601f106109e357610100808354040283529160200191610a0e565b820191906000526020600020905b8154815290600101906020018083116109f157829003601f168201915b505050600790930154919250506001600160a01b0381169060ff740100000000000000000000000000000000000000009091041689565b610a6960405180606001604052806060815260200160608152602001606081525090565b60008281527fc17b4b708b6f44255c20913a9d97a05300b670342c71fe5ae5b617bd4db550006020819052604091829020825160608101909352805491929182908290610ab590613036565b80601f0160208091040260200160405190810160405280929190818152602001828054610ae190613036565b8015610b2e5780601f10610b0357610100808354040283529160200191610b2e565b820191906000526020600020905b815481529060010190602001808311610b1157829003601f168201915b50505050508152602001600182018054610b4790613036565b80601f0160208091040260200160405190810160405280929190818152602001828054610b7390613036565b8015610bc05780601f10610b9557610100808354040283529160200191610bc0565b820191906000526020600020905b815481529060010190602001808311610ba357829003601f168201915b50505050508152602001600282018054610bd990613036565b80601f0160208091040260200160405190810160405280929190818152602001828054610c0590613036565b8015610c525780601f10610c2757610100808354040283529160200191610c52565b820191906000526020600020905b815481529060010190602001808311610c3557829003601f168201915b505050505081525050915050919050565b60008281527f02dd7bc7dec4dceedda775e58dd541e08a116c6c53815c0bd028192f7b6268006020526040902060010154610c9d8161154c565b610ca78383611559565b50505050565b6001600160a01b0381163314610cef576040517f6697b23200000000000000000000000000000000000000000000000000000000815260040160405180910390fd5b610cf98282611646565b505050565b7ff0c57e16840df040f15088dc2f81fe391c3923bec73e23a9662efc9c229c6a00805468010000000000000000810460ff16159067ffffffffffffffff16600081158015610d495750825b905060008267ffffffffffffffff166001148015610d665750303b155b905081158015610d74575080155b15610dab576040517ff92ee8a900000000000000000000000000000000000000000000000000000000815260040160405180910390fd5b84547fffffffffffffffffffffffffffffffffffffffffffffffff00000000000000001660011785558315610e0c5784547fffffffffffffffffffffffffffffffffffffffffffffff00ffffffffffffffff16680100000000000000001785555b610e1461170a565b610e1c61170a565b610e2461170a565b610e2c61170a565b610e3586611714565b610e40600088611559565b508315610ea25784547fffffffffffffffffffffffffffffffffffffffffffffff00ffffffffffffffff168555604051600181527fc7f505b2f371ae2175ee4913f4499e1f2633a7b5936321eed1cdaeb6115181d29060200160405180910390a15b50505050505050565b600084815260016020526040902060020154610ee8907f000000000000000000000000000000000000000000000000000000000000000090613218565b421115610f21576040517f3d14fbc300000000000000000000000000000000000000000000000000000000815260040160405180910390fd5b600084848484604051602001610f3a949392919061322b565b60408051601f19818403018152919052805160209091012090506000610f608288611754565b9050610f6b8161177e565b600086815260016020526040812060070180547fffffffffffffffffffffff00ffffffffffffffffffffffffffffffffffffffff1674010000000000000000000000000000000000000000179055610fc4878786611863565b9050867f3bcf275077501f1077e75b4e70896bf241dc8cbeec71823201ef711cfc454ea187878785604051610ffc9493929190613285565b60405180910390a25050505050505050565b611016611a76565b61101f82611b46565b6110298282611b51565b5050565b6000611037611c57565b507f360894a13ba1a3210667c828492db98dca3e2076cc3735a920a3ca505d382bbc90565b60006110688383611cb9565b9392505050565b61109f866040518060a0016040528088815260200187815260200186815260200185815260200184815250611cb9565b5060006110ab86611f21565b6001600160a01b038082166000908152602081905260409020549192501615611100576040517f5104a0b800000000000000000000000000000000000000000000000000000000815260040160405180910390fd5b6001600160a01b03811660008181526020819052604080822080547fffffffffffffffffffffffff0000000000000000000000000000000000000000163390811790915590519092917f95f86f0783d4494f76a6aeaa178c399f2c6a140aa3e88d39f056b00f460d359a91a350505050505050565b60008281527f02dd7bc7dec4dceedda775e58dd541e08a116c6c53815c0bd028192f7b62680060205260409020600101546111af8161154c565b610ca78383611646565b60006111c482611f21565b6001600160a01b0380821660009081526020819052604090205491925016331461121a576040517f0c87f49500000000000000000000000000000000000000000000000000000000815260040160405180910390fd5b6001600160a01b038181166000908152602081905260409020541661126b576040517fd283335d00000000000000000000000000000000000000000000000000000000815260040160405180910390fd5b6001600160a01b038116600090815260208190526040902080547fffffffffffffffffffffffff00000000000000000000000000000000000000001690556112b282611f6a565b506040516001600160a01b038216907f962f6082057b3b4fb251973bd737c7707bf1733cf85a0b7c86fd6c3caca260c590600090a25050565b60008181526001602052604090206007015481906001600160a01b03163314611340576040517fe12233c300000000000000000000000000000000000000000000000000000000815260040160405180910390fd5b60008281526001602052604090206007015474010000000000000000000000000000000000000000900460ff16156113a4576040517f15cb8eb600000000000000000000000000000000000000000000000000000000815260040160405180910390fd5b6000828152600160205260409020600201546113e1907f000000000000000000000000000000000000000000000000000000000000000090613218565b4211611419576040517fa033327700000000000000000000000000000000000000000000000000000000815260040160405180910390fd5b60008281526001602081905260408220828155908101829055600281018290556003810182905560048101829055600581018290559061145c60068301826127a7565b5060070180547fffffffffffffffffffffff00000000000000000000000000000000000000000016905560405182907f58243f872c550ad02802199ade99eb4250f6bb19e9abbf2d3de7b969c0eb5e4f90600090a25050565b60007fffffffff0000000000000000000000000000000000000000000000000000000082167f7965db0b00000000000000000000000000000000000000000000000000000000148061094857507f01ffc9a7000000000000000000000000000000000000000000000000000000007fffffffff00000000000000000000000000000000000000000000000000000000831614610948565b6115568133611fd5565b50565b60008281527f02dd7bc7dec4dceedda775e58dd541e08a116c6c53815c0bd028192f7b626800602081815260408084206001600160a01b038616855290915282205460ff1661163c576000848152602082815260408083206001600160a01b0387168452909152902080547fffffffffffffffffffffffffffffffffffffffffffffffffffffffffffffff001660011790556115f23390565b6001600160a01b0316836001600160a01b0316857f2f8788117e7eff1d82e926ec794901d17c78024a50270940304540a733656f0d60405160405180910390a46001915050610948565b6000915050610948565b60008281527f02dd7bc7dec4dceedda775e58dd541e08a116c6c53815c0bd028192f7b626800602081815260408084206001600160a01b038616855290915282205460ff161561163c576000848152602082815260408083206001600160a01b038716808552925280832080547fffffffffffffffffffffffffffffffffffffffffffffffffffffffffffffff0016905551339287917ff6391f5c32d9c69d2a47ea670b442974b53935d1edc7fd64eb21e047a839171b9190a46001915050610948565b611712612062565b565b61171c612062565b60005b81518110156110295761174a82828151811061173d5761173d6132b9565b60200260200101516120c9565b505060010161171f565b6000806000806117648686612271565b92509250925061177482826122be565b5090949350505050565b6001600160a01b03811660009081527fc17b4b708b6f44255c20913a9d97a05300b670342c71fe5ae5b617bd4db5500160205260409020547fc17b4b708b6f44255c20913a9d97a05300b670342c71fe5ae5b617bd4db55000908061180f576040517f3dd8ca9500000000000000000000000000000000000000000000000000000000815260040160405180910390fd5b6000818152602083905260409020805461182890613036565b9050600003610cf9576040517f38c4ac1600000000000000000000000000000000000000000000000000000000815260040160405180910390fd5b60008060016000868152602001908152602001600020604051806101200160405290816000820154815260200160018201548152602001600282015481526020016003820154815260200160048201548152602001600582015481526020016006820180546118d190613036565b80601f01602080910402602001604051908101604052809291908181526020018280546118fd90613036565b801561194a5780601f1061191f5761010080835404028352916020019161194a565b820191906000526020600020905b81548152906001019060200180831161192d57829003601f168201915b5050509183525050600791909101546001600160a01b0380821660208401527401000000000000000000000000000000000000000090910460ff16151560409092019190915260e082015160a08301519293506000929116906119ae903a906132e8565b8787876040516024016119c393929190613323565b60408051601f198184030181529181526020820180517bffffffffffffffffffffffffffffffffffffffffffffffffffffffff167f5d4b82380000000000000000000000000000000000000000000000000000000017905251611a26919061334f565b60006040518083038160008787f1925050503d8060008114611a64576040519150601f19603f3d011682016040523d82523d6000602084013e611a69565b606091505b5090979650505050505050565b306001600160a01b037f0000000000000000000000000000000000000000000000000000000000000000161480611b0f57507f00000000000000000000000000000000000000000000000000000000000000006001600160a01b0316611b037f360894a13ba1a3210667c828492db98dca3e2076cc3735a920a3ca505d382bbc546001600160a01b031690565b6001600160a01b031614155b15611712576040517fe07c8dba00000000000000000000000000000000000000000000000000000000815260040160405180910390fd5b60006110298161154c565b816001600160a01b03166352d1902d6040518163ffffffff1660e01b8152600401602060405180830381865afa925050508015611bab575060408051601f3d908101601f19168201909252611ba89181019061336b565b60015b611bf1576040517f4c9c8ce30000000000000000000000000000000000000000000000000000000081526001600160a01b03831660048201526024015b60405180910390fd5b7f360894a13ba1a3210667c828492db98dca3e2076cc3735a920a3ca505d382bbc8114611c4d576040517faa1d49a400000000000000000000000000000000000000000000000000000000815260048101829052602401611be8565b610cf983836123c2565b306001600160a01b037f00000000000000000000000000000000000000000000000000000000000000001614611712576040517fe07c8dba00000000000000000000000000000000000000000000000000000000815260040160405180910390fd5b6000807fc17b4b708b6f44255c20913a9d97a05300b670342c71fe5ae5b617bd4db5500090506000836020015184604001518560600151604051602001611d0293929190613384565b60408051601f1981840301815291815281516020928301206000818152928590529120805491925090611d3490613036565b9050600003611d6f576040517f38c4ac1600000000000000000000000000000000000000000000000000000000815260040160405180910390fd5b611d997f0000000000000000000000000000000000000000000000000000000000000000426133c7565b6103e88560800151611dab91906132e8565b11611de2576040517f19605e0a00000000000000000000000000000000000000000000000000000000815260040160405180910390fd5b6040517feac708a30000000000000000000000000000000000000000000000000000000081526001600160a01b037f0000000000000000000000000000000000000000000000000000000000000000169063eac708a390611e4990889088906004016133da565b60006040518083038186803b158015611e6157600080fd5b505afa158015611e75573d6000803e3d6000fd5b505050506000611e888560000151611f21565b6001600160a01b038116600090815260018501602052604090205490915015611eb75760009350505050610948565b6001600160a01b038116600090815260018401602052604090819020839055855190518391611ee59161334f565b604051908190038120907ff4837f1a66a1e5fbde2c40d0f6eff75183139e79b0fc1eaab280a3a0be38e7b190600090a350600195945050505050565b60008151604014611f5e576040517fbd9c80c100000000000000000000000000000000000000000000000000000000815260040160405180910390fd5b50805160209091012090565b600080611f7683611f21565b9050611f8181612418565b611f8e5750600092915050565b82604051611f9c919061334f565b604051908190038120907ff910fd78b98e9574e8b6f0e42bc3a996a6aba3776ec20b9d85515bd74a6c8fe990600090a250600192915050565b60008281527f02dd7bc7dec4dceedda775e58dd541e08a116c6c53815c0bd028192f7b626800602090815260408083206001600160a01b038516845290915290205460ff16611029576040517fe2517d3f0000000000000000000000000000000000000000000000000000000081526001600160a01b038216600482015260248101839052604401611be8565b7ff0c57e16840df040f15088dc2f81fe391c3923bec73e23a9662efc9c229c6a005468010000000000000000900460ff16611712576040517fd7e6bcf800000000000000000000000000000000000000000000000000000000815260040160405180910390fd5b80515160009081907fc17b4b708b6f44255c20913a9d97a05300b670342c71fe5ae5b617bd4db5500090603014801561210757508360200151516030145b801561211857508360400151516030145b61214e576040517f84c61bb600000000000000000000000000000000000000000000000000000000815260040160405180910390fd5b600084600001518560200151866040015160405160200161217193929190613384565b60408051601f19818403018152918152815160209283012060008181529285905291208054919250906121a390613036565b1590506121b557946000945092505050565b604080516060810182528651815260208088015181830152878301518284015260008481529085905291909120815181906121f090826130d9565b506020820151600182019061220590826130d9565b506040820151600282019061221a90826130d9565b50905050807f52b29bbdd97ab983419f50fa1590e5ab75e9942279e95e10a08607b06c23238b86600001518760200151886040015160405161225e9392919061346e565b60405180910390a2946001945092505050565b600080600083516041036122ab5760208401516040850151606086015160001a61229d888285856124cb565b9550955095505050506122b7565b50508151600091506002905b9250925092565b60008260038111156122d2576122d26134b1565b036122db575050565b60018260038111156122ef576122ef6134b1565b03612326576040517ff645eedf00000000000000000000000000000000000000000000000000000000815260040160405180910390fd5b600282600381111561233a5761233a6134b1565b03612374576040517ffce698f700000000000000000000000000000000000000000000000000000000815260048101829052602401611be8565b6003826003811115612388576123886134b1565b03611029576040517fd78bce0c00000000000000000000000000000000000000000000000000000000815260048101829052602401611be8565b6123cb8261259a565b6040516001600160a01b038316907fbc7cd75a20ee27fd9adebab32041f755214dbc6bffa90cc0225b39da2e5c2d3b90600090a280511561241057610cf98282612642565b6110296126b8565b6001600160a01b03811660009081527fc17b4b708b6f44255c20913a9d97a05300b670342c71fe5ae5b617bd4db5500160205260408120547fc17b4b708b6f44255c20913a9d97a05300b670342c71fe5ae5b617bd4db550009061247f5750600092915050565b6001600160a01b0383166000818152600183016020526040808220829055517f43c77bddb18405fd78819d1d0a8a4e38d3ebc4c6fae9f7ec04ae0c0f7527b5079190a250600192915050565b600080807f7fffffffffffffffffffffffffffffff5d576e7357a4501ddfe92f46681b20a08411156125065750600091506003905082612590565b604080516000808252602082018084528a905260ff891692820192909252606081018790526080810186905260019060a0016020604051602081039080840390855afa15801561255a573d6000803e3d6000fd5b5050604051601f1901519150506001600160a01b03811661258657506000925060019150829050612590565b9250600091508190505b9450945094915050565b806001600160a01b03163b6000036125e9576040517f4c9c8ce30000000000000000000000000000000000000000000000000000000081526001600160a01b0382166004820152602401611be8565b7f360894a13ba1a3210667c828492db98dca3e2076cc3735a920a3ca505d382bbc80547fffffffffffffffffffffffff0000000000000000000000000000000000000000166001600160a01b0392909216919091179055565b6060600080846001600160a01b03168460405161265f919061334f565b600060405180830381855af49150503d806000811461269a576040519150601f19603f3d011682016040523d82523d6000602084013e61269f565b606091505b50915091506126af8583836126f0565b95945050505050565b3415611712576040517fb398979f00000000000000000000000000000000000000000000000000000000815260040160405180910390fd5b6060826127055761270082612765565b611068565b815115801561271c57506001600160a01b0384163b155b1561275e576040517f9996b3150000000000000000000000000000000000000000000000000000000081526001600160a01b0385166004820152602401611be8565b5080611068565b8051156127755780518082602001fd5b6040517f1425ea4200000000000000000000000000000000000000000000000000000000815260040160405180910390fd5b5080546127b390613036565b6000825580601f106127c3575050565b601f01602090049060005260206000209081019061155691905b808211156127f157600081556001016127dd565b5090565b7f4e487b7100000000000000000000000000000000000000000000000000000000600052604160045260246000fd5b6040516060810167ffffffffffffffff81118282101715612847576128476127f5565b60405290565b60405160a0810167ffffffffffffffff81118282101715612847576128476127f5565b604051601f8201601f1916810167ffffffffffffffff81118282101715612899576128996127f5565b604052919050565b600082601f8301126128b257600080fd5b813567ffffffffffffffff8111156128cc576128cc6127f5565b6128df6020601f19601f84011601612870565b8181528460208386010111156128f457600080fd5b816020850160208301376000918101602001919091529392505050565b60008060008060008060c0878903121561292a57600080fd5b86359550602087013567ffffffffffffffff81111561294857600080fd5b61295489828a016128a1565b96999698505050506040850135946060810135946080820135945060a09091013592509050565b80356001600160a01b038116811461299257600080fd5b919050565b6000602082840312156129a957600080fd5b6110688261297b565b6000602082840312156129c457600080fd5b81357fffffffff000000000000000000000000000000000000000000000000000000008116811461106857600080fd5b600060208284031215612a0657600080fd5b5035919050565b60005b83811015612a28578181015183820152602001612a10565b50506000910152565b60008151808452612a49816020860160208601612a0d565b601f01601f19169290920160200192915050565b60006101208b83528a60208401528960408401528860608401528760808401528660a08401528060c0840152612a9581840187612a31565b6001600160a01b039590951660e0840152505090151561010090910152979650505050505050565b602081526000825160606020840152612ad96080840182612a31565b90506020840151601f1980858403016040860152612af78383612a31565b92506040860151915080858403016060860152506126af8282612a31565b60008060408385031215612b2857600080fd5b82359150612b386020840161297b565b90509250929050565b60008060408385031215612b5457600080fd5b612b5d8361297b565b915060208084013567ffffffffffffffff80821115612b7b57600080fd5b818601915086601f830112612b8f57600080fd5b813581811115612ba157612ba16127f5565b8060051b612bb0858201612870565b918252838101850191858101908a841115612bca57600080fd5b86860192505b83831015612c8857823585811115612be85760008081fd5b86016060818d03601f1901811315612c005760008081fd5b612c08612824565b8983013588811115612c1a5760008081fd5b612c288f8c838701016128a1565b825250604083013588811115612c3e5760008081fd5b612c4c8f8c838701016128a1565b828c015250908201359087821115612c645760008081fd5b612c728e8b848601016128a1565b6040820152845250509186019190860190612bd0565b809750505050505050509250929050565b600080600080600060a08688031215612cb157600080fd5b853567ffffffffffffffff80821115612cc957600080fd5b612cd589838a016128a1565b9650602088013595506040880135915080821115612cf257600080fd5b50612cff888289016128a1565b93505060608601359150608086013560ff81168114612d1d57600080fd5b809150509295509295909350565b60008060408385031215612d3e57600080fd5b612d478361297b565b9150602083013567ffffffffffffffff811115612d6357600080fd5b612d6f858286016128a1565b9150509250929050565b60008060408385031215612d8c57600080fd5b50508035926020909101359150565b60008060408385031215612dae57600080fd5b823567ffffffffffffffff80821115612dc657600080fd5b612dd2868387016128a1565b93506020850135915080821115612de857600080fd5b9084019060a08287031215612dfc57600080fd5b612e0461284d565b823582811115612e1357600080fd5b612e1f888286016128a1565b825250602083013582811115612e3457600080fd5b612e40888286016128a1565b602083015250604083013582811115612e5857600080fd5b612e64888286016128a1565b604083015250606083013582811115612e7c57600080fd5b612e88888286016128a1565b606083015250608083013560808201528093505050509250929050565b60008060008060008060c08789031215612ebe57600080fd5b863567ffffffffffffffff80821115612ed657600080fd5b612ee28a838b016128a1565b97506020890135915080821115612ef857600080fd5b612f048a838b016128a1565b96506040890135915080821115612f1a57600080fd5b612f268a838b016128a1565b95506060890135915080821115612f3c57600080fd5b612f488a838b016128a1565b94506080890135915080821115612f5e57600080fd5b50612f6b89828a016128a1565b92505060a087013590509295509295509295565b6020815260006110686020830184612a31565b600060208284031215612fa457600080fd5b813567ffffffffffffffff811115612fbb57600080fd5b612fc7848285016128a1565b949350505050565b7f4e487b7100000000000000000000000000000000000000000000000000000000600052601160045260246000fd5b60007fffffffffffffffffffffffffffffffffffffffffffffffffffffffffffffffff820361302f5761302f612fcf565b5060010190565b600181811c9082168061304a57607f821691505b602082108103613083577f4e487b7100000000000000000000000000000000000000000000000000000000600052602260045260246000fd5b50919050565b601f821115610cf9576000816000526020600020601f850160051c810160208610156130b25750805b601f850160051c820191505b818110156130d1578281556001016130be565b505050505050565b815167ffffffffffffffff8111156130f3576130f36127f5565b613107816131018454613036565b84613089565b602080601f83116001811461315a57600084156131245750858301515b7fffffffffffffffffffffffffffffffffffffffffffffffffffffffffffffffff600386901b1c1916600185901b1785556130d1565b600085815260208120601f198616915b828110156131895788860151825594840194600190910190840161316a565b50858210156131c557878501517fffffffffffffffffffffffffffffffffffffffffffffffffffffffffffffffff600388901b60f8161c191681555b5050505050600190811b01905550565b87815260e0602082015260006131ee60e0830189612a31565b6040830197909752506060810194909452608084019290925260a083015260c09091015292915050565b8082018082111561094857610948612fcf565b84815260008451613243816020850160208901612a0d565b602092019182019390935260f89190911b7fff000000000000000000000000000000000000000000000000000000000000001660408201526041019392505050565b6080815260006132986080830187612a31565b60208301959095525060ff9290921660408301521515606090910152919050565b7f4e487b7100000000000000000000000000000000000000000000000000000000600052603260045260246000fd5b60008261331e577f4e487b7100000000000000000000000000000000000000000000000000000000600052601260045260246000fd5b500490565b83815260606020820152600061333c6060830185612a31565b905060ff83166040830152949350505050565b60008251613361818460208701612a0d565b9190910192915050565b60006020828403121561337d57600080fd5b5051919050565b60008451613396818460208901612a0d565b8451908301906133aa818360208901612a0d565b84519101906133bd818360208801612a0d565b0195945050505050565b8181038181111561094857610948612fcf565b6040815260006133ed6040830185612a31565b8281036020840152835160a0825261340860a0830182612a31565b9050602085015182820360208401526134218282612a31565b9150506040850151828203604084015261343b8282612a31565b915050606085015182820360608401526134558282612a31565b9150506080850151608083015280925050509392505050565b6060815260006134816060830186612a31565b82810360208401526134938186612a31565b905082810360408401526134a78185612a31565b9695505050505050565b7f4e487b7100000000000000000000000000000000000000000000000000000000600052602160045260246000fdfea26469706673582212209fbf16f420a2db082921656b0b3db9b3b295fea5846997221f1983a48dcf4a3864736f6c63430008190033",
  "linkReferences": {},
  "deployedLinkReferences": {}
}