{
  "_format": "hh-sol-artifact-1",
  "contractName": "RequestChainContract",
  "sourceName": "contracts/serverless-v2/RequestChainContract.sol",
  "abi": [
    {
      "inputs": [
        {
          "internalType": "contract IAttestationVerifier",
          "name": "attestationVerifier",
          "type": "address"
        },
        {
          "internalType": "uint256",
          "name": "maxAge",
          "type": "uint256"
        }
      ],
      "stateMutability": "nonpayable",
      "type": "constructor"
    },
    {
      "inputs": [],
      "name": "AccessControlBadConfirmation",
      "type": "error"
    },
    {
      "inputs": [
        {
          "internalType": "address",
          "name": "account",
          "type": "address"
        },
        {
          "internalType": "bytes32",
          "name": "neededRole",
          "type": "bytes32"
        }
      ],
      "name": "AccessControlUnauthorizedAccount",
      "type": "error"
    },
    {
      "inputs": [
        {
          "internalType": "address",
          "name": "target",
          "type": "address"
        }
      ],
      "name": "AddressEmptyCode",
      "type": "error"
    },
    {
      "inputs": [],
      "name": "AttestationAutherAttestationTooOld",
      "type": "error"
    },
    {
      "inputs": [],
      "name": "AttestationAutherImageNotInFamily",
      "type": "error"
    },
    {
      "inputs": [],
      "name": "AttestationAutherImageNotWhitelisted",
      "type": "error"
    },
    {
      "inputs": [],
      "name": "AttestationAutherKeyNotVerified",
      "type": "error"
    },
    {
      "inputs": [],
      "name": "AttestationAutherMismatchedLengths",
      "type": "error"
    },
    {
      "inputs": [],
      "name": "AttestationAutherPCRsInvalid",
      "type": "error"
    },
    {
      "inputs": [],
      "name": "AttestationAutherPubkeyLengthInvalid",
      "type": "error"
    },
    {
      "inputs": [],
      "name": "ECDSAInvalidSignature",
      "type": "error"
    },
    {
      "inputs": [
        {
          "internalType": "uint256",
          "name": "length",
          "type": "uint256"
        }
      ],
      "name": "ECDSAInvalidSignatureLength",
      "type": "error"
    },
    {
      "inputs": [
        {
          "internalType": "bytes32",
          "name": "s",
          "type": "bytes32"
        }
      ],
      "name": "ECDSAInvalidSignatureS",
      "type": "error"
    },
    {
      "inputs": [
        {
          "internalType": "address",
          "name": "implementation",
          "type": "address"
        }
      ],
      "name": "ERC1967InvalidImplementation",
      "type": "error"
    },
    {
      "inputs": [],
      "name": "ERC1967NonPayable",
      "type": "error"
    },
    {
      "inputs": [],
      "name": "FailedInnerCall",
      "type": "error"
    },
    {
      "inputs": [],
      "name": "InvalidInitialization",
      "type": "error"
    },
    {
      "inputs": [],
      "name": "NotInitializing",
      "type": "error"
    },
    {
      "inputs": [],
      "name": "UUPSUnauthorizedCallContext",
      "type": "error"
    },
    {
      "inputs": [
        {
          "internalType": "bytes32",
          "name": "slot",
          "type": "bytes32"
        }
      ],
      "name": "UUPSUnsupportedProxiableUUID",
      "type": "error"
    },
    {
      "anonymous": false,
      "inputs": [
        {
          "indexed": true,
          "internalType": "bytes32",
          "name": "imageId",
          "type": "bytes32"
        },
        {
          "indexed": false,
          "internalType": "bytes32",
          "name": "family",
          "type": "bytes32"
        }
      ],
      "name": "EnclaveImageAddedToFamily",
      "type": "event"
    },
    {
      "anonymous": false,
      "inputs": [
        {
          "indexed": true,
          "internalType": "bytes32",
          "name": "imageId",
          "type": "bytes32"
        },
        {
          "indexed": false,
          "internalType": "bytes32",
          "name": "family",
          "type": "bytes32"
        }
      ],
      "name": "EnclaveImageRemovedFromFamily",
      "type": "event"
    },
    {
      "anonymous": false,
      "inputs": [
        {
          "indexed": true,
          "internalType": "bytes32",
          "name": "imageId",
          "type": "bytes32"
        }
      ],
      "name": "EnclaveImageRevoked",
      "type": "event"
    },
    {
      "anonymous": false,
      "inputs": [
        {
          "indexed": true,
          "internalType": "bytes32",
          "name": "imageId",
          "type": "bytes32"
        },
        {
          "indexed": false,
          "internalType": "bytes",
          "name": "PCR0",
          "type": "bytes"
        },
        {
          "indexed": false,
          "internalType": "bytes",
          "name": "PCR1",
          "type": "bytes"
        },
        {
          "indexed": false,
          "internalType": "bytes",
          "name": "PCR2",
          "type": "bytes"
        }
      ],
      "name": "EnclaveImageWhitelisted",
      "type": "event"
    },
    {
      "anonymous": false,
      "inputs": [
        {
          "indexed": true,
          "internalType": "bytes",
          "name": "enclavePubKey",
          "type": "bytes"
        }
      ],
      "name": "EnclaveKeyRevoked",
      "type": "event"
    },
    {
      "anonymous": false,
      "inputs": [
        {
          "indexed": true,
          "internalType": "bytes",
          "name": "enclavePubKey",
          "type": "bytes"
        },
        {
          "indexed": true,
          "internalType": "bytes32",
          "name": "imageId",
          "type": "bytes32"
        }
      ],
      "name": "EnclaveKeyVerified",
      "type": "event"
    },
    {
      "anonymous": false,
      "inputs": [
        {
          "indexed": true,
          "internalType": "bytes",
          "name": "enclavePubKey",
          "type": "bytes"
        },
        {
          "indexed": true,
          "internalType": "bytes32",
          "name": "imageId",
          "type": "bytes32"
        }
      ],
      "name": "EnclaveKeyWhitelisted",
      "type": "event"
    },
    {
      "anonymous": false,
      "inputs": [
        {
          "indexed": false,
          "internalType": "bytes",
          "name": "enclavePubKey",
          "type": "bytes"
        }
      ],
      "name": "GatewayDeregistered",
      "type": "event"
    },
    {
      "anonymous": false,
      "inputs": [
        {
          "indexed": false,
          "internalType": "bytes",
          "name": "enclavePubKey",
          "type": "bytes"
        },
        {
          "indexed": true,
          "internalType": "address",
          "name": "enclaveAddress",
          "type": "address"
        },
        {
          "indexed": true,
          "internalType": "address",
          "name": "operator",
          "type": "address"
        }
      ],
      "name": "GatewayRegistered",
      "type": "event"
    },
    {
      "anonymous": false,
      "inputs": [
        {
          "indexed": false,
          "internalType": "uint64",
          "name": "version",
          "type": "uint64"
        }
      ],
      "name": "Initialized",
      "type": "event"
    },
    {
      "anonymous": false,
      "inputs": [
        {
          "indexed": true,
          "internalType": "uint256",
          "name": "jobId",
          "type": "uint256"
        },
        {
          "indexed": false,
          "internalType": "bool",
          "name": "success",
          "type": "bool"
        }
      ],
      "name": "JobCallbackDone",
      "type": "event"
    },
    {
      "anonymous": false,
      "inputs": [
        {
          "indexed": true,
          "internalType": "uint256",
          "name": "jobId",
          "type": "uint256"
        }
      ],
      "name": "JobCancelled",
      "type": "event"
    },
    {
      "anonymous": false,
      "inputs": [
        {
          "indexed": true,
          "internalType": "uint256",
          "name": "jobId",
          "type": "uint256"
        },
        {
          "indexed": false,
          "internalType": "bytes32",
          "name": "codehash",
          "type": "bytes32"
        },
        {
          "indexed": false,
          "internalType": "bytes",
          "name": "codeInputs",
          "type": "bytes"
        },
        {
          "indexed": false,
          "internalType": "uint256",
          "name": "userTimeout",
          "type": "uint256"
        },
        {
          "indexed": false,
          "internalType": "uint256",
          "name": "maxGasPrice",
          "type": "uint256"
        },
        {
          "indexed": false,
          "internalType": "uint256",
          "name": "usdcDeposit",
          "type": "uint256"
        },
        {
          "indexed": false,
          "internalType": "uint256",
          "name": "callbackDeposit",
          "type": "uint256"
        }
      ],
      "name": "JobRelayed",
      "type": "event"
    },
    {
      "anonymous": false,
      "inputs": [
        {
          "indexed": true,
          "internalType": "uint256",
          "name": "jobId",
          "type": "uint256"
        },
        {
          "indexed": false,
          "internalType": "bytes",
          "name": "output",
          "type": "bytes"
        },
        {
          "indexed": false,
          "internalType": "uint256",
          "name": "totalTime",
          "type": "uint256"
        },
        {
          "indexed": false,
          "internalType": "uint256",
          "name": "errorCode",
          "type": "uint256"
        }
      ],
      "name": "JobResponded",
      "type": "event"
    },
    {
      "anonymous": false,
      "inputs": [
        {
          "indexed": true,
          "internalType": "bytes32",
          "name": "role",
          "type": "bytes32"
        },
        {
          "indexed": true,
          "internalType": "bytes32",
          "name": "previousAdminRole",
          "type": "bytes32"
        },
        {
          "indexed": true,
          "internalType": "bytes32",
          "name": "newAdminRole",
          "type": "bytes32"
        }
      ],
      "name": "RoleAdminChanged",
      "type": "event"
    },
    {
      "anonymous": false,
      "inputs": [
        {
          "indexed": true,
          "internalType": "bytes32",
          "name": "role",
          "type": "bytes32"
        },
        {
          "indexed": true,
          "internalType": "address",
          "name": "account",
          "type": "address"
        },
        {
          "indexed": true,
          "internalType": "address",
          "name": "sender",
          "type": "address"
        }
      ],
      "name": "RoleGranted",
      "type": "event"
    },
    {
      "anonymous": false,
      "inputs": [
        {
          "indexed": true,
          "internalType": "bytes32",
          "name": "role",
          "type": "bytes32"
        },
        {
          "indexed": true,
          "internalType": "address",
          "name": "account",
          "type": "address"
        },
        {
          "indexed": true,
          "internalType": "address",
          "name": "sender",
          "type": "address"
        }
      ],
      "name": "RoleRevoked",
      "type": "event"
    },
    {
      "anonymous": false,
      "inputs": [
        {
          "indexed": true,
          "internalType": "address",
          "name": "implementation",
          "type": "address"
        }
      ],
      "name": "Upgraded",
      "type": "event"
    },
    {
      "inputs": [],
      "name": "ATTESTATION_MAX_AGE",
      "outputs": [
        {
          "internalType": "uint256",
          "name": "",
          "type": "uint256"
        }
      ],
      "stateMutability": "view",
      "type": "function"
    },
    {
      "inputs": [],
      "name": "ATTESTATION_VERIFIER",
      "outputs": [
        {
          "internalType": "contract IAttestationVerifier",
          "name": "",
          "type": "address"
        }
      ],
      "stateMutability": "view",
      "type": "function"
    },
    {
      "inputs": [],
      "name": "DEFAULT_ADMIN_ROLE",
      "outputs": [
        {
          "internalType": "bytes32",
          "name": "",
          "type": "bytes32"
        }
      ],
      "stateMutability": "view",
      "type": "function"
    },
    {
      "inputs": [],
      "name": "UPGRADE_INTERFACE_VERSION",
      "outputs": [
        {
          "internalType": "string",
          "name": "",
          "type": "string"
        }
      ],
      "stateMutability": "view",
      "type": "function"
    },
    {
      "inputs": [
        {
          "internalType": "address",
          "name": "_admin",
          "type": "address"
        },
        {
          "internalType": "contract IERC20",
          "name": "_token",
          "type": "address"
        },
        {
          "components": [
            {
              "internalType": "bytes",
              "name": "PCR0",
              "type": "bytes"
            },
            {
              "internalType": "bytes",
              "name": "PCR1",
              "type": "bytes"
            },
            {
              "internalType": "bytes",
              "name": "PCR2",
              "type": "bytes"
            }
          ],
          "internalType": "struct AttestationAutherUpgradeable.EnclaveImage[]",
          "name": "_images",
          "type": "tuple[]"
        },
        {
          "internalType": "uint256",
          "name": "_globalMinTimeout",
          "type": "uint256"
        },
        {
          "internalType": "uint256",
          "name": "_globalMaxTimeout",
          "type": "uint256"
        }
      ],
      "name": "__RequestChainContract_init",
      "outputs": [],
      "stateMutability": "nonpayable",
      "type": "function"
    },
    {
      "inputs": [
        {
          "internalType": "bytes",
          "name": "_enclavePubKey",
          "type": "bytes"
        }
      ],
      "name": "deregisterGateway",
      "outputs": [],
      "stateMutability": "nonpayable",
      "type": "function"
    },
    {
      "inputs": [
        {
          "internalType": "address",
          "name": "",
          "type": "address"
        }
      ],
      "name": "gateways",
      "outputs": [
        {
          "internalType": "address",
          "name": "operator",
          "type": "address"
        },
        {
          "internalType": "bool",
          "name": "status",
          "type": "bool"
        }
      ],
      "stateMutability": "view",
      "type": "function"
    },
    {
      "inputs": [
        {
          "internalType": "bytes32",
          "name": "role",
          "type": "bytes32"
        }
      ],
      "name": "getRoleAdmin",
      "outputs": [
        {
          "internalType": "bytes32",
          "name": "",
          "type": "bytes32"
        }
      ],
      "stateMutability": "view",
      "type": "function"
    },
    {
      "inputs": [
        {
          "internalType": "bytes32",
          "name": "role",
          "type": "bytes32"
        },
        {
          "internalType": "uint256",
          "name": "index",
          "type": "uint256"
        }
      ],
      "name": "getRoleMember",
      "outputs": [
        {
          "internalType": "address",
          "name": "",
          "type": "address"
        }
      ],
      "stateMutability": "view",
      "type": "function"
    },
    {
      "inputs": [
        {
          "internalType": "bytes32",
          "name": "role",
          "type": "bytes32"
        }
      ],
      "name": "getRoleMemberCount",
      "outputs": [
        {
          "internalType": "uint256",
          "name": "",
          "type": "uint256"
        }
      ],
      "stateMutability": "view",
      "type": "function"
    },
    {
      "inputs": [
        {
          "internalType": "address",
          "name": "_key",
          "type": "address"
        }
      ],
      "name": "getVerifiedKey",
      "outputs": [
        {
          "internalType": "bytes32",
          "name": "",
          "type": "bytes32"
        }
      ],
      "stateMutability": "view",
      "type": "function"
    },
    {
      "inputs": [
        {
          "internalType": "bytes32",
          "name": "_imageId",
          "type": "bytes32"
        }
      ],
      "name": "getWhitelistedImage",
      "outputs": [
        {
          "components": [
            {
              "internalType": "bytes",
              "name": "PCR0",
              "type": "bytes"
            },
            {
              "internalType": "bytes",
              "name": "PCR1",
              "type": "bytes"
            },
            {
              "internalType": "bytes",
              "name": "PCR2",
              "type": "bytes"
            }
          ],
          "internalType": "struct AttestationAutherUpgradeable.EnclaveImage",
          "name": "",
          "type": "tuple"
        }
      ],
      "stateMutability": "view",
      "type": "function"
    },
    {
      "inputs": [],
      "name": "globalMaxTimeout",
      "outputs": [
        {
          "internalType": "uint256",
          "name": "",
          "type": "uint256"
        }
      ],
      "stateMutability": "view",
      "type": "function"
    },
    {
      "inputs": [],
      "name": "globalMinTimeout",
      "outputs": [
        {
          "internalType": "uint256",
          "name": "",
          "type": "uint256"
        }
      ],
      "stateMutability": "view",
      "type": "function"
    },
    {
      "inputs": [
        {
          "internalType": "bytes32",
          "name": "role",
          "type": "bytes32"
        },
        {
          "internalType": "address",
          "name": "account",
          "type": "address"
        }
      ],
      "name": "grantRole",
      "outputs": [],
      "stateMutability": "nonpayable",
      "type": "function"
    },
    {
      "inputs": [
        {
          "internalType": "bytes32",
          "name": "role",
          "type": "bytes32"
        },
        {
          "internalType": "address",
          "name": "account",
          "type": "address"
        }
      ],
      "name": "hasRole",
      "outputs": [
        {
          "internalType": "bool",
          "name": "",
          "type": "bool"
        }
      ],
      "stateMutability": "view",
      "type": "function"
    },
    {
      "inputs": [
        {
          "internalType": "bytes32",
          "name": "imageId",
          "type": "bytes32"
        },
        {
          "internalType": "bytes32",
          "name": "family",
          "type": "bytes32"
        }
      ],
      "name": "isImageInFamily",
      "outputs": [
        {
          "internalType": "bool",
          "name": "",
          "type": "bool"
        }
      ],
      "stateMutability": "view",
      "type": "function"
    },
    {
      "inputs": [
        {
          "internalType": "uint256",
          "name": "_jobId",
          "type": "uint256"
        }
      ],
      "name": "jobCancel",
      "outputs": [],
      "stateMutability": "nonpayable",
      "type": "function"
    },
    {
      "inputs": [],
      "name": "jobCount",
      "outputs": [
        {
          "internalType": "uint256",
          "name": "",
          "type": "uint256"
        }
      ],
      "stateMutability": "view",
      "type": "function"
    },
    {
      "inputs": [
        {
          "internalType": "bytes",
          "name": "_signature",
          "type": "bytes"
        },
        {
          "internalType": "uint256",
          "name": "_jobId",
          "type": "uint256"
        },
        {
          "internalType": "bytes",
          "name": "_output",
          "type": "bytes"
        },
        {
          "internalType": "uint256",
          "name": "_totalTime",
          "type": "uint256"
        },
        {
          "internalType": "uint8",
          "name": "_errorCode",
          "type": "uint8"
        }
      ],
      "name": "jobResponse",
      "outputs": [],
      "stateMutability": "nonpayable",
      "type": "function"
    },
    {
      "inputs": [
        {
          "internalType": "uint256",
          "name": "",
          "type": "uint256"
        }
      ],
      "name": "jobs",
      "outputs": [
        {
          "internalType": "bytes32",
          "name": "codehash",
          "type": "bytes32"
        },
        {
          "internalType": "bytes",
          "name": "codeInputs",
          "type": "bytes"
        },
        {
          "internalType": "uint256",
          "name": "userTimeout",
          "type": "uint256"
        },
        {
          "internalType": "uint256",
          "name": "startTime",
          "type": "uint256"
        },
        {
          "internalType": "uint256",
          "name": "maxGasPrice",
          "type": "uint256"
        },
        {
          "internalType": "uint256",
          "name": "usdcDeposit",
          "type": "uint256"
        },
        {
          "internalType": "uint256",
          "name": "callbackDeposit",
          "type": "uint256"
        },
        {
          "internalType": "address",
          "name": "jobOwner",
          "type": "address"
        },
        {
          "internalType": "bool",
          "name": "receivedOutput",
          "type": "bool"
        }
      ],
      "stateMutability": "view",
      "type": "function"
    },
    {
      "inputs": [],
      "name": "overallTimeout",
      "outputs": [
        {
          "internalType": "uint256",
          "name": "",
          "type": "uint256"
        }
      ],
      "stateMutability": "view",
      "type": "function"
    },
    {
      "inputs": [],
      "name": "proxiableUUID",
      "outputs": [
        {
          "internalType": "bytes32",
          "name": "",
          "type": "bytes32"
        }
      ],
      "stateMutability": "view",
      "type": "function"
    },
    {
      "inputs": [
        {
          "internalType": "bytes",
          "name": "_attestation",
          "type": "bytes"
        },
        {
          "internalType": "bytes",
          "name": "_enclavePubKey",
          "type": "bytes"
        },
        {
          "internalType": "bytes",
          "name": "_PCR0",
          "type": "bytes"
        },
        {
          "internalType": "bytes",
          "name": "_PCR1",
          "type": "bytes"
        },
        {
          "internalType": "bytes",
          "name": "_PCR2",
          "type": "bytes"
        },
        {
          "internalType": "uint256",
          "name": "_timestampInMilliseconds",
          "type": "uint256"
        }
      ],
      "name": "registerGateway",
      "outputs": [],
      "stateMutability": "nonpayable",
      "type": "function"
    },
    {
      "inputs": [
        {
          "internalType": "bytes32",
          "name": "_codehash",
          "type": "bytes32"
        },
        {
          "internalType": "bytes",
          "name": "_codeInputs",
          "type": "bytes"
        },
        {
          "internalType": "uint256",
          "name": "_userTimeout",
          "type": "uint256"
        },
        {
          "internalType": "uint256",
          "name": "_maxGasPrice",
          "type": "uint256"
        },
        {
          "internalType": "uint256",
          "name": "_usdcDeposit",
          "type": "uint256"
        },
        {
          "internalType": "uint256",
          "name": "_callbackDeposit",
          "type": "uint256"
        }
      ],
      "name": "relayJob",
      "outputs": [],
      "stateMutability": "nonpayable",
      "type": "function"
    },
    {
      "inputs": [
        {
          "internalType": "bytes32",
          "name": "role",
          "type": "bytes32"
        },
        {
          "internalType": "address",
          "name": "callerConfirmation",
          "type": "address"
        }
      ],
      "name": "renounceRole",
      "outputs": [],
      "stateMutability": "nonpayable",
      "type": "function"
    },
    {
      "inputs": [
        {
          "internalType": "bytes32",
          "name": "role",
          "type": "bytes32"
        },
        {
          "internalType": "address",
          "name": "account",
          "type": "address"
        }
      ],
      "name": "revokeRole",
      "outputs": [],
      "stateMutability": "nonpayable",
      "type": "function"
    },
    {
      "inputs": [
        {
          "internalType": "bytes4",
          "name": "interfaceId",
          "type": "bytes4"
        }
      ],
      "name": "supportsInterface",
      "outputs": [
        {
          "internalType": "bool",
          "name": "",
          "type": "bool"
        }
      ],
      "stateMutability": "view",
      "type": "function"
    },
    {
      "inputs": [],
      "name": "token",
      "outputs": [
        {
          "internalType": "contract IERC20",
          "name": "",
          "type": "address"
        }
      ],
      "stateMutability": "view",
      "type": "function"
    },
    {
      "inputs": [
        {
          "internalType": "address",
          "name": "newImplementation",
          "type": "address"
        },
        {
          "internalType": "bytes",
          "name": "data",
          "type": "bytes"
        }
      ],
      "name": "upgradeToAndCall",
      "outputs": [],
      "stateMutability": "payable",
      "type": "function"
    },
    {
      "inputs": [
        {
          "internalType": "bytes",
          "name": "signature",
          "type": "bytes"
        },
        {
          "components": [
            {
              "internalType": "bytes",
              "name": "enclavePubKey",
              "type": "bytes"
            },
            {
              "internalType": "bytes",
              "name": "PCR0",
              "type": "bytes"
            },
            {
              "internalType": "bytes",
              "name": "PCR1",
              "type": "bytes"
            },
            {
              "internalType": "bytes",
              "name": "PCR2",
              "type": "bytes"
            },
            {
              "internalType": "uint256",
              "name": "timestampInMilliseconds",
              "type": "uint256"
            }
          ],
          "internalType": "struct IAttestationVerifier.Attestation",
          "name": "attestation",
          "type": "tuple"
        }
      ],
      "name": "verifyEnclaveKey",
      "outputs": [
        {
          "internalType": "bool",
          "name": "",
          "type": "bool"
        }
      ],
      "stateMutability": "nonpayable",
      "type": "function"
    }
  ],
  "bytecode": "0x60e06040523060c05234801561001457600080fd5b50604051613d61380380613d6183398101604081905261003391610157565b6001600160a01b03821660805260a08190527ff0c57e16840df040f15088dc2f81fe391c3923bec73e23a9662efc9c229c6a00805468010000000000000000810460ff1615906001600160401b031660008115801561008f5750825b90506000826001600160401b031660011480156100ab5750303b155b9050811580156100b9575080155b156100d75760405163f92ee8a960e01b815260040160405180910390fd5b84546001600160401b0319166001178555831561010557845460ff60401b1916680100000000000000001785555b831561014b57845460ff60401b19168555604051600181527fc7f505b2f371ae2175ee4913f4499e1f2633a7b5936321eed1cdaeb6115181d29060200160405180910390a15b50505050505050610191565b6000806040838503121561016a57600080fd5b82516001600160a01b038116811461018157600080fd5b6020939093015192949293505050565b60805160a05160c051613b856101dc60003960008181611c1001528181611c390152611e790152600081816106010152611f8b0152600081816106c001526120290152613b856000f3fe6080604052600436106101d75760003560e01c806352d1902d11610102578063a217fddf11610095578063d547741f11610064578063d547741f146106e2578063e0aba60a14610702578063f398cc7414610722578063fc0c546a1461074257600080fd5b8063a217fddf14610623578063ad3cb1cc14610638578063ca15c8731461068e578063cd79f906146106ae57600080fd5b80639010d07c116100d15780639010d07c146104e05780639022c19c1461051857806391d148541461058a5780639aec990e146105ef57600080fd5b806352d1902d146104325780636b5b21a61461044757806375847b84146104a0578063785a1717146104c057600080fd5b80632410f6ba1161017a57806347633b551161014957806347633b55146103d35780634c5d8a0f146103e95780634db9394b146103ff5780634f1ef2861461041f57600080fd5b80632410f6ba14610317578063248a9ca3146103445780632f2ff15d1461039357806336568abe146103b357600080fd5b80630834267a116101b65780630834267a146102965780630ead6625146102ac578063180aedf3146102c25780631c68fef3146102f757600080fd5b8062292ea3146101dc57806301d58fa3146101fe57806301ffc9a714610266575b600080fd5b3480156101e857600080fd5b506101fc6101f7366004612f57565b610762565b005b34801561020a57600080fd5b50610253610219366004612fd6565b6001600160a01b031660009081527fc17b4b708b6f44255c20913a9d97a05300b670342c71fe5ae5b617bd4db55001602052604090205490565b6040519081526020015b60405180910390f35b34801561027257600080fd5b50610286610281366004612ff3565b61095a565b604051901515815260200161025d565b3480156102a257600080fd5b5061025360035481565b3480156102b857600080fd5b5061025360015481565b3480156102ce57600080fd5b506102e26102dd366004613035565b61096b565b60405161025d9998979695949392919061309e565b34801561030357600080fd5b506101fc6103123660046130fc565b610a5d565b34801561032357600080fd5b50610337610332366004613035565b610d23565b60405161025d919061328b565b34801561035057600080fd5b5061025361035f366004613035565b60009081527f02dd7bc7dec4dceedda775e58dd541e08a116c6c53815c0bd028192f7b626800602052604090206001015490565b34801561039f57600080fd5b506101fc6103ae3660046132e3565b610f41565b3480156103bf57600080fd5b506101fc6103ce3660046132e3565b610f8b565b3480156103df57600080fd5b5061025360025481565b3480156103f557600080fd5b5061025360065481565b34801561040b57600080fd5b506101fc61041a366004613313565b610fdc565b6101fc61042d3660046133a5565b61114d565b34801561043e57600080fd5b5061025361116c565b34801561045357600080fd5b506102866104623660046133f5565b60009081527fc17b4b708b6f44255c20913a9d97a05300b670342c71fe5ae5b617bd4db5500260209081526040808320938352929052205460ff1690565b3480156104ac57600080fd5b506102866104bb366004613417565b61119b565b3480156104cc57600080fd5b506101fc6104db366004613521565b6111ae565b3480156104ec57600080fd5b506105006104fb3660046133f5565b6112d1565b6040516001600160a01b03909116815260200161025d565b34801561052457600080fd5b5061056b610533366004612fd6565b6004602052600090815260409020546001600160a01b0381169074010000000000000000000000000000000000000000900460ff1682565b604080516001600160a01b03909316835290151560208301520161025d565b34801561059657600080fd5b506102866105a53660046132e3565b60009182527f02dd7bc7dec4dceedda775e58dd541e08a116c6c53815c0bd028192f7b626800602090815260408084206001600160a01b0393909316845291905290205460ff1690565b3480156105fb57600080fd5b506102537f000000000000000000000000000000000000000000000000000000000000000081565b34801561062f57600080fd5b50610253600081565b34801561064457600080fd5b506106816040518060400160405280600581526020017f352e302e3000000000000000000000000000000000000000000000000000000081525081565b60405161025d91906135fb565b34801561069a57600080fd5b506102536106a9366004613035565b611312565b3480156106ba57600080fd5b506105007f000000000000000000000000000000000000000000000000000000000000000081565b3480156106ee57600080fd5b506101fc6106fd3660046132e3565b61134a565b34801561070e57600080fd5b506101fc61071d36600461360e565b61138e565b34801561072e57600080fd5b506101fc61073d366004613035565b611534565b34801561074e57600080fd5b50600054610500906001600160a01b031681565b60015484118015610774575060025484105b6107df576040517f08c379a000000000000000000000000000000000000000000000000000000000815260206004820152601460248201527f494e56414c49445f555345525f54494d454f555400000000000000000000000060448201526064015b60405180910390fd5b60405180610120016040528087815260200186815260200185815260200142815260200184815260200183815260200182815260200161081c3390565b6001600160a01b03168152602001600015158152506005600060066000815461084490613672565b9182905550815260208082019290925260400160002082518155908201516001820190610871908261374d565b506040828101516002830155606083015160038301556080830151600483015560a0830151600583015560c083015160068084019190915560e08401516007909301805461010090950151151574010000000000000000000000000000000000000000027fffffffffffffffffffffff0000000000000000000000000000000000000000009095166001600160a01b039094169390931793909317909155905490517f181be2e6e8e41b56db16815d6e88f76299852d169a3ba4db00008a83bb3bdb6e9061094a90899089908990899089908990613849565b60405180910390a2505050505050565b600061096582611771565b92915050565b6005602052600090815260409020805460018201805491929161098d906136aa565b80601f01602080910402602001604051908101604052809291908181526020018280546109b9906136aa565b8015610a065780601f106109db57610100808354040283529160200191610a06565b820191906000526020600020905b8154815290600101906020018083116109e957829003601f168201915b505050506002830154600384015460048501546005860154600687015460079097015495969395929450909290916001600160a01b0381169074010000000000000000000000000000000000000000900460ff1689565b7ff0c57e16840df040f15088dc2f81fe391c3923bec73e23a9662efc9c229c6a00805468010000000000000000810460ff16159067ffffffffffffffff16600081158015610aa85750825b905060008267ffffffffffffffff166001148015610ac55750303b155b905081158015610ad3575080155b15610b0a576040517ff92ee8a900000000000000000000000000000000000000000000000000000000815260040160405180910390fd5b84547fffffffffffffffffffffffffffffffffffffffffffffffff00000000000000001660011785558315610b6b5784547fffffffffffffffffffffffffffffffffffffffffffffff00ffffffffffffffff16680100000000000000001785555b610b736117c7565b610b7b6117c7565b610b836117c7565b610b8c886117d1565b610b946117c7565b610b9f60008b611811565b506001600160a01b038916610c10576040517f08c379a000000000000000000000000000000000000000000000000000000000815260206004820152600d60248201527f494e56414c49445f544f4b454e0000000000000000000000000000000000000060448201526064016107d6565b600080547fffffffffffffffffffffffff0000000000000000000000000000000000000000166001600160a01b038b16179055858710610cac576040517f08c379a000000000000000000000000000000000000000000000000000000000815260206004820152601760248201527f494e56414c49445f474c4f42414c5f54494d454f55545300000000000000000060448201526064016107d6565b600187905560028690558315610d175784547fffffffffffffffffffffffffffffffffffffffffffffff00ffffffffffffffff168555604051600181527fc7f505b2f371ae2175ee4913f4499e1f2633a7b5936321eed1cdaeb6115181d29060200160405180910390a15b50505050505050505050565b610d4760405180606001604052806060815260200160608152602001606081525090565b60008281527fc17b4b708b6f44255c20913a9d97a05300b670342c71fe5ae5b617bd4db550006020819052604091829020825160608101909352805491929182908290610d93906136aa565b80601f0160208091040260200160405190810160405280929190818152602001828054610dbf906136aa565b8015610e0c5780601f10610de157610100808354040283529160200191610e0c565b820191906000526020600020905b815481529060010190602001808311610def57829003601f168201915b50505050508152602001600182018054610e25906136aa565b80601f0160208091040260200160405190810160405280929190818152602001828054610e51906136aa565b8015610e9e5780601f10610e7357610100808354040283529160200191610e9e565b820191906000526020600020905b815481529060010190602001808311610e8157829003601f168201915b50505050508152602001600282018054610eb7906136aa565b80601f0160208091040260200160405190810160405280929190818152602001828054610ee3906136aa565b8015610f305780601f10610f0557610100808354040283529160200191610f30565b820191906000526020600020905b815481529060010190602001808311610f1357829003601f168201915b505050505081525050915050919050565b60008281527f02dd7bc7dec4dceedda775e58dd541e08a116c6c53815c0bd028192f7b6268006020526040902060010154610f7b8161181d565b610f858383611811565b50505050565b6001600160a01b0381163314610fcd576040517f6697b23200000000000000000000000000000000000000000000000000000000815260040160405180910390fd5b610fd7828261182a565b505050565b60038054600086815260056020526040902090910154610ffc9190613887565b421115611065576040517f08c379a000000000000000000000000000000000000000000000000000000000815260206004820152601460248201527f4f564552414c4c5f54494d454f55545f4f56455200000000000000000000000060448201526064016107d6565b60008484848460405160200161107e949392919061389a565b60408051601f198184030181529190528051602090910120905060006110a482886118ac565b90506110af816118d6565b600086815260056020526040902060070180547fffffffffffffffffffffff00ffffffffffffffffffffffffffffffffffffffff16740100000000000000000000000000000000000000001790556111088686856119bb565b857fa0f4363e838928d2a6f7986b0f7f872efbbbaec7a6e370153d3fb9f8537447ab86868660405161113c939291906138cd565b60405180910390a250505050505050565b611155611c05565b61115e82611cd5565b6111688282611d6d565b5050565b6000611176611e6e565b507f360894a13ba1a3210667c828492db98dca3e2076cc3735a920a3ca505d382bbc90565b60006111a78383611ed0565b9392505050565b6111de866040518060a0016040528088815260200187815260200186815260200185815260200184815250611ed0565b5060006111ea86612138565b905060405180604001604052806111fe3390565b6001600160a01b039081168252600160209283015283811660009081526004835260409020835181549490930151151574010000000000000000000000000000000000000000027fffffffffffffffffffffff000000000000000000000000000000000000000000909416929091169190911791909117905561127e3390565b6001600160a01b0316816001600160a01b03167f106ffa37b07009baa2e6b20d86090a9347e3fb5e0bdb0dae1efc7346aa8a2f1c886040516112c091906135fb565b60405180910390a350505050505050565b60008281527fc1f6fe24621ce81ec5827caf0253cadb74709b061630e6b55e8237170593200060208190526040822061130a9084612181565b949350505050565b60008181527fc1f6fe24621ce81ec5827caf0253cadb74709b061630e6b55e823717059320006020819052604082206111a79061218d565b60008281527f02dd7bc7dec4dceedda775e58dd541e08a116c6c53815c0bd028192f7b62680060205260409020600101546113848161181d565b610f85838361182a565b80600061139a82612138565b6001600160a01b03808216600090815260046020526040902054919250163314611420576040517f08c379a000000000000000000000000000000000000000000000000000000000815260206004820152601560248201527f4f4e4c595f474154455741595f4f50455241544f52000000000000000000000060448201526064016107d6565b600061142b84612138565b6001600160a01b03808216600090815260046020526040902054919250166114af576040517f08c379a000000000000000000000000000000000000000000000000000000000815260206004820152601360248201527f494e56414c49445f454e434c4156455f4b45590000000000000000000000000060448201526064016107d6565b6001600160a01b038116600090815260046020526040902080547fffffffffffffffffffffff0000000000000000000000000000000000000000001690556114f684612197565b507fcfdd9fda8828d739bda25c6f221393246d149dd1b7f6784acdb8ba0132722f278460405161152691906135fb565b60405180910390a150505050565b60008181526005602052604090206007015481906001600160a01b031633146115b9576040517f08c379a000000000000000000000000000000000000000000000000000000000815260206004820152600d60248201527f4e4f545f4a4f425f4f574e45520000000000000000000000000000000000000060448201526064016107d6565b60008281526005602052604090206007015474010000000000000000000000000000000000000000900460ff161561164d576040517f08c379a000000000000000000000000000000000000000000000000000000000815260206004820152601b60248201527f4a4f425f4f55545055545f414c52454144595f5245434549564544000000000060448201526064016107d6565b6003805460008481526005602052604090209091015461166d9190613887565b42116116d5576040517f08c379a000000000000000000000000000000000000000000000000000000000815260206004820152601860248201527f4f564552414c4c5f54494d454f55545f4e4f545f4f564552000000000000000060448201526064016107d6565b6000828152600560205260408120818155906116f46001830182612ded565b5060006002820181905560038201819055600482018190556005820181905560068201819055600790910180547fffffffffffffffffffffff00000000000000000000000000000000000000000016905560405183917f58243f872c550ad02802199ade99eb4250f6bb19e9abbf2d3de7b969c0eb5e4f91a25050565b60007fffffffff0000000000000000000000000000000000000000000000000000000082167f5a05180f000000000000000000000000000000000000000000000000000000001480610965575061096582612255565b6117cf6122ec565b565b6117d96122ec565b60005b8151811015611168576118078282815181106117fa576117fa6138f9565b6020026020010151612353565b50506001016117dc565b60006111a783836124fb565b6118278133612552565b50565b60008061183784846125df565b90506118436000611312565b6000036111a7576040517f08c379a000000000000000000000000000000000000000000000000000000000815260206004820181905260248201527f41563a52522d416c6c2061646d696e732063616e742062652072656d6f76656460448201526064016107d6565b6000806000806118bc868661262d565b9250925092506118cc828261267a565b5090949350505050565b6001600160a01b03811660009081527fc17b4b708b6f44255c20913a9d97a05300b670342c71fe5ae5b617bd4db5500160205260409020547fc17b4b708b6f44255c20913a9d97a05300b670342c71fe5ae5b617bd4db550009080611967576040517f3dd8ca9500000000000000000000000000000000000000000000000000000000815260040160405180910390fd5b60008181526020839052604090208054611980906136aa565b9050600003610fd7576040517f38c4ac1600000000000000000000000000000000000000000000000000000000815260040160405180910390fd5b60006005600085815260200190815260200160002060405180610120016040529081600082015481526020016001820180546119f6906136aa565b80601f0160208091040260200160405190810160405280929190818152602001828054611a22906136aa565b8015611a6f5780601f10611a4457610100808354040283529160200191611a6f565b820191906000526020600020905b815481529060010190602001808311611a5257829003601f168201915b505050918352505060028201546020820152600382015460408201526004820154606082015260058201546080820152600682015460a08201526007909101546001600160a01b0380821660c0808501919091527401000000000000000000000000000000000000000090920460ff16151560e0938401529183015190830151929350600092911690611b03903a90613928565b868686604051602401611b1893929190613963565b60408051601f198184030181529181526020820180517bffffffffffffffffffffffffffffffffffffffffffffffffffffffff167f5d4b82380000000000000000000000000000000000000000000000000000000017905251611b7b919061398f565b60006040518083038160008787f1925050503d8060008114611bb9576040519150601f19603f3d011682016040523d82523d6000602084013e611bbe565b606091505b50509050847f6a538cf2fa2b41e857321fdde09965d2d6c6cdb6532bd50c5c54e8644b2fee6582604051611bf6911515815260200190565b60405180910390a25050505050565b306001600160a01b037f0000000000000000000000000000000000000000000000000000000000000000161480611c9e57507f00000000000000000000000000000000000000000000000000000000000000006001600160a01b0316611c927f360894a13ba1a3210667c828492db98dca3e2076cc3735a920a3ca505d382bbc546001600160a01b031690565b6001600160a01b031614155b156117cf576040517fe07c8dba00000000000000000000000000000000000000000000000000000000815260040160405180910390fd5b3360009081527fb7db2dd08fcb62d0c9e08c51941cae53c267786a0b75803fb7960902fc8ef97d602052604090205460ff16611827576040517f08c379a000000000000000000000000000000000000000000000000000000000815260206004820152600a60248201527f6f6e6c792061646d696e0000000000000000000000000000000000000000000060448201526064016107d6565b816001600160a01b03166352d1902d6040518163ffffffff1660e01b8152600401602060405180830381865afa925050508015611dc7575060408051601f3d908101601f19168201909252611dc4918101906139ab565b60015b611e08576040517f4c9c8ce30000000000000000000000000000000000000000000000000000000081526001600160a01b03831660048201526024016107d6565b7f360894a13ba1a3210667c828492db98dca3e2076cc3735a920a3ca505d382bbc8114611e64576040517faa1d49a4000000000000000000000000000000000000000000000000000000008152600481018290526024016107d6565b610fd7838361277e565b306001600160a01b037f000000000000000000000000000000000000000000000000000000000000000016146117cf576040517fe07c8dba00000000000000000000000000000000000000000000000000000000815260040160405180910390fd5b6000807fc17b4b708b6f44255c20913a9d97a05300b670342c71fe5ae5b617bd4db5500090506000836020015184604001518560600151604051602001611f19939291906139c4565b60408051601f1981840301815291815281516020928301206000818152928590529120805491925090611f4b906136aa565b9050600003611f86576040517f38c4ac1600000000000000000000000000000000000000000000000000000000815260040160405180910390fd5b611fb07f000000000000000000000000000000000000000000000000000000000000000042613a07565b6103e88560800151611fc29190613928565b11611ff9576040517f19605e0a00000000000000000000000000000000000000000000000000000000815260040160405180910390fd5b6040517feac708a30000000000000000000000000000000000000000000000000000000081526001600160a01b037f0000000000000000000000000000000000000000000000000000000000000000169063eac708a3906120609088908890600401613a1a565b60006040518083038186803b15801561207857600080fd5b505afa15801561208c573d6000803e3d6000fd5b50505050600061209f8560000151612138565b6001600160a01b0381166000908152600185016020526040902054909150156120ce5760009350505050610965565b6001600160a01b0381166000908152600184016020526040908190208390558551905183916120fc9161398f565b604051908190038120907ff4837f1a66a1e5fbde2c40d0f6eff75183139e79b0fc1eaab280a3a0be38e7b190600090a350600195945050505050565b60008151604014612175576040517fbd9c80c100000000000000000000000000000000000000000000000000000000815260040160405180910390fd5b50805160209091012090565b60006111a783836127d4565b6000610965825490565b60007fc17b4b708b6f44255c20913a9d97a05300b670342c71fe5ae5b617bd4db55000816121c484612138565b6001600160a01b03811660009081526001840160205260409020549091506121f0575060009392505050565b6001600160a01b0381166000908152600183016020526040808220919091555161221b90859061398f565b604051908190038120907ff910fd78b98e9574e8b6f0e42bc3a996a6aba3776ec20b9d85515bd74a6c8fe990600090a25060019392505050565b60007fffffffff0000000000000000000000000000000000000000000000000000000082167f7965db0b00000000000000000000000000000000000000000000000000000000148061096557507f01ffc9a7000000000000000000000000000000000000000000000000000000007fffffffff00000000000000000000000000000000000000000000000000000000831614610965565b7ff0c57e16840df040f15088dc2f81fe391c3923bec73e23a9662efc9c229c6a005468010000000000000000900460ff166117cf576040517fd7e6bcf800000000000000000000000000000000000000000000000000000000815260040160405180910390fd5b80515160009081907fc17b4b708b6f44255c20913a9d97a05300b670342c71fe5ae5b617bd4db5500090603014801561239157508360200151516030145b80156123a257508360400151516030145b6123d8576040517f84c61bb600000000000000000000000000000000000000000000000000000000815260040160405180910390fd5b60008460000151856020015186604001516040516020016123fb939291906139c4565b60408051601f198184030181529181528151602092830120600081815292859052912080549192509061242d906136aa565b15905061243f57946000945092505050565b6040805160608101825286518152602080880151818301528783015182840152600084815290859052919091208151819061247a908261374d565b506020820151600182019061248f908261374d565b50604082015160028201906124a4908261374d565b50905050807f52b29bbdd97ab983419f50fa1590e5ab75e9942279e95e10a08607b06c23238b8660000151876020015188604001516040516124e893929190613aae565b60405180910390a2946001945092505050565b60007fc1f6fe24621ce81ec5827caf0253cadb74709b061630e6b55e823717059320008161252985856127fe565b9050801561130a57600085815260208390526040902061254990856128eb565b50949350505050565b60008281527f02dd7bc7dec4dceedda775e58dd541e08a116c6c53815c0bd028192f7b626800602090815260408083206001600160a01b038516845290915290205460ff16611168576040517fe2517d3f0000000000000000000000000000000000000000000000000000000081526001600160a01b0382166004820152602481018390526044016107d6565b60007fc1f6fe24621ce81ec5827caf0253cadb74709b061630e6b55e823717059320008161260d8585612900565b9050801561130a57600085815260208390526040902061254990856129c4565b600080600083516041036126675760208401516040850151606086015160001a612659888285856129d9565b955095509550505050612673565b50508151600091506002905b9250925092565b600082600381111561268e5761268e613af1565b03612697575050565b60018260038111156126ab576126ab613af1565b036126e2576040517ff645eedf00000000000000000000000000000000000000000000000000000000815260040160405180910390fd5b60028260038111156126f6576126f6613af1565b03612730576040517ffce698f7000000000000000000000000000000000000000000000000000000008152600481018290526024016107d6565b600382600381111561274457612744613af1565b03611168576040517fd78bce0c000000000000000000000000000000000000000000000000000000008152600481018290526024016107d6565b61278782612aa8565b6040516001600160a01b038316907fbc7cd75a20ee27fd9adebab32041f755214dbc6bffa90cc0225b39da2e5c2d3b90600090a28051156127cc57610fd78282612b50565b611168612bc6565b60008260000182815481106127eb576127eb6138f9565b9060005260206000200154905092915050565b60008281527f02dd7bc7dec4dceedda775e58dd541e08a116c6c53815c0bd028192f7b626800602081815260408084206001600160a01b038616855290915282205460ff166128e1576000848152602082815260408083206001600160a01b0387168452909152902080547fffffffffffffffffffffffffffffffffffffffffffffffffffffffffffffff001660011790556128973390565b6001600160a01b0316836001600160a01b0316857f2f8788117e7eff1d82e926ec794901d17c78024a50270940304540a733656f0d60405160405180910390a46001915050610965565b6000915050610965565b60006111a7836001600160a01b038416612bfe565b60008281527f02dd7bc7dec4dceedda775e58dd541e08a116c6c53815c0bd028192f7b626800602081815260408084206001600160a01b038616855290915282205460ff16156128e1576000848152602082815260408083206001600160a01b038716808552925280832080547fffffffffffffffffffffffffffffffffffffffffffffffffffffffffffffff0016905551339287917ff6391f5c32d9c69d2a47ea670b442974b53935d1edc7fd64eb21e047a839171b9190a46001915050610965565b60006111a7836001600160a01b038416612c4d565b600080807f7fffffffffffffffffffffffffffffff5d576e7357a4501ddfe92f46681b20a0841115612a145750600091506003905082612a9e565b604080516000808252602082018084528a905260ff891692820192909252606081018790526080810186905260019060a0016020604051602081039080840390855afa158015612a68573d6000803e3d6000fd5b5050604051601f1901519150506001600160a01b038116612a9457506000925060019150829050612a9e565b9250600091508190505b9450945094915050565b806001600160a01b03163b600003612af7576040517f4c9c8ce30000000000000000000000000000000000000000000000000000000081526001600160a01b03821660048201526024016107d6565b7f360894a13ba1a3210667c828492db98dca3e2076cc3735a920a3ca505d382bbc80547fffffffffffffffffffffffff0000000000000000000000000000000000000000166001600160a01b0392909216919091179055565b6060600080846001600160a01b031684604051612b6d919061398f565b600060405180830381855af49150503d8060008114612ba8576040519150601f19603f3d011682016040523d82523d6000602084013e612bad565b606091505b5091509150612bbd858383612d36565b95945050505050565b34156117cf576040517fb398979f00000000000000000000000000000000000000000000000000000000815260040160405180910390fd5b6000818152600183016020526040812054612c4557508154600181810184556000848152602080822090930184905584548482528286019093526040902091909155610965565b506000610965565b600081815260018301602052604081205480156128e1576000612c71600183613a07565b8554909150600090612c8590600190613a07565b9050808214612cea576000866000018281548110612ca557612ca56138f9565b9060005260206000200154905080876000018481548110612cc857612cc86138f9565b6000918252602080832090910192909255918252600188019052604090208390555b8554869080612cfb57612cfb613b20565b600190038181906000526020600020016000905590558560010160008681526020019081526020016000206000905560019350505050610965565b606082612d4b57612d4682612dab565b6111a7565b8151158015612d6257506001600160a01b0384163b155b15612da4576040517f9996b3150000000000000000000000000000000000000000000000000000000081526001600160a01b03851660048201526024016107d6565b5092915050565b805115612dbb5780518082602001fd5b6040517f1425ea4200000000000000000000000000000000000000000000000000000000815260040160405180910390fd5b508054612df9906136aa565b6000825580601f10612e09575050565b601f01602090049060005260206000209081019061182791905b80821115612e375760008155600101612e23565b5090565b7f4e487b7100000000000000000000000000000000000000000000000000000000600052604160045260246000fd5b6040516060810167ffffffffffffffff81118282101715612e8d57612e8d612e3b565b60405290565b60405160a0810167ffffffffffffffff81118282101715612e8d57612e8d612e3b565b604051601f8201601f1916810167ffffffffffffffff81118282101715612edf57612edf612e3b565b604052919050565b600082601f830112612ef857600080fd5b813567ffffffffffffffff811115612f1257612f12612e3b565b612f256020601f19601f84011601612eb6565b818152846020838601011115612f3a57600080fd5b816020850160208301376000918101602001919091529392505050565b60008060008060008060c08789031215612f7057600080fd5b86359550602087013567ffffffffffffffff811115612f8e57600080fd5b612f9a89828a01612ee7565b96999698505050506040850135946060810135946080820135945060a09091013592509050565b6001600160a01b038116811461182757600080fd5b600060208284031215612fe857600080fd5b81356111a781612fc1565b60006020828403121561300557600080fd5b81357fffffffff00000000000000000000000000000000000000000000000000000000811681146111a757600080fd5b60006020828403121561304757600080fd5b5035919050565b60005b83811015613069578181015183820152602001613051565b50506000910152565b6000815180845261308a81602086016020860161304e565b601f01601f19169290920160200192915050565b60006101208b83528060208401526130b88184018c613072565b604084019a909a5250506060810196909652608086019490945260a085019290925260c08401526001600160a01b031660e083015215156101009091015292915050565b600080600080600060a0868803121561311457600080fd5b61311e8635612fc1565b8535945061312f6020870135612fc1565b6020860135935067ffffffffffffffff806040880135111561315057600080fd5b6040870135870188601f82011261316657600080fd5b818135111561317757613177612e3b565b6131876020823560051b01612eb6565b81358082526020808301929160051b8401018b10156131a557600080fd5b602083015b6020843560051b85010181101561326f5784813511156131c957600080fd5b803584016060601f19828f030112156131e157600080fd5b6131e9612e6a565b86602083013511156131fa57600080fd5b61320c8e602080850135850101612ee7565b8152866040830135111561321f57600080fd5b6132328e60206040850135850101612ee7565b6020820152866060830135111561324857600080fd5b61325b8e60206060850135850101612ee7565b6040820152845250602092830192016131aa565b50979a9699509697606081013597506080013595945050505050565b6020815260008251606060208401526132a76080840182613072565b90506020840151601f19808584030160408601526132c58383613072565b9250604086015191508085840301606086015250612bbd8282613072565b600080604083850312156132f657600080fd5b82359150602083013561330881612fc1565b809150509250929050565b600080600080600060a0868803121561332b57600080fd5b853567ffffffffffffffff8082111561334357600080fd5b61334f89838a01612ee7565b965060208801359550604088013591508082111561336c57600080fd5b5061337988828901612ee7565b93505060608601359150608086013560ff8116811461339757600080fd5b809150509295509295909350565b600080604083850312156133b857600080fd5b82356133c381612fc1565b9150602083013567ffffffffffffffff8111156133df57600080fd5b6133eb85828601612ee7565b9150509250929050565b6000806040838503121561340857600080fd5b50508035926020909101359150565b6000806040838503121561342a57600080fd5b823567ffffffffffffffff8082111561344257600080fd5b61344e86838701612ee7565b9350602085013591508082111561346457600080fd5b9084019060a0828703121561347857600080fd5b613480612e93565b82358281111561348f57600080fd5b61349b88828601612ee7565b8252506020830135828111156134b057600080fd5b6134bc88828601612ee7565b6020830152506040830135828111156134d457600080fd5b6134e088828601612ee7565b6040830152506060830135828111156134f857600080fd5b61350488828601612ee7565b606083015250608083013560808201528093505050509250929050565b60008060008060008060c0878903121561353a57600080fd5b863567ffffffffffffffff8082111561355257600080fd5b61355e8a838b01612ee7565b9750602089013591508082111561357457600080fd5b6135808a838b01612ee7565b9650604089013591508082111561359657600080fd5b6135a28a838b01612ee7565b955060608901359150808211156135b857600080fd5b6135c48a838b01612ee7565b945060808901359150808211156135da57600080fd5b506135e789828a01612ee7565b92505060a087013590509295509295509295565b6020815260006111a76020830184613072565b60006020828403121561362057600080fd5b813567ffffffffffffffff81111561363757600080fd5b61130a84828501612ee7565b7f4e487b7100000000000000000000000000000000000000000000000000000000600052601160045260246000fd5b60007fffffffffffffffffffffffffffffffffffffffffffffffffffffffffffffffff82036136a3576136a3613643565b5060010190565b600181811c908216806136be57607f821691505b6020821081036136f7577f4e487b7100000000000000000000000000000000000000000000000000000000600052602260045260246000fd5b50919050565b601f821115610fd7576000816000526020600020601f850160051c810160208610156137265750805b601f850160051c820191505b8181101561374557828155600101613732565b505050505050565b815167ffffffffffffffff81111561376757613767612e3b565b61377b8161377584546136aa565b846136fd565b602080601f8311600181146137ce57600084156137985750858301515b7fffffffffffffffffffffffffffffffffffffffffffffffffffffffffffffffff600386901b1c1916600185901b178555613745565b600085815260208120601f198616915b828110156137fd578886015182559484019460019091019084016137de565b508582101561383957878501517fffffffffffffffffffffffffffffffffffffffffffffffffffffffffffffffff600388901b60f8161c191681555b5050505050600190811b01905550565b86815260c06020820152600061386260c0830188613072565b90508560408301528460608301528360808301528260a0830152979650505050505050565b8082018082111561096557610965613643565b8481526080602082015260006138b36080830186613072565b905083604083015260ff8316606083015295945050505050565b6060815260006138e06060830186613072565b905083602083015260ff83166040830152949350505050565b7f4e487b7100000000000000000000000000000000000000000000000000000000600052603260045260246000fd5b60008261395e577f4e487b7100000000000000000000000000000000000000000000000000000000600052601260045260246000fd5b500490565b83815260606020820152600061397c6060830185613072565b905060ff83166040830152949350505050565b600082516139a181846020870161304e565b9190910192915050565b6000602082840312156139bd57600080fd5b5051919050565b600084516139d681846020890161304e565b8451908301906139ea81836020890161304e565b84519101906139fd81836020880161304e565b0195945050505050565b8181038181111561096557610965613643565b604081526000613a2d6040830185613072565b8281036020840152835160a08252613a4860a0830182613072565b905060208501518282036020840152613a618282613072565b91505060408501518282036040840152613a7b8282613072565b91505060608501518282036060840152613a958282613072565b9150506080850151608083015280925050509392505050565b606081526000613ac16060830186613072565b8281036020840152613ad38186613072565b90508281036040840152613ae78185613072565b9695505050505050565b7f4e487b7100000000000000000000000000000000000000000000000000000000600052602160045260246000fd5b7f4e487b7100000000000000000000000000000000000000000000000000000000600052603160045260246000fdfea26469706673582212203d207ce2ad5713a7be3bb8c80fee0e4ac7a8759b385d88419dd0ee0a30f728c464736f6c63430008190033",
  "linkReferences": {},
  "deployedLinkReferences": {}
}