{"abi":[{"type":"constructor","inputs":[{"name":"_imageIds","type":"bytes32[]","internalType":"bytes32[]"}],"stateMutability":"nonpayable"},{"type":"function","name":"approveImages","inputs":[{"name":"_imageIds","type":"bytes32[]","internalType":"bytes32[]"}],"outputs":[],"stateMutability":"nonpayable"},{"type":"function","name":"images","inputs":[{"name":"","type":"bytes32","internalType":"bytes32"}],"outputs":[{"name":"","type":"bool","internalType":"bool"}],"stateMutability":"view"},{"type":"function","name":"owner","inputs":[],"outputs":[{"name":"","type":"address","internalType":"address"}],"stateMutability":"view"},{"type":"function","name":"oysterKMSVerify","inputs":[{"name":"_imageId","type":"bytes32","internalType":"bytes32"}],"outputs":[{"name":"","type":"bool","internalType":"bool"}],"stateMutability":"view"},{"type":"function","name":"renounceOwnership","inputs":[],"outputs":[],"stateMutability":"nonpayable"},{"type":"function","name":"revokeImages","inputs":[{"name":"_imageIds","type":"bytes32[]","internalType":"bytes32[]"}],"outputs":[],"stateMutability":"nonpayable"},{"type":"function","name":"transferOwnership","inputs":[{"name":"newOwner","type":"address","internalType":"address"}],"outputs":[],"stateMutability":"nonpayable"},{"type":"event","name":"ImageApproved","inputs":[{"name":"imageId","type":"bytes32","indexed":false,"internalType":"bytes32"}],"anonymous":false},{"type":"event","name":"ImageRevoked","inputs":[{"name":"imageId","type":"bytes32","indexed":false,"internalType":"bytes32"}],"anonymous":false},{"type":"event","name":"OwnershipTransferred","inputs":[{"name":"previousOwner","type":"address","indexed":true,"internalType":"address"},{"name":"newOwner","type":"address","indexed":true,"internalType":"address"}],"anonymous":false},{"type":"error","name":"OwnableInvalidOwner","inputs":[{"name":"owner","type":"address","internalType":"address"}]},{"type":"error","name":"OwnableUnauthorizedAccount","inputs":[{"name":"account","type":"address","internalType":"address"}]}],"bytecode":{"object":"0x608060405234801561000f575f5ffd5b50604051610cb1380380610cb1833981810160405281019061003191906103ce565b335f73ffffffffffffffffffffffffffffffffffffffff168173ffffffffffffffffffffffffffffffffffffffff16036100a2575f6040517f1e4fbdf70000000000000000000000000000000000000000000000000000000081526004016100999190610454565b60405180910390fd5b6100b1816100c760201b60201c565b506100c18161018860201b60201c565b506104c2565b5f5f5f9054906101000a900473ffffffffffffffffffffffffffffffffffffffff169050815f5f6101000a81548173ffffffffffffffffffffffffffffffffffffffff021916908373ffffffffffffffffffffffffffffffffffffffff1602179055508173ffffffffffffffffffffffffffffffffffffffff168173ffffffffffffffffffffffffffffffffffffffff167f8be0079c531659141344cd1fd0a4f28419497f9722a3daafe3b4186f6b6457e060405160405180910390a35050565b5f5f90505b8151811015610236576001805f8484815181106101ad576101ac61046d565b5b602002602001015181526020019081526020015f205f6101000a81548160ff0219169083151502179055507f5ae8a2c6eb718ea7d553ddf02d6bd2832a007f5f4e99ca5b74b3d93992846eda82828151811061020c5761020b61046d565b5b602002602001015160405161022191906104a9565b60405180910390a1808060010191505061018d565b5050565b5f604051905090565b5f5ffd5b5f5ffd5b5f5ffd5b5f601f19601f8301169050919050565b7f4e487b71000000000000000000000000000000000000000000000000000000005f52604160045260245ffd5b6102958261024f565b810181811067ffffffffffffffff821117156102b4576102b361025f565b5b80604052505050565b5f6102c661023a565b90506102d2828261028c565b919050565b5f67ffffffffffffffff8211156102f1576102f061025f565b5b602082029050602081019050919050565b5f5ffd5b5f819050919050565b61031881610306565b8114610322575f5ffd5b50565b5f815190506103338161030f565b92915050565b5f61034b610346846102d7565b6102bd565b9050808382526020820190506020840283018581111561036e5761036d610302565b5b835b8181101561039757806103838882610325565b845260208401935050602081019050610370565b5050509392505050565b5f82601f8301126103b5576103b461024b565b5b81516103c5848260208601610339565b91505092915050565b5f602082840312156103e3576103e2610243565b5b5f82015167ffffffffffffffff811115610400576103ff610247565b5b61040c848285016103a1565b91505092915050565b5f73ffffffffffffffffffffffffffffffffffffffff82169050919050565b5f61043e82610415565b9050919050565b61044e81610434565b82525050565b5f6020820190506104675f830184610445565b92915050565b7f4e487b71000000000000000000000000000000000000000000000000000000005f52603260045260245ffd5b6104a381610306565b82525050565b5f6020820190506104bc5f83018461049a565b92915050565b6107e2806104cf5f395ff3fe608060405234801561000f575f5ffd5b506004361061007b575f3560e01c80638cc44927116100595780638cc44927146100e95780638da5cb5b14610105578063c22736ae14610123578063f2fde38b1461013f5761007b565b80631fe365fa1461007f578063715018a6146100af5780638c58bb2b146100b9575b5f5ffd5b610099600480360381019061009491906105a0565b61015b565b6040516100a691906105e5565b60405180910390f35b6100b7610181565b005b6100d360048036038101906100ce91906105a0565b610194565b6040516100e091906105e5565b60405180910390f35b61010360048036038101906100fe919061065f565b6101b1565b005b61010d610264565b60405161011a91906106e9565b60405180910390f35b61013d6004803603810190610138919061065f565b61028b565b005b6101596004803603810190610154919061072c565b6102e0565b005b5f60015f8381526020019081526020015f205f9054906101000a900460ff169050919050565b610189610364565b6101925f6103eb565b565b6001602052805f5260405f205f915054906101000a900460ff1681565b6101b9610364565b5f5f90505b8282905081101561025f5760015f8484848181106101df576101de610757565b5b9050602002013581526020019081526020015f205f6101000a81549060ff02191690557fae0cbfb48e0a7a904df88eec3a0bbe8eb58ba3558a9d53f7d94208b2c1c7279e83838381811061023657610235610757565b5b9050602002013560405161024a9190610793565b60405180910390a180806001019150506101be565b505050565b5f5f5f9054906101000a900473ffffffffffffffffffffffffffffffffffffffff16905090565b610293610364565b6102dc8282808060200260200160405190810160405280939291908181526020018383602002808284375f81840152601f19601f820116905080830192505050505050506104ac565b5050565b6102e8610364565b5f73ffffffffffffffffffffffffffffffffffffffff168173ffffffffffffffffffffffffffffffffffffffff1603610358575f6040517f1e4fbdf700000000000000000000000000000000000000000000000000000000815260040161034f91906106e9565b60405180910390fd5b610361816103eb565b50565b61036c61055e565b73ffffffffffffffffffffffffffffffffffffffff1661038a610264565b73ffffffffffffffffffffffffffffffffffffffff16146103e9576103ad61055e565b6040517f118cdaa70000000000000000000000000000000000000000000000000000000081526004016103e091906106e9565b60405180910390fd5b565b5f5f5f9054906101000a900473ffffffffffffffffffffffffffffffffffffffff169050815f5f6101000a81548173ffffffffffffffffffffffffffffffffffffffff021916908373ffffffffffffffffffffffffffffffffffffffff1602179055508173ffffffffffffffffffffffffffffffffffffffff168173ffffffffffffffffffffffffffffffffffffffff167f8be0079c531659141344cd1fd0a4f28419497f9722a3daafe3b4186f6b6457e060405160405180910390a35050565b5f5f90505b815181101561055a576001805f8484815181106104d1576104d0610757565b5b602002602001015181526020019081526020015f205f6101000a81548160ff0219169083151502179055507f5ae8a2c6eb718ea7d553ddf02d6bd2832a007f5f4e99ca5b74b3d93992846eda8282815181106105305761052f610757565b5b60200260200101516040516105459190610793565b60405180910390a180806001019150506104b1565b5050565b5f33905090565b5f5ffd5b5f5ffd5b5f819050919050565b61057f8161056d565b8114610589575f5ffd5b50565b5f8135905061059a81610576565b92915050565b5f602082840312156105b5576105b4610565565b5b5f6105c28482850161058c565b91505092915050565b5f8115159050919050565b6105df816105cb565b82525050565b5f6020820190506105f85f8301846105d6565b92915050565b5f5ffd5b5f5ffd5b5f5ffd5b5f5f83601f84011261061f5761061e6105fe565b5b8235905067ffffffffffffffff81111561063c5761063b610602565b5b60208301915083602082028301111561065857610657610606565b5b9250929050565b5f5f6020838503121561067557610674610565565b5b5f83013567ffffffffffffffff81111561069257610691610569565b5b61069e8582860161060a565b92509250509250929050565b5f73ffffffffffffffffffffffffffffffffffffffff82169050919050565b5f6106d3826106aa565b9050919050565b6106e3816106c9565b82525050565b5f6020820190506106fc5f8301846106da565b92915050565b61070b816106c9565b8114610715575f5ffd5b50565b5f8135905061072681610702565b92915050565b5f6020828403121561074157610740610565565b5b5f61074e84828501610718565b91505092915050565b7f4e487b71000000000000000000000000000000000000000000000000000000005f52603260045260245ffd5b61078d8161056d565b82525050565b5f6020820190506107a65f830184610784565b9291505056fea264697066735822122064a7d091ba7ca51fe60e4d498a37aa3b8d8f33a5df34dde2566b7b7cdd987a2c64736f6c634300081c0033","linkReferences":{}},"methodIdentifiers":{"approveImages(bytes32[])":"c22736ae","images(bytes32)":"8c58bb2b","owner()":"8da5cb5b","oysterKMSVerify(bytes32)":"1fe365fa","renounceOwnership()":"715018a6","revokeImages(bytes32[])":"8cc44927","transferOwnership(address)":"f2fde38b"},"id":26}