{
  "_format": "hh-sol-artifact-1",
  "contractName": "Relay",
  "sourceName": "contracts/serverless-v2/Relay.sol",
  "abi": [
    {
      "inputs": [
        {
          "internalType": "contract IAttestationVerifier",
          "name": "attestationVerifier",
          "type": "address"
        },
        {
          "internalType": "uint256",
          "name": "maxAge",
          "type": "uint256"
        },
        {
          "internalType": "contract IERC20",
          "name": "_token",
          "type": "address"
        },
        {
          "internalType": "uint256",
          "name": "_globalMinTimeout",
          "type": "uint256"
        },
        {
          "internalType": "uint256",
          "name": "_globalMaxTimeout",
          "type": "uint256"
        },
        {
          "internalType": "uint256",
          "name": "_overallTimeout",
          "type": "uint256"
        },
        {
          "internalType": "uint256",
          "name": "_gatewayFeePerJob",
          "type": "uint256"
        },
        {
          "internalType": "uint256",
          "name": "_fixedGas",
          "type": "uint256"
        },
        {
          "internalType": "uint256",
          "name": "_callbackMeasureGas",
          "type": "uint256"
        }
      ],
      "stateMutability": "nonpayable",
      "type": "constructor"
    },
    {
      "inputs": [],
      "name": "AccessControlBadConfirmation",
      "type": "error"
    },
    {
      "inputs": [
        {
          "internalType": "address",
          "name": "account",
          "type": "address"
        },
        {
          "internalType": "bytes32",
          "name": "neededRole",
          "type": "bytes32"
        }
      ],
      "name": "AccessControlUnauthorizedAccount",
      "type": "error"
    },
    {
      "inputs": [
        {
          "internalType": "address",
          "name": "target",
          "type": "address"
        }
      ],
      "name": "AddressEmptyCode",
      "type": "error"
    },
    {
      "inputs": [
        {
          "internalType": "address",
          "name": "account",
          "type": "address"
        }
      ],
      "name": "AddressInsufficientBalance",
      "type": "error"
    },
    {
      "inputs": [],
      "name": "AttestationAutherAttestationTooOld",
      "type": "error"
    },
    {
      "inputs": [],
      "name": "AttestationAutherImageNotInFamily",
      "type": "error"
    },
    {
      "inputs": [],
      "name": "AttestationAutherImageNotWhitelisted",
      "type": "error"
    },
    {
      "inputs": [],
      "name": "AttestationAutherKeyNotVerified",
      "type": "error"
    },
    {
      "inputs": [],
      "name": "AttestationAutherMismatchedLengths",
      "type": "error"
    },
    {
      "inputs": [],
      "name": "AttestationAutherPCRsInvalid",
      "type": "error"
    },
    {
      "inputs": [],
      "name": "AttestationAutherPubkeyLengthInvalid",
      "type": "error"
    },
    {
      "inputs": [],
      "name": "ECDSAInvalidSignature",
      "type": "error"
    },
    {
      "inputs": [
        {
          "internalType": "uint256",
          "name": "length",
          "type": "uint256"
        }
      ],
      "name": "ECDSAInvalidSignatureLength",
      "type": "error"
    },
    {
      "inputs": [
        {
          "internalType": "bytes32",
          "name": "s",
          "type": "bytes32"
        }
      ],
      "name": "ECDSAInvalidSignatureS",
      "type": "error"
    },
    {
      "inputs": [
        {
          "internalType": "address",
          "name": "implementation",
          "type": "address"
        }
      ],
      "name": "ERC1967InvalidImplementation",
      "type": "error"
    },
    {
      "inputs": [],
      "name": "ERC1967NonPayable",
      "type": "error"
    },
    {
      "inputs": [],
      "name": "FailedInnerCall",
      "type": "error"
    },
    {
      "inputs": [],
      "name": "InvalidInitialization",
      "type": "error"
    },
    {
      "inputs": [],
      "name": "NotInitializing",
      "type": "error"
    },
    {
      "inputs": [],
      "name": "RelayCallbackDepositTransferFailed",
      "type": "error"
    },
    {
      "inputs": [],
      "name": "RelayEnvUnsupported",
      "type": "error"
    },
    {
      "inputs": [],
      "name": "RelayGatewayAlreadyExists",
      "type": "error"
    },
    {
      "inputs": [],
      "name": "RelayGlobalEnvAlreadySupported",
      "type": "error"
    },
    {
      "inputs": [],
      "name": "RelayGlobalEnvAlreadyUnsupported",
      "type": "error"
    },
    {
      "inputs": [],
      "name": "RelayInsufficientCallbackDeposit",
      "type": "error"
    },
    {
      "inputs": [],
      "name": "RelayInsufficientMaxGasPrice",
      "type": "error"
    },
    {
      "inputs": [],
      "name": "RelayInvalidGatewayOwner",
      "type": "error"
    },
    {
      "inputs": [],
      "name": "RelayInvalidGlobalTimeouts",
      "type": "error"
    },
    {
      "inputs": [],
      "name": "RelayInvalidSigner",
      "type": "error"
    },
    {
      "inputs": [],
      "name": "RelayInvalidToken",
      "type": "error"
    },
    {
      "inputs": [],
      "name": "RelayInvalidUserTimeout",
      "type": "error"
    },
    {
      "inputs": [],
      "name": "RelayJobNotExists",
      "type": "error"
    },
    {
      "inputs": [],
      "name": "RelayOverallTimeoutNotOver",
      "type": "error"
    },
    {
      "inputs": [],
      "name": "RelayOverallTimeoutOver",
      "type": "error"
    },
    {
      "inputs": [],
      "name": "RelaySignatureTooOld",
      "type": "error"
    },
    {
      "inputs": [],
      "name": "RelayZeroAddressAdmin",
      "type": "error"
    },
    {
      "inputs": [
        {
          "internalType": "address",
          "name": "token",
          "type": "address"
        }
      ],
      "name": "SafeERC20FailedOperation",
      "type": "error"
    },
    {
      "inputs": [],
      "name": "UUPSUnauthorizedCallContext",
      "type": "error"
    },
    {
      "inputs": [
        {
          "internalType": "bytes32",
          "name": "slot",
          "type": "bytes32"
        }
      ],
      "name": "UUPSUnsupportedProxiableUUID",
      "type": "error"
    },
    {
      "anonymous": false,
      "inputs": [
        {
          "indexed": true,
          "internalType": "bytes32",
          "name": "imageId",
          "type": "bytes32"
        },
        {
          "indexed": false,
          "internalType": "bytes32",
          "name": "family",
          "type": "bytes32"
        }
      ],
      "name": "EnclaveImageAddedToFamily",
      "type": "event"
    },
    {
      "anonymous": false,
      "inputs": [
        {
          "indexed": true,
          "internalType": "bytes32",
          "name": "imageId",
          "type": "bytes32"
        },
        {
          "indexed": false,
          "internalType": "bytes32",
          "name": "family",
          "type": "bytes32"
        }
      ],
      "name": "EnclaveImageRemovedFromFamily",
      "type": "event"
    },
    {
      "anonymous": false,
      "inputs": [
        {
          "indexed": true,
          "internalType": "bytes32",
          "name": "imageId",
          "type": "bytes32"
        }
      ],
      "name": "EnclaveImageRevoked",
      "type": "event"
    },
    {
      "anonymous": false,
      "inputs": [
        {
          "indexed": true,
          "internalType": "bytes32",
          "name": "imageId",
          "type": "bytes32"
        },
        {
          "indexed": false,
          "internalType": "bytes",
          "name": "PCR0",
          "type": "bytes"
        },
        {
          "indexed": false,
          "internalType": "bytes",
          "name": "PCR1",
          "type": "bytes"
        },
        {
          "indexed": false,
          "internalType": "bytes",
          "name": "PCR2",
          "type": "bytes"
        }
      ],
      "name": "EnclaveImageWhitelisted",
      "type": "event"
    },
    {
      "anonymous": false,
      "inputs": [
        {
          "indexed": true,
          "internalType": "address",
          "name": "enclaveAddress",
          "type": "address"
        }
      ],
      "name": "EnclaveKeyRevoked",
      "type": "event"
    },
    {
      "anonymous": false,
      "inputs": [
        {
          "indexed": true,
          "internalType": "address",
          "name": "enclaveAddress",
          "type": "address"
        },
        {
          "indexed": true,
          "internalType": "bytes32",
          "name": "imageId",
          "type": "bytes32"
        },
        {
          "indexed": false,
          "internalType": "bytes",
          "name": "enclavePubKey",
          "type": "bytes"
        }
      ],
      "name": "EnclaveKeyVerified",
      "type": "event"
    },
    {
      "anonymous": false,
      "inputs": [
        {
          "indexed": true,
          "internalType": "address",
          "name": "enclaveAddress",
          "type": "address"
        },
        {
          "indexed": true,
          "internalType": "bytes32",
          "name": "imageId",
          "type": "bytes32"
        },
        {
          "indexed": false,
          "internalType": "bytes",
          "name": "enclavePubKey",
          "type": "bytes"
        }
      ],
      "name": "EnclaveKeyWhitelisted",
      "type": "event"
    },
    {
      "anonymous": false,
      "inputs": [
        {
          "indexed": true,
          "internalType": "address",
          "name": "enclaveAddress",
          "type": "address"
        }
      ],
      "name": "GatewayDeregistered",
      "type": "event"
    },
    {
      "anonymous": false,
      "inputs": [
        {
          "indexed": true,
          "internalType": "address",
          "name": "owner",
          "type": "address"
        },
        {
          "indexed": true,
          "internalType": "address",
          "name": "enclaveAddress",
          "type": "address"
        }
      ],
      "name": "GatewayRegistered",
      "type": "event"
    },
    {
      "anonymous": false,
      "inputs": [
        {
          "indexed": true,
          "internalType": "uint8",
          "name": "env",
          "type": "uint8"
        },
        {
          "indexed": false,
          "internalType": "uint256",
          "name": "executionFeePerMs",
          "type": "uint256"
        }
      ],
      "name": "GlobalEnvAdded",
      "type": "event"
    },
    {
      "anonymous": false,
      "inputs": [
        {
          "indexed": true,
          "internalType": "uint8",
          "name": "env",
          "type": "uint8"
        }
      ],
      "name": "GlobalEnvRemoved",
      "type": "event"
    },
    {
      "anonymous": false,
      "inputs": [
        {
          "indexed": false,
          "internalType": "uint64",
          "name": "version",
          "type": "uint64"
        }
      ],
      "name": "Initialized",
      "type": "event"
    },
    {
      "anonymous": false,
      "inputs": [
        {
          "indexed": true,
          "internalType": "uint256",
          "name": "jobId",
          "type": "uint256"
        }
      ],
      "name": "JobCancelled",
      "type": "event"
    },
    {
      "anonymous": false,
      "inputs": [
        {
          "indexed": true,
          "internalType": "uint256",
          "name": "jobId",
          "type": "uint256"
        },
        {
          "indexed": true,
          "internalType": "uint8",
          "name": "env",
          "type": "uint8"
        },
        {
          "indexed": false,
          "internalType": "bytes32",
          "name": "codehash",
          "type": "bytes32"
        },
        {
          "indexed": false,
          "internalType": "bytes",
          "name": "codeInputs",
          "type": "bytes"
        },
        {
          "indexed": false,
          "internalType": "uint256",
          "name": "userTimeout",
          "type": "uint256"
        },
        {
          "indexed": false,
          "internalType": "uint256",
          "name": "maxGasPrice",
          "type": "uint256"
        },
        {
          "indexed": false,
          "internalType": "uint256",
          "name": "usdcDeposit",
          "type": "uint256"
        },
        {
          "indexed": false,
          "internalType": "uint256",
          "name": "callbackDeposit",
          "type": "uint256"
        },
        {
          "indexed": false,
          "internalType": "address",
          "name": "refundAccount",
          "type": "address"
        },
        {
          "indexed": false,
          "internalType": "address",
          "name": "callbackContract",
          "type": "address"
        },
        {
          "indexed": false,
          "internalType": "uint256",
          "name": "startTime",
          "type": "uint256"
        },
        {
          "indexed": false,
          "internalType": "uint256",
          "name": "callbackGasLimit",
          "type": "uint256"
        },
        {
          "indexed": false,
          "internalType": "address",
          "name": "jobOwner",
          "type": "address"
        }
      ],
      "name": "JobRelayed",
      "type": "event"
    },
    {
      "anonymous": false,
      "inputs": [
        {
          "indexed": true,
          "internalType": "uint256",
          "name": "jobId",
          "type": "uint256"
        },
        {
          "indexed": false,
          "internalType": "bytes",
          "name": "output",
          "type": "bytes"
        },
        {
          "indexed": false,
          "internalType": "uint256",
          "name": "totalTime",
          "type": "uint256"
        },
        {
          "indexed": false,
          "internalType": "uint256",
          "name": "errorCode",
          "type": "uint256"
        },
        {
          "indexed": false,
          "internalType": "bool",
          "name": "success",
          "type": "bool"
        }
      ],
      "name": "JobResponded",
      "type": "event"
    },
    {
      "anonymous": false,
      "inputs": [
        {
          "indexed": true,
          "internalType": "bytes32",
          "name": "role",
          "type": "bytes32"
        },
        {
          "indexed": true,
          "internalType": "bytes32",
          "name": "previousAdminRole",
          "type": "bytes32"
        },
        {
          "indexed": true,
          "internalType": "bytes32",
          "name": "newAdminRole",
          "type": "bytes32"
        }
      ],
      "name": "RoleAdminChanged",
      "type": "event"
    },
    {
      "anonymous": false,
      "inputs": [
        {
          "indexed": true,
          "internalType": "bytes32",
          "name": "role",
          "type": "bytes32"
        },
        {
          "indexed": true,
          "internalType": "address",
          "name": "account",
          "type": "address"
        },
        {
          "indexed": true,
          "internalType": "address",
          "name": "sender",
          "type": "address"
        }
      ],
      "name": "RoleGranted",
      "type": "event"
    },
    {
      "anonymous": false,
      "inputs": [
        {
          "indexed": true,
          "internalType": "bytes32",
          "name": "role",
          "type": "bytes32"
        },
        {
          "indexed": true,
          "internalType": "address",
          "name": "account",
          "type": "address"
        },
        {
          "indexed": true,
          "internalType": "address",
          "name": "sender",
          "type": "address"
        }
      ],
      "name": "RoleRevoked",
      "type": "event"
    },
    {
      "anonymous": false,
      "inputs": [
        {
          "indexed": true,
          "internalType": "address",
          "name": "implementation",
          "type": "address"
        }
      ],
      "name": "Upgraded",
      "type": "event"
    },
    {
      "inputs": [],
      "name": "ATTESTATION_MAX_AGE",
      "outputs": [
        {
          "internalType": "uint256",
          "name": "",
          "type": "uint256"
        }
      ],
      "stateMutability": "view",
      "type": "function"
    },
    {
      "inputs": [],
      "name": "ATTESTATION_VERIFIER",
      "outputs": [
        {
          "internalType": "contract IAttestationVerifier",
          "name": "",
          "type": "address"
        }
      ],
      "stateMutability": "view",
      "type": "function"
    },
    {
      "inputs": [],
      "name": "CALLBACK_MEASURE_GAS",
      "outputs": [
        {
          "internalType": "uint256",
          "name": "",
          "type": "uint256"
        }
      ],
      "stateMutability": "view",
      "type": "function"
    },
    {
      "inputs": [],
      "name": "DEFAULT_ADMIN_ROLE",
      "outputs": [
        {
          "internalType": "bytes32",
          "name": "",
          "type": "bytes32"
        }
      ],
      "stateMutability": "view",
      "type": "function"
    },
    {
      "inputs": [],
      "name": "FIXED_GAS",
      "outputs": [
        {
          "internalType": "uint256",
          "name": "",
          "type": "uint256"
        }
      ],
      "stateMutability": "view",
      "type": "function"
    },
    {
      "inputs": [],
      "name": "GATEWAY_FEE_PER_JOB",
      "outputs": [
        {
          "internalType": "uint256",
          "name": "",
          "type": "uint256"
        }
      ],
      "stateMutability": "view",
      "type": "function"
    },
    {
      "inputs": [],
      "name": "GLOBAL_MAX_TIMEOUT",
      "outputs": [
        {
          "internalType": "uint256",
          "name": "",
          "type": "uint256"
        }
      ],
      "stateMutability": "view",
      "type": "function"
    },
    {
      "inputs": [],
      "name": "GLOBAL_MIN_TIMEOUT",
      "outputs": [
        {
          "internalType": "uint256",
          "name": "",
          "type": "uint256"
        }
      ],
      "stateMutability": "view",
      "type": "function"
    },
    {
      "inputs": [],
      "name": "JOB_RESPONSE_TYPEHASH",
      "outputs": [
        {
          "internalType": "bytes32",
          "name": "",
          "type": "bytes32"
        }
      ],
      "stateMutability": "view",
      "type": "function"
    },
    {
      "inputs": [],
      "name": "OVERALL_TIMEOUT",
      "outputs": [
        {
          "internalType": "uint256",
          "name": "",
          "type": "uint256"
        }
      ],
      "stateMutability": "view",
      "type": "function"
    },
    {
      "inputs": [],
      "name": "TOKEN",
      "outputs": [
        {
          "internalType": "contract IERC20",
          "name": "",
          "type": "address"
        }
      ],
      "stateMutability": "view",
      "type": "function"
    },
    {
      "inputs": [],
      "name": "UPGRADE_INTERFACE_VERSION",
      "outputs": [
        {
          "internalType": "string",
          "name": "",
          "type": "string"
        }
      ],
      "stateMutability": "view",
      "type": "function"
    },
    {
      "inputs": [
        {
          "internalType": "uint8",
          "name": "_env",
          "type": "uint8"
        },
        {
          "internalType": "uint256",
          "name": "_executionFeePerMs",
          "type": "uint256"
        }
      ],
      "name": "addGlobalEnv",
      "outputs": [],
      "stateMutability": "nonpayable",
      "type": "function"
    },
    {
      "inputs": [
        {
          "internalType": "address",
          "name": "_enclaveAddress",
          "type": "address"
        }
      ],
      "name": "allowOnlyVerified",
      "outputs": [],
      "stateMutability": "view",
      "type": "function"
    },
    {
      "inputs": [
        {
          "internalType": "address",
          "name": "_enclaveAddress",
          "type": "address"
        }
      ],
      "name": "deregisterGateway",
      "outputs": [],
      "stateMutability": "nonpayable",
      "type": "function"
    },
    {
      "inputs": [
        {
          "internalType": "uint8",
          "name": "",
          "type": "uint8"
        }
      ],
      "name": "executionEnv",
      "outputs": [
        {
          "internalType": "uint256",
          "name": "executionFeePerMs",
          "type": "uint256"
        },
        {
          "internalType": "bool",
          "name": "status",
          "type": "bool"
        }
      ],
      "stateMutability": "view",
      "type": "function"
    },
    {
      "inputs": [
        {
          "internalType": "address",
          "name": "",
          "type": "address"
        }
      ],
      "name": "gatewayOwners",
      "outputs": [
        {
          "internalType": "address",
          "name": "",
          "type": "address"
        }
      ],
      "stateMutability": "view",
      "type": "function"
    },
    {
      "inputs": [
        {
          "internalType": "uint8",
          "name": "_env",
          "type": "uint8"
        }
      ],
      "name": "getJobExecutionFeePerMs",
      "outputs": [
        {
          "internalType": "uint256",
          "name": "",
          "type": "uint256"
        }
      ],
      "stateMutability": "view",
      "type": "function"
    },
    {
      "inputs": [
        {
          "internalType": "bytes32",
          "name": "role",
          "type": "bytes32"
        }
      ],
      "name": "getRoleAdmin",
      "outputs": [
        {
          "internalType": "bytes32",
          "name": "",
          "type": "bytes32"
        }
      ],
      "stateMutability": "view",
      "type": "function"
    },
    {
      "inputs": [
        {
          "internalType": "address",
          "name": "_key",
          "type": "address"
        }
      ],
      "name": "getVerifiedKey",
      "outputs": [
        {
          "internalType": "bytes32",
          "name": "",
          "type": "bytes32"
        }
      ],
      "stateMutability": "view",
      "type": "function"
    },
    {
      "inputs": [
        {
          "internalType": "bytes32",
          "name": "_imageId",
          "type": "bytes32"
        }
      ],
      "name": "getWhitelistedImage",
      "outputs": [
        {
          "components": [
            {
              "internalType": "bytes",
              "name": "PCR0",
              "type": "bytes"
            },
            {
              "internalType": "bytes",
              "name": "PCR1",
              "type": "bytes"
            },
            {
              "internalType": "bytes",
              "name": "PCR2",
              "type": "bytes"
            }
          ],
          "internalType": "struct AttestationAutherUpgradeable.EnclaveImage",
          "name": "",
          "type": "tuple"
        }
      ],
      "stateMutability": "view",
      "type": "function"
    },
    {
      "inputs": [
        {
          "internalType": "bytes32",
          "name": "role",
          "type": "bytes32"
        },
        {
          "internalType": "address",
          "name": "account",
          "type": "address"
        }
      ],
      "name": "grantRole",
      "outputs": [],
      "stateMutability": "nonpayable",
      "type": "function"
    },
    {
      "inputs": [
        {
          "internalType": "bytes32",
          "name": "role",
          "type": "bytes32"
        },
        {
          "internalType": "address",
          "name": "account",
          "type": "address"
        }
      ],
      "name": "hasRole",
      "outputs": [
        {
          "internalType": "bool",
          "name": "",
          "type": "bool"
        }
      ],
      "stateMutability": "view",
      "type": "function"
    },
    {
      "inputs": [
        {
          "internalType": "address",
          "name": "_admin",
          "type": "address"
        },
        {
          "components": [
            {
              "internalType": "bytes",
              "name": "PCR0",
              "type": "bytes"
            },
            {
              "internalType": "bytes",
              "name": "PCR1",
              "type": "bytes"
            },
            {
              "internalType": "bytes",
              "name": "PCR2",
              "type": "bytes"
            }
          ],
          "internalType": "struct AttestationAutherUpgradeable.EnclaveImage[]",
          "name": "_images",
          "type": "tuple[]"
        }
      ],
      "name": "initialize",
      "outputs": [],
      "stateMutability": "nonpayable",
      "type": "function"
    },
    {
      "inputs": [
        {
          "internalType": "uint8",
          "name": "_env",
          "type": "uint8"
        }
      ],
      "name": "isEnvSupported",
      "outputs": [
        {
          "internalType": "bool",
          "name": "",
          "type": "bool"
        }
      ],
      "stateMutability": "view",
      "type": "function"
    },
    {
      "inputs": [
        {
          "internalType": "bytes32",
          "name": "imageId",
          "type": "bytes32"
        },
        {
          "internalType": "bytes32",
          "name": "family",
          "type": "bytes32"
        }
      ],
      "name": "isImageInFamily",
      "outputs": [
        {
          "internalType": "bool",
          "name": "",
          "type": "bool"
        }
      ],
      "stateMutability": "view",
      "type": "function"
    },
    {
      "inputs": [
        {
          "internalType": "uint256",
          "name": "_jobId",
          "type": "uint256"
        }
      ],
      "name": "jobCancel",
      "outputs": [],
      "stateMutability": "nonpayable",
      "type": "function"
    },
    {
      "inputs": [],
      "name": "jobCount",
      "outputs": [
        {
          "internalType": "uint256",
          "name": "",
          "type": "uint256"
        }
      ],
      "stateMutability": "view",
      "type": "function"
    },
    {
      "inputs": [
        {
          "internalType": "bytes",
          "name": "_signature",
          "type": "bytes"
        },
        {
          "internalType": "uint256",
          "name": "_jobId",
          "type": "uint256"
        },
        {
          "internalType": "bytes",
          "name": "_output",
          "type": "bytes"
        },
        {
          "internalType": "uint256",
          "name": "_totalTime",
          "type": "uint256"
        },
        {
          "internalType": "uint8",
          "name": "_errorCode",
          "type": "uint8"
        },
        {
          "internalType": "uint256",
          "name": "_signTimestamp",
          "type": "uint256"
        }
      ],
      "name": "jobResponse",
      "outputs": [],
      "stateMutability": "nonpayable",
      "type": "function"
    },
    {
      "inputs": [
        {
          "internalType": "uint256",
          "name": "",
          "type": "uint256"
        }
      ],
      "name": "jobs",
      "outputs": [
        {
          "internalType": "uint256",
          "name": "startTime",
          "type": "uint256"
        },
        {
          "internalType": "uint256",
          "name": "maxGasPrice",
          "type": "uint256"
        },
        {
          "internalType": "uint256",
          "name": "usdcDeposit",
          "type": "uint256"
        },
        {
          "internalType": "uint256",
          "name": "callbackDeposit",
          "type": "uint256"
        },
        {
          "internalType": "uint256",
          "name": "callbackGasLimit",
          "type": "uint256"
        },
        {
          "internalType": "address",
          "name": "jobOwner",
          "type": "address"
        },
        {
          "internalType": "address",
          "name": "callbackContract",
          "type": "address"
        },
        {
          "internalType": "uint8",
          "name": "env",
          "type": "uint8"
        },
        {
          "internalType": "bytes32",
          "name": "codehash",
          "type": "bytes32"
        },
        {
          "internalType": "bytes",
          "name": "codeInputs",
          "type": "bytes"
        }
      ],
      "stateMutability": "view",
      "type": "function"
    },
    {
      "inputs": [],
      "name": "proxiableUUID",
      "outputs": [
        {
          "internalType": "bytes32",
          "name": "",
          "type": "bytes32"
        }
      ],
      "stateMutability": "view",
      "type": "function"
    },
    {
      "inputs": [
        {
          "internalType": "bytes",
          "name": "_attestationSignature",
          "type": "bytes"
        },
        {
          "components": [
            {
              "internalType": "bytes",
              "name": "enclavePubKey",
              "type": "bytes"
            },
            {
              "internalType": "bytes",
              "name": "PCR0",
              "type": "bytes"
            },
            {
              "internalType": "bytes",
              "name": "PCR1",
              "type": "bytes"
            },
            {
              "internalType": "bytes",
              "name": "PCR2",
              "type": "bytes"
            },
            {
              "internalType": "uint256",
              "name": "timestampInMilliseconds",
              "type": "uint256"
            }
          ],
          "internalType": "struct IAttestationVerifier.Attestation",
          "name": "_attestation",
          "type": "tuple"
        },
        {
          "internalType": "bytes",
          "name": "_signature",
          "type": "bytes"
        },
        {
          "internalType": "uint256",
          "name": "_signTimestamp",
          "type": "uint256"
        }
      ],
      "name": "registerGateway",
      "outputs": [],
      "stateMutability": "nonpayable",
      "type": "function"
    },
    {
      "inputs": [
        {
          "internalType": "uint8",
          "name": "_env",
          "type": "uint8"
        },
        {
          "internalType": "bytes32",
          "name": "_codehash",
          "type": "bytes32"
        },
        {
          "internalType": "bytes",
          "name": "_codeInputs",
          "type": "bytes"
        },
        {
          "internalType": "uint256",
          "name": "_userTimeout",
          "type": "uint256"
        },
        {
          "internalType": "uint256",
          "name": "_maxGasPrice",
          "type": "uint256"
        },
        {
          "internalType": "address",
          "name": "_refundAccount",
          "type": "address"
        },
        {
          "internalType": "address",
          "name": "_callbackContract",
          "type": "address"
        },
        {
          "internalType": "uint256",
          "name": "_callbackGasLimit",
          "type": "uint256"
        }
      ],
      "name": "relayJob",
      "outputs": [
        {
          "internalType": "uint256",
          "name": "",
          "type": "uint256"
        }
      ],
      "stateMutability": "payable",
      "type": "function"
    },
    {
      "inputs": [
        {
          "internalType": "uint8",
          "name": "_env",
          "type": "uint8"
        }
      ],
      "name": "removeGlobalEnv",
      "outputs": [],
      "stateMutability": "nonpayable",
      "type": "function"
    },
    {
      "inputs": [
        {
          "internalType": "bytes32",
          "name": "role",
          "type": "bytes32"
        },
        {
          "internalType": "address",
          "name": "callerConfirmation",
          "type": "address"
        }
      ],
      "name": "renounceRole",
      "outputs": [],
      "stateMutability": "nonpayable",
      "type": "function"
    },
    {
      "inputs": [
        {
          "internalType": "bytes32",
          "name": "imageId",
          "type": "bytes32"
        }
      ],
      "name": "revokeEnclaveImage",
      "outputs": [
        {
          "internalType": "bool",
          "name": "",
          "type": "bool"
        }
      ],
      "stateMutability": "nonpayable",
      "type": "function"
    },
    {
      "inputs": [
        {
          "internalType": "bytes32",
          "name": "role",
          "type": "bytes32"
        },
        {
          "internalType": "address",
          "name": "account",
          "type": "address"
        }
      ],
      "name": "revokeRole",
      "outputs": [],
      "stateMutability": "nonpayable",
      "type": "function"
    },
    {
      "inputs": [
        {
          "internalType": "bytes4",
          "name": "interfaceId",
          "type": "bytes4"
        }
      ],
      "name": "supportsInterface",
      "outputs": [
        {
          "internalType": "bool",
          "name": "",
          "type": "bool"
        }
      ],
      "stateMutability": "view",
      "type": "function"
    },
    {
      "inputs": [
        {
          "internalType": "address",
          "name": "newImplementation",
          "type": "address"
        },
        {
          "internalType": "bytes",
          "name": "data",
          "type": "bytes"
        }
      ],
      "name": "upgradeToAndCall",
      "outputs": [],
      "stateMutability": "payable",
      "type": "function"
    },
    {
      "inputs": [
        {
          "internalType": "bytes",
          "name": "signature",
          "type": "bytes"
        },
        {
          "components": [
            {
              "internalType": "bytes",
              "name": "enclavePubKey",
              "type": "bytes"
            },
            {
              "internalType": "bytes",
              "name": "PCR0",
              "type": "bytes"
            },
            {
              "internalType": "bytes",
              "name": "PCR1",
              "type": "bytes"
            },
            {
              "internalType": "bytes",
              "name": "PCR2",
              "type": "bytes"
            },
            {
              "internalType": "uint256",
              "name": "timestampInMilliseconds",
              "type": "uint256"
            }
          ],
          "internalType": "struct IAttestationVerifier.Attestation",
          "name": "attestation",
          "type": "tuple"
        }
      ],
      "name": "verifyEnclaveKey",
      "outputs": [
        {
          "internalType": "bool",
          "name": "",
          "type": "bool"
        }
      ],
      "stateMutability": "nonpayable",
      "type": "function"
    },
    {
      "inputs": [
        {
          "internalType": "bytes",
          "name": "PCR0",
          "type": "bytes"
        },
        {
          "internalType": "bytes",
          "name": "PCR1",
          "type": "bytes"
        },
        {
          "internalType": "bytes",
          "name": "PCR2",
          "type": "bytes"
        }
      ],
      "name": "whitelistEnclaveImage",
      "outputs": [
        {
          "internalType": "bytes32",
          "name": "",
          "type": "bytes32"
        },
        {
          "internalType": "bool",
          "name": "",
          "type": "bool"
        }
      ],
      "stateMutability": "nonpayable",
      "type": "function"
    }
  ],
  "bytecode": "0x6101c06040523060805234801561001557600080fd5b50604051614d76380380614d7683398101604081905261003491610192565b6001600160a01b03891660a05260c088905261004e6100cb565b6001600160a01b0387166100755760405163c844103f60e01b815260040160405180910390fd5b6001600160a01b03871660e0528486106100a15760405162fe194b60e31b815260040160405180910390fd5b61010095909552610120939093526101409190915261016052610180526101a05250610234915050565b7ff0c57e16840df040f15088dc2f81fe391c3923bec73e23a9662efc9c229c6a00805468010000000000000000900460ff161561011b5760405163f92ee8a960e01b815260040160405180910390fd5b80546001600160401b039081161461017a5780546001600160401b0319166001600160401b0390811782556040519081527fc7f505b2f371ae2175ee4913f4499e1f2633a7b5936321eed1cdaeb6115181d29060200160405180910390a15b50565b6001600160a01b038116811461017a57600080fd5b60008060008060008060008060006101208a8c0312156101b157600080fd5b89516101bc8161017d565b60208b015160408c0151919a5098506101d48161017d565b80975050600060608b0151905080965050600060808b0151905080955050600060a08b0151905080945050600060c08b0151905080935050600060e08b015190508092505060006101008b01519050809150509295985092959850929598565b60805160a05160c05160e05161010051610120516101405161016051610180516101a051614a4261033460003960008181610a37015261143401526000818161087e01528181611458015261276401526000818161079f015281816114de01526132e10152600081816105980152818161262301526129970152600081816109760152611363015260008181610415015261133901526000818161069a015281816116c101528181612aac0152818161330c015261334201526000818161076b01528181611f9d01528181612daa015261308b0152600081816108e2015261203b015260008181611a1001528181611a390152611bf10152614a426000f3fe6080604052600436106102c65760003560e01c806375847b8411610179578063bdb3a870116100d6578063debfc2f31161008a578063f398cc7411610064578063f398cc74146109cf578063f6a17fe3146109ef578063fa3036bf14610a2557600080fd5b8063debfc2f314610944578063e29fcdc514610964578063e3ee2b761461099857600080fd5b8063cd79f906116100bb578063cd79f906146108d0578063d363a9f014610904578063d547741f1461092457600080fd5b8063bdb3a8701461086c578063c50d525d146108a057600080fd5b80639bc271361161012d578063a217fddf11610112578063a217fddf146107e1578063ad3cb1cc146107f6578063b9d546e01461084c57600080fd5b80639bc271361461078d578063a0ac45d5146107c157600080fd5b806391d148541161015e57806391d14854146106d457806395c60294146107395780639aec990e1461075957600080fd5b806375847b841461066857806382bfefc81461068857600080fd5b80632f2ff15d1161022757806352d1902d116101db5780636549bf48116101c05780636549bf48146105ba57806369815e57146105da5780636b5b21a61461060f57600080fd5b806352d1902d1461057157806358a14ad21461058657600080fd5b806345f3ca3c1161020c57806345f3ca3c146105285780634c5d8a0f146105485780634f1ef2861461055e57600080fd5b80632f2ff15d146104e857806336568abe1461050857600080fd5b80631e3708df1161027e5780632410f6ba116102635780632410f6ba1461044a578063248a9ca3146104775780632eb39ee9146104c657600080fd5b80631e3708df1461040357806321dc8dd91461043757600080fd5b8063051ce40a116102af578063051ce40a14610363578063156a962614610397578063180aedf3146103cd57600080fd5b806301d58fa3146102cb57806301ffc9a714610333575b600080fd5b3480156102d757600080fd5b506103206102e6366004613b68565b6001600160a01b031660009081527fc17b4b708b6f44255c20913a9d97a05300b670342c71fe5ae5b617bd4db55001602052604090205490565b6040519081526020015b60405180910390f35b34801561033f57600080fd5b5061035361034e366004613b83565b610a59565b604051901515815260200161032a565b34801561036f57600080fd5b506103207f37096cd2491f9c5ef86ecee2c1b7a06103393df9e824c16fab6722c818bd43ef81565b3480156103a357600080fd5b506103536103b2366004613bd6565b60ff9081166000908152602081905260409020600101541690565b3480156103d957600080fd5b506103ed6103e8366004613bf1565b610a6a565b60405161032a9a99989796959493929190613c5a565b34801561040f57600080fd5b506103207f000000000000000000000000000000000000000000000000000000000000000081565b610320610445366004613d15565b610b69565b34801561045657600080fd5b5061046a610465366004613bf1565b610be0565b60405161032a9190613db3565b34801561048357600080fd5b50610320610492366004613bf1565b60009081527f02dd7bc7dec4dceedda775e58dd541e08a116c6c53815c0bd028192f7b626800602052604090206001015490565b3480156104d257600080fd5b506104e66104e1366004613f26565b610dfe565b005b3480156104f457600080fd5b506104e66105033660046140a4565b610ff2565b34801561051457600080fd5b506104e66105233660046140a4565b61103c565b34801561053457600080fd5b506104e6610543366004613bd6565b61108d565b34801561055457600080fd5b5061032060035481565b6104e661056c3660046140d0565b6110a5565b34801561057d57600080fd5b506103206110c0565b34801561059257600080fd5b506103207f000000000000000000000000000000000000000000000000000000000000000081565b3480156105c657600080fd5b506104e66105d53660046141f6565b6110ef565b3480156105e657600080fd5b506105fa6105f5366004614295565b611104565b6040805192835290151560208301520161032a565b34801561061b57600080fd5b5061035361062a36600461433b565b60009081527fc17b4b708b6f44255c20913a9d97a05300b670342c71fe5ae5b617bd4db5500260209081526040808320938352929052205460ff1690565b34801561067457600080fd5b5061035361068336600461435d565b6111dd565b34801561069457600080fd5b506106bc7f000000000000000000000000000000000000000000000000000000000000000081565b6040516001600160a01b03909116815260200161032a565b3480156106e057600080fd5b506103536106ef3660046140a4565b60009182527f02dd7bc7dec4dceedda775e58dd541e08a116c6c53815c0bd028192f7b626800602090815260408084206001600160a01b0393909316845291905290205460ff1690565b34801561074557600080fd5b50610353610754366004613bf1565b6111f0565b34801561076557600080fd5b506103207f000000000000000000000000000000000000000000000000000000000000000081565b34801561079957600080fd5b506103207f000000000000000000000000000000000000000000000000000000000000000081565b3480156107cd57600080fd5b506104e66107dc366004613b68565b61120e565b3480156107ed57600080fd5b50610320600081565b34801561080257600080fd5b5061083f6040518060400160405280600581526020017f352e302e3000000000000000000000000000000000000000000000000000000081525081565b60405161032a91906143bc565b34801561085857600080fd5b506104e6610867366004613b68565b61121a565b34801561087857600080fd5b506103207f000000000000000000000000000000000000000000000000000000000000000081565b3480156108ac57600080fd5b506103206108bb366004613bd6565b60ff1660009081526020819052604090205490565b3480156108dc57600080fd5b506106bc7f000000000000000000000000000000000000000000000000000000000000000081565b34801561091057600080fd5b506104e661091f3660046143cf565b611224565b34801561093057600080fd5b506104e661093f3660046140a4565b611239565b34801561095057600080fd5b506104e661095f3660046143f9565b61127d565b34801561097057600080fd5b506103207f000000000000000000000000000000000000000000000000000000000000000081565b3480156109a457600080fd5b506105fa6109b3366004613bd6565b6000602081905290815260409020805460019091015460ff1682565b3480156109db57600080fd5b506104e66109ea366004613bf1565b611297565b3480156109fb57600080fd5b506106bc610a0a366004613b68565b6001602052600090815260409020546001600160a01b031681565b348015610a3157600080fd5b506103207f000000000000000000000000000000000000000000000000000000000000000081565b6000610a64826112a0565b92915050565b60026020819052600091825260409091208054600182015492820154600383015460048401546005850154600686015460078701546008880180549799989697959694956001600160a01b0394851695948416947401000000000000000000000000000000000000000090940460ff16939190610ae69061449c565b80601f0160208091040260200160405190810160405280929190818152602001828054610b129061449c565b8015610b5f5780601f10610b3457610100808354040283529160200191610b5f565b820191906000526020600020905b815481529060010190602001808311610b4257829003601f168201915b505050505090508a565b60ff808a1660009081526020819052604081206001015490918b9116610bbb576040517f10265fa900000000000000000000000000000000000000000000000000000000815260040160405180910390fd5b610bce8b8b8b8b8b8b348c8c8c33611337565b50506003549998505050505050505050565b610c0460405180606001604052806060815260200160608152602001606081525090565b60008281527fc17b4b708b6f44255c20913a9d97a05300b670342c71fe5ae5b617bd4db550006020819052604091829020825160608101909352805491929182908290610c509061449c565b80601f0160208091040260200160405190810160405280929190818152602001828054610c7c9061449c565b8015610cc95780601f10610c9e57610100808354040283529160200191610cc9565b820191906000526020600020905b815481529060010190602001808311610cac57829003601f168201915b50505050508152602001600182018054610ce29061449c565b80601f0160208091040260200160405190810160405280929190818152602001828054610d0e9061449c565b8015610d5b5780601f10610d3057610100808354040283529160200191610d5b565b820191906000526020600020905b815481529060010190602001808311610d3e57829003601f168201915b50505050508152602001600282018054610d749061449c565b80601f0160208091040260200160405190810160405280929190818152602001828054610da09061449c565b8015610ded5780601f10610dc257610100808354040283529160200191610ded565b820191906000526020600020905b815481529060010190602001808311610dd057829003601f168201915b505050505081525050915050919050565b7ff0c57e16840df040f15088dc2f81fe391c3923bec73e23a9662efc9c229c6a00805468010000000000000000810460ff16159067ffffffffffffffff16600081158015610e495750825b905060008267ffffffffffffffff166001148015610e665750303b155b905081158015610e74575080155b15610eab576040517ff92ee8a900000000000000000000000000000000000000000000000000000000815260040160405180910390fd5b84547fffffffffffffffffffffffffffffffffffffffffffffffff00000000000000001660011785558315610f0c5784547fffffffffffffffffffffffffffffffffffffffffffffff00ffffffffffffffff16680100000000000000001785555b6001600160a01b038716610f4c576040517f30a7a37f00000000000000000000000000000000000000000000000000000000815260040160405180910390fd5b610f5461174b565b610f5c61174b565b610f6461174b565b610f6c61174b565b610f7586611755565b610f80600088611795565b504660c01b6003558315610fe95784547fffffffffffffffffffffffffffffffffffffffffffffff00ffffffffffffffff168555604051600181527fc7f505b2f371ae2175ee4913f4499e1f2633a7b5936321eed1cdaeb6115181d29060200160405180910390a15b50505050505050565b60008281527f02dd7bc7dec4dceedda775e58dd541e08a116c6c53815c0bd028192f7b626800602052604090206001015461102c81611882565b6110368383611795565b50505050565b6001600160a01b038116331461107e576040517f6697b23200000000000000000000000000000000000000000000000000000000815260040160405180910390fd5b611088828261188c565b505050565b600061109881611882565b6110a182611950565b5050565b6110ad611a05565b6110b682611ad5565b6110a18282611ae0565b60006110ca611be6565b507f360894a13ba1a3210667c828492db98dca3e2076cc3735a920a3ca505d382bbc90565b6110fd858585858533611c48565b5050505050565b6000808061111181611882565b6040805160806020601f8c018190040282018101909252606081018a81526111cd928291908d908d9081908501838280828437600092019190915250505090825250604080516020601f8c018190048102820181019092528a815291810191908b908b9081908401838280828437600092019190915250505090825250604080516020601f8a01819004810282018101909252888152918101919089908990819084018382808284376000920191909152505050915250611d3a565b9250925050965096945050505050565b60006111e98383611ee2565b9392505050565b6000806111fc81611882565b61120583612146565b91505b50919050565b611217816121fd565b50565b61121781336122e2565b600061122f81611882565b61108883836123c5565b60008281527f02dd7bc7dec4dceedda775e58dd541e08a116c6c53815c0bd028192f7b626800602052604090206001015461127381611882565b611036838361188c565b61128d88888888888888886124a5565b5050505050505050565b61121781612819565b60007fffffffff0000000000000000000000000000000000000000000000000000000082167f7965db0b000000000000000000000000000000000000000000000000000000001480610a6457507f01ffc9a7000000000000000000000000000000000000000000000000000000007fffffffff00000000000000000000000000000000000000000000000000000000831614610a64565b7f00000000000000000000000000000000000000000000000000000000000000008711158061138657507f00000000000000000000000000000000000000000000000000000000000000008710155b156113bd576040517f445e056c00000000000000000000000000000000000000000000000000000000815260040160405180910390fd5b6003544660c01b7780000000000000000000000000000000000000000000000017906113ea906001614518565b036113f7574660c01b6003555b3a861015611431576040517f4d8e7c6200000000000000000000000000000000000000000000000000000000815260040160405180910390fd5b847f000000000000000000000000000000000000000000000000000000000000000061147d7f000000000000000000000000000000000000000000000000000000000000000085614518565b6114879190614518565b611491908861452b565b11156114c9576040517f7273245b00000000000000000000000000000000000000000000000000000000815260040160405180910390fd5b60ff8b166000908152602081905260408120547f000000000000000000000000000000000000000000000000000000000000000090611508908a61452b565b6115129190614518565b9050604051806101400160405280428152602001888152602001828152602001878152602001848152602001836001600160a01b03168152602001856001600160a01b031681526020018d60ff1681526020018c81526020018b8b8080601f0160208091040260200160405190810160405280939291908181526020018383808284376000920182905250939094525050600380546002935082906115b690614542565b918290555081526020808201929092526040908101600020835181559183015160018301558201516002820155606082015160038201556080820151600482015560a08201516005820180546001600160a01b039283167fffffffffffffffffffffffff000000000000000000000000000000000000000090911617905560c083015160068301805460e086015160ff1674010000000000000000000000000000000000000000027fffffffffffffffffffffff0000000000000000000000000000000000000000009091169290931691909117919091179055610100820151600782015561012082015160088201906116b090826145c1565b506116e99150506001600160a01b037f000000000000000000000000000000000000000000000000000000000000000016833084612b96565b8b60ff166003547f5ec8d7bcf04b3bd430cf1b7660476ef3c56c4871d26f2910a03fcfe5d8db987e8d8d8d8d8d888e8e8e428f8f6040516117359c9b9a999897969594939291906146e7565b60405180910390a3505050505050505050505050565b611753612c12565b565b61175d612c12565b60005b81518110156110a15761178b82828151811061177e5761177e61475a565b6020026020010151611d3a565b5050600101611760565b60008281527f02dd7bc7dec4dceedda775e58dd541e08a116c6c53815c0bd028192f7b626800602081815260408084206001600160a01b038616855290915282205460ff16611878576000848152602082815260408083206001600160a01b0387168452909152902080547fffffffffffffffffffffffffffffffffffffffffffffffffffffffffffffff0016600117905561182e3390565b6001600160a01b0316836001600160a01b0316857f2f8788117e7eff1d82e926ec794901d17c78024a50270940304540a733656f0d60405160405180910390a46001915050610a64565b6000915050610a64565b6112178133612c79565b60008281527f02dd7bc7dec4dceedda775e58dd541e08a116c6c53815c0bd028192f7b626800602081815260408084206001600160a01b038616855290915282205460ff1615611878576000848152602082815260408083206001600160a01b038716808552925280832080547fffffffffffffffffffffffffffffffffffffffffffffffffffffffffffffff0016905551339287917ff6391f5c32d9c69d2a47ea670b442974b53935d1edc7fd64eb21e047a839171b9190a46001915050610a64565b60ff8082166000908152602081905260409020600101541661199e576040517f946a3fd200000000000000000000000000000000000000000000000000000000815260040160405180910390fd5b60ff811660008181526020819052604080822082815560010180547fffffffffffffffffffffffffffffffffffffffffffffffffffffffffffffff00169055517f8a5bb9eeea904ebbaf3b182fde9aee35c89c160e04a1f804d5ccb802438f55089190a250565b306001600160a01b037f0000000000000000000000000000000000000000000000000000000000000000161480611a9e57507f00000000000000000000000000000000000000000000000000000000000000006001600160a01b0316611a927f360894a13ba1a3210667c828492db98dca3e2076cc3735a920a3ca505d382bbc546001600160a01b031690565b6001600160a01b031614155b15611753576040517fe07c8dba00000000000000000000000000000000000000000000000000000000815260040160405180910390fd5b60006110a181611882565b816001600160a01b03166352d1902d6040518163ffffffff1660e01b8152600401602060405180830381865afa925050508015611b3a575060408051601f3d908101601f19168201909252611b3791810190614789565b60015b611b80576040517f4c9c8ce30000000000000000000000000000000000000000000000000000000081526001600160a01b03831660048201526024015b60405180910390fd5b7f360894a13ba1a3210667c828492db98dca3e2076cc3735a920a3ca505d382bbc8114611bdc576040517faa1d49a400000000000000000000000000000000000000000000000000000000815260048101829052602401611b77565b6110888383612d06565b306001600160a01b037f00000000000000000000000000000000000000000000000000000000000000001614611753576040517fe07c8dba00000000000000000000000000000000000000000000000000000000815260040160405180910390fd5b611c528686611ee2565b506000611c628660000151612d5c565b9050611c718284878785612da5565b6001600160a01b038181166000908152600160205260409020541615611cc3576040517ffd764a3900000000000000000000000000000000000000000000000000000000815260040160405180910390fd5b6001600160a01b0381811660008181526001602052604080822080547fffffffffffffffffffffffff0000000000000000000000000000000000000000169487169485179055519192917f95f86f0783d4494f76a6aeaa178c399f2c6a140aa3e88d39f056b00f460d359a9190a350505050505050565b80515160009081907fc17b4b708b6f44255c20913a9d97a05300b670342c71fe5ae5b617bd4db55000906030148015611d7857508360200151516030145b8015611d8957508360400151516030145b611dbf576040517f84c61bb600000000000000000000000000000000000000000000000000000000815260040160405180910390fd5b6000846000015185602001518660400151604051602001611de2939291906147a2565b60408051601f1981840301815291815281516020928301206000818152928590529120805491925090611e149061449c565b159050611e2657946000945092505050565b60408051606081018252865181526020808801518183015287830151828401526000848152908590529190912081518190611e6190826145c1565b5060208201516001820190611e7690826145c1565b5060408201516002820190611e8b90826145c1565b50905050807f52b29bbdd97ab983419f50fa1590e5ab75e9942279e95e10a08607b06c23238b866000015187602001518860400151604051611ecf939291906147e5565b60405180910390a2946001945092505050565b6000807fc17b4b708b6f44255c20913a9d97a05300b670342c71fe5ae5b617bd4db5500090506000836020015184604001518560600151604051602001611f2b939291906147a2565b60408051601f1981840301815291815281516020928301206000818152928590529120805491925090611f5d9061449c565b9050600003611f98576040517f38c4ac1600000000000000000000000000000000000000000000000000000000815260040160405180910390fd5b611fc27f00000000000000000000000000000000000000000000000000000000000000004261481e565b6103e88560800151611fd49190614831565b1161200b576040517f19605e0a00000000000000000000000000000000000000000000000000000000815260040160405180910390fd5b6040517feac708a30000000000000000000000000000000000000000000000000000000081526001600160a01b037f0000000000000000000000000000000000000000000000000000000000000000169063eac708a390612072908890889060040161486c565b60006040518083038186803b15801561208a57600080fd5b505afa15801561209e573d6000803e3d6000fd5b5050505060006120b18560000151612d5c565b6001600160a01b0381166000908152600185016020526040902054909150156120e05760009350505050610a64565b6001600160a01b038116600081815260018501602052604090819020849055865190518492917fbb4d6428d53ea924d94be0488473deb5c0a70c979f8477d21911cb5bee4037fd9161213291906143bc565b60405180910390a350600195945050505050565b60008181527fc17b4b708b6f44255c20913a9d97a05300b670342c71fe5ae5b617bd4db5500060208190526040822080546121809061449c565b90506000036121925750600092915050565b6000838152602082905260408120906121ab8282613afe565b6121b9600183016000613afe565b6121c7600283016000613afe565b505060405183907f4b71bedda4217966eac1aa49e35b1550e5ab87064ae179d1b36b393bd04eb74390600090a250600192915050565b6001600160a01b03811660009081527fc17b4b708b6f44255c20913a9d97a05300b670342c71fe5ae5b617bd4db5500160205260409020547fc17b4b708b6f44255c20913a9d97a05300b670342c71fe5ae5b617bd4db55000908061228e576040517f3dd8ca9500000000000000000000000000000000000000000000000000000000815260040160405180910390fd5b600081815260208390526040902080546122a79061449c565b9050600003611088576040517f38c4ac1600000000000000000000000000000000000000000000000000000000815260040160405180910390fd5b6001600160a01b03828116600090815260016020526040902054811690821614612338576040517febabf73400000000000000000000000000000000000000000000000000000000815260040160405180910390fd5b6001600160a01b0380831660009081526001602052604090205461235c9116612fd1565b506001600160a01b03821660008181526001602052604080822080547fffffffffffffffffffffffff0000000000000000000000000000000000000000169055517f962f6082057b3b4fb251973bd737c7707bf1733cf85a0b7c86fd6c3caca260c59190a25050565b60ff8083166000908152602081905260409020600101541615612414576040517ffc0cc7c200000000000000000000000000000000000000000000000000000000815260040160405180910390fd5b6040805180820182528281526001602080830182815260ff871660008181528084528690209451855590519390920180547fffffffffffffffffffffffffffffffffffffffffffffffffffffffffffffff00169315159390931790925591518381527f8209448d20a75f043ca193e55ea9488c5431646ce030638fd68a5635c215aee6910160405180910390a25050565b6000868152600260208181526040808420815161014081018352815481526001820154938101939093529283015490820152600382015460608201526004820154608082015260058201546001600160a01b0390811660a0830152600683015490811660c083015274010000000000000000000000000000000000000000900460ff1660e08201526007820154610100820152600882018054919291610120840191906125519061449c565b80601f016020809104026020016040519081016040528092919081815260200182805461257d9061449c565b80156125ca5780601f1061259f576101008083540402835291602001916125ca565b820191906000526020600020905b8154815290600101906020018083116125ad57829003601f168201915b5050509190925250505060a08101519091506001600160a01b031661261b576040517f9da0635900000000000000000000000000000000000000000000000000000000815260040160405180910390fd5b8051612648907f000000000000000000000000000000000000000000000000000000000000000090614518565b421115612681576040517f159413f400000000000000000000000000000000000000000000000000000000815260040160405180910390fd5b60006126938a8a8a8a8a8a8a8a613084565b600089815260026020819052604082208281556001810183905590810182905560038101829055600481018290556005810180547fffffffffffffffffffffffff00000000000000000000000000000000000000001690556006810180547fffffffffffffffffffffff0000000000000000000000000000000000000000001690556007810182905591925061272c6008830182613afe565b50506127478260e00151828460a001518886604001516132b3565b6000806127578a858b8b8a613369565b909250905060003a6127897f000000000000000000000000000000000000000000000000000000000000000084614518565b612793919061452b565b6001600160a01b0380861660009081526001602052604090205460a088015160608901519394506127ca939190921691908461347e565b8a7f3bcf275077501f1077e75b4e70896bf241dc8cbeec71823201ef711cfc454ea18b8b8b8b88604051612802959493929190614900565b60405180910390a250505050505050505050505050565b6000818152600260208181526040808420815161014081018352815481526001820154938101939093529283015490820152600382015460608201526004820154608082015260058201546001600160a01b0390811660a0830152600683015490811660c083015274010000000000000000000000000000000000000000900460ff1660e08201526007820154610100820152600882018054919291610120840191906128c59061449c565b80601f01602080910402602001604051908101604052809291908181526020018280546128f19061449c565b801561293e5780601f106129135761010080835404028352916020019161293e565b820191906000526020600020905b81548152906001019060200180831161292157829003601f168201915b5050509190925250505060a08101519091506001600160a01b031661298f576040517f9da0635900000000000000000000000000000000000000000000000000000000815260040160405180910390fd5b80516129bc907f000000000000000000000000000000000000000000000000000000000000000090614518565b42116129f4576040517fd856047b00000000000000000000000000000000000000000000000000000000815260040160405180910390fd5b60608101516040808301516000858152600260208190529281208181556001810182905592830181905560038301819055600483018190556005830180547fffffffffffffffffffffffff00000000000000000000000000000000000000001690556006830180547fffffffffffffffffffffff00000000000000000000000000000000000000000016905560078301819055909190612a976008830182613afe565b505060a0830151612ad3906001600160a01b037f0000000000000000000000000000000000000000000000000000000000000000169083613536565b60008360a001516001600160a01b03168360405160006040518083038185875af1925050503d8060008114612b24576040519150601f19603f3d011682016040523d82523d6000602084013e612b29565b606091505b5050905080612b64576040517ffbe8c5be00000000000000000000000000000000000000000000000000000000815260040160405180910390fd5b60405185907f58243f872c550ad02802199ade99eb4250f6bb19e9abbf2d3de7b969c0eb5e4f90600090a25050505050565b6040516001600160a01b0384811660248301528381166044830152606482018390526110369186918216906323b872dd906084015b604051602081830303815290604052915060e01b6020820180517bffffffffffffffffffffffffffffffffffffffffffffffffffffffff8381831617835250505050613567565b7ff0c57e16840df040f15088dc2f81fe391c3923bec73e23a9662efc9c229c6a005468010000000000000000900460ff16611753576040517fd7e6bcf800000000000000000000000000000000000000000000000000000000815260040160405180910390fd5b60008281527f02dd7bc7dec4dceedda775e58dd541e08a116c6c53815c0bd028192f7b626800602090815260408083206001600160a01b038516845290915290205460ff166110a1576040517fe2517d3f0000000000000000000000000000000000000000000000000000000081526001600160a01b038216600482015260248101839052604401611b77565b612d0f826135e3565b6040516001600160a01b038316907fbc7cd75a20ee27fd9adebab32041f755214dbc6bffa90cc0225b39da2e5c2d3b90600090a2805115612d5457611088828261368b565b6110a1613701565b60008151604014612d99576040517fbd9c80c100000000000000000000000000000000000000000000000000000000815260040160405180910390fd5b50805160209091012090565b612dcf7f000000000000000000000000000000000000000000000000000000000000000085614518565b421115612e08576040517f0a151d0b00000000000000000000000000000000000000000000000000000000815260040160405180910390fd5b604080517f5f8784d207b73e6da533ec436e4e68df897ada404898707128cf43ddf65f7a186020808301919091526001600160a01b038816828401526060808301889052835180840390910181526080830184528051908201207fb03948446334eb9b2196d5eb166f69b9d49403eb4a12f36de8d3f9f3cb8e15c360a08401527fd13b7bcdea8dd87e8f9a0d206dc73d6264326a7f9f4c38119298bb466e785c5360c08401527fc89efdaa54c0f20c7adf612882df0950f5a951637e0307cdcb4c672f298b8bc660e08085019190915284518085039091018152610100840185528051908301207f1901000000000000000000000000000000000000000000000000000000000000610120850152610122840152610142808401829052845180850390910181526101628401808652815191840191909120610182601f890185900490940285018401909552868152909392600092612f8492918991899182910183828082843760009201919091525086939250506137399050565b9050836001600160a01b0316816001600160a01b03161461128d576040517ff5b2592500000000000000000000000000000000000000000000000000000000815260040160405180910390fd5b6001600160a01b03811660009081527fc17b4b708b6f44255c20913a9d97a05300b670342c71fe5ae5b617bd4db5500160205260408120547fc17b4b708b6f44255c20913a9d97a05300b670342c71fe5ae5b617bd4db55000906130385750600092915050565b6001600160a01b0383166000818152600183016020526040808220829055517f0f586d928fc7ce3b60c8a7c276a8562f9f53b126cebe71cf612948dfc52eff169190a250600192915050565b60006130b07f000000000000000000000000000000000000000000000000000000000000000083614518565b4211156130e9576040517f0a151d0b00000000000000000000000000000000000000000000000000000000815260040160405180910390fd5b60007f37096cd2491f9c5ef86ecee2c1b7a06103393df9e824c16fab6722c818bd43ef88888860405161311d929190614936565b60408051918290038220602083019490945281019190915260608101919091526080810186905260ff851660a082015260c0810184905260e00160408051601f1981840301815282825280516020918201207fb03948446334eb9b2196d5eb166f69b9d49403eb4a12f36de8d3f9f3cb8e15c3918401919091527fd13b7bcdea8dd87e8f9a0d206dc73d6264326a7f9f4c38119298bb466e785c53918301919091527fc89efdaa54c0f20c7adf612882df0950f5a951637e0307cdcb4c672f298b8bc66060830152915060009060800160408051601f198184030181529082905280516020918201207f19010000000000000000000000000000000000000000000000000000000000009183019190915260228201526042810183905260620160405160208183030381529060405280519060200120905060006132998c8c8080601f01602080910402602001604051908101604052809392919081815260200183838082843760009201919091525086939250506137399050565b90506132a4816121fd565b9b9a5050505050505050505050565b60ff8516600090815260208181526040808320546001600160a01b03808916855260019093529220549184027f0000000000000000000000000000000000000000000000000000000000000000019182840391613335917f00000000000000000000000000000000000000000000000000000000000000008216911684613536565b610fe96001600160a01b037f0000000000000000000000000000000000000000000000000000000000000000168683613536565b60008085602001513a116134745760005a90508660c001516001600160a01b03168760800151898960a001518a61010001518b61012001518b8b8b6040516024016133ba9796959493929190614946565b60408051601f198184030181529181526020820180517bffffffffffffffffffffffffffffffffffffffffffffffffffffffff167f9e24036d000000000000000000000000000000000000000000000000000000001790525161341d919061499f565b60006040518083038160008787f1925050503d806000811461345b576040519150601f19603f3d011682016040523d82523d6000602084013e613460565b606091505b50909350505a613470908261481e565b9150505b9550959350505050565b81811161348b578061348d565b815b90506000846001600160a01b03168260405160006040518083038185875af1925050503d80600081146134dc576040519150601f19603f3d011682016040523d82523d6000602084013e6134e1565b606091505b50909150506001600160a01b0384166134fa838561481e565b604051600081818185875af1925050503d806000811461128d576040519150601f19603f3d011682016040523d82523d6000602084013e61128d565b6040516001600160a01b0383811660248301526044820183905261108891859182169063a9059cbb90606401612bcb565b600061357c6001600160a01b03841683613763565b905080516000141580156135a157508080602001905181019061359f91906149bb565b155b15611088576040517f5274afe70000000000000000000000000000000000000000000000000000000081526001600160a01b0384166004820152602401611b77565b806001600160a01b03163b600003613632576040517f4c9c8ce30000000000000000000000000000000000000000000000000000000081526001600160a01b0382166004820152602401611b77565b7f360894a13ba1a3210667c828492db98dca3e2076cc3735a920a3ca505d382bbc80547fffffffffffffffffffffffff0000000000000000000000000000000000000000166001600160a01b0392909216919091179055565b6060600080846001600160a01b0316846040516136a8919061499f565b600060405180830381855af49150503d80600081146136e3576040519150601f19603f3d011682016040523d82523d6000602084013e6136e8565b606091505b50915091506136f8858383613771565b95945050505050565b3415611753576040517fb398979f00000000000000000000000000000000000000000000000000000000815260040160405180910390fd5b60008060008061374986866137e6565b9250925092506137598282613833565b5090949350505050565b60606111e983836000613937565b60608261378657613781826139ed565b6111e9565b815115801561379d57506001600160a01b0384163b155b156137df576040517f9996b3150000000000000000000000000000000000000000000000000000000081526001600160a01b0385166004820152602401611b77565b5092915050565b600080600083516041036138205760208401516040850151606086015160001a61381288828585613a2f565b95509550955050505061382c565b50508151600091506002905b9250925092565b6000826003811115613847576138476149dd565b03613850575050565b6001826003811115613864576138646149dd565b0361389b576040517ff645eedf00000000000000000000000000000000000000000000000000000000815260040160405180910390fd5b60028260038111156138af576138af6149dd565b036138e9576040517ffce698f700000000000000000000000000000000000000000000000000000000815260048101829052602401611b77565b60038260038111156138fd576138fd6149dd565b036110a1576040517fd78bce0c00000000000000000000000000000000000000000000000000000000815260048101829052602401611b77565b606081471015613975576040517fcd786059000000000000000000000000000000000000000000000000000000008152306004820152602401611b77565b600080856001600160a01b03168486604051613991919061499f565b60006040518083038185875af1925050503d80600081146139ce576040519150601f19603f3d011682016040523d82523d6000602084013e6139d3565b606091505b50915091506139e3868383613771565b9695505050505050565b8051156139fd5780518082602001fd5b6040517f1425ea4200000000000000000000000000000000000000000000000000000000815260040160405180910390fd5b600080807f7fffffffffffffffffffffffffffffff5d576e7357a4501ddfe92f46681b20a0841115613a6a5750600091506003905082613af4565b604080516000808252602082018084528a905260ff891692820192909252606081018790526080810186905260019060a0016020604051602081039080840390855afa158015613abe573d6000803e3d6000fd5b5050604051601f1901519150506001600160a01b038116613aea57506000925060019150829050613af4565b9250600091508190505b9450945094915050565b508054613b0a9061449c565b6000825580601f10613b1a575050565b601f01602090049060005260206000209081019061121791905b80821115613b485760008155600101613b34565b5090565b80356001600160a01b0381168114613b6357600080fd5b919050565b600060208284031215613b7a57600080fd5b6111e982613b4c565b600060208284031215613b9557600080fd5b81357fffffffff00000000000000000000000000000000000000000000000000000000811681146111e957600080fd5b803560ff81168114613b6357600080fd5b600060208284031215613be857600080fd5b6111e982613bc5565b600060208284031215613c0357600080fd5b5035919050565b60005b83811015613c25578181015183820152602001613c0d565b50506000910152565b60008151808452613c46816020860160208601613c0a565b601f01601f19169290920160200192915050565b8a81528960208201528860408201528760608201528660808201526001600160a01b03861660a08201526001600160a01b03851660c082015260ff841660e0820152826101008201526101406101208201526000613cbc610140830184613c2e565b9c9b505050505050505050505050565b60008083601f840112613cde57600080fd5b50813567ffffffffffffffff811115613cf657600080fd5b602083019150836020828501011115613d0e57600080fd5b9250929050565b60008060008060008060008060006101008a8c031215613d3457600080fd5b613d3d8a613bc5565b985060208a0135975060408a013567ffffffffffffffff811115613d6057600080fd5b613d6c8c828d01613ccc565b90985096505060608a0135945060808a01359350613d8c60a08b01613b4c565b9250613d9a60c08b01613b4c565b989b979a50959894979396929550909360e00135919050565b602081526000825160606020840152613dcf6080840182613c2e565b90506020840151601f19848303016040850152613dec8282613c2e565b9150506040840151601f198483030160608501526136f88282613c2e565b7f4e487b7100000000000000000000000000000000000000000000000000000000600052604160045260246000fd5b6040516060810167ffffffffffffffff81118282101715613e5c57613e5c613e0a565b60405290565b60405160a0810167ffffffffffffffff81118282101715613e5c57613e5c613e0a565b604051601f8201601f1916810167ffffffffffffffff81118282101715613eae57613eae613e0a565b604052919050565b600082601f830112613ec757600080fd5b813567ffffffffffffffff811115613ee157613ee1613e0a565b613ef46020601f19601f84011601613e85565b818152846020838601011115613f0957600080fd5b816020850160208301376000918101602001919091529392505050565b60008060408385031215613f3957600080fd5b613f4283613b4c565b9150602083013567ffffffffffffffff811115613f5e57600080fd5b8301601f81018513613f6f57600080fd5b803567ffffffffffffffff811115613f8957613f89613e0a565b8060051b613f9960208201613e85565b91825260208184018101929081019088841115613fb557600080fd5b6020850192505b8383101561409557823567ffffffffffffffff811115613fdb57600080fd5b85016060818b03601f19011215613ff157600080fd5b613ff9613e39565b602082013567ffffffffffffffff81111561401357600080fd5b6140228c602083860101613eb6565b825250604082013567ffffffffffffffff81111561403f57600080fd5b61404e8c602083860101613eb6565b602083015250606082013567ffffffffffffffff81111561406e57600080fd5b61407d8c602083860101613eb6565b60408301525083525060209283019290910190613fbc565b80955050505050509250929050565b600080604083850312156140b757600080fd5b823591506140c760208401613b4c565b90509250929050565b600080604083850312156140e357600080fd5b6140ec83613b4c565b9150602083013567ffffffffffffffff81111561410857600080fd5b61411485828601613eb6565b9150509250929050565b600060a0828403121561413057600080fd5b614138613e62565b9050813567ffffffffffffffff81111561415157600080fd5b61415d84828501613eb6565b825250602082013567ffffffffffffffff81111561417a57600080fd5b61418684828501613eb6565b602083015250604082013567ffffffffffffffff8111156141a657600080fd5b6141b284828501613eb6565b604083015250606082013567ffffffffffffffff8111156141d257600080fd5b6141de84828501613eb6565b60608301525060809182013591810191909152919050565b60008060008060006080868803121561420e57600080fd5b853567ffffffffffffffff81111561422557600080fd5b61423188828901613eb6565b955050602086013567ffffffffffffffff81111561424e57600080fd5b61425a8882890161411e565b945050604086013567ffffffffffffffff81111561427757600080fd5b61428388828901613ccc565b96999598509660600135949350505050565b600080600080600080606087890312156142ae57600080fd5b863567ffffffffffffffff8111156142c557600080fd5b6142d189828a01613ccc565b909750955050602087013567ffffffffffffffff8111156142f157600080fd5b6142fd89828a01613ccc565b909550935050604087013567ffffffffffffffff81111561431d57600080fd5b61432989828a01613ccc565b979a9699509497509295939492505050565b6000806040838503121561434e57600080fd5b50508035926020909101359150565b6000806040838503121561437057600080fd5b823567ffffffffffffffff81111561438757600080fd5b61439385828601613eb6565b925050602083013567ffffffffffffffff8111156143b057600080fd5b6141148582860161411e565b6020815260006111e96020830184613c2e565b600080604083850312156143e257600080fd5b6143eb83613bc5565b946020939093013593505050565b60008060008060008060008060c0898b03121561441557600080fd5b883567ffffffffffffffff81111561442c57600080fd5b6144388b828c01613ccc565b90995097505060208901359550604089013567ffffffffffffffff81111561445f57600080fd5b61446b8b828c01613ccc565b9096509450506060890135925061448460808a01613bc5565b979a969950949793969295919450919260a001359150565b600181811c908216806144b057607f821691505b602082108103611208577f4e487b7100000000000000000000000000000000000000000000000000000000600052602260045260246000fd5b7f4e487b7100000000000000000000000000000000000000000000000000000000600052601160045260246000fd5b80820180821115610a6457610a646144e9565b8082028115828204841417610a6457610a646144e9565b60007fffffffffffffffffffffffffffffffffffffffffffffffffffffffffffffffff8203614573576145736144e9565b5060010190565b601f82111561108857806000526020600020601f840160051c810160208510156145a15750805b601f840160051c820191505b818110156110fd57600081556001016145ad565b815167ffffffffffffffff8111156145db576145db613e0a565b6145ef816145e9845461449c565b8461457a565b6020601f821160018114614641576000831561460b5750848201515b7fffffffffffffffffffffffffffffffffffffffffffffffffffffffffffffffff600385901b1c1916600184901b1784556110fd565b600084815260208120601f198516915b828110156146715787850151825560209485019460019092019101614651565b50848210156146ad57868401517fffffffffffffffffffffffffffffffffffffffffffffffffffffffffffffffff600387901b60f8161c191681555b50505050600190811b01905550565b818352818160208501375060006020828401015260006020601f19601f840116840101905092915050565b8c81526101606020820152600061470361016083018d8f6146bc565b604083019b909b52506060810198909852608088019690965260a08701949094526001600160a01b0392831660c087015290821660e086015261010085015261012084019190915216610140909101529392505050565b7f4e487b7100000000000000000000000000000000000000000000000000000000600052603260045260246000fd5b60006020828403121561479b57600080fd5b5051919050565b600084516147b4818460208901613c0a565b8451908301906147c8818360208901613c0a565b84519101906147db818360208801613c0a565b0195945050505050565b6060815260006147f86060830186613c2e565b828103602084015261480a8186613c2e565b905082810360408401526139e38185613c2e565b81810381811115610a6457610a646144e9565b600082614867577f4e487b7100000000000000000000000000000000000000000000000000000000600052601260045260246000fd5b500490565b60408152600061487f6040830185613c2e565b8281036020840152835160a0825261489a60a0830182613c2e565b9050602085015182820360208401526148b38282613c2e565b915050604085015182820360408401526148cd8282613c2e565b915050606085015182820360608401526148e78282613c2e565b9150506080850151608083015280925050509392505050565b6080815260006149146080830187896146bc565b60208301959095525060ff929092166040830152151560609091015292915050565b8183823760009101908152919050565b8781526001600160a01b038716602082015285604082015260c06060820152600061497460c0830187613c2e565b82810360808401526149878186886146bc565b91505060ff831660a083015298975050505050505050565b600082516149b1818460208701613c0a565b9190910192915050565b6000602082840312156149cd57600080fd5b815180151581146111e957600080fd5b7f4e487b7100000000000000000000000000000000000000000000000000000000600052602160045260246000fdfea2646970667358221220f3ae419f23f8864f0f887acab5ff93e846f3ea9f9d57737c07ec79ffc3db953164736f6c634300081b0033",
  "linkReferences": {},
  "deployedLinkReferences": {}
}