{
  "_format": "hh-sol-artifact-1",
  "contractName": "RelaySubscriptions",
  "sourceName": "contracts/serverless-v2/RelaySubscriptions.sol",
  "abi": [
    {
      "inputs": [
        {
          "internalType": "contract Relay",
          "name": "_relay",
          "type": "address"
        },
        {
          "internalType": "uint256",
          "name": "_minPeriodicGap",
          "type": "uint256"
        },
        {
          "internalType": "uint256",
          "name": "_maxPeriodicGap",
          "type": "uint256"
        },
        {
          "internalType": "uint256",
          "name": "_maxTerminationDuration",
          "type": "uint256"
        }
      ],
      "stateMutability": "nonpayable",
      "type": "constructor"
    },
    {
      "inputs": [],
      "name": "AccessControlBadConfirmation",
      "type": "error"
    },
    {
      "inputs": [
        {
          "internalType": "address",
          "name": "account",
          "type": "address"
        },
        {
          "internalType": "bytes32",
          "name": "neededRole",
          "type": "bytes32"
        }
      ],
      "name": "AccessControlUnauthorizedAccount",
      "type": "error"
    },
    {
      "inputs": [
        {
          "internalType": "address",
          "name": "target",
          "type": "address"
        }
      ],
      "name": "AddressEmptyCode",
      "type": "error"
    },
    {
      "inputs": [
        {
          "internalType": "address",
          "name": "account",
          "type": "address"
        }
      ],
      "name": "AddressInsufficientBalance",
      "type": "error"
    },
    {
      "inputs": [],
      "name": "ECDSAInvalidSignature",
      "type": "error"
    },
    {
      "inputs": [
        {
          "internalType": "uint256",
          "name": "length",
          "type": "uint256"
        }
      ],
      "name": "ECDSAInvalidSignatureLength",
      "type": "error"
    },
    {
      "inputs": [
        {
          "internalType": "bytes32",
          "name": "s",
          "type": "bytes32"
        }
      ],
      "name": "ECDSAInvalidSignatureS",
      "type": "error"
    },
    {
      "inputs": [
        {
          "internalType": "address",
          "name": "implementation",
          "type": "address"
        }
      ],
      "name": "ERC1967InvalidImplementation",
      "type": "error"
    },
    {
      "inputs": [],
      "name": "ERC1967NonPayable",
      "type": "error"
    },
    {
      "inputs": [],
      "name": "FailedInnerCall",
      "type": "error"
    },
    {
      "inputs": [],
      "name": "InvalidInitialization",
      "type": "error"
    },
    {
      "inputs": [],
      "name": "NotInitializing",
      "type": "error"
    },
    {
      "inputs": [],
      "name": "RelaySubscriptionsInsufficientCallbackDeposit",
      "type": "error"
    },
    {
      "inputs": [],
      "name": "RelaySubscriptionsInsufficientMaxGasPrice",
      "type": "error"
    },
    {
      "inputs": [],
      "name": "RelaySubscriptionsInsufficientUsdcDeposit",
      "type": "error"
    },
    {
      "inputs": [],
      "name": "RelaySubscriptionsInvalidCurrentRuns",
      "type": "error"
    },
    {
      "inputs": [],
      "name": "RelaySubscriptionsInvalidJobSubscription",
      "type": "error"
    },
    {
      "inputs": [],
      "name": "RelaySubscriptionsInvalidPeriodicGap",
      "type": "error"
    },
    {
      "inputs": [],
      "name": "RelaySubscriptionsInvalidRelay",
      "type": "error"
    },
    {
      "inputs": [],
      "name": "RelaySubscriptionsInvalidStartTimestamp",
      "type": "error"
    },
    {
      "inputs": [],
      "name": "RelaySubscriptionsInvalidTerminationTimestamp",
      "type": "error"
    },
    {
      "inputs": [],
      "name": "RelaySubscriptionsInvalidUserTimeout",
      "type": "error"
    },
    {
      "inputs": [],
      "name": "RelaySubscriptionsJobSubscriptionTerminated",
      "type": "error"
    },
    {
      "inputs": [],
      "name": "RelaySubscriptionsNotExists",
      "type": "error"
    },
    {
      "inputs": [],
      "name": "RelaySubscriptionsNotJobSubscriptionOwner",
      "type": "error"
    },
    {
      "inputs": [],
      "name": "RelaySubscriptionsOverallTimeoutOver",
      "type": "error"
    },
    {
      "inputs": [],
      "name": "RelaySubscriptionsSignatureTooOld",
      "type": "error"
    },
    {
      "inputs": [],
      "name": "RelaySubscriptionsTerminationConditionPending",
      "type": "error"
    },
    {
      "inputs": [],
      "name": "RelaySubscriptionsUnsupportedEnv",
      "type": "error"
    },
    {
      "inputs": [],
      "name": "RelaySubscriptionsZeroAddressAdmin",
      "type": "error"
    },
    {
      "inputs": [
        {
          "internalType": "address",
          "name": "token",
          "type": "address"
        }
      ],
      "name": "SafeERC20FailedOperation",
      "type": "error"
    },
    {
      "inputs": [],
      "name": "UUPSUnauthorizedCallContext",
      "type": "error"
    },
    {
      "inputs": [
        {
          "internalType": "bytes32",
          "name": "slot",
          "type": "bytes32"
        }
      ],
      "name": "UUPSUnsupportedProxiableUUID",
      "type": "error"
    },
    {
      "anonymous": false,
      "inputs": [
        {
          "indexed": false,
          "internalType": "uint64",
          "name": "version",
          "type": "uint64"
        }
      ],
      "name": "Initialized",
      "type": "event"
    },
    {
      "anonymous": false,
      "inputs": [
        {
          "indexed": true,
          "internalType": "uint256",
          "name": "jobSubsId",
          "type": "uint256"
        },
        {
          "indexed": true,
          "internalType": "address",
          "name": "jobOwner",
          "type": "address"
        },
        {
          "indexed": false,
          "internalType": "uint256",
          "name": "usdcAmountWithdrawn",
          "type": "uint256"
        },
        {
          "indexed": false,
          "internalType": "uint256",
          "name": "callbackAmountWithdrawn",
          "type": "uint256"
        },
        {
          "indexed": false,
          "internalType": "bool",
          "name": "success",
          "type": "bool"
        }
      ],
      "name": "JobSubscriptionDepositsRefunded",
      "type": "event"
    },
    {
      "anonymous": false,
      "inputs": [
        {
          "indexed": true,
          "internalType": "uint256",
          "name": "jobSubsId",
          "type": "uint256"
        },
        {
          "indexed": true,
          "internalType": "address",
          "name": "depositor",
          "type": "address"
        },
        {
          "indexed": false,
          "internalType": "uint256",
          "name": "usdcDeposit",
          "type": "uint256"
        },
        {
          "indexed": false,
          "internalType": "uint256",
          "name": "callbackDeposit",
          "type": "uint256"
        }
      ],
      "name": "JobSubscriptionFundsDeposited",
      "type": "event"
    },
    {
      "anonymous": false,
      "inputs": [
        {
          "indexed": true,
          "internalType": "uint256",
          "name": "jobSubsId",
          "type": "uint256"
        },
        {
          "indexed": false,
          "internalType": "bytes32",
          "name": "codehash",
          "type": "bytes32"
        },
        {
          "indexed": false,
          "internalType": "bytes",
          "name": "codeInputs",
          "type": "bytes"
        }
      ],
      "name": "JobSubscriptionJobParamsUpdated",
      "type": "event"
    },
    {
      "anonymous": false,
      "inputs": [
        {
          "indexed": true,
          "internalType": "uint256",
          "name": "jobSubsId",
          "type": "uint256"
        },
        {
          "indexed": false,
          "internalType": "bytes",
          "name": "output",
          "type": "bytes"
        },
        {
          "indexed": false,
          "internalType": "uint256",
          "name": "totalTime",
          "type": "uint256"
        },
        {
          "indexed": false,
          "internalType": "uint256",
          "name": "errorCode",
          "type": "uint256"
        },
        {
          "indexed": false,
          "internalType": "bool",
          "name": "success",
          "type": "bool"
        },
        {
          "indexed": false,
          "internalType": "uint256",
          "name": "currentRuns",
          "type": "uint256"
        },
        {
          "indexed": false,
          "internalType": "uint256",
          "name": "lastRunTimestamp",
          "type": "uint256"
        }
      ],
      "name": "JobSubscriptionResponded",
      "type": "event"
    },
    {
      "anonymous": false,
      "inputs": [
        {
          "indexed": true,
          "internalType": "uint256",
          "name": "jobSubsId",
          "type": "uint256"
        },
        {
          "indexed": true,
          "internalType": "uint8",
          "name": "env",
          "type": "uint8"
        },
        {
          "indexed": true,
          "internalType": "address",
          "name": "jobSubscriber",
          "type": "address"
        },
        {
          "indexed": false,
          "internalType": "uint256",
          "name": "periodicGap",
          "type": "uint256"
        },
        {
          "indexed": false,
          "internalType": "uint256",
          "name": "usdcDeposit",
          "type": "uint256"
        },
        {
          "indexed": false,
          "internalType": "uint256",
          "name": "terminationTimestamp",
          "type": "uint256"
        },
        {
          "indexed": false,
          "internalType": "uint256",
          "name": "userTimeout",
          "type": "uint256"
        },
        {
          "indexed": false,
          "internalType": "address",
          "name": "refundAccount",
          "type": "address"
        },
        {
          "indexed": false,
          "internalType": "bytes32",
          "name": "codehash",
          "type": "bytes32"
        },
        {
          "indexed": false,
          "internalType": "bytes",
          "name": "codeInputs",
          "type": "bytes"
        },
        {
          "indexed": false,
          "internalType": "uint256",
          "name": "startTime",
          "type": "uint256"
        }
      ],
      "name": "JobSubscriptionStarted",
      "type": "event"
    },
    {
      "anonymous": false,
      "inputs": [
        {
          "indexed": true,
          "internalType": "uint256",
          "name": "jobSubsId",
          "type": "uint256"
        }
      ],
      "name": "JobSubscriptionTerminated",
      "type": "event"
    },
    {
      "anonymous": false,
      "inputs": [
        {
          "indexed": true,
          "internalType": "uint256",
          "name": "jobSubsId",
          "type": "uint256"
        },
        {
          "indexed": false,
          "internalType": "uint256",
          "name": "terminationTimestamp",
          "type": "uint256"
        }
      ],
      "name": "JobSubscriptionTerminationParamsUpdated",
      "type": "event"
    },
    {
      "anonymous": false,
      "inputs": [
        {
          "indexed": true,
          "internalType": "bytes32",
          "name": "role",
          "type": "bytes32"
        },
        {
          "indexed": true,
          "internalType": "bytes32",
          "name": "previousAdminRole",
          "type": "bytes32"
        },
        {
          "indexed": true,
          "internalType": "bytes32",
          "name": "newAdminRole",
          "type": "bytes32"
        }
      ],
      "name": "RoleAdminChanged",
      "type": "event"
    },
    {
      "anonymous": false,
      "inputs": [
        {
          "indexed": true,
          "internalType": "bytes32",
          "name": "role",
          "type": "bytes32"
        },
        {
          "indexed": true,
          "internalType": "address",
          "name": "account",
          "type": "address"
        },
        {
          "indexed": true,
          "internalType": "address",
          "name": "sender",
          "type": "address"
        }
      ],
      "name": "RoleGranted",
      "type": "event"
    },
    {
      "anonymous": false,
      "inputs": [
        {
          "indexed": true,
          "internalType": "bytes32",
          "name": "role",
          "type": "bytes32"
        },
        {
          "indexed": true,
          "internalType": "address",
          "name": "account",
          "type": "address"
        },
        {
          "indexed": true,
          "internalType": "address",
          "name": "sender",
          "type": "address"
        }
      ],
      "name": "RoleRevoked",
      "type": "event"
    },
    {
      "anonymous": false,
      "inputs": [
        {
          "indexed": true,
          "internalType": "address",
          "name": "implementation",
          "type": "address"
        }
      ],
      "name": "Upgraded",
      "type": "event"
    },
    {
      "inputs": [],
      "name": "DEFAULT_ADMIN_ROLE",
      "outputs": [
        {
          "internalType": "bytes32",
          "name": "",
          "type": "bytes32"
        }
      ],
      "stateMutability": "view",
      "type": "function"
    },
    {
      "inputs": [],
      "name": "MAX_PERIODIC_GAP",
      "outputs": [
        {
          "internalType": "uint256",
          "name": "",
          "type": "uint256"
        }
      ],
      "stateMutability": "view",
      "type": "function"
    },
    {
      "inputs": [],
      "name": "MAX_TERMINATION_DURATION",
      "outputs": [
        {
          "internalType": "uint256",
          "name": "",
          "type": "uint256"
        }
      ],
      "stateMutability": "view",
      "type": "function"
    },
    {
      "inputs": [],
      "name": "MIN_PERIODIC_GAP",
      "outputs": [
        {
          "internalType": "uint256",
          "name": "",
          "type": "uint256"
        }
      ],
      "stateMutability": "view",
      "type": "function"
    },
    {
      "inputs": [],
      "name": "RELAY",
      "outputs": [
        {
          "internalType": "contract Relay",
          "name": "",
          "type": "address"
        }
      ],
      "stateMutability": "view",
      "type": "function"
    },
    {
      "inputs": [],
      "name": "UPGRADE_INTERFACE_VERSION",
      "outputs": [
        {
          "internalType": "string",
          "name": "",
          "type": "string"
        }
      ],
      "stateMutability": "view",
      "type": "function"
    },
    {
      "inputs": [
        {
          "internalType": "uint256",
          "name": "_jobSubsId",
          "type": "uint256"
        },
        {
          "internalType": "uint256",
          "name": "_usdcDeposit",
          "type": "uint256"
        }
      ],
      "name": "depositJobSubscriptionFunds",
      "outputs": [],
      "stateMutability": "payable",
      "type": "function"
    },
    {
      "inputs": [
        {
          "internalType": "bytes32",
          "name": "role",
          "type": "bytes32"
        }
      ],
      "name": "getRoleAdmin",
      "outputs": [
        {
          "internalType": "bytes32",
          "name": "",
          "type": "bytes32"
        }
      ],
      "stateMutability": "view",
      "type": "function"
    },
    {
      "inputs": [
        {
          "internalType": "bytes32",
          "name": "role",
          "type": "bytes32"
        },
        {
          "internalType": "address",
          "name": "account",
          "type": "address"
        }
      ],
      "name": "grantRole",
      "outputs": [],
      "stateMutability": "nonpayable",
      "type": "function"
    },
    {
      "inputs": [
        {
          "internalType": "bytes32",
          "name": "role",
          "type": "bytes32"
        },
        {
          "internalType": "address",
          "name": "account",
          "type": "address"
        }
      ],
      "name": "hasRole",
      "outputs": [
        {
          "internalType": "bool",
          "name": "",
          "type": "bool"
        }
      ],
      "stateMutability": "view",
      "type": "function"
    },
    {
      "inputs": [
        {
          "internalType": "address",
          "name": "_admin",
          "type": "address"
        }
      ],
      "name": "initialize",
      "outputs": [],
      "stateMutability": "nonpayable",
      "type": "function"
    },
    {
      "inputs": [],
      "name": "jobSubsCount",
      "outputs": [
        {
          "internalType": "uint256",
          "name": "",
          "type": "uint256"
        }
      ],
      "stateMutability": "view",
      "type": "function"
    },
    {
      "inputs": [
        {
          "internalType": "bytes",
          "name": "_signature",
          "type": "bytes"
        },
        {
          "internalType": "uint256",
          "name": "_jobId",
          "type": "uint256"
        },
        {
          "internalType": "bytes",
          "name": "_output",
          "type": "bytes"
        },
        {
          "internalType": "uint256",
          "name": "_totalTime",
          "type": "uint256"
        },
        {
          "internalType": "uint8",
          "name": "_errorCode",
          "type": "uint8"
        },
        {
          "internalType": "uint256",
          "name": "_signTimestamp",
          "type": "uint256"
        }
      ],
      "name": "jobSubsResponse",
      "outputs": [],
      "stateMutability": "nonpayable",
      "type": "function"
    },
    {
      "inputs": [
        {
          "internalType": "uint256",
          "name": "",
          "type": "uint256"
        }
      ],
      "name": "jobSubscriptions",
      "outputs": [
        {
          "internalType": "uint256",
          "name": "periodicGap",
          "type": "uint256"
        },
        {
          "internalType": "uint256",
          "name": "terminationTimestamp",
          "type": "uint256"
        },
        {
          "internalType": "uint256",
          "name": "currentRuns",
          "type": "uint256"
        },
        {
          "internalType": "uint256",
          "name": "lastRunTimestamp",
          "type": "uint256"
        },
        {
          "internalType": "uint256",
          "name": "userTimeout",
          "type": "uint256"
        },
        {
          "internalType": "address",
          "name": "refundAccount",
          "type": "address"
        },
        {
          "components": [
            {
              "internalType": "uint256",
              "name": "startTime",
              "type": "uint256"
            },
            {
              "internalType": "uint256",
              "name": "maxGasPrice",
              "type": "uint256"
            },
            {
              "internalType": "uint256",
              "name": "usdcDeposit",
              "type": "uint256"
            },
            {
              "internalType": "uint256",
              "name": "callbackDeposit",
              "type": "uint256"
            },
            {
              "internalType": "uint256",
              "name": "callbackGasLimit",
              "type": "uint256"
            },
            {
              "internalType": "address",
              "name": "jobOwner",
              "type": "address"
            },
            {
              "internalType": "address",
              "name": "callbackContract",
              "type": "address"
            },
            {
              "internalType": "uint8",
              "name": "env",
              "type": "uint8"
            },
            {
              "internalType": "bytes32",
              "name": "codehash",
              "type": "bytes32"
            },
            {
              "internalType": "bytes",
              "name": "codeInputs",
              "type": "bytes"
            }
          ],
          "internalType": "struct Relay.Job",
          "name": "job",
          "type": "tuple"
        }
      ],
      "stateMutability": "view",
      "type": "function"
    },
    {
      "inputs": [],
      "name": "proxiableUUID",
      "outputs": [
        {
          "internalType": "bytes32",
          "name": "",
          "type": "bytes32"
        }
      ],
      "stateMutability": "view",
      "type": "function"
    },
    {
      "inputs": [
        {
          "internalType": "uint256",
          "name": "_jobSubsId",
          "type": "uint256"
        }
      ],
      "name": "refundJobSubsDeposits",
      "outputs": [],
      "stateMutability": "nonpayable",
      "type": "function"
    },
    {
      "inputs": [
        {
          "internalType": "bytes32",
          "name": "role",
          "type": "bytes32"
        },
        {
          "internalType": "address",
          "name": "callerConfirmation",
          "type": "address"
        }
      ],
      "name": "renounceRole",
      "outputs": [],
      "stateMutability": "nonpayable",
      "type": "function"
    },
    {
      "inputs": [
        {
          "internalType": "bytes32",
          "name": "role",
          "type": "bytes32"
        },
        {
          "internalType": "address",
          "name": "account",
          "type": "address"
        }
      ],
      "name": "revokeRole",
      "outputs": [],
      "stateMutability": "nonpayable",
      "type": "function"
    },
    {
      "inputs": [
        {
          "components": [
            {
              "internalType": "uint8",
              "name": "env",
              "type": "uint8"
            },
            {
              "internalType": "uint256",
              "name": "startTime",
              "type": "uint256"
            },
            {
              "internalType": "uint256",
              "name": "maxGasPrice",
              "type": "uint256"
            },
            {
              "internalType": "uint256",
              "name": "usdcDeposit",
              "type": "uint256"
            },
            {
              "internalType": "uint256",
              "name": "callbackGasLimit",
              "type": "uint256"
            },
            {
              "internalType": "address",
              "name": "callbackContract",
              "type": "address"
            },
            {
              "internalType": "bytes32",
              "name": "codehash",
              "type": "bytes32"
            },
            {
              "internalType": "bytes",
              "name": "codeInputs",
              "type": "bytes"
            },
            {
              "internalType": "uint256",
              "name": "periodicGap",
              "type": "uint256"
            },
            {
              "internalType": "uint256",
              "name": "terminationTimestamp",
              "type": "uint256"
            },
            {
              "internalType": "uint256",
              "name": "userTimeout",
              "type": "uint256"
            },
            {
              "internalType": "address",
              "name": "refundAccount",
              "type": "address"
            }
          ],
          "internalType": "struct RelaySubscriptions.JobSubscriptionParams",
          "name": "_jobSubsParams",
          "type": "tuple"
        }
      ],
      "name": "startJobSubscription",
      "outputs": [
        {
          "internalType": "uint256",
          "name": "",
          "type": "uint256"
        }
      ],
      "stateMutability": "payable",
      "type": "function"
    },
    {
      "inputs": [
        {
          "internalType": "bytes4",
          "name": "interfaceId",
          "type": "bytes4"
        }
      ],
      "name": "supportsInterface",
      "outputs": [
        {
          "internalType": "bool",
          "name": "",
          "type": "bool"
        }
      ],
      "stateMutability": "view",
      "type": "function"
    },
    {
      "inputs": [
        {
          "internalType": "uint256",
          "name": "_jobSubsId",
          "type": "uint256"
        }
      ],
      "name": "terminateJobSubscription",
      "outputs": [],
      "stateMutability": "nonpayable",
      "type": "function"
    },
    {
      "inputs": [
        {
          "internalType": "uint256",
          "name": "_jobSubsId",
          "type": "uint256"
        },
        {
          "internalType": "bytes32",
          "name": "_codehash",
          "type": "bytes32"
        },
        {
          "internalType": "bytes",
          "name": "_codeInputs",
          "type": "bytes"
        }
      ],
      "name": "updateJobSubsJobParams",
      "outputs": [],
      "stateMutability": "nonpayable",
      "type": "function"
    },
    {
      "inputs": [
        {
          "internalType": "uint256",
          "name": "_jobSubsId",
          "type": "uint256"
        },
        {
          "internalType": "uint256",
          "name": "_terminationTimestamp",
          "type": "uint256"
        },
        {
          "internalType": "uint256",
          "name": "_usdcDeposit",
          "type": "uint256"
        }
      ],
      "name": "updateJobSubsTerminationParams",
      "outputs": [],
      "stateMutability": "payable",
      "type": "function"
    },
    {
      "inputs": [
        {
          "internalType": "address",
          "name": "newImplementation",
          "type": "address"
        },
        {
          "internalType": "bytes",
          "name": "data",
          "type": "bytes"
        }
      ],
      "name": "upgradeToAndCall",
      "outputs": [],
      "stateMutability": "payable",
      "type": "function"
    }
  ],
  "bytecode": "0x6101206040523060805234801561001557600080fd5b5060405161490b38038061490b83398101604081905261003491610135565b61003c610083565b6001600160a01b0384166100635760405163426f3a5f60e01b815260040160405180910390fd5b6001600160a01b0390931660a05260c09190915260e05261010052610180565b7ff0c57e16840df040f15088dc2f81fe391c3923bec73e23a9662efc9c229c6a00805468010000000000000000900460ff16156100d35760405163f92ee8a960e01b815260040160405180910390fd5b80546001600160401b03908116146101325780546001600160401b0319166001600160401b0390811782556040519081527fc7f505b2f371ae2175ee4913f4499e1f2633a7b5936321eed1cdaeb6115181d29060200160405180910390a15b50565b6000806000806080858703121561014b57600080fd5b84516001600160a01b038116811461016257600080fd5b60208601516040870151606090970151919890975090945092505050565b60805160a05160c05160e051610100516146676102a46000396000818161038201528181610db0015261211b01526000818161020a01526121af01526000818161050401526121810152600081816103100152818161086301528181610d190152818161104f015281816110d1015281816112010152818161127b0152818161186601528181611a2501528181611de501528181611f1f01528181611fc50152818161220f0152818161229f015281816124900152818161252f015281816125f70152818161283c0152818161290301528181612b4b01528181612bbc01528181612c6d01528181612cf101528181612f4301528181612fc5015281816130ae01526131670152600081816115d90152818161160201526117bc01526146676000f3fe60806040526004361061018b5760003560e01c806352d1902d116100d6578063ad3cb1cc1161007f578063c4d66de811610059578063c4d66de814610526578063d547741f14610546578063f2a9b01d1461056657600080fd5b8063ad3cb1cc14610489578063ae9cbd20146104df578063b9a83b89146104f257600080fd5b80638f8ce5f0116100b05780638f8ce5f0146103ef57806391d148541461040f578063a217fddf1461047457600080fd5b806352d1902d146103a45780635b65c460146103b95780636326e2a1146103cf57600080fd5b80632f2ff15d1161013857806346a9f6d21161011257806346a9f6d21461034a5780634f1ef2861461035d5780635270ac6a1461037057600080fd5b80632f2ff15d146102be57806336568abe146102de578063423154c9146102fe57600080fd5b806310d12e1f1161016957806310d12e1f1461023a578063248a9ca31461025c57806326cacd6f146102ab57600080fd5b806301ffc9a71461019057806304a11e96146101c55780630e42665a146101f8575b600080fd5b34801561019c57600080fd5b506101b06101ab366004613b34565b610586565b60405190151581526020015b60405180910390f35b3480156101d157600080fd5b506101e56101e0366004613b76565b610597565b6040516101bc9796959493929190613bdf565b34801561020457600080fd5b5061022c7f000000000000000000000000000000000000000000000000000000000000000081565b6040519081526020016101bc565b34801561024657600080fd5b5061025a610255366004613d03565b6106fa565b005b34801561026857600080fd5b5061022c610277366004613b76565b60009081527f02dd7bc7dec4dceedda775e58dd541e08a116c6c53815c0bd028192f7b626800602052604090206001015490565b61025a6102b9366004613d56565b61070c565b3480156102ca57600080fd5b5061025a6102d9366004613da7565b61071d565b3480156102ea57600080fd5b5061025a6102f9366004613da7565b610761565b34801561030a57600080fd5b506103327f000000000000000000000000000000000000000000000000000000000000000081565b6040516001600160a01b0390911681526020016101bc565b61025a610358366004613dd7565b6107ad565b61025a61036b366004613ee1565b6107bc565b34801561037c57600080fd5b5061022c7f000000000000000000000000000000000000000000000000000000000000000081565b3480156103b057600080fd5b5061022c6107d7565b3480156103c557600080fd5b5061022c60015481565b3480156103db57600080fd5b5061025a6103ea366004613b76565b610806565b3480156103fb57600080fd5b5061025a61040a366004613f42565b610812565b34801561041b57600080fd5b506101b061042a366004613da7565b60009182527f02dd7bc7dec4dceedda775e58dd541e08a116c6c53815c0bd028192f7b626800602090815260408084206001600160a01b0393909316845291905290205460ff1690565b34801561048057600080fd5b5061022c600081565b34801561049557600080fd5b506104d26040518060400160405280600581526020017f352e302e3000000000000000000000000000000000000000000000000000000081525081565b6040516101bc9190613fe5565b61022c6104ed366004613ff8565b61082c565b3480156104fe57600080fd5b5061022c7f000000000000000000000000000000000000000000000000000000000000000081565b34801561053257600080fd5b5061025a6105413660046140f2565b610923565b34801561055257600080fd5b5061025a610561366004613da7565b610b27565b34801561057257600080fd5b5061025a610581366004613b76565b610b6b565b600061059182610b74565b92915050565b60006020818152918152604090819020805460018201546002830154600384015460048501546005860154875161014081018952600688018054825260078901549a82019a909a5260088801549881019890985260098701546060890152600a8701546080890152600b8701546001600160a01b0390811660a08a0152600c88015480821660c08b015274010000000000000000000000000000000000000000900460ff1660e08a0152600d8801546101008a0152600e88018054979a969995989497939691909216949290916101208401916106739061410f565b80601f016020809104026020016040519081016040528092919081815260200182805461069f9061410f565b80156106ec5780601f106106c1576101008083540402835291602001916106ec565b820191906000526020600020905b8154815290600101906020018083116106cf57829003601f168201915b505050505081525050905087565b61070684848484610c0b565b50505050565b61071883838334610cc4565b505050565b60008281527f02dd7bc7dec4dceedda775e58dd541e08a116c6c53815c0bd028192f7b6268006020526040902060010154610757816113b7565b61070683836113c1565b6001600160a01b03811633146107a3576040517f6697b23200000000000000000000000000000000000000000000000000000000815260040160405180910390fd5b61071882826114ae565b6107b8828234611572565b5050565b6107c46115ce565b6107cd826116a0565b6107b882826116ab565b60006107e16117b1565b507f360894a13ba1a3210667c828492db98dca3e2076cc3735a920a3ca505d382bbc90565b61080f81611813565b50565b6108228888888888888888611b6b565b5050505050505050565b80516040517f156a962600000000000000000000000000000000000000000000000000000000815260ff82166004820152600091907f00000000000000000000000000000000000000000000000000000000000000006001600160a01b03169063156a962690602401602060405180830381865afa1580156108b2573d6000803e3d6000fd5b505050506040513d601f19601f820116820180604052508101906108d6919061415c565b61090c576040517fec6d1cdb00000000000000000000000000000000000000000000000000000000815260040160405180910390fd5b6109178334336120c5565b60015491505b50919050565b7ff0c57e16840df040f15088dc2f81fe391c3923bec73e23a9662efc9c229c6a00805468010000000000000000810460ff16159067ffffffffffffffff1660008115801561096e5750825b905060008267ffffffffffffffff16600114801561098b5750303b155b905081158015610999575080155b156109d0576040517ff92ee8a900000000000000000000000000000000000000000000000000000000815260040160405180910390fd5b84547fffffffffffffffffffffffffffffffffffffffffffffffff00000000000000001660011785558315610a315784547fffffffffffffffffffffffffffffffffffffffffffffff00ffffffffffffffff16680100000000000000001785555b6001600160a01b038616610a71576040517ffabd722c00000000000000000000000000000000000000000000000000000000815260040160405180910390fd5b610a79612521565b610a81612521565b610a89612521565b610a91612521565b610a9c6000876113c1565b504660c01b77800000000000000000000000000000000000000000000000176001558315610b1f5784547fffffffffffffffffffffffffffffffffffffffffffffff00ffffffffffffffff168555604051600181527fc7f505b2f371ae2175ee4913f4499e1f2633a7b5936321eed1cdaeb6115181d29060200160405180910390a15b505050505050565b60008281527f02dd7bc7dec4dceedda775e58dd541e08a116c6c53815c0bd028192f7b6268006020526040902060010154610b61816113b7565b61070683836114ae565b61080f81612529565b60007fffffffff0000000000000000000000000000000000000000000000000000000082167f7965db0b00000000000000000000000000000000000000000000000000000000148061059157507f01ffc9a7000000000000000000000000000000000000000000000000000000007fffffffff00000000000000000000000000000000000000000000000000000000831614610591565b6000848152602081905260409020600b01546001600160a01b03163314610c5e576040517f818b695a00000000000000000000000000000000000000000000000000000000815260040160405180910390fd5b6000848152602081905260409020600d8101849055600e01610c818284836141cc565b50837f67cca598521e82ef0d9258a1aa68c73e39a1378e9b11f4fd23e9207ed7426d66848484604051610cb6939291906142f3565b60405180910390a250505050565b6000848152602081905260409020600b01546001600160a01b03163314610d17576040517f818b695a00000000000000000000000000000000000000000000000000000000815260040160405180910390fd5b7f00000000000000000000000000000000000000000000000000000000000000006001600160a01b03166358a14ad26040518163ffffffff1660e01b8152600401602060405180830381865afa158015610d75573d6000803e3d6000fd5b505050506040513d601f19601f82011682018060405250810190610d99919061430d565b610da39042614355565b831080610dd85750610dd57f000000000000000000000000000000000000000000000000000000000000000042614355565b83115b15610e0f576040517f983dab6700000000000000000000000000000000000000000000000000000000815260040160405180910390fd5b60008481526020819052604090206001015442811015610e5b576040517f8451d06e00000000000000000000000000000000000000000000000000000000815260040160405180910390fd5b8084111561136857610e6e8584846125ef565b600085815260208181526040808320815160e08082018452825482526001830154828601526002830154828501526003830154606080840191909152600484015460808085019190915260058501546001600160a01b0390811660a080870191909152875161014081018952600688018054825260078901549a82019a909a52600888015498810198909852600987015493880193909352600a86015491870191909152600b850154811691860191909152600c84015490811660c0808701919091527401000000000000000000000000000000000000000090910460ff1691850191909152600d830154610100850152600e830180549295939491860193919261012084019190610f7f9061410f565b80601f0160208091040260200160405190810160405280929190818152602001828054610fab9061410f565b8015610ff85780601f10610fcd57610100808354040283529160200191610ff8565b820191906000526020600020905b815481529060010190602001808311610fdb57829003601f168201915b505050919092525050509052506040810151815160c0830151519293506000926110229089614368565b61102c919061437b565b611037906001614355565b6110419190614368565b90508160c0015160600151817f00000000000000000000000000000000000000000000000000000000000000006001600160a01b031663fa3036bf6040518163ffffffff1660e01b8152600401602060405180830381865afa1580156110ab573d6000803e3d6000fd5b505050506040513d601f19601f820116820180604052508101906110cf919061430d565b7f00000000000000000000000000000000000000000000000000000000000000006001600160a01b031663bdb3a8706040518163ffffffff1660e01b8152600401602060405180830381865afa15801561112d573d6000803e3d6000fd5b505050506040513d601f19601f82011682018060405250810190611151919061430d565b8560c00151608001516111649190614355565b61116e9190614355565b8460c001516020015161118191906143b6565b61118b91906143b6565b11156111c3576040517f2994eb4300000000000000000000000000000000000000000000000000000000815260040160405180910390fd5b60c082015160e001516040517fc50d525d00000000000000000000000000000000000000000000000000000000815260ff90911660048201526000907f00000000000000000000000000000000000000000000000000000000000000006001600160a01b03169063c50d525d90602401602060405180830381865afa158015611250573d6000803e3d6000fd5b505050506040513d601f19601f82011682018060405250810190611274919061430d565b90506000827f00000000000000000000000000000000000000000000000000000000000000006001600160a01b0316639bc271366040518163ffffffff1660e01b8152600401602060405180830381865afa1580156112d7573d6000803e3d6000fd5b505050506040513d601f19601f820116820180604052508101906112fb919061430d565b83866080015161130b91906143b6565b6113159190614355565b61131f91906143b6565b9050808460c00151604001511015611363576040517fe7b88e3500000000000000000000000000000000000000000000000000000000815260040160405180910390fd5b505050505b60008581526020818152604091829020600101869055905185815286917fe3d85a74b6d91487b5aecc2a9740a541debf4a95ac1c5c8f7bc285e06fdfab2b910160405180910390a25050505050565b61080f81336126e1565b60008281527f02dd7bc7dec4dceedda775e58dd541e08a116c6c53815c0bd028192f7b626800602081815260408084206001600160a01b038616855290915282205460ff166114a4576000848152602082815260408083206001600160a01b0387168452909152902080547fffffffffffffffffffffffffffffffffffffffffffffffffffffffffffffff0016600117905561145a3390565b6001600160a01b0316836001600160a01b0316857f2f8788117e7eff1d82e926ec794901d17c78024a50270940304540a733656f0d60405160405180910390a46001915050610591565b6000915050610591565b60008281527f02dd7bc7dec4dceedda775e58dd541e08a116c6c53815c0bd028192f7b626800602081815260408084206001600160a01b038616855290915282205460ff16156114a4576000848152602082815260408083206001600160a01b038716808552925280832080547fffffffffffffffffffffffffffffffffffffffffffffffffffffffffffffff0016905551339287917ff6391f5c32d9c69d2a47ea670b442974b53935d1edc7fd64eb21e047a839171b9190a46001915050610591565b6000838152602081905260409020600b01546001600160a01b03166115c3576040517f876c7f1600000000000000000000000000000000000000000000000000000000815260040160405180910390fd5b6107188383836125ef565b306001600160a01b037f000000000000000000000000000000000000000000000000000000000000000016148061166757507f00000000000000000000000000000000000000000000000000000000000000006001600160a01b031661165b7f360894a13ba1a3210667c828492db98dca3e2076cc3735a920a3ca505d382bbc546001600160a01b031690565b6001600160a01b031614155b1561169e576040517fe07c8dba00000000000000000000000000000000000000000000000000000000815260040160405180910390fd5b565b60006107b8816113b7565b816001600160a01b03166352d1902d6040518163ffffffff1660e01b8152600401602060405180830381865afa925050508015611705575060408051601f3d908101601f191682019092526117029181019061430d565b60015b61174b576040517f4c9c8ce30000000000000000000000000000000000000000000000000000000081526001600160a01b03831660048201526024015b60405180910390fd5b7f360894a13ba1a3210667c828492db98dca3e2076cc3735a920a3ca505d382bbc81146117a7576040517faa1d49a400000000000000000000000000000000000000000000000000000000815260048101829052602401611742565b610718838361276e565b306001600160a01b037f0000000000000000000000000000000000000000000000000000000000000000161461169e576040517fe07c8dba00000000000000000000000000000000000000000000000000000000815260040160405180910390fd5b6000818152602081905260409020600b01546001600160a01b0316611864576040517f17e732bc00000000000000000000000000000000000000000000000000000000815260040160405180910390fd5b7f00000000000000000000000000000000000000000000000000000000000000006001600160a01b03166358a14ad26040518163ffffffff1660e01b8152600401602060405180830381865afa1580156118c2573d6000803e3d6000fd5b505050506040513d601f19601f820116820180604052508101906118e6919061430d565b6000828152602081905260409020600101546119029190614355565b421161193a576040517f98c3b23400000000000000000000000000000000000000000000000000000000815260040160405180910390fd5b6000818152602081905260408120600881018054600983018054600b85018054878755600187018890556002870188905560038701889055600487018890556005870180547fffffffffffffffffffffffff000000000000000000000000000000000000000090811690915560068801898155600789018a90559689905593889055600a87018890559283169055600c850180547fffffffffffffffffffffff000000000000000000000000000000000000000000169055600d8501869055919491936001600160a01b039091169290919081611a1a600e850182613ae6565b50505050611ab581847f00000000000000000000000000000000000000000000000000000000000000006001600160a01b03166382bfefc86040518163ffffffff1660e01b8152600401602060405180830381865afa158015611a81573d6000803e3d6000fd5b505050506040513d601f19601f82011682018060405250810190611aa591906143cd565b6001600160a01b031691906127c4565b6000816001600160a01b03168360405160006040518083038185875af1925050503d8060008114611b02576040519150601f19603f3d011682016040523d82523d6000602084013e611b07565b606091505b50509050816001600160a01b0316857f5237f8483a579d9e5d6c9468bf514ff2187d86dddf918705b301b9ab7983e4f4868685604051611b5c9392919092835260208301919091521515604082015260600190565b60405180910390a35050505050565b7fffffffffffffffffffffffffffffffff800000000000000000000000000000008616600081815260208181526040808320815160e08082018452825482526001830154828601526002830154828501526003830154606080840191909152600484015460808085019190915260058501546001600160a01b0390811660a080870191909152875161014081018952600688018054825260078901549a82019a909a52600888015498810198909852600987015493880193909352600a86015491870191909152600b850154811691860191909152600c84015490811660c0808701919091527401000000000000000000000000000000000000000090910460ff1691850191909152600d830154610100850152600e830180549295939491860193919261012084019190611c9f9061410f565b80601f0160208091040260200160405190810160405280929190818152602001828054611ccb9061410f565b8015611d185780601f10611ced57610100808354040283529160200191611d18565b820191906000526020600020905b815481529060010190602001808311611cfb57829003601f168201915b5050509190925250505090525060c081015160a001519091506001600160a01b0316611d70576040517f876c7f1600000000000000000000000000000000000000000000000000000000815260040160405180910390fd5b60408101516f7fffffffffffffffffffffffffffffff891690811015611dc2576040517fd4d1fc6900000000000000000000000000000000000000000000000000000000815260040160405180910390fd5b8151600090611dd190836143b6565b60c084015151611de19190614355565b90507f00000000000000000000000000000000000000000000000000000000000000006001600160a01b03166358a14ad26040518163ffffffff1660e01b8152600401602060405180830381865afa158015611e41573d6000803e3d6000fd5b505050506040513d601f19601f82011682018060405250810190611e65919061430d565b611e6f9082614355565b421115611ea8576040517f75b9f89300000000000000000000000000000000000000000000000000000000815260040160405180910390fd5b6000611eba8d8d8d8d8d8d8d8d612838565b9050611ec7836001614355565b60008681526020819052604080822060028101939093554260039093019290925590517ff6a17fe30000000000000000000000000000000000000000000000000000000081526001600160a01b0383811660048301527f0000000000000000000000000000000000000000000000000000000000000000169063f6a17fe390602401602060405180830381865afa158015611f66573d6000803e3d6000fd5b505050506040513d601f19601f82011682018060405250810190611f8a91906143cd565b9050611fa88560c0015160e00151828b8860c0015160400151612bb7565b600080611fbc888860c001518f8f8e612d69565b9150915060003a7f00000000000000000000000000000000000000000000000000000000000000006001600160a01b031663bdb3a8706040518163ffffffff1660e01b8152600401602060405180830381865afa158015612021573d6000803e3d6000fd5b505050506040513d601f19601f82011682018060405250810190612045919061430d565b61204f9084614355565b61205991906143b6565b905061206e848960c001516060015183612e7e565b887f4177b56b43bdfa0b78d2a3c937d3d9b43803c0707df626aaa31235a3b6d2b8f38f8f8f8f888d426040516120aa97969594939291906143ea565b60405180910390a25050505050505050505050505050505050565b826101200151836020015110612107576040517fdbedfa2e00000000000000000000000000000000000000000000000000000000815260040160405180910390fd5b4283610120015111158061214857506121407f000000000000000000000000000000000000000000000000000000000000000042614355565b836101200151115b1561217f576040517f983dab6700000000000000000000000000000000000000000000000000000000815260040160405180910390fd5b7f000000000000000000000000000000000000000000000000000000000000000083610100015110806121d657507f0000000000000000000000000000000000000000000000000000000000000000836101000151115b1561220d576040517fd8a8add000000000000000000000000000000000000000000000000000000000815260040160405180910390fd5b7f00000000000000000000000000000000000000000000000000000000000000006001600160a01b0316631e3708df6040518163ffffffff1660e01b8152600401602060405180830381865afa15801561226b573d6000803e3d6000fd5b505050506040513d601f19601f8201168201806040525081019061228f919061430d565b83610140015111158061232857507f00000000000000000000000000000000000000000000000000000000000000006001600160a01b031663e29fcdc56040518163ffffffff1660e01b8152600401602060405180830381865afa1580156122fb573d6000803e3d6000fd5b505050506040513d601f19601f8201168201806040525081019061231f919061430d565b83610140015110155b1561235f576040517fb0cef88200000000000000000000000000000000000000000000000000000000815260040160405180910390fd5b3a8360400151101561239d576040517fe14c8d6b00000000000000000000000000000000000000000000000000000000815260040160405180910390fd5b42836020015110156123b0574260208401525b6123e48360000151846101400151856040015186608001518761010001518789606001518a602001518b6101200151612f1a565b600060405180610140016040528085602001518152602001856040015181526020018560600151815260200184815260200185608001518152602001836001600160a01b031681526020018560a001516001600160a01b03168152602001856000015160ff1681526020018560c0015181526020018560e0015181525090506124848185610140015186610160015187610100015188610120015161323a565b610706823086606001517f00000000000000000000000000000000000000000000000000000000000000006001600160a01b03166382bfefc86040518163ffffffff1660e01b8152600401602060405180830381865afa1580156124ec573d6000803e3d6000fd5b505050506040513d601f19601f8201168201806040525081019061251091906143cd565b6001600160a01b0316929190613447565b61169e613480565b6125c1817f00000000000000000000000000000000000000000000000000000000000000006001600160a01b03166358a14ad26040518163ffffffff1660e01b8152600401602060405180830381865afa15801561258b573d6000803e3d6000fd5b505050506040513d601f19601f820116820180604052508101906125af919061430d565b6125b99042614355565b600080610cc4565b60405181907f74316243c2e2fb2f84ee7bf4750a4499d76e9a6d59d64d193e4234372f5e2c2190600090a250565b6126533330847f00000000000000000000000000000000000000000000000000000000000000006001600160a01b03166382bfefc86040518163ffffffff1660e01b8152600401602060405180830381865afa1580156124ec573d6000803e3d6000fd5b60008381526020819052604081206008018054849290612674908490614355565b90915550506000838152602081905260408120600901805483929061269a908490614355565b90915550506040805183815260208101839052339185917fe302ecb735de589d160f2840a80e52229c6d153f4e9d0c8bf81832eda174243c910160405180910390a3505050565b60008281527f02dd7bc7dec4dceedda775e58dd541e08a116c6c53815c0bd028192f7b626800602090815260408083206001600160a01b038516845290915290205460ff166107b8576040517fe2517d3f0000000000000000000000000000000000000000000000000000000081526001600160a01b038216600482015260248101839052604401611742565b612777826134e7565b6040516001600160a01b038316907fbc7cd75a20ee27fd9adebab32041f755214dbc6bffa90cc0225b39da2e5c2d3b90600090a28051156127bc57610718828261358f565b6107b8613605565b6040516001600160a01b0383811660248301526044820183905261071891859182169063a9059cbb906064015b604051602081830303815290604052915060e01b6020820180517bffffffffffffffffffffffffffffffffffffffffffffffffffffffff838183161783525050505061363d565b60007f00000000000000000000000000000000000000000000000000000000000000006001600160a01b0316639aec990e6040518163ffffffff1660e01b8152600401602060405180830381865afa158015612898573d6000803e3d6000fd5b505050506040513d601f19601f820116820180604052508101906128bc919061430d565b6128c69083614355565b4211156128ff576040517fb15e2e6700000000000000000000000000000000000000000000000000000000815260040160405180910390fd5b60007f00000000000000000000000000000000000000000000000000000000000000006001600160a01b031663051ce40a6040518163ffffffff1660e01b8152600401602060405180830381865afa15801561295f573d6000803e3d6000fd5b505050506040513d601f19601f82011682018060405250810190612983919061430d565b88888860405161299492919061442b565b60408051918290038220602083019490945281019190915260608101919091526080810186905260ff851660a082015260c0810184905260e00160408051601f1981840301815282825280516020918201207fb03948446334eb9b2196d5eb166f69b9d49403eb4a12f36de8d3f9f3cb8e15c3918401919091527f0d24a74f5d1859470484703a463a08f29714f90b23f20c2a12b12db1a288fdce918301919091527fc89efdaa54c0f20c7adf612882df0950f5a951637e0307cdcb4c672f298b8bc66060830152915060009060800160408051601f198184030181529082905280516020918201207f1901000000000000000000000000000000000000000000000000000000000000918301919091526022820152604281018390526062016040516020818303038152906040528051906020012090506000612b108c8c8080601f01602080910402602001604051908101604052809392919081815260200183838082843760009201919091525086939250506136b99050565b6040517fa0ac45d50000000000000000000000000000000000000000000000000000000081526001600160a01b0380831660048301529192507f00000000000000000000000000000000000000000000000000000000000000009091169063a0ac45d59060240160006040518083038186803b158015612b8f57600080fd5b505afa158015612ba3573d6000803e3d6000fd5b50929e9d5050505050505050505050505050565b6000807f00000000000000000000000000000000000000000000000000000000000000006001600160a01b0316639bc271366040518163ffffffff1660e01b8152600401602060405180830381865afa158015612c18573d6000803e3d6000fd5b505050506040513d601f19601f82011682018060405250810190612c3c919061430d565b6040517fc50d525d00000000000000000000000000000000000000000000000000000000815260ff881660048201527f00000000000000000000000000000000000000000000000000000000000000006001600160a01b03169063c50d525d90602401602060405180830381865afa158015612cbc573d6000803e3d6000fd5b505050506040513d601f19601f82011682018060405250810190612ce0919061430d565b85020191508183039050612d4d85837f00000000000000000000000000000000000000000000000000000000000000006001600160a01b03166382bfefc86040518163ffffffff1660e01b8152600401602060405180830381865afa158015611a81573d6000803e3d6000fd5b6001546000908152602081905260409020600801555050505050565b60008085602001513a11612e745760005a90508660c001516001600160a01b03168760800151898960a001518a61010001518b61012001518b8b8b604051602401612dba979695949392919061443b565b60408051601f198184030181529181526020820180517bffffffffffffffffffffffffffffffffffffffffffffffffffffffff167f9e24036d0000000000000000000000000000000000000000000000000000000017905251612e1d9190614494565b60006040518083038160008787f1925050503d8060008114612e5b576040519150601f19603f3d011682016040523d82523d6000602084013e612e60565b606091505b50909350505a612e709082614368565b9150505b9550959350505050565b818111612e8b5780612e8d565b815b90506000836001600160a01b03168260405160006040518083038185875af1925050503d8060008114612edc576040519150601f19603f3d011682016040523d82523d6000602084013e612ee1565b606091505b505090508160008060015481526020019081526020016000206006016003016000828254612f0f9190614368565b909155505050505050565b600085612f278484614368565b612f31919061437b565b612f3c906001614355565b90506000817f00000000000000000000000000000000000000000000000000000000000000006001600160a01b031663fa3036bf6040518163ffffffff1660e01b8152600401602060405180830381865afa158015612f9f573d6000803e3d6000fd5b505050506040513d601f19601f82011682018060405250810190612fc3919061430d565b7f00000000000000000000000000000000000000000000000000000000000000006001600160a01b031663bdb3a8706040518163ffffffff1660e01b8152600401602060405180830381865afa158015613021573d6000803e3d6000fd5b505050506040513d601f19601f82011682018060405250810190613045919061430d565b61304f908b614355565b6130599190614355565b613063908b6143b6565b61306d91906143b6565b9050808610156130a9576040517f2994eb4300000000000000000000000000000000000000000000000000000000815260040160405180910390fd5b6000827f00000000000000000000000000000000000000000000000000000000000000006001600160a01b0316639bc271366040518163ffffffff1660e01b8152600401602060405180830381865afa15801561310a573d6000803e3d6000fd5b505050506040513d601f19601f8201168201806040525081019061312e919061430d565b6040517fc50d525d00000000000000000000000000000000000000000000000000000000815260ff8f1660048201526001600160a01b037f0000000000000000000000000000000000000000000000000000000000000000169063c50d525d90602401602060405180830381865afa1580156131ae573d6000803e3d6000fd5b505050506040513d601f19601f820116820180604052508101906131d2919061430d565b6131dc908e6143b6565b6131e69190614355565b6131f091906143b6565b90508086101561322c576040517fe7b88e3500000000000000000000000000000000000000000000000000000000815260040160405180910390fd5b505050505050505050505050565b6132426136e3565b6040518060e001604052808381526020018281526020016000815260200160008152602001858152602001846001600160a01b03168152602001868152506000806001548152602001908152602001600020600082015181600001556020820151816001015560408201518160020155606082015181600301556080820151816004015560a08201518160050160006101000a8154816001600160a01b0302191690836001600160a01b0316021790555060c082015181600601600082015181600001556020820151816001015560408201518160020155606082015181600301556080820151816004015560a08201518160050160006101000a8154816001600160a01b0302191690836001600160a01b0316021790555060c08201518160060160006101000a8154816001600160a01b0302191690836001600160a01b0316021790555060e08201518160060160146101000a81548160ff021916908360ff16021790555061010082015181600701556101208201518160080190816133ca91906144b0565b5050509050508460a001516001600160a01b03168560e0015160ff166001547f3b69aeaae9699ee6479385c59bdf265ef0d39b1254a1c9363231e122a520ba93858960400151868a8a8d61010001518e61012001518f600001516040516134389897969594939291906145ab565b60405180910390a45050505050565b6040516001600160a01b0384811660248301528381166044830152606482018390526107069186918216906323b872dd906084016127f1565b7ff0c57e16840df040f15088dc2f81fe391c3923bec73e23a9662efc9c229c6a005468010000000000000000900460ff1661169e576040517fd7e6bcf800000000000000000000000000000000000000000000000000000000815260040160405180910390fd5b806001600160a01b03163b600003613536576040517f4c9c8ce30000000000000000000000000000000000000000000000000000000081526001600160a01b0382166004820152602401611742565b7f360894a13ba1a3210667c828492db98dca3e2076cc3735a920a3ca505d382bbc80547fffffffffffffffffffffffff0000000000000000000000000000000000000000166001600160a01b0392909216919091179055565b6060600080846001600160a01b0316846040516135ac9190614494565b600060405180830381855af49150503d80600081146135e7576040519150601f19603f3d011682016040523d82523d6000602084013e6135ec565b606091505b50915091506135fc858383613748565b95945050505050565b341561169e576040517fb398979f00000000000000000000000000000000000000000000000000000000815260040160405180910390fd5b60006136526001600160a01b038416836137c0565b90508051600014158015613677575080806020019051810190613675919061415c565b155b15610718576040517f5274afe70000000000000000000000000000000000000000000000000000000081526001600160a01b0384166004820152602401611742565b6000806000806136c986866137ce565b9250925092506136d9828261381b565b5090949350505050565b6000607f600154901c67ffffffffffffffff1690508067ffffffffffffffff03613729574660c01b77800000000000000000000000000000000000000000000000176001555b607f6001901b600160008282546137409190614355565b909155505050565b60608261375d576137588261391f565b6137b9565b815115801561377457506001600160a01b0384163b155b156137b6576040517f9996b3150000000000000000000000000000000000000000000000000000000081526001600160a01b0385166004820152602401611742565b50805b9392505050565b60606137b983836000613961565b600080600083516041036138085760208401516040850151606086015160001a6137fa88828585613a17565b955095509550505050613814565b50508151600091506002905b9250925092565b600082600381111561382f5761382f614602565b03613838575050565b600182600381111561384c5761384c614602565b03613883576040517ff645eedf00000000000000000000000000000000000000000000000000000000815260040160405180910390fd5b600282600381111561389757613897614602565b036138d1576040517ffce698f700000000000000000000000000000000000000000000000000000000815260048101829052602401611742565b60038260038111156138e5576138e5614602565b036107b8576040517fd78bce0c00000000000000000000000000000000000000000000000000000000815260048101829052602401611742565b80511561392f5780518082602001fd5b6040517f1425ea4200000000000000000000000000000000000000000000000000000000815260040160405180910390fd5b60608147101561399f576040517fcd786059000000000000000000000000000000000000000000000000000000008152306004820152602401611742565b600080856001600160a01b031684866040516139bb9190614494565b60006040518083038185875af1925050503d80600081146139f8576040519150601f19603f3d011682016040523d82523d6000602084013e6139fd565b606091505b5091509150613a0d868383613748565b9695505050505050565b600080807f7fffffffffffffffffffffffffffffff5d576e7357a4501ddfe92f46681b20a0841115613a525750600091506003905082613adc565b604080516000808252602082018084528a905260ff891692820192909252606081018790526080810186905260019060a0016020604051602081039080840390855afa158015613aa6573d6000803e3d6000fd5b5050604051601f1901519150506001600160a01b038116613ad257506000925060019150829050613adc565b9250600091508190505b9450945094915050565b508054613af29061410f565b6000825580601f10613b02575050565b601f01602090049060005260206000209081019061080f91905b80821115613b305760008155600101613b1c565b5090565b600060208284031215613b4657600080fd5b81357fffffffff00000000000000000000000000000000000000000000000000000000811681146137b957600080fd5b600060208284031215613b8857600080fd5b5035919050565b60005b83811015613baa578181015183820152602001613b92565b50506000910152565b60008151808452613bcb816020860160208601613b8f565b601f01601f19169290920160200192915050565b8781528660208201528560408201528460608201528360808201526001600160a01b03831660a082015260e060c0820152815160e08201526020820151610100820152604082015161012082015260608201516101408201526080820151610160820152600060a0830151613c606101808401826001600160a01b03169052565b5060c08301516001600160a01b03166101a083015260e083015160ff166101c08301526101008301516101e0830152610120830151610140610200840152613cac610220840182613bb3565b9a9950505050505050505050565b60008083601f840112613ccc57600080fd5b50813567ffffffffffffffff811115613ce457600080fd5b602083019150836020828501011115613cfc57600080fd5b9250929050565b60008060008060608587031215613d1957600080fd5b8435935060208501359250604085013567ffffffffffffffff811115613d3e57600080fd5b613d4a87828801613cba565b95989497509550505050565b600080600060608486031215613d6b57600080fd5b505081359360208301359350604090920135919050565b6001600160a01b038116811461080f57600080fd5b8035613da281613d82565b919050565b60008060408385031215613dba57600080fd5b823591506020830135613dcc81613d82565b809150509250929050565b60008060408385031215613dea57600080fd5b50508035926020909101359150565b7f4e487b7100000000000000000000000000000000000000000000000000000000600052604160045260246000fd5b604051610180810167ffffffffffffffff81118282101715613e4c57613e4c613df9565b60405290565b600082601f830112613e6357600080fd5b813567ffffffffffffffff811115613e7d57613e7d613df9565b604051601f8201601f19908116603f0116810167ffffffffffffffff81118282101715613eac57613eac613df9565b604052818152838201602001851015613ec457600080fd5b816020850160208301376000918101602001919091529392505050565b60008060408385031215613ef457600080fd5b8235613eff81613d82565b9150602083013567ffffffffffffffff811115613f1b57600080fd5b613f2785828601613e52565b9150509250929050565b803560ff81168114613da257600080fd5b60008060008060008060008060c0898b031215613f5e57600080fd5b883567ffffffffffffffff811115613f7557600080fd5b613f818b828c01613cba565b90995097505060208901359550604089013567ffffffffffffffff811115613fa857600080fd5b613fb48b828c01613cba565b90965094505060608901359250613fcd60808a01613f31565b979a969950949793969295919450919260a001359150565b6020815260006137b96020830184613bb3565b60006020828403121561400a57600080fd5b813567ffffffffffffffff81111561402157600080fd5b8201610180818503121561403457600080fd5b61403c613e28565b61404582613f31565b81526020828101359082015260408083013590820152606080830135908201526080808301359082015261407b60a08301613d97565b60a082015260c0828101359082015260e082013567ffffffffffffffff8111156140a457600080fd5b6140b086828501613e52565b60e0830152506101008281013590820152610120808301359082015261014080830135908201526140e46101608301613d97565b610160820152949350505050565b60006020828403121561410457600080fd5b81356137b981613d82565b600181811c9082168061412357607f821691505b60208210810361091d577f4e487b7100000000000000000000000000000000000000000000000000000000600052602260045260246000fd5b60006020828403121561416e57600080fd5b815180151581146137b957600080fd5b601f82111561071857806000526020600020601f840160051c810160208510156141a55750805b601f840160051c820191505b818110156141c557600081556001016141b1565b5050505050565b67ffffffffffffffff8311156141e4576141e4613df9565b6141f8836141f2835461410f565b8361417e565b6000601f84116001811461424a57600085156142145750838201355b7fffffffffffffffffffffffffffffffffffffffffffffffffffffffffffffffff600387901b1c1916600186901b1783556141c5565b600083815260209020601f19861690835b8281101561427b578685013582556020948501946001909201910161425b565b50868210156142b6577fffffffffffffffffffffffffffffffffffffffffffffffffffffffffffffffff60f88860031b161c19848701351681555b505060018560011b0183555050505050565b818352818160208501375060006020828401015260006020601f19601f840116840101905092915050565b8381526040602082015260006135fc6040830184866142c8565b60006020828403121561431f57600080fd5b5051919050565b7f4e487b7100000000000000000000000000000000000000000000000000000000600052601160045260246000fd5b8082018082111561059157610591614326565b8181038181111561059157610591614326565b6000826143b1577f4e487b7100000000000000000000000000000000000000000000000000000000600052601260045260246000fd5b500490565b808202811582820484141761059157610591614326565b6000602082840312156143df57600080fd5b81516137b981613d82565b60c0815260006143fe60c08301898b6142c8565b60208301979097525060ff9490941660408501529115156060840152608083015260a09091015292915050565b8183823760009101908152919050565b8781526001600160a01b038716602082015285604082015260c06060820152600061446960c0830187613bb3565b828103608084015261447c8186886142c8565b91505060ff831660a083015298975050505050505050565b600082516144a6818460208701613b8f565b9190910192915050565b815167ffffffffffffffff8111156144ca576144ca613df9565b6144de816144d8845461410f565b8461417e565b6020601f82116001811461453057600083156144fa5750848201515b7fffffffffffffffffffffffffffffffffffffffffffffffffffffffffffffffff600385901b1c1916600184901b1784556141c5565b600084815260208120601f198516915b828110156145605787850151825560209485019460019092019101614540565b508482101561459c57868401517fffffffffffffffffffffffffffffffffffffffffffffffffffffffffffffffff600387901b60f8161c191681555b50505050600190811b01905550565b8881528760208201528660408201528560608201526001600160a01b03851660808201528360a082015261010060c082015260006145ed610100830185613bb3565b90508260e08301529998505050505050505050565b7f4e487b7100000000000000000000000000000000000000000000000000000000600052602160045260246000fdfea2646970667358221220abd9ca25f5b4066f953b1723e1d64e806728188eb8de422e0fdeaa43ba9bc0bb64736f6c634300081b0033",
  "linkReferences": {},
  "deployedLinkReferences": {}
}